{
	"atta-movies/ERC721/klaytn/ERC721VendingMachineAutoIdForKlay.sol": {
		"VendingMachine": {
			"abi": [
				{
					"inputs": [
						{
							"internalType": "address",
							"name": "_nftAddress",
							"type": "address"
						},
						{
							"internalType": "address",
							"name": "_treasury",
							"type": "address"
						}
					],
					"stateMutability": "nonpayable",
					"type": "constructor"
				},
				{
					"anonymous": false,
					"inputs": [
						{
							"indexed": true,
							"internalType": "address",
							"name": "buyer",
							"type": "address"
						},
						{
							"indexed": true,
							"internalType": "uint256",
							"name": "uriTemplateId",
							"type": "uint256"
						},
						{
							"indexed": true,
							"internalType": "uint256",
							"name": "tokenId",
							"type": "uint256"
						},
						{
							"indexed": false,
							"internalType": "uint256",
							"name": "price",
							"type": "uint256"
						}
					],
					"name": "Buy",
					"type": "event"
				},
				{
					"anonymous": false,
					"inputs": [
						{
							"indexed": true,
							"internalType": "address",
							"name": "previousOwner",
							"type": "address"
						},
						{
							"indexed": true,
							"internalType": "address",
							"name": "newOwner",
							"type": "address"
						}
					],
					"name": "OwnershipTransferred",
					"type": "event"
				},
				{
					"anonymous": false,
					"inputs": [
						{
							"indexed": true,
							"internalType": "uint256",
							"name": "uriTemplateId",
							"type": "uint256"
						},
						{
							"indexed": false,
							"internalType": "uint256",
							"name": "price",
							"type": "uint256"
						}
					],
					"name": "PriceUpdate",
					"type": "event"
				},
				{
					"inputs": [
						{
							"internalType": "uint256",
							"name": "",
							"type": "uint256"
						}
					],
					"name": "_commodityPrices",
					"outputs": [
						{
							"internalType": "uint256",
							"name": "",
							"type": "uint256"
						}
					],
					"stateMutability": "view",
					"type": "function"
				},
				{
					"inputs": [],
					"name": "nft",
					"outputs": [
						{
							"internalType": "contract IERC721MintableAutoId",
							"name": "",
							"type": "address"
						}
					],
					"stateMutability": "view",
					"type": "function"
				},
				{
					"inputs": [],
					"name": "owner",
					"outputs": [
						{
							"internalType": "address",
							"name": "",
							"type": "address"
						}
					],
					"stateMutability": "view",
					"type": "function"
				},
				{
					"inputs": [],
					"name": "renounceOwnership",
					"outputs": [],
					"stateMutability": "nonpayable",
					"type": "function"
				},
				{
					"inputs": [
						{
							"internalType": "uint256",
							"name": "_uriTemplateId",
							"type": "uint256"
						},
						{
							"internalType": "uint256",
							"name": "_quantity",
							"type": "uint256"
						}
					],
					"name": "safeBuyToken",
					"outputs": [],
					"stateMutability": "payable",
					"type": "function"
				},
				{
					"inputs": [
						{
							"internalType": "uint256",
							"name": "_uriTemplateId",
							"type": "uint256"
						},
						{
							"internalType": "uint256",
							"name": "_price",
							"type": "uint256"
						}
					],
					"name": "safeListToken",
					"outputs": [],
					"stateMutability": "nonpayable",
					"type": "function"
				},
				{
					"inputs": [
						{
							"internalType": "address",
							"name": "newOwner",
							"type": "address"
						}
					],
					"name": "transferOwnership",
					"outputs": [],
					"stateMutability": "nonpayable",
					"type": "function"
				},
				{
					"inputs": [],
					"name": "treasury",
					"outputs": [
						{
							"internalType": "address",
							"name": "",
							"type": "address"
						}
					],
					"stateMutability": "view",
					"type": "function"
				}
			],
			"devdoc": {
				"kind": "dev",
				"methods": {
					"owner()": {
						"details": "Returns the address of the current owner."
					},
					"renounceOwnership()": {
						"details": "Leaves the contract without owner. It will not be possible to call `onlyOwner` functions anymore. Can only be called by the current owner. NOTE: Renouncing ownership will leave the contract without an owner, thereby removing any functionality that is only available to the owner."
					},
					"transferOwnership(address)": {
						"details": "Transfers ownership of the contract to a new account (`newOwner`). Can only be called by the current owner."
					}
				},
				"version": 1
			},
			"evm": {
				"assembly": "    /* \"atta-movies/ERC721/klaytn/ERC721VendingMachineAutoIdForKlay.sol\":22433:24128  contract VendingMachine is Ownable {\r... */\n  mstore(0x40, 0x80)\n    /* \"atta-movies/ERC721/klaytn/ERC721VendingMachineAutoIdForKlay.sol\":22830:23074  constructor(\r... */\n  callvalue\n  dup1\n  iszero\n  tag_1\n  jumpi\n  0x00\n  dup1\n  revert\ntag_1:\n  pop\n  mload(0x40)\n  sub(codesize, bytecodeSize)\n  dup1\n  bytecodeSize\n  dup4\n  codecopy\n  dup2\n  dup2\n  add\n  0x40\n  mstore\n  dup2\n  add\n  swap1\n  tag_2\n  swap2\n  swap1\n  tag_3\n  jump\t// in\ntag_2:\n    /* \"atta-movies/ERC721/klaytn/ERC721VendingMachineAutoIdForKlay.sol\":8103:8120  address msgSender */\n  0x00\n    /* \"atta-movies/ERC721/klaytn/ERC721VendingMachineAutoIdForKlay.sol\":8123:8135  _msgSender() */\n  tag_7\n    /* \"atta-movies/ERC721/klaytn/ERC721VendingMachineAutoIdForKlay.sol\":8123:8133  _msgSender */\n  shl(0x20, tag_8)\n    /* \"atta-movies/ERC721/klaytn/ERC721VendingMachineAutoIdForKlay.sol\":8123:8135  _msgSender() */\n  0x20\n  shr\n  jump\t// in\ntag_7:\n    /* \"atta-movies/ERC721/klaytn/ERC721VendingMachineAutoIdForKlay.sol\":8103:8135  address msgSender = _msgSender() */\n  swap1\n  pop\n    /* \"atta-movies/ERC721/klaytn/ERC721VendingMachineAutoIdForKlay.sol\":8155:8164  msgSender */\n  dup1\n    /* \"atta-movies/ERC721/klaytn/ERC721VendingMachineAutoIdForKlay.sol\":8146:8152  _owner */\n  0x00\n  dup1\n    /* \"atta-movies/ERC721/klaytn/ERC721VendingMachineAutoIdForKlay.sol\":8146:8164  _owner = msgSender */\n  0x0100\n  exp\n  dup2\n  sload\n  dup2\n  0xffffffffffffffffffffffffffffffffffffffff\n  mul\n  not\n  and\n  swap1\n  dup4\n  0xffffffffffffffffffffffffffffffffffffffff\n  and\n  mul\n  or\n  swap1\n  sstore\n  pop\n    /* \"atta-movies/ERC721/klaytn/ERC721VendingMachineAutoIdForKlay.sol\":8213:8222  msgSender */\n  dup1\n    /* \"atta-movies/ERC721/klaytn/ERC721VendingMachineAutoIdForKlay.sol\":8180:8223  OwnershipTransferred(address(0), msgSender) */\n  0xffffffffffffffffffffffffffffffffffffffff\n  and\n    /* \"atta-movies/ERC721/klaytn/ERC721VendingMachineAutoIdForKlay.sol\":8209:8210  0 */\n  0x00\n    /* \"atta-movies/ERC721/klaytn/ERC721VendingMachineAutoIdForKlay.sol\":8180:8223  OwnershipTransferred(address(0), msgSender) */\n  0xffffffffffffffffffffffffffffffffffffffff\n  and\n  0x8be0079c531659141344cd1fd0a4f28419497f9722a3daafe3b4186f6b6457e0\n  mload(0x40)\n  mload(0x40)\n  dup1\n  swap2\n  sub\n  swap1\n  log3\n    /* \"atta-movies/ERC721/klaytn/ERC721VendingMachineAutoIdForKlay.sol\":8092:8231  {\r... */\n  pop\n    /* \"atta-movies/ERC721/klaytn/ERC721VendingMachineAutoIdForKlay.sol\":22949:22950  0 */\n  0x00\n    /* \"atta-movies/ERC721/klaytn/ERC721VendingMachineAutoIdForKlay.sol\":22926:22951  _nftAddress != address(0) */\n  0xffffffffffffffffffffffffffffffffffffffff\n  and\n    /* \"atta-movies/ERC721/klaytn/ERC721VendingMachineAutoIdForKlay.sol\":22926:22937  _nftAddress */\n  dup3\n    /* \"atta-movies/ERC721/klaytn/ERC721VendingMachineAutoIdForKlay.sol\":22926:22951  _nftAddress != address(0) */\n  0xffffffffffffffffffffffffffffffffffffffff\n  and\n  eq\n  iszero\n    /* \"atta-movies/ERC721/klaytn/ERC721VendingMachineAutoIdForKlay.sol\":22926:22983  _nftAddress != address(0) && _nftAddress != address(this) */\n  dup1\n  iszero\n  tag_10\n  jumpi\n  pop\n    /* \"atta-movies/ERC721/klaytn/ERC721VendingMachineAutoIdForKlay.sol\":22978:22982  this */\n  address\n    /* \"atta-movies/ERC721/klaytn/ERC721VendingMachineAutoIdForKlay.sol\":22955:22983  _nftAddress != address(this) */\n  0xffffffffffffffffffffffffffffffffffffffff\n  and\n    /* \"atta-movies/ERC721/klaytn/ERC721VendingMachineAutoIdForKlay.sol\":22955:22966  _nftAddress */\n  dup3\n    /* \"atta-movies/ERC721/klaytn/ERC721VendingMachineAutoIdForKlay.sol\":22955:22983  _nftAddress != address(this) */\n  0xffffffffffffffffffffffffffffffffffffffff\n  and\n  eq\n  iszero\n    /* \"atta-movies/ERC721/klaytn/ERC721VendingMachineAutoIdForKlay.sol\":22926:22983  _nftAddress != address(0) && _nftAddress != address(this) */\ntag_10:\n    /* \"atta-movies/ERC721/klaytn/ERC721VendingMachineAutoIdForKlay.sol\":22918:22984  require(_nftAddress != address(0) && _nftAddress != address(this)) */\n  tag_11\n  jumpi\n  0x00\n  dup1\n  revert\ntag_11:\n    /* \"atta-movies/ERC721/klaytn/ERC721VendingMachineAutoIdForKlay.sol\":23023:23034  _nftAddress */\n  dup2\n    /* \"atta-movies/ERC721/klaytn/ERC721VendingMachineAutoIdForKlay.sol\":22995:22998  nft */\n  0x01\n  0x00\n    /* \"atta-movies/ERC721/klaytn/ERC721VendingMachineAutoIdForKlay.sol\":22995:23035  nft = IERC721MintableAutoId(_nftAddress) */\n  0x0100\n  exp\n  dup2\n  sload\n  dup2\n  0xffffffffffffffffffffffffffffffffffffffff\n  mul\n  not\n  and\n  swap1\n  dup4\n  0xffffffffffffffffffffffffffffffffffffffff\n  and\n  mul\n  or\n  swap1\n  sstore\n  pop\n    /* \"atta-movies/ERC721/klaytn/ERC721VendingMachineAutoIdForKlay.sol\":23057:23066  _treasury */\n  dup1\n    /* \"atta-movies/ERC721/klaytn/ERC721VendingMachineAutoIdForKlay.sol\":23046:23054  treasury */\n  0x02\n  0x00\n    /* \"atta-movies/ERC721/klaytn/ERC721VendingMachineAutoIdForKlay.sol\":23046:23066  treasury = _treasury */\n  0x0100\n  exp\n  dup2\n  sload\n  dup2\n  0xffffffffffffffffffffffffffffffffffffffff\n  mul\n  not\n  and\n  swap1\n  dup4\n  0xffffffffffffffffffffffffffffffffffffffff\n  and\n  mul\n  or\n  swap1\n  sstore\n  pop\n    /* \"atta-movies/ERC721/klaytn/ERC721VendingMachineAutoIdForKlay.sol\":22830:23074  constructor(\r... */\n  pop\n  pop\n    /* \"atta-movies/ERC721/klaytn/ERC721VendingMachineAutoIdForKlay.sol\":22433:24128  contract VendingMachine is Ownable {\r... */\n  jump(tag_12)\n    /* \"atta-movies/ERC721/klaytn/ERC721VendingMachineAutoIdForKlay.sol\":6903:7001  function _msgSender() internal view virtual returns (address) {\r... */\ntag_8:\n    /* \"atta-movies/ERC721/klaytn/ERC721VendingMachineAutoIdForKlay.sol\":6956:6963  address */\n  0x00\n    /* \"atta-movies/ERC721/klaytn/ERC721VendingMachineAutoIdForKlay.sol\":6983:6993  msg.sender */\n  caller\n    /* \"atta-movies/ERC721/klaytn/ERC721VendingMachineAutoIdForKlay.sol\":6976:6993  return msg.sender */\n  swap1\n  pop\n    /* \"atta-movies/ERC721/klaytn/ERC721VendingMachineAutoIdForKlay.sol\":6903:7001  function _msgSender() internal view virtual returns (address) {\r... */\n  swap1\n  jump\t// out\n    /* \"#utility.yul\":7:150   */\ntag_15:\n    /* \"#utility.yul\":64:69   */\n  0x00\n    /* \"#utility.yul\":95:101   */\n  dup2\n    /* \"#utility.yul\":89:102   */\n  mload\n    /* \"#utility.yul\":80:102   */\n  swap1\n  pop\n    /* \"#utility.yul\":111:144   */\n  tag_17\n    /* \"#utility.yul\":138:143   */\n  dup2\n    /* \"#utility.yul\":111:144   */\n  tag_18\n  jump\t// in\ntag_17:\n    /* \"#utility.yul\":7:150   */\n  swap3\n  swap2\n  pop\n  pop\n  jump\t// out\n    /* \"#utility.yul\":156:663   */\ntag_3:\n    /* \"#utility.yul\":235:241   */\n  0x00\n    /* \"#utility.yul\":243:249   */\n  dup1\n    /* \"#utility.yul\":292:294   */\n  0x40\n    /* \"#utility.yul\":280:289   */\n  dup4\n    /* \"#utility.yul\":271:278   */\n  dup6\n    /* \"#utility.yul\":267:290   */\n  sub\n    /* \"#utility.yul\":263:295   */\n  slt\n    /* \"#utility.yul\":260:379   */\n  iszero\n  tag_20\n  jumpi\n    /* \"#utility.yul\":298:377   */\n  tag_21\n  tag_22\n  jump\t// in\ntag_21:\n    /* \"#utility.yul\":260:379   */\ntag_20:\n    /* \"#utility.yul\":418:419   */\n  0x00\n    /* \"#utility.yul\":443:507   */\n  tag_23\n    /* \"#utility.yul\":499:506   */\n  dup6\n    /* \"#utility.yul\":490:496   */\n  dup3\n    /* \"#utility.yul\":479:488   */\n  dup7\n    /* \"#utility.yul\":475:497   */\n  add\n    /* \"#utility.yul\":443:507   */\n  tag_15\n  jump\t// in\ntag_23:\n    /* \"#utility.yul\":433:507   */\n  swap3\n  pop\n    /* \"#utility.yul\":389:517   */\n  pop\n    /* \"#utility.yul\":556:558   */\n  0x20\n    /* \"#utility.yul\":582:646   */\n  tag_24\n    /* \"#utility.yul\":638:645   */\n  dup6\n    /* \"#utility.yul\":629:635   */\n  dup3\n    /* \"#utility.yul\":618:627   */\n  dup7\n    /* \"#utility.yul\":614:636   */\n  add\n    /* \"#utility.yul\":582:646   */\n  tag_15\n  jump\t// in\ntag_24:\n    /* \"#utility.yul\":572:646   */\n  swap2\n  pop\n    /* \"#utility.yul\":527:656   */\n  pop\n    /* \"#utility.yul\":156:663   */\n  swap3\n  pop\n  swap3\n  swap1\n  pop\n  jump\t// out\n    /* \"#utility.yul\":750:846   */\ntag_27:\n    /* \"#utility.yul\":787:794   */\n  0x00\n    /* \"#utility.yul\":816:840   */\n  tag_29\n    /* \"#utility.yul\":834:839   */\n  dup3\n    /* \"#utility.yul\":816:840   */\n  tag_30\n  jump\t// in\ntag_29:\n    /* \"#utility.yul\":805:840   */\n  swap1\n  pop\n    /* \"#utility.yul\":750:846   */\n  swap2\n  swap1\n  pop\n  jump\t// out\n    /* \"#utility.yul\":852:978   */\ntag_30:\n    /* \"#utility.yul\":889:896   */\n  0x00\n    /* \"#utility.yul\":929:971   */\n  0xffffffffffffffffffffffffffffffffffffffff\n    /* \"#utility.yul\":922:927   */\n  dup3\n    /* \"#utility.yul\":918:972   */\n  and\n    /* \"#utility.yul\":907:972   */\n  swap1\n  pop\n    /* \"#utility.yul\":852:978   */\n  swap2\n  swap1\n  pop\n  jump\t// out\n    /* \"#utility.yul\":1107:1224   */\ntag_22:\n    /* \"#utility.yul\":1216:1217   */\n  0x00\n    /* \"#utility.yul\":1213:1214   */\n  dup1\n    /* \"#utility.yul\":1206:1218   */\n  revert\n    /* \"#utility.yul\":1230:1352   */\ntag_18:\n    /* \"#utility.yul\":1303:1327   */\n  tag_36\n    /* \"#utility.yul\":1321:1326   */\n  dup2\n    /* \"#utility.yul\":1303:1327   */\n  tag_27\n  jump\t// in\ntag_36:\n    /* \"#utility.yul\":1296:1301   */\n  dup2\n    /* \"#utility.yul\":1293:1328   */\n  eq\n    /* \"#utility.yul\":1283:1346   */\n  tag_37\n  jumpi\n    /* \"#utility.yul\":1342:1343   */\n  0x00\n    /* \"#utility.yul\":1339:1340   */\n  dup1\n    /* \"#utility.yul\":1332:1344   */\n  revert\n    /* \"#utility.yul\":1283:1346   */\ntag_37:\n    /* \"#utility.yul\":1230:1352   */\n  pop\n  jump\t// out\n    /* \"atta-movies/ERC721/klaytn/ERC721VendingMachineAutoIdForKlay.sol\":22433:24128  contract VendingMachine is Ownable {\r... */\ntag_12:\n  dataSize(sub_0)\n  dup1\n  dataOffset(sub_0)\n  0x00\n  codecopy\n  0x00\n  return\nstop\n\nsub_0: assembly {\n        /* \"atta-movies/ERC721/klaytn/ERC721VendingMachineAutoIdForKlay.sol\":22433:24128  contract VendingMachine is Ownable {\r... */\n      mstore(0x40, 0x80)\n      jumpi(tag_1, lt(calldatasize, 0x04))\n      shr(0xe0, calldataload(0x00))\n      dup1\n      0x715018a6\n      gt\n      tag_10\n      jumpi\n      dup1\n      0x715018a6\n      eq\n      tag_6\n      jumpi\n      dup1\n      0x8da5cb5b\n      eq\n      tag_7\n      jumpi\n      dup1\n      0xd3f50573\n      eq\n      tag_8\n      jumpi\n      dup1\n      0xf2fde38b\n      eq\n      tag_9\n      jumpi\n      jump(tag_1)\n    tag_10:\n      dup1\n      0x3e56e6c3\n      eq\n      tag_2\n      jumpi\n      dup1\n      0x432be4d0\n      eq\n      tag_3\n      jumpi\n      dup1\n      0x47ccca02\n      eq\n      tag_4\n      jumpi\n      dup1\n      0x61d027b3\n      eq\n      tag_5\n      jumpi\n    tag_1:\n      0x00\n      dup1\n      revert\n        /* \"atta-movies/ERC721/klaytn/ERC721VendingMachineAutoIdForKlay.sol\":23694:24121  function safeBuyToken(uint256 _uriTemplateId, uint256 _quantity) public payable{\r... */\n    tag_2:\n      tag_11\n      0x04\n      dup1\n      calldatasize\n      sub\n      dup2\n      add\n      swap1\n      tag_12\n      swap2\n      swap1\n      tag_13\n      jump\t// in\n    tag_12:\n      tag_14\n      jump\t// in\n    tag_11:\n      stop\n        /* \"atta-movies/ERC721/klaytn/ERC721VendingMachineAutoIdForKlay.sol\":22588:22639  mapping(uint256 => uint256) public _commodityPrices */\n    tag_3:\n      callvalue\n      dup1\n      iszero\n      tag_15\n      jumpi\n      0x00\n      dup1\n      revert\n    tag_15:\n      pop\n      tag_16\n      0x04\n      dup1\n      calldatasize\n      sub\n      dup2\n      add\n      swap1\n      tag_17\n      swap2\n      swap1\n      tag_18\n      jump\t// in\n    tag_17:\n      tag_19\n      jump\t// in\n    tag_16:\n      mload(0x40)\n      tag_20\n      swap2\n      swap1\n      tag_21\n      jump\t// in\n    tag_20:\n      mload(0x40)\n      dup1\n      swap2\n      sub\n      swap1\n      return\n        /* \"atta-movies/ERC721/klaytn/ERC721VendingMachineAutoIdForKlay.sol\":22511:22543  IERC721MintableAutoId public nft */\n    tag_4:\n      callvalue\n      dup1\n      iszero\n      tag_22\n      jumpi\n      0x00\n      dup1\n      revert\n    tag_22:\n      pop\n      tag_23\n      tag_24\n      jump\t// in\n    tag_23:\n      mload(0x40)\n      tag_25\n      swap2\n      swap1\n      tag_26\n      jump\t// in\n    tag_25:\n      mload(0x40)\n      dup1\n      swap2\n      sub\n      swap1\n      return\n        /* \"atta-movies/ERC721/klaytn/ERC721VendingMachineAutoIdForKlay.sol\":22552:22575  address public treasury */\n    tag_5:\n      callvalue\n      dup1\n      iszero\n      tag_27\n      jumpi\n      0x00\n      dup1\n      revert\n    tag_27:\n      pop\n      tag_28\n      tag_29\n      jump\t// in\n    tag_28:\n      mload(0x40)\n      tag_30\n      swap2\n      swap1\n      tag_31\n      jump\t// in\n    tag_30:\n      mload(0x40)\n      dup1\n      swap2\n      sub\n      swap1\n      return\n        /* \"atta-movies/ERC721/klaytn/ERC721VendingMachineAutoIdForKlay.sol\":8954:9102  function renounceOwnership() public virtual onlyOwner {\r... */\n    tag_6:\n      callvalue\n      dup1\n      iszero\n      tag_32\n      jumpi\n      0x00\n      dup1\n      revert\n    tag_32:\n      pop\n      tag_33\n      tag_34\n      jump\t// in\n    tag_33:\n      stop\n        /* \"atta-movies/ERC721/klaytn/ERC721VendingMachineAutoIdForKlay.sol\":8312:8391  function owner() public view returns (address) {\r... */\n    tag_7:\n      callvalue\n      dup1\n      iszero\n      tag_35\n      jumpi\n      0x00\n      dup1\n      revert\n    tag_35:\n      pop\n      tag_36\n      tag_37\n      jump\t// in\n    tag_36:\n      mload(0x40)\n      tag_38\n      swap2\n      swap1\n      tag_31\n      jump\t// in\n    tag_38:\n      mload(0x40)\n      dup1\n      swap2\n      sub\n      swap1\n      return\n        /* \"atta-movies/ERC721/klaytn/ERC721VendingMachineAutoIdForKlay.sol\":23279:23412  function safeListToken(uint256 _uriTemplateId, uint256 _price) public onlyOwner {\r... */\n    tag_8:\n      callvalue\n      dup1\n      iszero\n      tag_39\n      jumpi\n      0x00\n      dup1\n      revert\n    tag_39:\n      pop\n      tag_40\n      0x04\n      dup1\n      calldatasize\n      sub\n      dup2\n      add\n      swap1\n      tag_41\n      swap2\n      swap1\n      tag_13\n      jump\t// in\n    tag_41:\n      tag_42\n      jump\t// in\n    tag_40:\n      stop\n        /* \"atta-movies/ERC721/klaytn/ERC721VendingMachineAutoIdForKlay.sol\":9257:9501  function transferOwnership(address newOwner) public virtual onlyOwner {\r... */\n    tag_9:\n      callvalue\n      dup1\n      iszero\n      tag_43\n      jumpi\n      0x00\n      dup1\n      revert\n    tag_43:\n      pop\n      tag_44\n      0x04\n      dup1\n      calldatasize\n      sub\n      dup2\n      add\n      swap1\n      tag_45\n      swap2\n      swap1\n      tag_46\n      jump\t// in\n    tag_45:\n      tag_47\n      jump\t// in\n    tag_44:\n      stop\n        /* \"atta-movies/ERC721/klaytn/ERC721VendingMachineAutoIdForKlay.sol\":23694:24121  function safeBuyToken(uint256 _uriTemplateId, uint256 _quantity) public payable{\r... */\n    tag_14:\n        /* \"atta-movies/ERC721/klaytn/ERC721VendingMachineAutoIdForKlay.sol\":23825:23826  0 */\n      0x00\n        /* \"atta-movies/ERC721/klaytn/ERC721VendingMachineAutoIdForKlay.sol\":23792:23808  _commodityPrices */\n      0x03\n        /* \"atta-movies/ERC721/klaytn/ERC721VendingMachineAutoIdForKlay.sol\":23792:23824  _commodityPrices[_uriTemplateId] */\n      0x00\n        /* \"atta-movies/ERC721/klaytn/ERC721VendingMachineAutoIdForKlay.sol\":23809:23823  _uriTemplateId */\n      dup5\n        /* \"atta-movies/ERC721/klaytn/ERC721VendingMachineAutoIdForKlay.sol\":23792:23824  _commodityPrices[_uriTemplateId] */\n      dup2\n      mstore\n      0x20\n      add\n      swap1\n      dup2\n      mstore\n      0x20\n      add\n      0x00\n      keccak256\n      sload\n        /* \"atta-movies/ERC721/klaytn/ERC721VendingMachineAutoIdForKlay.sol\":23792:23826  _commodityPrices[_uriTemplateId]>0 */\n      gt\n        /* \"atta-movies/ERC721/klaytn/ERC721VendingMachineAutoIdForKlay.sol\":23784:23842  require(_commodityPrices[_uriTemplateId]>0, \"Not on list\") */\n      tag_49\n      jumpi\n      mload(0x40)\n      0x08c379a000000000000000000000000000000000000000000000000000000000\n      dup2\n      mstore\n      0x04\n      add\n      tag_50\n      swap1\n      tag_51\n      jump\t// in\n    tag_50:\n      mload(0x40)\n      dup1\n      swap2\n      sub\n      swap1\n      revert\n    tag_49:\n        /* \"atta-movies/ERC721/klaytn/ERC721VendingMachineAutoIdForKlay.sol\":23860:23869  uint256 i */\n      0x00\n        /* \"atta-movies/ERC721/klaytn/ERC721VendingMachineAutoIdForKlay.sol\":23855:23961  for (uint256 i = 0; i < _quantity; ++i) {\r... */\n    tag_52:\n        /* \"atta-movies/ERC721/klaytn/ERC721VendingMachineAutoIdForKlay.sol\":23879:23888  _quantity */\n      dup2\n        /* \"atta-movies/ERC721/klaytn/ERC721VendingMachineAutoIdForKlay.sol\":23875:23876  i */\n      dup2\n        /* \"atta-movies/ERC721/klaytn/ERC721VendingMachineAutoIdForKlay.sol\":23875:23888  i < _quantity */\n      lt\n        /* \"atta-movies/ERC721/klaytn/ERC721VendingMachineAutoIdForKlay.sol\":23855:23961  for (uint256 i = 0; i < _quantity; ++i) {\r... */\n      iszero\n      tag_53\n      jumpi\n        /* \"atta-movies/ERC721/klaytn/ERC721VendingMachineAutoIdForKlay.sol\":23910:23949  _buyToken(_msgSender(), _uriTemplateId) */\n      tag_55\n        /* \"atta-movies/ERC721/klaytn/ERC721VendingMachineAutoIdForKlay.sol\":23920:23932  _msgSender() */\n      tag_56\n        /* \"atta-movies/ERC721/klaytn/ERC721VendingMachineAutoIdForKlay.sol\":23920:23930  _msgSender */\n      tag_57\n        /* \"atta-movies/ERC721/klaytn/ERC721VendingMachineAutoIdForKlay.sol\":23920:23932  _msgSender() */\n      jump\t// in\n    tag_56:\n        /* \"atta-movies/ERC721/klaytn/ERC721VendingMachineAutoIdForKlay.sol\":23934:23948  _uriTemplateId */\n      dup5\n        /* \"atta-movies/ERC721/klaytn/ERC721VendingMachineAutoIdForKlay.sol\":23910:23919  _buyToken */\n      tag_58\n        /* \"atta-movies/ERC721/klaytn/ERC721VendingMachineAutoIdForKlay.sol\":23910:23949  _buyToken(_msgSender(), _uriTemplateId) */\n      jump\t// in\n    tag_55:\n        /* \"atta-movies/ERC721/klaytn/ERC721VendingMachineAutoIdForKlay.sol\":23890:23893  ++i */\n      dup1\n      tag_59\n      swap1\n      tag_60\n      jump\t// in\n    tag_59:\n      swap1\n      pop\n        /* \"atta-movies/ERC721/klaytn/ERC721VendingMachineAutoIdForKlay.sol\":23855:23961  for (uint256 i = 0; i < _quantity; ++i) {\r... */\n      jump(tag_52)\n    tag_53:\n      pop\n        /* \"atta-movies/ERC721/klaytn/ERC721VendingMachineAutoIdForKlay.sol\":23972:23984  bool success */\n      0x00\n        /* \"atta-movies/ERC721/klaytn/ERC721VendingMachineAutoIdForKlay.sol\":23990:23998  treasury */\n      0x02\n      0x00\n      swap1\n      sload\n      swap1\n      0x0100\n      exp\n      swap1\n      div\n      0xffffffffffffffffffffffffffffffffffffffff\n      and\n        /* \"atta-movies/ERC721/klaytn/ERC721VendingMachineAutoIdForKlay.sol\":23990:24003  treasury.call */\n      0xffffffffffffffffffffffffffffffffffffffff\n      and\n        /* \"atta-movies/ERC721/klaytn/ERC721VendingMachineAutoIdForKlay.sol\":24011:24058  _commodityPrices[_uriTemplateId].mul(_quantity) */\n      tag_61\n        /* \"atta-movies/ERC721/klaytn/ERC721VendingMachineAutoIdForKlay.sol\":24048:24057  _quantity */\n      dup4\n        /* \"atta-movies/ERC721/klaytn/ERC721VendingMachineAutoIdForKlay.sol\":24011:24027  _commodityPrices */\n      0x03\n        /* \"atta-movies/ERC721/klaytn/ERC721VendingMachineAutoIdForKlay.sol\":24011:24043  _commodityPrices[_uriTemplateId] */\n      0x00\n        /* \"atta-movies/ERC721/klaytn/ERC721VendingMachineAutoIdForKlay.sol\":24028:24042  _uriTemplateId */\n      dup8\n        /* \"atta-movies/ERC721/klaytn/ERC721VendingMachineAutoIdForKlay.sol\":24011:24043  _commodityPrices[_uriTemplateId] */\n      dup2\n      mstore\n      0x20\n      add\n      swap1\n      dup2\n      mstore\n      0x20\n      add\n      0x00\n      keccak256\n      sload\n        /* \"atta-movies/ERC721/klaytn/ERC721VendingMachineAutoIdForKlay.sol\":24011:24047  _commodityPrices[_uriTemplateId].mul */\n      tag_62\n      swap1\n        /* \"atta-movies/ERC721/klaytn/ERC721VendingMachineAutoIdForKlay.sol\":24011:24058  _commodityPrices[_uriTemplateId].mul(_quantity) */\n      swap2\n      swap1\n      0xffffffff\n      and\n      jump\t// in\n    tag_61:\n        /* \"atta-movies/ERC721/klaytn/ERC721VendingMachineAutoIdForKlay.sol\":23990:24063  treasury.call{value: _commodityPrices[_uriTemplateId].mul(_quantity)}(\"\") */\n      mload(0x40)\n      tag_63\n      swap1\n      tag_64\n      jump\t// in\n    tag_63:\n      0x00\n      mload(0x40)\n      dup1\n      dup4\n      sub\n      dup2\n      dup6\n      dup8\n      gas\n      call\n      swap3\n      pop\n      pop\n      pop\n      returndatasize\n      dup1\n      0x00\n      dup2\n      eq\n      tag_67\n      jumpi\n      mload(0x40)\n      swap2\n      pop\n      and(add(returndatasize, 0x3f), not(0x1f))\n      dup3\n      add\n      0x40\n      mstore\n      returndatasize\n      dup3\n      mstore\n      returndatasize\n      0x00\n      0x20\n      dup5\n      add\n      returndatacopy\n      jump(tag_66)\n    tag_67:\n      0x60\n      swap2\n      pop\n    tag_66:\n      pop\n        /* \"atta-movies/ERC721/klaytn/ERC721VendingMachineAutoIdForKlay.sol\":23971:24063  (bool success, ) = treasury.call{value: _commodityPrices[_uriTemplateId].mul(_quantity)}(\"\") */\n      pop\n      swap1\n      pop\n        /* \"atta-movies/ERC721/klaytn/ERC721VendingMachineAutoIdForKlay.sol\":24082:24089  success */\n      dup1\n        /* \"atta-movies/ERC721/klaytn/ERC721VendingMachineAutoIdForKlay.sol\":24074:24113  require(success, \"Failed to send klay\") */\n      tag_68\n      jumpi\n      mload(0x40)\n      0x08c379a000000000000000000000000000000000000000000000000000000000\n      dup2\n      mstore\n      0x04\n      add\n      tag_69\n      swap1\n      tag_70\n      jump\t// in\n    tag_69:\n      mload(0x40)\n      dup1\n      swap2\n      sub\n      swap1\n      revert\n    tag_68:\n        /* \"atta-movies/ERC721/klaytn/ERC721VendingMachineAutoIdForKlay.sol\":23773:24121  {\r... */\n      pop\n        /* \"atta-movies/ERC721/klaytn/ERC721VendingMachineAutoIdForKlay.sol\":23694:24121  function safeBuyToken(uint256 _uriTemplateId, uint256 _quantity) public payable{\r... */\n      pop\n      pop\n      jump\t// out\n        /* \"atta-movies/ERC721/klaytn/ERC721VendingMachineAutoIdForKlay.sol\":22588:22639  mapping(uint256 => uint256) public _commodityPrices */\n    tag_19:\n      mstore(0x20, 0x03)\n      dup1\n      0x00\n      mstore\n      keccak256(0x00, 0x40)\n      0x00\n      swap2\n      pop\n      swap1\n      pop\n      sload\n      dup2\n      jump\t// out\n        /* \"atta-movies/ERC721/klaytn/ERC721VendingMachineAutoIdForKlay.sol\":22511:22543  IERC721MintableAutoId public nft */\n    tag_24:\n      0x01\n      0x00\n      swap1\n      sload\n      swap1\n      0x0100\n      exp\n      swap1\n      div\n      0xffffffffffffffffffffffffffffffffffffffff\n      and\n      dup2\n      jump\t// out\n        /* \"atta-movies/ERC721/klaytn/ERC721VendingMachineAutoIdForKlay.sol\":22552:22575  address public treasury */\n    tag_29:\n      0x02\n      0x00\n      swap1\n      sload\n      swap1\n      0x0100\n      exp\n      swap1\n      div\n      0xffffffffffffffffffffffffffffffffffffffff\n      and\n      dup2\n      jump\t// out\n        /* \"atta-movies/ERC721/klaytn/ERC721VendingMachineAutoIdForKlay.sol\":8954:9102  function renounceOwnership() public virtual onlyOwner {\r... */\n    tag_34:\n        /* \"atta-movies/ERC721/klaytn/ERC721VendingMachineAutoIdForKlay.sol\":8534:8546  _msgSender() */\n      tag_72\n        /* \"atta-movies/ERC721/klaytn/ERC721VendingMachineAutoIdForKlay.sol\":8534:8544  _msgSender */\n      tag_57\n        /* \"atta-movies/ERC721/klaytn/ERC721VendingMachineAutoIdForKlay.sol\":8534:8546  _msgSender() */\n      jump\t// in\n    tag_72:\n        /* \"atta-movies/ERC721/klaytn/ERC721VendingMachineAutoIdForKlay.sol\":8524:8546  _owner == _msgSender() */\n      0xffffffffffffffffffffffffffffffffffffffff\n      and\n        /* \"atta-movies/ERC721/klaytn/ERC721VendingMachineAutoIdForKlay.sol\":8524:8530  _owner */\n      0x00\n      dup1\n      sload\n      swap1\n      0x0100\n      exp\n      swap1\n      div\n      0xffffffffffffffffffffffffffffffffffffffff\n      and\n        /* \"atta-movies/ERC721/klaytn/ERC721VendingMachineAutoIdForKlay.sol\":8524:8546  _owner == _msgSender() */\n      0xffffffffffffffffffffffffffffffffffffffff\n      and\n      eq\n        /* \"atta-movies/ERC721/klaytn/ERC721VendingMachineAutoIdForKlay.sol\":8516:8583  require(_owner == _msgSender(), \"Ownable: caller is not the owner\") */\n      tag_73\n      jumpi\n      mload(0x40)\n      0x08c379a000000000000000000000000000000000000000000000000000000000\n      dup2\n      mstore\n      0x04\n      add\n      tag_74\n      swap1\n      tag_75\n      jump\t// in\n    tag_74:\n      mload(0x40)\n      dup1\n      swap2\n      sub\n      swap1\n      revert\n    tag_73:\n        /* \"atta-movies/ERC721/klaytn/ERC721VendingMachineAutoIdForKlay.sol\":9061:9062  0 */\n      0x00\n        /* \"atta-movies/ERC721/klaytn/ERC721VendingMachineAutoIdForKlay.sol\":9024:9064  OwnershipTransferred(_owner, address(0)) */\n      0xffffffffffffffffffffffffffffffffffffffff\n      and\n        /* \"atta-movies/ERC721/klaytn/ERC721VendingMachineAutoIdForKlay.sol\":9045:9051  _owner */\n      0x00\n      dup1\n      sload\n      swap1\n      0x0100\n      exp\n      swap1\n      div\n      0xffffffffffffffffffffffffffffffffffffffff\n      and\n        /* \"atta-movies/ERC721/klaytn/ERC721VendingMachineAutoIdForKlay.sol\":9024:9064  OwnershipTransferred(_owner, address(0)) */\n      0xffffffffffffffffffffffffffffffffffffffff\n      and\n      0x8be0079c531659141344cd1fd0a4f28419497f9722a3daafe3b4186f6b6457e0\n      mload(0x40)\n      mload(0x40)\n      dup1\n      swap2\n      sub\n      swap1\n      log3\n        /* \"atta-movies/ERC721/klaytn/ERC721VendingMachineAutoIdForKlay.sol\":9092:9093  0 */\n      0x00\n        /* \"atta-movies/ERC721/klaytn/ERC721VendingMachineAutoIdForKlay.sol\":9075:9081  _owner */\n      dup1\n      0x00\n        /* \"atta-movies/ERC721/klaytn/ERC721VendingMachineAutoIdForKlay.sol\":9075:9094  _owner = address(0) */\n      0x0100\n      exp\n      dup2\n      sload\n      dup2\n      0xffffffffffffffffffffffffffffffffffffffff\n      mul\n      not\n      and\n      swap1\n      dup4\n      0xffffffffffffffffffffffffffffffffffffffff\n      and\n      mul\n      or\n      swap1\n      sstore\n      pop\n        /* \"atta-movies/ERC721/klaytn/ERC721VendingMachineAutoIdForKlay.sol\":8954:9102  function renounceOwnership() public virtual onlyOwner {\r... */\n      jump\t// out\n        /* \"atta-movies/ERC721/klaytn/ERC721VendingMachineAutoIdForKlay.sol\":8312:8391  function owner() public view returns (address) {\r... */\n    tag_37:\n        /* \"atta-movies/ERC721/klaytn/ERC721VendingMachineAutoIdForKlay.sol\":8350:8357  address */\n      0x00\n        /* \"atta-movies/ERC721/klaytn/ERC721VendingMachineAutoIdForKlay.sol\":8377:8383  _owner */\n      dup1\n      0x00\n      swap1\n      sload\n      swap1\n      0x0100\n      exp\n      swap1\n      div\n      0xffffffffffffffffffffffffffffffffffffffff\n      and\n        /* \"atta-movies/ERC721/klaytn/ERC721VendingMachineAutoIdForKlay.sol\":8370:8383  return _owner */\n      swap1\n      pop\n        /* \"atta-movies/ERC721/klaytn/ERC721VendingMachineAutoIdForKlay.sol\":8312:8391  function owner() public view returns (address) {\r... */\n      swap1\n      jump\t// out\n        /* \"atta-movies/ERC721/klaytn/ERC721VendingMachineAutoIdForKlay.sol\":23279:23412  function safeListToken(uint256 _uriTemplateId, uint256 _price) public onlyOwner {\r... */\n    tag_42:\n        /* \"atta-movies/ERC721/klaytn/ERC721VendingMachineAutoIdForKlay.sol\":8534:8546  _msgSender() */\n      tag_79\n        /* \"atta-movies/ERC721/klaytn/ERC721VendingMachineAutoIdForKlay.sol\":8534:8544  _msgSender */\n      tag_57\n        /* \"atta-movies/ERC721/klaytn/ERC721VendingMachineAutoIdForKlay.sol\":8534:8546  _msgSender() */\n      jump\t// in\n    tag_79:\n        /* \"atta-movies/ERC721/klaytn/ERC721VendingMachineAutoIdForKlay.sol\":8524:8546  _owner == _msgSender() */\n      0xffffffffffffffffffffffffffffffffffffffff\n      and\n        /* \"atta-movies/ERC721/klaytn/ERC721VendingMachineAutoIdForKlay.sol\":8524:8530  _owner */\n      0x00\n      dup1\n      sload\n      swap1\n      0x0100\n      exp\n      swap1\n      div\n      0xffffffffffffffffffffffffffffffffffffffff\n      and\n        /* \"atta-movies/ERC721/klaytn/ERC721VendingMachineAutoIdForKlay.sol\":8524:8546  _owner == _msgSender() */\n      0xffffffffffffffffffffffffffffffffffffffff\n      and\n      eq\n        /* \"atta-movies/ERC721/klaytn/ERC721VendingMachineAutoIdForKlay.sol\":8516:8583  require(_owner == _msgSender(), \"Ownable: caller is not the owner\") */\n      tag_80\n      jumpi\n      mload(0x40)\n      0x08c379a000000000000000000000000000000000000000000000000000000000\n      dup2\n      mstore\n      0x04\n      add\n      tag_81\n      swap1\n      tag_75\n      jump\t// in\n    tag_81:\n      mload(0x40)\n      dup1\n      swap2\n      sub\n      swap1\n      revert\n    tag_80:\n        /* \"atta-movies/ERC721/klaytn/ERC721VendingMachineAutoIdForKlay.sol\":23370:23404  _listToken(_uriTemplateId, _price) */\n      tag_83\n        /* \"atta-movies/ERC721/klaytn/ERC721VendingMachineAutoIdForKlay.sol\":23381:23395  _uriTemplateId */\n      dup3\n        /* \"atta-movies/ERC721/klaytn/ERC721VendingMachineAutoIdForKlay.sol\":23397:23403  _price */\n      dup3\n        /* \"atta-movies/ERC721/klaytn/ERC721VendingMachineAutoIdForKlay.sol\":23370:23380  _listToken */\n      tag_84\n        /* \"atta-movies/ERC721/klaytn/ERC721VendingMachineAutoIdForKlay.sol\":23370:23404  _listToken(_uriTemplateId, _price) */\n      jump\t// in\n    tag_83:\n        /* \"atta-movies/ERC721/klaytn/ERC721VendingMachineAutoIdForKlay.sol\":23279:23412  function safeListToken(uint256 _uriTemplateId, uint256 _price) public onlyOwner {\r... */\n      pop\n      pop\n      jump\t// out\n        /* \"atta-movies/ERC721/klaytn/ERC721VendingMachineAutoIdForKlay.sol\":9257:9501  function transferOwnership(address newOwner) public virtual onlyOwner {\r... */\n    tag_47:\n        /* \"atta-movies/ERC721/klaytn/ERC721VendingMachineAutoIdForKlay.sol\":8534:8546  _msgSender() */\n      tag_86\n        /* \"atta-movies/ERC721/klaytn/ERC721VendingMachineAutoIdForKlay.sol\":8534:8544  _msgSender */\n      tag_57\n        /* \"atta-movies/ERC721/klaytn/ERC721VendingMachineAutoIdForKlay.sol\":8534:8546  _msgSender() */\n      jump\t// in\n    tag_86:\n        /* \"atta-movies/ERC721/klaytn/ERC721VendingMachineAutoIdForKlay.sol\":8524:8546  _owner == _msgSender() */\n      0xffffffffffffffffffffffffffffffffffffffff\n      and\n        /* \"atta-movies/ERC721/klaytn/ERC721VendingMachineAutoIdForKlay.sol\":8524:8530  _owner */\n      0x00\n      dup1\n      sload\n      swap1\n      0x0100\n      exp\n      swap1\n      div\n      0xffffffffffffffffffffffffffffffffffffffff\n      and\n        /* \"atta-movies/ERC721/klaytn/ERC721VendingMachineAutoIdForKlay.sol\":8524:8546  _owner == _msgSender() */\n      0xffffffffffffffffffffffffffffffffffffffff\n      and\n      eq\n        /* \"atta-movies/ERC721/klaytn/ERC721VendingMachineAutoIdForKlay.sol\":8516:8583  require(_owner == _msgSender(), \"Ownable: caller is not the owner\") */\n      tag_87\n      jumpi\n      mload(0x40)\n      0x08c379a000000000000000000000000000000000000000000000000000000000\n      dup2\n      mstore\n      0x04\n      add\n      tag_88\n      swap1\n      tag_75\n      jump\t// in\n    tag_88:\n      mload(0x40)\n      dup1\n      swap2\n      sub\n      swap1\n      revert\n    tag_87:\n        /* \"atta-movies/ERC721/klaytn/ERC721VendingMachineAutoIdForKlay.sol\":9366:9367  0 */\n      0x00\n        /* \"atta-movies/ERC721/klaytn/ERC721VendingMachineAutoIdForKlay.sol\":9346:9368  newOwner != address(0) */\n      0xffffffffffffffffffffffffffffffffffffffff\n      and\n        /* \"atta-movies/ERC721/klaytn/ERC721VendingMachineAutoIdForKlay.sol\":9346:9354  newOwner */\n      dup2\n        /* \"atta-movies/ERC721/klaytn/ERC721VendingMachineAutoIdForKlay.sol\":9346:9368  newOwner != address(0) */\n      0xffffffffffffffffffffffffffffffffffffffff\n      and\n      eq\n      iszero\n        /* \"atta-movies/ERC721/klaytn/ERC721VendingMachineAutoIdForKlay.sol\":9338:9411  require(newOwner != address(0), \"Ownable: new owner is the zero address\") */\n      tag_90\n      jumpi\n      mload(0x40)\n      0x08c379a000000000000000000000000000000000000000000000000000000000\n      dup2\n      mstore\n      0x04\n      add\n      tag_91\n      swap1\n      tag_92\n      jump\t// in\n    tag_91:\n      mload(0x40)\n      dup1\n      swap2\n      sub\n      swap1\n      revert\n    tag_90:\n        /* \"atta-movies/ERC721/klaytn/ERC721VendingMachineAutoIdForKlay.sol\":9456:9464  newOwner */\n      dup1\n        /* \"atta-movies/ERC721/klaytn/ERC721VendingMachineAutoIdForKlay.sol\":9427:9465  OwnershipTransferred(_owner, newOwner) */\n      0xffffffffffffffffffffffffffffffffffffffff\n      and\n        /* \"atta-movies/ERC721/klaytn/ERC721VendingMachineAutoIdForKlay.sol\":9448:9454  _owner */\n      0x00\n      dup1\n      sload\n      swap1\n      0x0100\n      exp\n      swap1\n      div\n      0xffffffffffffffffffffffffffffffffffffffff\n      and\n        /* \"atta-movies/ERC721/klaytn/ERC721VendingMachineAutoIdForKlay.sol\":9427:9465  OwnershipTransferred(_owner, newOwner) */\n      0xffffffffffffffffffffffffffffffffffffffff\n      and\n      0x8be0079c531659141344cd1fd0a4f28419497f9722a3daafe3b4186f6b6457e0\n      mload(0x40)\n      mload(0x40)\n      dup1\n      swap2\n      sub\n      swap1\n      log3\n        /* \"atta-movies/ERC721/klaytn/ERC721VendingMachineAutoIdForKlay.sol\":9485:9493  newOwner */\n      dup1\n        /* \"atta-movies/ERC721/klaytn/ERC721VendingMachineAutoIdForKlay.sol\":9476:9482  _owner */\n      0x00\n      dup1\n        /* \"atta-movies/ERC721/klaytn/ERC721VendingMachineAutoIdForKlay.sol\":9476:9493  _owner = newOwner */\n      0x0100\n      exp\n      dup2\n      sload\n      dup2\n      0xffffffffffffffffffffffffffffffffffffffff\n      mul\n      not\n      and\n      swap1\n      dup4\n      0xffffffffffffffffffffffffffffffffffffffff\n      and\n      mul\n      or\n      swap1\n      sstore\n      pop\n        /* \"atta-movies/ERC721/klaytn/ERC721VendingMachineAutoIdForKlay.sol\":9257:9501  function transferOwnership(address newOwner) public virtual onlyOwner {\r... */\n      pop\n      jump\t// out\n        /* \"atta-movies/ERC721/klaytn/ERC721VendingMachineAutoIdForKlay.sol\":6903:7001  function _msgSender() internal view virtual returns (address) {\r... */\n    tag_57:\n        /* \"atta-movies/ERC721/klaytn/ERC721VendingMachineAutoIdForKlay.sol\":6956:6963  address */\n      0x00\n        /* \"atta-movies/ERC721/klaytn/ERC721VendingMachineAutoIdForKlay.sol\":6983:6993  msg.sender */\n      caller\n        /* \"atta-movies/ERC721/klaytn/ERC721VendingMachineAutoIdForKlay.sol\":6976:6993  return msg.sender */\n      swap1\n      pop\n        /* \"atta-movies/ERC721/klaytn/ERC721VendingMachineAutoIdForKlay.sol\":6903:7001  function _msgSender() internal view virtual returns (address) {\r... */\n      swap1\n      jump\t// out\n        /* \"atta-movies/ERC721/klaytn/ERC721VendingMachineAutoIdForKlay.sol\":23424:23682  function _buyToken(address _buyer, uint256 _uriTemplateId) internal {\r... */\n    tag_58:\n        /* \"atta-movies/ERC721/klaytn/ERC721VendingMachineAutoIdForKlay.sol\":23503:23518  uint256 tokenId */\n      0x00\n        /* \"atta-movies/ERC721/klaytn/ERC721VendingMachineAutoIdForKlay.sol\":23521:23524  nft */\n      0x01\n      0x00\n      swap1\n      sload\n      swap1\n      0x0100\n      exp\n      swap1\n      div\n      0xffffffffffffffffffffffffffffffffffffffff\n      and\n        /* \"atta-movies/ERC721/klaytn/ERC721VendingMachineAutoIdForKlay.sol\":23521:23539  nft._currentNextId */\n      0xffffffffffffffffffffffffffffffffffffffff\n      and\n      0x1c178087\n        /* \"atta-movies/ERC721/klaytn/ERC721VendingMachineAutoIdForKlay.sol\":23521:23541  nft._currentNextId() */\n      mload(0x40)\n      dup2\n      0xffffffff\n      and\n      0xe0\n      shl\n      dup2\n      mstore\n      0x04\n      add\n      0x20\n      mload(0x40)\n      dup1\n      dup4\n      sub\n      dup2\n      dup7\n      dup1\n      extcodesize\n      iszero\n      dup1\n      iszero\n      tag_95\n      jumpi\n      0x00\n      dup1\n      revert\n    tag_95:\n      pop\n      gas\n      staticcall\n      iszero\n      dup1\n      iszero\n      tag_97\n      jumpi\n      returndatasize\n      0x00\n      dup1\n      returndatacopy\n      revert(0x00, returndatasize)\n    tag_97:\n      pop\n      pop\n      pop\n      pop\n      mload(0x40)\n      returndatasize\n      not(0x1f)\n      0x1f\n      dup3\n      add\n      and\n      dup3\n      add\n      dup1\n      0x40\n      mstore\n      pop\n      dup2\n      add\n      swap1\n      tag_98\n      swap2\n      swap1\n      tag_99\n      jump\t// in\n    tag_98:\n        /* \"atta-movies/ERC721/klaytn/ERC721VendingMachineAutoIdForKlay.sol\":23503:23541  uint256 tokenId = nft._currentNextId() */\n      swap1\n      pop\n        /* \"atta-movies/ERC721/klaytn/ERC721VendingMachineAutoIdForKlay.sol\":23552:23555  nft */\n      0x01\n      0x00\n      swap1\n      sload\n      swap1\n      0x0100\n      exp\n      swap1\n      div\n      0xffffffffffffffffffffffffffffffffffffffff\n      and\n        /* \"atta-movies/ERC721/klaytn/ERC721VendingMachineAutoIdForKlay.sol\":23552:23564  nft.safeMint */\n      0xffffffffffffffffffffffffffffffffffffffff\n      and\n      0xa1448194\n        /* \"atta-movies/ERC721/klaytn/ERC721VendingMachineAutoIdForKlay.sol\":23565:23571  _buyer */\n      dup5\n        /* \"atta-movies/ERC721/klaytn/ERC721VendingMachineAutoIdForKlay.sol\":23573:23587  _uriTemplateId */\n      dup5\n        /* \"atta-movies/ERC721/klaytn/ERC721VendingMachineAutoIdForKlay.sol\":23552:23588  nft.safeMint(_buyer, _uriTemplateId) */\n      mload(0x40)\n      dup4\n      0xffffffff\n      and\n      0xe0\n      shl\n      dup2\n      mstore\n      0x04\n      add\n      tag_100\n      swap3\n      swap2\n      swap1\n      tag_101\n      jump\t// in\n    tag_100:\n      0x00\n      mload(0x40)\n      dup1\n      dup4\n      sub\n      dup2\n      0x00\n      dup8\n      dup1\n      extcodesize\n      iszero\n      dup1\n      iszero\n      tag_102\n      jumpi\n      0x00\n      dup1\n      revert\n    tag_102:\n      pop\n      gas\n      call\n      iszero\n      dup1\n      iszero\n      tag_104\n      jumpi\n      returndatasize\n      0x00\n      dup1\n      returndatacopy\n      revert(0x00, returndatasize)\n    tag_104:\n      pop\n      pop\n      pop\n      pop\n        /* \"atta-movies/ERC721/klaytn/ERC721VendingMachineAutoIdForKlay.sol\":23632:23639  tokenId */\n      dup1\n        /* \"atta-movies/ERC721/klaytn/ERC721VendingMachineAutoIdForKlay.sol\":23616:23630  _uriTemplateId */\n      dup3\n        /* \"atta-movies/ERC721/klaytn/ERC721VendingMachineAutoIdForKlay.sol\":23608:23614  _buyer */\n      dup5\n        /* \"atta-movies/ERC721/klaytn/ERC721VendingMachineAutoIdForKlay.sol\":23604:23674  Buy(_buyer, _uriTemplateId, tokenId, _commodityPrices[_uriTemplateId]) */\n      0xffffffffffffffffffffffffffffffffffffffff\n      and\n      0xbeae048c6d270d9469f86cf6e8fedda3c60ad770f16c24c9fc131c8e9a09101d\n        /* \"atta-movies/ERC721/klaytn/ERC721VendingMachineAutoIdForKlay.sol\":23641:23657  _commodityPrices */\n      0x03\n        /* \"atta-movies/ERC721/klaytn/ERC721VendingMachineAutoIdForKlay.sol\":23641:23673  _commodityPrices[_uriTemplateId] */\n      0x00\n        /* \"atta-movies/ERC721/klaytn/ERC721VendingMachineAutoIdForKlay.sol\":23658:23672  _uriTemplateId */\n      dup8\n        /* \"atta-movies/ERC721/klaytn/ERC721VendingMachineAutoIdForKlay.sol\":23641:23673  _commodityPrices[_uriTemplateId] */\n      dup2\n      mstore\n      0x20\n      add\n      swap1\n      dup2\n      mstore\n      0x20\n      add\n      0x00\n      keccak256\n      sload\n        /* \"atta-movies/ERC721/klaytn/ERC721VendingMachineAutoIdForKlay.sol\":23604:23674  Buy(_buyer, _uriTemplateId, tokenId, _commodityPrices[_uriTemplateId]) */\n      mload(0x40)\n      tag_105\n      swap2\n      swap1\n      tag_21\n      jump\t// in\n    tag_105:\n      mload(0x40)\n      dup1\n      swap2\n      sub\n      swap1\n      log4\n        /* \"atta-movies/ERC721/klaytn/ERC721VendingMachineAutoIdForKlay.sol\":23492:23682  {\r... */\n      pop\n        /* \"atta-movies/ERC721/klaytn/ERC721VendingMachineAutoIdForKlay.sol\":23424:23682  function _buyToken(address _buyer, uint256 _uriTemplateId) internal {\r... */\n      pop\n      pop\n      jump\t// out\n        /* \"atta-movies/ERC721/klaytn/ERC721VendingMachineAutoIdForKlay.sol\":2380:2851  function mul(uint256 a, uint256 b) internal pure returns (uint256) {\r... */\n    tag_62:\n        /* \"atta-movies/ERC721/klaytn/ERC721VendingMachineAutoIdForKlay.sol\":2438:2445  uint256 */\n      0x00\n        /* \"atta-movies/ERC721/klaytn/ERC721VendingMachineAutoIdForKlay.sol\":2688:2689  0 */\n      dup1\n        /* \"atta-movies/ERC721/klaytn/ERC721VendingMachineAutoIdForKlay.sol\":2683:2684  a */\n      dup4\n        /* \"atta-movies/ERC721/klaytn/ERC721VendingMachineAutoIdForKlay.sol\":2683:2689  a == 0 */\n      eq\n        /* \"atta-movies/ERC721/klaytn/ERC721VendingMachineAutoIdForKlay.sol\":2679:2726  if (a == 0) {\r... */\n      iszero\n      tag_107\n      jumpi\n        /* \"atta-movies/ERC721/klaytn/ERC721VendingMachineAutoIdForKlay.sol\":2713:2714  0 */\n      0x00\n        /* \"atta-movies/ERC721/klaytn/ERC721VendingMachineAutoIdForKlay.sol\":2706:2714  return 0 */\n      swap1\n      pop\n      jump(tag_106)\n        /* \"atta-movies/ERC721/klaytn/ERC721VendingMachineAutoIdForKlay.sol\":2679:2726  if (a == 0) {\r... */\n    tag_107:\n        /* \"atta-movies/ERC721/klaytn/ERC721VendingMachineAutoIdForKlay.sol\":2738:2747  uint256 c */\n      0x00\n        /* \"atta-movies/ERC721/klaytn/ERC721VendingMachineAutoIdForKlay.sol\":2754:2755  b */\n      dup3\n        /* \"atta-movies/ERC721/klaytn/ERC721VendingMachineAutoIdForKlay.sol\":2750:2751  a */\n      dup5\n        /* \"atta-movies/ERC721/klaytn/ERC721VendingMachineAutoIdForKlay.sol\":2750:2755  a * b */\n      tag_108\n      swap2\n      swap1\n      tag_109\n      jump\t// in\n    tag_108:\n        /* \"atta-movies/ERC721/klaytn/ERC721VendingMachineAutoIdForKlay.sol\":2738:2755  uint256 c = a * b */\n      swap1\n      pop\n        /* \"atta-movies/ERC721/klaytn/ERC721VendingMachineAutoIdForKlay.sol\":2783:2784  b */\n      dup3\n        /* \"atta-movies/ERC721/klaytn/ERC721VendingMachineAutoIdForKlay.sol\":2778:2779  a */\n      dup5\n        /* \"atta-movies/ERC721/klaytn/ERC721VendingMachineAutoIdForKlay.sol\":2774:2775  c */\n      dup3\n        /* \"atta-movies/ERC721/klaytn/ERC721VendingMachineAutoIdForKlay.sol\":2774:2779  c / a */\n      tag_110\n      swap2\n      swap1\n      tag_111\n      jump\t// in\n    tag_110:\n        /* \"atta-movies/ERC721/klaytn/ERC721VendingMachineAutoIdForKlay.sol\":2774:2784  c / a == b */\n      eq\n        /* \"atta-movies/ERC721/klaytn/ERC721VendingMachineAutoIdForKlay.sol\":2766:2822  require(c / a == b, \"SafeMath: multiplication overflow\") */\n      tag_112\n      jumpi\n      mload(0x40)\n      0x08c379a000000000000000000000000000000000000000000000000000000000\n      dup2\n      mstore\n      0x04\n      add\n      tag_113\n      swap1\n      tag_114\n      jump\t// in\n    tag_113:\n      mload(0x40)\n      dup1\n      swap2\n      sub\n      swap1\n      revert\n    tag_112:\n        /* \"atta-movies/ERC721/klaytn/ERC721VendingMachineAutoIdForKlay.sol\":2842:2843  c */\n      dup1\n        /* \"atta-movies/ERC721/klaytn/ERC721VendingMachineAutoIdForKlay.sol\":2835:2843  return c */\n      swap2\n      pop\n      pop\n        /* \"atta-movies/ERC721/klaytn/ERC721VendingMachineAutoIdForKlay.sol\":2380:2851  function mul(uint256 a, uint256 b) internal pure returns (uint256) {\r... */\n    tag_106:\n      swap3\n      swap2\n      pop\n      pop\n      jump\t// out\n        /* \"atta-movies/ERC721/klaytn/ERC721VendingMachineAutoIdForKlay.sol\":23086:23267  function _listToken(uint256 _uriTemplateId, uint256 _price) internal {\r... */\n    tag_84:\n        /* \"atta-movies/ERC721/klaytn/ERC721VendingMachineAutoIdForKlay.sol\":23201:23207  _price */\n      dup1\n        /* \"atta-movies/ERC721/klaytn/ERC721VendingMachineAutoIdForKlay.sol\":23166:23182  _commodityPrices */\n      0x03\n        /* \"atta-movies/ERC721/klaytn/ERC721VendingMachineAutoIdForKlay.sol\":23166:23198  _commodityPrices[_uriTemplateId] */\n      0x00\n        /* \"atta-movies/ERC721/klaytn/ERC721VendingMachineAutoIdForKlay.sol\":23183:23197  _uriTemplateId */\n      dup5\n        /* \"atta-movies/ERC721/klaytn/ERC721VendingMachineAutoIdForKlay.sol\":23166:23198  _commodityPrices[_uriTemplateId] */\n      dup2\n      mstore\n      0x20\n      add\n      swap1\n      dup2\n      mstore\n      0x20\n      add\n      0x00\n      keccak256\n        /* \"atta-movies/ERC721/klaytn/ERC721VendingMachineAutoIdForKlay.sol\":23166:23207  _commodityPrices[_uriTemplateId] = _price */\n      dup2\n      swap1\n      sstore\n      pop\n        /* \"atta-movies/ERC721/klaytn/ERC721VendingMachineAutoIdForKlay.sol\":23236:23250  _uriTemplateId */\n      dup2\n        /* \"atta-movies/ERC721/klaytn/ERC721VendingMachineAutoIdForKlay.sol\":23223:23259  PriceUpdate( _uriTemplateId, _price) */\n      0x92664190cca12aca9cd5309d87194bdda75bb51362d71c06e1a6f75c7c765711\n        /* \"atta-movies/ERC721/klaytn/ERC721VendingMachineAutoIdForKlay.sol\":23252:23258  _price */\n      dup3\n        /* \"atta-movies/ERC721/klaytn/ERC721VendingMachineAutoIdForKlay.sol\":23223:23259  PriceUpdate( _uriTemplateId, _price) */\n      mload(0x40)\n      tag_116\n      swap2\n      swap1\n      tag_21\n      jump\t// in\n    tag_116:\n      mload(0x40)\n      dup1\n      swap2\n      sub\n      swap1\n      log2\n        /* \"atta-movies/ERC721/klaytn/ERC721VendingMachineAutoIdForKlay.sol\":23086:23267  function _listToken(uint256 _uriTemplateId, uint256 _price) internal {\r... */\n      pop\n      pop\n      jump\t// out\n        /* \"#utility.yul\":7:146   */\n    tag_118:\n        /* \"#utility.yul\":53:58   */\n      0x00\n        /* \"#utility.yul\":91:97   */\n      dup2\n        /* \"#utility.yul\":78:98   */\n      calldataload\n        /* \"#utility.yul\":69:98   */\n      swap1\n      pop\n        /* \"#utility.yul\":107:140   */\n      tag_120\n        /* \"#utility.yul\":134:139   */\n      dup2\n        /* \"#utility.yul\":107:140   */\n      tag_121\n      jump\t// in\n    tag_120:\n        /* \"#utility.yul\":7:146   */\n      swap3\n      swap2\n      pop\n      pop\n      jump\t// out\n        /* \"#utility.yul\":152:291   */\n    tag_122:\n        /* \"#utility.yul\":198:203   */\n      0x00\n        /* \"#utility.yul\":236:242   */\n      dup2\n        /* \"#utility.yul\":223:243   */\n      calldataload\n        /* \"#utility.yul\":214:243   */\n      swap1\n      pop\n        /* \"#utility.yul\":252:285   */\n      tag_124\n        /* \"#utility.yul\":279:284   */\n      dup2\n        /* \"#utility.yul\":252:285   */\n      tag_125\n      jump\t// in\n    tag_124:\n        /* \"#utility.yul\":152:291   */\n      swap3\n      swap2\n      pop\n      pop\n      jump\t// out\n        /* \"#utility.yul\":297:440   */\n    tag_126:\n        /* \"#utility.yul\":354:359   */\n      0x00\n        /* \"#utility.yul\":385:391   */\n      dup2\n        /* \"#utility.yul\":379:392   */\n      mload\n        /* \"#utility.yul\":370:392   */\n      swap1\n      pop\n        /* \"#utility.yul\":401:434   */\n      tag_128\n        /* \"#utility.yul\":428:433   */\n      dup2\n        /* \"#utility.yul\":401:434   */\n      tag_125\n      jump\t// in\n    tag_128:\n        /* \"#utility.yul\":297:440   */\n      swap3\n      swap2\n      pop\n      pop\n      jump\t// out\n        /* \"#utility.yul\":446:775   */\n    tag_46:\n        /* \"#utility.yul\":505:511   */\n      0x00\n        /* \"#utility.yul\":554:556   */\n      0x20\n        /* \"#utility.yul\":542:551   */\n      dup3\n        /* \"#utility.yul\":533:540   */\n      dup5\n        /* \"#utility.yul\":529:552   */\n      sub\n        /* \"#utility.yul\":525:557   */\n      slt\n        /* \"#utility.yul\":522:641   */\n      iszero\n      tag_130\n      jumpi\n        /* \"#utility.yul\":560:639   */\n      tag_131\n      tag_132\n      jump\t// in\n    tag_131:\n        /* \"#utility.yul\":522:641   */\n    tag_130:\n        /* \"#utility.yul\":680:681   */\n      0x00\n        /* \"#utility.yul\":705:758   */\n      tag_133\n        /* \"#utility.yul\":750:757   */\n      dup5\n        /* \"#utility.yul\":741:747   */\n      dup3\n        /* \"#utility.yul\":730:739   */\n      dup6\n        /* \"#utility.yul\":726:748   */\n      add\n        /* \"#utility.yul\":705:758   */\n      tag_118\n      jump\t// in\n    tag_133:\n        /* \"#utility.yul\":695:758   */\n      swap2\n      pop\n        /* \"#utility.yul\":651:768   */\n      pop\n        /* \"#utility.yul\":446:775   */\n      swap3\n      swap2\n      pop\n      pop\n      jump\t// out\n        /* \"#utility.yul\":781:1110   */\n    tag_18:\n        /* \"#utility.yul\":840:846   */\n      0x00\n        /* \"#utility.yul\":889:891   */\n      0x20\n        /* \"#utility.yul\":877:886   */\n      dup3\n        /* \"#utility.yul\":868:875   */\n      dup5\n        /* \"#utility.yul\":864:887   */\n      sub\n        /* \"#utility.yul\":860:892   */\n      slt\n        /* \"#utility.yul\":857:976   */\n      iszero\n      tag_135\n      jumpi\n        /* \"#utility.yul\":895:974   */\n      tag_136\n      tag_132\n      jump\t// in\n    tag_136:\n        /* \"#utility.yul\":857:976   */\n    tag_135:\n        /* \"#utility.yul\":1015:1016   */\n      0x00\n        /* \"#utility.yul\":1040:1093   */\n      tag_137\n        /* \"#utility.yul\":1085:1092   */\n      dup5\n        /* \"#utility.yul\":1076:1082   */\n      dup3\n        /* \"#utility.yul\":1065:1074   */\n      dup6\n        /* \"#utility.yul\":1061:1083   */\n      add\n        /* \"#utility.yul\":1040:1093   */\n      tag_122\n      jump\t// in\n    tag_137:\n        /* \"#utility.yul\":1030:1093   */\n      swap2\n      pop\n        /* \"#utility.yul\":986:1103   */\n      pop\n        /* \"#utility.yul\":781:1110   */\n      swap3\n      swap2\n      pop\n      pop\n      jump\t// out\n        /* \"#utility.yul\":1116:1467   */\n    tag_99:\n        /* \"#utility.yul\":1186:1192   */\n      0x00\n        /* \"#utility.yul\":1235:1237   */\n      0x20\n        /* \"#utility.yul\":1223:1232   */\n      dup3\n        /* \"#utility.yul\":1214:1221   */\n      dup5\n        /* \"#utility.yul\":1210:1233   */\n      sub\n        /* \"#utility.yul\":1206:1238   */\n      slt\n        /* \"#utility.yul\":1203:1322   */\n      iszero\n      tag_139\n      jumpi\n        /* \"#utility.yul\":1241:1320   */\n      tag_140\n      tag_132\n      jump\t// in\n    tag_140:\n        /* \"#utility.yul\":1203:1322   */\n    tag_139:\n        /* \"#utility.yul\":1361:1362   */\n      0x00\n        /* \"#utility.yul\":1386:1450   */\n      tag_141\n        /* \"#utility.yul\":1442:1449   */\n      dup5\n        /* \"#utility.yul\":1433:1439   */\n      dup3\n        /* \"#utility.yul\":1422:1431   */\n      dup6\n        /* \"#utility.yul\":1418:1440   */\n      add\n        /* \"#utility.yul\":1386:1450   */\n      tag_126\n      jump\t// in\n    tag_141:\n        /* \"#utility.yul\":1376:1450   */\n      swap2\n      pop\n        /* \"#utility.yul\":1332:1460   */\n      pop\n        /* \"#utility.yul\":1116:1467   */\n      swap3\n      swap2\n      pop\n      pop\n      jump\t// out\n        /* \"#utility.yul\":1473:1947   */\n    tag_13:\n        /* \"#utility.yul\":1541:1547   */\n      0x00\n        /* \"#utility.yul\":1549:1555   */\n      dup1\n        /* \"#utility.yul\":1598:1600   */\n      0x40\n        /* \"#utility.yul\":1586:1595   */\n      dup4\n        /* \"#utility.yul\":1577:1584   */\n      dup6\n        /* \"#utility.yul\":1573:1596   */\n      sub\n        /* \"#utility.yul\":1569:1601   */\n      slt\n        /* \"#utility.yul\":1566:1685   */\n      iszero\n      tag_143\n      jumpi\n        /* \"#utility.yul\":1604:1683   */\n      tag_144\n      tag_132\n      jump\t// in\n    tag_144:\n        /* \"#utility.yul\":1566:1685   */\n    tag_143:\n        /* \"#utility.yul\":1724:1725   */\n      0x00\n        /* \"#utility.yul\":1749:1802   */\n      tag_145\n        /* \"#utility.yul\":1794:1801   */\n      dup6\n        /* \"#utility.yul\":1785:1791   */\n      dup3\n        /* \"#utility.yul\":1774:1783   */\n      dup7\n        /* \"#utility.yul\":1770:1792   */\n      add\n        /* \"#utility.yul\":1749:1802   */\n      tag_122\n      jump\t// in\n    tag_145:\n        /* \"#utility.yul\":1739:1802   */\n      swap3\n      pop\n        /* \"#utility.yul\":1695:1812   */\n      pop\n        /* \"#utility.yul\":1851:1853   */\n      0x20\n        /* \"#utility.yul\":1877:1930   */\n      tag_146\n        /* \"#utility.yul\":1922:1929   */\n      dup6\n        /* \"#utility.yul\":1913:1919   */\n      dup3\n        /* \"#utility.yul\":1902:1911   */\n      dup7\n        /* \"#utility.yul\":1898:1920   */\n      add\n        /* \"#utility.yul\":1877:1930   */\n      tag_122\n      jump\t// in\n    tag_146:\n        /* \"#utility.yul\":1867:1930   */\n      swap2\n      pop\n        /* \"#utility.yul\":1822:1940   */\n      pop\n        /* \"#utility.yul\":1473:1947   */\n      swap3\n      pop\n      swap3\n      swap1\n      pop\n      jump\t// out\n        /* \"#utility.yul\":1953:2071   */\n    tag_147:\n        /* \"#utility.yul\":2040:2064   */\n      tag_149\n        /* \"#utility.yul\":2058:2063   */\n      dup2\n        /* \"#utility.yul\":2040:2064   */\n      tag_150\n      jump\t// in\n    tag_149:\n        /* \"#utility.yul\":2035:2038   */\n      dup3\n        /* \"#utility.yul\":2028:2065   */\n      mstore\n        /* \"#utility.yul\":1953:2071   */\n      pop\n      pop\n      jump\t// out\n        /* \"#utility.yul\":2077:2266   */\n    tag_151:\n        /* \"#utility.yul\":2193:2259   */\n      tag_153\n        /* \"#utility.yul\":2253:2258   */\n      dup2\n        /* \"#utility.yul\":2193:2259   */\n      tag_154\n      jump\t// in\n    tag_153:\n        /* \"#utility.yul\":2188:2191   */\n      dup3\n        /* \"#utility.yul\":2181:2260   */\n      mstore\n        /* \"#utility.yul\":2077:2266   */\n      pop\n      pop\n      jump\t// out\n        /* \"#utility.yul\":2272:2638   */\n    tag_155:\n        /* \"#utility.yul\":2414:2417   */\n      0x00\n        /* \"#utility.yul\":2435:2502   */\n      tag_157\n        /* \"#utility.yul\":2499:2501   */\n      0x26\n        /* \"#utility.yul\":2494:2497   */\n      dup4\n        /* \"#utility.yul\":2435:2502   */\n      tag_158\n      jump\t// in\n    tag_157:\n        /* \"#utility.yul\":2428:2502   */\n      swap2\n      pop\n        /* \"#utility.yul\":2511:2604   */\n      tag_159\n        /* \"#utility.yul\":2600:2603   */\n      dup3\n        /* \"#utility.yul\":2511:2604   */\n      tag_160\n      jump\t// in\n    tag_159:\n        /* \"#utility.yul\":2629:2631   */\n      0x40\n        /* \"#utility.yul\":2624:2627   */\n      dup3\n        /* \"#utility.yul\":2620:2632   */\n      add\n        /* \"#utility.yul\":2613:2632   */\n      swap1\n      pop\n        /* \"#utility.yul\":2272:2638   */\n      swap2\n      swap1\n      pop\n      jump\t// out\n        /* \"#utility.yul\":2644:3010   */\n    tag_161:\n        /* \"#utility.yul\":2786:2789   */\n      0x00\n        /* \"#utility.yul\":2807:2874   */\n      tag_163\n        /* \"#utility.yul\":2871:2873   */\n      0x0b\n        /* \"#utility.yul\":2866:2869   */\n      dup4\n        /* \"#utility.yul\":2807:2874   */\n      tag_158\n      jump\t// in\n    tag_163:\n        /* \"#utility.yul\":2800:2874   */\n      swap2\n      pop\n        /* \"#utility.yul\":2883:2976   */\n      tag_164\n        /* \"#utility.yul\":2972:2975   */\n      dup3\n        /* \"#utility.yul\":2883:2976   */\n      tag_165\n      jump\t// in\n    tag_164:\n        /* \"#utility.yul\":3001:3003   */\n      0x20\n        /* \"#utility.yul\":2996:2999   */\n      dup3\n        /* \"#utility.yul\":2992:3004   */\n      add\n        /* \"#utility.yul\":2985:3004   */\n      swap1\n      pop\n        /* \"#utility.yul\":2644:3010   */\n      swap2\n      swap1\n      pop\n      jump\t// out\n        /* \"#utility.yul\":3016:3382   */\n    tag_166:\n        /* \"#utility.yul\":3158:3161   */\n      0x00\n        /* \"#utility.yul\":3179:3246   */\n      tag_168\n        /* \"#utility.yul\":3243:3245   */\n      0x21\n        /* \"#utility.yul\":3238:3241   */\n      dup4\n        /* \"#utility.yul\":3179:3246   */\n      tag_158\n      jump\t// in\n    tag_168:\n        /* \"#utility.yul\":3172:3246   */\n      swap2\n      pop\n        /* \"#utility.yul\":3255:3348   */\n      tag_169\n        /* \"#utility.yul\":3344:3347   */\n      dup3\n        /* \"#utility.yul\":3255:3348   */\n      tag_170\n      jump\t// in\n    tag_169:\n        /* \"#utility.yul\":3373:3375   */\n      0x40\n        /* \"#utility.yul\":3368:3371   */\n      dup3\n        /* \"#utility.yul\":3364:3376   */\n      add\n        /* \"#utility.yul\":3357:3376   */\n      swap1\n      pop\n        /* \"#utility.yul\":3016:3382   */\n      swap2\n      swap1\n      pop\n      jump\t// out\n        /* \"#utility.yul\":3388:3754   */\n    tag_171:\n        /* \"#utility.yul\":3530:3533   */\n      0x00\n        /* \"#utility.yul\":3551:3618   */\n      tag_173\n        /* \"#utility.yul\":3615:3617   */\n      0x20\n        /* \"#utility.yul\":3610:3613   */\n      dup4\n        /* \"#utility.yul\":3551:3618   */\n      tag_158\n      jump\t// in\n    tag_173:\n        /* \"#utility.yul\":3544:3618   */\n      swap2\n      pop\n        /* \"#utility.yul\":3627:3720   */\n      tag_174\n        /* \"#utility.yul\":3716:3719   */\n      dup3\n        /* \"#utility.yul\":3627:3720   */\n      tag_175\n      jump\t// in\n    tag_174:\n        /* \"#utility.yul\":3745:3747   */\n      0x20\n        /* \"#utility.yul\":3740:3743   */\n      dup3\n        /* \"#utility.yul\":3736:3748   */\n      add\n        /* \"#utility.yul\":3729:3748   */\n      swap1\n      pop\n        /* \"#utility.yul\":3388:3754   */\n      swap2\n      swap1\n      pop\n      jump\t// out\n        /* \"#utility.yul\":3760:4126   */\n    tag_176:\n        /* \"#utility.yul\":3902:3905   */\n      0x00\n        /* \"#utility.yul\":3923:3990   */\n      tag_178\n        /* \"#utility.yul\":3987:3989   */\n      0x13\n        /* \"#utility.yul\":3982:3985   */\n      dup4\n        /* \"#utility.yul\":3923:3990   */\n      tag_158\n      jump\t// in\n    tag_178:\n        /* \"#utility.yul\":3916:3990   */\n      swap2\n      pop\n        /* \"#utility.yul\":3999:4092   */\n      tag_179\n        /* \"#utility.yul\":4088:4091   */\n      dup3\n        /* \"#utility.yul\":3999:4092   */\n      tag_180\n      jump\t// in\n    tag_179:\n        /* \"#utility.yul\":4117:4119   */\n      0x20\n        /* \"#utility.yul\":4112:4115   */\n      dup3\n        /* \"#utility.yul\":4108:4120   */\n      add\n        /* \"#utility.yul\":4101:4120   */\n      swap1\n      pop\n        /* \"#utility.yul\":3760:4126   */\n      swap2\n      swap1\n      pop\n      jump\t// out\n        /* \"#utility.yul\":4132:4530   */\n    tag_181:\n        /* \"#utility.yul\":4291:4294   */\n      0x00\n        /* \"#utility.yul\":4312:4395   */\n      tag_183\n        /* \"#utility.yul\":4393:4394   */\n      0x00\n        /* \"#utility.yul\":4388:4391   */\n      dup4\n        /* \"#utility.yul\":4312:4395   */\n      tag_184\n      jump\t// in\n    tag_183:\n        /* \"#utility.yul\":4305:4395   */\n      swap2\n      pop\n        /* \"#utility.yul\":4404:4497   */\n      tag_185\n        /* \"#utility.yul\":4493:4496   */\n      dup3\n        /* \"#utility.yul\":4404:4497   */\n      tag_186\n      jump\t// in\n    tag_185:\n        /* \"#utility.yul\":4522:4523   */\n      0x00\n        /* \"#utility.yul\":4517:4520   */\n      dup3\n        /* \"#utility.yul\":4513:4524   */\n      add\n        /* \"#utility.yul\":4506:4524   */\n      swap1\n      pop\n        /* \"#utility.yul\":4132:4530   */\n      swap2\n      swap1\n      pop\n      jump\t// out\n        /* \"#utility.yul\":4536:4654   */\n    tag_187:\n        /* \"#utility.yul\":4623:4647   */\n      tag_189\n        /* \"#utility.yul\":4641:4646   */\n      dup2\n        /* \"#utility.yul\":4623:4647   */\n      tag_190\n      jump\t// in\n    tag_189:\n        /* \"#utility.yul\":4618:4621   */\n      dup3\n        /* \"#utility.yul\":4611:4648   */\n      mstore\n        /* \"#utility.yul\":4536:4654   */\n      pop\n      pop\n      jump\t// out\n        /* \"#utility.yul\":4660:5039   */\n    tag_64:\n        /* \"#utility.yul\":4844:4847   */\n      0x00\n        /* \"#utility.yul\":4866:5013   */\n      tag_192\n        /* \"#utility.yul\":5009:5012   */\n      dup3\n        /* \"#utility.yul\":4866:5013   */\n      tag_181\n      jump\t// in\n    tag_192:\n        /* \"#utility.yul\":4859:5013   */\n      swap2\n      pop\n        /* \"#utility.yul\":5030:5033   */\n      dup2\n        /* \"#utility.yul\":5023:5033   */\n      swap1\n      pop\n        /* \"#utility.yul\":4660:5039   */\n      swap2\n      swap1\n      pop\n      jump\t// out\n        /* \"#utility.yul\":5045:5267   */\n    tag_31:\n        /* \"#utility.yul\":5138:5142   */\n      0x00\n        /* \"#utility.yul\":5176:5178   */\n      0x20\n        /* \"#utility.yul\":5165:5174   */\n      dup3\n        /* \"#utility.yul\":5161:5179   */\n      add\n        /* \"#utility.yul\":5153:5179   */\n      swap1\n      pop\n        /* \"#utility.yul\":5189:5260   */\n      tag_194\n        /* \"#utility.yul\":5257:5258   */\n      0x00\n        /* \"#utility.yul\":5246:5255   */\n      dup4\n        /* \"#utility.yul\":5242:5259   */\n      add\n        /* \"#utility.yul\":5233:5239   */\n      dup5\n        /* \"#utility.yul\":5189:5260   */\n      tag_147\n      jump\t// in\n    tag_194:\n        /* \"#utility.yul\":5045:5267   */\n      swap3\n      swap2\n      pop\n      pop\n      jump\t// out\n        /* \"#utility.yul\":5273:5605   */\n    tag_101:\n        /* \"#utility.yul\":5394:5398   */\n      0x00\n        /* \"#utility.yul\":5432:5434   */\n      0x40\n        /* \"#utility.yul\":5421:5430   */\n      dup3\n        /* \"#utility.yul\":5417:5435   */\n      add\n        /* \"#utility.yul\":5409:5435   */\n      swap1\n      pop\n        /* \"#utility.yul\":5445:5516   */\n      tag_196\n        /* \"#utility.yul\":5513:5514   */\n      0x00\n        /* \"#utility.yul\":5502:5511   */\n      dup4\n        /* \"#utility.yul\":5498:5515   */\n      add\n        /* \"#utility.yul\":5489:5495   */\n      dup6\n        /* \"#utility.yul\":5445:5516   */\n      tag_147\n      jump\t// in\n    tag_196:\n        /* \"#utility.yul\":5526:5598   */\n      tag_197\n        /* \"#utility.yul\":5594:5596   */\n      0x20\n        /* \"#utility.yul\":5583:5592   */\n      dup4\n        /* \"#utility.yul\":5579:5597   */\n      add\n        /* \"#utility.yul\":5570:5576   */\n      dup5\n        /* \"#utility.yul\":5526:5598   */\n      tag_187\n      jump\t// in\n    tag_197:\n        /* \"#utility.yul\":5273:5605   */\n      swap4\n      swap3\n      pop\n      pop\n      pop\n      jump\t// out\n        /* \"#utility.yul\":5611:5891   */\n    tag_26:\n        /* \"#utility.yul\":5733:5737   */\n      0x00\n        /* \"#utility.yul\":5771:5773   */\n      0x20\n        /* \"#utility.yul\":5760:5769   */\n      dup3\n        /* \"#utility.yul\":5756:5774   */\n      add\n        /* \"#utility.yul\":5748:5774   */\n      swap1\n      pop\n        /* \"#utility.yul\":5784:5884   */\n      tag_199\n        /* \"#utility.yul\":5881:5882   */\n      0x00\n        /* \"#utility.yul\":5870:5879   */\n      dup4\n        /* \"#utility.yul\":5866:5883   */\n      add\n        /* \"#utility.yul\":5857:5863   */\n      dup5\n        /* \"#utility.yul\":5784:5884   */\n      tag_151\n      jump\t// in\n    tag_199:\n        /* \"#utility.yul\":5611:5891   */\n      swap3\n      swap2\n      pop\n      pop\n      jump\t// out\n        /* \"#utility.yul\":5897:6316   */\n    tag_92:\n        /* \"#utility.yul\":6063:6067   */\n      0x00\n        /* \"#utility.yul\":6101:6103   */\n      0x20\n        /* \"#utility.yul\":6090:6099   */\n      dup3\n        /* \"#utility.yul\":6086:6104   */\n      add\n        /* \"#utility.yul\":6078:6104   */\n      swap1\n      pop\n        /* \"#utility.yul\":6150:6159   */\n      dup2\n        /* \"#utility.yul\":6144:6148   */\n      dup2\n        /* \"#utility.yul\":6140:6160   */\n      sub\n        /* \"#utility.yul\":6136:6137   */\n      0x00\n        /* \"#utility.yul\":6125:6134   */\n      dup4\n        /* \"#utility.yul\":6121:6138   */\n      add\n        /* \"#utility.yul\":6114:6161   */\n      mstore\n        /* \"#utility.yul\":6178:6309   */\n      tag_201\n        /* \"#utility.yul\":6304:6308   */\n      dup2\n        /* \"#utility.yul\":6178:6309   */\n      tag_155\n      jump\t// in\n    tag_201:\n        /* \"#utility.yul\":6170:6309   */\n      swap1\n      pop\n        /* \"#utility.yul\":5897:6316   */\n      swap2\n      swap1\n      pop\n      jump\t// out\n        /* \"#utility.yul\":6322:6741   */\n    tag_51:\n        /* \"#utility.yul\":6488:6492   */\n      0x00\n        /* \"#utility.yul\":6526:6528   */\n      0x20\n        /* \"#utility.yul\":6515:6524   */\n      dup3\n        /* \"#utility.yul\":6511:6529   */\n      add\n        /* \"#utility.yul\":6503:6529   */\n      swap1\n      pop\n        /* \"#utility.yul\":6575:6584   */\n      dup2\n        /* \"#utility.yul\":6569:6573   */\n      dup2\n        /* \"#utility.yul\":6565:6585   */\n      sub\n        /* \"#utility.yul\":6561:6562   */\n      0x00\n        /* \"#utility.yul\":6550:6559   */\n      dup4\n        /* \"#utility.yul\":6546:6563   */\n      add\n        /* \"#utility.yul\":6539:6586   */\n      mstore\n        /* \"#utility.yul\":6603:6734   */\n      tag_203\n        /* \"#utility.yul\":6729:6733   */\n      dup2\n        /* \"#utility.yul\":6603:6734   */\n      tag_161\n      jump\t// in\n    tag_203:\n        /* \"#utility.yul\":6595:6734   */\n      swap1\n      pop\n        /* \"#utility.yul\":6322:6741   */\n      swap2\n      swap1\n      pop\n      jump\t// out\n        /* \"#utility.yul\":6747:7166   */\n    tag_114:\n        /* \"#utility.yul\":6913:6917   */\n      0x00\n        /* \"#utility.yul\":6951:6953   */\n      0x20\n        /* \"#utility.yul\":6940:6949   */\n      dup3\n        /* \"#utility.yul\":6936:6954   */\n      add\n        /* \"#utility.yul\":6928:6954   */\n      swap1\n      pop\n        /* \"#utility.yul\":7000:7009   */\n      dup2\n        /* \"#utility.yul\":6994:6998   */\n      dup2\n        /* \"#utility.yul\":6990:7010   */\n      sub\n        /* \"#utility.yul\":6986:6987   */\n      0x00\n        /* \"#utility.yul\":6975:6984   */\n      dup4\n        /* \"#utility.yul\":6971:6988   */\n      add\n        /* \"#utility.yul\":6964:7011   */\n      mstore\n        /* \"#utility.yul\":7028:7159   */\n      tag_205\n        /* \"#utility.yul\":7154:7158   */\n      dup2\n        /* \"#utility.yul\":7028:7159   */\n      tag_166\n      jump\t// in\n    tag_205:\n        /* \"#utility.yul\":7020:7159   */\n      swap1\n      pop\n        /* \"#utility.yul\":6747:7166   */\n      swap2\n      swap1\n      pop\n      jump\t// out\n        /* \"#utility.yul\":7172:7591   */\n    tag_75:\n        /* \"#utility.yul\":7338:7342   */\n      0x00\n        /* \"#utility.yul\":7376:7378   */\n      0x20\n        /* \"#utility.yul\":7365:7374   */\n      dup3\n        /* \"#utility.yul\":7361:7379   */\n      add\n        /* \"#utility.yul\":7353:7379   */\n      swap1\n      pop\n        /* \"#utility.yul\":7425:7434   */\n      dup2\n        /* \"#utility.yul\":7419:7423   */\n      dup2\n        /* \"#utility.yul\":7415:7435   */\n      sub\n        /* \"#utility.yul\":7411:7412   */\n      0x00\n        /* \"#utility.yul\":7400:7409   */\n      dup4\n        /* \"#utility.yul\":7396:7413   */\n      add\n        /* \"#utility.yul\":7389:7436   */\n      mstore\n        /* \"#utility.yul\":7453:7584   */\n      tag_207\n        /* \"#utility.yul\":7579:7583   */\n      dup2\n        /* \"#utility.yul\":7453:7584   */\n      tag_171\n      jump\t// in\n    tag_207:\n        /* \"#utility.yul\":7445:7584   */\n      swap1\n      pop\n        /* \"#utility.yul\":7172:7591   */\n      swap2\n      swap1\n      pop\n      jump\t// out\n        /* \"#utility.yul\":7597:8016   */\n    tag_70:\n        /* \"#utility.yul\":7763:7767   */\n      0x00\n        /* \"#utility.yul\":7801:7803   */\n      0x20\n        /* \"#utility.yul\":7790:7799   */\n      dup3\n        /* \"#utility.yul\":7786:7804   */\n      add\n        /* \"#utility.yul\":7778:7804   */\n      swap1\n      pop\n        /* \"#utility.yul\":7850:7859   */\n      dup2\n        /* \"#utility.yul\":7844:7848   */\n      dup2\n        /* \"#utility.yul\":7840:7860   */\n      sub\n        /* \"#utility.yul\":7836:7837   */\n      0x00\n        /* \"#utility.yul\":7825:7834   */\n      dup4\n        /* \"#utility.yul\":7821:7838   */\n      add\n        /* \"#utility.yul\":7814:7861   */\n      mstore\n        /* \"#utility.yul\":7878:8009   */\n      tag_209\n        /* \"#utility.yul\":8004:8008   */\n      dup2\n        /* \"#utility.yul\":7878:8009   */\n      tag_176\n      jump\t// in\n    tag_209:\n        /* \"#utility.yul\":7870:8009   */\n      swap1\n      pop\n        /* \"#utility.yul\":7597:8016   */\n      swap2\n      swap1\n      pop\n      jump\t// out\n        /* \"#utility.yul\":8022:8244   */\n    tag_21:\n        /* \"#utility.yul\":8115:8119   */\n      0x00\n        /* \"#utility.yul\":8153:8155   */\n      0x20\n        /* \"#utility.yul\":8142:8151   */\n      dup3\n        /* \"#utility.yul\":8138:8156   */\n      add\n        /* \"#utility.yul\":8130:8156   */\n      swap1\n      pop\n        /* \"#utility.yul\":8166:8237   */\n      tag_211\n        /* \"#utility.yul\":8234:8235   */\n      0x00\n        /* \"#utility.yul\":8223:8232   */\n      dup4\n        /* \"#utility.yul\":8219:8236   */\n      add\n        /* \"#utility.yul\":8210:8216   */\n      dup5\n        /* \"#utility.yul\":8166:8237   */\n      tag_187\n      jump\t// in\n    tag_211:\n        /* \"#utility.yul\":8022:8244   */\n      swap3\n      swap2\n      pop\n      pop\n      jump\t// out\n        /* \"#utility.yul\":8331:8478   */\n    tag_184:\n        /* \"#utility.yul\":8432:8443   */\n      0x00\n        /* \"#utility.yul\":8469:8472   */\n      dup2\n        /* \"#utility.yul\":8454:8472   */\n      swap1\n      pop\n        /* \"#utility.yul\":8331:8478   */\n      swap3\n      swap2\n      pop\n      pop\n      jump\t// out\n        /* \"#utility.yul\":8484:8653   */\n    tag_158:\n        /* \"#utility.yul\":8568:8579   */\n      0x00\n        /* \"#utility.yul\":8602:8608   */\n      dup3\n        /* \"#utility.yul\":8597:8600   */\n      dup3\n        /* \"#utility.yul\":8590:8609   */\n      mstore\n        /* \"#utility.yul\":8642:8646   */\n      0x20\n        /* \"#utility.yul\":8637:8640   */\n      dup3\n        /* \"#utility.yul\":8633:8647   */\n      add\n        /* \"#utility.yul\":8618:8647   */\n      swap1\n      pop\n        /* \"#utility.yul\":8484:8653   */\n      swap3\n      swap2\n      pop\n      pop\n      jump\t// out\n        /* \"#utility.yul\":8659:8844   */\n    tag_111:\n        /* \"#utility.yul\":8699:8700   */\n      0x00\n        /* \"#utility.yul\":8716:8736   */\n      tag_217\n        /* \"#utility.yul\":8734:8735   */\n      dup3\n        /* \"#utility.yul\":8716:8736   */\n      tag_190\n      jump\t// in\n    tag_217:\n        /* \"#utility.yul\":8711:8736   */\n      swap2\n      pop\n        /* \"#utility.yul\":8750:8770   */\n      tag_218\n        /* \"#utility.yul\":8768:8769   */\n      dup4\n        /* \"#utility.yul\":8750:8770   */\n      tag_190\n      jump\t// in\n    tag_218:\n        /* \"#utility.yul\":8745:8770   */\n      swap3\n      pop\n        /* \"#utility.yul\":8789:8790   */\n      dup3\n        /* \"#utility.yul\":8779:8814   */\n      tag_219\n      jumpi\n        /* \"#utility.yul\":8794:8812   */\n      tag_220\n      tag_221\n      jump\t// in\n    tag_220:\n        /* \"#utility.yul\":8779:8814   */\n    tag_219:\n        /* \"#utility.yul\":8836:8837   */\n      dup3\n        /* \"#utility.yul\":8833:8834   */\n      dup3\n        /* \"#utility.yul\":8829:8838   */\n      div\n        /* \"#utility.yul\":8824:8838   */\n      swap1\n      pop\n        /* \"#utility.yul\":8659:8844   */\n      swap3\n      swap2\n      pop\n      pop\n      jump\t// out\n        /* \"#utility.yul\":8850:9198   */\n    tag_109:\n        /* \"#utility.yul\":8890:8897   */\n      0x00\n        /* \"#utility.yul\":8913:8933   */\n      tag_223\n        /* \"#utility.yul\":8931:8932   */\n      dup3\n        /* \"#utility.yul\":8913:8933   */\n      tag_190\n      jump\t// in\n    tag_223:\n        /* \"#utility.yul\":8908:8933   */\n      swap2\n      pop\n        /* \"#utility.yul\":8947:8967   */\n      tag_224\n        /* \"#utility.yul\":8965:8966   */\n      dup4\n        /* \"#utility.yul\":8947:8967   */\n      tag_190\n      jump\t// in\n    tag_224:\n        /* \"#utility.yul\":8942:8967   */\n      swap3\n      pop\n        /* \"#utility.yul\":9135:9136   */\n      dup2\n        /* \"#utility.yul\":9067:9133   */\n      0xffffffffffffffffffffffffffffffffffffffffffffffffffffffffffffffff\n        /* \"#utility.yul\":9063:9137   */\n      div\n        /* \"#utility.yul\":9060:9061   */\n      dup4\n        /* \"#utility.yul\":9057:9138   */\n      gt\n        /* \"#utility.yul\":9052:9053   */\n      dup3\n        /* \"#utility.yul\":9045:9054   */\n      iszero\n        /* \"#utility.yul\":9038:9055   */\n      iszero\n        /* \"#utility.yul\":9034:9139   */\n      and\n        /* \"#utility.yul\":9031:9162   */\n      iszero\n      tag_225\n      jumpi\n        /* \"#utility.yul\":9142:9160   */\n      tag_226\n      tag_227\n      jump\t// in\n    tag_226:\n        /* \"#utility.yul\":9031:9162   */\n    tag_225:\n        /* \"#utility.yul\":9190:9191   */\n      dup3\n        /* \"#utility.yul\":9187:9188   */\n      dup3\n        /* \"#utility.yul\":9183:9192   */\n      mul\n        /* \"#utility.yul\":9172:9192   */\n      swap1\n      pop\n        /* \"#utility.yul\":8850:9198   */\n      swap3\n      swap2\n      pop\n      pop\n      jump\t// out\n        /* \"#utility.yul\":9204:9300   */\n    tag_150:\n        /* \"#utility.yul\":9241:9248   */\n      0x00\n        /* \"#utility.yul\":9270:9294   */\n      tag_229\n        /* \"#utility.yul\":9288:9293   */\n      dup3\n        /* \"#utility.yul\":9270:9294   */\n      tag_230\n      jump\t// in\n    tag_229:\n        /* \"#utility.yul\":9259:9294   */\n      swap1\n      pop\n        /* \"#utility.yul\":9204:9300   */\n      swap2\n      swap1\n      pop\n      jump\t// out\n        /* \"#utility.yul\":9306:9432   */\n    tag_230:\n        /* \"#utility.yul\":9343:9350   */\n      0x00\n        /* \"#utility.yul\":9383:9425   */\n      0xffffffffffffffffffffffffffffffffffffffff\n        /* \"#utility.yul\":9376:9381   */\n      dup3\n        /* \"#utility.yul\":9372:9426   */\n      and\n        /* \"#utility.yul\":9361:9426   */\n      swap1\n      pop\n        /* \"#utility.yul\":9306:9432   */\n      swap2\n      swap1\n      pop\n      jump\t// out\n        /* \"#utility.yul\":9438:9515   */\n    tag_190:\n        /* \"#utility.yul\":9475:9482   */\n      0x00\n        /* \"#utility.yul\":9504:9509   */\n      dup2\n        /* \"#utility.yul\":9493:9509   */\n      swap1\n      pop\n        /* \"#utility.yul\":9438:9515   */\n      swap2\n      swap1\n      pop\n      jump\t// out\n        /* \"#utility.yul\":9521:9676   */\n    tag_154:\n        /* \"#utility.yul\":9600:9609   */\n      0x00\n        /* \"#utility.yul\":9633:9670   */\n      tag_234\n        /* \"#utility.yul\":9664:9669   */\n      dup3\n        /* \"#utility.yul\":9633:9670   */\n      tag_235\n      jump\t// in\n    tag_234:\n        /* \"#utility.yul\":9620:9670   */\n      swap1\n      pop\n        /* \"#utility.yul\":9521:9676   */\n      swap2\n      swap1\n      pop\n      jump\t// out\n        /* \"#utility.yul\":9682:9808   */\n    tag_235:\n        /* \"#utility.yul\":9732:9741   */\n      0x00\n        /* \"#utility.yul\":9765:9802   */\n      tag_237\n        /* \"#utility.yul\":9796:9801   */\n      dup3\n        /* \"#utility.yul\":9765:9802   */\n      tag_238\n      jump\t// in\n    tag_237:\n        /* \"#utility.yul\":9752:9802   */\n      swap1\n      pop\n        /* \"#utility.yul\":9682:9808   */\n      swap2\n      swap1\n      pop\n      jump\t// out\n        /* \"#utility.yul\":9814:9927   */\n    tag_238:\n        /* \"#utility.yul\":9864:9873   */\n      0x00\n        /* \"#utility.yul\":9897:9921   */\n      tag_240\n        /* \"#utility.yul\":9915:9920   */\n      dup3\n        /* \"#utility.yul\":9897:9921   */\n      tag_230\n      jump\t// in\n    tag_240:\n        /* \"#utility.yul\":9884:9921   */\n      swap1\n      pop\n        /* \"#utility.yul\":9814:9927   */\n      swap2\n      swap1\n      pop\n      jump\t// out\n        /* \"#utility.yul\":9933:10166   */\n    tag_60:\n        /* \"#utility.yul\":9972:9975   */\n      0x00\n        /* \"#utility.yul\":9995:10019   */\n      tag_242\n        /* \"#utility.yul\":10013:10018   */\n      dup3\n        /* \"#utility.yul\":9995:10019   */\n      tag_190\n      jump\t// in\n    tag_242:\n        /* \"#utility.yul\":9986:10019   */\n      swap2\n      pop\n        /* \"#utility.yul\":10041:10107   */\n      0xffffffffffffffffffffffffffffffffffffffffffffffffffffffffffffffff\n        /* \"#utility.yul\":10034:10039   */\n      dup3\n        /* \"#utility.yul\":10031:10108   */\n      eq\n        /* \"#utility.yul\":10028:10131   */\n      iszero\n      tag_243\n      jumpi\n        /* \"#utility.yul\":10111:10129   */\n      tag_244\n      tag_227\n      jump\t// in\n    tag_244:\n        /* \"#utility.yul\":10028:10131   */\n    tag_243:\n        /* \"#utility.yul\":10158:10159   */\n      0x01\n        /* \"#utility.yul\":10151:10156   */\n      dup3\n        /* \"#utility.yul\":10147:10160   */\n      add\n        /* \"#utility.yul\":10140:10160   */\n      swap1\n      pop\n        /* \"#utility.yul\":9933:10166   */\n      swap2\n      swap1\n      pop\n      jump\t// out\n        /* \"#utility.yul\":10172:10352   */\n    tag_227:\n        /* \"#utility.yul\":10220:10297   */\n      0x4e487b7100000000000000000000000000000000000000000000000000000000\n        /* \"#utility.yul\":10217:10218   */\n      0x00\n        /* \"#utility.yul\":10210:10298   */\n      mstore\n        /* \"#utility.yul\":10317:10321   */\n      0x11\n        /* \"#utility.yul\":10314:10315   */\n      0x04\n        /* \"#utility.yul\":10307:10322   */\n      mstore\n        /* \"#utility.yul\":10341:10345   */\n      0x24\n        /* \"#utility.yul\":10338:10339   */\n      0x00\n        /* \"#utility.yul\":10331:10346   */\n      revert\n        /* \"#utility.yul\":10358:10538   */\n    tag_221:\n        /* \"#utility.yul\":10406:10483   */\n      0x4e487b7100000000000000000000000000000000000000000000000000000000\n        /* \"#utility.yul\":10403:10404   */\n      0x00\n        /* \"#utility.yul\":10396:10484   */\n      mstore\n        /* \"#utility.yul\":10503:10507   */\n      0x12\n        /* \"#utility.yul\":10500:10501   */\n      0x04\n        /* \"#utility.yul\":10493:10508   */\n      mstore\n        /* \"#utility.yul\":10527:10531   */\n      0x24\n        /* \"#utility.yul\":10524:10525   */\n      0x00\n        /* \"#utility.yul\":10517:10532   */\n      revert\n        /* \"#utility.yul\":10667:10784   */\n    tag_132:\n        /* \"#utility.yul\":10776:10777   */\n      0x00\n        /* \"#utility.yul\":10773:10774   */\n      dup1\n        /* \"#utility.yul\":10766:10778   */\n      revert\n        /* \"#utility.yul\":10790:11015   */\n    tag_160:\n        /* \"#utility.yul\":10930:10964   */\n      0x4f776e61626c653a206e6577206f776e657220697320746865207a65726f2061\n        /* \"#utility.yul\":10926:10927   */\n      0x00\n        /* \"#utility.yul\":10918:10924   */\n      dup3\n        /* \"#utility.yul\":10914:10928   */\n      add\n        /* \"#utility.yul\":10907:10965   */\n      mstore\n        /* \"#utility.yul\":10999:11007   */\n      0x6464726573730000000000000000000000000000000000000000000000000000\n        /* \"#utility.yul\":10994:10996   */\n      0x20\n        /* \"#utility.yul\":10986:10992   */\n      dup3\n        /* \"#utility.yul\":10982:10997   */\n      add\n        /* \"#utility.yul\":10975:11008   */\n      mstore\n        /* \"#utility.yul\":10790:11015   */\n      pop\n      jump\t// out\n        /* \"#utility.yul\":11021:11182   */\n    tag_165:\n        /* \"#utility.yul\":11161:11174   */\n      0x4e6f74206f6e206c697374000000000000000000000000000000000000000000\n        /* \"#utility.yul\":11157:11158   */\n      0x00\n        /* \"#utility.yul\":11149:11155   */\n      dup3\n        /* \"#utility.yul\":11145:11159   */\n      add\n        /* \"#utility.yul\":11138:11175   */\n      mstore\n        /* \"#utility.yul\":11021:11182   */\n      pop\n      jump\t// out\n        /* \"#utility.yul\":11188:11408   */\n    tag_170:\n        /* \"#utility.yul\":11328:11362   */\n      0x536166654d6174683a206d756c7469706c69636174696f6e206f766572666c6f\n        /* \"#utility.yul\":11324:11325   */\n      0x00\n        /* \"#utility.yul\":11316:11322   */\n      dup3\n        /* \"#utility.yul\":11312:11326   */\n      add\n        /* \"#utility.yul\":11305:11363   */\n      mstore\n        /* \"#utility.yul\":11397:11400   */\n      0x7700000000000000000000000000000000000000000000000000000000000000\n        /* \"#utility.yul\":11392:11394   */\n      0x20\n        /* \"#utility.yul\":11384:11390   */\n      dup3\n        /* \"#utility.yul\":11380:11395   */\n      add\n        /* \"#utility.yul\":11373:11401   */\n      mstore\n        /* \"#utility.yul\":11188:11408   */\n      pop\n      jump\t// out\n        /* \"#utility.yul\":11414:11596   */\n    tag_175:\n        /* \"#utility.yul\":11554:11588   */\n      0x4f776e61626c653a2063616c6c6572206973206e6f7420746865206f776e6572\n        /* \"#utility.yul\":11550:11551   */\n      0x00\n        /* \"#utility.yul\":11542:11548   */\n      dup3\n        /* \"#utility.yul\":11538:11552   */\n      add\n        /* \"#utility.yul\":11531:11589   */\n      mstore\n        /* \"#utility.yul\":11414:11596   */\n      pop\n      jump\t// out\n        /* \"#utility.yul\":11602:11771   */\n    tag_180:\n        /* \"#utility.yul\":11742:11763   */\n      0x4661696c656420746f2073656e64206b6c617900000000000000000000000000\n        /* \"#utility.yul\":11738:11739   */\n      0x00\n        /* \"#utility.yul\":11730:11736   */\n      dup3\n        /* \"#utility.yul\":11726:11740   */\n      add\n        /* \"#utility.yul\":11719:11764   */\n      mstore\n        /* \"#utility.yul\":11602:11771   */\n      pop\n      jump\t// out\n        /* \"#utility.yul\":11777:11891   */\n    tag_186:\n      pop\n      jump\t// out\n        /* \"#utility.yul\":11897:12019   */\n    tag_121:\n        /* \"#utility.yul\":11970:11994   */\n      tag_257\n        /* \"#utility.yul\":11988:11993   */\n      dup2\n        /* \"#utility.yul\":11970:11994   */\n      tag_150\n      jump\t// in\n    tag_257:\n        /* \"#utility.yul\":11963:11968   */\n      dup2\n        /* \"#utility.yul\":11960:11995   */\n      eq\n        /* \"#utility.yul\":11950:12013   */\n      tag_258\n      jumpi\n        /* \"#utility.yul\":12009:12010   */\n      0x00\n        /* \"#utility.yul\":12006:12007   */\n      dup1\n        /* \"#utility.yul\":11999:12011   */\n      revert\n        /* \"#utility.yul\":11950:12013   */\n    tag_258:\n        /* \"#utility.yul\":11897:12019   */\n      pop\n      jump\t// out\n        /* \"#utility.yul\":12025:12147   */\n    tag_125:\n        /* \"#utility.yul\":12098:12122   */\n      tag_260\n        /* \"#utility.yul\":12116:12121   */\n      dup2\n        /* \"#utility.yul\":12098:12122   */\n      tag_190\n      jump\t// in\n    tag_260:\n        /* \"#utility.yul\":12091:12096   */\n      dup2\n        /* \"#utility.yul\":12088:12123   */\n      eq\n        /* \"#utility.yul\":12078:12141   */\n      tag_261\n      jumpi\n        /* \"#utility.yul\":12137:12138   */\n      0x00\n        /* \"#utility.yul\":12134:12135   */\n      dup1\n        /* \"#utility.yul\":12127:12139   */\n      revert\n        /* \"#utility.yul\":12078:12141   */\n    tag_261:\n        /* \"#utility.yul\":12025:12147   */\n      pop\n      jump\t// out\n\n    auxdata: 0xa264697066735822122059b33f6b8632d22e6faa1e23c1932f7398ecf506fcc6e8ae074e51923ac8542864736f6c63430008070033\n}\n",
				"bytecode": {
					"linkReferences": {},
					"object": "60806040523480156200001157600080fd5b506040516200131d3803806200131d833981810160405281019062000037919062000204565b600062000049620001e560201b60201c565b9050806000806101000a81548173ffffffffffffffffffffffffffffffffffffffff021916908373ffffffffffffffffffffffffffffffffffffffff1602179055508073ffffffffffffffffffffffffffffffffffffffff16600073ffffffffffffffffffffffffffffffffffffffff167f8be0079c531659141344cd1fd0a4f28419497f9722a3daafe3b4186f6b6457e060405160405180910390a350600073ffffffffffffffffffffffffffffffffffffffff168273ffffffffffffffffffffffffffffffffffffffff16141580156200015157503073ffffffffffffffffffffffffffffffffffffffff168273ffffffffffffffffffffffffffffffffffffffff1614155b6200015b57600080fd5b81600160006101000a81548173ffffffffffffffffffffffffffffffffffffffff021916908373ffffffffffffffffffffffffffffffffffffffff16021790555080600260006101000a81548173ffffffffffffffffffffffffffffffffffffffff021916908373ffffffffffffffffffffffffffffffffffffffff16021790555050506200029e565b600033905090565b600081519050620001fe8162000284565b92915050565b600080604083850312156200021e576200021d6200027f565b5b60006200022e85828601620001ed565b92505060206200024185828601620001ed565b9150509250929050565b600062000258826200025f565b9050919050565b600073ffffffffffffffffffffffffffffffffffffffff82169050919050565b600080fd5b6200028f816200024b565b81146200029b57600080fd5b50565b61106f80620002ae6000396000f3fe60806040526004361061007b5760003560e01c8063715018a61161004e578063715018a61461012f5780638da5cb5b14610146578063d3f5057314610171578063f2fde38b1461019a5761007b565b80633e56e6c314610080578063432be4d01461009c57806347ccca02146100d957806361d027b314610104575b600080fd5b61009a60048036038101906100959190610abc565b6101c3565b005b3480156100a857600080fd5b506100c360048036038101906100be9190610a62565b61033f565b6040516100d09190610d0f565b60405180910390f35b3480156100e557600080fd5b506100ee610357565b6040516100fb9190610c54565b60405180910390f35b34801561011057600080fd5b5061011961037d565b6040516101269190610c10565b60405180910390f35b34801561013b57600080fd5b506101446103a3565b005b34801561015257600080fd5b5061015b6104f6565b6040516101689190610c10565b60405180910390f35b34801561017d57600080fd5b5061019860048036038101906101939190610abc565b61051f565b005b3480156101a657600080fd5b506101c160048036038101906101bc9190610a35565b6105c2565b005b6000600360008481526020019081526020016000205411610219576040517f08c379a000000000000000000000000000000000000000000000000000000000815260040161021090610c8f565b60405180910390fd5b60005b818110156102465761023561022f610784565b8461078c565b8061023f90610e43565b905061021c565b506000600260009054906101000a900473ffffffffffffffffffffffffffffffffffffffff1673ffffffffffffffffffffffffffffffffffffffff166102a883600360008781526020019081526020016000205461092790919063ffffffff16565b6040516102b490610bfb565b60006040518083038185875af1925050503d80600081146102f1576040519150601f19603f3d011682016040523d82523d6000602084013e6102f6565b606091505b505090508061033a576040517f08c379a000000000000000000000000000000000000000000000000000000000815260040161033190610cef565b60405180910390fd5b505050565b60036020528060005260406000206000915090505481565b600160009054906101000a900473ffffffffffffffffffffffffffffffffffffffff1681565b600260009054906101000a900473ffffffffffffffffffffffffffffffffffffffff1681565b6103ab610784565b73ffffffffffffffffffffffffffffffffffffffff1660008054906101000a900473ffffffffffffffffffffffffffffffffffffffff1673ffffffffffffffffffffffffffffffffffffffff1614610438576040517f08c379a000000000000000000000000000000000000000000000000000000000815260040161042f90610ccf565b60405180910390fd5b600073ffffffffffffffffffffffffffffffffffffffff1660008054906101000a900473ffffffffffffffffffffffffffffffffffffffff1673ffffffffffffffffffffffffffffffffffffffff167f8be0079c531659141344cd1fd0a4f28419497f9722a3daafe3b4186f6b6457e060405160405180910390a360008060006101000a81548173ffffffffffffffffffffffffffffffffffffffff021916908373ffffffffffffffffffffffffffffffffffffffff160217905550565b60008060009054906101000a900473ffffffffffffffffffffffffffffffffffffffff16905090565b610527610784565b73ffffffffffffffffffffffffffffffffffffffff1660008054906101000a900473ffffffffffffffffffffffffffffffffffffffff1673ffffffffffffffffffffffffffffffffffffffff16146105b4576040517f08c379a00000000000000000000000000000000000000000000000000000000081526004016105ab90610ccf565b60405180910390fd5b6105be82826109a2565b5050565b6105ca610784565b73ffffffffffffffffffffffffffffffffffffffff1660008054906101000a900473ffffffffffffffffffffffffffffffffffffffff1673ffffffffffffffffffffffffffffffffffffffff1614610657576040517f08c379a000000000000000000000000000000000000000000000000000000000815260040161064e90610ccf565b60405180910390fd5b600073ffffffffffffffffffffffffffffffffffffffff168173ffffffffffffffffffffffffffffffffffffffff1614156106c7576040517f08c379a00000000000000000000000000000000000000000000000000000000081526004016106be90610c6f565b60405180910390fd5b8073ffffffffffffffffffffffffffffffffffffffff1660008054906101000a900473ffffffffffffffffffffffffffffffffffffffff1673ffffffffffffffffffffffffffffffffffffffff167f8be0079c531659141344cd1fd0a4f28419497f9722a3daafe3b4186f6b6457e060405160405180910390a3806000806101000a81548173ffffffffffffffffffffffffffffffffffffffff021916908373ffffffffffffffffffffffffffffffffffffffff16021790555050565b600033905090565b6000600160009054906101000a900473ffffffffffffffffffffffffffffffffffffffff1673ffffffffffffffffffffffffffffffffffffffff16631c1780876040518163ffffffff1660e01b815260040160206040518083038186803b1580156107f657600080fd5b505afa15801561080a573d6000803e3d6000fd5b505050506040513d601f19601f8201168201806040525081019061082e9190610a8f565b9050600160009054906101000a900473ffffffffffffffffffffffffffffffffffffffff1673ffffffffffffffffffffffffffffffffffffffff1663a144819484846040518363ffffffff1660e01b815260040161088d929190610c2b565b600060405180830381600087803b1580156108a757600080fd5b505af11580156108bb573d6000803e3d6000fd5b5050505080828473ffffffffffffffffffffffffffffffffffffffff167fbeae048c6d270d9469f86cf6e8fedda3c60ad770f16c24c9fc131c8e9a09101d600360008781526020019081526020016000205460405161091a9190610d0f565b60405180910390a4505050565b60008083141561093a576000905061099c565b600082846109489190610d77565b90508284826109579190610d46565b14610997576040517f08c379a000000000000000000000000000000000000000000000000000000000815260040161098e90610caf565b60405180910390fd5b809150505b92915050565b806003600084815260200190815260200160002081905550817f92664190cca12aca9cd5309d87194bdda75bb51362d71c06e1a6f75c7c765711826040516109ea9190610d0f565b60405180910390a25050565b600081359050610a058161100b565b92915050565b600081359050610a1a81611022565b92915050565b600081519050610a2f81611022565b92915050565b600060208284031215610a4b57610a4a610eea565b5b6000610a59848285016109f6565b91505092915050565b600060208284031215610a7857610a77610eea565b5b6000610a8684828501610a0b565b91505092915050565b600060208284031215610aa557610aa4610eea565b5b6000610ab384828501610a20565b91505092915050565b60008060408385031215610ad357610ad2610eea565b5b6000610ae185828601610a0b565b9250506020610af285828601610a0b565b9150509250929050565b610b0581610dd1565b82525050565b610b1481610e0d565b82525050565b6000610b27602683610d35565b9150610b3282610eef565b604082019050919050565b6000610b4a600b83610d35565b9150610b5582610f3e565b602082019050919050565b6000610b6d602183610d35565b9150610b7882610f67565b604082019050919050565b6000610b90602083610d35565b9150610b9b82610fb6565b602082019050919050565b6000610bb3601383610d35565b9150610bbe82610fdf565b602082019050919050565b6000610bd6600083610d2a565b9150610be182611008565b600082019050919050565b610bf581610e03565b82525050565b6000610c0682610bc9565b9150819050919050565b6000602082019050610c256000830184610afc565b92915050565b6000604082019050610c406000830185610afc565b610c4d6020830184610bec565b9392505050565b6000602082019050610c696000830184610b0b565b92915050565b60006020820190508181036000830152610c8881610b1a565b9050919050565b60006020820190508181036000830152610ca881610b3d565b9050919050565b60006020820190508181036000830152610cc881610b60565b9050919050565b60006020820190508181036000830152610ce881610b83565b9050919050565b60006020820190508181036000830152610d0881610ba6565b9050919050565b6000602082019050610d246000830184610bec565b92915050565b600081905092915050565b600082825260208201905092915050565b6000610d5182610e03565b9150610d5c83610e03565b925082610d6c57610d6b610ebb565b5b828204905092915050565b6000610d8282610e03565b9150610d8d83610e03565b9250817fffffffffffffffffffffffffffffffffffffffffffffffffffffffffffffffff0483118215151615610dc657610dc5610e8c565b5b828202905092915050565b6000610ddc82610de3565b9050919050565b600073ffffffffffffffffffffffffffffffffffffffff82169050919050565b6000819050919050565b6000610e1882610e1f565b9050919050565b6000610e2a82610e31565b9050919050565b6000610e3c82610de3565b9050919050565b6000610e4e82610e03565b91507fffffffffffffffffffffffffffffffffffffffffffffffffffffffffffffffff821415610e8157610e80610e8c565b5b600182019050919050565b7f4e487b7100000000000000000000000000000000000000000000000000000000600052601160045260246000fd5b7f4e487b7100000000000000000000000000000000000000000000000000000000600052601260045260246000fd5b600080fd5b7f4f776e61626c653a206e6577206f776e657220697320746865207a65726f206160008201527f6464726573730000000000000000000000000000000000000000000000000000602082015250565b7f4e6f74206f6e206c697374000000000000000000000000000000000000000000600082015250565b7f536166654d6174683a206d756c7469706c69636174696f6e206f766572666c6f60008201527f7700000000000000000000000000000000000000000000000000000000000000602082015250565b7f4f776e61626c653a2063616c6c6572206973206e6f7420746865206f776e6572600082015250565b7f4661696c656420746f2073656e64206b6c617900000000000000000000000000600082015250565b50565b61101481610dd1565b811461101f57600080fd5b50565b61102b81610e03565b811461103657600080fd5b5056fea264697066735822122059b33f6b8632d22e6faa1e23c1932f7398ecf506fcc6e8ae074e51923ac8542864736f6c63430008070033",
					"opcodes": "PUSH1 0x80 PUSH1 0x40 MSTORE CALLVALUE DUP1 ISZERO PUSH3 0x11 JUMPI PUSH1 0x0 DUP1 REVERT JUMPDEST POP PUSH1 0x40 MLOAD PUSH3 0x131D CODESIZE SUB DUP1 PUSH3 0x131D DUP4 CODECOPY DUP2 DUP2 ADD PUSH1 0x40 MSTORE DUP2 ADD SWAP1 PUSH3 0x37 SWAP2 SWAP1 PUSH3 0x204 JUMP JUMPDEST PUSH1 0x0 PUSH3 0x49 PUSH3 0x1E5 PUSH1 0x20 SHL PUSH1 0x20 SHR JUMP JUMPDEST SWAP1 POP DUP1 PUSH1 0x0 DUP1 PUSH2 0x100 EXP DUP2 SLOAD DUP2 PUSH20 0xFFFFFFFFFFFFFFFFFFFFFFFFFFFFFFFFFFFFFFFF MUL NOT AND SWAP1 DUP4 PUSH20 0xFFFFFFFFFFFFFFFFFFFFFFFFFFFFFFFFFFFFFFFF AND MUL OR SWAP1 SSTORE POP DUP1 PUSH20 0xFFFFFFFFFFFFFFFFFFFFFFFFFFFFFFFFFFFFFFFF AND PUSH1 0x0 PUSH20 0xFFFFFFFFFFFFFFFFFFFFFFFFFFFFFFFFFFFFFFFF AND PUSH32 0x8BE0079C531659141344CD1FD0A4F28419497F9722A3DAAFE3B4186F6B6457E0 PUSH1 0x40 MLOAD PUSH1 0x40 MLOAD DUP1 SWAP2 SUB SWAP1 LOG3 POP PUSH1 0x0 PUSH20 0xFFFFFFFFFFFFFFFFFFFFFFFFFFFFFFFFFFFFFFFF AND DUP3 PUSH20 0xFFFFFFFFFFFFFFFFFFFFFFFFFFFFFFFFFFFFFFFF AND EQ ISZERO DUP1 ISZERO PUSH3 0x151 JUMPI POP ADDRESS PUSH20 0xFFFFFFFFFFFFFFFFFFFFFFFFFFFFFFFFFFFFFFFF AND DUP3 PUSH20 0xFFFFFFFFFFFFFFFFFFFFFFFFFFFFFFFFFFFFFFFF AND EQ ISZERO JUMPDEST PUSH3 0x15B JUMPI PUSH1 0x0 DUP1 REVERT JUMPDEST DUP2 PUSH1 0x1 PUSH1 0x0 PUSH2 0x100 EXP DUP2 SLOAD DUP2 PUSH20 0xFFFFFFFFFFFFFFFFFFFFFFFFFFFFFFFFFFFFFFFF MUL NOT AND SWAP1 DUP4 PUSH20 0xFFFFFFFFFFFFFFFFFFFFFFFFFFFFFFFFFFFFFFFF AND MUL OR SWAP1 SSTORE POP DUP1 PUSH1 0x2 PUSH1 0x0 PUSH2 0x100 EXP DUP2 SLOAD DUP2 PUSH20 0xFFFFFFFFFFFFFFFFFFFFFFFFFFFFFFFFFFFFFFFF MUL NOT AND SWAP1 DUP4 PUSH20 0xFFFFFFFFFFFFFFFFFFFFFFFFFFFFFFFFFFFFFFFF AND MUL OR SWAP1 SSTORE POP POP POP PUSH3 0x29E JUMP JUMPDEST PUSH1 0x0 CALLER SWAP1 POP SWAP1 JUMP JUMPDEST PUSH1 0x0 DUP2 MLOAD SWAP1 POP PUSH3 0x1FE DUP2 PUSH3 0x284 JUMP JUMPDEST SWAP3 SWAP2 POP POP JUMP JUMPDEST PUSH1 0x0 DUP1 PUSH1 0x40 DUP4 DUP6 SUB SLT ISZERO PUSH3 0x21E JUMPI PUSH3 0x21D PUSH3 0x27F JUMP JUMPDEST JUMPDEST PUSH1 0x0 PUSH3 0x22E DUP6 DUP3 DUP7 ADD PUSH3 0x1ED JUMP JUMPDEST SWAP3 POP POP PUSH1 0x20 PUSH3 0x241 DUP6 DUP3 DUP7 ADD PUSH3 0x1ED JUMP JUMPDEST SWAP2 POP POP SWAP3 POP SWAP3 SWAP1 POP JUMP JUMPDEST PUSH1 0x0 PUSH3 0x258 DUP3 PUSH3 0x25F JUMP JUMPDEST SWAP1 POP SWAP2 SWAP1 POP JUMP JUMPDEST PUSH1 0x0 PUSH20 0xFFFFFFFFFFFFFFFFFFFFFFFFFFFFFFFFFFFFFFFF DUP3 AND SWAP1 POP SWAP2 SWAP1 POP JUMP JUMPDEST PUSH1 0x0 DUP1 REVERT JUMPDEST PUSH3 0x28F DUP2 PUSH3 0x24B JUMP JUMPDEST DUP2 EQ PUSH3 0x29B JUMPI PUSH1 0x0 DUP1 REVERT JUMPDEST POP JUMP JUMPDEST PUSH2 0x106F DUP1 PUSH3 0x2AE PUSH1 0x0 CODECOPY PUSH1 0x0 RETURN INVALID PUSH1 0x80 PUSH1 0x40 MSTORE PUSH1 0x4 CALLDATASIZE LT PUSH2 0x7B JUMPI PUSH1 0x0 CALLDATALOAD PUSH1 0xE0 SHR DUP1 PUSH4 0x715018A6 GT PUSH2 0x4E JUMPI DUP1 PUSH4 0x715018A6 EQ PUSH2 0x12F JUMPI DUP1 PUSH4 0x8DA5CB5B EQ PUSH2 0x146 JUMPI DUP1 PUSH4 0xD3F50573 EQ PUSH2 0x171 JUMPI DUP1 PUSH4 0xF2FDE38B EQ PUSH2 0x19A JUMPI PUSH2 0x7B JUMP JUMPDEST DUP1 PUSH4 0x3E56E6C3 EQ PUSH2 0x80 JUMPI DUP1 PUSH4 0x432BE4D0 EQ PUSH2 0x9C JUMPI DUP1 PUSH4 0x47CCCA02 EQ PUSH2 0xD9 JUMPI DUP1 PUSH4 0x61D027B3 EQ PUSH2 0x104 JUMPI JUMPDEST PUSH1 0x0 DUP1 REVERT JUMPDEST PUSH2 0x9A PUSH1 0x4 DUP1 CALLDATASIZE SUB DUP2 ADD SWAP1 PUSH2 0x95 SWAP2 SWAP1 PUSH2 0xABC JUMP JUMPDEST PUSH2 0x1C3 JUMP JUMPDEST STOP JUMPDEST CALLVALUE DUP1 ISZERO PUSH2 0xA8 JUMPI PUSH1 0x0 DUP1 REVERT JUMPDEST POP PUSH2 0xC3 PUSH1 0x4 DUP1 CALLDATASIZE SUB DUP2 ADD SWAP1 PUSH2 0xBE SWAP2 SWAP1 PUSH2 0xA62 JUMP JUMPDEST PUSH2 0x33F JUMP JUMPDEST PUSH1 0x40 MLOAD PUSH2 0xD0 SWAP2 SWAP1 PUSH2 0xD0F JUMP JUMPDEST PUSH1 0x40 MLOAD DUP1 SWAP2 SUB SWAP1 RETURN JUMPDEST CALLVALUE DUP1 ISZERO PUSH2 0xE5 JUMPI PUSH1 0x0 DUP1 REVERT JUMPDEST POP PUSH2 0xEE PUSH2 0x357 JUMP JUMPDEST PUSH1 0x40 MLOAD PUSH2 0xFB SWAP2 SWAP1 PUSH2 0xC54 JUMP JUMPDEST PUSH1 0x40 MLOAD DUP1 SWAP2 SUB SWAP1 RETURN JUMPDEST CALLVALUE DUP1 ISZERO PUSH2 0x110 JUMPI PUSH1 0x0 DUP1 REVERT JUMPDEST POP PUSH2 0x119 PUSH2 0x37D JUMP JUMPDEST PUSH1 0x40 MLOAD PUSH2 0x126 SWAP2 SWAP1 PUSH2 0xC10 JUMP JUMPDEST PUSH1 0x40 MLOAD DUP1 SWAP2 SUB SWAP1 RETURN JUMPDEST CALLVALUE DUP1 ISZERO PUSH2 0x13B JUMPI PUSH1 0x0 DUP1 REVERT JUMPDEST POP PUSH2 0x144 PUSH2 0x3A3 JUMP JUMPDEST STOP JUMPDEST CALLVALUE DUP1 ISZERO PUSH2 0x152 JUMPI PUSH1 0x0 DUP1 REVERT JUMPDEST POP PUSH2 0x15B PUSH2 0x4F6 JUMP JUMPDEST PUSH1 0x40 MLOAD PUSH2 0x168 SWAP2 SWAP1 PUSH2 0xC10 JUMP JUMPDEST PUSH1 0x40 MLOAD DUP1 SWAP2 SUB SWAP1 RETURN JUMPDEST CALLVALUE DUP1 ISZERO PUSH2 0x17D JUMPI PUSH1 0x0 DUP1 REVERT JUMPDEST POP PUSH2 0x198 PUSH1 0x4 DUP1 CALLDATASIZE SUB DUP2 ADD SWAP1 PUSH2 0x193 SWAP2 SWAP1 PUSH2 0xABC JUMP JUMPDEST PUSH2 0x51F JUMP JUMPDEST STOP JUMPDEST CALLVALUE DUP1 ISZERO PUSH2 0x1A6 JUMPI PUSH1 0x0 DUP1 REVERT JUMPDEST POP PUSH2 0x1C1 PUSH1 0x4 DUP1 CALLDATASIZE SUB DUP2 ADD SWAP1 PUSH2 0x1BC SWAP2 SWAP1 PUSH2 0xA35 JUMP JUMPDEST PUSH2 0x5C2 JUMP JUMPDEST STOP JUMPDEST PUSH1 0x0 PUSH1 0x3 PUSH1 0x0 DUP5 DUP2 MSTORE PUSH1 0x20 ADD SWAP1 DUP2 MSTORE PUSH1 0x20 ADD PUSH1 0x0 KECCAK256 SLOAD GT PUSH2 0x219 JUMPI PUSH1 0x40 MLOAD PUSH32 0x8C379A000000000000000000000000000000000000000000000000000000000 DUP2 MSTORE PUSH1 0x4 ADD PUSH2 0x210 SWAP1 PUSH2 0xC8F JUMP JUMPDEST PUSH1 0x40 MLOAD DUP1 SWAP2 SUB SWAP1 REVERT JUMPDEST PUSH1 0x0 JUMPDEST DUP2 DUP2 LT ISZERO PUSH2 0x246 JUMPI PUSH2 0x235 PUSH2 0x22F PUSH2 0x784 JUMP JUMPDEST DUP5 PUSH2 0x78C JUMP JUMPDEST DUP1 PUSH2 0x23F SWAP1 PUSH2 0xE43 JUMP JUMPDEST SWAP1 POP PUSH2 0x21C JUMP JUMPDEST POP PUSH1 0x0 PUSH1 0x2 PUSH1 0x0 SWAP1 SLOAD SWAP1 PUSH2 0x100 EXP SWAP1 DIV PUSH20 0xFFFFFFFFFFFFFFFFFFFFFFFFFFFFFFFFFFFFFFFF AND PUSH20 0xFFFFFFFFFFFFFFFFFFFFFFFFFFFFFFFFFFFFFFFF AND PUSH2 0x2A8 DUP4 PUSH1 0x3 PUSH1 0x0 DUP8 DUP2 MSTORE PUSH1 0x20 ADD SWAP1 DUP2 MSTORE PUSH1 0x20 ADD PUSH1 0x0 KECCAK256 SLOAD PUSH2 0x927 SWAP1 SWAP2 SWAP1 PUSH4 0xFFFFFFFF AND JUMP JUMPDEST PUSH1 0x40 MLOAD PUSH2 0x2B4 SWAP1 PUSH2 0xBFB JUMP JUMPDEST PUSH1 0x0 PUSH1 0x40 MLOAD DUP1 DUP4 SUB DUP2 DUP6 DUP8 GAS CALL SWAP3 POP POP POP RETURNDATASIZE DUP1 PUSH1 0x0 DUP2 EQ PUSH2 0x2F1 JUMPI PUSH1 0x40 MLOAD SWAP2 POP PUSH1 0x1F NOT PUSH1 0x3F RETURNDATASIZE ADD AND DUP3 ADD PUSH1 0x40 MSTORE RETURNDATASIZE DUP3 MSTORE RETURNDATASIZE PUSH1 0x0 PUSH1 0x20 DUP5 ADD RETURNDATACOPY PUSH2 0x2F6 JUMP JUMPDEST PUSH1 0x60 SWAP2 POP JUMPDEST POP POP SWAP1 POP DUP1 PUSH2 0x33A JUMPI PUSH1 0x40 MLOAD PUSH32 0x8C379A000000000000000000000000000000000000000000000000000000000 DUP2 MSTORE PUSH1 0x4 ADD PUSH2 0x331 SWAP1 PUSH2 0xCEF JUMP JUMPDEST PUSH1 0x40 MLOAD DUP1 SWAP2 SUB SWAP1 REVERT JUMPDEST POP POP POP JUMP JUMPDEST PUSH1 0x3 PUSH1 0x20 MSTORE DUP1 PUSH1 0x0 MSTORE PUSH1 0x40 PUSH1 0x0 KECCAK256 PUSH1 0x0 SWAP2 POP SWAP1 POP SLOAD DUP2 JUMP JUMPDEST PUSH1 0x1 PUSH1 0x0 SWAP1 SLOAD SWAP1 PUSH2 0x100 EXP SWAP1 DIV PUSH20 0xFFFFFFFFFFFFFFFFFFFFFFFFFFFFFFFFFFFFFFFF AND DUP2 JUMP JUMPDEST PUSH1 0x2 PUSH1 0x0 SWAP1 SLOAD SWAP1 PUSH2 0x100 EXP SWAP1 DIV PUSH20 0xFFFFFFFFFFFFFFFFFFFFFFFFFFFFFFFFFFFFFFFF AND DUP2 JUMP JUMPDEST PUSH2 0x3AB PUSH2 0x784 JUMP JUMPDEST PUSH20 0xFFFFFFFFFFFFFFFFFFFFFFFFFFFFFFFFFFFFFFFF AND PUSH1 0x0 DUP1 SLOAD SWAP1 PUSH2 0x100 EXP SWAP1 DIV PUSH20 0xFFFFFFFFFFFFFFFFFFFFFFFFFFFFFFFFFFFFFFFF AND PUSH20 0xFFFFFFFFFFFFFFFFFFFFFFFFFFFFFFFFFFFFFFFF AND EQ PUSH2 0x438 JUMPI PUSH1 0x40 MLOAD PUSH32 0x8C379A000000000000000000000000000000000000000000000000000000000 DUP2 MSTORE PUSH1 0x4 ADD PUSH2 0x42F SWAP1 PUSH2 0xCCF JUMP JUMPDEST PUSH1 0x40 MLOAD DUP1 SWAP2 SUB SWAP1 REVERT JUMPDEST PUSH1 0x0 PUSH20 0xFFFFFFFFFFFFFFFFFFFFFFFFFFFFFFFFFFFFFFFF AND PUSH1 0x0 DUP1 SLOAD SWAP1 PUSH2 0x100 EXP SWAP1 DIV PUSH20 0xFFFFFFFFFFFFFFFFFFFFFFFFFFFFFFFFFFFFFFFF AND PUSH20 0xFFFFFFFFFFFFFFFFFFFFFFFFFFFFFFFFFFFFFFFF AND PUSH32 0x8BE0079C531659141344CD1FD0A4F28419497F9722A3DAAFE3B4186F6B6457E0 PUSH1 0x40 MLOAD PUSH1 0x40 MLOAD DUP1 SWAP2 SUB SWAP1 LOG3 PUSH1 0x0 DUP1 PUSH1 0x0 PUSH2 0x100 EXP DUP2 SLOAD DUP2 PUSH20 0xFFFFFFFFFFFFFFFFFFFFFFFFFFFFFFFFFFFFFFFF MUL NOT AND SWAP1 DUP4 PUSH20 0xFFFFFFFFFFFFFFFFFFFFFFFFFFFFFFFFFFFFFFFF AND MUL OR SWAP1 SSTORE POP JUMP JUMPDEST PUSH1 0x0 DUP1 PUSH1 0x0 SWAP1 SLOAD SWAP1 PUSH2 0x100 EXP SWAP1 DIV PUSH20 0xFFFFFFFFFFFFFFFFFFFFFFFFFFFFFFFFFFFFFFFF AND SWAP1 POP SWAP1 JUMP JUMPDEST PUSH2 0x527 PUSH2 0x784 JUMP JUMPDEST PUSH20 0xFFFFFFFFFFFFFFFFFFFFFFFFFFFFFFFFFFFFFFFF AND PUSH1 0x0 DUP1 SLOAD SWAP1 PUSH2 0x100 EXP SWAP1 DIV PUSH20 0xFFFFFFFFFFFFFFFFFFFFFFFFFFFFFFFFFFFFFFFF AND PUSH20 0xFFFFFFFFFFFFFFFFFFFFFFFFFFFFFFFFFFFFFFFF AND EQ PUSH2 0x5B4 JUMPI PUSH1 0x40 MLOAD PUSH32 0x8C379A000000000000000000000000000000000000000000000000000000000 DUP2 MSTORE PUSH1 0x4 ADD PUSH2 0x5AB SWAP1 PUSH2 0xCCF JUMP JUMPDEST PUSH1 0x40 MLOAD DUP1 SWAP2 SUB SWAP1 REVERT JUMPDEST PUSH2 0x5BE DUP3 DUP3 PUSH2 0x9A2 JUMP JUMPDEST POP POP JUMP JUMPDEST PUSH2 0x5CA PUSH2 0x784 JUMP JUMPDEST PUSH20 0xFFFFFFFFFFFFFFFFFFFFFFFFFFFFFFFFFFFFFFFF AND PUSH1 0x0 DUP1 SLOAD SWAP1 PUSH2 0x100 EXP SWAP1 DIV PUSH20 0xFFFFFFFFFFFFFFFFFFFFFFFFFFFFFFFFFFFFFFFF AND PUSH20 0xFFFFFFFFFFFFFFFFFFFFFFFFFFFFFFFFFFFFFFFF AND EQ PUSH2 0x657 JUMPI PUSH1 0x40 MLOAD PUSH32 0x8C379A000000000000000000000000000000000000000000000000000000000 DUP2 MSTORE PUSH1 0x4 ADD PUSH2 0x64E SWAP1 PUSH2 0xCCF JUMP JUMPDEST PUSH1 0x40 MLOAD DUP1 SWAP2 SUB SWAP1 REVERT JUMPDEST PUSH1 0x0 PUSH20 0xFFFFFFFFFFFFFFFFFFFFFFFFFFFFFFFFFFFFFFFF AND DUP2 PUSH20 0xFFFFFFFFFFFFFFFFFFFFFFFFFFFFFFFFFFFFFFFF AND EQ ISZERO PUSH2 0x6C7 JUMPI PUSH1 0x40 MLOAD PUSH32 0x8C379A000000000000000000000000000000000000000000000000000000000 DUP2 MSTORE PUSH1 0x4 ADD PUSH2 0x6BE SWAP1 PUSH2 0xC6F JUMP JUMPDEST PUSH1 0x40 MLOAD DUP1 SWAP2 SUB SWAP1 REVERT JUMPDEST DUP1 PUSH20 0xFFFFFFFFFFFFFFFFFFFFFFFFFFFFFFFFFFFFFFFF AND PUSH1 0x0 DUP1 SLOAD SWAP1 PUSH2 0x100 EXP SWAP1 DIV PUSH20 0xFFFFFFFFFFFFFFFFFFFFFFFFFFFFFFFFFFFFFFFF AND PUSH20 0xFFFFFFFFFFFFFFFFFFFFFFFFFFFFFFFFFFFFFFFF AND PUSH32 0x8BE0079C531659141344CD1FD0A4F28419497F9722A3DAAFE3B4186F6B6457E0 PUSH1 0x40 MLOAD PUSH1 0x40 MLOAD DUP1 SWAP2 SUB SWAP1 LOG3 DUP1 PUSH1 0x0 DUP1 PUSH2 0x100 EXP DUP2 SLOAD DUP2 PUSH20 0xFFFFFFFFFFFFFFFFFFFFFFFFFFFFFFFFFFFFFFFF MUL NOT AND SWAP1 DUP4 PUSH20 0xFFFFFFFFFFFFFFFFFFFFFFFFFFFFFFFFFFFFFFFF AND MUL OR SWAP1 SSTORE POP POP JUMP JUMPDEST PUSH1 0x0 CALLER SWAP1 POP SWAP1 JUMP JUMPDEST PUSH1 0x0 PUSH1 0x1 PUSH1 0x0 SWAP1 SLOAD SWAP1 PUSH2 0x100 EXP SWAP1 DIV PUSH20 0xFFFFFFFFFFFFFFFFFFFFFFFFFFFFFFFFFFFFFFFF AND PUSH20 0xFFFFFFFFFFFFFFFFFFFFFFFFFFFFFFFFFFFFFFFF AND PUSH4 0x1C178087 PUSH1 0x40 MLOAD DUP2 PUSH4 0xFFFFFFFF AND PUSH1 0xE0 SHL DUP2 MSTORE PUSH1 0x4 ADD PUSH1 0x20 PUSH1 0x40 MLOAD DUP1 DUP4 SUB DUP2 DUP7 DUP1 EXTCODESIZE ISZERO DUP1 ISZERO PUSH2 0x7F6 JUMPI PUSH1 0x0 DUP1 REVERT JUMPDEST POP GAS STATICCALL ISZERO DUP1 ISZERO PUSH2 0x80A JUMPI RETURNDATASIZE PUSH1 0x0 DUP1 RETURNDATACOPY RETURNDATASIZE PUSH1 0x0 REVERT JUMPDEST POP POP POP POP PUSH1 0x40 MLOAD RETURNDATASIZE PUSH1 0x1F NOT PUSH1 0x1F DUP3 ADD AND DUP3 ADD DUP1 PUSH1 0x40 MSTORE POP DUP2 ADD SWAP1 PUSH2 0x82E SWAP2 SWAP1 PUSH2 0xA8F JUMP JUMPDEST SWAP1 POP PUSH1 0x1 PUSH1 0x0 SWAP1 SLOAD SWAP1 PUSH2 0x100 EXP SWAP1 DIV PUSH20 0xFFFFFFFFFFFFFFFFFFFFFFFFFFFFFFFFFFFFFFFF AND PUSH20 0xFFFFFFFFFFFFFFFFFFFFFFFFFFFFFFFFFFFFFFFF AND PUSH4 0xA1448194 DUP5 DUP5 PUSH1 0x40 MLOAD DUP4 PUSH4 0xFFFFFFFF AND PUSH1 0xE0 SHL DUP2 MSTORE PUSH1 0x4 ADD PUSH2 0x88D SWAP3 SWAP2 SWAP1 PUSH2 0xC2B JUMP JUMPDEST PUSH1 0x0 PUSH1 0x40 MLOAD DUP1 DUP4 SUB DUP2 PUSH1 0x0 DUP8 DUP1 EXTCODESIZE ISZERO DUP1 ISZERO PUSH2 0x8A7 JUMPI PUSH1 0x0 DUP1 REVERT JUMPDEST POP GAS CALL ISZERO DUP1 ISZERO PUSH2 0x8BB JUMPI RETURNDATASIZE PUSH1 0x0 DUP1 RETURNDATACOPY RETURNDATASIZE PUSH1 0x0 REVERT JUMPDEST POP POP POP POP DUP1 DUP3 DUP5 PUSH20 0xFFFFFFFFFFFFFFFFFFFFFFFFFFFFFFFFFFFFFFFF AND PUSH32 0xBEAE048C6D270D9469F86CF6E8FEDDA3C60AD770F16C24C9FC131C8E9A09101D PUSH1 0x3 PUSH1 0x0 DUP8 DUP2 MSTORE PUSH1 0x20 ADD SWAP1 DUP2 MSTORE PUSH1 0x20 ADD PUSH1 0x0 KECCAK256 SLOAD PUSH1 0x40 MLOAD PUSH2 0x91A SWAP2 SWAP1 PUSH2 0xD0F JUMP JUMPDEST PUSH1 0x40 MLOAD DUP1 SWAP2 SUB SWAP1 LOG4 POP POP POP JUMP JUMPDEST PUSH1 0x0 DUP1 DUP4 EQ ISZERO PUSH2 0x93A JUMPI PUSH1 0x0 SWAP1 POP PUSH2 0x99C JUMP JUMPDEST PUSH1 0x0 DUP3 DUP5 PUSH2 0x948 SWAP2 SWAP1 PUSH2 0xD77 JUMP JUMPDEST SWAP1 POP DUP3 DUP5 DUP3 PUSH2 0x957 SWAP2 SWAP1 PUSH2 0xD46 JUMP JUMPDEST EQ PUSH2 0x997 JUMPI PUSH1 0x40 MLOAD PUSH32 0x8C379A000000000000000000000000000000000000000000000000000000000 DUP2 MSTORE PUSH1 0x4 ADD PUSH2 0x98E SWAP1 PUSH2 0xCAF JUMP JUMPDEST PUSH1 0x40 MLOAD DUP1 SWAP2 SUB SWAP1 REVERT JUMPDEST DUP1 SWAP2 POP POP JUMPDEST SWAP3 SWAP2 POP POP JUMP JUMPDEST DUP1 PUSH1 0x3 PUSH1 0x0 DUP5 DUP2 MSTORE PUSH1 0x20 ADD SWAP1 DUP2 MSTORE PUSH1 0x20 ADD PUSH1 0x0 KECCAK256 DUP2 SWAP1 SSTORE POP DUP2 PUSH32 0x92664190CCA12ACA9CD5309D87194BDDA75BB51362D71C06E1A6F75C7C765711 DUP3 PUSH1 0x40 MLOAD PUSH2 0x9EA SWAP2 SWAP1 PUSH2 0xD0F JUMP JUMPDEST PUSH1 0x40 MLOAD DUP1 SWAP2 SUB SWAP1 LOG2 POP POP JUMP JUMPDEST PUSH1 0x0 DUP2 CALLDATALOAD SWAP1 POP PUSH2 0xA05 DUP2 PUSH2 0x100B JUMP JUMPDEST SWAP3 SWAP2 POP POP JUMP JUMPDEST PUSH1 0x0 DUP2 CALLDATALOAD SWAP1 POP PUSH2 0xA1A DUP2 PUSH2 0x1022 JUMP JUMPDEST SWAP3 SWAP2 POP POP JUMP JUMPDEST PUSH1 0x0 DUP2 MLOAD SWAP1 POP PUSH2 0xA2F DUP2 PUSH2 0x1022 JUMP JUMPDEST SWAP3 SWAP2 POP POP JUMP JUMPDEST PUSH1 0x0 PUSH1 0x20 DUP3 DUP5 SUB SLT ISZERO PUSH2 0xA4B JUMPI PUSH2 0xA4A PUSH2 0xEEA JUMP JUMPDEST JUMPDEST PUSH1 0x0 PUSH2 0xA59 DUP5 DUP3 DUP6 ADD PUSH2 0x9F6 JUMP JUMPDEST SWAP2 POP POP SWAP3 SWAP2 POP POP JUMP JUMPDEST PUSH1 0x0 PUSH1 0x20 DUP3 DUP5 SUB SLT ISZERO PUSH2 0xA78 JUMPI PUSH2 0xA77 PUSH2 0xEEA JUMP JUMPDEST JUMPDEST PUSH1 0x0 PUSH2 0xA86 DUP5 DUP3 DUP6 ADD PUSH2 0xA0B JUMP JUMPDEST SWAP2 POP POP SWAP3 SWAP2 POP POP JUMP JUMPDEST PUSH1 0x0 PUSH1 0x20 DUP3 DUP5 SUB SLT ISZERO PUSH2 0xAA5 JUMPI PUSH2 0xAA4 PUSH2 0xEEA JUMP JUMPDEST JUMPDEST PUSH1 0x0 PUSH2 0xAB3 DUP5 DUP3 DUP6 ADD PUSH2 0xA20 JUMP JUMPDEST SWAP2 POP POP SWAP3 SWAP2 POP POP JUMP JUMPDEST PUSH1 0x0 DUP1 PUSH1 0x40 DUP4 DUP6 SUB SLT ISZERO PUSH2 0xAD3 JUMPI PUSH2 0xAD2 PUSH2 0xEEA JUMP JUMPDEST JUMPDEST PUSH1 0x0 PUSH2 0xAE1 DUP6 DUP3 DUP7 ADD PUSH2 0xA0B JUMP JUMPDEST SWAP3 POP POP PUSH1 0x20 PUSH2 0xAF2 DUP6 DUP3 DUP7 ADD PUSH2 0xA0B JUMP JUMPDEST SWAP2 POP POP SWAP3 POP SWAP3 SWAP1 POP JUMP JUMPDEST PUSH2 0xB05 DUP2 PUSH2 0xDD1 JUMP JUMPDEST DUP3 MSTORE POP POP JUMP JUMPDEST PUSH2 0xB14 DUP2 PUSH2 0xE0D JUMP JUMPDEST DUP3 MSTORE POP POP JUMP JUMPDEST PUSH1 0x0 PUSH2 0xB27 PUSH1 0x26 DUP4 PUSH2 0xD35 JUMP JUMPDEST SWAP2 POP PUSH2 0xB32 DUP3 PUSH2 0xEEF JUMP JUMPDEST PUSH1 0x40 DUP3 ADD SWAP1 POP SWAP2 SWAP1 POP JUMP JUMPDEST PUSH1 0x0 PUSH2 0xB4A PUSH1 0xB DUP4 PUSH2 0xD35 JUMP JUMPDEST SWAP2 POP PUSH2 0xB55 DUP3 PUSH2 0xF3E JUMP JUMPDEST PUSH1 0x20 DUP3 ADD SWAP1 POP SWAP2 SWAP1 POP JUMP JUMPDEST PUSH1 0x0 PUSH2 0xB6D PUSH1 0x21 DUP4 PUSH2 0xD35 JUMP JUMPDEST SWAP2 POP PUSH2 0xB78 DUP3 PUSH2 0xF67 JUMP JUMPDEST PUSH1 0x40 DUP3 ADD SWAP1 POP SWAP2 SWAP1 POP JUMP JUMPDEST PUSH1 0x0 PUSH2 0xB90 PUSH1 0x20 DUP4 PUSH2 0xD35 JUMP JUMPDEST SWAP2 POP PUSH2 0xB9B DUP3 PUSH2 0xFB6 JUMP JUMPDEST PUSH1 0x20 DUP3 ADD SWAP1 POP SWAP2 SWAP1 POP JUMP JUMPDEST PUSH1 0x0 PUSH2 0xBB3 PUSH1 0x13 DUP4 PUSH2 0xD35 JUMP JUMPDEST SWAP2 POP PUSH2 0xBBE DUP3 PUSH2 0xFDF JUMP JUMPDEST PUSH1 0x20 DUP3 ADD SWAP1 POP SWAP2 SWAP1 POP JUMP JUMPDEST PUSH1 0x0 PUSH2 0xBD6 PUSH1 0x0 DUP4 PUSH2 0xD2A JUMP JUMPDEST SWAP2 POP PUSH2 0xBE1 DUP3 PUSH2 0x1008 JUMP JUMPDEST PUSH1 0x0 DUP3 ADD SWAP1 POP SWAP2 SWAP1 POP JUMP JUMPDEST PUSH2 0xBF5 DUP2 PUSH2 0xE03 JUMP JUMPDEST DUP3 MSTORE POP POP JUMP JUMPDEST PUSH1 0x0 PUSH2 0xC06 DUP3 PUSH2 0xBC9 JUMP JUMPDEST SWAP2 POP DUP2 SWAP1 POP SWAP2 SWAP1 POP JUMP JUMPDEST PUSH1 0x0 PUSH1 0x20 DUP3 ADD SWAP1 POP PUSH2 0xC25 PUSH1 0x0 DUP4 ADD DUP5 PUSH2 0xAFC JUMP JUMPDEST SWAP3 SWAP2 POP POP JUMP JUMPDEST PUSH1 0x0 PUSH1 0x40 DUP3 ADD SWAP1 POP PUSH2 0xC40 PUSH1 0x0 DUP4 ADD DUP6 PUSH2 0xAFC JUMP JUMPDEST PUSH2 0xC4D PUSH1 0x20 DUP4 ADD DUP5 PUSH2 0xBEC JUMP JUMPDEST SWAP4 SWAP3 POP POP POP JUMP JUMPDEST PUSH1 0x0 PUSH1 0x20 DUP3 ADD SWAP1 POP PUSH2 0xC69 PUSH1 0x0 DUP4 ADD DUP5 PUSH2 0xB0B JUMP JUMPDEST SWAP3 SWAP2 POP POP JUMP JUMPDEST PUSH1 0x0 PUSH1 0x20 DUP3 ADD SWAP1 POP DUP2 DUP2 SUB PUSH1 0x0 DUP4 ADD MSTORE PUSH2 0xC88 DUP2 PUSH2 0xB1A JUMP JUMPDEST SWAP1 POP SWAP2 SWAP1 POP JUMP JUMPDEST PUSH1 0x0 PUSH1 0x20 DUP3 ADD SWAP1 POP DUP2 DUP2 SUB PUSH1 0x0 DUP4 ADD MSTORE PUSH2 0xCA8 DUP2 PUSH2 0xB3D JUMP JUMPDEST SWAP1 POP SWAP2 SWAP1 POP JUMP JUMPDEST PUSH1 0x0 PUSH1 0x20 DUP3 ADD SWAP1 POP DUP2 DUP2 SUB PUSH1 0x0 DUP4 ADD MSTORE PUSH2 0xCC8 DUP2 PUSH2 0xB60 JUMP JUMPDEST SWAP1 POP SWAP2 SWAP1 POP JUMP JUMPDEST PUSH1 0x0 PUSH1 0x20 DUP3 ADD SWAP1 POP DUP2 DUP2 SUB PUSH1 0x0 DUP4 ADD MSTORE PUSH2 0xCE8 DUP2 PUSH2 0xB83 JUMP JUMPDEST SWAP1 POP SWAP2 SWAP1 POP JUMP JUMPDEST PUSH1 0x0 PUSH1 0x20 DUP3 ADD SWAP1 POP DUP2 DUP2 SUB PUSH1 0x0 DUP4 ADD MSTORE PUSH2 0xD08 DUP2 PUSH2 0xBA6 JUMP JUMPDEST SWAP1 POP SWAP2 SWAP1 POP JUMP JUMPDEST PUSH1 0x0 PUSH1 0x20 DUP3 ADD SWAP1 POP PUSH2 0xD24 PUSH1 0x0 DUP4 ADD DUP5 PUSH2 0xBEC JUMP JUMPDEST SWAP3 SWAP2 POP POP JUMP JUMPDEST PUSH1 0x0 DUP2 SWAP1 POP SWAP3 SWAP2 POP POP JUMP JUMPDEST PUSH1 0x0 DUP3 DUP3 MSTORE PUSH1 0x20 DUP3 ADD SWAP1 POP SWAP3 SWAP2 POP POP JUMP JUMPDEST PUSH1 0x0 PUSH2 0xD51 DUP3 PUSH2 0xE03 JUMP JUMPDEST SWAP2 POP PUSH2 0xD5C DUP4 PUSH2 0xE03 JUMP JUMPDEST SWAP3 POP DUP3 PUSH2 0xD6C JUMPI PUSH2 0xD6B PUSH2 0xEBB JUMP JUMPDEST JUMPDEST DUP3 DUP3 DIV SWAP1 POP SWAP3 SWAP2 POP POP JUMP JUMPDEST PUSH1 0x0 PUSH2 0xD82 DUP3 PUSH2 0xE03 JUMP JUMPDEST SWAP2 POP PUSH2 0xD8D DUP4 PUSH2 0xE03 JUMP JUMPDEST SWAP3 POP DUP2 PUSH32 0xFFFFFFFFFFFFFFFFFFFFFFFFFFFFFFFFFFFFFFFFFFFFFFFFFFFFFFFFFFFFFFFF DIV DUP4 GT DUP3 ISZERO ISZERO AND ISZERO PUSH2 0xDC6 JUMPI PUSH2 0xDC5 PUSH2 0xE8C JUMP JUMPDEST JUMPDEST DUP3 DUP3 MUL SWAP1 POP SWAP3 SWAP2 POP POP JUMP JUMPDEST PUSH1 0x0 PUSH2 0xDDC DUP3 PUSH2 0xDE3 JUMP JUMPDEST SWAP1 POP SWAP2 SWAP1 POP JUMP JUMPDEST PUSH1 0x0 PUSH20 0xFFFFFFFFFFFFFFFFFFFFFFFFFFFFFFFFFFFFFFFF DUP3 AND SWAP1 POP SWAP2 SWAP1 POP JUMP JUMPDEST PUSH1 0x0 DUP2 SWAP1 POP SWAP2 SWAP1 POP JUMP JUMPDEST PUSH1 0x0 PUSH2 0xE18 DUP3 PUSH2 0xE1F JUMP JUMPDEST SWAP1 POP SWAP2 SWAP1 POP JUMP JUMPDEST PUSH1 0x0 PUSH2 0xE2A DUP3 PUSH2 0xE31 JUMP JUMPDEST SWAP1 POP SWAP2 SWAP1 POP JUMP JUMPDEST PUSH1 0x0 PUSH2 0xE3C DUP3 PUSH2 0xDE3 JUMP JUMPDEST SWAP1 POP SWAP2 SWAP1 POP JUMP JUMPDEST PUSH1 0x0 PUSH2 0xE4E DUP3 PUSH2 0xE03 JUMP JUMPDEST SWAP2 POP PUSH32 0xFFFFFFFFFFFFFFFFFFFFFFFFFFFFFFFFFFFFFFFFFFFFFFFFFFFFFFFFFFFFFFFF DUP3 EQ ISZERO PUSH2 0xE81 JUMPI PUSH2 0xE80 PUSH2 0xE8C JUMP JUMPDEST JUMPDEST PUSH1 0x1 DUP3 ADD SWAP1 POP SWAP2 SWAP1 POP JUMP JUMPDEST PUSH32 0x4E487B7100000000000000000000000000000000000000000000000000000000 PUSH1 0x0 MSTORE PUSH1 0x11 PUSH1 0x4 MSTORE PUSH1 0x24 PUSH1 0x0 REVERT JUMPDEST PUSH32 0x4E487B7100000000000000000000000000000000000000000000000000000000 PUSH1 0x0 MSTORE PUSH1 0x12 PUSH1 0x4 MSTORE PUSH1 0x24 PUSH1 0x0 REVERT JUMPDEST PUSH1 0x0 DUP1 REVERT JUMPDEST PUSH32 0x4F776E61626C653A206E6577206F776E657220697320746865207A65726F2061 PUSH1 0x0 DUP3 ADD MSTORE PUSH32 0x6464726573730000000000000000000000000000000000000000000000000000 PUSH1 0x20 DUP3 ADD MSTORE POP JUMP JUMPDEST PUSH32 0x4E6F74206F6E206C697374000000000000000000000000000000000000000000 PUSH1 0x0 DUP3 ADD MSTORE POP JUMP JUMPDEST PUSH32 0x536166654D6174683A206D756C7469706C69636174696F6E206F766572666C6F PUSH1 0x0 DUP3 ADD MSTORE PUSH32 0x7700000000000000000000000000000000000000000000000000000000000000 PUSH1 0x20 DUP3 ADD MSTORE POP JUMP JUMPDEST PUSH32 0x4F776E61626C653A2063616C6C6572206973206E6F7420746865206F776E6572 PUSH1 0x0 DUP3 ADD MSTORE POP JUMP JUMPDEST PUSH32 0x4661696C656420746F2073656E64206B6C617900000000000000000000000000 PUSH1 0x0 DUP3 ADD MSTORE POP JUMP JUMPDEST POP JUMP JUMPDEST PUSH2 0x1014 DUP2 PUSH2 0xDD1 JUMP JUMPDEST DUP2 EQ PUSH2 0x101F JUMPI PUSH1 0x0 DUP1 REVERT JUMPDEST POP JUMP JUMPDEST PUSH2 0x102B DUP2 PUSH2 0xE03 JUMP JUMPDEST DUP2 EQ PUSH2 0x1036 JUMPI PUSH1 0x0 DUP1 REVERT JUMPDEST POP JUMP INVALID LOG2 PUSH5 0x6970667358 0x22 SLT KECCAK256 MSIZE 0xB3 EXTCODEHASH PUSH12 0x8632D22E6FAA1E23C1932F73 SWAP9 0xEC CREATE2 MOD 0xFC 0xC6 0xE8 0xAE SMOD 0x4E MLOAD SWAP3 GASPRICE 0xC8 SLOAD 0x28 PUSH5 0x736F6C6343 STOP ADDMOD SMOD STOP CALLER "
				},
				"gasEstimates": {
					"creation": {
						"codeDepositCost": "841400",
						"executionCost": "infinite",
						"totalCost": "infinite"
					},
					"external": {
						"_commodityPrices(uint256)": "infinite",
						"nft()": "2645",
						"owner()": "2544",
						"renounceOwnership()": "30291",
						"safeBuyToken(uint256,uint256)": "infinite",
						"safeListToken(uint256,uint256)": "infinite",
						"transferOwnership(address)": "30706",
						"treasury()": "2581"
					},
					"internal": {
						"_buyToken(address,uint256)": "infinite",
						"_listToken(uint256,uint256)": "infinite"
					}
				},
				"methodIdentifiers": {
					"_commodityPrices(uint256)": "432be4d0",
					"nft()": "47ccca02",
					"owner()": "8da5cb5b",
					"renounceOwnership()": "715018a6",
					"safeBuyToken(uint256,uint256)": "3e56e6c3",
					"safeListToken(uint256,uint256)": "d3f50573",
					"transferOwnership(address)": "f2fde38b",
					"treasury()": "61d027b3"
				}
			},
			"storageLayout": {
				"storage": [
					{
						"astId": 292,
						"contract": "atta-movies/ERC721/klaytn/ERC721VendingMachineAutoIdForKlay.sol:VendingMachine",
						"label": "_owner",
						"offset": 0,
						"slot": "0",
						"type": "t_address"
					},
					{
						"astId": 907,
						"contract": "atta-movies/ERC721/klaytn/ERC721VendingMachineAutoIdForKlay.sol:VendingMachine",
						"label": "nft",
						"offset": 0,
						"slot": "1",
						"type": "t_contract(IERC721MintableAutoId)899"
					},
					{
						"astId": 909,
						"contract": "atta-movies/ERC721/klaytn/ERC721VendingMachineAutoIdForKlay.sol:VendingMachine",
						"label": "treasury",
						"offset": 0,
						"slot": "2",
						"type": "t_address"
					},
					{
						"astId": 913,
						"contract": "atta-movies/ERC721/klaytn/ERC721VendingMachineAutoIdForKlay.sol:VendingMachine",
						"label": "_commodityPrices",
						"offset": 0,
						"slot": "3",
						"type": "t_mapping(t_uint256,t_uint256)"
					}
				],
				"types": {
					"t_address": {
						"encoding": "inplace",
						"label": "address",
						"numberOfBytes": "20"
					},
					"t_contract(IERC721MintableAutoId)899": {
						"encoding": "inplace",
						"label": "contract IERC721MintableAutoId",
						"numberOfBytes": "20"
					},
					"t_mapping(t_uint256,t_uint256)": {
						"encoding": "mapping",
						"key": "t_uint256",
						"label": "mapping(uint256 => uint256)",
						"numberOfBytes": "32",
						"value": "t_uint256"
					},
					"t_uint256": {
						"encoding": "inplace",
						"label": "uint256",
						"numberOfBytes": "32"
					}
				}
			},
			"userdoc": {
				"kind": "user",
				"methods": {},
				"version": 1
			}
		}
	}
}