{
	"data": {
		"bytecode": {
			"linkReferences": {},
			"object": "608060405260018055692a5a058fc295ed00000060025567429d069189e000006003556200005c600a62000048603c670de0b6b3a76400006200016960201b6200160e1760201c565b620001ed60201b620016891790919060201c565b60045567a688906bd8b000006005553480156200007857600080fd5b506040516200329a3803806200329a83398181016040528101906200009e9190620002be565b826000806101000a81548173ffffffffffffffffffffffffffffffffffffffff021916908373ffffffffffffffffffffffffffffffffffffffff16021790555081600660006101000a81548173ffffffffffffffffffffffffffffffffffffffff021916908373ffffffffffffffffffffffffffffffffffffffff16021790555080600760006101000a81548173ffffffffffffffffffffffffffffffffffffffff021916908373ffffffffffffffffffffffffffffffffffffffff160217905550505050620005ce565b6000808314156200017e5760009050620001e7565b600082846200018e91906200041c565b90508284826200019f9190620003e4565b14620001e2576040517f08c379a0000000000000000000000000000000000000000000000000000000008152600401620001d990620003a6565b60405180910390fd5b809150505b92915050565b60006200023783836040518060400160405280601a81526020017f536166654d6174683a206469766973696f6e206279207a65726f0000000000008152506200023f60201b60201c565b905092915050565b6000808311829062000289576040517f08c379a000000000000000000000000000000000000000000000000000000000815260040162000280919062000382565b60405180910390fd5b50600083856200029a9190620003e4565b9050809150509392505050565b600081519050620002b881620005b4565b92915050565b600080600060608486031215620002da57620002d96200054f565b5b6000620002ea86828701620002a7565b9350506020620002fd86828701620002a7565b92505060406200031086828701620002a7565b9150509250925092565b60006200032782620003c8565b620003338185620003d3565b935062000345818560208601620004bb565b620003508162000554565b840191505092915050565b60006200036a602183620003d3565b9150620003778262000565565b604082019050919050565b600060208201905081810360008301526200039e81846200031a565b905092915050565b60006020820190508181036000830152620003c1816200035b565b9050919050565b600081519050919050565b600082825260208201905092915050565b6000620003f182620004b1565b9150620003fe83620004b1565b92508262000411576200041062000520565b5b828204905092915050565b60006200042982620004b1565b91506200043683620004b1565b9250817fffffffffffffffffffffffffffffffffffffffffffffffffffffffffffffffff0483118215151615620004725762000471620004f1565b5b828202905092915050565b60006200048a8262000491565b9050919050565b600073ffffffffffffffffffffffffffffffffffffffff82169050919050565b6000819050919050565b60005b83811015620004db578082015181840152602081019050620004be565b83811115620004eb576000848401525b50505050565b7f4e487b7100000000000000000000000000000000000000000000000000000000600052601160045260246000fd5b7f4e487b7100000000000000000000000000000000000000000000000000000000600052601260045260246000fd5b600080fd5b6000601f19601f8301169050919050565b7f536166654d6174683a206d756c7469706c69636174696f6e206f766572666c6f60008201527f7700000000000000000000000000000000000000000000000000000000000000602082015250565b620005bf816200047d565b8114620005cb57600080fd5b50565b612cbc80620005de6000396000f3fe608060405234801561001057600080fd5b50600436106100a95760003560e01c8063641c9cf111610071578063641c9cf11461018a57806385c210a8146101a8578063a20e8b3c146101c4578063a78a3725146101e2578063b0bc074c14610212578063ccc4afee14610242576100a9565b80630b902e95146100ae5780630e5449a6146100de578063106197661461010e5780633597ff3d1461013e5780635f6183ff1461015a575b600080fd5b6100c860048036038101906100c3919061273c565b61024c565b6040516100d59190612953565b60405180910390f35b6100f860048036038101906100f3919061273c565b6102da565b6040516101059190612953565b60405180910390f35b6101286004803603810190610123919061273c565b6103e2565b6040516101359190612953565b60405180910390f35b6101586004803603810190610153919061273c565b6104ea565b005b610174600480360381019061016f919061273c565b610739565b6040516101819190612953565b60405180910390f35b6101926107f1565b60405161019f9190612953565b60405180910390f35b6101c260048036038101906101bd919061273c565b6108a0565b005b6101cc610b9d565b6040516101d99190612953565b60405180910390f35b6101fc60048036038101906101f7919061273c565b610c67565b6040516102099190612953565b60405180910390f35b61022c6004803603810190610227919061273c565b61101c565b6040516102399190612953565b60405180910390f35b61024a6113d1565b005b6000806102ae6102966102866102816002546102736005548961160e90919063ffffffff16565b61168990919063ffffffff16565b6116d3565b6102916004546116d3565b611764565b670de0b6b3a76400006102a991906129b3565b611781565b90506102d26102ca6102c2836002546117b5565b6003546117b5565b600554611764565b915050919050565b60008061039761039284600660009054906101000a900473ffffffffffffffffffffffffffffffffffffffff1673ffffffffffffffffffffffffffffffffffffffff166318160ddd6040518163ffffffff1660e01b815260040160206040518083038186803b15801561034c57600080fd5b505afa158015610360573d6000803e3d6000fd5b505050506040513d601f19601f820116820180604052508101906103849190612769565b6117c990919063ffffffff16565b610739565b90506103da6001546103cc670de0b6b3a76400006103be878661160e90919063ffffffff16565b61168990919063ffffffff16565b61168990919063ffffffff16565b915050919050565b60008061049f61049a84600660009054906101000a900473ffffffffffffffffffffffffffffffffffffffff1673ffffffffffffffffffffffffffffffffffffffff166318160ddd6040518163ffffffff1660e01b815260040160206040518083038186803b15801561045457600080fd5b505afa158015610468573d6000803e3d6000fd5b505050506040513d601f19601f8201168201806040525081019061048c9190612769565b61182790919063ffffffff16565b610739565b90506104e26001546104d4670de0b6b3a76400006104c6878661160e90919063ffffffff16565b61168990919063ffffffff16565b61168990919063ffffffff16565b915050919050565b60006105a66105a183600660009054906101000a900473ffffffffffffffffffffffffffffffffffffffff1673ffffffffffffffffffffffffffffffffffffffff166318160ddd6040518163ffffffff1660e01b815260040160206040518083038186803b15801561055b57600080fd5b505afa15801561056f573d6000803e3d6000fd5b505050506040513d601f19601f820116820180604052508101906105939190612769565b6117c990919063ffffffff16565b610739565b905060008054906101000a900473ffffffffffffffffffffffffffffffffffffffff1673ffffffffffffffffffffffffffffffffffffffff166323b872dd6105ec611871565b3061062e600154610620670de0b6b3a76400006106128a8a61160e90919063ffffffff16565b61168990919063ffffffff16565b61168990919063ffffffff16565b6040518463ffffffff1660e01b815260040161064c93929190612871565b602060405180830381600087803b15801561066657600080fd5b505af115801561067a573d6000803e3d6000fd5b505050506040513d601f19601f8201168201806040525081019061069e919061270f565b50600660009054906101000a900473ffffffffffffffffffffffffffffffffffffffff1673ffffffffffffffffffffffffffffffffffffffff166340c10f196106e5611871565b846040518363ffffffff1660e01b81526004016107039291906128a8565b600060405180830381600087803b15801561071d57600080fd5b505af1158015610731573d6000803e3d6000fd5b505050505050565b6000806107656002546107576005548661160e90919063ffffffff16565b61168990919063ffffffff16565b905060006107a061079b8361078d678ac7230489e800006004546117c990919063ffffffff16565b61182790919063ffffffff16565b6116d3565b6107b1678ac7230489e800006116d3565b6107bb91906129b3565b905060006107db6003546107d6678ac7230489e800006116d3565b6117b5565b90506107e78183611764565b9350505050919050565b600061089b600660009054906101000a900473ffffffffffffffffffffffffffffffffffffffff1673ffffffffffffffffffffffffffffffffffffffff166318160ddd6040518163ffffffff1660e01b815260040160206040518083038186803b15801561085e57600080fd5b505afa158015610872573d6000803e3d6000fd5b505050506040513d601f19601f820116820180604052508101906108969190612769565b610739565b905090565b600061095c61095783600660009054906101000a900473ffffffffffffffffffffffffffffffffffffffff1673ffffffffffffffffffffffffffffffffffffffff166318160ddd6040518163ffffffff1660e01b815260040160206040518083038186803b15801561091157600080fd5b505afa158015610925573d6000803e3d6000fd5b505050506040513d601f19601f820116820180604052508101906109499190612769565b61182790919063ffffffff16565b610739565b905060008054906101000a900473ffffffffffffffffffffffffffffffffffffffff1673ffffffffffffffffffffffffffffffffffffffff1663a9059cbb6109a2611871565b6109e36001546109d5670de0b6b3a76400006109c7898961160e90919063ffffffff16565b61168990919063ffffffff16565b61168990919063ffffffff16565b6040518363ffffffff1660e01b8152600401610a009291906128a8565b602060405180830381600087803b158015610a1a57600080fd5b505af1158015610a2e573d6000803e3d6000fd5b505050506040513d601f19601f82011682018060405250810190610a52919061270f565b50600660009054906101000a900473ffffffffffffffffffffffffffffffffffffffff1673ffffffffffffffffffffffffffffffffffffffff166323b872dd610a99611871565b30856040518463ffffffff1660e01b8152600401610ab993929190612871565b602060405180830381600087803b158015610ad357600080fd5b505af1158015610ae7573d6000803e3d6000fd5b505050506040513d601f19601f82011682018060405250810190610b0b919061270f565b50600660009054906101000a900473ffffffffffffffffffffffffffffffffffffffff1673ffffffffffffffffffffffffffffffffffffffff166342966c68836040518263ffffffff1660e01b8152600401610b679190612953565b600060405180830381600087803b158015610b8157600080fd5b505af1158015610b95573d6000803e3d6000fd5b505050505050565b6000610c62610bac600061024c565b610c54600660009054906101000a900473ffffffffffffffffffffffffffffffffffffffff1673ffffffffffffffffffffffffffffffffffffffff166318160ddd6040518163ffffffff1660e01b815260040160206040518083038186803b158015610c1757600080fd5b505afa158015610c2b573d6000803e3d6000fd5b505050506040513d601f19601f82011682018060405250810190610c4f9190612769565b61024c565b61182790919063ffffffff16565b905090565b6000610c7e6001548361160e90919063ffffffff16565b91506000610d56610d2d600660009054906101000a900473ffffffffffffffffffffffffffffffffffffffff1673ffffffffffffffffffffffffffffffffffffffff166318160ddd6040518163ffffffff1660e01b815260040160206040518083038186803b158015610cf057600080fd5b505afa158015610d04573d6000803e3d6000fd5b505050506040513d601f19601f82011682018060405250810190610d289190612769565b610739565b610d48670de0b6b3a76400008661160e90919063ffffffff16565b61168990919063ffffffff16565b90506000610e40610e17610e1284600660009054906101000a900473ffffffffffffffffffffffffffffffffffffffff1673ffffffffffffffffffffffffffffffffffffffff166318160ddd6040518163ffffffff1660e01b815260040160206040518083038186803b158015610dcc57600080fd5b505afa158015610de0573d6000803e3d6000fd5b505050506040513d601f19601f82011682018060405250810190610e049190612769565b61182790919063ffffffff16565b610739565b610e32670de0b6b3a76400008761160e90919063ffffffff16565b61168990919063ffffffff16565b9050610f28610eff610efa83600660009054906101000a900473ffffffffffffffffffffffffffffffffffffffff1673ffffffffffffffffffffffffffffffffffffffff166318160ddd6040518163ffffffff1660e01b815260040160206040518083038186803b158015610eb457600080fd5b505afa158015610ec8573d6000803e3d6000fd5b505050506040513d601f19601f82011682018060405250810190610eec9190612769565b61182790919063ffffffff16565b610739565b610f1a670de0b6b3a76400008761160e90919063ffffffff16565b61168990919063ffffffff16565b9150611010610fe7610fe284600660009054906101000a900473ffffffffffffffffffffffffffffffffffffffff1673ffffffffffffffffffffffffffffffffffffffff166318160ddd6040518163ffffffff1660e01b815260040160206040518083038186803b158015610f9c57600080fd5b505afa158015610fb0573d6000803e3d6000fd5b505050506040513d601f19601f82011682018060405250810190610fd49190612769565b61182790919063ffffffff16565b610739565b611002670de0b6b3a76400008761160e90919063ffffffff16565b61168990919063ffffffff16565b90508092505050919050565b60006110336001548361160e90919063ffffffff16565b9150600061110b6110e2600660009054906101000a900473ffffffffffffffffffffffffffffffffffffffff1673ffffffffffffffffffffffffffffffffffffffff166318160ddd6040518163ffffffff1660e01b815260040160206040518083038186803b1580156110a557600080fd5b505afa1580156110b9573d6000803e3d6000fd5b505050506040513d601f19601f820116820180604052508101906110dd9190612769565b610739565b6110fd670de0b6b3a76400008661160e90919063ffffffff16565b61168990919063ffffffff16565b905060006111f56111cc6111c784600660009054906101000a900473ffffffffffffffffffffffffffffffffffffffff1673ffffffffffffffffffffffffffffffffffffffff166318160ddd6040518163ffffffff1660e01b815260040160206040518083038186803b15801561118157600080fd5b505afa158015611195573d6000803e3d6000fd5b505050506040513d601f19601f820116820180604052508101906111b99190612769565b6117c990919063ffffffff16565b610739565b6111e7670de0b6b3a76400008761160e90919063ffffffff16565b61168990919063ffffffff16565b90506112dd6112b46112af83600660009054906101000a900473ffffffffffffffffffffffffffffffffffffffff1673ffffffffffffffffffffffffffffffffffffffff166318160ddd6040518163ffffffff1660e01b815260040160206040518083038186803b15801561126957600080fd5b505afa15801561127d573d6000803e3d6000fd5b505050506040513d601f19601f820116820180604052508101906112a19190612769565b6117c990919063ffffffff16565b610739565b6112cf670de0b6b3a76400008761160e90919063ffffffff16565b61168990919063ffffffff16565b91506113c561139c61139784600660009054906101000a900473ffffffffffffffffffffffffffffffffffffffff1673ffffffffffffffffffffffffffffffffffffffff166318160ddd6040518163ffffffff1660e01b815260040160206040518083038186803b15801561135157600080fd5b505afa158015611365573d6000803e3d6000fd5b505050506040513d601f19601f820116820180604052508101906113899190612769565b6117c990919063ffffffff16565b610739565b6113b7670de0b6b3a76400008761160e90919063ffffffff16565b61168990919063ffffffff16565b90508092505050919050565b600760009054906101000a900473ffffffffffffffffffffffffffffffffffffffff1673ffffffffffffffffffffffffffffffffffffffff16611412611871565b73ffffffffffffffffffffffffffffffffffffffff1614611468576040517f08c379a000000000000000000000000000000000000000000000000000000000815260040161145f90612933565b60405180910390fd5b6000611540611475610b9d565b61153260015460008054906101000a900473ffffffffffffffffffffffffffffffffffffffff1673ffffffffffffffffffffffffffffffffffffffff166370a08231306040518263ffffffff1660e01b81526004016114d49190612856565b60206040518083038186803b1580156114ec57600080fd5b505afa158015611500573d6000803e3d6000fd5b505050506040513d601f19601f820116820180604052508101906115249190612769565b61160e90919063ffffffff16565b61182790919063ffffffff16565b905060008054906101000a900473ffffffffffffffffffffffffffffffffffffffff1673ffffffffffffffffffffffffffffffffffffffff1663a9059cbb611586611871565b61159b6001548561168990919063ffffffff16565b6040518363ffffffff1660e01b81526004016115b89291906128a8565b602060405180830381600087803b1580156115d257600080fd5b505af11580156115e6573d6000803e3d6000fd5b505050506040513d601f19601f8201168201806040525081019061160a919061270f565b5050565b6000808314156116215760009050611683565b6000828461162f9190612a3a565b905082848261163e9190612a09565b1461167e576040517f08c379a000000000000000000000000000000000000000000000000000000000815260040161167590612913565b60405180910390fd5b809150505b92915050565b60006116cb83836040518060400160405280601a81526020017f536166654d6174683a206469766973696f6e206279207a65726f000000000000815250611879565b905092915050565b6000680736ea4425c11ac631821061172257816040517f315da0680000000000000000000000000000000000000000000000000000000081526004016117199190612953565b60405180910390fd5b60006714057b7ef767814f8302905061175c670de0b6b3a76400006706f05b59d3b2000083018161175657611755612b72565b5b046118dc565b915050919050565b600061177983670de0b6b3a76400008461195d565b905092915050565b60006714057b7ef767814f670de0b6b3a764000061179e84611a73565b02816117ad576117ac612b72565b5b049050919050565b60006117c18383611b7b565b905092915050565b60008082846117d891906129b3565b90508381101561181d576040517f08c379a0000000000000000000000000000000000000000000000000000000008152600401611814906128f3565b60405180910390fd5b8091505092915050565b600061186983836040518060400160405280601e81526020017f536166654d6174683a207375627472616374696f6e206f766572666c6f770000815250611c79565b905092915050565b600033905090565b600080831182906118c0576040517f08c379a00000000000000000000000000000000000000000000000000000000081526004016118b791906128d1565b60405180910390fd5b50600083856118cf9190612a09565b9050809150509392505050565b6000680a688906bd8b000000821061192b57816040517f4a4f26f10000000000000000000000000000000000000000000000000000000081526004016119229190612953565b60405180910390fd5b6000670de0b6b3a7640000604084901b8161194957611948612b72565b5b04905061195581611cdd565b915050919050565b6000806000801985870985870292508281108382030391505060008114156119995783828161198f5761198e612b72565b5b0492505050611a6c565b8381106119df5780846040517f773cc18c0000000000000000000000000000000000000000000000000000000081526004016119d692919061296e565b60405180910390fd5b60008486880990508281118203915080830392506000600186190186169050808604955080840493506001818260000304019050808302841793506000600287600302189050808702600203810290508087026002038102905080870260020381029050808702600203810290508087026002038102905080870260020381029050808502955050505050505b9392505050565b6000670de0b6b3a7640000821015611ac257816040517fd88504dc000000000000000000000000000000000000000000000000000000008152600401611ab99190612953565b60405180910390fd5b6000611ae5670de0b6b3a76400008481611adf57611ade612b72565b5b046125b9565b9050670de0b6b3a76400008102915060008184901c9050670de0b6b3a7640000811415611b13575050611b76565b60006706f05b59d3b2000090505b6000811115611b7257670de0b6b3a764000082830281611b4457611b43612b72565b5b049150670de0b6b3a76400006002028210611b66578084019350600182901c91505b600181901c9050611b21565b5050505b919050565b60008060008019848609848602925082811083820303915050670de0b6b3a76400008110611be057806040517fd31b3402000000000000000000000000000000000000000000000000000000008152600401611bd79190612953565b60405180910390fd5b600080670de0b6b3a764000086880991506706f05b59d3b1ffff821190506000831415611c2d5780670de0b6b3a76400008581611c2057611c1f612b72565b5b0401945050505050611c73565b807faccb18165bd6fe31ae1cf318dc5b51eee0e1ba569b88cd74c1773b91fac1066960016204000080600003040186851186030262040000858803041702019450505050505b92915050565b6000838311158290611cc1576040517f08c379a0000000000000000000000000000000000000000000000000000000008152600401611cb891906128d1565b60405180910390fd5b5060008385611cd09190612a94565b9050809150509392505050565b6000778000000000000000000000000000000000000000000000009050600067800000000000000083161115611d2057604068016a09e667f3bcc9098202901c90505b600067400000000000000083161115611d465760406801306fe0a31b7152df8202901c90505b600067200000000000000083161115611d6c5760406801172b83c7d517adce8202901c90505b600067100000000000000083161115611d9257604068010b5586cf9890f62a8202901c90505b600067080000000000000083161115611db85760406801059b0d31585743ae8202901c90505b600067040000000000000083161115611dde576040680102c9a3e778060ee78202901c90505b600067020000000000000083161115611e0457604068010163da9fb33356d88202901c90505b600067010000000000000083161115611e2a576040680100b1afa5abcbed618202901c90505b6000668000000000000083161115611e4f57604068010058c86da1c09ea28202901c90505b6000664000000000000083161115611e745760406801002c605e2e8cec508202901c90505b6000662000000000000083161115611e99576040680100162f3904051fa18202901c90505b6000661000000000000083161115611ebe5760406801000b175effdc76ba8202901c90505b6000660800000000000083161115611ee3576040680100058ba01fb9f96d8202901c90505b6000660400000000000083161115611f0857604068010002c5cc37da94928202901c90505b6000660200000000000083161115611f2d5760406801000162e525ee05478202901c90505b6000660100000000000083161115611f5257604068010000b17255775c048202901c90505b60006580000000000083161115611f765760406801000058b91b5bc9ae8202901c90505b60006540000000000083161115611f9a576040680100002c5c89d5ec6d8202901c90505b60006520000000000083161115611fbe57604068010000162e43f4f8318202901c90505b60006510000000000083161115611fe2576040680100000b1721bcfc9a8202901c90505b6000650800000000008316111561200657604068010000058b90cf1e6e8202901c90505b6000650400000000008316111561202a5760406801000002c5c863b73f8202901c90505b6000650200000000008316111561204e576040680100000162e430e5a28202901c90505b600065010000000000831611156120725760406801000000b1721835518202901c90505b600064800000000083161115612095576040680100000058b90c0b498202901c90505b6000644000000000831611156120b857604068010000002c5c8601cc8202901c90505b6000642000000000831611156120db5760406801000000162e42fff08202901c90505b6000641000000000831611156120fe57604068010000000b17217fbb8202901c90505b6000640800000000831611156121215760406801000000058b90bfce8202901c90505b600064040000000083161115612144576040680100000002c5c85fe38202901c90505b60006402000000008316111561216757604068010000000162e42ff18202901c90505b60006401000000008316111561218a576040680100000000b17217f88202901c90505b60006380000000831611156121ac57604068010000000058b90bfc8202901c90505b60006340000000831611156121ce5760406801000000002c5c85fe8202901c90505b60006320000000831611156121f0576040680100000000162e42ff8202901c90505b60006310000000831611156122125760406801000000000b17217f8202901c90505b6000630800000083161115612234576040680100000000058b90c08202901c90505b600063040000008316111561225657604068010000000002c5c8608202901c90505b60006302000000831611156122785760406801000000000162e4308202901c90505b600063010000008316111561229a57604068010000000000b172188202901c90505b600062800000831611156122bb5760406801000000000058b90c8202901c90505b600062400000831611156122dc576040680100000000002c5c868202901c90505b600062200000831611156122fd57604068010000000000162e438202901c90505b6000621000008316111561231e576040680100000000000b17218202901c90505b6000620800008316111561233f57604068010000000000058b918202901c90505b600062040000831611156123605760406801000000000002c5c88202901c90505b60006202000083161115612381576040680100000000000162e48202901c90505b600062010000831611156123a25760406801000000000000b1728202901c90505b6000618000831611156123c2576040680100000000000058b98202901c90505b6000614000831611156123e257604068010000000000002c5d8202901c90505b6000612000831611156124025760406801000000000000162e8202901c90505b60006110008316111561242257604068010000000000000b178202901c90505b6000610800831611156124425760406801000000000000058c8202901c90505b600061040083161115612462576040680100000000000002c68202901c90505b600061020083161115612482576040680100000000000001638202901c90505b6000610100831611156124a2576040680100000000000000b18202901c90505b60006080831611156124c1576040680100000000000000598202901c90505b60006040831611156124e05760406801000000000000002c8202901c90505b60006020831611156124ff576040680100000000000000168202901c90505b600060108316111561251e5760406801000000000000000b8202901c90505b600060088316111561253d576040680100000000000000068202901c90505b600060048316111561255c576040680100000000000000038202901c90505b600060028316111561257b576040680100000000000000018202901c90505b600060018316111561259a576040680100000000000000018202901c90505b670de0b6b3a764000081029050604082901c60bf0381901c9050919050565b600070010000000000000000000000000000000082106125ea57608082901c91506080816125e791906129b3565b90505b68010000000000000000821061261157604082901c915060408161260e91906129b3565b90505b640100000000821061263457602082901c915060208161263191906129b3565b90505b62010000821061265557601082901c915060108161265291906129b3565b90505b610100821061267557600882901c915060088161267291906129b3565b90505b6010821061269457600482901c915060048161269191906129b3565b90505b600482106126b357600282901c91506002816126b091906129b3565b90505b600282106126cb576001816126c891906129b3565b90505b919050565b6000815190506126df81612c58565b92915050565b6000813590506126f481612c6f565b92915050565b60008151905061270981612c6f565b92915050565b60006020828403121561272557612724612ba1565b5b6000612733848285016126d0565b91505092915050565b60006020828403121561275257612751612ba1565b5b6000612760848285016126e5565b91505092915050565b60006020828403121561277f5761277e612ba1565b5b600061278d848285016126fa565b91505092915050565b61279f81612ac8565b82525050565b60006127b082612997565b6127ba81856129a2565b93506127ca818560208601612b10565b6127d381612ba6565b840191505092915050565b60006127eb601b836129a2565b91506127f682612bb7565b602082019050919050565b600061280e6021836129a2565b915061281982612be0565b604082019050919050565b60006128316011836129a2565b915061283c82612c2f565b602082019050919050565b61285081612b06565b82525050565b600060208201905061286b6000830184612796565b92915050565b60006060820190506128866000830186612796565b6128936020830185612796565b6128a06040830184612847565b949350505050565b60006040820190506128bd6000830185612796565b6128ca6020830184612847565b9392505050565b600060208201905081810360008301526128eb81846127a5565b905092915050565b6000602082019050818103600083015261290c816127de565b9050919050565b6000602082019050818103600083015261292c81612801565b9050919050565b6000602082019050818103600083015261294c81612824565b9050919050565b60006020820190506129686000830184612847565b92915050565b60006040820190506129836000830185612847565b6129906020830184612847565b9392505050565b600081519050919050565b600082825260208201905092915050565b60006129be82612b06565b91506129c983612b06565b9250827fffffffffffffffffffffffffffffffffffffffffffffffffffffffffffffffff038211156129fe576129fd612b43565b5b828201905092915050565b6000612a1482612b06565b9150612a1f83612b06565b925082612a2f57612a2e612b72565b5b828204905092915050565b6000612a4582612b06565b9150612a5083612b06565b9250817fffffffffffffffffffffffffffffffffffffffffffffffffffffffffffffffff0483118215151615612a8957612a88612b43565b5b828202905092915050565b6000612a9f82612b06565b9150612aaa83612b06565b925082821015612abd57612abc612b43565b5b828203905092915050565b6000612ad382612ae6565b9050919050565b60008115159050919050565b600073ffffffffffffffffffffffffffffffffffffffff82169050919050565b6000819050919050565b60005b83811015612b2e578082015181840152602081019050612b13565b83811115612b3d576000848401525b50505050565b7f4e487b7100000000000000000000000000000000000000000000000000000000600052601160045260246000fd5b7f4e487b7100000000000000000000000000000000000000000000000000000000600052601260045260246000fd5b600080fd5b6000601f19601f8301169050919050565b7f536166654d6174683a206164646974696f6e206f766572666c6f770000000000600082015250565b7f536166654d6174683a206d756c7469706c69636174696f6e206f766572666c6f60008201527f7700000000000000000000000000000000000000000000000000000000000000602082015250565b7f4f6e6c792052656379636c6520506f6f6c000000000000000000000000000000600082015250565b612c6181612ada565b8114612c6c57600080fd5b50565b612c7881612b06565b8114612c8357600080fd5b5056fea264697066735822122009196213cd798e555647bc613b69808bc45fd101682ad1503a62cea4660a141664736f6c63430008070033",
			"opcodes": "PUSH1 0x80 PUSH1 0x40 MSTORE PUSH1 0x1 DUP1 SSTORE PUSH10 0x2A5A058FC295ED000000 PUSH1 0x2 SSTORE PUSH8 0x429D069189E00000 PUSH1 0x3 SSTORE PUSH3 0x5C PUSH1 0xA PUSH3 0x48 PUSH1 0x3C PUSH8 0xDE0B6B3A7640000 PUSH3 0x169 PUSH1 0x20 SHL PUSH3 0x160E OR PUSH1 0x20 SHR JUMP JUMPDEST PUSH3 0x1ED PUSH1 0x20 SHL PUSH3 0x1689 OR SWAP1 SWAP2 SWAP1 PUSH1 0x20 SHR JUMP JUMPDEST PUSH1 0x4 SSTORE PUSH8 0xA688906BD8B00000 PUSH1 0x5 SSTORE CALLVALUE DUP1 ISZERO PUSH3 0x78 JUMPI PUSH1 0x0 DUP1 REVERT JUMPDEST POP PUSH1 0x40 MLOAD PUSH3 0x329A CODESIZE SUB DUP1 PUSH3 0x329A DUP4 CODECOPY DUP2 DUP2 ADD PUSH1 0x40 MSTORE DUP2 ADD SWAP1 PUSH3 0x9E SWAP2 SWAP1 PUSH3 0x2BE JUMP JUMPDEST DUP3 PUSH1 0x0 DUP1 PUSH2 0x100 EXP DUP2 SLOAD DUP2 PUSH20 0xFFFFFFFFFFFFFFFFFFFFFFFFFFFFFFFFFFFFFFFF MUL NOT AND SWAP1 DUP4 PUSH20 0xFFFFFFFFFFFFFFFFFFFFFFFFFFFFFFFFFFFFFFFF AND MUL OR SWAP1 SSTORE POP DUP2 PUSH1 0x6 PUSH1 0x0 PUSH2 0x100 EXP DUP2 SLOAD DUP2 PUSH20 0xFFFFFFFFFFFFFFFFFFFFFFFFFFFFFFFFFFFFFFFF MUL NOT AND SWAP1 DUP4 PUSH20 0xFFFFFFFFFFFFFFFFFFFFFFFFFFFFFFFFFFFFFFFF AND MUL OR SWAP1 SSTORE POP DUP1 PUSH1 0x7 PUSH1 0x0 PUSH2 0x100 EXP DUP2 SLOAD DUP2 PUSH20 0xFFFFFFFFFFFFFFFFFFFFFFFFFFFFFFFFFFFFFFFF MUL NOT AND SWAP1 DUP4 PUSH20 0xFFFFFFFFFFFFFFFFFFFFFFFFFFFFFFFFFFFFFFFF AND MUL OR SWAP1 SSTORE POP POP POP POP PUSH3 0x5CE JUMP JUMPDEST PUSH1 0x0 DUP1 DUP4 EQ ISZERO PUSH3 0x17E JUMPI PUSH1 0x0 SWAP1 POP PUSH3 0x1E7 JUMP JUMPDEST PUSH1 0x0 DUP3 DUP5 PUSH3 0x18E SWAP2 SWAP1 PUSH3 0x41C JUMP JUMPDEST SWAP1 POP DUP3 DUP5 DUP3 PUSH3 0x19F SWAP2 SWAP1 PUSH3 0x3E4 JUMP JUMPDEST EQ PUSH3 0x1E2 JUMPI PUSH1 0x40 MLOAD PUSH32 0x8C379A000000000000000000000000000000000000000000000000000000000 DUP2 MSTORE PUSH1 0x4 ADD PUSH3 0x1D9 SWAP1 PUSH3 0x3A6 JUMP JUMPDEST PUSH1 0x40 MLOAD DUP1 SWAP2 SUB SWAP1 REVERT JUMPDEST DUP1 SWAP2 POP POP JUMPDEST SWAP3 SWAP2 POP POP JUMP JUMPDEST PUSH1 0x0 PUSH3 0x237 DUP4 DUP4 PUSH1 0x40 MLOAD DUP1 PUSH1 0x40 ADD PUSH1 0x40 MSTORE DUP1 PUSH1 0x1A DUP2 MSTORE PUSH1 0x20 ADD PUSH32 0x536166654D6174683A206469766973696F6E206279207A65726F000000000000 DUP2 MSTORE POP PUSH3 0x23F PUSH1 0x20 SHL PUSH1 0x20 SHR JUMP JUMPDEST SWAP1 POP SWAP3 SWAP2 POP POP JUMP JUMPDEST PUSH1 0x0 DUP1 DUP4 GT DUP3 SWAP1 PUSH3 0x289 JUMPI PUSH1 0x40 MLOAD PUSH32 0x8C379A000000000000000000000000000000000000000000000000000000000 DUP2 MSTORE PUSH1 0x4 ADD PUSH3 0x280 SWAP2 SWAP1 PUSH3 0x382 JUMP JUMPDEST PUSH1 0x40 MLOAD DUP1 SWAP2 SUB SWAP1 REVERT JUMPDEST POP PUSH1 0x0 DUP4 DUP6 PUSH3 0x29A SWAP2 SWAP1 PUSH3 0x3E4 JUMP JUMPDEST SWAP1 POP DUP1 SWAP2 POP POP SWAP4 SWAP3 POP POP POP JUMP JUMPDEST PUSH1 0x0 DUP2 MLOAD SWAP1 POP PUSH3 0x2B8 DUP2 PUSH3 0x5B4 JUMP JUMPDEST SWAP3 SWAP2 POP POP JUMP JUMPDEST PUSH1 0x0 DUP1 PUSH1 0x0 PUSH1 0x60 DUP5 DUP7 SUB SLT ISZERO PUSH3 0x2DA JUMPI PUSH3 0x2D9 PUSH3 0x54F JUMP JUMPDEST JUMPDEST PUSH1 0x0 PUSH3 0x2EA DUP7 DUP3 DUP8 ADD PUSH3 0x2A7 JUMP JUMPDEST SWAP4 POP POP PUSH1 0x20 PUSH3 0x2FD DUP7 DUP3 DUP8 ADD PUSH3 0x2A7 JUMP JUMPDEST SWAP3 POP POP PUSH1 0x40 PUSH3 0x310 DUP7 DUP3 DUP8 ADD PUSH3 0x2A7 JUMP JUMPDEST SWAP2 POP POP SWAP3 POP SWAP3 POP SWAP3 JUMP JUMPDEST PUSH1 0x0 PUSH3 0x327 DUP3 PUSH3 0x3C8 JUMP JUMPDEST PUSH3 0x333 DUP2 DUP6 PUSH3 0x3D3 JUMP JUMPDEST SWAP4 POP PUSH3 0x345 DUP2 DUP6 PUSH1 0x20 DUP7 ADD PUSH3 0x4BB JUMP JUMPDEST PUSH3 0x350 DUP2 PUSH3 0x554 JUMP JUMPDEST DUP5 ADD SWAP2 POP POP SWAP3 SWAP2 POP POP JUMP JUMPDEST PUSH1 0x0 PUSH3 0x36A PUSH1 0x21 DUP4 PUSH3 0x3D3 JUMP JUMPDEST SWAP2 POP PUSH3 0x377 DUP3 PUSH3 0x565 JUMP JUMPDEST PUSH1 0x40 DUP3 ADD SWAP1 POP SWAP2 SWAP1 POP JUMP JUMPDEST PUSH1 0x0 PUSH1 0x20 DUP3 ADD SWAP1 POP DUP2 DUP2 SUB PUSH1 0x0 DUP4 ADD MSTORE PUSH3 0x39E DUP2 DUP5 PUSH3 0x31A JUMP JUMPDEST SWAP1 POP SWAP3 SWAP2 POP POP JUMP JUMPDEST PUSH1 0x0 PUSH1 0x20 DUP3 ADD SWAP1 POP DUP2 DUP2 SUB PUSH1 0x0 DUP4 ADD MSTORE PUSH3 0x3C1 DUP2 PUSH3 0x35B JUMP JUMPDEST SWAP1 POP SWAP2 SWAP1 POP JUMP JUMPDEST PUSH1 0x0 DUP2 MLOAD SWAP1 POP SWAP2 SWAP1 POP JUMP JUMPDEST PUSH1 0x0 DUP3 DUP3 MSTORE PUSH1 0x20 DUP3 ADD SWAP1 POP SWAP3 SWAP2 POP POP JUMP JUMPDEST PUSH1 0x0 PUSH3 0x3F1 DUP3 PUSH3 0x4B1 JUMP JUMPDEST SWAP2 POP PUSH3 0x3FE DUP4 PUSH3 0x4B1 JUMP JUMPDEST SWAP3 POP DUP3 PUSH3 0x411 JUMPI PUSH3 0x410 PUSH3 0x520 JUMP JUMPDEST JUMPDEST DUP3 DUP3 DIV SWAP1 POP SWAP3 SWAP2 POP POP JUMP JUMPDEST PUSH1 0x0 PUSH3 0x429 DUP3 PUSH3 0x4B1 JUMP JUMPDEST SWAP2 POP PUSH3 0x436 DUP4 PUSH3 0x4B1 JUMP JUMPDEST SWAP3 POP DUP2 PUSH32 0xFFFFFFFFFFFFFFFFFFFFFFFFFFFFFFFFFFFFFFFFFFFFFFFFFFFFFFFFFFFFFFFF DIV DUP4 GT DUP3 ISZERO ISZERO AND ISZERO PUSH3 0x472 JUMPI PUSH3 0x471 PUSH3 0x4F1 JUMP JUMPDEST JUMPDEST DUP3 DUP3 MUL SWAP1 POP SWAP3 SWAP2 POP POP JUMP JUMPDEST PUSH1 0x0 PUSH3 0x48A DUP3 PUSH3 0x491 JUMP JUMPDEST SWAP1 POP SWAP2 SWAP1 POP JUMP JUMPDEST PUSH1 0x0 PUSH20 0xFFFFFFFFFFFFFFFFFFFFFFFFFFFFFFFFFFFFFFFF DUP3 AND SWAP1 POP SWAP2 SWAP1 POP JUMP JUMPDEST PUSH1 0x0 DUP2 SWAP1 POP SWAP2 SWAP1 POP JUMP JUMPDEST PUSH1 0x0 JUMPDEST DUP4 DUP2 LT ISZERO PUSH3 0x4DB JUMPI DUP1 DUP3 ADD MLOAD DUP2 DUP5 ADD MSTORE PUSH1 0x20 DUP2 ADD SWAP1 POP PUSH3 0x4BE JUMP JUMPDEST DUP4 DUP2 GT ISZERO PUSH3 0x4EB JUMPI PUSH1 0x0 DUP5 DUP5 ADD MSTORE JUMPDEST POP POP POP POP JUMP JUMPDEST PUSH32 0x4E487B7100000000000000000000000000000000000000000000000000000000 PUSH1 0x0 MSTORE PUSH1 0x11 PUSH1 0x4 MSTORE PUSH1 0x24 PUSH1 0x0 REVERT JUMPDEST PUSH32 0x4E487B7100000000000000000000000000000000000000000000000000000000 PUSH1 0x0 MSTORE PUSH1 0x12 PUSH1 0x4 MSTORE PUSH1 0x24 PUSH1 0x0 REVERT JUMPDEST PUSH1 0x0 DUP1 REVERT JUMPDEST PUSH1 0x0 PUSH1 0x1F NOT PUSH1 0x1F DUP4 ADD AND SWAP1 POP SWAP2 SWAP1 POP JUMP JUMPDEST PUSH32 0x536166654D6174683A206D756C7469706C69636174696F6E206F766572666C6F PUSH1 0x0 DUP3 ADD MSTORE PUSH32 0x7700000000000000000000000000000000000000000000000000000000000000 PUSH1 0x20 DUP3 ADD MSTORE POP JUMP JUMPDEST PUSH3 0x5BF DUP2 PUSH3 0x47D JUMP JUMPDEST DUP2 EQ PUSH3 0x5CB JUMPI PUSH1 0x0 DUP1 REVERT JUMPDEST POP JUMP JUMPDEST PUSH2 0x2CBC DUP1 PUSH3 0x5DE PUSH1 0x0 CODECOPY PUSH1 0x0 RETURN INVALID PUSH1 0x80 PUSH1 0x40 MSTORE CALLVALUE DUP1 ISZERO PUSH2 0x10 JUMPI PUSH1 0x0 DUP1 REVERT JUMPDEST POP PUSH1 0x4 CALLDATASIZE LT PUSH2 0xA9 JUMPI PUSH1 0x0 CALLDATALOAD PUSH1 0xE0 SHR DUP1 PUSH4 0x641C9CF1 GT PUSH2 0x71 JUMPI DUP1 PUSH4 0x641C9CF1 EQ PUSH2 0x18A JUMPI DUP1 PUSH4 0x85C210A8 EQ PUSH2 0x1A8 JUMPI DUP1 PUSH4 0xA20E8B3C EQ PUSH2 0x1C4 JUMPI DUP1 PUSH4 0xA78A3725 EQ PUSH2 0x1E2 JUMPI DUP1 PUSH4 0xB0BC074C EQ PUSH2 0x212 JUMPI DUP1 PUSH4 0xCCC4AFEE EQ PUSH2 0x242 JUMPI PUSH2 0xA9 JUMP JUMPDEST DUP1 PUSH4 0xB902E95 EQ PUSH2 0xAE JUMPI DUP1 PUSH4 0xE5449A6 EQ PUSH2 0xDE JUMPI DUP1 PUSH4 0x10619766 EQ PUSH2 0x10E JUMPI DUP1 PUSH4 0x3597FF3D EQ PUSH2 0x13E JUMPI DUP1 PUSH4 0x5F6183FF EQ PUSH2 0x15A JUMPI JUMPDEST PUSH1 0x0 DUP1 REVERT JUMPDEST PUSH2 0xC8 PUSH1 0x4 DUP1 CALLDATASIZE SUB DUP2 ADD SWAP1 PUSH2 0xC3 SWAP2 SWAP1 PUSH2 0x273C JUMP JUMPDEST PUSH2 0x24C JUMP JUMPDEST PUSH1 0x40 MLOAD PUSH2 0xD5 SWAP2 SWAP1 PUSH2 0x2953 JUMP JUMPDEST PUSH1 0x40 MLOAD DUP1 SWAP2 SUB SWAP1 RETURN JUMPDEST PUSH2 0xF8 PUSH1 0x4 DUP1 CALLDATASIZE SUB DUP2 ADD SWAP1 PUSH2 0xF3 SWAP2 SWAP1 PUSH2 0x273C JUMP JUMPDEST PUSH2 0x2DA JUMP JUMPDEST PUSH1 0x40 MLOAD PUSH2 0x105 SWAP2 SWAP1 PUSH2 0x2953 JUMP JUMPDEST PUSH1 0x40 MLOAD DUP1 SWAP2 SUB SWAP1 RETURN JUMPDEST PUSH2 0x128 PUSH1 0x4 DUP1 CALLDATASIZE SUB DUP2 ADD SWAP1 PUSH2 0x123 SWAP2 SWAP1 PUSH2 0x273C JUMP JUMPDEST PUSH2 0x3E2 JUMP JUMPDEST PUSH1 0x40 MLOAD PUSH2 0x135 SWAP2 SWAP1 PUSH2 0x2953 JUMP JUMPDEST PUSH1 0x40 MLOAD DUP1 SWAP2 SUB SWAP1 RETURN JUMPDEST PUSH2 0x158 PUSH1 0x4 DUP1 CALLDATASIZE SUB DUP2 ADD SWAP1 PUSH2 0x153 SWAP2 SWAP1 PUSH2 0x273C JUMP JUMPDEST PUSH2 0x4EA JUMP JUMPDEST STOP JUMPDEST PUSH2 0x174 PUSH1 0x4 DUP1 CALLDATASIZE SUB DUP2 ADD SWAP1 PUSH2 0x16F SWAP2 SWAP1 PUSH2 0x273C JUMP JUMPDEST PUSH2 0x739 JUMP JUMPDEST PUSH1 0x40 MLOAD PUSH2 0x181 SWAP2 SWAP1 PUSH2 0x2953 JUMP JUMPDEST PUSH1 0x40 MLOAD DUP1 SWAP2 SUB SWAP1 RETURN JUMPDEST PUSH2 0x192 PUSH2 0x7F1 JUMP JUMPDEST PUSH1 0x40 MLOAD PUSH2 0x19F SWAP2 SWAP1 PUSH2 0x2953 JUMP JUMPDEST PUSH1 0x40 MLOAD DUP1 SWAP2 SUB SWAP1 RETURN JUMPDEST PUSH2 0x1C2 PUSH1 0x4 DUP1 CALLDATASIZE SUB DUP2 ADD SWAP1 PUSH2 0x1BD SWAP2 SWAP1 PUSH2 0x273C JUMP JUMPDEST PUSH2 0x8A0 JUMP JUMPDEST STOP JUMPDEST PUSH2 0x1CC PUSH2 0xB9D JUMP JUMPDEST PUSH1 0x40 MLOAD PUSH2 0x1D9 SWAP2 SWAP1 PUSH2 0x2953 JUMP JUMPDEST PUSH1 0x40 MLOAD DUP1 SWAP2 SUB SWAP1 RETURN JUMPDEST PUSH2 0x1FC PUSH1 0x4 DUP1 CALLDATASIZE SUB DUP2 ADD SWAP1 PUSH2 0x1F7 SWAP2 SWAP1 PUSH2 0x273C JUMP JUMPDEST PUSH2 0xC67 JUMP JUMPDEST PUSH1 0x40 MLOAD PUSH2 0x209 SWAP2 SWAP1 PUSH2 0x2953 JUMP JUMPDEST PUSH1 0x40 MLOAD DUP1 SWAP2 SUB SWAP1 RETURN JUMPDEST PUSH2 0x22C PUSH1 0x4 DUP1 CALLDATASIZE SUB DUP2 ADD SWAP1 PUSH2 0x227 SWAP2 SWAP1 PUSH2 0x273C JUMP JUMPDEST PUSH2 0x101C JUMP JUMPDEST PUSH1 0x40 MLOAD PUSH2 0x239 SWAP2 SWAP1 PUSH2 0x2953 JUMP JUMPDEST PUSH1 0x40 MLOAD DUP1 SWAP2 SUB SWAP1 RETURN JUMPDEST PUSH2 0x24A PUSH2 0x13D1 JUMP JUMPDEST STOP JUMPDEST PUSH1 0x0 DUP1 PUSH2 0x2AE PUSH2 0x296 PUSH2 0x286 PUSH2 0x281 PUSH1 0x2 SLOAD PUSH2 0x273 PUSH1 0x5 SLOAD DUP10 PUSH2 0x160E SWAP1 SWAP2 SWAP1 PUSH4 0xFFFFFFFF AND JUMP JUMPDEST PUSH2 0x1689 SWAP1 SWAP2 SWAP1 PUSH4 0xFFFFFFFF AND JUMP JUMPDEST PUSH2 0x16D3 JUMP JUMPDEST PUSH2 0x291 PUSH1 0x4 SLOAD PUSH2 0x16D3 JUMP JUMPDEST PUSH2 0x1764 JUMP JUMPDEST PUSH8 0xDE0B6B3A7640000 PUSH2 0x2A9 SWAP2 SWAP1 PUSH2 0x29B3 JUMP JUMPDEST PUSH2 0x1781 JUMP JUMPDEST SWAP1 POP PUSH2 0x2D2 PUSH2 0x2CA PUSH2 0x2C2 DUP4 PUSH1 0x2 SLOAD PUSH2 0x17B5 JUMP JUMPDEST PUSH1 0x3 SLOAD PUSH2 0x17B5 JUMP JUMPDEST PUSH1 0x5 SLOAD PUSH2 0x1764 JUMP JUMPDEST SWAP2 POP POP SWAP2 SWAP1 POP JUMP JUMPDEST PUSH1 0x0 DUP1 PUSH2 0x397 PUSH2 0x392 DUP5 PUSH1 0x6 PUSH1 0x0 SWAP1 SLOAD SWAP1 PUSH2 0x100 EXP SWAP1 DIV PUSH20 0xFFFFFFFFFFFFFFFFFFFFFFFFFFFFFFFFFFFFFFFF AND PUSH20 0xFFFFFFFFFFFFFFFFFFFFFFFFFFFFFFFFFFFFFFFF AND PUSH4 0x18160DDD PUSH1 0x40 MLOAD DUP2 PUSH4 0xFFFFFFFF AND PUSH1 0xE0 SHL DUP2 MSTORE PUSH1 0x4 ADD PUSH1 0x20 PUSH1 0x40 MLOAD DUP1 DUP4 SUB DUP2 DUP7 DUP1 EXTCODESIZE ISZERO DUP1 ISZERO PUSH2 0x34C JUMPI PUSH1 0x0 DUP1 REVERT JUMPDEST POP GAS STATICCALL ISZERO DUP1 ISZERO PUSH2 0x360 JUMPI RETURNDATASIZE PUSH1 0x0 DUP1 RETURNDATACOPY RETURNDATASIZE PUSH1 0x0 REVERT JUMPDEST POP POP POP POP PUSH1 0x40 MLOAD RETURNDATASIZE PUSH1 0x1F NOT PUSH1 0x1F DUP3 ADD AND DUP3 ADD DUP1 PUSH1 0x40 MSTORE POP DUP2 ADD SWAP1 PUSH2 0x384 SWAP2 SWAP1 PUSH2 0x2769 JUMP JUMPDEST PUSH2 0x17C9 SWAP1 SWAP2 SWAP1 PUSH4 0xFFFFFFFF AND JUMP JUMPDEST PUSH2 0x739 JUMP JUMPDEST SWAP1 POP PUSH2 0x3DA PUSH1 0x1 SLOAD PUSH2 0x3CC PUSH8 0xDE0B6B3A7640000 PUSH2 0x3BE DUP8 DUP7 PUSH2 0x160E SWAP1 SWAP2 SWAP1 PUSH4 0xFFFFFFFF AND JUMP JUMPDEST PUSH2 0x1689 SWAP1 SWAP2 SWAP1 PUSH4 0xFFFFFFFF AND JUMP JUMPDEST PUSH2 0x1689 SWAP1 SWAP2 SWAP1 PUSH4 0xFFFFFFFF AND JUMP JUMPDEST SWAP2 POP POP SWAP2 SWAP1 POP JUMP JUMPDEST PUSH1 0x0 DUP1 PUSH2 0x49F PUSH2 0x49A DUP5 PUSH1 0x6 PUSH1 0x0 SWAP1 SLOAD SWAP1 PUSH2 0x100 EXP SWAP1 DIV PUSH20 0xFFFFFFFFFFFFFFFFFFFFFFFFFFFFFFFFFFFFFFFF AND PUSH20 0xFFFFFFFFFFFFFFFFFFFFFFFFFFFFFFFFFFFFFFFF AND PUSH4 0x18160DDD PUSH1 0x40 MLOAD DUP2 PUSH4 0xFFFFFFFF AND PUSH1 0xE0 SHL DUP2 MSTORE PUSH1 0x4 ADD PUSH1 0x20 PUSH1 0x40 MLOAD DUP1 DUP4 SUB DUP2 DUP7 DUP1 EXTCODESIZE ISZERO DUP1 ISZERO PUSH2 0x454 JUMPI PUSH1 0x0 DUP1 REVERT JUMPDEST POP GAS STATICCALL ISZERO DUP1 ISZERO PUSH2 0x468 JUMPI RETURNDATASIZE PUSH1 0x0 DUP1 RETURNDATACOPY RETURNDATASIZE PUSH1 0x0 REVERT JUMPDEST POP POP POP POP PUSH1 0x40 MLOAD RETURNDATASIZE PUSH1 0x1F NOT PUSH1 0x1F DUP3 ADD AND DUP3 ADD DUP1 PUSH1 0x40 MSTORE POP DUP2 ADD SWAP1 PUSH2 0x48C SWAP2 SWAP1 PUSH2 0x2769 JUMP JUMPDEST PUSH2 0x1827 SWAP1 SWAP2 SWAP1 PUSH4 0xFFFFFFFF AND JUMP JUMPDEST PUSH2 0x739 JUMP JUMPDEST SWAP1 POP PUSH2 0x4E2 PUSH1 0x1 SLOAD PUSH2 0x4D4 PUSH8 0xDE0B6B3A7640000 PUSH2 0x4C6 DUP8 DUP7 PUSH2 0x160E SWAP1 SWAP2 SWAP1 PUSH4 0xFFFFFFFF AND JUMP JUMPDEST PUSH2 0x1689 SWAP1 SWAP2 SWAP1 PUSH4 0xFFFFFFFF AND JUMP JUMPDEST PUSH2 0x1689 SWAP1 SWAP2 SWAP1 PUSH4 0xFFFFFFFF AND JUMP JUMPDEST SWAP2 POP POP SWAP2 SWAP1 POP JUMP JUMPDEST PUSH1 0x0 PUSH2 0x5A6 PUSH2 0x5A1 DUP4 PUSH1 0x6 PUSH1 0x0 SWAP1 SLOAD SWAP1 PUSH2 0x100 EXP SWAP1 DIV PUSH20 0xFFFFFFFFFFFFFFFFFFFFFFFFFFFFFFFFFFFFFFFF AND PUSH20 0xFFFFFFFFFFFFFFFFFFFFFFFFFFFFFFFFFFFFFFFF AND PUSH4 0x18160DDD PUSH1 0x40 MLOAD DUP2 PUSH4 0xFFFFFFFF AND PUSH1 0xE0 SHL DUP2 MSTORE PUSH1 0x4 ADD PUSH1 0x20 PUSH1 0x40 MLOAD DUP1 DUP4 SUB DUP2 DUP7 DUP1 EXTCODESIZE ISZERO DUP1 ISZERO PUSH2 0x55B JUMPI PUSH1 0x0 DUP1 REVERT JUMPDEST POP GAS STATICCALL ISZERO DUP1 ISZERO PUSH2 0x56F JUMPI RETURNDATASIZE PUSH1 0x0 DUP1 RETURNDATACOPY RETURNDATASIZE PUSH1 0x0 REVERT JUMPDEST POP POP POP POP PUSH1 0x40 MLOAD RETURNDATASIZE PUSH1 0x1F NOT PUSH1 0x1F DUP3 ADD AND DUP3 ADD DUP1 PUSH1 0x40 MSTORE POP DUP2 ADD SWAP1 PUSH2 0x593 SWAP2 SWAP1 PUSH2 0x2769 JUMP JUMPDEST PUSH2 0x17C9 SWAP1 SWAP2 SWAP1 PUSH4 0xFFFFFFFF AND JUMP JUMPDEST PUSH2 0x739 JUMP JUMPDEST SWAP1 POP PUSH1 0x0 DUP1 SLOAD SWAP1 PUSH2 0x100 EXP SWAP1 DIV PUSH20 0xFFFFFFFFFFFFFFFFFFFFFFFFFFFFFFFFFFFFFFFF AND PUSH20 0xFFFFFFFFFFFFFFFFFFFFFFFFFFFFFFFFFFFFFFFF AND PUSH4 0x23B872DD PUSH2 0x5EC PUSH2 0x1871 JUMP JUMPDEST ADDRESS PUSH2 0x62E PUSH1 0x1 SLOAD PUSH2 0x620 PUSH8 0xDE0B6B3A7640000 PUSH2 0x612 DUP11 DUP11 PUSH2 0x160E SWAP1 SWAP2 SWAP1 PUSH4 0xFFFFFFFF AND JUMP JUMPDEST PUSH2 0x1689 SWAP1 SWAP2 SWAP1 PUSH4 0xFFFFFFFF AND JUMP JUMPDEST PUSH2 0x1689 SWAP1 SWAP2 SWAP1 PUSH4 0xFFFFFFFF AND JUMP JUMPDEST PUSH1 0x40 MLOAD DUP5 PUSH4 0xFFFFFFFF AND PUSH1 0xE0 SHL DUP2 MSTORE PUSH1 0x4 ADD PUSH2 0x64C SWAP4 SWAP3 SWAP2 SWAP1 PUSH2 0x2871 JUMP JUMPDEST PUSH1 0x20 PUSH1 0x40 MLOAD DUP1 DUP4 SUB DUP2 PUSH1 0x0 DUP8 DUP1 EXTCODESIZE ISZERO DUP1 ISZERO PUSH2 0x666 JUMPI PUSH1 0x0 DUP1 REVERT JUMPDEST POP GAS CALL ISZERO DUP1 ISZERO PUSH2 0x67A JUMPI RETURNDATASIZE PUSH1 0x0 DUP1 RETURNDATACOPY RETURNDATASIZE PUSH1 0x0 REVERT JUMPDEST POP POP POP POP PUSH1 0x40 MLOAD RETURNDATASIZE PUSH1 0x1F NOT PUSH1 0x1F DUP3 ADD AND DUP3 ADD DUP1 PUSH1 0x40 MSTORE POP DUP2 ADD SWAP1 PUSH2 0x69E SWAP2 SWAP1 PUSH2 0x270F JUMP JUMPDEST POP PUSH1 0x6 PUSH1 0x0 SWAP1 SLOAD SWAP1 PUSH2 0x100 EXP SWAP1 DIV PUSH20 0xFFFFFFFFFFFFFFFFFFFFFFFFFFFFFFFFFFFFFFFF AND PUSH20 0xFFFFFFFFFFFFFFFFFFFFFFFFFFFFFFFFFFFFFFFF AND PUSH4 0x40C10F19 PUSH2 0x6E5 PUSH2 0x1871 JUMP JUMPDEST DUP5 PUSH1 0x40 MLOAD DUP4 PUSH4 0xFFFFFFFF AND PUSH1 0xE0 SHL DUP2 MSTORE PUSH1 0x4 ADD PUSH2 0x703 SWAP3 SWAP2 SWAP1 PUSH2 0x28A8 JUMP JUMPDEST PUSH1 0x0 PUSH1 0x40 MLOAD DUP1 DUP4 SUB DUP2 PUSH1 0x0 DUP8 DUP1 EXTCODESIZE ISZERO DUP1 ISZERO PUSH2 0x71D JUMPI PUSH1 0x0 DUP1 REVERT JUMPDEST POP GAS CALL ISZERO DUP1 ISZERO PUSH2 0x731 JUMPI RETURNDATASIZE PUSH1 0x0 DUP1 RETURNDATACOPY RETURNDATASIZE PUSH1 0x0 REVERT JUMPDEST POP POP POP POP POP POP JUMP JUMPDEST PUSH1 0x0 DUP1 PUSH2 0x765 PUSH1 0x2 SLOAD PUSH2 0x757 PUSH1 0x5 SLOAD DUP7 PUSH2 0x160E SWAP1 SWAP2 SWAP1 PUSH4 0xFFFFFFFF AND JUMP JUMPDEST PUSH2 0x1689 SWAP1 SWAP2 SWAP1 PUSH4 0xFFFFFFFF AND JUMP JUMPDEST SWAP1 POP PUSH1 0x0 PUSH2 0x7A0 PUSH2 0x79B DUP4 PUSH2 0x78D PUSH8 0x8AC7230489E80000 PUSH1 0x4 SLOAD PUSH2 0x17C9 SWAP1 SWAP2 SWAP1 PUSH4 0xFFFFFFFF AND JUMP JUMPDEST PUSH2 0x1827 SWAP1 SWAP2 SWAP1 PUSH4 0xFFFFFFFF AND JUMP JUMPDEST PUSH2 0x16D3 JUMP JUMPDEST PUSH2 0x7B1 PUSH8 0x8AC7230489E80000 PUSH2 0x16D3 JUMP JUMPDEST PUSH2 0x7BB SWAP2 SWAP1 PUSH2 0x29B3 JUMP JUMPDEST SWAP1 POP PUSH1 0x0 PUSH2 0x7DB PUSH1 0x3 SLOAD PUSH2 0x7D6 PUSH8 0x8AC7230489E80000 PUSH2 0x16D3 JUMP JUMPDEST PUSH2 0x17B5 JUMP JUMPDEST SWAP1 POP PUSH2 0x7E7 DUP2 DUP4 PUSH2 0x1764 JUMP JUMPDEST SWAP4 POP POP POP POP SWAP2 SWAP1 POP JUMP JUMPDEST PUSH1 0x0 PUSH2 0x89B PUSH1 0x6 PUSH1 0x0 SWAP1 SLOAD SWAP1 PUSH2 0x100 EXP SWAP1 DIV PUSH20 0xFFFFFFFFFFFFFFFFFFFFFFFFFFFFFFFFFFFFFFFF AND PUSH20 0xFFFFFFFFFFFFFFFFFFFFFFFFFFFFFFFFFFFFFFFF AND PUSH4 0x18160DDD PUSH1 0x40 MLOAD DUP2 PUSH4 0xFFFFFFFF AND PUSH1 0xE0 SHL DUP2 MSTORE PUSH1 0x4 ADD PUSH1 0x20 PUSH1 0x40 MLOAD DUP1 DUP4 SUB DUP2 DUP7 DUP1 EXTCODESIZE ISZERO DUP1 ISZERO PUSH2 0x85E JUMPI PUSH1 0x0 DUP1 REVERT JUMPDEST POP GAS STATICCALL ISZERO DUP1 ISZERO PUSH2 0x872 JUMPI RETURNDATASIZE PUSH1 0x0 DUP1 RETURNDATACOPY RETURNDATASIZE PUSH1 0x0 REVERT JUMPDEST POP POP POP POP PUSH1 0x40 MLOAD RETURNDATASIZE PUSH1 0x1F NOT PUSH1 0x1F DUP3 ADD AND DUP3 ADD DUP1 PUSH1 0x40 MSTORE POP DUP2 ADD SWAP1 PUSH2 0x896 SWAP2 SWAP1 PUSH2 0x2769 JUMP JUMPDEST PUSH2 0x739 JUMP JUMPDEST SWAP1 POP SWAP1 JUMP JUMPDEST PUSH1 0x0 PUSH2 0x95C PUSH2 0x957 DUP4 PUSH1 0x6 PUSH1 0x0 SWAP1 SLOAD SWAP1 PUSH2 0x100 EXP SWAP1 DIV PUSH20 0xFFFFFFFFFFFFFFFFFFFFFFFFFFFFFFFFFFFFFFFF AND PUSH20 0xFFFFFFFFFFFFFFFFFFFFFFFFFFFFFFFFFFFFFFFF AND PUSH4 0x18160DDD PUSH1 0x40 MLOAD DUP2 PUSH4 0xFFFFFFFF AND PUSH1 0xE0 SHL DUP2 MSTORE PUSH1 0x4 ADD PUSH1 0x20 PUSH1 0x40 MLOAD DUP1 DUP4 SUB DUP2 DUP7 DUP1 EXTCODESIZE ISZERO DUP1 ISZERO PUSH2 0x911 JUMPI PUSH1 0x0 DUP1 REVERT JUMPDEST POP GAS STATICCALL ISZERO DUP1 ISZERO PUSH2 0x925 JUMPI RETURNDATASIZE PUSH1 0x0 DUP1 RETURNDATACOPY RETURNDATASIZE PUSH1 0x0 REVERT JUMPDEST POP POP POP POP PUSH1 0x40 MLOAD RETURNDATASIZE PUSH1 0x1F NOT PUSH1 0x1F DUP3 ADD AND DUP3 ADD DUP1 PUSH1 0x40 MSTORE POP DUP2 ADD SWAP1 PUSH2 0x949 SWAP2 SWAP1 PUSH2 0x2769 JUMP JUMPDEST PUSH2 0x1827 SWAP1 SWAP2 SWAP1 PUSH4 0xFFFFFFFF AND JUMP JUMPDEST PUSH2 0x739 JUMP JUMPDEST SWAP1 POP PUSH1 0x0 DUP1 SLOAD SWAP1 PUSH2 0x100 EXP SWAP1 DIV PUSH20 0xFFFFFFFFFFFFFFFFFFFFFFFFFFFFFFFFFFFFFFFF AND PUSH20 0xFFFFFFFFFFFFFFFFFFFFFFFFFFFFFFFFFFFFFFFF AND PUSH4 0xA9059CBB PUSH2 0x9A2 PUSH2 0x1871 JUMP JUMPDEST PUSH2 0x9E3 PUSH1 0x1 SLOAD PUSH2 0x9D5 PUSH8 0xDE0B6B3A7640000 PUSH2 0x9C7 DUP10 DUP10 PUSH2 0x160E SWAP1 SWAP2 SWAP1 PUSH4 0xFFFFFFFF AND JUMP JUMPDEST PUSH2 0x1689 SWAP1 SWAP2 SWAP1 PUSH4 0xFFFFFFFF AND JUMP JUMPDEST PUSH2 0x1689 SWAP1 SWAP2 SWAP1 PUSH4 0xFFFFFFFF AND JUMP JUMPDEST PUSH1 0x40 MLOAD DUP4 PUSH4 0xFFFFFFFF AND PUSH1 0xE0 SHL DUP2 MSTORE PUSH1 0x4 ADD PUSH2 0xA00 SWAP3 SWAP2 SWAP1 PUSH2 0x28A8 JUMP JUMPDEST PUSH1 0x20 PUSH1 0x40 MLOAD DUP1 DUP4 SUB DUP2 PUSH1 0x0 DUP8 DUP1 EXTCODESIZE ISZERO DUP1 ISZERO PUSH2 0xA1A JUMPI PUSH1 0x0 DUP1 REVERT JUMPDEST POP GAS CALL ISZERO DUP1 ISZERO PUSH2 0xA2E JUMPI RETURNDATASIZE PUSH1 0x0 DUP1 RETURNDATACOPY RETURNDATASIZE PUSH1 0x0 REVERT JUMPDEST POP POP POP POP PUSH1 0x40 MLOAD RETURNDATASIZE PUSH1 0x1F NOT PUSH1 0x1F DUP3 ADD AND DUP3 ADD DUP1 PUSH1 0x40 MSTORE POP DUP2 ADD SWAP1 PUSH2 0xA52 SWAP2 SWAP1 PUSH2 0x270F JUMP JUMPDEST POP PUSH1 0x6 PUSH1 0x0 SWAP1 SLOAD SWAP1 PUSH2 0x100 EXP SWAP1 DIV PUSH20 0xFFFFFFFFFFFFFFFFFFFFFFFFFFFFFFFFFFFFFFFF AND PUSH20 0xFFFFFFFFFFFFFFFFFFFFFFFFFFFFFFFFFFFFFFFF AND PUSH4 0x23B872DD PUSH2 0xA99 PUSH2 0x1871 JUMP JUMPDEST ADDRESS DUP6 PUSH1 0x40 MLOAD DUP5 PUSH4 0xFFFFFFFF AND PUSH1 0xE0 SHL DUP2 MSTORE PUSH1 0x4 ADD PUSH2 0xAB9 SWAP4 SWAP3 SWAP2 SWAP1 PUSH2 0x2871 JUMP JUMPDEST PUSH1 0x20 PUSH1 0x40 MLOAD DUP1 DUP4 SUB DUP2 PUSH1 0x0 DUP8 DUP1 EXTCODESIZE ISZERO DUP1 ISZERO PUSH2 0xAD3 JUMPI PUSH1 0x0 DUP1 REVERT JUMPDEST POP GAS CALL ISZERO DUP1 ISZERO PUSH2 0xAE7 JUMPI RETURNDATASIZE PUSH1 0x0 DUP1 RETURNDATACOPY RETURNDATASIZE PUSH1 0x0 REVERT JUMPDEST POP POP POP POP PUSH1 0x40 MLOAD RETURNDATASIZE PUSH1 0x1F NOT PUSH1 0x1F DUP3 ADD AND DUP3 ADD DUP1 PUSH1 0x40 MSTORE POP DUP2 ADD SWAP1 PUSH2 0xB0B SWAP2 SWAP1 PUSH2 0x270F JUMP JUMPDEST POP PUSH1 0x6 PUSH1 0x0 SWAP1 SLOAD SWAP1 PUSH2 0x100 EXP SWAP1 DIV PUSH20 0xFFFFFFFFFFFFFFFFFFFFFFFFFFFFFFFFFFFFFFFF AND PUSH20 0xFFFFFFFFFFFFFFFFFFFFFFFFFFFFFFFFFFFFFFFF AND PUSH4 0x42966C68 DUP4 PUSH1 0x40 MLOAD DUP3 PUSH4 0xFFFFFFFF AND PUSH1 0xE0 SHL DUP2 MSTORE PUSH1 0x4 ADD PUSH2 0xB67 SWAP2 SWAP1 PUSH2 0x2953 JUMP JUMPDEST PUSH1 0x0 PUSH1 0x40 MLOAD DUP1 DUP4 SUB DUP2 PUSH1 0x0 DUP8 DUP1 EXTCODESIZE ISZERO DUP1 ISZERO PUSH2 0xB81 JUMPI PUSH1 0x0 DUP1 REVERT JUMPDEST POP GAS CALL ISZERO DUP1 ISZERO PUSH2 0xB95 JUMPI RETURNDATASIZE PUSH1 0x0 DUP1 RETURNDATACOPY RETURNDATASIZE PUSH1 0x0 REVERT JUMPDEST POP POP POP POP POP POP JUMP JUMPDEST PUSH1 0x0 PUSH2 0xC62 PUSH2 0xBAC PUSH1 0x0 PUSH2 0x24C JUMP JUMPDEST PUSH2 0xC54 PUSH1 0x6 PUSH1 0x0 SWAP1 SLOAD SWAP1 PUSH2 0x100 EXP SWAP1 DIV PUSH20 0xFFFFFFFFFFFFFFFFFFFFFFFFFFFFFFFFFFFFFFFF AND PUSH20 0xFFFFFFFFFFFFFFFFFFFFFFFFFFFFFFFFFFFFFFFF AND PUSH4 0x18160DDD PUSH1 0x40 MLOAD DUP2 PUSH4 0xFFFFFFFF AND PUSH1 0xE0 SHL DUP2 MSTORE PUSH1 0x4 ADD PUSH1 0x20 PUSH1 0x40 MLOAD DUP1 DUP4 SUB DUP2 DUP7 DUP1 EXTCODESIZE ISZERO DUP1 ISZERO PUSH2 0xC17 JUMPI PUSH1 0x0 DUP1 REVERT JUMPDEST POP GAS STATICCALL ISZERO DUP1 ISZERO PUSH2 0xC2B JUMPI RETURNDATASIZE PUSH1 0x0 DUP1 RETURNDATACOPY RETURNDATASIZE PUSH1 0x0 REVERT JUMPDEST POP POP POP POP PUSH1 0x40 MLOAD RETURNDATASIZE PUSH1 0x1F NOT PUSH1 0x1F DUP3 ADD AND DUP3 ADD DUP1 PUSH1 0x40 MSTORE POP DUP2 ADD SWAP1 PUSH2 0xC4F SWAP2 SWAP1 PUSH2 0x2769 JUMP JUMPDEST PUSH2 0x24C JUMP JUMPDEST PUSH2 0x1827 SWAP1 SWAP2 SWAP1 PUSH4 0xFFFFFFFF AND JUMP JUMPDEST SWAP1 POP SWAP1 JUMP JUMPDEST PUSH1 0x0 PUSH2 0xC7E PUSH1 0x1 SLOAD DUP4 PUSH2 0x160E SWAP1 SWAP2 SWAP1 PUSH4 0xFFFFFFFF AND JUMP JUMPDEST SWAP2 POP PUSH1 0x0 PUSH2 0xD56 PUSH2 0xD2D PUSH1 0x6 PUSH1 0x0 SWAP1 SLOAD SWAP1 PUSH2 0x100 EXP SWAP1 DIV PUSH20 0xFFFFFFFFFFFFFFFFFFFFFFFFFFFFFFFFFFFFFFFF AND PUSH20 0xFFFFFFFFFFFFFFFFFFFFFFFFFFFFFFFFFFFFFFFF AND PUSH4 0x18160DDD PUSH1 0x40 MLOAD DUP2 PUSH4 0xFFFFFFFF AND PUSH1 0xE0 SHL DUP2 MSTORE PUSH1 0x4 ADD PUSH1 0x20 PUSH1 0x40 MLOAD DUP1 DUP4 SUB DUP2 DUP7 DUP1 EXTCODESIZE ISZERO DUP1 ISZERO PUSH2 0xCF0 JUMPI PUSH1 0x0 DUP1 REVERT JUMPDEST POP GAS STATICCALL ISZERO DUP1 ISZERO PUSH2 0xD04 JUMPI RETURNDATASIZE PUSH1 0x0 DUP1 RETURNDATACOPY RETURNDATASIZE PUSH1 0x0 REVERT JUMPDEST POP POP POP POP PUSH1 0x40 MLOAD RETURNDATASIZE PUSH1 0x1F NOT PUSH1 0x1F DUP3 ADD AND DUP3 ADD DUP1 PUSH1 0x40 MSTORE POP DUP2 ADD SWAP1 PUSH2 0xD28 SWAP2 SWAP1 PUSH2 0x2769 JUMP JUMPDEST PUSH2 0x739 JUMP JUMPDEST PUSH2 0xD48 PUSH8 0xDE0B6B3A7640000 DUP7 PUSH2 0x160E SWAP1 SWAP2 SWAP1 PUSH4 0xFFFFFFFF AND JUMP JUMPDEST PUSH2 0x1689 SWAP1 SWAP2 SWAP1 PUSH4 0xFFFFFFFF AND JUMP JUMPDEST SWAP1 POP PUSH1 0x0 PUSH2 0xE40 PUSH2 0xE17 PUSH2 0xE12 DUP5 PUSH1 0x6 PUSH1 0x0 SWAP1 SLOAD SWAP1 PUSH2 0x100 EXP SWAP1 DIV PUSH20 0xFFFFFFFFFFFFFFFFFFFFFFFFFFFFFFFFFFFFFFFF AND PUSH20 0xFFFFFFFFFFFFFFFFFFFFFFFFFFFFFFFFFFFFFFFF AND PUSH4 0x18160DDD PUSH1 0x40 MLOAD DUP2 PUSH4 0xFFFFFFFF AND PUSH1 0xE0 SHL DUP2 MSTORE PUSH1 0x4 ADD PUSH1 0x20 PUSH1 0x40 MLOAD DUP1 DUP4 SUB DUP2 DUP7 DUP1 EXTCODESIZE ISZERO DUP1 ISZERO PUSH2 0xDCC JUMPI PUSH1 0x0 DUP1 REVERT JUMPDEST POP GAS STATICCALL ISZERO DUP1 ISZERO PUSH2 0xDE0 JUMPI RETURNDATASIZE PUSH1 0x0 DUP1 RETURNDATACOPY RETURNDATASIZE PUSH1 0x0 REVERT JUMPDEST POP POP POP POP PUSH1 0x40 MLOAD RETURNDATASIZE PUSH1 0x1F NOT PUSH1 0x1F DUP3 ADD AND DUP3 ADD DUP1 PUSH1 0x40 MSTORE POP DUP2 ADD SWAP1 PUSH2 0xE04 SWAP2 SWAP1 PUSH2 0x2769 JUMP JUMPDEST PUSH2 0x1827 SWAP1 SWAP2 SWAP1 PUSH4 0xFFFFFFFF AND JUMP JUMPDEST PUSH2 0x739 JUMP JUMPDEST PUSH2 0xE32 PUSH8 0xDE0B6B3A7640000 DUP8 PUSH2 0x160E SWAP1 SWAP2 SWAP1 PUSH4 0xFFFFFFFF AND JUMP JUMPDEST PUSH2 0x1689 SWAP1 SWAP2 SWAP1 PUSH4 0xFFFFFFFF AND JUMP JUMPDEST SWAP1 POP PUSH2 0xF28 PUSH2 0xEFF PUSH2 0xEFA DUP4 PUSH1 0x6 PUSH1 0x0 SWAP1 SLOAD SWAP1 PUSH2 0x100 EXP SWAP1 DIV PUSH20 0xFFFFFFFFFFFFFFFFFFFFFFFFFFFFFFFFFFFFFFFF AND PUSH20 0xFFFFFFFFFFFFFFFFFFFFFFFFFFFFFFFFFFFFFFFF AND PUSH4 0x18160DDD PUSH1 0x40 MLOAD DUP2 PUSH4 0xFFFFFFFF AND PUSH1 0xE0 SHL DUP2 MSTORE PUSH1 0x4 ADD PUSH1 0x20 PUSH1 0x40 MLOAD DUP1 DUP4 SUB DUP2 DUP7 DUP1 EXTCODESIZE ISZERO DUP1 ISZERO PUSH2 0xEB4 JUMPI PUSH1 0x0 DUP1 REVERT JUMPDEST POP GAS STATICCALL ISZERO DUP1 ISZERO PUSH2 0xEC8 JUMPI RETURNDATASIZE PUSH1 0x0 DUP1 RETURNDATACOPY RETURNDATASIZE PUSH1 0x0 REVERT JUMPDEST POP POP POP POP PUSH1 0x40 MLOAD RETURNDATASIZE PUSH1 0x1F NOT PUSH1 0x1F DUP3 ADD AND DUP3 ADD DUP1 PUSH1 0x40 MSTORE POP DUP2 ADD SWAP1 PUSH2 0xEEC SWAP2 SWAP1 PUSH2 0x2769 JUMP JUMPDEST PUSH2 0x1827 SWAP1 SWAP2 SWAP1 PUSH4 0xFFFFFFFF AND JUMP JUMPDEST PUSH2 0x739 JUMP JUMPDEST PUSH2 0xF1A PUSH8 0xDE0B6B3A7640000 DUP8 PUSH2 0x160E SWAP1 SWAP2 SWAP1 PUSH4 0xFFFFFFFF AND JUMP JUMPDEST PUSH2 0x1689 SWAP1 SWAP2 SWAP1 PUSH4 0xFFFFFFFF AND JUMP JUMPDEST SWAP2 POP PUSH2 0x1010 PUSH2 0xFE7 PUSH2 0xFE2 DUP5 PUSH1 0x6 PUSH1 0x0 SWAP1 SLOAD SWAP1 PUSH2 0x100 EXP SWAP1 DIV PUSH20 0xFFFFFFFFFFFFFFFFFFFFFFFFFFFFFFFFFFFFFFFF AND PUSH20 0xFFFFFFFFFFFFFFFFFFFFFFFFFFFFFFFFFFFFFFFF AND PUSH4 0x18160DDD PUSH1 0x40 MLOAD DUP2 PUSH4 0xFFFFFFFF AND PUSH1 0xE0 SHL DUP2 MSTORE PUSH1 0x4 ADD PUSH1 0x20 PUSH1 0x40 MLOAD DUP1 DUP4 SUB DUP2 DUP7 DUP1 EXTCODESIZE ISZERO DUP1 ISZERO PUSH2 0xF9C JUMPI PUSH1 0x0 DUP1 REVERT JUMPDEST POP GAS STATICCALL ISZERO DUP1 ISZERO PUSH2 0xFB0 JUMPI RETURNDATASIZE PUSH1 0x0 DUP1 RETURNDATACOPY RETURNDATASIZE PUSH1 0x0 REVERT JUMPDEST POP POP POP POP PUSH1 0x40 MLOAD RETURNDATASIZE PUSH1 0x1F NOT PUSH1 0x1F DUP3 ADD AND DUP3 ADD DUP1 PUSH1 0x40 MSTORE POP DUP2 ADD SWAP1 PUSH2 0xFD4 SWAP2 SWAP1 PUSH2 0x2769 JUMP JUMPDEST PUSH2 0x1827 SWAP1 SWAP2 SWAP1 PUSH4 0xFFFFFFFF AND JUMP JUMPDEST PUSH2 0x739 JUMP JUMPDEST PUSH2 0x1002 PUSH8 0xDE0B6B3A7640000 DUP8 PUSH2 0x160E SWAP1 SWAP2 SWAP1 PUSH4 0xFFFFFFFF AND JUMP JUMPDEST PUSH2 0x1689 SWAP1 SWAP2 SWAP1 PUSH4 0xFFFFFFFF AND JUMP JUMPDEST SWAP1 POP DUP1 SWAP3 POP POP POP SWAP2 SWAP1 POP JUMP JUMPDEST PUSH1 0x0 PUSH2 0x1033 PUSH1 0x1 SLOAD DUP4 PUSH2 0x160E SWAP1 SWAP2 SWAP1 PUSH4 0xFFFFFFFF AND JUMP JUMPDEST SWAP2 POP PUSH1 0x0 PUSH2 0x110B PUSH2 0x10E2 PUSH1 0x6 PUSH1 0x0 SWAP1 SLOAD SWAP1 PUSH2 0x100 EXP SWAP1 DIV PUSH20 0xFFFFFFFFFFFFFFFFFFFFFFFFFFFFFFFFFFFFFFFF AND PUSH20 0xFFFFFFFFFFFFFFFFFFFFFFFFFFFFFFFFFFFFFFFF AND PUSH4 0x18160DDD PUSH1 0x40 MLOAD DUP2 PUSH4 0xFFFFFFFF AND PUSH1 0xE0 SHL DUP2 MSTORE PUSH1 0x4 ADD PUSH1 0x20 PUSH1 0x40 MLOAD DUP1 DUP4 SUB DUP2 DUP7 DUP1 EXTCODESIZE ISZERO DUP1 ISZERO PUSH2 0x10A5 JUMPI PUSH1 0x0 DUP1 REVERT JUMPDEST POP GAS STATICCALL ISZERO DUP1 ISZERO PUSH2 0x10B9 JUMPI RETURNDATASIZE PUSH1 0x0 DUP1 RETURNDATACOPY RETURNDATASIZE PUSH1 0x0 REVERT JUMPDEST POP POP POP POP PUSH1 0x40 MLOAD RETURNDATASIZE PUSH1 0x1F NOT PUSH1 0x1F DUP3 ADD AND DUP3 ADD DUP1 PUSH1 0x40 MSTORE POP DUP2 ADD SWAP1 PUSH2 0x10DD SWAP2 SWAP1 PUSH2 0x2769 JUMP JUMPDEST PUSH2 0x739 JUMP JUMPDEST PUSH2 0x10FD PUSH8 0xDE0B6B3A7640000 DUP7 PUSH2 0x160E SWAP1 SWAP2 SWAP1 PUSH4 0xFFFFFFFF AND JUMP JUMPDEST PUSH2 0x1689 SWAP1 SWAP2 SWAP1 PUSH4 0xFFFFFFFF AND JUMP JUMPDEST SWAP1 POP PUSH1 0x0 PUSH2 0x11F5 PUSH2 0x11CC PUSH2 0x11C7 DUP5 PUSH1 0x6 PUSH1 0x0 SWAP1 SLOAD SWAP1 PUSH2 0x100 EXP SWAP1 DIV PUSH20 0xFFFFFFFFFFFFFFFFFFFFFFFFFFFFFFFFFFFFFFFF AND PUSH20 0xFFFFFFFFFFFFFFFFFFFFFFFFFFFFFFFFFFFFFFFF AND PUSH4 0x18160DDD PUSH1 0x40 MLOAD DUP2 PUSH4 0xFFFFFFFF AND PUSH1 0xE0 SHL DUP2 MSTORE PUSH1 0x4 ADD PUSH1 0x20 PUSH1 0x40 MLOAD DUP1 DUP4 SUB DUP2 DUP7 DUP1 EXTCODESIZE ISZERO DUP1 ISZERO PUSH2 0x1181 JUMPI PUSH1 0x0 DUP1 REVERT JUMPDEST POP GAS STATICCALL ISZERO DUP1 ISZERO PUSH2 0x1195 JUMPI RETURNDATASIZE PUSH1 0x0 DUP1 RETURNDATACOPY RETURNDATASIZE PUSH1 0x0 REVERT JUMPDEST POP POP POP POP PUSH1 0x40 MLOAD RETURNDATASIZE PUSH1 0x1F NOT PUSH1 0x1F DUP3 ADD AND DUP3 ADD DUP1 PUSH1 0x40 MSTORE POP DUP2 ADD SWAP1 PUSH2 0x11B9 SWAP2 SWAP1 PUSH2 0x2769 JUMP JUMPDEST PUSH2 0x17C9 SWAP1 SWAP2 SWAP1 PUSH4 0xFFFFFFFF AND JUMP JUMPDEST PUSH2 0x739 JUMP JUMPDEST PUSH2 0x11E7 PUSH8 0xDE0B6B3A7640000 DUP8 PUSH2 0x160E SWAP1 SWAP2 SWAP1 PUSH4 0xFFFFFFFF AND JUMP JUMPDEST PUSH2 0x1689 SWAP1 SWAP2 SWAP1 PUSH4 0xFFFFFFFF AND JUMP JUMPDEST SWAP1 POP PUSH2 0x12DD PUSH2 0x12B4 PUSH2 0x12AF DUP4 PUSH1 0x6 PUSH1 0x0 SWAP1 SLOAD SWAP1 PUSH2 0x100 EXP SWAP1 DIV PUSH20 0xFFFFFFFFFFFFFFFFFFFFFFFFFFFFFFFFFFFFFFFF AND PUSH20 0xFFFFFFFFFFFFFFFFFFFFFFFFFFFFFFFFFFFFFFFF AND PUSH4 0x18160DDD PUSH1 0x40 MLOAD DUP2 PUSH4 0xFFFFFFFF AND PUSH1 0xE0 SHL DUP2 MSTORE PUSH1 0x4 ADD PUSH1 0x20 PUSH1 0x40 MLOAD DUP1 DUP4 SUB DUP2 DUP7 DUP1 EXTCODESIZE ISZERO DUP1 ISZERO PUSH2 0x1269 JUMPI PUSH1 0x0 DUP1 REVERT JUMPDEST POP GAS STATICCALL ISZERO DUP1 ISZERO PUSH2 0x127D JUMPI RETURNDATASIZE PUSH1 0x0 DUP1 RETURNDATACOPY RETURNDATASIZE PUSH1 0x0 REVERT JUMPDEST POP POP POP POP PUSH1 0x40 MLOAD RETURNDATASIZE PUSH1 0x1F NOT PUSH1 0x1F DUP3 ADD AND DUP3 ADD DUP1 PUSH1 0x40 MSTORE POP DUP2 ADD SWAP1 PUSH2 0x12A1 SWAP2 SWAP1 PUSH2 0x2769 JUMP JUMPDEST PUSH2 0x17C9 SWAP1 SWAP2 SWAP1 PUSH4 0xFFFFFFFF AND JUMP JUMPDEST PUSH2 0x739 JUMP JUMPDEST PUSH2 0x12CF PUSH8 0xDE0B6B3A7640000 DUP8 PUSH2 0x160E SWAP1 SWAP2 SWAP1 PUSH4 0xFFFFFFFF AND JUMP JUMPDEST PUSH2 0x1689 SWAP1 SWAP2 SWAP1 PUSH4 0xFFFFFFFF AND JUMP JUMPDEST SWAP2 POP PUSH2 0x13C5 PUSH2 0x139C PUSH2 0x1397 DUP5 PUSH1 0x6 PUSH1 0x0 SWAP1 SLOAD SWAP1 PUSH2 0x100 EXP SWAP1 DIV PUSH20 0xFFFFFFFFFFFFFFFFFFFFFFFFFFFFFFFFFFFFFFFF AND PUSH20 0xFFFFFFFFFFFFFFFFFFFFFFFFFFFFFFFFFFFFFFFF AND PUSH4 0x18160DDD PUSH1 0x40 MLOAD DUP2 PUSH4 0xFFFFFFFF AND PUSH1 0xE0 SHL DUP2 MSTORE PUSH1 0x4 ADD PUSH1 0x20 PUSH1 0x40 MLOAD DUP1 DUP4 SUB DUP2 DUP7 DUP1 EXTCODESIZE ISZERO DUP1 ISZERO PUSH2 0x1351 JUMPI PUSH1 0x0 DUP1 REVERT JUMPDEST POP GAS STATICCALL ISZERO DUP1 ISZERO PUSH2 0x1365 JUMPI RETURNDATASIZE PUSH1 0x0 DUP1 RETURNDATACOPY RETURNDATASIZE PUSH1 0x0 REVERT JUMPDEST POP POP POP POP PUSH1 0x40 MLOAD RETURNDATASIZE PUSH1 0x1F NOT PUSH1 0x1F DUP3 ADD AND DUP3 ADD DUP1 PUSH1 0x40 MSTORE POP DUP2 ADD SWAP1 PUSH2 0x1389 SWAP2 SWAP1 PUSH2 0x2769 JUMP JUMPDEST PUSH2 0x17C9 SWAP1 SWAP2 SWAP1 PUSH4 0xFFFFFFFF AND JUMP JUMPDEST PUSH2 0x739 JUMP JUMPDEST PUSH2 0x13B7 PUSH8 0xDE0B6B3A7640000 DUP8 PUSH2 0x160E SWAP1 SWAP2 SWAP1 PUSH4 0xFFFFFFFF AND JUMP JUMPDEST PUSH2 0x1689 SWAP1 SWAP2 SWAP1 PUSH4 0xFFFFFFFF AND JUMP JUMPDEST SWAP1 POP DUP1 SWAP3 POP POP POP SWAP2 SWAP1 POP JUMP JUMPDEST PUSH1 0x7 PUSH1 0x0 SWAP1 SLOAD SWAP1 PUSH2 0x100 EXP SWAP1 DIV PUSH20 0xFFFFFFFFFFFFFFFFFFFFFFFFFFFFFFFFFFFFFFFF AND PUSH20 0xFFFFFFFFFFFFFFFFFFFFFFFFFFFFFFFFFFFFFFFF AND PUSH2 0x1412 PUSH2 0x1871 JUMP JUMPDEST PUSH20 0xFFFFFFFFFFFFFFFFFFFFFFFFFFFFFFFFFFFFFFFF AND EQ PUSH2 0x1468 JUMPI PUSH1 0x40 MLOAD PUSH32 0x8C379A000000000000000000000000000000000000000000000000000000000 DUP2 MSTORE PUSH1 0x4 ADD PUSH2 0x145F SWAP1 PUSH2 0x2933 JUMP JUMPDEST PUSH1 0x40 MLOAD DUP1 SWAP2 SUB SWAP1 REVERT JUMPDEST PUSH1 0x0 PUSH2 0x1540 PUSH2 0x1475 PUSH2 0xB9D JUMP JUMPDEST PUSH2 0x1532 PUSH1 0x1 SLOAD PUSH1 0x0 DUP1 SLOAD SWAP1 PUSH2 0x100 EXP SWAP1 DIV PUSH20 0xFFFFFFFFFFFFFFFFFFFFFFFFFFFFFFFFFFFFFFFF AND PUSH20 0xFFFFFFFFFFFFFFFFFFFFFFFFFFFFFFFFFFFFFFFF AND PUSH4 0x70A08231 ADDRESS PUSH1 0x40 MLOAD DUP3 PUSH4 0xFFFFFFFF AND PUSH1 0xE0 SHL DUP2 MSTORE PUSH1 0x4 ADD PUSH2 0x14D4 SWAP2 SWAP1 PUSH2 0x2856 JUMP JUMPDEST PUSH1 0x20 PUSH1 0x40 MLOAD DUP1 DUP4 SUB DUP2 DUP7 DUP1 EXTCODESIZE ISZERO DUP1 ISZERO PUSH2 0x14EC JUMPI PUSH1 0x0 DUP1 REVERT JUMPDEST POP GAS STATICCALL ISZERO DUP1 ISZERO PUSH2 0x1500 JUMPI RETURNDATASIZE PUSH1 0x0 DUP1 RETURNDATACOPY RETURNDATASIZE PUSH1 0x0 REVERT JUMPDEST POP POP POP POP PUSH1 0x40 MLOAD RETURNDATASIZE PUSH1 0x1F NOT PUSH1 0x1F DUP3 ADD AND DUP3 ADD DUP1 PUSH1 0x40 MSTORE POP DUP2 ADD SWAP1 PUSH2 0x1524 SWAP2 SWAP1 PUSH2 0x2769 JUMP JUMPDEST PUSH2 0x160E SWAP1 SWAP2 SWAP1 PUSH4 0xFFFFFFFF AND JUMP JUMPDEST PUSH2 0x1827 SWAP1 SWAP2 SWAP1 PUSH4 0xFFFFFFFF AND JUMP JUMPDEST SWAP1 POP PUSH1 0x0 DUP1 SLOAD SWAP1 PUSH2 0x100 EXP SWAP1 DIV PUSH20 0xFFFFFFFFFFFFFFFFFFFFFFFFFFFFFFFFFFFFFFFF AND PUSH20 0xFFFFFFFFFFFFFFFFFFFFFFFFFFFFFFFFFFFFFFFF AND PUSH4 0xA9059CBB PUSH2 0x1586 PUSH2 0x1871 JUMP JUMPDEST PUSH2 0x159B PUSH1 0x1 SLOAD DUP6 PUSH2 0x1689 SWAP1 SWAP2 SWAP1 PUSH4 0xFFFFFFFF AND JUMP JUMPDEST PUSH1 0x40 MLOAD DUP4 PUSH4 0xFFFFFFFF AND PUSH1 0xE0 SHL DUP2 MSTORE PUSH1 0x4 ADD PUSH2 0x15B8 SWAP3 SWAP2 SWAP1 PUSH2 0x28A8 JUMP JUMPDEST PUSH1 0x20 PUSH1 0x40 MLOAD DUP1 DUP4 SUB DUP2 PUSH1 0x0 DUP8 DUP1 EXTCODESIZE ISZERO DUP1 ISZERO PUSH2 0x15D2 JUMPI PUSH1 0x0 DUP1 REVERT JUMPDEST POP GAS CALL ISZERO DUP1 ISZERO PUSH2 0x15E6 JUMPI RETURNDATASIZE PUSH1 0x0 DUP1 RETURNDATACOPY RETURNDATASIZE PUSH1 0x0 REVERT JUMPDEST POP POP POP POP PUSH1 0x40 MLOAD RETURNDATASIZE PUSH1 0x1F NOT PUSH1 0x1F DUP3 ADD AND DUP3 ADD DUP1 PUSH1 0x40 MSTORE POP DUP2 ADD SWAP1 PUSH2 0x160A SWAP2 SWAP1 PUSH2 0x270F JUMP JUMPDEST POP POP JUMP JUMPDEST PUSH1 0x0 DUP1 DUP4 EQ ISZERO PUSH2 0x1621 JUMPI PUSH1 0x0 SWAP1 POP PUSH2 0x1683 JUMP JUMPDEST PUSH1 0x0 DUP3 DUP5 PUSH2 0x162F SWAP2 SWAP1 PUSH2 0x2A3A JUMP JUMPDEST SWAP1 POP DUP3 DUP5 DUP3 PUSH2 0x163E SWAP2 SWAP1 PUSH2 0x2A09 JUMP JUMPDEST EQ PUSH2 0x167E JUMPI PUSH1 0x40 MLOAD PUSH32 0x8C379A000000000000000000000000000000000000000000000000000000000 DUP2 MSTORE PUSH1 0x4 ADD PUSH2 0x1675 SWAP1 PUSH2 0x2913 JUMP JUMPDEST PUSH1 0x40 MLOAD DUP1 SWAP2 SUB SWAP1 REVERT JUMPDEST DUP1 SWAP2 POP POP JUMPDEST SWAP3 SWAP2 POP POP JUMP JUMPDEST PUSH1 0x0 PUSH2 0x16CB DUP4 DUP4 PUSH1 0x40 MLOAD DUP1 PUSH1 0x40 ADD PUSH1 0x40 MSTORE DUP1 PUSH1 0x1A DUP2 MSTORE PUSH1 0x20 ADD PUSH32 0x536166654D6174683A206469766973696F6E206279207A65726F000000000000 DUP2 MSTORE POP PUSH2 0x1879 JUMP JUMPDEST SWAP1 POP SWAP3 SWAP2 POP POP JUMP JUMPDEST PUSH1 0x0 PUSH9 0x736EA4425C11AC631 DUP3 LT PUSH2 0x1722 JUMPI DUP2 PUSH1 0x40 MLOAD PUSH32 0x315DA06800000000000000000000000000000000000000000000000000000000 DUP2 MSTORE PUSH1 0x4 ADD PUSH2 0x1719 SWAP2 SWAP1 PUSH2 0x2953 JUMP JUMPDEST PUSH1 0x40 MLOAD DUP1 SWAP2 SUB SWAP1 REVERT JUMPDEST PUSH1 0x0 PUSH8 0x14057B7EF767814F DUP4 MUL SWAP1 POP PUSH2 0x175C PUSH8 0xDE0B6B3A7640000 PUSH8 0x6F05B59D3B20000 DUP4 ADD DUP2 PUSH2 0x1756 JUMPI PUSH2 0x1755 PUSH2 0x2B72 JUMP JUMPDEST JUMPDEST DIV PUSH2 0x18DC JUMP JUMPDEST SWAP2 POP POP SWAP2 SWAP1 POP JUMP JUMPDEST PUSH1 0x0 PUSH2 0x1779 DUP4 PUSH8 0xDE0B6B3A7640000 DUP5 PUSH2 0x195D JUMP JUMPDEST SWAP1 POP SWAP3 SWAP2 POP POP JUMP JUMPDEST PUSH1 0x0 PUSH8 0x14057B7EF767814F PUSH8 0xDE0B6B3A7640000 PUSH2 0x179E DUP5 PUSH2 0x1A73 JUMP JUMPDEST MUL DUP2 PUSH2 0x17AD JUMPI PUSH2 0x17AC PUSH2 0x2B72 JUMP JUMPDEST JUMPDEST DIV SWAP1 POP SWAP2 SWAP1 POP JUMP JUMPDEST PUSH1 0x0 PUSH2 0x17C1 DUP4 DUP4 PUSH2 0x1B7B JUMP JUMPDEST SWAP1 POP SWAP3 SWAP2 POP POP JUMP JUMPDEST PUSH1 0x0 DUP1 DUP3 DUP5 PUSH2 0x17D8 SWAP2 SWAP1 PUSH2 0x29B3 JUMP JUMPDEST SWAP1 POP DUP4 DUP2 LT ISZERO PUSH2 0x181D JUMPI PUSH1 0x40 MLOAD PUSH32 0x8C379A000000000000000000000000000000000000000000000000000000000 DUP2 MSTORE PUSH1 0x4 ADD PUSH2 0x1814 SWAP1 PUSH2 0x28F3 JUMP JUMPDEST PUSH1 0x40 MLOAD DUP1 SWAP2 SUB SWAP1 REVERT JUMPDEST DUP1 SWAP2 POP POP SWAP3 SWAP2 POP POP JUMP JUMPDEST PUSH1 0x0 PUSH2 0x1869 DUP4 DUP4 PUSH1 0x40 MLOAD DUP1 PUSH1 0x40 ADD PUSH1 0x40 MSTORE DUP1 PUSH1 0x1E DUP2 MSTORE PUSH1 0x20 ADD PUSH32 0x536166654D6174683A207375627472616374696F6E206F766572666C6F770000 DUP2 MSTORE POP PUSH2 0x1C79 JUMP JUMPDEST SWAP1 POP SWAP3 SWAP2 POP POP JUMP JUMPDEST PUSH1 0x0 CALLER SWAP1 POP SWAP1 JUMP JUMPDEST PUSH1 0x0 DUP1 DUP4 GT DUP3 SWAP1 PUSH2 0x18C0 JUMPI PUSH1 0x40 MLOAD PUSH32 0x8C379A000000000000000000000000000000000000000000000000000000000 DUP2 MSTORE PUSH1 0x4 ADD PUSH2 0x18B7 SWAP2 SWAP1 PUSH2 0x28D1 JUMP JUMPDEST PUSH1 0x40 MLOAD DUP1 SWAP2 SUB SWAP1 REVERT JUMPDEST POP PUSH1 0x0 DUP4 DUP6 PUSH2 0x18CF SWAP2 SWAP1 PUSH2 0x2A09 JUMP JUMPDEST SWAP1 POP DUP1 SWAP2 POP POP SWAP4 SWAP3 POP POP POP JUMP JUMPDEST PUSH1 0x0 PUSH9 0xA688906BD8B000000 DUP3 LT PUSH2 0x192B JUMPI DUP2 PUSH1 0x40 MLOAD PUSH32 0x4A4F26F100000000000000000000000000000000000000000000000000000000 DUP2 MSTORE PUSH1 0x4 ADD PUSH2 0x1922 SWAP2 SWAP1 PUSH2 0x2953 JUMP JUMPDEST PUSH1 0x40 MLOAD DUP1 SWAP2 SUB SWAP1 REVERT JUMPDEST PUSH1 0x0 PUSH8 0xDE0B6B3A7640000 PUSH1 0x40 DUP5 SWAP1 SHL DUP2 PUSH2 0x1949 JUMPI PUSH2 0x1948 PUSH2 0x2B72 JUMP JUMPDEST JUMPDEST DIV SWAP1 POP PUSH2 0x1955 DUP2 PUSH2 0x1CDD JUMP JUMPDEST SWAP2 POP POP SWAP2 SWAP1 POP JUMP JUMPDEST PUSH1 0x0 DUP1 PUSH1 0x0 DUP1 NOT DUP6 DUP8 MULMOD DUP6 DUP8 MUL SWAP3 POP DUP3 DUP2 LT DUP4 DUP3 SUB SUB SWAP2 POP POP PUSH1 0x0 DUP2 EQ ISZERO PUSH2 0x1999 JUMPI DUP4 DUP3 DUP2 PUSH2 0x198F JUMPI PUSH2 0x198E PUSH2 0x2B72 JUMP JUMPDEST JUMPDEST DIV SWAP3 POP POP POP PUSH2 0x1A6C JUMP JUMPDEST DUP4 DUP2 LT PUSH2 0x19DF JUMPI DUP1 DUP5 PUSH1 0x40 MLOAD PUSH32 0x773CC18C00000000000000000000000000000000000000000000000000000000 DUP2 MSTORE PUSH1 0x4 ADD PUSH2 0x19D6 SWAP3 SWAP2 SWAP1 PUSH2 0x296E JUMP JUMPDEST PUSH1 0x40 MLOAD DUP1 SWAP2 SUB SWAP1 REVERT JUMPDEST PUSH1 0x0 DUP5 DUP7 DUP9 MULMOD SWAP1 POP DUP3 DUP2 GT DUP3 SUB SWAP2 POP DUP1 DUP4 SUB SWAP3 POP PUSH1 0x0 PUSH1 0x1 DUP7 NOT ADD DUP7 AND SWAP1 POP DUP1 DUP7 DIV SWAP6 POP DUP1 DUP5 DIV SWAP4 POP PUSH1 0x1 DUP2 DUP3 PUSH1 0x0 SUB DIV ADD SWAP1 POP DUP1 DUP4 MUL DUP5 OR SWAP4 POP PUSH1 0x0 PUSH1 0x2 DUP8 PUSH1 0x3 MUL XOR SWAP1 POP DUP1 DUP8 MUL PUSH1 0x2 SUB DUP2 MUL SWAP1 POP DUP1 DUP8 MUL PUSH1 0x2 SUB DUP2 MUL SWAP1 POP DUP1 DUP8 MUL PUSH1 0x2 SUB DUP2 MUL SWAP1 POP DUP1 DUP8 MUL PUSH1 0x2 SUB DUP2 MUL SWAP1 POP DUP1 DUP8 MUL PUSH1 0x2 SUB DUP2 MUL SWAP1 POP DUP1 DUP8 MUL PUSH1 0x2 SUB DUP2 MUL SWAP1 POP DUP1 DUP6 MUL SWAP6 POP POP POP POP POP POP JUMPDEST SWAP4 SWAP3 POP POP POP JUMP JUMPDEST PUSH1 0x0 PUSH8 0xDE0B6B3A7640000 DUP3 LT ISZERO PUSH2 0x1AC2 JUMPI DUP2 PUSH1 0x40 MLOAD PUSH32 0xD88504DC00000000000000000000000000000000000000000000000000000000 DUP2 MSTORE PUSH1 0x4 ADD PUSH2 0x1AB9 SWAP2 SWAP1 PUSH2 0x2953 JUMP JUMPDEST PUSH1 0x40 MLOAD DUP1 SWAP2 SUB SWAP1 REVERT JUMPDEST PUSH1 0x0 PUSH2 0x1AE5 PUSH8 0xDE0B6B3A7640000 DUP5 DUP2 PUSH2 0x1ADF JUMPI PUSH2 0x1ADE PUSH2 0x2B72 JUMP JUMPDEST JUMPDEST DIV PUSH2 0x25B9 JUMP JUMPDEST SWAP1 POP PUSH8 0xDE0B6B3A7640000 DUP2 MUL SWAP2 POP PUSH1 0x0 DUP2 DUP5 SWAP1 SHR SWAP1 POP PUSH8 0xDE0B6B3A7640000 DUP2 EQ ISZERO PUSH2 0x1B13 JUMPI POP POP PUSH2 0x1B76 JUMP JUMPDEST PUSH1 0x0 PUSH8 0x6F05B59D3B20000 SWAP1 POP JUMPDEST PUSH1 0x0 DUP2 GT ISZERO PUSH2 0x1B72 JUMPI PUSH8 0xDE0B6B3A7640000 DUP3 DUP4 MUL DUP2 PUSH2 0x1B44 JUMPI PUSH2 0x1B43 PUSH2 0x2B72 JUMP JUMPDEST JUMPDEST DIV SWAP2 POP PUSH8 0xDE0B6B3A7640000 PUSH1 0x2 MUL DUP3 LT PUSH2 0x1B66 JUMPI DUP1 DUP5 ADD SWAP4 POP PUSH1 0x1 DUP3 SWAP1 SHR SWAP2 POP JUMPDEST PUSH1 0x1 DUP2 SWAP1 SHR SWAP1 POP PUSH2 0x1B21 JUMP JUMPDEST POP POP POP JUMPDEST SWAP2 SWAP1 POP JUMP JUMPDEST PUSH1 0x0 DUP1 PUSH1 0x0 DUP1 NOT DUP5 DUP7 MULMOD DUP5 DUP7 MUL SWAP3 POP DUP3 DUP2 LT DUP4 DUP3 SUB SUB SWAP2 POP POP PUSH8 0xDE0B6B3A7640000 DUP2 LT PUSH2 0x1BE0 JUMPI DUP1 PUSH1 0x40 MLOAD PUSH32 0xD31B340200000000000000000000000000000000000000000000000000000000 DUP2 MSTORE PUSH1 0x4 ADD PUSH2 0x1BD7 SWAP2 SWAP1 PUSH2 0x2953 JUMP JUMPDEST PUSH1 0x40 MLOAD DUP1 SWAP2 SUB SWAP1 REVERT JUMPDEST PUSH1 0x0 DUP1 PUSH8 0xDE0B6B3A7640000 DUP7 DUP9 MULMOD SWAP2 POP PUSH8 0x6F05B59D3B1FFFF DUP3 GT SWAP1 POP PUSH1 0x0 DUP4 EQ ISZERO PUSH2 0x1C2D JUMPI DUP1 PUSH8 0xDE0B6B3A7640000 DUP6 DUP2 PUSH2 0x1C20 JUMPI PUSH2 0x1C1F PUSH2 0x2B72 JUMP JUMPDEST JUMPDEST DIV ADD SWAP5 POP POP POP POP POP PUSH2 0x1C73 JUMP JUMPDEST DUP1 PUSH32 0xACCB18165BD6FE31AE1CF318DC5B51EEE0E1BA569B88CD74C1773B91FAC10669 PUSH1 0x1 PUSH3 0x40000 DUP1 PUSH1 0x0 SUB DIV ADD DUP7 DUP6 GT DUP7 SUB MUL PUSH3 0x40000 DUP6 DUP9 SUB DIV OR MUL ADD SWAP5 POP POP POP POP POP JUMPDEST SWAP3 SWAP2 POP POP JUMP JUMPDEST PUSH1 0x0 DUP4 DUP4 GT ISZERO DUP3 SWAP1 PUSH2 0x1CC1 JUMPI PUSH1 0x40 MLOAD PUSH32 0x8C379A000000000000000000000000000000000000000000000000000000000 DUP2 MSTORE PUSH1 0x4 ADD PUSH2 0x1CB8 SWAP2 SWAP1 PUSH2 0x28D1 JUMP JUMPDEST PUSH1 0x40 MLOAD DUP1 SWAP2 SUB SWAP1 REVERT JUMPDEST POP PUSH1 0x0 DUP4 DUP6 PUSH2 0x1CD0 SWAP2 SWAP1 PUSH2 0x2A94 JUMP JUMPDEST SWAP1 POP DUP1 SWAP2 POP POP SWAP4 SWAP3 POP POP POP JUMP JUMPDEST PUSH1 0x0 PUSH24 0x800000000000000000000000000000000000000000000000 SWAP1 POP PUSH1 0x0 PUSH8 0x8000000000000000 DUP4 AND GT ISZERO PUSH2 0x1D20 JUMPI PUSH1 0x40 PUSH9 0x16A09E667F3BCC909 DUP3 MUL SWAP1 SHR SWAP1 POP JUMPDEST PUSH1 0x0 PUSH8 0x4000000000000000 DUP4 AND GT ISZERO PUSH2 0x1D46 JUMPI PUSH1 0x40 PUSH9 0x1306FE0A31B7152DF DUP3 MUL SWAP1 SHR SWAP1 POP JUMPDEST PUSH1 0x0 PUSH8 0x2000000000000000 DUP4 AND GT ISZERO PUSH2 0x1D6C JUMPI PUSH1 0x40 PUSH9 0x1172B83C7D517ADCE DUP3 MUL SWAP1 SHR SWAP1 POP JUMPDEST PUSH1 0x0 PUSH8 0x1000000000000000 DUP4 AND GT ISZERO PUSH2 0x1D92 JUMPI PUSH1 0x40 PUSH9 0x10B5586CF9890F62A DUP3 MUL SWAP1 SHR SWAP1 POP JUMPDEST PUSH1 0x0 PUSH8 0x800000000000000 DUP4 AND GT ISZERO PUSH2 0x1DB8 JUMPI PUSH1 0x40 PUSH9 0x1059B0D31585743AE DUP3 MUL SWAP1 SHR SWAP1 POP JUMPDEST PUSH1 0x0 PUSH8 0x400000000000000 DUP4 AND GT ISZERO PUSH2 0x1DDE JUMPI PUSH1 0x40 PUSH9 0x102C9A3E778060EE7 DUP3 MUL SWAP1 SHR SWAP1 POP JUMPDEST PUSH1 0x0 PUSH8 0x200000000000000 DUP4 AND GT ISZERO PUSH2 0x1E04 JUMPI PUSH1 0x40 PUSH9 0x10163DA9FB33356D8 DUP3 MUL SWAP1 SHR SWAP1 POP JUMPDEST PUSH1 0x0 PUSH8 0x100000000000000 DUP4 AND GT ISZERO PUSH2 0x1E2A JUMPI PUSH1 0x40 PUSH9 0x100B1AFA5ABCBED61 DUP3 MUL SWAP1 SHR SWAP1 POP JUMPDEST PUSH1 0x0 PUSH7 0x80000000000000 DUP4 AND GT ISZERO PUSH2 0x1E4F JUMPI PUSH1 0x40 PUSH9 0x10058C86DA1C09EA2 DUP3 MUL SWAP1 SHR SWAP1 POP JUMPDEST PUSH1 0x0 PUSH7 0x40000000000000 DUP4 AND GT ISZERO PUSH2 0x1E74 JUMPI PUSH1 0x40 PUSH9 0x1002C605E2E8CEC50 DUP3 MUL SWAP1 SHR SWAP1 POP JUMPDEST PUSH1 0x0 PUSH7 0x20000000000000 DUP4 AND GT ISZERO PUSH2 0x1E99 JUMPI PUSH1 0x40 PUSH9 0x100162F3904051FA1 DUP3 MUL SWAP1 SHR SWAP1 POP JUMPDEST PUSH1 0x0 PUSH7 0x10000000000000 DUP4 AND GT ISZERO PUSH2 0x1EBE JUMPI PUSH1 0x40 PUSH9 0x1000B175EFFDC76BA DUP3 MUL SWAP1 SHR SWAP1 POP JUMPDEST PUSH1 0x0 PUSH7 0x8000000000000 DUP4 AND GT ISZERO PUSH2 0x1EE3 JUMPI PUSH1 0x40 PUSH9 0x100058BA01FB9F96D DUP3 MUL SWAP1 SHR SWAP1 POP JUMPDEST PUSH1 0x0 PUSH7 0x4000000000000 DUP4 AND GT ISZERO PUSH2 0x1F08 JUMPI PUSH1 0x40 PUSH9 0x10002C5CC37DA9492 DUP3 MUL SWAP1 SHR SWAP1 POP JUMPDEST PUSH1 0x0 PUSH7 0x2000000000000 DUP4 AND GT ISZERO PUSH2 0x1F2D JUMPI PUSH1 0x40 PUSH9 0x1000162E525EE0547 DUP3 MUL SWAP1 SHR SWAP1 POP JUMPDEST PUSH1 0x0 PUSH7 0x1000000000000 DUP4 AND GT ISZERO PUSH2 0x1F52 JUMPI PUSH1 0x40 PUSH9 0x10000B17255775C04 DUP3 MUL SWAP1 SHR SWAP1 POP JUMPDEST PUSH1 0x0 PUSH6 0x800000000000 DUP4 AND GT ISZERO PUSH2 0x1F76 JUMPI PUSH1 0x40 PUSH9 0x1000058B91B5BC9AE DUP3 MUL SWAP1 SHR SWAP1 POP JUMPDEST PUSH1 0x0 PUSH6 0x400000000000 DUP4 AND GT ISZERO PUSH2 0x1F9A JUMPI PUSH1 0x40 PUSH9 0x100002C5C89D5EC6D DUP3 MUL SWAP1 SHR SWAP1 POP JUMPDEST PUSH1 0x0 PUSH6 0x200000000000 DUP4 AND GT ISZERO PUSH2 0x1FBE JUMPI PUSH1 0x40 PUSH9 0x10000162E43F4F831 DUP3 MUL SWAP1 SHR SWAP1 POP JUMPDEST PUSH1 0x0 PUSH6 0x100000000000 DUP4 AND GT ISZERO PUSH2 0x1FE2 JUMPI PUSH1 0x40 PUSH9 0x100000B1721BCFC9A DUP3 MUL SWAP1 SHR SWAP1 POP JUMPDEST PUSH1 0x0 PUSH6 0x80000000000 DUP4 AND GT ISZERO PUSH2 0x2006 JUMPI PUSH1 0x40 PUSH9 0x10000058B90CF1E6E DUP3 MUL SWAP1 SHR SWAP1 POP JUMPDEST PUSH1 0x0 PUSH6 0x40000000000 DUP4 AND GT ISZERO PUSH2 0x202A JUMPI PUSH1 0x40 PUSH9 0x1000002C5C863B73F DUP3 MUL SWAP1 SHR SWAP1 POP JUMPDEST PUSH1 0x0 PUSH6 0x20000000000 DUP4 AND GT ISZERO PUSH2 0x204E JUMPI PUSH1 0x40 PUSH9 0x100000162E430E5A2 DUP3 MUL SWAP1 SHR SWAP1 POP JUMPDEST PUSH1 0x0 PUSH6 0x10000000000 DUP4 AND GT ISZERO PUSH2 0x2072 JUMPI PUSH1 0x40 PUSH9 0x1000000B172183551 DUP3 MUL SWAP1 SHR SWAP1 POP JUMPDEST PUSH1 0x0 PUSH5 0x8000000000 DUP4 AND GT ISZERO PUSH2 0x2095 JUMPI PUSH1 0x40 PUSH9 0x100000058B90C0B49 DUP3 MUL SWAP1 SHR SWAP1 POP JUMPDEST PUSH1 0x0 PUSH5 0x4000000000 DUP4 AND GT ISZERO PUSH2 0x20B8 JUMPI PUSH1 0x40 PUSH9 0x10000002C5C8601CC DUP3 MUL SWAP1 SHR SWAP1 POP JUMPDEST PUSH1 0x0 PUSH5 0x2000000000 DUP4 AND GT ISZERO PUSH2 0x20DB JUMPI PUSH1 0x40 PUSH9 0x1000000162E42FFF0 DUP3 MUL SWAP1 SHR SWAP1 POP JUMPDEST PUSH1 0x0 PUSH5 0x1000000000 DUP4 AND GT ISZERO PUSH2 0x20FE JUMPI PUSH1 0x40 PUSH9 0x10000000B17217FBB DUP3 MUL SWAP1 SHR SWAP1 POP JUMPDEST PUSH1 0x0 PUSH5 0x800000000 DUP4 AND GT ISZERO PUSH2 0x2121 JUMPI PUSH1 0x40 PUSH9 0x1000000058B90BFCE DUP3 MUL SWAP1 SHR SWAP1 POP JUMPDEST PUSH1 0x0 PUSH5 0x400000000 DUP4 AND GT ISZERO PUSH2 0x2144 JUMPI PUSH1 0x40 PUSH9 0x100000002C5C85FE3 DUP3 MUL SWAP1 SHR SWAP1 POP JUMPDEST PUSH1 0x0 PUSH5 0x200000000 DUP4 AND GT ISZERO PUSH2 0x2167 JUMPI PUSH1 0x40 PUSH9 0x10000000162E42FF1 DUP3 MUL SWAP1 SHR SWAP1 POP JUMPDEST PUSH1 0x0 PUSH5 0x100000000 DUP4 AND GT ISZERO PUSH2 0x218A JUMPI PUSH1 0x40 PUSH9 0x100000000B17217F8 DUP3 MUL SWAP1 SHR SWAP1 POP JUMPDEST PUSH1 0x0 PUSH4 0x80000000 DUP4 AND GT ISZERO PUSH2 0x21AC JUMPI PUSH1 0x40 PUSH9 0x10000000058B90BFC DUP3 MUL SWAP1 SHR SWAP1 POP JUMPDEST PUSH1 0x0 PUSH4 0x40000000 DUP4 AND GT ISZERO PUSH2 0x21CE JUMPI PUSH1 0x40 PUSH9 0x1000000002C5C85FE DUP3 MUL SWAP1 SHR SWAP1 POP JUMPDEST PUSH1 0x0 PUSH4 0x20000000 DUP4 AND GT ISZERO PUSH2 0x21F0 JUMPI PUSH1 0x40 PUSH9 0x100000000162E42FF DUP3 MUL SWAP1 SHR SWAP1 POP JUMPDEST PUSH1 0x0 PUSH4 0x10000000 DUP4 AND GT ISZERO PUSH2 0x2212 JUMPI PUSH1 0x40 PUSH9 0x1000000000B17217F DUP3 MUL SWAP1 SHR SWAP1 POP JUMPDEST PUSH1 0x0 PUSH4 0x8000000 DUP4 AND GT ISZERO PUSH2 0x2234 JUMPI PUSH1 0x40 PUSH9 0x100000000058B90C0 DUP3 MUL SWAP1 SHR SWAP1 POP JUMPDEST PUSH1 0x0 PUSH4 0x4000000 DUP4 AND GT ISZERO PUSH2 0x2256 JUMPI PUSH1 0x40 PUSH9 0x10000000002C5C860 DUP3 MUL SWAP1 SHR SWAP1 POP JUMPDEST PUSH1 0x0 PUSH4 0x2000000 DUP4 AND GT ISZERO PUSH2 0x2278 JUMPI PUSH1 0x40 PUSH9 0x1000000000162E430 DUP3 MUL SWAP1 SHR SWAP1 POP JUMPDEST PUSH1 0x0 PUSH4 0x1000000 DUP4 AND GT ISZERO PUSH2 0x229A JUMPI PUSH1 0x40 PUSH9 0x10000000000B17218 DUP3 MUL SWAP1 SHR SWAP1 POP JUMPDEST PUSH1 0x0 PUSH3 0x800000 DUP4 AND GT ISZERO PUSH2 0x22BB JUMPI PUSH1 0x40 PUSH9 0x1000000000058B90C DUP3 MUL SWAP1 SHR SWAP1 POP JUMPDEST PUSH1 0x0 PUSH3 0x400000 DUP4 AND GT ISZERO PUSH2 0x22DC JUMPI PUSH1 0x40 PUSH9 0x100000000002C5C86 DUP3 MUL SWAP1 SHR SWAP1 POP JUMPDEST PUSH1 0x0 PUSH3 0x200000 DUP4 AND GT ISZERO PUSH2 0x22FD JUMPI PUSH1 0x40 PUSH9 0x10000000000162E43 DUP3 MUL SWAP1 SHR SWAP1 POP JUMPDEST PUSH1 0x0 PUSH3 0x100000 DUP4 AND GT ISZERO PUSH2 0x231E JUMPI PUSH1 0x40 PUSH9 0x100000000000B1721 DUP3 MUL SWAP1 SHR SWAP1 POP JUMPDEST PUSH1 0x0 PUSH3 0x80000 DUP4 AND GT ISZERO PUSH2 0x233F JUMPI PUSH1 0x40 PUSH9 0x10000000000058B91 DUP3 MUL SWAP1 SHR SWAP1 POP JUMPDEST PUSH1 0x0 PUSH3 0x40000 DUP4 AND GT ISZERO PUSH2 0x2360 JUMPI PUSH1 0x40 PUSH9 0x1000000000002C5C8 DUP3 MUL SWAP1 SHR SWAP1 POP JUMPDEST PUSH1 0x0 PUSH3 0x20000 DUP4 AND GT ISZERO PUSH2 0x2381 JUMPI PUSH1 0x40 PUSH9 0x100000000000162E4 DUP3 MUL SWAP1 SHR SWAP1 POP JUMPDEST PUSH1 0x0 PUSH3 0x10000 DUP4 AND GT ISZERO PUSH2 0x23A2 JUMPI PUSH1 0x40 PUSH9 0x1000000000000B172 DUP3 MUL SWAP1 SHR SWAP1 POP JUMPDEST PUSH1 0x0 PUSH2 0x8000 DUP4 AND GT ISZERO PUSH2 0x23C2 JUMPI PUSH1 0x40 PUSH9 0x100000000000058B9 DUP3 MUL SWAP1 SHR SWAP1 POP JUMPDEST PUSH1 0x0 PUSH2 0x4000 DUP4 AND GT ISZERO PUSH2 0x23E2 JUMPI PUSH1 0x40 PUSH9 0x10000000000002C5D DUP3 MUL SWAP1 SHR SWAP1 POP JUMPDEST PUSH1 0x0 PUSH2 0x2000 DUP4 AND GT ISZERO PUSH2 0x2402 JUMPI PUSH1 0x40 PUSH9 0x1000000000000162E DUP3 MUL SWAP1 SHR SWAP1 POP JUMPDEST PUSH1 0x0 PUSH2 0x1000 DUP4 AND GT ISZERO PUSH2 0x2422 JUMPI PUSH1 0x40 PUSH9 0x10000000000000B17 DUP3 MUL SWAP1 SHR SWAP1 POP JUMPDEST PUSH1 0x0 PUSH2 0x800 DUP4 AND GT ISZERO PUSH2 0x2442 JUMPI PUSH1 0x40 PUSH9 0x1000000000000058C DUP3 MUL SWAP1 SHR SWAP1 POP JUMPDEST PUSH1 0x0 PUSH2 0x400 DUP4 AND GT ISZERO PUSH2 0x2462 JUMPI PUSH1 0x40 PUSH9 0x100000000000002C6 DUP3 MUL SWAP1 SHR SWAP1 POP JUMPDEST PUSH1 0x0 PUSH2 0x200 DUP4 AND GT ISZERO PUSH2 0x2482 JUMPI PUSH1 0x40 PUSH9 0x10000000000000163 DUP3 MUL SWAP1 SHR SWAP1 POP JUMPDEST PUSH1 0x0 PUSH2 0x100 DUP4 AND GT ISZERO PUSH2 0x24A2 JUMPI PUSH1 0x40 PUSH9 0x100000000000000B1 DUP3 MUL SWAP1 SHR SWAP1 POP JUMPDEST PUSH1 0x0 PUSH1 0x80 DUP4 AND GT ISZERO PUSH2 0x24C1 JUMPI PUSH1 0x40 PUSH9 0x10000000000000059 DUP3 MUL SWAP1 SHR SWAP1 POP JUMPDEST PUSH1 0x0 PUSH1 0x40 DUP4 AND GT ISZERO PUSH2 0x24E0 JUMPI PUSH1 0x40 PUSH9 0x1000000000000002C DUP3 MUL SWAP1 SHR SWAP1 POP JUMPDEST PUSH1 0x0 PUSH1 0x20 DUP4 AND GT ISZERO PUSH2 0x24FF JUMPI PUSH1 0x40 PUSH9 0x10000000000000016 DUP3 MUL SWAP1 SHR SWAP1 POP JUMPDEST PUSH1 0x0 PUSH1 0x10 DUP4 AND GT ISZERO PUSH2 0x251E JUMPI PUSH1 0x40 PUSH9 0x1000000000000000B DUP3 MUL SWAP1 SHR SWAP1 POP JUMPDEST PUSH1 0x0 PUSH1 0x8 DUP4 AND GT ISZERO PUSH2 0x253D JUMPI PUSH1 0x40 PUSH9 0x10000000000000006 DUP3 MUL SWAP1 SHR SWAP1 POP JUMPDEST PUSH1 0x0 PUSH1 0x4 DUP4 AND GT ISZERO PUSH2 0x255C JUMPI PUSH1 0x40 PUSH9 0x10000000000000003 DUP3 MUL SWAP1 SHR SWAP1 POP JUMPDEST PUSH1 0x0 PUSH1 0x2 DUP4 AND GT ISZERO PUSH2 0x257B JUMPI PUSH1 0x40 PUSH9 0x10000000000000001 DUP3 MUL SWAP1 SHR SWAP1 POP JUMPDEST PUSH1 0x0 PUSH1 0x1 DUP4 AND GT ISZERO PUSH2 0x259A JUMPI PUSH1 0x40 PUSH9 0x10000000000000001 DUP3 MUL SWAP1 SHR SWAP1 POP JUMPDEST PUSH8 0xDE0B6B3A7640000 DUP2 MUL SWAP1 POP PUSH1 0x40 DUP3 SWAP1 SHR PUSH1 0xBF SUB DUP2 SWAP1 SHR SWAP1 POP SWAP2 SWAP1 POP JUMP JUMPDEST PUSH1 0x0 PUSH17 0x100000000000000000000000000000000 DUP3 LT PUSH2 0x25EA JUMPI PUSH1 0x80 DUP3 SWAP1 SHR SWAP2 POP PUSH1 0x80 DUP2 PUSH2 0x25E7 SWAP2 SWAP1 PUSH2 0x29B3 JUMP JUMPDEST SWAP1 POP JUMPDEST PUSH9 0x10000000000000000 DUP3 LT PUSH2 0x2611 JUMPI PUSH1 0x40 DUP3 SWAP1 SHR SWAP2 POP PUSH1 0x40 DUP2 PUSH2 0x260E SWAP2 SWAP1 PUSH2 0x29B3 JUMP JUMPDEST SWAP1 POP JUMPDEST PUSH5 0x100000000 DUP3 LT PUSH2 0x2634 JUMPI PUSH1 0x20 DUP3 SWAP1 SHR SWAP2 POP PUSH1 0x20 DUP2 PUSH2 0x2631 SWAP2 SWAP1 PUSH2 0x29B3 JUMP JUMPDEST SWAP1 POP JUMPDEST PUSH3 0x10000 DUP3 LT PUSH2 0x2655 JUMPI PUSH1 0x10 DUP3 SWAP1 SHR SWAP2 POP PUSH1 0x10 DUP2 PUSH2 0x2652 SWAP2 SWAP1 PUSH2 0x29B3 JUMP JUMPDEST SWAP1 POP JUMPDEST PUSH2 0x100 DUP3 LT PUSH2 0x2675 JUMPI PUSH1 0x8 DUP3 SWAP1 SHR SWAP2 POP PUSH1 0x8 DUP2 PUSH2 0x2672 SWAP2 SWAP1 PUSH2 0x29B3 JUMP JUMPDEST SWAP1 POP JUMPDEST PUSH1 0x10 DUP3 LT PUSH2 0x2694 JUMPI PUSH1 0x4 DUP3 SWAP1 SHR SWAP2 POP PUSH1 0x4 DUP2 PUSH2 0x2691 SWAP2 SWAP1 PUSH2 0x29B3 JUMP JUMPDEST SWAP1 POP JUMPDEST PUSH1 0x4 DUP3 LT PUSH2 0x26B3 JUMPI PUSH1 0x2 DUP3 SWAP1 SHR SWAP2 POP PUSH1 0x2 DUP2 PUSH2 0x26B0 SWAP2 SWAP1 PUSH2 0x29B3 JUMP JUMPDEST SWAP1 POP JUMPDEST PUSH1 0x2 DUP3 LT PUSH2 0x26CB JUMPI PUSH1 0x1 DUP2 PUSH2 0x26C8 SWAP2 SWAP1 PUSH2 0x29B3 JUMP JUMPDEST SWAP1 POP JUMPDEST SWAP2 SWAP1 POP JUMP JUMPDEST PUSH1 0x0 DUP2 MLOAD SWAP1 POP PUSH2 0x26DF DUP2 PUSH2 0x2C58 JUMP JUMPDEST SWAP3 SWAP2 POP POP JUMP JUMPDEST PUSH1 0x0 DUP2 CALLDATALOAD SWAP1 POP PUSH2 0x26F4 DUP2 PUSH2 0x2C6F JUMP JUMPDEST SWAP3 SWAP2 POP POP JUMP JUMPDEST PUSH1 0x0 DUP2 MLOAD SWAP1 POP PUSH2 0x2709 DUP2 PUSH2 0x2C6F JUMP JUMPDEST SWAP3 SWAP2 POP POP JUMP JUMPDEST PUSH1 0x0 PUSH1 0x20 DUP3 DUP5 SUB SLT ISZERO PUSH2 0x2725 JUMPI PUSH2 0x2724 PUSH2 0x2BA1 JUMP JUMPDEST JUMPDEST PUSH1 0x0 PUSH2 0x2733 DUP5 DUP3 DUP6 ADD PUSH2 0x26D0 JUMP JUMPDEST SWAP2 POP POP SWAP3 SWAP2 POP POP JUMP JUMPDEST PUSH1 0x0 PUSH1 0x20 DUP3 DUP5 SUB SLT ISZERO PUSH2 0x2752 JUMPI PUSH2 0x2751 PUSH2 0x2BA1 JUMP JUMPDEST JUMPDEST PUSH1 0x0 PUSH2 0x2760 DUP5 DUP3 DUP6 ADD PUSH2 0x26E5 JUMP JUMPDEST SWAP2 POP POP SWAP3 SWAP2 POP POP JUMP JUMPDEST PUSH1 0x0 PUSH1 0x20 DUP3 DUP5 SUB SLT ISZERO PUSH2 0x277F JUMPI PUSH2 0x277E PUSH2 0x2BA1 JUMP JUMPDEST JUMPDEST PUSH1 0x0 PUSH2 0x278D DUP5 DUP3 DUP6 ADD PUSH2 0x26FA JUMP JUMPDEST SWAP2 POP POP SWAP3 SWAP2 POP POP JUMP JUMPDEST PUSH2 0x279F DUP2 PUSH2 0x2AC8 JUMP JUMPDEST DUP3 MSTORE POP POP JUMP JUMPDEST PUSH1 0x0 PUSH2 0x27B0 DUP3 PUSH2 0x2997 JUMP JUMPDEST PUSH2 0x27BA DUP2 DUP6 PUSH2 0x29A2 JUMP JUMPDEST SWAP4 POP PUSH2 0x27CA DUP2 DUP6 PUSH1 0x20 DUP7 ADD PUSH2 0x2B10 JUMP JUMPDEST PUSH2 0x27D3 DUP2 PUSH2 0x2BA6 JUMP JUMPDEST DUP5 ADD SWAP2 POP POP SWAP3 SWAP2 POP POP JUMP JUMPDEST PUSH1 0x0 PUSH2 0x27EB PUSH1 0x1B DUP4 PUSH2 0x29A2 JUMP JUMPDEST SWAP2 POP PUSH2 0x27F6 DUP3 PUSH2 0x2BB7 JUMP JUMPDEST PUSH1 0x20 DUP3 ADD SWAP1 POP SWAP2 SWAP1 POP JUMP JUMPDEST PUSH1 0x0 PUSH2 0x280E PUSH1 0x21 DUP4 PUSH2 0x29A2 JUMP JUMPDEST SWAP2 POP PUSH2 0x2819 DUP3 PUSH2 0x2BE0 JUMP JUMPDEST PUSH1 0x40 DUP3 ADD SWAP1 POP SWAP2 SWAP1 POP JUMP JUMPDEST PUSH1 0x0 PUSH2 0x2831 PUSH1 0x11 DUP4 PUSH2 0x29A2 JUMP JUMPDEST SWAP2 POP PUSH2 0x283C DUP3 PUSH2 0x2C2F JUMP JUMPDEST PUSH1 0x20 DUP3 ADD SWAP1 POP SWAP2 SWAP1 POP JUMP JUMPDEST PUSH2 0x2850 DUP2 PUSH2 0x2B06 JUMP JUMPDEST DUP3 MSTORE POP POP JUMP JUMPDEST PUSH1 0x0 PUSH1 0x20 DUP3 ADD SWAP1 POP PUSH2 0x286B PUSH1 0x0 DUP4 ADD DUP5 PUSH2 0x2796 JUMP JUMPDEST SWAP3 SWAP2 POP POP JUMP JUMPDEST PUSH1 0x0 PUSH1 0x60 DUP3 ADD SWAP1 POP PUSH2 0x2886 PUSH1 0x0 DUP4 ADD DUP7 PUSH2 0x2796 JUMP JUMPDEST PUSH2 0x2893 PUSH1 0x20 DUP4 ADD DUP6 PUSH2 0x2796 JUMP JUMPDEST PUSH2 0x28A0 PUSH1 0x40 DUP4 ADD DUP5 PUSH2 0x2847 JUMP JUMPDEST SWAP5 SWAP4 POP POP POP POP JUMP JUMPDEST PUSH1 0x0 PUSH1 0x40 DUP3 ADD SWAP1 POP PUSH2 0x28BD PUSH1 0x0 DUP4 ADD DUP6 PUSH2 0x2796 JUMP JUMPDEST PUSH2 0x28CA PUSH1 0x20 DUP4 ADD DUP5 PUSH2 0x2847 JUMP JUMPDEST SWAP4 SWAP3 POP POP POP JUMP JUMPDEST PUSH1 0x0 PUSH1 0x20 DUP3 ADD SWAP1 POP DUP2 DUP2 SUB PUSH1 0x0 DUP4 ADD MSTORE PUSH2 0x28EB DUP2 DUP5 PUSH2 0x27A5 JUMP JUMPDEST SWAP1 POP SWAP3 SWAP2 POP POP JUMP JUMPDEST PUSH1 0x0 PUSH1 0x20 DUP3 ADD SWAP1 POP DUP2 DUP2 SUB PUSH1 0x0 DUP4 ADD MSTORE PUSH2 0x290C DUP2 PUSH2 0x27DE JUMP JUMPDEST SWAP1 POP SWAP2 SWAP1 POP JUMP JUMPDEST PUSH1 0x0 PUSH1 0x20 DUP3 ADD SWAP1 POP DUP2 DUP2 SUB PUSH1 0x0 DUP4 ADD MSTORE PUSH2 0x292C DUP2 PUSH2 0x2801 JUMP JUMPDEST SWAP1 POP SWAP2 SWAP1 POP JUMP JUMPDEST PUSH1 0x0 PUSH1 0x20 DUP3 ADD SWAP1 POP DUP2 DUP2 SUB PUSH1 0x0 DUP4 ADD MSTORE PUSH2 0x294C DUP2 PUSH2 0x2824 JUMP JUMPDEST SWAP1 POP SWAP2 SWAP1 POP JUMP JUMPDEST PUSH1 0x0 PUSH1 0x20 DUP3 ADD SWAP1 POP PUSH2 0x2968 PUSH1 0x0 DUP4 ADD DUP5 PUSH2 0x2847 JUMP JUMPDEST SWAP3 SWAP2 POP POP JUMP JUMPDEST PUSH1 0x0 PUSH1 0x40 DUP3 ADD SWAP1 POP PUSH2 0x2983 PUSH1 0x0 DUP4 ADD DUP6 PUSH2 0x2847 JUMP JUMPDEST PUSH2 0x2990 PUSH1 0x20 DUP4 ADD DUP5 PUSH2 0x2847 JUMP JUMPDEST SWAP4 SWAP3 POP POP POP JUMP JUMPDEST PUSH1 0x0 DUP2 MLOAD SWAP1 POP SWAP2 SWAP1 POP JUMP JUMPDEST PUSH1 0x0 DUP3 DUP3 MSTORE PUSH1 0x20 DUP3 ADD SWAP1 POP SWAP3 SWAP2 POP POP JUMP JUMPDEST PUSH1 0x0 PUSH2 0x29BE DUP3 PUSH2 0x2B06 JUMP JUMPDEST SWAP2 POP PUSH2 0x29C9 DUP4 PUSH2 0x2B06 JUMP JUMPDEST SWAP3 POP DUP3 PUSH32 0xFFFFFFFFFFFFFFFFFFFFFFFFFFFFFFFFFFFFFFFFFFFFFFFFFFFFFFFFFFFFFFFF SUB DUP3 GT ISZERO PUSH2 0x29FE JUMPI PUSH2 0x29FD PUSH2 0x2B43 JUMP JUMPDEST JUMPDEST DUP3 DUP3 ADD SWAP1 POP SWAP3 SWAP2 POP POP JUMP JUMPDEST PUSH1 0x0 PUSH2 0x2A14 DUP3 PUSH2 0x2B06 JUMP JUMPDEST SWAP2 POP PUSH2 0x2A1F DUP4 PUSH2 0x2B06 JUMP JUMPDEST SWAP3 POP DUP3 PUSH2 0x2A2F JUMPI PUSH2 0x2A2E PUSH2 0x2B72 JUMP JUMPDEST JUMPDEST DUP3 DUP3 DIV SWAP1 POP SWAP3 SWAP2 POP POP JUMP JUMPDEST PUSH1 0x0 PUSH2 0x2A45 DUP3 PUSH2 0x2B06 JUMP JUMPDEST SWAP2 POP PUSH2 0x2A50 DUP4 PUSH2 0x2B06 JUMP JUMPDEST SWAP3 POP DUP2 PUSH32 0xFFFFFFFFFFFFFFFFFFFFFFFFFFFFFFFFFFFFFFFFFFFFFFFFFFFFFFFFFFFFFFFF DIV DUP4 GT DUP3 ISZERO ISZERO AND ISZERO PUSH2 0x2A89 JUMPI PUSH2 0x2A88 PUSH2 0x2B43 JUMP JUMPDEST JUMPDEST DUP3 DUP3 MUL SWAP1 POP SWAP3 SWAP2 POP POP JUMP JUMPDEST PUSH1 0x0 PUSH2 0x2A9F DUP3 PUSH2 0x2B06 JUMP JUMPDEST SWAP2 POP PUSH2 0x2AAA DUP4 PUSH2 0x2B06 JUMP JUMPDEST SWAP3 POP DUP3 DUP3 LT ISZERO PUSH2 0x2ABD JUMPI PUSH2 0x2ABC PUSH2 0x2B43 JUMP JUMPDEST JUMPDEST DUP3 DUP3 SUB SWAP1 POP SWAP3 SWAP2 POP POP JUMP JUMPDEST PUSH1 0x0 PUSH2 0x2AD3 DUP3 PUSH2 0x2AE6 JUMP JUMPDEST SWAP1 POP SWAP2 SWAP1 POP JUMP JUMPDEST PUSH1 0x0 DUP2 ISZERO ISZERO SWAP1 POP SWAP2 SWAP1 POP JUMP JUMPDEST PUSH1 0x0 PUSH20 0xFFFFFFFFFFFFFFFFFFFFFFFFFFFFFFFFFFFFFFFF DUP3 AND SWAP1 POP SWAP2 SWAP1 POP JUMP JUMPDEST PUSH1 0x0 DUP2 SWAP1 POP SWAP2 SWAP1 POP JUMP JUMPDEST PUSH1 0x0 JUMPDEST DUP4 DUP2 LT ISZERO PUSH2 0x2B2E JUMPI DUP1 DUP3 ADD MLOAD DUP2 DUP5 ADD MSTORE PUSH1 0x20 DUP2 ADD SWAP1 POP PUSH2 0x2B13 JUMP JUMPDEST DUP4 DUP2 GT ISZERO PUSH2 0x2B3D JUMPI PUSH1 0x0 DUP5 DUP5 ADD MSTORE JUMPDEST POP POP POP POP JUMP JUMPDEST PUSH32 0x4E487B7100000000000000000000000000000000000000000000000000000000 PUSH1 0x0 MSTORE PUSH1 0x11 PUSH1 0x4 MSTORE PUSH1 0x24 PUSH1 0x0 REVERT JUMPDEST PUSH32 0x4E487B7100000000000000000000000000000000000000000000000000000000 PUSH1 0x0 MSTORE PUSH1 0x12 PUSH1 0x4 MSTORE PUSH1 0x24 PUSH1 0x0 REVERT JUMPDEST PUSH1 0x0 DUP1 REVERT JUMPDEST PUSH1 0x0 PUSH1 0x1F NOT PUSH1 0x1F DUP4 ADD AND SWAP1 POP SWAP2 SWAP1 POP JUMP JUMPDEST PUSH32 0x536166654D6174683A206164646974696F6E206F766572666C6F770000000000 PUSH1 0x0 DUP3 ADD MSTORE POP JUMP JUMPDEST PUSH32 0x536166654D6174683A206D756C7469706C69636174696F6E206F766572666C6F PUSH1 0x0 DUP3 ADD MSTORE PUSH32 0x7700000000000000000000000000000000000000000000000000000000000000 PUSH1 0x20 DUP3 ADD MSTORE POP JUMP JUMPDEST PUSH32 0x4F6E6C792052656379636C6520506F6F6C000000000000000000000000000000 PUSH1 0x0 DUP3 ADD MSTORE POP JUMP JUMPDEST PUSH2 0x2C61 DUP2 PUSH2 0x2ADA JUMP JUMPDEST DUP2 EQ PUSH2 0x2C6C JUMPI PUSH1 0x0 DUP1 REVERT JUMPDEST POP JUMP JUMPDEST PUSH2 0x2C78 DUP2 PUSH2 0x2B06 JUMP JUMPDEST DUP2 EQ PUSH2 0x2C83 JUMPI PUSH1 0x0 DUP1 REVERT JUMPDEST POP JUMP INVALID LOG2 PUSH5 0x6970667358 0x22 SLT KECCAK256 MULMOD NOT PUSH3 0x13CD79 DUP15 SSTORE JUMP SELFBALANCE 0xBC PUSH2 0x3B69 DUP1 DUP12 0xC4 0x5F 0xD1 ADD PUSH9 0x2AD1503A62CEA4660A EQ AND PUSH5 0x736F6C6343 STOP ADDMOD SMOD STOP CALLER "
		},
		"gasEstimates": {
			"creation": {
				"codeDepositCost": "2290400",
				"executionCost": "infinite",
				"totalCost": "infinite"
			},
			"external": {
				"_areaGivenSupply(uint256)": "infinite",
				"_priceGivenSupply(uint256)": "infinite",
				"areaGivenSupply()": "infinite",
				"clearOutExtraReward()": "infinite",
				"priceGivenSupply()": "infinite",
				"swapPaymentForPopcorn(uint256)": "infinite",
				"swapPaymentForPopcornGivenPayment(uint256)": "infinite",
				"swapPaymentForPopcornGivenPopcorn(uint256)": "infinite",
				"swapPopcornForPayment(uint256)": "infinite",
				"swapPopcornForPaymentGivenPayment(uint256)": "infinite",
				"swapPopcornForPaymentGivenPopcorn(uint256)": "infinite"
			}
		},
		"methodIdentifiers": {
			"_areaGivenSupply(uint256)": "0b902e95",
			"_priceGivenSupply(uint256)": "5f6183ff",
			"areaGivenSupply()": "a20e8b3c",
			"clearOutExtraReward()": "ccc4afee",
			"priceGivenSupply()": "641c9cf1",
			"swapPaymentForPopcorn(uint256)": "3597ff3d",
			"swapPaymentForPopcornGivenPayment(uint256)": "b0bc074c",
			"swapPaymentForPopcornGivenPopcorn(uint256)": "0e5449a6",
			"swapPopcornForPayment(uint256)": "85c210a8",
			"swapPopcornForPaymentGivenPayment(uint256)": "a78a3725",
			"swapPopcornForPaymentGivenPopcorn(uint256)": "10619766"
		}
	},
	"abi": [
		{
			"inputs": [
				{
					"internalType": "address",
					"name": "_paymentToken",
					"type": "address"
				},
				{
					"internalType": "address",
					"name": "_popcornToken",
					"type": "address"
				},
				{
					"internalType": "address",
					"name": "_recyclePool",
					"type": "address"
				}
			],
			"stateMutability": "nonpayable",
			"type": "constructor"
		},
		{
			"inputs": [
				{
					"internalType": "uint256",
					"name": "x",
					"type": "uint256"
				}
			],
			"name": "PRBMathUD60x18__Exp2InputTooBig",
			"type": "error"
		},
		{
			"inputs": [
				{
					"internalType": "uint256",
					"name": "x",
					"type": "uint256"
				}
			],
			"name": "PRBMathUD60x18__ExpInputTooBig",
			"type": "error"
		},
		{
			"inputs": [
				{
					"internalType": "uint256",
					"name": "x",
					"type": "uint256"
				}
			],
			"name": "PRBMathUD60x18__LogInputTooSmall",
			"type": "error"
		},
		{
			"inputs": [
				{
					"internalType": "uint256",
					"name": "prod1",
					"type": "uint256"
				}
			],
			"name": "PRBMath__MulDivFixedPointOverflow",
			"type": "error"
		},
		{
			"inputs": [
				{
					"internalType": "uint256",
					"name": "prod1",
					"type": "uint256"
				},
				{
					"internalType": "uint256",
					"name": "denominator",
					"type": "uint256"
				}
			],
			"name": "PRBMath__MulDivOverflow",
			"type": "error"
		},
		{
			"inputs": [
				{
					"internalType": "uint256",
					"name": "_totalSupply",
					"type": "uint256"
				}
			],
			"name": "_areaGivenSupply",
			"outputs": [
				{
					"internalType": "uint256",
					"name": "",
					"type": "uint256"
				}
			],
			"stateMutability": "view",
			"type": "function"
		},
		{
			"inputs": [
				{
					"internalType": "uint256",
					"name": "_totalSupply",
					"type": "uint256"
				}
			],
			"name": "_priceGivenSupply",
			"outputs": [
				{
					"internalType": "uint256",
					"name": "",
					"type": "uint256"
				}
			],
			"stateMutability": "view",
			"type": "function"
		},
		{
			"inputs": [],
			"name": "areaGivenSupply",
			"outputs": [
				{
					"internalType": "uint256",
					"name": "",
					"type": "uint256"
				}
			],
			"stateMutability": "view",
			"type": "function"
		},
		{
			"inputs": [],
			"name": "clearOutExtraReward",
			"outputs": [],
			"stateMutability": "nonpayable",
			"type": "function"
		},
		{
			"inputs": [],
			"name": "priceGivenSupply",
			"outputs": [
				{
					"internalType": "uint256",
					"name": "",
					"type": "uint256"
				}
			],
			"stateMutability": "view",
			"type": "function"
		},
		{
			"inputs": [
				{
					"internalType": "uint256",
					"name": "popcornAmount",
					"type": "uint256"
				}
			],
			"name": "swapPaymentForPopcorn",
			"outputs": [],
			"stateMutability": "nonpayable",
			"type": "function"
		},
		{
			"inputs": [
				{
					"internalType": "uint256",
					"name": "paymentAmount",
					"type": "uint256"
				}
			],
			"name": "swapPaymentForPopcornGivenPayment",
			"outputs": [
				{
					"internalType": "uint256",
					"name": "",
					"type": "uint256"
				}
			],
			"stateMutability": "view",
			"type": "function"
		},
		{
			"inputs": [
				{
					"internalType": "uint256",
					"name": "popcornAmount",
					"type": "uint256"
				}
			],
			"name": "swapPaymentForPopcornGivenPopcorn",
			"outputs": [
				{
					"internalType": "uint256",
					"name": "",
					"type": "uint256"
				}
			],
			"stateMutability": "view",
			"type": "function"
		},
		{
			"inputs": [
				{
					"internalType": "uint256",
					"name": "popcornAmount",
					"type": "uint256"
				}
			],
			"name": "swapPopcornForPayment",
			"outputs": [],
			"stateMutability": "nonpayable",
			"type": "function"
		},
		{
			"inputs": [
				{
					"internalType": "uint256",
					"name": "paymentAmount",
					"type": "uint256"
				}
			],
			"name": "swapPopcornForPaymentGivenPayment",
			"outputs": [
				{
					"internalType": "uint256",
					"name": "",
					"type": "uint256"
				}
			],
			"stateMutability": "view",
			"type": "function"
		},
		{
			"inputs": [
				{
					"internalType": "uint256",
					"name": "popcornAmount",
					"type": "uint256"
				}
			],
			"name": "swapPopcornForPaymentGivenPopcorn",
			"outputs": [
				{
					"internalType": "uint256",
					"name": "",
					"type": "uint256"
				}
			],
			"stateMutability": "view",
			"type": "function"
		}
	]
}