{
	"atta-movies/ERC721/binance/ERC721VendingMachineAutoIdForKlay.sol": {
		"VendingMachine": {
			"abi": [
				{
					"inputs": [
						{
							"internalType": "address",
							"name": "_nftAddress",
							"type": "address"
						},
						{
							"internalType": "address",
							"name": "_treasury",
							"type": "address"
						}
					],
					"stateMutability": "nonpayable",
					"type": "constructor"
				},
				{
					"anonymous": false,
					"inputs": [
						{
							"indexed": true,
							"internalType": "address",
							"name": "buyer",
							"type": "address"
						},
						{
							"indexed": true,
							"internalType": "uint256",
							"name": "uriTemplateId",
							"type": "uint256"
						},
						{
							"indexed": true,
							"internalType": "uint256",
							"name": "tokenId",
							"type": "uint256"
						},
						{
							"indexed": false,
							"internalType": "uint256",
							"name": "price",
							"type": "uint256"
						}
					],
					"name": "Buy",
					"type": "event"
				},
				{
					"anonymous": false,
					"inputs": [
						{
							"indexed": true,
							"internalType": "address",
							"name": "previousOwner",
							"type": "address"
						},
						{
							"indexed": true,
							"internalType": "address",
							"name": "newOwner",
							"type": "address"
						}
					],
					"name": "OwnershipTransferred",
					"type": "event"
				},
				{
					"anonymous": false,
					"inputs": [
						{
							"indexed": true,
							"internalType": "uint256",
							"name": "uriTemplateId",
							"type": "uint256"
						},
						{
							"indexed": false,
							"internalType": "uint256",
							"name": "price",
							"type": "uint256"
						}
					],
					"name": "PriceUpdate",
					"type": "event"
				},
				{
					"inputs": [
						{
							"internalType": "uint256",
							"name": "",
							"type": "uint256"
						}
					],
					"name": "_commodityPrices",
					"outputs": [
						{
							"internalType": "uint256",
							"name": "",
							"type": "uint256"
						}
					],
					"stateMutability": "view",
					"type": "function"
				},
				{
					"inputs": [],
					"name": "nft",
					"outputs": [
						{
							"internalType": "contract IERC721MintableAutoId",
							"name": "",
							"type": "address"
						}
					],
					"stateMutability": "view",
					"type": "function"
				},
				{
					"inputs": [],
					"name": "owner",
					"outputs": [
						{
							"internalType": "address",
							"name": "",
							"type": "address"
						}
					],
					"stateMutability": "view",
					"type": "function"
				},
				{
					"inputs": [],
					"name": "renounceOwnership",
					"outputs": [],
					"stateMutability": "nonpayable",
					"type": "function"
				},
				{
					"inputs": [
						{
							"internalType": "uint256",
							"name": "_uriTemplateId",
							"type": "uint256"
						},
						{
							"internalType": "uint256",
							"name": "_quantity",
							"type": "uint256"
						}
					],
					"name": "safeBuyToken",
					"outputs": [],
					"stateMutability": "payable",
					"type": "function"
				},
				{
					"inputs": [
						{
							"internalType": "uint256",
							"name": "_uriTemplateId",
							"type": "uint256"
						},
						{
							"internalType": "uint256",
							"name": "_price",
							"type": "uint256"
						}
					],
					"name": "safeListToken",
					"outputs": [],
					"stateMutability": "nonpayable",
					"type": "function"
				},
				{
					"inputs": [
						{
							"internalType": "address",
							"name": "newOwner",
							"type": "address"
						}
					],
					"name": "transferOwnership",
					"outputs": [],
					"stateMutability": "nonpayable",
					"type": "function"
				},
				{
					"inputs": [],
					"name": "treasury",
					"outputs": [
						{
							"internalType": "address",
							"name": "",
							"type": "address"
						}
					],
					"stateMutability": "view",
					"type": "function"
				}
			],
			"devdoc": {
				"kind": "dev",
				"methods": {
					"owner()": {
						"details": "Returns the address of the current owner."
					},
					"renounceOwnership()": {
						"details": "Leaves the contract without owner. It will not be possible to call `onlyOwner` functions anymore. Can only be called by the current owner. NOTE: Renouncing ownership will leave the contract without an owner, thereby removing any functionality that is only available to the owner."
					},
					"transferOwnership(address)": {
						"details": "Transfers ownership of the contract to a new account (`newOwner`). Can only be called by the current owner."
					}
				},
				"version": 1
			},
			"evm": {
				"assembly": "    /* \"atta-movies/ERC721/binance/ERC721VendingMachineAutoIdForKlay.sol\":22433:24128  contract VendingMachine is Ownable {\r... */\n  mstore(0x40, 0x80)\n    /* \"atta-movies/ERC721/binance/ERC721VendingMachineAutoIdForKlay.sol\":22830:23074  constructor(\r... */\n  callvalue\n  dup1\n  iszero\n  tag_1\n  jumpi\n  0x00\n  dup1\n  revert\ntag_1:\n  pop\n  mload(0x40)\n  sub(codesize, bytecodeSize)\n  dup1\n  bytecodeSize\n  dup4\n  codecopy\n  dup2\n  dup2\n  add\n  0x40\n  mstore\n  dup2\n  add\n  swap1\n  tag_2\n  swap2\n  swap1\n  tag_3\n  jump\t// in\ntag_2:\n    /* \"atta-movies/ERC721/binance/ERC721VendingMachineAutoIdForKlay.sol\":8103:8120  address msgSender */\n  0x00\n    /* \"atta-movies/ERC721/binance/ERC721VendingMachineAutoIdForKlay.sol\":8123:8135  _msgSender() */\n  tag_7\n    /* \"atta-movies/ERC721/binance/ERC721VendingMachineAutoIdForKlay.sol\":8123:8133  _msgSender */\n  shl(0x20, tag_8)\n    /* \"atta-movies/ERC721/binance/ERC721VendingMachineAutoIdForKlay.sol\":8123:8135  _msgSender() */\n  0x20\n  shr\n  jump\t// in\ntag_7:\n    /* \"atta-movies/ERC721/binance/ERC721VendingMachineAutoIdForKlay.sol\":8103:8135  address msgSender = _msgSender() */\n  swap1\n  pop\n    /* \"atta-movies/ERC721/binance/ERC721VendingMachineAutoIdForKlay.sol\":8155:8164  msgSender */\n  dup1\n    /* \"atta-movies/ERC721/binance/ERC721VendingMachineAutoIdForKlay.sol\":8146:8152  _owner */\n  0x00\n  dup1\n    /* \"atta-movies/ERC721/binance/ERC721VendingMachineAutoIdForKlay.sol\":8146:8164  _owner = msgSender */\n  0x0100\n  exp\n  dup2\n  sload\n  dup2\n  0xffffffffffffffffffffffffffffffffffffffff\n  mul\n  not\n  and\n  swap1\n  dup4\n  0xffffffffffffffffffffffffffffffffffffffff\n  and\n  mul\n  or\n  swap1\n  sstore\n  pop\n    /* \"atta-movies/ERC721/binance/ERC721VendingMachineAutoIdForKlay.sol\":8213:8222  msgSender */\n  dup1\n    /* \"atta-movies/ERC721/binance/ERC721VendingMachineAutoIdForKlay.sol\":8180:8223  OwnershipTransferred(address(0), msgSender) */\n  0xffffffffffffffffffffffffffffffffffffffff\n  and\n    /* \"atta-movies/ERC721/binance/ERC721VendingMachineAutoIdForKlay.sol\":8209:8210  0 */\n  0x00\n    /* \"atta-movies/ERC721/binance/ERC721VendingMachineAutoIdForKlay.sol\":8180:8223  OwnershipTransferred(address(0), msgSender) */\n  0xffffffffffffffffffffffffffffffffffffffff\n  and\n  0x8be0079c531659141344cd1fd0a4f28419497f9722a3daafe3b4186f6b6457e0\n  mload(0x40)\n  mload(0x40)\n  dup1\n  swap2\n  sub\n  swap1\n  log3\n    /* \"atta-movies/ERC721/binance/ERC721VendingMachineAutoIdForKlay.sol\":8077:8231  constructor () {\r... */\n  pop\n    /* \"atta-movies/ERC721/binance/ERC721VendingMachineAutoIdForKlay.sol\":22949:22950  0 */\n  0x00\n    /* \"atta-movies/ERC721/binance/ERC721VendingMachineAutoIdForKlay.sol\":22926:22951  _nftAddress != address(0) */\n  0xffffffffffffffffffffffffffffffffffffffff\n  and\n    /* \"atta-movies/ERC721/binance/ERC721VendingMachineAutoIdForKlay.sol\":22926:22937  _nftAddress */\n  dup3\n    /* \"atta-movies/ERC721/binance/ERC721VendingMachineAutoIdForKlay.sol\":22926:22951  _nftAddress != address(0) */\n  0xffffffffffffffffffffffffffffffffffffffff\n  and\n  eq\n  iszero\n    /* \"atta-movies/ERC721/binance/ERC721VendingMachineAutoIdForKlay.sol\":22926:22983  _nftAddress != address(0) && _nftAddress != address(this) */\n  dup1\n  iszero\n  tag_10\n  jumpi\n  pop\n    /* \"atta-movies/ERC721/binance/ERC721VendingMachineAutoIdForKlay.sol\":22978:22982  this */\n  address\n    /* \"atta-movies/ERC721/binance/ERC721VendingMachineAutoIdForKlay.sol\":22955:22983  _nftAddress != address(this) */\n  0xffffffffffffffffffffffffffffffffffffffff\n  and\n    /* \"atta-movies/ERC721/binance/ERC721VendingMachineAutoIdForKlay.sol\":22955:22966  _nftAddress */\n  dup3\n    /* \"atta-movies/ERC721/binance/ERC721VendingMachineAutoIdForKlay.sol\":22955:22983  _nftAddress != address(this) */\n  0xffffffffffffffffffffffffffffffffffffffff\n  and\n  eq\n  iszero\n    /* \"atta-movies/ERC721/binance/ERC721VendingMachineAutoIdForKlay.sol\":22926:22983  _nftAddress != address(0) && _nftAddress != address(this) */\ntag_10:\n    /* \"atta-movies/ERC721/binance/ERC721VendingMachineAutoIdForKlay.sol\":22918:22984  require(_nftAddress != address(0) && _nftAddress != address(this)) */\n  tag_11\n  jumpi\n  0x00\n  dup1\n  revert\ntag_11:\n    /* \"atta-movies/ERC721/binance/ERC721VendingMachineAutoIdForKlay.sol\":23023:23034  _nftAddress */\n  dup2\n    /* \"atta-movies/ERC721/binance/ERC721VendingMachineAutoIdForKlay.sol\":22995:22998  nft */\n  0x01\n  0x00\n    /* \"atta-movies/ERC721/binance/ERC721VendingMachineAutoIdForKlay.sol\":22995:23035  nft = IERC721MintableAutoId(_nftAddress) */\n  0x0100\n  exp\n  dup2\n  sload\n  dup2\n  0xffffffffffffffffffffffffffffffffffffffff\n  mul\n  not\n  and\n  swap1\n  dup4\n  0xffffffffffffffffffffffffffffffffffffffff\n  and\n  mul\n  or\n  swap1\n  sstore\n  pop\n    /* \"atta-movies/ERC721/binance/ERC721VendingMachineAutoIdForKlay.sol\":23057:23066  _treasury */\n  dup1\n    /* \"atta-movies/ERC721/binance/ERC721VendingMachineAutoIdForKlay.sol\":23046:23054  treasury */\n  0x02\n  0x00\n    /* \"atta-movies/ERC721/binance/ERC721VendingMachineAutoIdForKlay.sol\":23046:23066  treasury = _treasury */\n  0x0100\n  exp\n  dup2\n  sload\n  dup2\n  0xffffffffffffffffffffffffffffffffffffffff\n  mul\n  not\n  and\n  swap1\n  dup4\n  0xffffffffffffffffffffffffffffffffffffffff\n  and\n  mul\n  or\n  swap1\n  sstore\n  pop\n    /* \"atta-movies/ERC721/binance/ERC721VendingMachineAutoIdForKlay.sol\":22830:23074  constructor(\r... */\n  pop\n  pop\n    /* \"atta-movies/ERC721/binance/ERC721VendingMachineAutoIdForKlay.sol\":22433:24128  contract VendingMachine is Ownable {\r... */\n  jump(tag_12)\n    /* \"atta-movies/ERC721/binance/ERC721VendingMachineAutoIdForKlay.sol\":6903:7001  function _msgSender() internal view virtual returns (address) {\r... */\ntag_8:\n    /* \"atta-movies/ERC721/binance/ERC721VendingMachineAutoIdForKlay.sol\":6956:6963  address */\n  0x00\n    /* \"atta-movies/ERC721/binance/ERC721VendingMachineAutoIdForKlay.sol\":6983:6993  msg.sender */\n  caller\n    /* \"atta-movies/ERC721/binance/ERC721VendingMachineAutoIdForKlay.sol\":6976:6993  return msg.sender */\n  swap1\n  pop\n    /* \"atta-movies/ERC721/binance/ERC721VendingMachineAutoIdForKlay.sol\":6903:7001  function _msgSender() internal view virtual returns (address) {\r... */\n  swap1\n  jump\t// out\n    /* \"#utility.yul\":7:150   */\ntag_15:\n  0x00\n    /* \"#utility.yul\":95:101   */\n  dup2\n    /* \"#utility.yul\":89:102   */\n  mload\n    /* \"#utility.yul\":80:102   */\n  swap1\n  pop\n    /* \"#utility.yul\":111:144   */\n  tag_17\n    /* \"#utility.yul\":138:143   */\n  dup2\n    /* \"#utility.yul\":111:144   */\n  tag_18\n  jump\t// in\ntag_17:\n    /* \"#utility.yul\":70:150   */\n  swap3\n  swap2\n  pop\n  pop\n  jump\t// out\n    /* \"#utility.yul\":156:596   */\ntag_3:\n  0x00\n  dup1\n    /* \"#utility.yul\":292:294   */\n  0x40\n    /* \"#utility.yul\":280:289   */\n  dup4\n    /* \"#utility.yul\":271:278   */\n  dup6\n    /* \"#utility.yul\":267:290   */\n  sub\n    /* \"#utility.yul\":263:295   */\n  slt\n    /* \"#utility.yul\":260:262   */\n  iszero\n  tag_20\n  jumpi\n    /* \"#utility.yul\":308:309   */\n  0x00\n    /* \"#utility.yul\":305:306   */\n  dup1\n    /* \"#utility.yul\":298:310   */\n  revert\n    /* \"#utility.yul\":260:262   */\ntag_20:\n    /* \"#utility.yul\":351:352   */\n  0x00\n    /* \"#utility.yul\":376:440   */\n  tag_21\n    /* \"#utility.yul\":432:439   */\n  dup6\n    /* \"#utility.yul\":423:429   */\n  dup3\n    /* \"#utility.yul\":412:421   */\n  dup7\n    /* \"#utility.yul\":408:430   */\n  add\n    /* \"#utility.yul\":376:440   */\n  tag_15\n  jump\t// in\ntag_21:\n    /* \"#utility.yul\":366:440   */\n  swap3\n  pop\n    /* \"#utility.yul\":322:450   */\n  pop\n    /* \"#utility.yul\":489:491   */\n  0x20\n    /* \"#utility.yul\":515:579   */\n  tag_22\n    /* \"#utility.yul\":571:578   */\n  dup6\n    /* \"#utility.yul\":562:568   */\n  dup3\n    /* \"#utility.yul\":551:560   */\n  dup7\n    /* \"#utility.yul\":547:569   */\n  add\n    /* \"#utility.yul\":515:579   */\n  tag_15\n  jump\t// in\ntag_22:\n    /* \"#utility.yul\":505:579   */\n  swap2\n  pop\n    /* \"#utility.yul\":460:589   */\n  pop\n    /* \"#utility.yul\":250:596   */\n  swap3\n  pop\n  swap3\n  swap1\n  pop\n  jump\t// out\n    /* \"#utility.yul\":602:698   */\ntag_23:\n  0x00\n    /* \"#utility.yul\":668:692   */\n  tag_25\n    /* \"#utility.yul\":686:691   */\n  dup3\n    /* \"#utility.yul\":668:692   */\n  tag_26\n  jump\t// in\ntag_25:\n    /* \"#utility.yul\":657:692   */\n  swap1\n  pop\n    /* \"#utility.yul\":647:698   */\n  swap2\n  swap1\n  pop\n  jump\t// out\n    /* \"#utility.yul\":704:830   */\ntag_26:\n  0x00\n    /* \"#utility.yul\":781:823   */\n  0xffffffffffffffffffffffffffffffffffffffff\n    /* \"#utility.yul\":774:779   */\n  dup3\n    /* \"#utility.yul\":770:824   */\n  and\n    /* \"#utility.yul\":759:824   */\n  swap1\n  pop\n    /* \"#utility.yul\":749:830   */\n  swap2\n  swap1\n  pop\n  jump\t// out\n    /* \"#utility.yul\":836:958   */\ntag_18:\n    /* \"#utility.yul\":909:933   */\n  tag_29\n    /* \"#utility.yul\":927:932   */\n  dup2\n    /* \"#utility.yul\":909:933   */\n  tag_23\n  jump\t// in\ntag_29:\n    /* \"#utility.yul\":902:907   */\n  dup2\n    /* \"#utility.yul\":899:934   */\n  eq\n    /* \"#utility.yul\":889:891   */\n  tag_30\n  jumpi\n    /* \"#utility.yul\":948:949   */\n  0x00\n    /* \"#utility.yul\":945:946   */\n  dup1\n    /* \"#utility.yul\":938:950   */\n  revert\n    /* \"#utility.yul\":889:891   */\ntag_30:\n    /* \"#utility.yul\":879:958   */\n  pop\n  jump\t// out\n    /* \"atta-movies/ERC721/binance/ERC721VendingMachineAutoIdForKlay.sol\":22433:24128  contract VendingMachine is Ownable {\r... */\ntag_12:\n  dataSize(sub_0)\n  dup1\n  dataOffset(sub_0)\n  0x00\n  codecopy\n  0x00\n  return\nstop\n\nsub_0: assembly {\n        /* \"atta-movies/ERC721/binance/ERC721VendingMachineAutoIdForKlay.sol\":22433:24128  contract VendingMachine is Ownable {\r... */\n      mstore(0x40, 0x80)\n      jumpi(tag_1, lt(calldatasize, 0x04))\n      shr(0xe0, calldataload(0x00))\n      dup1\n      0x715018a6\n      gt\n      tag_10\n      jumpi\n      dup1\n      0x715018a6\n      eq\n      tag_6\n      jumpi\n      dup1\n      0x8da5cb5b\n      eq\n      tag_7\n      jumpi\n      dup1\n      0xd3f50573\n      eq\n      tag_8\n      jumpi\n      dup1\n      0xf2fde38b\n      eq\n      tag_9\n      jumpi\n      jump(tag_1)\n    tag_10:\n      dup1\n      0x3e56e6c3\n      eq\n      tag_2\n      jumpi\n      dup1\n      0x432be4d0\n      eq\n      tag_3\n      jumpi\n      dup1\n      0x47ccca02\n      eq\n      tag_4\n      jumpi\n      dup1\n      0x61d027b3\n      eq\n      tag_5\n      jumpi\n    tag_1:\n      0x00\n      dup1\n      revert\n        /* \"atta-movies/ERC721/binance/ERC721VendingMachineAutoIdForKlay.sol\":23694:24121  function safeBuyToken(uint256 _uriTemplateId, uint256 _quantity) public payable{\r... */\n    tag_2:\n      tag_11\n      0x04\n      dup1\n      calldatasize\n      sub\n      dup2\n      add\n      swap1\n      tag_12\n      swap2\n      swap1\n      tag_13\n      jump\t// in\n    tag_12:\n      tag_14\n      jump\t// in\n    tag_11:\n      stop\n        /* \"atta-movies/ERC721/binance/ERC721VendingMachineAutoIdForKlay.sol\":22588:22639  mapping(uint256 => uint256) public _commodityPrices */\n    tag_3:\n      callvalue\n      dup1\n      iszero\n      tag_15\n      jumpi\n      0x00\n      dup1\n      revert\n    tag_15:\n      pop\n      tag_16\n      0x04\n      dup1\n      calldatasize\n      sub\n      dup2\n      add\n      swap1\n      tag_17\n      swap2\n      swap1\n      tag_18\n      jump\t// in\n    tag_17:\n      tag_19\n      jump\t// in\n    tag_16:\n      mload(0x40)\n      tag_20\n      swap2\n      swap1\n      tag_21\n      jump\t// in\n    tag_20:\n      mload(0x40)\n      dup1\n      swap2\n      sub\n      swap1\n      return\n        /* \"atta-movies/ERC721/binance/ERC721VendingMachineAutoIdForKlay.sol\":22511:22543  IERC721MintableAutoId public nft */\n    tag_4:\n      callvalue\n      dup1\n      iszero\n      tag_22\n      jumpi\n      0x00\n      dup1\n      revert\n    tag_22:\n      pop\n      tag_23\n      tag_24\n      jump\t// in\n    tag_23:\n      mload(0x40)\n      tag_25\n      swap2\n      swap1\n      tag_26\n      jump\t// in\n    tag_25:\n      mload(0x40)\n      dup1\n      swap2\n      sub\n      swap1\n      return\n        /* \"atta-movies/ERC721/binance/ERC721VendingMachineAutoIdForKlay.sol\":22552:22575  address public treasury */\n    tag_5:\n      callvalue\n      dup1\n      iszero\n      tag_27\n      jumpi\n      0x00\n      dup1\n      revert\n    tag_27:\n      pop\n      tag_28\n      tag_29\n      jump\t// in\n    tag_28:\n      mload(0x40)\n      tag_30\n      swap2\n      swap1\n      tag_31\n      jump\t// in\n    tag_30:\n      mload(0x40)\n      dup1\n      swap2\n      sub\n      swap1\n      return\n        /* \"atta-movies/ERC721/binance/ERC721VendingMachineAutoIdForKlay.sol\":8954:9102  function renounceOwnership() public virtual onlyOwner {\r... */\n    tag_6:\n      callvalue\n      dup1\n      iszero\n      tag_32\n      jumpi\n      0x00\n      dup1\n      revert\n    tag_32:\n      pop\n      tag_33\n      tag_34\n      jump\t// in\n    tag_33:\n      stop\n        /* \"atta-movies/ERC721/binance/ERC721VendingMachineAutoIdForKlay.sol\":8312:8391  function owner() public view returns (address) {\r... */\n    tag_7:\n      callvalue\n      dup1\n      iszero\n      tag_35\n      jumpi\n      0x00\n      dup1\n      revert\n    tag_35:\n      pop\n      tag_36\n      tag_37\n      jump\t// in\n    tag_36:\n      mload(0x40)\n      tag_38\n      swap2\n      swap1\n      tag_31\n      jump\t// in\n    tag_38:\n      mload(0x40)\n      dup1\n      swap2\n      sub\n      swap1\n      return\n        /* \"atta-movies/ERC721/binance/ERC721VendingMachineAutoIdForKlay.sol\":23279:23412  function safeListToken(uint256 _uriTemplateId, uint256 _price) public onlyOwner {\r... */\n    tag_8:\n      callvalue\n      dup1\n      iszero\n      tag_39\n      jumpi\n      0x00\n      dup1\n      revert\n    tag_39:\n      pop\n      tag_40\n      0x04\n      dup1\n      calldatasize\n      sub\n      dup2\n      add\n      swap1\n      tag_41\n      swap2\n      swap1\n      tag_13\n      jump\t// in\n    tag_41:\n      tag_42\n      jump\t// in\n    tag_40:\n      stop\n        /* \"atta-movies/ERC721/binance/ERC721VendingMachineAutoIdForKlay.sol\":9257:9501  function transferOwnership(address newOwner) public virtual onlyOwner {\r... */\n    tag_9:\n      callvalue\n      dup1\n      iszero\n      tag_43\n      jumpi\n      0x00\n      dup1\n      revert\n    tag_43:\n      pop\n      tag_44\n      0x04\n      dup1\n      calldatasize\n      sub\n      dup2\n      add\n      swap1\n      tag_45\n      swap2\n      swap1\n      tag_46\n      jump\t// in\n    tag_45:\n      tag_47\n      jump\t// in\n    tag_44:\n      stop\n        /* \"atta-movies/ERC721/binance/ERC721VendingMachineAutoIdForKlay.sol\":23694:24121  function safeBuyToken(uint256 _uriTemplateId, uint256 _quantity) public payable{\r... */\n    tag_14:\n        /* \"atta-movies/ERC721/binance/ERC721VendingMachineAutoIdForKlay.sol\":23825:23826  0 */\n      0x00\n        /* \"atta-movies/ERC721/binance/ERC721VendingMachineAutoIdForKlay.sol\":23792:23808  _commodityPrices */\n      0x03\n        /* \"atta-movies/ERC721/binance/ERC721VendingMachineAutoIdForKlay.sol\":23792:23824  _commodityPrices[_uriTemplateId] */\n      0x00\n        /* \"atta-movies/ERC721/binance/ERC721VendingMachineAutoIdForKlay.sol\":23809:23823  _uriTemplateId */\n      dup5\n        /* \"atta-movies/ERC721/binance/ERC721VendingMachineAutoIdForKlay.sol\":23792:23824  _commodityPrices[_uriTemplateId] */\n      dup2\n      mstore\n      0x20\n      add\n      swap1\n      dup2\n      mstore\n      0x20\n      add\n      0x00\n      keccak256\n      sload\n        /* \"atta-movies/ERC721/binance/ERC721VendingMachineAutoIdForKlay.sol\":23792:23826  _commodityPrices[_uriTemplateId]>0 */\n      gt\n        /* \"atta-movies/ERC721/binance/ERC721VendingMachineAutoIdForKlay.sol\":23784:23842  require(_commodityPrices[_uriTemplateId]>0, \"Not on list\") */\n      tag_49\n      jumpi\n      mload(0x40)\n      0x08c379a000000000000000000000000000000000000000000000000000000000\n      dup2\n      mstore\n      0x04\n      add\n      tag_50\n      swap1\n      tag_51\n      jump\t// in\n    tag_50:\n      mload(0x40)\n      dup1\n      swap2\n      sub\n      swap1\n      revert\n    tag_49:\n        /* \"atta-movies/ERC721/binance/ERC721VendingMachineAutoIdForKlay.sol\":23860:23869  uint256 i */\n      0x00\n        /* \"atta-movies/ERC721/binance/ERC721VendingMachineAutoIdForKlay.sol\":23855:23961  for (uint256 i = 0; i < _quantity; ++i) {\r... */\n    tag_52:\n        /* \"atta-movies/ERC721/binance/ERC721VendingMachineAutoIdForKlay.sol\":23879:23888  _quantity */\n      dup2\n        /* \"atta-movies/ERC721/binance/ERC721VendingMachineAutoIdForKlay.sol\":23875:23876  i */\n      dup2\n        /* \"atta-movies/ERC721/binance/ERC721VendingMachineAutoIdForKlay.sol\":23875:23888  i < _quantity */\n      lt\n        /* \"atta-movies/ERC721/binance/ERC721VendingMachineAutoIdForKlay.sol\":23855:23961  for (uint256 i = 0; i < _quantity; ++i) {\r... */\n      iszero\n      tag_53\n      jumpi\n        /* \"atta-movies/ERC721/binance/ERC721VendingMachineAutoIdForKlay.sol\":23910:23949  _buyToken(_msgSender(), _uriTemplateId) */\n      tag_55\n        /* \"atta-movies/ERC721/binance/ERC721VendingMachineAutoIdForKlay.sol\":23920:23932  _msgSender() */\n      tag_56\n        /* \"atta-movies/ERC721/binance/ERC721VendingMachineAutoIdForKlay.sol\":23920:23930  _msgSender */\n      tag_57\n        /* \"atta-movies/ERC721/binance/ERC721VendingMachineAutoIdForKlay.sol\":23920:23932  _msgSender() */\n      jump\t// in\n    tag_56:\n        /* \"atta-movies/ERC721/binance/ERC721VendingMachineAutoIdForKlay.sol\":23934:23948  _uriTemplateId */\n      dup5\n        /* \"atta-movies/ERC721/binance/ERC721VendingMachineAutoIdForKlay.sol\":23910:23919  _buyToken */\n      tag_58\n        /* \"atta-movies/ERC721/binance/ERC721VendingMachineAutoIdForKlay.sol\":23910:23949  _buyToken(_msgSender(), _uriTemplateId) */\n      jump\t// in\n    tag_55:\n        /* \"atta-movies/ERC721/binance/ERC721VendingMachineAutoIdForKlay.sol\":23890:23893  ++i */\n      dup1\n      tag_59\n      swap1\n      tag_60\n      jump\t// in\n    tag_59:\n      swap1\n      pop\n        /* \"atta-movies/ERC721/binance/ERC721VendingMachineAutoIdForKlay.sol\":23855:23961  for (uint256 i = 0; i < _quantity; ++i) {\r... */\n      jump(tag_52)\n    tag_53:\n      pop\n        /* \"atta-movies/ERC721/binance/ERC721VendingMachineAutoIdForKlay.sol\":23972:23984  bool success */\n      0x00\n        /* \"atta-movies/ERC721/binance/ERC721VendingMachineAutoIdForKlay.sol\":23990:23998  treasury */\n      0x02\n      0x00\n      swap1\n      sload\n      swap1\n      0x0100\n      exp\n      swap1\n      div\n      0xffffffffffffffffffffffffffffffffffffffff\n      and\n        /* \"atta-movies/ERC721/binance/ERC721VendingMachineAutoIdForKlay.sol\":23990:24003  treasury.call */\n      0xffffffffffffffffffffffffffffffffffffffff\n      and\n        /* \"atta-movies/ERC721/binance/ERC721VendingMachineAutoIdForKlay.sol\":24011:24058  _commodityPrices[_uriTemplateId].mul(_quantity) */\n      tag_61\n        /* \"atta-movies/ERC721/binance/ERC721VendingMachineAutoIdForKlay.sol\":24048:24057  _quantity */\n      dup4\n        /* \"atta-movies/ERC721/binance/ERC721VendingMachineAutoIdForKlay.sol\":24011:24027  _commodityPrices */\n      0x03\n        /* \"atta-movies/ERC721/binance/ERC721VendingMachineAutoIdForKlay.sol\":24011:24043  _commodityPrices[_uriTemplateId] */\n      0x00\n        /* \"atta-movies/ERC721/binance/ERC721VendingMachineAutoIdForKlay.sol\":24028:24042  _uriTemplateId */\n      dup8\n        /* \"atta-movies/ERC721/binance/ERC721VendingMachineAutoIdForKlay.sol\":24011:24043  _commodityPrices[_uriTemplateId] */\n      dup2\n      mstore\n      0x20\n      add\n      swap1\n      dup2\n      mstore\n      0x20\n      add\n      0x00\n      keccak256\n      sload\n        /* \"atta-movies/ERC721/binance/ERC721VendingMachineAutoIdForKlay.sol\":24011:24047  _commodityPrices[_uriTemplateId].mul */\n      tag_62\n      swap1\n        /* \"atta-movies/ERC721/binance/ERC721VendingMachineAutoIdForKlay.sol\":24011:24058  _commodityPrices[_uriTemplateId].mul(_quantity) */\n      swap2\n      swap1\n      0xffffffff\n      and\n      jump\t// in\n    tag_61:\n        /* \"atta-movies/ERC721/binance/ERC721VendingMachineAutoIdForKlay.sol\":23990:24063  treasury.call{value: _commodityPrices[_uriTemplateId].mul(_quantity)}(\"\") */\n      mload(0x40)\n      tag_63\n      swap1\n      tag_64\n      jump\t// in\n    tag_63:\n      0x00\n      mload(0x40)\n      dup1\n      dup4\n      sub\n      dup2\n      dup6\n      dup8\n      gas\n      call\n      swap3\n      pop\n      pop\n      pop\n      returndatasize\n      dup1\n      0x00\n      dup2\n      eq\n      tag_67\n      jumpi\n      mload(0x40)\n      swap2\n      pop\n      and(add(returndatasize, 0x3f), not(0x1f))\n      dup3\n      add\n      0x40\n      mstore\n      returndatasize\n      dup3\n      mstore\n      returndatasize\n      0x00\n      0x20\n      dup5\n      add\n      returndatacopy\n      jump(tag_66)\n    tag_67:\n      0x60\n      swap2\n      pop\n    tag_66:\n      pop\n        /* \"atta-movies/ERC721/binance/ERC721VendingMachineAutoIdForKlay.sol\":23971:24063  (bool success, ) = treasury.call{value: _commodityPrices[_uriTemplateId].mul(_quantity)}(\"\") */\n      pop\n      swap1\n      pop\n        /* \"atta-movies/ERC721/binance/ERC721VendingMachineAutoIdForKlay.sol\":24082:24089  success */\n      dup1\n        /* \"atta-movies/ERC721/binance/ERC721VendingMachineAutoIdForKlay.sol\":24074:24113  require(success, \"Failed to send klay\") */\n      tag_68\n      jumpi\n      mload(0x40)\n      0x08c379a000000000000000000000000000000000000000000000000000000000\n      dup2\n      mstore\n      0x04\n      add\n      tag_69\n      swap1\n      tag_70\n      jump\t// in\n    tag_69:\n      mload(0x40)\n      dup1\n      swap2\n      sub\n      swap1\n      revert\n    tag_68:\n        /* \"atta-movies/ERC721/binance/ERC721VendingMachineAutoIdForKlay.sol\":23694:24121  function safeBuyToken(uint256 _uriTemplateId, uint256 _quantity) public payable{\r... */\n      pop\n      pop\n      pop\n      jump\t// out\n        /* \"atta-movies/ERC721/binance/ERC721VendingMachineAutoIdForKlay.sol\":22588:22639  mapping(uint256 => uint256) public _commodityPrices */\n    tag_19:\n      mstore(0x20, 0x03)\n      dup1\n      0x00\n      mstore\n      keccak256(0x00, 0x40)\n      0x00\n      swap2\n      pop\n      swap1\n      pop\n      sload\n      dup2\n      jump\t// out\n        /* \"atta-movies/ERC721/binance/ERC721VendingMachineAutoIdForKlay.sol\":22511:22543  IERC721MintableAutoId public nft */\n    tag_24:\n      0x01\n      0x00\n      swap1\n      sload\n      swap1\n      0x0100\n      exp\n      swap1\n      div\n      0xffffffffffffffffffffffffffffffffffffffff\n      and\n      dup2\n      jump\t// out\n        /* \"atta-movies/ERC721/binance/ERC721VendingMachineAutoIdForKlay.sol\":22552:22575  address public treasury */\n    tag_29:\n      0x02\n      0x00\n      swap1\n      sload\n      swap1\n      0x0100\n      exp\n      swap1\n      div\n      0xffffffffffffffffffffffffffffffffffffffff\n      and\n      dup2\n      jump\t// out\n        /* \"atta-movies/ERC721/binance/ERC721VendingMachineAutoIdForKlay.sol\":8954:9102  function renounceOwnership() public virtual onlyOwner {\r... */\n    tag_34:\n        /* \"atta-movies/ERC721/binance/ERC721VendingMachineAutoIdForKlay.sol\":8534:8546  _msgSender() */\n      tag_72\n        /* \"atta-movies/ERC721/binance/ERC721VendingMachineAutoIdForKlay.sol\":8534:8544  _msgSender */\n      tag_57\n        /* \"atta-movies/ERC721/binance/ERC721VendingMachineAutoIdForKlay.sol\":8534:8546  _msgSender() */\n      jump\t// in\n    tag_72:\n        /* \"atta-movies/ERC721/binance/ERC721VendingMachineAutoIdForKlay.sol\":8524:8546  _owner == _msgSender() */\n      0xffffffffffffffffffffffffffffffffffffffff\n      and\n        /* \"atta-movies/ERC721/binance/ERC721VendingMachineAutoIdForKlay.sol\":8524:8530  _owner */\n      0x00\n      dup1\n      sload\n      swap1\n      0x0100\n      exp\n      swap1\n      div\n      0xffffffffffffffffffffffffffffffffffffffff\n      and\n        /* \"atta-movies/ERC721/binance/ERC721VendingMachineAutoIdForKlay.sol\":8524:8546  _owner == _msgSender() */\n      0xffffffffffffffffffffffffffffffffffffffff\n      and\n      eq\n        /* \"atta-movies/ERC721/binance/ERC721VendingMachineAutoIdForKlay.sol\":8516:8583  require(_owner == _msgSender(), \"Ownable: caller is not the owner\") */\n      tag_73\n      jumpi\n      mload(0x40)\n      0x08c379a000000000000000000000000000000000000000000000000000000000\n      dup2\n      mstore\n      0x04\n      add\n      tag_74\n      swap1\n      tag_75\n      jump\t// in\n    tag_74:\n      mload(0x40)\n      dup1\n      swap2\n      sub\n      swap1\n      revert\n    tag_73:\n        /* \"atta-movies/ERC721/binance/ERC721VendingMachineAutoIdForKlay.sol\":9061:9062  0 */\n      0x00\n        /* \"atta-movies/ERC721/binance/ERC721VendingMachineAutoIdForKlay.sol\":9024:9064  OwnershipTransferred(_owner, address(0)) */\n      0xffffffffffffffffffffffffffffffffffffffff\n      and\n        /* \"atta-movies/ERC721/binance/ERC721VendingMachineAutoIdForKlay.sol\":9045:9051  _owner */\n      0x00\n      dup1\n      sload\n      swap1\n      0x0100\n      exp\n      swap1\n      div\n      0xffffffffffffffffffffffffffffffffffffffff\n      and\n        /* \"atta-movies/ERC721/binance/ERC721VendingMachineAutoIdForKlay.sol\":9024:9064  OwnershipTransferred(_owner, address(0)) */\n      0xffffffffffffffffffffffffffffffffffffffff\n      and\n      0x8be0079c531659141344cd1fd0a4f28419497f9722a3daafe3b4186f6b6457e0\n      mload(0x40)\n      mload(0x40)\n      dup1\n      swap2\n      sub\n      swap1\n      log3\n        /* \"atta-movies/ERC721/binance/ERC721VendingMachineAutoIdForKlay.sol\":9092:9093  0 */\n      0x00\n        /* \"atta-movies/ERC721/binance/ERC721VendingMachineAutoIdForKlay.sol\":9075:9081  _owner */\n      dup1\n      0x00\n        /* \"atta-movies/ERC721/binance/ERC721VendingMachineAutoIdForKlay.sol\":9075:9094  _owner = address(0) */\n      0x0100\n      exp\n      dup2\n      sload\n      dup2\n      0xffffffffffffffffffffffffffffffffffffffff\n      mul\n      not\n      and\n      swap1\n      dup4\n      0xffffffffffffffffffffffffffffffffffffffff\n      and\n      mul\n      or\n      swap1\n      sstore\n      pop\n        /* \"atta-movies/ERC721/binance/ERC721VendingMachineAutoIdForKlay.sol\":8954:9102  function renounceOwnership() public virtual onlyOwner {\r... */\n      jump\t// out\n        /* \"atta-movies/ERC721/binance/ERC721VendingMachineAutoIdForKlay.sol\":8312:8391  function owner() public view returns (address) {\r... */\n    tag_37:\n        /* \"atta-movies/ERC721/binance/ERC721VendingMachineAutoIdForKlay.sol\":8350:8357  address */\n      0x00\n        /* \"atta-movies/ERC721/binance/ERC721VendingMachineAutoIdForKlay.sol\":8377:8383  _owner */\n      dup1\n      0x00\n      swap1\n      sload\n      swap1\n      0x0100\n      exp\n      swap1\n      div\n      0xffffffffffffffffffffffffffffffffffffffff\n      and\n        /* \"atta-movies/ERC721/binance/ERC721VendingMachineAutoIdForKlay.sol\":8370:8383  return _owner */\n      swap1\n      pop\n        /* \"atta-movies/ERC721/binance/ERC721VendingMachineAutoIdForKlay.sol\":8312:8391  function owner() public view returns (address) {\r... */\n      swap1\n      jump\t// out\n        /* \"atta-movies/ERC721/binance/ERC721VendingMachineAutoIdForKlay.sol\":23279:23412  function safeListToken(uint256 _uriTemplateId, uint256 _price) public onlyOwner {\r... */\n    tag_42:\n        /* \"atta-movies/ERC721/binance/ERC721VendingMachineAutoIdForKlay.sol\":8534:8546  _msgSender() */\n      tag_79\n        /* \"atta-movies/ERC721/binance/ERC721VendingMachineAutoIdForKlay.sol\":8534:8544  _msgSender */\n      tag_57\n        /* \"atta-movies/ERC721/binance/ERC721VendingMachineAutoIdForKlay.sol\":8534:8546  _msgSender() */\n      jump\t// in\n    tag_79:\n        /* \"atta-movies/ERC721/binance/ERC721VendingMachineAutoIdForKlay.sol\":8524:8546  _owner == _msgSender() */\n      0xffffffffffffffffffffffffffffffffffffffff\n      and\n        /* \"atta-movies/ERC721/binance/ERC721VendingMachineAutoIdForKlay.sol\":8524:8530  _owner */\n      0x00\n      dup1\n      sload\n      swap1\n      0x0100\n      exp\n      swap1\n      div\n      0xffffffffffffffffffffffffffffffffffffffff\n      and\n        /* \"atta-movies/ERC721/binance/ERC721VendingMachineAutoIdForKlay.sol\":8524:8546  _owner == _msgSender() */\n      0xffffffffffffffffffffffffffffffffffffffff\n      and\n      eq\n        /* \"atta-movies/ERC721/binance/ERC721VendingMachineAutoIdForKlay.sol\":8516:8583  require(_owner == _msgSender(), \"Ownable: caller is not the owner\") */\n      tag_80\n      jumpi\n      mload(0x40)\n      0x08c379a000000000000000000000000000000000000000000000000000000000\n      dup2\n      mstore\n      0x04\n      add\n      tag_81\n      swap1\n      tag_75\n      jump\t// in\n    tag_81:\n      mload(0x40)\n      dup1\n      swap2\n      sub\n      swap1\n      revert\n    tag_80:\n        /* \"atta-movies/ERC721/binance/ERC721VendingMachineAutoIdForKlay.sol\":23370:23404  _listToken(_uriTemplateId, _price) */\n      tag_83\n        /* \"atta-movies/ERC721/binance/ERC721VendingMachineAutoIdForKlay.sol\":23381:23395  _uriTemplateId */\n      dup3\n        /* \"atta-movies/ERC721/binance/ERC721VendingMachineAutoIdForKlay.sol\":23397:23403  _price */\n      dup3\n        /* \"atta-movies/ERC721/binance/ERC721VendingMachineAutoIdForKlay.sol\":23370:23380  _listToken */\n      tag_84\n        /* \"atta-movies/ERC721/binance/ERC721VendingMachineAutoIdForKlay.sol\":23370:23404  _listToken(_uriTemplateId, _price) */\n      jump\t// in\n    tag_83:\n        /* \"atta-movies/ERC721/binance/ERC721VendingMachineAutoIdForKlay.sol\":23279:23412  function safeListToken(uint256 _uriTemplateId, uint256 _price) public onlyOwner {\r... */\n      pop\n      pop\n      jump\t// out\n        /* \"atta-movies/ERC721/binance/ERC721VendingMachineAutoIdForKlay.sol\":9257:9501  function transferOwnership(address newOwner) public virtual onlyOwner {\r... */\n    tag_47:\n        /* \"atta-movies/ERC721/binance/ERC721VendingMachineAutoIdForKlay.sol\":8534:8546  _msgSender() */\n      tag_86\n        /* \"atta-movies/ERC721/binance/ERC721VendingMachineAutoIdForKlay.sol\":8534:8544  _msgSender */\n      tag_57\n        /* \"atta-movies/ERC721/binance/ERC721VendingMachineAutoIdForKlay.sol\":8534:8546  _msgSender() */\n      jump\t// in\n    tag_86:\n        /* \"atta-movies/ERC721/binance/ERC721VendingMachineAutoIdForKlay.sol\":8524:8546  _owner == _msgSender() */\n      0xffffffffffffffffffffffffffffffffffffffff\n      and\n        /* \"atta-movies/ERC721/binance/ERC721VendingMachineAutoIdForKlay.sol\":8524:8530  _owner */\n      0x00\n      dup1\n      sload\n      swap1\n      0x0100\n      exp\n      swap1\n      div\n      0xffffffffffffffffffffffffffffffffffffffff\n      and\n        /* \"atta-movies/ERC721/binance/ERC721VendingMachineAutoIdForKlay.sol\":8524:8546  _owner == _msgSender() */\n      0xffffffffffffffffffffffffffffffffffffffff\n      and\n      eq\n        /* \"atta-movies/ERC721/binance/ERC721VendingMachineAutoIdForKlay.sol\":8516:8583  require(_owner == _msgSender(), \"Ownable: caller is not the owner\") */\n      tag_87\n      jumpi\n      mload(0x40)\n      0x08c379a000000000000000000000000000000000000000000000000000000000\n      dup2\n      mstore\n      0x04\n      add\n      tag_88\n      swap1\n      tag_75\n      jump\t// in\n    tag_88:\n      mload(0x40)\n      dup1\n      swap2\n      sub\n      swap1\n      revert\n    tag_87:\n        /* \"atta-movies/ERC721/binance/ERC721VendingMachineAutoIdForKlay.sol\":9366:9367  0 */\n      0x00\n        /* \"atta-movies/ERC721/binance/ERC721VendingMachineAutoIdForKlay.sol\":9346:9368  newOwner != address(0) */\n      0xffffffffffffffffffffffffffffffffffffffff\n      and\n        /* \"atta-movies/ERC721/binance/ERC721VendingMachineAutoIdForKlay.sol\":9346:9354  newOwner */\n      dup2\n        /* \"atta-movies/ERC721/binance/ERC721VendingMachineAutoIdForKlay.sol\":9346:9368  newOwner != address(0) */\n      0xffffffffffffffffffffffffffffffffffffffff\n      and\n      eq\n      iszero\n        /* \"atta-movies/ERC721/binance/ERC721VendingMachineAutoIdForKlay.sol\":9338:9411  require(newOwner != address(0), \"Ownable: new owner is the zero address\") */\n      tag_90\n      jumpi\n      mload(0x40)\n      0x08c379a000000000000000000000000000000000000000000000000000000000\n      dup2\n      mstore\n      0x04\n      add\n      tag_91\n      swap1\n      tag_92\n      jump\t// in\n    tag_91:\n      mload(0x40)\n      dup1\n      swap2\n      sub\n      swap1\n      revert\n    tag_90:\n        /* \"atta-movies/ERC721/binance/ERC721VendingMachineAutoIdForKlay.sol\":9456:9464  newOwner */\n      dup1\n        /* \"atta-movies/ERC721/binance/ERC721VendingMachineAutoIdForKlay.sol\":9427:9465  OwnershipTransferred(_owner, newOwner) */\n      0xffffffffffffffffffffffffffffffffffffffff\n      and\n        /* \"atta-movies/ERC721/binance/ERC721VendingMachineAutoIdForKlay.sol\":9448:9454  _owner */\n      0x00\n      dup1\n      sload\n      swap1\n      0x0100\n      exp\n      swap1\n      div\n      0xffffffffffffffffffffffffffffffffffffffff\n      and\n        /* \"atta-movies/ERC721/binance/ERC721VendingMachineAutoIdForKlay.sol\":9427:9465  OwnershipTransferred(_owner, newOwner) */\n      0xffffffffffffffffffffffffffffffffffffffff\n      and\n      0x8be0079c531659141344cd1fd0a4f28419497f9722a3daafe3b4186f6b6457e0\n      mload(0x40)\n      mload(0x40)\n      dup1\n      swap2\n      sub\n      swap1\n      log3\n        /* \"atta-movies/ERC721/binance/ERC721VendingMachineAutoIdForKlay.sol\":9485:9493  newOwner */\n      dup1\n        /* \"atta-movies/ERC721/binance/ERC721VendingMachineAutoIdForKlay.sol\":9476:9482  _owner */\n      0x00\n      dup1\n        /* \"atta-movies/ERC721/binance/ERC721VendingMachineAutoIdForKlay.sol\":9476:9493  _owner = newOwner */\n      0x0100\n      exp\n      dup2\n      sload\n      dup2\n      0xffffffffffffffffffffffffffffffffffffffff\n      mul\n      not\n      and\n      swap1\n      dup4\n      0xffffffffffffffffffffffffffffffffffffffff\n      and\n      mul\n      or\n      swap1\n      sstore\n      pop\n        /* \"atta-movies/ERC721/binance/ERC721VendingMachineAutoIdForKlay.sol\":9257:9501  function transferOwnership(address newOwner) public virtual onlyOwner {\r... */\n      pop\n      jump\t// out\n        /* \"atta-movies/ERC721/binance/ERC721VendingMachineAutoIdForKlay.sol\":6903:7001  function _msgSender() internal view virtual returns (address) {\r... */\n    tag_57:\n        /* \"atta-movies/ERC721/binance/ERC721VendingMachineAutoIdForKlay.sol\":6956:6963  address */\n      0x00\n        /* \"atta-movies/ERC721/binance/ERC721VendingMachineAutoIdForKlay.sol\":6983:6993  msg.sender */\n      caller\n        /* \"atta-movies/ERC721/binance/ERC721VendingMachineAutoIdForKlay.sol\":6976:6993  return msg.sender */\n      swap1\n      pop\n        /* \"atta-movies/ERC721/binance/ERC721VendingMachineAutoIdForKlay.sol\":6903:7001  function _msgSender() internal view virtual returns (address) {\r... */\n      swap1\n      jump\t// out\n        /* \"atta-movies/ERC721/binance/ERC721VendingMachineAutoIdForKlay.sol\":23424:23682  function _buyToken(address _buyer, uint256 _uriTemplateId) internal {\r... */\n    tag_58:\n        /* \"atta-movies/ERC721/binance/ERC721VendingMachineAutoIdForKlay.sol\":23503:23518  uint256 tokenId */\n      0x00\n        /* \"atta-movies/ERC721/binance/ERC721VendingMachineAutoIdForKlay.sol\":23521:23524  nft */\n      0x01\n      0x00\n      swap1\n      sload\n      swap1\n      0x0100\n      exp\n      swap1\n      div\n      0xffffffffffffffffffffffffffffffffffffffff\n      and\n        /* \"atta-movies/ERC721/binance/ERC721VendingMachineAutoIdForKlay.sol\":23521:23539  nft._currentNextId */\n      0xffffffffffffffffffffffffffffffffffffffff\n      and\n      0x1c178087\n        /* \"atta-movies/ERC721/binance/ERC721VendingMachineAutoIdForKlay.sol\":23521:23541  nft._currentNextId() */\n      mload(0x40)\n      dup2\n      0xffffffff\n      and\n      0xe0\n      shl\n      dup2\n      mstore\n      0x04\n      add\n      0x20\n      mload(0x40)\n      dup1\n      dup4\n      sub\n      dup2\n      dup7\n      dup1\n      extcodesize\n      iszero\n      dup1\n      iszero\n      tag_95\n      jumpi\n      0x00\n      dup1\n      revert\n    tag_95:\n      pop\n      gas\n      staticcall\n      iszero\n      dup1\n      iszero\n      tag_97\n      jumpi\n      returndatasize\n      0x00\n      dup1\n      returndatacopy\n      revert(0x00, returndatasize)\n    tag_97:\n      pop\n      pop\n      pop\n      pop\n      mload(0x40)\n      returndatasize\n      not(0x1f)\n      0x1f\n      dup3\n      add\n      and\n      dup3\n      add\n      dup1\n      0x40\n      mstore\n      pop\n      dup2\n      add\n      swap1\n      tag_98\n      swap2\n      swap1\n      tag_99\n      jump\t// in\n    tag_98:\n        /* \"atta-movies/ERC721/binance/ERC721VendingMachineAutoIdForKlay.sol\":23503:23541  uint256 tokenId = nft._currentNextId() */\n      swap1\n      pop\n        /* \"atta-movies/ERC721/binance/ERC721VendingMachineAutoIdForKlay.sol\":23552:23555  nft */\n      0x01\n      0x00\n      swap1\n      sload\n      swap1\n      0x0100\n      exp\n      swap1\n      div\n      0xffffffffffffffffffffffffffffffffffffffff\n      and\n        /* \"atta-movies/ERC721/binance/ERC721VendingMachineAutoIdForKlay.sol\":23552:23564  nft.safeMint */\n      0xffffffffffffffffffffffffffffffffffffffff\n      and\n      0xa1448194\n        /* \"atta-movies/ERC721/binance/ERC721VendingMachineAutoIdForKlay.sol\":23565:23571  _buyer */\n      dup5\n        /* \"atta-movies/ERC721/binance/ERC721VendingMachineAutoIdForKlay.sol\":23573:23587  _uriTemplateId */\n      dup5\n        /* \"atta-movies/ERC721/binance/ERC721VendingMachineAutoIdForKlay.sol\":23552:23588  nft.safeMint(_buyer, _uriTemplateId) */\n      mload(0x40)\n      dup4\n      0xffffffff\n      and\n      0xe0\n      shl\n      dup2\n      mstore\n      0x04\n      add\n      tag_100\n      swap3\n      swap2\n      swap1\n      tag_101\n      jump\t// in\n    tag_100:\n      0x00\n      mload(0x40)\n      dup1\n      dup4\n      sub\n      dup2\n      0x00\n      dup8\n      dup1\n      extcodesize\n      iszero\n      dup1\n      iszero\n      tag_102\n      jumpi\n      0x00\n      dup1\n      revert\n    tag_102:\n      pop\n      gas\n      call\n      iszero\n      dup1\n      iszero\n      tag_104\n      jumpi\n      returndatasize\n      0x00\n      dup1\n      returndatacopy\n      revert(0x00, returndatasize)\n    tag_104:\n      pop\n      pop\n      pop\n      pop\n        /* \"atta-movies/ERC721/binance/ERC721VendingMachineAutoIdForKlay.sol\":23632:23639  tokenId */\n      dup1\n        /* \"atta-movies/ERC721/binance/ERC721VendingMachineAutoIdForKlay.sol\":23616:23630  _uriTemplateId */\n      dup3\n        /* \"atta-movies/ERC721/binance/ERC721VendingMachineAutoIdForKlay.sol\":23608:23614  _buyer */\n      dup5\n        /* \"atta-movies/ERC721/binance/ERC721VendingMachineAutoIdForKlay.sol\":23604:23674  Buy(_buyer, _uriTemplateId, tokenId, _commodityPrices[_uriTemplateId]) */\n      0xffffffffffffffffffffffffffffffffffffffff\n      and\n      0xbeae048c6d270d9469f86cf6e8fedda3c60ad770f16c24c9fc131c8e9a09101d\n        /* \"atta-movies/ERC721/binance/ERC721VendingMachineAutoIdForKlay.sol\":23641:23657  _commodityPrices */\n      0x03\n        /* \"atta-movies/ERC721/binance/ERC721VendingMachineAutoIdForKlay.sol\":23641:23673  _commodityPrices[_uriTemplateId] */\n      0x00\n        /* \"atta-movies/ERC721/binance/ERC721VendingMachineAutoIdForKlay.sol\":23658:23672  _uriTemplateId */\n      dup8\n        /* \"atta-movies/ERC721/binance/ERC721VendingMachineAutoIdForKlay.sol\":23641:23673  _commodityPrices[_uriTemplateId] */\n      dup2\n      mstore\n      0x20\n      add\n      swap1\n      dup2\n      mstore\n      0x20\n      add\n      0x00\n      keccak256\n      sload\n        /* \"atta-movies/ERC721/binance/ERC721VendingMachineAutoIdForKlay.sol\":23604:23674  Buy(_buyer, _uriTemplateId, tokenId, _commodityPrices[_uriTemplateId]) */\n      mload(0x40)\n      tag_105\n      swap2\n      swap1\n      tag_21\n      jump\t// in\n    tag_105:\n      mload(0x40)\n      dup1\n      swap2\n      sub\n      swap1\n      log4\n        /* \"atta-movies/ERC721/binance/ERC721VendingMachineAutoIdForKlay.sol\":23424:23682  function _buyToken(address _buyer, uint256 _uriTemplateId) internal {\r... */\n      pop\n      pop\n      pop\n      jump\t// out\n        /* \"atta-movies/ERC721/binance/ERC721VendingMachineAutoIdForKlay.sol\":2380:2851  function mul(uint256 a, uint256 b) internal pure returns (uint256) {\r... */\n    tag_62:\n        /* \"atta-movies/ERC721/binance/ERC721VendingMachineAutoIdForKlay.sol\":2438:2445  uint256 */\n      0x00\n        /* \"atta-movies/ERC721/binance/ERC721VendingMachineAutoIdForKlay.sol\":2688:2689  0 */\n      dup1\n        /* \"atta-movies/ERC721/binance/ERC721VendingMachineAutoIdForKlay.sol\":2683:2684  a */\n      dup4\n        /* \"atta-movies/ERC721/binance/ERC721VendingMachineAutoIdForKlay.sol\":2683:2689  a == 0 */\n      eq\n        /* \"atta-movies/ERC721/binance/ERC721VendingMachineAutoIdForKlay.sol\":2679:2726  if (a == 0) {\r... */\n      iszero\n      tag_107\n      jumpi\n        /* \"atta-movies/ERC721/binance/ERC721VendingMachineAutoIdForKlay.sol\":2713:2714  0 */\n      0x00\n        /* \"atta-movies/ERC721/binance/ERC721VendingMachineAutoIdForKlay.sol\":2706:2714  return 0 */\n      swap1\n      pop\n      jump(tag_106)\n        /* \"atta-movies/ERC721/binance/ERC721VendingMachineAutoIdForKlay.sol\":2679:2726  if (a == 0) {\r... */\n    tag_107:\n        /* \"atta-movies/ERC721/binance/ERC721VendingMachineAutoIdForKlay.sol\":2738:2747  uint256 c */\n      0x00\n        /* \"atta-movies/ERC721/binance/ERC721VendingMachineAutoIdForKlay.sol\":2754:2755  b */\n      dup3\n        /* \"atta-movies/ERC721/binance/ERC721VendingMachineAutoIdForKlay.sol\":2750:2751  a */\n      dup5\n        /* \"atta-movies/ERC721/binance/ERC721VendingMachineAutoIdForKlay.sol\":2750:2755  a * b */\n      tag_108\n      swap2\n      swap1\n      tag_109\n      jump\t// in\n    tag_108:\n        /* \"atta-movies/ERC721/binance/ERC721VendingMachineAutoIdForKlay.sol\":2738:2755  uint256 c = a * b */\n      swap1\n      pop\n        /* \"atta-movies/ERC721/binance/ERC721VendingMachineAutoIdForKlay.sol\":2783:2784  b */\n      dup3\n        /* \"atta-movies/ERC721/binance/ERC721VendingMachineAutoIdForKlay.sol\":2778:2779  a */\n      dup5\n        /* \"atta-movies/ERC721/binance/ERC721VendingMachineAutoIdForKlay.sol\":2774:2775  c */\n      dup3\n        /* \"atta-movies/ERC721/binance/ERC721VendingMachineAutoIdForKlay.sol\":2774:2779  c / a */\n      tag_110\n      swap2\n      swap1\n      tag_111\n      jump\t// in\n    tag_110:\n        /* \"atta-movies/ERC721/binance/ERC721VendingMachineAutoIdForKlay.sol\":2774:2784  c / a == b */\n      eq\n        /* \"atta-movies/ERC721/binance/ERC721VendingMachineAutoIdForKlay.sol\":2766:2822  require(c / a == b, \"SafeMath: multiplication overflow\") */\n      tag_112\n      jumpi\n      mload(0x40)\n      0x08c379a000000000000000000000000000000000000000000000000000000000\n      dup2\n      mstore\n      0x04\n      add\n      tag_113\n      swap1\n      tag_114\n      jump\t// in\n    tag_113:\n      mload(0x40)\n      dup1\n      swap2\n      sub\n      swap1\n      revert\n    tag_112:\n        /* \"atta-movies/ERC721/binance/ERC721VendingMachineAutoIdForKlay.sol\":2842:2843  c */\n      dup1\n        /* \"atta-movies/ERC721/binance/ERC721VendingMachineAutoIdForKlay.sol\":2835:2843  return c */\n      swap2\n      pop\n      pop\n        /* \"atta-movies/ERC721/binance/ERC721VendingMachineAutoIdForKlay.sol\":2380:2851  function mul(uint256 a, uint256 b) internal pure returns (uint256) {\r... */\n    tag_106:\n      swap3\n      swap2\n      pop\n      pop\n      jump\t// out\n        /* \"atta-movies/ERC721/binance/ERC721VendingMachineAutoIdForKlay.sol\":23086:23267  function _listToken(uint256 _uriTemplateId, uint256 _price) internal {\r... */\n    tag_84:\n        /* \"atta-movies/ERC721/binance/ERC721VendingMachineAutoIdForKlay.sol\":23201:23207  _price */\n      dup1\n        /* \"atta-movies/ERC721/binance/ERC721VendingMachineAutoIdForKlay.sol\":23166:23182  _commodityPrices */\n      0x03\n        /* \"atta-movies/ERC721/binance/ERC721VendingMachineAutoIdForKlay.sol\":23166:23198  _commodityPrices[_uriTemplateId] */\n      0x00\n        /* \"atta-movies/ERC721/binance/ERC721VendingMachineAutoIdForKlay.sol\":23183:23197  _uriTemplateId */\n      dup5\n        /* \"atta-movies/ERC721/binance/ERC721VendingMachineAutoIdForKlay.sol\":23166:23198  _commodityPrices[_uriTemplateId] */\n      dup2\n      mstore\n      0x20\n      add\n      swap1\n      dup2\n      mstore\n      0x20\n      add\n      0x00\n      keccak256\n        /* \"atta-movies/ERC721/binance/ERC721VendingMachineAutoIdForKlay.sol\":23166:23207  _commodityPrices[_uriTemplateId] = _price */\n      dup2\n      swap1\n      sstore\n      pop\n        /* \"atta-movies/ERC721/binance/ERC721VendingMachineAutoIdForKlay.sol\":23236:23250  _uriTemplateId */\n      dup2\n        /* \"atta-movies/ERC721/binance/ERC721VendingMachineAutoIdForKlay.sol\":23223:23259  PriceUpdate( _uriTemplateId, _price) */\n      0x92664190cca12aca9cd5309d87194bdda75bb51362d71c06e1a6f75c7c765711\n        /* \"atta-movies/ERC721/binance/ERC721VendingMachineAutoIdForKlay.sol\":23252:23258  _price */\n      dup3\n        /* \"atta-movies/ERC721/binance/ERC721VendingMachineAutoIdForKlay.sol\":23223:23259  PriceUpdate( _uriTemplateId, _price) */\n      mload(0x40)\n      tag_116\n      swap2\n      swap1\n      tag_21\n      jump\t// in\n    tag_116:\n      mload(0x40)\n      dup1\n      swap2\n      sub\n      swap1\n      log2\n        /* \"atta-movies/ERC721/binance/ERC721VendingMachineAutoIdForKlay.sol\":23086:23267  function _listToken(uint256 _uriTemplateId, uint256 _price) internal {\r... */\n      pop\n      pop\n      jump\t// out\n        /* \"#utility.yul\":7:146   */\n    tag_118:\n      0x00\n        /* \"#utility.yul\":91:97   */\n      dup2\n        /* \"#utility.yul\":78:98   */\n      calldataload\n        /* \"#utility.yul\":69:98   */\n      swap1\n      pop\n        /* \"#utility.yul\":107:140   */\n      tag_120\n        /* \"#utility.yul\":134:139   */\n      dup2\n        /* \"#utility.yul\":107:140   */\n      tag_121\n      jump\t// in\n    tag_120:\n        /* \"#utility.yul\":59:146   */\n      swap3\n      swap2\n      pop\n      pop\n      jump\t// out\n        /* \"#utility.yul\":152:291   */\n    tag_122:\n      0x00\n        /* \"#utility.yul\":236:242   */\n      dup2\n        /* \"#utility.yul\":223:243   */\n      calldataload\n        /* \"#utility.yul\":214:243   */\n      swap1\n      pop\n        /* \"#utility.yul\":252:285   */\n      tag_124\n        /* \"#utility.yul\":279:284   */\n      dup2\n        /* \"#utility.yul\":252:285   */\n      tag_125\n      jump\t// in\n    tag_124:\n        /* \"#utility.yul\":204:291   */\n      swap3\n      swap2\n      pop\n      pop\n      jump\t// out\n        /* \"#utility.yul\":297:440   */\n    tag_126:\n      0x00\n        /* \"#utility.yul\":385:391   */\n      dup2\n        /* \"#utility.yul\":379:392   */\n      mload\n        /* \"#utility.yul\":370:392   */\n      swap1\n      pop\n        /* \"#utility.yul\":401:434   */\n      tag_128\n        /* \"#utility.yul\":428:433   */\n      dup2\n        /* \"#utility.yul\":401:434   */\n      tag_125\n      jump\t// in\n    tag_128:\n        /* \"#utility.yul\":360:440   */\n      swap3\n      swap2\n      pop\n      pop\n      jump\t// out\n        /* \"#utility.yul\":446:708   */\n    tag_46:\n      0x00\n        /* \"#utility.yul\":554:556   */\n      0x20\n        /* \"#utility.yul\":542:551   */\n      dup3\n        /* \"#utility.yul\":533:540   */\n      dup5\n        /* \"#utility.yul\":529:552   */\n      sub\n        /* \"#utility.yul\":525:557   */\n      slt\n        /* \"#utility.yul\":522:524   */\n      iszero\n      tag_130\n      jumpi\n        /* \"#utility.yul\":570:571   */\n      0x00\n        /* \"#utility.yul\":567:568   */\n      dup1\n        /* \"#utility.yul\":560:572   */\n      revert\n        /* \"#utility.yul\":522:524   */\n    tag_130:\n        /* \"#utility.yul\":613:614   */\n      0x00\n        /* \"#utility.yul\":638:691   */\n      tag_131\n        /* \"#utility.yul\":683:690   */\n      dup5\n        /* \"#utility.yul\":674:680   */\n      dup3\n        /* \"#utility.yul\":663:672   */\n      dup6\n        /* \"#utility.yul\":659:681   */\n      add\n        /* \"#utility.yul\":638:691   */\n      tag_118\n      jump\t// in\n    tag_131:\n        /* \"#utility.yul\":628:691   */\n      swap2\n      pop\n        /* \"#utility.yul\":584:701   */\n      pop\n        /* \"#utility.yul\":512:708   */\n      swap3\n      swap2\n      pop\n      pop\n      jump\t// out\n        /* \"#utility.yul\":714:976   */\n    tag_18:\n      0x00\n        /* \"#utility.yul\":822:824   */\n      0x20\n        /* \"#utility.yul\":810:819   */\n      dup3\n        /* \"#utility.yul\":801:808   */\n      dup5\n        /* \"#utility.yul\":797:820   */\n      sub\n        /* \"#utility.yul\":793:825   */\n      slt\n        /* \"#utility.yul\":790:792   */\n      iszero\n      tag_133\n      jumpi\n        /* \"#utility.yul\":838:839   */\n      0x00\n        /* \"#utility.yul\":835:836   */\n      dup1\n        /* \"#utility.yul\":828:840   */\n      revert\n        /* \"#utility.yul\":790:792   */\n    tag_133:\n        /* \"#utility.yul\":881:882   */\n      0x00\n        /* \"#utility.yul\":906:959   */\n      tag_134\n        /* \"#utility.yul\":951:958   */\n      dup5\n        /* \"#utility.yul\":942:948   */\n      dup3\n        /* \"#utility.yul\":931:940   */\n      dup6\n        /* \"#utility.yul\":927:949   */\n      add\n        /* \"#utility.yul\":906:959   */\n      tag_122\n      jump\t// in\n    tag_134:\n        /* \"#utility.yul\":896:959   */\n      swap2\n      pop\n        /* \"#utility.yul\":852:969   */\n      pop\n        /* \"#utility.yul\":780:976   */\n      swap3\n      swap2\n      pop\n      pop\n      jump\t// out\n        /* \"#utility.yul\":982:1266   */\n    tag_99:\n      0x00\n        /* \"#utility.yul\":1101:1103   */\n      0x20\n        /* \"#utility.yul\":1089:1098   */\n      dup3\n        /* \"#utility.yul\":1080:1087   */\n      dup5\n        /* \"#utility.yul\":1076:1099   */\n      sub\n        /* \"#utility.yul\":1072:1104   */\n      slt\n        /* \"#utility.yul\":1069:1071   */\n      iszero\n      tag_136\n      jumpi\n        /* \"#utility.yul\":1117:1118   */\n      0x00\n        /* \"#utility.yul\":1114:1115   */\n      dup1\n        /* \"#utility.yul\":1107:1119   */\n      revert\n        /* \"#utility.yul\":1069:1071   */\n    tag_136:\n        /* \"#utility.yul\":1160:1161   */\n      0x00\n        /* \"#utility.yul\":1185:1249   */\n      tag_137\n        /* \"#utility.yul\":1241:1248   */\n      dup5\n        /* \"#utility.yul\":1232:1238   */\n      dup3\n        /* \"#utility.yul\":1221:1230   */\n      dup6\n        /* \"#utility.yul\":1217:1239   */\n      add\n        /* \"#utility.yul\":1185:1249   */\n      tag_126\n      jump\t// in\n    tag_137:\n        /* \"#utility.yul\":1175:1249   */\n      swap2\n      pop\n        /* \"#utility.yul\":1131:1259   */\n      pop\n        /* \"#utility.yul\":1059:1266   */\n      swap3\n      swap2\n      pop\n      pop\n      jump\t// out\n        /* \"#utility.yul\":1272:1679   */\n    tag_13:\n      0x00\n      dup1\n        /* \"#utility.yul\":1397:1399   */\n      0x40\n        /* \"#utility.yul\":1385:1394   */\n      dup4\n        /* \"#utility.yul\":1376:1383   */\n      dup6\n        /* \"#utility.yul\":1372:1395   */\n      sub\n        /* \"#utility.yul\":1368:1400   */\n      slt\n        /* \"#utility.yul\":1365:1367   */\n      iszero\n      tag_139\n      jumpi\n        /* \"#utility.yul\":1413:1414   */\n      0x00\n        /* \"#utility.yul\":1410:1411   */\n      dup1\n        /* \"#utility.yul\":1403:1415   */\n      revert\n        /* \"#utility.yul\":1365:1367   */\n    tag_139:\n        /* \"#utility.yul\":1456:1457   */\n      0x00\n        /* \"#utility.yul\":1481:1534   */\n      tag_140\n        /* \"#utility.yul\":1526:1533   */\n      dup6\n        /* \"#utility.yul\":1517:1523   */\n      dup3\n        /* \"#utility.yul\":1506:1515   */\n      dup7\n        /* \"#utility.yul\":1502:1524   */\n      add\n        /* \"#utility.yul\":1481:1534   */\n      tag_122\n      jump\t// in\n    tag_140:\n        /* \"#utility.yul\":1471:1534   */\n      swap3\n      pop\n        /* \"#utility.yul\":1427:1544   */\n      pop\n        /* \"#utility.yul\":1583:1585   */\n      0x20\n        /* \"#utility.yul\":1609:1662   */\n      tag_141\n        /* \"#utility.yul\":1654:1661   */\n      dup6\n        /* \"#utility.yul\":1645:1651   */\n      dup3\n        /* \"#utility.yul\":1634:1643   */\n      dup7\n        /* \"#utility.yul\":1630:1652   */\n      add\n        /* \"#utility.yul\":1609:1662   */\n      tag_122\n      jump\t// in\n    tag_141:\n        /* \"#utility.yul\":1599:1662   */\n      swap2\n      pop\n        /* \"#utility.yul\":1554:1672   */\n      pop\n        /* \"#utility.yul\":1355:1679   */\n      swap3\n      pop\n      swap3\n      swap1\n      pop\n      jump\t// out\n        /* \"#utility.yul\":1685:1803   */\n    tag_142:\n        /* \"#utility.yul\":1772:1796   */\n      tag_144\n        /* \"#utility.yul\":1790:1795   */\n      dup2\n        /* \"#utility.yul\":1772:1796   */\n      tag_145\n      jump\t// in\n    tag_144:\n        /* \"#utility.yul\":1767:1770   */\n      dup3\n        /* \"#utility.yul\":1760:1797   */\n      mstore\n        /* \"#utility.yul\":1750:1803   */\n      pop\n      pop\n      jump\t// out\n        /* \"#utility.yul\":1809:1998   */\n    tag_146:\n        /* \"#utility.yul\":1925:1991   */\n      tag_148\n        /* \"#utility.yul\":1985:1990   */\n      dup2\n        /* \"#utility.yul\":1925:1991   */\n      tag_149\n      jump\t// in\n    tag_148:\n        /* \"#utility.yul\":1920:1923   */\n      dup3\n        /* \"#utility.yul\":1913:1992   */\n      mstore\n        /* \"#utility.yul\":1903:1998   */\n      pop\n      pop\n      jump\t// out\n        /* \"#utility.yul\":2004:2374   */\n    tag_150:\n      0x00\n        /* \"#utility.yul\":2167:2234   */\n      tag_152\n        /* \"#utility.yul\":2231:2233   */\n      0x26\n        /* \"#utility.yul\":2226:2229   */\n      dup4\n        /* \"#utility.yul\":2167:2234   */\n      tag_153\n      jump\t// in\n    tag_152:\n        /* \"#utility.yul\":2160:2234   */\n      swap2\n      pop\n        /* \"#utility.yul\":2264:2298   */\n      0x4f776e61626c653a206e6577206f776e657220697320746865207a65726f2061\n        /* \"#utility.yul\":2260:2261   */\n      0x00\n        /* \"#utility.yul\":2255:2258   */\n      dup4\n        /* \"#utility.yul\":2251:2262   */\n      add\n        /* \"#utility.yul\":2244:2299   */\n      mstore\n        /* \"#utility.yul\":2330:2338   */\n      0x6464726573730000000000000000000000000000000000000000000000000000\n        /* \"#utility.yul\":2325:2327   */\n      0x20\n        /* \"#utility.yul\":2320:2323   */\n      dup4\n        /* \"#utility.yul\":2316:2328   */\n      add\n        /* \"#utility.yul\":2309:2339   */\n      mstore\n        /* \"#utility.yul\":2365:2367   */\n      0x40\n        /* \"#utility.yul\":2360:2363   */\n      dup3\n        /* \"#utility.yul\":2356:2368   */\n      add\n        /* \"#utility.yul\":2349:2368   */\n      swap1\n      pop\n        /* \"#utility.yul\":2150:2374   */\n      swap2\n      swap1\n      pop\n      jump\t// out\n        /* \"#utility.yul\":2380:2689   */\n    tag_154:\n      0x00\n        /* \"#utility.yul\":2543:2610   */\n      tag_156\n        /* \"#utility.yul\":2607:2609   */\n      0x0b\n        /* \"#utility.yul\":2602:2605   */\n      dup4\n        /* \"#utility.yul\":2543:2610   */\n      tag_153\n      jump\t// in\n    tag_156:\n        /* \"#utility.yul\":2536:2610   */\n      swap2\n      pop\n        /* \"#utility.yul\":2640:2653   */\n      0x4e6f74206f6e206c697374000000000000000000000000000000000000000000\n        /* \"#utility.yul\":2636:2637   */\n      0x00\n        /* \"#utility.yul\":2631:2634   */\n      dup4\n        /* \"#utility.yul\":2627:2638   */\n      add\n        /* \"#utility.yul\":2620:2654   */\n      mstore\n        /* \"#utility.yul\":2680:2682   */\n      0x20\n        /* \"#utility.yul\":2675:2678   */\n      dup3\n        /* \"#utility.yul\":2671:2683   */\n      add\n        /* \"#utility.yul\":2664:2683   */\n      swap1\n      pop\n        /* \"#utility.yul\":2526:2689   */\n      swap2\n      swap1\n      pop\n      jump\t// out\n        /* \"#utility.yul\":2695:3060   */\n    tag_157:\n      0x00\n        /* \"#utility.yul\":2858:2925   */\n      tag_159\n        /* \"#utility.yul\":2922:2924   */\n      0x21\n        /* \"#utility.yul\":2917:2920   */\n      dup4\n        /* \"#utility.yul\":2858:2925   */\n      tag_153\n      jump\t// in\n    tag_159:\n        /* \"#utility.yul\":2851:2925   */\n      swap2\n      pop\n        /* \"#utility.yul\":2955:2989   */\n      0x536166654d6174683a206d756c7469706c69636174696f6e206f766572666c6f\n        /* \"#utility.yul\":2951:2952   */\n      0x00\n        /* \"#utility.yul\":2946:2949   */\n      dup4\n        /* \"#utility.yul\":2942:2953   */\n      add\n        /* \"#utility.yul\":2935:2990   */\n      mstore\n        /* \"#utility.yul\":3021:3024   */\n      0x7700000000000000000000000000000000000000000000000000000000000000\n        /* \"#utility.yul\":3016:3018   */\n      0x20\n        /* \"#utility.yul\":3011:3014   */\n      dup4\n        /* \"#utility.yul\":3007:3019   */\n      add\n        /* \"#utility.yul\":3000:3025   */\n      mstore\n        /* \"#utility.yul\":3051:3053   */\n      0x40\n        /* \"#utility.yul\":3046:3049   */\n      dup3\n        /* \"#utility.yul\":3042:3054   */\n      add\n        /* \"#utility.yul\":3035:3054   */\n      swap1\n      pop\n        /* \"#utility.yul\":2841:3060   */\n      swap2\n      swap1\n      pop\n      jump\t// out\n        /* \"#utility.yul\":3066:3396   */\n    tag_160:\n      0x00\n        /* \"#utility.yul\":3229:3296   */\n      tag_162\n        /* \"#utility.yul\":3293:3295   */\n      0x20\n        /* \"#utility.yul\":3288:3291   */\n      dup4\n        /* \"#utility.yul\":3229:3296   */\n      tag_153\n      jump\t// in\n    tag_162:\n        /* \"#utility.yul\":3222:3296   */\n      swap2\n      pop\n        /* \"#utility.yul\":3326:3360   */\n      0x4f776e61626c653a2063616c6c6572206973206e6f7420746865206f776e6572\n        /* \"#utility.yul\":3322:3323   */\n      0x00\n        /* \"#utility.yul\":3317:3320   */\n      dup4\n        /* \"#utility.yul\":3313:3324   */\n      add\n        /* \"#utility.yul\":3306:3361   */\n      mstore\n        /* \"#utility.yul\":3387:3389   */\n      0x20\n        /* \"#utility.yul\":3382:3385   */\n      dup3\n        /* \"#utility.yul\":3378:3390   */\n      add\n        /* \"#utility.yul\":3371:3390   */\n      swap1\n      pop\n        /* \"#utility.yul\":3212:3396   */\n      swap2\n      swap1\n      pop\n      jump\t// out\n        /* \"#utility.yul\":3402:3719   */\n    tag_163:\n      0x00\n        /* \"#utility.yul\":3565:3632   */\n      tag_165\n        /* \"#utility.yul\":3629:3631   */\n      0x13\n        /* \"#utility.yul\":3624:3627   */\n      dup4\n        /* \"#utility.yul\":3565:3632   */\n      tag_153\n      jump\t// in\n    tag_165:\n        /* \"#utility.yul\":3558:3632   */\n      swap2\n      pop\n        /* \"#utility.yul\":3662:3683   */\n      0x4661696c656420746f2073656e64206b6c617900000000000000000000000000\n        /* \"#utility.yul\":3658:3659   */\n      0x00\n        /* \"#utility.yul\":3653:3656   */\n      dup4\n        /* \"#utility.yul\":3649:3660   */\n      add\n        /* \"#utility.yul\":3642:3684   */\n      mstore\n        /* \"#utility.yul\":3710:3712   */\n      0x20\n        /* \"#utility.yul\":3705:3708   */\n      dup3\n        /* \"#utility.yul\":3701:3713   */\n      add\n        /* \"#utility.yul\":3694:3713   */\n      swap1\n      pop\n        /* \"#utility.yul\":3548:3719   */\n      swap2\n      swap1\n      pop\n      jump\t// out\n        /* \"#utility.yul\":3725:4022   */\n    tag_166:\n      0x00\n        /* \"#utility.yul\":3905:3988   */\n      tag_168\n        /* \"#utility.yul\":3986:3987   */\n      0x00\n        /* \"#utility.yul\":3981:3984   */\n      dup4\n        /* \"#utility.yul\":3905:3988   */\n      tag_169\n      jump\t// in\n    tag_168:\n        /* \"#utility.yul\":3898:3988   */\n      swap2\n      pop\n        /* \"#utility.yul\":4014:4015   */\n      0x00\n        /* \"#utility.yul\":4009:4012   */\n      dup3\n        /* \"#utility.yul\":4005:4016   */\n      add\n        /* \"#utility.yul\":3998:4016   */\n      swap1\n      pop\n        /* \"#utility.yul\":3888:4022   */\n      swap2\n      swap1\n      pop\n      jump\t// out\n        /* \"#utility.yul\":4028:4146   */\n    tag_170:\n        /* \"#utility.yul\":4115:4139   */\n      tag_172\n        /* \"#utility.yul\":4133:4138   */\n      dup2\n        /* \"#utility.yul\":4115:4139   */\n      tag_173\n      jump\t// in\n    tag_172:\n        /* \"#utility.yul\":4110:4113   */\n      dup3\n        /* \"#utility.yul\":4103:4140   */\n      mstore\n        /* \"#utility.yul\":4093:4146   */\n      pop\n      pop\n      jump\t// out\n        /* \"#utility.yul\":4152:4531   */\n    tag_64:\n      0x00\n        /* \"#utility.yul\":4358:4505   */\n      tag_175\n        /* \"#utility.yul\":4501:4504   */\n      dup3\n        /* \"#utility.yul\":4358:4505   */\n      tag_166\n      jump\t// in\n    tag_175:\n        /* \"#utility.yul\":4351:4505   */\n      swap2\n      pop\n        /* \"#utility.yul\":4522:4525   */\n      dup2\n        /* \"#utility.yul\":4515:4525   */\n      swap1\n      pop\n        /* \"#utility.yul\":4340:4531   */\n      swap2\n      swap1\n      pop\n      jump\t// out\n        /* \"#utility.yul\":4537:4759   */\n    tag_31:\n      0x00\n        /* \"#utility.yul\":4668:4670   */\n      0x20\n        /* \"#utility.yul\":4657:4666   */\n      dup3\n        /* \"#utility.yul\":4653:4671   */\n      add\n        /* \"#utility.yul\":4645:4671   */\n      swap1\n      pop\n        /* \"#utility.yul\":4681:4752   */\n      tag_177\n        /* \"#utility.yul\":4749:4750   */\n      0x00\n        /* \"#utility.yul\":4738:4747   */\n      dup4\n        /* \"#utility.yul\":4734:4751   */\n      add\n        /* \"#utility.yul\":4725:4731   */\n      dup5\n        /* \"#utility.yul\":4681:4752   */\n      tag_142\n      jump\t// in\n    tag_177:\n        /* \"#utility.yul\":4635:4759   */\n      swap3\n      swap2\n      pop\n      pop\n      jump\t// out\n        /* \"#utility.yul\":4765:5097   */\n    tag_101:\n      0x00\n        /* \"#utility.yul\":4924:4926   */\n      0x40\n        /* \"#utility.yul\":4913:4922   */\n      dup3\n        /* \"#utility.yul\":4909:4927   */\n      add\n        /* \"#utility.yul\":4901:4927   */\n      swap1\n      pop\n        /* \"#utility.yul\":4937:5008   */\n      tag_179\n        /* \"#utility.yul\":5005:5006   */\n      0x00\n        /* \"#utility.yul\":4994:5003   */\n      dup4\n        /* \"#utility.yul\":4990:5007   */\n      add\n        /* \"#utility.yul\":4981:4987   */\n      dup6\n        /* \"#utility.yul\":4937:5008   */\n      tag_142\n      jump\t// in\n    tag_179:\n        /* \"#utility.yul\":5018:5090   */\n      tag_180\n        /* \"#utility.yul\":5086:5088   */\n      0x20\n        /* \"#utility.yul\":5075:5084   */\n      dup4\n        /* \"#utility.yul\":5071:5089   */\n      add\n        /* \"#utility.yul\":5062:5068   */\n      dup5\n        /* \"#utility.yul\":5018:5090   */\n      tag_170\n      jump\t// in\n    tag_180:\n        /* \"#utility.yul\":4891:5097   */\n      swap4\n      swap3\n      pop\n      pop\n      pop\n      jump\t// out\n        /* \"#utility.yul\":5103:5383   */\n    tag_26:\n      0x00\n        /* \"#utility.yul\":5263:5265   */\n      0x20\n        /* \"#utility.yul\":5252:5261   */\n      dup3\n        /* \"#utility.yul\":5248:5266   */\n      add\n        /* \"#utility.yul\":5240:5266   */\n      swap1\n      pop\n        /* \"#utility.yul\":5276:5376   */\n      tag_182\n        /* \"#utility.yul\":5373:5374   */\n      0x00\n        /* \"#utility.yul\":5362:5371   */\n      dup4\n        /* \"#utility.yul\":5358:5375   */\n      add\n        /* \"#utility.yul\":5349:5355   */\n      dup5\n        /* \"#utility.yul\":5276:5376   */\n      tag_146\n      jump\t// in\n    tag_182:\n        /* \"#utility.yul\":5230:5383   */\n      swap3\n      swap2\n      pop\n      pop\n      jump\t// out\n        /* \"#utility.yul\":5389:5808   */\n    tag_92:\n      0x00\n        /* \"#utility.yul\":5593:5595   */\n      0x20\n        /* \"#utility.yul\":5582:5591   */\n      dup3\n        /* \"#utility.yul\":5578:5596   */\n      add\n        /* \"#utility.yul\":5570:5596   */\n      swap1\n      pop\n        /* \"#utility.yul\":5642:5651   */\n      dup2\n        /* \"#utility.yul\":5636:5640   */\n      dup2\n        /* \"#utility.yul\":5632:5652   */\n      sub\n        /* \"#utility.yul\":5628:5629   */\n      0x00\n        /* \"#utility.yul\":5617:5626   */\n      dup4\n        /* \"#utility.yul\":5613:5630   */\n      add\n        /* \"#utility.yul\":5606:5653   */\n      mstore\n        /* \"#utility.yul\":5670:5801   */\n      tag_184\n        /* \"#utility.yul\":5796:5800   */\n      dup2\n        /* \"#utility.yul\":5670:5801   */\n      tag_150\n      jump\t// in\n    tag_184:\n        /* \"#utility.yul\":5662:5801   */\n      swap1\n      pop\n        /* \"#utility.yul\":5560:5808   */\n      swap2\n      swap1\n      pop\n      jump\t// out\n        /* \"#utility.yul\":5814:6233   */\n    tag_51:\n      0x00\n        /* \"#utility.yul\":6018:6020   */\n      0x20\n        /* \"#utility.yul\":6007:6016   */\n      dup3\n        /* \"#utility.yul\":6003:6021   */\n      add\n        /* \"#utility.yul\":5995:6021   */\n      swap1\n      pop\n        /* \"#utility.yul\":6067:6076   */\n      dup2\n        /* \"#utility.yul\":6061:6065   */\n      dup2\n        /* \"#utility.yul\":6057:6077   */\n      sub\n        /* \"#utility.yul\":6053:6054   */\n      0x00\n        /* \"#utility.yul\":6042:6051   */\n      dup4\n        /* \"#utility.yul\":6038:6055   */\n      add\n        /* \"#utility.yul\":6031:6078   */\n      mstore\n        /* \"#utility.yul\":6095:6226   */\n      tag_186\n        /* \"#utility.yul\":6221:6225   */\n      dup2\n        /* \"#utility.yul\":6095:6226   */\n      tag_154\n      jump\t// in\n    tag_186:\n        /* \"#utility.yul\":6087:6226   */\n      swap1\n      pop\n        /* \"#utility.yul\":5985:6233   */\n      swap2\n      swap1\n      pop\n      jump\t// out\n        /* \"#utility.yul\":6239:6658   */\n    tag_114:\n      0x00\n        /* \"#utility.yul\":6443:6445   */\n      0x20\n        /* \"#utility.yul\":6432:6441   */\n      dup3\n        /* \"#utility.yul\":6428:6446   */\n      add\n        /* \"#utility.yul\":6420:6446   */\n      swap1\n      pop\n        /* \"#utility.yul\":6492:6501   */\n      dup2\n        /* \"#utility.yul\":6486:6490   */\n      dup2\n        /* \"#utility.yul\":6482:6502   */\n      sub\n        /* \"#utility.yul\":6478:6479   */\n      0x00\n        /* \"#utility.yul\":6467:6476   */\n      dup4\n        /* \"#utility.yul\":6463:6480   */\n      add\n        /* \"#utility.yul\":6456:6503   */\n      mstore\n        /* \"#utility.yul\":6520:6651   */\n      tag_188\n        /* \"#utility.yul\":6646:6650   */\n      dup2\n        /* \"#utility.yul\":6520:6651   */\n      tag_157\n      jump\t// in\n    tag_188:\n        /* \"#utility.yul\":6512:6651   */\n      swap1\n      pop\n        /* \"#utility.yul\":6410:6658   */\n      swap2\n      swap1\n      pop\n      jump\t// out\n        /* \"#utility.yul\":6664:7083   */\n    tag_75:\n      0x00\n        /* \"#utility.yul\":6868:6870   */\n      0x20\n        /* \"#utility.yul\":6857:6866   */\n      dup3\n        /* \"#utility.yul\":6853:6871   */\n      add\n        /* \"#utility.yul\":6845:6871   */\n      swap1\n      pop\n        /* \"#utility.yul\":6917:6926   */\n      dup2\n        /* \"#utility.yul\":6911:6915   */\n      dup2\n        /* \"#utility.yul\":6907:6927   */\n      sub\n        /* \"#utility.yul\":6903:6904   */\n      0x00\n        /* \"#utility.yul\":6892:6901   */\n      dup4\n        /* \"#utility.yul\":6888:6905   */\n      add\n        /* \"#utility.yul\":6881:6928   */\n      mstore\n        /* \"#utility.yul\":6945:7076   */\n      tag_190\n        /* \"#utility.yul\":7071:7075   */\n      dup2\n        /* \"#utility.yul\":6945:7076   */\n      tag_160\n      jump\t// in\n    tag_190:\n        /* \"#utility.yul\":6937:7076   */\n      swap1\n      pop\n        /* \"#utility.yul\":6835:7083   */\n      swap2\n      swap1\n      pop\n      jump\t// out\n        /* \"#utility.yul\":7089:7508   */\n    tag_70:\n      0x00\n        /* \"#utility.yul\":7293:7295   */\n      0x20\n        /* \"#utility.yul\":7282:7291   */\n      dup3\n        /* \"#utility.yul\":7278:7296   */\n      add\n        /* \"#utility.yul\":7270:7296   */\n      swap1\n      pop\n        /* \"#utility.yul\":7342:7351   */\n      dup2\n        /* \"#utility.yul\":7336:7340   */\n      dup2\n        /* \"#utility.yul\":7332:7352   */\n      sub\n        /* \"#utility.yul\":7328:7329   */\n      0x00\n        /* \"#utility.yul\":7317:7326   */\n      dup4\n        /* \"#utility.yul\":7313:7330   */\n      add\n        /* \"#utility.yul\":7306:7353   */\n      mstore\n        /* \"#utility.yul\":7370:7501   */\n      tag_192\n        /* \"#utility.yul\":7496:7500   */\n      dup2\n        /* \"#utility.yul\":7370:7501   */\n      tag_163\n      jump\t// in\n    tag_192:\n        /* \"#utility.yul\":7362:7501   */\n      swap1\n      pop\n        /* \"#utility.yul\":7260:7508   */\n      swap2\n      swap1\n      pop\n      jump\t// out\n        /* \"#utility.yul\":7514:7736   */\n    tag_21:\n      0x00\n        /* \"#utility.yul\":7645:7647   */\n      0x20\n        /* \"#utility.yul\":7634:7643   */\n      dup3\n        /* \"#utility.yul\":7630:7648   */\n      add\n        /* \"#utility.yul\":7622:7648   */\n      swap1\n      pop\n        /* \"#utility.yul\":7658:7729   */\n      tag_194\n        /* \"#utility.yul\":7726:7727   */\n      0x00\n        /* \"#utility.yul\":7715:7724   */\n      dup4\n        /* \"#utility.yul\":7711:7728   */\n      add\n        /* \"#utility.yul\":7702:7708   */\n      dup5\n        /* \"#utility.yul\":7658:7729   */\n      tag_170\n      jump\t// in\n    tag_194:\n        /* \"#utility.yul\":7612:7736   */\n      swap3\n      swap2\n      pop\n      pop\n      jump\t// out\n        /* \"#utility.yul\":7742:7889   */\n    tag_169:\n      0x00\n        /* \"#utility.yul\":7880:7883   */\n      dup2\n        /* \"#utility.yul\":7865:7883   */\n      swap1\n      pop\n        /* \"#utility.yul\":7855:7889   */\n      swap3\n      swap2\n      pop\n      pop\n      jump\t// out\n        /* \"#utility.yul\":7895:8064   */\n    tag_153:\n      0x00\n        /* \"#utility.yul\":8013:8019   */\n      dup3\n        /* \"#utility.yul\":8008:8011   */\n      dup3\n        /* \"#utility.yul\":8001:8020   */\n      mstore\n        /* \"#utility.yul\":8053:8057   */\n      0x20\n        /* \"#utility.yul\":8048:8051   */\n      dup3\n        /* \"#utility.yul\":8044:8058   */\n      add\n        /* \"#utility.yul\":8029:8058   */\n      swap1\n      pop\n        /* \"#utility.yul\":7991:8064   */\n      swap3\n      swap2\n      pop\n      pop\n      jump\t// out\n        /* \"#utility.yul\":8070:8255   */\n    tag_111:\n      0x00\n        /* \"#utility.yul\":8127:8147   */\n      tag_198\n        /* \"#utility.yul\":8145:8146   */\n      dup3\n        /* \"#utility.yul\":8127:8147   */\n      tag_173\n      jump\t// in\n    tag_198:\n        /* \"#utility.yul\":8122:8147   */\n      swap2\n      pop\n        /* \"#utility.yul\":8161:8181   */\n      tag_199\n        /* \"#utility.yul\":8179:8180   */\n      dup4\n        /* \"#utility.yul\":8161:8181   */\n      tag_173\n      jump\t// in\n    tag_199:\n        /* \"#utility.yul\":8156:8181   */\n      swap3\n      pop\n        /* \"#utility.yul\":8200:8201   */\n      dup3\n        /* \"#utility.yul\":8190:8192   */\n      tag_200\n      jumpi\n        /* \"#utility.yul\":8205:8223   */\n      tag_201\n      tag_202\n      jump\t// in\n    tag_201:\n        /* \"#utility.yul\":8190:8192   */\n    tag_200:\n        /* \"#utility.yul\":8247:8248   */\n      dup3\n        /* \"#utility.yul\":8244:8245   */\n      dup3\n        /* \"#utility.yul\":8240:8249   */\n      div\n        /* \"#utility.yul\":8235:8249   */\n      swap1\n      pop\n        /* \"#utility.yul\":8112:8255   */\n      swap3\n      swap2\n      pop\n      pop\n      jump\t// out\n        /* \"#utility.yul\":8261:8609   */\n    tag_109:\n      0x00\n        /* \"#utility.yul\":8324:8344   */\n      tag_204\n        /* \"#utility.yul\":8342:8343   */\n      dup3\n        /* \"#utility.yul\":8324:8344   */\n      tag_173\n      jump\t// in\n    tag_204:\n        /* \"#utility.yul\":8319:8344   */\n      swap2\n      pop\n        /* \"#utility.yul\":8358:8378   */\n      tag_205\n        /* \"#utility.yul\":8376:8377   */\n      dup4\n        /* \"#utility.yul\":8358:8378   */\n      tag_173\n      jump\t// in\n    tag_205:\n        /* \"#utility.yul\":8353:8378   */\n      swap3\n      pop\n        /* \"#utility.yul\":8546:8547   */\n      dup2\n        /* \"#utility.yul\":8478:8544   */\n      0xffffffffffffffffffffffffffffffffffffffffffffffffffffffffffffffff\n        /* \"#utility.yul\":8474:8548   */\n      div\n        /* \"#utility.yul\":8471:8472   */\n      dup4\n        /* \"#utility.yul\":8468:8549   */\n      gt\n        /* \"#utility.yul\":8463:8464   */\n      dup3\n        /* \"#utility.yul\":8456:8465   */\n      iszero\n        /* \"#utility.yul\":8449:8466   */\n      iszero\n        /* \"#utility.yul\":8445:8550   */\n      and\n        /* \"#utility.yul\":8442:8444   */\n      iszero\n      tag_206\n      jumpi\n        /* \"#utility.yul\":8553:8571   */\n      tag_207\n      tag_208\n      jump\t// in\n    tag_207:\n        /* \"#utility.yul\":8442:8444   */\n    tag_206:\n        /* \"#utility.yul\":8601:8602   */\n      dup3\n        /* \"#utility.yul\":8598:8599   */\n      dup3\n        /* \"#utility.yul\":8594:8603   */\n      mul\n        /* \"#utility.yul\":8583:8603   */\n      swap1\n      pop\n        /* \"#utility.yul\":8309:8609   */\n      swap3\n      swap2\n      pop\n      pop\n      jump\t// out\n        /* \"#utility.yul\":8615:8711   */\n    tag_145:\n      0x00\n        /* \"#utility.yul\":8681:8705   */\n      tag_210\n        /* \"#utility.yul\":8699:8704   */\n      dup3\n        /* \"#utility.yul\":8681:8705   */\n      tag_211\n      jump\t// in\n    tag_210:\n        /* \"#utility.yul\":8670:8705   */\n      swap1\n      pop\n        /* \"#utility.yul\":8660:8711   */\n      swap2\n      swap1\n      pop\n      jump\t// out\n        /* \"#utility.yul\":8717:8843   */\n    tag_211:\n      0x00\n        /* \"#utility.yul\":8794:8836   */\n      0xffffffffffffffffffffffffffffffffffffffff\n        /* \"#utility.yul\":8787:8792   */\n      dup3\n        /* \"#utility.yul\":8783:8837   */\n      and\n        /* \"#utility.yul\":8772:8837   */\n      swap1\n      pop\n        /* \"#utility.yul\":8762:8843   */\n      swap2\n      swap1\n      pop\n      jump\t// out\n        /* \"#utility.yul\":8849:8926   */\n    tag_173:\n      0x00\n        /* \"#utility.yul\":8915:8920   */\n      dup2\n        /* \"#utility.yul\":8904:8920   */\n      swap1\n      pop\n        /* \"#utility.yul\":8894:8926   */\n      swap2\n      swap1\n      pop\n      jump\t// out\n        /* \"#utility.yul\":8932:9116   */\n    tag_149:\n      0x00\n        /* \"#utility.yul\":9044:9110   */\n      tag_215\n        /* \"#utility.yul\":9104:9109   */\n      dup3\n        /* \"#utility.yul\":9044:9110   */\n      tag_216\n      jump\t// in\n    tag_215:\n        /* \"#utility.yul\":9031:9110   */\n      swap1\n      pop\n        /* \"#utility.yul\":9021:9116   */\n      swap2\n      swap1\n      pop\n      jump\t// out\n        /* \"#utility.yul\":9122:9264   */\n    tag_216:\n      0x00\n        /* \"#utility.yul\":9234:9258   */\n      tag_218\n        /* \"#utility.yul\":9252:9257   */\n      dup3\n        /* \"#utility.yul\":9234:9258   */\n      tag_211\n      jump\t// in\n    tag_218:\n        /* \"#utility.yul\":9221:9258   */\n      swap1\n      pop\n        /* \"#utility.yul\":9211:9264   */\n      swap2\n      swap1\n      pop\n      jump\t// out\n        /* \"#utility.yul\":9270:9503   */\n    tag_60:\n      0x00\n        /* \"#utility.yul\":9332:9356   */\n      tag_220\n        /* \"#utility.yul\":9350:9355   */\n      dup3\n        /* \"#utility.yul\":9332:9356   */\n      tag_173\n      jump\t// in\n    tag_220:\n        /* \"#utility.yul\":9323:9356   */\n      swap2\n      pop\n        /* \"#utility.yul\":9378:9444   */\n      0xffffffffffffffffffffffffffffffffffffffffffffffffffffffffffffffff\n        /* \"#utility.yul\":9371:9376   */\n      dup3\n        /* \"#utility.yul\":9368:9445   */\n      eq\n        /* \"#utility.yul\":9365:9367   */\n      iszero\n      tag_221\n      jumpi\n        /* \"#utility.yul\":9448:9466   */\n      tag_222\n      tag_208\n      jump\t// in\n    tag_222:\n        /* \"#utility.yul\":9365:9367   */\n    tag_221:\n        /* \"#utility.yul\":9495:9496   */\n      0x01\n        /* \"#utility.yul\":9488:9493   */\n      dup3\n        /* \"#utility.yul\":9484:9497   */\n      add\n        /* \"#utility.yul\":9477:9497   */\n      swap1\n      pop\n        /* \"#utility.yul\":9313:9503   */\n      swap2\n      swap1\n      pop\n      jump\t// out\n        /* \"#utility.yul\":9509:9689   */\n    tag_208:\n        /* \"#utility.yul\":9557:9634   */\n      0x4e487b7100000000000000000000000000000000000000000000000000000000\n        /* \"#utility.yul\":9554:9555   */\n      0x00\n        /* \"#utility.yul\":9547:9635   */\n      mstore\n        /* \"#utility.yul\":9654:9658   */\n      0x11\n        /* \"#utility.yul\":9651:9652   */\n      0x04\n        /* \"#utility.yul\":9644:9659   */\n      mstore\n        /* \"#utility.yul\":9678:9682   */\n      0x24\n        /* \"#utility.yul\":9675:9676   */\n      0x00\n        /* \"#utility.yul\":9668:9683   */\n      revert\n        /* \"#utility.yul\":9695:9875   */\n    tag_202:\n        /* \"#utility.yul\":9743:9820   */\n      0x4e487b7100000000000000000000000000000000000000000000000000000000\n        /* \"#utility.yul\":9740:9741   */\n      0x00\n        /* \"#utility.yul\":9733:9821   */\n      mstore\n        /* \"#utility.yul\":9840:9844   */\n      0x12\n        /* \"#utility.yul\":9837:9838   */\n      0x04\n        /* \"#utility.yul\":9830:9845   */\n      mstore\n        /* \"#utility.yul\":9864:9868   */\n      0x24\n        /* \"#utility.yul\":9861:9862   */\n      0x00\n        /* \"#utility.yul\":9854:9869   */\n      revert\n        /* \"#utility.yul\":9881:10003   */\n    tag_121:\n        /* \"#utility.yul\":9954:9978   */\n      tag_226\n        /* \"#utility.yul\":9972:9977   */\n      dup2\n        /* \"#utility.yul\":9954:9978   */\n      tag_145\n      jump\t// in\n    tag_226:\n        /* \"#utility.yul\":9947:9952   */\n      dup2\n        /* \"#utility.yul\":9944:9979   */\n      eq\n        /* \"#utility.yul\":9934:9936   */\n      tag_227\n      jumpi\n        /* \"#utility.yul\":9993:9994   */\n      0x00\n        /* \"#utility.yul\":9990:9991   */\n      dup1\n        /* \"#utility.yul\":9983:9995   */\n      revert\n        /* \"#utility.yul\":9934:9936   */\n    tag_227:\n        /* \"#utility.yul\":9924:10003   */\n      pop\n      jump\t// out\n        /* \"#utility.yul\":10009:10131   */\n    tag_125:\n        /* \"#utility.yul\":10082:10106   */\n      tag_229\n        /* \"#utility.yul\":10100:10105   */\n      dup2\n        /* \"#utility.yul\":10082:10106   */\n      tag_173\n      jump\t// in\n    tag_229:\n        /* \"#utility.yul\":10075:10080   */\n      dup2\n        /* \"#utility.yul\":10072:10107   */\n      eq\n        /* \"#utility.yul\":10062:10064   */\n      tag_230\n      jumpi\n        /* \"#utility.yul\":10121:10122   */\n      0x00\n        /* \"#utility.yul\":10118:10119   */\n      dup1\n        /* \"#utility.yul\":10111:10123   */\n      revert\n        /* \"#utility.yul\":10062:10064   */\n    tag_230:\n        /* \"#utility.yul\":10052:10131   */\n      pop\n      jump\t// out\n\n    auxdata: 0xa26469706673582212204cc75617d27565396fd6cd173676c19cea29c257561e3825fc96b8161df38b0864736f6c63430008000033\n}\n",
				"bytecode": {
					"linkReferences": {},
					"object": "60806040523480156200001157600080fd5b50604051620012a3380380620012a3833981810160405281019062000037919062000204565b600062000049620001e560201b60201c565b9050806000806101000a81548173ffffffffffffffffffffffffffffffffffffffff021916908373ffffffffffffffffffffffffffffffffffffffff1602179055508073ffffffffffffffffffffffffffffffffffffffff16600073ffffffffffffffffffffffffffffffffffffffff167f8be0079c531659141344cd1fd0a4f28419497f9722a3daafe3b4186f6b6457e060405160405180910390a350600073ffffffffffffffffffffffffffffffffffffffff168273ffffffffffffffffffffffffffffffffffffffff16141580156200015157503073ffffffffffffffffffffffffffffffffffffffff168273ffffffffffffffffffffffffffffffffffffffff1614155b6200015b57600080fd5b81600160006101000a81548173ffffffffffffffffffffffffffffffffffffffff021916908373ffffffffffffffffffffffffffffffffffffffff16021790555080600260006101000a81548173ffffffffffffffffffffffffffffffffffffffff021916908373ffffffffffffffffffffffffffffffffffffffff160217905550505062000293565b600033905090565b600081519050620001fe8162000279565b92915050565b600080604083850312156200021857600080fd5b60006200022885828601620001ed565b92505060206200023b85828601620001ed565b9150509250929050565b6000620002528262000259565b9050919050565b600073ffffffffffffffffffffffffffffffffffffffff82169050919050565b620002848162000245565b81146200029057600080fd5b50565b61100080620002a36000396000f3fe60806040526004361061007b5760003560e01c8063715018a61161004e578063715018a61461012f5780638da5cb5b14610146578063d3f5057314610171578063f2fde38b1461019a5761007b565b80633e56e6c314610080578063432be4d01461009c57806347ccca02146100d957806361d027b314610104575b600080fd5b61009a60048036038101906100959190610ab0565b6101c3565b005b3480156100a857600080fd5b506100c360048036038101906100be9190610a5e565b61033f565b6040516100d09190610dd3565b60405180910390f35b3480156100e557600080fd5b506100ee610357565b6040516100fb9190610d18565b60405180910390f35b34801561011057600080fd5b5061011961037d565b6040516101269190610cd4565b60405180910390f35b34801561013b57600080fd5b506101446103a3565b005b34801561015257600080fd5b5061015b6104f6565b6040516101689190610cd4565b60405180910390f35b34801561017d57600080fd5b5061019860048036038101906101939190610ab0565b61051f565b005b3480156101a657600080fd5b506101c160048036038101906101bc9190610a35565b6105c2565b005b6000600360008481526020019081526020016000205411610219576040517f08c379a000000000000000000000000000000000000000000000000000000000815260040161021090610d53565b60405180910390fd5b60005b818110156102465761023561022f610784565b8461078c565b8061023f90610ef5565b905061021c565b506000600260009054906101000a900473ffffffffffffffffffffffffffffffffffffffff1673ffffffffffffffffffffffffffffffffffffffff166102a883600360008781526020019081526020016000205461092790919063ffffffff16565b6040516102b490610cbf565b60006040518083038185875af1925050503d80600081146102f1576040519150601f19603f3d011682016040523d82523d6000602084013e6102f6565b606091505b505090508061033a576040517f08c379a000000000000000000000000000000000000000000000000000000000815260040161033190610db3565b60405180910390fd5b505050565b60036020528060005260406000206000915090505481565b600160009054906101000a900473ffffffffffffffffffffffffffffffffffffffff1681565b600260009054906101000a900473ffffffffffffffffffffffffffffffffffffffff1681565b6103ab610784565b73ffffffffffffffffffffffffffffffffffffffff1660008054906101000a900473ffffffffffffffffffffffffffffffffffffffff1673ffffffffffffffffffffffffffffffffffffffff1614610438576040517f08c379a000000000000000000000000000000000000000000000000000000000815260040161042f90610d93565b60405180910390fd5b600073ffffffffffffffffffffffffffffffffffffffff1660008054906101000a900473ffffffffffffffffffffffffffffffffffffffff1673ffffffffffffffffffffffffffffffffffffffff167f8be0079c531659141344cd1fd0a4f28419497f9722a3daafe3b4186f6b6457e060405160405180910390a360008060006101000a81548173ffffffffffffffffffffffffffffffffffffffff021916908373ffffffffffffffffffffffffffffffffffffffff160217905550565b60008060009054906101000a900473ffffffffffffffffffffffffffffffffffffffff16905090565b610527610784565b73ffffffffffffffffffffffffffffffffffffffff1660008054906101000a900473ffffffffffffffffffffffffffffffffffffffff1673ffffffffffffffffffffffffffffffffffffffff16146105b4576040517f08c379a00000000000000000000000000000000000000000000000000000000081526004016105ab90610d93565b60405180910390fd5b6105be82826109a2565b5050565b6105ca610784565b73ffffffffffffffffffffffffffffffffffffffff1660008054906101000a900473ffffffffffffffffffffffffffffffffffffffff1673ffffffffffffffffffffffffffffffffffffffff1614610657576040517f08c379a000000000000000000000000000000000000000000000000000000000815260040161064e90610d93565b60405180910390fd5b600073ffffffffffffffffffffffffffffffffffffffff168173ffffffffffffffffffffffffffffffffffffffff1614156106c7576040517f08c379a00000000000000000000000000000000000000000000000000000000081526004016106be90610d33565b60405180910390fd5b8073ffffffffffffffffffffffffffffffffffffffff1660008054906101000a900473ffffffffffffffffffffffffffffffffffffffff1673ffffffffffffffffffffffffffffffffffffffff167f8be0079c531659141344cd1fd0a4f28419497f9722a3daafe3b4186f6b6457e060405160405180910390a3806000806101000a81548173ffffffffffffffffffffffffffffffffffffffff021916908373ffffffffffffffffffffffffffffffffffffffff16021790555050565b600033905090565b6000600160009054906101000a900473ffffffffffffffffffffffffffffffffffffffff1673ffffffffffffffffffffffffffffffffffffffff16631c1780876040518163ffffffff1660e01b815260040160206040518083038186803b1580156107f657600080fd5b505afa15801561080a573d6000803e3d6000fd5b505050506040513d601f19601f8201168201806040525081019061082e9190610a87565b9050600160009054906101000a900473ffffffffffffffffffffffffffffffffffffffff1673ffffffffffffffffffffffffffffffffffffffff1663a144819484846040518363ffffffff1660e01b815260040161088d929190610cef565b600060405180830381600087803b1580156108a757600080fd5b505af11580156108bb573d6000803e3d6000fd5b5050505080828473ffffffffffffffffffffffffffffffffffffffff167fbeae048c6d270d9469f86cf6e8fedda3c60ad770f16c24c9fc131c8e9a09101d600360008781526020019081526020016000205460405161091a9190610dd3565b60405180910390a4505050565b60008083141561093a576000905061099c565b600082846109489190610e3b565b90508284826109579190610e0a565b14610997576040517f08c379a000000000000000000000000000000000000000000000000000000000815260040161098e90610d73565b60405180910390fd5b809150505b92915050565b806003600084815260200190815260200160002081905550817f92664190cca12aca9cd5309d87194bdda75bb51362d71c06e1a6f75c7c765711826040516109ea9190610dd3565b60405180910390a25050565b600081359050610a0581610f9c565b92915050565b600081359050610a1a81610fb3565b92915050565b600081519050610a2f81610fb3565b92915050565b600060208284031215610a4757600080fd5b6000610a55848285016109f6565b91505092915050565b600060208284031215610a7057600080fd5b6000610a7e84828501610a0b565b91505092915050565b600060208284031215610a9957600080fd5b6000610aa784828501610a20565b91505092915050565b60008060408385031215610ac357600080fd5b6000610ad185828601610a0b565b9250506020610ae285828601610a0b565b9150509250929050565b610af581610e95565b82525050565b610b0481610ed1565b82525050565b6000610b17602683610df9565b91507f4f776e61626c653a206e6577206f776e657220697320746865207a65726f206160008301527f64647265737300000000000000000000000000000000000000000000000000006020830152604082019050919050565b6000610b7d600b83610df9565b91507f4e6f74206f6e206c6973740000000000000000000000000000000000000000006000830152602082019050919050565b6000610bbd602183610df9565b91507f536166654d6174683a206d756c7469706c69636174696f6e206f766572666c6f60008301527f77000000000000000000000000000000000000000000000000000000000000006020830152604082019050919050565b6000610c23602083610df9565b91507f4f776e61626c653a2063616c6c6572206973206e6f7420746865206f776e65726000830152602082019050919050565b6000610c63601383610df9565b91507f4661696c656420746f2073656e64206b6c6179000000000000000000000000006000830152602082019050919050565b6000610ca3600083610dee565b9150600082019050919050565b610cb981610ec7565b82525050565b6000610cca82610c96565b9150819050919050565b6000602082019050610ce96000830184610aec565b92915050565b6000604082019050610d046000830185610aec565b610d116020830184610cb0565b9392505050565b6000602082019050610d2d6000830184610afb565b92915050565b60006020820190508181036000830152610d4c81610b0a565b9050919050565b60006020820190508181036000830152610d6c81610b70565b9050919050565b60006020820190508181036000830152610d8c81610bb0565b9050919050565b60006020820190508181036000830152610dac81610c16565b9050919050565b60006020820190508181036000830152610dcc81610c56565b9050919050565b6000602082019050610de86000830184610cb0565b92915050565b600081905092915050565b600082825260208201905092915050565b6000610e1582610ec7565b9150610e2083610ec7565b925082610e3057610e2f610f6d565b5b828204905092915050565b6000610e4682610ec7565b9150610e5183610ec7565b9250817fffffffffffffffffffffffffffffffffffffffffffffffffffffffffffffffff0483118215151615610e8a57610e89610f3e565b5b828202905092915050565b6000610ea082610ea7565b9050919050565b600073ffffffffffffffffffffffffffffffffffffffff82169050919050565b6000819050919050565b6000610edc82610ee3565b9050919050565b6000610eee82610ea7565b9050919050565b6000610f0082610ec7565b91507fffffffffffffffffffffffffffffffffffffffffffffffffffffffffffffffff821415610f3357610f32610f3e565b5b600182019050919050565b7f4e487b7100000000000000000000000000000000000000000000000000000000600052601160045260246000fd5b7f4e487b7100000000000000000000000000000000000000000000000000000000600052601260045260246000fd5b610fa581610e95565b8114610fb057600080fd5b50565b610fbc81610ec7565b8114610fc757600080fd5b5056fea26469706673582212204cc75617d27565396fd6cd173676c19cea29c257561e3825fc96b8161df38b0864736f6c63430008000033",
					"opcodes": "PUSH1 0x80 PUSH1 0x40 MSTORE CALLVALUE DUP1 ISZERO PUSH3 0x11 JUMPI PUSH1 0x0 DUP1 REVERT JUMPDEST POP PUSH1 0x40 MLOAD PUSH3 0x12A3 CODESIZE SUB DUP1 PUSH3 0x12A3 DUP4 CODECOPY DUP2 DUP2 ADD PUSH1 0x40 MSTORE DUP2 ADD SWAP1 PUSH3 0x37 SWAP2 SWAP1 PUSH3 0x204 JUMP JUMPDEST PUSH1 0x0 PUSH3 0x49 PUSH3 0x1E5 PUSH1 0x20 SHL PUSH1 0x20 SHR JUMP JUMPDEST SWAP1 POP DUP1 PUSH1 0x0 DUP1 PUSH2 0x100 EXP DUP2 SLOAD DUP2 PUSH20 0xFFFFFFFFFFFFFFFFFFFFFFFFFFFFFFFFFFFFFFFF MUL NOT AND SWAP1 DUP4 PUSH20 0xFFFFFFFFFFFFFFFFFFFFFFFFFFFFFFFFFFFFFFFF AND MUL OR SWAP1 SSTORE POP DUP1 PUSH20 0xFFFFFFFFFFFFFFFFFFFFFFFFFFFFFFFFFFFFFFFF AND PUSH1 0x0 PUSH20 0xFFFFFFFFFFFFFFFFFFFFFFFFFFFFFFFFFFFFFFFF AND PUSH32 0x8BE0079C531659141344CD1FD0A4F28419497F9722A3DAAFE3B4186F6B6457E0 PUSH1 0x40 MLOAD PUSH1 0x40 MLOAD DUP1 SWAP2 SUB SWAP1 LOG3 POP PUSH1 0x0 PUSH20 0xFFFFFFFFFFFFFFFFFFFFFFFFFFFFFFFFFFFFFFFF AND DUP3 PUSH20 0xFFFFFFFFFFFFFFFFFFFFFFFFFFFFFFFFFFFFFFFF AND EQ ISZERO DUP1 ISZERO PUSH3 0x151 JUMPI POP ADDRESS PUSH20 0xFFFFFFFFFFFFFFFFFFFFFFFFFFFFFFFFFFFFFFFF AND DUP3 PUSH20 0xFFFFFFFFFFFFFFFFFFFFFFFFFFFFFFFFFFFFFFFF AND EQ ISZERO JUMPDEST PUSH3 0x15B JUMPI PUSH1 0x0 DUP1 REVERT JUMPDEST DUP2 PUSH1 0x1 PUSH1 0x0 PUSH2 0x100 EXP DUP2 SLOAD DUP2 PUSH20 0xFFFFFFFFFFFFFFFFFFFFFFFFFFFFFFFFFFFFFFFF MUL NOT AND SWAP1 DUP4 PUSH20 0xFFFFFFFFFFFFFFFFFFFFFFFFFFFFFFFFFFFFFFFF AND MUL OR SWAP1 SSTORE POP DUP1 PUSH1 0x2 PUSH1 0x0 PUSH2 0x100 EXP DUP2 SLOAD DUP2 PUSH20 0xFFFFFFFFFFFFFFFFFFFFFFFFFFFFFFFFFFFFFFFF MUL NOT AND SWAP1 DUP4 PUSH20 0xFFFFFFFFFFFFFFFFFFFFFFFFFFFFFFFFFFFFFFFF AND MUL OR SWAP1 SSTORE POP POP POP PUSH3 0x293 JUMP JUMPDEST PUSH1 0x0 CALLER SWAP1 POP SWAP1 JUMP JUMPDEST PUSH1 0x0 DUP2 MLOAD SWAP1 POP PUSH3 0x1FE DUP2 PUSH3 0x279 JUMP JUMPDEST SWAP3 SWAP2 POP POP JUMP JUMPDEST PUSH1 0x0 DUP1 PUSH1 0x40 DUP4 DUP6 SUB SLT ISZERO PUSH3 0x218 JUMPI PUSH1 0x0 DUP1 REVERT JUMPDEST PUSH1 0x0 PUSH3 0x228 DUP6 DUP3 DUP7 ADD PUSH3 0x1ED JUMP JUMPDEST SWAP3 POP POP PUSH1 0x20 PUSH3 0x23B DUP6 DUP3 DUP7 ADD PUSH3 0x1ED JUMP JUMPDEST SWAP2 POP POP SWAP3 POP SWAP3 SWAP1 POP JUMP JUMPDEST PUSH1 0x0 PUSH3 0x252 DUP3 PUSH3 0x259 JUMP JUMPDEST SWAP1 POP SWAP2 SWAP1 POP JUMP JUMPDEST PUSH1 0x0 PUSH20 0xFFFFFFFFFFFFFFFFFFFFFFFFFFFFFFFFFFFFFFFF DUP3 AND SWAP1 POP SWAP2 SWAP1 POP JUMP JUMPDEST PUSH3 0x284 DUP2 PUSH3 0x245 JUMP JUMPDEST DUP2 EQ PUSH3 0x290 JUMPI PUSH1 0x0 DUP1 REVERT JUMPDEST POP JUMP JUMPDEST PUSH2 0x1000 DUP1 PUSH3 0x2A3 PUSH1 0x0 CODECOPY PUSH1 0x0 RETURN INVALID PUSH1 0x80 PUSH1 0x40 MSTORE PUSH1 0x4 CALLDATASIZE LT PUSH2 0x7B JUMPI PUSH1 0x0 CALLDATALOAD PUSH1 0xE0 SHR DUP1 PUSH4 0x715018A6 GT PUSH2 0x4E JUMPI DUP1 PUSH4 0x715018A6 EQ PUSH2 0x12F JUMPI DUP1 PUSH4 0x8DA5CB5B EQ PUSH2 0x146 JUMPI DUP1 PUSH4 0xD3F50573 EQ PUSH2 0x171 JUMPI DUP1 PUSH4 0xF2FDE38B EQ PUSH2 0x19A JUMPI PUSH2 0x7B JUMP JUMPDEST DUP1 PUSH4 0x3E56E6C3 EQ PUSH2 0x80 JUMPI DUP1 PUSH4 0x432BE4D0 EQ PUSH2 0x9C JUMPI DUP1 PUSH4 0x47CCCA02 EQ PUSH2 0xD9 JUMPI DUP1 PUSH4 0x61D027B3 EQ PUSH2 0x104 JUMPI JUMPDEST PUSH1 0x0 DUP1 REVERT JUMPDEST PUSH2 0x9A PUSH1 0x4 DUP1 CALLDATASIZE SUB DUP2 ADD SWAP1 PUSH2 0x95 SWAP2 SWAP1 PUSH2 0xAB0 JUMP JUMPDEST PUSH2 0x1C3 JUMP JUMPDEST STOP JUMPDEST CALLVALUE DUP1 ISZERO PUSH2 0xA8 JUMPI PUSH1 0x0 DUP1 REVERT JUMPDEST POP PUSH2 0xC3 PUSH1 0x4 DUP1 CALLDATASIZE SUB DUP2 ADD SWAP1 PUSH2 0xBE SWAP2 SWAP1 PUSH2 0xA5E JUMP JUMPDEST PUSH2 0x33F JUMP JUMPDEST PUSH1 0x40 MLOAD PUSH2 0xD0 SWAP2 SWAP1 PUSH2 0xDD3 JUMP JUMPDEST PUSH1 0x40 MLOAD DUP1 SWAP2 SUB SWAP1 RETURN JUMPDEST CALLVALUE DUP1 ISZERO PUSH2 0xE5 JUMPI PUSH1 0x0 DUP1 REVERT JUMPDEST POP PUSH2 0xEE PUSH2 0x357 JUMP JUMPDEST PUSH1 0x40 MLOAD PUSH2 0xFB SWAP2 SWAP1 PUSH2 0xD18 JUMP JUMPDEST PUSH1 0x40 MLOAD DUP1 SWAP2 SUB SWAP1 RETURN JUMPDEST CALLVALUE DUP1 ISZERO PUSH2 0x110 JUMPI PUSH1 0x0 DUP1 REVERT JUMPDEST POP PUSH2 0x119 PUSH2 0x37D JUMP JUMPDEST PUSH1 0x40 MLOAD PUSH2 0x126 SWAP2 SWAP1 PUSH2 0xCD4 JUMP JUMPDEST PUSH1 0x40 MLOAD DUP1 SWAP2 SUB SWAP1 RETURN JUMPDEST CALLVALUE DUP1 ISZERO PUSH2 0x13B JUMPI PUSH1 0x0 DUP1 REVERT JUMPDEST POP PUSH2 0x144 PUSH2 0x3A3 JUMP JUMPDEST STOP JUMPDEST CALLVALUE DUP1 ISZERO PUSH2 0x152 JUMPI PUSH1 0x0 DUP1 REVERT JUMPDEST POP PUSH2 0x15B PUSH2 0x4F6 JUMP JUMPDEST PUSH1 0x40 MLOAD PUSH2 0x168 SWAP2 SWAP1 PUSH2 0xCD4 JUMP JUMPDEST PUSH1 0x40 MLOAD DUP1 SWAP2 SUB SWAP1 RETURN JUMPDEST CALLVALUE DUP1 ISZERO PUSH2 0x17D JUMPI PUSH1 0x0 DUP1 REVERT JUMPDEST POP PUSH2 0x198 PUSH1 0x4 DUP1 CALLDATASIZE SUB DUP2 ADD SWAP1 PUSH2 0x193 SWAP2 SWAP1 PUSH2 0xAB0 JUMP JUMPDEST PUSH2 0x51F JUMP JUMPDEST STOP JUMPDEST CALLVALUE DUP1 ISZERO PUSH2 0x1A6 JUMPI PUSH1 0x0 DUP1 REVERT JUMPDEST POP PUSH2 0x1C1 PUSH1 0x4 DUP1 CALLDATASIZE SUB DUP2 ADD SWAP1 PUSH2 0x1BC SWAP2 SWAP1 PUSH2 0xA35 JUMP JUMPDEST PUSH2 0x5C2 JUMP JUMPDEST STOP JUMPDEST PUSH1 0x0 PUSH1 0x3 PUSH1 0x0 DUP5 DUP2 MSTORE PUSH1 0x20 ADD SWAP1 DUP2 MSTORE PUSH1 0x20 ADD PUSH1 0x0 KECCAK256 SLOAD GT PUSH2 0x219 JUMPI PUSH1 0x40 MLOAD PUSH32 0x8C379A000000000000000000000000000000000000000000000000000000000 DUP2 MSTORE PUSH1 0x4 ADD PUSH2 0x210 SWAP1 PUSH2 0xD53 JUMP JUMPDEST PUSH1 0x40 MLOAD DUP1 SWAP2 SUB SWAP1 REVERT JUMPDEST PUSH1 0x0 JUMPDEST DUP2 DUP2 LT ISZERO PUSH2 0x246 JUMPI PUSH2 0x235 PUSH2 0x22F PUSH2 0x784 JUMP JUMPDEST DUP5 PUSH2 0x78C JUMP JUMPDEST DUP1 PUSH2 0x23F SWAP1 PUSH2 0xEF5 JUMP JUMPDEST SWAP1 POP PUSH2 0x21C JUMP JUMPDEST POP PUSH1 0x0 PUSH1 0x2 PUSH1 0x0 SWAP1 SLOAD SWAP1 PUSH2 0x100 EXP SWAP1 DIV PUSH20 0xFFFFFFFFFFFFFFFFFFFFFFFFFFFFFFFFFFFFFFFF AND PUSH20 0xFFFFFFFFFFFFFFFFFFFFFFFFFFFFFFFFFFFFFFFF AND PUSH2 0x2A8 DUP4 PUSH1 0x3 PUSH1 0x0 DUP8 DUP2 MSTORE PUSH1 0x20 ADD SWAP1 DUP2 MSTORE PUSH1 0x20 ADD PUSH1 0x0 KECCAK256 SLOAD PUSH2 0x927 SWAP1 SWAP2 SWAP1 PUSH4 0xFFFFFFFF AND JUMP JUMPDEST PUSH1 0x40 MLOAD PUSH2 0x2B4 SWAP1 PUSH2 0xCBF JUMP JUMPDEST PUSH1 0x0 PUSH1 0x40 MLOAD DUP1 DUP4 SUB DUP2 DUP6 DUP8 GAS CALL SWAP3 POP POP POP RETURNDATASIZE DUP1 PUSH1 0x0 DUP2 EQ PUSH2 0x2F1 JUMPI PUSH1 0x40 MLOAD SWAP2 POP PUSH1 0x1F NOT PUSH1 0x3F RETURNDATASIZE ADD AND DUP3 ADD PUSH1 0x40 MSTORE RETURNDATASIZE DUP3 MSTORE RETURNDATASIZE PUSH1 0x0 PUSH1 0x20 DUP5 ADD RETURNDATACOPY PUSH2 0x2F6 JUMP JUMPDEST PUSH1 0x60 SWAP2 POP JUMPDEST POP POP SWAP1 POP DUP1 PUSH2 0x33A JUMPI PUSH1 0x40 MLOAD PUSH32 0x8C379A000000000000000000000000000000000000000000000000000000000 DUP2 MSTORE PUSH1 0x4 ADD PUSH2 0x331 SWAP1 PUSH2 0xDB3 JUMP JUMPDEST PUSH1 0x40 MLOAD DUP1 SWAP2 SUB SWAP1 REVERT JUMPDEST POP POP POP JUMP JUMPDEST PUSH1 0x3 PUSH1 0x20 MSTORE DUP1 PUSH1 0x0 MSTORE PUSH1 0x40 PUSH1 0x0 KECCAK256 PUSH1 0x0 SWAP2 POP SWAP1 POP SLOAD DUP2 JUMP JUMPDEST PUSH1 0x1 PUSH1 0x0 SWAP1 SLOAD SWAP1 PUSH2 0x100 EXP SWAP1 DIV PUSH20 0xFFFFFFFFFFFFFFFFFFFFFFFFFFFFFFFFFFFFFFFF AND DUP2 JUMP JUMPDEST PUSH1 0x2 PUSH1 0x0 SWAP1 SLOAD SWAP1 PUSH2 0x100 EXP SWAP1 DIV PUSH20 0xFFFFFFFFFFFFFFFFFFFFFFFFFFFFFFFFFFFFFFFF AND DUP2 JUMP JUMPDEST PUSH2 0x3AB PUSH2 0x784 JUMP JUMPDEST PUSH20 0xFFFFFFFFFFFFFFFFFFFFFFFFFFFFFFFFFFFFFFFF AND PUSH1 0x0 DUP1 SLOAD SWAP1 PUSH2 0x100 EXP SWAP1 DIV PUSH20 0xFFFFFFFFFFFFFFFFFFFFFFFFFFFFFFFFFFFFFFFF AND PUSH20 0xFFFFFFFFFFFFFFFFFFFFFFFFFFFFFFFFFFFFFFFF AND EQ PUSH2 0x438 JUMPI PUSH1 0x40 MLOAD PUSH32 0x8C379A000000000000000000000000000000000000000000000000000000000 DUP2 MSTORE PUSH1 0x4 ADD PUSH2 0x42F SWAP1 PUSH2 0xD93 JUMP JUMPDEST PUSH1 0x40 MLOAD DUP1 SWAP2 SUB SWAP1 REVERT JUMPDEST PUSH1 0x0 PUSH20 0xFFFFFFFFFFFFFFFFFFFFFFFFFFFFFFFFFFFFFFFF AND PUSH1 0x0 DUP1 SLOAD SWAP1 PUSH2 0x100 EXP SWAP1 DIV PUSH20 0xFFFFFFFFFFFFFFFFFFFFFFFFFFFFFFFFFFFFFFFF AND PUSH20 0xFFFFFFFFFFFFFFFFFFFFFFFFFFFFFFFFFFFFFFFF AND PUSH32 0x8BE0079C531659141344CD1FD0A4F28419497F9722A3DAAFE3B4186F6B6457E0 PUSH1 0x40 MLOAD PUSH1 0x40 MLOAD DUP1 SWAP2 SUB SWAP1 LOG3 PUSH1 0x0 DUP1 PUSH1 0x0 PUSH2 0x100 EXP DUP2 SLOAD DUP2 PUSH20 0xFFFFFFFFFFFFFFFFFFFFFFFFFFFFFFFFFFFFFFFF MUL NOT AND SWAP1 DUP4 PUSH20 0xFFFFFFFFFFFFFFFFFFFFFFFFFFFFFFFFFFFFFFFF AND MUL OR SWAP1 SSTORE POP JUMP JUMPDEST PUSH1 0x0 DUP1 PUSH1 0x0 SWAP1 SLOAD SWAP1 PUSH2 0x100 EXP SWAP1 DIV PUSH20 0xFFFFFFFFFFFFFFFFFFFFFFFFFFFFFFFFFFFFFFFF AND SWAP1 POP SWAP1 JUMP JUMPDEST PUSH2 0x527 PUSH2 0x784 JUMP JUMPDEST PUSH20 0xFFFFFFFFFFFFFFFFFFFFFFFFFFFFFFFFFFFFFFFF AND PUSH1 0x0 DUP1 SLOAD SWAP1 PUSH2 0x100 EXP SWAP1 DIV PUSH20 0xFFFFFFFFFFFFFFFFFFFFFFFFFFFFFFFFFFFFFFFF AND PUSH20 0xFFFFFFFFFFFFFFFFFFFFFFFFFFFFFFFFFFFFFFFF AND EQ PUSH2 0x5B4 JUMPI PUSH1 0x40 MLOAD PUSH32 0x8C379A000000000000000000000000000000000000000000000000000000000 DUP2 MSTORE PUSH1 0x4 ADD PUSH2 0x5AB SWAP1 PUSH2 0xD93 JUMP JUMPDEST PUSH1 0x40 MLOAD DUP1 SWAP2 SUB SWAP1 REVERT JUMPDEST PUSH2 0x5BE DUP3 DUP3 PUSH2 0x9A2 JUMP JUMPDEST POP POP JUMP JUMPDEST PUSH2 0x5CA PUSH2 0x784 JUMP JUMPDEST PUSH20 0xFFFFFFFFFFFFFFFFFFFFFFFFFFFFFFFFFFFFFFFF AND PUSH1 0x0 DUP1 SLOAD SWAP1 PUSH2 0x100 EXP SWAP1 DIV PUSH20 0xFFFFFFFFFFFFFFFFFFFFFFFFFFFFFFFFFFFFFFFF AND PUSH20 0xFFFFFFFFFFFFFFFFFFFFFFFFFFFFFFFFFFFFFFFF AND EQ PUSH2 0x657 JUMPI PUSH1 0x40 MLOAD PUSH32 0x8C379A000000000000000000000000000000000000000000000000000000000 DUP2 MSTORE PUSH1 0x4 ADD PUSH2 0x64E SWAP1 PUSH2 0xD93 JUMP JUMPDEST PUSH1 0x40 MLOAD DUP1 SWAP2 SUB SWAP1 REVERT JUMPDEST PUSH1 0x0 PUSH20 0xFFFFFFFFFFFFFFFFFFFFFFFFFFFFFFFFFFFFFFFF AND DUP2 PUSH20 0xFFFFFFFFFFFFFFFFFFFFFFFFFFFFFFFFFFFFFFFF AND EQ ISZERO PUSH2 0x6C7 JUMPI PUSH1 0x40 MLOAD PUSH32 0x8C379A000000000000000000000000000000000000000000000000000000000 DUP2 MSTORE PUSH1 0x4 ADD PUSH2 0x6BE SWAP1 PUSH2 0xD33 JUMP JUMPDEST PUSH1 0x40 MLOAD DUP1 SWAP2 SUB SWAP1 REVERT JUMPDEST DUP1 PUSH20 0xFFFFFFFFFFFFFFFFFFFFFFFFFFFFFFFFFFFFFFFF AND PUSH1 0x0 DUP1 SLOAD SWAP1 PUSH2 0x100 EXP SWAP1 DIV PUSH20 0xFFFFFFFFFFFFFFFFFFFFFFFFFFFFFFFFFFFFFFFF AND PUSH20 0xFFFFFFFFFFFFFFFFFFFFFFFFFFFFFFFFFFFFFFFF AND PUSH32 0x8BE0079C531659141344CD1FD0A4F28419497F9722A3DAAFE3B4186F6B6457E0 PUSH1 0x40 MLOAD PUSH1 0x40 MLOAD DUP1 SWAP2 SUB SWAP1 LOG3 DUP1 PUSH1 0x0 DUP1 PUSH2 0x100 EXP DUP2 SLOAD DUP2 PUSH20 0xFFFFFFFFFFFFFFFFFFFFFFFFFFFFFFFFFFFFFFFF MUL NOT AND SWAP1 DUP4 PUSH20 0xFFFFFFFFFFFFFFFFFFFFFFFFFFFFFFFFFFFFFFFF AND MUL OR SWAP1 SSTORE POP POP JUMP JUMPDEST PUSH1 0x0 CALLER SWAP1 POP SWAP1 JUMP JUMPDEST PUSH1 0x0 PUSH1 0x1 PUSH1 0x0 SWAP1 SLOAD SWAP1 PUSH2 0x100 EXP SWAP1 DIV PUSH20 0xFFFFFFFFFFFFFFFFFFFFFFFFFFFFFFFFFFFFFFFF AND PUSH20 0xFFFFFFFFFFFFFFFFFFFFFFFFFFFFFFFFFFFFFFFF AND PUSH4 0x1C178087 PUSH1 0x40 MLOAD DUP2 PUSH4 0xFFFFFFFF AND PUSH1 0xE0 SHL DUP2 MSTORE PUSH1 0x4 ADD PUSH1 0x20 PUSH1 0x40 MLOAD DUP1 DUP4 SUB DUP2 DUP7 DUP1 EXTCODESIZE ISZERO DUP1 ISZERO PUSH2 0x7F6 JUMPI PUSH1 0x0 DUP1 REVERT JUMPDEST POP GAS STATICCALL ISZERO DUP1 ISZERO PUSH2 0x80A JUMPI RETURNDATASIZE PUSH1 0x0 DUP1 RETURNDATACOPY RETURNDATASIZE PUSH1 0x0 REVERT JUMPDEST POP POP POP POP PUSH1 0x40 MLOAD RETURNDATASIZE PUSH1 0x1F NOT PUSH1 0x1F DUP3 ADD AND DUP3 ADD DUP1 PUSH1 0x40 MSTORE POP DUP2 ADD SWAP1 PUSH2 0x82E SWAP2 SWAP1 PUSH2 0xA87 JUMP JUMPDEST SWAP1 POP PUSH1 0x1 PUSH1 0x0 SWAP1 SLOAD SWAP1 PUSH2 0x100 EXP SWAP1 DIV PUSH20 0xFFFFFFFFFFFFFFFFFFFFFFFFFFFFFFFFFFFFFFFF AND PUSH20 0xFFFFFFFFFFFFFFFFFFFFFFFFFFFFFFFFFFFFFFFF AND PUSH4 0xA1448194 DUP5 DUP5 PUSH1 0x40 MLOAD DUP4 PUSH4 0xFFFFFFFF AND PUSH1 0xE0 SHL DUP2 MSTORE PUSH1 0x4 ADD PUSH2 0x88D SWAP3 SWAP2 SWAP1 PUSH2 0xCEF JUMP JUMPDEST PUSH1 0x0 PUSH1 0x40 MLOAD DUP1 DUP4 SUB DUP2 PUSH1 0x0 DUP8 DUP1 EXTCODESIZE ISZERO DUP1 ISZERO PUSH2 0x8A7 JUMPI PUSH1 0x0 DUP1 REVERT JUMPDEST POP GAS CALL ISZERO DUP1 ISZERO PUSH2 0x8BB JUMPI RETURNDATASIZE PUSH1 0x0 DUP1 RETURNDATACOPY RETURNDATASIZE PUSH1 0x0 REVERT JUMPDEST POP POP POP POP DUP1 DUP3 DUP5 PUSH20 0xFFFFFFFFFFFFFFFFFFFFFFFFFFFFFFFFFFFFFFFF AND PUSH32 0xBEAE048C6D270D9469F86CF6E8FEDDA3C60AD770F16C24C9FC131C8E9A09101D PUSH1 0x3 PUSH1 0x0 DUP8 DUP2 MSTORE PUSH1 0x20 ADD SWAP1 DUP2 MSTORE PUSH1 0x20 ADD PUSH1 0x0 KECCAK256 SLOAD PUSH1 0x40 MLOAD PUSH2 0x91A SWAP2 SWAP1 PUSH2 0xDD3 JUMP JUMPDEST PUSH1 0x40 MLOAD DUP1 SWAP2 SUB SWAP1 LOG4 POP POP POP JUMP JUMPDEST PUSH1 0x0 DUP1 DUP4 EQ ISZERO PUSH2 0x93A JUMPI PUSH1 0x0 SWAP1 POP PUSH2 0x99C JUMP JUMPDEST PUSH1 0x0 DUP3 DUP5 PUSH2 0x948 SWAP2 SWAP1 PUSH2 0xE3B JUMP JUMPDEST SWAP1 POP DUP3 DUP5 DUP3 PUSH2 0x957 SWAP2 SWAP1 PUSH2 0xE0A JUMP JUMPDEST EQ PUSH2 0x997 JUMPI PUSH1 0x40 MLOAD PUSH32 0x8C379A000000000000000000000000000000000000000000000000000000000 DUP2 MSTORE PUSH1 0x4 ADD PUSH2 0x98E SWAP1 PUSH2 0xD73 JUMP JUMPDEST PUSH1 0x40 MLOAD DUP1 SWAP2 SUB SWAP1 REVERT JUMPDEST DUP1 SWAP2 POP POP JUMPDEST SWAP3 SWAP2 POP POP JUMP JUMPDEST DUP1 PUSH1 0x3 PUSH1 0x0 DUP5 DUP2 MSTORE PUSH1 0x20 ADD SWAP1 DUP2 MSTORE PUSH1 0x20 ADD PUSH1 0x0 KECCAK256 DUP2 SWAP1 SSTORE POP DUP2 PUSH32 0x92664190CCA12ACA9CD5309D87194BDDA75BB51362D71C06E1A6F75C7C765711 DUP3 PUSH1 0x40 MLOAD PUSH2 0x9EA SWAP2 SWAP1 PUSH2 0xDD3 JUMP JUMPDEST PUSH1 0x40 MLOAD DUP1 SWAP2 SUB SWAP1 LOG2 POP POP JUMP JUMPDEST PUSH1 0x0 DUP2 CALLDATALOAD SWAP1 POP PUSH2 0xA05 DUP2 PUSH2 0xF9C JUMP JUMPDEST SWAP3 SWAP2 POP POP JUMP JUMPDEST PUSH1 0x0 DUP2 CALLDATALOAD SWAP1 POP PUSH2 0xA1A DUP2 PUSH2 0xFB3 JUMP JUMPDEST SWAP3 SWAP2 POP POP JUMP JUMPDEST PUSH1 0x0 DUP2 MLOAD SWAP1 POP PUSH2 0xA2F DUP2 PUSH2 0xFB3 JUMP JUMPDEST SWAP3 SWAP2 POP POP JUMP JUMPDEST PUSH1 0x0 PUSH1 0x20 DUP3 DUP5 SUB SLT ISZERO PUSH2 0xA47 JUMPI PUSH1 0x0 DUP1 REVERT JUMPDEST PUSH1 0x0 PUSH2 0xA55 DUP5 DUP3 DUP6 ADD PUSH2 0x9F6 JUMP JUMPDEST SWAP2 POP POP SWAP3 SWAP2 POP POP JUMP JUMPDEST PUSH1 0x0 PUSH1 0x20 DUP3 DUP5 SUB SLT ISZERO PUSH2 0xA70 JUMPI PUSH1 0x0 DUP1 REVERT JUMPDEST PUSH1 0x0 PUSH2 0xA7E DUP5 DUP3 DUP6 ADD PUSH2 0xA0B JUMP JUMPDEST SWAP2 POP POP SWAP3 SWAP2 POP POP JUMP JUMPDEST PUSH1 0x0 PUSH1 0x20 DUP3 DUP5 SUB SLT ISZERO PUSH2 0xA99 JUMPI PUSH1 0x0 DUP1 REVERT JUMPDEST PUSH1 0x0 PUSH2 0xAA7 DUP5 DUP3 DUP6 ADD PUSH2 0xA20 JUMP JUMPDEST SWAP2 POP POP SWAP3 SWAP2 POP POP JUMP JUMPDEST PUSH1 0x0 DUP1 PUSH1 0x40 DUP4 DUP6 SUB SLT ISZERO PUSH2 0xAC3 JUMPI PUSH1 0x0 DUP1 REVERT JUMPDEST PUSH1 0x0 PUSH2 0xAD1 DUP6 DUP3 DUP7 ADD PUSH2 0xA0B JUMP JUMPDEST SWAP3 POP POP PUSH1 0x20 PUSH2 0xAE2 DUP6 DUP3 DUP7 ADD PUSH2 0xA0B JUMP JUMPDEST SWAP2 POP POP SWAP3 POP SWAP3 SWAP1 POP JUMP JUMPDEST PUSH2 0xAF5 DUP2 PUSH2 0xE95 JUMP JUMPDEST DUP3 MSTORE POP POP JUMP JUMPDEST PUSH2 0xB04 DUP2 PUSH2 0xED1 JUMP JUMPDEST DUP3 MSTORE POP POP JUMP JUMPDEST PUSH1 0x0 PUSH2 0xB17 PUSH1 0x26 DUP4 PUSH2 0xDF9 JUMP JUMPDEST SWAP2 POP PUSH32 0x4F776E61626C653A206E6577206F776E657220697320746865207A65726F2061 PUSH1 0x0 DUP4 ADD MSTORE PUSH32 0x6464726573730000000000000000000000000000000000000000000000000000 PUSH1 0x20 DUP4 ADD MSTORE PUSH1 0x40 DUP3 ADD SWAP1 POP SWAP2 SWAP1 POP JUMP JUMPDEST PUSH1 0x0 PUSH2 0xB7D PUSH1 0xB DUP4 PUSH2 0xDF9 JUMP JUMPDEST SWAP2 POP PUSH32 0x4E6F74206F6E206C697374000000000000000000000000000000000000000000 PUSH1 0x0 DUP4 ADD MSTORE PUSH1 0x20 DUP3 ADD SWAP1 POP SWAP2 SWAP1 POP JUMP JUMPDEST PUSH1 0x0 PUSH2 0xBBD PUSH1 0x21 DUP4 PUSH2 0xDF9 JUMP JUMPDEST SWAP2 POP PUSH32 0x536166654D6174683A206D756C7469706C69636174696F6E206F766572666C6F PUSH1 0x0 DUP4 ADD MSTORE PUSH32 0x7700000000000000000000000000000000000000000000000000000000000000 PUSH1 0x20 DUP4 ADD MSTORE PUSH1 0x40 DUP3 ADD SWAP1 POP SWAP2 SWAP1 POP JUMP JUMPDEST PUSH1 0x0 PUSH2 0xC23 PUSH1 0x20 DUP4 PUSH2 0xDF9 JUMP JUMPDEST SWAP2 POP PUSH32 0x4F776E61626C653A2063616C6C6572206973206E6F7420746865206F776E6572 PUSH1 0x0 DUP4 ADD MSTORE PUSH1 0x20 DUP3 ADD SWAP1 POP SWAP2 SWAP1 POP JUMP JUMPDEST PUSH1 0x0 PUSH2 0xC63 PUSH1 0x13 DUP4 PUSH2 0xDF9 JUMP JUMPDEST SWAP2 POP PUSH32 0x4661696C656420746F2073656E64206B6C617900000000000000000000000000 PUSH1 0x0 DUP4 ADD MSTORE PUSH1 0x20 DUP3 ADD SWAP1 POP SWAP2 SWAP1 POP JUMP JUMPDEST PUSH1 0x0 PUSH2 0xCA3 PUSH1 0x0 DUP4 PUSH2 0xDEE JUMP JUMPDEST SWAP2 POP PUSH1 0x0 DUP3 ADD SWAP1 POP SWAP2 SWAP1 POP JUMP JUMPDEST PUSH2 0xCB9 DUP2 PUSH2 0xEC7 JUMP JUMPDEST DUP3 MSTORE POP POP JUMP JUMPDEST PUSH1 0x0 PUSH2 0xCCA DUP3 PUSH2 0xC96 JUMP JUMPDEST SWAP2 POP DUP2 SWAP1 POP SWAP2 SWAP1 POP JUMP JUMPDEST PUSH1 0x0 PUSH1 0x20 DUP3 ADD SWAP1 POP PUSH2 0xCE9 PUSH1 0x0 DUP4 ADD DUP5 PUSH2 0xAEC JUMP JUMPDEST SWAP3 SWAP2 POP POP JUMP JUMPDEST PUSH1 0x0 PUSH1 0x40 DUP3 ADD SWAP1 POP PUSH2 0xD04 PUSH1 0x0 DUP4 ADD DUP6 PUSH2 0xAEC JUMP JUMPDEST PUSH2 0xD11 PUSH1 0x20 DUP4 ADD DUP5 PUSH2 0xCB0 JUMP JUMPDEST SWAP4 SWAP3 POP POP POP JUMP JUMPDEST PUSH1 0x0 PUSH1 0x20 DUP3 ADD SWAP1 POP PUSH2 0xD2D PUSH1 0x0 DUP4 ADD DUP5 PUSH2 0xAFB JUMP JUMPDEST SWAP3 SWAP2 POP POP JUMP JUMPDEST PUSH1 0x0 PUSH1 0x20 DUP3 ADD SWAP1 POP DUP2 DUP2 SUB PUSH1 0x0 DUP4 ADD MSTORE PUSH2 0xD4C DUP2 PUSH2 0xB0A JUMP JUMPDEST SWAP1 POP SWAP2 SWAP1 POP JUMP JUMPDEST PUSH1 0x0 PUSH1 0x20 DUP3 ADD SWAP1 POP DUP2 DUP2 SUB PUSH1 0x0 DUP4 ADD MSTORE PUSH2 0xD6C DUP2 PUSH2 0xB70 JUMP JUMPDEST SWAP1 POP SWAP2 SWAP1 POP JUMP JUMPDEST PUSH1 0x0 PUSH1 0x20 DUP3 ADD SWAP1 POP DUP2 DUP2 SUB PUSH1 0x0 DUP4 ADD MSTORE PUSH2 0xD8C DUP2 PUSH2 0xBB0 JUMP JUMPDEST SWAP1 POP SWAP2 SWAP1 POP JUMP JUMPDEST PUSH1 0x0 PUSH1 0x20 DUP3 ADD SWAP1 POP DUP2 DUP2 SUB PUSH1 0x0 DUP4 ADD MSTORE PUSH2 0xDAC DUP2 PUSH2 0xC16 JUMP JUMPDEST SWAP1 POP SWAP2 SWAP1 POP JUMP JUMPDEST PUSH1 0x0 PUSH1 0x20 DUP3 ADD SWAP1 POP DUP2 DUP2 SUB PUSH1 0x0 DUP4 ADD MSTORE PUSH2 0xDCC DUP2 PUSH2 0xC56 JUMP JUMPDEST SWAP1 POP SWAP2 SWAP1 POP JUMP JUMPDEST PUSH1 0x0 PUSH1 0x20 DUP3 ADD SWAP1 POP PUSH2 0xDE8 PUSH1 0x0 DUP4 ADD DUP5 PUSH2 0xCB0 JUMP JUMPDEST SWAP3 SWAP2 POP POP JUMP JUMPDEST PUSH1 0x0 DUP2 SWAP1 POP SWAP3 SWAP2 POP POP JUMP JUMPDEST PUSH1 0x0 DUP3 DUP3 MSTORE PUSH1 0x20 DUP3 ADD SWAP1 POP SWAP3 SWAP2 POP POP JUMP JUMPDEST PUSH1 0x0 PUSH2 0xE15 DUP3 PUSH2 0xEC7 JUMP JUMPDEST SWAP2 POP PUSH2 0xE20 DUP4 PUSH2 0xEC7 JUMP JUMPDEST SWAP3 POP DUP3 PUSH2 0xE30 JUMPI PUSH2 0xE2F PUSH2 0xF6D JUMP JUMPDEST JUMPDEST DUP3 DUP3 DIV SWAP1 POP SWAP3 SWAP2 POP POP JUMP JUMPDEST PUSH1 0x0 PUSH2 0xE46 DUP3 PUSH2 0xEC7 JUMP JUMPDEST SWAP2 POP PUSH2 0xE51 DUP4 PUSH2 0xEC7 JUMP JUMPDEST SWAP3 POP DUP2 PUSH32 0xFFFFFFFFFFFFFFFFFFFFFFFFFFFFFFFFFFFFFFFFFFFFFFFFFFFFFFFFFFFFFFFF DIV DUP4 GT DUP3 ISZERO ISZERO AND ISZERO PUSH2 0xE8A JUMPI PUSH2 0xE89 PUSH2 0xF3E JUMP JUMPDEST JUMPDEST DUP3 DUP3 MUL SWAP1 POP SWAP3 SWAP2 POP POP JUMP JUMPDEST PUSH1 0x0 PUSH2 0xEA0 DUP3 PUSH2 0xEA7 JUMP JUMPDEST SWAP1 POP SWAP2 SWAP1 POP JUMP JUMPDEST PUSH1 0x0 PUSH20 0xFFFFFFFFFFFFFFFFFFFFFFFFFFFFFFFFFFFFFFFF DUP3 AND SWAP1 POP SWAP2 SWAP1 POP JUMP JUMPDEST PUSH1 0x0 DUP2 SWAP1 POP SWAP2 SWAP1 POP JUMP JUMPDEST PUSH1 0x0 PUSH2 0xEDC DUP3 PUSH2 0xEE3 JUMP JUMPDEST SWAP1 POP SWAP2 SWAP1 POP JUMP JUMPDEST PUSH1 0x0 PUSH2 0xEEE DUP3 PUSH2 0xEA7 JUMP JUMPDEST SWAP1 POP SWAP2 SWAP1 POP JUMP JUMPDEST PUSH1 0x0 PUSH2 0xF00 DUP3 PUSH2 0xEC7 JUMP JUMPDEST SWAP2 POP PUSH32 0xFFFFFFFFFFFFFFFFFFFFFFFFFFFFFFFFFFFFFFFFFFFFFFFFFFFFFFFFFFFFFFFF DUP3 EQ ISZERO PUSH2 0xF33 JUMPI PUSH2 0xF32 PUSH2 0xF3E JUMP JUMPDEST JUMPDEST PUSH1 0x1 DUP3 ADD SWAP1 POP SWAP2 SWAP1 POP JUMP JUMPDEST PUSH32 0x4E487B7100000000000000000000000000000000000000000000000000000000 PUSH1 0x0 MSTORE PUSH1 0x11 PUSH1 0x4 MSTORE PUSH1 0x24 PUSH1 0x0 REVERT JUMPDEST PUSH32 0x4E487B7100000000000000000000000000000000000000000000000000000000 PUSH1 0x0 MSTORE PUSH1 0x12 PUSH1 0x4 MSTORE PUSH1 0x24 PUSH1 0x0 REVERT JUMPDEST PUSH2 0xFA5 DUP2 PUSH2 0xE95 JUMP JUMPDEST DUP2 EQ PUSH2 0xFB0 JUMPI PUSH1 0x0 DUP1 REVERT JUMPDEST POP JUMP JUMPDEST PUSH2 0xFBC DUP2 PUSH2 0xEC7 JUMP JUMPDEST DUP2 EQ PUSH2 0xFC7 JUMPI PUSH1 0x0 DUP1 REVERT JUMPDEST POP JUMP INVALID LOG2 PUSH5 0x6970667358 0x22 SLT KECCAK256 0x4C 0xC7 JUMP OR 0xD2 PUSH22 0x65396FD6CD173676C19CEA29C257561E3825FC96B816 SAR RETURN DUP12 ADDMOD PUSH5 0x736F6C6343 STOP ADDMOD STOP STOP CALLER "
				},
				"gasEstimates": {
					"creation": {
						"codeDepositCost": "819200",
						"executionCost": "infinite",
						"totalCost": "infinite"
					},
					"external": {
						"_commodityPrices(uint256)": "infinite",
						"nft()": "1302",
						"owner()": "1244",
						"renounceOwnership()": "24291",
						"safeBuyToken(uint256,uint256)": "infinite",
						"safeListToken(uint256,uint256)": "infinite",
						"transferOwnership(address)": "24706",
						"treasury()": "1281"
					},
					"internal": {
						"_buyToken(address,uint256)": "infinite",
						"_listToken(uint256,uint256)": "infinite"
					}
				},
				"methodIdentifiers": {
					"_commodityPrices(uint256)": "432be4d0",
					"nft()": "47ccca02",
					"owner()": "8da5cb5b",
					"renounceOwnership()": "715018a6",
					"safeBuyToken(uint256,uint256)": "3e56e6c3",
					"safeListToken(uint256,uint256)": "d3f50573",
					"transferOwnership(address)": "f2fde38b",
					"treasury()": "61d027b3"
				}
			},
			"storageLayout": {
				"storage": [
					{
						"astId": 292,
						"contract": "atta-movies/ERC721/binance/ERC721VendingMachineAutoIdForKlay.sol:VendingMachine",
						"label": "_owner",
						"offset": 0,
						"slot": "0",
						"type": "t_address"
					},
					{
						"astId": 907,
						"contract": "atta-movies/ERC721/binance/ERC721VendingMachineAutoIdForKlay.sol:VendingMachine",
						"label": "nft",
						"offset": 0,
						"slot": "1",
						"type": "t_contract(IERC721MintableAutoId)899"
					},
					{
						"astId": 909,
						"contract": "atta-movies/ERC721/binance/ERC721VendingMachineAutoIdForKlay.sol:VendingMachine",
						"label": "treasury",
						"offset": 0,
						"slot": "2",
						"type": "t_address"
					},
					{
						"astId": 913,
						"contract": "atta-movies/ERC721/binance/ERC721VendingMachineAutoIdForKlay.sol:VendingMachine",
						"label": "_commodityPrices",
						"offset": 0,
						"slot": "3",
						"type": "t_mapping(t_uint256,t_uint256)"
					}
				],
				"types": {
					"t_address": {
						"encoding": "inplace",
						"label": "address",
						"numberOfBytes": "20"
					},
					"t_contract(IERC721MintableAutoId)899": {
						"encoding": "inplace",
						"label": "contract IERC721MintableAutoId",
						"numberOfBytes": "20"
					},
					"t_mapping(t_uint256,t_uint256)": {
						"encoding": "mapping",
						"key": "t_uint256",
						"label": "mapping(uint256 => uint256)",
						"numberOfBytes": "32",
						"value": "t_uint256"
					},
					"t_uint256": {
						"encoding": "inplace",
						"label": "uint256",
						"numberOfBytes": "32"
					}
				}
			},
			"userdoc": {
				"kind": "user",
				"methods": {},
				"version": 1
			}
		}
	}
}