{
	"atta-movies/ERC20/busd.sol": {
		"ERC20Token": {
			"abi": [
				{
					"inputs": [],
					"stateMutability": "nonpayable",
					"type": "constructor"
				},
				{
					"anonymous": false,
					"inputs": [
						{
							"indexed": true,
							"internalType": "address",
							"name": "owner",
							"type": "address"
						},
						{
							"indexed": true,
							"internalType": "address",
							"name": "spender",
							"type": "address"
						},
						{
							"indexed": false,
							"internalType": "uint256",
							"name": "value",
							"type": "uint256"
						}
					],
					"name": "Approval",
					"type": "event"
				},
				{
					"anonymous": false,
					"inputs": [
						{
							"indexed": true,
							"internalType": "address",
							"name": "previousOwner",
							"type": "address"
						},
						{
							"indexed": true,
							"internalType": "address",
							"name": "newOwner",
							"type": "address"
						}
					],
					"name": "OwnershipTransferred",
					"type": "event"
				},
				{
					"anonymous": false,
					"inputs": [
						{
							"indexed": true,
							"internalType": "address",
							"name": "from",
							"type": "address"
						},
						{
							"indexed": true,
							"internalType": "address",
							"name": "to",
							"type": "address"
						},
						{
							"indexed": false,
							"internalType": "uint256",
							"name": "value",
							"type": "uint256"
						}
					],
					"name": "Transfer",
					"type": "event"
				},
				{
					"inputs": [],
					"name": "_decimals",
					"outputs": [
						{
							"internalType": "uint8",
							"name": "",
							"type": "uint8"
						}
					],
					"stateMutability": "view",
					"type": "function"
				},
				{
					"inputs": [],
					"name": "_name",
					"outputs": [
						{
							"internalType": "string",
							"name": "",
							"type": "string"
						}
					],
					"stateMutability": "view",
					"type": "function"
				},
				{
					"inputs": [],
					"name": "_symbol",
					"outputs": [
						{
							"internalType": "string",
							"name": "",
							"type": "string"
						}
					],
					"stateMutability": "view",
					"type": "function"
				},
				{
					"inputs": [
						{
							"internalType": "address",
							"name": "owner",
							"type": "address"
						},
						{
							"internalType": "address",
							"name": "spender",
							"type": "address"
						}
					],
					"name": "allowance",
					"outputs": [
						{
							"internalType": "uint256",
							"name": "",
							"type": "uint256"
						}
					],
					"stateMutability": "view",
					"type": "function"
				},
				{
					"inputs": [
						{
							"internalType": "address",
							"name": "spender",
							"type": "address"
						},
						{
							"internalType": "uint256",
							"name": "amount",
							"type": "uint256"
						}
					],
					"name": "approve",
					"outputs": [
						{
							"internalType": "bool",
							"name": "",
							"type": "bool"
						}
					],
					"stateMutability": "nonpayable",
					"type": "function"
				},
				{
					"inputs": [
						{
							"internalType": "address",
							"name": "account",
							"type": "address"
						}
					],
					"name": "balanceOf",
					"outputs": [
						{
							"internalType": "uint256",
							"name": "",
							"type": "uint256"
						}
					],
					"stateMutability": "view",
					"type": "function"
				},
				{
					"inputs": [
						{
							"internalType": "uint256",
							"name": "amount",
							"type": "uint256"
						}
					],
					"name": "burn",
					"outputs": [
						{
							"internalType": "bool",
							"name": "",
							"type": "bool"
						}
					],
					"stateMutability": "nonpayable",
					"type": "function"
				},
				{
					"inputs": [],
					"name": "decimals",
					"outputs": [
						{
							"internalType": "uint8",
							"name": "",
							"type": "uint8"
						}
					],
					"stateMutability": "view",
					"type": "function"
				},
				{
					"inputs": [
						{
							"internalType": "address",
							"name": "spender",
							"type": "address"
						},
						{
							"internalType": "uint256",
							"name": "subtractedValue",
							"type": "uint256"
						}
					],
					"name": "decreaseAllowance",
					"outputs": [
						{
							"internalType": "bool",
							"name": "",
							"type": "bool"
						}
					],
					"stateMutability": "nonpayable",
					"type": "function"
				},
				{
					"inputs": [],
					"name": "getOwner",
					"outputs": [
						{
							"internalType": "address",
							"name": "",
							"type": "address"
						}
					],
					"stateMutability": "view",
					"type": "function"
				},
				{
					"inputs": [
						{
							"internalType": "address",
							"name": "spender",
							"type": "address"
						},
						{
							"internalType": "uint256",
							"name": "addedValue",
							"type": "uint256"
						}
					],
					"name": "increaseAllowance",
					"outputs": [
						{
							"internalType": "bool",
							"name": "",
							"type": "bool"
						}
					],
					"stateMutability": "nonpayable",
					"type": "function"
				},
				{
					"inputs": [
						{
							"internalType": "uint256",
							"name": "amount",
							"type": "uint256"
						}
					],
					"name": "mint",
					"outputs": [
						{
							"internalType": "bool",
							"name": "",
							"type": "bool"
						}
					],
					"stateMutability": "nonpayable",
					"type": "function"
				},
				{
					"inputs": [],
					"name": "name",
					"outputs": [
						{
							"internalType": "string",
							"name": "",
							"type": "string"
						}
					],
					"stateMutability": "view",
					"type": "function"
				},
				{
					"inputs": [],
					"name": "owner",
					"outputs": [
						{
							"internalType": "address",
							"name": "",
							"type": "address"
						}
					],
					"stateMutability": "view",
					"type": "function"
				},
				{
					"inputs": [],
					"name": "renounceOwnership",
					"outputs": [],
					"stateMutability": "nonpayable",
					"type": "function"
				},
				{
					"inputs": [],
					"name": "symbol",
					"outputs": [
						{
							"internalType": "string",
							"name": "",
							"type": "string"
						}
					],
					"stateMutability": "view",
					"type": "function"
				},
				{
					"inputs": [],
					"name": "totalSupply",
					"outputs": [
						{
							"internalType": "uint256",
							"name": "",
							"type": "uint256"
						}
					],
					"stateMutability": "view",
					"type": "function"
				},
				{
					"inputs": [
						{
							"internalType": "address",
							"name": "recipient",
							"type": "address"
						},
						{
							"internalType": "uint256",
							"name": "amount",
							"type": "uint256"
						}
					],
					"name": "transfer",
					"outputs": [
						{
							"internalType": "bool",
							"name": "",
							"type": "bool"
						}
					],
					"stateMutability": "nonpayable",
					"type": "function"
				},
				{
					"inputs": [
						{
							"internalType": "address",
							"name": "sender",
							"type": "address"
						},
						{
							"internalType": "address",
							"name": "recipient",
							"type": "address"
						},
						{
							"internalType": "uint256",
							"name": "amount",
							"type": "uint256"
						}
					],
					"name": "transferFrom",
					"outputs": [
						{
							"internalType": "bool",
							"name": "",
							"type": "bool"
						}
					],
					"stateMutability": "nonpayable",
					"type": "function"
				},
				{
					"inputs": [
						{
							"internalType": "address",
							"name": "newOwner",
							"type": "address"
						}
					],
					"name": "transferOwnership",
					"outputs": [],
					"stateMutability": "nonpayable",
					"type": "function"
				}
			],
			"devdoc": {
				"kind": "dev",
				"methods": {
					"allowance(address,address)": {
						"details": "See {BEP20-allowance}."
					},
					"approve(address,uint256)": {
						"details": "See {BEP20-approve}. Requirements: - `spender` cannot be the zero address."
					},
					"balanceOf(address)": {
						"details": "See {BEP20-balanceOf}."
					},
					"burn(uint256)": {
						"details": "Burn `amount` tokens and decreasing the total supply."
					},
					"decimals()": {
						"details": "Returns the token decimals."
					},
					"decreaseAllowance(address,uint256)": {
						"details": "Atomically decreases the allowance granted to `spender` by the caller. This is an alternative to {approve} that can be used as a mitigation for problems described in {BEP20-approve}. Emits an {Approval} event indicating the updated allowance. Requirements: - `spender` cannot be the zero address. - `spender` must have allowance for the caller of at least `subtractedValue`."
					},
					"getOwner()": {
						"details": "Returns the bep token owner."
					},
					"increaseAllowance(address,uint256)": {
						"details": "Atomically increases the allowance granted to `spender` by the caller. This is an alternative to {approve} that can be used as a mitigation for problems described in {BEP20-approve}. Emits an {Approval} event indicating the updated allowance. Requirements: - `spender` cannot be the zero address."
					},
					"mint(uint256)": {
						"details": "Creates `amount` tokens and assigns them to `msg.sender`, increasing the total supply. Requirements - `msg.sender` must be the token owner"
					},
					"name()": {
						"details": "Returns the token name."
					},
					"owner()": {
						"details": "Returns the address of the current owner."
					},
					"renounceOwnership()": {
						"details": "Leaves the contract without owner. It will not be possible to call `onlyOwner` functions anymore. Can only be called by the current owner. NOTE: Renouncing ownership will leave the contract without an owner, thereby removing any functionality that is only available to the owner."
					},
					"symbol()": {
						"details": "Returns the token symbol."
					},
					"totalSupply()": {
						"details": "See {BEP20-totalSupply}."
					},
					"transfer(address,uint256)": {
						"details": "See {BEP20-transfer}. Requirements: - `recipient` cannot be the zero address. - the caller must have a balance of at least `amount`."
					},
					"transferFrom(address,address,uint256)": {
						"details": "See {BEP20-transferFrom}. Emits an {Approval} event indicating the updated allowance. This is not required by the EIP. See the note at the beginning of {BEP20}; Requirements: - `sender` and `recipient` cannot be the zero address. - `sender` must have a balance of at least `amount`. - the caller must have allowance for `sender`'s tokens of at least `amount`."
					},
					"transferOwnership(address)": {
						"details": "Transfers ownership of the contract to a new account (`newOwner`). Can only be called by the current owner."
					}
				},
				"version": 1
			},
			"evm": {
				"assembly": "    /* \"atta-movies/ERC20/busd.sol\":11368:19445  contract ERC20Token is Context, IERC20, Ownable {\r... */\n  mstore(0x40, 0x80)\n    /* \"atta-movies/ERC20/busd.sol\":11695:11931  constructor() public {\r... */\n  callvalue\n  dup1\n  iszero\n  tag_1\n  jumpi\n  0x00\n  dup1\n  revert\ntag_1:\n  pop\n    /* \"atta-movies/ERC20/busd.sol\":9877:9894  address msgSender */\n  0x00\n    /* \"atta-movies/ERC20/busd.sol\":9897:9909  _msgSender() */\n  tag_7\n    /* \"atta-movies/ERC20/busd.sol\":9897:9907  _msgSender */\n  shl(0x20, tag_8)\n    /* \"atta-movies/ERC20/busd.sol\":9897:9909  _msgSender() */\n  0x20\n  shr\n  jump\t// in\ntag_7:\n    /* \"atta-movies/ERC20/busd.sol\":9877:9909  address msgSender = _msgSender() */\n  swap1\n  pop\n    /* \"atta-movies/ERC20/busd.sol\":9925:9934  msgSender */\n  dup1\n    /* \"atta-movies/ERC20/busd.sol\":9916:9922  _owner */\n  0x00\n  dup1\n    /* \"atta-movies/ERC20/busd.sol\":9916:9934  _owner = msgSender */\n  0x0100\n  exp\n  dup2\n  sload\n  dup2\n  0xffffffffffffffffffffffffffffffffffffffff\n  mul\n  not\n  and\n  swap1\n  dup4\n  0xffffffffffffffffffffffffffffffffffffffff\n  and\n  mul\n  or\n  swap1\n  sstore\n  pop\n    /* \"atta-movies/ERC20/busd.sol\":9979:9988  msgSender */\n  dup1\n    /* \"atta-movies/ERC20/busd.sol\":9946:9989  OwnershipTransferred(address(0), msgSender) */\n  0xffffffffffffffffffffffffffffffffffffffff\n  and\n    /* \"atta-movies/ERC20/busd.sol\":9975:9976  0 */\n  0x00\n    /* \"atta-movies/ERC20/busd.sol\":9946:9989  OwnershipTransferred(address(0), msgSender) */\n  0xffffffffffffffffffffffffffffffffffffffff\n  and\n  0x8be0079c531659141344cd1fd0a4f28419497f9722a3daafe3b4186f6b6457e0\n  mload(0x40)\n  mload(0x40)\n  dup1\n  swap2\n  sub\n  swap1\n  log3\n    /* \"atta-movies/ERC20/busd.sol\":9855:9995  constructor () {\r... */\n  pop\n    /* \"atta-movies/ERC20/busd.sol\":11723:11743  _name = \"Tether USD\" */\n  mload(0x40)\n  dup1\n  0x40\n  add\n  0x40\n  mstore\n  dup1\n  0x0a\n  dup2\n  mstore\n  0x20\n  add\n  0x5465746865722055534400000000000000000000000000000000000000000000\n  dup2\n  mstore\n  pop\n    /* \"atta-movies/ERC20/busd.sol\":11723:11728  _name */\n  0x06\n    /* \"atta-movies/ERC20/busd.sol\":11723:11743  _name = \"Tether USD\" */\n  swap1\n  dup1\n  mload\n  swap1\n  0x20\n  add\n  swap1\n  tag_10\n  swap3\n  swap2\n  swap1\n  tag_11\n  jump\t// in\ntag_10:\n  pop\n    /* \"atta-movies/ERC20/busd.sol\":11750:11766  _symbol = \"USDT\" */\n  mload(0x40)\n  dup1\n  0x40\n  add\n  0x40\n  mstore\n  dup1\n  0x04\n  dup2\n  mstore\n  0x20\n  add\n  0x5553445400000000000000000000000000000000000000000000000000000000\n  dup2\n  mstore\n  pop\n    /* \"atta-movies/ERC20/busd.sol\":11750:11757  _symbol */\n  0x05\n    /* \"atta-movies/ERC20/busd.sol\":11750:11766  _symbol = \"USDT\" */\n  swap1\n  dup1\n  mload\n  swap1\n  0x20\n  add\n  swap1\n  tag_12\n  swap3\n  swap2\n  swap1\n  tag_11\n  jump\t// in\ntag_12:\n  pop\n    /* \"atta-movies/ERC20/busd.sol\":11785:11786  6 */\n  0x06\n    /* \"atta-movies/ERC20/busd.sol\":11773:11782  _decimals */\n  0x04\n  0x00\n    /* \"atta-movies/ERC20/busd.sol\":11773:11786  _decimals = 6 */\n  0x0100\n  exp\n  dup2\n  sload\n  dup2\n  0xff\n  mul\n  not\n  and\n  swap1\n  dup4\n  0xff\n  and\n  mul\n  or\n  swap1\n  sstore\n  pop\n    /* \"atta-movies/ERC20/busd.sol\":11808:11822  31000000000000 */\n  0x1c31bffcf000\n    /* \"atta-movies/ERC20/busd.sol\":11793:11805  _totalSupply */\n  0x03\n    /* \"atta-movies/ERC20/busd.sol\":11793:11822  _totalSupply = 31000000000000 */\n  dup2\n  swap1\n  sstore\n  pop\n    /* \"atta-movies/ERC20/busd.sol\":11853:11865  _totalSupply */\n  sload(0x03)\n    /* \"atta-movies/ERC20/busd.sol\":11829:11838  _balances */\n  0x01\n    /* \"atta-movies/ERC20/busd.sol\":11829:11850  _balances[msg.sender] */\n  0x00\n    /* \"atta-movies/ERC20/busd.sol\":11839:11849  msg.sender */\n  caller\n    /* \"atta-movies/ERC20/busd.sol\":11829:11850  _balances[msg.sender] */\n  0xffffffffffffffffffffffffffffffffffffffff\n  and\n  0xffffffffffffffffffffffffffffffffffffffff\n  and\n  dup2\n  mstore\n  0x20\n  add\n  swap1\n  dup2\n  mstore\n  0x20\n  add\n  0x00\n  keccak256\n    /* \"atta-movies/ERC20/busd.sol\":11829:11865  _balances[msg.sender] = _totalSupply */\n  dup2\n  swap1\n  sstore\n  pop\n    /* \"atta-movies/ERC20/busd.sol\":11900:11910  msg.sender */\n  caller\n    /* \"atta-movies/ERC20/busd.sol\":11879:11925  Transfer(address(0), msg.sender, _totalSupply) */\n  0xffffffffffffffffffffffffffffffffffffffff\n  and\n    /* \"atta-movies/ERC20/busd.sol\":11896:11897  0 */\n  0x00\n    /* \"atta-movies/ERC20/busd.sol\":11879:11925  Transfer(address(0), msg.sender, _totalSupply) */\n  0xffffffffffffffffffffffffffffffffffffffff\n  and\n  0xddf252ad1be2c89b69c2b068fc378daa952ba7f163c4a11628f55a4df523b3ef\n    /* \"atta-movies/ERC20/busd.sol\":11912:11924  _totalSupply */\n  sload(0x03)\n    /* \"atta-movies/ERC20/busd.sol\":11879:11925  Transfer(address(0), msg.sender, _totalSupply) */\n  mload(0x40)\n  tag_13\n  swap2\n  swap1\n  tag_14\n  jump\t// in\ntag_13:\n  mload(0x40)\n  dup1\n  swap2\n  sub\n  swap1\n  log3\n    /* \"atta-movies/ERC20/busd.sol\":11368:19445  contract ERC20Token is Context, IERC20, Ownable {\r... */\n  jump(tag_15)\n    /* \"atta-movies/ERC20/busd.sol\":3765:3866  function _msgSender() internal view returns (address payable) {\r... */\ntag_8:\n    /* \"atta-movies/ERC20/busd.sol\":3810:3825  address payable */\n  0x00\n    /* \"atta-movies/ERC20/busd.sol\":3849:3859  msg.sender */\n  caller\n    /* \"atta-movies/ERC20/busd.sol\":3834:3860  return payable(msg.sender) */\n  swap1\n  pop\n    /* \"atta-movies/ERC20/busd.sol\":3765:3866  function _msgSender() internal view returns (address payable) {\r... */\n  swap1\n  jump\t// out\n    /* \"atta-movies/ERC20/busd.sol\":11368:19445  contract ERC20Token is Context, IERC20, Ownable {\r... */\ntag_11:\n  dup3\n  dup1\n  sload\n  tag_17\n  swap1\n  tag_18\n  jump\t// in\ntag_17:\n  swap1\n  0x00\n  mstore\n  keccak256(0x00, 0x20)\n  swap1\n  0x1f\n  add\n  0x20\n  swap1\n  div\n  dup2\n  add\n  swap3\n  dup3\n  tag_20\n  jumpi\n  0x00\n  dup6\n  sstore\n  jump(tag_19)\ntag_20:\n  dup3\n  0x1f\n  lt\n  tag_21\n  jumpi\n  dup1\n  mload\n  not(0xff)\n  and\n  dup4\n  dup1\n  add\n  or\n  dup6\n  sstore\n  jump(tag_19)\ntag_21:\n  dup3\n  dup1\n  add\n  0x01\n  add\n  dup6\n  sstore\n  dup3\n  iszero\n  tag_19\n  jumpi\n  swap2\n  dup3\n  add\ntag_22:\n  dup3\n  dup2\n  gt\n  iszero\n  tag_23\n  jumpi\n  dup3\n  mload\n  dup3\n  sstore\n  swap2\n  0x20\n  add\n  swap2\n  swap1\n  0x01\n  add\n  swap1\n  jump(tag_22)\ntag_23:\ntag_19:\n  pop\n  swap1\n  pop\n  tag_24\n  swap2\n  swap1\n  tag_25\n  jump\t// in\ntag_24:\n  pop\n  swap1\n  jump\t// out\ntag_25:\ntag_26:\n  dup1\n  dup3\n  gt\n  iszero\n  tag_27\n  jumpi\n  0x00\n  dup2\n  0x00\n  swap1\n  sstore\n  pop\n  0x01\n  add\n  jump(tag_26)\ntag_27:\n  pop\n  swap1\n  jump\t// out\n    /* \"#utility.yul\":7:125   */\ntag_29:\n    /* \"#utility.yul\":94:118   */\n  tag_31\n    /* \"#utility.yul\":112:117   */\n  dup2\n    /* \"#utility.yul\":94:118   */\n  tag_32\n  jump\t// in\ntag_31:\n    /* \"#utility.yul\":89:92   */\n  dup3\n    /* \"#utility.yul\":82:119   */\n  mstore\n    /* \"#utility.yul\":72:125   */\n  pop\n  pop\n  jump\t// out\n    /* \"#utility.yul\":131:353   */\ntag_14:\n  0x00\n    /* \"#utility.yul\":262:264   */\n  0x20\n    /* \"#utility.yul\":251:260   */\n  dup3\n    /* \"#utility.yul\":247:265   */\n  add\n    /* \"#utility.yul\":239:265   */\n  swap1\n  pop\n    /* \"#utility.yul\":275:346   */\n  tag_34\n    /* \"#utility.yul\":343:344   */\n  0x00\n    /* \"#utility.yul\":332:341   */\n  dup4\n    /* \"#utility.yul\":328:345   */\n  add\n    /* \"#utility.yul\":319:325   */\n  dup5\n    /* \"#utility.yul\":275:346   */\n  tag_29\n  jump\t// in\ntag_34:\n    /* \"#utility.yul\":229:353   */\n  swap3\n  swap2\n  pop\n  pop\n  jump\t// out\n    /* \"#utility.yul\":359:436   */\ntag_32:\n  0x00\n    /* \"#utility.yul\":425:430   */\n  dup2\n    /* \"#utility.yul\":414:430   */\n  swap1\n  pop\n    /* \"#utility.yul\":404:436   */\n  swap2\n  swap1\n  pop\n  jump\t// out\n    /* \"#utility.yul\":442:762   */\ntag_18:\n  0x00\n    /* \"#utility.yul\":523:524   */\n  0x02\n    /* \"#utility.yul\":517:521   */\n  dup3\n    /* \"#utility.yul\":513:525   */\n  div\n    /* \"#utility.yul\":503:525   */\n  swap1\n  pop\n    /* \"#utility.yul\":570:571   */\n  0x01\n    /* \"#utility.yul\":564:568   */\n  dup3\n    /* \"#utility.yul\":560:572   */\n  and\n    /* \"#utility.yul\":591:609   */\n  dup1\n    /* \"#utility.yul\":581:583   */\n  tag_37\n  jumpi\n    /* \"#utility.yul\":647:651   */\n  0x7f\n    /* \"#utility.yul\":639:645   */\n  dup3\n    /* \"#utility.yul\":635:652   */\n  and\n    /* \"#utility.yul\":625:652   */\n  swap2\n  pop\n    /* \"#utility.yul\":581:583   */\ntag_37:\n    /* \"#utility.yul\":709:711   */\n  0x20\n    /* \"#utility.yul\":701:707   */\n  dup3\n    /* \"#utility.yul\":698:712   */\n  lt\n    /* \"#utility.yul\":678:696   */\n  dup2\n    /* \"#utility.yul\":675:713   */\n  eq\n    /* \"#utility.yul\":672:674   */\n  iszero\n  tag_38\n  jumpi\n    /* \"#utility.yul\":728:746   */\n  tag_39\n  tag_40\n  jump\t// in\ntag_39:\n    /* \"#utility.yul\":672:674   */\ntag_38:\n    /* \"#utility.yul\":493:762   */\n  pop\n  swap2\n  swap1\n  pop\n  jump\t// out\n    /* \"#utility.yul\":768:948   */\ntag_40:\n    /* \"#utility.yul\":816:893   */\n  0x4e487b7100000000000000000000000000000000000000000000000000000000\n    /* \"#utility.yul\":813:814   */\n  0x00\n    /* \"#utility.yul\":806:894   */\n  mstore\n    /* \"#utility.yul\":913:917   */\n  0x22\n    /* \"#utility.yul\":910:911   */\n  0x04\n    /* \"#utility.yul\":903:918   */\n  mstore\n    /* \"#utility.yul\":937:941   */\n  0x24\n    /* \"#utility.yul\":934:935   */\n  0x00\n    /* \"#utility.yul\":927:942   */\n  revert\n    /* \"atta-movies/ERC20/busd.sol\":11368:19445  contract ERC20Token is Context, IERC20, Ownable {\r... */\ntag_15:\n  dataSize(sub_0)\n  dup1\n  dataOffset(sub_0)\n  0x00\n  codecopy\n  0x00\n  return\nstop\n\nsub_0: assembly {\n        /* \"atta-movies/ERC20/busd.sol\":11368:19445  contract ERC20Token is Context, IERC20, Ownable {\r... */\n      mstore(0x40, 0x80)\n      callvalue\n      dup1\n      iszero\n      tag_1\n      jumpi\n      0x00\n      dup1\n      revert\n    tag_1:\n      pop\n      jumpi(tag_2, lt(calldatasize, 0x04))\n      shr(0xe0, calldataload(0x00))\n      dup1\n      0x893d20e8\n      gt\n      tag_23\n      jumpi\n      dup1\n      0xa9059cbb\n      gt\n      tag_24\n      jumpi\n      dup1\n      0xa9059cbb\n      eq\n      tag_18\n      jumpi\n      dup1\n      0xb09f1266\n      eq\n      tag_19\n      jumpi\n      dup1\n      0xd28d8852\n      eq\n      tag_20\n      jumpi\n      dup1\n      0xdd62ed3e\n      eq\n      tag_21\n      jumpi\n      dup1\n      0xf2fde38b\n      eq\n      tag_22\n      jumpi\n      jump(tag_2)\n    tag_24:\n      dup1\n      0x893d20e8\n      eq\n      tag_13\n      jumpi\n      dup1\n      0x8da5cb5b\n      eq\n      tag_14\n      jumpi\n      dup1\n      0x95d89b41\n      eq\n      tag_15\n      jumpi\n      dup1\n      0xa0712d68\n      eq\n      tag_16\n      jumpi\n      dup1\n      0xa457c2d7\n      eq\n      tag_17\n      jumpi\n      jump(tag_2)\n    tag_23:\n      dup1\n      0x32424aa3\n      gt\n      tag_25\n      jumpi\n      dup1\n      0x32424aa3\n      eq\n      tag_8\n      jumpi\n      dup1\n      0x39509351\n      eq\n      tag_9\n      jumpi\n      dup1\n      0x42966c68\n      eq\n      tag_10\n      jumpi\n      dup1\n      0x70a08231\n      eq\n      tag_11\n      jumpi\n      dup1\n      0x715018a6\n      eq\n      tag_12\n      jumpi\n      jump(tag_2)\n    tag_25:\n      dup1\n      0x06fdde03\n      eq\n      tag_3\n      jumpi\n      dup1\n      0x095ea7b3\n      eq\n      tag_4\n      jumpi\n      dup1\n      0x18160ddd\n      eq\n      tag_5\n      jumpi\n      dup1\n      0x23b872dd\n      eq\n      tag_6\n      jumpi\n      dup1\n      0x313ce567\n      eq\n      tag_7\n      jumpi\n    tag_2:\n      0x00\n      dup1\n      revert\n        /* \"atta-movies/ERC20/busd.sol\":12428:12516  function name() external view override returns (string memory) {\r... */\n    tag_3:\n      tag_26\n      tag_27\n      jump\t// in\n    tag_26:\n      mload(0x40)\n      tag_28\n      swap2\n      swap1\n      tag_29\n      jump\t// in\n    tag_28:\n      mload(0x40)\n      dup1\n      swap2\n      sub\n      swap1\n      return\n        /* \"atta-movies/ERC20/busd.sol\":13513:13666  function approve(address spender, uint256 amount) external override returns (bool) {\r... */\n    tag_4:\n      tag_30\n      0x04\n      dup1\n      calldatasize\n      sub\n      dup2\n      add\n      swap1\n      tag_31\n      swap2\n      swap1\n      tag_32\n      jump\t// in\n    tag_31:\n      tag_33\n      jump\t// in\n    tag_30:\n      mload(0x40)\n      tag_34\n      swap2\n      swap1\n      tag_35\n      jump\t// in\n    tag_34:\n      mload(0x40)\n      dup1\n      swap2\n      sub\n      swap1\n      return\n        /* \"atta-movies/ERC20/busd.sol\":12572:12668  function totalSupply() external view override returns (uint256) {\r... */\n    tag_5:\n      tag_36\n      tag_37\n      jump\t// in\n    tag_36:\n      mload(0x40)\n      tag_38\n      swap2\n      swap1\n      tag_39\n      jump\t// in\n    tag_38:\n      mload(0x40)\n      dup1\n      swap2\n      sub\n      swap1\n      return\n        /* \"atta-movies/ERC20/busd.sol\":14111:14398  function transferFrom(address sender, address recipient, uint256 amount) external override returns (bool) {\r... */\n    tag_6:\n      tag_40\n      0x04\n      dup1\n      calldatasize\n      sub\n      dup2\n      add\n      swap1\n      tag_41\n      swap2\n      swap1\n      tag_42\n      jump\t// in\n    tag_41:\n      tag_43\n      jump\t// in\n    tag_40:\n      mload(0x40)\n      tag_44\n      swap2\n      swap1\n      tag_35\n      jump\t// in\n    tag_44:\n      mload(0x40)\n      dup1\n      swap2\n      sub\n      swap1\n      return\n        /* \"atta-movies/ERC20/busd.sol\":12138:12226  function decimals() external view override returns (uint8) {\r... */\n    tag_7:\n      tag_45\n      tag_46\n      jump\t// in\n    tag_45:\n      mload(0x40)\n      tag_47\n      swap2\n      swap1\n      tag_48\n      jump\t// in\n    tag_47:\n      mload(0x40)\n      dup1\n      swap2\n      sub\n      swap1\n      return\n        /* \"atta-movies/ERC20/busd.sol\":11616:11638  uint8 public _decimals */\n    tag_8:\n      tag_49\n      tag_50\n      jump\t// in\n    tag_49:\n      mload(0x40)\n      tag_51\n      swap2\n      swap1\n      tag_48\n      jump\t// in\n    tag_51:\n      mload(0x40)\n      dup1\n      swap2\n      sub\n      swap1\n      return\n        /* \"atta-movies/ERC20/busd.sol\":14780:14980  function increaseAllowance(address spender, uint256 addedValue) public returns (bool) {\r... */\n    tag_9:\n      tag_52\n      0x04\n      dup1\n      calldatasize\n      sub\n      dup2\n      add\n      swap1\n      tag_53\n      swap2\n      swap1\n      tag_32\n      jump\t// in\n    tag_53:\n      tag_54\n      jump\t// in\n    tag_52:\n      mload(0x40)\n      tag_55\n      swap2\n      swap1\n      tag_35\n      jump\t// in\n    tag_55:\n      mload(0x40)\n      dup1\n      swap2\n      sub\n      swap1\n      return\n        /* \"atta-movies/ERC20/busd.sol\":16108:16218  function burn(uint256 amount) public returns (bool) {\r... */\n    tag_10:\n      tag_56\n      0x04\n      dup1\n      calldatasize\n      sub\n      dup2\n      add\n      swap1\n      tag_57\n      swap2\n      swap1\n      tag_58\n      jump\t// in\n    tag_57:\n      tag_59\n      jump\t// in\n    tag_56:\n      mload(0x40)\n      tag_60\n      swap2\n      swap1\n      tag_35\n      jump\t// in\n    tag_60:\n      mload(0x40)\n      dup1\n      swap2\n      sub\n      swap1\n      return\n        /* \"atta-movies/ERC20/busd.sol\":12722:12837  function balanceOf(address account) external override view returns (uint256) {\r... */\n    tag_11:\n      tag_61\n      0x04\n      dup1\n      calldatasize\n      sub\n      dup2\n      add\n      swap1\n      tag_62\n      swap2\n      swap1\n      tag_63\n      jump\t// in\n    tag_62:\n      tag_64\n      jump\t// in\n    tag_61:\n      mload(0x40)\n      tag_65\n      swap2\n      swap1\n      tag_39\n      jump\t// in\n    tag_65:\n      mload(0x40)\n      dup1\n      swap2\n      sub\n      swap1\n      return\n        /* \"atta-movies/ERC20/busd.sol\":10670:10800  function renounceOwnership() public onlyOwner {\r... */\n    tag_12:\n      tag_66\n      tag_67\n      jump\t// in\n    tag_66:\n      stop\n        /* \"atta-movies/ERC20/busd.sol\":11991:12079  function getOwner() external view override returns (address) {\r... */\n    tag_13:\n      tag_68\n      tag_69\n      jump\t// in\n    tag_68:\n      mload(0x40)\n      tag_70\n      swap2\n      swap1\n      tag_71\n      jump\t// in\n    tag_70:\n      mload(0x40)\n      dup1\n      swap2\n      sub\n      swap1\n      return\n        /* \"atta-movies/ERC20/busd.sol\":10068:10141  function owner() public view returns (address) {\r... */\n    tag_14:\n      tag_72\n      tag_73\n      jump\t// in\n    tag_72:\n      mload(0x40)\n      tag_74\n      swap2\n      swap1\n      tag_71\n      jump\t// in\n    tag_74:\n      mload(0x40)\n      dup1\n      swap2\n      sub\n      swap1\n      return\n        /* \"atta-movies/ERC20/busd.sol\":12283:12375  function symbol() external view override returns (string memory) {\r... */\n    tag_15:\n      tag_75\n      tag_76\n      jump\t// in\n    tag_75:\n      mload(0x40)\n      tag_77\n      swap2\n      swap1\n      tag_29\n      jump\t// in\n    tag_77:\n      mload(0x40)\n      dup1\n      swap2\n      sub\n      swap1\n      return\n        /* \"atta-movies/ERC20/busd.sol\":15903:16023  function mint(uint256 amount) public onlyOwner returns (bool) {\r... */\n    tag_16:\n      tag_78\n      0x04\n      dup1\n      calldatasize\n      sub\n      dup2\n      add\n      swap1\n      tag_79\n      swap2\n      swap1\n      tag_58\n      jump\t// in\n    tag_79:\n      tag_80\n      jump\t// in\n    tag_78:\n      mload(0x40)\n      tag_81\n      swap2\n      swap1\n      tag_35\n      jump\t// in\n    tag_81:\n      mload(0x40)\n      dup1\n      swap2\n      sub\n      swap1\n      return\n        /* \"atta-movies/ERC20/busd.sol\":15452:15703  function decreaseAllowance(address spender, uint256 subtractedValue) public returns (bool) {\r... */\n    tag_17:\n      tag_82\n      0x04\n      dup1\n      calldatasize\n      sub\n      dup2\n      add\n      swap1\n      tag_83\n      swap2\n      swap1\n      tag_32\n      jump\t// in\n    tag_83:\n      tag_84\n      jump\t// in\n    tag_82:\n      mload(0x40)\n      tag_85\n      swap2\n      swap1\n      tag_35\n      jump\t// in\n    tag_85:\n      mload(0x40)\n      dup1\n      swap2\n      sub\n      swap1\n      return\n        /* \"atta-movies/ERC20/busd.sol\":13031:13190  function transfer(address recipient, uint256 amount) external override returns (bool) {\r... */\n    tag_18:\n      tag_86\n      0x04\n      dup1\n      calldatasize\n      sub\n      dup2\n      add\n      swap1\n      tag_87\n      swap2\n      swap1\n      tag_32\n      jump\t// in\n    tag_87:\n      tag_88\n      jump\t// in\n    tag_86:\n      mload(0x40)\n      tag_89\n      swap2\n      swap1\n      tag_35\n      jump\t// in\n    tag_89:\n      mload(0x40)\n      dup1\n      swap2\n      sub\n      swap1\n      return\n        /* \"atta-movies/ERC20/busd.sol\":11643:11664  string public _symbol */\n    tag_19:\n      tag_90\n      tag_91\n      jump\t// in\n    tag_90:\n      mload(0x40)\n      tag_92\n      swap2\n      swap1\n      tag_29\n      jump\t// in\n    tag_92:\n      mload(0x40)\n      dup1\n      swap2\n      sub\n      swap1\n      return\n        /* \"atta-movies/ERC20/busd.sol\":11669:11688  string public _name */\n    tag_20:\n      tag_93\n      tag_94\n      jump\t// in\n    tag_93:\n      mload(0x40)\n      tag_95\n      swap2\n      swap1\n      tag_29\n      jump\t// in\n    tag_95:\n      mload(0x40)\n      dup1\n      swap2\n      sub\n      swap1\n      return\n        /* \"atta-movies/ERC20/busd.sol\":13244:13383  function allowance(address owner, address spender) external view override returns (uint256) {\r... */\n    tag_21:\n      tag_96\n      0x04\n      dup1\n      calldatasize\n      sub\n      dup2\n      add\n      swap1\n      tag_97\n      swap2\n      swap1\n      tag_98\n      jump\t// in\n    tag_97:\n      tag_99\n      jump\t// in\n    tag_96:\n      mload(0x40)\n      tag_100\n      swap2\n      swap1\n      tag_39\n      jump\t// in\n    tag_100:\n      mload(0x40)\n      dup1\n      swap2\n      sub\n      swap1\n      return\n        /* \"atta-movies/ERC20/busd.sol\":10945:11048  function transferOwnership(address newOwner) public onlyOwner {\r... */\n    tag_22:\n      tag_101\n      0x04\n      dup1\n      calldatasize\n      sub\n      dup2\n      add\n      swap1\n      tag_102\n      swap2\n      swap1\n      tag_63\n      jump\t// in\n    tag_102:\n      tag_103\n      jump\t// in\n    tag_101:\n      stop\n        /* \"atta-movies/ERC20/busd.sol\":12428:12516  function name() external view override returns (string memory) {\r... */\n    tag_27:\n        /* \"atta-movies/ERC20/busd.sol\":12476:12489  string memory */\n      0x60\n        /* \"atta-movies/ERC20/busd.sol\":12505:12510  _name */\n      0x06\n        /* \"atta-movies/ERC20/busd.sol\":12498:12510  return _name */\n      dup1\n      sload\n      tag_105\n      swap1\n      tag_106\n      jump\t// in\n    tag_105:\n      dup1\n      0x1f\n      add\n      0x20\n      dup1\n      swap2\n      div\n      mul\n      0x20\n      add\n      mload(0x40)\n      swap1\n      dup2\n      add\n      0x40\n      mstore\n      dup1\n      swap3\n      swap2\n      swap1\n      dup2\n      dup2\n      mstore\n      0x20\n      add\n      dup3\n      dup1\n      sload\n      tag_107\n      swap1\n      tag_106\n      jump\t// in\n    tag_107:\n      dup1\n      iszero\n      tag_108\n      jumpi\n      dup1\n      0x1f\n      lt\n      tag_109\n      jumpi\n      0x0100\n      dup1\n      dup4\n      sload\n      div\n      mul\n      dup4\n      mstore\n      swap2\n      0x20\n      add\n      swap2\n      jump(tag_108)\n    tag_109:\n      dup3\n      add\n      swap2\n      swap1\n      0x00\n      mstore\n      keccak256(0x00, 0x20)\n      swap1\n    tag_110:\n      dup2\n      sload\n      dup2\n      mstore\n      swap1\n      0x01\n      add\n      swap1\n      0x20\n      add\n      dup1\n      dup4\n      gt\n      tag_110\n      jumpi\n      dup3\n      swap1\n      sub\n      0x1f\n      and\n      dup3\n      add\n      swap2\n    tag_108:\n      pop\n      pop\n      pop\n      pop\n      pop\n      swap1\n      pop\n        /* \"atta-movies/ERC20/busd.sol\":12428:12516  function name() external view override returns (string memory) {\r... */\n      swap1\n      jump\t// out\n        /* \"atta-movies/ERC20/busd.sol\":13513:13666  function approve(address spender, uint256 amount) external override returns (bool) {\r... */\n    tag_33:\n        /* \"atta-movies/ERC20/busd.sol\":13590:13594  bool */\n      0x00\n        /* \"atta-movies/ERC20/busd.sol\":13603:13642  _approve(_msgSender(), spender, amount) */\n      tag_112\n        /* \"atta-movies/ERC20/busd.sol\":13612:13624  _msgSender() */\n      tag_113\n        /* \"atta-movies/ERC20/busd.sol\":13612:13622  _msgSender */\n      tag_114\n        /* \"atta-movies/ERC20/busd.sol\":13612:13624  _msgSender() */\n      jump\t// in\n    tag_113:\n        /* \"atta-movies/ERC20/busd.sol\":13626:13633  spender */\n      dup5\n        /* \"atta-movies/ERC20/busd.sol\":13635:13641  amount */\n      dup5\n        /* \"atta-movies/ERC20/busd.sol\":13603:13611  _approve */\n      tag_115\n        /* \"atta-movies/ERC20/busd.sol\":13603:13642  _approve(_msgSender(), spender, amount) */\n      jump\t// in\n    tag_112:\n        /* \"atta-movies/ERC20/busd.sol\":13656:13660  true */\n      0x01\n        /* \"atta-movies/ERC20/busd.sol\":13649:13660  return true */\n      swap1\n      pop\n        /* \"atta-movies/ERC20/busd.sol\":13513:13666  function approve(address spender, uint256 amount) external override returns (bool) {\r... */\n      swap3\n      swap2\n      pop\n      pop\n      jump\t// out\n        /* \"atta-movies/ERC20/busd.sol\":12572:12668  function totalSupply() external view override returns (uint256) {\r... */\n    tag_37:\n        /* \"atta-movies/ERC20/busd.sol\":12627:12634  uint256 */\n      0x00\n        /* \"atta-movies/ERC20/busd.sol\":12650:12662  _totalSupply */\n      sload(0x03)\n        /* \"atta-movies/ERC20/busd.sol\":12643:12662  return _totalSupply */\n      swap1\n      pop\n        /* \"atta-movies/ERC20/busd.sol\":12572:12668  function totalSupply() external view override returns (uint256) {\r... */\n      swap1\n      jump\t// out\n        /* \"atta-movies/ERC20/busd.sol\":14111:14398  function transferFrom(address sender, address recipient, uint256 amount) external override returns (bool) {\r... */\n    tag_43:\n        /* \"atta-movies/ERC20/busd.sol\":14211:14215  bool */\n      0x00\n        /* \"atta-movies/ERC20/busd.sol\":14224:14260  _transfer(sender, recipient, amount) */\n      tag_118\n        /* \"atta-movies/ERC20/busd.sol\":14234:14240  sender */\n      dup5\n        /* \"atta-movies/ERC20/busd.sol\":14242:14251  recipient */\n      dup5\n        /* \"atta-movies/ERC20/busd.sol\":14253:14259  amount */\n      dup5\n        /* \"atta-movies/ERC20/busd.sol\":14224:14233  _transfer */\n      tag_119\n        /* \"atta-movies/ERC20/busd.sol\":14224:14260  _transfer(sender, recipient, amount) */\n      jump\t// in\n    tag_118:\n        /* \"atta-movies/ERC20/busd.sol\":14269:14275  sender */\n      dup4\n        /* \"atta-movies/ERC20/busd.sol\":14277:14289  _msgSender() */\n      tag_120\n        /* \"atta-movies/ERC20/busd.sol\":14277:14287  _msgSender */\n      tag_114\n        /* \"atta-movies/ERC20/busd.sol\":14277:14289  _msgSender() */\n      jump\t// in\n    tag_120:\n        /* \"atta-movies/ERC20/busd.sol\":14291:14373  _allowances[sender][_msgSender()].sub(amount, \"transfer amount exceeds allowance\") */\n      tag_121\n        /* \"atta-movies/ERC20/busd.sol\":14329:14335  amount */\n      dup5\n        /* \"atta-movies/ERC20/busd.sol\":14291:14373  _allowances[sender][_msgSender()].sub(amount, \"transfer amount exceeds allowance\") */\n      mload(0x40)\n      dup1\n      0x60\n      add\n      0x40\n      mstore\n      dup1\n      0x21\n      dup2\n      mstore\n      0x20\n      add\n      data_90890889493b104bf9ebabde1448715c2fb678969066cdc6632dc010e5b34ff0\n      0x21\n      swap2\n      codecopy\n        /* \"atta-movies/ERC20/busd.sol\":14291:14302  _allowances */\n      0x02\n        /* \"atta-movies/ERC20/busd.sol\":14291:14310  _allowances[sender] */\n      0x00\n        /* \"atta-movies/ERC20/busd.sol\":14303:14309  sender */\n      dup11\n        /* \"atta-movies/ERC20/busd.sol\":14291:14310  _allowances[sender] */\n      0xffffffffffffffffffffffffffffffffffffffff\n      and\n      0xffffffffffffffffffffffffffffffffffffffff\n      and\n      dup2\n      mstore\n      0x20\n      add\n      swap1\n      dup2\n      mstore\n      0x20\n      add\n      0x00\n      keccak256\n        /* \"atta-movies/ERC20/busd.sol\":14291:14324  _allowances[sender][_msgSender()] */\n      0x00\n        /* \"atta-movies/ERC20/busd.sol\":14311:14323  _msgSender() */\n      tag_122\n        /* \"atta-movies/ERC20/busd.sol\":14311:14321  _msgSender */\n      tag_114\n        /* \"atta-movies/ERC20/busd.sol\":14311:14323  _msgSender() */\n      jump\t// in\n    tag_122:\n        /* \"atta-movies/ERC20/busd.sol\":14291:14324  _allowances[sender][_msgSender()] */\n      0xffffffffffffffffffffffffffffffffffffffff\n      and\n      0xffffffffffffffffffffffffffffffffffffffff\n      and\n      dup2\n      mstore\n      0x20\n      add\n      swap1\n      dup2\n      mstore\n      0x20\n      add\n      0x00\n      keccak256\n      sload\n        /* \"atta-movies/ERC20/busd.sol\":14291:14328  _allowances[sender][_msgSender()].sub */\n      tag_123\n      swap1\n        /* \"atta-movies/ERC20/busd.sol\":14291:14373  _allowances[sender][_msgSender()].sub(amount, \"transfer amount exceeds allowance\") */\n      swap3\n      swap2\n      swap1\n      0xffffffff\n      and\n      jump\t// in\n    tag_121:\n        /* \"atta-movies/ERC20/busd.sol\":14268:14374  (sender, _msgSender(), _allowances[sender][_msgSender()].sub(amount, \"transfer amount exceeds allowance\")) */\n      pop\n      pop\n      pop\n        /* \"atta-movies/ERC20/busd.sol\":14388:14392  true */\n      0x01\n        /* \"atta-movies/ERC20/busd.sol\":14381:14392  return true */\n      swap1\n      pop\n        /* \"atta-movies/ERC20/busd.sol\":14111:14398  function transferFrom(address sender, address recipient, uint256 amount) external override returns (bool) {\r... */\n      swap4\n      swap3\n      pop\n      pop\n      pop\n      jump\t// out\n        /* \"atta-movies/ERC20/busd.sol\":12138:12226  function decimals() external view override returns (uint8) {\r... */\n    tag_46:\n        /* \"atta-movies/ERC20/busd.sol\":12190:12195  uint8 */\n      0x00\n        /* \"atta-movies/ERC20/busd.sol\":12211:12220  _decimals */\n      0x04\n      0x00\n      swap1\n      sload\n      swap1\n      0x0100\n      exp\n      swap1\n      div\n      0xff\n      and\n        /* \"atta-movies/ERC20/busd.sol\":12204:12220  return _decimals */\n      swap1\n      pop\n        /* \"atta-movies/ERC20/busd.sol\":12138:12226  function decimals() external view override returns (uint8) {\r... */\n      swap1\n      jump\t// out\n        /* \"atta-movies/ERC20/busd.sol\":11616:11638  uint8 public _decimals */\n    tag_50:\n      0x04\n      0x00\n      swap1\n      sload\n      swap1\n      0x0100\n      exp\n      swap1\n      div\n      0xff\n      and\n      dup2\n      jump\t// out\n        /* \"atta-movies/ERC20/busd.sol\":14780:14980  function increaseAllowance(address spender, uint256 addedValue) public returns (bool) {\r... */\n    tag_54:\n        /* \"atta-movies/ERC20/busd.sol\":14860:14864  bool */\n      0x00\n        /* \"atta-movies/ERC20/busd.sol\":14873:14956  _approve(_msgSender(), spender, _allowances[_msgSender()][spender].add(addedValue)) */\n      tag_126\n        /* \"atta-movies/ERC20/busd.sol\":14882:14894  _msgSender() */\n      tag_127\n        /* \"atta-movies/ERC20/busd.sol\":14882:14892  _msgSender */\n      tag_114\n        /* \"atta-movies/ERC20/busd.sol\":14882:14894  _msgSender() */\n      jump\t// in\n    tag_127:\n        /* \"atta-movies/ERC20/busd.sol\":14896:14903  spender */\n      dup5\n        /* \"atta-movies/ERC20/busd.sol\":14905:14955  _allowances[_msgSender()][spender].add(addedValue) */\n      tag_128\n        /* \"atta-movies/ERC20/busd.sol\":14944:14954  addedValue */\n      dup6\n        /* \"atta-movies/ERC20/busd.sol\":14905:14916  _allowances */\n      0x02\n        /* \"atta-movies/ERC20/busd.sol\":14905:14930  _allowances[_msgSender()] */\n      0x00\n        /* \"atta-movies/ERC20/busd.sol\":14917:14929  _msgSender() */\n      tag_129\n        /* \"atta-movies/ERC20/busd.sol\":14917:14927  _msgSender */\n      tag_114\n        /* \"atta-movies/ERC20/busd.sol\":14917:14929  _msgSender() */\n      jump\t// in\n    tag_129:\n        /* \"atta-movies/ERC20/busd.sol\":14905:14930  _allowances[_msgSender()] */\n      0xffffffffffffffffffffffffffffffffffffffff\n      and\n      0xffffffffffffffffffffffffffffffffffffffff\n      and\n      dup2\n      mstore\n      0x20\n      add\n      swap1\n      dup2\n      mstore\n      0x20\n      add\n      0x00\n      keccak256\n        /* \"atta-movies/ERC20/busd.sol\":14905:14939  _allowances[_msgSender()][spender] */\n      0x00\n        /* \"atta-movies/ERC20/busd.sol\":14931:14938  spender */\n      dup10\n        /* \"atta-movies/ERC20/busd.sol\":14905:14939  _allowances[_msgSender()][spender] */\n      0xffffffffffffffffffffffffffffffffffffffff\n      and\n      0xffffffffffffffffffffffffffffffffffffffff\n      and\n      dup2\n      mstore\n      0x20\n      add\n      swap1\n      dup2\n      mstore\n      0x20\n      add\n      0x00\n      keccak256\n      sload\n        /* \"atta-movies/ERC20/busd.sol\":14905:14943  _allowances[_msgSender()][spender].add */\n      tag_130\n      swap1\n        /* \"atta-movies/ERC20/busd.sol\":14905:14955  _allowances[_msgSender()][spender].add(addedValue) */\n      swap2\n      swap1\n      0xffffffff\n      and\n      jump\t// in\n    tag_128:\n        /* \"atta-movies/ERC20/busd.sol\":14873:14881  _approve */\n      tag_115\n        /* \"atta-movies/ERC20/busd.sol\":14873:14956  _approve(_msgSender(), spender, _allowances[_msgSender()][spender].add(addedValue)) */\n      jump\t// in\n    tag_126:\n        /* \"atta-movies/ERC20/busd.sol\":14970:14974  true */\n      0x01\n        /* \"atta-movies/ERC20/busd.sol\":14963:14974  return true */\n      swap1\n      pop\n        /* \"atta-movies/ERC20/busd.sol\":14780:14980  function increaseAllowance(address spender, uint256 addedValue) public returns (bool) {\r... */\n      swap3\n      swap2\n      pop\n      pop\n      jump\t// out\n        /* \"atta-movies/ERC20/busd.sol\":16108:16218  function burn(uint256 amount) public returns (bool) {\r... */\n    tag_59:\n        /* \"atta-movies/ERC20/busd.sol\":16154:16158  bool */\n      0x00\n        /* \"atta-movies/ERC20/busd.sol\":16167:16194  _burn(_msgSender(), amount) */\n      tag_132\n        /* \"atta-movies/ERC20/busd.sol\":16173:16185  _msgSender() */\n      tag_133\n        /* \"atta-movies/ERC20/busd.sol\":16173:16183  _msgSender */\n      tag_114\n        /* \"atta-movies/ERC20/busd.sol\":16173:16185  _msgSender() */\n      jump\t// in\n    tag_133:\n        /* \"atta-movies/ERC20/busd.sol\":16187:16193  amount */\n      dup4\n        /* \"atta-movies/ERC20/busd.sol\":16167:16172  _burn */\n      tag_134\n        /* \"atta-movies/ERC20/busd.sol\":16167:16194  _burn(_msgSender(), amount) */\n      jump\t// in\n    tag_132:\n        /* \"atta-movies/ERC20/busd.sol\":16208:16212  true */\n      0x01\n        /* \"atta-movies/ERC20/busd.sol\":16201:16212  return true */\n      swap1\n      pop\n        /* \"atta-movies/ERC20/busd.sol\":16108:16218  function burn(uint256 amount) public returns (bool) {\r... */\n      swap2\n      swap1\n      pop\n      jump\t// out\n        /* \"atta-movies/ERC20/busd.sol\":12722:12837  function balanceOf(address account) external override view returns (uint256) {\r... */\n    tag_64:\n        /* \"atta-movies/ERC20/busd.sol\":12790:12797  uint256 */\n      0x00\n        /* \"atta-movies/ERC20/busd.sol\":12813:12822  _balances */\n      0x01\n        /* \"atta-movies/ERC20/busd.sol\":12813:12831  _balances[account] */\n      0x00\n        /* \"atta-movies/ERC20/busd.sol\":12823:12830  account */\n      dup4\n        /* \"atta-movies/ERC20/busd.sol\":12813:12831  _balances[account] */\n      0xffffffffffffffffffffffffffffffffffffffff\n      and\n      0xffffffffffffffffffffffffffffffffffffffff\n      and\n      dup2\n      mstore\n      0x20\n      add\n      swap1\n      dup2\n      mstore\n      0x20\n      add\n      0x00\n      keccak256\n      sload\n        /* \"atta-movies/ERC20/busd.sol\":12806:12831  return _balances[account] */\n      swap1\n      pop\n        /* \"atta-movies/ERC20/busd.sol\":12722:12837  function balanceOf(address account) external override view returns (uint256) {\r... */\n      swap2\n      swap1\n      pop\n      jump\t// out\n        /* \"atta-movies/ERC20/busd.sol\":10670:10800  function renounceOwnership() public onlyOwner {\r... */\n    tag_67:\n        /* \"atta-movies/ERC20/busd.sol\":10272:10284  _msgSender() */\n      tag_137\n        /* \"atta-movies/ERC20/busd.sol\":10272:10282  _msgSender */\n      tag_114\n        /* \"atta-movies/ERC20/busd.sol\":10272:10284  _msgSender() */\n      jump\t// in\n    tag_137:\n        /* \"atta-movies/ERC20/busd.sol\":10262:10284  _owner == _msgSender() */\n      0xffffffffffffffffffffffffffffffffffffffff\n      and\n        /* \"atta-movies/ERC20/busd.sol\":10262:10268  _owner */\n      0x00\n      dup1\n      sload\n      swap1\n      0x0100\n      exp\n      swap1\n      div\n      0xffffffffffffffffffffffffffffffffffffffff\n      and\n        /* \"atta-movies/ERC20/busd.sol\":10262:10284  _owner == _msgSender() */\n      0xffffffffffffffffffffffffffffffffffffffff\n      and\n      eq\n        /* \"atta-movies/ERC20/busd.sol\":10254:10321  require(_owner == _msgSender(), \"Ownable: caller is not the owner\") */\n      tag_138\n      jumpi\n      mload(0x40)\n      0x08c379a000000000000000000000000000000000000000000000000000000000\n      dup2\n      mstore\n      0x04\n      add\n      tag_139\n      swap1\n      tag_140\n      jump\t// in\n    tag_139:\n      mload(0x40)\n      dup1\n      swap2\n      sub\n      swap1\n      revert\n    tag_138:\n        /* \"atta-movies/ERC20/busd.sol\":10765:10766  0 */\n      0x00\n        /* \"atta-movies/ERC20/busd.sol\":10728:10768  OwnershipTransferred(_owner, address(0)) */\n      0xffffffffffffffffffffffffffffffffffffffff\n      and\n        /* \"atta-movies/ERC20/busd.sol\":10749:10755  _owner */\n      0x00\n      dup1\n      sload\n      swap1\n      0x0100\n      exp\n      swap1\n      div\n      0xffffffffffffffffffffffffffffffffffffffff\n      and\n        /* \"atta-movies/ERC20/busd.sol\":10728:10768  OwnershipTransferred(_owner, address(0)) */\n      0xffffffffffffffffffffffffffffffffffffffff\n      and\n      0x8be0079c531659141344cd1fd0a4f28419497f9722a3daafe3b4186f6b6457e0\n      mload(0x40)\n      mload(0x40)\n      dup1\n      swap2\n      sub\n      swap1\n      log3\n        /* \"atta-movies/ERC20/busd.sol\":10792:10793  0 */\n      0x00\n        /* \"atta-movies/ERC20/busd.sol\":10775:10781  _owner */\n      dup1\n      0x00\n        /* \"atta-movies/ERC20/busd.sol\":10775:10794  _owner = address(0) */\n      0x0100\n      exp\n      dup2\n      sload\n      dup2\n      0xffffffffffffffffffffffffffffffffffffffff\n      mul\n      not\n      and\n      swap1\n      dup4\n      0xffffffffffffffffffffffffffffffffffffffff\n      and\n      mul\n      or\n      swap1\n      sstore\n      pop\n        /* \"atta-movies/ERC20/busd.sol\":10670:10800  function renounceOwnership() public onlyOwner {\r... */\n      jump\t// out\n        /* \"atta-movies/ERC20/busd.sol\":11991:12079  function getOwner() external view override returns (address) {\r... */\n    tag_69:\n        /* \"atta-movies/ERC20/busd.sol\":12043:12050  address */\n      0x00\n        /* \"atta-movies/ERC20/busd.sol\":12066:12073  owner() */\n      tag_143\n        /* \"atta-movies/ERC20/busd.sol\":12066:12071  owner */\n      tag_73\n        /* \"atta-movies/ERC20/busd.sol\":12066:12073  owner() */\n      jump\t// in\n    tag_143:\n        /* \"atta-movies/ERC20/busd.sol\":12059:12073  return owner() */\n      swap1\n      pop\n        /* \"atta-movies/ERC20/busd.sol\":11991:12079  function getOwner() external view override returns (address) {\r... */\n      swap1\n      jump\t// out\n        /* \"atta-movies/ERC20/busd.sol\":10068:10141  function owner() public view returns (address) {\r... */\n    tag_73:\n        /* \"atta-movies/ERC20/busd.sol\":10106:10113  address */\n      0x00\n        /* \"atta-movies/ERC20/busd.sol\":10129:10135  _owner */\n      dup1\n      0x00\n      swap1\n      sload\n      swap1\n      0x0100\n      exp\n      swap1\n      div\n      0xffffffffffffffffffffffffffffffffffffffff\n      and\n        /* \"atta-movies/ERC20/busd.sol\":10122:10135  return _owner */\n      swap1\n      pop\n        /* \"atta-movies/ERC20/busd.sol\":10068:10141  function owner() public view returns (address) {\r... */\n      swap1\n      jump\t// out\n        /* \"atta-movies/ERC20/busd.sol\":12283:12375  function symbol() external view override returns (string memory) {\r... */\n    tag_76:\n        /* \"atta-movies/ERC20/busd.sol\":12333:12346  string memory */\n      0x60\n        /* \"atta-movies/ERC20/busd.sol\":12362:12369  _symbol */\n      0x05\n        /* \"atta-movies/ERC20/busd.sol\":12355:12369  return _symbol */\n      dup1\n      sload\n      tag_146\n      swap1\n      tag_106\n      jump\t// in\n    tag_146:\n      dup1\n      0x1f\n      add\n      0x20\n      dup1\n      swap2\n      div\n      mul\n      0x20\n      add\n      mload(0x40)\n      swap1\n      dup2\n      add\n      0x40\n      mstore\n      dup1\n      swap3\n      swap2\n      swap1\n      dup2\n      dup2\n      mstore\n      0x20\n      add\n      dup3\n      dup1\n      sload\n      tag_147\n      swap1\n      tag_106\n      jump\t// in\n    tag_147:\n      dup1\n      iszero\n      tag_148\n      jumpi\n      dup1\n      0x1f\n      lt\n      tag_149\n      jumpi\n      0x0100\n      dup1\n      dup4\n      sload\n      div\n      mul\n      dup4\n      mstore\n      swap2\n      0x20\n      add\n      swap2\n      jump(tag_148)\n    tag_149:\n      dup3\n      add\n      swap2\n      swap1\n      0x00\n      mstore\n      keccak256(0x00, 0x20)\n      swap1\n    tag_150:\n      dup2\n      sload\n      dup2\n      mstore\n      swap1\n      0x01\n      add\n      swap1\n      0x20\n      add\n      dup1\n      dup4\n      gt\n      tag_150\n      jumpi\n      dup3\n      swap1\n      sub\n      0x1f\n      and\n      dup3\n      add\n      swap2\n    tag_148:\n      pop\n      pop\n      pop\n      pop\n      pop\n      swap1\n      pop\n        /* \"atta-movies/ERC20/busd.sol\":12283:12375  function symbol() external view override returns (string memory) {\r... */\n      swap1\n      jump\t// out\n        /* \"atta-movies/ERC20/busd.sol\":15903:16023  function mint(uint256 amount) public onlyOwner returns (bool) {\r... */\n    tag_80:\n        /* \"atta-movies/ERC20/busd.sol\":15959:15963  bool */\n      0x00\n        /* \"atta-movies/ERC20/busd.sol\":10272:10284  _msgSender() */\n      tag_152\n        /* \"atta-movies/ERC20/busd.sol\":10272:10282  _msgSender */\n      tag_114\n        /* \"atta-movies/ERC20/busd.sol\":10272:10284  _msgSender() */\n      jump\t// in\n    tag_152:\n        /* \"atta-movies/ERC20/busd.sol\":10262:10284  _owner == _msgSender() */\n      0xffffffffffffffffffffffffffffffffffffffff\n      and\n        /* \"atta-movies/ERC20/busd.sol\":10262:10268  _owner */\n      0x00\n      dup1\n      sload\n      swap1\n      0x0100\n      exp\n      swap1\n      div\n      0xffffffffffffffffffffffffffffffffffffffff\n      and\n        /* \"atta-movies/ERC20/busd.sol\":10262:10284  _owner == _msgSender() */\n      0xffffffffffffffffffffffffffffffffffffffff\n      and\n      eq\n        /* \"atta-movies/ERC20/busd.sol\":10254:10321  require(_owner == _msgSender(), \"Ownable: caller is not the owner\") */\n      tag_153\n      jumpi\n      mload(0x40)\n      0x08c379a000000000000000000000000000000000000000000000000000000000\n      dup2\n      mstore\n      0x04\n      add\n      tag_154\n      swap1\n      tag_140\n      jump\t// in\n    tag_154:\n      mload(0x40)\n      dup1\n      swap2\n      sub\n      swap1\n      revert\n    tag_153:\n        /* \"atta-movies/ERC20/busd.sol\":15972:15999  _mint(_msgSender(), amount) */\n      tag_156\n        /* \"atta-movies/ERC20/busd.sol\":15978:15990  _msgSender() */\n      tag_157\n        /* \"atta-movies/ERC20/busd.sol\":15978:15988  _msgSender */\n      tag_114\n        /* \"atta-movies/ERC20/busd.sol\":15978:15990  _msgSender() */\n      jump\t// in\n    tag_157:\n        /* \"atta-movies/ERC20/busd.sol\":15992:15998  amount */\n      dup4\n        /* \"atta-movies/ERC20/busd.sol\":15972:15977  _mint */\n      tag_158\n        /* \"atta-movies/ERC20/busd.sol\":15972:15999  _mint(_msgSender(), amount) */\n      jump\t// in\n    tag_156:\n        /* \"atta-movies/ERC20/busd.sol\":16013:16017  true */\n      0x01\n        /* \"atta-movies/ERC20/busd.sol\":16006:16017  return true */\n      swap1\n      pop\n        /* \"atta-movies/ERC20/busd.sol\":15903:16023  function mint(uint256 amount) public onlyOwner returns (bool) {\r... */\n      swap2\n      swap1\n      pop\n      jump\t// out\n        /* \"atta-movies/ERC20/busd.sol\":15452:15703  function decreaseAllowance(address spender, uint256 subtractedValue) public returns (bool) {\r... */\n    tag_84:\n        /* \"atta-movies/ERC20/busd.sol\":15537:15541  bool */\n      0x00\n        /* \"atta-movies/ERC20/busd.sol\":15550:15679  _approve(_msgSender(), spender, _allowances[_msgSender()][spender].sub(subtractedValue, \"BEP20: decreased allowance below zero\")) */\n      tag_160\n        /* \"atta-movies/ERC20/busd.sol\":15559:15571  _msgSender() */\n      tag_161\n        /* \"atta-movies/ERC20/busd.sol\":15559:15569  _msgSender */\n      tag_114\n        /* \"atta-movies/ERC20/busd.sol\":15559:15571  _msgSender() */\n      jump\t// in\n    tag_161:\n        /* \"atta-movies/ERC20/busd.sol\":15573:15580  spender */\n      dup5\n        /* \"atta-movies/ERC20/busd.sol\":15582:15678  _allowances[_msgSender()][spender].sub(subtractedValue, \"BEP20: decreased allowance below zero\") */\n      tag_162\n        /* \"atta-movies/ERC20/busd.sol\":15621:15636  subtractedValue */\n      dup6\n        /* \"atta-movies/ERC20/busd.sol\":15582:15678  _allowances[_msgSender()][spender].sub(subtractedValue, \"BEP20: decreased allowance below zero\") */\n      mload(0x40)\n      dup1\n      0x60\n      add\n      0x40\n      mstore\n      dup1\n      0x25\n      dup2\n      mstore\n      0x20\n      add\n      data_b7060b3538dcd3ddc8a941c91636a8115a1aa46914747fd9809d543bbb46cd22\n      0x25\n      swap2\n      codecopy\n        /* \"atta-movies/ERC20/busd.sol\":15582:15593  _allowances */\n      0x02\n        /* \"atta-movies/ERC20/busd.sol\":15582:15607  _allowances[_msgSender()] */\n      0x00\n        /* \"atta-movies/ERC20/busd.sol\":15594:15606  _msgSender() */\n      tag_163\n        /* \"atta-movies/ERC20/busd.sol\":15594:15604  _msgSender */\n      tag_114\n        /* \"atta-movies/ERC20/busd.sol\":15594:15606  _msgSender() */\n      jump\t// in\n    tag_163:\n        /* \"atta-movies/ERC20/busd.sol\":15582:15607  _allowances[_msgSender()] */\n      0xffffffffffffffffffffffffffffffffffffffff\n      and\n      0xffffffffffffffffffffffffffffffffffffffff\n      and\n      dup2\n      mstore\n      0x20\n      add\n      swap1\n      dup2\n      mstore\n      0x20\n      add\n      0x00\n      keccak256\n        /* \"atta-movies/ERC20/busd.sol\":15582:15616  _allowances[_msgSender()][spender] */\n      0x00\n        /* \"atta-movies/ERC20/busd.sol\":15608:15615  spender */\n      dup11\n        /* \"atta-movies/ERC20/busd.sol\":15582:15616  _allowances[_msgSender()][spender] */\n      0xffffffffffffffffffffffffffffffffffffffff\n      and\n      0xffffffffffffffffffffffffffffffffffffffff\n      and\n      dup2\n      mstore\n      0x20\n      add\n      swap1\n      dup2\n      mstore\n      0x20\n      add\n      0x00\n      keccak256\n      sload\n        /* \"atta-movies/ERC20/busd.sol\":15582:15620  _allowances[_msgSender()][spender].sub */\n      tag_123\n      swap1\n        /* \"atta-movies/ERC20/busd.sol\":15582:15678  _allowances[_msgSender()][spender].sub(subtractedValue, \"BEP20: decreased allowance below zero\") */\n      swap3\n      swap2\n      swap1\n      0xffffffff\n      and\n      jump\t// in\n    tag_162:\n        /* \"atta-movies/ERC20/busd.sol\":15550:15558  _approve */\n      tag_115\n        /* \"atta-movies/ERC20/busd.sol\":15550:15679  _approve(_msgSender(), spender, _allowances[_msgSender()][spender].sub(subtractedValue, \"BEP20: decreased allowance below zero\")) */\n      jump\t// in\n    tag_160:\n        /* \"atta-movies/ERC20/busd.sol\":15693:15697  true */\n      0x01\n        /* \"atta-movies/ERC20/busd.sol\":15686:15697  return true */\n      swap1\n      pop\n        /* \"atta-movies/ERC20/busd.sol\":15452:15703  function decreaseAllowance(address spender, uint256 subtractedValue) public returns (bool) {\r... */\n      swap3\n      swap2\n      pop\n      pop\n      jump\t// out\n        /* \"atta-movies/ERC20/busd.sol\":13031:13190  function transfer(address recipient, uint256 amount) external override returns (bool) {\r... */\n    tag_88:\n        /* \"atta-movies/ERC20/busd.sol\":13111:13115  bool */\n      0x00\n        /* \"atta-movies/ERC20/busd.sol\":13124:13166  _transfer(_msgSender(), recipient, amount) */\n      tag_165\n        /* \"atta-movies/ERC20/busd.sol\":13134:13146  _msgSender() */\n      tag_166\n        /* \"atta-movies/ERC20/busd.sol\":13134:13144  _msgSender */\n      tag_114\n        /* \"atta-movies/ERC20/busd.sol\":13134:13146  _msgSender() */\n      jump\t// in\n    tag_166:\n        /* \"atta-movies/ERC20/busd.sol\":13148:13157  recipient */\n      dup5\n        /* \"atta-movies/ERC20/busd.sol\":13159:13165  amount */\n      dup5\n        /* \"atta-movies/ERC20/busd.sol\":13124:13133  _transfer */\n      tag_119\n        /* \"atta-movies/ERC20/busd.sol\":13124:13166  _transfer(_msgSender(), recipient, amount) */\n      jump\t// in\n    tag_165:\n        /* \"atta-movies/ERC20/busd.sol\":13180:13184  true */\n      0x01\n        /* \"atta-movies/ERC20/busd.sol\":13173:13184  return true */\n      swap1\n      pop\n        /* \"atta-movies/ERC20/busd.sol\":13031:13190  function transfer(address recipient, uint256 amount) external override returns (bool) {\r... */\n      swap3\n      swap2\n      pop\n      pop\n      jump\t// out\n        /* \"atta-movies/ERC20/busd.sol\":11643:11664  string public _symbol */\n    tag_91:\n      0x05\n      dup1\n      sload\n      tag_167\n      swap1\n      tag_106\n      jump\t// in\n    tag_167:\n      dup1\n      0x1f\n      add\n      0x20\n      dup1\n      swap2\n      div\n      mul\n      0x20\n      add\n      mload(0x40)\n      swap1\n      dup2\n      add\n      0x40\n      mstore\n      dup1\n      swap3\n      swap2\n      swap1\n      dup2\n      dup2\n      mstore\n      0x20\n      add\n      dup3\n      dup1\n      sload\n      tag_168\n      swap1\n      tag_106\n      jump\t// in\n    tag_168:\n      dup1\n      iszero\n      tag_169\n      jumpi\n      dup1\n      0x1f\n      lt\n      tag_170\n      jumpi\n      0x0100\n      dup1\n      dup4\n      sload\n      div\n      mul\n      dup4\n      mstore\n      swap2\n      0x20\n      add\n      swap2\n      jump(tag_169)\n    tag_170:\n      dup3\n      add\n      swap2\n      swap1\n      0x00\n      mstore\n      keccak256(0x00, 0x20)\n      swap1\n    tag_171:\n      dup2\n      sload\n      dup2\n      mstore\n      swap1\n      0x01\n      add\n      swap1\n      0x20\n      add\n      dup1\n      dup4\n      gt\n      tag_171\n      jumpi\n      dup3\n      swap1\n      sub\n      0x1f\n      and\n      dup3\n      add\n      swap2\n    tag_169:\n      pop\n      pop\n      pop\n      pop\n      pop\n      dup2\n      jump\t// out\n        /* \"atta-movies/ERC20/busd.sol\":11669:11688  string public _name */\n    tag_94:\n      0x06\n      dup1\n      sload\n      tag_172\n      swap1\n      tag_106\n      jump\t// in\n    tag_172:\n      dup1\n      0x1f\n      add\n      0x20\n      dup1\n      swap2\n      div\n      mul\n      0x20\n      add\n      mload(0x40)\n      swap1\n      dup2\n      add\n      0x40\n      mstore\n      dup1\n      swap3\n      swap2\n      swap1\n      dup2\n      dup2\n      mstore\n      0x20\n      add\n      dup3\n      dup1\n      sload\n      tag_173\n      swap1\n      tag_106\n      jump\t// in\n    tag_173:\n      dup1\n      iszero\n      tag_174\n      jumpi\n      dup1\n      0x1f\n      lt\n      tag_175\n      jumpi\n      0x0100\n      dup1\n      dup4\n      sload\n      div\n      mul\n      dup4\n      mstore\n      swap2\n      0x20\n      add\n      swap2\n      jump(tag_174)\n    tag_175:\n      dup3\n      add\n      swap2\n      swap1\n      0x00\n      mstore\n      keccak256(0x00, 0x20)\n      swap1\n    tag_176:\n      dup2\n      sload\n      dup2\n      mstore\n      swap1\n      0x01\n      add\n      swap1\n      0x20\n      add\n      dup1\n      dup4\n      gt\n      tag_176\n      jumpi\n      dup3\n      swap1\n      sub\n      0x1f\n      and\n      dup3\n      add\n      swap2\n    tag_174:\n      pop\n      pop\n      pop\n      pop\n      pop\n      dup2\n      jump\t// out\n        /* \"atta-movies/ERC20/busd.sol\":13244:13383  function allowance(address owner, address spender) external view override returns (uint256) {\r... */\n    tag_99:\n        /* \"atta-movies/ERC20/busd.sol\":13327:13334  uint256 */\n      0x00\n        /* \"atta-movies/ERC20/busd.sol\":13350:13361  _allowances */\n      0x02\n        /* \"atta-movies/ERC20/busd.sol\":13350:13368  _allowances[owner] */\n      0x00\n        /* \"atta-movies/ERC20/busd.sol\":13362:13367  owner */\n      dup5\n        /* \"atta-movies/ERC20/busd.sol\":13350:13368  _allowances[owner] */\n      0xffffffffffffffffffffffffffffffffffffffff\n      and\n      0xffffffffffffffffffffffffffffffffffffffff\n      and\n      dup2\n      mstore\n      0x20\n      add\n      swap1\n      dup2\n      mstore\n      0x20\n      add\n      0x00\n      keccak256\n        /* \"atta-movies/ERC20/busd.sol\":13350:13377  _allowances[owner][spender] */\n      0x00\n        /* \"atta-movies/ERC20/busd.sol\":13369:13376  spender */\n      dup4\n        /* \"atta-movies/ERC20/busd.sol\":13350:13377  _allowances[owner][spender] */\n      0xffffffffffffffffffffffffffffffffffffffff\n      and\n      0xffffffffffffffffffffffffffffffffffffffff\n      and\n      dup2\n      mstore\n      0x20\n      add\n      swap1\n      dup2\n      mstore\n      0x20\n      add\n      0x00\n      keccak256\n      sload\n        /* \"atta-movies/ERC20/busd.sol\":13343:13377  return _allowances[owner][spender] */\n      swap1\n      pop\n        /* \"atta-movies/ERC20/busd.sol\":13244:13383  function allowance(address owner, address spender) external view override returns (uint256) {\r... */\n      swap3\n      swap2\n      pop\n      pop\n      jump\t// out\n        /* \"atta-movies/ERC20/busd.sol\":10945:11048  function transferOwnership(address newOwner) public onlyOwner {\r... */\n    tag_103:\n        /* \"atta-movies/ERC20/busd.sol\":10272:10284  _msgSender() */\n      tag_179\n        /* \"atta-movies/ERC20/busd.sol\":10272:10282  _msgSender */\n      tag_114\n        /* \"atta-movies/ERC20/busd.sol\":10272:10284  _msgSender() */\n      jump\t// in\n    tag_179:\n        /* \"atta-movies/ERC20/busd.sol\":10262:10284  _owner == _msgSender() */\n      0xffffffffffffffffffffffffffffffffffffffff\n      and\n        /* \"atta-movies/ERC20/busd.sol\":10262:10268  _owner */\n      0x00\n      dup1\n      sload\n      swap1\n      0x0100\n      exp\n      swap1\n      div\n      0xffffffffffffffffffffffffffffffffffffffff\n      and\n        /* \"atta-movies/ERC20/busd.sol\":10262:10284  _owner == _msgSender() */\n      0xffffffffffffffffffffffffffffffffffffffff\n      and\n      eq\n        /* \"atta-movies/ERC20/busd.sol\":10254:10321  require(_owner == _msgSender(), \"Ownable: caller is not the owner\") */\n      tag_180\n      jumpi\n      mload(0x40)\n      0x08c379a000000000000000000000000000000000000000000000000000000000\n      dup2\n      mstore\n      0x04\n      add\n      tag_181\n      swap1\n      tag_140\n      jump\t// in\n    tag_181:\n      mload(0x40)\n      dup1\n      swap2\n      sub\n      swap1\n      revert\n    tag_180:\n        /* \"atta-movies/ERC20/busd.sol\":11014:11042  _transferOwnership(newOwner) */\n      tag_183\n        /* \"atta-movies/ERC20/busd.sol\":11033:11041  newOwner */\n      dup2\n        /* \"atta-movies/ERC20/busd.sol\":11014:11032  _transferOwnership */\n      tag_184\n        /* \"atta-movies/ERC20/busd.sol\":11014:11042  _transferOwnership(newOwner) */\n      jump\t// in\n    tag_183:\n        /* \"atta-movies/ERC20/busd.sol\":10945:11048  function transferOwnership(address newOwner) public onlyOwner {\r... */\n      pop\n      jump\t// out\n        /* \"atta-movies/ERC20/busd.sol\":3765:3866  function _msgSender() internal view returns (address payable) {\r... */\n    tag_114:\n        /* \"atta-movies/ERC20/busd.sol\":3810:3825  address payable */\n      0x00\n        /* \"atta-movies/ERC20/busd.sol\":3849:3859  msg.sender */\n      caller\n        /* \"atta-movies/ERC20/busd.sol\":3834:3860  return payable(msg.sender) */\n      swap1\n      pop\n        /* \"atta-movies/ERC20/busd.sol\":3765:3866  function _msgSender() internal view returns (address payable) {\r... */\n      swap1\n      jump\t// out\n        /* \"atta-movies/ERC20/busd.sol\":18728:19048  function _approve(address owner, address spender, uint256 amount) internal {\r... */\n    tag_115:\n        /* \"atta-movies/ERC20/busd.sol\":18835:18836  0 */\n      0x00\n        /* \"atta-movies/ERC20/busd.sol\":18818:18837  owner != address(0) */\n      0xffffffffffffffffffffffffffffffffffffffff\n      and\n        /* \"atta-movies/ERC20/busd.sol\":18818:18823  owner */\n      dup4\n        /* \"atta-movies/ERC20/busd.sol\":18818:18837  owner != address(0) */\n      0xffffffffffffffffffffffffffffffffffffffff\n      and\n      eq\n      iszero\n        /* \"atta-movies/ERC20/busd.sol\":18810:18878  require(owner != address(0), \"BEP20: approve from the zero address\") */\n      tag_187\n      jumpi\n      mload(0x40)\n      0x08c379a000000000000000000000000000000000000000000000000000000000\n      dup2\n      mstore\n      0x04\n      add\n      tag_188\n      swap1\n      tag_189\n      jump\t// in\n    tag_188:\n      mload(0x40)\n      dup1\n      swap2\n      sub\n      swap1\n      revert\n    tag_187:\n        /* \"atta-movies/ERC20/busd.sol\":18912:18913  0 */\n      0x00\n        /* \"atta-movies/ERC20/busd.sol\":18893:18914  spender != address(0) */\n      0xffffffffffffffffffffffffffffffffffffffff\n      and\n        /* \"atta-movies/ERC20/busd.sol\":18893:18900  spender */\n      dup3\n        /* \"atta-movies/ERC20/busd.sol\":18893:18914  spender != address(0) */\n      0xffffffffffffffffffffffffffffffffffffffff\n      and\n      eq\n      iszero\n        /* \"atta-movies/ERC20/busd.sol\":18885:18953  require(spender != address(0), \"BEP20: approve to the zero address\") */\n      tag_190\n      jumpi\n      mload(0x40)\n      0x08c379a000000000000000000000000000000000000000000000000000000000\n      dup2\n      mstore\n      0x04\n      add\n      tag_191\n      swap1\n      tag_192\n      jump\t// in\n    tag_191:\n      mload(0x40)\n      dup1\n      swap2\n      sub\n      swap1\n      revert\n    tag_190:\n        /* \"atta-movies/ERC20/busd.sol\":18992:18998  amount */\n      dup1\n        /* \"atta-movies/ERC20/busd.sol\":18962:18973  _allowances */\n      0x02\n        /* \"atta-movies/ERC20/busd.sol\":18962:18980  _allowances[owner] */\n      0x00\n        /* \"atta-movies/ERC20/busd.sol\":18974:18979  owner */\n      dup6\n        /* \"atta-movies/ERC20/busd.sol\":18962:18980  _allowances[owner] */\n      0xffffffffffffffffffffffffffffffffffffffff\n      and\n      0xffffffffffffffffffffffffffffffffffffffff\n      and\n      dup2\n      mstore\n      0x20\n      add\n      swap1\n      dup2\n      mstore\n      0x20\n      add\n      0x00\n      keccak256\n        /* \"atta-movies/ERC20/busd.sol\":18962:18989  _allowances[owner][spender] */\n      0x00\n        /* \"atta-movies/ERC20/busd.sol\":18981:18988  spender */\n      dup5\n        /* \"atta-movies/ERC20/busd.sol\":18962:18989  _allowances[owner][spender] */\n      0xffffffffffffffffffffffffffffffffffffffff\n      and\n      0xffffffffffffffffffffffffffffffffffffffff\n      and\n      dup2\n      mstore\n      0x20\n      add\n      swap1\n      dup2\n      mstore\n      0x20\n      add\n      0x00\n      keccak256\n        /* \"atta-movies/ERC20/busd.sol\":18962:18998  _allowances[owner][spender] = amount */\n      dup2\n      swap1\n      sstore\n      pop\n        /* \"atta-movies/ERC20/busd.sol\":19026:19033  spender */\n      dup2\n        /* \"atta-movies/ERC20/busd.sol\":19010:19042  Approval(owner, spender, amount) */\n      0xffffffffffffffffffffffffffffffffffffffff\n      and\n        /* \"atta-movies/ERC20/busd.sol\":19019:19024  owner */\n      dup4\n        /* \"atta-movies/ERC20/busd.sol\":19010:19042  Approval(owner, spender, amount) */\n      0xffffffffffffffffffffffffffffffffffffffff\n      and\n      0x8c5be1e5ebec7d5bd14f71427d1e84f3dd0314c0f7b2291e5b200ac8c7c3b925\n        /* \"atta-movies/ERC20/busd.sol\":19035:19041  amount */\n      dup4\n        /* \"atta-movies/ERC20/busd.sol\":19010:19042  Approval(owner, spender, amount) */\n      mload(0x40)\n      tag_193\n      swap2\n      swap1\n      tag_39\n      jump\t// in\n    tag_193:\n      mload(0x40)\n      dup1\n      swap2\n      sub\n      swap1\n      log3\n        /* \"atta-movies/ERC20/busd.sol\":18728:19048  function _approve(address owner, address spender, uint256 amount) internal {\r... */\n      pop\n      pop\n      pop\n      jump\t// out\n        /* \"atta-movies/ERC20/busd.sol\":16678:17127  function _transfer(address sender, address recipient, uint256 amount) internal {\r... */\n    tag_119:\n        /* \"atta-movies/ERC20/busd.sol\":16790:16791  0 */\n      0x00\n        /* \"atta-movies/ERC20/busd.sol\":16772:16792  sender != address(0) */\n      0xffffffffffffffffffffffffffffffffffffffff\n      and\n        /* \"atta-movies/ERC20/busd.sol\":16772:16778  sender */\n      dup4\n        /* \"atta-movies/ERC20/busd.sol\":16772:16792  sender != address(0) */\n      0xffffffffffffffffffffffffffffffffffffffff\n      and\n      eq\n      iszero\n        /* \"atta-movies/ERC20/busd.sol\":16764:16834  require(sender != address(0), \"BEP20: transfer from the zero address\") */\n      tag_195\n      jumpi\n      mload(0x40)\n      0x08c379a000000000000000000000000000000000000000000000000000000000\n      dup2\n      mstore\n      0x04\n      add\n      tag_196\n      swap1\n      tag_197\n      jump\t// in\n    tag_196:\n      mload(0x40)\n      dup1\n      swap2\n      sub\n      swap1\n      revert\n    tag_195:\n        /* \"atta-movies/ERC20/busd.sol\":16870:16871  0 */\n      0x00\n        /* \"atta-movies/ERC20/busd.sol\":16849:16872  recipient != address(0) */\n      0xffffffffffffffffffffffffffffffffffffffff\n      and\n        /* \"atta-movies/ERC20/busd.sol\":16849:16858  recipient */\n      dup3\n        /* \"atta-movies/ERC20/busd.sol\":16849:16872  recipient != address(0) */\n      0xffffffffffffffffffffffffffffffffffffffff\n      and\n      eq\n      iszero\n        /* \"atta-movies/ERC20/busd.sol\":16841:16912  require(recipient != address(0), \"BEP20: transfer to the zero address\") */\n      tag_198\n      jumpi\n      mload(0x40)\n      0x08c379a000000000000000000000000000000000000000000000000000000000\n      dup2\n      mstore\n      0x04\n      add\n      tag_199\n      swap1\n      tag_200\n      jump\t// in\n    tag_199:\n      mload(0x40)\n      dup1\n      swap2\n      sub\n      swap1\n      revert\n    tag_198:\n        /* \"atta-movies/ERC20/busd.sol\":16941:17012  _balances[sender].sub(amount, \"BEP20: transfer amount exceeds balance\") */\n      tag_201\n        /* \"atta-movies/ERC20/busd.sol\":16963:16969  amount */\n      dup2\n        /* \"atta-movies/ERC20/busd.sol\":16941:17012  _balances[sender].sub(amount, \"BEP20: transfer amount exceeds balance\") */\n      mload(0x40)\n      dup1\n      0x60\n      add\n      0x40\n      mstore\n      dup1\n      0x26\n      dup2\n      mstore\n      0x20\n      add\n      data_a91efd7a65ef5b4ae4d6568d674798b78a5a89184dd296c100513251c22d3e73\n      0x26\n      swap2\n      codecopy\n        /* \"atta-movies/ERC20/busd.sol\":16941:16950  _balances */\n      0x01\n        /* \"atta-movies/ERC20/busd.sol\":16941:16958  _balances[sender] */\n      0x00\n        /* \"atta-movies/ERC20/busd.sol\":16951:16957  sender */\n      dup8\n        /* \"atta-movies/ERC20/busd.sol\":16941:16958  _balances[sender] */\n      0xffffffffffffffffffffffffffffffffffffffff\n      and\n      0xffffffffffffffffffffffffffffffffffffffff\n      and\n      dup2\n      mstore\n      0x20\n      add\n      swap1\n      dup2\n      mstore\n      0x20\n      add\n      0x00\n      keccak256\n      sload\n        /* \"atta-movies/ERC20/busd.sol\":16941:16962  _balances[sender].sub */\n      tag_123\n      swap1\n        /* \"atta-movies/ERC20/busd.sol\":16941:17012  _balances[sender].sub(amount, \"BEP20: transfer amount exceeds balance\") */\n      swap3\n      swap2\n      swap1\n      0xffffffff\n      and\n      jump\t// in\n    tag_201:\n        /* \"atta-movies/ERC20/busd.sol\":16921:16930  _balances */\n      0x01\n        /* \"atta-movies/ERC20/busd.sol\":16921:16938  _balances[sender] */\n      0x00\n        /* \"atta-movies/ERC20/busd.sol\":16931:16937  sender */\n      dup6\n        /* \"atta-movies/ERC20/busd.sol\":16921:16938  _balances[sender] */\n      0xffffffffffffffffffffffffffffffffffffffff\n      and\n      0xffffffffffffffffffffffffffffffffffffffff\n      and\n      dup2\n      mstore\n      0x20\n      add\n      swap1\n      dup2\n      mstore\n      0x20\n      add\n      0x00\n      keccak256\n        /* \"atta-movies/ERC20/busd.sol\":16921:17012  _balances[sender] = _balances[sender].sub(amount, \"BEP20: transfer amount exceeds balance\") */\n      dup2\n      swap1\n      sstore\n      pop\n        /* \"atta-movies/ERC20/busd.sol\":17042:17074  _balances[recipient].add(amount) */\n      tag_202\n        /* \"atta-movies/ERC20/busd.sol\":17067:17073  amount */\n      dup2\n        /* \"atta-movies/ERC20/busd.sol\":17042:17051  _balances */\n      0x01\n        /* \"atta-movies/ERC20/busd.sol\":17042:17062  _balances[recipient] */\n      0x00\n        /* \"atta-movies/ERC20/busd.sol\":17052:17061  recipient */\n      dup6\n        /* \"atta-movies/ERC20/busd.sol\":17042:17062  _balances[recipient] */\n      0xffffffffffffffffffffffffffffffffffffffff\n      and\n      0xffffffffffffffffffffffffffffffffffffffff\n      and\n      dup2\n      mstore\n      0x20\n      add\n      swap1\n      dup2\n      mstore\n      0x20\n      add\n      0x00\n      keccak256\n      sload\n        /* \"atta-movies/ERC20/busd.sol\":17042:17066  _balances[recipient].add */\n      tag_130\n      swap1\n        /* \"atta-movies/ERC20/busd.sol\":17042:17074  _balances[recipient].add(amount) */\n      swap2\n      swap1\n      0xffffffff\n      and\n      jump\t// in\n    tag_202:\n        /* \"atta-movies/ERC20/busd.sol\":17019:17028  _balances */\n      0x01\n        /* \"atta-movies/ERC20/busd.sol\":17019:17039  _balances[recipient] */\n      0x00\n        /* \"atta-movies/ERC20/busd.sol\":17029:17038  recipient */\n      dup5\n        /* \"atta-movies/ERC20/busd.sol\":17019:17039  _balances[recipient] */\n      0xffffffffffffffffffffffffffffffffffffffff\n      and\n      0xffffffffffffffffffffffffffffffffffffffff\n      and\n      dup2\n      mstore\n      0x20\n      add\n      swap1\n      dup2\n      mstore\n      0x20\n      add\n      0x00\n      keccak256\n        /* \"atta-movies/ERC20/busd.sol\":17019:17074  _balances[recipient] = _balances[recipient].add(amount) */\n      dup2\n      swap1\n      sstore\n      pop\n        /* \"atta-movies/ERC20/busd.sol\":17103:17112  recipient */\n      dup2\n        /* \"atta-movies/ERC20/busd.sol\":17086:17121  Transfer(sender, recipient, amount) */\n      0xffffffffffffffffffffffffffffffffffffffff\n      and\n        /* \"atta-movies/ERC20/busd.sol\":17095:17101  sender */\n      dup4\n        /* \"atta-movies/ERC20/busd.sol\":17086:17121  Transfer(sender, recipient, amount) */\n      0xffffffffffffffffffffffffffffffffffffffff\n      and\n      0xddf252ad1be2c89b69c2b068fc378daa952ba7f163c4a11628f55a4df523b3ef\n        /* \"atta-movies/ERC20/busd.sol\":17114:17120  amount */\n      dup4\n        /* \"atta-movies/ERC20/busd.sol\":17086:17121  Transfer(sender, recipient, amount) */\n      mload(0x40)\n      tag_203\n      swap2\n      swap1\n      tag_39\n      jump\t// in\n    tag_203:\n      mload(0x40)\n      dup1\n      swap2\n      sub\n      swap1\n      log3\n        /* \"atta-movies/ERC20/busd.sol\":16678:17127  function _transfer(address sender, address recipient, uint256 amount) internal {\r... */\n      pop\n      pop\n      pop\n      jump\t// out\n        /* \"atta-movies/ERC20/busd.sol\":5733:5911  function sub(uint256 a, uint256 b, string memory errorMessage) internal pure returns (uint256) {\r... */\n    tag_123:\n        /* \"atta-movies/ERC20/busd.sol\":5819:5826  uint256 */\n      0x00\n        /* \"atta-movies/ERC20/busd.sol\":5848:5849  a */\n      dup4\n        /* \"atta-movies/ERC20/busd.sol\":5843:5844  b */\n      dup4\n        /* \"atta-movies/ERC20/busd.sol\":5843:5849  b <= a */\n      gt\n      iszero\n        /* \"atta-movies/ERC20/busd.sol\":5851:5863  errorMessage */\n      dup3\n        /* \"atta-movies/ERC20/busd.sol\":5835:5864  require(b <= a, errorMessage) */\n      swap1\n      tag_205\n      jumpi\n      mload(0x40)\n      0x08c379a000000000000000000000000000000000000000000000000000000000\n      dup2\n      mstore\n      0x04\n      add\n      tag_206\n      swap2\n      swap1\n      tag_29\n      jump\t// in\n    tag_206:\n      mload(0x40)\n      dup1\n      swap2\n      sub\n      swap1\n      revert\n    tag_205:\n      pop\n        /* \"atta-movies/ERC20/busd.sol\":5871:5880  uint256 c */\n      0x00\n        /* \"atta-movies/ERC20/busd.sol\":5887:5888  b */\n      dup4\n        /* \"atta-movies/ERC20/busd.sol\":5883:5884  a */\n      dup6\n        /* \"atta-movies/ERC20/busd.sol\":5883:5888  a - b */\n      tag_207\n      swap2\n      swap1\n      tag_208\n      jump\t// in\n    tag_207:\n        /* \"atta-movies/ERC20/busd.sol\":5871:5888  uint256 c = a - b */\n      swap1\n      pop\n        /* \"atta-movies/ERC20/busd.sol\":5904:5905  c */\n      dup1\n        /* \"atta-movies/ERC20/busd.sol\":5897:5905  return c */\n      swap2\n      pop\n      pop\n        /* \"atta-movies/ERC20/busd.sol\":5733:5911  function sub(uint256 a, uint256 b, string memory errorMessage) internal pure returns (uint256) {\r... */\n      swap4\n      swap3\n      pop\n      pop\n      pop\n      jump\t// out\n        /* \"atta-movies/ERC20/busd.sol\":4906:5073  function add(uint256 a, uint256 b) internal pure returns (uint256) {\r... */\n    tag_130:\n        /* \"atta-movies/ERC20/busd.sol\":4964:4971  uint256 */\n      0x00\n        /* \"atta-movies/ERC20/busd.sol\":4980:4989  uint256 c */\n      dup1\n        /* \"atta-movies/ERC20/busd.sol\":4996:4997  b */\n      dup3\n        /* \"atta-movies/ERC20/busd.sol\":4992:4993  a */\n      dup5\n        /* \"atta-movies/ERC20/busd.sol\":4992:4997  a + b */\n      tag_210\n      swap2\n      swap1\n      tag_211\n      jump\t// in\n    tag_210:\n        /* \"atta-movies/ERC20/busd.sol\":4980:4997  uint256 c = a + b */\n      swap1\n      pop\n        /* \"atta-movies/ERC20/busd.sol\":5017:5018  a */\n      dup4\n        /* \"atta-movies/ERC20/busd.sol\":5012:5013  c */\n      dup2\n        /* \"atta-movies/ERC20/busd.sol\":5012:5018  c >= a */\n      lt\n      iszero\n        /* \"atta-movies/ERC20/busd.sol\":5004:5050  require(c >= a, \"SafeMath: addition overflow\") */\n      tag_212\n      jumpi\n      mload(0x40)\n      0x08c379a000000000000000000000000000000000000000000000000000000000\n      dup2\n      mstore\n      0x04\n      add\n      tag_213\n      swap1\n      tag_214\n      jump\t// in\n    tag_213:\n      mload(0x40)\n      dup1\n      swap2\n      sub\n      swap1\n      revert\n    tag_212:\n        /* \"atta-movies/ERC20/busd.sol\":5066:5067  c */\n      dup1\n        /* \"atta-movies/ERC20/busd.sol\":5059:5067  return c */\n      swap2\n      pop\n      pop\n        /* \"atta-movies/ERC20/busd.sol\":4906:5073  function add(uint256 a, uint256 b) internal pure returns (uint256) {\r... */\n      swap3\n      swap2\n      pop\n      pop\n      jump\t// out\n        /* \"atta-movies/ERC20/busd.sol\":17986:18316  function _burn(address account, uint256 amount) internal {\r... */\n    tag_134:\n        /* \"atta-movies/ERC20/busd.sol\":18077:18078  0 */\n      0x00\n        /* \"atta-movies/ERC20/busd.sol\":18058:18079  account != address(0) */\n      0xffffffffffffffffffffffffffffffffffffffff\n      and\n        /* \"atta-movies/ERC20/busd.sol\":18058:18065  account */\n      dup3\n        /* \"atta-movies/ERC20/busd.sol\":18058:18079  account != address(0) */\n      0xffffffffffffffffffffffffffffffffffffffff\n      and\n      eq\n      iszero\n        /* \"atta-movies/ERC20/busd.sol\":18050:18117  require(account != address(0), \"BEP20: burn from the zero address\") */\n      tag_216\n      jumpi\n      mload(0x40)\n      0x08c379a000000000000000000000000000000000000000000000000000000000\n      dup2\n      mstore\n      0x04\n      add\n      tag_217\n      swap1\n      tag_218\n      jump\t// in\n    tag_217:\n      mload(0x40)\n      dup1\n      swap2\n      sub\n      swap1\n      revert\n    tag_216:\n        /* \"atta-movies/ERC20/busd.sol\":18147:18215  _balances[account].sub(amount, \"BEP20: burn amount exceeds balance\") */\n      tag_219\n        /* \"atta-movies/ERC20/busd.sol\":18170:18176  amount */\n      dup2\n        /* \"atta-movies/ERC20/busd.sol\":18147:18215  _balances[account].sub(amount, \"BEP20: burn amount exceeds balance\") */\n      mload(0x40)\n      dup1\n      0x60\n      add\n      0x40\n      mstore\n      dup1\n      0x22\n      dup2\n      mstore\n      0x20\n      add\n      data_deaa84b30175fd0578812c46240362b7914652a35e6707ad7e1556891e4ae032\n      0x22\n      swap2\n      codecopy\n        /* \"atta-movies/ERC20/busd.sol\":18147:18156  _balances */\n      0x01\n        /* \"atta-movies/ERC20/busd.sol\":18147:18165  _balances[account] */\n      0x00\n        /* \"atta-movies/ERC20/busd.sol\":18157:18164  account */\n      dup7\n        /* \"atta-movies/ERC20/busd.sol\":18147:18165  _balances[account] */\n      0xffffffffffffffffffffffffffffffffffffffff\n      and\n      0xffffffffffffffffffffffffffffffffffffffff\n      and\n      dup2\n      mstore\n      0x20\n      add\n      swap1\n      dup2\n      mstore\n      0x20\n      add\n      0x00\n      keccak256\n      sload\n        /* \"atta-movies/ERC20/busd.sol\":18147:18169  _balances[account].sub */\n      tag_123\n      swap1\n        /* \"atta-movies/ERC20/busd.sol\":18147:18215  _balances[account].sub(amount, \"BEP20: burn amount exceeds balance\") */\n      swap3\n      swap2\n      swap1\n      0xffffffff\n      and\n      jump\t// in\n    tag_219:\n        /* \"atta-movies/ERC20/busd.sol\":18126:18135  _balances */\n      0x01\n        /* \"atta-movies/ERC20/busd.sol\":18126:18144  _balances[account] */\n      0x00\n        /* \"atta-movies/ERC20/busd.sol\":18136:18143  account */\n      dup5\n        /* \"atta-movies/ERC20/busd.sol\":18126:18144  _balances[account] */\n      0xffffffffffffffffffffffffffffffffffffffff\n      and\n      0xffffffffffffffffffffffffffffffffffffffff\n      and\n      dup2\n      mstore\n      0x20\n      add\n      swap1\n      dup2\n      mstore\n      0x20\n      add\n      0x00\n      keccak256\n        /* \"atta-movies/ERC20/busd.sol\":18126:18215  _balances[account] = _balances[account].sub(amount, \"BEP20: burn amount exceeds balance\") */\n      dup2\n      swap1\n      sstore\n      pop\n        /* \"atta-movies/ERC20/busd.sol\":18237:18261  _totalSupply.sub(amount) */\n      tag_220\n        /* \"atta-movies/ERC20/busd.sol\":18254:18260  amount */\n      dup2\n        /* \"atta-movies/ERC20/busd.sol\":18237:18249  _totalSupply */\n      sload(0x03)\n        /* \"atta-movies/ERC20/busd.sol\":18237:18253  _totalSupply.sub */\n      tag_221\n      swap1\n        /* \"atta-movies/ERC20/busd.sol\":18237:18261  _totalSupply.sub(amount) */\n      swap2\n      swap1\n      0xffffffff\n      and\n      jump\t// in\n    tag_220:\n        /* \"atta-movies/ERC20/busd.sol\":18222:18234  _totalSupply */\n      0x03\n        /* \"atta-movies/ERC20/busd.sol\":18222:18261  _totalSupply = _totalSupply.sub(amount) */\n      dup2\n      swap1\n      sstore\n      pop\n        /* \"atta-movies/ERC20/busd.sol\":18299:18300  0 */\n      0x00\n        /* \"atta-movies/ERC20/busd.sol\":18273:18310  Transfer(account, address(0), amount) */\n      0xffffffffffffffffffffffffffffffffffffffff\n      and\n        /* \"atta-movies/ERC20/busd.sol\":18282:18289  account */\n      dup3\n        /* \"atta-movies/ERC20/busd.sol\":18273:18310  Transfer(account, address(0), amount) */\n      0xffffffffffffffffffffffffffffffffffffffff\n      and\n      0xddf252ad1be2c89b69c2b068fc378daa952ba7f163c4a11628f55a4df523b3ef\n        /* \"atta-movies/ERC20/busd.sol\":18303:18309  amount */\n      dup4\n        /* \"atta-movies/ERC20/busd.sol\":18273:18310  Transfer(account, address(0), amount) */\n      mload(0x40)\n      tag_222\n      swap2\n      swap1\n      tag_39\n      jump\t// in\n    tag_222:\n      mload(0x40)\n      dup1\n      swap2\n      sub\n      swap1\n      log3\n        /* \"atta-movies/ERC20/busd.sol\":17986:18316  function _burn(address account, uint256 amount) internal {\r... */\n      pop\n      pop\n      jump\t// out\n        /* \"atta-movies/ERC20/busd.sol\":17388:17678  function _mint(address account, uint256 amount) internal {\r... */\n    tag_158:\n        /* \"atta-movies/ERC20/busd.sol\":17479:17480  0 */\n      0x00\n        /* \"atta-movies/ERC20/busd.sol\":17460:17481  account != address(0) */\n      0xffffffffffffffffffffffffffffffffffffffff\n      and\n        /* \"atta-movies/ERC20/busd.sol\":17460:17467  account */\n      dup3\n        /* \"atta-movies/ERC20/busd.sol\":17460:17481  account != address(0) */\n      0xffffffffffffffffffffffffffffffffffffffff\n      and\n      eq\n      iszero\n        /* \"atta-movies/ERC20/busd.sol\":17452:17517  require(account != address(0), \"BEP20: mint to the zero address\") */\n      tag_224\n      jumpi\n      mload(0x40)\n      0x08c379a000000000000000000000000000000000000000000000000000000000\n      dup2\n      mstore\n      0x04\n      add\n      tag_225\n      swap1\n      tag_226\n      jump\t// in\n    tag_225:\n      mload(0x40)\n      dup1\n      swap2\n      sub\n      swap1\n      revert\n    tag_224:\n        /* \"atta-movies/ERC20/busd.sol\":17541:17565  _totalSupply.add(amount) */\n      tag_227\n        /* \"atta-movies/ERC20/busd.sol\":17558:17564  amount */\n      dup2\n        /* \"atta-movies/ERC20/busd.sol\":17541:17553  _totalSupply */\n      sload(0x03)\n        /* \"atta-movies/ERC20/busd.sol\":17541:17557  _totalSupply.add */\n      tag_130\n      swap1\n        /* \"atta-movies/ERC20/busd.sol\":17541:17565  _totalSupply.add(amount) */\n      swap2\n      swap1\n      0xffffffff\n      and\n      jump\t// in\n    tag_227:\n        /* \"atta-movies/ERC20/busd.sol\":17526:17538  _totalSupply */\n      0x03\n        /* \"atta-movies/ERC20/busd.sol\":17526:17565  _totalSupply = _totalSupply.add(amount) */\n      dup2\n      swap1\n      sstore\n      pop\n        /* \"atta-movies/ERC20/busd.sol\":17593:17623  _balances[account].add(amount) */\n      tag_228\n        /* \"atta-movies/ERC20/busd.sol\":17616:17622  amount */\n      dup2\n        /* \"atta-movies/ERC20/busd.sol\":17593:17602  _balances */\n      0x01\n        /* \"atta-movies/ERC20/busd.sol\":17593:17611  _balances[account] */\n      0x00\n        /* \"atta-movies/ERC20/busd.sol\":17603:17610  account */\n      dup6\n        /* \"atta-movies/ERC20/busd.sol\":17593:17611  _balances[account] */\n      0xffffffffffffffffffffffffffffffffffffffff\n      and\n      0xffffffffffffffffffffffffffffffffffffffff\n      and\n      dup2\n      mstore\n      0x20\n      add\n      swap1\n      dup2\n      mstore\n      0x20\n      add\n      0x00\n      keccak256\n      sload\n        /* \"atta-movies/ERC20/busd.sol\":17593:17615  _balances[account].add */\n      tag_130\n      swap1\n        /* \"atta-movies/ERC20/busd.sol\":17593:17623  _balances[account].add(amount) */\n      swap2\n      swap1\n      0xffffffff\n      and\n      jump\t// in\n    tag_228:\n        /* \"atta-movies/ERC20/busd.sol\":17572:17581  _balances */\n      0x01\n        /* \"atta-movies/ERC20/busd.sol\":17572:17590  _balances[account] */\n      0x00\n        /* \"atta-movies/ERC20/busd.sol\":17582:17589  account */\n      dup5\n        /* \"atta-movies/ERC20/busd.sol\":17572:17590  _balances[account] */\n      0xffffffffffffffffffffffffffffffffffffffff\n      and\n      0xffffffffffffffffffffffffffffffffffffffff\n      and\n      dup2\n      mstore\n      0x20\n      add\n      swap1\n      dup2\n      mstore\n      0x20\n      add\n      0x00\n      keccak256\n        /* \"atta-movies/ERC20/busd.sol\":17572:17623  _balances[account] = _balances[account].add(amount) */\n      dup2\n      swap1\n      sstore\n      pop\n        /* \"atta-movies/ERC20/busd.sol\":17656:17663  account */\n      dup2\n        /* \"atta-movies/ERC20/busd.sol\":17635:17672  Transfer(address(0), account, amount) */\n      0xffffffffffffffffffffffffffffffffffffffff\n      and\n        /* \"atta-movies/ERC20/busd.sol\":17652:17653  0 */\n      0x00\n        /* \"atta-movies/ERC20/busd.sol\":17635:17672  Transfer(address(0), account, amount) */\n      0xffffffffffffffffffffffffffffffffffffffff\n      and\n      0xddf252ad1be2c89b69c2b068fc378daa952ba7f163c4a11628f55a4df523b3ef\n        /* \"atta-movies/ERC20/busd.sol\":17665:17671  amount */\n      dup4\n        /* \"atta-movies/ERC20/busd.sol\":17635:17672  Transfer(address(0), account, amount) */\n      mload(0x40)\n      tag_229\n      swap2\n      swap1\n      tag_39\n      jump\t// in\n    tag_229:\n      mload(0x40)\n      dup1\n      swap2\n      sub\n      swap1\n      log3\n        /* \"atta-movies/ERC20/busd.sol\":17388:17678  function _mint(address account, uint256 amount) internal {\r... */\n      pop\n      pop\n      jump\t// out\n        /* \"atta-movies/ERC20/busd.sol\":11146:11361  function _transferOwnership(address newOwner) internal {\r... */\n    tag_184:\n        /* \"atta-movies/ERC20/busd.sol\":11236:11237  0 */\n      0x00\n        /* \"atta-movies/ERC20/busd.sol\":11216:11238  newOwner != address(0) */\n      0xffffffffffffffffffffffffffffffffffffffff\n      and\n        /* \"atta-movies/ERC20/busd.sol\":11216:11224  newOwner */\n      dup2\n        /* \"atta-movies/ERC20/busd.sol\":11216:11238  newOwner != address(0) */\n      0xffffffffffffffffffffffffffffffffffffffff\n      and\n      eq\n      iszero\n        /* \"atta-movies/ERC20/busd.sol\":11208:11281  require(newOwner != address(0), \"Ownable: new owner is the zero address\") */\n      tag_231\n      jumpi\n      mload(0x40)\n      0x08c379a000000000000000000000000000000000000000000000000000000000\n      dup2\n      mstore\n      0x04\n      add\n      tag_232\n      swap1\n      tag_233\n      jump\t// in\n    tag_232:\n      mload(0x40)\n      dup1\n      swap2\n      sub\n      swap1\n      revert\n    tag_231:\n        /* \"atta-movies/ERC20/busd.sol\":11322:11330  newOwner */\n      dup1\n        /* \"atta-movies/ERC20/busd.sol\":11293:11331  OwnershipTransferred(_owner, newOwner) */\n      0xffffffffffffffffffffffffffffffffffffffff\n      and\n        /* \"atta-movies/ERC20/busd.sol\":11314:11320  _owner */\n      0x00\n      dup1\n      sload\n      swap1\n      0x0100\n      exp\n      swap1\n      div\n      0xffffffffffffffffffffffffffffffffffffffff\n      and\n        /* \"atta-movies/ERC20/busd.sol\":11293:11331  OwnershipTransferred(_owner, newOwner) */\n      0xffffffffffffffffffffffffffffffffffffffff\n      and\n      0x8be0079c531659141344cd1fd0a4f28419497f9722a3daafe3b4186f6b6457e0\n      mload(0x40)\n      mload(0x40)\n      dup1\n      swap2\n      sub\n      swap1\n      log3\n        /* \"atta-movies/ERC20/busd.sol\":11347:11355  newOwner */\n      dup1\n        /* \"atta-movies/ERC20/busd.sol\":11338:11344  _owner */\n      0x00\n      dup1\n        /* \"atta-movies/ERC20/busd.sol\":11338:11355  _owner = newOwner */\n      0x0100\n      exp\n      dup2\n      sload\n      dup2\n      0xffffffffffffffffffffffffffffffffffffffff\n      mul\n      not\n      and\n      swap1\n      dup4\n      0xffffffffffffffffffffffffffffffffffffffff\n      and\n      mul\n      or\n      swap1\n      sstore\n      pop\n        /* \"atta-movies/ERC20/busd.sol\":11146:11361  function _transferOwnership(address newOwner) internal {\r... */\n      pop\n      jump\t// out\n        /* \"atta-movies/ERC20/busd.sol\":5328:5458  function sub(uint256 a, uint256 b) internal pure returns (uint256) {\r... */\n    tag_221:\n        /* \"atta-movies/ERC20/busd.sol\":5386:5393  uint256 */\n      0x00\n        /* \"atta-movies/ERC20/busd.sol\":5409:5452  sub(a, b, \"SafeMath: subtraction overflow\") */\n      tag_235\n        /* \"atta-movies/ERC20/busd.sol\":5413:5414  a */\n      dup4\n        /* \"atta-movies/ERC20/busd.sol\":5416:5417  b */\n      dup4\n        /* \"atta-movies/ERC20/busd.sol\":5409:5452  sub(a, b, \"SafeMath: subtraction overflow\") */\n      mload(0x40)\n      dup1\n      0x40\n      add\n      0x40\n      mstore\n      dup1\n      0x1e\n      dup2\n      mstore\n      0x20\n      add\n      0x536166654d6174683a207375627472616374696f6e206f766572666c6f770000\n      dup2\n      mstore\n      pop\n        /* \"atta-movies/ERC20/busd.sol\":5409:5412  sub */\n      tag_123\n        /* \"atta-movies/ERC20/busd.sol\":5409:5452  sub(a, b, \"SafeMath: subtraction overflow\") */\n      jump\t// in\n    tag_235:\n        /* \"atta-movies/ERC20/busd.sol\":5402:5452  return sub(a, b, \"SafeMath: subtraction overflow\") */\n      swap1\n      pop\n        /* \"atta-movies/ERC20/busd.sol\":5328:5458  function sub(uint256 a, uint256 b) internal pure returns (uint256) {\r... */\n      swap3\n      swap2\n      pop\n      pop\n      jump\t// out\n        /* \"#utility.yul\":7:146   */\n    tag_237:\n      0x00\n        /* \"#utility.yul\":91:97   */\n      dup2\n        /* \"#utility.yul\":78:98   */\n      calldataload\n        /* \"#utility.yul\":69:98   */\n      swap1\n      pop\n        /* \"#utility.yul\":107:140   */\n      tag_239\n        /* \"#utility.yul\":134:139   */\n      dup2\n        /* \"#utility.yul\":107:140   */\n      tag_240\n      jump\t// in\n    tag_239:\n        /* \"#utility.yul\":59:146   */\n      swap3\n      swap2\n      pop\n      pop\n      jump\t// out\n        /* \"#utility.yul\":152:291   */\n    tag_241:\n      0x00\n        /* \"#utility.yul\":236:242   */\n      dup2\n        /* \"#utility.yul\":223:243   */\n      calldataload\n        /* \"#utility.yul\":214:243   */\n      swap1\n      pop\n        /* \"#utility.yul\":252:285   */\n      tag_243\n        /* \"#utility.yul\":279:284   */\n      dup2\n        /* \"#utility.yul\":252:285   */\n      tag_244\n      jump\t// in\n    tag_243:\n        /* \"#utility.yul\":204:291   */\n      swap3\n      swap2\n      pop\n      pop\n      jump\t// out\n        /* \"#utility.yul\":297:559   */\n    tag_63:\n      0x00\n        /* \"#utility.yul\":405:407   */\n      0x20\n        /* \"#utility.yul\":393:402   */\n      dup3\n        /* \"#utility.yul\":384:391   */\n      dup5\n        /* \"#utility.yul\":380:403   */\n      sub\n        /* \"#utility.yul\":376:408   */\n      slt\n        /* \"#utility.yul\":373:375   */\n      iszero\n      tag_246\n      jumpi\n        /* \"#utility.yul\":421:422   */\n      0x00\n        /* \"#utility.yul\":418:419   */\n      dup1\n        /* \"#utility.yul\":411:423   */\n      revert\n        /* \"#utility.yul\":373:375   */\n    tag_246:\n        /* \"#utility.yul\":464:465   */\n      0x00\n        /* \"#utility.yul\":489:542   */\n      tag_247\n        /* \"#utility.yul\":534:541   */\n      dup5\n        /* \"#utility.yul\":525:531   */\n      dup3\n        /* \"#utility.yul\":514:523   */\n      dup6\n        /* \"#utility.yul\":510:532   */\n      add\n        /* \"#utility.yul\":489:542   */\n      tag_237\n      jump\t// in\n    tag_247:\n        /* \"#utility.yul\":479:542   */\n      swap2\n      pop\n        /* \"#utility.yul\":435:552   */\n      pop\n        /* \"#utility.yul\":363:559   */\n      swap3\n      swap2\n      pop\n      pop\n      jump\t// out\n        /* \"#utility.yul\":565:972   */\n    tag_98:\n      0x00\n      dup1\n        /* \"#utility.yul\":690:692   */\n      0x40\n        /* \"#utility.yul\":678:687   */\n      dup4\n        /* \"#utility.yul\":669:676   */\n      dup6\n        /* \"#utility.yul\":665:688   */\n      sub\n        /* \"#utility.yul\":661:693   */\n      slt\n        /* \"#utility.yul\":658:660   */\n      iszero\n      tag_249\n      jumpi\n        /* \"#utility.yul\":706:707   */\n      0x00\n        /* \"#utility.yul\":703:704   */\n      dup1\n        /* \"#utility.yul\":696:708   */\n      revert\n        /* \"#utility.yul\":658:660   */\n    tag_249:\n        /* \"#utility.yul\":749:750   */\n      0x00\n        /* \"#utility.yul\":774:827   */\n      tag_250\n        /* \"#utility.yul\":819:826   */\n      dup6\n        /* \"#utility.yul\":810:816   */\n      dup3\n        /* \"#utility.yul\":799:808   */\n      dup7\n        /* \"#utility.yul\":795:817   */\n      add\n        /* \"#utility.yul\":774:827   */\n      tag_237\n      jump\t// in\n    tag_250:\n        /* \"#utility.yul\":764:827   */\n      swap3\n      pop\n        /* \"#utility.yul\":720:837   */\n      pop\n        /* \"#utility.yul\":876:878   */\n      0x20\n        /* \"#utility.yul\":902:955   */\n      tag_251\n        /* \"#utility.yul\":947:954   */\n      dup6\n        /* \"#utility.yul\":938:944   */\n      dup3\n        /* \"#utility.yul\":927:936   */\n      dup7\n        /* \"#utility.yul\":923:945   */\n      add\n        /* \"#utility.yul\":902:955   */\n      tag_237\n      jump\t// in\n    tag_251:\n        /* \"#utility.yul\":892:955   */\n      swap2\n      pop\n        /* \"#utility.yul\":847:965   */\n      pop\n        /* \"#utility.yul\":648:972   */\n      swap3\n      pop\n      swap3\n      swap1\n      pop\n      jump\t// out\n        /* \"#utility.yul\":978:1530   */\n    tag_42:\n      0x00\n      dup1\n      0x00\n        /* \"#utility.yul\":1120:1122   */\n      0x60\n        /* \"#utility.yul\":1108:1117   */\n      dup5\n        /* \"#utility.yul\":1099:1106   */\n      dup7\n        /* \"#utility.yul\":1095:1118   */\n      sub\n        /* \"#utility.yul\":1091:1123   */\n      slt\n        /* \"#utility.yul\":1088:1090   */\n      iszero\n      tag_253\n      jumpi\n        /* \"#utility.yul\":1136:1137   */\n      0x00\n        /* \"#utility.yul\":1133:1134   */\n      dup1\n        /* \"#utility.yul\":1126:1138   */\n      revert\n        /* \"#utility.yul\":1088:1090   */\n    tag_253:\n        /* \"#utility.yul\":1179:1180   */\n      0x00\n        /* \"#utility.yul\":1204:1257   */\n      tag_254\n        /* \"#utility.yul\":1249:1256   */\n      dup7\n        /* \"#utility.yul\":1240:1246   */\n      dup3\n        /* \"#utility.yul\":1229:1238   */\n      dup8\n        /* \"#utility.yul\":1225:1247   */\n      add\n        /* \"#utility.yul\":1204:1257   */\n      tag_237\n      jump\t// in\n    tag_254:\n        /* \"#utility.yul\":1194:1257   */\n      swap4\n      pop\n        /* \"#utility.yul\":1150:1267   */\n      pop\n        /* \"#utility.yul\":1306:1308   */\n      0x20\n        /* \"#utility.yul\":1332:1385   */\n      tag_255\n        /* \"#utility.yul\":1377:1384   */\n      dup7\n        /* \"#utility.yul\":1368:1374   */\n      dup3\n        /* \"#utility.yul\":1357:1366   */\n      dup8\n        /* \"#utility.yul\":1353:1375   */\n      add\n        /* \"#utility.yul\":1332:1385   */\n      tag_237\n      jump\t// in\n    tag_255:\n        /* \"#utility.yul\":1322:1385   */\n      swap3\n      pop\n        /* \"#utility.yul\":1277:1395   */\n      pop\n        /* \"#utility.yul\":1434:1436   */\n      0x40\n        /* \"#utility.yul\":1460:1513   */\n      tag_256\n        /* \"#utility.yul\":1505:1512   */\n      dup7\n        /* \"#utility.yul\":1496:1502   */\n      dup3\n        /* \"#utility.yul\":1485:1494   */\n      dup8\n        /* \"#utility.yul\":1481:1503   */\n      add\n        /* \"#utility.yul\":1460:1513   */\n      tag_241\n      jump\t// in\n    tag_256:\n        /* \"#utility.yul\":1450:1513   */\n      swap2\n      pop\n        /* \"#utility.yul\":1405:1523   */\n      pop\n        /* \"#utility.yul\":1078:1530   */\n      swap3\n      pop\n      swap3\n      pop\n      swap3\n      jump\t// out\n        /* \"#utility.yul\":1536:1943   */\n    tag_32:\n      0x00\n      dup1\n        /* \"#utility.yul\":1661:1663   */\n      0x40\n        /* \"#utility.yul\":1649:1658   */\n      dup4\n        /* \"#utility.yul\":1640:1647   */\n      dup6\n        /* \"#utility.yul\":1636:1659   */\n      sub\n        /* \"#utility.yul\":1632:1664   */\n      slt\n        /* \"#utility.yul\":1629:1631   */\n      iszero\n      tag_258\n      jumpi\n        /* \"#utility.yul\":1677:1678   */\n      0x00\n        /* \"#utility.yul\":1674:1675   */\n      dup1\n        /* \"#utility.yul\":1667:1679   */\n      revert\n        /* \"#utility.yul\":1629:1631   */\n    tag_258:\n        /* \"#utility.yul\":1720:1721   */\n      0x00\n        /* \"#utility.yul\":1745:1798   */\n      tag_259\n        /* \"#utility.yul\":1790:1797   */\n      dup6\n        /* \"#utility.yul\":1781:1787   */\n      dup3\n        /* \"#utility.yul\":1770:1779   */\n      dup7\n        /* \"#utility.yul\":1766:1788   */\n      add\n        /* \"#utility.yul\":1745:1798   */\n      tag_237\n      jump\t// in\n    tag_259:\n        /* \"#utility.yul\":1735:1798   */\n      swap3\n      pop\n        /* \"#utility.yul\":1691:1808   */\n      pop\n        /* \"#utility.yul\":1847:1849   */\n      0x20\n        /* \"#utility.yul\":1873:1926   */\n      tag_260\n        /* \"#utility.yul\":1918:1925   */\n      dup6\n        /* \"#utility.yul\":1909:1915   */\n      dup3\n        /* \"#utility.yul\":1898:1907   */\n      dup7\n        /* \"#utility.yul\":1894:1916   */\n      add\n        /* \"#utility.yul\":1873:1926   */\n      tag_241\n      jump\t// in\n    tag_260:\n        /* \"#utility.yul\":1863:1926   */\n      swap2\n      pop\n        /* \"#utility.yul\":1818:1936   */\n      pop\n        /* \"#utility.yul\":1619:1943   */\n      swap3\n      pop\n      swap3\n      swap1\n      pop\n      jump\t// out\n        /* \"#utility.yul\":1949:2211   */\n    tag_58:\n      0x00\n        /* \"#utility.yul\":2057:2059   */\n      0x20\n        /* \"#utility.yul\":2045:2054   */\n      dup3\n        /* \"#utility.yul\":2036:2043   */\n      dup5\n        /* \"#utility.yul\":2032:2055   */\n      sub\n        /* \"#utility.yul\":2028:2060   */\n      slt\n        /* \"#utility.yul\":2025:2027   */\n      iszero\n      tag_262\n      jumpi\n        /* \"#utility.yul\":2073:2074   */\n      0x00\n        /* \"#utility.yul\":2070:2071   */\n      dup1\n        /* \"#utility.yul\":2063:2075   */\n      revert\n        /* \"#utility.yul\":2025:2027   */\n    tag_262:\n        /* \"#utility.yul\":2116:2117   */\n      0x00\n        /* \"#utility.yul\":2141:2194   */\n      tag_263\n        /* \"#utility.yul\":2186:2193   */\n      dup5\n        /* \"#utility.yul\":2177:2183   */\n      dup3\n        /* \"#utility.yul\":2166:2175   */\n      dup6\n        /* \"#utility.yul\":2162:2184   */\n      add\n        /* \"#utility.yul\":2141:2194   */\n      tag_241\n      jump\t// in\n    tag_263:\n        /* \"#utility.yul\":2131:2194   */\n      swap2\n      pop\n        /* \"#utility.yul\":2087:2204   */\n      pop\n        /* \"#utility.yul\":2015:2211   */\n      swap3\n      swap2\n      pop\n      pop\n      jump\t// out\n        /* \"#utility.yul\":2217:2335   */\n    tag_264:\n        /* \"#utility.yul\":2304:2328   */\n      tag_266\n        /* \"#utility.yul\":2322:2327   */\n      dup2\n        /* \"#utility.yul\":2304:2328   */\n      tag_267\n      jump\t// in\n    tag_266:\n        /* \"#utility.yul\":2299:2302   */\n      dup3\n        /* \"#utility.yul\":2292:2329   */\n      mstore\n        /* \"#utility.yul\":2282:2335   */\n      pop\n      pop\n      jump\t// out\n        /* \"#utility.yul\":2341:2450   */\n    tag_268:\n        /* \"#utility.yul\":2422:2443   */\n      tag_270\n        /* \"#utility.yul\":2437:2442   */\n      dup2\n        /* \"#utility.yul\":2422:2443   */\n      tag_271\n      jump\t// in\n    tag_270:\n        /* \"#utility.yul\":2417:2420   */\n      dup3\n        /* \"#utility.yul\":2410:2444   */\n      mstore\n        /* \"#utility.yul\":2400:2450   */\n      pop\n      pop\n      jump\t// out\n        /* \"#utility.yul\":2456:2820   */\n    tag_272:\n      0x00\n        /* \"#utility.yul\":2572:2611   */\n      tag_274\n        /* \"#utility.yul\":2605:2610   */\n      dup3\n        /* \"#utility.yul\":2572:2611   */\n      tag_275\n      jump\t// in\n    tag_274:\n        /* \"#utility.yul\":2627:2698   */\n      tag_276\n        /* \"#utility.yul\":2691:2697   */\n      dup2\n        /* \"#utility.yul\":2686:2689   */\n      dup6\n        /* \"#utility.yul\":2627:2698   */\n      tag_277\n      jump\t// in\n    tag_276:\n        /* \"#utility.yul\":2620:2698   */\n      swap4\n      pop\n        /* \"#utility.yul\":2707:2759   */\n      tag_278\n        /* \"#utility.yul\":2752:2758   */\n      dup2\n        /* \"#utility.yul\":2747:2750   */\n      dup6\n        /* \"#utility.yul\":2740:2744   */\n      0x20\n        /* \"#utility.yul\":2733:2738   */\n      dup7\n        /* \"#utility.yul\":2729:2745   */\n      add\n        /* \"#utility.yul\":2707:2759   */\n      tag_279\n      jump\t// in\n    tag_278:\n        /* \"#utility.yul\":2784:2813   */\n      tag_280\n        /* \"#utility.yul\":2806:2812   */\n      dup2\n        /* \"#utility.yul\":2784:2813   */\n      tag_281\n      jump\t// in\n    tag_280:\n        /* \"#utility.yul\":2779:2782   */\n      dup5\n        /* \"#utility.yul\":2775:2814   */\n      add\n        /* \"#utility.yul\":2768:2814   */\n      swap2\n      pop\n        /* \"#utility.yul\":2548:2820   */\n      pop\n      swap3\n      swap2\n      pop\n      pop\n      jump\t// out\n        /* \"#utility.yul\":2826:3195   */\n    tag_282:\n      0x00\n        /* \"#utility.yul\":2989:3056   */\n      tag_284\n        /* \"#utility.yul\":3053:3055   */\n      0x25\n        /* \"#utility.yul\":3048:3051   */\n      dup4\n        /* \"#utility.yul\":2989:3056   */\n      tag_277\n      jump\t// in\n    tag_284:\n        /* \"#utility.yul\":2982:3056   */\n      swap2\n      pop\n        /* \"#utility.yul\":3086:3120   */\n      0x42455032303a207472616e736665722066726f6d20746865207a65726f206164\n        /* \"#utility.yul\":3082:3083   */\n      0x00\n        /* \"#utility.yul\":3077:3080   */\n      dup4\n        /* \"#utility.yul\":3073:3084   */\n      add\n        /* \"#utility.yul\":3066:3121   */\n      mstore\n        /* \"#utility.yul\":3152:3159   */\n      0x6472657373000000000000000000000000000000000000000000000000000000\n        /* \"#utility.yul\":3147:3149   */\n      0x20\n        /* \"#utility.yul\":3142:3145   */\n      dup4\n        /* \"#utility.yul\":3138:3150   */\n      add\n        /* \"#utility.yul\":3131:3160   */\n      mstore\n        /* \"#utility.yul\":3186:3188   */\n      0x40\n        /* \"#utility.yul\":3181:3184   */\n      dup3\n        /* \"#utility.yul\":3177:3189   */\n      add\n        /* \"#utility.yul\":3170:3189   */\n      swap1\n      pop\n        /* \"#utility.yul\":2972:3195   */\n      swap2\n      swap1\n      pop\n      jump\t// out\n        /* \"#utility.yul\":3201:3569   */\n    tag_285:\n      0x00\n        /* \"#utility.yul\":3364:3431   */\n      tag_287\n        /* \"#utility.yul\":3428:3430   */\n      0x24\n        /* \"#utility.yul\":3423:3426   */\n      dup4\n        /* \"#utility.yul\":3364:3431   */\n      tag_277\n      jump\t// in\n    tag_287:\n        /* \"#utility.yul\":3357:3431   */\n      swap2\n      pop\n        /* \"#utility.yul\":3461:3495   */\n      0x42455032303a20617070726f76652066726f6d20746865207a65726f20616464\n        /* \"#utility.yul\":3457:3458   */\n      0x00\n        /* \"#utility.yul\":3452:3455   */\n      dup4\n        /* \"#utility.yul\":3448:3459   */\n      add\n        /* \"#utility.yul\":3441:3496   */\n      mstore\n        /* \"#utility.yul\":3527:3533   */\n      0x7265737300000000000000000000000000000000000000000000000000000000\n        /* \"#utility.yul\":3522:3524   */\n      0x20\n        /* \"#utility.yul\":3517:3520   */\n      dup4\n        /* \"#utility.yul\":3513:3525   */\n      add\n        /* \"#utility.yul\":3506:3534   */\n      mstore\n        /* \"#utility.yul\":3560:3562   */\n      0x40\n        /* \"#utility.yul\":3555:3558   */\n      dup3\n        /* \"#utility.yul\":3551:3563   */\n      add\n        /* \"#utility.yul\":3544:3563   */\n      swap1\n      pop\n        /* \"#utility.yul\":3347:3569   */\n      swap2\n      swap1\n      pop\n      jump\t// out\n        /* \"#utility.yul\":3575:3945   */\n    tag_288:\n      0x00\n        /* \"#utility.yul\":3738:3805   */\n      tag_290\n        /* \"#utility.yul\":3802:3804   */\n      0x26\n        /* \"#utility.yul\":3797:3800   */\n      dup4\n        /* \"#utility.yul\":3738:3805   */\n      tag_277\n      jump\t// in\n    tag_290:\n        /* \"#utility.yul\":3731:3805   */\n      swap2\n      pop\n        /* \"#utility.yul\":3835:3869   */\n      0x4f776e61626c653a206e6577206f776e657220697320746865207a65726f2061\n        /* \"#utility.yul\":3831:3832   */\n      0x00\n        /* \"#utility.yul\":3826:3829   */\n      dup4\n        /* \"#utility.yul\":3822:3833   */\n      add\n        /* \"#utility.yul\":3815:3870   */\n      mstore\n        /* \"#utility.yul\":3901:3909   */\n      0x6464726573730000000000000000000000000000000000000000000000000000\n        /* \"#utility.yul\":3896:3898   */\n      0x20\n        /* \"#utility.yul\":3891:3894   */\n      dup4\n        /* \"#utility.yul\":3887:3899   */\n      add\n        /* \"#utility.yul\":3880:3910   */\n      mstore\n        /* \"#utility.yul\":3936:3938   */\n      0x40\n        /* \"#utility.yul\":3931:3934   */\n      dup3\n        /* \"#utility.yul\":3927:3939   */\n      add\n        /* \"#utility.yul\":3920:3939   */\n      swap1\n      pop\n        /* \"#utility.yul\":3721:3945   */\n      swap2\n      swap1\n      pop\n      jump\t// out\n        /* \"#utility.yul\":3951:4276   */\n    tag_291:\n      0x00\n        /* \"#utility.yul\":4114:4181   */\n      tag_293\n        /* \"#utility.yul\":4178:4180   */\n      0x1b\n        /* \"#utility.yul\":4173:4176   */\n      dup4\n        /* \"#utility.yul\":4114:4181   */\n      tag_277\n      jump\t// in\n    tag_293:\n        /* \"#utility.yul\":4107:4181   */\n      swap2\n      pop\n        /* \"#utility.yul\":4211:4240   */\n      0x536166654d6174683a206164646974696f6e206f766572666c6f770000000000\n        /* \"#utility.yul\":4207:4208   */\n      0x00\n        /* \"#utility.yul\":4202:4205   */\n      dup4\n        /* \"#utility.yul\":4198:4209   */\n      add\n        /* \"#utility.yul\":4191:4241   */\n      mstore\n        /* \"#utility.yul\":4267:4269   */\n      0x20\n        /* \"#utility.yul\":4262:4265   */\n      dup3\n        /* \"#utility.yul\":4258:4270   */\n      add\n        /* \"#utility.yul\":4251:4270   */\n      swap1\n      pop\n        /* \"#utility.yul\":4097:4276   */\n      swap2\n      swap1\n      pop\n      jump\t// out\n        /* \"#utility.yul\":4282:4611   */\n    tag_294:\n      0x00\n        /* \"#utility.yul\":4445:4512   */\n      tag_296\n        /* \"#utility.yul\":4509:4511   */\n      0x1f\n        /* \"#utility.yul\":4504:4507   */\n      dup4\n        /* \"#utility.yul\":4445:4512   */\n      tag_277\n      jump\t// in\n    tag_296:\n        /* \"#utility.yul\":4438:4512   */\n      swap2\n      pop\n        /* \"#utility.yul\":4542:4575   */\n      0x42455032303a206d696e7420746f20746865207a65726f206164647265737300\n        /* \"#utility.yul\":4538:4539   */\n      0x00\n        /* \"#utility.yul\":4533:4536   */\n      dup4\n        /* \"#utility.yul\":4529:4540   */\n      add\n        /* \"#utility.yul\":4522:4576   */\n      mstore\n        /* \"#utility.yul\":4602:4604   */\n      0x20\n        /* \"#utility.yul\":4597:4600   */\n      dup3\n        /* \"#utility.yul\":4593:4605   */\n      add\n        /* \"#utility.yul\":4586:4605   */\n      swap1\n      pop\n        /* \"#utility.yul\":4428:4611   */\n      swap2\n      swap1\n      pop\n      jump\t// out\n        /* \"#utility.yul\":4617:4947   */\n    tag_297:\n      0x00\n        /* \"#utility.yul\":4780:4847   */\n      tag_299\n        /* \"#utility.yul\":4844:4846   */\n      0x20\n        /* \"#utility.yul\":4839:4842   */\n      dup4\n        /* \"#utility.yul\":4780:4847   */\n      tag_277\n      jump\t// in\n    tag_299:\n        /* \"#utility.yul\":4773:4847   */\n      swap2\n      pop\n        /* \"#utility.yul\":4877:4911   */\n      0x4f776e61626c653a2063616c6c6572206973206e6f7420746865206f776e6572\n        /* \"#utility.yul\":4873:4874   */\n      0x00\n        /* \"#utility.yul\":4868:4871   */\n      dup4\n        /* \"#utility.yul\":4864:4875   */\n      add\n        /* \"#utility.yul\":4857:4912   */\n      mstore\n        /* \"#utility.yul\":4938:4940   */\n      0x20\n        /* \"#utility.yul\":4933:4936   */\n      dup3\n        /* \"#utility.yul\":4929:4941   */\n      add\n        /* \"#utility.yul\":4922:4941   */\n      swap1\n      pop\n        /* \"#utility.yul\":4763:4947   */\n      swap2\n      swap1\n      pop\n      jump\t// out\n        /* \"#utility.yul\":4953:5320   */\n    tag_300:\n      0x00\n        /* \"#utility.yul\":5116:5183   */\n      tag_302\n        /* \"#utility.yul\":5180:5182   */\n      0x23\n        /* \"#utility.yul\":5175:5178   */\n      dup4\n        /* \"#utility.yul\":5116:5183   */\n      tag_277\n      jump\t// in\n    tag_302:\n        /* \"#utility.yul\":5109:5183   */\n      swap2\n      pop\n        /* \"#utility.yul\":5213:5247   */\n      0x42455032303a207472616e7366657220746f20746865207a65726f2061646472\n        /* \"#utility.yul\":5209:5210   */\n      0x00\n        /* \"#utility.yul\":5204:5207   */\n      dup4\n        /* \"#utility.yul\":5200:5211   */\n      add\n        /* \"#utility.yul\":5193:5248   */\n      mstore\n        /* \"#utility.yul\":5279:5284   */\n      0x6573730000000000000000000000000000000000000000000000000000000000\n        /* \"#utility.yul\":5274:5276   */\n      0x20\n        /* \"#utility.yul\":5269:5272   */\n      dup4\n        /* \"#utility.yul\":5265:5277   */\n      add\n        /* \"#utility.yul\":5258:5285   */\n      mstore\n        /* \"#utility.yul\":5311:5313   */\n      0x40\n        /* \"#utility.yul\":5306:5309   */\n      dup3\n        /* \"#utility.yul\":5302:5314   */\n      add\n        /* \"#utility.yul\":5295:5314   */\n      swap1\n      pop\n        /* \"#utility.yul\":5099:5320   */\n      swap2\n      swap1\n      pop\n      jump\t// out\n        /* \"#utility.yul\":5326:5691   */\n    tag_303:\n      0x00\n        /* \"#utility.yul\":5489:5556   */\n      tag_305\n        /* \"#utility.yul\":5553:5555   */\n      0x21\n        /* \"#utility.yul\":5548:5551   */\n      dup4\n        /* \"#utility.yul\":5489:5556   */\n      tag_277\n      jump\t// in\n    tag_305:\n        /* \"#utility.yul\":5482:5556   */\n      swap2\n      pop\n        /* \"#utility.yul\":5586:5620   */\n      0x42455032303a206275726e2066726f6d20746865207a65726f20616464726573\n        /* \"#utility.yul\":5582:5583   */\n      0x00\n        /* \"#utility.yul\":5577:5580   */\n      dup4\n        /* \"#utility.yul\":5573:5584   */\n      add\n        /* \"#utility.yul\":5566:5621   */\n      mstore\n        /* \"#utility.yul\":5652:5655   */\n      0x7300000000000000000000000000000000000000000000000000000000000000\n        /* \"#utility.yul\":5647:5649   */\n      0x20\n        /* \"#utility.yul\":5642:5645   */\n      dup4\n        /* \"#utility.yul\":5638:5650   */\n      add\n        /* \"#utility.yul\":5631:5656   */\n      mstore\n        /* \"#utility.yul\":5682:5684   */\n      0x40\n        /* \"#utility.yul\":5677:5680   */\n      dup3\n        /* \"#utility.yul\":5673:5685   */\n      add\n        /* \"#utility.yul\":5666:5685   */\n      swap1\n      pop\n        /* \"#utility.yul\":5472:5691   */\n      swap2\n      swap1\n      pop\n      jump\t// out\n        /* \"#utility.yul\":5697:6063   */\n    tag_306:\n      0x00\n        /* \"#utility.yul\":5860:5927   */\n      tag_308\n        /* \"#utility.yul\":5924:5926   */\n      0x22\n        /* \"#utility.yul\":5919:5922   */\n      dup4\n        /* \"#utility.yul\":5860:5927   */\n      tag_277\n      jump\t// in\n    tag_308:\n        /* \"#utility.yul\":5853:5927   */\n      swap2\n      pop\n        /* \"#utility.yul\":5957:5991   */\n      0x42455032303a20617070726f766520746f20746865207a65726f206164647265\n        /* \"#utility.yul\":5953:5954   */\n      0x00\n        /* \"#utility.yul\":5948:5951   */\n      dup4\n        /* \"#utility.yul\":5944:5955   */\n      add\n        /* \"#utility.yul\":5937:5992   */\n      mstore\n        /* \"#utility.yul\":6023:6027   */\n      0x7373000000000000000000000000000000000000000000000000000000000000\n        /* \"#utility.yul\":6018:6020   */\n      0x20\n        /* \"#utility.yul\":6013:6016   */\n      dup4\n        /* \"#utility.yul\":6009:6021   */\n      add\n        /* \"#utility.yul\":6002:6028   */\n      mstore\n        /* \"#utility.yul\":6054:6056   */\n      0x40\n        /* \"#utility.yul\":6049:6052   */\n      dup3\n        /* \"#utility.yul\":6045:6057   */\n      add\n        /* \"#utility.yul\":6038:6057   */\n      swap1\n      pop\n        /* \"#utility.yul\":5843:6063   */\n      swap2\n      swap1\n      pop\n      jump\t// out\n        /* \"#utility.yul\":6069:6187   */\n    tag_309:\n        /* \"#utility.yul\":6156:6180   */\n      tag_311\n        /* \"#utility.yul\":6174:6179   */\n      dup2\n        /* \"#utility.yul\":6156:6180   */\n      tag_312\n      jump\t// in\n    tag_311:\n        /* \"#utility.yul\":6151:6154   */\n      dup3\n        /* \"#utility.yul\":6144:6181   */\n      mstore\n        /* \"#utility.yul\":6134:6187   */\n      pop\n      pop\n      jump\t// out\n        /* \"#utility.yul\":6193:6305   */\n    tag_313:\n        /* \"#utility.yul\":6276:6298   */\n      tag_315\n        /* \"#utility.yul\":6292:6297   */\n      dup2\n        /* \"#utility.yul\":6276:6298   */\n      tag_316\n      jump\t// in\n    tag_315:\n        /* \"#utility.yul\":6271:6274   */\n      dup3\n        /* \"#utility.yul\":6264:6299   */\n      mstore\n        /* \"#utility.yul\":6254:6305   */\n      pop\n      pop\n      jump\t// out\n        /* \"#utility.yul\":6311:6533   */\n    tag_71:\n      0x00\n        /* \"#utility.yul\":6442:6444   */\n      0x20\n        /* \"#utility.yul\":6431:6440   */\n      dup3\n        /* \"#utility.yul\":6427:6445   */\n      add\n        /* \"#utility.yul\":6419:6445   */\n      swap1\n      pop\n        /* \"#utility.yul\":6455:6526   */\n      tag_318\n        /* \"#utility.yul\":6523:6524   */\n      0x00\n        /* \"#utility.yul\":6512:6521   */\n      dup4\n        /* \"#utility.yul\":6508:6525   */\n      add\n        /* \"#utility.yul\":6499:6505   */\n      dup5\n        /* \"#utility.yul\":6455:6526   */\n      tag_264\n      jump\t// in\n    tag_318:\n        /* \"#utility.yul\":6409:6533   */\n      swap3\n      swap2\n      pop\n      pop\n      jump\t// out\n        /* \"#utility.yul\":6539:6749   */\n    tag_35:\n      0x00\n        /* \"#utility.yul\":6664:6666   */\n      0x20\n        /* \"#utility.yul\":6653:6662   */\n      dup3\n        /* \"#utility.yul\":6649:6667   */\n      add\n        /* \"#utility.yul\":6641:6667   */\n      swap1\n      pop\n        /* \"#utility.yul\":6677:6742   */\n      tag_320\n        /* \"#utility.yul\":6739:6740   */\n      0x00\n        /* \"#utility.yul\":6728:6737   */\n      dup4\n        /* \"#utility.yul\":6724:6741   */\n      add\n        /* \"#utility.yul\":6715:6721   */\n      dup5\n        /* \"#utility.yul\":6677:6742   */\n      tag_268\n      jump\t// in\n    tag_320:\n        /* \"#utility.yul\":6631:6749   */\n      swap3\n      swap2\n      pop\n      pop\n      jump\t// out\n        /* \"#utility.yul\":6755:7068   */\n    tag_29:\n      0x00\n        /* \"#utility.yul\":6906:6908   */\n      0x20\n        /* \"#utility.yul\":6895:6904   */\n      dup3\n        /* \"#utility.yul\":6891:6909   */\n      add\n        /* \"#utility.yul\":6883:6909   */\n      swap1\n      pop\n        /* \"#utility.yul\":6955:6964   */\n      dup2\n        /* \"#utility.yul\":6949:6953   */\n      dup2\n        /* \"#utility.yul\":6945:6965   */\n      sub\n        /* \"#utility.yul\":6941:6942   */\n      0x00\n        /* \"#utility.yul\":6930:6939   */\n      dup4\n        /* \"#utility.yul\":6926:6943   */\n      add\n        /* \"#utility.yul\":6919:6966   */\n      mstore\n        /* \"#utility.yul\":6983:7061   */\n      tag_322\n        /* \"#utility.yul\":7056:7060   */\n      dup2\n        /* \"#utility.yul\":7047:7053   */\n      dup5\n        /* \"#utility.yul\":6983:7061   */\n      tag_272\n      jump\t// in\n    tag_322:\n        /* \"#utility.yul\":6975:7061   */\n      swap1\n      pop\n        /* \"#utility.yul\":6873:7068   */\n      swap3\n      swap2\n      pop\n      pop\n      jump\t// out\n        /* \"#utility.yul\":7074:7493   */\n    tag_197:\n      0x00\n        /* \"#utility.yul\":7278:7280   */\n      0x20\n        /* \"#utility.yul\":7267:7276   */\n      dup3\n        /* \"#utility.yul\":7263:7281   */\n      add\n        /* \"#utility.yul\":7255:7281   */\n      swap1\n      pop\n        /* \"#utility.yul\":7327:7336   */\n      dup2\n        /* \"#utility.yul\":7321:7325   */\n      dup2\n        /* \"#utility.yul\":7317:7337   */\n      sub\n        /* \"#utility.yul\":7313:7314   */\n      0x00\n        /* \"#utility.yul\":7302:7311   */\n      dup4\n        /* \"#utility.yul\":7298:7315   */\n      add\n        /* \"#utility.yul\":7291:7338   */\n      mstore\n        /* \"#utility.yul\":7355:7486   */\n      tag_324\n        /* \"#utility.yul\":7481:7485   */\n      dup2\n        /* \"#utility.yul\":7355:7486   */\n      tag_282\n      jump\t// in\n    tag_324:\n        /* \"#utility.yul\":7347:7486   */\n      swap1\n      pop\n        /* \"#utility.yul\":7245:7493   */\n      swap2\n      swap1\n      pop\n      jump\t// out\n        /* \"#utility.yul\":7499:7918   */\n    tag_189:\n      0x00\n        /* \"#utility.yul\":7703:7705   */\n      0x20\n        /* \"#utility.yul\":7692:7701   */\n      dup3\n        /* \"#utility.yul\":7688:7706   */\n      add\n        /* \"#utility.yul\":7680:7706   */\n      swap1\n      pop\n        /* \"#utility.yul\":7752:7761   */\n      dup2\n        /* \"#utility.yul\":7746:7750   */\n      dup2\n        /* \"#utility.yul\":7742:7762   */\n      sub\n        /* \"#utility.yul\":7738:7739   */\n      0x00\n        /* \"#utility.yul\":7727:7736   */\n      dup4\n        /* \"#utility.yul\":7723:7740   */\n      add\n        /* \"#utility.yul\":7716:7763   */\n      mstore\n        /* \"#utility.yul\":7780:7911   */\n      tag_326\n        /* \"#utility.yul\":7906:7910   */\n      dup2\n        /* \"#utility.yul\":7780:7911   */\n      tag_285\n      jump\t// in\n    tag_326:\n        /* \"#utility.yul\":7772:7911   */\n      swap1\n      pop\n        /* \"#utility.yul\":7670:7918   */\n      swap2\n      swap1\n      pop\n      jump\t// out\n        /* \"#utility.yul\":7924:8343   */\n    tag_233:\n      0x00\n        /* \"#utility.yul\":8128:8130   */\n      0x20\n        /* \"#utility.yul\":8117:8126   */\n      dup3\n        /* \"#utility.yul\":8113:8131   */\n      add\n        /* \"#utility.yul\":8105:8131   */\n      swap1\n      pop\n        /* \"#utility.yul\":8177:8186   */\n      dup2\n        /* \"#utility.yul\":8171:8175   */\n      dup2\n        /* \"#utility.yul\":8167:8187   */\n      sub\n        /* \"#utility.yul\":8163:8164   */\n      0x00\n        /* \"#utility.yul\":8152:8161   */\n      dup4\n        /* \"#utility.yul\":8148:8165   */\n      add\n        /* \"#utility.yul\":8141:8188   */\n      mstore\n        /* \"#utility.yul\":8205:8336   */\n      tag_328\n        /* \"#utility.yul\":8331:8335   */\n      dup2\n        /* \"#utility.yul\":8205:8336   */\n      tag_288\n      jump\t// in\n    tag_328:\n        /* \"#utility.yul\":8197:8336   */\n      swap1\n      pop\n        /* \"#utility.yul\":8095:8343   */\n      swap2\n      swap1\n      pop\n      jump\t// out\n        /* \"#utility.yul\":8349:8768   */\n    tag_214:\n      0x00\n        /* \"#utility.yul\":8553:8555   */\n      0x20\n        /* \"#utility.yul\":8542:8551   */\n      dup3\n        /* \"#utility.yul\":8538:8556   */\n      add\n        /* \"#utility.yul\":8530:8556   */\n      swap1\n      pop\n        /* \"#utility.yul\":8602:8611   */\n      dup2\n        /* \"#utility.yul\":8596:8600   */\n      dup2\n        /* \"#utility.yul\":8592:8612   */\n      sub\n        /* \"#utility.yul\":8588:8589   */\n      0x00\n        /* \"#utility.yul\":8577:8586   */\n      dup4\n        /* \"#utility.yul\":8573:8590   */\n      add\n        /* \"#utility.yul\":8566:8613   */\n      mstore\n        /* \"#utility.yul\":8630:8761   */\n      tag_330\n        /* \"#utility.yul\":8756:8760   */\n      dup2\n        /* \"#utility.yul\":8630:8761   */\n      tag_291\n      jump\t// in\n    tag_330:\n        /* \"#utility.yul\":8622:8761   */\n      swap1\n      pop\n        /* \"#utility.yul\":8520:8768   */\n      swap2\n      swap1\n      pop\n      jump\t// out\n        /* \"#utility.yul\":8774:9193   */\n    tag_226:\n      0x00\n        /* \"#utility.yul\":8978:8980   */\n      0x20\n        /* \"#utility.yul\":8967:8976   */\n      dup3\n        /* \"#utility.yul\":8963:8981   */\n      add\n        /* \"#utility.yul\":8955:8981   */\n      swap1\n      pop\n        /* \"#utility.yul\":9027:9036   */\n      dup2\n        /* \"#utility.yul\":9021:9025   */\n      dup2\n        /* \"#utility.yul\":9017:9037   */\n      sub\n        /* \"#utility.yul\":9013:9014   */\n      0x00\n        /* \"#utility.yul\":9002:9011   */\n      dup4\n        /* \"#utility.yul\":8998:9015   */\n      add\n        /* \"#utility.yul\":8991:9038   */\n      mstore\n        /* \"#utility.yul\":9055:9186   */\n      tag_332\n        /* \"#utility.yul\":9181:9185   */\n      dup2\n        /* \"#utility.yul\":9055:9186   */\n      tag_294\n      jump\t// in\n    tag_332:\n        /* \"#utility.yul\":9047:9186   */\n      swap1\n      pop\n        /* \"#utility.yul\":8945:9193   */\n      swap2\n      swap1\n      pop\n      jump\t// out\n        /* \"#utility.yul\":9199:9618   */\n    tag_140:\n      0x00\n        /* \"#utility.yul\":9403:9405   */\n      0x20\n        /* \"#utility.yul\":9392:9401   */\n      dup3\n        /* \"#utility.yul\":9388:9406   */\n      add\n        /* \"#utility.yul\":9380:9406   */\n      swap1\n      pop\n        /* \"#utility.yul\":9452:9461   */\n      dup2\n        /* \"#utility.yul\":9446:9450   */\n      dup2\n        /* \"#utility.yul\":9442:9462   */\n      sub\n        /* \"#utility.yul\":9438:9439   */\n      0x00\n        /* \"#utility.yul\":9427:9436   */\n      dup4\n        /* \"#utility.yul\":9423:9440   */\n      add\n        /* \"#utility.yul\":9416:9463   */\n      mstore\n        /* \"#utility.yul\":9480:9611   */\n      tag_334\n        /* \"#utility.yul\":9606:9610   */\n      dup2\n        /* \"#utility.yul\":9480:9611   */\n      tag_297\n      jump\t// in\n    tag_334:\n        /* \"#utility.yul\":9472:9611   */\n      swap1\n      pop\n        /* \"#utility.yul\":9370:9618   */\n      swap2\n      swap1\n      pop\n      jump\t// out\n        /* \"#utility.yul\":9624:10043   */\n    tag_200:\n      0x00\n        /* \"#utility.yul\":9828:9830   */\n      0x20\n        /* \"#utility.yul\":9817:9826   */\n      dup3\n        /* \"#utility.yul\":9813:9831   */\n      add\n        /* \"#utility.yul\":9805:9831   */\n      swap1\n      pop\n        /* \"#utility.yul\":9877:9886   */\n      dup2\n        /* \"#utility.yul\":9871:9875   */\n      dup2\n        /* \"#utility.yul\":9867:9887   */\n      sub\n        /* \"#utility.yul\":9863:9864   */\n      0x00\n        /* \"#utility.yul\":9852:9861   */\n      dup4\n        /* \"#utility.yul\":9848:9865   */\n      add\n        /* \"#utility.yul\":9841:9888   */\n      mstore\n        /* \"#utility.yul\":9905:10036   */\n      tag_336\n        /* \"#utility.yul\":10031:10035   */\n      dup2\n        /* \"#utility.yul\":9905:10036   */\n      tag_300\n      jump\t// in\n    tag_336:\n        /* \"#utility.yul\":9897:10036   */\n      swap1\n      pop\n        /* \"#utility.yul\":9795:10043   */\n      swap2\n      swap1\n      pop\n      jump\t// out\n        /* \"#utility.yul\":10049:10468   */\n    tag_218:\n      0x00\n        /* \"#utility.yul\":10253:10255   */\n      0x20\n        /* \"#utility.yul\":10242:10251   */\n      dup3\n        /* \"#utility.yul\":10238:10256   */\n      add\n        /* \"#utility.yul\":10230:10256   */\n      swap1\n      pop\n        /* \"#utility.yul\":10302:10311   */\n      dup2\n        /* \"#utility.yul\":10296:10300   */\n      dup2\n        /* \"#utility.yul\":10292:10312   */\n      sub\n        /* \"#utility.yul\":10288:10289   */\n      0x00\n        /* \"#utility.yul\":10277:10286   */\n      dup4\n        /* \"#utility.yul\":10273:10290   */\n      add\n        /* \"#utility.yul\":10266:10313   */\n      mstore\n        /* \"#utility.yul\":10330:10461   */\n      tag_338\n        /* \"#utility.yul\":10456:10460   */\n      dup2\n        /* \"#utility.yul\":10330:10461   */\n      tag_303\n      jump\t// in\n    tag_338:\n        /* \"#utility.yul\":10322:10461   */\n      swap1\n      pop\n        /* \"#utility.yul\":10220:10468   */\n      swap2\n      swap1\n      pop\n      jump\t// out\n        /* \"#utility.yul\":10474:10893   */\n    tag_192:\n      0x00\n        /* \"#utility.yul\":10678:10680   */\n      0x20\n        /* \"#utility.yul\":10667:10676   */\n      dup3\n        /* \"#utility.yul\":10663:10681   */\n      add\n        /* \"#utility.yul\":10655:10681   */\n      swap1\n      pop\n        /* \"#utility.yul\":10727:10736   */\n      dup2\n        /* \"#utility.yul\":10721:10725   */\n      dup2\n        /* \"#utility.yul\":10717:10737   */\n      sub\n        /* \"#utility.yul\":10713:10714   */\n      0x00\n        /* \"#utility.yul\":10702:10711   */\n      dup4\n        /* \"#utility.yul\":10698:10715   */\n      add\n        /* \"#utility.yul\":10691:10738   */\n      mstore\n        /* \"#utility.yul\":10755:10886   */\n      tag_340\n        /* \"#utility.yul\":10881:10885   */\n      dup2\n        /* \"#utility.yul\":10755:10886   */\n      tag_306\n      jump\t// in\n    tag_340:\n        /* \"#utility.yul\":10747:10886   */\n      swap1\n      pop\n        /* \"#utility.yul\":10645:10893   */\n      swap2\n      swap1\n      pop\n      jump\t// out\n        /* \"#utility.yul\":10899:11121   */\n    tag_39:\n      0x00\n        /* \"#utility.yul\":11030:11032   */\n      0x20\n        /* \"#utility.yul\":11019:11028   */\n      dup3\n        /* \"#utility.yul\":11015:11033   */\n      add\n        /* \"#utility.yul\":11007:11033   */\n      swap1\n      pop\n        /* \"#utility.yul\":11043:11114   */\n      tag_342\n        /* \"#utility.yul\":11111:11112   */\n      0x00\n        /* \"#utility.yul\":11100:11109   */\n      dup4\n        /* \"#utility.yul\":11096:11113   */\n      add\n        /* \"#utility.yul\":11087:11093   */\n      dup5\n        /* \"#utility.yul\":11043:11114   */\n      tag_309\n      jump\t// in\n    tag_342:\n        /* \"#utility.yul\":10997:11121   */\n      swap3\n      swap2\n      pop\n      pop\n      jump\t// out\n        /* \"#utility.yul\":11127:11341   */\n    tag_48:\n      0x00\n        /* \"#utility.yul\":11254:11256   */\n      0x20\n        /* \"#utility.yul\":11243:11252   */\n      dup3\n        /* \"#utility.yul\":11239:11257   */\n      add\n        /* \"#utility.yul\":11231:11257   */\n      swap1\n      pop\n        /* \"#utility.yul\":11267:11334   */\n      tag_344\n        /* \"#utility.yul\":11331:11332   */\n      0x00\n        /* \"#utility.yul\":11320:11329   */\n      dup4\n        /* \"#utility.yul\":11316:11333   */\n      add\n        /* \"#utility.yul\":11307:11313   */\n      dup5\n        /* \"#utility.yul\":11267:11334   */\n      tag_313\n      jump\t// in\n    tag_344:\n        /* \"#utility.yul\":11221:11341   */\n      swap3\n      swap2\n      pop\n      pop\n      jump\t// out\n        /* \"#utility.yul\":11347:11446   */\n    tag_275:\n      0x00\n        /* \"#utility.yul\":11433:11438   */\n      dup2\n        /* \"#utility.yul\":11427:11439   */\n      mload\n        /* \"#utility.yul\":11417:11439   */\n      swap1\n      pop\n        /* \"#utility.yul\":11406:11446   */\n      swap2\n      swap1\n      pop\n      jump\t// out\n        /* \"#utility.yul\":11452:11621   */\n    tag_277:\n      0x00\n        /* \"#utility.yul\":11570:11576   */\n      dup3\n        /* \"#utility.yul\":11565:11568   */\n      dup3\n        /* \"#utility.yul\":11558:11577   */\n      mstore\n        /* \"#utility.yul\":11610:11614   */\n      0x20\n        /* \"#utility.yul\":11605:11608   */\n      dup3\n        /* \"#utility.yul\":11601:11615   */\n      add\n        /* \"#utility.yul\":11586:11615   */\n      swap1\n      pop\n        /* \"#utility.yul\":11548:11621   */\n      swap3\n      swap2\n      pop\n      pop\n      jump\t// out\n        /* \"#utility.yul\":11627:11932   */\n    tag_211:\n      0x00\n        /* \"#utility.yul\":11686:11706   */\n      tag_348\n        /* \"#utility.yul\":11704:11705   */\n      dup3\n        /* \"#utility.yul\":11686:11706   */\n      tag_312\n      jump\t// in\n    tag_348:\n        /* \"#utility.yul\":11681:11706   */\n      swap2\n      pop\n        /* \"#utility.yul\":11720:11740   */\n      tag_349\n        /* \"#utility.yul\":11738:11739   */\n      dup4\n        /* \"#utility.yul\":11720:11740   */\n      tag_312\n      jump\t// in\n    tag_349:\n        /* \"#utility.yul\":11715:11740   */\n      swap3\n      pop\n        /* \"#utility.yul\":11874:11875   */\n      dup3\n        /* \"#utility.yul\":11806:11872   */\n      0xffffffffffffffffffffffffffffffffffffffffffffffffffffffffffffffff\n        /* \"#utility.yul\":11802:11876   */\n      sub\n        /* \"#utility.yul\":11799:11800   */\n      dup3\n        /* \"#utility.yul\":11796:11877   */\n      gt\n        /* \"#utility.yul\":11793:11795   */\n      iszero\n      tag_350\n      jumpi\n        /* \"#utility.yul\":11880:11898   */\n      tag_351\n      tag_352\n      jump\t// in\n    tag_351:\n        /* \"#utility.yul\":11793:11795   */\n    tag_350:\n        /* \"#utility.yul\":11924:11925   */\n      dup3\n        /* \"#utility.yul\":11921:11922   */\n      dup3\n        /* \"#utility.yul\":11917:11926   */\n      add\n        /* \"#utility.yul\":11910:11926   */\n      swap1\n      pop\n        /* \"#utility.yul\":11671:11932   */\n      swap3\n      swap2\n      pop\n      pop\n      jump\t// out\n        /* \"#utility.yul\":11938:12129   */\n    tag_208:\n      0x00\n        /* \"#utility.yul\":11998:12018   */\n      tag_354\n        /* \"#utility.yul\":12016:12017   */\n      dup3\n        /* \"#utility.yul\":11998:12018   */\n      tag_312\n      jump\t// in\n    tag_354:\n        /* \"#utility.yul\":11993:12018   */\n      swap2\n      pop\n        /* \"#utility.yul\":12032:12052   */\n      tag_355\n        /* \"#utility.yul\":12050:12051   */\n      dup4\n        /* \"#utility.yul\":12032:12052   */\n      tag_312\n      jump\t// in\n    tag_355:\n        /* \"#utility.yul\":12027:12052   */\n      swap3\n      pop\n        /* \"#utility.yul\":12071:12072   */\n      dup3\n        /* \"#utility.yul\":12068:12069   */\n      dup3\n        /* \"#utility.yul\":12065:12073   */\n      lt\n        /* \"#utility.yul\":12062:12064   */\n      iszero\n      tag_356\n      jumpi\n        /* \"#utility.yul\":12076:12094   */\n      tag_357\n      tag_352\n      jump\t// in\n    tag_357:\n        /* \"#utility.yul\":12062:12064   */\n    tag_356:\n        /* \"#utility.yul\":12121:12122   */\n      dup3\n        /* \"#utility.yul\":12118:12119   */\n      dup3\n        /* \"#utility.yul\":12114:12123   */\n      sub\n        /* \"#utility.yul\":12106:12123   */\n      swap1\n      pop\n        /* \"#utility.yul\":11983:12129   */\n      swap3\n      swap2\n      pop\n      pop\n      jump\t// out\n        /* \"#utility.yul\":12135:12231   */\n    tag_267:\n      0x00\n        /* \"#utility.yul\":12201:12225   */\n      tag_359\n        /* \"#utility.yul\":12219:12224   */\n      dup3\n        /* \"#utility.yul\":12201:12225   */\n      tag_360\n      jump\t// in\n    tag_359:\n        /* \"#utility.yul\":12190:12225   */\n      swap1\n      pop\n        /* \"#utility.yul\":12180:12231   */\n      swap2\n      swap1\n      pop\n      jump\t// out\n        /* \"#utility.yul\":12237:12327   */\n    tag_271:\n      0x00\n        /* \"#utility.yul\":12314:12319   */\n      dup2\n        /* \"#utility.yul\":12307:12320   */\n      iszero\n        /* \"#utility.yul\":12300:12321   */\n      iszero\n        /* \"#utility.yul\":12289:12321   */\n      swap1\n      pop\n        /* \"#utility.yul\":12279:12327   */\n      swap2\n      swap1\n      pop\n      jump\t// out\n        /* \"#utility.yul\":12333:12459   */\n    tag_360:\n      0x00\n        /* \"#utility.yul\":12410:12452   */\n      0xffffffffffffffffffffffffffffffffffffffff\n        /* \"#utility.yul\":12403:12408   */\n      dup3\n        /* \"#utility.yul\":12399:12453   */\n      and\n        /* \"#utility.yul\":12388:12453   */\n      swap1\n      pop\n        /* \"#utility.yul\":12378:12459   */\n      swap2\n      swap1\n      pop\n      jump\t// out\n        /* \"#utility.yul\":12465:12542   */\n    tag_312:\n      0x00\n        /* \"#utility.yul\":12531:12536   */\n      dup2\n        /* \"#utility.yul\":12520:12536   */\n      swap1\n      pop\n        /* \"#utility.yul\":12510:12542   */\n      swap2\n      swap1\n      pop\n      jump\t// out\n        /* \"#utility.yul\":12548:12634   */\n    tag_316:\n      0x00\n        /* \"#utility.yul\":12623:12627   */\n      0xff\n        /* \"#utility.yul\":12616:12621   */\n      dup3\n        /* \"#utility.yul\":12612:12628   */\n      and\n        /* \"#utility.yul\":12601:12628   */\n      swap1\n      pop\n        /* \"#utility.yul\":12591:12634   */\n      swap2\n      swap1\n      pop\n      jump\t// out\n        /* \"#utility.yul\":12640:12947   */\n    tag_279:\n        /* \"#utility.yul\":12708:12709   */\n      0x00\n        /* \"#utility.yul\":12718:12831   */\n    tag_366:\n        /* \"#utility.yul\":12732:12738   */\n      dup4\n        /* \"#utility.yul\":12729:12730   */\n      dup2\n        /* \"#utility.yul\":12726:12739   */\n      lt\n        /* \"#utility.yul\":12718:12831   */\n      iszero\n      tag_368\n      jumpi\n        /* \"#utility.yul\":12817:12818   */\n      dup1\n        /* \"#utility.yul\":12812:12815   */\n      dup3\n        /* \"#utility.yul\":12808:12819   */\n      add\n        /* \"#utility.yul\":12802:12820   */\n      mload\n        /* \"#utility.yul\":12798:12799   */\n      dup2\n        /* \"#utility.yul\":12793:12796   */\n      dup5\n        /* \"#utility.yul\":12789:12800   */\n      add\n        /* \"#utility.yul\":12782:12821   */\n      mstore\n        /* \"#utility.yul\":12754:12756   */\n      0x20\n        /* \"#utility.yul\":12751:12752   */\n      dup2\n        /* \"#utility.yul\":12747:12757   */\n      add\n        /* \"#utility.yul\":12742:12757   */\n      swap1\n      pop\n        /* \"#utility.yul\":12718:12831   */\n      jump(tag_366)\n    tag_368:\n        /* \"#utility.yul\":12849:12855   */\n      dup4\n        /* \"#utility.yul\":12846:12847   */\n      dup2\n        /* \"#utility.yul\":12843:12856   */\n      gt\n        /* \"#utility.yul\":12840:12842   */\n      iszero\n      tag_369\n      jumpi\n        /* \"#utility.yul\":12929:12930   */\n      0x00\n        /* \"#utility.yul\":12920:12926   */\n      dup5\n        /* \"#utility.yul\":12915:12918   */\n      dup5\n        /* \"#utility.yul\":12911:12927   */\n      add\n        /* \"#utility.yul\":12904:12931   */\n      mstore\n        /* \"#utility.yul\":12840:12842   */\n    tag_369:\n        /* \"#utility.yul\":12689:12947   */\n      pop\n      pop\n      pop\n      pop\n      jump\t// out\n        /* \"#utility.yul\":12953:13273   */\n    tag_106:\n      0x00\n        /* \"#utility.yul\":13034:13035   */\n      0x02\n        /* \"#utility.yul\":13028:13032   */\n      dup3\n        /* \"#utility.yul\":13024:13036   */\n      div\n        /* \"#utility.yul\":13014:13036   */\n      swap1\n      pop\n        /* \"#utility.yul\":13081:13082   */\n      0x01\n        /* \"#utility.yul\":13075:13079   */\n      dup3\n        /* \"#utility.yul\":13071:13083   */\n      and\n        /* \"#utility.yul\":13102:13120   */\n      dup1\n        /* \"#utility.yul\":13092:13094   */\n      tag_371\n      jumpi\n        /* \"#utility.yul\":13158:13162   */\n      0x7f\n        /* \"#utility.yul\":13150:13156   */\n      dup3\n        /* \"#utility.yul\":13146:13163   */\n      and\n        /* \"#utility.yul\":13136:13163   */\n      swap2\n      pop\n        /* \"#utility.yul\":13092:13094   */\n    tag_371:\n        /* \"#utility.yul\":13220:13222   */\n      0x20\n        /* \"#utility.yul\":13212:13218   */\n      dup3\n        /* \"#utility.yul\":13209:13223   */\n      lt\n        /* \"#utility.yul\":13189:13207   */\n      dup2\n        /* \"#utility.yul\":13186:13224   */\n      eq\n        /* \"#utility.yul\":13183:13185   */\n      iszero\n      tag_372\n      jumpi\n        /* \"#utility.yul\":13239:13257   */\n      tag_373\n      tag_374\n      jump\t// in\n    tag_373:\n        /* \"#utility.yul\":13183:13185   */\n    tag_372:\n        /* \"#utility.yul\":13004:13273   */\n      pop\n      swap2\n      swap1\n      pop\n      jump\t// out\n        /* \"#utility.yul\":13279:13459   */\n    tag_352:\n        /* \"#utility.yul\":13327:13404   */\n      0x4e487b7100000000000000000000000000000000000000000000000000000000\n        /* \"#utility.yul\":13324:13325   */\n      0x00\n        /* \"#utility.yul\":13317:13405   */\n      mstore\n        /* \"#utility.yul\":13424:13428   */\n      0x11\n        /* \"#utility.yul\":13421:13422   */\n      0x04\n        /* \"#utility.yul\":13414:13429   */\n      mstore\n        /* \"#utility.yul\":13448:13452   */\n      0x24\n        /* \"#utility.yul\":13445:13446   */\n      0x00\n        /* \"#utility.yul\":13438:13453   */\n      revert\n        /* \"#utility.yul\":13465:13645   */\n    tag_374:\n        /* \"#utility.yul\":13513:13590   */\n      0x4e487b7100000000000000000000000000000000000000000000000000000000\n        /* \"#utility.yul\":13510:13511   */\n      0x00\n        /* \"#utility.yul\":13503:13591   */\n      mstore\n        /* \"#utility.yul\":13610:13614   */\n      0x22\n        /* \"#utility.yul\":13607:13608   */\n      0x04\n        /* \"#utility.yul\":13600:13615   */\n      mstore\n        /* \"#utility.yul\":13634:13638   */\n      0x24\n        /* \"#utility.yul\":13631:13632   */\n      0x00\n        /* \"#utility.yul\":13624:13639   */\n      revert\n        /* \"#utility.yul\":13651:13753   */\n    tag_281:\n      0x00\n        /* \"#utility.yul\":13743:13745   */\n      0x1f\n        /* \"#utility.yul\":13739:13746   */\n      not\n        /* \"#utility.yul\":13734:13736   */\n      0x1f\n        /* \"#utility.yul\":13727:13732   */\n      dup4\n        /* \"#utility.yul\":13723:13737   */\n      add\n        /* \"#utility.yul\":13719:13747   */\n      and\n        /* \"#utility.yul\":13709:13747   */\n      swap1\n      pop\n        /* \"#utility.yul\":13699:13753   */\n      swap2\n      swap1\n      pop\n      jump\t// out\n        /* \"#utility.yul\":13759:13881   */\n    tag_240:\n        /* \"#utility.yul\":13832:13856   */\n      tag_379\n        /* \"#utility.yul\":13850:13855   */\n      dup2\n        /* \"#utility.yul\":13832:13856   */\n      tag_267\n      jump\t// in\n    tag_379:\n        /* \"#utility.yul\":13825:13830   */\n      dup2\n        /* \"#utility.yul\":13822:13857   */\n      eq\n        /* \"#utility.yul\":13812:13814   */\n      tag_380\n      jumpi\n        /* \"#utility.yul\":13871:13872   */\n      0x00\n        /* \"#utility.yul\":13868:13869   */\n      dup1\n        /* \"#utility.yul\":13861:13873   */\n      revert\n        /* \"#utility.yul\":13812:13814   */\n    tag_380:\n        /* \"#utility.yul\":13802:13881   */\n      pop\n      jump\t// out\n        /* \"#utility.yul\":13887:14009   */\n    tag_244:\n        /* \"#utility.yul\":13960:13984   */\n      tag_382\n        /* \"#utility.yul\":13978:13983   */\n      dup2\n        /* \"#utility.yul\":13960:13984   */\n      tag_312\n      jump\t// in\n    tag_382:\n        /* \"#utility.yul\":13953:13958   */\n      dup2\n        /* \"#utility.yul\":13950:13985   */\n      eq\n        /* \"#utility.yul\":13940:13942   */\n      tag_383\n      jumpi\n        /* \"#utility.yul\":13999:14000   */\n      0x00\n        /* \"#utility.yul\":13996:13997   */\n      dup1\n        /* \"#utility.yul\":13989:14001   */\n      revert\n        /* \"#utility.yul\":13940:13942   */\n    tag_383:\n        /* \"#utility.yul\":13930:14009   */\n      pop\n      jump\t// out\n    stop\n    data_90890889493b104bf9ebabde1448715c2fb678969066cdc6632dc010e5b34ff0 7472616e7366657220616d6f756e74206578636565647320616c6c6f77616e6365\n    data_a91efd7a65ef5b4ae4d6568d674798b78a5a89184dd296c100513251c22d3e73 42455032303a207472616e7366657220616d6f756e7420657863656564732062616c616e6365\n    data_b7060b3538dcd3ddc8a941c91636a8115a1aa46914747fd9809d543bbb46cd22 42455032303a2064656372656173656420616c6c6f77616e63652062656c6f77207a65726f\n    data_deaa84b30175fd0578812c46240362b7914652a35e6707ad7e1556891e4ae032 42455032303a206275726e20616d6f756e7420657863656564732062616c616e6365\n\n    auxdata: 0xa26469706673582212201f06b55f08cbef1df88fc1fcaed349c6378d509edf048901cb774f0b043f932864736f6c63430008000033\n}\n",
				"bytecode": {
					"linkReferences": {},
					"object": "60806040523480156200001157600080fd5b506000620000246200023d60201b60201c565b9050806000806101000a81548173ffffffffffffffffffffffffffffffffffffffff021916908373ffffffffffffffffffffffffffffffffffffffff1602179055508073ffffffffffffffffffffffffffffffffffffffff16600073ffffffffffffffffffffffffffffffffffffffff167f8be0079c531659141344cd1fd0a4f28419497f9722a3daafe3b4186f6b6457e060405160405180910390a3506040518060400160405280600a81526020017f5465746865722055534400000000000000000000000000000000000000000000815250600690805190602001906200010f92919062000245565b506040518060400160405280600481526020017f5553445400000000000000000000000000000000000000000000000000000000815250600590805190602001906200015d92919062000245565b506006600460006101000a81548160ff021916908360ff160217905550651c31bffcf000600381905550600354600160003373ffffffffffffffffffffffffffffffffffffffff1673ffffffffffffffffffffffffffffffffffffffff168152602001908152602001600020819055503373ffffffffffffffffffffffffffffffffffffffff16600073ffffffffffffffffffffffffffffffffffffffff167fddf252ad1be2c89b69c2b068fc378daa952ba7f163c4a11628f55a4df523b3ef6003546040516200022f919062000306565b60405180910390a362000392565b600033905090565b82805462000253906200032d565b90600052602060002090601f016020900481019282620002775760008555620002c3565b82601f106200029257805160ff1916838001178555620002c3565b82800160010185558215620002c3579182015b82811115620002c2578251825591602001919060010190620002a5565b5b509050620002d29190620002d6565b5090565b5b80821115620002f1576000816000905550600101620002d7565b5090565b620003008162000323565b82525050565b60006020820190506200031d6000830184620002f5565b92915050565b6000819050919050565b600060028204905060018216806200034657607f821691505b602082108114156200035d576200035c62000363565b5b50919050565b7f4e487b7100000000000000000000000000000000000000000000000000000000600052602260045260246000fd5b611ff580620003a26000396000f3fe608060405234801561001057600080fd5b506004361061012c5760003560e01c8063893d20e8116100ad578063a9059cbb11610071578063a9059cbb1461035d578063b09f12661461038d578063d28d8852146103ab578063dd62ed3e146103c9578063f2fde38b146103f95761012c565b8063893d20e8146102a35780638da5cb5b146102c157806395d89b41146102df578063a0712d68146102fd578063a457c2d71461032d5761012c565b806332424aa3116100f457806332424aa3146101eb578063395093511461020957806342966c681461023957806370a0823114610269578063715018a6146102995761012c565b806306fdde0314610131578063095ea7b31461014f57806318160ddd1461017f57806323b872dd1461019d578063313ce567146101cd575b600080fd5b610139610415565b6040516101469190611bbc565b60405180910390f35b61016960048036038101906101649190611788565b6104a7565b6040516101769190611ba1565b60405180910390f35b6101876104c5565b6040516101949190611cfe565b60405180910390f35b6101b760048036038101906101b29190611739565b6104cf565b6040516101c49190611ba1565b60405180910390f35b6101d56105a3565b6040516101e29190611d19565b60405180910390f35b6101f36105ba565b6040516102009190611d19565b60405180910390f35b610223600480360381019061021e9190611788565b6105cd565b6040516102309190611ba1565b60405180910390f35b610253600480360381019061024e91906117c4565b610680565b6040516102609190611ba1565b60405180910390f35b610283600480360381019061027e91906116d4565b61069c565b6040516102909190611cfe565b60405180910390f35b6102a16106e5565b005b6102ab610838565b6040516102b89190611b86565b60405180910390f35b6102c9610847565b6040516102d69190611b86565b60405180910390f35b6102e7610870565b6040516102f49190611bbc565b60405180910390f35b610317600480360381019061031291906117c4565b610902565b6040516103249190611ba1565b60405180910390f35b61034760048036038101906103429190611788565b6109b3565b6040516103549190611ba1565b60405180910390f35b61037760048036038101906103729190611788565b610a80565b6040516103849190611ba1565b60405180910390f35b610395610a9e565b6040516103a29190611bbc565b60405180910390f35b6103b3610b2c565b6040516103c09190611bbc565b60405180910390f35b6103e360048036038101906103de91906116fd565b610bba565b6040516103f09190611cfe565b60405180910390f35b610413600480360381019061040e91906116d4565b610c41565b005b60606006805461042490611e62565b80601f016020809104026020016040519081016040528092919081815260200182805461045090611e62565b801561049d5780601f106104725761010080835404028352916020019161049d565b820191906000526020600020905b81548152906001019060200180831161048057829003601f168201915b5050505050905090565b60006104bb6104b4610ce2565b8484610cea565b6001905092915050565b6000600354905090565b60006104dc848484610eb5565b836104e5610ce2565b61059584604051806060016040528060218152602001611f3260219139600260008a73ffffffffffffffffffffffffffffffffffffffff1673ffffffffffffffffffffffffffffffffffffffff168152602001908152602001600020600061054b610ce2565b73ffffffffffffffffffffffffffffffffffffffff1673ffffffffffffffffffffffffffffffffffffffff168152602001908152602001600020546111439092919063ffffffff16565b505050600190509392505050565b6000600460009054906101000a900460ff16905090565b600460009054906101000a900460ff1681565b60006106766105da610ce2565b8461067185600260006105eb610ce2565b73ffffffffffffffffffffffffffffffffffffffff1673ffffffffffffffffffffffffffffffffffffffff16815260200190815260200160002060008973ffffffffffffffffffffffffffffffffffffffff1673ffffffffffffffffffffffffffffffffffffffff168152602001908152602001600020546111a790919063ffffffff16565b610cea565b6001905092915050565b600061069361068d610ce2565b83611205565b60019050919050565b6000600160008373ffffffffffffffffffffffffffffffffffffffff1673ffffffffffffffffffffffffffffffffffffffff168152602001908152602001600020549050919050565b6106ed610ce2565b73ffffffffffffffffffffffffffffffffffffffff1660008054906101000a900473ffffffffffffffffffffffffffffffffffffffff1673ffffffffffffffffffffffffffffffffffffffff161461077a576040517f08c379a000000000000000000000000000000000000000000000000000000000815260040161077190611c7e565b60405180910390fd5b600073ffffffffffffffffffffffffffffffffffffffff1660008054906101000a900473ffffffffffffffffffffffffffffffffffffffff1673ffffffffffffffffffffffffffffffffffffffff167f8be0079c531659141344cd1fd0a4f28419497f9722a3daafe3b4186f6b6457e060405160405180910390a360008060006101000a81548173ffffffffffffffffffffffffffffffffffffffff021916908373ffffffffffffffffffffffffffffffffffffffff160217905550565b6000610842610847565b905090565b60008060009054906101000a900473ffffffffffffffffffffffffffffffffffffffff16905090565b60606005805461087f90611e62565b80601f01602080910402602001604051908101604052809291908181526020018280546108ab90611e62565b80156108f85780601f106108cd576101008083540402835291602001916108f8565b820191906000526020600020905b8154815290600101906020018083116108db57829003601f168201915b5050505050905090565b600061090c610ce2565b73ffffffffffffffffffffffffffffffffffffffff1660008054906101000a900473ffffffffffffffffffffffffffffffffffffffff1673ffffffffffffffffffffffffffffffffffffffff1614610999576040517f08c379a000000000000000000000000000000000000000000000000000000000815260040161099090611c7e565b60405180910390fd5b6109aa6109a4610ce2565b836113a9565b60019050919050565b6000610a766109c0610ce2565b84610a7185604051806060016040528060258152602001611f7960259139600260006109ea610ce2565b73ffffffffffffffffffffffffffffffffffffffff1673ffffffffffffffffffffffffffffffffffffffff16815260200190815260200160002060008a73ffffffffffffffffffffffffffffffffffffffff1673ffffffffffffffffffffffffffffffffffffffff168152602001908152602001600020546111439092919063ffffffff16565b610cea565b6001905092915050565b6000610a94610a8d610ce2565b8484610eb5565b6001905092915050565b60058054610aab90611e62565b80601f0160208091040260200160405190810160405280929190818152602001828054610ad790611e62565b8015610b245780601f10610af957610100808354040283529160200191610b24565b820191906000526020600020905b815481529060010190602001808311610b0757829003601f168201915b505050505081565b60068054610b3990611e62565b80601f0160208091040260200160405190810160405280929190818152602001828054610b6590611e62565b8015610bb25780601f10610b8757610100808354040283529160200191610bb2565b820191906000526020600020905b815481529060010190602001808311610b9557829003601f168201915b505050505081565b6000600260008473ffffffffffffffffffffffffffffffffffffffff1673ffffffffffffffffffffffffffffffffffffffff16815260200190815260200160002060008373ffffffffffffffffffffffffffffffffffffffff1673ffffffffffffffffffffffffffffffffffffffff16815260200190815260200160002054905092915050565b610c49610ce2565b73ffffffffffffffffffffffffffffffffffffffff1660008054906101000a900473ffffffffffffffffffffffffffffffffffffffff1673ffffffffffffffffffffffffffffffffffffffff1614610cd6576040517f08c379a0000000000000000000000000000000000000000000000000000000008152600401610ccd90611c7e565b60405180910390fd5b610cdf81611533565b50565b600033905090565b600073ffffffffffffffffffffffffffffffffffffffff168373ffffffffffffffffffffffffffffffffffffffff161415610d5a576040517f08c379a0000000000000000000000000000000000000000000000000000000008152600401610d5190611bfe565b60405180910390fd5b600073ffffffffffffffffffffffffffffffffffffffff168273ffffffffffffffffffffffffffffffffffffffff161415610dca576040517f08c379a0000000000000000000000000000000000000000000000000000000008152600401610dc190611cde565b60405180910390fd5b80600260008573ffffffffffffffffffffffffffffffffffffffff1673ffffffffffffffffffffffffffffffffffffffff16815260200190815260200160002060008473ffffffffffffffffffffffffffffffffffffffff1673ffffffffffffffffffffffffffffffffffffffff168152602001908152602001600020819055508173ffffffffffffffffffffffffffffffffffffffff168373ffffffffffffffffffffffffffffffffffffffff167f8c5be1e5ebec7d5bd14f71427d1e84f3dd0314c0f7b2291e5b200ac8c7c3b92583604051610ea89190611cfe565b60405180910390a3505050565b600073ffffffffffffffffffffffffffffffffffffffff168373ffffffffffffffffffffffffffffffffffffffff161415610f25576040517f08c379a0000000000000000000000000000000000000000000000000000000008152600401610f1c90611bde565b60405180910390fd5b600073ffffffffffffffffffffffffffffffffffffffff168273ffffffffffffffffffffffffffffffffffffffff161415610f95576040517f08c379a0000000000000000000000000000000000000000000000000000000008152600401610f8c90611c9e565b60405180910390fd5b61100181604051806060016040528060268152602001611f5360269139600160008773ffffffffffffffffffffffffffffffffffffffff1673ffffffffffffffffffffffffffffffffffffffff168152602001908152602001600020546111439092919063ffffffff16565b600160008573ffffffffffffffffffffffffffffffffffffffff1673ffffffffffffffffffffffffffffffffffffffff1681526020019081526020016000208190555061109681600160008573ffffffffffffffffffffffffffffffffffffffff1673ffffffffffffffffffffffffffffffffffffffff168152602001908152602001600020546111a790919063ffffffff16565b600160008473ffffffffffffffffffffffffffffffffffffffff1673ffffffffffffffffffffffffffffffffffffffff168152602001908152602001600020819055508173ffffffffffffffffffffffffffffffffffffffff168373ffffffffffffffffffffffffffffffffffffffff167fddf252ad1be2c89b69c2b068fc378daa952ba7f163c4a11628f55a4df523b3ef836040516111369190611cfe565b60405180910390a3505050565b600083831115829061118b576040517f08c379a00000000000000000000000000000000000000000000000000000000081526004016111829190611bbc565b60405180910390fd5b506000838561119a9190611da6565b9050809150509392505050565b60008082846111b69190611d50565b9050838110156111fb576040517f08c379a00000000000000000000000000000000000000000000000000000000081526004016111f290611c3e565b60405180910390fd5b8091505092915050565b600073ffffffffffffffffffffffffffffffffffffffff168273ffffffffffffffffffffffffffffffffffffffff161415611275576040517f08c379a000000000000000000000000000000000000000000000000000000000815260040161126c90611cbe565b60405180910390fd5b6112e181604051806060016040528060228152602001611f9e60229139600160008673ffffffffffffffffffffffffffffffffffffffff1673ffffffffffffffffffffffffffffffffffffffff168152602001908152602001600020546111439092919063ffffffff16565b600160008473ffffffffffffffffffffffffffffffffffffffff1673ffffffffffffffffffffffffffffffffffffffff168152602001908152602001600020819055506113398160035461166090919063ffffffff16565b600381905550600073ffffffffffffffffffffffffffffffffffffffff168273ffffffffffffffffffffffffffffffffffffffff167fddf252ad1be2c89b69c2b068fc378daa952ba7f163c4a11628f55a4df523b3ef8360405161139d9190611cfe565b60405180910390a35050565b600073ffffffffffffffffffffffffffffffffffffffff168273ffffffffffffffffffffffffffffffffffffffff161415611419576040517f08c379a000000000000000000000000000000000000000000000000000000000815260040161141090611c5e565b60405180910390fd5b61142e816003546111a790919063ffffffff16565b60038190555061148681600160008573ffffffffffffffffffffffffffffffffffffffff1673ffffffffffffffffffffffffffffffffffffffff168152602001908152602001600020546111a790919063ffffffff16565b600160008473ffffffffffffffffffffffffffffffffffffffff1673ffffffffffffffffffffffffffffffffffffffff168152602001908152602001600020819055508173ffffffffffffffffffffffffffffffffffffffff16600073ffffffffffffffffffffffffffffffffffffffff167fddf252ad1be2c89b69c2b068fc378daa952ba7f163c4a11628f55a4df523b3ef836040516115279190611cfe565b60405180910390a35050565b600073ffffffffffffffffffffffffffffffffffffffff168173ffffffffffffffffffffffffffffffffffffffff1614156115a3576040517f08c379a000000000000000000000000000000000000000000000000000000000815260040161159a90611c1e565b60405180910390fd5b8073ffffffffffffffffffffffffffffffffffffffff1660008054906101000a900473ffffffffffffffffffffffffffffffffffffffff1673ffffffffffffffffffffffffffffffffffffffff167f8be0079c531659141344cd1fd0a4f28419497f9722a3daafe3b4186f6b6457e060405160405180910390a3806000806101000a81548173ffffffffffffffffffffffffffffffffffffffff021916908373ffffffffffffffffffffffffffffffffffffffff16021790555050565b60006116a283836040518060400160405280601e81526020017f536166654d6174683a207375627472616374696f6e206f766572666c6f770000815250611143565b905092915050565b6000813590506116b981611f03565b92915050565b6000813590506116ce81611f1a565b92915050565b6000602082840312156116e657600080fd5b60006116f4848285016116aa565b91505092915050565b6000806040838503121561171057600080fd5b600061171e858286016116aa565b925050602061172f858286016116aa565b9150509250929050565b60008060006060848603121561174e57600080fd5b600061175c868287016116aa565b935050602061176d868287016116aa565b925050604061177e868287016116bf565b9150509250925092565b6000806040838503121561179b57600080fd5b60006117a9858286016116aa565b92505060206117ba858286016116bf565b9150509250929050565b6000602082840312156117d657600080fd5b60006117e4848285016116bf565b91505092915050565b6117f681611dda565b82525050565b61180581611dec565b82525050565b600061181682611d34565b6118208185611d3f565b9350611830818560208601611e2f565b61183981611ef2565b840191505092915050565b6000611851602583611d3f565b91507f42455032303a207472616e736665722066726f6d20746865207a65726f20616460008301527f64726573730000000000000000000000000000000000000000000000000000006020830152604082019050919050565b60006118b7602483611d3f565b91507f42455032303a20617070726f76652066726f6d20746865207a65726f2061646460008301527f72657373000000000000000000000000000000000000000000000000000000006020830152604082019050919050565b600061191d602683611d3f565b91507f4f776e61626c653a206e6577206f776e657220697320746865207a65726f206160008301527f64647265737300000000000000000000000000000000000000000000000000006020830152604082019050919050565b6000611983601b83611d3f565b91507f536166654d6174683a206164646974696f6e206f766572666c6f7700000000006000830152602082019050919050565b60006119c3601f83611d3f565b91507f42455032303a206d696e7420746f20746865207a65726f2061646472657373006000830152602082019050919050565b6000611a03602083611d3f565b91507f4f776e61626c653a2063616c6c6572206973206e6f7420746865206f776e65726000830152602082019050919050565b6000611a43602383611d3f565b91507f42455032303a207472616e7366657220746f20746865207a65726f206164647260008301527f65737300000000000000000000000000000000000000000000000000000000006020830152604082019050919050565b6000611aa9602183611d3f565b91507f42455032303a206275726e2066726f6d20746865207a65726f2061646472657360008301527f73000000000000000000000000000000000000000000000000000000000000006020830152604082019050919050565b6000611b0f602283611d3f565b91507f42455032303a20617070726f766520746f20746865207a65726f20616464726560008301527f73730000000000000000000000000000000000000000000000000000000000006020830152604082019050919050565b611b7181611e18565b82525050565b611b8081611e22565b82525050565b6000602082019050611b9b60008301846117ed565b92915050565b6000602082019050611bb660008301846117fc565b92915050565b60006020820190508181036000830152611bd6818461180b565b905092915050565b60006020820190508181036000830152611bf781611844565b9050919050565b60006020820190508181036000830152611c17816118aa565b9050919050565b60006020820190508181036000830152611c3781611910565b9050919050565b60006020820190508181036000830152611c5781611976565b9050919050565b60006020820190508181036000830152611c77816119b6565b9050919050565b60006020820190508181036000830152611c97816119f6565b9050919050565b60006020820190508181036000830152611cb781611a36565b9050919050565b60006020820190508181036000830152611cd781611a9c565b9050919050565b60006020820190508181036000830152611cf781611b02565b9050919050565b6000602082019050611d136000830184611b68565b92915050565b6000602082019050611d2e6000830184611b77565b92915050565b600081519050919050565b600082825260208201905092915050565b6000611d5b82611e18565b9150611d6683611e18565b9250827fffffffffffffffffffffffffffffffffffffffffffffffffffffffffffffffff03821115611d9b57611d9a611e94565b5b828201905092915050565b6000611db182611e18565b9150611dbc83611e18565b925082821015611dcf57611dce611e94565b5b828203905092915050565b6000611de582611df8565b9050919050565b60008115159050919050565b600073ffffffffffffffffffffffffffffffffffffffff82169050919050565b6000819050919050565b600060ff82169050919050565b60005b83811015611e4d578082015181840152602081019050611e32565b83811115611e5c576000848401525b50505050565b60006002820490506001821680611e7a57607f821691505b60208210811415611e8e57611e8d611ec3565b5b50919050565b7f4e487b7100000000000000000000000000000000000000000000000000000000600052601160045260246000fd5b7f4e487b7100000000000000000000000000000000000000000000000000000000600052602260045260246000fd5b6000601f19601f8301169050919050565b611f0c81611dda565b8114611f1757600080fd5b50565b611f2381611e18565b8114611f2e57600080fd5b5056fe7472616e7366657220616d6f756e74206578636565647320616c6c6f77616e636542455032303a207472616e7366657220616d6f756e7420657863656564732062616c616e636542455032303a2064656372656173656420616c6c6f77616e63652062656c6f77207a65726f42455032303a206275726e20616d6f756e7420657863656564732062616c616e6365a26469706673582212201f06b55f08cbef1df88fc1fcaed349c6378d509edf048901cb774f0b043f932864736f6c63430008000033",
					"opcodes": "PUSH1 0x80 PUSH1 0x40 MSTORE CALLVALUE DUP1 ISZERO PUSH3 0x11 JUMPI PUSH1 0x0 DUP1 REVERT JUMPDEST POP PUSH1 0x0 PUSH3 0x24 PUSH3 0x23D PUSH1 0x20 SHL PUSH1 0x20 SHR JUMP JUMPDEST SWAP1 POP DUP1 PUSH1 0x0 DUP1 PUSH2 0x100 EXP DUP2 SLOAD DUP2 PUSH20 0xFFFFFFFFFFFFFFFFFFFFFFFFFFFFFFFFFFFFFFFF MUL NOT AND SWAP1 DUP4 PUSH20 0xFFFFFFFFFFFFFFFFFFFFFFFFFFFFFFFFFFFFFFFF AND MUL OR SWAP1 SSTORE POP DUP1 PUSH20 0xFFFFFFFFFFFFFFFFFFFFFFFFFFFFFFFFFFFFFFFF AND PUSH1 0x0 PUSH20 0xFFFFFFFFFFFFFFFFFFFFFFFFFFFFFFFFFFFFFFFF AND PUSH32 0x8BE0079C531659141344CD1FD0A4F28419497F9722A3DAAFE3B4186F6B6457E0 PUSH1 0x40 MLOAD PUSH1 0x40 MLOAD DUP1 SWAP2 SUB SWAP1 LOG3 POP PUSH1 0x40 MLOAD DUP1 PUSH1 0x40 ADD PUSH1 0x40 MSTORE DUP1 PUSH1 0xA DUP2 MSTORE PUSH1 0x20 ADD PUSH32 0x5465746865722055534400000000000000000000000000000000000000000000 DUP2 MSTORE POP PUSH1 0x6 SWAP1 DUP1 MLOAD SWAP1 PUSH1 0x20 ADD SWAP1 PUSH3 0x10F SWAP3 SWAP2 SWAP1 PUSH3 0x245 JUMP JUMPDEST POP PUSH1 0x40 MLOAD DUP1 PUSH1 0x40 ADD PUSH1 0x40 MSTORE DUP1 PUSH1 0x4 DUP2 MSTORE PUSH1 0x20 ADD PUSH32 0x5553445400000000000000000000000000000000000000000000000000000000 DUP2 MSTORE POP PUSH1 0x5 SWAP1 DUP1 MLOAD SWAP1 PUSH1 0x20 ADD SWAP1 PUSH3 0x15D SWAP3 SWAP2 SWAP1 PUSH3 0x245 JUMP JUMPDEST POP PUSH1 0x6 PUSH1 0x4 PUSH1 0x0 PUSH2 0x100 EXP DUP2 SLOAD DUP2 PUSH1 0xFF MUL NOT AND SWAP1 DUP4 PUSH1 0xFF AND MUL OR SWAP1 SSTORE POP PUSH6 0x1C31BFFCF000 PUSH1 0x3 DUP2 SWAP1 SSTORE POP PUSH1 0x3 SLOAD PUSH1 0x1 PUSH1 0x0 CALLER PUSH20 0xFFFFFFFFFFFFFFFFFFFFFFFFFFFFFFFFFFFFFFFF AND PUSH20 0xFFFFFFFFFFFFFFFFFFFFFFFFFFFFFFFFFFFFFFFF AND DUP2 MSTORE PUSH1 0x20 ADD SWAP1 DUP2 MSTORE PUSH1 0x20 ADD PUSH1 0x0 KECCAK256 DUP2 SWAP1 SSTORE POP CALLER PUSH20 0xFFFFFFFFFFFFFFFFFFFFFFFFFFFFFFFFFFFFFFFF AND PUSH1 0x0 PUSH20 0xFFFFFFFFFFFFFFFFFFFFFFFFFFFFFFFFFFFFFFFF AND PUSH32 0xDDF252AD1BE2C89B69C2B068FC378DAA952BA7F163C4A11628F55A4DF523B3EF PUSH1 0x3 SLOAD PUSH1 0x40 MLOAD PUSH3 0x22F SWAP2 SWAP1 PUSH3 0x306 JUMP JUMPDEST PUSH1 0x40 MLOAD DUP1 SWAP2 SUB SWAP1 LOG3 PUSH3 0x392 JUMP JUMPDEST PUSH1 0x0 CALLER SWAP1 POP SWAP1 JUMP JUMPDEST DUP3 DUP1 SLOAD PUSH3 0x253 SWAP1 PUSH3 0x32D JUMP JUMPDEST SWAP1 PUSH1 0x0 MSTORE PUSH1 0x20 PUSH1 0x0 KECCAK256 SWAP1 PUSH1 0x1F ADD PUSH1 0x20 SWAP1 DIV DUP2 ADD SWAP3 DUP3 PUSH3 0x277 JUMPI PUSH1 0x0 DUP6 SSTORE PUSH3 0x2C3 JUMP JUMPDEST DUP3 PUSH1 0x1F LT PUSH3 0x292 JUMPI DUP1 MLOAD PUSH1 0xFF NOT AND DUP4 DUP1 ADD OR DUP6 SSTORE PUSH3 0x2C3 JUMP JUMPDEST DUP3 DUP1 ADD PUSH1 0x1 ADD DUP6 SSTORE DUP3 ISZERO PUSH3 0x2C3 JUMPI SWAP2 DUP3 ADD JUMPDEST DUP3 DUP2 GT ISZERO PUSH3 0x2C2 JUMPI DUP3 MLOAD DUP3 SSTORE SWAP2 PUSH1 0x20 ADD SWAP2 SWAP1 PUSH1 0x1 ADD SWAP1 PUSH3 0x2A5 JUMP JUMPDEST JUMPDEST POP SWAP1 POP PUSH3 0x2D2 SWAP2 SWAP1 PUSH3 0x2D6 JUMP JUMPDEST POP SWAP1 JUMP JUMPDEST JUMPDEST DUP1 DUP3 GT ISZERO PUSH3 0x2F1 JUMPI PUSH1 0x0 DUP2 PUSH1 0x0 SWAP1 SSTORE POP PUSH1 0x1 ADD PUSH3 0x2D7 JUMP JUMPDEST POP SWAP1 JUMP JUMPDEST PUSH3 0x300 DUP2 PUSH3 0x323 JUMP JUMPDEST DUP3 MSTORE POP POP JUMP JUMPDEST PUSH1 0x0 PUSH1 0x20 DUP3 ADD SWAP1 POP PUSH3 0x31D PUSH1 0x0 DUP4 ADD DUP5 PUSH3 0x2F5 JUMP JUMPDEST SWAP3 SWAP2 POP POP JUMP JUMPDEST PUSH1 0x0 DUP2 SWAP1 POP SWAP2 SWAP1 POP JUMP JUMPDEST PUSH1 0x0 PUSH1 0x2 DUP3 DIV SWAP1 POP PUSH1 0x1 DUP3 AND DUP1 PUSH3 0x346 JUMPI PUSH1 0x7F DUP3 AND SWAP2 POP JUMPDEST PUSH1 0x20 DUP3 LT DUP2 EQ ISZERO PUSH3 0x35D JUMPI PUSH3 0x35C PUSH3 0x363 JUMP JUMPDEST JUMPDEST POP SWAP2 SWAP1 POP JUMP JUMPDEST PUSH32 0x4E487B7100000000000000000000000000000000000000000000000000000000 PUSH1 0x0 MSTORE PUSH1 0x22 PUSH1 0x4 MSTORE PUSH1 0x24 PUSH1 0x0 REVERT JUMPDEST PUSH2 0x1FF5 DUP1 PUSH3 0x3A2 PUSH1 0x0 CODECOPY PUSH1 0x0 RETURN INVALID PUSH1 0x80 PUSH1 0x40 MSTORE CALLVALUE DUP1 ISZERO PUSH2 0x10 JUMPI PUSH1 0x0 DUP1 REVERT JUMPDEST POP PUSH1 0x4 CALLDATASIZE LT PUSH2 0x12C JUMPI PUSH1 0x0 CALLDATALOAD PUSH1 0xE0 SHR DUP1 PUSH4 0x893D20E8 GT PUSH2 0xAD JUMPI DUP1 PUSH4 0xA9059CBB GT PUSH2 0x71 JUMPI DUP1 PUSH4 0xA9059CBB EQ PUSH2 0x35D JUMPI DUP1 PUSH4 0xB09F1266 EQ PUSH2 0x38D JUMPI DUP1 PUSH4 0xD28D8852 EQ PUSH2 0x3AB JUMPI DUP1 PUSH4 0xDD62ED3E EQ PUSH2 0x3C9 JUMPI DUP1 PUSH4 0xF2FDE38B EQ PUSH2 0x3F9 JUMPI PUSH2 0x12C JUMP JUMPDEST DUP1 PUSH4 0x893D20E8 EQ PUSH2 0x2A3 JUMPI DUP1 PUSH4 0x8DA5CB5B EQ PUSH2 0x2C1 JUMPI DUP1 PUSH4 0x95D89B41 EQ PUSH2 0x2DF JUMPI DUP1 PUSH4 0xA0712D68 EQ PUSH2 0x2FD JUMPI DUP1 PUSH4 0xA457C2D7 EQ PUSH2 0x32D JUMPI PUSH2 0x12C JUMP JUMPDEST DUP1 PUSH4 0x32424AA3 GT PUSH2 0xF4 JUMPI DUP1 PUSH4 0x32424AA3 EQ PUSH2 0x1EB JUMPI DUP1 PUSH4 0x39509351 EQ PUSH2 0x209 JUMPI DUP1 PUSH4 0x42966C68 EQ PUSH2 0x239 JUMPI DUP1 PUSH4 0x70A08231 EQ PUSH2 0x269 JUMPI DUP1 PUSH4 0x715018A6 EQ PUSH2 0x299 JUMPI PUSH2 0x12C JUMP JUMPDEST DUP1 PUSH4 0x6FDDE03 EQ PUSH2 0x131 JUMPI DUP1 PUSH4 0x95EA7B3 EQ PUSH2 0x14F JUMPI DUP1 PUSH4 0x18160DDD EQ PUSH2 0x17F JUMPI DUP1 PUSH4 0x23B872DD EQ PUSH2 0x19D JUMPI DUP1 PUSH4 0x313CE567 EQ PUSH2 0x1CD JUMPI JUMPDEST PUSH1 0x0 DUP1 REVERT JUMPDEST PUSH2 0x139 PUSH2 0x415 JUMP JUMPDEST PUSH1 0x40 MLOAD PUSH2 0x146 SWAP2 SWAP1 PUSH2 0x1BBC JUMP JUMPDEST PUSH1 0x40 MLOAD DUP1 SWAP2 SUB SWAP1 RETURN JUMPDEST PUSH2 0x169 PUSH1 0x4 DUP1 CALLDATASIZE SUB DUP2 ADD SWAP1 PUSH2 0x164 SWAP2 SWAP1 PUSH2 0x1788 JUMP JUMPDEST PUSH2 0x4A7 JUMP JUMPDEST PUSH1 0x40 MLOAD PUSH2 0x176 SWAP2 SWAP1 PUSH2 0x1BA1 JUMP JUMPDEST PUSH1 0x40 MLOAD DUP1 SWAP2 SUB SWAP1 RETURN JUMPDEST PUSH2 0x187 PUSH2 0x4C5 JUMP JUMPDEST PUSH1 0x40 MLOAD PUSH2 0x194 SWAP2 SWAP1 PUSH2 0x1CFE JUMP JUMPDEST PUSH1 0x40 MLOAD DUP1 SWAP2 SUB SWAP1 RETURN JUMPDEST PUSH2 0x1B7 PUSH1 0x4 DUP1 CALLDATASIZE SUB DUP2 ADD SWAP1 PUSH2 0x1B2 SWAP2 SWAP1 PUSH2 0x1739 JUMP JUMPDEST PUSH2 0x4CF JUMP JUMPDEST PUSH1 0x40 MLOAD PUSH2 0x1C4 SWAP2 SWAP1 PUSH2 0x1BA1 JUMP JUMPDEST PUSH1 0x40 MLOAD DUP1 SWAP2 SUB SWAP1 RETURN JUMPDEST PUSH2 0x1D5 PUSH2 0x5A3 JUMP JUMPDEST PUSH1 0x40 MLOAD PUSH2 0x1E2 SWAP2 SWAP1 PUSH2 0x1D19 JUMP JUMPDEST PUSH1 0x40 MLOAD DUP1 SWAP2 SUB SWAP1 RETURN JUMPDEST PUSH2 0x1F3 PUSH2 0x5BA JUMP JUMPDEST PUSH1 0x40 MLOAD PUSH2 0x200 SWAP2 SWAP1 PUSH2 0x1D19 JUMP JUMPDEST PUSH1 0x40 MLOAD DUP1 SWAP2 SUB SWAP1 RETURN JUMPDEST PUSH2 0x223 PUSH1 0x4 DUP1 CALLDATASIZE SUB DUP2 ADD SWAP1 PUSH2 0x21E SWAP2 SWAP1 PUSH2 0x1788 JUMP JUMPDEST PUSH2 0x5CD JUMP JUMPDEST PUSH1 0x40 MLOAD PUSH2 0x230 SWAP2 SWAP1 PUSH2 0x1BA1 JUMP JUMPDEST PUSH1 0x40 MLOAD DUP1 SWAP2 SUB SWAP1 RETURN JUMPDEST PUSH2 0x253 PUSH1 0x4 DUP1 CALLDATASIZE SUB DUP2 ADD SWAP1 PUSH2 0x24E SWAP2 SWAP1 PUSH2 0x17C4 JUMP JUMPDEST PUSH2 0x680 JUMP JUMPDEST PUSH1 0x40 MLOAD PUSH2 0x260 SWAP2 SWAP1 PUSH2 0x1BA1 JUMP JUMPDEST PUSH1 0x40 MLOAD DUP1 SWAP2 SUB SWAP1 RETURN JUMPDEST PUSH2 0x283 PUSH1 0x4 DUP1 CALLDATASIZE SUB DUP2 ADD SWAP1 PUSH2 0x27E SWAP2 SWAP1 PUSH2 0x16D4 JUMP JUMPDEST PUSH2 0x69C JUMP JUMPDEST PUSH1 0x40 MLOAD PUSH2 0x290 SWAP2 SWAP1 PUSH2 0x1CFE JUMP JUMPDEST PUSH1 0x40 MLOAD DUP1 SWAP2 SUB SWAP1 RETURN JUMPDEST PUSH2 0x2A1 PUSH2 0x6E5 JUMP JUMPDEST STOP JUMPDEST PUSH2 0x2AB PUSH2 0x838 JUMP JUMPDEST PUSH1 0x40 MLOAD PUSH2 0x2B8 SWAP2 SWAP1 PUSH2 0x1B86 JUMP JUMPDEST PUSH1 0x40 MLOAD DUP1 SWAP2 SUB SWAP1 RETURN JUMPDEST PUSH2 0x2C9 PUSH2 0x847 JUMP JUMPDEST PUSH1 0x40 MLOAD PUSH2 0x2D6 SWAP2 SWAP1 PUSH2 0x1B86 JUMP JUMPDEST PUSH1 0x40 MLOAD DUP1 SWAP2 SUB SWAP1 RETURN JUMPDEST PUSH2 0x2E7 PUSH2 0x870 JUMP JUMPDEST PUSH1 0x40 MLOAD PUSH2 0x2F4 SWAP2 SWAP1 PUSH2 0x1BBC JUMP JUMPDEST PUSH1 0x40 MLOAD DUP1 SWAP2 SUB SWAP1 RETURN JUMPDEST PUSH2 0x317 PUSH1 0x4 DUP1 CALLDATASIZE SUB DUP2 ADD SWAP1 PUSH2 0x312 SWAP2 SWAP1 PUSH2 0x17C4 JUMP JUMPDEST PUSH2 0x902 JUMP JUMPDEST PUSH1 0x40 MLOAD PUSH2 0x324 SWAP2 SWAP1 PUSH2 0x1BA1 JUMP JUMPDEST PUSH1 0x40 MLOAD DUP1 SWAP2 SUB SWAP1 RETURN JUMPDEST PUSH2 0x347 PUSH1 0x4 DUP1 CALLDATASIZE SUB DUP2 ADD SWAP1 PUSH2 0x342 SWAP2 SWAP1 PUSH2 0x1788 JUMP JUMPDEST PUSH2 0x9B3 JUMP JUMPDEST PUSH1 0x40 MLOAD PUSH2 0x354 SWAP2 SWAP1 PUSH2 0x1BA1 JUMP JUMPDEST PUSH1 0x40 MLOAD DUP1 SWAP2 SUB SWAP1 RETURN JUMPDEST PUSH2 0x377 PUSH1 0x4 DUP1 CALLDATASIZE SUB DUP2 ADD SWAP1 PUSH2 0x372 SWAP2 SWAP1 PUSH2 0x1788 JUMP JUMPDEST PUSH2 0xA80 JUMP JUMPDEST PUSH1 0x40 MLOAD PUSH2 0x384 SWAP2 SWAP1 PUSH2 0x1BA1 JUMP JUMPDEST PUSH1 0x40 MLOAD DUP1 SWAP2 SUB SWAP1 RETURN JUMPDEST PUSH2 0x395 PUSH2 0xA9E JUMP JUMPDEST PUSH1 0x40 MLOAD PUSH2 0x3A2 SWAP2 SWAP1 PUSH2 0x1BBC JUMP JUMPDEST PUSH1 0x40 MLOAD DUP1 SWAP2 SUB SWAP1 RETURN JUMPDEST PUSH2 0x3B3 PUSH2 0xB2C JUMP JUMPDEST PUSH1 0x40 MLOAD PUSH2 0x3C0 SWAP2 SWAP1 PUSH2 0x1BBC JUMP JUMPDEST PUSH1 0x40 MLOAD DUP1 SWAP2 SUB SWAP1 RETURN JUMPDEST PUSH2 0x3E3 PUSH1 0x4 DUP1 CALLDATASIZE SUB DUP2 ADD SWAP1 PUSH2 0x3DE SWAP2 SWAP1 PUSH2 0x16FD JUMP JUMPDEST PUSH2 0xBBA JUMP JUMPDEST PUSH1 0x40 MLOAD PUSH2 0x3F0 SWAP2 SWAP1 PUSH2 0x1CFE JUMP JUMPDEST PUSH1 0x40 MLOAD DUP1 SWAP2 SUB SWAP1 RETURN JUMPDEST PUSH2 0x413 PUSH1 0x4 DUP1 CALLDATASIZE SUB DUP2 ADD SWAP1 PUSH2 0x40E SWAP2 SWAP1 PUSH2 0x16D4 JUMP JUMPDEST PUSH2 0xC41 JUMP JUMPDEST STOP JUMPDEST PUSH1 0x60 PUSH1 0x6 DUP1 SLOAD PUSH2 0x424 SWAP1 PUSH2 0x1E62 JUMP JUMPDEST DUP1 PUSH1 0x1F ADD PUSH1 0x20 DUP1 SWAP2 DIV MUL PUSH1 0x20 ADD PUSH1 0x40 MLOAD SWAP1 DUP2 ADD PUSH1 0x40 MSTORE DUP1 SWAP3 SWAP2 SWAP1 DUP2 DUP2 MSTORE PUSH1 0x20 ADD DUP3 DUP1 SLOAD PUSH2 0x450 SWAP1 PUSH2 0x1E62 JUMP JUMPDEST DUP1 ISZERO PUSH2 0x49D JUMPI DUP1 PUSH1 0x1F LT PUSH2 0x472 JUMPI PUSH2 0x100 DUP1 DUP4 SLOAD DIV MUL DUP4 MSTORE SWAP2 PUSH1 0x20 ADD SWAP2 PUSH2 0x49D JUMP JUMPDEST DUP3 ADD SWAP2 SWAP1 PUSH1 0x0 MSTORE PUSH1 0x20 PUSH1 0x0 KECCAK256 SWAP1 JUMPDEST DUP2 SLOAD DUP2 MSTORE SWAP1 PUSH1 0x1 ADD SWAP1 PUSH1 0x20 ADD DUP1 DUP4 GT PUSH2 0x480 JUMPI DUP3 SWAP1 SUB PUSH1 0x1F AND DUP3 ADD SWAP2 JUMPDEST POP POP POP POP POP SWAP1 POP SWAP1 JUMP JUMPDEST PUSH1 0x0 PUSH2 0x4BB PUSH2 0x4B4 PUSH2 0xCE2 JUMP JUMPDEST DUP5 DUP5 PUSH2 0xCEA JUMP JUMPDEST PUSH1 0x1 SWAP1 POP SWAP3 SWAP2 POP POP JUMP JUMPDEST PUSH1 0x0 PUSH1 0x3 SLOAD SWAP1 POP SWAP1 JUMP JUMPDEST PUSH1 0x0 PUSH2 0x4DC DUP5 DUP5 DUP5 PUSH2 0xEB5 JUMP JUMPDEST DUP4 PUSH2 0x4E5 PUSH2 0xCE2 JUMP JUMPDEST PUSH2 0x595 DUP5 PUSH1 0x40 MLOAD DUP1 PUSH1 0x60 ADD PUSH1 0x40 MSTORE DUP1 PUSH1 0x21 DUP2 MSTORE PUSH1 0x20 ADD PUSH2 0x1F32 PUSH1 0x21 SWAP2 CODECOPY PUSH1 0x2 PUSH1 0x0 DUP11 PUSH20 0xFFFFFFFFFFFFFFFFFFFFFFFFFFFFFFFFFFFFFFFF AND PUSH20 0xFFFFFFFFFFFFFFFFFFFFFFFFFFFFFFFFFFFFFFFF AND DUP2 MSTORE PUSH1 0x20 ADD SWAP1 DUP2 MSTORE PUSH1 0x20 ADD PUSH1 0x0 KECCAK256 PUSH1 0x0 PUSH2 0x54B PUSH2 0xCE2 JUMP JUMPDEST PUSH20 0xFFFFFFFFFFFFFFFFFFFFFFFFFFFFFFFFFFFFFFFF AND PUSH20 0xFFFFFFFFFFFFFFFFFFFFFFFFFFFFFFFFFFFFFFFF AND DUP2 MSTORE PUSH1 0x20 ADD SWAP1 DUP2 MSTORE PUSH1 0x20 ADD PUSH1 0x0 KECCAK256 SLOAD PUSH2 0x1143 SWAP1 SWAP3 SWAP2 SWAP1 PUSH4 0xFFFFFFFF AND JUMP JUMPDEST POP POP POP PUSH1 0x1 SWAP1 POP SWAP4 SWAP3 POP POP POP JUMP JUMPDEST PUSH1 0x0 PUSH1 0x4 PUSH1 0x0 SWAP1 SLOAD SWAP1 PUSH2 0x100 EXP SWAP1 DIV PUSH1 0xFF AND SWAP1 POP SWAP1 JUMP JUMPDEST PUSH1 0x4 PUSH1 0x0 SWAP1 SLOAD SWAP1 PUSH2 0x100 EXP SWAP1 DIV PUSH1 0xFF AND DUP2 JUMP JUMPDEST PUSH1 0x0 PUSH2 0x676 PUSH2 0x5DA PUSH2 0xCE2 JUMP JUMPDEST DUP5 PUSH2 0x671 DUP6 PUSH1 0x2 PUSH1 0x0 PUSH2 0x5EB PUSH2 0xCE2 JUMP JUMPDEST PUSH20 0xFFFFFFFFFFFFFFFFFFFFFFFFFFFFFFFFFFFFFFFF AND PUSH20 0xFFFFFFFFFFFFFFFFFFFFFFFFFFFFFFFFFFFFFFFF AND DUP2 MSTORE PUSH1 0x20 ADD SWAP1 DUP2 MSTORE PUSH1 0x20 ADD PUSH1 0x0 KECCAK256 PUSH1 0x0 DUP10 PUSH20 0xFFFFFFFFFFFFFFFFFFFFFFFFFFFFFFFFFFFFFFFF AND PUSH20 0xFFFFFFFFFFFFFFFFFFFFFFFFFFFFFFFFFFFFFFFF AND DUP2 MSTORE PUSH1 0x20 ADD SWAP1 DUP2 MSTORE PUSH1 0x20 ADD PUSH1 0x0 KECCAK256 SLOAD PUSH2 0x11A7 SWAP1 SWAP2 SWAP1 PUSH4 0xFFFFFFFF AND JUMP JUMPDEST PUSH2 0xCEA JUMP JUMPDEST PUSH1 0x1 SWAP1 POP SWAP3 SWAP2 POP POP JUMP JUMPDEST PUSH1 0x0 PUSH2 0x693 PUSH2 0x68D PUSH2 0xCE2 JUMP JUMPDEST DUP4 PUSH2 0x1205 JUMP JUMPDEST PUSH1 0x1 SWAP1 POP SWAP2 SWAP1 POP JUMP JUMPDEST PUSH1 0x0 PUSH1 0x1 PUSH1 0x0 DUP4 PUSH20 0xFFFFFFFFFFFFFFFFFFFFFFFFFFFFFFFFFFFFFFFF AND PUSH20 0xFFFFFFFFFFFFFFFFFFFFFFFFFFFFFFFFFFFFFFFF AND DUP2 MSTORE PUSH1 0x20 ADD SWAP1 DUP2 MSTORE PUSH1 0x20 ADD PUSH1 0x0 KECCAK256 SLOAD SWAP1 POP SWAP2 SWAP1 POP JUMP JUMPDEST PUSH2 0x6ED PUSH2 0xCE2 JUMP JUMPDEST PUSH20 0xFFFFFFFFFFFFFFFFFFFFFFFFFFFFFFFFFFFFFFFF AND PUSH1 0x0 DUP1 SLOAD SWAP1 PUSH2 0x100 EXP SWAP1 DIV PUSH20 0xFFFFFFFFFFFFFFFFFFFFFFFFFFFFFFFFFFFFFFFF AND PUSH20 0xFFFFFFFFFFFFFFFFFFFFFFFFFFFFFFFFFFFFFFFF AND EQ PUSH2 0x77A JUMPI PUSH1 0x40 MLOAD PUSH32 0x8C379A000000000000000000000000000000000000000000000000000000000 DUP2 MSTORE PUSH1 0x4 ADD PUSH2 0x771 SWAP1 PUSH2 0x1C7E JUMP JUMPDEST PUSH1 0x40 MLOAD DUP1 SWAP2 SUB SWAP1 REVERT JUMPDEST PUSH1 0x0 PUSH20 0xFFFFFFFFFFFFFFFFFFFFFFFFFFFFFFFFFFFFFFFF AND PUSH1 0x0 DUP1 SLOAD SWAP1 PUSH2 0x100 EXP SWAP1 DIV PUSH20 0xFFFFFFFFFFFFFFFFFFFFFFFFFFFFFFFFFFFFFFFF AND PUSH20 0xFFFFFFFFFFFFFFFFFFFFFFFFFFFFFFFFFFFFFFFF AND PUSH32 0x8BE0079C531659141344CD1FD0A4F28419497F9722A3DAAFE3B4186F6B6457E0 PUSH1 0x40 MLOAD PUSH1 0x40 MLOAD DUP1 SWAP2 SUB SWAP1 LOG3 PUSH1 0x0 DUP1 PUSH1 0x0 PUSH2 0x100 EXP DUP2 SLOAD DUP2 PUSH20 0xFFFFFFFFFFFFFFFFFFFFFFFFFFFFFFFFFFFFFFFF MUL NOT AND SWAP1 DUP4 PUSH20 0xFFFFFFFFFFFFFFFFFFFFFFFFFFFFFFFFFFFFFFFF AND MUL OR SWAP1 SSTORE POP JUMP JUMPDEST PUSH1 0x0 PUSH2 0x842 PUSH2 0x847 JUMP JUMPDEST SWAP1 POP SWAP1 JUMP JUMPDEST PUSH1 0x0 DUP1 PUSH1 0x0 SWAP1 SLOAD SWAP1 PUSH2 0x100 EXP SWAP1 DIV PUSH20 0xFFFFFFFFFFFFFFFFFFFFFFFFFFFFFFFFFFFFFFFF AND SWAP1 POP SWAP1 JUMP JUMPDEST PUSH1 0x60 PUSH1 0x5 DUP1 SLOAD PUSH2 0x87F SWAP1 PUSH2 0x1E62 JUMP JUMPDEST DUP1 PUSH1 0x1F ADD PUSH1 0x20 DUP1 SWAP2 DIV MUL PUSH1 0x20 ADD PUSH1 0x40 MLOAD SWAP1 DUP2 ADD PUSH1 0x40 MSTORE DUP1 SWAP3 SWAP2 SWAP1 DUP2 DUP2 MSTORE PUSH1 0x20 ADD DUP3 DUP1 SLOAD PUSH2 0x8AB SWAP1 PUSH2 0x1E62 JUMP JUMPDEST DUP1 ISZERO PUSH2 0x8F8 JUMPI DUP1 PUSH1 0x1F LT PUSH2 0x8CD JUMPI PUSH2 0x100 DUP1 DUP4 SLOAD DIV MUL DUP4 MSTORE SWAP2 PUSH1 0x20 ADD SWAP2 PUSH2 0x8F8 JUMP JUMPDEST DUP3 ADD SWAP2 SWAP1 PUSH1 0x0 MSTORE PUSH1 0x20 PUSH1 0x0 KECCAK256 SWAP1 JUMPDEST DUP2 SLOAD DUP2 MSTORE SWAP1 PUSH1 0x1 ADD SWAP1 PUSH1 0x20 ADD DUP1 DUP4 GT PUSH2 0x8DB JUMPI DUP3 SWAP1 SUB PUSH1 0x1F AND DUP3 ADD SWAP2 JUMPDEST POP POP POP POP POP SWAP1 POP SWAP1 JUMP JUMPDEST PUSH1 0x0 PUSH2 0x90C PUSH2 0xCE2 JUMP JUMPDEST PUSH20 0xFFFFFFFFFFFFFFFFFFFFFFFFFFFFFFFFFFFFFFFF AND PUSH1 0x0 DUP1 SLOAD SWAP1 PUSH2 0x100 EXP SWAP1 DIV PUSH20 0xFFFFFFFFFFFFFFFFFFFFFFFFFFFFFFFFFFFFFFFF AND PUSH20 0xFFFFFFFFFFFFFFFFFFFFFFFFFFFFFFFFFFFFFFFF AND EQ PUSH2 0x999 JUMPI PUSH1 0x40 MLOAD PUSH32 0x8C379A000000000000000000000000000000000000000000000000000000000 DUP2 MSTORE PUSH1 0x4 ADD PUSH2 0x990 SWAP1 PUSH2 0x1C7E JUMP JUMPDEST PUSH1 0x40 MLOAD DUP1 SWAP2 SUB SWAP1 REVERT JUMPDEST PUSH2 0x9AA PUSH2 0x9A4 PUSH2 0xCE2 JUMP JUMPDEST DUP4 PUSH2 0x13A9 JUMP JUMPDEST PUSH1 0x1 SWAP1 POP SWAP2 SWAP1 POP JUMP JUMPDEST PUSH1 0x0 PUSH2 0xA76 PUSH2 0x9C0 PUSH2 0xCE2 JUMP JUMPDEST DUP5 PUSH2 0xA71 DUP6 PUSH1 0x40 MLOAD DUP1 PUSH1 0x60 ADD PUSH1 0x40 MSTORE DUP1 PUSH1 0x25 DUP2 MSTORE PUSH1 0x20 ADD PUSH2 0x1F79 PUSH1 0x25 SWAP2 CODECOPY PUSH1 0x2 PUSH1 0x0 PUSH2 0x9EA PUSH2 0xCE2 JUMP JUMPDEST PUSH20 0xFFFFFFFFFFFFFFFFFFFFFFFFFFFFFFFFFFFFFFFF AND PUSH20 0xFFFFFFFFFFFFFFFFFFFFFFFFFFFFFFFFFFFFFFFF AND DUP2 MSTORE PUSH1 0x20 ADD SWAP1 DUP2 MSTORE PUSH1 0x20 ADD PUSH1 0x0 KECCAK256 PUSH1 0x0 DUP11 PUSH20 0xFFFFFFFFFFFFFFFFFFFFFFFFFFFFFFFFFFFFFFFF AND PUSH20 0xFFFFFFFFFFFFFFFFFFFFFFFFFFFFFFFFFFFFFFFF AND DUP2 MSTORE PUSH1 0x20 ADD SWAP1 DUP2 MSTORE PUSH1 0x20 ADD PUSH1 0x0 KECCAK256 SLOAD PUSH2 0x1143 SWAP1 SWAP3 SWAP2 SWAP1 PUSH4 0xFFFFFFFF AND JUMP JUMPDEST PUSH2 0xCEA JUMP JUMPDEST PUSH1 0x1 SWAP1 POP SWAP3 SWAP2 POP POP JUMP JUMPDEST PUSH1 0x0 PUSH2 0xA94 PUSH2 0xA8D PUSH2 0xCE2 JUMP JUMPDEST DUP5 DUP5 PUSH2 0xEB5 JUMP JUMPDEST PUSH1 0x1 SWAP1 POP SWAP3 SWAP2 POP POP JUMP JUMPDEST PUSH1 0x5 DUP1 SLOAD PUSH2 0xAAB SWAP1 PUSH2 0x1E62 JUMP JUMPDEST DUP1 PUSH1 0x1F ADD PUSH1 0x20 DUP1 SWAP2 DIV MUL PUSH1 0x20 ADD PUSH1 0x40 MLOAD SWAP1 DUP2 ADD PUSH1 0x40 MSTORE DUP1 SWAP3 SWAP2 SWAP1 DUP2 DUP2 MSTORE PUSH1 0x20 ADD DUP3 DUP1 SLOAD PUSH2 0xAD7 SWAP1 PUSH2 0x1E62 JUMP JUMPDEST DUP1 ISZERO PUSH2 0xB24 JUMPI DUP1 PUSH1 0x1F LT PUSH2 0xAF9 JUMPI PUSH2 0x100 DUP1 DUP4 SLOAD DIV MUL DUP4 MSTORE SWAP2 PUSH1 0x20 ADD SWAP2 PUSH2 0xB24 JUMP JUMPDEST DUP3 ADD SWAP2 SWAP1 PUSH1 0x0 MSTORE PUSH1 0x20 PUSH1 0x0 KECCAK256 SWAP1 JUMPDEST DUP2 SLOAD DUP2 MSTORE SWAP1 PUSH1 0x1 ADD SWAP1 PUSH1 0x20 ADD DUP1 DUP4 GT PUSH2 0xB07 JUMPI DUP3 SWAP1 SUB PUSH1 0x1F AND DUP3 ADD SWAP2 JUMPDEST POP POP POP POP POP DUP2 JUMP JUMPDEST PUSH1 0x6 DUP1 SLOAD PUSH2 0xB39 SWAP1 PUSH2 0x1E62 JUMP JUMPDEST DUP1 PUSH1 0x1F ADD PUSH1 0x20 DUP1 SWAP2 DIV MUL PUSH1 0x20 ADD PUSH1 0x40 MLOAD SWAP1 DUP2 ADD PUSH1 0x40 MSTORE DUP1 SWAP3 SWAP2 SWAP1 DUP2 DUP2 MSTORE PUSH1 0x20 ADD DUP3 DUP1 SLOAD PUSH2 0xB65 SWAP1 PUSH2 0x1E62 JUMP JUMPDEST DUP1 ISZERO PUSH2 0xBB2 JUMPI DUP1 PUSH1 0x1F LT PUSH2 0xB87 JUMPI PUSH2 0x100 DUP1 DUP4 SLOAD DIV MUL DUP4 MSTORE SWAP2 PUSH1 0x20 ADD SWAP2 PUSH2 0xBB2 JUMP JUMPDEST DUP3 ADD SWAP2 SWAP1 PUSH1 0x0 MSTORE PUSH1 0x20 PUSH1 0x0 KECCAK256 SWAP1 JUMPDEST DUP2 SLOAD DUP2 MSTORE SWAP1 PUSH1 0x1 ADD SWAP1 PUSH1 0x20 ADD DUP1 DUP4 GT PUSH2 0xB95 JUMPI DUP3 SWAP1 SUB PUSH1 0x1F AND DUP3 ADD SWAP2 JUMPDEST POP POP POP POP POP DUP2 JUMP JUMPDEST PUSH1 0x0 PUSH1 0x2 PUSH1 0x0 DUP5 PUSH20 0xFFFFFFFFFFFFFFFFFFFFFFFFFFFFFFFFFFFFFFFF AND PUSH20 0xFFFFFFFFFFFFFFFFFFFFFFFFFFFFFFFFFFFFFFFF AND DUP2 MSTORE PUSH1 0x20 ADD SWAP1 DUP2 MSTORE PUSH1 0x20 ADD PUSH1 0x0 KECCAK256 PUSH1 0x0 DUP4 PUSH20 0xFFFFFFFFFFFFFFFFFFFFFFFFFFFFFFFFFFFFFFFF AND PUSH20 0xFFFFFFFFFFFFFFFFFFFFFFFFFFFFFFFFFFFFFFFF AND DUP2 MSTORE PUSH1 0x20 ADD SWAP1 DUP2 MSTORE PUSH1 0x20 ADD PUSH1 0x0 KECCAK256 SLOAD SWAP1 POP SWAP3 SWAP2 POP POP JUMP JUMPDEST PUSH2 0xC49 PUSH2 0xCE2 JUMP JUMPDEST PUSH20 0xFFFFFFFFFFFFFFFFFFFFFFFFFFFFFFFFFFFFFFFF AND PUSH1 0x0 DUP1 SLOAD SWAP1 PUSH2 0x100 EXP SWAP1 DIV PUSH20 0xFFFFFFFFFFFFFFFFFFFFFFFFFFFFFFFFFFFFFFFF AND PUSH20 0xFFFFFFFFFFFFFFFFFFFFFFFFFFFFFFFFFFFFFFFF AND EQ PUSH2 0xCD6 JUMPI PUSH1 0x40 MLOAD PUSH32 0x8C379A000000000000000000000000000000000000000000000000000000000 DUP2 MSTORE PUSH1 0x4 ADD PUSH2 0xCCD SWAP1 PUSH2 0x1C7E JUMP JUMPDEST PUSH1 0x40 MLOAD DUP1 SWAP2 SUB SWAP1 REVERT JUMPDEST PUSH2 0xCDF DUP2 PUSH2 0x1533 JUMP JUMPDEST POP JUMP JUMPDEST PUSH1 0x0 CALLER SWAP1 POP SWAP1 JUMP JUMPDEST PUSH1 0x0 PUSH20 0xFFFFFFFFFFFFFFFFFFFFFFFFFFFFFFFFFFFFFFFF AND DUP4 PUSH20 0xFFFFFFFFFFFFFFFFFFFFFFFFFFFFFFFFFFFFFFFF AND EQ ISZERO PUSH2 0xD5A JUMPI PUSH1 0x40 MLOAD PUSH32 0x8C379A000000000000000000000000000000000000000000000000000000000 DUP2 MSTORE PUSH1 0x4 ADD PUSH2 0xD51 SWAP1 PUSH2 0x1BFE JUMP JUMPDEST PUSH1 0x40 MLOAD DUP1 SWAP2 SUB SWAP1 REVERT JUMPDEST PUSH1 0x0 PUSH20 0xFFFFFFFFFFFFFFFFFFFFFFFFFFFFFFFFFFFFFFFF AND DUP3 PUSH20 0xFFFFFFFFFFFFFFFFFFFFFFFFFFFFFFFFFFFFFFFF AND EQ ISZERO PUSH2 0xDCA JUMPI PUSH1 0x40 MLOAD PUSH32 0x8C379A000000000000000000000000000000000000000000000000000000000 DUP2 MSTORE PUSH1 0x4 ADD PUSH2 0xDC1 SWAP1 PUSH2 0x1CDE JUMP JUMPDEST PUSH1 0x40 MLOAD DUP1 SWAP2 SUB SWAP1 REVERT JUMPDEST DUP1 PUSH1 0x2 PUSH1 0x0 DUP6 PUSH20 0xFFFFFFFFFFFFFFFFFFFFFFFFFFFFFFFFFFFFFFFF AND PUSH20 0xFFFFFFFFFFFFFFFFFFFFFFFFFFFFFFFFFFFFFFFF AND DUP2 MSTORE PUSH1 0x20 ADD SWAP1 DUP2 MSTORE PUSH1 0x20 ADD PUSH1 0x0 KECCAK256 PUSH1 0x0 DUP5 PUSH20 0xFFFFFFFFFFFFFFFFFFFFFFFFFFFFFFFFFFFFFFFF AND PUSH20 0xFFFFFFFFFFFFFFFFFFFFFFFFFFFFFFFFFFFFFFFF AND DUP2 MSTORE PUSH1 0x20 ADD SWAP1 DUP2 MSTORE PUSH1 0x20 ADD PUSH1 0x0 KECCAK256 DUP2 SWAP1 SSTORE POP DUP2 PUSH20 0xFFFFFFFFFFFFFFFFFFFFFFFFFFFFFFFFFFFFFFFF AND DUP4 PUSH20 0xFFFFFFFFFFFFFFFFFFFFFFFFFFFFFFFFFFFFFFFF AND PUSH32 0x8C5BE1E5EBEC7D5BD14F71427D1E84F3DD0314C0F7B2291E5B200AC8C7C3B925 DUP4 PUSH1 0x40 MLOAD PUSH2 0xEA8 SWAP2 SWAP1 PUSH2 0x1CFE JUMP JUMPDEST PUSH1 0x40 MLOAD DUP1 SWAP2 SUB SWAP1 LOG3 POP POP POP JUMP JUMPDEST PUSH1 0x0 PUSH20 0xFFFFFFFFFFFFFFFFFFFFFFFFFFFFFFFFFFFFFFFF AND DUP4 PUSH20 0xFFFFFFFFFFFFFFFFFFFFFFFFFFFFFFFFFFFFFFFF AND EQ ISZERO PUSH2 0xF25 JUMPI PUSH1 0x40 MLOAD PUSH32 0x8C379A000000000000000000000000000000000000000000000000000000000 DUP2 MSTORE PUSH1 0x4 ADD PUSH2 0xF1C SWAP1 PUSH2 0x1BDE JUMP JUMPDEST PUSH1 0x40 MLOAD DUP1 SWAP2 SUB SWAP1 REVERT JUMPDEST PUSH1 0x0 PUSH20 0xFFFFFFFFFFFFFFFFFFFFFFFFFFFFFFFFFFFFFFFF AND DUP3 PUSH20 0xFFFFFFFFFFFFFFFFFFFFFFFFFFFFFFFFFFFFFFFF AND EQ ISZERO PUSH2 0xF95 JUMPI PUSH1 0x40 MLOAD PUSH32 0x8C379A000000000000000000000000000000000000000000000000000000000 DUP2 MSTORE PUSH1 0x4 ADD PUSH2 0xF8C SWAP1 PUSH2 0x1C9E JUMP JUMPDEST PUSH1 0x40 MLOAD DUP1 SWAP2 SUB SWAP1 REVERT JUMPDEST PUSH2 0x1001 DUP2 PUSH1 0x40 MLOAD DUP1 PUSH1 0x60 ADD PUSH1 0x40 MSTORE DUP1 PUSH1 0x26 DUP2 MSTORE PUSH1 0x20 ADD PUSH2 0x1F53 PUSH1 0x26 SWAP2 CODECOPY PUSH1 0x1 PUSH1 0x0 DUP8 PUSH20 0xFFFFFFFFFFFFFFFFFFFFFFFFFFFFFFFFFFFFFFFF AND PUSH20 0xFFFFFFFFFFFFFFFFFFFFFFFFFFFFFFFFFFFFFFFF AND DUP2 MSTORE PUSH1 0x20 ADD SWAP1 DUP2 MSTORE PUSH1 0x20 ADD PUSH1 0x0 KECCAK256 SLOAD PUSH2 0x1143 SWAP1 SWAP3 SWAP2 SWAP1 PUSH4 0xFFFFFFFF AND JUMP JUMPDEST PUSH1 0x1 PUSH1 0x0 DUP6 PUSH20 0xFFFFFFFFFFFFFFFFFFFFFFFFFFFFFFFFFFFFFFFF AND PUSH20 0xFFFFFFFFFFFFFFFFFFFFFFFFFFFFFFFFFFFFFFFF AND DUP2 MSTORE PUSH1 0x20 ADD SWAP1 DUP2 MSTORE PUSH1 0x20 ADD PUSH1 0x0 KECCAK256 DUP2 SWAP1 SSTORE POP PUSH2 0x1096 DUP2 PUSH1 0x1 PUSH1 0x0 DUP6 PUSH20 0xFFFFFFFFFFFFFFFFFFFFFFFFFFFFFFFFFFFFFFFF AND PUSH20 0xFFFFFFFFFFFFFFFFFFFFFFFFFFFFFFFFFFFFFFFF AND DUP2 MSTORE PUSH1 0x20 ADD SWAP1 DUP2 MSTORE PUSH1 0x20 ADD PUSH1 0x0 KECCAK256 SLOAD PUSH2 0x11A7 SWAP1 SWAP2 SWAP1 PUSH4 0xFFFFFFFF AND JUMP JUMPDEST PUSH1 0x1 PUSH1 0x0 DUP5 PUSH20 0xFFFFFFFFFFFFFFFFFFFFFFFFFFFFFFFFFFFFFFFF AND PUSH20 0xFFFFFFFFFFFFFFFFFFFFFFFFFFFFFFFFFFFFFFFF AND DUP2 MSTORE PUSH1 0x20 ADD SWAP1 DUP2 MSTORE PUSH1 0x20 ADD PUSH1 0x0 KECCAK256 DUP2 SWAP1 SSTORE POP DUP2 PUSH20 0xFFFFFFFFFFFFFFFFFFFFFFFFFFFFFFFFFFFFFFFF AND DUP4 PUSH20 0xFFFFFFFFFFFFFFFFFFFFFFFFFFFFFFFFFFFFFFFF AND PUSH32 0xDDF252AD1BE2C89B69C2B068FC378DAA952BA7F163C4A11628F55A4DF523B3EF DUP4 PUSH1 0x40 MLOAD PUSH2 0x1136 SWAP2 SWAP1 PUSH2 0x1CFE JUMP JUMPDEST PUSH1 0x40 MLOAD DUP1 SWAP2 SUB SWAP1 LOG3 POP POP POP JUMP JUMPDEST PUSH1 0x0 DUP4 DUP4 GT ISZERO DUP3 SWAP1 PUSH2 0x118B JUMPI PUSH1 0x40 MLOAD PUSH32 0x8C379A000000000000000000000000000000000000000000000000000000000 DUP2 MSTORE PUSH1 0x4 ADD PUSH2 0x1182 SWAP2 SWAP1 PUSH2 0x1BBC JUMP JUMPDEST PUSH1 0x40 MLOAD DUP1 SWAP2 SUB SWAP1 REVERT JUMPDEST POP PUSH1 0x0 DUP4 DUP6 PUSH2 0x119A SWAP2 SWAP1 PUSH2 0x1DA6 JUMP JUMPDEST SWAP1 POP DUP1 SWAP2 POP POP SWAP4 SWAP3 POP POP POP JUMP JUMPDEST PUSH1 0x0 DUP1 DUP3 DUP5 PUSH2 0x11B6 SWAP2 SWAP1 PUSH2 0x1D50 JUMP JUMPDEST SWAP1 POP DUP4 DUP2 LT ISZERO PUSH2 0x11FB JUMPI PUSH1 0x40 MLOAD PUSH32 0x8C379A000000000000000000000000000000000000000000000000000000000 DUP2 MSTORE PUSH1 0x4 ADD PUSH2 0x11F2 SWAP1 PUSH2 0x1C3E JUMP JUMPDEST PUSH1 0x40 MLOAD DUP1 SWAP2 SUB SWAP1 REVERT JUMPDEST DUP1 SWAP2 POP POP SWAP3 SWAP2 POP POP JUMP JUMPDEST PUSH1 0x0 PUSH20 0xFFFFFFFFFFFFFFFFFFFFFFFFFFFFFFFFFFFFFFFF AND DUP3 PUSH20 0xFFFFFFFFFFFFFFFFFFFFFFFFFFFFFFFFFFFFFFFF AND EQ ISZERO PUSH2 0x1275 JUMPI PUSH1 0x40 MLOAD PUSH32 0x8C379A000000000000000000000000000000000000000000000000000000000 DUP2 MSTORE PUSH1 0x4 ADD PUSH2 0x126C SWAP1 PUSH2 0x1CBE JUMP JUMPDEST PUSH1 0x40 MLOAD DUP1 SWAP2 SUB SWAP1 REVERT JUMPDEST PUSH2 0x12E1 DUP2 PUSH1 0x40 MLOAD DUP1 PUSH1 0x60 ADD PUSH1 0x40 MSTORE DUP1 PUSH1 0x22 DUP2 MSTORE PUSH1 0x20 ADD PUSH2 0x1F9E PUSH1 0x22 SWAP2 CODECOPY PUSH1 0x1 PUSH1 0x0 DUP7 PUSH20 0xFFFFFFFFFFFFFFFFFFFFFFFFFFFFFFFFFFFFFFFF AND PUSH20 0xFFFFFFFFFFFFFFFFFFFFFFFFFFFFFFFFFFFFFFFF AND DUP2 MSTORE PUSH1 0x20 ADD SWAP1 DUP2 MSTORE PUSH1 0x20 ADD PUSH1 0x0 KECCAK256 SLOAD PUSH2 0x1143 SWAP1 SWAP3 SWAP2 SWAP1 PUSH4 0xFFFFFFFF AND JUMP JUMPDEST PUSH1 0x1 PUSH1 0x0 DUP5 PUSH20 0xFFFFFFFFFFFFFFFFFFFFFFFFFFFFFFFFFFFFFFFF AND PUSH20 0xFFFFFFFFFFFFFFFFFFFFFFFFFFFFFFFFFFFFFFFF AND DUP2 MSTORE PUSH1 0x20 ADD SWAP1 DUP2 MSTORE PUSH1 0x20 ADD PUSH1 0x0 KECCAK256 DUP2 SWAP1 SSTORE POP PUSH2 0x1339 DUP2 PUSH1 0x3 SLOAD PUSH2 0x1660 SWAP1 SWAP2 SWAP1 PUSH4 0xFFFFFFFF AND JUMP JUMPDEST PUSH1 0x3 DUP2 SWAP1 SSTORE POP PUSH1 0x0 PUSH20 0xFFFFFFFFFFFFFFFFFFFFFFFFFFFFFFFFFFFFFFFF AND DUP3 PUSH20 0xFFFFFFFFFFFFFFFFFFFFFFFFFFFFFFFFFFFFFFFF AND PUSH32 0xDDF252AD1BE2C89B69C2B068FC378DAA952BA7F163C4A11628F55A4DF523B3EF DUP4 PUSH1 0x40 MLOAD PUSH2 0x139D SWAP2 SWAP1 PUSH2 0x1CFE JUMP JUMPDEST PUSH1 0x40 MLOAD DUP1 SWAP2 SUB SWAP1 LOG3 POP POP JUMP JUMPDEST PUSH1 0x0 PUSH20 0xFFFFFFFFFFFFFFFFFFFFFFFFFFFFFFFFFFFFFFFF AND DUP3 PUSH20 0xFFFFFFFFFFFFFFFFFFFFFFFFFFFFFFFFFFFFFFFF AND EQ ISZERO PUSH2 0x1419 JUMPI PUSH1 0x40 MLOAD PUSH32 0x8C379A000000000000000000000000000000000000000000000000000000000 DUP2 MSTORE PUSH1 0x4 ADD PUSH2 0x1410 SWAP1 PUSH2 0x1C5E JUMP JUMPDEST PUSH1 0x40 MLOAD DUP1 SWAP2 SUB SWAP1 REVERT JUMPDEST PUSH2 0x142E DUP2 PUSH1 0x3 SLOAD PUSH2 0x11A7 SWAP1 SWAP2 SWAP1 PUSH4 0xFFFFFFFF AND JUMP JUMPDEST PUSH1 0x3 DUP2 SWAP1 SSTORE POP PUSH2 0x1486 DUP2 PUSH1 0x1 PUSH1 0x0 DUP6 PUSH20 0xFFFFFFFFFFFFFFFFFFFFFFFFFFFFFFFFFFFFFFFF AND PUSH20 0xFFFFFFFFFFFFFFFFFFFFFFFFFFFFFFFFFFFFFFFF AND DUP2 MSTORE PUSH1 0x20 ADD SWAP1 DUP2 MSTORE PUSH1 0x20 ADD PUSH1 0x0 KECCAK256 SLOAD PUSH2 0x11A7 SWAP1 SWAP2 SWAP1 PUSH4 0xFFFFFFFF AND JUMP JUMPDEST PUSH1 0x1 PUSH1 0x0 DUP5 PUSH20 0xFFFFFFFFFFFFFFFFFFFFFFFFFFFFFFFFFFFFFFFF AND PUSH20 0xFFFFFFFFFFFFFFFFFFFFFFFFFFFFFFFFFFFFFFFF AND DUP2 MSTORE PUSH1 0x20 ADD SWAP1 DUP2 MSTORE PUSH1 0x20 ADD PUSH1 0x0 KECCAK256 DUP2 SWAP1 SSTORE POP DUP2 PUSH20 0xFFFFFFFFFFFFFFFFFFFFFFFFFFFFFFFFFFFFFFFF AND PUSH1 0x0 PUSH20 0xFFFFFFFFFFFFFFFFFFFFFFFFFFFFFFFFFFFFFFFF AND PUSH32 0xDDF252AD1BE2C89B69C2B068FC378DAA952BA7F163C4A11628F55A4DF523B3EF DUP4 PUSH1 0x40 MLOAD PUSH2 0x1527 SWAP2 SWAP1 PUSH2 0x1CFE JUMP JUMPDEST PUSH1 0x40 MLOAD DUP1 SWAP2 SUB SWAP1 LOG3 POP POP JUMP JUMPDEST PUSH1 0x0 PUSH20 0xFFFFFFFFFFFFFFFFFFFFFFFFFFFFFFFFFFFFFFFF AND DUP2 PUSH20 0xFFFFFFFFFFFFFFFFFFFFFFFFFFFFFFFFFFFFFFFF AND EQ ISZERO PUSH2 0x15A3 JUMPI PUSH1 0x40 MLOAD PUSH32 0x8C379A000000000000000000000000000000000000000000000000000000000 DUP2 MSTORE PUSH1 0x4 ADD PUSH2 0x159A SWAP1 PUSH2 0x1C1E JUMP JUMPDEST PUSH1 0x40 MLOAD DUP1 SWAP2 SUB SWAP1 REVERT JUMPDEST DUP1 PUSH20 0xFFFFFFFFFFFFFFFFFFFFFFFFFFFFFFFFFFFFFFFF AND PUSH1 0x0 DUP1 SLOAD SWAP1 PUSH2 0x100 EXP SWAP1 DIV PUSH20 0xFFFFFFFFFFFFFFFFFFFFFFFFFFFFFFFFFFFFFFFF AND PUSH20 0xFFFFFFFFFFFFFFFFFFFFFFFFFFFFFFFFFFFFFFFF AND PUSH32 0x8BE0079C531659141344CD1FD0A4F28419497F9722A3DAAFE3B4186F6B6457E0 PUSH1 0x40 MLOAD PUSH1 0x40 MLOAD DUP1 SWAP2 SUB SWAP1 LOG3 DUP1 PUSH1 0x0 DUP1 PUSH2 0x100 EXP DUP2 SLOAD DUP2 PUSH20 0xFFFFFFFFFFFFFFFFFFFFFFFFFFFFFFFFFFFFFFFF MUL NOT AND SWAP1 DUP4 PUSH20 0xFFFFFFFFFFFFFFFFFFFFFFFFFFFFFFFFFFFFFFFF AND MUL OR SWAP1 SSTORE POP POP JUMP JUMPDEST PUSH1 0x0 PUSH2 0x16A2 DUP4 DUP4 PUSH1 0x40 MLOAD DUP1 PUSH1 0x40 ADD PUSH1 0x40 MSTORE DUP1 PUSH1 0x1E DUP2 MSTORE PUSH1 0x20 ADD PUSH32 0x536166654D6174683A207375627472616374696F6E206F766572666C6F770000 DUP2 MSTORE POP PUSH2 0x1143 JUMP JUMPDEST SWAP1 POP SWAP3 SWAP2 POP POP JUMP JUMPDEST PUSH1 0x0 DUP2 CALLDATALOAD SWAP1 POP PUSH2 0x16B9 DUP2 PUSH2 0x1F03 JUMP JUMPDEST SWAP3 SWAP2 POP POP JUMP JUMPDEST PUSH1 0x0 DUP2 CALLDATALOAD SWAP1 POP PUSH2 0x16CE DUP2 PUSH2 0x1F1A JUMP JUMPDEST SWAP3 SWAP2 POP POP JUMP JUMPDEST PUSH1 0x0 PUSH1 0x20 DUP3 DUP5 SUB SLT ISZERO PUSH2 0x16E6 JUMPI PUSH1 0x0 DUP1 REVERT JUMPDEST PUSH1 0x0 PUSH2 0x16F4 DUP5 DUP3 DUP6 ADD PUSH2 0x16AA JUMP JUMPDEST SWAP2 POP POP SWAP3 SWAP2 POP POP JUMP JUMPDEST PUSH1 0x0 DUP1 PUSH1 0x40 DUP4 DUP6 SUB SLT ISZERO PUSH2 0x1710 JUMPI PUSH1 0x0 DUP1 REVERT JUMPDEST PUSH1 0x0 PUSH2 0x171E DUP6 DUP3 DUP7 ADD PUSH2 0x16AA JUMP JUMPDEST SWAP3 POP POP PUSH1 0x20 PUSH2 0x172F DUP6 DUP3 DUP7 ADD PUSH2 0x16AA JUMP JUMPDEST SWAP2 POP POP SWAP3 POP SWAP3 SWAP1 POP JUMP JUMPDEST PUSH1 0x0 DUP1 PUSH1 0x0 PUSH1 0x60 DUP5 DUP7 SUB SLT ISZERO PUSH2 0x174E JUMPI PUSH1 0x0 DUP1 REVERT JUMPDEST PUSH1 0x0 PUSH2 0x175C DUP7 DUP3 DUP8 ADD PUSH2 0x16AA JUMP JUMPDEST SWAP4 POP POP PUSH1 0x20 PUSH2 0x176D DUP7 DUP3 DUP8 ADD PUSH2 0x16AA JUMP JUMPDEST SWAP3 POP POP PUSH1 0x40 PUSH2 0x177E DUP7 DUP3 DUP8 ADD PUSH2 0x16BF JUMP JUMPDEST SWAP2 POP POP SWAP3 POP SWAP3 POP SWAP3 JUMP JUMPDEST PUSH1 0x0 DUP1 PUSH1 0x40 DUP4 DUP6 SUB SLT ISZERO PUSH2 0x179B JUMPI PUSH1 0x0 DUP1 REVERT JUMPDEST PUSH1 0x0 PUSH2 0x17A9 DUP6 DUP3 DUP7 ADD PUSH2 0x16AA JUMP JUMPDEST SWAP3 POP POP PUSH1 0x20 PUSH2 0x17BA DUP6 DUP3 DUP7 ADD PUSH2 0x16BF JUMP JUMPDEST SWAP2 POP POP SWAP3 POP SWAP3 SWAP1 POP JUMP JUMPDEST PUSH1 0x0 PUSH1 0x20 DUP3 DUP5 SUB SLT ISZERO PUSH2 0x17D6 JUMPI PUSH1 0x0 DUP1 REVERT JUMPDEST PUSH1 0x0 PUSH2 0x17E4 DUP5 DUP3 DUP6 ADD PUSH2 0x16BF JUMP JUMPDEST SWAP2 POP POP SWAP3 SWAP2 POP POP JUMP JUMPDEST PUSH2 0x17F6 DUP2 PUSH2 0x1DDA JUMP JUMPDEST DUP3 MSTORE POP POP JUMP JUMPDEST PUSH2 0x1805 DUP2 PUSH2 0x1DEC JUMP JUMPDEST DUP3 MSTORE POP POP JUMP JUMPDEST PUSH1 0x0 PUSH2 0x1816 DUP3 PUSH2 0x1D34 JUMP JUMPDEST PUSH2 0x1820 DUP2 DUP6 PUSH2 0x1D3F JUMP JUMPDEST SWAP4 POP PUSH2 0x1830 DUP2 DUP6 PUSH1 0x20 DUP7 ADD PUSH2 0x1E2F JUMP JUMPDEST PUSH2 0x1839 DUP2 PUSH2 0x1EF2 JUMP JUMPDEST DUP5 ADD SWAP2 POP POP SWAP3 SWAP2 POP POP JUMP JUMPDEST PUSH1 0x0 PUSH2 0x1851 PUSH1 0x25 DUP4 PUSH2 0x1D3F JUMP JUMPDEST SWAP2 POP PUSH32 0x42455032303A207472616E736665722066726F6D20746865207A65726F206164 PUSH1 0x0 DUP4 ADD MSTORE PUSH32 0x6472657373000000000000000000000000000000000000000000000000000000 PUSH1 0x20 DUP4 ADD MSTORE PUSH1 0x40 DUP3 ADD SWAP1 POP SWAP2 SWAP1 POP JUMP JUMPDEST PUSH1 0x0 PUSH2 0x18B7 PUSH1 0x24 DUP4 PUSH2 0x1D3F JUMP JUMPDEST SWAP2 POP PUSH32 0x42455032303A20617070726F76652066726F6D20746865207A65726F20616464 PUSH1 0x0 DUP4 ADD MSTORE PUSH32 0x7265737300000000000000000000000000000000000000000000000000000000 PUSH1 0x20 DUP4 ADD MSTORE PUSH1 0x40 DUP3 ADD SWAP1 POP SWAP2 SWAP1 POP JUMP JUMPDEST PUSH1 0x0 PUSH2 0x191D PUSH1 0x26 DUP4 PUSH2 0x1D3F JUMP JUMPDEST SWAP2 POP PUSH32 0x4F776E61626C653A206E6577206F776E657220697320746865207A65726F2061 PUSH1 0x0 DUP4 ADD MSTORE PUSH32 0x6464726573730000000000000000000000000000000000000000000000000000 PUSH1 0x20 DUP4 ADD MSTORE PUSH1 0x40 DUP3 ADD SWAP1 POP SWAP2 SWAP1 POP JUMP JUMPDEST PUSH1 0x0 PUSH2 0x1983 PUSH1 0x1B DUP4 PUSH2 0x1D3F JUMP JUMPDEST SWAP2 POP PUSH32 0x536166654D6174683A206164646974696F6E206F766572666C6F770000000000 PUSH1 0x0 DUP4 ADD MSTORE PUSH1 0x20 DUP3 ADD SWAP1 POP SWAP2 SWAP1 POP JUMP JUMPDEST PUSH1 0x0 PUSH2 0x19C3 PUSH1 0x1F DUP4 PUSH2 0x1D3F JUMP JUMPDEST SWAP2 POP PUSH32 0x42455032303A206D696E7420746F20746865207A65726F206164647265737300 PUSH1 0x0 DUP4 ADD MSTORE PUSH1 0x20 DUP3 ADD SWAP1 POP SWAP2 SWAP1 POP JUMP JUMPDEST PUSH1 0x0 PUSH2 0x1A03 PUSH1 0x20 DUP4 PUSH2 0x1D3F JUMP JUMPDEST SWAP2 POP PUSH32 0x4F776E61626C653A2063616C6C6572206973206E6F7420746865206F776E6572 PUSH1 0x0 DUP4 ADD MSTORE PUSH1 0x20 DUP3 ADD SWAP1 POP SWAP2 SWAP1 POP JUMP JUMPDEST PUSH1 0x0 PUSH2 0x1A43 PUSH1 0x23 DUP4 PUSH2 0x1D3F JUMP JUMPDEST SWAP2 POP PUSH32 0x42455032303A207472616E7366657220746F20746865207A65726F2061646472 PUSH1 0x0 DUP4 ADD MSTORE PUSH32 0x6573730000000000000000000000000000000000000000000000000000000000 PUSH1 0x20 DUP4 ADD MSTORE PUSH1 0x40 DUP3 ADD SWAP1 POP SWAP2 SWAP1 POP JUMP JUMPDEST PUSH1 0x0 PUSH2 0x1AA9 PUSH1 0x21 DUP4 PUSH2 0x1D3F JUMP JUMPDEST SWAP2 POP PUSH32 0x42455032303A206275726E2066726F6D20746865207A65726F20616464726573 PUSH1 0x0 DUP4 ADD MSTORE PUSH32 0x7300000000000000000000000000000000000000000000000000000000000000 PUSH1 0x20 DUP4 ADD MSTORE PUSH1 0x40 DUP3 ADD SWAP1 POP SWAP2 SWAP1 POP JUMP JUMPDEST PUSH1 0x0 PUSH2 0x1B0F PUSH1 0x22 DUP4 PUSH2 0x1D3F JUMP JUMPDEST SWAP2 POP PUSH32 0x42455032303A20617070726F766520746F20746865207A65726F206164647265 PUSH1 0x0 DUP4 ADD MSTORE PUSH32 0x7373000000000000000000000000000000000000000000000000000000000000 PUSH1 0x20 DUP4 ADD MSTORE PUSH1 0x40 DUP3 ADD SWAP1 POP SWAP2 SWAP1 POP JUMP JUMPDEST PUSH2 0x1B71 DUP2 PUSH2 0x1E18 JUMP JUMPDEST DUP3 MSTORE POP POP JUMP JUMPDEST PUSH2 0x1B80 DUP2 PUSH2 0x1E22 JUMP JUMPDEST DUP3 MSTORE POP POP JUMP JUMPDEST PUSH1 0x0 PUSH1 0x20 DUP3 ADD SWAP1 POP PUSH2 0x1B9B PUSH1 0x0 DUP4 ADD DUP5 PUSH2 0x17ED JUMP JUMPDEST SWAP3 SWAP2 POP POP JUMP JUMPDEST PUSH1 0x0 PUSH1 0x20 DUP3 ADD SWAP1 POP PUSH2 0x1BB6 PUSH1 0x0 DUP4 ADD DUP5 PUSH2 0x17FC JUMP JUMPDEST SWAP3 SWAP2 POP POP JUMP JUMPDEST PUSH1 0x0 PUSH1 0x20 DUP3 ADD SWAP1 POP DUP2 DUP2 SUB PUSH1 0x0 DUP4 ADD MSTORE PUSH2 0x1BD6 DUP2 DUP5 PUSH2 0x180B JUMP JUMPDEST SWAP1 POP SWAP3 SWAP2 POP POP JUMP JUMPDEST PUSH1 0x0 PUSH1 0x20 DUP3 ADD SWAP1 POP DUP2 DUP2 SUB PUSH1 0x0 DUP4 ADD MSTORE PUSH2 0x1BF7 DUP2 PUSH2 0x1844 JUMP JUMPDEST SWAP1 POP SWAP2 SWAP1 POP JUMP JUMPDEST PUSH1 0x0 PUSH1 0x20 DUP3 ADD SWAP1 POP DUP2 DUP2 SUB PUSH1 0x0 DUP4 ADD MSTORE PUSH2 0x1C17 DUP2 PUSH2 0x18AA JUMP JUMPDEST SWAP1 POP SWAP2 SWAP1 POP JUMP JUMPDEST PUSH1 0x0 PUSH1 0x20 DUP3 ADD SWAP1 POP DUP2 DUP2 SUB PUSH1 0x0 DUP4 ADD MSTORE PUSH2 0x1C37 DUP2 PUSH2 0x1910 JUMP JUMPDEST SWAP1 POP SWAP2 SWAP1 POP JUMP JUMPDEST PUSH1 0x0 PUSH1 0x20 DUP3 ADD SWAP1 POP DUP2 DUP2 SUB PUSH1 0x0 DUP4 ADD MSTORE PUSH2 0x1C57 DUP2 PUSH2 0x1976 JUMP JUMPDEST SWAP1 POP SWAP2 SWAP1 POP JUMP JUMPDEST PUSH1 0x0 PUSH1 0x20 DUP3 ADD SWAP1 POP DUP2 DUP2 SUB PUSH1 0x0 DUP4 ADD MSTORE PUSH2 0x1C77 DUP2 PUSH2 0x19B6 JUMP JUMPDEST SWAP1 POP SWAP2 SWAP1 POP JUMP JUMPDEST PUSH1 0x0 PUSH1 0x20 DUP3 ADD SWAP1 POP DUP2 DUP2 SUB PUSH1 0x0 DUP4 ADD MSTORE PUSH2 0x1C97 DUP2 PUSH2 0x19F6 JUMP JUMPDEST SWAP1 POP SWAP2 SWAP1 POP JUMP JUMPDEST PUSH1 0x0 PUSH1 0x20 DUP3 ADD SWAP1 POP DUP2 DUP2 SUB PUSH1 0x0 DUP4 ADD MSTORE PUSH2 0x1CB7 DUP2 PUSH2 0x1A36 JUMP JUMPDEST SWAP1 POP SWAP2 SWAP1 POP JUMP JUMPDEST PUSH1 0x0 PUSH1 0x20 DUP3 ADD SWAP1 POP DUP2 DUP2 SUB PUSH1 0x0 DUP4 ADD MSTORE PUSH2 0x1CD7 DUP2 PUSH2 0x1A9C JUMP JUMPDEST SWAP1 POP SWAP2 SWAP1 POP JUMP JUMPDEST PUSH1 0x0 PUSH1 0x20 DUP3 ADD SWAP1 POP DUP2 DUP2 SUB PUSH1 0x0 DUP4 ADD MSTORE PUSH2 0x1CF7 DUP2 PUSH2 0x1B02 JUMP JUMPDEST SWAP1 POP SWAP2 SWAP1 POP JUMP JUMPDEST PUSH1 0x0 PUSH1 0x20 DUP3 ADD SWAP1 POP PUSH2 0x1D13 PUSH1 0x0 DUP4 ADD DUP5 PUSH2 0x1B68 JUMP JUMPDEST SWAP3 SWAP2 POP POP JUMP JUMPDEST PUSH1 0x0 PUSH1 0x20 DUP3 ADD SWAP1 POP PUSH2 0x1D2E PUSH1 0x0 DUP4 ADD DUP5 PUSH2 0x1B77 JUMP JUMPDEST SWAP3 SWAP2 POP POP JUMP JUMPDEST PUSH1 0x0 DUP2 MLOAD SWAP1 POP SWAP2 SWAP1 POP JUMP JUMPDEST PUSH1 0x0 DUP3 DUP3 MSTORE PUSH1 0x20 DUP3 ADD SWAP1 POP SWAP3 SWAP2 POP POP JUMP JUMPDEST PUSH1 0x0 PUSH2 0x1D5B DUP3 PUSH2 0x1E18 JUMP JUMPDEST SWAP2 POP PUSH2 0x1D66 DUP4 PUSH2 0x1E18 JUMP JUMPDEST SWAP3 POP DUP3 PUSH32 0xFFFFFFFFFFFFFFFFFFFFFFFFFFFFFFFFFFFFFFFFFFFFFFFFFFFFFFFFFFFFFFFF SUB DUP3 GT ISZERO PUSH2 0x1D9B JUMPI PUSH2 0x1D9A PUSH2 0x1E94 JUMP JUMPDEST JUMPDEST DUP3 DUP3 ADD SWAP1 POP SWAP3 SWAP2 POP POP JUMP JUMPDEST PUSH1 0x0 PUSH2 0x1DB1 DUP3 PUSH2 0x1E18 JUMP JUMPDEST SWAP2 POP PUSH2 0x1DBC DUP4 PUSH2 0x1E18 JUMP JUMPDEST SWAP3 POP DUP3 DUP3 LT ISZERO PUSH2 0x1DCF JUMPI PUSH2 0x1DCE PUSH2 0x1E94 JUMP JUMPDEST JUMPDEST DUP3 DUP3 SUB SWAP1 POP SWAP3 SWAP2 POP POP JUMP JUMPDEST PUSH1 0x0 PUSH2 0x1DE5 DUP3 PUSH2 0x1DF8 JUMP JUMPDEST SWAP1 POP SWAP2 SWAP1 POP JUMP JUMPDEST PUSH1 0x0 DUP2 ISZERO ISZERO SWAP1 POP SWAP2 SWAP1 POP JUMP JUMPDEST PUSH1 0x0 PUSH20 0xFFFFFFFFFFFFFFFFFFFFFFFFFFFFFFFFFFFFFFFF DUP3 AND SWAP1 POP SWAP2 SWAP1 POP JUMP JUMPDEST PUSH1 0x0 DUP2 SWAP1 POP SWAP2 SWAP1 POP JUMP JUMPDEST PUSH1 0x0 PUSH1 0xFF DUP3 AND SWAP1 POP SWAP2 SWAP1 POP JUMP JUMPDEST PUSH1 0x0 JUMPDEST DUP4 DUP2 LT ISZERO PUSH2 0x1E4D JUMPI DUP1 DUP3 ADD MLOAD DUP2 DUP5 ADD MSTORE PUSH1 0x20 DUP2 ADD SWAP1 POP PUSH2 0x1E32 JUMP JUMPDEST DUP4 DUP2 GT ISZERO PUSH2 0x1E5C JUMPI PUSH1 0x0 DUP5 DUP5 ADD MSTORE JUMPDEST POP POP POP POP JUMP JUMPDEST PUSH1 0x0 PUSH1 0x2 DUP3 DIV SWAP1 POP PUSH1 0x1 DUP3 AND DUP1 PUSH2 0x1E7A JUMPI PUSH1 0x7F DUP3 AND SWAP2 POP JUMPDEST PUSH1 0x20 DUP3 LT DUP2 EQ ISZERO PUSH2 0x1E8E JUMPI PUSH2 0x1E8D PUSH2 0x1EC3 JUMP JUMPDEST JUMPDEST POP SWAP2 SWAP1 POP JUMP JUMPDEST PUSH32 0x4E487B7100000000000000000000000000000000000000000000000000000000 PUSH1 0x0 MSTORE PUSH1 0x11 PUSH1 0x4 MSTORE PUSH1 0x24 PUSH1 0x0 REVERT JUMPDEST PUSH32 0x4E487B7100000000000000000000000000000000000000000000000000000000 PUSH1 0x0 MSTORE PUSH1 0x22 PUSH1 0x4 MSTORE PUSH1 0x24 PUSH1 0x0 REVERT JUMPDEST PUSH1 0x0 PUSH1 0x1F NOT PUSH1 0x1F DUP4 ADD AND SWAP1 POP SWAP2 SWAP1 POP JUMP JUMPDEST PUSH2 0x1F0C DUP2 PUSH2 0x1DDA JUMP JUMPDEST DUP2 EQ PUSH2 0x1F17 JUMPI PUSH1 0x0 DUP1 REVERT JUMPDEST POP JUMP JUMPDEST PUSH2 0x1F23 DUP2 PUSH2 0x1E18 JUMP JUMPDEST DUP2 EQ PUSH2 0x1F2E JUMPI PUSH1 0x0 DUP1 REVERT JUMPDEST POP JUMP INVALID PUSH21 0x72616E7366657220616D6F756E7420657863656564 PUSH20 0x20616C6C6F77616E636542455032303A20747261 PUSH15 0x7366657220616D6F756E7420657863 PUSH6 0x656473206261 PUSH13 0x616E636542455032303A206465 PUSH4 0x72656173 PUSH6 0x6420616C6C6F PUSH24 0x616E63652062656C6F77207A65726F42455032303A206275 PUSH19 0x6E20616D6F756E742065786365656473206261 PUSH13 0x616E6365A26469706673582212 KECCAK256 0x1F MOD 0xB5 0x5F ADDMOD 0xCB 0xEF SAR 0xF8 DUP16 0xC1 0xFC 0xAE 0xD3 0x49 0xC6 CALLDATACOPY DUP14 POP SWAP15 0xDF DIV DUP10 ADD 0xCB PUSH24 0x4F0B043F932864736F6C6343000800003300000000000000 "
				},
				"gasEstimates": {
					"creation": {
						"codeDepositCost": "1636200",
						"executionCost": "infinite",
						"totalCost": "infinite"
					},
					"external": {
						"_decimals()": "1194",
						"_name()": "infinite",
						"_symbol()": "infinite",
						"allowance(address,address)": "infinite",
						"approve(address,uint256)": "infinite",
						"balanceOf(address)": "1630",
						"burn(uint256)": "infinite",
						"decimals()": "1291",
						"decreaseAllowance(address,uint256)": "infinite",
						"getOwner()": "1280",
						"increaseAllowance(address,uint256)": "infinite",
						"mint(uint256)": "infinite",
						"name()": "infinite",
						"owner()": "1267",
						"renounceOwnership()": "24402",
						"symbol()": "infinite",
						"totalSupply()": "1205",
						"transfer(address,uint256)": "infinite",
						"transferFrom(address,address,uint256)": "infinite",
						"transferOwnership(address)": "24779"
					},
					"internal": {
						"_approve(address,address,uint256)": "infinite",
						"_burn(address,uint256)": "infinite",
						"_burnFrom(address,uint256)": "infinite",
						"_mint(address,uint256)": "infinite",
						"_transfer(address,address,uint256)": "infinite"
					}
				},
				"methodIdentifiers": {
					"_decimals()": "32424aa3",
					"_name()": "d28d8852",
					"_symbol()": "b09f1266",
					"allowance(address,address)": "dd62ed3e",
					"approve(address,uint256)": "095ea7b3",
					"balanceOf(address)": "70a08231",
					"burn(uint256)": "42966c68",
					"decimals()": "313ce567",
					"decreaseAllowance(address,uint256)": "a457c2d7",
					"getOwner()": "893d20e8",
					"increaseAllowance(address,uint256)": "39509351",
					"mint(uint256)": "a0712d68",
					"name()": "06fdde03",
					"owner()": "8da5cb5b",
					"renounceOwnership()": "715018a6",
					"symbol()": "95d89b41",
					"totalSupply()": "18160ddd",
					"transfer(address,uint256)": "a9059cbb",
					"transferFrom(address,address,uint256)": "23b872dd",
					"transferOwnership(address)": "f2fde38b"
				}
			},
			"storageLayout": {
				"storage": [
					{
						"astId": 327,
						"contract": "atta-movies/ERC20/busd.sol:ERC20Token",
						"label": "_owner",
						"offset": 0,
						"slot": "0",
						"type": "t_address"
					},
					{
						"astId": 452,
						"contract": "atta-movies/ERC20/busd.sol:ERC20Token",
						"label": "_balances",
						"offset": 0,
						"slot": "1",
						"type": "t_mapping(t_address,t_uint256)"
					},
					{
						"astId": 458,
						"contract": "atta-movies/ERC20/busd.sol:ERC20Token",
						"label": "_allowances",
						"offset": 0,
						"slot": "2",
						"type": "t_mapping(t_address,t_mapping(t_address,t_uint256))"
					},
					{
						"astId": 460,
						"contract": "atta-movies/ERC20/busd.sol:ERC20Token",
						"label": "_totalSupply",
						"offset": 0,
						"slot": "3",
						"type": "t_uint256"
					},
					{
						"astId": 462,
						"contract": "atta-movies/ERC20/busd.sol:ERC20Token",
						"label": "_decimals",
						"offset": 0,
						"slot": "4",
						"type": "t_uint8"
					},
					{
						"astId": 464,
						"contract": "atta-movies/ERC20/busd.sol:ERC20Token",
						"label": "_symbol",
						"offset": 0,
						"slot": "5",
						"type": "t_string_storage"
					},
					{
						"astId": 466,
						"contract": "atta-movies/ERC20/busd.sol:ERC20Token",
						"label": "_name",
						"offset": 0,
						"slot": "6",
						"type": "t_string_storage"
					}
				],
				"types": {
					"t_address": {
						"encoding": "inplace",
						"label": "address",
						"numberOfBytes": "20"
					},
					"t_mapping(t_address,t_mapping(t_address,t_uint256))": {
						"encoding": "mapping",
						"key": "t_address",
						"label": "mapping(address => mapping(address => uint256))",
						"numberOfBytes": "32",
						"value": "t_mapping(t_address,t_uint256)"
					},
					"t_mapping(t_address,t_uint256)": {
						"encoding": "mapping",
						"key": "t_address",
						"label": "mapping(address => uint256)",
						"numberOfBytes": "32",
						"value": "t_uint256"
					},
					"t_string_storage": {
						"encoding": "bytes",
						"label": "string",
						"numberOfBytes": "32"
					},
					"t_uint256": {
						"encoding": "inplace",
						"label": "uint256",
						"numberOfBytes": "32"
					},
					"t_uint8": {
						"encoding": "inplace",
						"label": "uint8",
						"numberOfBytes": "1"
					}
				}
			},
			"userdoc": {
				"kind": "user",
				"methods": {},
				"version": 1
			}
		}
	}
}