{
	"atta-movies/ERC1155/ERC1155VendingMachine.sol": {
		"VendingMachine": {
			"abi": [
				{
					"inputs": [
						{
							"internalType": "address",
							"name": "_nftAddress",
							"type": "address"
						},
						{
							"internalType": "address",
							"name": "_quoteErc20Address",
							"type": "address"
						},
						{
							"internalType": "address",
							"name": "_treasury",
							"type": "address"
						}
					],
					"stateMutability": "nonpayable",
					"type": "constructor"
				},
				{
					"anonymous": false,
					"inputs": [
						{
							"indexed": true,
							"internalType": "address",
							"name": "buyer",
							"type": "address"
						},
						{
							"indexed": true,
							"internalType": "uint256",
							"name": "tokenId",
							"type": "uint256"
						},
						{
							"indexed": false,
							"internalType": "uint256",
							"name": "quantity",
							"type": "uint256"
						},
						{
							"indexed": false,
							"internalType": "uint256",
							"name": "price",
							"type": "uint256"
						}
					],
					"name": "Buy",
					"type": "event"
				},
				{
					"anonymous": false,
					"inputs": [
						{
							"indexed": true,
							"internalType": "address",
							"name": "previousOwner",
							"type": "address"
						},
						{
							"indexed": true,
							"internalType": "address",
							"name": "newOwner",
							"type": "address"
						}
					],
					"name": "OwnershipTransferred",
					"type": "event"
				},
				{
					"anonymous": false,
					"inputs": [
						{
							"indexed": true,
							"internalType": "uint256",
							"name": "tokenId",
							"type": "uint256"
						},
						{
							"indexed": false,
							"internalType": "uint256",
							"name": "price",
							"type": "uint256"
						}
					],
					"name": "PriceUpdate",
					"type": "event"
				},
				{
					"inputs": [
						{
							"internalType": "uint256",
							"name": "",
							"type": "uint256"
						}
					],
					"name": "_commodityPrices",
					"outputs": [
						{
							"internalType": "uint256",
							"name": "",
							"type": "uint256"
						}
					],
					"stateMutability": "view",
					"type": "function"
				},
				{
					"inputs": [],
					"name": "nft",
					"outputs": [
						{
							"internalType": "contract IERC1155Mintable",
							"name": "",
							"type": "address"
						}
					],
					"stateMutability": "view",
					"type": "function"
				},
				{
					"inputs": [],
					"name": "owner",
					"outputs": [
						{
							"internalType": "address",
							"name": "",
							"type": "address"
						}
					],
					"stateMutability": "view",
					"type": "function"
				},
				{
					"inputs": [],
					"name": "quoteErc20",
					"outputs": [
						{
							"internalType": "contract IERC20",
							"name": "",
							"type": "address"
						}
					],
					"stateMutability": "view",
					"type": "function"
				},
				{
					"inputs": [],
					"name": "renounceOwnership",
					"outputs": [],
					"stateMutability": "nonpayable",
					"type": "function"
				},
				{
					"inputs": [
						{
							"internalType": "uint256",
							"name": "_tokenId",
							"type": "uint256"
						},
						{
							"internalType": "uint256",
							"name": "_quantity",
							"type": "uint256"
						}
					],
					"name": "safeBuyToken",
					"outputs": [],
					"stateMutability": "nonpayable",
					"type": "function"
				},
				{
					"inputs": [
						{
							"internalType": "uint256",
							"name": "_tokenId",
							"type": "uint256"
						},
						{
							"internalType": "uint256",
							"name": "_price",
							"type": "uint256"
						}
					],
					"name": "safeListToken",
					"outputs": [],
					"stateMutability": "nonpayable",
					"type": "function"
				},
				{
					"inputs": [
						{
							"internalType": "address",
							"name": "newOwner",
							"type": "address"
						}
					],
					"name": "transferOwnership",
					"outputs": [],
					"stateMutability": "nonpayable",
					"type": "function"
				},
				{
					"inputs": [],
					"name": "treasury",
					"outputs": [
						{
							"internalType": "address",
							"name": "",
							"type": "address"
						}
					],
					"stateMutability": "view",
					"type": "function"
				}
			],
			"devdoc": {
				"kind": "dev",
				"methods": {
					"owner()": {
						"details": "Returns the address of the current owner."
					},
					"renounceOwnership()": {
						"details": "Leaves the contract without owner. It will not be possible to call `onlyOwner` functions anymore. Can only be called by the current owner. NOTE: Renouncing ownership will leave the contract without an owner, thereby removing any functionality that is only available to the owner."
					},
					"transferOwnership(address)": {
						"details": "Transfers ownership of the contract to a new account (`newOwner`). Can only be called by the current owner."
					}
				},
				"version": 1
			},
			"evm": {
				"assembly": "    /* \"atta-movies/ERC1155/ERC1155VendingMachine.sol\":22320:24033  contract VendingMachine is Ownable {\r... */\n  mstore(0x40, 0x80)\n    /* \"atta-movies/ERC1155/ERC1155VendingMachine.sol\":22757:23174  constructor(\r... */\n  callvalue\n  dup1\n  iszero\n  tag_1\n  jumpi\n  0x00\n  dup1\n  revert\ntag_1:\n  pop\n  mload(0x40)\n  sub(codesize, bytecodeSize)\n  dup1\n  bytecodeSize\n  dup4\n  codecopy\n  dup2\n  dup2\n  add\n  0x40\n  mstore\n  dup2\n  add\n  swap1\n  tag_2\n  swap2\n  swap1\n  tag_3\n  jump\t// in\ntag_2:\n    /* \"atta-movies/ERC1155/ERC1155VendingMachine.sol\":8103:8120  address msgSender */\n  0x00\n    /* \"atta-movies/ERC1155/ERC1155VendingMachine.sol\":8123:8135  _msgSender() */\n  tag_7\n    /* \"atta-movies/ERC1155/ERC1155VendingMachine.sol\":8123:8133  _msgSender */\n  shl(0x20, tag_8)\n    /* \"atta-movies/ERC1155/ERC1155VendingMachine.sol\":8123:8135  _msgSender() */\n  0x20\n  shr\n  jump\t// in\ntag_7:\n    /* \"atta-movies/ERC1155/ERC1155VendingMachine.sol\":8103:8135  address msgSender = _msgSender() */\n  swap1\n  pop\n    /* \"atta-movies/ERC1155/ERC1155VendingMachine.sol\":8155:8164  msgSender */\n  dup1\n    /* \"atta-movies/ERC1155/ERC1155VendingMachine.sol\":8146:8152  _owner */\n  0x00\n  dup1\n    /* \"atta-movies/ERC1155/ERC1155VendingMachine.sol\":8146:8164  _owner = msgSender */\n  0x0100\n  exp\n  dup2\n  sload\n  dup2\n  0xffffffffffffffffffffffffffffffffffffffff\n  mul\n  not\n  and\n  swap1\n  dup4\n  0xffffffffffffffffffffffffffffffffffffffff\n  and\n  mul\n  or\n  swap1\n  sstore\n  pop\n    /* \"atta-movies/ERC1155/ERC1155VendingMachine.sol\":8213:8222  msgSender */\n  dup1\n    /* \"atta-movies/ERC1155/ERC1155VendingMachine.sol\":8180:8223  OwnershipTransferred(address(0), msgSender) */\n  0xffffffffffffffffffffffffffffffffffffffff\n  and\n    /* \"atta-movies/ERC1155/ERC1155VendingMachine.sol\":8209:8210  0 */\n  0x00\n    /* \"atta-movies/ERC1155/ERC1155VendingMachine.sol\":8180:8223  OwnershipTransferred(address(0), msgSender) */\n  0xffffffffffffffffffffffffffffffffffffffff\n  and\n  0x8be0079c531659141344cd1fd0a4f28419497f9722a3daafe3b4186f6b6457e0\n  mload(0x40)\n  mload(0x40)\n  dup1\n  swap2\n  sub\n  swap1\n  log3\n    /* \"atta-movies/ERC1155/ERC1155VendingMachine.sol\":8092:8231  {\r... */\n  pop\n    /* \"atta-movies/ERC1155/ERC1155VendingMachine.sol\":22913:22914  0 */\n  0x00\n    /* \"atta-movies/ERC1155/ERC1155VendingMachine.sol\":22890:22915  _nftAddress != address(0) */\n  0xffffffffffffffffffffffffffffffffffffffff\n  and\n    /* \"atta-movies/ERC1155/ERC1155VendingMachine.sol\":22890:22901  _nftAddress */\n  dup4\n    /* \"atta-movies/ERC1155/ERC1155VendingMachine.sol\":22890:22915  _nftAddress != address(0) */\n  0xffffffffffffffffffffffffffffffffffffffff\n  and\n  eq\n  iszero\n    /* \"atta-movies/ERC1155/ERC1155VendingMachine.sol\":22890:22947  _nftAddress != address(0) && _nftAddress != address(this) */\n  dup1\n  iszero\n  tag_10\n  jumpi\n  pop\n    /* \"atta-movies/ERC1155/ERC1155VendingMachine.sol\":22942:22946  this */\n  address\n    /* \"atta-movies/ERC1155/ERC1155VendingMachine.sol\":22919:22947  _nftAddress != address(this) */\n  0xffffffffffffffffffffffffffffffffffffffff\n  and\n    /* \"atta-movies/ERC1155/ERC1155VendingMachine.sol\":22919:22930  _nftAddress */\n  dup4\n    /* \"atta-movies/ERC1155/ERC1155VendingMachine.sol\":22919:22947  _nftAddress != address(this) */\n  0xffffffffffffffffffffffffffffffffffffffff\n  and\n  eq\n  iszero\n    /* \"atta-movies/ERC1155/ERC1155VendingMachine.sol\":22890:22947  _nftAddress != address(0) && _nftAddress != address(this) */\ntag_10:\n    /* \"atta-movies/ERC1155/ERC1155VendingMachine.sol\":22882:22948  require(_nftAddress != address(0) && _nftAddress != address(this)) */\n  tag_11\n  jumpi\n  0x00\n  dup1\n  revert\ntag_11:\n    /* \"atta-movies/ERC1155/ERC1155VendingMachine.sol\":22997:22998  0 */\n  0x00\n    /* \"atta-movies/ERC1155/ERC1155VendingMachine.sol\":22967:22999  _quoteErc20Address != address(0) */\n  0xffffffffffffffffffffffffffffffffffffffff\n  and\n    /* \"atta-movies/ERC1155/ERC1155VendingMachine.sol\":22967:22985  _quoteErc20Address */\n  dup3\n    /* \"atta-movies/ERC1155/ERC1155VendingMachine.sol\":22967:22999  _quoteErc20Address != address(0) */\n  0xffffffffffffffffffffffffffffffffffffffff\n  and\n  eq\n  iszero\n    /* \"atta-movies/ERC1155/ERC1155VendingMachine.sol\":22967:23038  _quoteErc20Address != address(0) && _quoteErc20Address != address(this) */\n  dup1\n  iszero\n  tag_12\n  jumpi\n  pop\n    /* \"atta-movies/ERC1155/ERC1155VendingMachine.sol\":23033:23037  this */\n  address\n    /* \"atta-movies/ERC1155/ERC1155VendingMachine.sol\":23003:23038  _quoteErc20Address != address(this) */\n  0xffffffffffffffffffffffffffffffffffffffff\n  and\n    /* \"atta-movies/ERC1155/ERC1155VendingMachine.sol\":23003:23021  _quoteErc20Address */\n  dup3\n    /* \"atta-movies/ERC1155/ERC1155VendingMachine.sol\":23003:23038  _quoteErc20Address != address(this) */\n  0xffffffffffffffffffffffffffffffffffffffff\n  and\n  eq\n  iszero\n    /* \"atta-movies/ERC1155/ERC1155VendingMachine.sol\":22967:23038  _quoteErc20Address != address(0) && _quoteErc20Address != address(this) */\ntag_12:\n    /* \"atta-movies/ERC1155/ERC1155VendingMachine.sol\":22959:23039  require(_quoteErc20Address != address(0) && _quoteErc20Address != address(this)) */\n  tag_13\n  jumpi\n  0x00\n  dup1\n  revert\ntag_13:\n    /* \"atta-movies/ERC1155/ERC1155VendingMachine.sol\":23073:23084  _nftAddress */\n  dup3\n    /* \"atta-movies/ERC1155/ERC1155VendingMachine.sol\":23050:23053  nft */\n  0x01\n  0x00\n    /* \"atta-movies/ERC1155/ERC1155VendingMachine.sol\":23050:23085  nft = IERC1155Mintable(_nftAddress) */\n  0x0100\n  exp\n  dup2\n  sload\n  dup2\n  0xffffffffffffffffffffffffffffffffffffffff\n  mul\n  not\n  and\n  swap1\n  dup4\n  0xffffffffffffffffffffffffffffffffffffffff\n  and\n  mul\n  or\n  swap1\n  sstore\n  pop\n    /* \"atta-movies/ERC1155/ERC1155VendingMachine.sol\":23116:23134  _quoteErc20Address */\n  dup2\n    /* \"atta-movies/ERC1155/ERC1155VendingMachine.sol\":23096:23106  quoteErc20 */\n  0x02\n  0x00\n    /* \"atta-movies/ERC1155/ERC1155VendingMachine.sol\":23096:23135  quoteErc20 = IERC20(_quoteErc20Address) */\n  0x0100\n  exp\n  dup2\n  sload\n  dup2\n  0xffffffffffffffffffffffffffffffffffffffff\n  mul\n  not\n  and\n  swap1\n  dup4\n  0xffffffffffffffffffffffffffffffffffffffff\n  and\n  mul\n  or\n  swap1\n  sstore\n  pop\n    /* \"atta-movies/ERC1155/ERC1155VendingMachine.sol\":23157:23166  _treasury */\n  dup1\n    /* \"atta-movies/ERC1155/ERC1155VendingMachine.sol\":23146:23154  treasury */\n  0x03\n  0x00\n    /* \"atta-movies/ERC1155/ERC1155VendingMachine.sol\":23146:23166  treasury = _treasury */\n  0x0100\n  exp\n  dup2\n  sload\n  dup2\n  0xffffffffffffffffffffffffffffffffffffffff\n  mul\n  not\n  and\n  swap1\n  dup4\n  0xffffffffffffffffffffffffffffffffffffffff\n  and\n  mul\n  or\n  swap1\n  sstore\n  pop\n    /* \"atta-movies/ERC1155/ERC1155VendingMachine.sol\":22757:23174  constructor(\r... */\n  pop\n  pop\n  pop\n    /* \"atta-movies/ERC1155/ERC1155VendingMachine.sol\":22320:24033  contract VendingMachine is Ownable {\r... */\n  jump(tag_14)\n    /* \"atta-movies/ERC1155/ERC1155VendingMachine.sol\":6903:7001  function _msgSender() internal view virtual returns (address) {\r... */\ntag_8:\n    /* \"atta-movies/ERC1155/ERC1155VendingMachine.sol\":6956:6963  address */\n  0x00\n    /* \"atta-movies/ERC1155/ERC1155VendingMachine.sol\":6983:6993  msg.sender */\n  caller\n    /* \"atta-movies/ERC1155/ERC1155VendingMachine.sol\":6976:6993  return msg.sender */\n  swap1\n  pop\n    /* \"atta-movies/ERC1155/ERC1155VendingMachine.sol\":6903:7001  function _msgSender() internal view virtual returns (address) {\r... */\n  swap1\n  jump\t// out\n    /* \"#utility.yul\":7:150   */\ntag_17:\n    /* \"#utility.yul\":64:69   */\n  0x00\n    /* \"#utility.yul\":95:101   */\n  dup2\n    /* \"#utility.yul\":89:102   */\n  mload\n    /* \"#utility.yul\":80:102   */\n  swap1\n  pop\n    /* \"#utility.yul\":111:144   */\n  tag_19\n    /* \"#utility.yul\":138:143   */\n  dup2\n    /* \"#utility.yul\":111:144   */\n  tag_20\n  jump\t// in\ntag_19:\n    /* \"#utility.yul\":7:150   */\n  swap3\n  swap2\n  pop\n  pop\n  jump\t// out\n    /* \"#utility.yul\":156:819   */\ntag_3:\n    /* \"#utility.yul\":244:250   */\n  0x00\n    /* \"#utility.yul\":252:258   */\n  dup1\n    /* \"#utility.yul\":260:266   */\n  0x00\n    /* \"#utility.yul\":309:311   */\n  0x60\n    /* \"#utility.yul\":297:306   */\n  dup5\n    /* \"#utility.yul\":288:295   */\n  dup7\n    /* \"#utility.yul\":284:307   */\n  sub\n    /* \"#utility.yul\":280:312   */\n  slt\n    /* \"#utility.yul\":277:396   */\n  iszero\n  tag_22\n  jumpi\n    /* \"#utility.yul\":315:394   */\n  tag_23\n  tag_24\n  jump\t// in\ntag_23:\n    /* \"#utility.yul\":277:396   */\ntag_22:\n    /* \"#utility.yul\":435:436   */\n  0x00\n    /* \"#utility.yul\":460:524   */\n  tag_25\n    /* \"#utility.yul\":516:523   */\n  dup7\n    /* \"#utility.yul\":507:513   */\n  dup3\n    /* \"#utility.yul\":496:505   */\n  dup8\n    /* \"#utility.yul\":492:514   */\n  add\n    /* \"#utility.yul\":460:524   */\n  tag_17\n  jump\t// in\ntag_25:\n    /* \"#utility.yul\":450:524   */\n  swap4\n  pop\n    /* \"#utility.yul\":406:534   */\n  pop\n    /* \"#utility.yul\":573:575   */\n  0x20\n    /* \"#utility.yul\":599:663   */\n  tag_26\n    /* \"#utility.yul\":655:662   */\n  dup7\n    /* \"#utility.yul\":646:652   */\n  dup3\n    /* \"#utility.yul\":635:644   */\n  dup8\n    /* \"#utility.yul\":631:653   */\n  add\n    /* \"#utility.yul\":599:663   */\n  tag_17\n  jump\t// in\ntag_26:\n    /* \"#utility.yul\":589:663   */\n  swap3\n  pop\n    /* \"#utility.yul\":544:673   */\n  pop\n    /* \"#utility.yul\":712:714   */\n  0x40\n    /* \"#utility.yul\":738:802   */\n  tag_27\n    /* \"#utility.yul\":794:801   */\n  dup7\n    /* \"#utility.yul\":785:791   */\n  dup3\n    /* \"#utility.yul\":774:783   */\n  dup8\n    /* \"#utility.yul\":770:792   */\n  add\n    /* \"#utility.yul\":738:802   */\n  tag_17\n  jump\t// in\ntag_27:\n    /* \"#utility.yul\":728:802   */\n  swap2\n  pop\n    /* \"#utility.yul\":683:812   */\n  pop\n    /* \"#utility.yul\":156:819   */\n  swap3\n  pop\n  swap3\n  pop\n  swap3\n  jump\t// out\n    /* \"#utility.yul\":906:1002   */\ntag_30:\n    /* \"#utility.yul\":943:950   */\n  0x00\n    /* \"#utility.yul\":972:996   */\n  tag_32\n    /* \"#utility.yul\":990:995   */\n  dup3\n    /* \"#utility.yul\":972:996   */\n  tag_33\n  jump\t// in\ntag_32:\n    /* \"#utility.yul\":961:996   */\n  swap1\n  pop\n    /* \"#utility.yul\":906:1002   */\n  swap2\n  swap1\n  pop\n  jump\t// out\n    /* \"#utility.yul\":1008:1134   */\ntag_33:\n    /* \"#utility.yul\":1045:1052   */\n  0x00\n    /* \"#utility.yul\":1085:1127   */\n  0xffffffffffffffffffffffffffffffffffffffff\n    /* \"#utility.yul\":1078:1083   */\n  dup3\n    /* \"#utility.yul\":1074:1128   */\n  and\n    /* \"#utility.yul\":1063:1128   */\n  swap1\n  pop\n    /* \"#utility.yul\":1008:1134   */\n  swap2\n  swap1\n  pop\n  jump\t// out\n    /* \"#utility.yul\":1263:1380   */\ntag_24:\n    /* \"#utility.yul\":1372:1373   */\n  0x00\n    /* \"#utility.yul\":1369:1370   */\n  dup1\n    /* \"#utility.yul\":1362:1374   */\n  revert\n    /* \"#utility.yul\":1386:1508   */\ntag_20:\n    /* \"#utility.yul\":1459:1483   */\n  tag_39\n    /* \"#utility.yul\":1477:1482   */\n  dup2\n    /* \"#utility.yul\":1459:1483   */\n  tag_30\n  jump\t// in\ntag_39:\n    /* \"#utility.yul\":1452:1457   */\n  dup2\n    /* \"#utility.yul\":1449:1484   */\n  eq\n    /* \"#utility.yul\":1439:1502   */\n  tag_40\n  jumpi\n    /* \"#utility.yul\":1498:1499   */\n  0x00\n    /* \"#utility.yul\":1495:1496   */\n  dup1\n    /* \"#utility.yul\":1488:1500   */\n  revert\n    /* \"#utility.yul\":1439:1502   */\ntag_40:\n    /* \"#utility.yul\":1386:1508   */\n  pop\n  jump\t// out\n    /* \"atta-movies/ERC1155/ERC1155VendingMachine.sol\":22320:24033  contract VendingMachine is Ownable {\r... */\ntag_14:\n  dataSize(sub_0)\n  dup1\n  dataOffset(sub_0)\n  0x00\n  codecopy\n  0x00\n  return\nstop\n\nsub_0: assembly {\n        /* \"atta-movies/ERC1155/ERC1155VendingMachine.sol\":22320:24033  contract VendingMachine is Ownable {\r... */\n      mstore(0x40, 0x80)\n      callvalue\n      dup1\n      iszero\n      tag_1\n      jumpi\n      0x00\n      dup1\n      revert\n    tag_1:\n      pop\n      jumpi(tag_2, lt(calldatasize, 0x04))\n      shr(0xe0, calldataload(0x00))\n      dup1\n      0x61d027b3\n      gt\n      tag_12\n      jumpi\n      dup1\n      0x61d027b3\n      eq\n      tag_7\n      jumpi\n      dup1\n      0x715018a6\n      eq\n      tag_8\n      jumpi\n      dup1\n      0x8da5cb5b\n      eq\n      tag_9\n      jumpi\n      dup1\n      0xd3f50573\n      eq\n      tag_10\n      jumpi\n      dup1\n      0xf2fde38b\n      eq\n      tag_11\n      jumpi\n      jump(tag_2)\n    tag_12:\n      dup1\n      0x170d542c\n      eq\n      tag_3\n      jumpi\n      dup1\n      0x3e56e6c3\n      eq\n      tag_4\n      jumpi\n      dup1\n      0x432be4d0\n      eq\n      tag_5\n      jumpi\n      dup1\n      0x47ccca02\n      eq\n      tag_6\n      jumpi\n    tag_2:\n      0x00\n      dup1\n      revert\n        /* \"atta-movies/ERC1155/ERC1155VendingMachine.sol\":22465:22489  IERC20 public quoteErc20 */\n    tag_3:\n      tag_13\n      tag_14\n      jump\t// in\n    tag_13:\n      mload(0x40)\n      tag_15\n      swap2\n      swap1\n      tag_16\n      jump\t// in\n    tag_15:\n      mload(0x40)\n      dup1\n      swap2\n      sub\n      swap1\n      return\n        /* \"atta-movies/ERC1155/ERC1155VendingMachine.sol\":23832:24024  function safeBuyToken(uint256 _tokenId, uint256 _quantity) public {\r... */\n    tag_4:\n      tag_17\n      0x04\n      dup1\n      calldatasize\n      sub\n      dup2\n      add\n      swap1\n      tag_18\n      swap2\n      swap1\n      tag_19\n      jump\t// in\n    tag_18:\n      tag_20\n      jump\t// in\n    tag_17:\n      stop\n        /* \"atta-movies/ERC1155/ERC1155VendingMachine.sol\":22534:22585  mapping(uint256 => uint256) public _commodityPrices */\n    tag_5:\n      tag_21\n      0x04\n      dup1\n      calldatasize\n      sub\n      dup2\n      add\n      swap1\n      tag_22\n      swap2\n      swap1\n      tag_23\n      jump\t// in\n    tag_22:\n      tag_24\n      jump\t// in\n    tag_21:\n      mload(0x40)\n      tag_25\n      swap2\n      swap1\n      tag_26\n      jump\t// in\n    tag_25:\n      mload(0x40)\n      dup1\n      swap2\n      sub\n      swap1\n      return\n        /* \"atta-movies/ERC1155/ERC1155VendingMachine.sol\":22431:22458  IERC1155Mintable public nft */\n    tag_6:\n      tag_27\n      tag_28\n      jump\t// in\n    tag_27:\n      mload(0x40)\n      tag_29\n      swap2\n      swap1\n      tag_30\n      jump\t// in\n    tag_29:\n      mload(0x40)\n      dup1\n      swap2\n      sub\n      swap1\n      return\n        /* \"atta-movies/ERC1155/ERC1155VendingMachine.sol\":22498:22521  address public treasury */\n    tag_7:\n      tag_31\n      tag_32\n      jump\t// in\n    tag_31:\n      mload(0x40)\n      tag_33\n      swap2\n      swap1\n      tag_34\n      jump\t// in\n    tag_33:\n      mload(0x40)\n      dup1\n      swap2\n      sub\n      swap1\n      return\n        /* \"atta-movies/ERC1155/ERC1155VendingMachine.sol\":8954:9102  function renounceOwnership() public virtual onlyOwner {\r... */\n    tag_8:\n      tag_35\n      tag_36\n      jump\t// in\n    tag_35:\n      stop\n        /* \"atta-movies/ERC1155/ERC1155VendingMachine.sol\":8312:8391  function owner() public view returns (address) {\r... */\n    tag_9:\n      tag_37\n      tag_38\n      jump\t// in\n    tag_37:\n      mload(0x40)\n      tag_39\n      swap2\n      swap1\n      tag_34\n      jump\t// in\n    tag_39:\n      mload(0x40)\n      dup1\n      swap2\n      sub\n      swap1\n      return\n        /* \"atta-movies/ERC1155/ERC1155VendingMachine.sol\":23361:23482  function safeListToken(uint256 _tokenId, uint256 _price) public onlyOwner {\r... */\n    tag_10:\n      tag_40\n      0x04\n      dup1\n      calldatasize\n      sub\n      dup2\n      add\n      swap1\n      tag_41\n      swap2\n      swap1\n      tag_19\n      jump\t// in\n    tag_41:\n      tag_42\n      jump\t// in\n    tag_40:\n      stop\n        /* \"atta-movies/ERC1155/ERC1155VendingMachine.sol\":9257:9501  function transferOwnership(address newOwner) public virtual onlyOwner {\r... */\n    tag_11:\n      tag_43\n      0x04\n      dup1\n      calldatasize\n      sub\n      dup2\n      add\n      swap1\n      tag_44\n      swap2\n      swap1\n      tag_45\n      jump\t// in\n    tag_44:\n      tag_46\n      jump\t// in\n    tag_43:\n      stop\n        /* \"atta-movies/ERC1155/ERC1155VendingMachine.sol\":22465:22489  IERC20 public quoteErc20 */\n    tag_14:\n      0x02\n      0x00\n      swap1\n      sload\n      swap1\n      0x0100\n      exp\n      swap1\n      div\n      0xffffffffffffffffffffffffffffffffffffffff\n      and\n      dup2\n      jump\t// out\n        /* \"atta-movies/ERC1155/ERC1155VendingMachine.sol\":23832:24024  function safeBuyToken(uint256 _tokenId, uint256 _quantity) public {\r... */\n    tag_20:\n        /* \"atta-movies/ERC1155/ERC1155VendingMachine.sol\":23944:23945  0 */\n      0x00\n        /* \"atta-movies/ERC1155/ERC1155VendingMachine.sol\":23917:23933  _commodityPrices */\n      0x04\n        /* \"atta-movies/ERC1155/ERC1155VendingMachine.sol\":23917:23943  _commodityPrices[_tokenId] */\n      0x00\n        /* \"atta-movies/ERC1155/ERC1155VendingMachine.sol\":23934:23942  _tokenId */\n      dup5\n        /* \"atta-movies/ERC1155/ERC1155VendingMachine.sol\":23917:23943  _commodityPrices[_tokenId] */\n      dup2\n      mstore\n      0x20\n      add\n      swap1\n      dup2\n      mstore\n      0x20\n      add\n      0x00\n      keccak256\n      sload\n        /* \"atta-movies/ERC1155/ERC1155VendingMachine.sol\":23917:23945  _commodityPrices[_tokenId]>0 */\n      gt\n        /* \"atta-movies/ERC1155/ERC1155VendingMachine.sol\":23909:23961  require(_commodityPrices[_tokenId]>0, \"Not on list\") */\n      tag_48\n      jumpi\n      mload(0x40)\n      0x08c379a000000000000000000000000000000000000000000000000000000000\n      dup2\n      mstore\n      0x04\n      add\n      tag_49\n      swap1\n      tag_50\n      jump\t// in\n    tag_49:\n      mload(0x40)\n      dup1\n      swap2\n      sub\n      swap1\n      revert\n    tag_48:\n        /* \"atta-movies/ERC1155/ERC1155VendingMachine.sol\":23972:24016  _buyToken(_msgSender(), _tokenId, _quantity) */\n      tag_51\n        /* \"atta-movies/ERC1155/ERC1155VendingMachine.sol\":23982:23994  _msgSender() */\n      tag_52\n        /* \"atta-movies/ERC1155/ERC1155VendingMachine.sol\":23982:23992  _msgSender */\n      tag_53\n        /* \"atta-movies/ERC1155/ERC1155VendingMachine.sol\":23982:23994  _msgSender() */\n      jump\t// in\n    tag_52:\n        /* \"atta-movies/ERC1155/ERC1155VendingMachine.sol\":23996:24004  _tokenId */\n      dup4\n        /* \"atta-movies/ERC1155/ERC1155VendingMachine.sol\":24006:24015  _quantity */\n      dup4\n        /* \"atta-movies/ERC1155/ERC1155VendingMachine.sol\":23972:23981  _buyToken */\n      tag_54\n        /* \"atta-movies/ERC1155/ERC1155VendingMachine.sol\":23972:24016  _buyToken(_msgSender(), _tokenId, _quantity) */\n      jump\t// in\n    tag_51:\n        /* \"atta-movies/ERC1155/ERC1155VendingMachine.sol\":23832:24024  function safeBuyToken(uint256 _tokenId, uint256 _quantity) public {\r... */\n      pop\n      pop\n      jump\t// out\n        /* \"atta-movies/ERC1155/ERC1155VendingMachine.sol\":22534:22585  mapping(uint256 => uint256) public _commodityPrices */\n    tag_24:\n      mstore(0x20, 0x04)\n      dup1\n      0x00\n      mstore\n      keccak256(0x00, 0x40)\n      0x00\n      swap2\n      pop\n      swap1\n      pop\n      sload\n      dup2\n      jump\t// out\n        /* \"atta-movies/ERC1155/ERC1155VendingMachine.sol\":22431:22458  IERC1155Mintable public nft */\n    tag_28:\n      0x01\n      0x00\n      swap1\n      sload\n      swap1\n      0x0100\n      exp\n      swap1\n      div\n      0xffffffffffffffffffffffffffffffffffffffff\n      and\n      dup2\n      jump\t// out\n        /* \"atta-movies/ERC1155/ERC1155VendingMachine.sol\":22498:22521  address public treasury */\n    tag_32:\n      0x03\n      0x00\n      swap1\n      sload\n      swap1\n      0x0100\n      exp\n      swap1\n      div\n      0xffffffffffffffffffffffffffffffffffffffff\n      and\n      dup2\n      jump\t// out\n        /* \"atta-movies/ERC1155/ERC1155VendingMachine.sol\":8954:9102  function renounceOwnership() public virtual onlyOwner {\r... */\n    tag_36:\n        /* \"atta-movies/ERC1155/ERC1155VendingMachine.sol\":8534:8546  _msgSender() */\n      tag_56\n        /* \"atta-movies/ERC1155/ERC1155VendingMachine.sol\":8534:8544  _msgSender */\n      tag_53\n        /* \"atta-movies/ERC1155/ERC1155VendingMachine.sol\":8534:8546  _msgSender() */\n      jump\t// in\n    tag_56:\n        /* \"atta-movies/ERC1155/ERC1155VendingMachine.sol\":8524:8546  _owner == _msgSender() */\n      0xffffffffffffffffffffffffffffffffffffffff\n      and\n        /* \"atta-movies/ERC1155/ERC1155VendingMachine.sol\":8524:8530  _owner */\n      0x00\n      dup1\n      sload\n      swap1\n      0x0100\n      exp\n      swap1\n      div\n      0xffffffffffffffffffffffffffffffffffffffff\n      and\n        /* \"atta-movies/ERC1155/ERC1155VendingMachine.sol\":8524:8546  _owner == _msgSender() */\n      0xffffffffffffffffffffffffffffffffffffffff\n      and\n      eq\n        /* \"atta-movies/ERC1155/ERC1155VendingMachine.sol\":8516:8583  require(_owner == _msgSender(), \"Ownable: caller is not the owner\") */\n      tag_57\n      jumpi\n      mload(0x40)\n      0x08c379a000000000000000000000000000000000000000000000000000000000\n      dup2\n      mstore\n      0x04\n      add\n      tag_58\n      swap1\n      tag_59\n      jump\t// in\n    tag_58:\n      mload(0x40)\n      dup1\n      swap2\n      sub\n      swap1\n      revert\n    tag_57:\n        /* \"atta-movies/ERC1155/ERC1155VendingMachine.sol\":9061:9062  0 */\n      0x00\n        /* \"atta-movies/ERC1155/ERC1155VendingMachine.sol\":9024:9064  OwnershipTransferred(_owner, address(0)) */\n      0xffffffffffffffffffffffffffffffffffffffff\n      and\n        /* \"atta-movies/ERC1155/ERC1155VendingMachine.sol\":9045:9051  _owner */\n      0x00\n      dup1\n      sload\n      swap1\n      0x0100\n      exp\n      swap1\n      div\n      0xffffffffffffffffffffffffffffffffffffffff\n      and\n        /* \"atta-movies/ERC1155/ERC1155VendingMachine.sol\":9024:9064  OwnershipTransferred(_owner, address(0)) */\n      0xffffffffffffffffffffffffffffffffffffffff\n      and\n      0x8be0079c531659141344cd1fd0a4f28419497f9722a3daafe3b4186f6b6457e0\n      mload(0x40)\n      mload(0x40)\n      dup1\n      swap2\n      sub\n      swap1\n      log3\n        /* \"atta-movies/ERC1155/ERC1155VendingMachine.sol\":9092:9093  0 */\n      0x00\n        /* \"atta-movies/ERC1155/ERC1155VendingMachine.sol\":9075:9081  _owner */\n      dup1\n      0x00\n        /* \"atta-movies/ERC1155/ERC1155VendingMachine.sol\":9075:9094  _owner = address(0) */\n      0x0100\n      exp\n      dup2\n      sload\n      dup2\n      0xffffffffffffffffffffffffffffffffffffffff\n      mul\n      not\n      and\n      swap1\n      dup4\n      0xffffffffffffffffffffffffffffffffffffffff\n      and\n      mul\n      or\n      swap1\n      sstore\n      pop\n        /* \"atta-movies/ERC1155/ERC1155VendingMachine.sol\":8954:9102  function renounceOwnership() public virtual onlyOwner {\r... */\n      jump\t// out\n        /* \"atta-movies/ERC1155/ERC1155VendingMachine.sol\":8312:8391  function owner() public view returns (address) {\r... */\n    tag_38:\n        /* \"atta-movies/ERC1155/ERC1155VendingMachine.sol\":8350:8357  address */\n      0x00\n        /* \"atta-movies/ERC1155/ERC1155VendingMachine.sol\":8377:8383  _owner */\n      dup1\n      0x00\n      swap1\n      sload\n      swap1\n      0x0100\n      exp\n      swap1\n      div\n      0xffffffffffffffffffffffffffffffffffffffff\n      and\n        /* \"atta-movies/ERC1155/ERC1155VendingMachine.sol\":8370:8383  return _owner */\n      swap1\n      pop\n        /* \"atta-movies/ERC1155/ERC1155VendingMachine.sol\":8312:8391  function owner() public view returns (address) {\r... */\n      swap1\n      jump\t// out\n        /* \"atta-movies/ERC1155/ERC1155VendingMachine.sol\":23361:23482  function safeListToken(uint256 _tokenId, uint256 _price) public onlyOwner {\r... */\n    tag_42:\n        /* \"atta-movies/ERC1155/ERC1155VendingMachine.sol\":8534:8546  _msgSender() */\n      tag_63\n        /* \"atta-movies/ERC1155/ERC1155VendingMachine.sol\":8534:8544  _msgSender */\n      tag_53\n        /* \"atta-movies/ERC1155/ERC1155VendingMachine.sol\":8534:8546  _msgSender() */\n      jump\t// in\n    tag_63:\n        /* \"atta-movies/ERC1155/ERC1155VendingMachine.sol\":8524:8546  _owner == _msgSender() */\n      0xffffffffffffffffffffffffffffffffffffffff\n      and\n        /* \"atta-movies/ERC1155/ERC1155VendingMachine.sol\":8524:8530  _owner */\n      0x00\n      dup1\n      sload\n      swap1\n      0x0100\n      exp\n      swap1\n      div\n      0xffffffffffffffffffffffffffffffffffffffff\n      and\n        /* \"atta-movies/ERC1155/ERC1155VendingMachine.sol\":8524:8546  _owner == _msgSender() */\n      0xffffffffffffffffffffffffffffffffffffffff\n      and\n      eq\n        /* \"atta-movies/ERC1155/ERC1155VendingMachine.sol\":8516:8583  require(_owner == _msgSender(), \"Ownable: caller is not the owner\") */\n      tag_64\n      jumpi\n      mload(0x40)\n      0x08c379a000000000000000000000000000000000000000000000000000000000\n      dup2\n      mstore\n      0x04\n      add\n      tag_65\n      swap1\n      tag_59\n      jump\t// in\n    tag_65:\n      mload(0x40)\n      dup1\n      swap2\n      sub\n      swap1\n      revert\n    tag_64:\n        /* \"atta-movies/ERC1155/ERC1155VendingMachine.sol\":23446:23474  _listToken(_tokenId, _price) */\n      tag_67\n        /* \"atta-movies/ERC1155/ERC1155VendingMachine.sol\":23457:23465  _tokenId */\n      dup3\n        /* \"atta-movies/ERC1155/ERC1155VendingMachine.sol\":23467:23473  _price */\n      dup3\n        /* \"atta-movies/ERC1155/ERC1155VendingMachine.sol\":23446:23456  _listToken */\n      tag_68\n        /* \"atta-movies/ERC1155/ERC1155VendingMachine.sol\":23446:23474  _listToken(_tokenId, _price) */\n      jump\t// in\n    tag_67:\n        /* \"atta-movies/ERC1155/ERC1155VendingMachine.sol\":23361:23482  function safeListToken(uint256 _tokenId, uint256 _price) public onlyOwner {\r... */\n      pop\n      pop\n      jump\t// out\n        /* \"atta-movies/ERC1155/ERC1155VendingMachine.sol\":9257:9501  function transferOwnership(address newOwner) public virtual onlyOwner {\r... */\n    tag_46:\n        /* \"atta-movies/ERC1155/ERC1155VendingMachine.sol\":8534:8546  _msgSender() */\n      tag_70\n        /* \"atta-movies/ERC1155/ERC1155VendingMachine.sol\":8534:8544  _msgSender */\n      tag_53\n        /* \"atta-movies/ERC1155/ERC1155VendingMachine.sol\":8534:8546  _msgSender() */\n      jump\t// in\n    tag_70:\n        /* \"atta-movies/ERC1155/ERC1155VendingMachine.sol\":8524:8546  _owner == _msgSender() */\n      0xffffffffffffffffffffffffffffffffffffffff\n      and\n        /* \"atta-movies/ERC1155/ERC1155VendingMachine.sol\":8524:8530  _owner */\n      0x00\n      dup1\n      sload\n      swap1\n      0x0100\n      exp\n      swap1\n      div\n      0xffffffffffffffffffffffffffffffffffffffff\n      and\n        /* \"atta-movies/ERC1155/ERC1155VendingMachine.sol\":8524:8546  _owner == _msgSender() */\n      0xffffffffffffffffffffffffffffffffffffffff\n      and\n      eq\n        /* \"atta-movies/ERC1155/ERC1155VendingMachine.sol\":8516:8583  require(_owner == _msgSender(), \"Ownable: caller is not the owner\") */\n      tag_71\n      jumpi\n      mload(0x40)\n      0x08c379a000000000000000000000000000000000000000000000000000000000\n      dup2\n      mstore\n      0x04\n      add\n      tag_72\n      swap1\n      tag_59\n      jump\t// in\n    tag_72:\n      mload(0x40)\n      dup1\n      swap2\n      sub\n      swap1\n      revert\n    tag_71:\n        /* \"atta-movies/ERC1155/ERC1155VendingMachine.sol\":9366:9367  0 */\n      0x00\n        /* \"atta-movies/ERC1155/ERC1155VendingMachine.sol\":9346:9368  newOwner != address(0) */\n      0xffffffffffffffffffffffffffffffffffffffff\n      and\n        /* \"atta-movies/ERC1155/ERC1155VendingMachine.sol\":9346:9354  newOwner */\n      dup2\n        /* \"atta-movies/ERC1155/ERC1155VendingMachine.sol\":9346:9368  newOwner != address(0) */\n      0xffffffffffffffffffffffffffffffffffffffff\n      and\n      eq\n      iszero\n        /* \"atta-movies/ERC1155/ERC1155VendingMachine.sol\":9338:9411  require(newOwner != address(0), \"Ownable: new owner is the zero address\") */\n      tag_74\n      jumpi\n      mload(0x40)\n      0x08c379a000000000000000000000000000000000000000000000000000000000\n      dup2\n      mstore\n      0x04\n      add\n      tag_75\n      swap1\n      tag_76\n      jump\t// in\n    tag_75:\n      mload(0x40)\n      dup1\n      swap2\n      sub\n      swap1\n      revert\n    tag_74:\n        /* \"atta-movies/ERC1155/ERC1155VendingMachine.sol\":9456:9464  newOwner */\n      dup1\n        /* \"atta-movies/ERC1155/ERC1155VendingMachine.sol\":9427:9465  OwnershipTransferred(_owner, newOwner) */\n      0xffffffffffffffffffffffffffffffffffffffff\n      and\n        /* \"atta-movies/ERC1155/ERC1155VendingMachine.sol\":9448:9454  _owner */\n      0x00\n      dup1\n      sload\n      swap1\n      0x0100\n      exp\n      swap1\n      div\n      0xffffffffffffffffffffffffffffffffffffffff\n      and\n        /* \"atta-movies/ERC1155/ERC1155VendingMachine.sol\":9427:9465  OwnershipTransferred(_owner, newOwner) */\n      0xffffffffffffffffffffffffffffffffffffffff\n      and\n      0x8be0079c531659141344cd1fd0a4f28419497f9722a3daafe3b4186f6b6457e0\n      mload(0x40)\n      mload(0x40)\n      dup1\n      swap2\n      sub\n      swap1\n      log3\n        /* \"atta-movies/ERC1155/ERC1155VendingMachine.sol\":9485:9493  newOwner */\n      dup1\n        /* \"atta-movies/ERC1155/ERC1155VendingMachine.sol\":9476:9482  _owner */\n      0x00\n      dup1\n        /* \"atta-movies/ERC1155/ERC1155VendingMachine.sol\":9476:9493  _owner = newOwner */\n      0x0100\n      exp\n      dup2\n      sload\n      dup2\n      0xffffffffffffffffffffffffffffffffffffffff\n      mul\n      not\n      and\n      swap1\n      dup4\n      0xffffffffffffffffffffffffffffffffffffffff\n      and\n      mul\n      or\n      swap1\n      sstore\n      pop\n        /* \"atta-movies/ERC1155/ERC1155VendingMachine.sol\":9257:9501  function transferOwnership(address newOwner) public virtual onlyOwner {\r... */\n      pop\n      jump\t// out\n        /* \"atta-movies/ERC1155/ERC1155VendingMachine.sol\":6903:7001  function _msgSender() internal view virtual returns (address) {\r... */\n    tag_53:\n        /* \"atta-movies/ERC1155/ERC1155VendingMachine.sol\":6956:6963  address */\n      0x00\n        /* \"atta-movies/ERC1155/ERC1155VendingMachine.sol\":6983:6993  msg.sender */\n      caller\n        /* \"atta-movies/ERC1155/ERC1155VendingMachine.sol\":6976:6993  return msg.sender */\n      swap1\n      pop\n        /* \"atta-movies/ERC1155/ERC1155VendingMachine.sol\":6903:7001  function _msgSender() internal view virtual returns (address) {\r... */\n      swap1\n      jump\t// out\n        /* \"atta-movies/ERC1155/ERC1155VendingMachine.sol\":23494:23820  function _buyToken(address _buyer, uint256 _tokenId, uint256 _quantity) internal {\r... */\n    tag_54:\n        /* \"atta-movies/ERC1155/ERC1155VendingMachine.sol\":23586:23589  nft */\n      0x01\n      0x00\n      swap1\n      sload\n      swap1\n      0x0100\n      exp\n      swap1\n      div\n      0xffffffffffffffffffffffffffffffffffffffff\n      and\n        /* \"atta-movies/ERC1155/ERC1155VendingMachine.sol\":23586:23598  nft.safeMint */\n      0xffffffffffffffffffffffffffffffffffffffff\n      and\n      0x24eeedf6\n        /* \"atta-movies/ERC1155/ERC1155VendingMachine.sol\":23599:23605  _buyer */\n      dup5\n        /* \"atta-movies/ERC1155/ERC1155VendingMachine.sol\":23607:23615  _tokenId */\n      dup5\n        /* \"atta-movies/ERC1155/ERC1155VendingMachine.sol\":23617:23626  _quantity */\n      dup5\n        /* \"atta-movies/ERC1155/ERC1155VendingMachine.sol\":23586:23627  nft.safeMint(_buyer, _tokenId, _quantity) */\n      mload(0x40)\n      dup5\n      0xffffffff\n      and\n      0xe0\n      shl\n      dup2\n      mstore\n      0x04\n      add\n      tag_79\n      swap4\n      swap3\n      swap2\n      swap1\n      tag_80\n      jump\t// in\n    tag_79:\n      0x00\n      mload(0x40)\n      dup1\n      dup4\n      sub\n      dup2\n      0x00\n      dup8\n      dup1\n      extcodesize\n      iszero\n      dup1\n      iszero\n      tag_81\n      jumpi\n      0x00\n      dup1\n      revert\n    tag_81:\n      pop\n      gas\n      call\n      iszero\n      dup1\n      iszero\n      tag_83\n      jumpi\n      returndatasize\n      0x00\n      dup1\n      returndatacopy\n      revert(0x00, returndatasize)\n    tag_83:\n      pop\n      pop\n      pop\n      pop\n        /* \"atta-movies/ERC1155/ERC1155VendingMachine.sol\":23638:23726  quoteErc20.safeTransferFrom(_buyer, treasury, _commodityPrices[_tokenId].mul(_quantity)) */\n      tag_84\n        /* \"atta-movies/ERC1155/ERC1155VendingMachine.sol\":23666:23672  _buyer */\n      dup4\n        /* \"atta-movies/ERC1155/ERC1155VendingMachine.sol\":23674:23682  treasury */\n      0x03\n      0x00\n      swap1\n      sload\n      swap1\n      0x0100\n      exp\n      swap1\n      div\n      0xffffffffffffffffffffffffffffffffffffffff\n      and\n        /* \"atta-movies/ERC1155/ERC1155VendingMachine.sol\":23684:23725  _commodityPrices[_tokenId].mul(_quantity) */\n      tag_85\n        /* \"atta-movies/ERC1155/ERC1155VendingMachine.sol\":23715:23724  _quantity */\n      dup5\n        /* \"atta-movies/ERC1155/ERC1155VendingMachine.sol\":23684:23700  _commodityPrices */\n      0x04\n        /* \"atta-movies/ERC1155/ERC1155VendingMachine.sol\":23684:23710  _commodityPrices[_tokenId] */\n      0x00\n        /* \"atta-movies/ERC1155/ERC1155VendingMachine.sol\":23701:23709  _tokenId */\n      dup9\n        /* \"atta-movies/ERC1155/ERC1155VendingMachine.sol\":23684:23710  _commodityPrices[_tokenId] */\n      dup2\n      mstore\n      0x20\n      add\n      swap1\n      dup2\n      mstore\n      0x20\n      add\n      0x00\n      keccak256\n      sload\n        /* \"atta-movies/ERC1155/ERC1155VendingMachine.sol\":23684:23714  _commodityPrices[_tokenId].mul */\n      tag_86\n      swap1\n        /* \"atta-movies/ERC1155/ERC1155VendingMachine.sol\":23684:23725  _commodityPrices[_tokenId].mul(_quantity) */\n      swap2\n      swap1\n      0xffffffff\n      and\n      jump\t// in\n    tag_85:\n        /* \"atta-movies/ERC1155/ERC1155VendingMachine.sol\":23638:23648  quoteErc20 */\n      0x02\n      0x00\n      swap1\n      sload\n      swap1\n      0x0100\n      exp\n      swap1\n      div\n      0xffffffffffffffffffffffffffffffffffffffff\n      and\n        /* \"atta-movies/ERC1155/ERC1155VendingMachine.sol\":23638:23665  quoteErc20.safeTransferFrom */\n      0xffffffffffffffffffffffffffffffffffffffff\n      and\n      tag_87\n      swap1\n        /* \"atta-movies/ERC1155/ERC1155VendingMachine.sol\":23638:23726  quoteErc20.safeTransferFrom(_buyer, treasury, _commodityPrices[_tokenId].mul(_quantity)) */\n      swap4\n      swap3\n      swap2\n      swap1\n      0xffffffff\n      and\n      jump\t// in\n    tag_84:\n        /* \"atta-movies/ERC1155/ERC1155VendingMachine.sol\":23764:23772  _tokenId */\n      dup2\n        /* \"atta-movies/ERC1155/ERC1155VendingMachine.sol\":23756:23762  _buyer */\n      dup4\n        /* \"atta-movies/ERC1155/ERC1155VendingMachine.sol\":23752:23812  Buy(_buyer, _tokenId, _quantity, _commodityPrices[_tokenId]) */\n      0xffffffffffffffffffffffffffffffffffffffff\n      and\n      0xbeae048c6d270d9469f86cf6e8fedda3c60ad770f16c24c9fc131c8e9a09101d\n        /* \"atta-movies/ERC1155/ERC1155VendingMachine.sol\":23774:23783  _quantity */\n      dup4\n        /* \"atta-movies/ERC1155/ERC1155VendingMachine.sol\":23785:23801  _commodityPrices */\n      0x04\n        /* \"atta-movies/ERC1155/ERC1155VendingMachine.sol\":23785:23811  _commodityPrices[_tokenId] */\n      0x00\n        /* \"atta-movies/ERC1155/ERC1155VendingMachine.sol\":23802:23810  _tokenId */\n      dup8\n        /* \"atta-movies/ERC1155/ERC1155VendingMachine.sol\":23785:23811  _commodityPrices[_tokenId] */\n      dup2\n      mstore\n      0x20\n      add\n      swap1\n      dup2\n      mstore\n      0x20\n      add\n      0x00\n      keccak256\n      sload\n        /* \"atta-movies/ERC1155/ERC1155VendingMachine.sol\":23752:23812  Buy(_buyer, _tokenId, _quantity, _commodityPrices[_tokenId]) */\n      mload(0x40)\n      tag_88\n      swap3\n      swap2\n      swap1\n      tag_89\n      jump\t// in\n    tag_88:\n      mload(0x40)\n      dup1\n      swap2\n      sub\n      swap1\n      log3\n        /* \"atta-movies/ERC1155/ERC1155VendingMachine.sol\":23494:23820  function _buyToken(address _buyer, uint256 _tokenId, uint256 _quantity) internal {\r... */\n      pop\n      pop\n      pop\n      jump\t// out\n        /* \"atta-movies/ERC1155/ERC1155VendingMachine.sol\":23186:23349  function _listToken(uint256 _tokenId, uint256 _price) internal {\r... */\n    tag_68:\n        /* \"atta-movies/ERC1155/ERC1155VendingMachine.sol\":23289:23295  _price */\n      dup1\n        /* \"atta-movies/ERC1155/ERC1155VendingMachine.sol\":23260:23276  _commodityPrices */\n      0x04\n        /* \"atta-movies/ERC1155/ERC1155VendingMachine.sol\":23260:23286  _commodityPrices[_tokenId] */\n      0x00\n        /* \"atta-movies/ERC1155/ERC1155VendingMachine.sol\":23277:23285  _tokenId */\n      dup5\n        /* \"atta-movies/ERC1155/ERC1155VendingMachine.sol\":23260:23286  _commodityPrices[_tokenId] */\n      dup2\n      mstore\n      0x20\n      add\n      swap1\n      dup2\n      mstore\n      0x20\n      add\n      0x00\n      keccak256\n        /* \"atta-movies/ERC1155/ERC1155VendingMachine.sol\":23260:23295  _commodityPrices[_tokenId] = _price */\n      dup2\n      swap1\n      sstore\n      pop\n        /* \"atta-movies/ERC1155/ERC1155VendingMachine.sol\":23324:23332  _tokenId */\n      dup2\n        /* \"atta-movies/ERC1155/ERC1155VendingMachine.sol\":23311:23341  PriceUpdate( _tokenId, _price) */\n      0x92664190cca12aca9cd5309d87194bdda75bb51362d71c06e1a6f75c7c765711\n        /* \"atta-movies/ERC1155/ERC1155VendingMachine.sol\":23334:23340  _price */\n      dup3\n        /* \"atta-movies/ERC1155/ERC1155VendingMachine.sol\":23311:23341  PriceUpdate( _tokenId, _price) */\n      mload(0x40)\n      tag_91\n      swap2\n      swap1\n      tag_26\n      jump\t// in\n    tag_91:\n      mload(0x40)\n      dup1\n      swap2\n      sub\n      swap1\n      log2\n        /* \"atta-movies/ERC1155/ERC1155VendingMachine.sol\":23186:23349  function _listToken(uint256 _tokenId, uint256 _price) internal {\r... */\n      pop\n      pop\n      jump\t// out\n        /* \"atta-movies/ERC1155/ERC1155VendingMachine.sol\":2380:2851  function mul(uint256 a, uint256 b) internal pure returns (uint256) {\r... */\n    tag_86:\n        /* \"atta-movies/ERC1155/ERC1155VendingMachine.sol\":2438:2445  uint256 */\n      0x00\n        /* \"atta-movies/ERC1155/ERC1155VendingMachine.sol\":2688:2689  0 */\n      dup1\n        /* \"atta-movies/ERC1155/ERC1155VendingMachine.sol\":2683:2684  a */\n      dup4\n        /* \"atta-movies/ERC1155/ERC1155VendingMachine.sol\":2683:2689  a == 0 */\n      eq\n        /* \"atta-movies/ERC1155/ERC1155VendingMachine.sol\":2679:2726  if (a == 0) {\r... */\n      iszero\n      tag_93\n      jumpi\n        /* \"atta-movies/ERC1155/ERC1155VendingMachine.sol\":2713:2714  0 */\n      0x00\n        /* \"atta-movies/ERC1155/ERC1155VendingMachine.sol\":2706:2714  return 0 */\n      swap1\n      pop\n      jump(tag_92)\n        /* \"atta-movies/ERC1155/ERC1155VendingMachine.sol\":2679:2726  if (a == 0) {\r... */\n    tag_93:\n        /* \"atta-movies/ERC1155/ERC1155VendingMachine.sol\":2738:2747  uint256 c */\n      0x00\n        /* \"atta-movies/ERC1155/ERC1155VendingMachine.sol\":2754:2755  b */\n      dup3\n        /* \"atta-movies/ERC1155/ERC1155VendingMachine.sol\":2750:2751  a */\n      dup5\n        /* \"atta-movies/ERC1155/ERC1155VendingMachine.sol\":2750:2755  a * b */\n      tag_94\n      swap2\n      swap1\n      tag_95\n      jump\t// in\n    tag_94:\n        /* \"atta-movies/ERC1155/ERC1155VendingMachine.sol\":2738:2755  uint256 c = a * b */\n      swap1\n      pop\n        /* \"atta-movies/ERC1155/ERC1155VendingMachine.sol\":2783:2784  b */\n      dup3\n        /* \"atta-movies/ERC1155/ERC1155VendingMachine.sol\":2778:2779  a */\n      dup5\n        /* \"atta-movies/ERC1155/ERC1155VendingMachine.sol\":2774:2775  c */\n      dup3\n        /* \"atta-movies/ERC1155/ERC1155VendingMachine.sol\":2774:2779  c / a */\n      tag_96\n      swap2\n      swap1\n      tag_97\n      jump\t// in\n    tag_96:\n        /* \"atta-movies/ERC1155/ERC1155VendingMachine.sol\":2774:2784  c / a == b */\n      eq\n        /* \"atta-movies/ERC1155/ERC1155VendingMachine.sol\":2766:2822  require(c / a == b, \"SafeMath: multiplication overflow\") */\n      tag_98\n      jumpi\n      mload(0x40)\n      0x08c379a000000000000000000000000000000000000000000000000000000000\n      dup2\n      mstore\n      0x04\n      add\n      tag_99\n      swap1\n      tag_100\n      jump\t// in\n    tag_99:\n      mload(0x40)\n      dup1\n      swap2\n      sub\n      swap1\n      revert\n    tag_98:\n        /* \"atta-movies/ERC1155/ERC1155VendingMachine.sol\":2842:2843  c */\n      dup1\n        /* \"atta-movies/ERC1155/ERC1155VendingMachine.sol\":2835:2843  return c */\n      swap2\n      pop\n      pop\n        /* \"atta-movies/ERC1155/ERC1155VendingMachine.sol\":2380:2851  function mul(uint256 a, uint256 b) internal pure returns (uint256) {\r... */\n    tag_92:\n      swap3\n      swap2\n      pop\n      pop\n      jump\t// out\n        /* \"atta-movies/ERC1155/ERC1155VendingMachine.sol\":19052:19257  function safeTransferFrom(IERC20 token, address from, address to, uint256 value) internal {\r... */\n    tag_87:\n        /* \"atta-movies/ERC1155/ERC1155VendingMachine.sol\":19153:19249  _callOptionalReturn(token, abi.encodeWithSelector(token.transferFrom.selector, from, to, value)) */\n      tag_102\n        /* \"atta-movies/ERC1155/ERC1155VendingMachine.sol\":19173:19178  token */\n      dup5\n        /* \"atta-movies/ERC1155/ERC1155VendingMachine.sol\":19203:19230  token.transferFrom.selector */\n      shl(0xe0, 0x23b872dd)\n        /* \"atta-movies/ERC1155/ERC1155VendingMachine.sol\":19232:19236  from */\n      dup6\n        /* \"atta-movies/ERC1155/ERC1155VendingMachine.sol\":19238:19240  to */\n      dup6\n        /* \"atta-movies/ERC1155/ERC1155VendingMachine.sol\":19242:19247  value */\n      dup6\n        /* \"atta-movies/ERC1155/ERC1155VendingMachine.sol\":19180:19248  abi.encodeWithSelector(token.transferFrom.selector, from, to, value) */\n      add(0x24, mload(0x40))\n      tag_103\n      swap4\n      swap3\n      swap2\n      swap1\n      tag_104\n      jump\t// in\n    tag_103:\n      mload(0x40)\n      0x20\n      dup2\n      dup4\n      sub\n      sub\n      dup2\n      mstore\n      swap1\n      0x40\n      mstore\n      swap1\n      not(0xffffffffffffffffffffffffffffffffffffffffffffffffffffffff)\n      and\n      0x20\n      dup3\n      add\n      dup1\n      mload\n      0xffffffffffffffffffffffffffffffffffffffffffffffffffffffff\n      dup4\n      dup2\n      dup4\n      and\n      or\n      dup4\n      mstore\n      pop\n      pop\n      pop\n      pop\n        /* \"atta-movies/ERC1155/ERC1155VendingMachine.sol\":19153:19172  _callOptionalReturn */\n      tag_105\n        /* \"atta-movies/ERC1155/ERC1155VendingMachine.sol\":19153:19249  _callOptionalReturn(token, abi.encodeWithSelector(token.transferFrom.selector, from, to, value)) */\n      jump\t// in\n    tag_102:\n        /* \"atta-movies/ERC1155/ERC1155VendingMachine.sol\":19052:19257  function safeTransferFrom(IERC20 token, address from, address to, uint256 value) internal {\r... */\n      pop\n      pop\n      pop\n      pop\n      jump\t// out\n        /* \"atta-movies/ERC1155/ERC1155VendingMachine.sol\":21172:21933  function _callOptionalReturn(IERC20 token, bytes memory data) private {\r... */\n    tag_105:\n        /* \"atta-movies/ERC1155/ERC1155VendingMachine.sol\":21596:21619  bytes memory returndata */\n      0x00\n        /* \"atta-movies/ERC1155/ERC1155VendingMachine.sol\":21622:21691  address(token).functionCall(data, \"SafeERC20: low-level call failed\") */\n      tag_107\n        /* \"atta-movies/ERC1155/ERC1155VendingMachine.sol\":21650:21654  data */\n      dup3\n        /* \"atta-movies/ERC1155/ERC1155VendingMachine.sol\":21622:21691  address(token).functionCall(data, \"SafeERC20: low-level call failed\") */\n      mload(0x40)\n      dup1\n      0x40\n      add\n      0x40\n      mstore\n      dup1\n      0x20\n      dup2\n      mstore\n      0x20\n      add\n      0x5361666545524332303a206c6f772d6c6576656c2063616c6c206661696c6564\n      dup2\n      mstore\n      pop\n        /* \"atta-movies/ERC1155/ERC1155VendingMachine.sol\":21630:21635  token */\n      dup6\n        /* \"atta-movies/ERC1155/ERC1155VendingMachine.sol\":21622:21649  address(token).functionCall */\n      0xffffffffffffffffffffffffffffffffffffffff\n      and\n      tag_108\n      swap1\n        /* \"atta-movies/ERC1155/ERC1155VendingMachine.sol\":21622:21691  address(token).functionCall(data, \"SafeERC20: low-level call failed\") */\n      swap3\n      swap2\n      swap1\n      0xffffffff\n      and\n      jump\t// in\n    tag_107:\n        /* \"atta-movies/ERC1155/ERC1155VendingMachine.sol\":21596:21691  bytes memory returndata = address(token).functionCall(data, \"SafeERC20: low-level call failed\") */\n      swap1\n      pop\n        /* \"atta-movies/ERC1155/ERC1155VendingMachine.sol\":21726:21727  0 */\n      0x00\n        /* \"atta-movies/ERC1155/ERC1155VendingMachine.sol\":21706:21716  returndata */\n      dup2\n        /* \"atta-movies/ERC1155/ERC1155VendingMachine.sol\":21706:21723  returndata.length */\n      mload\n        /* \"atta-movies/ERC1155/ERC1155VendingMachine.sol\":21706:21727  returndata.length > 0 */\n      gt\n        /* \"atta-movies/ERC1155/ERC1155VendingMachine.sol\":21702:21926  if (returndata.length > 0) { // Return data is optional\r... */\n      iszero\n      tag_109\n      jumpi\n        /* \"atta-movies/ERC1155/ERC1155VendingMachine.sol\":21848:21858  returndata */\n      dup1\n        /* \"atta-movies/ERC1155/ERC1155VendingMachine.sol\":21837:21867  abi.decode(returndata, (bool)) */\n      dup1\n      0x20\n      add\n      swap1\n      mload\n      dup2\n      add\n      swap1\n      tag_110\n      swap2\n      swap1\n      tag_111\n      jump\t// in\n    tag_110:\n        /* \"atta-movies/ERC1155/ERC1155VendingMachine.sol\":21829:21914  require(abi.decode(returndata, (bool)), \"SafeERC20: ERC20 operation did not succeed\") */\n      tag_112\n      jumpi\n      mload(0x40)\n      0x08c379a000000000000000000000000000000000000000000000000000000000\n      dup2\n      mstore\n      0x04\n      add\n      tag_113\n      swap1\n      tag_114\n      jump\t// in\n    tag_113:\n      mload(0x40)\n      dup1\n      swap2\n      sub\n      swap1\n      revert\n    tag_112:\n        /* \"atta-movies/ERC1155/ERC1155VendingMachine.sol\":21702:21926  if (returndata.length > 0) { // Return data is optional\r... */\n    tag_109:\n        /* \"atta-movies/ERC1155/ERC1155VendingMachine.sol\":21242:21933  {\r... */\n      pop\n        /* \"atta-movies/ERC1155/ERC1155VendingMachine.sol\":21172:21933  function _callOptionalReturn(IERC20 token, bytes memory data) private {\r... */\n      pop\n      pop\n      jump\t// out\n        /* \"atta-movies/ERC1155/ERC1155VendingMachine.sol\":15881:16077  function functionCall(address target, bytes memory data, string memory errorMessage) internal returns (bytes memory) {\r... */\n    tag_108:\n        /* \"atta-movies/ERC1155/ERC1155VendingMachine.sol\":15984:15996  bytes memory */\n      0x60\n        /* \"atta-movies/ERC1155/ERC1155VendingMachine.sol\":16016:16069  _functionCallWithValue(target, data, 0, errorMessage) */\n      tag_116\n        /* \"atta-movies/ERC1155/ERC1155VendingMachine.sol\":16039:16045  target */\n      dup5\n        /* \"atta-movies/ERC1155/ERC1155VendingMachine.sol\":16047:16051  data */\n      dup5\n        /* \"atta-movies/ERC1155/ERC1155VendingMachine.sol\":16053:16054  0 */\n      0x00\n        /* \"atta-movies/ERC1155/ERC1155VendingMachine.sol\":16056:16068  errorMessage */\n      dup6\n        /* \"atta-movies/ERC1155/ERC1155VendingMachine.sol\":16016:16038  _functionCallWithValue */\n      tag_117\n        /* \"atta-movies/ERC1155/ERC1155VendingMachine.sol\":16016:16069  _functionCallWithValue(target, data, 0, errorMessage) */\n      jump\t// in\n    tag_116:\n        /* \"atta-movies/ERC1155/ERC1155VendingMachine.sol\":16009:16069  return _functionCallWithValue(target, data, 0, errorMessage) */\n      swap1\n      pop\n        /* \"atta-movies/ERC1155/ERC1155VendingMachine.sol\":15881:16077  function functionCall(address target, bytes memory data, string memory errorMessage) internal returns (bytes memory) {\r... */\n      swap4\n      swap3\n      pop\n      pop\n      pop\n      jump\t// out\n        /* \"atta-movies/ERC1155/ERC1155VendingMachine.sol\":17258:18237  function _functionCallWithValue(address target, bytes memory data, uint256 weiValue, string memory errorMessage) private returns (bytes memory) {\r... */\n    tag_117:\n        /* \"atta-movies/ERC1155/ERC1155VendingMachine.sol\":17388:17400  bytes memory */\n      0x60\n        /* \"atta-movies/ERC1155/ERC1155VendingMachine.sol\":17421:17439  isContract(target) */\n      tag_119\n        /* \"atta-movies/ERC1155/ERC1155VendingMachine.sol\":17432:17438  target */\n      dup6\n        /* \"atta-movies/ERC1155/ERC1155VendingMachine.sol\":17421:17431  isContract */\n      tag_120\n        /* \"atta-movies/ERC1155/ERC1155VendingMachine.sol\":17421:17439  isContract(target) */\n      jump\t// in\n    tag_119:\n        /* \"atta-movies/ERC1155/ERC1155VendingMachine.sol\":17413:17473  require(isContract(target), \"Address: call to non-contract\") */\n      tag_121\n      jumpi\n      mload(0x40)\n      0x08c379a000000000000000000000000000000000000000000000000000000000\n      dup2\n      mstore\n      0x04\n      add\n      tag_122\n      swap1\n      tag_123\n      jump\t// in\n    tag_122:\n      mload(0x40)\n      dup1\n      swap2\n      sub\n      swap1\n      revert\n    tag_121:\n        /* \"atta-movies/ERC1155/ERC1155VendingMachine.sol\":17547:17559  bool success */\n      0x00\n        /* \"atta-movies/ERC1155/ERC1155VendingMachine.sol\":17561:17584  bytes memory returndata */\n      dup1\n        /* \"atta-movies/ERC1155/ERC1155VendingMachine.sol\":17588:17594  target */\n      dup7\n        /* \"atta-movies/ERC1155/ERC1155VendingMachine.sol\":17588:17599  target.call */\n      0xffffffffffffffffffffffffffffffffffffffff\n      and\n        /* \"atta-movies/ERC1155/ERC1155VendingMachine.sol\":17608:17616  weiValue */\n      dup6\n        /* \"atta-movies/ERC1155/ERC1155VendingMachine.sol\":17619:17623  data */\n      dup8\n        /* \"atta-movies/ERC1155/ERC1155VendingMachine.sol\":17588:17624  target.call{ value: weiValue }(data) */\n      mload(0x40)\n      tag_124\n      swap2\n      swap1\n      tag_125\n      jump\t// in\n    tag_124:\n      0x00\n      mload(0x40)\n      dup1\n      dup4\n      sub\n      dup2\n      dup6\n      dup8\n      gas\n      call\n      swap3\n      pop\n      pop\n      pop\n      returndatasize\n      dup1\n      0x00\n      dup2\n      eq\n      tag_128\n      jumpi\n      mload(0x40)\n      swap2\n      pop\n      and(add(returndatasize, 0x3f), not(0x1f))\n      dup3\n      add\n      0x40\n      mstore\n      returndatasize\n      dup3\n      mstore\n      returndatasize\n      0x00\n      0x20\n      dup5\n      add\n      returndatacopy\n      jump(tag_127)\n    tag_128:\n      0x60\n      swap2\n      pop\n    tag_127:\n      pop\n        /* \"atta-movies/ERC1155/ERC1155VendingMachine.sol\":17546:17624  (bool success, bytes memory returndata) = target.call{ value: weiValue }(data) */\n      swap2\n      pop\n      swap2\n      pop\n        /* \"atta-movies/ERC1155/ERC1155VendingMachine.sol\":17639:17646  success */\n      dup2\n        /* \"atta-movies/ERC1155/ERC1155VendingMachine.sol\":17635:18230  if (success) {\r... */\n      iszero\n      tag_129\n      jumpi\n        /* \"atta-movies/ERC1155/ERC1155VendingMachine.sol\":17670:17680  returndata */\n      dup1\n        /* \"atta-movies/ERC1155/ERC1155VendingMachine.sol\":17663:17680  return returndata */\n      swap3\n      pop\n      pop\n      pop\n      jump(tag_118)\n        /* \"atta-movies/ERC1155/ERC1155VendingMachine.sol\":17635:18230  if (success) {\r... */\n    tag_129:\n        /* \"atta-movies/ERC1155/ERC1155VendingMachine.sol\":17804:17805  0 */\n      0x00\n        /* \"atta-movies/ERC1155/ERC1155VendingMachine.sol\":17784:17794  returndata */\n      dup2\n        /* \"atta-movies/ERC1155/ERC1155VendingMachine.sol\":17784:17801  returndata.length */\n      mload\n        /* \"atta-movies/ERC1155/ERC1155VendingMachine.sol\":17784:17805  returndata.length > 0 */\n      gt\n        /* \"atta-movies/ERC1155/ERC1155VendingMachine.sol\":17780:18219  if (returndata.length > 0) {\r... */\n      iszero\n      tag_131\n      jumpi\n        /* \"atta-movies/ERC1155/ERC1155VendingMachine.sol\":18047:18057  returndata */\n      dup1\n        /* \"atta-movies/ERC1155/ERC1155VendingMachine.sol\":18041:18058  mload(returndata) */\n      mload\n        /* \"atta-movies/ERC1155/ERC1155VendingMachine.sol\":18108:18123  returndata_size */\n      dup1\n        /* \"atta-movies/ERC1155/ERC1155VendingMachine.sol\":18095:18105  returndata */\n      dup3\n        /* \"atta-movies/ERC1155/ERC1155VendingMachine.sol\":18091:18093  32 */\n      0x20\n        /* \"atta-movies/ERC1155/ERC1155VendingMachine.sol\":18087:18106  add(32, returndata) */\n      add\n        /* \"atta-movies/ERC1155/ERC1155VendingMachine.sol\":18080:18124  revert(add(32, returndata), returndata_size) */\n      revert\n        /* \"atta-movies/ERC1155/ERC1155VendingMachine.sol\":17780:18219  if (returndata.length > 0) {\r... */\n    tag_131:\n        /* \"atta-movies/ERC1155/ERC1155VendingMachine.sol\":18190:18202  errorMessage */\n      dup4\n        /* \"atta-movies/ERC1155/ERC1155VendingMachine.sol\":18183:18203  revert(errorMessage) */\n      mload(0x40)\n      0x08c379a000000000000000000000000000000000000000000000000000000000\n      dup2\n      mstore\n      0x04\n      add\n      tag_133\n      swap2\n      swap1\n      tag_134\n      jump\t// in\n    tag_133:\n      mload(0x40)\n      dup1\n      swap2\n      sub\n      swap1\n      revert\n        /* \"atta-movies/ERC1155/ERC1155VendingMachine.sol\":17258:18237  function _functionCallWithValue(address target, bytes memory data, uint256 weiValue, string memory errorMessage) private returns (bytes memory) {\r... */\n    tag_118:\n      swap5\n      swap4\n      pop\n      pop\n      pop\n      pop\n      jump\t// out\n        /* \"atta-movies/ERC1155/ERC1155VendingMachine.sol\":12963:13385  function isContract(address account) internal view returns (bool) {\r... */\n    tag_120:\n        /* \"atta-movies/ERC1155/ERC1155VendingMachine.sol\":13023:13027  bool */\n      0x00\n        /* \"atta-movies/ERC1155/ERC1155VendingMachine.sol\":13231:13243  uint256 size */\n      dup1\n        /* \"atta-movies/ERC1155/ERC1155VendingMachine.sol\":13342:13349  account */\n      dup3\n        /* \"atta-movies/ERC1155/ERC1155VendingMachine.sol\":13330:13350  extcodesize(account) */\n      extcodesize\n        /* \"atta-movies/ERC1155/ERC1155VendingMachine.sol\":13322:13350  size := extcodesize(account) */\n      swap1\n      pop\n        /* \"atta-movies/ERC1155/ERC1155VendingMachine.sol\":13376:13377  0 */\n      0x00\n        /* \"atta-movies/ERC1155/ERC1155VendingMachine.sol\":13369:13373  size */\n      dup2\n        /* \"atta-movies/ERC1155/ERC1155VendingMachine.sol\":13369:13377  size > 0 */\n      gt\n        /* \"atta-movies/ERC1155/ERC1155VendingMachine.sol\":13362:13377  return size > 0 */\n      swap2\n      pop\n      pop\n        /* \"atta-movies/ERC1155/ERC1155VendingMachine.sol\":12963:13385  function isContract(address account) internal view returns (bool) {\r... */\n      swap2\n      swap1\n      pop\n      jump\t// out\n        /* \"#utility.yul\":7:146   */\n    tag_137:\n        /* \"#utility.yul\":53:58   */\n      0x00\n        /* \"#utility.yul\":91:97   */\n      dup2\n        /* \"#utility.yul\":78:98   */\n      calldataload\n        /* \"#utility.yul\":69:98   */\n      swap1\n      pop\n        /* \"#utility.yul\":107:140   */\n      tag_139\n        /* \"#utility.yul\":134:139   */\n      dup2\n        /* \"#utility.yul\":107:140   */\n      tag_140\n      jump\t// in\n    tag_139:\n        /* \"#utility.yul\":7:146   */\n      swap3\n      swap2\n      pop\n      pop\n      jump\t// out\n        /* \"#utility.yul\":152:289   */\n    tag_141:\n        /* \"#utility.yul\":206:211   */\n      0x00\n        /* \"#utility.yul\":237:243   */\n      dup2\n        /* \"#utility.yul\":231:244   */\n      mload\n        /* \"#utility.yul\":222:244   */\n      swap1\n      pop\n        /* \"#utility.yul\":253:283   */\n      tag_143\n        /* \"#utility.yul\":277:282   */\n      dup2\n        /* \"#utility.yul\":253:283   */\n      tag_144\n      jump\t// in\n    tag_143:\n        /* \"#utility.yul\":152:289   */\n      swap3\n      swap2\n      pop\n      pop\n      jump\t// out\n        /* \"#utility.yul\":295:434   */\n    tag_145:\n        /* \"#utility.yul\":341:346   */\n      0x00\n        /* \"#utility.yul\":379:385   */\n      dup2\n        /* \"#utility.yul\":366:386   */\n      calldataload\n        /* \"#utility.yul\":357:386   */\n      swap1\n      pop\n        /* \"#utility.yul\":395:428   */\n      tag_147\n        /* \"#utility.yul\":422:427   */\n      dup2\n        /* \"#utility.yul\":395:428   */\n      tag_148\n      jump\t// in\n    tag_147:\n        /* \"#utility.yul\":295:434   */\n      swap3\n      swap2\n      pop\n      pop\n      jump\t// out\n        /* \"#utility.yul\":440:769   */\n    tag_45:\n        /* \"#utility.yul\":499:505   */\n      0x00\n        /* \"#utility.yul\":548:550   */\n      0x20\n        /* \"#utility.yul\":536:545   */\n      dup3\n        /* \"#utility.yul\":527:534   */\n      dup5\n        /* \"#utility.yul\":523:546   */\n      sub\n        /* \"#utility.yul\":519:551   */\n      slt\n        /* \"#utility.yul\":516:635   */\n      iszero\n      tag_150\n      jumpi\n        /* \"#utility.yul\":554:633   */\n      tag_151\n      tag_152\n      jump\t// in\n    tag_151:\n        /* \"#utility.yul\":516:635   */\n    tag_150:\n        /* \"#utility.yul\":674:675   */\n      0x00\n        /* \"#utility.yul\":699:752   */\n      tag_153\n        /* \"#utility.yul\":744:751   */\n      dup5\n        /* \"#utility.yul\":735:741   */\n      dup3\n        /* \"#utility.yul\":724:733   */\n      dup6\n        /* \"#utility.yul\":720:742   */\n      add\n        /* \"#utility.yul\":699:752   */\n      tag_137\n      jump\t// in\n    tag_153:\n        /* \"#utility.yul\":689:752   */\n      swap2\n      pop\n        /* \"#utility.yul\":645:762   */\n      pop\n        /* \"#utility.yul\":440:769   */\n      swap3\n      swap2\n      pop\n      pop\n      jump\t// out\n        /* \"#utility.yul\":775:1120   */\n    tag_111:\n        /* \"#utility.yul\":842:848   */\n      0x00\n        /* \"#utility.yul\":891:893   */\n      0x20\n        /* \"#utility.yul\":879:888   */\n      dup3\n        /* \"#utility.yul\":870:877   */\n      dup5\n        /* \"#utility.yul\":866:889   */\n      sub\n        /* \"#utility.yul\":862:894   */\n      slt\n        /* \"#utility.yul\":859:978   */\n      iszero\n      tag_155\n      jumpi\n        /* \"#utility.yul\":897:976   */\n      tag_156\n      tag_152\n      jump\t// in\n    tag_156:\n        /* \"#utility.yul\":859:978   */\n    tag_155:\n        /* \"#utility.yul\":1017:1018   */\n      0x00\n        /* \"#utility.yul\":1042:1103   */\n      tag_157\n        /* \"#utility.yul\":1095:1102   */\n      dup5\n        /* \"#utility.yul\":1086:1092   */\n      dup3\n        /* \"#utility.yul\":1075:1084   */\n      dup6\n        /* \"#utility.yul\":1071:1093   */\n      add\n        /* \"#utility.yul\":1042:1103   */\n      tag_141\n      jump\t// in\n    tag_157:\n        /* \"#utility.yul\":1032:1103   */\n      swap2\n      pop\n        /* \"#utility.yul\":988:1113   */\n      pop\n        /* \"#utility.yul\":775:1120   */\n      swap3\n      swap2\n      pop\n      pop\n      jump\t// out\n        /* \"#utility.yul\":1126:1455   */\n    tag_23:\n        /* \"#utility.yul\":1185:1191   */\n      0x00\n        /* \"#utility.yul\":1234:1236   */\n      0x20\n        /* \"#utility.yul\":1222:1231   */\n      dup3\n        /* \"#utility.yul\":1213:1220   */\n      dup5\n        /* \"#utility.yul\":1209:1232   */\n      sub\n        /* \"#utility.yul\":1205:1237   */\n      slt\n        /* \"#utility.yul\":1202:1321   */\n      iszero\n      tag_159\n      jumpi\n        /* \"#utility.yul\":1240:1319   */\n      tag_160\n      tag_152\n      jump\t// in\n    tag_160:\n        /* \"#utility.yul\":1202:1321   */\n    tag_159:\n        /* \"#utility.yul\":1360:1361   */\n      0x00\n        /* \"#utility.yul\":1385:1438   */\n      tag_161\n        /* \"#utility.yul\":1430:1437   */\n      dup5\n        /* \"#utility.yul\":1421:1427   */\n      dup3\n        /* \"#utility.yul\":1410:1419   */\n      dup6\n        /* \"#utility.yul\":1406:1428   */\n      add\n        /* \"#utility.yul\":1385:1438   */\n      tag_145\n      jump\t// in\n    tag_161:\n        /* \"#utility.yul\":1375:1438   */\n      swap2\n      pop\n        /* \"#utility.yul\":1331:1448   */\n      pop\n        /* \"#utility.yul\":1126:1455   */\n      swap3\n      swap2\n      pop\n      pop\n      jump\t// out\n        /* \"#utility.yul\":1461:1935   */\n    tag_19:\n        /* \"#utility.yul\":1529:1535   */\n      0x00\n        /* \"#utility.yul\":1537:1543   */\n      dup1\n        /* \"#utility.yul\":1586:1588   */\n      0x40\n        /* \"#utility.yul\":1574:1583   */\n      dup4\n        /* \"#utility.yul\":1565:1572   */\n      dup6\n        /* \"#utility.yul\":1561:1584   */\n      sub\n        /* \"#utility.yul\":1557:1589   */\n      slt\n        /* \"#utility.yul\":1554:1673   */\n      iszero\n      tag_163\n      jumpi\n        /* \"#utility.yul\":1592:1671   */\n      tag_164\n      tag_152\n      jump\t// in\n    tag_164:\n        /* \"#utility.yul\":1554:1673   */\n    tag_163:\n        /* \"#utility.yul\":1712:1713   */\n      0x00\n        /* \"#utility.yul\":1737:1790   */\n      tag_165\n        /* \"#utility.yul\":1782:1789   */\n      dup6\n        /* \"#utility.yul\":1773:1779   */\n      dup3\n        /* \"#utility.yul\":1762:1771   */\n      dup7\n        /* \"#utility.yul\":1758:1780   */\n      add\n        /* \"#utility.yul\":1737:1790   */\n      tag_145\n      jump\t// in\n    tag_165:\n        /* \"#utility.yul\":1727:1790   */\n      swap3\n      pop\n        /* \"#utility.yul\":1683:1800   */\n      pop\n        /* \"#utility.yul\":1839:1841   */\n      0x20\n        /* \"#utility.yul\":1865:1918   */\n      tag_166\n        /* \"#utility.yul\":1910:1917   */\n      dup6\n        /* \"#utility.yul\":1901:1907   */\n      dup3\n        /* \"#utility.yul\":1890:1899   */\n      dup7\n        /* \"#utility.yul\":1886:1908   */\n      add\n        /* \"#utility.yul\":1865:1918   */\n      tag_145\n      jump\t// in\n    tag_166:\n        /* \"#utility.yul\":1855:1918   */\n      swap2\n      pop\n        /* \"#utility.yul\":1810:1928   */\n      pop\n        /* \"#utility.yul\":1461:1935   */\n      swap3\n      pop\n      swap3\n      swap1\n      pop\n      jump\t// out\n        /* \"#utility.yul\":1941:2059   */\n    tag_167:\n        /* \"#utility.yul\":2028:2052   */\n      tag_169\n        /* \"#utility.yul\":2046:2051   */\n      dup2\n        /* \"#utility.yul\":2028:2052   */\n      tag_170\n      jump\t// in\n    tag_169:\n        /* \"#utility.yul\":2023:2026   */\n      dup3\n        /* \"#utility.yul\":2016:2053   */\n      mstore\n        /* \"#utility.yul\":1941:2059   */\n      pop\n      pop\n      jump\t// out\n        /* \"#utility.yul\":2065:2438   */\n    tag_171:\n        /* \"#utility.yul\":2169:2172   */\n      0x00\n        /* \"#utility.yul\":2197:2235   */\n      tag_173\n        /* \"#utility.yul\":2229:2234   */\n      dup3\n        /* \"#utility.yul\":2197:2235   */\n      tag_174\n      jump\t// in\n    tag_173:\n        /* \"#utility.yul\":2251:2339   */\n      tag_175\n        /* \"#utility.yul\":2332:2338   */\n      dup2\n        /* \"#utility.yul\":2327:2330   */\n      dup6\n        /* \"#utility.yul\":2251:2339   */\n      tag_176\n      jump\t// in\n    tag_175:\n        /* \"#utility.yul\":2244:2339   */\n      swap4\n      pop\n        /* \"#utility.yul\":2348:2400   */\n      tag_177\n        /* \"#utility.yul\":2393:2399   */\n      dup2\n        /* \"#utility.yul\":2388:2391   */\n      dup6\n        /* \"#utility.yul\":2381:2385   */\n      0x20\n        /* \"#utility.yul\":2374:2379   */\n      dup7\n        /* \"#utility.yul\":2370:2386   */\n      add\n        /* \"#utility.yul\":2348:2400   */\n      tag_178\n      jump\t// in\n    tag_177:\n        /* \"#utility.yul\":2425:2431   */\n      dup1\n        /* \"#utility.yul\":2420:2423   */\n      dup5\n        /* \"#utility.yul\":2416:2432   */\n      add\n        /* \"#utility.yul\":2409:2432   */\n      swap2\n      pop\n        /* \"#utility.yul\":2173:2438   */\n      pop\n        /* \"#utility.yul\":2065:2438   */\n      swap3\n      swap2\n      pop\n      pop\n      jump\t// out\n        /* \"#utility.yul\":2444:2623   */\n    tag_179:\n        /* \"#utility.yul\":2555:2616   */\n      tag_181\n        /* \"#utility.yul\":2610:2615   */\n      dup2\n        /* \"#utility.yul\":2555:2616   */\n      tag_182\n      jump\t// in\n    tag_181:\n        /* \"#utility.yul\":2550:2553   */\n      dup3\n        /* \"#utility.yul\":2543:2617   */\n      mstore\n        /* \"#utility.yul\":2444:2623   */\n      pop\n      pop\n      jump\t// out\n        /* \"#utility.yul\":2629:2788   */\n    tag_183:\n        /* \"#utility.yul\":2730:2781   */\n      tag_185\n        /* \"#utility.yul\":2775:2780   */\n      dup2\n        /* \"#utility.yul\":2730:2781   */\n      tag_186\n      jump\t// in\n    tag_185:\n        /* \"#utility.yul\":2725:2728   */\n      dup3\n        /* \"#utility.yul\":2718:2782   */\n      mstore\n        /* \"#utility.yul\":2629:2788   */\n      pop\n      pop\n      jump\t// out\n        /* \"#utility.yul\":2794:3158   */\n    tag_187:\n        /* \"#utility.yul\":2882:2885   */\n      0x00\n        /* \"#utility.yul\":2910:2949   */\n      tag_189\n        /* \"#utility.yul\":2943:2948   */\n      dup3\n        /* \"#utility.yul\":2910:2949   */\n      tag_190\n      jump\t// in\n    tag_189:\n        /* \"#utility.yul\":2965:3036   */\n      tag_191\n        /* \"#utility.yul\":3029:3035   */\n      dup2\n        /* \"#utility.yul\":3024:3027   */\n      dup6\n        /* \"#utility.yul\":2965:3036   */\n      tag_192\n      jump\t// in\n    tag_191:\n        /* \"#utility.yul\":2958:3036   */\n      swap4\n      pop\n        /* \"#utility.yul\":3045:3097   */\n      tag_193\n        /* \"#utility.yul\":3090:3096   */\n      dup2\n        /* \"#utility.yul\":3085:3088   */\n      dup6\n        /* \"#utility.yul\":3078:3082   */\n      0x20\n        /* \"#utility.yul\":3071:3076   */\n      dup7\n        /* \"#utility.yul\":3067:3083   */\n      add\n        /* \"#utility.yul\":3045:3097   */\n      tag_178\n      jump\t// in\n    tag_193:\n        /* \"#utility.yul\":3122:3151   */\n      tag_194\n        /* \"#utility.yul\":3144:3150   */\n      dup2\n        /* \"#utility.yul\":3122:3151   */\n      tag_195\n      jump\t// in\n    tag_194:\n        /* \"#utility.yul\":3117:3120   */\n      dup5\n        /* \"#utility.yul\":3113:3152   */\n      add\n        /* \"#utility.yul\":3106:3152   */\n      swap2\n      pop\n        /* \"#utility.yul\":2886:3158   */\n      pop\n        /* \"#utility.yul\":2794:3158   */\n      swap3\n      swap2\n      pop\n      pop\n      jump\t// out\n        /* \"#utility.yul\":3164:3530   */\n    tag_196:\n        /* \"#utility.yul\":3306:3309   */\n      0x00\n        /* \"#utility.yul\":3327:3394   */\n      tag_198\n        /* \"#utility.yul\":3391:3393   */\n      0x26\n        /* \"#utility.yul\":3386:3389   */\n      dup4\n        /* \"#utility.yul\":3327:3394   */\n      tag_192\n      jump\t// in\n    tag_198:\n        /* \"#utility.yul\":3320:3394   */\n      swap2\n      pop\n        /* \"#utility.yul\":3403:3496   */\n      tag_199\n        /* \"#utility.yul\":3492:3495   */\n      dup3\n        /* \"#utility.yul\":3403:3496   */\n      tag_200\n      jump\t// in\n    tag_199:\n        /* \"#utility.yul\":3521:3523   */\n      0x40\n        /* \"#utility.yul\":3516:3519   */\n      dup3\n        /* \"#utility.yul\":3512:3524   */\n      add\n        /* \"#utility.yul\":3505:3524   */\n      swap1\n      pop\n        /* \"#utility.yul\":3164:3530   */\n      swap2\n      swap1\n      pop\n      jump\t// out\n        /* \"#utility.yul\":3536:3902   */\n    tag_201:\n        /* \"#utility.yul\":3678:3681   */\n      0x00\n        /* \"#utility.yul\":3699:3766   */\n      tag_203\n        /* \"#utility.yul\":3763:3765   */\n      0x0b\n        /* \"#utility.yul\":3758:3761   */\n      dup4\n        /* \"#utility.yul\":3699:3766   */\n      tag_192\n      jump\t// in\n    tag_203:\n        /* \"#utility.yul\":3692:3766   */\n      swap2\n      pop\n        /* \"#utility.yul\":3775:3868   */\n      tag_204\n        /* \"#utility.yul\":3864:3867   */\n      dup3\n        /* \"#utility.yul\":3775:3868   */\n      tag_205\n      jump\t// in\n    tag_204:\n        /* \"#utility.yul\":3893:3895   */\n      0x20\n        /* \"#utility.yul\":3888:3891   */\n      dup3\n        /* \"#utility.yul\":3884:3896   */\n      add\n        /* \"#utility.yul\":3877:3896   */\n      swap1\n      pop\n        /* \"#utility.yul\":3536:3902   */\n      swap2\n      swap1\n      pop\n      jump\t// out\n        /* \"#utility.yul\":3908:4274   */\n    tag_206:\n        /* \"#utility.yul\":4050:4053   */\n      0x00\n        /* \"#utility.yul\":4071:4138   */\n      tag_208\n        /* \"#utility.yul\":4135:4137   */\n      0x21\n        /* \"#utility.yul\":4130:4133   */\n      dup4\n        /* \"#utility.yul\":4071:4138   */\n      tag_192\n      jump\t// in\n    tag_208:\n        /* \"#utility.yul\":4064:4138   */\n      swap2\n      pop\n        /* \"#utility.yul\":4147:4240   */\n      tag_209\n        /* \"#utility.yul\":4236:4239   */\n      dup3\n        /* \"#utility.yul\":4147:4240   */\n      tag_210\n      jump\t// in\n    tag_209:\n        /* \"#utility.yul\":4265:4267   */\n      0x40\n        /* \"#utility.yul\":4260:4263   */\n      dup3\n        /* \"#utility.yul\":4256:4268   */\n      add\n        /* \"#utility.yul\":4249:4268   */\n      swap1\n      pop\n        /* \"#utility.yul\":3908:4274   */\n      swap2\n      swap1\n      pop\n      jump\t// out\n        /* \"#utility.yul\":4280:4646   */\n    tag_211:\n        /* \"#utility.yul\":4422:4425   */\n      0x00\n        /* \"#utility.yul\":4443:4510   */\n      tag_213\n        /* \"#utility.yul\":4507:4509   */\n      0x20\n        /* \"#utility.yul\":4502:4505   */\n      dup4\n        /* \"#utility.yul\":4443:4510   */\n      tag_192\n      jump\t// in\n    tag_213:\n        /* \"#utility.yul\":4436:4510   */\n      swap2\n      pop\n        /* \"#utility.yul\":4519:4612   */\n      tag_214\n        /* \"#utility.yul\":4608:4611   */\n      dup3\n        /* \"#utility.yul\":4519:4612   */\n      tag_215\n      jump\t// in\n    tag_214:\n        /* \"#utility.yul\":4637:4639   */\n      0x20\n        /* \"#utility.yul\":4632:4635   */\n      dup3\n        /* \"#utility.yul\":4628:4640   */\n      add\n        /* \"#utility.yul\":4621:4640   */\n      swap1\n      pop\n        /* \"#utility.yul\":4280:4646   */\n      swap2\n      swap1\n      pop\n      jump\t// out\n        /* \"#utility.yul\":4652:5018   */\n    tag_216:\n        /* \"#utility.yul\":4794:4797   */\n      0x00\n        /* \"#utility.yul\":4815:4882   */\n      tag_218\n        /* \"#utility.yul\":4879:4881   */\n      0x1d\n        /* \"#utility.yul\":4874:4877   */\n      dup4\n        /* \"#utility.yul\":4815:4882   */\n      tag_192\n      jump\t// in\n    tag_218:\n        /* \"#utility.yul\":4808:4882   */\n      swap2\n      pop\n        /* \"#utility.yul\":4891:4984   */\n      tag_219\n        /* \"#utility.yul\":4980:4983   */\n      dup3\n        /* \"#utility.yul\":4891:4984   */\n      tag_220\n      jump\t// in\n    tag_219:\n        /* \"#utility.yul\":5009:5011   */\n      0x20\n        /* \"#utility.yul\":5004:5007   */\n      dup3\n        /* \"#utility.yul\":5000:5012   */\n      add\n        /* \"#utility.yul\":4993:5012   */\n      swap1\n      pop\n        /* \"#utility.yul\":4652:5018   */\n      swap2\n      swap1\n      pop\n      jump\t// out\n        /* \"#utility.yul\":5024:5390   */\n    tag_221:\n        /* \"#utility.yul\":5166:5169   */\n      0x00\n        /* \"#utility.yul\":5187:5254   */\n      tag_223\n        /* \"#utility.yul\":5251:5253   */\n      0x2a\n        /* \"#utility.yul\":5246:5249   */\n      dup4\n        /* \"#utility.yul\":5187:5254   */\n      tag_192\n      jump\t// in\n    tag_223:\n        /* \"#utility.yul\":5180:5254   */\n      swap2\n      pop\n        /* \"#utility.yul\":5263:5356   */\n      tag_224\n        /* \"#utility.yul\":5352:5355   */\n      dup3\n        /* \"#utility.yul\":5263:5356   */\n      tag_225\n      jump\t// in\n    tag_224:\n        /* \"#utility.yul\":5381:5383   */\n      0x40\n        /* \"#utility.yul\":5376:5379   */\n      dup3\n        /* \"#utility.yul\":5372:5384   */\n      add\n        /* \"#utility.yul\":5365:5384   */\n      swap1\n      pop\n        /* \"#utility.yul\":5024:5390   */\n      swap2\n      swap1\n      pop\n      jump\t// out\n        /* \"#utility.yul\":5396:5514   */\n    tag_226:\n        /* \"#utility.yul\":5483:5507   */\n      tag_228\n        /* \"#utility.yul\":5501:5506   */\n      dup2\n        /* \"#utility.yul\":5483:5507   */\n      tag_229\n      jump\t// in\n    tag_228:\n        /* \"#utility.yul\":5478:5481   */\n      dup3\n        /* \"#utility.yul\":5471:5508   */\n      mstore\n        /* \"#utility.yul\":5396:5514   */\n      pop\n      pop\n      jump\t// out\n        /* \"#utility.yul\":5520:5791   */\n    tag_125:\n        /* \"#utility.yul\":5650:5653   */\n      0x00\n        /* \"#utility.yul\":5672:5765   */\n      tag_231\n        /* \"#utility.yul\":5761:5764   */\n      dup3\n        /* \"#utility.yul\":5752:5758   */\n      dup5\n        /* \"#utility.yul\":5672:5765   */\n      tag_171\n      jump\t// in\n    tag_231:\n        /* \"#utility.yul\":5665:5765   */\n      swap2\n      pop\n        /* \"#utility.yul\":5782:5785   */\n      dup2\n        /* \"#utility.yul\":5775:5785   */\n      swap1\n      pop\n        /* \"#utility.yul\":5520:5791   */\n      swap3\n      swap2\n      pop\n      pop\n      jump\t// out\n        /* \"#utility.yul\":5797:6019   */\n    tag_34:\n        /* \"#utility.yul\":5890:5894   */\n      0x00\n        /* \"#utility.yul\":5928:5930   */\n      0x20\n        /* \"#utility.yul\":5917:5926   */\n      dup3\n        /* \"#utility.yul\":5913:5931   */\n      add\n        /* \"#utility.yul\":5905:5931   */\n      swap1\n      pop\n        /* \"#utility.yul\":5941:6012   */\n      tag_233\n        /* \"#utility.yul\":6009:6010   */\n      0x00\n        /* \"#utility.yul\":5998:6007   */\n      dup4\n        /* \"#utility.yul\":5994:6011   */\n      add\n        /* \"#utility.yul\":5985:5991   */\n      dup5\n        /* \"#utility.yul\":5941:6012   */\n      tag_167\n      jump\t// in\n    tag_233:\n        /* \"#utility.yul\":5797:6019   */\n      swap3\n      swap2\n      pop\n      pop\n      jump\t// out\n        /* \"#utility.yul\":6025:6467   */\n    tag_104:\n        /* \"#utility.yul\":6174:6178   */\n      0x00\n        /* \"#utility.yul\":6212:6214   */\n      0x60\n        /* \"#utility.yul\":6201:6210   */\n      dup3\n        /* \"#utility.yul\":6197:6215   */\n      add\n        /* \"#utility.yul\":6189:6215   */\n      swap1\n      pop\n        /* \"#utility.yul\":6225:6296   */\n      tag_235\n        /* \"#utility.yul\":6293:6294   */\n      0x00\n        /* \"#utility.yul\":6282:6291   */\n      dup4\n        /* \"#utility.yul\":6278:6295   */\n      add\n        /* \"#utility.yul\":6269:6275   */\n      dup7\n        /* \"#utility.yul\":6225:6296   */\n      tag_167\n      jump\t// in\n    tag_235:\n        /* \"#utility.yul\":6306:6378   */\n      tag_236\n        /* \"#utility.yul\":6374:6376   */\n      0x20\n        /* \"#utility.yul\":6363:6372   */\n      dup4\n        /* \"#utility.yul\":6359:6377   */\n      add\n        /* \"#utility.yul\":6350:6356   */\n      dup6\n        /* \"#utility.yul\":6306:6378   */\n      tag_167\n      jump\t// in\n    tag_236:\n        /* \"#utility.yul\":6388:6460   */\n      tag_237\n        /* \"#utility.yul\":6456:6458   */\n      0x40\n        /* \"#utility.yul\":6445:6454   */\n      dup4\n        /* \"#utility.yul\":6441:6459   */\n      add\n        /* \"#utility.yul\":6432:6438   */\n      dup5\n        /* \"#utility.yul\":6388:6460   */\n      tag_226\n      jump\t// in\n    tag_237:\n        /* \"#utility.yul\":6025:6467   */\n      swap5\n      swap4\n      pop\n      pop\n      pop\n      pop\n      jump\t// out\n        /* \"#utility.yul\":6473:6915   */\n    tag_80:\n        /* \"#utility.yul\":6622:6626   */\n      0x00\n        /* \"#utility.yul\":6660:6662   */\n      0x60\n        /* \"#utility.yul\":6649:6658   */\n      dup3\n        /* \"#utility.yul\":6645:6663   */\n      add\n        /* \"#utility.yul\":6637:6663   */\n      swap1\n      pop\n        /* \"#utility.yul\":6673:6744   */\n      tag_239\n        /* \"#utility.yul\":6741:6742   */\n      0x00\n        /* \"#utility.yul\":6730:6739   */\n      dup4\n        /* \"#utility.yul\":6726:6743   */\n      add\n        /* \"#utility.yul\":6717:6723   */\n      dup7\n        /* \"#utility.yul\":6673:6744   */\n      tag_167\n      jump\t// in\n    tag_239:\n        /* \"#utility.yul\":6754:6826   */\n      tag_240\n        /* \"#utility.yul\":6822:6824   */\n      0x20\n        /* \"#utility.yul\":6811:6820   */\n      dup4\n        /* \"#utility.yul\":6807:6825   */\n      add\n        /* \"#utility.yul\":6798:6804   */\n      dup6\n        /* \"#utility.yul\":6754:6826   */\n      tag_226\n      jump\t// in\n    tag_240:\n        /* \"#utility.yul\":6836:6908   */\n      tag_241\n        /* \"#utility.yul\":6904:6906   */\n      0x40\n        /* \"#utility.yul\":6893:6902   */\n      dup4\n        /* \"#utility.yul\":6889:6907   */\n      add\n        /* \"#utility.yul\":6880:6886   */\n      dup5\n        /* \"#utility.yul\":6836:6908   */\n      tag_226\n      jump\t// in\n    tag_241:\n        /* \"#utility.yul\":6473:6915   */\n      swap5\n      swap4\n      pop\n      pop\n      pop\n      pop\n      jump\t// out\n        /* \"#utility.yul\":6921:7191   */\n    tag_30:\n        /* \"#utility.yul\":7038:7042   */\n      0x00\n        /* \"#utility.yul\":7076:7078   */\n      0x20\n        /* \"#utility.yul\":7065:7074   */\n      dup3\n        /* \"#utility.yul\":7061:7079   */\n      add\n        /* \"#utility.yul\":7053:7079   */\n      swap1\n      pop\n        /* \"#utility.yul\":7089:7184   */\n      tag_243\n        /* \"#utility.yul\":7181:7182   */\n      0x00\n        /* \"#utility.yul\":7170:7179   */\n      dup4\n        /* \"#utility.yul\":7166:7183   */\n      add\n        /* \"#utility.yul\":7157:7163   */\n      dup5\n        /* \"#utility.yul\":7089:7184   */\n      tag_179\n      jump\t// in\n    tag_243:\n        /* \"#utility.yul\":6921:7191   */\n      swap3\n      swap2\n      pop\n      pop\n      jump\t// out\n        /* \"#utility.yul\":7197:7447   */\n    tag_16:\n        /* \"#utility.yul\":7304:7308   */\n      0x00\n        /* \"#utility.yul\":7342:7344   */\n      0x20\n        /* \"#utility.yul\":7331:7340   */\n      dup3\n        /* \"#utility.yul\":7327:7345   */\n      add\n        /* \"#utility.yul\":7319:7345   */\n      swap1\n      pop\n        /* \"#utility.yul\":7355:7440   */\n      tag_245\n        /* \"#utility.yul\":7437:7438   */\n      0x00\n        /* \"#utility.yul\":7426:7435   */\n      dup4\n        /* \"#utility.yul\":7422:7439   */\n      add\n        /* \"#utility.yul\":7413:7419   */\n      dup5\n        /* \"#utility.yul\":7355:7440   */\n      tag_183\n      jump\t// in\n    tag_245:\n        /* \"#utility.yul\":7197:7447   */\n      swap3\n      swap2\n      pop\n      pop\n      jump\t// out\n        /* \"#utility.yul\":7453:7766   */\n    tag_134:\n        /* \"#utility.yul\":7566:7570   */\n      0x00\n        /* \"#utility.yul\":7604:7606   */\n      0x20\n        /* \"#utility.yul\":7593:7602   */\n      dup3\n        /* \"#utility.yul\":7589:7607   */\n      add\n        /* \"#utility.yul\":7581:7607   */\n      swap1\n      pop\n        /* \"#utility.yul\":7653:7662   */\n      dup2\n        /* \"#utility.yul\":7647:7651   */\n      dup2\n        /* \"#utility.yul\":7643:7663   */\n      sub\n        /* \"#utility.yul\":7639:7640   */\n      0x00\n        /* \"#utility.yul\":7628:7637   */\n      dup4\n        /* \"#utility.yul\":7624:7641   */\n      add\n        /* \"#utility.yul\":7617:7664   */\n      mstore\n        /* \"#utility.yul\":7681:7759   */\n      tag_247\n        /* \"#utility.yul\":7754:7758   */\n      dup2\n        /* \"#utility.yul\":7745:7751   */\n      dup5\n        /* \"#utility.yul\":7681:7759   */\n      tag_187\n      jump\t// in\n    tag_247:\n        /* \"#utility.yul\":7673:7759   */\n      swap1\n      pop\n        /* \"#utility.yul\":7453:7766   */\n      swap3\n      swap2\n      pop\n      pop\n      jump\t// out\n        /* \"#utility.yul\":7772:8191   */\n    tag_76:\n        /* \"#utility.yul\":7938:7942   */\n      0x00\n        /* \"#utility.yul\":7976:7978   */\n      0x20\n        /* \"#utility.yul\":7965:7974   */\n      dup3\n        /* \"#utility.yul\":7961:7979   */\n      add\n        /* \"#utility.yul\":7953:7979   */\n      swap1\n      pop\n        /* \"#utility.yul\":8025:8034   */\n      dup2\n        /* \"#utility.yul\":8019:8023   */\n      dup2\n        /* \"#utility.yul\":8015:8035   */\n      sub\n        /* \"#utility.yul\":8011:8012   */\n      0x00\n        /* \"#utility.yul\":8000:8009   */\n      dup4\n        /* \"#utility.yul\":7996:8013   */\n      add\n        /* \"#utility.yul\":7989:8036   */\n      mstore\n        /* \"#utility.yul\":8053:8184   */\n      tag_249\n        /* \"#utility.yul\":8179:8183   */\n      dup2\n        /* \"#utility.yul\":8053:8184   */\n      tag_196\n      jump\t// in\n    tag_249:\n        /* \"#utility.yul\":8045:8184   */\n      swap1\n      pop\n        /* \"#utility.yul\":7772:8191   */\n      swap2\n      swap1\n      pop\n      jump\t// out\n        /* \"#utility.yul\":8197:8616   */\n    tag_50:\n        /* \"#utility.yul\":8363:8367   */\n      0x00\n        /* \"#utility.yul\":8401:8403   */\n      0x20\n        /* \"#utility.yul\":8390:8399   */\n      dup3\n        /* \"#utility.yul\":8386:8404   */\n      add\n        /* \"#utility.yul\":8378:8404   */\n      swap1\n      pop\n        /* \"#utility.yul\":8450:8459   */\n      dup2\n        /* \"#utility.yul\":8444:8448   */\n      dup2\n        /* \"#utility.yul\":8440:8460   */\n      sub\n        /* \"#utility.yul\":8436:8437   */\n      0x00\n        /* \"#utility.yul\":8425:8434   */\n      dup4\n        /* \"#utility.yul\":8421:8438   */\n      add\n        /* \"#utility.yul\":8414:8461   */\n      mstore\n        /* \"#utility.yul\":8478:8609   */\n      tag_251\n        /* \"#utility.yul\":8604:8608   */\n      dup2\n        /* \"#utility.yul\":8478:8609   */\n      tag_201\n      jump\t// in\n    tag_251:\n        /* \"#utility.yul\":8470:8609   */\n      swap1\n      pop\n        /* \"#utility.yul\":8197:8616   */\n      swap2\n      swap1\n      pop\n      jump\t// out\n        /* \"#utility.yul\":8622:9041   */\n    tag_100:\n        /* \"#utility.yul\":8788:8792   */\n      0x00\n        /* \"#utility.yul\":8826:8828   */\n      0x20\n        /* \"#utility.yul\":8815:8824   */\n      dup3\n        /* \"#utility.yul\":8811:8829   */\n      add\n        /* \"#utility.yul\":8803:8829   */\n      swap1\n      pop\n        /* \"#utility.yul\":8875:8884   */\n      dup2\n        /* \"#utility.yul\":8869:8873   */\n      dup2\n        /* \"#utility.yul\":8865:8885   */\n      sub\n        /* \"#utility.yul\":8861:8862   */\n      0x00\n        /* \"#utility.yul\":8850:8859   */\n      dup4\n        /* \"#utility.yul\":8846:8863   */\n      add\n        /* \"#utility.yul\":8839:8886   */\n      mstore\n        /* \"#utility.yul\":8903:9034   */\n      tag_253\n        /* \"#utility.yul\":9029:9033   */\n      dup2\n        /* \"#utility.yul\":8903:9034   */\n      tag_206\n      jump\t// in\n    tag_253:\n        /* \"#utility.yul\":8895:9034   */\n      swap1\n      pop\n        /* \"#utility.yul\":8622:9041   */\n      swap2\n      swap1\n      pop\n      jump\t// out\n        /* \"#utility.yul\":9047:9466   */\n    tag_59:\n        /* \"#utility.yul\":9213:9217   */\n      0x00\n        /* \"#utility.yul\":9251:9253   */\n      0x20\n        /* \"#utility.yul\":9240:9249   */\n      dup3\n        /* \"#utility.yul\":9236:9254   */\n      add\n        /* \"#utility.yul\":9228:9254   */\n      swap1\n      pop\n        /* \"#utility.yul\":9300:9309   */\n      dup2\n        /* \"#utility.yul\":9294:9298   */\n      dup2\n        /* \"#utility.yul\":9290:9310   */\n      sub\n        /* \"#utility.yul\":9286:9287   */\n      0x00\n        /* \"#utility.yul\":9275:9284   */\n      dup4\n        /* \"#utility.yul\":9271:9288   */\n      add\n        /* \"#utility.yul\":9264:9311   */\n      mstore\n        /* \"#utility.yul\":9328:9459   */\n      tag_255\n        /* \"#utility.yul\":9454:9458   */\n      dup2\n        /* \"#utility.yul\":9328:9459   */\n      tag_211\n      jump\t// in\n    tag_255:\n        /* \"#utility.yul\":9320:9459   */\n      swap1\n      pop\n        /* \"#utility.yul\":9047:9466   */\n      swap2\n      swap1\n      pop\n      jump\t// out\n        /* \"#utility.yul\":9472:9891   */\n    tag_123:\n        /* \"#utility.yul\":9638:9642   */\n      0x00\n        /* \"#utility.yul\":9676:9678   */\n      0x20\n        /* \"#utility.yul\":9665:9674   */\n      dup3\n        /* \"#utility.yul\":9661:9679   */\n      add\n        /* \"#utility.yul\":9653:9679   */\n      swap1\n      pop\n        /* \"#utility.yul\":9725:9734   */\n      dup2\n        /* \"#utility.yul\":9719:9723   */\n      dup2\n        /* \"#utility.yul\":9715:9735   */\n      sub\n        /* \"#utility.yul\":9711:9712   */\n      0x00\n        /* \"#utility.yul\":9700:9709   */\n      dup4\n        /* \"#utility.yul\":9696:9713   */\n      add\n        /* \"#utility.yul\":9689:9736   */\n      mstore\n        /* \"#utility.yul\":9753:9884   */\n      tag_257\n        /* \"#utility.yul\":9879:9883   */\n      dup2\n        /* \"#utility.yul\":9753:9884   */\n      tag_216\n      jump\t// in\n    tag_257:\n        /* \"#utility.yul\":9745:9884   */\n      swap1\n      pop\n        /* \"#utility.yul\":9472:9891   */\n      swap2\n      swap1\n      pop\n      jump\t// out\n        /* \"#utility.yul\":9897:10316   */\n    tag_114:\n        /* \"#utility.yul\":10063:10067   */\n      0x00\n        /* \"#utility.yul\":10101:10103   */\n      0x20\n        /* \"#utility.yul\":10090:10099   */\n      dup3\n        /* \"#utility.yul\":10086:10104   */\n      add\n        /* \"#utility.yul\":10078:10104   */\n      swap1\n      pop\n        /* \"#utility.yul\":10150:10159   */\n      dup2\n        /* \"#utility.yul\":10144:10148   */\n      dup2\n        /* \"#utility.yul\":10140:10160   */\n      sub\n        /* \"#utility.yul\":10136:10137   */\n      0x00\n        /* \"#utility.yul\":10125:10134   */\n      dup4\n        /* \"#utility.yul\":10121:10138   */\n      add\n        /* \"#utility.yul\":10114:10161   */\n      mstore\n        /* \"#utility.yul\":10178:10309   */\n      tag_259\n        /* \"#utility.yul\":10304:10308   */\n      dup2\n        /* \"#utility.yul\":10178:10309   */\n      tag_221\n      jump\t// in\n    tag_259:\n        /* \"#utility.yul\":10170:10309   */\n      swap1\n      pop\n        /* \"#utility.yul\":9897:10316   */\n      swap2\n      swap1\n      pop\n      jump\t// out\n        /* \"#utility.yul\":10322:10544   */\n    tag_26:\n        /* \"#utility.yul\":10415:10419   */\n      0x00\n        /* \"#utility.yul\":10453:10455   */\n      0x20\n        /* \"#utility.yul\":10442:10451   */\n      dup3\n        /* \"#utility.yul\":10438:10456   */\n      add\n        /* \"#utility.yul\":10430:10456   */\n      swap1\n      pop\n        /* \"#utility.yul\":10466:10537   */\n      tag_261\n        /* \"#utility.yul\":10534:10535   */\n      0x00\n        /* \"#utility.yul\":10523:10532   */\n      dup4\n        /* \"#utility.yul\":10519:10536   */\n      add\n        /* \"#utility.yul\":10510:10516   */\n      dup5\n        /* \"#utility.yul\":10466:10537   */\n      tag_226\n      jump\t// in\n    tag_261:\n        /* \"#utility.yul\":10322:10544   */\n      swap3\n      swap2\n      pop\n      pop\n      jump\t// out\n        /* \"#utility.yul\":10550:10882   */\n    tag_89:\n        /* \"#utility.yul\":10671:10675   */\n      0x00\n        /* \"#utility.yul\":10709:10711   */\n      0x40\n        /* \"#utility.yul\":10698:10707   */\n      dup3\n        /* \"#utility.yul\":10694:10712   */\n      add\n        /* \"#utility.yul\":10686:10712   */\n      swap1\n      pop\n        /* \"#utility.yul\":10722:10793   */\n      tag_263\n        /* \"#utility.yul\":10790:10791   */\n      0x00\n        /* \"#utility.yul\":10779:10788   */\n      dup4\n        /* \"#utility.yul\":10775:10792   */\n      add\n        /* \"#utility.yul\":10766:10772   */\n      dup6\n        /* \"#utility.yul\":10722:10793   */\n      tag_226\n      jump\t// in\n    tag_263:\n        /* \"#utility.yul\":10803:10875   */\n      tag_264\n        /* \"#utility.yul\":10871:10873   */\n      0x20\n        /* \"#utility.yul\":10860:10869   */\n      dup4\n        /* \"#utility.yul\":10856:10874   */\n      add\n        /* \"#utility.yul\":10847:10853   */\n      dup5\n        /* \"#utility.yul\":10803:10875   */\n      tag_226\n      jump\t// in\n    tag_264:\n        /* \"#utility.yul\":10550:10882   */\n      swap4\n      swap3\n      pop\n      pop\n      pop\n      jump\t// out\n        /* \"#utility.yul\":10969:11067   */\n    tag_174:\n        /* \"#utility.yul\":11020:11026   */\n      0x00\n        /* \"#utility.yul\":11054:11059   */\n      dup2\n        /* \"#utility.yul\":11048:11060   */\n      mload\n        /* \"#utility.yul\":11038:11060   */\n      swap1\n      pop\n        /* \"#utility.yul\":10969:11067   */\n      swap2\n      swap1\n      pop\n      jump\t// out\n        /* \"#utility.yul\":11073:11172   */\n    tag_190:\n        /* \"#utility.yul\":11125:11131   */\n      0x00\n        /* \"#utility.yul\":11159:11164   */\n      dup2\n        /* \"#utility.yul\":11153:11165   */\n      mload\n        /* \"#utility.yul\":11143:11165   */\n      swap1\n      pop\n        /* \"#utility.yul\":11073:11172   */\n      swap2\n      swap1\n      pop\n      jump\t// out\n        /* \"#utility.yul\":11178:11325   */\n    tag_176:\n        /* \"#utility.yul\":11279:11290   */\n      0x00\n        /* \"#utility.yul\":11316:11319   */\n      dup2\n        /* \"#utility.yul\":11301:11319   */\n      swap1\n      pop\n        /* \"#utility.yul\":11178:11325   */\n      swap3\n      swap2\n      pop\n      pop\n      jump\t// out\n        /* \"#utility.yul\":11331:11500   */\n    tag_192:\n        /* \"#utility.yul\":11415:11426   */\n      0x00\n        /* \"#utility.yul\":11449:11455   */\n      dup3\n        /* \"#utility.yul\":11444:11447   */\n      dup3\n        /* \"#utility.yul\":11437:11456   */\n      mstore\n        /* \"#utility.yul\":11489:11493   */\n      0x20\n        /* \"#utility.yul\":11484:11487   */\n      dup3\n        /* \"#utility.yul\":11480:11494   */\n      add\n        /* \"#utility.yul\":11465:11494   */\n      swap1\n      pop\n        /* \"#utility.yul\":11331:11500   */\n      swap3\n      swap2\n      pop\n      pop\n      jump\t// out\n        /* \"#utility.yul\":11506:11691   */\n    tag_97:\n        /* \"#utility.yul\":11546:11547   */\n      0x00\n        /* \"#utility.yul\":11563:11583   */\n      tag_272\n        /* \"#utility.yul\":11581:11582   */\n      dup3\n        /* \"#utility.yul\":11563:11583   */\n      tag_229\n      jump\t// in\n    tag_272:\n        /* \"#utility.yul\":11558:11583   */\n      swap2\n      pop\n        /* \"#utility.yul\":11597:11617   */\n      tag_273\n        /* \"#utility.yul\":11615:11616   */\n      dup4\n        /* \"#utility.yul\":11597:11617   */\n      tag_229\n      jump\t// in\n    tag_273:\n        /* \"#utility.yul\":11592:11617   */\n      swap3\n      pop\n        /* \"#utility.yul\":11636:11637   */\n      dup3\n        /* \"#utility.yul\":11626:11661   */\n      tag_274\n      jumpi\n        /* \"#utility.yul\":11641:11659   */\n      tag_275\n      tag_276\n      jump\t// in\n    tag_275:\n        /* \"#utility.yul\":11626:11661   */\n    tag_274:\n        /* \"#utility.yul\":11683:11684   */\n      dup3\n        /* \"#utility.yul\":11680:11681   */\n      dup3\n        /* \"#utility.yul\":11676:11685   */\n      div\n        /* \"#utility.yul\":11671:11685   */\n      swap1\n      pop\n        /* \"#utility.yul\":11506:11691   */\n      swap3\n      swap2\n      pop\n      pop\n      jump\t// out\n        /* \"#utility.yul\":11697:12045   */\n    tag_95:\n        /* \"#utility.yul\":11737:11744   */\n      0x00\n        /* \"#utility.yul\":11760:11780   */\n      tag_278\n        /* \"#utility.yul\":11778:11779   */\n      dup3\n        /* \"#utility.yul\":11760:11780   */\n      tag_229\n      jump\t// in\n    tag_278:\n        /* \"#utility.yul\":11755:11780   */\n      swap2\n      pop\n        /* \"#utility.yul\":11794:11814   */\n      tag_279\n        /* \"#utility.yul\":11812:11813   */\n      dup4\n        /* \"#utility.yul\":11794:11814   */\n      tag_229\n      jump\t// in\n    tag_279:\n        /* \"#utility.yul\":11789:11814   */\n      swap3\n      pop\n        /* \"#utility.yul\":11982:11983   */\n      dup2\n        /* \"#utility.yul\":11914:11980   */\n      0xffffffffffffffffffffffffffffffffffffffffffffffffffffffffffffffff\n        /* \"#utility.yul\":11910:11984   */\n      div\n        /* \"#utility.yul\":11907:11908   */\n      dup4\n        /* \"#utility.yul\":11904:11985   */\n      gt\n        /* \"#utility.yul\":11899:11900   */\n      dup3\n        /* \"#utility.yul\":11892:11901   */\n      iszero\n        /* \"#utility.yul\":11885:11902   */\n      iszero\n        /* \"#utility.yul\":11881:11986   */\n      and\n        /* \"#utility.yul\":11878:12009   */\n      iszero\n      tag_280\n      jumpi\n        /* \"#utility.yul\":11989:12007   */\n      tag_281\n      tag_282\n      jump\t// in\n    tag_281:\n        /* \"#utility.yul\":11878:12009   */\n    tag_280:\n        /* \"#utility.yul\":12037:12038   */\n      dup3\n        /* \"#utility.yul\":12034:12035   */\n      dup3\n        /* \"#utility.yul\":12030:12039   */\n      mul\n        /* \"#utility.yul\":12019:12039   */\n      swap1\n      pop\n        /* \"#utility.yul\":11697:12045   */\n      swap3\n      swap2\n      pop\n      pop\n      jump\t// out\n        /* \"#utility.yul\":12051:12147   */\n    tag_170:\n        /* \"#utility.yul\":12088:12095   */\n      0x00\n        /* \"#utility.yul\":12117:12141   */\n      tag_284\n        /* \"#utility.yul\":12135:12140   */\n      dup3\n        /* \"#utility.yul\":12117:12141   */\n      tag_285\n      jump\t// in\n    tag_284:\n        /* \"#utility.yul\":12106:12141   */\n      swap1\n      pop\n        /* \"#utility.yul\":12051:12147   */\n      swap2\n      swap1\n      pop\n      jump\t// out\n        /* \"#utility.yul\":12153:12243   */\n    tag_286:\n        /* \"#utility.yul\":12187:12194   */\n      0x00\n        /* \"#utility.yul\":12230:12235   */\n      dup2\n        /* \"#utility.yul\":12223:12236   */\n      iszero\n        /* \"#utility.yul\":12216:12237   */\n      iszero\n        /* \"#utility.yul\":12205:12237   */\n      swap1\n      pop\n        /* \"#utility.yul\":12153:12243   */\n      swap2\n      swap1\n      pop\n      jump\t// out\n        /* \"#utility.yul\":12249:12375   */\n    tag_285:\n        /* \"#utility.yul\":12286:12293   */\n      0x00\n        /* \"#utility.yul\":12326:12368   */\n      0xffffffffffffffffffffffffffffffffffffffff\n        /* \"#utility.yul\":12319:12324   */\n      dup3\n        /* \"#utility.yul\":12315:12369   */\n      and\n        /* \"#utility.yul\":12304:12369   */\n      swap1\n      pop\n        /* \"#utility.yul\":12249:12375   */\n      swap2\n      swap1\n      pop\n      jump\t// out\n        /* \"#utility.yul\":12381:12458   */\n    tag_229:\n        /* \"#utility.yul\":12418:12425   */\n      0x00\n        /* \"#utility.yul\":12447:12452   */\n      dup2\n        /* \"#utility.yul\":12436:12452   */\n      swap1\n      pop\n        /* \"#utility.yul\":12381:12458   */\n      swap2\n      swap1\n      pop\n      jump\t// out\n        /* \"#utility.yul\":12464:12614   */\n    tag_182:\n        /* \"#utility.yul\":12538:12547   */\n      0x00\n        /* \"#utility.yul\":12571:12608   */\n      tag_291\n        /* \"#utility.yul\":12602:12607   */\n      dup3\n        /* \"#utility.yul\":12571:12608   */\n      tag_292\n      jump\t// in\n    tag_291:\n        /* \"#utility.yul\":12558:12608   */\n      swap1\n      pop\n        /* \"#utility.yul\":12464:12614   */\n      swap2\n      swap1\n      pop\n      jump\t// out\n        /* \"#utility.yul\":12620:12760   */\n    tag_186:\n        /* \"#utility.yul\":12684:12693   */\n      0x00\n        /* \"#utility.yul\":12717:12754   */\n      tag_294\n        /* \"#utility.yul\":12748:12753   */\n      dup3\n        /* \"#utility.yul\":12717:12754   */\n      tag_292\n      jump\t// in\n    tag_294:\n        /* \"#utility.yul\":12704:12754   */\n      swap1\n      pop\n        /* \"#utility.yul\":12620:12760   */\n      swap2\n      swap1\n      pop\n      jump\t// out\n        /* \"#utility.yul\":12766:12892   */\n    tag_292:\n        /* \"#utility.yul\":12816:12825   */\n      0x00\n        /* \"#utility.yul\":12849:12886   */\n      tag_296\n        /* \"#utility.yul\":12880:12885   */\n      dup3\n        /* \"#utility.yul\":12849:12886   */\n      tag_297\n      jump\t// in\n    tag_296:\n        /* \"#utility.yul\":12836:12886   */\n      swap1\n      pop\n        /* \"#utility.yul\":12766:12892   */\n      swap2\n      swap1\n      pop\n      jump\t// out\n        /* \"#utility.yul\":12898:13011   */\n    tag_297:\n        /* \"#utility.yul\":12948:12957   */\n      0x00\n        /* \"#utility.yul\":12981:13005   */\n      tag_299\n        /* \"#utility.yul\":12999:13004   */\n      dup3\n        /* \"#utility.yul\":12981:13005   */\n      tag_285\n      jump\t// in\n    tag_299:\n        /* \"#utility.yul\":12968:13005   */\n      swap1\n      pop\n        /* \"#utility.yul\":12898:13011   */\n      swap2\n      swap1\n      pop\n      jump\t// out\n        /* \"#utility.yul\":13017:13324   */\n    tag_178:\n        /* \"#utility.yul\":13085:13086   */\n      0x00\n        /* \"#utility.yul\":13095:13208   */\n    tag_301:\n        /* \"#utility.yul\":13109:13115   */\n      dup4\n        /* \"#utility.yul\":13106:13107   */\n      dup2\n        /* \"#utility.yul\":13103:13116   */\n      lt\n        /* \"#utility.yul\":13095:13208   */\n      iszero\n      tag_303\n      jumpi\n        /* \"#utility.yul\":13194:13195   */\n      dup1\n        /* \"#utility.yul\":13189:13192   */\n      dup3\n        /* \"#utility.yul\":13185:13196   */\n      add\n        /* \"#utility.yul\":13179:13197   */\n      mload\n        /* \"#utility.yul\":13175:13176   */\n      dup2\n        /* \"#utility.yul\":13170:13173   */\n      dup5\n        /* \"#utility.yul\":13166:13177   */\n      add\n        /* \"#utility.yul\":13159:13198   */\n      mstore\n        /* \"#utility.yul\":13131:13133   */\n      0x20\n        /* \"#utility.yul\":13128:13129   */\n      dup2\n        /* \"#utility.yul\":13124:13134   */\n      add\n        /* \"#utility.yul\":13119:13134   */\n      swap1\n      pop\n        /* \"#utility.yul\":13095:13208   */\n      jump(tag_301)\n    tag_303:\n        /* \"#utility.yul\":13226:13232   */\n      dup4\n        /* \"#utility.yul\":13223:13224   */\n      dup2\n        /* \"#utility.yul\":13220:13233   */\n      gt\n        /* \"#utility.yul\":13217:13318   */\n      iszero\n      tag_304\n      jumpi\n        /* \"#utility.yul\":13306:13307   */\n      0x00\n        /* \"#utility.yul\":13297:13303   */\n      dup5\n        /* \"#utility.yul\":13292:13295   */\n      dup5\n        /* \"#utility.yul\":13288:13304   */\n      add\n        /* \"#utility.yul\":13281:13308   */\n      mstore\n        /* \"#utility.yul\":13217:13318   */\n    tag_304:\n        /* \"#utility.yul\":13066:13324   */\n      pop\n        /* \"#utility.yul\":13017:13324   */\n      pop\n      pop\n      pop\n      jump\t// out\n        /* \"#utility.yul\":13330:13510   */\n    tag_282:\n        /* \"#utility.yul\":13378:13455   */\n      0x4e487b7100000000000000000000000000000000000000000000000000000000\n        /* \"#utility.yul\":13375:13376   */\n      0x00\n        /* \"#utility.yul\":13368:13456   */\n      mstore\n        /* \"#utility.yul\":13475:13479   */\n      0x11\n        /* \"#utility.yul\":13472:13473   */\n      0x04\n        /* \"#utility.yul\":13465:13480   */\n      mstore\n        /* \"#utility.yul\":13499:13503   */\n      0x24\n        /* \"#utility.yul\":13496:13497   */\n      0x00\n        /* \"#utility.yul\":13489:13504   */\n      revert\n        /* \"#utility.yul\":13516:13696   */\n    tag_276:\n        /* \"#utility.yul\":13564:13641   */\n      0x4e487b7100000000000000000000000000000000000000000000000000000000\n        /* \"#utility.yul\":13561:13562   */\n      0x00\n        /* \"#utility.yul\":13554:13642   */\n      mstore\n        /* \"#utility.yul\":13661:13665   */\n      0x12\n        /* \"#utility.yul\":13658:13659   */\n      0x04\n        /* \"#utility.yul\":13651:13666   */\n      mstore\n        /* \"#utility.yul\":13685:13689   */\n      0x24\n        /* \"#utility.yul\":13682:13683   */\n      0x00\n        /* \"#utility.yul\":13675:13690   */\n      revert\n        /* \"#utility.yul\":13825:13942   */\n    tag_152:\n        /* \"#utility.yul\":13934:13935   */\n      0x00\n        /* \"#utility.yul\":13931:13932   */\n      dup1\n        /* \"#utility.yul\":13924:13936   */\n      revert\n        /* \"#utility.yul\":13948:14050   */\n    tag_195:\n        /* \"#utility.yul\":13989:13995   */\n      0x00\n        /* \"#utility.yul\":14040:14042   */\n      0x1f\n        /* \"#utility.yul\":14036:14043   */\n      not\n        /* \"#utility.yul\":14031:14033   */\n      0x1f\n        /* \"#utility.yul\":14024:14029   */\n      dup4\n        /* \"#utility.yul\":14020:14034   */\n      add\n        /* \"#utility.yul\":14016:14044   */\n      and\n        /* \"#utility.yul\":14006:14044   */\n      swap1\n      pop\n        /* \"#utility.yul\":13948:14050   */\n      swap2\n      swap1\n      pop\n      jump\t// out\n        /* \"#utility.yul\":14056:14281   */\n    tag_200:\n        /* \"#utility.yul\":14196:14230   */\n      0x4f776e61626c653a206e6577206f776e657220697320746865207a65726f2061\n        /* \"#utility.yul\":14192:14193   */\n      0x00\n        /* \"#utility.yul\":14184:14190   */\n      dup3\n        /* \"#utility.yul\":14180:14194   */\n      add\n        /* \"#utility.yul\":14173:14231   */\n      mstore\n        /* \"#utility.yul\":14265:14273   */\n      0x6464726573730000000000000000000000000000000000000000000000000000\n        /* \"#utility.yul\":14260:14262   */\n      0x20\n        /* \"#utility.yul\":14252:14258   */\n      dup3\n        /* \"#utility.yul\":14248:14263   */\n      add\n        /* \"#utility.yul\":14241:14274   */\n      mstore\n        /* \"#utility.yul\":14056:14281   */\n      pop\n      jump\t// out\n        /* \"#utility.yul\":14287:14448   */\n    tag_205:\n        /* \"#utility.yul\":14427:14440   */\n      0x4e6f74206f6e206c697374000000000000000000000000000000000000000000\n        /* \"#utility.yul\":14423:14424   */\n      0x00\n        /* \"#utility.yul\":14415:14421   */\n      dup3\n        /* \"#utility.yul\":14411:14425   */\n      add\n        /* \"#utility.yul\":14404:14441   */\n      mstore\n        /* \"#utility.yul\":14287:14448   */\n      pop\n      jump\t// out\n        /* \"#utility.yul\":14454:14674   */\n    tag_210:\n        /* \"#utility.yul\":14594:14628   */\n      0x536166654d6174683a206d756c7469706c69636174696f6e206f766572666c6f\n        /* \"#utility.yul\":14590:14591   */\n      0x00\n        /* \"#utility.yul\":14582:14588   */\n      dup3\n        /* \"#utility.yul\":14578:14592   */\n      add\n        /* \"#utility.yul\":14571:14629   */\n      mstore\n        /* \"#utility.yul\":14663:14666   */\n      0x7700000000000000000000000000000000000000000000000000000000000000\n        /* \"#utility.yul\":14658:14660   */\n      0x20\n        /* \"#utility.yul\":14650:14656   */\n      dup3\n        /* \"#utility.yul\":14646:14661   */\n      add\n        /* \"#utility.yul\":14639:14667   */\n      mstore\n        /* \"#utility.yul\":14454:14674   */\n      pop\n      jump\t// out\n        /* \"#utility.yul\":14680:14862   */\n    tag_215:\n        /* \"#utility.yul\":14820:14854   */\n      0x4f776e61626c653a2063616c6c6572206973206e6f7420746865206f776e6572\n        /* \"#utility.yul\":14816:14817   */\n      0x00\n        /* \"#utility.yul\":14808:14814   */\n      dup3\n        /* \"#utility.yul\":14804:14818   */\n      add\n        /* \"#utility.yul\":14797:14855   */\n      mstore\n        /* \"#utility.yul\":14680:14862   */\n      pop\n      jump\t// out\n        /* \"#utility.yul\":14868:15047   */\n    tag_220:\n        /* \"#utility.yul\":15008:15039   */\n      0x416464726573733a2063616c6c20746f206e6f6e2d636f6e7472616374000000\n        /* \"#utility.yul\":15004:15005   */\n      0x00\n        /* \"#utility.yul\":14996:15002   */\n      dup3\n        /* \"#utility.yul\":14992:15006   */\n      add\n        /* \"#utility.yul\":14985:15040   */\n      mstore\n        /* \"#utility.yul\":14868:15047   */\n      pop\n      jump\t// out\n        /* \"#utility.yul\":15053:15282   */\n    tag_225:\n        /* \"#utility.yul\":15193:15227   */\n      0x5361666545524332303a204552433230206f7065726174696f6e20646964206e\n        /* \"#utility.yul\":15189:15190   */\n      0x00\n        /* \"#utility.yul\":15181:15187   */\n      dup3\n        /* \"#utility.yul\":15177:15191   */\n      add\n        /* \"#utility.yul\":15170:15228   */\n      mstore\n        /* \"#utility.yul\":15262:15274   */\n      0x6f74207375636365656400000000000000000000000000000000000000000000\n        /* \"#utility.yul\":15257:15259   */\n      0x20\n        /* \"#utility.yul\":15249:15255   */\n      dup3\n        /* \"#utility.yul\":15245:15260   */\n      add\n        /* \"#utility.yul\":15238:15275   */\n      mstore\n        /* \"#utility.yul\":15053:15282   */\n      pop\n      jump\t// out\n        /* \"#utility.yul\":15288:15410   */\n    tag_140:\n        /* \"#utility.yul\":15361:15385   */\n      tag_318\n        /* \"#utility.yul\":15379:15384   */\n      dup2\n        /* \"#utility.yul\":15361:15385   */\n      tag_170\n      jump\t// in\n    tag_318:\n        /* \"#utility.yul\":15354:15359   */\n      dup2\n        /* \"#utility.yul\":15351:15386   */\n      eq\n        /* \"#utility.yul\":15341:15404   */\n      tag_319\n      jumpi\n        /* \"#utility.yul\":15400:15401   */\n      0x00\n        /* \"#utility.yul\":15397:15398   */\n      dup1\n        /* \"#utility.yul\":15390:15402   */\n      revert\n        /* \"#utility.yul\":15341:15404   */\n    tag_319:\n        /* \"#utility.yul\":15288:15410   */\n      pop\n      jump\t// out\n        /* \"#utility.yul\":15416:15532   */\n    tag_144:\n        /* \"#utility.yul\":15486:15507   */\n      tag_321\n        /* \"#utility.yul\":15501:15506   */\n      dup2\n        /* \"#utility.yul\":15486:15507   */\n      tag_286\n      jump\t// in\n    tag_321:\n        /* \"#utility.yul\":15479:15484   */\n      dup2\n        /* \"#utility.yul\":15476:15508   */\n      eq\n        /* \"#utility.yul\":15466:15526   */\n      tag_322\n      jumpi\n        /* \"#utility.yul\":15522:15523   */\n      0x00\n        /* \"#utility.yul\":15519:15520   */\n      dup1\n        /* \"#utility.yul\":15512:15524   */\n      revert\n        /* \"#utility.yul\":15466:15526   */\n    tag_322:\n        /* \"#utility.yul\":15416:15532   */\n      pop\n      jump\t// out\n        /* \"#utility.yul\":15538:15660   */\n    tag_148:\n        /* \"#utility.yul\":15611:15635   */\n      tag_324\n        /* \"#utility.yul\":15629:15634   */\n      dup2\n        /* \"#utility.yul\":15611:15635   */\n      tag_229\n      jump\t// in\n    tag_324:\n        /* \"#utility.yul\":15604:15609   */\n      dup2\n        /* \"#utility.yul\":15601:15636   */\n      eq\n        /* \"#utility.yul\":15591:15654   */\n      tag_325\n      jumpi\n        /* \"#utility.yul\":15650:15651   */\n      0x00\n        /* \"#utility.yul\":15647:15648   */\n      dup1\n        /* \"#utility.yul\":15640:15652   */\n      revert\n        /* \"#utility.yul\":15591:15654   */\n    tag_325:\n        /* \"#utility.yul\":15538:15660   */\n      pop\n      jump\t// out\n\n    auxdata: 0xa2646970667358221220c9b01cf6cd83383ec38212674860820ed115e941efbeaa861b5c8b13a514626164736f6c63430008070033\n}\n",
				"bytecode": {
					"linkReferences": {},
					"object": "60806040523480156200001157600080fd5b5060405162001743380380620017438339818101604052810190620000379190620002ba565b6000620000496200029b60201b60201c565b9050806000806101000a81548173ffffffffffffffffffffffffffffffffffffffff021916908373ffffffffffffffffffffffffffffffffffffffff1602179055508073ffffffffffffffffffffffffffffffffffffffff16600073ffffffffffffffffffffffffffffffffffffffff167f8be0079c531659141344cd1fd0a4f28419497f9722a3daafe3b4186f6b6457e060405160405180910390a350600073ffffffffffffffffffffffffffffffffffffffff168373ffffffffffffffffffffffffffffffffffffffff16141580156200015157503073ffffffffffffffffffffffffffffffffffffffff168373ffffffffffffffffffffffffffffffffffffffff1614155b6200015b57600080fd5b600073ffffffffffffffffffffffffffffffffffffffff168273ffffffffffffffffffffffffffffffffffffffff1614158015620001c557503073ffffffffffffffffffffffffffffffffffffffff168273ffffffffffffffffffffffffffffffffffffffff1614155b620001cf57600080fd5b82600160006101000a81548173ffffffffffffffffffffffffffffffffffffffff021916908373ffffffffffffffffffffffffffffffffffffffff16021790555081600260006101000a81548173ffffffffffffffffffffffffffffffffffffffff021916908373ffffffffffffffffffffffffffffffffffffffff16021790555080600360006101000a81548173ffffffffffffffffffffffffffffffffffffffff021916908373ffffffffffffffffffffffffffffffffffffffff16021790555050505062000369565b600033905090565b600081519050620002b4816200034f565b92915050565b600080600060608486031215620002d657620002d56200034a565b5b6000620002e686828701620002a3565b9350506020620002f986828701620002a3565b92505060406200030c86828701620002a3565b9150509250925092565b600062000323826200032a565b9050919050565b600073ffffffffffffffffffffffffffffffffffffffff82169050919050565b600080fd5b6200035a8162000316565b81146200036657600080fd5b50565b6113ca80620003796000396000f3fe608060405234801561001057600080fd5b50600436106100935760003560e01c806361d027b31161006657806361d027b314610120578063715018a61461013e5780638da5cb5b14610148578063d3f5057314610166578063f2fde38b1461018257610093565b8063170d542c146100985780633e56e6c3146100b6578063432be4d0146100d257806347ccca0214610102575b600080fd5b6100a061019e565b6040516100ad9190610eb2565b60405180910390f35b6100d060048036038101906100cb9190610c3f565b6101c4565b005b6100ec60048036038101906100e79190610c12565b610230565b6040516100f99190610faf565b60405180910390f35b61010a610248565b6040516101179190610e97565b60405180910390f35b61012861026e565b6040516101359190610e0e565b60405180910390f35b610146610294565b005b6101506103e7565b60405161015d9190610e0e565b60405180910390f35b610180600480360381019061017b9190610c3f565b610410565b005b61019c60048036038101906101979190610bb8565b6104b3565b005b600260009054906101000a900473ffffffffffffffffffffffffffffffffffffffff1681565b600060046000848152602001908152602001600020541161021a576040517f08c379a000000000000000000000000000000000000000000000000000000000815260040161021190610f0f565b60405180910390fd5b61022c610225610675565b838361067d565b5050565b60046020528060005260406000206000915090505481565b600160009054906101000a900473ffffffffffffffffffffffffffffffffffffffff1681565b600360009054906101000a900473ffffffffffffffffffffffffffffffffffffffff1681565b61029c610675565b73ffffffffffffffffffffffffffffffffffffffff1660008054906101000a900473ffffffffffffffffffffffffffffffffffffffff1673ffffffffffffffffffffffffffffffffffffffff1614610329576040517f08c379a000000000000000000000000000000000000000000000000000000000815260040161032090610f4f565b60405180910390fd5b600073ffffffffffffffffffffffffffffffffffffffff1660008054906101000a900473ffffffffffffffffffffffffffffffffffffffff1673ffffffffffffffffffffffffffffffffffffffff167f8be0079c531659141344cd1fd0a4f28419497f9722a3daafe3b4186f6b6457e060405160405180910390a360008060006101000a81548173ffffffffffffffffffffffffffffffffffffffff021916908373ffffffffffffffffffffffffffffffffffffffff160217905550565b60008060009054906101000a900473ffffffffffffffffffffffffffffffffffffffff16905090565b610418610675565b73ffffffffffffffffffffffffffffffffffffffff1660008054906101000a900473ffffffffffffffffffffffffffffffffffffffff1673ffffffffffffffffffffffffffffffffffffffff16146104a5576040517f08c379a000000000000000000000000000000000000000000000000000000000815260040161049c90610f4f565b60405180910390fd5b6104af828261080d565b5050565b6104bb610675565b73ffffffffffffffffffffffffffffffffffffffff1660008054906101000a900473ffffffffffffffffffffffffffffffffffffffff1673ffffffffffffffffffffffffffffffffffffffff1614610548576040517f08c379a000000000000000000000000000000000000000000000000000000000815260040161053f90610f4f565b60405180910390fd5b600073ffffffffffffffffffffffffffffffffffffffff168173ffffffffffffffffffffffffffffffffffffffff1614156105b8576040517f08c379a00000000000000000000000000000000000000000000000000000000081526004016105af90610eef565b60405180910390fd5b8073ffffffffffffffffffffffffffffffffffffffff1660008054906101000a900473ffffffffffffffffffffffffffffffffffffffff1673ffffffffffffffffffffffffffffffffffffffff167f8be0079c531659141344cd1fd0a4f28419497f9722a3daafe3b4186f6b6457e060405160405180910390a3806000806101000a81548173ffffffffffffffffffffffffffffffffffffffff021916908373ffffffffffffffffffffffffffffffffffffffff16021790555050565b600033905090565b600160009054906101000a900473ffffffffffffffffffffffffffffffffffffffff1673ffffffffffffffffffffffffffffffffffffffff166324eeedf68484846040518463ffffffff1660e01b81526004016106dc93929190610e60565b600060405180830381600087803b1580156106f657600080fd5b505af115801561070a573d6000803e3d6000fd5b505050506107a483600360009054906101000a900473ffffffffffffffffffffffffffffffffffffffff1661075b84600460008881526020019081526020016000205461086190919063ffffffff16565b600260009054906101000a900473ffffffffffffffffffffffffffffffffffffffff1673ffffffffffffffffffffffffffffffffffffffff166108dc909392919063ffffffff16565b818373ffffffffffffffffffffffffffffffffffffffff167fbeae048c6d270d9469f86cf6e8fedda3c60ad770f16c24c9fc131c8e9a09101d836004600087815260200190815260200160002054604051610800929190610fca565b60405180910390a3505050565b806004600084815260200190815260200160002081905550817f92664190cca12aca9cd5309d87194bdda75bb51362d71c06e1a6f75c7c765711826040516108559190610faf565b60405180910390a25050565b60008083141561087457600090506108d6565b600082846108829190611056565b90508284826108919190611025565b146108d1576040517f08c379a00000000000000000000000000000000000000000000000000000000081526004016108c890610f2f565b60405180910390fd5b809150505b92915050565b61095f846323b872dd60e01b8585856040516024016108fd93929190610e29565b604051602081830303815290604052907bffffffffffffffffffffffffffffffffffffffffffffffffffffffff19166020820180517bffffffffffffffffffffffffffffffffffffffffffffffffffffffff8381831617835250505050610965565b50505050565b60006109c7826040518060400160405280602081526020017f5361666545524332303a206c6f772d6c6576656c2063616c6c206661696c65648152508573ffffffffffffffffffffffffffffffffffffffff16610a2c9092919063ffffffff16565b9050600081511115610a2757808060200190518101906109e79190610be5565b610a26576040517f08c379a0000000000000000000000000000000000000000000000000000000008152600401610a1d90610f8f565b60405180910390fd5b5b505050565b6060610a3b8484600085610a44565b90509392505050565b6060610a4f85610b66565b610a8e576040517f08c379a0000000000000000000000000000000000000000000000000000000008152600401610a8590610f6f565b60405180910390fd5b6000808673ffffffffffffffffffffffffffffffffffffffff168587604051610ab79190610df7565b60006040518083038185875af1925050503d8060008114610af4576040519150601f19603f3d011682016040523d82523d6000602084013e610af9565b606091505b50915091508115610b0e578092505050610b5e565b600081511115610b215780518082602001fd5b836040517f08c379a0000000000000000000000000000000000000000000000000000000008152600401610b559190610ecd565b60405180910390fd5b949350505050565b600080823b905060008111915050919050565b600081359050610b888161134f565b92915050565b600081519050610b9d81611366565b92915050565b600081359050610bb28161137d565b92915050565b600060208284031215610bce57610bcd6111d1565b5b6000610bdc84828501610b79565b91505092915050565b600060208284031215610bfb57610bfa6111d1565b5b6000610c0984828501610b8e565b91505092915050565b600060208284031215610c2857610c276111d1565b5b6000610c3684828501610ba3565b91505092915050565b60008060408385031215610c5657610c556111d1565b5b6000610c6485828601610ba3565b9250506020610c7585828601610ba3565b9150509250929050565b610c88816110b0565b82525050565b6000610c9982610ff3565b610ca38185611009565b9350610cb3818560208601611140565b80840191505092915050565b610cc8816110f8565b82525050565b610cd78161110a565b82525050565b6000610ce882610ffe565b610cf28185611014565b9350610d02818560208601611140565b610d0b816111d6565b840191505092915050565b6000610d23602683611014565b9150610d2e826111e7565b604082019050919050565b6000610d46600b83611014565b9150610d5182611236565b602082019050919050565b6000610d69602183611014565b9150610d748261125f565b604082019050919050565b6000610d8c602083611014565b9150610d97826112ae565b602082019050919050565b6000610daf601d83611014565b9150610dba826112d7565b602082019050919050565b6000610dd2602a83611014565b9150610ddd82611300565b604082019050919050565b610df1816110ee565b82525050565b6000610e038284610c8e565b915081905092915050565b6000602082019050610e236000830184610c7f565b92915050565b6000606082019050610e3e6000830186610c7f565b610e4b6020830185610c7f565b610e586040830184610de8565b949350505050565b6000606082019050610e756000830186610c7f565b610e826020830185610de8565b610e8f6040830184610de8565b949350505050565b6000602082019050610eac6000830184610cbf565b92915050565b6000602082019050610ec76000830184610cce565b92915050565b60006020820190508181036000830152610ee78184610cdd565b905092915050565b60006020820190508181036000830152610f0881610d16565b9050919050565b60006020820190508181036000830152610f2881610d39565b9050919050565b60006020820190508181036000830152610f4881610d5c565b9050919050565b60006020820190508181036000830152610f6881610d7f565b9050919050565b60006020820190508181036000830152610f8881610da2565b9050919050565b60006020820190508181036000830152610fa881610dc5565b9050919050565b6000602082019050610fc46000830184610de8565b92915050565b6000604082019050610fdf6000830185610de8565b610fec6020830184610de8565b9392505050565b600081519050919050565b600081519050919050565b600081905092915050565b600082825260208201905092915050565b6000611030826110ee565b915061103b836110ee565b92508261104b5761104a6111a2565b5b828204905092915050565b6000611061826110ee565b915061106c836110ee565b9250817fffffffffffffffffffffffffffffffffffffffffffffffffffffffffffffffff04831182151516156110a5576110a4611173565b5b828202905092915050565b60006110bb826110ce565b9050919050565b60008115159050919050565b600073ffffffffffffffffffffffffffffffffffffffff82169050919050565b6000819050919050565b60006111038261111c565b9050919050565b60006111158261111c565b9050919050565b60006111278261112e565b9050919050565b6000611139826110ce565b9050919050565b60005b8381101561115e578082015181840152602081019050611143565b8381111561116d576000848401525b50505050565b7f4e487b7100000000000000000000000000000000000000000000000000000000600052601160045260246000fd5b7f4e487b7100000000000000000000000000000000000000000000000000000000600052601260045260246000fd5b600080fd5b6000601f19601f8301169050919050565b7f4f776e61626c653a206e6577206f776e657220697320746865207a65726f206160008201527f6464726573730000000000000000000000000000000000000000000000000000602082015250565b7f4e6f74206f6e206c697374000000000000000000000000000000000000000000600082015250565b7f536166654d6174683a206d756c7469706c69636174696f6e206f766572666c6f60008201527f7700000000000000000000000000000000000000000000000000000000000000602082015250565b7f4f776e61626c653a2063616c6c6572206973206e6f7420746865206f776e6572600082015250565b7f416464726573733a2063616c6c20746f206e6f6e2d636f6e7472616374000000600082015250565b7f5361666545524332303a204552433230206f7065726174696f6e20646964206e60008201527f6f74207375636365656400000000000000000000000000000000000000000000602082015250565b611358816110b0565b811461136357600080fd5b50565b61136f816110c2565b811461137a57600080fd5b50565b611386816110ee565b811461139157600080fd5b5056fea2646970667358221220c9b01cf6cd83383ec38212674860820ed115e941efbeaa861b5c8b13a514626164736f6c63430008070033",
					"opcodes": "PUSH1 0x80 PUSH1 0x40 MSTORE CALLVALUE DUP1 ISZERO PUSH3 0x11 JUMPI PUSH1 0x0 DUP1 REVERT JUMPDEST POP PUSH1 0x40 MLOAD PUSH3 0x1743 CODESIZE SUB DUP1 PUSH3 0x1743 DUP4 CODECOPY DUP2 DUP2 ADD PUSH1 0x40 MSTORE DUP2 ADD SWAP1 PUSH3 0x37 SWAP2 SWAP1 PUSH3 0x2BA JUMP JUMPDEST PUSH1 0x0 PUSH3 0x49 PUSH3 0x29B PUSH1 0x20 SHL PUSH1 0x20 SHR JUMP JUMPDEST SWAP1 POP DUP1 PUSH1 0x0 DUP1 PUSH2 0x100 EXP DUP2 SLOAD DUP2 PUSH20 0xFFFFFFFFFFFFFFFFFFFFFFFFFFFFFFFFFFFFFFFF MUL NOT AND SWAP1 DUP4 PUSH20 0xFFFFFFFFFFFFFFFFFFFFFFFFFFFFFFFFFFFFFFFF AND MUL OR SWAP1 SSTORE POP DUP1 PUSH20 0xFFFFFFFFFFFFFFFFFFFFFFFFFFFFFFFFFFFFFFFF AND PUSH1 0x0 PUSH20 0xFFFFFFFFFFFFFFFFFFFFFFFFFFFFFFFFFFFFFFFF AND PUSH32 0x8BE0079C531659141344CD1FD0A4F28419497F9722A3DAAFE3B4186F6B6457E0 PUSH1 0x40 MLOAD PUSH1 0x40 MLOAD DUP1 SWAP2 SUB SWAP1 LOG3 POP PUSH1 0x0 PUSH20 0xFFFFFFFFFFFFFFFFFFFFFFFFFFFFFFFFFFFFFFFF AND DUP4 PUSH20 0xFFFFFFFFFFFFFFFFFFFFFFFFFFFFFFFFFFFFFFFF AND EQ ISZERO DUP1 ISZERO PUSH3 0x151 JUMPI POP ADDRESS PUSH20 0xFFFFFFFFFFFFFFFFFFFFFFFFFFFFFFFFFFFFFFFF AND DUP4 PUSH20 0xFFFFFFFFFFFFFFFFFFFFFFFFFFFFFFFFFFFFFFFF AND EQ ISZERO JUMPDEST PUSH3 0x15B JUMPI PUSH1 0x0 DUP1 REVERT JUMPDEST PUSH1 0x0 PUSH20 0xFFFFFFFFFFFFFFFFFFFFFFFFFFFFFFFFFFFFFFFF AND DUP3 PUSH20 0xFFFFFFFFFFFFFFFFFFFFFFFFFFFFFFFFFFFFFFFF AND EQ ISZERO DUP1 ISZERO PUSH3 0x1C5 JUMPI POP ADDRESS PUSH20 0xFFFFFFFFFFFFFFFFFFFFFFFFFFFFFFFFFFFFFFFF AND DUP3 PUSH20 0xFFFFFFFFFFFFFFFFFFFFFFFFFFFFFFFFFFFFFFFF AND EQ ISZERO JUMPDEST PUSH3 0x1CF JUMPI PUSH1 0x0 DUP1 REVERT JUMPDEST DUP3 PUSH1 0x1 PUSH1 0x0 PUSH2 0x100 EXP DUP2 SLOAD DUP2 PUSH20 0xFFFFFFFFFFFFFFFFFFFFFFFFFFFFFFFFFFFFFFFF MUL NOT AND SWAP1 DUP4 PUSH20 0xFFFFFFFFFFFFFFFFFFFFFFFFFFFFFFFFFFFFFFFF AND MUL OR SWAP1 SSTORE POP DUP2 PUSH1 0x2 PUSH1 0x0 PUSH2 0x100 EXP DUP2 SLOAD DUP2 PUSH20 0xFFFFFFFFFFFFFFFFFFFFFFFFFFFFFFFFFFFFFFFF MUL NOT AND SWAP1 DUP4 PUSH20 0xFFFFFFFFFFFFFFFFFFFFFFFFFFFFFFFFFFFFFFFF AND MUL OR SWAP1 SSTORE POP DUP1 PUSH1 0x3 PUSH1 0x0 PUSH2 0x100 EXP DUP2 SLOAD DUP2 PUSH20 0xFFFFFFFFFFFFFFFFFFFFFFFFFFFFFFFFFFFFFFFF MUL NOT AND SWAP1 DUP4 PUSH20 0xFFFFFFFFFFFFFFFFFFFFFFFFFFFFFFFFFFFFFFFF AND MUL OR SWAP1 SSTORE POP POP POP POP PUSH3 0x369 JUMP JUMPDEST PUSH1 0x0 CALLER SWAP1 POP SWAP1 JUMP JUMPDEST PUSH1 0x0 DUP2 MLOAD SWAP1 POP PUSH3 0x2B4 DUP2 PUSH3 0x34F JUMP JUMPDEST SWAP3 SWAP2 POP POP JUMP JUMPDEST PUSH1 0x0 DUP1 PUSH1 0x0 PUSH1 0x60 DUP5 DUP7 SUB SLT ISZERO PUSH3 0x2D6 JUMPI PUSH3 0x2D5 PUSH3 0x34A JUMP JUMPDEST JUMPDEST PUSH1 0x0 PUSH3 0x2E6 DUP7 DUP3 DUP8 ADD PUSH3 0x2A3 JUMP JUMPDEST SWAP4 POP POP PUSH1 0x20 PUSH3 0x2F9 DUP7 DUP3 DUP8 ADD PUSH3 0x2A3 JUMP JUMPDEST SWAP3 POP POP PUSH1 0x40 PUSH3 0x30C DUP7 DUP3 DUP8 ADD PUSH3 0x2A3 JUMP JUMPDEST SWAP2 POP POP SWAP3 POP SWAP3 POP SWAP3 JUMP JUMPDEST PUSH1 0x0 PUSH3 0x323 DUP3 PUSH3 0x32A JUMP JUMPDEST SWAP1 POP SWAP2 SWAP1 POP JUMP JUMPDEST PUSH1 0x0 PUSH20 0xFFFFFFFFFFFFFFFFFFFFFFFFFFFFFFFFFFFFFFFF DUP3 AND SWAP1 POP SWAP2 SWAP1 POP JUMP JUMPDEST PUSH1 0x0 DUP1 REVERT JUMPDEST PUSH3 0x35A DUP2 PUSH3 0x316 JUMP JUMPDEST DUP2 EQ PUSH3 0x366 JUMPI PUSH1 0x0 DUP1 REVERT JUMPDEST POP JUMP JUMPDEST PUSH2 0x13CA DUP1 PUSH3 0x379 PUSH1 0x0 CODECOPY PUSH1 0x0 RETURN INVALID PUSH1 0x80 PUSH1 0x40 MSTORE CALLVALUE DUP1 ISZERO PUSH2 0x10 JUMPI PUSH1 0x0 DUP1 REVERT JUMPDEST POP PUSH1 0x4 CALLDATASIZE LT PUSH2 0x93 JUMPI PUSH1 0x0 CALLDATALOAD PUSH1 0xE0 SHR DUP1 PUSH4 0x61D027B3 GT PUSH2 0x66 JUMPI DUP1 PUSH4 0x61D027B3 EQ PUSH2 0x120 JUMPI DUP1 PUSH4 0x715018A6 EQ PUSH2 0x13E JUMPI DUP1 PUSH4 0x8DA5CB5B EQ PUSH2 0x148 JUMPI DUP1 PUSH4 0xD3F50573 EQ PUSH2 0x166 JUMPI DUP1 PUSH4 0xF2FDE38B EQ PUSH2 0x182 JUMPI PUSH2 0x93 JUMP JUMPDEST DUP1 PUSH4 0x170D542C EQ PUSH2 0x98 JUMPI DUP1 PUSH4 0x3E56E6C3 EQ PUSH2 0xB6 JUMPI DUP1 PUSH4 0x432BE4D0 EQ PUSH2 0xD2 JUMPI DUP1 PUSH4 0x47CCCA02 EQ PUSH2 0x102 JUMPI JUMPDEST PUSH1 0x0 DUP1 REVERT JUMPDEST PUSH2 0xA0 PUSH2 0x19E JUMP JUMPDEST PUSH1 0x40 MLOAD PUSH2 0xAD SWAP2 SWAP1 PUSH2 0xEB2 JUMP JUMPDEST PUSH1 0x40 MLOAD DUP1 SWAP2 SUB SWAP1 RETURN JUMPDEST PUSH2 0xD0 PUSH1 0x4 DUP1 CALLDATASIZE SUB DUP2 ADD SWAP1 PUSH2 0xCB SWAP2 SWAP1 PUSH2 0xC3F JUMP JUMPDEST PUSH2 0x1C4 JUMP JUMPDEST STOP JUMPDEST PUSH2 0xEC PUSH1 0x4 DUP1 CALLDATASIZE SUB DUP2 ADD SWAP1 PUSH2 0xE7 SWAP2 SWAP1 PUSH2 0xC12 JUMP JUMPDEST PUSH2 0x230 JUMP JUMPDEST PUSH1 0x40 MLOAD PUSH2 0xF9 SWAP2 SWAP1 PUSH2 0xFAF JUMP JUMPDEST PUSH1 0x40 MLOAD DUP1 SWAP2 SUB SWAP1 RETURN JUMPDEST PUSH2 0x10A PUSH2 0x248 JUMP JUMPDEST PUSH1 0x40 MLOAD PUSH2 0x117 SWAP2 SWAP1 PUSH2 0xE97 JUMP JUMPDEST PUSH1 0x40 MLOAD DUP1 SWAP2 SUB SWAP1 RETURN JUMPDEST PUSH2 0x128 PUSH2 0x26E JUMP JUMPDEST PUSH1 0x40 MLOAD PUSH2 0x135 SWAP2 SWAP1 PUSH2 0xE0E JUMP JUMPDEST PUSH1 0x40 MLOAD DUP1 SWAP2 SUB SWAP1 RETURN JUMPDEST PUSH2 0x146 PUSH2 0x294 JUMP JUMPDEST STOP JUMPDEST PUSH2 0x150 PUSH2 0x3E7 JUMP JUMPDEST PUSH1 0x40 MLOAD PUSH2 0x15D SWAP2 SWAP1 PUSH2 0xE0E JUMP JUMPDEST PUSH1 0x40 MLOAD DUP1 SWAP2 SUB SWAP1 RETURN JUMPDEST PUSH2 0x180 PUSH1 0x4 DUP1 CALLDATASIZE SUB DUP2 ADD SWAP1 PUSH2 0x17B SWAP2 SWAP1 PUSH2 0xC3F JUMP JUMPDEST PUSH2 0x410 JUMP JUMPDEST STOP JUMPDEST PUSH2 0x19C PUSH1 0x4 DUP1 CALLDATASIZE SUB DUP2 ADD SWAP1 PUSH2 0x197 SWAP2 SWAP1 PUSH2 0xBB8 JUMP JUMPDEST PUSH2 0x4B3 JUMP JUMPDEST STOP JUMPDEST PUSH1 0x2 PUSH1 0x0 SWAP1 SLOAD SWAP1 PUSH2 0x100 EXP SWAP1 DIV PUSH20 0xFFFFFFFFFFFFFFFFFFFFFFFFFFFFFFFFFFFFFFFF AND DUP2 JUMP JUMPDEST PUSH1 0x0 PUSH1 0x4 PUSH1 0x0 DUP5 DUP2 MSTORE PUSH1 0x20 ADD SWAP1 DUP2 MSTORE PUSH1 0x20 ADD PUSH1 0x0 KECCAK256 SLOAD GT PUSH2 0x21A JUMPI PUSH1 0x40 MLOAD PUSH32 0x8C379A000000000000000000000000000000000000000000000000000000000 DUP2 MSTORE PUSH1 0x4 ADD PUSH2 0x211 SWAP1 PUSH2 0xF0F JUMP JUMPDEST PUSH1 0x40 MLOAD DUP1 SWAP2 SUB SWAP1 REVERT JUMPDEST PUSH2 0x22C PUSH2 0x225 PUSH2 0x675 JUMP JUMPDEST DUP4 DUP4 PUSH2 0x67D JUMP JUMPDEST POP POP JUMP JUMPDEST PUSH1 0x4 PUSH1 0x20 MSTORE DUP1 PUSH1 0x0 MSTORE PUSH1 0x40 PUSH1 0x0 KECCAK256 PUSH1 0x0 SWAP2 POP SWAP1 POP SLOAD DUP2 JUMP JUMPDEST PUSH1 0x1 PUSH1 0x0 SWAP1 SLOAD SWAP1 PUSH2 0x100 EXP SWAP1 DIV PUSH20 0xFFFFFFFFFFFFFFFFFFFFFFFFFFFFFFFFFFFFFFFF AND DUP2 JUMP JUMPDEST PUSH1 0x3 PUSH1 0x0 SWAP1 SLOAD SWAP1 PUSH2 0x100 EXP SWAP1 DIV PUSH20 0xFFFFFFFFFFFFFFFFFFFFFFFFFFFFFFFFFFFFFFFF AND DUP2 JUMP JUMPDEST PUSH2 0x29C PUSH2 0x675 JUMP JUMPDEST PUSH20 0xFFFFFFFFFFFFFFFFFFFFFFFFFFFFFFFFFFFFFFFF AND PUSH1 0x0 DUP1 SLOAD SWAP1 PUSH2 0x100 EXP SWAP1 DIV PUSH20 0xFFFFFFFFFFFFFFFFFFFFFFFFFFFFFFFFFFFFFFFF AND PUSH20 0xFFFFFFFFFFFFFFFFFFFFFFFFFFFFFFFFFFFFFFFF AND EQ PUSH2 0x329 JUMPI PUSH1 0x40 MLOAD PUSH32 0x8C379A000000000000000000000000000000000000000000000000000000000 DUP2 MSTORE PUSH1 0x4 ADD PUSH2 0x320 SWAP1 PUSH2 0xF4F JUMP JUMPDEST PUSH1 0x40 MLOAD DUP1 SWAP2 SUB SWAP1 REVERT JUMPDEST PUSH1 0x0 PUSH20 0xFFFFFFFFFFFFFFFFFFFFFFFFFFFFFFFFFFFFFFFF AND PUSH1 0x0 DUP1 SLOAD SWAP1 PUSH2 0x100 EXP SWAP1 DIV PUSH20 0xFFFFFFFFFFFFFFFFFFFFFFFFFFFFFFFFFFFFFFFF AND PUSH20 0xFFFFFFFFFFFFFFFFFFFFFFFFFFFFFFFFFFFFFFFF AND PUSH32 0x8BE0079C531659141344CD1FD0A4F28419497F9722A3DAAFE3B4186F6B6457E0 PUSH1 0x40 MLOAD PUSH1 0x40 MLOAD DUP1 SWAP2 SUB SWAP1 LOG3 PUSH1 0x0 DUP1 PUSH1 0x0 PUSH2 0x100 EXP DUP2 SLOAD DUP2 PUSH20 0xFFFFFFFFFFFFFFFFFFFFFFFFFFFFFFFFFFFFFFFF MUL NOT AND SWAP1 DUP4 PUSH20 0xFFFFFFFFFFFFFFFFFFFFFFFFFFFFFFFFFFFFFFFF AND MUL OR SWAP1 SSTORE POP JUMP JUMPDEST PUSH1 0x0 DUP1 PUSH1 0x0 SWAP1 SLOAD SWAP1 PUSH2 0x100 EXP SWAP1 DIV PUSH20 0xFFFFFFFFFFFFFFFFFFFFFFFFFFFFFFFFFFFFFFFF AND SWAP1 POP SWAP1 JUMP JUMPDEST PUSH2 0x418 PUSH2 0x675 JUMP JUMPDEST PUSH20 0xFFFFFFFFFFFFFFFFFFFFFFFFFFFFFFFFFFFFFFFF AND PUSH1 0x0 DUP1 SLOAD SWAP1 PUSH2 0x100 EXP SWAP1 DIV PUSH20 0xFFFFFFFFFFFFFFFFFFFFFFFFFFFFFFFFFFFFFFFF AND PUSH20 0xFFFFFFFFFFFFFFFFFFFFFFFFFFFFFFFFFFFFFFFF AND EQ PUSH2 0x4A5 JUMPI PUSH1 0x40 MLOAD PUSH32 0x8C379A000000000000000000000000000000000000000000000000000000000 DUP2 MSTORE PUSH1 0x4 ADD PUSH2 0x49C SWAP1 PUSH2 0xF4F JUMP JUMPDEST PUSH1 0x40 MLOAD DUP1 SWAP2 SUB SWAP1 REVERT JUMPDEST PUSH2 0x4AF DUP3 DUP3 PUSH2 0x80D JUMP JUMPDEST POP POP JUMP JUMPDEST PUSH2 0x4BB PUSH2 0x675 JUMP JUMPDEST PUSH20 0xFFFFFFFFFFFFFFFFFFFFFFFFFFFFFFFFFFFFFFFF AND PUSH1 0x0 DUP1 SLOAD SWAP1 PUSH2 0x100 EXP SWAP1 DIV PUSH20 0xFFFFFFFFFFFFFFFFFFFFFFFFFFFFFFFFFFFFFFFF AND PUSH20 0xFFFFFFFFFFFFFFFFFFFFFFFFFFFFFFFFFFFFFFFF AND EQ PUSH2 0x548 JUMPI PUSH1 0x40 MLOAD PUSH32 0x8C379A000000000000000000000000000000000000000000000000000000000 DUP2 MSTORE PUSH1 0x4 ADD PUSH2 0x53F SWAP1 PUSH2 0xF4F JUMP JUMPDEST PUSH1 0x40 MLOAD DUP1 SWAP2 SUB SWAP1 REVERT JUMPDEST PUSH1 0x0 PUSH20 0xFFFFFFFFFFFFFFFFFFFFFFFFFFFFFFFFFFFFFFFF AND DUP2 PUSH20 0xFFFFFFFFFFFFFFFFFFFFFFFFFFFFFFFFFFFFFFFF AND EQ ISZERO PUSH2 0x5B8 JUMPI PUSH1 0x40 MLOAD PUSH32 0x8C379A000000000000000000000000000000000000000000000000000000000 DUP2 MSTORE PUSH1 0x4 ADD PUSH2 0x5AF SWAP1 PUSH2 0xEEF JUMP JUMPDEST PUSH1 0x40 MLOAD DUP1 SWAP2 SUB SWAP1 REVERT JUMPDEST DUP1 PUSH20 0xFFFFFFFFFFFFFFFFFFFFFFFFFFFFFFFFFFFFFFFF AND PUSH1 0x0 DUP1 SLOAD SWAP1 PUSH2 0x100 EXP SWAP1 DIV PUSH20 0xFFFFFFFFFFFFFFFFFFFFFFFFFFFFFFFFFFFFFFFF AND PUSH20 0xFFFFFFFFFFFFFFFFFFFFFFFFFFFFFFFFFFFFFFFF AND PUSH32 0x8BE0079C531659141344CD1FD0A4F28419497F9722A3DAAFE3B4186F6B6457E0 PUSH1 0x40 MLOAD PUSH1 0x40 MLOAD DUP1 SWAP2 SUB SWAP1 LOG3 DUP1 PUSH1 0x0 DUP1 PUSH2 0x100 EXP DUP2 SLOAD DUP2 PUSH20 0xFFFFFFFFFFFFFFFFFFFFFFFFFFFFFFFFFFFFFFFF MUL NOT AND SWAP1 DUP4 PUSH20 0xFFFFFFFFFFFFFFFFFFFFFFFFFFFFFFFFFFFFFFFF AND MUL OR SWAP1 SSTORE POP POP JUMP JUMPDEST PUSH1 0x0 CALLER SWAP1 POP SWAP1 JUMP JUMPDEST PUSH1 0x1 PUSH1 0x0 SWAP1 SLOAD SWAP1 PUSH2 0x100 EXP SWAP1 DIV PUSH20 0xFFFFFFFFFFFFFFFFFFFFFFFFFFFFFFFFFFFFFFFF AND PUSH20 0xFFFFFFFFFFFFFFFFFFFFFFFFFFFFFFFFFFFFFFFF AND PUSH4 0x24EEEDF6 DUP5 DUP5 DUP5 PUSH1 0x40 MLOAD DUP5 PUSH4 0xFFFFFFFF AND PUSH1 0xE0 SHL DUP2 MSTORE PUSH1 0x4 ADD PUSH2 0x6DC SWAP4 SWAP3 SWAP2 SWAP1 PUSH2 0xE60 JUMP JUMPDEST PUSH1 0x0 PUSH1 0x40 MLOAD DUP1 DUP4 SUB DUP2 PUSH1 0x0 DUP8 DUP1 EXTCODESIZE ISZERO DUP1 ISZERO PUSH2 0x6F6 JUMPI PUSH1 0x0 DUP1 REVERT JUMPDEST POP GAS CALL ISZERO DUP1 ISZERO PUSH2 0x70A JUMPI RETURNDATASIZE PUSH1 0x0 DUP1 RETURNDATACOPY RETURNDATASIZE PUSH1 0x0 REVERT JUMPDEST POP POP POP POP PUSH2 0x7A4 DUP4 PUSH1 0x3 PUSH1 0x0 SWAP1 SLOAD SWAP1 PUSH2 0x100 EXP SWAP1 DIV PUSH20 0xFFFFFFFFFFFFFFFFFFFFFFFFFFFFFFFFFFFFFFFF AND PUSH2 0x75B DUP5 PUSH1 0x4 PUSH1 0x0 DUP9 DUP2 MSTORE PUSH1 0x20 ADD SWAP1 DUP2 MSTORE PUSH1 0x20 ADD PUSH1 0x0 KECCAK256 SLOAD PUSH2 0x861 SWAP1 SWAP2 SWAP1 PUSH4 0xFFFFFFFF AND JUMP JUMPDEST PUSH1 0x2 PUSH1 0x0 SWAP1 SLOAD SWAP1 PUSH2 0x100 EXP SWAP1 DIV PUSH20 0xFFFFFFFFFFFFFFFFFFFFFFFFFFFFFFFFFFFFFFFF AND PUSH20 0xFFFFFFFFFFFFFFFFFFFFFFFFFFFFFFFFFFFFFFFF AND PUSH2 0x8DC SWAP1 SWAP4 SWAP3 SWAP2 SWAP1 PUSH4 0xFFFFFFFF AND JUMP JUMPDEST DUP2 DUP4 PUSH20 0xFFFFFFFFFFFFFFFFFFFFFFFFFFFFFFFFFFFFFFFF AND PUSH32 0xBEAE048C6D270D9469F86CF6E8FEDDA3C60AD770F16C24C9FC131C8E9A09101D DUP4 PUSH1 0x4 PUSH1 0x0 DUP8 DUP2 MSTORE PUSH1 0x20 ADD SWAP1 DUP2 MSTORE PUSH1 0x20 ADD PUSH1 0x0 KECCAK256 SLOAD PUSH1 0x40 MLOAD PUSH2 0x800 SWAP3 SWAP2 SWAP1 PUSH2 0xFCA JUMP JUMPDEST PUSH1 0x40 MLOAD DUP1 SWAP2 SUB SWAP1 LOG3 POP POP POP JUMP JUMPDEST DUP1 PUSH1 0x4 PUSH1 0x0 DUP5 DUP2 MSTORE PUSH1 0x20 ADD SWAP1 DUP2 MSTORE PUSH1 0x20 ADD PUSH1 0x0 KECCAK256 DUP2 SWAP1 SSTORE POP DUP2 PUSH32 0x92664190CCA12ACA9CD5309D87194BDDA75BB51362D71C06E1A6F75C7C765711 DUP3 PUSH1 0x40 MLOAD PUSH2 0x855 SWAP2 SWAP1 PUSH2 0xFAF JUMP JUMPDEST PUSH1 0x40 MLOAD DUP1 SWAP2 SUB SWAP1 LOG2 POP POP JUMP JUMPDEST PUSH1 0x0 DUP1 DUP4 EQ ISZERO PUSH2 0x874 JUMPI PUSH1 0x0 SWAP1 POP PUSH2 0x8D6 JUMP JUMPDEST PUSH1 0x0 DUP3 DUP5 PUSH2 0x882 SWAP2 SWAP1 PUSH2 0x1056 JUMP JUMPDEST SWAP1 POP DUP3 DUP5 DUP3 PUSH2 0x891 SWAP2 SWAP1 PUSH2 0x1025 JUMP JUMPDEST EQ PUSH2 0x8D1 JUMPI PUSH1 0x40 MLOAD PUSH32 0x8C379A000000000000000000000000000000000000000000000000000000000 DUP2 MSTORE PUSH1 0x4 ADD PUSH2 0x8C8 SWAP1 PUSH2 0xF2F JUMP JUMPDEST PUSH1 0x40 MLOAD DUP1 SWAP2 SUB SWAP1 REVERT JUMPDEST DUP1 SWAP2 POP POP JUMPDEST SWAP3 SWAP2 POP POP JUMP JUMPDEST PUSH2 0x95F DUP5 PUSH4 0x23B872DD PUSH1 0xE0 SHL DUP6 DUP6 DUP6 PUSH1 0x40 MLOAD PUSH1 0x24 ADD PUSH2 0x8FD SWAP4 SWAP3 SWAP2 SWAP1 PUSH2 0xE29 JUMP JUMPDEST PUSH1 0x40 MLOAD PUSH1 0x20 DUP2 DUP4 SUB SUB DUP2 MSTORE SWAP1 PUSH1 0x40 MSTORE SWAP1 PUSH28 0xFFFFFFFFFFFFFFFFFFFFFFFFFFFFFFFFFFFFFFFFFFFFFFFFFFFFFFFF NOT AND PUSH1 0x20 DUP3 ADD DUP1 MLOAD PUSH28 0xFFFFFFFFFFFFFFFFFFFFFFFFFFFFFFFFFFFFFFFFFFFFFFFFFFFFFFFF DUP4 DUP2 DUP4 AND OR DUP4 MSTORE POP POP POP POP PUSH2 0x965 JUMP JUMPDEST POP POP POP POP JUMP JUMPDEST PUSH1 0x0 PUSH2 0x9C7 DUP3 PUSH1 0x40 MLOAD DUP1 PUSH1 0x40 ADD PUSH1 0x40 MSTORE DUP1 PUSH1 0x20 DUP2 MSTORE PUSH1 0x20 ADD PUSH32 0x5361666545524332303A206C6F772D6C6576656C2063616C6C206661696C6564 DUP2 MSTORE POP DUP6 PUSH20 0xFFFFFFFFFFFFFFFFFFFFFFFFFFFFFFFFFFFFFFFF AND PUSH2 0xA2C SWAP1 SWAP3 SWAP2 SWAP1 PUSH4 0xFFFFFFFF AND JUMP JUMPDEST SWAP1 POP PUSH1 0x0 DUP2 MLOAD GT ISZERO PUSH2 0xA27 JUMPI DUP1 DUP1 PUSH1 0x20 ADD SWAP1 MLOAD DUP2 ADD SWAP1 PUSH2 0x9E7 SWAP2 SWAP1 PUSH2 0xBE5 JUMP JUMPDEST PUSH2 0xA26 JUMPI PUSH1 0x40 MLOAD PUSH32 0x8C379A000000000000000000000000000000000000000000000000000000000 DUP2 MSTORE PUSH1 0x4 ADD PUSH2 0xA1D SWAP1 PUSH2 0xF8F JUMP JUMPDEST PUSH1 0x40 MLOAD DUP1 SWAP2 SUB SWAP1 REVERT JUMPDEST JUMPDEST POP POP POP JUMP JUMPDEST PUSH1 0x60 PUSH2 0xA3B DUP5 DUP5 PUSH1 0x0 DUP6 PUSH2 0xA44 JUMP JUMPDEST SWAP1 POP SWAP4 SWAP3 POP POP POP JUMP JUMPDEST PUSH1 0x60 PUSH2 0xA4F DUP6 PUSH2 0xB66 JUMP JUMPDEST PUSH2 0xA8E JUMPI PUSH1 0x40 MLOAD PUSH32 0x8C379A000000000000000000000000000000000000000000000000000000000 DUP2 MSTORE PUSH1 0x4 ADD PUSH2 0xA85 SWAP1 PUSH2 0xF6F JUMP JUMPDEST PUSH1 0x40 MLOAD DUP1 SWAP2 SUB SWAP1 REVERT JUMPDEST PUSH1 0x0 DUP1 DUP7 PUSH20 0xFFFFFFFFFFFFFFFFFFFFFFFFFFFFFFFFFFFFFFFF AND DUP6 DUP8 PUSH1 0x40 MLOAD PUSH2 0xAB7 SWAP2 SWAP1 PUSH2 0xDF7 JUMP JUMPDEST PUSH1 0x0 PUSH1 0x40 MLOAD DUP1 DUP4 SUB DUP2 DUP6 DUP8 GAS CALL SWAP3 POP POP POP RETURNDATASIZE DUP1 PUSH1 0x0 DUP2 EQ PUSH2 0xAF4 JUMPI PUSH1 0x40 MLOAD SWAP2 POP PUSH1 0x1F NOT PUSH1 0x3F RETURNDATASIZE ADD AND DUP3 ADD PUSH1 0x40 MSTORE RETURNDATASIZE DUP3 MSTORE RETURNDATASIZE PUSH1 0x0 PUSH1 0x20 DUP5 ADD RETURNDATACOPY PUSH2 0xAF9 JUMP JUMPDEST PUSH1 0x60 SWAP2 POP JUMPDEST POP SWAP2 POP SWAP2 POP DUP2 ISZERO PUSH2 0xB0E JUMPI DUP1 SWAP3 POP POP POP PUSH2 0xB5E JUMP JUMPDEST PUSH1 0x0 DUP2 MLOAD GT ISZERO PUSH2 0xB21 JUMPI DUP1 MLOAD DUP1 DUP3 PUSH1 0x20 ADD REVERT JUMPDEST DUP4 PUSH1 0x40 MLOAD PUSH32 0x8C379A000000000000000000000000000000000000000000000000000000000 DUP2 MSTORE PUSH1 0x4 ADD PUSH2 0xB55 SWAP2 SWAP1 PUSH2 0xECD JUMP JUMPDEST PUSH1 0x40 MLOAD DUP1 SWAP2 SUB SWAP1 REVERT JUMPDEST SWAP5 SWAP4 POP POP POP POP JUMP JUMPDEST PUSH1 0x0 DUP1 DUP3 EXTCODESIZE SWAP1 POP PUSH1 0x0 DUP2 GT SWAP2 POP POP SWAP2 SWAP1 POP JUMP JUMPDEST PUSH1 0x0 DUP2 CALLDATALOAD SWAP1 POP PUSH2 0xB88 DUP2 PUSH2 0x134F JUMP JUMPDEST SWAP3 SWAP2 POP POP JUMP JUMPDEST PUSH1 0x0 DUP2 MLOAD SWAP1 POP PUSH2 0xB9D DUP2 PUSH2 0x1366 JUMP JUMPDEST SWAP3 SWAP2 POP POP JUMP JUMPDEST PUSH1 0x0 DUP2 CALLDATALOAD SWAP1 POP PUSH2 0xBB2 DUP2 PUSH2 0x137D JUMP JUMPDEST SWAP3 SWAP2 POP POP JUMP JUMPDEST PUSH1 0x0 PUSH1 0x20 DUP3 DUP5 SUB SLT ISZERO PUSH2 0xBCE JUMPI PUSH2 0xBCD PUSH2 0x11D1 JUMP JUMPDEST JUMPDEST PUSH1 0x0 PUSH2 0xBDC DUP5 DUP3 DUP6 ADD PUSH2 0xB79 JUMP JUMPDEST SWAP2 POP POP SWAP3 SWAP2 POP POP JUMP JUMPDEST PUSH1 0x0 PUSH1 0x20 DUP3 DUP5 SUB SLT ISZERO PUSH2 0xBFB JUMPI PUSH2 0xBFA PUSH2 0x11D1 JUMP JUMPDEST JUMPDEST PUSH1 0x0 PUSH2 0xC09 DUP5 DUP3 DUP6 ADD PUSH2 0xB8E JUMP JUMPDEST SWAP2 POP POP SWAP3 SWAP2 POP POP JUMP JUMPDEST PUSH1 0x0 PUSH1 0x20 DUP3 DUP5 SUB SLT ISZERO PUSH2 0xC28 JUMPI PUSH2 0xC27 PUSH2 0x11D1 JUMP JUMPDEST JUMPDEST PUSH1 0x0 PUSH2 0xC36 DUP5 DUP3 DUP6 ADD PUSH2 0xBA3 JUMP JUMPDEST SWAP2 POP POP SWAP3 SWAP2 POP POP JUMP JUMPDEST PUSH1 0x0 DUP1 PUSH1 0x40 DUP4 DUP6 SUB SLT ISZERO PUSH2 0xC56 JUMPI PUSH2 0xC55 PUSH2 0x11D1 JUMP JUMPDEST JUMPDEST PUSH1 0x0 PUSH2 0xC64 DUP6 DUP3 DUP7 ADD PUSH2 0xBA3 JUMP JUMPDEST SWAP3 POP POP PUSH1 0x20 PUSH2 0xC75 DUP6 DUP3 DUP7 ADD PUSH2 0xBA3 JUMP JUMPDEST SWAP2 POP POP SWAP3 POP SWAP3 SWAP1 POP JUMP JUMPDEST PUSH2 0xC88 DUP2 PUSH2 0x10B0 JUMP JUMPDEST DUP3 MSTORE POP POP JUMP JUMPDEST PUSH1 0x0 PUSH2 0xC99 DUP3 PUSH2 0xFF3 JUMP JUMPDEST PUSH2 0xCA3 DUP2 DUP6 PUSH2 0x1009 JUMP JUMPDEST SWAP4 POP PUSH2 0xCB3 DUP2 DUP6 PUSH1 0x20 DUP7 ADD PUSH2 0x1140 JUMP JUMPDEST DUP1 DUP5 ADD SWAP2 POP POP SWAP3 SWAP2 POP POP JUMP JUMPDEST PUSH2 0xCC8 DUP2 PUSH2 0x10F8 JUMP JUMPDEST DUP3 MSTORE POP POP JUMP JUMPDEST PUSH2 0xCD7 DUP2 PUSH2 0x110A JUMP JUMPDEST DUP3 MSTORE POP POP JUMP JUMPDEST PUSH1 0x0 PUSH2 0xCE8 DUP3 PUSH2 0xFFE JUMP JUMPDEST PUSH2 0xCF2 DUP2 DUP6 PUSH2 0x1014 JUMP JUMPDEST SWAP4 POP PUSH2 0xD02 DUP2 DUP6 PUSH1 0x20 DUP7 ADD PUSH2 0x1140 JUMP JUMPDEST PUSH2 0xD0B DUP2 PUSH2 0x11D6 JUMP JUMPDEST DUP5 ADD SWAP2 POP POP SWAP3 SWAP2 POP POP JUMP JUMPDEST PUSH1 0x0 PUSH2 0xD23 PUSH1 0x26 DUP4 PUSH2 0x1014 JUMP JUMPDEST SWAP2 POP PUSH2 0xD2E DUP3 PUSH2 0x11E7 JUMP JUMPDEST PUSH1 0x40 DUP3 ADD SWAP1 POP SWAP2 SWAP1 POP JUMP JUMPDEST PUSH1 0x0 PUSH2 0xD46 PUSH1 0xB DUP4 PUSH2 0x1014 JUMP JUMPDEST SWAP2 POP PUSH2 0xD51 DUP3 PUSH2 0x1236 JUMP JUMPDEST PUSH1 0x20 DUP3 ADD SWAP1 POP SWAP2 SWAP1 POP JUMP JUMPDEST PUSH1 0x0 PUSH2 0xD69 PUSH1 0x21 DUP4 PUSH2 0x1014 JUMP JUMPDEST SWAP2 POP PUSH2 0xD74 DUP3 PUSH2 0x125F JUMP JUMPDEST PUSH1 0x40 DUP3 ADD SWAP1 POP SWAP2 SWAP1 POP JUMP JUMPDEST PUSH1 0x0 PUSH2 0xD8C PUSH1 0x20 DUP4 PUSH2 0x1014 JUMP JUMPDEST SWAP2 POP PUSH2 0xD97 DUP3 PUSH2 0x12AE JUMP JUMPDEST PUSH1 0x20 DUP3 ADD SWAP1 POP SWAP2 SWAP1 POP JUMP JUMPDEST PUSH1 0x0 PUSH2 0xDAF PUSH1 0x1D DUP4 PUSH2 0x1014 JUMP JUMPDEST SWAP2 POP PUSH2 0xDBA DUP3 PUSH2 0x12D7 JUMP JUMPDEST PUSH1 0x20 DUP3 ADD SWAP1 POP SWAP2 SWAP1 POP JUMP JUMPDEST PUSH1 0x0 PUSH2 0xDD2 PUSH1 0x2A DUP4 PUSH2 0x1014 JUMP JUMPDEST SWAP2 POP PUSH2 0xDDD DUP3 PUSH2 0x1300 JUMP JUMPDEST PUSH1 0x40 DUP3 ADD SWAP1 POP SWAP2 SWAP1 POP JUMP JUMPDEST PUSH2 0xDF1 DUP2 PUSH2 0x10EE JUMP JUMPDEST DUP3 MSTORE POP POP JUMP JUMPDEST PUSH1 0x0 PUSH2 0xE03 DUP3 DUP5 PUSH2 0xC8E JUMP JUMPDEST SWAP2 POP DUP2 SWAP1 POP SWAP3 SWAP2 POP POP JUMP JUMPDEST PUSH1 0x0 PUSH1 0x20 DUP3 ADD SWAP1 POP PUSH2 0xE23 PUSH1 0x0 DUP4 ADD DUP5 PUSH2 0xC7F JUMP JUMPDEST SWAP3 SWAP2 POP POP JUMP JUMPDEST PUSH1 0x0 PUSH1 0x60 DUP3 ADD SWAP1 POP PUSH2 0xE3E PUSH1 0x0 DUP4 ADD DUP7 PUSH2 0xC7F JUMP JUMPDEST PUSH2 0xE4B PUSH1 0x20 DUP4 ADD DUP6 PUSH2 0xC7F JUMP JUMPDEST PUSH2 0xE58 PUSH1 0x40 DUP4 ADD DUP5 PUSH2 0xDE8 JUMP JUMPDEST SWAP5 SWAP4 POP POP POP POP JUMP JUMPDEST PUSH1 0x0 PUSH1 0x60 DUP3 ADD SWAP1 POP PUSH2 0xE75 PUSH1 0x0 DUP4 ADD DUP7 PUSH2 0xC7F JUMP JUMPDEST PUSH2 0xE82 PUSH1 0x20 DUP4 ADD DUP6 PUSH2 0xDE8 JUMP JUMPDEST PUSH2 0xE8F PUSH1 0x40 DUP4 ADD DUP5 PUSH2 0xDE8 JUMP JUMPDEST SWAP5 SWAP4 POP POP POP POP JUMP JUMPDEST PUSH1 0x0 PUSH1 0x20 DUP3 ADD SWAP1 POP PUSH2 0xEAC PUSH1 0x0 DUP4 ADD DUP5 PUSH2 0xCBF JUMP JUMPDEST SWAP3 SWAP2 POP POP JUMP JUMPDEST PUSH1 0x0 PUSH1 0x20 DUP3 ADD SWAP1 POP PUSH2 0xEC7 PUSH1 0x0 DUP4 ADD DUP5 PUSH2 0xCCE JUMP JUMPDEST SWAP3 SWAP2 POP POP JUMP JUMPDEST PUSH1 0x0 PUSH1 0x20 DUP3 ADD SWAP1 POP DUP2 DUP2 SUB PUSH1 0x0 DUP4 ADD MSTORE PUSH2 0xEE7 DUP2 DUP5 PUSH2 0xCDD JUMP JUMPDEST SWAP1 POP SWAP3 SWAP2 POP POP JUMP JUMPDEST PUSH1 0x0 PUSH1 0x20 DUP3 ADD SWAP1 POP DUP2 DUP2 SUB PUSH1 0x0 DUP4 ADD MSTORE PUSH2 0xF08 DUP2 PUSH2 0xD16 JUMP JUMPDEST SWAP1 POP SWAP2 SWAP1 POP JUMP JUMPDEST PUSH1 0x0 PUSH1 0x20 DUP3 ADD SWAP1 POP DUP2 DUP2 SUB PUSH1 0x0 DUP4 ADD MSTORE PUSH2 0xF28 DUP2 PUSH2 0xD39 JUMP JUMPDEST SWAP1 POP SWAP2 SWAP1 POP JUMP JUMPDEST PUSH1 0x0 PUSH1 0x20 DUP3 ADD SWAP1 POP DUP2 DUP2 SUB PUSH1 0x0 DUP4 ADD MSTORE PUSH2 0xF48 DUP2 PUSH2 0xD5C JUMP JUMPDEST SWAP1 POP SWAP2 SWAP1 POP JUMP JUMPDEST PUSH1 0x0 PUSH1 0x20 DUP3 ADD SWAP1 POP DUP2 DUP2 SUB PUSH1 0x0 DUP4 ADD MSTORE PUSH2 0xF68 DUP2 PUSH2 0xD7F JUMP JUMPDEST SWAP1 POP SWAP2 SWAP1 POP JUMP JUMPDEST PUSH1 0x0 PUSH1 0x20 DUP3 ADD SWAP1 POP DUP2 DUP2 SUB PUSH1 0x0 DUP4 ADD MSTORE PUSH2 0xF88 DUP2 PUSH2 0xDA2 JUMP JUMPDEST SWAP1 POP SWAP2 SWAP1 POP JUMP JUMPDEST PUSH1 0x0 PUSH1 0x20 DUP3 ADD SWAP1 POP DUP2 DUP2 SUB PUSH1 0x0 DUP4 ADD MSTORE PUSH2 0xFA8 DUP2 PUSH2 0xDC5 JUMP JUMPDEST SWAP1 POP SWAP2 SWAP1 POP JUMP JUMPDEST PUSH1 0x0 PUSH1 0x20 DUP3 ADD SWAP1 POP PUSH2 0xFC4 PUSH1 0x0 DUP4 ADD DUP5 PUSH2 0xDE8 JUMP JUMPDEST SWAP3 SWAP2 POP POP JUMP JUMPDEST PUSH1 0x0 PUSH1 0x40 DUP3 ADD SWAP1 POP PUSH2 0xFDF PUSH1 0x0 DUP4 ADD DUP6 PUSH2 0xDE8 JUMP JUMPDEST PUSH2 0xFEC PUSH1 0x20 DUP4 ADD DUP5 PUSH2 0xDE8 JUMP JUMPDEST SWAP4 SWAP3 POP POP POP JUMP JUMPDEST PUSH1 0x0 DUP2 MLOAD SWAP1 POP SWAP2 SWAP1 POP JUMP JUMPDEST PUSH1 0x0 DUP2 MLOAD SWAP1 POP SWAP2 SWAP1 POP JUMP JUMPDEST PUSH1 0x0 DUP2 SWAP1 POP SWAP3 SWAP2 POP POP JUMP JUMPDEST PUSH1 0x0 DUP3 DUP3 MSTORE PUSH1 0x20 DUP3 ADD SWAP1 POP SWAP3 SWAP2 POP POP JUMP JUMPDEST PUSH1 0x0 PUSH2 0x1030 DUP3 PUSH2 0x10EE JUMP JUMPDEST SWAP2 POP PUSH2 0x103B DUP4 PUSH2 0x10EE JUMP JUMPDEST SWAP3 POP DUP3 PUSH2 0x104B JUMPI PUSH2 0x104A PUSH2 0x11A2 JUMP JUMPDEST JUMPDEST DUP3 DUP3 DIV SWAP1 POP SWAP3 SWAP2 POP POP JUMP JUMPDEST PUSH1 0x0 PUSH2 0x1061 DUP3 PUSH2 0x10EE JUMP JUMPDEST SWAP2 POP PUSH2 0x106C DUP4 PUSH2 0x10EE JUMP JUMPDEST SWAP3 POP DUP2 PUSH32 0xFFFFFFFFFFFFFFFFFFFFFFFFFFFFFFFFFFFFFFFFFFFFFFFFFFFFFFFFFFFFFFFF DIV DUP4 GT DUP3 ISZERO ISZERO AND ISZERO PUSH2 0x10A5 JUMPI PUSH2 0x10A4 PUSH2 0x1173 JUMP JUMPDEST JUMPDEST DUP3 DUP3 MUL SWAP1 POP SWAP3 SWAP2 POP POP JUMP JUMPDEST PUSH1 0x0 PUSH2 0x10BB DUP3 PUSH2 0x10CE JUMP JUMPDEST SWAP1 POP SWAP2 SWAP1 POP JUMP JUMPDEST PUSH1 0x0 DUP2 ISZERO ISZERO SWAP1 POP SWAP2 SWAP1 POP JUMP JUMPDEST PUSH1 0x0 PUSH20 0xFFFFFFFFFFFFFFFFFFFFFFFFFFFFFFFFFFFFFFFF DUP3 AND SWAP1 POP SWAP2 SWAP1 POP JUMP JUMPDEST PUSH1 0x0 DUP2 SWAP1 POP SWAP2 SWAP1 POP JUMP JUMPDEST PUSH1 0x0 PUSH2 0x1103 DUP3 PUSH2 0x111C JUMP JUMPDEST SWAP1 POP SWAP2 SWAP1 POP JUMP JUMPDEST PUSH1 0x0 PUSH2 0x1115 DUP3 PUSH2 0x111C JUMP JUMPDEST SWAP1 POP SWAP2 SWAP1 POP JUMP JUMPDEST PUSH1 0x0 PUSH2 0x1127 DUP3 PUSH2 0x112E JUMP JUMPDEST SWAP1 POP SWAP2 SWAP1 POP JUMP JUMPDEST PUSH1 0x0 PUSH2 0x1139 DUP3 PUSH2 0x10CE JUMP JUMPDEST SWAP1 POP SWAP2 SWAP1 POP JUMP JUMPDEST PUSH1 0x0 JUMPDEST DUP4 DUP2 LT ISZERO PUSH2 0x115E JUMPI DUP1 DUP3 ADD MLOAD DUP2 DUP5 ADD MSTORE PUSH1 0x20 DUP2 ADD SWAP1 POP PUSH2 0x1143 JUMP JUMPDEST DUP4 DUP2 GT ISZERO PUSH2 0x116D JUMPI PUSH1 0x0 DUP5 DUP5 ADD MSTORE JUMPDEST POP POP POP POP JUMP JUMPDEST PUSH32 0x4E487B7100000000000000000000000000000000000000000000000000000000 PUSH1 0x0 MSTORE PUSH1 0x11 PUSH1 0x4 MSTORE PUSH1 0x24 PUSH1 0x0 REVERT JUMPDEST PUSH32 0x4E487B7100000000000000000000000000000000000000000000000000000000 PUSH1 0x0 MSTORE PUSH1 0x12 PUSH1 0x4 MSTORE PUSH1 0x24 PUSH1 0x0 REVERT JUMPDEST PUSH1 0x0 DUP1 REVERT JUMPDEST PUSH1 0x0 PUSH1 0x1F NOT PUSH1 0x1F DUP4 ADD AND SWAP1 POP SWAP2 SWAP1 POP JUMP JUMPDEST PUSH32 0x4F776E61626C653A206E6577206F776E657220697320746865207A65726F2061 PUSH1 0x0 DUP3 ADD MSTORE PUSH32 0x6464726573730000000000000000000000000000000000000000000000000000 PUSH1 0x20 DUP3 ADD MSTORE POP JUMP JUMPDEST PUSH32 0x4E6F74206F6E206C697374000000000000000000000000000000000000000000 PUSH1 0x0 DUP3 ADD MSTORE POP JUMP JUMPDEST PUSH32 0x536166654D6174683A206D756C7469706C69636174696F6E206F766572666C6F PUSH1 0x0 DUP3 ADD MSTORE PUSH32 0x7700000000000000000000000000000000000000000000000000000000000000 PUSH1 0x20 DUP3 ADD MSTORE POP JUMP JUMPDEST PUSH32 0x4F776E61626C653A2063616C6C6572206973206E6F7420746865206F776E6572 PUSH1 0x0 DUP3 ADD MSTORE POP JUMP JUMPDEST PUSH32 0x416464726573733A2063616C6C20746F206E6F6E2D636F6E7472616374000000 PUSH1 0x0 DUP3 ADD MSTORE POP JUMP JUMPDEST PUSH32 0x5361666545524332303A204552433230206F7065726174696F6E20646964206E PUSH1 0x0 DUP3 ADD MSTORE PUSH32 0x6F74207375636365656400000000000000000000000000000000000000000000 PUSH1 0x20 DUP3 ADD MSTORE POP JUMP JUMPDEST PUSH2 0x1358 DUP2 PUSH2 0x10B0 JUMP JUMPDEST DUP2 EQ PUSH2 0x1363 JUMPI PUSH1 0x0 DUP1 REVERT JUMPDEST POP JUMP JUMPDEST PUSH2 0x136F DUP2 PUSH2 0x10C2 JUMP JUMPDEST DUP2 EQ PUSH2 0x137A JUMPI PUSH1 0x0 DUP1 REVERT JUMPDEST POP JUMP JUMPDEST PUSH2 0x1386 DUP2 PUSH2 0x10EE JUMP JUMPDEST DUP2 EQ PUSH2 0x1391 JUMPI PUSH1 0x0 DUP1 REVERT JUMPDEST POP JUMP INVALID LOG2 PUSH5 0x6970667358 0x22 SLT KECCAK256 0xC9 0xB0 SHR 0xF6 0xCD DUP4 CODESIZE RETURNDATACOPY 0xC3 DUP3 SLT PUSH8 0x4860820ED115E941 0xEF 0xBE 0xAA DUP7 SHL 0x5C DUP12 SGT 0xA5 EQ PUSH3 0x616473 PUSH16 0x6C634300080700330000000000000000 "
				},
				"gasEstimates": {
					"creation": {
						"codeDepositCost": "1013200",
						"executionCost": "infinite",
						"totalCost": "infinite"
					},
					"external": {
						"_commodityPrices(uint256)": "infinite",
						"nft()": "2667",
						"owner()": "2566",
						"quoteErc20()": "2601",
						"renounceOwnership()": "30313",
						"safeBuyToken(uint256,uint256)": "infinite",
						"safeListToken(uint256,uint256)": "infinite",
						"transferOwnership(address)": "30728",
						"treasury()": "2514"
					},
					"internal": {
						"_buyToken(address,uint256,uint256)": "infinite",
						"_listToken(uint256,uint256)": "infinite"
					}
				},
				"methodIdentifiers": {
					"_commodityPrices(uint256)": "432be4d0",
					"nft()": "47ccca02",
					"owner()": "8da5cb5b",
					"quoteErc20()": "170d542c",
					"renounceOwnership()": "715018a6",
					"safeBuyToken(uint256,uint256)": "3e56e6c3",
					"safeListToken(uint256,uint256)": "d3f50573",
					"transferOwnership(address)": "f2fde38b",
					"treasury()": "61d027b3"
				}
			},
			"storageLayout": {
				"storage": [
					{
						"astId": 292,
						"contract": "atta-movies/ERC1155/ERC1155VendingMachine.sol:VendingMachine",
						"label": "_owner",
						"offset": 0,
						"slot": "0",
						"type": "t_address"
					},
					{
						"astId": 911,
						"contract": "atta-movies/ERC1155/ERC1155VendingMachine.sol:VendingMachine",
						"label": "nft",
						"offset": 0,
						"slot": "1",
						"type": "t_contract(IERC1155Mintable)899"
					},
					{
						"astId": 914,
						"contract": "atta-movies/ERC1155/ERC1155VendingMachine.sol:VendingMachine",
						"label": "quoteErc20",
						"offset": 0,
						"slot": "2",
						"type": "t_contract(IERC20)469"
					},
					{
						"astId": 916,
						"contract": "atta-movies/ERC1155/ERC1155VendingMachine.sol:VendingMachine",
						"label": "treasury",
						"offset": 0,
						"slot": "3",
						"type": "t_address"
					},
					{
						"astId": 920,
						"contract": "atta-movies/ERC1155/ERC1155VendingMachine.sol:VendingMachine",
						"label": "_commodityPrices",
						"offset": 0,
						"slot": "4",
						"type": "t_mapping(t_uint256,t_uint256)"
					}
				],
				"types": {
					"t_address": {
						"encoding": "inplace",
						"label": "address",
						"numberOfBytes": "20"
					},
					"t_contract(IERC1155Mintable)899": {
						"encoding": "inplace",
						"label": "contract IERC1155Mintable",
						"numberOfBytes": "20"
					},
					"t_contract(IERC20)469": {
						"encoding": "inplace",
						"label": "contract IERC20",
						"numberOfBytes": "20"
					},
					"t_mapping(t_uint256,t_uint256)": {
						"encoding": "mapping",
						"key": "t_uint256",
						"label": "mapping(uint256 => uint256)",
						"numberOfBytes": "32",
						"value": "t_uint256"
					},
					"t_uint256": {
						"encoding": "inplace",
						"label": "uint256",
						"numberOfBytes": "32"
					}
				}
			},
			"userdoc": {
				"kind": "user",
				"methods": {},
				"version": 1
			}
		}
	}
}