{
	"data": {
		"bytecode": {
			"linkReferences": {},
			"object": "60806040526000600f553480156200001657600080fd5b506040516200649c3803806200649c83398181016040528101906200003c9190620002ef565b60006200004e6200018b60201b60201c565b905080600a60006101000a81548173ffffffffffffffffffffffffffffffffffffffff021916908373ffffffffffffffffffffffffffffffffffffffff1602179055508073ffffffffffffffffffffffffffffffffffffffff16600073ffffffffffffffffffffffffffffffffffffffff167f8be0079c531659141344cd1fd0a4f28419497f9722a3daafe3b4186f6b6457e060405160405180910390a35084600090805190602001906200010592919062000193565b5083600190805190602001906200011e92919062000193565b5082601290805190602001906200013792919062000193565b5081601160006101000a81548173ffffffffffffffffffffffffffffffffffffffff021916908373ffffffffffffffffffffffffffffffffffffffff16021790555080600d819055505050505050620005ca565b600033905090565b828054620001a190620004a7565b90600052602060002090601f016020900481019282620001c5576000855562000211565b82601f10620001e057805160ff191683800117855562000211565b8280016001018555821562000211579182015b8281111562000210578251825591602001919060010190620001f3565b5b50905062000220919062000224565b5090565b5b808211156200023f57600081600090555060010162000225565b5090565b60006200025a6200025484620003fd565b620003d4565b90508281526020810184848401111562000279576200027862000576565b5b6200028684828562000471565b509392505050565b6000815190506200029f8162000596565b92915050565b600082601f830112620002bd57620002bc62000571565b5b8151620002cf84826020860162000243565b91505092915050565b600081519050620002e981620005b0565b92915050565b600080600080600060a086880312156200030e576200030d62000580565b5b600086015167ffffffffffffffff8111156200032f576200032e6200057b565b5b6200033d88828901620002a5565b955050602086015167ffffffffffffffff8111156200036157620003606200057b565b5b6200036f88828901620002a5565b945050604086015167ffffffffffffffff8111156200039357620003926200057b565b5b620003a188828901620002a5565b9350506060620003b4888289016200028e565b9250506080620003c788828901620002d8565b9150509295509295909350565b6000620003e0620003f3565b9050620003ee8282620004dd565b919050565b6000604051905090565b600067ffffffffffffffff8211156200041b576200041a62000542565b5b620004268262000585565b9050602081019050919050565b6000620004408262000447565b9050919050565b600073ffffffffffffffffffffffffffffffffffffffff82169050919050565b6000819050919050565b60005b838110156200049157808201518184015260208101905062000474565b83811115620004a1576000848401525b50505050565b60006002820490506001821680620004c057607f821691505b60208210811415620004d757620004d662000513565b5b50919050565b620004e88262000585565b810181811067ffffffffffffffff821117156200050a576200050962000542565b5b80604052505050565b7f4e487b7100000000000000000000000000000000000000000000000000000000600052602260045260246000fd5b7f4e487b7100000000000000000000000000000000000000000000000000000000600052604160045260246000fd5b600080fd5b600080fd5b600080fd5b600080fd5b6000601f19601f8301169050919050565b620005a18162000433565b8114620005ad57600080fd5b50565b620005bb8162000467565b8114620005c757600080fd5b50565b615ec280620005da6000396000f3fe608060405234801561001057600080fd5b50600436106102d65760003560e01c8063715018a611610182578063c87b56dd116100e9578063edd864e5116100a2578063f56d504f1161007c578063f56d504f146108eb578063f78ae6ef1461091b578063fb1ace1814610937578063fb570bbf14610955576102d6565b8063edd864e514610881578063eebb28b2146108b1578063f2fde38b146108cf576102d6565b8063c87b56dd1461079b578063ca6567c9146107cb578063d9965572146107e9578063dc85123014610805578063e985e9c514610821578063ec4db28314610851576102d6565b8063a0bcfc7f1161013b578063a0bcfc7f146106f1578063a0d1685c1461070d578063a14481941461072b578063a22cb46514610747578063ac18de4314610763578063b88d4fde1461077f576102d6565b8063715018a6146106575780638da5cb5b146106615780639034edb51461067f57806395d89b411461069b578063983b2d56146106b95780639c26eb3f146106d5576102d6565b80633092afd5116102415780634f6ccce7116101fa5780635ca45dd7116101d45780635ca45dd7146105bf5780635dd2ccb3146105db5780636352211e146105f757806370a0823114610627576102d6565b80634f6ccce71461055357806351431d4f146105835780635b43bba1146105a1576102d6565b80633092afd514610495578063324e4410146104b15780633e63eb2a146104e157806342842e0e146104ff578063432539551461051b578063449a52f814610537576102d6565b80631c178087116102935780631c178087146103c35780631ee58f97146103e1578063234d43861461041157806323b872dd1461042d5780632d06177a146104495780632f745c5914610465576102d6565b806301ffc9a7146102db578063052641da1461030b57806306fdde031461033b578063081812fc14610359578063095ea7b31461038957806318160ddd146103a5575b600080fd5b6102f560048036038101906102f091906146d1565b610985565b6040516103029190614ed4565b60405180910390f35b61032560048036038101906103209190614549565b6109ff565b6040516103329190614eb2565b60405180910390f35b610343610ad9565b6040516103509190614f13565b60405180910390f35b610373600480360381019061036e9190614778565b610b6b565b6040516103809190614e29565b60405180910390f35b6103a3600480360381019061039e9190614225565b610bf0565b005b6103ad610cfa565b6040516103ba9190615275565b60405180910390f35b6103cb610d07565b6040516103d89190615275565b60405180910390f35b6103fb60048036038101906103f69190614778565b610d0d565b6040516104089190615275565b60405180910390f35b61042b60048036038101906104269190614150565b610d25565b005b6104476004803603810190610442919061407a565b610dfb565b005b610463600480360381019061045e919061400d565b610e54565b005b61047f600480360381019061047a9190614225565b610f46565b60405161048c9190615275565b60405180910390f35b6104af60048036038101906104aa919061400d565b610feb565b005b6104cb60048036038101906104c69190614778565b6110dd565b6040516104d89190614f13565b60405180910390f35b6104e961117d565b6040516104f69190614f13565b60405180910390f35b6105196004803603810190610514919061407a565b61120b565b005b61053560048036038101906105309190614265565b61122b565b005b610551600480360381019061054c9190614225565b6113fe565b005b61056d60048036038101906105689190614778565b611670565b60405161057a9190615275565b60405180910390f35b61058b6116e1565b6040516105989190614e29565b60405180910390f35b6105a9611707565b6040516105b69190615275565b60405180910390f35b6105d960048036038101906105d491906147a5565b611711565b005b6105f560048036038101906105f091906144c8565b6117c4565b005b610611600480360381019061060c9190614778565b6118cb565b60405161061e9190614e29565b60405180910390f35b610641600480360381019061063c919061400d565b61197d565b60405161064e9190615275565b60405180910390f35b61065f611a35565b005b610669611b8d565b6040516106769190614e29565b60405180910390f35b61069960048036038101906106949190614346565b611bb7565b005b6106a3611d45565b6040516106b09190614f13565b60405180910390f35b6106d360048036038101906106ce919061400d565b611dd7565b005b6106ef60048036038101906106ea91906145a9565b611ec9565b005b61070b6004803603810190610706919061472b565b61203d565b005b6107156120ea565b6040516107229190615275565b60405180910390f35b61074560048036038101906107409190614225565b6120f0565b005b610761600480360381019061075c91906141e5565b612275565b005b61077d6004803603810190610778919061400d565b6123e1565b005b610799600480360381019061079491906140cd565b6124d3565b005b6107b560048036038101906107b09190614778565b61252e565b6040516107c29190614f13565b60405180910390f35b6107d36125c7565b6040516107e09190615275565b60405180910390f35b61080360048036038101906107fe919061467e565b6125cd565b005b61081f600480360381019061081a9190614447565b6126ed565b005b61083b6004803603810190610836919061403a565b61287f565b6040516108489190614ed4565b60405180910390f35b61086b6004803603810190610866919061463e565b612913565b6040516108789190615275565b60405180910390f35b61089b600480360381019061089691906143fa565b612942565b6040516108a89190614e90565b60405180910390f35b6108b9612a96565b6040516108c69190615275565b60405180910390f35b6108e960048036038101906108e4919061400d565b612aa0565b005b610905600480360381019061090091906142c5565b612c67565b6040516109129190614eb2565b60405180910390f35b61093560048036038101906109309190614778565b612d5b565b005b61093f612e40565b60405161094c9190615275565b60405180910390f35b61096f600480360381019061096a919061400d565b612e46565b60405161097c9190614eb2565b60405180910390f35b60007f780e9d63000000000000000000000000000000000000000000000000000000007bffffffffffffffffffffffffffffffffffffffffffffffffffffffff1916827bffffffffffffffffffffffffffffffffffffffffffffffffffffffff191614806109f857506109f782612f39565b5b9050919050565b606060008383905067ffffffffffffffff811115610a2057610a1f6156d6565b5b604051908082528060200260200182016040528015610a4e5781602001602082028036833780820191505090505b50905060005b84849050811015610acd5760156000868684818110610a7657610a756156a7565b5b905060200201358152602001908152602001600020600087815260200190815260200160002054828281518110610ab057610aaf6156a7565b5b60200260200101818152505080610ac6906155d1565b9050610a54565b50809150509392505050565b606060008054610ae89061556e565b80601f0160208091040260200160405190810160405280929190818152602001828054610b149061556e565b8015610b615780601f10610b3657610100808354040283529160200191610b61565b820191906000526020600020905b815481529060010190602001808311610b4457829003601f168201915b5050505050905090565b6000610b768261301b565b610bb5576040517f08c379a0000000000000000000000000000000000000000000000000000000008152600401610bac90615115565b60405180910390fd5b6004600083815260200190815260200160002060009054906101000a900473ffffffffffffffffffffffffffffffffffffffff169050919050565b6000610bfb826118cb565b90508073ffffffffffffffffffffffffffffffffffffffff168373ffffffffffffffffffffffffffffffffffffffff161415610c6c576040517f08c379a0000000000000000000000000000000000000000000000000000000008152600401610c63906151d5565b60405180910390fd5b8073ffffffffffffffffffffffffffffffffffffffff163373ffffffffffffffffffffffffffffffffffffffff161480610cac5750610cab813361287f565b5b610ceb576040517f08c379a0000000000000000000000000000000000000000000000000000000008152600401610ce290615055565b60405180910390fd5b610cf58383613087565b505050565b6000600880549050905090565b60105481565b60146020528060005260406000206000915090505481565b818190508484905014610d6d576040517f08c379a0000000000000000000000000000000000000000000000000000000008152600401610d6490614fd5565b60405180910390fd5b60005b84849050811015610df3576000858583818110610d9057610d8f6156a7565b5b9050602002016020810190610da5919061400d565b90506000848484818110610dbc57610dbb6156a7565b5b905060200201359050610de0888383604051806020016040528060008152506124d3565b505080610dec906155d1565b9050610d70565b505050505050565b610e053382613140565b610e44576040517f08c379a0000000000000000000000000000000000000000000000000000000008152600401610e3b906151f5565b60405180910390fd5b610e4f83838361321e565b505050565b610e5c61347a565b73ffffffffffffffffffffffffffffffffffffffff16600a60009054906101000a900473ffffffffffffffffffffffffffffffffffffffff1673ffffffffffffffffffffffffffffffffffffffff1614610eeb576040517f08c379a0000000000000000000000000000000000000000000000000000000008152600401610ee290615155565b60405180910390fd5b6001600b60008373ffffffffffffffffffffffffffffffffffffffff1673ffffffffffffffffffffffffffffffffffffffff16815260200190815260200160002060006101000a81548160ff02191690831515021790555050565b6000610f518361197d565b8210610f92576040517f08c379a0000000000000000000000000000000000000000000000000000000008152600401610f8990614f55565b60405180910390fd5b600660008473ffffffffffffffffffffffffffffffffffffffff1673ffffffffffffffffffffffffffffffffffffffff168152602001908152602001600020600083815260200190815260200160002054905092915050565b610ff361347a565b73ffffffffffffffffffffffffffffffffffffffff16600a60009054906101000a900473ffffffffffffffffffffffffffffffffffffffff1673ffffffffffffffffffffffffffffffffffffffff1614611082576040517f08c379a000000000000000000000000000000000000000000000000000000000815260040161107990615155565b60405180910390fd5b6000600c60008373ffffffffffffffffffffffffffffffffffffffff1673ffffffffffffffffffffffffffffffffffffffff16815260200190815260200160002060006101000a81548160ff02191690831515021790555050565b601360205280600052604060002060009150905080546110fc9061556e565b80601f01602080910402602001604051908101604052809291908181526020018280546111289061556e565b80156111755780601f1061114a57610100808354040283529160200191611175565b820191906000526020600020905b81548152906001019060200180831161115857829003601f168201915b505050505081565b6012805461118a9061556e565b80601f01602080910402602001604051908101604052809291908181526020018280546111b69061556e565b80156112035780601f106111d857610100808354040283529160200191611203565b820191906000526020600020905b8154815290600101906020018083116111e657829003601f168201915b505050505081565b611226838383604051806020016040528060008152506124d3565b505050565b61123361347a565b73ffffffffffffffffffffffffffffffffffffffff16600a60009054906101000a900473ffffffffffffffffffffffffffffffffffffffff1673ffffffffffffffffffffffffffffffffffffffff1614806112de5750600c600061129561347a565b73ffffffffffffffffffffffffffffffffffffffff1673ffffffffffffffffffffffffffffffffffffffff16815260200190815260200160002060009054906101000a900460ff165b61131d576040517f08c379a000000000000000000000000000000000000000000000000000000000815260040161131490615255565b60405180910390fd5b60005b838390508110156113f85760008484838181106113405761133f6156a7565b5b9050602002016020810190611355919061400d565b905060006113638285613482565b90506113848273ffffffffffffffffffffffffffffffffffffffff16613649565b156113e5576113a5600083836040518060200160405280600081525061365c565b6113e4576040517f08c379a00000000000000000000000000000000000000000000000000000000081526004016113db90614f75565b60405180910390fd5b5b5050806113f1906155d1565b9050611320565b50505050565b600073ffffffffffffffffffffffffffffffffffffffff16601160009054906101000a900473ffffffffffffffffffffffffffffffffffffffff1673ffffffffffffffffffffffffffffffffffffffff161415611490576040517f08c379a000000000000000000000000000000000000000000000000000000000815260040161148790614f35565b60405180910390fd5b601160009054906101000a900473ffffffffffffffffffffffffffffffffffffffff1673ffffffffffffffffffffffffffffffffffffffff163373ffffffffffffffffffffffffffffffffffffffff1614611520576040517f08c379a0000000000000000000000000000000000000000000000000000000008152600401611517906151b5565b60405180910390fd5b600073ffffffffffffffffffffffffffffffffffffffff168273ffffffffffffffffffffffffffffffffffffffff161415611590576040517f08c379a000000000000000000000000000000000000000000000000000000000815260040161158790615135565b60405180910390fd5b600081116115d3576040517f08c379a00000000000000000000000000000000000000000000000000000000081526004016115ca90615015565b60405180910390fd5b600d5481600e546115e49190615424565b1115611625576040517f08c379a000000000000000000000000000000000000000000000000000000000815260040161161c906150d5565b60405180910390fd5b6000600190505b81811161166b5761163f83600f54613482565b50600e6000815480929190611653906155d1565b91905055508080611663906155d1565b91505061162c565b505050565b600061167a610cfa565b82106116bb576040517f08c379a00000000000000000000000000000000000000000000000000000000081526004016116b290615215565b60405180910390fd5b600882815481106116cf576116ce6156a7565b5b90600052602060002001549050919050565b601160009054906101000a900473ffffffffffffffffffffffffffffffffffffffff1681565b6000600d54905090565b61171961347a565b73ffffffffffffffffffffffffffffffffffffffff16600a60009054906101000a900473ffffffffffffffffffffffffffffffffffffffff1673ffffffffffffffffffffffffffffffffffffffff16146117a8576040517f08c379a000000000000000000000000000000000000000000000000000000000815260040161179f90615155565b60405180910390fd5b8060146000848152602001908152602001600020819055505050565b6117cc61347a565b73ffffffffffffffffffffffffffffffffffffffff16600a60009054906101000a900473ffffffffffffffffffffffffffffffffffffffff1673ffffffffffffffffffffffffffffffffffffffff161461185b576040517f08c379a000000000000000000000000000000000000000000000000000000000815260040161185290615155565b60405180910390fd5b60005b828290508110156118c45782828281811061187c5761187b6156a7565b5b905060200201356014600087878581811061189a576118996156a7565b5b90506020020135815260200190815260200160002081905550806118bd906155d1565b905061185e565b5050505050565b6000806002600084815260200190815260200160002060009054906101000a900473ffffffffffffffffffffffffffffffffffffffff169050600073ffffffffffffffffffffffffffffffffffffffff168173ffffffffffffffffffffffffffffffffffffffff161415611974576040517f08c379a000000000000000000000000000000000000000000000000000000000815260040161196b90615095565b60405180910390fd5b80915050919050565b60008073ffffffffffffffffffffffffffffffffffffffff168273ffffffffffffffffffffffffffffffffffffffff1614156119ee576040517f08c379a00000000000000000000000000000000000000000000000000000000081526004016119e590615075565b60405180910390fd5b600360008373ffffffffffffffffffffffffffffffffffffffff1673ffffffffffffffffffffffffffffffffffffffff168152602001908152602001600020549050919050565b611a3d61347a565b73ffffffffffffffffffffffffffffffffffffffff16600a60009054906101000a900473ffffffffffffffffffffffffffffffffffffffff1673ffffffffffffffffffffffffffffffffffffffff1614611acc576040517f08c379a0000000000000000000000000000000000000000000000000000000008152600401611ac390615155565b60405180910390fd5b600073ffffffffffffffffffffffffffffffffffffffff16600a60009054906101000a900473ffffffffffffffffffffffffffffffffffffffff1673ffffffffffffffffffffffffffffffffffffffff167f8be0079c531659141344cd1fd0a4f28419497f9722a3daafe3b4186f6b6457e060405160405180910390a36000600a60006101000a81548173ffffffffffffffffffffffffffffffffffffffff021916908373ffffffffffffffffffffffffffffffffffffffff160217905550565b6000600a60009054906101000a900473ffffffffffffffffffffffffffffffffffffffff16905090565b611bbf61347a565b73ffffffffffffffffffffffffffffffffffffffff16600a60009054906101000a900473ffffffffffffffffffffffffffffffffffffffff1673ffffffffffffffffffffffffffffffffffffffff161480611c6a5750600b6000611c2161347a565b73ffffffffffffffffffffffffffffffffffffffff1673ffffffffffffffffffffffffffffffffffffffff16815260200190815260200160002060009054906101000a900460ff165b611ca9576040517f08c379a0000000000000000000000000000000000000000000000000000000008152600401611ca0906150b5565b60405180910390fd5b60005b84849050811015611d3c57828282818110611cca57611cc96156a7565b5b9050602002013560156000878785818110611ce857611ce76156a7565b5b9050602002013581526020019081526020016000206000898985818110611d1257611d116156a7565b5b9050602002013581526020019081526020016000208190555080611d35906155d1565b9050611cac565b50505050505050565b606060018054611d549061556e565b80601f0160208091040260200160405190810160405280929190818152602001828054611d809061556e565b8015611dcd5780601f10611da257610100808354040283529160200191611dcd565b820191906000526020600020905b815481529060010190602001808311611db057829003601f168201915b5050505050905090565b611ddf61347a565b73ffffffffffffffffffffffffffffffffffffffff16600a60009054906101000a900473ffffffffffffffffffffffffffffffffffffffff1673ffffffffffffffffffffffffffffffffffffffff1614611e6e576040517f08c379a0000000000000000000000000000000000000000000000000000000008152600401611e6590615155565b60405180910390fd5b6001600c60008373ffffffffffffffffffffffffffffffffffffffff1673ffffffffffffffffffffffffffffffffffffffff16815260200190815260200160002060006101000a81548160ff02191690831515021790555050565b611ed161347a565b73ffffffffffffffffffffffffffffffffffffffff16600a60009054906101000a900473ffffffffffffffffffffffffffffffffffffffff1673ffffffffffffffffffffffffffffffffffffffff161480611f7c5750600b6000611f3361347a565b73ffffffffffffffffffffffffffffffffffffffff1673ffffffffffffffffffffffffffffffffffffffff16815260200190815260200160002060009054906101000a900460ff165b611fbb576040517f08c379a0000000000000000000000000000000000000000000000000000000008152600401611fb2906150b5565b60405180910390fd5b60005b8484905081101561203557828282818110611fdc57611fdb6156a7565b5b9050602002013560156000878785818110611ffa57611ff96156a7565b5b9050602002013581526020019081526020016000206000888152602001908152602001600020819055508061202e906155d1565b9050611fbe565b505050505050565b61204561347a565b73ffffffffffffffffffffffffffffffffffffffff16600a60009054906101000a900473ffffffffffffffffffffffffffffffffffffffff1673ffffffffffffffffffffffffffffffffffffffff16146120d4576040517f08c379a00000000000000000000000000000000000000000000000000000000081526004016120cb90615155565b60405180910390fd5b8181601291906120e5929190613cce565b505050565b600d5481565b6120f861347a565b73ffffffffffffffffffffffffffffffffffffffff16600a60009054906101000a900473ffffffffffffffffffffffffffffffffffffffff1673ffffffffffffffffffffffffffffffffffffffff1614806121a35750600c600061215a61347a565b73ffffffffffffffffffffffffffffffffffffffff1673ffffffffffffffffffffffffffffffffffffffff16815260200190815260200160002060009054906101000a900460ff165b6121e2576040517f08c379a00000000000000000000000000000000000000000000000000000000081526004016121d990615255565b60405180910390fd5b60006121ee8383613482565b905061220f8373ffffffffffffffffffffffffffffffffffffffff16613649565b1561227057612230600084836040518060200160405280600081525061365c565b61226f576040517f08c379a000000000000000000000000000000000000000000000000000000000815260040161226690614f75565b60405180910390fd5b5b505050565b3373ffffffffffffffffffffffffffffffffffffffff168273ffffffffffffffffffffffffffffffffffffffff1614156122e4576040517f08c379a00000000000000000000000000000000000000000000000000000000081526004016122db90614ff5565b60405180910390fd5b80600560003373ffffffffffffffffffffffffffffffffffffffff1673ffffffffffffffffffffffffffffffffffffffff16815260200190815260200160002060008473ffffffffffffffffffffffffffffffffffffffff1673ffffffffffffffffffffffffffffffffffffffff16815260200190815260200160002060006101000a81548160ff0219169083151502179055508173ffffffffffffffffffffffffffffffffffffffff163373ffffffffffffffffffffffffffffffffffffffff167f17307eab39ab6107e8899845ad3d59bd9653f200f220920489ca2b5937696c31836040516123d59190614ed4565b60405180910390a35050565b6123e961347a565b73ffffffffffffffffffffffffffffffffffffffff16600a60009054906101000a900473ffffffffffffffffffffffffffffffffffffffff1673ffffffffffffffffffffffffffffffffffffffff1614612478576040517f08c379a000000000000000000000000000000000000000000000000000000000815260040161246f90615155565b60405180910390fd5b6000600b60008373ffffffffffffffffffffffffffffffffffffffff1673ffffffffffffffffffffffffffffffffffffffff16815260200190815260200160002060006101000a81548160ff02191690831515021790555050565b6124dd3383613140565b61251c576040517f08c379a0000000000000000000000000000000000000000000000000000000008152600401612513906151f5565b60405180910390fd5b612528848484846137ec565b50505050565b60606125398261301b565b612578576040517f08c379a000000000000000000000000000000000000000000000000000000000815260040161256f90615195565b60405180910390fd5b601260136000601460008681526020019081526020016000205481526020019081526020016000206040516020016125b1929190614e05565b6040516020818303038152906040529050919050565b600f5481565b6125d561347a565b73ffffffffffffffffffffffffffffffffffffffff16600a60009054906101000a900473ffffffffffffffffffffffffffffffffffffffff1673ffffffffffffffffffffffffffffffffffffffff1614806126805750600b600061263761347a565b73ffffffffffffffffffffffffffffffffffffffff1673ffffffffffffffffffffffffffffffffffffffff16815260200190815260200160002060009054906101000a900460ff165b6126bf576040517f08c379a00000000000000000000000000000000000000000000000000000000081526004016126b6906150b5565b60405180910390fd5b8060156000848152602001908152602001600020600085815260200190815260200160002081905550505050565b6126f561347a565b73ffffffffffffffffffffffffffffffffffffffff16600a60009054906101000a900473ffffffffffffffffffffffffffffffffffffffff1673ffffffffffffffffffffffffffffffffffffffff1614612784576040517f08c379a000000000000000000000000000000000000000000000000000000000815260040161277b90615155565b60405180910390fd5b60005b84849050811015612878578282828181106127a5576127a46156a7565b5b90506020028101906127b79190615290565b601360008888868181106127ce576127cd6156a7565b5b90506020020135815260200190815260200160002091906127f0929190613cce565b50848482818110612804576128036156a7565b5b905060200201357f6bb7ff708619ba0610cba295a58592e0451dee2622938c8755667688daf3529b84848481811061283f5761283e6156a7565b5b90506020028101906128519190615290565b60405161285f929190614eef565b60405180910390a280612871906155d1565b9050612787565b5050505050565b6000600560008473ffffffffffffffffffffffffffffffffffffffff1673ffffffffffffffffffffffffffffffffffffffff16815260200190815260200160002060008373ffffffffffffffffffffffffffffffffffffffff1673ffffffffffffffffffffffffffffffffffffffff16815260200190815260200160002060009054906101000a900460ff16905092915050565b600060156000838152602001908152602001600020600084815260200190815260200160002054905092915050565b606060008383905067ffffffffffffffff811115612963576129626156d6565b5b60405190808252806020026020018201604052801561299657816020015b60608152602001906001900390816129815790505b50905060005b84849050811015612a8b576013600082815260200190815260200160002080546129c59061556e565b80601f01602080910402602001604051908101604052809291908181526020018280546129f19061556e565b8015612a3e5780601f10612a1357610100808354040283529160200191612a3e565b820191906000526020600020905b815481529060010190602001808311612a2157829003601f168201915b505050505082868684818110612a5757612a566156a7565b5b9050602002013581518110612a6f57612a6e6156a7565b5b602002602001018190525080612a84906155d1565b905061299c565b508091505092915050565b6000600e54905090565b612aa861347a565b73ffffffffffffffffffffffffffffffffffffffff16600a60009054906101000a900473ffffffffffffffffffffffffffffffffffffffff1673ffffffffffffffffffffffffffffffffffffffff1614612b37576040517f08c379a0000000000000000000000000000000000000000000000000000000008152600401612b2e90615155565b60405180910390fd5b600073ffffffffffffffffffffffffffffffffffffffff168173ffffffffffffffffffffffffffffffffffffffff161415612ba7576040517f08c379a0000000000000000000000000000000000000000000000000000000008152600401612b9e90614f95565b60405180910390fd5b8073ffffffffffffffffffffffffffffffffffffffff16600a60009054906101000a900473ffffffffffffffffffffffffffffffffffffffff1673ffffffffffffffffffffffffffffffffffffffff167f8be0079c531659141344cd1fd0a4f28419497f9722a3daafe3b4186f6b6457e060405160405180910390a380600a60006101000a81548173ffffffffffffffffffffffffffffffffffffffff021916908373ffffffffffffffffffffffffffffffffffffffff16021790555050565b606060008383905067ffffffffffffffff811115612c8857612c876156d6565b5b604051908082528060200260200182016040528015612cb65781602001602082028036833780820191505090505b50905060005b84849050811015612d4e5760156000868684818110612cde57612cdd6156a7565b5b9050602002013581526020019081526020016000206000888884818110612d0857612d076156a7565b5b90506020020135815260200190815260200160002054828281518110612d3157612d306156a7565b5b60200260200101818152505080612d47906155d1565b9050612cbc565b5080915050949350505050565b612d6361347a565b73ffffffffffffffffffffffffffffffffffffffff16600a60009054906101000a900473ffffffffffffffffffffffffffffffffffffffff1673ffffffffffffffffffffffffffffffffffffffff1614612df2576040517f08c379a0000000000000000000000000000000000000000000000000000000008152600401612de990615155565b60405180910390fd5b600d548111612e36576040517f08c379a0000000000000000000000000000000000000000000000000000000008152600401612e2d90615235565b60405180910390fd5b80600d8190555050565b600e5481565b60606000612e538361197d565b905060008167ffffffffffffffff811115612e7157612e706156d6565b5b604051908082528060200260200182016040528015612e9f5781602001602082028036833780820191505090505b50905060005b82811015612f2e57600660008673ffffffffffffffffffffffffffffffffffffffff1673ffffffffffffffffffffffffffffffffffffffff168152602001908152602001600020600082815260200190815260200160002054828281518110612f1157612f106156a7565b5b60200260200101818152505080612f27906155d1565b9050612ea5565b508092505050919050565b60007f80ac58cd000000000000000000000000000000000000000000000000000000007bffffffffffffffffffffffffffffffffffffffffffffffffffffffff1916827bffffffffffffffffffffffffffffffffffffffffffffffffffffffff1916148061300457507f5b5e139f000000000000000000000000000000000000000000000000000000007bffffffffffffffffffffffffffffffffffffffffffffffffffffffff1916827bffffffffffffffffffffffffffffffffffffffffffffffffffffffff1916145b80613014575061301382613848565b5b9050919050565b60008073ffffffffffffffffffffffffffffffffffffffff166002600084815260200190815260200160002060009054906101000a900473ffffffffffffffffffffffffffffffffffffffff1673ffffffffffffffffffffffffffffffffffffffff1614159050919050565b816004600083815260200190815260200160002060006101000a81548173ffffffffffffffffffffffffffffffffffffffff021916908373ffffffffffffffffffffffffffffffffffffffff160217905550808273ffffffffffffffffffffffffffffffffffffffff166130fa836118cb565b73ffffffffffffffffffffffffffffffffffffffff167f8c5be1e5ebec7d5bd14f71427d1e84f3dd0314c0f7b2291e5b200ac8c7c3b92560405160405180910390a45050565b600061314b8261301b565b61318a576040517f08c379a000000000000000000000000000000000000000000000000000000000815260040161318190615035565b60405180910390fd5b6000613195836118cb565b90508073ffffffffffffffffffffffffffffffffffffffff168473ffffffffffffffffffffffffffffffffffffffff16148061320457508373ffffffffffffffffffffffffffffffffffffffff166131ec84610b6b565b73ffffffffffffffffffffffffffffffffffffffff16145b806132155750613214818561287f565b5b91505092915050565b8273ffffffffffffffffffffffffffffffffffffffff1661323e826118cb565b73ffffffffffffffffffffffffffffffffffffffff1614613294576040517f08c379a000000000000000000000000000000000000000000000000000000000815260040161328b90615175565b60405180910390fd5b600073ffffffffffffffffffffffffffffffffffffffff168273ffffffffffffffffffffffffffffffffffffffff161415613304576040517f08c379a00000000000000000000000000000000000000000000000000000000081526004016132fb90614fb5565b60405180910390fd5b61330f838383613899565b61331a600082613087565b6001600360008573ffffffffffffffffffffffffffffffffffffffff1673ffffffffffffffffffffffffffffffffffffffff168152602001908152602001600020600082825461336a919061547a565b925050819055506001600360008473ffffffffffffffffffffffffffffffffffffffff1673ffffffffffffffffffffffffffffffffffffffff16815260200190815260200160002060008282546133c19190615424565b92505081905550816002600083815260200190815260200160002060006101000a81548173ffffffffffffffffffffffffffffffffffffffff021916908373ffffffffffffffffffffffffffffffffffffffff160217905550808273ffffffffffffffffffffffffffffffffffffffff168473ffffffffffffffffffffffffffffffffffffffff167fddf252ad1be2c89b69c2b068fc378daa952ba7f163c4a11628f55a4df523b3ef60405160405180910390a4505050565b600033905090565b60008073ffffffffffffffffffffffffffffffffffffffff168373ffffffffffffffffffffffffffffffffffffffff1614156134f3576040517f08c379a00000000000000000000000000000000000000000000000000000000081526004016134ea906150f5565b60405180910390fd5b6000601054905061350660008583613899565b6001600360008673ffffffffffffffffffffffffffffffffffffffff1673ffffffffffffffffffffffffffffffffffffffff16815260200190815260200160002060008282546135569190615424565b92505081905550836002600083815260200190815260200160002060006101000a81548173ffffffffffffffffffffffffffffffffffffffff021916908373ffffffffffffffffffffffffffffffffffffffff1602179055508260146000838152602001908152602001600020819055506135dd60016010546139ad90919063ffffffff16565b601081905550808473ffffffffffffffffffffffffffffffffffffffff16600073ffffffffffffffffffffffffffffffffffffffff167fddf252ad1be2c89b69c2b068fc378daa952ba7f163c4a11628f55a4df523b3ef60405160405180910390a48091505092915050565b600080823b905060008111915050919050565b600061367d8473ffffffffffffffffffffffffffffffffffffffff16613649565b156137df578373ffffffffffffffffffffffffffffffffffffffff1663150b7a02338786866040518563ffffffff1660e01b81526004016136c19493929190614e44565b602060405180830381600087803b1580156136db57600080fd5b505af192505050801561370c57506040513d601f19601f8201168201806040525081019061370991906146fe565b60015b61378f573d806000811461373c576040519150601f19603f3d011682016040523d82523d6000602084013e613741565b606091505b50600081511415613787576040517f08c379a000000000000000000000000000000000000000000000000000000000815260040161377e90614f75565b60405180910390fd5b805181602001fd5b63150b7a0260e01b7bffffffffffffffffffffffffffffffffffffffffffffffffffffffff1916817bffffffffffffffffffffffffffffffffffffffffffffffffffffffff1916149150506137e4565b600190505b949350505050565b6137f784848461321e565b6138038484848461365c565b613842576040517f08c379a000000000000000000000000000000000000000000000000000000000815260040161383990614f75565b60405180910390fd5b50505050565b60006301ffc9a760e01b7bffffffffffffffffffffffffffffffffffffffffffffffffffffffff1916827bffffffffffffffffffffffffffffffffffffffffffffffffffffffff1916149050919050565b6138a48383836139c3565b600073ffffffffffffffffffffffffffffffffffffffff168373ffffffffffffffffffffffffffffffffffffffff1614156138e7576138e2816139c8565b613926565b8173ffffffffffffffffffffffffffffffffffffffff168373ffffffffffffffffffffffffffffffffffffffff1614613925576139248382613a11565b5b5b600073ffffffffffffffffffffffffffffffffffffffff168273ffffffffffffffffffffffffffffffffffffffff1614156139695761396481613b7e565b6139a8565b8273ffffffffffffffffffffffffffffffffffffffff168273ffffffffffffffffffffffffffffffffffffffff16146139a7576139a68282613c4f565b5b5b505050565b600081836139bb9190615424565b905092915050565b505050565b6008805490506009600083815260200190815260200160002081905550600881908060018154018082558091505060019003906000526020600020016000909190919091505550565b60006001613a1e8461197d565b613a28919061547a565b9050600060076000848152602001908152602001600020549050818114613b0d576000600660008673ffffffffffffffffffffffffffffffffffffffff1673ffffffffffffffffffffffffffffffffffffffff168152602001908152602001600020600084815260200190815260200160002054905080600660008773ffffffffffffffffffffffffffffffffffffffff1673ffffffffffffffffffffffffffffffffffffffff168152602001908152602001600020600084815260200190815260200160002081905550816007600083815260200190815260200160002081905550505b6007600084815260200190815260200160002060009055600660008573ffffffffffffffffffffffffffffffffffffffff1673ffffffffffffffffffffffffffffffffffffffff16815260200190815260200160002060008381526020019081526020016000206000905550505050565b60006001600880549050613b92919061547a565b9050600060096000848152602001908152602001600020549050600060088381548110613bc257613bc16156a7565b5b906000526020600020015490508060088381548110613be457613be36156a7565b5b906000526020600020018190555081600960008381526020019081526020016000208190555060096000858152602001908152602001600020600090556008805480613c3357613c32615678565b5b6001900381819060005260206000200160009055905550505050565b6000613c5a8361197d565b905081600660008573ffffffffffffffffffffffffffffffffffffffff1673ffffffffffffffffffffffffffffffffffffffff168152602001908152602001600020600083815260200190815260200160002081905550806007600084815260200190815260200160002081905550505050565b828054613cda9061556e565b90600052602060002090601f016020900481019282613cfc5760008555613d43565b82601f10613d1557803560ff1916838001178555613d43565b82800160010185558215613d43579182015b82811115613d42578235825591602001919060010190613d27565b5b509050613d509190613d54565b5090565b5b80821115613d6d576000816000905550600101613d55565b5090565b6000613d84613d7f84615318565b6152f3565b905082815260208101848484011115613da057613d9f615723565b5b613dab84828561552c565b509392505050565b600081359050613dc281615e19565b92915050565b60008083601f840112613dde57613ddd61570a565b5b8235905067ffffffffffffffff811115613dfb57613dfa615705565b5b602083019150836020820283011115613e1757613e16615719565b5b9250929050565b60008083601f840112613e3457613e3361570a565b5b8235905067ffffffffffffffff811115613e5157613e50615705565b5b602083019150836020820283011115613e6d57613e6c615719565b5b9250929050565b60008083601f840112613e8a57613e8961570a565b5b8235905067ffffffffffffffff811115613ea757613ea6615705565b5b602083019150836020820283011115613ec357613ec2615719565b5b9250929050565b60008083601f840112613ee057613edf61570a565b5b8235905067ffffffffffffffff811115613efd57613efc615705565b5b602083019150836020820283011115613f1957613f18615719565b5b9250929050565b600081359050613f2f81615e30565b92915050565b600081359050613f4481615e47565b92915050565b600081359050613f5981615e5e565b92915050565b600081519050613f6e81615e5e565b92915050565b600082601f830112613f8957613f8861570a565b5b8135613f99848260208601613d71565b91505092915050565b60008083601f840112613fb857613fb761570a565b5b8235905067ffffffffffffffff811115613fd557613fd4615705565b5b602083019150836001820283011115613ff157613ff0615719565b5b9250929050565b60008135905061400781615e75565b92915050565b6000602082840312156140235761402261572d565b5b600061403184828501613db3565b91505092915050565b600080604083850312156140515761405061572d565b5b600061405f85828601613db3565b925050602061407085828601613db3565b9150509250929050565b6000806000606084860312156140935761409261572d565b5b60006140a186828701613db3565b93505060206140b286828701613db3565b92505060406140c386828701613ff8565b9150509250925092565b600080600080608085870312156140e7576140e661572d565b5b60006140f587828801613db3565b945050602061410687828801613db3565b935050604061411787828801613ff8565b925050606085013567ffffffffffffffff81111561413857614137615728565b5b61414487828801613f74565b91505092959194509250565b60008060008060006060868803121561416c5761416b61572d565b5b600061417a88828901613db3565b955050602086013567ffffffffffffffff81111561419b5761419a615728565b5b6141a788828901613dc8565b9450945050604086013567ffffffffffffffff8111156141ca576141c9615728565b5b6141d688828901613eca565b92509250509295509295909350565b600080604083850312156141fc576141fb61572d565b5b600061420a85828601613db3565b925050602061421b85828601613f20565b9150509250929050565b6000806040838503121561423c5761423b61572d565b5b600061424a85828601613db3565b925050602061425b85828601613ff8565b9150509250929050565b60008060006040848603121561427e5761427d61572d565b5b600084013567ffffffffffffffff81111561429c5761429b615728565b5b6142a886828701613dc8565b935093505060206142bb86828701613ff8565b9150509250925092565b600080600080604085870312156142df576142de61572d565b5b600085013567ffffffffffffffff8111156142fd576142fc615728565b5b61430987828801613e1e565b9450945050602085013567ffffffffffffffff81111561432c5761432b615728565b5b61433887828801613eca565b925092505092959194509250565b600080600080600080606087890312156143635761436261572d565b5b600087013567ffffffffffffffff81111561438157614380615728565b5b61438d89828a01613e1e565b9650965050602087013567ffffffffffffffff8111156143b0576143af615728565b5b6143bc89828a01613eca565b9450945050604087013567ffffffffffffffff8111156143df576143de615728565b5b6143eb89828a01613eca565b92509250509295509295509295565b600080602083850312156144115761441061572d565b5b600083013567ffffffffffffffff81111561442f5761442e615728565b5b61443b85828601613eca565b92509250509250929050565b600080600080604085870312156144615761446061572d565b5b600085013567ffffffffffffffff81111561447f5761447e615728565b5b61448b87828801613eca565b9450945050602085013567ffffffffffffffff8111156144ae576144ad615728565b5b6144ba87828801613e74565b925092505092959194509250565b600080600080604085870312156144e2576144e161572d565b5b600085013567ffffffffffffffff811115614500576144ff615728565b5b61450c87828801613eca565b9450945050602085013567ffffffffffffffff81111561452f5761452e615728565b5b61453b87828801613eca565b925092505092959194509250565b6000806000604084860312156145625761456161572d565b5b600061457086828701613f35565b935050602084013567ffffffffffffffff81111561459157614590615728565b5b61459d86828701613eca565b92509250509250925092565b6000806000806000606086880312156145c5576145c461572d565b5b60006145d388828901613f35565b955050602086013567ffffffffffffffff8111156145f4576145f3615728565b5b61460088828901613eca565b9450945050604086013567ffffffffffffffff81111561462357614622615728565b5b61462f88828901613eca565b92509250509295509295909350565b600080604083850312156146555761465461572d565b5b600061466385828601613f35565b925050602061467485828601613ff8565b9150509250929050565b6000806000606084860312156146975761469661572d565b5b60006146a586828701613f35565b93505060206146b686828701613ff8565b92505060406146c786828701613ff8565b9150509250925092565b6000602082840312156146e7576146e661572d565b5b60006146f584828501613f4a565b91505092915050565b6000602082840312156147145761471361572d565b5b600061472284828501613f5f565b91505092915050565b600080602083850312156147425761474161572d565b5b600083013567ffffffffffffffff8111156147605761475f615728565b5b61476c85828601613fa2565b92509250509250929050565b60006020828403121561478e5761478d61572d565b5b600061479c84828501613ff8565b91505092915050565b600080604083850312156147bc576147bb61572d565b5b60006147ca85828601613ff8565b92505060206147db85828601613ff8565b9150509250929050565b60006147f18383614968565b905092915050565b60006148058383614de7565b60208301905092915050565b61481a816154ae565b82525050565b600061482b8261537e565b61483581856153c4565b93508360208202850161484785615349565b8060005b85811015614883578484038952815161486485826147e5565b945061486f836153aa565b925060208a0199505060018101905061484b565b50829750879550505050505092915050565b60006148a082615389565b6148aa81856153d5565b93506148b583615359565b8060005b838110156148e65781516148cd88826147f9565b97506148d8836153b7565b9250506001810190506148b9565b5085935050505092915050565b6148fc816154c0565b82525050565b600061490d82615394565b61491781856153e6565b935061492781856020860161553b565b61493081615732565b840191505092915050565b60006149478385615408565b935061495483858461552c565b61495d83615732565b840190509392505050565b60006149738261539f565b61497d81856153f7565b935061498d81856020860161553b565b61499681615732565b840191505092915050565b60006149ac8261539f565b6149b68185615408565b93506149c681856020860161553b565b6149cf81615732565b840191505092915050565b600081546149e78161556e565b6149f18186615419565b94506001821660008114614a0c5760018114614a1d57614a50565b60ff19831686528186019350614a50565b614a2685615369565b60005b83811015614a4857815481890152600182019150602081019050614a29565b838801955050505b50505092915050565b6000614a66601a83615408565b9150614a7182615743565b602082019050919050565b6000614a89602b83615408565b9150614a948261576c565b604082019050919050565b6000614aac603283615408565b9150614ab7826157bb565b604082019050919050565b6000614acf602683615408565b9150614ada8261580a565b604082019050919050565b6000614af2602483615408565b9150614afd82615859565b604082019050919050565b6000614b15602983615408565b9150614b20826158a8565b604082019050919050565b6000614b38601983615408565b9150614b43826158f7565b602082019050919050565b6000614b5b601b83615408565b9150614b6682615920565b602082019050919050565b6000614b7e602c83615408565b9150614b8982615949565b604082019050919050565b6000614ba1603883615408565b9150614bac82615998565b604082019050919050565b6000614bc4602a83615408565b9150614bcf826159e7565b604082019050919050565b6000614be7602983615408565b9150614bf282615a36565b604082019050919050565b6000614c0a602483615408565b9150614c1582615a85565b604082019050919050565b6000614c2d601283615408565b9150614c3882615ad4565b602082019050919050565b6000614c50602083615408565b9150614c5b82615afd565b602082019050919050565b6000614c73602c83615408565b9150614c7e82615b26565b604082019050919050565b6000614c96601b83615408565b9150614ca182615b75565b602082019050919050565b6000614cb9602083615408565b9150614cc482615b9e565b602082019050919050565b6000614cdc602983615408565b9150614ce782615bc7565b604082019050919050565b6000614cff602f83615408565b9150614d0a82615c16565b604082019050919050565b6000614d22601683615408565b9150614d2d82615c65565b602082019050919050565b6000614d45602183615408565b9150614d5082615c8e565b604082019050919050565b6000614d68603183615408565b9150614d7382615cdd565b604082019050919050565b6000614d8b602c83615408565b9150614d9682615d2c565b604082019050919050565b6000614dae602383615408565b9150614db982615d7b565b604082019050919050565b6000614dd1602383615408565b9150614ddc82615dca565b604082019050919050565b614df081615522565b82525050565b614dff81615522565b82525050565b6000614e1182856149da565b9150614e1d82846149da565b91508190509392505050565b6000602082019050614e3e6000830184614811565b92915050565b6000608082019050614e596000830187614811565b614e666020830186614811565b614e736040830185614df6565b8181036060830152614e858184614902565b905095945050505050565b60006020820190508181036000830152614eaa8184614820565b905092915050565b60006020820190508181036000830152614ecc8184614895565b905092915050565b6000602082019050614ee960008301846148f3565b92915050565b60006020820190508181036000830152614f0a81848661493b565b90509392505050565b60006020820190508181036000830152614f2d81846149a1565b905092915050565b60006020820190508181036000830152614f4e81614a59565b9050919050565b60006020820190508181036000830152614f6e81614a7c565b9050919050565b60006020820190508181036000830152614f8e81614a9f565b9050919050565b60006020820190508181036000830152614fae81614ac2565b9050919050565b60006020820190508181036000830152614fce81614ae5565b9050919050565b60006020820190508181036000830152614fee81614b08565b9050919050565b6000602082019050818103600083015261500e81614b2b565b9050919050565b6000602082019050818103600083015261502e81614b4e565b9050919050565b6000602082019050818103600083015261504e81614b71565b9050919050565b6000602082019050818103600083015261506e81614b94565b9050919050565b6000602082019050818103600083015261508e81614bb7565b9050919050565b600060208201905081810360008301526150ae81614bda565b9050919050565b600060208201905081810360008301526150ce81614bfd565b9050919050565b600060208201905081810360008301526150ee81614c20565b9050919050565b6000602082019050818103600083015261510e81614c43565b9050919050565b6000602082019050818103600083015261512e81614c66565b9050919050565b6000602082019050818103600083015261514e81614c89565b9050919050565b6000602082019050818103600083015261516e81614cac565b9050919050565b6000602082019050818103600083015261518e81614ccf565b9050919050565b600060208201905081810360008301526151ae81614cf2565b9050919050565b600060208201905081810360008301526151ce81614d15565b9050919050565b600060208201905081810360008301526151ee81614d38565b9050919050565b6000602082019050818103600083015261520e81614d5b565b9050919050565b6000602082019050818103600083015261522e81614d7e565b9050919050565b6000602082019050818103600083015261524e81614da1565b9050919050565b6000602082019050818103600083015261526e81614dc4565b9050919050565b600060208201905061528a6000830184614df6565b92915050565b600080833560016020038436030381126152ad576152ac615714565b5b80840192508235915067ffffffffffffffff8211156152cf576152ce61570f565b5b6020830192506001820236038313156152eb576152ea61571e565b5b509250929050565b60006152fd61530e565b905061530982826155a0565b919050565b6000604051905090565b600067ffffffffffffffff821115615333576153326156d6565b5b61533c82615732565b9050602081019050919050565b6000819050602082019050919050565b6000819050602082019050919050565b60008190508160005260206000209050919050565b600081519050919050565b600081519050919050565b600081519050919050565b600081519050919050565b6000602082019050919050565b6000602082019050919050565b600082825260208201905092915050565b600082825260208201905092915050565b600082825260208201905092915050565b600082825260208201905092915050565b600082825260208201905092915050565b600081905092915050565b600061542f82615522565b915061543a83615522565b9250827fffffffffffffffffffffffffffffffffffffffffffffffffffffffffffffffff0382111561546f5761546e61561a565b5b828201905092915050565b600061548582615522565b915061549083615522565b9250828210156154a3576154a261561a565b5b828203905092915050565b60006154b982615502565b9050919050565b60008115159050919050565b6000819050919050565b60007fffffffff0000000000000000000000000000000000000000000000000000000082169050919050565b600073ffffffffffffffffffffffffffffffffffffffff82169050919050565b6000819050919050565b82818337600083830152505050565b60005b8381101561555957808201518184015260208101905061553e565b83811115615568576000848401525b50505050565b6000600282049050600182168061558657607f821691505b6020821081141561559a57615599615649565b5b50919050565b6155a982615732565b810181811067ffffffffffffffff821117156155c8576155c76156d6565b5b80604052505050565b60006155dc82615522565b91507fffffffffffffffffffffffffffffffffffffffffffffffffffffffffffffffff82141561560f5761560e61561a565b5b600182019050919050565b7f4e487b7100000000000000000000000000000000000000000000000000000000600052601160045260246000fd5b7f4e487b7100000000000000000000000000000000000000000000000000000000600052602260045260246000fd5b7f4e487b7100000000000000000000000000000000000000000000000000000000600052603160045260246000fd5b7f4e487b7100000000000000000000000000000000000000000000000000000000600052603260045260246000fd5b7f4e487b7100000000000000000000000000000000000000000000000000000000600052604160045260246000fd5b600080fd5b600080fd5b600080fd5b600080fd5b600080fd5b600080fd5b600080fd5b600080fd5b600080fd5b6000601f19601f8301169050919050565b7f6c61756e63687061642061646472657373206d75737420736574000000000000600082015250565b7f455243373231456e756d657261626c653a206f776e657220696e646578206f7560008201527f74206f6620626f756e6473000000000000000000000000000000000000000000602082015250565b7f4552433732313a207472616e7366657220746f206e6f6e20455243373231526560008201527f63656976657220696d706c656d656e7465720000000000000000000000000000602082015250565b7f4f776e61626c653a206e6577206f776e657220697320746865207a65726f206160008201527f6464726573730000000000000000000000000000000000000000000000000000602082015250565b7f4552433732313a207472616e7366657220746f20746865207a65726f2061646460008201527f7265737300000000000000000000000000000000000000000000000000000000602082015250565b7f5f746f20616e64205f746f6b656e4964206172726179206c656e677468206d7560008201527f7374206d617463682e0000000000000000000000000000000000000000000000602082015250565b7f4552433732313a20617070726f766520746f2063616c6c657200000000000000600082015250565b7f73697a65206d7573742067726561746572207468616e207a65726f0000000000600082015250565b7f4552433732313a206f70657261746f7220717565727920666f72206e6f6e657860008201527f697374656e7420746f6b656e0000000000000000000000000000000000000000602082015250565b7f4552433732313a20617070726f76652063616c6c6572206973206e6f74206f7760008201527f6e6572206e6f7220617070726f76656420666f7220616c6c0000000000000000602082015250565b7f4552433732313a2062616c616e636520717565727920666f7220746865207a6560008201527f726f206164647265737300000000000000000000000000000000000000000000602082015250565b7f4552433732313a206f776e657220717565727920666f72206e6f6e657869737460008201527f656e7420746f6b656e0000000000000000000000000000000000000000000000602082015250565b7f4f776e61626c653a2063616c6c6572206973206e6f74206f776e65722f6d616e60008201527f6167657200000000000000000000000000000000000000000000000000000000602082015250565b7f6d617820737570706c7920726561636865640000000000000000000000000000600082015250565b7f4552433732313a206d696e7420746f20746865207a65726f2061646472657373600082015250565b7f4552433732313a20617070726f76656420717565727920666f72206e6f6e657860008201527f697374656e7420746f6b656e0000000000000000000000000000000000000000602082015250565b7f63616e2774206d696e7420746f20656d70747920616464726573730000000000600082015250565b7f4f776e61626c653a2063616c6c6572206973206e6f7420746865206f776e6572600082015250565b7f4552433732313a207472616e73666572206f6620746f6b656e2074686174206960008201527f73206e6f74206f776e0000000000000000000000000000000000000000000000602082015250565b7f4552433732314d657461646174613a2055524920717565727920666f72206e6f60008201527f6e6578697374656e7420746f6b656e0000000000000000000000000000000000602082015250565b7f6d7573742063616c6c206279206c61756e636870616400000000000000000000600082015250565b7f4552433732313a20617070726f76616c20746f2063757272656e74206f776e6560008201527f7200000000000000000000000000000000000000000000000000000000000000602082015250565b7f4552433732313a207472616e736665722063616c6c6572206973206e6f74206f60008201527f776e6572206e6f7220617070726f766564000000000000000000000000000000602082015250565b7f455243373231456e756d657261626c653a20676c6f62616c20696e646578206f60008201527f7574206f6620626f756e64730000000000000000000000000000000000000000602082015250565b7f4c41554e43485f4d41585f535550504c592063616e206f6e6c7920696e63726560008201527f6173650000000000000000000000000000000000000000000000000000000000602082015250565b7f4f776e61626c653a2063616c6c6572206973206e6f74206f776e65722f6d696e60008201527f7465720000000000000000000000000000000000000000000000000000000000602082015250565b615e22816154ae565b8114615e2d57600080fd5b50565b615e39816154c0565b8114615e4457600080fd5b50565b615e50816154cc565b8114615e5b57600080fd5b50565b615e67816154d6565b8114615e7257600080fd5b50565b615e7e81615522565b8114615e8957600080fd5b5056fea26469706673582212207beb5c7274dd18532c958464732c8da58f913b04b34fe0bd398eaa701b1d0bde64736f6c63430008070033",
			"opcodes": "PUSH1 0x80 PUSH1 0x40 MSTORE PUSH1 0x0 PUSH1 0xF SSTORE CALLVALUE DUP1 ISZERO PUSH3 0x16 JUMPI PUSH1 0x0 DUP1 REVERT JUMPDEST POP PUSH1 0x40 MLOAD PUSH3 0x649C CODESIZE SUB DUP1 PUSH3 0x649C DUP4 CODECOPY DUP2 DUP2 ADD PUSH1 0x40 MSTORE DUP2 ADD SWAP1 PUSH3 0x3C SWAP2 SWAP1 PUSH3 0x2EF JUMP JUMPDEST PUSH1 0x0 PUSH3 0x4E PUSH3 0x18B PUSH1 0x20 SHL PUSH1 0x20 SHR JUMP JUMPDEST SWAP1 POP DUP1 PUSH1 0xA PUSH1 0x0 PUSH2 0x100 EXP DUP2 SLOAD DUP2 PUSH20 0xFFFFFFFFFFFFFFFFFFFFFFFFFFFFFFFFFFFFFFFF MUL NOT AND SWAP1 DUP4 PUSH20 0xFFFFFFFFFFFFFFFFFFFFFFFFFFFFFFFFFFFFFFFF AND MUL OR SWAP1 SSTORE POP DUP1 PUSH20 0xFFFFFFFFFFFFFFFFFFFFFFFFFFFFFFFFFFFFFFFF AND PUSH1 0x0 PUSH20 0xFFFFFFFFFFFFFFFFFFFFFFFFFFFFFFFFFFFFFFFF AND PUSH32 0x8BE0079C531659141344CD1FD0A4F28419497F9722A3DAAFE3B4186F6B6457E0 PUSH1 0x40 MLOAD PUSH1 0x40 MLOAD DUP1 SWAP2 SUB SWAP1 LOG3 POP DUP5 PUSH1 0x0 SWAP1 DUP1 MLOAD SWAP1 PUSH1 0x20 ADD SWAP1 PUSH3 0x105 SWAP3 SWAP2 SWAP1 PUSH3 0x193 JUMP JUMPDEST POP DUP4 PUSH1 0x1 SWAP1 DUP1 MLOAD SWAP1 PUSH1 0x20 ADD SWAP1 PUSH3 0x11E SWAP3 SWAP2 SWAP1 PUSH3 0x193 JUMP JUMPDEST POP DUP3 PUSH1 0x12 SWAP1 DUP1 MLOAD SWAP1 PUSH1 0x20 ADD SWAP1 PUSH3 0x137 SWAP3 SWAP2 SWAP1 PUSH3 0x193 JUMP JUMPDEST POP DUP2 PUSH1 0x11 PUSH1 0x0 PUSH2 0x100 EXP DUP2 SLOAD DUP2 PUSH20 0xFFFFFFFFFFFFFFFFFFFFFFFFFFFFFFFFFFFFFFFF MUL NOT AND SWAP1 DUP4 PUSH20 0xFFFFFFFFFFFFFFFFFFFFFFFFFFFFFFFFFFFFFFFF AND MUL OR SWAP1 SSTORE POP DUP1 PUSH1 0xD DUP2 SWAP1 SSTORE POP POP POP POP POP POP PUSH3 0x5CA JUMP JUMPDEST PUSH1 0x0 CALLER SWAP1 POP SWAP1 JUMP JUMPDEST DUP3 DUP1 SLOAD PUSH3 0x1A1 SWAP1 PUSH3 0x4A7 JUMP JUMPDEST SWAP1 PUSH1 0x0 MSTORE PUSH1 0x20 PUSH1 0x0 KECCAK256 SWAP1 PUSH1 0x1F ADD PUSH1 0x20 SWAP1 DIV DUP2 ADD SWAP3 DUP3 PUSH3 0x1C5 JUMPI PUSH1 0x0 DUP6 SSTORE PUSH3 0x211 JUMP JUMPDEST DUP3 PUSH1 0x1F LT PUSH3 0x1E0 JUMPI DUP1 MLOAD PUSH1 0xFF NOT AND DUP4 DUP1 ADD OR DUP6 SSTORE PUSH3 0x211 JUMP JUMPDEST DUP3 DUP1 ADD PUSH1 0x1 ADD DUP6 SSTORE DUP3 ISZERO PUSH3 0x211 JUMPI SWAP2 DUP3 ADD JUMPDEST DUP3 DUP2 GT ISZERO PUSH3 0x210 JUMPI DUP3 MLOAD DUP3 SSTORE SWAP2 PUSH1 0x20 ADD SWAP2 SWAP1 PUSH1 0x1 ADD SWAP1 PUSH3 0x1F3 JUMP JUMPDEST JUMPDEST POP SWAP1 POP PUSH3 0x220 SWAP2 SWAP1 PUSH3 0x224 JUMP JUMPDEST POP SWAP1 JUMP JUMPDEST JUMPDEST DUP1 DUP3 GT ISZERO PUSH3 0x23F JUMPI PUSH1 0x0 DUP2 PUSH1 0x0 SWAP1 SSTORE POP PUSH1 0x1 ADD PUSH3 0x225 JUMP JUMPDEST POP SWAP1 JUMP JUMPDEST PUSH1 0x0 PUSH3 0x25A PUSH3 0x254 DUP5 PUSH3 0x3FD JUMP JUMPDEST PUSH3 0x3D4 JUMP JUMPDEST SWAP1 POP DUP3 DUP2 MSTORE PUSH1 0x20 DUP2 ADD DUP5 DUP5 DUP5 ADD GT ISZERO PUSH3 0x279 JUMPI PUSH3 0x278 PUSH3 0x576 JUMP JUMPDEST JUMPDEST PUSH3 0x286 DUP5 DUP3 DUP6 PUSH3 0x471 JUMP JUMPDEST POP SWAP4 SWAP3 POP POP POP JUMP JUMPDEST PUSH1 0x0 DUP2 MLOAD SWAP1 POP PUSH3 0x29F DUP2 PUSH3 0x596 JUMP JUMPDEST SWAP3 SWAP2 POP POP JUMP JUMPDEST PUSH1 0x0 DUP3 PUSH1 0x1F DUP4 ADD SLT PUSH3 0x2BD JUMPI PUSH3 0x2BC PUSH3 0x571 JUMP JUMPDEST JUMPDEST DUP2 MLOAD PUSH3 0x2CF DUP5 DUP3 PUSH1 0x20 DUP7 ADD PUSH3 0x243 JUMP JUMPDEST SWAP2 POP POP SWAP3 SWAP2 POP POP JUMP JUMPDEST PUSH1 0x0 DUP2 MLOAD SWAP1 POP PUSH3 0x2E9 DUP2 PUSH3 0x5B0 JUMP JUMPDEST SWAP3 SWAP2 POP POP JUMP JUMPDEST PUSH1 0x0 DUP1 PUSH1 0x0 DUP1 PUSH1 0x0 PUSH1 0xA0 DUP7 DUP9 SUB SLT ISZERO PUSH3 0x30E JUMPI PUSH3 0x30D PUSH3 0x580 JUMP JUMPDEST JUMPDEST PUSH1 0x0 DUP7 ADD MLOAD PUSH8 0xFFFFFFFFFFFFFFFF DUP2 GT ISZERO PUSH3 0x32F JUMPI PUSH3 0x32E PUSH3 0x57B JUMP JUMPDEST JUMPDEST PUSH3 0x33D DUP9 DUP3 DUP10 ADD PUSH3 0x2A5 JUMP JUMPDEST SWAP6 POP POP PUSH1 0x20 DUP7 ADD MLOAD PUSH8 0xFFFFFFFFFFFFFFFF DUP2 GT ISZERO PUSH3 0x361 JUMPI PUSH3 0x360 PUSH3 0x57B JUMP JUMPDEST JUMPDEST PUSH3 0x36F DUP9 DUP3 DUP10 ADD PUSH3 0x2A5 JUMP JUMPDEST SWAP5 POP POP PUSH1 0x40 DUP7 ADD MLOAD PUSH8 0xFFFFFFFFFFFFFFFF DUP2 GT ISZERO PUSH3 0x393 JUMPI PUSH3 0x392 PUSH3 0x57B JUMP JUMPDEST JUMPDEST PUSH3 0x3A1 DUP9 DUP3 DUP10 ADD PUSH3 0x2A5 JUMP JUMPDEST SWAP4 POP POP PUSH1 0x60 PUSH3 0x3B4 DUP9 DUP3 DUP10 ADD PUSH3 0x28E JUMP JUMPDEST SWAP3 POP POP PUSH1 0x80 PUSH3 0x3C7 DUP9 DUP3 DUP10 ADD PUSH3 0x2D8 JUMP JUMPDEST SWAP2 POP POP SWAP3 SWAP6 POP SWAP3 SWAP6 SWAP1 SWAP4 POP JUMP JUMPDEST PUSH1 0x0 PUSH3 0x3E0 PUSH3 0x3F3 JUMP JUMPDEST SWAP1 POP PUSH3 0x3EE DUP3 DUP3 PUSH3 0x4DD JUMP JUMPDEST SWAP2 SWAP1 POP JUMP JUMPDEST PUSH1 0x0 PUSH1 0x40 MLOAD SWAP1 POP SWAP1 JUMP JUMPDEST PUSH1 0x0 PUSH8 0xFFFFFFFFFFFFFFFF DUP3 GT ISZERO PUSH3 0x41B JUMPI PUSH3 0x41A PUSH3 0x542 JUMP JUMPDEST JUMPDEST PUSH3 0x426 DUP3 PUSH3 0x585 JUMP JUMPDEST SWAP1 POP PUSH1 0x20 DUP2 ADD SWAP1 POP SWAP2 SWAP1 POP JUMP JUMPDEST PUSH1 0x0 PUSH3 0x440 DUP3 PUSH3 0x447 JUMP JUMPDEST SWAP1 POP SWAP2 SWAP1 POP JUMP JUMPDEST PUSH1 0x0 PUSH20 0xFFFFFFFFFFFFFFFFFFFFFFFFFFFFFFFFFFFFFFFF DUP3 AND SWAP1 POP SWAP2 SWAP1 POP JUMP JUMPDEST PUSH1 0x0 DUP2 SWAP1 POP SWAP2 SWAP1 POP JUMP JUMPDEST PUSH1 0x0 JUMPDEST DUP4 DUP2 LT ISZERO PUSH3 0x491 JUMPI DUP1 DUP3 ADD MLOAD DUP2 DUP5 ADD MSTORE PUSH1 0x20 DUP2 ADD SWAP1 POP PUSH3 0x474 JUMP JUMPDEST DUP4 DUP2 GT ISZERO PUSH3 0x4A1 JUMPI PUSH1 0x0 DUP5 DUP5 ADD MSTORE JUMPDEST POP POP POP POP JUMP JUMPDEST PUSH1 0x0 PUSH1 0x2 DUP3 DIV SWAP1 POP PUSH1 0x1 DUP3 AND DUP1 PUSH3 0x4C0 JUMPI PUSH1 0x7F DUP3 AND SWAP2 POP JUMPDEST PUSH1 0x20 DUP3 LT DUP2 EQ ISZERO PUSH3 0x4D7 JUMPI PUSH3 0x4D6 PUSH3 0x513 JUMP JUMPDEST JUMPDEST POP SWAP2 SWAP1 POP JUMP JUMPDEST PUSH3 0x4E8 DUP3 PUSH3 0x585 JUMP JUMPDEST DUP2 ADD DUP2 DUP2 LT PUSH8 0xFFFFFFFFFFFFFFFF DUP3 GT OR ISZERO PUSH3 0x50A JUMPI PUSH3 0x509 PUSH3 0x542 JUMP JUMPDEST JUMPDEST DUP1 PUSH1 0x40 MSTORE POP POP POP JUMP JUMPDEST PUSH32 0x4E487B7100000000000000000000000000000000000000000000000000000000 PUSH1 0x0 MSTORE PUSH1 0x22 PUSH1 0x4 MSTORE PUSH1 0x24 PUSH1 0x0 REVERT JUMPDEST PUSH32 0x4E487B7100000000000000000000000000000000000000000000000000000000 PUSH1 0x0 MSTORE PUSH1 0x41 PUSH1 0x4 MSTORE PUSH1 0x24 PUSH1 0x0 REVERT JUMPDEST PUSH1 0x0 DUP1 REVERT JUMPDEST PUSH1 0x0 DUP1 REVERT JUMPDEST PUSH1 0x0 DUP1 REVERT JUMPDEST PUSH1 0x0 DUP1 REVERT JUMPDEST PUSH1 0x0 PUSH1 0x1F NOT PUSH1 0x1F DUP4 ADD AND SWAP1 POP SWAP2 SWAP1 POP JUMP JUMPDEST PUSH3 0x5A1 DUP2 PUSH3 0x433 JUMP JUMPDEST DUP2 EQ PUSH3 0x5AD JUMPI PUSH1 0x0 DUP1 REVERT JUMPDEST POP JUMP JUMPDEST PUSH3 0x5BB DUP2 PUSH3 0x467 JUMP JUMPDEST DUP2 EQ PUSH3 0x5C7 JUMPI PUSH1 0x0 DUP1 REVERT JUMPDEST POP JUMP JUMPDEST PUSH2 0x5EC2 DUP1 PUSH3 0x5DA PUSH1 0x0 CODECOPY PUSH1 0x0 RETURN INVALID PUSH1 0x80 PUSH1 0x40 MSTORE CALLVALUE DUP1 ISZERO PUSH2 0x10 JUMPI PUSH1 0x0 DUP1 REVERT JUMPDEST POP PUSH1 0x4 CALLDATASIZE LT PUSH2 0x2D6 JUMPI PUSH1 0x0 CALLDATALOAD PUSH1 0xE0 SHR DUP1 PUSH4 0x715018A6 GT PUSH2 0x182 JUMPI DUP1 PUSH4 0xC87B56DD GT PUSH2 0xE9 JUMPI DUP1 PUSH4 0xEDD864E5 GT PUSH2 0xA2 JUMPI DUP1 PUSH4 0xF56D504F GT PUSH2 0x7C JUMPI DUP1 PUSH4 0xF56D504F EQ PUSH2 0x8EB JUMPI DUP1 PUSH4 0xF78AE6EF EQ PUSH2 0x91B JUMPI DUP1 PUSH4 0xFB1ACE18 EQ PUSH2 0x937 JUMPI DUP1 PUSH4 0xFB570BBF EQ PUSH2 0x955 JUMPI PUSH2 0x2D6 JUMP JUMPDEST DUP1 PUSH4 0xEDD864E5 EQ PUSH2 0x881 JUMPI DUP1 PUSH4 0xEEBB28B2 EQ PUSH2 0x8B1 JUMPI DUP1 PUSH4 0xF2FDE38B EQ PUSH2 0x8CF JUMPI PUSH2 0x2D6 JUMP JUMPDEST DUP1 PUSH4 0xC87B56DD EQ PUSH2 0x79B JUMPI DUP1 PUSH4 0xCA6567C9 EQ PUSH2 0x7CB JUMPI DUP1 PUSH4 0xD9965572 EQ PUSH2 0x7E9 JUMPI DUP1 PUSH4 0xDC851230 EQ PUSH2 0x805 JUMPI DUP1 PUSH4 0xE985E9C5 EQ PUSH2 0x821 JUMPI DUP1 PUSH4 0xEC4DB283 EQ PUSH2 0x851 JUMPI PUSH2 0x2D6 JUMP JUMPDEST DUP1 PUSH4 0xA0BCFC7F GT PUSH2 0x13B JUMPI DUP1 PUSH4 0xA0BCFC7F EQ PUSH2 0x6F1 JUMPI DUP1 PUSH4 0xA0D1685C EQ PUSH2 0x70D JUMPI DUP1 PUSH4 0xA1448194 EQ PUSH2 0x72B JUMPI DUP1 PUSH4 0xA22CB465 EQ PUSH2 0x747 JUMPI DUP1 PUSH4 0xAC18DE43 EQ PUSH2 0x763 JUMPI DUP1 PUSH4 0xB88D4FDE EQ PUSH2 0x77F JUMPI PUSH2 0x2D6 JUMP JUMPDEST DUP1 PUSH4 0x715018A6 EQ PUSH2 0x657 JUMPI DUP1 PUSH4 0x8DA5CB5B EQ PUSH2 0x661 JUMPI DUP1 PUSH4 0x9034EDB5 EQ PUSH2 0x67F JUMPI DUP1 PUSH4 0x95D89B41 EQ PUSH2 0x69B JUMPI DUP1 PUSH4 0x983B2D56 EQ PUSH2 0x6B9 JUMPI DUP1 PUSH4 0x9C26EB3F EQ PUSH2 0x6D5 JUMPI PUSH2 0x2D6 JUMP JUMPDEST DUP1 PUSH4 0x3092AFD5 GT PUSH2 0x241 JUMPI DUP1 PUSH4 0x4F6CCCE7 GT PUSH2 0x1FA JUMPI DUP1 PUSH4 0x5CA45DD7 GT PUSH2 0x1D4 JUMPI DUP1 PUSH4 0x5CA45DD7 EQ PUSH2 0x5BF JUMPI DUP1 PUSH4 0x5DD2CCB3 EQ PUSH2 0x5DB JUMPI DUP1 PUSH4 0x6352211E EQ PUSH2 0x5F7 JUMPI DUP1 PUSH4 0x70A08231 EQ PUSH2 0x627 JUMPI PUSH2 0x2D6 JUMP JUMPDEST DUP1 PUSH4 0x4F6CCCE7 EQ PUSH2 0x553 JUMPI DUP1 PUSH4 0x51431D4F EQ PUSH2 0x583 JUMPI DUP1 PUSH4 0x5B43BBA1 EQ PUSH2 0x5A1 JUMPI PUSH2 0x2D6 JUMP JUMPDEST DUP1 PUSH4 0x3092AFD5 EQ PUSH2 0x495 JUMPI DUP1 PUSH4 0x324E4410 EQ PUSH2 0x4B1 JUMPI DUP1 PUSH4 0x3E63EB2A EQ PUSH2 0x4E1 JUMPI DUP1 PUSH4 0x42842E0E EQ PUSH2 0x4FF JUMPI DUP1 PUSH4 0x43253955 EQ PUSH2 0x51B JUMPI DUP1 PUSH4 0x449A52F8 EQ PUSH2 0x537 JUMPI PUSH2 0x2D6 JUMP JUMPDEST DUP1 PUSH4 0x1C178087 GT PUSH2 0x293 JUMPI DUP1 PUSH4 0x1C178087 EQ PUSH2 0x3C3 JUMPI DUP1 PUSH4 0x1EE58F97 EQ PUSH2 0x3E1 JUMPI DUP1 PUSH4 0x234D4386 EQ PUSH2 0x411 JUMPI DUP1 PUSH4 0x23B872DD EQ PUSH2 0x42D JUMPI DUP1 PUSH4 0x2D06177A EQ PUSH2 0x449 JUMPI DUP1 PUSH4 0x2F745C59 EQ PUSH2 0x465 JUMPI PUSH2 0x2D6 JUMP JUMPDEST DUP1 PUSH4 0x1FFC9A7 EQ PUSH2 0x2DB JUMPI DUP1 PUSH4 0x52641DA EQ PUSH2 0x30B JUMPI DUP1 PUSH4 0x6FDDE03 EQ PUSH2 0x33B JUMPI DUP1 PUSH4 0x81812FC EQ PUSH2 0x359 JUMPI DUP1 PUSH4 0x95EA7B3 EQ PUSH2 0x389 JUMPI DUP1 PUSH4 0x18160DDD EQ PUSH2 0x3A5 JUMPI JUMPDEST PUSH1 0x0 DUP1 REVERT JUMPDEST PUSH2 0x2F5 PUSH1 0x4 DUP1 CALLDATASIZE SUB DUP2 ADD SWAP1 PUSH2 0x2F0 SWAP2 SWAP1 PUSH2 0x46D1 JUMP JUMPDEST PUSH2 0x985 JUMP JUMPDEST PUSH1 0x40 MLOAD PUSH2 0x302 SWAP2 SWAP1 PUSH2 0x4ED4 JUMP JUMPDEST PUSH1 0x40 MLOAD DUP1 SWAP2 SUB SWAP1 RETURN JUMPDEST PUSH2 0x325 PUSH1 0x4 DUP1 CALLDATASIZE SUB DUP2 ADD SWAP1 PUSH2 0x320 SWAP2 SWAP1 PUSH2 0x4549 JUMP JUMPDEST PUSH2 0x9FF JUMP JUMPDEST PUSH1 0x40 MLOAD PUSH2 0x332 SWAP2 SWAP1 PUSH2 0x4EB2 JUMP JUMPDEST PUSH1 0x40 MLOAD DUP1 SWAP2 SUB SWAP1 RETURN JUMPDEST PUSH2 0x343 PUSH2 0xAD9 JUMP JUMPDEST PUSH1 0x40 MLOAD PUSH2 0x350 SWAP2 SWAP1 PUSH2 0x4F13 JUMP JUMPDEST PUSH1 0x40 MLOAD DUP1 SWAP2 SUB SWAP1 RETURN JUMPDEST PUSH2 0x373 PUSH1 0x4 DUP1 CALLDATASIZE SUB DUP2 ADD SWAP1 PUSH2 0x36E SWAP2 SWAP1 PUSH2 0x4778 JUMP JUMPDEST PUSH2 0xB6B JUMP JUMPDEST PUSH1 0x40 MLOAD PUSH2 0x380 SWAP2 SWAP1 PUSH2 0x4E29 JUMP JUMPDEST PUSH1 0x40 MLOAD DUP1 SWAP2 SUB SWAP1 RETURN JUMPDEST PUSH2 0x3A3 PUSH1 0x4 DUP1 CALLDATASIZE SUB DUP2 ADD SWAP1 PUSH2 0x39E SWAP2 SWAP1 PUSH2 0x4225 JUMP JUMPDEST PUSH2 0xBF0 JUMP JUMPDEST STOP JUMPDEST PUSH2 0x3AD PUSH2 0xCFA JUMP JUMPDEST PUSH1 0x40 MLOAD PUSH2 0x3BA SWAP2 SWAP1 PUSH2 0x5275 JUMP JUMPDEST PUSH1 0x40 MLOAD DUP1 SWAP2 SUB SWAP1 RETURN JUMPDEST PUSH2 0x3CB PUSH2 0xD07 JUMP JUMPDEST PUSH1 0x40 MLOAD PUSH2 0x3D8 SWAP2 SWAP1 PUSH2 0x5275 JUMP JUMPDEST PUSH1 0x40 MLOAD DUP1 SWAP2 SUB SWAP1 RETURN JUMPDEST PUSH2 0x3FB PUSH1 0x4 DUP1 CALLDATASIZE SUB DUP2 ADD SWAP1 PUSH2 0x3F6 SWAP2 SWAP1 PUSH2 0x4778 JUMP JUMPDEST PUSH2 0xD0D JUMP JUMPDEST PUSH1 0x40 MLOAD PUSH2 0x408 SWAP2 SWAP1 PUSH2 0x5275 JUMP JUMPDEST PUSH1 0x40 MLOAD DUP1 SWAP2 SUB SWAP1 RETURN JUMPDEST PUSH2 0x42B PUSH1 0x4 DUP1 CALLDATASIZE SUB DUP2 ADD SWAP1 PUSH2 0x426 SWAP2 SWAP1 PUSH2 0x4150 JUMP JUMPDEST PUSH2 0xD25 JUMP JUMPDEST STOP JUMPDEST PUSH2 0x447 PUSH1 0x4 DUP1 CALLDATASIZE SUB DUP2 ADD SWAP1 PUSH2 0x442 SWAP2 SWAP1 PUSH2 0x407A JUMP JUMPDEST PUSH2 0xDFB JUMP JUMPDEST STOP JUMPDEST PUSH2 0x463 PUSH1 0x4 DUP1 CALLDATASIZE SUB DUP2 ADD SWAP1 PUSH2 0x45E SWAP2 SWAP1 PUSH2 0x400D JUMP JUMPDEST PUSH2 0xE54 JUMP JUMPDEST STOP JUMPDEST PUSH2 0x47F PUSH1 0x4 DUP1 CALLDATASIZE SUB DUP2 ADD SWAP1 PUSH2 0x47A SWAP2 SWAP1 PUSH2 0x4225 JUMP JUMPDEST PUSH2 0xF46 JUMP JUMPDEST PUSH1 0x40 MLOAD PUSH2 0x48C SWAP2 SWAP1 PUSH2 0x5275 JUMP JUMPDEST PUSH1 0x40 MLOAD DUP1 SWAP2 SUB SWAP1 RETURN JUMPDEST PUSH2 0x4AF PUSH1 0x4 DUP1 CALLDATASIZE SUB DUP2 ADD SWAP1 PUSH2 0x4AA SWAP2 SWAP1 PUSH2 0x400D JUMP JUMPDEST PUSH2 0xFEB JUMP JUMPDEST STOP JUMPDEST PUSH2 0x4CB PUSH1 0x4 DUP1 CALLDATASIZE SUB DUP2 ADD SWAP1 PUSH2 0x4C6 SWAP2 SWAP1 PUSH2 0x4778 JUMP JUMPDEST PUSH2 0x10DD JUMP JUMPDEST PUSH1 0x40 MLOAD PUSH2 0x4D8 SWAP2 SWAP1 PUSH2 0x4F13 JUMP JUMPDEST PUSH1 0x40 MLOAD DUP1 SWAP2 SUB SWAP1 RETURN JUMPDEST PUSH2 0x4E9 PUSH2 0x117D JUMP JUMPDEST PUSH1 0x40 MLOAD PUSH2 0x4F6 SWAP2 SWAP1 PUSH2 0x4F13 JUMP JUMPDEST PUSH1 0x40 MLOAD DUP1 SWAP2 SUB SWAP1 RETURN JUMPDEST PUSH2 0x519 PUSH1 0x4 DUP1 CALLDATASIZE SUB DUP2 ADD SWAP1 PUSH2 0x514 SWAP2 SWAP1 PUSH2 0x407A JUMP JUMPDEST PUSH2 0x120B JUMP JUMPDEST STOP JUMPDEST PUSH2 0x535 PUSH1 0x4 DUP1 CALLDATASIZE SUB DUP2 ADD SWAP1 PUSH2 0x530 SWAP2 SWAP1 PUSH2 0x4265 JUMP JUMPDEST PUSH2 0x122B JUMP JUMPDEST STOP JUMPDEST PUSH2 0x551 PUSH1 0x4 DUP1 CALLDATASIZE SUB DUP2 ADD SWAP1 PUSH2 0x54C SWAP2 SWAP1 PUSH2 0x4225 JUMP JUMPDEST PUSH2 0x13FE JUMP JUMPDEST STOP JUMPDEST PUSH2 0x56D PUSH1 0x4 DUP1 CALLDATASIZE SUB DUP2 ADD SWAP1 PUSH2 0x568 SWAP2 SWAP1 PUSH2 0x4778 JUMP JUMPDEST PUSH2 0x1670 JUMP JUMPDEST PUSH1 0x40 MLOAD PUSH2 0x57A SWAP2 SWAP1 PUSH2 0x5275 JUMP JUMPDEST PUSH1 0x40 MLOAD DUP1 SWAP2 SUB SWAP1 RETURN JUMPDEST PUSH2 0x58B PUSH2 0x16E1 JUMP JUMPDEST PUSH1 0x40 MLOAD PUSH2 0x598 SWAP2 SWAP1 PUSH2 0x4E29 JUMP JUMPDEST PUSH1 0x40 MLOAD DUP1 SWAP2 SUB SWAP1 RETURN JUMPDEST PUSH2 0x5A9 PUSH2 0x1707 JUMP JUMPDEST PUSH1 0x40 MLOAD PUSH2 0x5B6 SWAP2 SWAP1 PUSH2 0x5275 JUMP JUMPDEST PUSH1 0x40 MLOAD DUP1 SWAP2 SUB SWAP1 RETURN JUMPDEST PUSH2 0x5D9 PUSH1 0x4 DUP1 CALLDATASIZE SUB DUP2 ADD SWAP1 PUSH2 0x5D4 SWAP2 SWAP1 PUSH2 0x47A5 JUMP JUMPDEST PUSH2 0x1711 JUMP JUMPDEST STOP JUMPDEST PUSH2 0x5F5 PUSH1 0x4 DUP1 CALLDATASIZE SUB DUP2 ADD SWAP1 PUSH2 0x5F0 SWAP2 SWAP1 PUSH2 0x44C8 JUMP JUMPDEST PUSH2 0x17C4 JUMP JUMPDEST STOP JUMPDEST PUSH2 0x611 PUSH1 0x4 DUP1 CALLDATASIZE SUB DUP2 ADD SWAP1 PUSH2 0x60C SWAP2 SWAP1 PUSH2 0x4778 JUMP JUMPDEST PUSH2 0x18CB JUMP JUMPDEST PUSH1 0x40 MLOAD PUSH2 0x61E SWAP2 SWAP1 PUSH2 0x4E29 JUMP JUMPDEST PUSH1 0x40 MLOAD DUP1 SWAP2 SUB SWAP1 RETURN JUMPDEST PUSH2 0x641 PUSH1 0x4 DUP1 CALLDATASIZE SUB DUP2 ADD SWAP1 PUSH2 0x63C SWAP2 SWAP1 PUSH2 0x400D JUMP JUMPDEST PUSH2 0x197D JUMP JUMPDEST PUSH1 0x40 MLOAD PUSH2 0x64E SWAP2 SWAP1 PUSH2 0x5275 JUMP JUMPDEST PUSH1 0x40 MLOAD DUP1 SWAP2 SUB SWAP1 RETURN JUMPDEST PUSH2 0x65F PUSH2 0x1A35 JUMP JUMPDEST STOP JUMPDEST PUSH2 0x669 PUSH2 0x1B8D JUMP JUMPDEST PUSH1 0x40 MLOAD PUSH2 0x676 SWAP2 SWAP1 PUSH2 0x4E29 JUMP JUMPDEST PUSH1 0x40 MLOAD DUP1 SWAP2 SUB SWAP1 RETURN JUMPDEST PUSH2 0x699 PUSH1 0x4 DUP1 CALLDATASIZE SUB DUP2 ADD SWAP1 PUSH2 0x694 SWAP2 SWAP1 PUSH2 0x4346 JUMP JUMPDEST PUSH2 0x1BB7 JUMP JUMPDEST STOP JUMPDEST PUSH2 0x6A3 PUSH2 0x1D45 JUMP JUMPDEST PUSH1 0x40 MLOAD PUSH2 0x6B0 SWAP2 SWAP1 PUSH2 0x4F13 JUMP JUMPDEST PUSH1 0x40 MLOAD DUP1 SWAP2 SUB SWAP1 RETURN JUMPDEST PUSH2 0x6D3 PUSH1 0x4 DUP1 CALLDATASIZE SUB DUP2 ADD SWAP1 PUSH2 0x6CE SWAP2 SWAP1 PUSH2 0x400D JUMP JUMPDEST PUSH2 0x1DD7 JUMP JUMPDEST STOP JUMPDEST PUSH2 0x6EF PUSH1 0x4 DUP1 CALLDATASIZE SUB DUP2 ADD SWAP1 PUSH2 0x6EA SWAP2 SWAP1 PUSH2 0x45A9 JUMP JUMPDEST PUSH2 0x1EC9 JUMP JUMPDEST STOP JUMPDEST PUSH2 0x70B PUSH1 0x4 DUP1 CALLDATASIZE SUB DUP2 ADD SWAP1 PUSH2 0x706 SWAP2 SWAP1 PUSH2 0x472B JUMP JUMPDEST PUSH2 0x203D JUMP JUMPDEST STOP JUMPDEST PUSH2 0x715 PUSH2 0x20EA JUMP JUMPDEST PUSH1 0x40 MLOAD PUSH2 0x722 SWAP2 SWAP1 PUSH2 0x5275 JUMP JUMPDEST PUSH1 0x40 MLOAD DUP1 SWAP2 SUB SWAP1 RETURN JUMPDEST PUSH2 0x745 PUSH1 0x4 DUP1 CALLDATASIZE SUB DUP2 ADD SWAP1 PUSH2 0x740 SWAP2 SWAP1 PUSH2 0x4225 JUMP JUMPDEST PUSH2 0x20F0 JUMP JUMPDEST STOP JUMPDEST PUSH2 0x761 PUSH1 0x4 DUP1 CALLDATASIZE SUB DUP2 ADD SWAP1 PUSH2 0x75C SWAP2 SWAP1 PUSH2 0x41E5 JUMP JUMPDEST PUSH2 0x2275 JUMP JUMPDEST STOP JUMPDEST PUSH2 0x77D PUSH1 0x4 DUP1 CALLDATASIZE SUB DUP2 ADD SWAP1 PUSH2 0x778 SWAP2 SWAP1 PUSH2 0x400D JUMP JUMPDEST PUSH2 0x23E1 JUMP JUMPDEST STOP JUMPDEST PUSH2 0x799 PUSH1 0x4 DUP1 CALLDATASIZE SUB DUP2 ADD SWAP1 PUSH2 0x794 SWAP2 SWAP1 PUSH2 0x40CD JUMP JUMPDEST PUSH2 0x24D3 JUMP JUMPDEST STOP JUMPDEST PUSH2 0x7B5 PUSH1 0x4 DUP1 CALLDATASIZE SUB DUP2 ADD SWAP1 PUSH2 0x7B0 SWAP2 SWAP1 PUSH2 0x4778 JUMP JUMPDEST PUSH2 0x252E JUMP JUMPDEST PUSH1 0x40 MLOAD PUSH2 0x7C2 SWAP2 SWAP1 PUSH2 0x4F13 JUMP JUMPDEST PUSH1 0x40 MLOAD DUP1 SWAP2 SUB SWAP1 RETURN JUMPDEST PUSH2 0x7D3 PUSH2 0x25C7 JUMP JUMPDEST PUSH1 0x40 MLOAD PUSH2 0x7E0 SWAP2 SWAP1 PUSH2 0x5275 JUMP JUMPDEST PUSH1 0x40 MLOAD DUP1 SWAP2 SUB SWAP1 RETURN JUMPDEST PUSH2 0x803 PUSH1 0x4 DUP1 CALLDATASIZE SUB DUP2 ADD SWAP1 PUSH2 0x7FE SWAP2 SWAP1 PUSH2 0x467E JUMP JUMPDEST PUSH2 0x25CD JUMP JUMPDEST STOP JUMPDEST PUSH2 0x81F PUSH1 0x4 DUP1 CALLDATASIZE SUB DUP2 ADD SWAP1 PUSH2 0x81A SWAP2 SWAP1 PUSH2 0x4447 JUMP JUMPDEST PUSH2 0x26ED JUMP JUMPDEST STOP JUMPDEST PUSH2 0x83B PUSH1 0x4 DUP1 CALLDATASIZE SUB DUP2 ADD SWAP1 PUSH2 0x836 SWAP2 SWAP1 PUSH2 0x403A JUMP JUMPDEST PUSH2 0x287F JUMP JUMPDEST PUSH1 0x40 MLOAD PUSH2 0x848 SWAP2 SWAP1 PUSH2 0x4ED4 JUMP JUMPDEST PUSH1 0x40 MLOAD DUP1 SWAP2 SUB SWAP1 RETURN JUMPDEST PUSH2 0x86B PUSH1 0x4 DUP1 CALLDATASIZE SUB DUP2 ADD SWAP1 PUSH2 0x866 SWAP2 SWAP1 PUSH2 0x463E JUMP JUMPDEST PUSH2 0x2913 JUMP JUMPDEST PUSH1 0x40 MLOAD PUSH2 0x878 SWAP2 SWAP1 PUSH2 0x5275 JUMP JUMPDEST PUSH1 0x40 MLOAD DUP1 SWAP2 SUB SWAP1 RETURN JUMPDEST PUSH2 0x89B PUSH1 0x4 DUP1 CALLDATASIZE SUB DUP2 ADD SWAP1 PUSH2 0x896 SWAP2 SWAP1 PUSH2 0x43FA JUMP JUMPDEST PUSH2 0x2942 JUMP JUMPDEST PUSH1 0x40 MLOAD PUSH2 0x8A8 SWAP2 SWAP1 PUSH2 0x4E90 JUMP JUMPDEST PUSH1 0x40 MLOAD DUP1 SWAP2 SUB SWAP1 RETURN JUMPDEST PUSH2 0x8B9 PUSH2 0x2A96 JUMP JUMPDEST PUSH1 0x40 MLOAD PUSH2 0x8C6 SWAP2 SWAP1 PUSH2 0x5275 JUMP JUMPDEST PUSH1 0x40 MLOAD DUP1 SWAP2 SUB SWAP1 RETURN JUMPDEST PUSH2 0x8E9 PUSH1 0x4 DUP1 CALLDATASIZE SUB DUP2 ADD SWAP1 PUSH2 0x8E4 SWAP2 SWAP1 PUSH2 0x400D JUMP JUMPDEST PUSH2 0x2AA0 JUMP JUMPDEST STOP JUMPDEST PUSH2 0x905 PUSH1 0x4 DUP1 CALLDATASIZE SUB DUP2 ADD SWAP1 PUSH2 0x900 SWAP2 SWAP1 PUSH2 0x42C5 JUMP JUMPDEST PUSH2 0x2C67 JUMP JUMPDEST PUSH1 0x40 MLOAD PUSH2 0x912 SWAP2 SWAP1 PUSH2 0x4EB2 JUMP JUMPDEST PUSH1 0x40 MLOAD DUP1 SWAP2 SUB SWAP1 RETURN JUMPDEST PUSH2 0x935 PUSH1 0x4 DUP1 CALLDATASIZE SUB DUP2 ADD SWAP1 PUSH2 0x930 SWAP2 SWAP1 PUSH2 0x4778 JUMP JUMPDEST PUSH2 0x2D5B JUMP JUMPDEST STOP JUMPDEST PUSH2 0x93F PUSH2 0x2E40 JUMP JUMPDEST PUSH1 0x40 MLOAD PUSH2 0x94C SWAP2 SWAP1 PUSH2 0x5275 JUMP JUMPDEST PUSH1 0x40 MLOAD DUP1 SWAP2 SUB SWAP1 RETURN JUMPDEST PUSH2 0x96F PUSH1 0x4 DUP1 CALLDATASIZE SUB DUP2 ADD SWAP1 PUSH2 0x96A SWAP2 SWAP1 PUSH2 0x400D JUMP JUMPDEST PUSH2 0x2E46 JUMP JUMPDEST PUSH1 0x40 MLOAD PUSH2 0x97C SWAP2 SWAP1 PUSH2 0x4EB2 JUMP JUMPDEST PUSH1 0x40 MLOAD DUP1 SWAP2 SUB SWAP1 RETURN JUMPDEST PUSH1 0x0 PUSH32 0x780E9D6300000000000000000000000000000000000000000000000000000000 PUSH28 0xFFFFFFFFFFFFFFFFFFFFFFFFFFFFFFFFFFFFFFFFFFFFFFFFFFFFFFFF NOT AND DUP3 PUSH28 0xFFFFFFFFFFFFFFFFFFFFFFFFFFFFFFFFFFFFFFFFFFFFFFFFFFFFFFFF NOT AND EQ DUP1 PUSH2 0x9F8 JUMPI POP PUSH2 0x9F7 DUP3 PUSH2 0x2F39 JUMP JUMPDEST JUMPDEST SWAP1 POP SWAP2 SWAP1 POP JUMP JUMPDEST PUSH1 0x60 PUSH1 0x0 DUP4 DUP4 SWAP1 POP PUSH8 0xFFFFFFFFFFFFFFFF DUP2 GT ISZERO PUSH2 0xA20 JUMPI PUSH2 0xA1F PUSH2 0x56D6 JUMP JUMPDEST JUMPDEST PUSH1 0x40 MLOAD SWAP1 DUP1 DUP3 MSTORE DUP1 PUSH1 0x20 MUL PUSH1 0x20 ADD DUP3 ADD PUSH1 0x40 MSTORE DUP1 ISZERO PUSH2 0xA4E JUMPI DUP2 PUSH1 0x20 ADD PUSH1 0x20 DUP3 MUL DUP1 CALLDATASIZE DUP4 CALLDATACOPY DUP1 DUP3 ADD SWAP2 POP POP SWAP1 POP JUMPDEST POP SWAP1 POP PUSH1 0x0 JUMPDEST DUP5 DUP5 SWAP1 POP DUP2 LT ISZERO PUSH2 0xACD JUMPI PUSH1 0x15 PUSH1 0x0 DUP7 DUP7 DUP5 DUP2 DUP2 LT PUSH2 0xA76 JUMPI PUSH2 0xA75 PUSH2 0x56A7 JUMP JUMPDEST JUMPDEST SWAP1 POP PUSH1 0x20 MUL ADD CALLDATALOAD DUP2 MSTORE PUSH1 0x20 ADD SWAP1 DUP2 MSTORE PUSH1 0x20 ADD PUSH1 0x0 KECCAK256 PUSH1 0x0 DUP8 DUP2 MSTORE PUSH1 0x20 ADD SWAP1 DUP2 MSTORE PUSH1 0x20 ADD PUSH1 0x0 KECCAK256 SLOAD DUP3 DUP3 DUP2 MLOAD DUP2 LT PUSH2 0xAB0 JUMPI PUSH2 0xAAF PUSH2 0x56A7 JUMP JUMPDEST JUMPDEST PUSH1 0x20 MUL PUSH1 0x20 ADD ADD DUP2 DUP2 MSTORE POP POP DUP1 PUSH2 0xAC6 SWAP1 PUSH2 0x55D1 JUMP JUMPDEST SWAP1 POP PUSH2 0xA54 JUMP JUMPDEST POP DUP1 SWAP2 POP POP SWAP4 SWAP3 POP POP POP JUMP JUMPDEST PUSH1 0x60 PUSH1 0x0 DUP1 SLOAD PUSH2 0xAE8 SWAP1 PUSH2 0x556E JUMP JUMPDEST DUP1 PUSH1 0x1F ADD PUSH1 0x20 DUP1 SWAP2 DIV MUL PUSH1 0x20 ADD PUSH1 0x40 MLOAD SWAP1 DUP2 ADD PUSH1 0x40 MSTORE DUP1 SWAP3 SWAP2 SWAP1 DUP2 DUP2 MSTORE PUSH1 0x20 ADD DUP3 DUP1 SLOAD PUSH2 0xB14 SWAP1 PUSH2 0x556E JUMP JUMPDEST DUP1 ISZERO PUSH2 0xB61 JUMPI DUP1 PUSH1 0x1F LT PUSH2 0xB36 JUMPI PUSH2 0x100 DUP1 DUP4 SLOAD DIV MUL DUP4 MSTORE SWAP2 PUSH1 0x20 ADD SWAP2 PUSH2 0xB61 JUMP JUMPDEST DUP3 ADD SWAP2 SWAP1 PUSH1 0x0 MSTORE PUSH1 0x20 PUSH1 0x0 KECCAK256 SWAP1 JUMPDEST DUP2 SLOAD DUP2 MSTORE SWAP1 PUSH1 0x1 ADD SWAP1 PUSH1 0x20 ADD DUP1 DUP4 GT PUSH2 0xB44 JUMPI DUP3 SWAP1 SUB PUSH1 0x1F AND DUP3 ADD SWAP2 JUMPDEST POP POP POP POP POP SWAP1 POP SWAP1 JUMP JUMPDEST PUSH1 0x0 PUSH2 0xB76 DUP3 PUSH2 0x301B JUMP JUMPDEST PUSH2 0xBB5 JUMPI PUSH1 0x40 MLOAD PUSH32 0x8C379A000000000000000000000000000000000000000000000000000000000 DUP2 MSTORE PUSH1 0x4 ADD PUSH2 0xBAC SWAP1 PUSH2 0x5115 JUMP JUMPDEST PUSH1 0x40 MLOAD DUP1 SWAP2 SUB SWAP1 REVERT JUMPDEST PUSH1 0x4 PUSH1 0x0 DUP4 DUP2 MSTORE PUSH1 0x20 ADD SWAP1 DUP2 MSTORE PUSH1 0x20 ADD PUSH1 0x0 KECCAK256 PUSH1 0x0 SWAP1 SLOAD SWAP1 PUSH2 0x100 EXP SWAP1 DIV PUSH20 0xFFFFFFFFFFFFFFFFFFFFFFFFFFFFFFFFFFFFFFFF AND SWAP1 POP SWAP2 SWAP1 POP JUMP JUMPDEST PUSH1 0x0 PUSH2 0xBFB DUP3 PUSH2 0x18CB JUMP JUMPDEST SWAP1 POP DUP1 PUSH20 0xFFFFFFFFFFFFFFFFFFFFFFFFFFFFFFFFFFFFFFFF AND DUP4 PUSH20 0xFFFFFFFFFFFFFFFFFFFFFFFFFFFFFFFFFFFFFFFF AND EQ ISZERO PUSH2 0xC6C JUMPI PUSH1 0x40 MLOAD PUSH32 0x8C379A000000000000000000000000000000000000000000000000000000000 DUP2 MSTORE PUSH1 0x4 ADD PUSH2 0xC63 SWAP1 PUSH2 0x51D5 JUMP JUMPDEST PUSH1 0x40 MLOAD DUP1 SWAP2 SUB SWAP1 REVERT JUMPDEST DUP1 PUSH20 0xFFFFFFFFFFFFFFFFFFFFFFFFFFFFFFFFFFFFFFFF AND CALLER PUSH20 0xFFFFFFFFFFFFFFFFFFFFFFFFFFFFFFFFFFFFFFFF AND EQ DUP1 PUSH2 0xCAC JUMPI POP PUSH2 0xCAB DUP2 CALLER PUSH2 0x287F JUMP JUMPDEST JUMPDEST PUSH2 0xCEB JUMPI PUSH1 0x40 MLOAD PUSH32 0x8C379A000000000000000000000000000000000000000000000000000000000 DUP2 MSTORE PUSH1 0x4 ADD PUSH2 0xCE2 SWAP1 PUSH2 0x5055 JUMP JUMPDEST PUSH1 0x40 MLOAD DUP1 SWAP2 SUB SWAP1 REVERT JUMPDEST PUSH2 0xCF5 DUP4 DUP4 PUSH2 0x3087 JUMP JUMPDEST POP POP POP JUMP JUMPDEST PUSH1 0x0 PUSH1 0x8 DUP1 SLOAD SWAP1 POP SWAP1 POP SWAP1 JUMP JUMPDEST PUSH1 0x10 SLOAD DUP2 JUMP JUMPDEST PUSH1 0x14 PUSH1 0x20 MSTORE DUP1 PUSH1 0x0 MSTORE PUSH1 0x40 PUSH1 0x0 KECCAK256 PUSH1 0x0 SWAP2 POP SWAP1 POP SLOAD DUP2 JUMP JUMPDEST DUP2 DUP2 SWAP1 POP DUP5 DUP5 SWAP1 POP EQ PUSH2 0xD6D JUMPI PUSH1 0x40 MLOAD PUSH32 0x8C379A000000000000000000000000000000000000000000000000000000000 DUP2 MSTORE PUSH1 0x4 ADD PUSH2 0xD64 SWAP1 PUSH2 0x4FD5 JUMP JUMPDEST PUSH1 0x40 MLOAD DUP1 SWAP2 SUB SWAP1 REVERT JUMPDEST PUSH1 0x0 JUMPDEST DUP5 DUP5 SWAP1 POP DUP2 LT ISZERO PUSH2 0xDF3 JUMPI PUSH1 0x0 DUP6 DUP6 DUP4 DUP2 DUP2 LT PUSH2 0xD90 JUMPI PUSH2 0xD8F PUSH2 0x56A7 JUMP JUMPDEST JUMPDEST SWAP1 POP PUSH1 0x20 MUL ADD PUSH1 0x20 DUP2 ADD SWAP1 PUSH2 0xDA5 SWAP2 SWAP1 PUSH2 0x400D JUMP JUMPDEST SWAP1 POP PUSH1 0x0 DUP5 DUP5 DUP5 DUP2 DUP2 LT PUSH2 0xDBC JUMPI PUSH2 0xDBB PUSH2 0x56A7 JUMP JUMPDEST JUMPDEST SWAP1 POP PUSH1 0x20 MUL ADD CALLDATALOAD SWAP1 POP PUSH2 0xDE0 DUP9 DUP4 DUP4 PUSH1 0x40 MLOAD DUP1 PUSH1 0x20 ADD PUSH1 0x40 MSTORE DUP1 PUSH1 0x0 DUP2 MSTORE POP PUSH2 0x24D3 JUMP JUMPDEST POP POP DUP1 PUSH2 0xDEC SWAP1 PUSH2 0x55D1 JUMP JUMPDEST SWAP1 POP PUSH2 0xD70 JUMP JUMPDEST POP POP POP POP POP POP JUMP JUMPDEST PUSH2 0xE05 CALLER DUP3 PUSH2 0x3140 JUMP JUMPDEST PUSH2 0xE44 JUMPI PUSH1 0x40 MLOAD PUSH32 0x8C379A000000000000000000000000000000000000000000000000000000000 DUP2 MSTORE PUSH1 0x4 ADD PUSH2 0xE3B SWAP1 PUSH2 0x51F5 JUMP JUMPDEST PUSH1 0x40 MLOAD DUP1 SWAP2 SUB SWAP1 REVERT JUMPDEST PUSH2 0xE4F DUP4 DUP4 DUP4 PUSH2 0x321E JUMP JUMPDEST POP POP POP JUMP JUMPDEST PUSH2 0xE5C PUSH2 0x347A JUMP JUMPDEST PUSH20 0xFFFFFFFFFFFFFFFFFFFFFFFFFFFFFFFFFFFFFFFF AND PUSH1 0xA PUSH1 0x0 SWAP1 SLOAD SWAP1 PUSH2 0x100 EXP SWAP1 DIV PUSH20 0xFFFFFFFFFFFFFFFFFFFFFFFFFFFFFFFFFFFFFFFF AND PUSH20 0xFFFFFFFFFFFFFFFFFFFFFFFFFFFFFFFFFFFFFFFF AND EQ PUSH2 0xEEB JUMPI PUSH1 0x40 MLOAD PUSH32 0x8C379A000000000000000000000000000000000000000000000000000000000 DUP2 MSTORE PUSH1 0x4 ADD PUSH2 0xEE2 SWAP1 PUSH2 0x5155 JUMP JUMPDEST PUSH1 0x40 MLOAD DUP1 SWAP2 SUB SWAP1 REVERT JUMPDEST PUSH1 0x1 PUSH1 0xB PUSH1 0x0 DUP4 PUSH20 0xFFFFFFFFFFFFFFFFFFFFFFFFFFFFFFFFFFFFFFFF AND PUSH20 0xFFFFFFFFFFFFFFFFFFFFFFFFFFFFFFFFFFFFFFFF AND DUP2 MSTORE PUSH1 0x20 ADD SWAP1 DUP2 MSTORE PUSH1 0x20 ADD PUSH1 0x0 KECCAK256 PUSH1 0x0 PUSH2 0x100 EXP DUP2 SLOAD DUP2 PUSH1 0xFF MUL NOT AND SWAP1 DUP4 ISZERO ISZERO MUL OR SWAP1 SSTORE POP POP JUMP JUMPDEST PUSH1 0x0 PUSH2 0xF51 DUP4 PUSH2 0x197D JUMP JUMPDEST DUP3 LT PUSH2 0xF92 JUMPI PUSH1 0x40 MLOAD PUSH32 0x8C379A000000000000000000000000000000000000000000000000000000000 DUP2 MSTORE PUSH1 0x4 ADD PUSH2 0xF89 SWAP1 PUSH2 0x4F55 JUMP JUMPDEST PUSH1 0x40 MLOAD DUP1 SWAP2 SUB SWAP1 REVERT JUMPDEST PUSH1 0x6 PUSH1 0x0 DUP5 PUSH20 0xFFFFFFFFFFFFFFFFFFFFFFFFFFFFFFFFFFFFFFFF AND PUSH20 0xFFFFFFFFFFFFFFFFFFFFFFFFFFFFFFFFFFFFFFFF AND DUP2 MSTORE PUSH1 0x20 ADD SWAP1 DUP2 MSTORE PUSH1 0x20 ADD PUSH1 0x0 KECCAK256 PUSH1 0x0 DUP4 DUP2 MSTORE PUSH1 0x20 ADD SWAP1 DUP2 MSTORE PUSH1 0x20 ADD PUSH1 0x0 KECCAK256 SLOAD SWAP1 POP SWAP3 SWAP2 POP POP JUMP JUMPDEST PUSH2 0xFF3 PUSH2 0x347A JUMP JUMPDEST PUSH20 0xFFFFFFFFFFFFFFFFFFFFFFFFFFFFFFFFFFFFFFFF AND PUSH1 0xA PUSH1 0x0 SWAP1 SLOAD SWAP1 PUSH2 0x100 EXP SWAP1 DIV PUSH20 0xFFFFFFFFFFFFFFFFFFFFFFFFFFFFFFFFFFFFFFFF AND PUSH20 0xFFFFFFFFFFFFFFFFFFFFFFFFFFFFFFFFFFFFFFFF AND EQ PUSH2 0x1082 JUMPI PUSH1 0x40 MLOAD PUSH32 0x8C379A000000000000000000000000000000000000000000000000000000000 DUP2 MSTORE PUSH1 0x4 ADD PUSH2 0x1079 SWAP1 PUSH2 0x5155 JUMP JUMPDEST PUSH1 0x40 MLOAD DUP1 SWAP2 SUB SWAP1 REVERT JUMPDEST PUSH1 0x0 PUSH1 0xC PUSH1 0x0 DUP4 PUSH20 0xFFFFFFFFFFFFFFFFFFFFFFFFFFFFFFFFFFFFFFFF AND PUSH20 0xFFFFFFFFFFFFFFFFFFFFFFFFFFFFFFFFFFFFFFFF AND DUP2 MSTORE PUSH1 0x20 ADD SWAP1 DUP2 MSTORE PUSH1 0x20 ADD PUSH1 0x0 KECCAK256 PUSH1 0x0 PUSH2 0x100 EXP DUP2 SLOAD DUP2 PUSH1 0xFF MUL NOT AND SWAP1 DUP4 ISZERO ISZERO MUL OR SWAP1 SSTORE POP POP JUMP JUMPDEST PUSH1 0x13 PUSH1 0x20 MSTORE DUP1 PUSH1 0x0 MSTORE PUSH1 0x40 PUSH1 0x0 KECCAK256 PUSH1 0x0 SWAP2 POP SWAP1 POP DUP1 SLOAD PUSH2 0x10FC SWAP1 PUSH2 0x556E JUMP JUMPDEST DUP1 PUSH1 0x1F ADD PUSH1 0x20 DUP1 SWAP2 DIV MUL PUSH1 0x20 ADD PUSH1 0x40 MLOAD SWAP1 DUP2 ADD PUSH1 0x40 MSTORE DUP1 SWAP3 SWAP2 SWAP1 DUP2 DUP2 MSTORE PUSH1 0x20 ADD DUP3 DUP1 SLOAD PUSH2 0x1128 SWAP1 PUSH2 0x556E JUMP JUMPDEST DUP1 ISZERO PUSH2 0x1175 JUMPI DUP1 PUSH1 0x1F LT PUSH2 0x114A JUMPI PUSH2 0x100 DUP1 DUP4 SLOAD DIV MUL DUP4 MSTORE SWAP2 PUSH1 0x20 ADD SWAP2 PUSH2 0x1175 JUMP JUMPDEST DUP3 ADD SWAP2 SWAP1 PUSH1 0x0 MSTORE PUSH1 0x20 PUSH1 0x0 KECCAK256 SWAP1 JUMPDEST DUP2 SLOAD DUP2 MSTORE SWAP1 PUSH1 0x1 ADD SWAP1 PUSH1 0x20 ADD DUP1 DUP4 GT PUSH2 0x1158 JUMPI DUP3 SWAP1 SUB PUSH1 0x1F AND DUP3 ADD SWAP2 JUMPDEST POP POP POP POP POP DUP2 JUMP JUMPDEST PUSH1 0x12 DUP1 SLOAD PUSH2 0x118A SWAP1 PUSH2 0x556E JUMP JUMPDEST DUP1 PUSH1 0x1F ADD PUSH1 0x20 DUP1 SWAP2 DIV MUL PUSH1 0x20 ADD PUSH1 0x40 MLOAD SWAP1 DUP2 ADD PUSH1 0x40 MSTORE DUP1 SWAP3 SWAP2 SWAP1 DUP2 DUP2 MSTORE PUSH1 0x20 ADD DUP3 DUP1 SLOAD PUSH2 0x11B6 SWAP1 PUSH2 0x556E JUMP JUMPDEST DUP1 ISZERO PUSH2 0x1203 JUMPI DUP1 PUSH1 0x1F LT PUSH2 0x11D8 JUMPI PUSH2 0x100 DUP1 DUP4 SLOAD DIV MUL DUP4 MSTORE SWAP2 PUSH1 0x20 ADD SWAP2 PUSH2 0x1203 JUMP JUMPDEST DUP3 ADD SWAP2 SWAP1 PUSH1 0x0 MSTORE PUSH1 0x20 PUSH1 0x0 KECCAK256 SWAP1 JUMPDEST DUP2 SLOAD DUP2 MSTORE SWAP1 PUSH1 0x1 ADD SWAP1 PUSH1 0x20 ADD DUP1 DUP4 GT PUSH2 0x11E6 JUMPI DUP3 SWAP1 SUB PUSH1 0x1F AND DUP3 ADD SWAP2 JUMPDEST POP POP POP POP POP DUP2 JUMP JUMPDEST PUSH2 0x1226 DUP4 DUP4 DUP4 PUSH1 0x40 MLOAD DUP1 PUSH1 0x20 ADD PUSH1 0x40 MSTORE DUP1 PUSH1 0x0 DUP2 MSTORE POP PUSH2 0x24D3 JUMP JUMPDEST POP POP POP JUMP JUMPDEST PUSH2 0x1233 PUSH2 0x347A JUMP JUMPDEST PUSH20 0xFFFFFFFFFFFFFFFFFFFFFFFFFFFFFFFFFFFFFFFF AND PUSH1 0xA PUSH1 0x0 SWAP1 SLOAD SWAP1 PUSH2 0x100 EXP SWAP1 DIV PUSH20 0xFFFFFFFFFFFFFFFFFFFFFFFFFFFFFFFFFFFFFFFF AND PUSH20 0xFFFFFFFFFFFFFFFFFFFFFFFFFFFFFFFFFFFFFFFF AND EQ DUP1 PUSH2 0x12DE JUMPI POP PUSH1 0xC PUSH1 0x0 PUSH2 0x1295 PUSH2 0x347A JUMP JUMPDEST PUSH20 0xFFFFFFFFFFFFFFFFFFFFFFFFFFFFFFFFFFFFFFFF AND PUSH20 0xFFFFFFFFFFFFFFFFFFFFFFFFFFFFFFFFFFFFFFFF AND DUP2 MSTORE PUSH1 0x20 ADD SWAP1 DUP2 MSTORE PUSH1 0x20 ADD PUSH1 0x0 KECCAK256 PUSH1 0x0 SWAP1 SLOAD SWAP1 PUSH2 0x100 EXP SWAP1 DIV PUSH1 0xFF AND JUMPDEST PUSH2 0x131D JUMPI PUSH1 0x40 MLOAD PUSH32 0x8C379A000000000000000000000000000000000000000000000000000000000 DUP2 MSTORE PUSH1 0x4 ADD PUSH2 0x1314 SWAP1 PUSH2 0x5255 JUMP JUMPDEST PUSH1 0x40 MLOAD DUP1 SWAP2 SUB SWAP1 REVERT JUMPDEST PUSH1 0x0 JUMPDEST DUP4 DUP4 SWAP1 POP DUP2 LT ISZERO PUSH2 0x13F8 JUMPI PUSH1 0x0 DUP5 DUP5 DUP4 DUP2 DUP2 LT PUSH2 0x1340 JUMPI PUSH2 0x133F PUSH2 0x56A7 JUMP JUMPDEST JUMPDEST SWAP1 POP PUSH1 0x20 MUL ADD PUSH1 0x20 DUP2 ADD SWAP1 PUSH2 0x1355 SWAP2 SWAP1 PUSH2 0x400D JUMP JUMPDEST SWAP1 POP PUSH1 0x0 PUSH2 0x1363 DUP3 DUP6 PUSH2 0x3482 JUMP JUMPDEST SWAP1 POP PUSH2 0x1384 DUP3 PUSH20 0xFFFFFFFFFFFFFFFFFFFFFFFFFFFFFFFFFFFFFFFF AND PUSH2 0x3649 JUMP JUMPDEST ISZERO PUSH2 0x13E5 JUMPI PUSH2 0x13A5 PUSH1 0x0 DUP4 DUP4 PUSH1 0x40 MLOAD DUP1 PUSH1 0x20 ADD PUSH1 0x40 MSTORE DUP1 PUSH1 0x0 DUP2 MSTORE POP PUSH2 0x365C JUMP JUMPDEST PUSH2 0x13E4 JUMPI PUSH1 0x40 MLOAD PUSH32 0x8C379A000000000000000000000000000000000000000000000000000000000 DUP2 MSTORE PUSH1 0x4 ADD PUSH2 0x13DB SWAP1 PUSH2 0x4F75 JUMP JUMPDEST PUSH1 0x40 MLOAD DUP1 SWAP2 SUB SWAP1 REVERT JUMPDEST JUMPDEST POP POP DUP1 PUSH2 0x13F1 SWAP1 PUSH2 0x55D1 JUMP JUMPDEST SWAP1 POP PUSH2 0x1320 JUMP JUMPDEST POP POP POP POP JUMP JUMPDEST PUSH1 0x0 PUSH20 0xFFFFFFFFFFFFFFFFFFFFFFFFFFFFFFFFFFFFFFFF AND PUSH1 0x11 PUSH1 0x0 SWAP1 SLOAD SWAP1 PUSH2 0x100 EXP SWAP1 DIV PUSH20 0xFFFFFFFFFFFFFFFFFFFFFFFFFFFFFFFFFFFFFFFF AND PUSH20 0xFFFFFFFFFFFFFFFFFFFFFFFFFFFFFFFFFFFFFFFF AND EQ ISZERO PUSH2 0x1490 JUMPI PUSH1 0x40 MLOAD PUSH32 0x8C379A000000000000000000000000000000000000000000000000000000000 DUP2 MSTORE PUSH1 0x4 ADD PUSH2 0x1487 SWAP1 PUSH2 0x4F35 JUMP JUMPDEST PUSH1 0x40 MLOAD DUP1 SWAP2 SUB SWAP1 REVERT JUMPDEST PUSH1 0x11 PUSH1 0x0 SWAP1 SLOAD SWAP1 PUSH2 0x100 EXP SWAP1 DIV PUSH20 0xFFFFFFFFFFFFFFFFFFFFFFFFFFFFFFFFFFFFFFFF AND PUSH20 0xFFFFFFFFFFFFFFFFFFFFFFFFFFFFFFFFFFFFFFFF AND CALLER PUSH20 0xFFFFFFFFFFFFFFFFFFFFFFFFFFFFFFFFFFFFFFFF AND EQ PUSH2 0x1520 JUMPI PUSH1 0x40 MLOAD PUSH32 0x8C379A000000000000000000000000000000000000000000000000000000000 DUP2 MSTORE PUSH1 0x4 ADD PUSH2 0x1517 SWAP1 PUSH2 0x51B5 JUMP JUMPDEST PUSH1 0x40 MLOAD DUP1 SWAP2 SUB SWAP1 REVERT JUMPDEST PUSH1 0x0 PUSH20 0xFFFFFFFFFFFFFFFFFFFFFFFFFFFFFFFFFFFFFFFF AND DUP3 PUSH20 0xFFFFFFFFFFFFFFFFFFFFFFFFFFFFFFFFFFFFFFFF AND EQ ISZERO PUSH2 0x1590 JUMPI PUSH1 0x40 MLOAD PUSH32 0x8C379A000000000000000000000000000000000000000000000000000000000 DUP2 MSTORE PUSH1 0x4 ADD PUSH2 0x1587 SWAP1 PUSH2 0x5135 JUMP JUMPDEST PUSH1 0x40 MLOAD DUP1 SWAP2 SUB SWAP1 REVERT JUMPDEST PUSH1 0x0 DUP2 GT PUSH2 0x15D3 JUMPI PUSH1 0x40 MLOAD PUSH32 0x8C379A000000000000000000000000000000000000000000000000000000000 DUP2 MSTORE PUSH1 0x4 ADD PUSH2 0x15CA SWAP1 PUSH2 0x5015 JUMP JUMPDEST PUSH1 0x40 MLOAD DUP1 SWAP2 SUB SWAP1 REVERT JUMPDEST PUSH1 0xD SLOAD DUP2 PUSH1 0xE SLOAD PUSH2 0x15E4 SWAP2 SWAP1 PUSH2 0x5424 JUMP JUMPDEST GT ISZERO PUSH2 0x1625 JUMPI PUSH1 0x40 MLOAD PUSH32 0x8C379A000000000000000000000000000000000000000000000000000000000 DUP2 MSTORE PUSH1 0x4 ADD PUSH2 0x161C SWAP1 PUSH2 0x50D5 JUMP JUMPDEST PUSH1 0x40 MLOAD DUP1 SWAP2 SUB SWAP1 REVERT JUMPDEST PUSH1 0x0 PUSH1 0x1 SWAP1 POP JUMPDEST DUP2 DUP2 GT PUSH2 0x166B JUMPI PUSH2 0x163F DUP4 PUSH1 0xF SLOAD PUSH2 0x3482 JUMP JUMPDEST POP PUSH1 0xE PUSH1 0x0 DUP2 SLOAD DUP1 SWAP3 SWAP2 SWAP1 PUSH2 0x1653 SWAP1 PUSH2 0x55D1 JUMP JUMPDEST SWAP2 SWAP1 POP SSTORE POP DUP1 DUP1 PUSH2 0x1663 SWAP1 PUSH2 0x55D1 JUMP JUMPDEST SWAP2 POP POP PUSH2 0x162C JUMP JUMPDEST POP POP POP JUMP JUMPDEST PUSH1 0x0 PUSH2 0x167A PUSH2 0xCFA JUMP JUMPDEST DUP3 LT PUSH2 0x16BB JUMPI PUSH1 0x40 MLOAD PUSH32 0x8C379A000000000000000000000000000000000000000000000000000000000 DUP2 MSTORE PUSH1 0x4 ADD PUSH2 0x16B2 SWAP1 PUSH2 0x5215 JUMP JUMPDEST PUSH1 0x40 MLOAD DUP1 SWAP2 SUB SWAP1 REVERT JUMPDEST PUSH1 0x8 DUP3 DUP2 SLOAD DUP2 LT PUSH2 0x16CF JUMPI PUSH2 0x16CE PUSH2 0x56A7 JUMP JUMPDEST JUMPDEST SWAP1 PUSH1 0x0 MSTORE PUSH1 0x20 PUSH1 0x0 KECCAK256 ADD SLOAD SWAP1 POP SWAP2 SWAP1 POP JUMP JUMPDEST PUSH1 0x11 PUSH1 0x0 SWAP1 SLOAD SWAP1 PUSH2 0x100 EXP SWAP1 DIV PUSH20 0xFFFFFFFFFFFFFFFFFFFFFFFFFFFFFFFFFFFFFFFF AND DUP2 JUMP JUMPDEST PUSH1 0x0 PUSH1 0xD SLOAD SWAP1 POP SWAP1 JUMP JUMPDEST PUSH2 0x1719 PUSH2 0x347A JUMP JUMPDEST PUSH20 0xFFFFFFFFFFFFFFFFFFFFFFFFFFFFFFFFFFFFFFFF AND PUSH1 0xA PUSH1 0x0 SWAP1 SLOAD SWAP1 PUSH2 0x100 EXP SWAP1 DIV PUSH20 0xFFFFFFFFFFFFFFFFFFFFFFFFFFFFFFFFFFFFFFFF AND PUSH20 0xFFFFFFFFFFFFFFFFFFFFFFFFFFFFFFFFFFFFFFFF AND EQ PUSH2 0x17A8 JUMPI PUSH1 0x40 MLOAD PUSH32 0x8C379A000000000000000000000000000000000000000000000000000000000 DUP2 MSTORE PUSH1 0x4 ADD PUSH2 0x179F SWAP1 PUSH2 0x5155 JUMP JUMPDEST PUSH1 0x40 MLOAD DUP1 SWAP2 SUB SWAP1 REVERT JUMPDEST DUP1 PUSH1 0x14 PUSH1 0x0 DUP5 DUP2 MSTORE PUSH1 0x20 ADD SWAP1 DUP2 MSTORE PUSH1 0x20 ADD PUSH1 0x0 KECCAK256 DUP2 SWAP1 SSTORE POP POP POP JUMP JUMPDEST PUSH2 0x17CC PUSH2 0x347A JUMP JUMPDEST PUSH20 0xFFFFFFFFFFFFFFFFFFFFFFFFFFFFFFFFFFFFFFFF AND PUSH1 0xA PUSH1 0x0 SWAP1 SLOAD SWAP1 PUSH2 0x100 EXP SWAP1 DIV PUSH20 0xFFFFFFFFFFFFFFFFFFFFFFFFFFFFFFFFFFFFFFFF AND PUSH20 0xFFFFFFFFFFFFFFFFFFFFFFFFFFFFFFFFFFFFFFFF AND EQ PUSH2 0x185B JUMPI PUSH1 0x40 MLOAD PUSH32 0x8C379A000000000000000000000000000000000000000000000000000000000 DUP2 MSTORE PUSH1 0x4 ADD PUSH2 0x1852 SWAP1 PUSH2 0x5155 JUMP JUMPDEST PUSH1 0x40 MLOAD DUP1 SWAP2 SUB SWAP1 REVERT JUMPDEST PUSH1 0x0 JUMPDEST DUP3 DUP3 SWAP1 POP DUP2 LT ISZERO PUSH2 0x18C4 JUMPI DUP3 DUP3 DUP3 DUP2 DUP2 LT PUSH2 0x187C JUMPI PUSH2 0x187B PUSH2 0x56A7 JUMP JUMPDEST JUMPDEST SWAP1 POP PUSH1 0x20 MUL ADD CALLDATALOAD PUSH1 0x14 PUSH1 0x0 DUP8 DUP8 DUP6 DUP2 DUP2 LT PUSH2 0x189A JUMPI PUSH2 0x1899 PUSH2 0x56A7 JUMP JUMPDEST JUMPDEST SWAP1 POP PUSH1 0x20 MUL ADD CALLDATALOAD DUP2 MSTORE PUSH1 0x20 ADD SWAP1 DUP2 MSTORE PUSH1 0x20 ADD PUSH1 0x0 KECCAK256 DUP2 SWAP1 SSTORE POP DUP1 PUSH2 0x18BD SWAP1 PUSH2 0x55D1 JUMP JUMPDEST SWAP1 POP PUSH2 0x185E JUMP JUMPDEST POP POP POP POP POP JUMP JUMPDEST PUSH1 0x0 DUP1 PUSH1 0x2 PUSH1 0x0 DUP5 DUP2 MSTORE PUSH1 0x20 ADD SWAP1 DUP2 MSTORE PUSH1 0x20 ADD PUSH1 0x0 KECCAK256 PUSH1 0x0 SWAP1 SLOAD SWAP1 PUSH2 0x100 EXP SWAP1 DIV PUSH20 0xFFFFFFFFFFFFFFFFFFFFFFFFFFFFFFFFFFFFFFFF AND SWAP1 POP PUSH1 0x0 PUSH20 0xFFFFFFFFFFFFFFFFFFFFFFFFFFFFFFFFFFFFFFFF AND DUP2 PUSH20 0xFFFFFFFFFFFFFFFFFFFFFFFFFFFFFFFFFFFFFFFF AND EQ ISZERO PUSH2 0x1974 JUMPI PUSH1 0x40 MLOAD PUSH32 0x8C379A000000000000000000000000000000000000000000000000000000000 DUP2 MSTORE PUSH1 0x4 ADD PUSH2 0x196B SWAP1 PUSH2 0x5095 JUMP JUMPDEST PUSH1 0x40 MLOAD DUP1 SWAP2 SUB SWAP1 REVERT JUMPDEST DUP1 SWAP2 POP POP SWAP2 SWAP1 POP JUMP JUMPDEST PUSH1 0x0 DUP1 PUSH20 0xFFFFFFFFFFFFFFFFFFFFFFFFFFFFFFFFFFFFFFFF AND DUP3 PUSH20 0xFFFFFFFFFFFFFFFFFFFFFFFFFFFFFFFFFFFFFFFF AND EQ ISZERO PUSH2 0x19EE JUMPI PUSH1 0x40 MLOAD PUSH32 0x8C379A000000000000000000000000000000000000000000000000000000000 DUP2 MSTORE PUSH1 0x4 ADD PUSH2 0x19E5 SWAP1 PUSH2 0x5075 JUMP JUMPDEST PUSH1 0x40 MLOAD DUP1 SWAP2 SUB SWAP1 REVERT JUMPDEST PUSH1 0x3 PUSH1 0x0 DUP4 PUSH20 0xFFFFFFFFFFFFFFFFFFFFFFFFFFFFFFFFFFFFFFFF AND PUSH20 0xFFFFFFFFFFFFFFFFFFFFFFFFFFFFFFFFFFFFFFFF AND DUP2 MSTORE PUSH1 0x20 ADD SWAP1 DUP2 MSTORE PUSH1 0x20 ADD PUSH1 0x0 KECCAK256 SLOAD SWAP1 POP SWAP2 SWAP1 POP JUMP JUMPDEST PUSH2 0x1A3D PUSH2 0x347A JUMP JUMPDEST PUSH20 0xFFFFFFFFFFFFFFFFFFFFFFFFFFFFFFFFFFFFFFFF AND PUSH1 0xA PUSH1 0x0 SWAP1 SLOAD SWAP1 PUSH2 0x100 EXP SWAP1 DIV PUSH20 0xFFFFFFFFFFFFFFFFFFFFFFFFFFFFFFFFFFFFFFFF AND PUSH20 0xFFFFFFFFFFFFFFFFFFFFFFFFFFFFFFFFFFFFFFFF AND EQ PUSH2 0x1ACC JUMPI PUSH1 0x40 MLOAD PUSH32 0x8C379A000000000000000000000000000000000000000000000000000000000 DUP2 MSTORE PUSH1 0x4 ADD PUSH2 0x1AC3 SWAP1 PUSH2 0x5155 JUMP JUMPDEST PUSH1 0x40 MLOAD DUP1 SWAP2 SUB SWAP1 REVERT JUMPDEST PUSH1 0x0 PUSH20 0xFFFFFFFFFFFFFFFFFFFFFFFFFFFFFFFFFFFFFFFF AND PUSH1 0xA PUSH1 0x0 SWAP1 SLOAD SWAP1 PUSH2 0x100 EXP SWAP1 DIV PUSH20 0xFFFFFFFFFFFFFFFFFFFFFFFFFFFFFFFFFFFFFFFF AND PUSH20 0xFFFFFFFFFFFFFFFFFFFFFFFFFFFFFFFFFFFFFFFF AND PUSH32 0x8BE0079C531659141344CD1FD0A4F28419497F9722A3DAAFE3B4186F6B6457E0 PUSH1 0x40 MLOAD PUSH1 0x40 MLOAD DUP1 SWAP2 SUB SWAP1 LOG3 PUSH1 0x0 PUSH1 0xA PUSH1 0x0 PUSH2 0x100 EXP DUP2 SLOAD DUP2 PUSH20 0xFFFFFFFFFFFFFFFFFFFFFFFFFFFFFFFFFFFFFFFF MUL NOT AND SWAP1 DUP4 PUSH20 0xFFFFFFFFFFFFFFFFFFFFFFFFFFFFFFFFFFFFFFFF AND MUL OR SWAP1 SSTORE POP JUMP JUMPDEST PUSH1 0x0 PUSH1 0xA PUSH1 0x0 SWAP1 SLOAD SWAP1 PUSH2 0x100 EXP SWAP1 DIV PUSH20 0xFFFFFFFFFFFFFFFFFFFFFFFFFFFFFFFFFFFFFFFF AND SWAP1 POP SWAP1 JUMP JUMPDEST PUSH2 0x1BBF PUSH2 0x347A JUMP JUMPDEST PUSH20 0xFFFFFFFFFFFFFFFFFFFFFFFFFFFFFFFFFFFFFFFF AND PUSH1 0xA PUSH1 0x0 SWAP1 SLOAD SWAP1 PUSH2 0x100 EXP SWAP1 DIV PUSH20 0xFFFFFFFFFFFFFFFFFFFFFFFFFFFFFFFFFFFFFFFF AND PUSH20 0xFFFFFFFFFFFFFFFFFFFFFFFFFFFFFFFFFFFFFFFF AND EQ DUP1 PUSH2 0x1C6A JUMPI POP PUSH1 0xB PUSH1 0x0 PUSH2 0x1C21 PUSH2 0x347A JUMP JUMPDEST PUSH20 0xFFFFFFFFFFFFFFFFFFFFFFFFFFFFFFFFFFFFFFFF AND PUSH20 0xFFFFFFFFFFFFFFFFFFFFFFFFFFFFFFFFFFFFFFFF AND DUP2 MSTORE PUSH1 0x20 ADD SWAP1 DUP2 MSTORE PUSH1 0x20 ADD PUSH1 0x0 KECCAK256 PUSH1 0x0 SWAP1 SLOAD SWAP1 PUSH2 0x100 EXP SWAP1 DIV PUSH1 0xFF AND JUMPDEST PUSH2 0x1CA9 JUMPI PUSH1 0x40 MLOAD PUSH32 0x8C379A000000000000000000000000000000000000000000000000000000000 DUP2 MSTORE PUSH1 0x4 ADD PUSH2 0x1CA0 SWAP1 PUSH2 0x50B5 JUMP JUMPDEST PUSH1 0x40 MLOAD DUP1 SWAP2 SUB SWAP1 REVERT JUMPDEST PUSH1 0x0 JUMPDEST DUP5 DUP5 SWAP1 POP DUP2 LT ISZERO PUSH2 0x1D3C JUMPI DUP3 DUP3 DUP3 DUP2 DUP2 LT PUSH2 0x1CCA JUMPI PUSH2 0x1CC9 PUSH2 0x56A7 JUMP JUMPDEST JUMPDEST SWAP1 POP PUSH1 0x20 MUL ADD CALLDATALOAD PUSH1 0x15 PUSH1 0x0 DUP8 DUP8 DUP6 DUP2 DUP2 LT PUSH2 0x1CE8 JUMPI PUSH2 0x1CE7 PUSH2 0x56A7 JUMP JUMPDEST JUMPDEST SWAP1 POP PUSH1 0x20 MUL ADD CALLDATALOAD DUP2 MSTORE PUSH1 0x20 ADD SWAP1 DUP2 MSTORE PUSH1 0x20 ADD PUSH1 0x0 KECCAK256 PUSH1 0x0 DUP10 DUP10 DUP6 DUP2 DUP2 LT PUSH2 0x1D12 JUMPI PUSH2 0x1D11 PUSH2 0x56A7 JUMP JUMPDEST JUMPDEST SWAP1 POP PUSH1 0x20 MUL ADD CALLDATALOAD DUP2 MSTORE PUSH1 0x20 ADD SWAP1 DUP2 MSTORE PUSH1 0x20 ADD PUSH1 0x0 KECCAK256 DUP2 SWAP1 SSTORE POP DUP1 PUSH2 0x1D35 SWAP1 PUSH2 0x55D1 JUMP JUMPDEST SWAP1 POP PUSH2 0x1CAC JUMP JUMPDEST POP POP POP POP POP POP POP JUMP JUMPDEST PUSH1 0x60 PUSH1 0x1 DUP1 SLOAD PUSH2 0x1D54 SWAP1 PUSH2 0x556E JUMP JUMPDEST DUP1 PUSH1 0x1F ADD PUSH1 0x20 DUP1 SWAP2 DIV MUL PUSH1 0x20 ADD PUSH1 0x40 MLOAD SWAP1 DUP2 ADD PUSH1 0x40 MSTORE DUP1 SWAP3 SWAP2 SWAP1 DUP2 DUP2 MSTORE PUSH1 0x20 ADD DUP3 DUP1 SLOAD PUSH2 0x1D80 SWAP1 PUSH2 0x556E JUMP JUMPDEST DUP1 ISZERO PUSH2 0x1DCD JUMPI DUP1 PUSH1 0x1F LT PUSH2 0x1DA2 JUMPI PUSH2 0x100 DUP1 DUP4 SLOAD DIV MUL DUP4 MSTORE SWAP2 PUSH1 0x20 ADD SWAP2 PUSH2 0x1DCD JUMP JUMPDEST DUP3 ADD SWAP2 SWAP1 PUSH1 0x0 MSTORE PUSH1 0x20 PUSH1 0x0 KECCAK256 SWAP1 JUMPDEST DUP2 SLOAD DUP2 MSTORE SWAP1 PUSH1 0x1 ADD SWAP1 PUSH1 0x20 ADD DUP1 DUP4 GT PUSH2 0x1DB0 JUMPI DUP3 SWAP1 SUB PUSH1 0x1F AND DUP3 ADD SWAP2 JUMPDEST POP POP POP POP POP SWAP1 POP SWAP1 JUMP JUMPDEST PUSH2 0x1DDF PUSH2 0x347A JUMP JUMPDEST PUSH20 0xFFFFFFFFFFFFFFFFFFFFFFFFFFFFFFFFFFFFFFFF AND PUSH1 0xA PUSH1 0x0 SWAP1 SLOAD SWAP1 PUSH2 0x100 EXP SWAP1 DIV PUSH20 0xFFFFFFFFFFFFFFFFFFFFFFFFFFFFFFFFFFFFFFFF AND PUSH20 0xFFFFFFFFFFFFFFFFFFFFFFFFFFFFFFFFFFFFFFFF AND EQ PUSH2 0x1E6E JUMPI PUSH1 0x40 MLOAD PUSH32 0x8C379A000000000000000000000000000000000000000000000000000000000 DUP2 MSTORE PUSH1 0x4 ADD PUSH2 0x1E65 SWAP1 PUSH2 0x5155 JUMP JUMPDEST PUSH1 0x40 MLOAD DUP1 SWAP2 SUB SWAP1 REVERT JUMPDEST PUSH1 0x1 PUSH1 0xC PUSH1 0x0 DUP4 PUSH20 0xFFFFFFFFFFFFFFFFFFFFFFFFFFFFFFFFFFFFFFFF AND PUSH20 0xFFFFFFFFFFFFFFFFFFFFFFFFFFFFFFFFFFFFFFFF AND DUP2 MSTORE PUSH1 0x20 ADD SWAP1 DUP2 MSTORE PUSH1 0x20 ADD PUSH1 0x0 KECCAK256 PUSH1 0x0 PUSH2 0x100 EXP DUP2 SLOAD DUP2 PUSH1 0xFF MUL NOT AND SWAP1 DUP4 ISZERO ISZERO MUL OR SWAP1 SSTORE POP POP JUMP JUMPDEST PUSH2 0x1ED1 PUSH2 0x347A JUMP JUMPDEST PUSH20 0xFFFFFFFFFFFFFFFFFFFFFFFFFFFFFFFFFFFFFFFF AND PUSH1 0xA PUSH1 0x0 SWAP1 SLOAD SWAP1 PUSH2 0x100 EXP SWAP1 DIV PUSH20 0xFFFFFFFFFFFFFFFFFFFFFFFFFFFFFFFFFFFFFFFF AND PUSH20 0xFFFFFFFFFFFFFFFFFFFFFFFFFFFFFFFFFFFFFFFF AND EQ DUP1 PUSH2 0x1F7C JUMPI POP PUSH1 0xB PUSH1 0x0 PUSH2 0x1F33 PUSH2 0x347A JUMP JUMPDEST PUSH20 0xFFFFFFFFFFFFFFFFFFFFFFFFFFFFFFFFFFFFFFFF AND PUSH20 0xFFFFFFFFFFFFFFFFFFFFFFFFFFFFFFFFFFFFFFFF AND DUP2 MSTORE PUSH1 0x20 ADD SWAP1 DUP2 MSTORE PUSH1 0x20 ADD PUSH1 0x0 KECCAK256 PUSH1 0x0 SWAP1 SLOAD SWAP1 PUSH2 0x100 EXP SWAP1 DIV PUSH1 0xFF AND JUMPDEST PUSH2 0x1FBB JUMPI PUSH1 0x40 MLOAD PUSH32 0x8C379A000000000000000000000000000000000000000000000000000000000 DUP2 MSTORE PUSH1 0x4 ADD PUSH2 0x1FB2 SWAP1 PUSH2 0x50B5 JUMP JUMPDEST PUSH1 0x40 MLOAD DUP1 SWAP2 SUB SWAP1 REVERT JUMPDEST PUSH1 0x0 JUMPDEST DUP5 DUP5 SWAP1 POP DUP2 LT ISZERO PUSH2 0x2035 JUMPI DUP3 DUP3 DUP3 DUP2 DUP2 LT PUSH2 0x1FDC JUMPI PUSH2 0x1FDB PUSH2 0x56A7 JUMP JUMPDEST JUMPDEST SWAP1 POP PUSH1 0x20 MUL ADD CALLDATALOAD PUSH1 0x15 PUSH1 0x0 DUP8 DUP8 DUP6 DUP2 DUP2 LT PUSH2 0x1FFA JUMPI PUSH2 0x1FF9 PUSH2 0x56A7 JUMP JUMPDEST JUMPDEST SWAP1 POP PUSH1 0x20 MUL ADD CALLDATALOAD DUP2 MSTORE PUSH1 0x20 ADD SWAP1 DUP2 MSTORE PUSH1 0x20 ADD PUSH1 0x0 KECCAK256 PUSH1 0x0 DUP9 DUP2 MSTORE PUSH1 0x20 ADD SWAP1 DUP2 MSTORE PUSH1 0x20 ADD PUSH1 0x0 KECCAK256 DUP2 SWAP1 SSTORE POP DUP1 PUSH2 0x202E SWAP1 PUSH2 0x55D1 JUMP JUMPDEST SWAP1 POP PUSH2 0x1FBE JUMP JUMPDEST POP POP POP POP POP POP JUMP JUMPDEST PUSH2 0x2045 PUSH2 0x347A JUMP JUMPDEST PUSH20 0xFFFFFFFFFFFFFFFFFFFFFFFFFFFFFFFFFFFFFFFF AND PUSH1 0xA PUSH1 0x0 SWAP1 SLOAD SWAP1 PUSH2 0x100 EXP SWAP1 DIV PUSH20 0xFFFFFFFFFFFFFFFFFFFFFFFFFFFFFFFFFFFFFFFF AND PUSH20 0xFFFFFFFFFFFFFFFFFFFFFFFFFFFFFFFFFFFFFFFF AND EQ PUSH2 0x20D4 JUMPI PUSH1 0x40 MLOAD PUSH32 0x8C379A000000000000000000000000000000000000000000000000000000000 DUP2 MSTORE PUSH1 0x4 ADD PUSH2 0x20CB SWAP1 PUSH2 0x5155 JUMP JUMPDEST PUSH1 0x40 MLOAD DUP1 SWAP2 SUB SWAP1 REVERT JUMPDEST DUP2 DUP2 PUSH1 0x12 SWAP2 SWAP1 PUSH2 0x20E5 SWAP3 SWAP2 SWAP1 PUSH2 0x3CCE JUMP JUMPDEST POP POP POP JUMP JUMPDEST PUSH1 0xD SLOAD DUP2 JUMP JUMPDEST PUSH2 0x20F8 PUSH2 0x347A JUMP JUMPDEST PUSH20 0xFFFFFFFFFFFFFFFFFFFFFFFFFFFFFFFFFFFFFFFF AND PUSH1 0xA PUSH1 0x0 SWAP1 SLOAD SWAP1 PUSH2 0x100 EXP SWAP1 DIV PUSH20 0xFFFFFFFFFFFFFFFFFFFFFFFFFFFFFFFFFFFFFFFF AND PUSH20 0xFFFFFFFFFFFFFFFFFFFFFFFFFFFFFFFFFFFFFFFF AND EQ DUP1 PUSH2 0x21A3 JUMPI POP PUSH1 0xC PUSH1 0x0 PUSH2 0x215A PUSH2 0x347A JUMP JUMPDEST PUSH20 0xFFFFFFFFFFFFFFFFFFFFFFFFFFFFFFFFFFFFFFFF AND PUSH20 0xFFFFFFFFFFFFFFFFFFFFFFFFFFFFFFFFFFFFFFFF AND DUP2 MSTORE PUSH1 0x20 ADD SWAP1 DUP2 MSTORE PUSH1 0x20 ADD PUSH1 0x0 KECCAK256 PUSH1 0x0 SWAP1 SLOAD SWAP1 PUSH2 0x100 EXP SWAP1 DIV PUSH1 0xFF AND JUMPDEST PUSH2 0x21E2 JUMPI PUSH1 0x40 MLOAD PUSH32 0x8C379A000000000000000000000000000000000000000000000000000000000 DUP2 MSTORE PUSH1 0x4 ADD PUSH2 0x21D9 SWAP1 PUSH2 0x5255 JUMP JUMPDEST PUSH1 0x40 MLOAD DUP1 SWAP2 SUB SWAP1 REVERT JUMPDEST PUSH1 0x0 PUSH2 0x21EE DUP4 DUP4 PUSH2 0x3482 JUMP JUMPDEST SWAP1 POP PUSH2 0x220F DUP4 PUSH20 0xFFFFFFFFFFFFFFFFFFFFFFFFFFFFFFFFFFFFFFFF AND PUSH2 0x3649 JUMP JUMPDEST ISZERO PUSH2 0x2270 JUMPI PUSH2 0x2230 PUSH1 0x0 DUP5 DUP4 PUSH1 0x40 MLOAD DUP1 PUSH1 0x20 ADD PUSH1 0x40 MSTORE DUP1 PUSH1 0x0 DUP2 MSTORE POP PUSH2 0x365C JUMP JUMPDEST PUSH2 0x226F JUMPI PUSH1 0x40 MLOAD PUSH32 0x8C379A000000000000000000000000000000000000000000000000000000000 DUP2 MSTORE PUSH1 0x4 ADD PUSH2 0x2266 SWAP1 PUSH2 0x4F75 JUMP JUMPDEST PUSH1 0x40 MLOAD DUP1 SWAP2 SUB SWAP1 REVERT JUMPDEST JUMPDEST POP POP POP JUMP JUMPDEST CALLER PUSH20 0xFFFFFFFFFFFFFFFFFFFFFFFFFFFFFFFFFFFFFFFF AND DUP3 PUSH20 0xFFFFFFFFFFFFFFFFFFFFFFFFFFFFFFFFFFFFFFFF AND EQ ISZERO PUSH2 0x22E4 JUMPI PUSH1 0x40 MLOAD PUSH32 0x8C379A000000000000000000000000000000000000000000000000000000000 DUP2 MSTORE PUSH1 0x4 ADD PUSH2 0x22DB SWAP1 PUSH2 0x4FF5 JUMP JUMPDEST PUSH1 0x40 MLOAD DUP1 SWAP2 SUB SWAP1 REVERT JUMPDEST DUP1 PUSH1 0x5 PUSH1 0x0 CALLER PUSH20 0xFFFFFFFFFFFFFFFFFFFFFFFFFFFFFFFFFFFFFFFF AND PUSH20 0xFFFFFFFFFFFFFFFFFFFFFFFFFFFFFFFFFFFFFFFF AND DUP2 MSTORE PUSH1 0x20 ADD SWAP1 DUP2 MSTORE PUSH1 0x20 ADD PUSH1 0x0 KECCAK256 PUSH1 0x0 DUP5 PUSH20 0xFFFFFFFFFFFFFFFFFFFFFFFFFFFFFFFFFFFFFFFF AND PUSH20 0xFFFFFFFFFFFFFFFFFFFFFFFFFFFFFFFFFFFFFFFF AND DUP2 MSTORE PUSH1 0x20 ADD SWAP1 DUP2 MSTORE PUSH1 0x20 ADD PUSH1 0x0 KECCAK256 PUSH1 0x0 PUSH2 0x100 EXP DUP2 SLOAD DUP2 PUSH1 0xFF MUL NOT AND SWAP1 DUP4 ISZERO ISZERO MUL OR SWAP1 SSTORE POP DUP2 PUSH20 0xFFFFFFFFFFFFFFFFFFFFFFFFFFFFFFFFFFFFFFFF AND CALLER PUSH20 0xFFFFFFFFFFFFFFFFFFFFFFFFFFFFFFFFFFFFFFFF AND PUSH32 0x17307EAB39AB6107E8899845AD3D59BD9653F200F220920489CA2B5937696C31 DUP4 PUSH1 0x40 MLOAD PUSH2 0x23D5 SWAP2 SWAP1 PUSH2 0x4ED4 JUMP JUMPDEST PUSH1 0x40 MLOAD DUP1 SWAP2 SUB SWAP1 LOG3 POP POP JUMP JUMPDEST PUSH2 0x23E9 PUSH2 0x347A JUMP JUMPDEST PUSH20 0xFFFFFFFFFFFFFFFFFFFFFFFFFFFFFFFFFFFFFFFF AND PUSH1 0xA PUSH1 0x0 SWAP1 SLOAD SWAP1 PUSH2 0x100 EXP SWAP1 DIV PUSH20 0xFFFFFFFFFFFFFFFFFFFFFFFFFFFFFFFFFFFFFFFF AND PUSH20 0xFFFFFFFFFFFFFFFFFFFFFFFFFFFFFFFFFFFFFFFF AND EQ PUSH2 0x2478 JUMPI PUSH1 0x40 MLOAD PUSH32 0x8C379A000000000000000000000000000000000000000000000000000000000 DUP2 MSTORE PUSH1 0x4 ADD PUSH2 0x246F SWAP1 PUSH2 0x5155 JUMP JUMPDEST PUSH1 0x40 MLOAD DUP1 SWAP2 SUB SWAP1 REVERT JUMPDEST PUSH1 0x0 PUSH1 0xB PUSH1 0x0 DUP4 PUSH20 0xFFFFFFFFFFFFFFFFFFFFFFFFFFFFFFFFFFFFFFFF AND PUSH20 0xFFFFFFFFFFFFFFFFFFFFFFFFFFFFFFFFFFFFFFFF AND DUP2 MSTORE PUSH1 0x20 ADD SWAP1 DUP2 MSTORE PUSH1 0x20 ADD PUSH1 0x0 KECCAK256 PUSH1 0x0 PUSH2 0x100 EXP DUP2 SLOAD DUP2 PUSH1 0xFF MUL NOT AND SWAP1 DUP4 ISZERO ISZERO MUL OR SWAP1 SSTORE POP POP JUMP JUMPDEST PUSH2 0x24DD CALLER DUP4 PUSH2 0x3140 JUMP JUMPDEST PUSH2 0x251C JUMPI PUSH1 0x40 MLOAD PUSH32 0x8C379A000000000000000000000000000000000000000000000000000000000 DUP2 MSTORE PUSH1 0x4 ADD PUSH2 0x2513 SWAP1 PUSH2 0x51F5 JUMP JUMPDEST PUSH1 0x40 MLOAD DUP1 SWAP2 SUB SWAP1 REVERT JUMPDEST PUSH2 0x2528 DUP5 DUP5 DUP5 DUP5 PUSH2 0x37EC JUMP JUMPDEST POP POP POP POP JUMP JUMPDEST PUSH1 0x60 PUSH2 0x2539 DUP3 PUSH2 0x301B JUMP JUMPDEST PUSH2 0x2578 JUMPI PUSH1 0x40 MLOAD PUSH32 0x8C379A000000000000000000000000000000000000000000000000000000000 DUP2 MSTORE PUSH1 0x4 ADD PUSH2 0x256F SWAP1 PUSH2 0x5195 JUMP JUMPDEST PUSH1 0x40 MLOAD DUP1 SWAP2 SUB SWAP1 REVERT JUMPDEST PUSH1 0x12 PUSH1 0x13 PUSH1 0x0 PUSH1 0x14 PUSH1 0x0 DUP7 DUP2 MSTORE PUSH1 0x20 ADD SWAP1 DUP2 MSTORE PUSH1 0x20 ADD PUSH1 0x0 KECCAK256 SLOAD DUP2 MSTORE PUSH1 0x20 ADD SWAP1 DUP2 MSTORE PUSH1 0x20 ADD PUSH1 0x0 KECCAK256 PUSH1 0x40 MLOAD PUSH1 0x20 ADD PUSH2 0x25B1 SWAP3 SWAP2 SWAP1 PUSH2 0x4E05 JUMP JUMPDEST PUSH1 0x40 MLOAD PUSH1 0x20 DUP2 DUP4 SUB SUB DUP2 MSTORE SWAP1 PUSH1 0x40 MSTORE SWAP1 POP SWAP2 SWAP1 POP JUMP JUMPDEST PUSH1 0xF SLOAD DUP2 JUMP JUMPDEST PUSH2 0x25D5 PUSH2 0x347A JUMP JUMPDEST PUSH20 0xFFFFFFFFFFFFFFFFFFFFFFFFFFFFFFFFFFFFFFFF AND PUSH1 0xA PUSH1 0x0 SWAP1 SLOAD SWAP1 PUSH2 0x100 EXP SWAP1 DIV PUSH20 0xFFFFFFFFFFFFFFFFFFFFFFFFFFFFFFFFFFFFFFFF AND PUSH20 0xFFFFFFFFFFFFFFFFFFFFFFFFFFFFFFFFFFFFFFFF AND EQ DUP1 PUSH2 0x2680 JUMPI POP PUSH1 0xB PUSH1 0x0 PUSH2 0x2637 PUSH2 0x347A JUMP JUMPDEST PUSH20 0xFFFFFFFFFFFFFFFFFFFFFFFFFFFFFFFFFFFFFFFF AND PUSH20 0xFFFFFFFFFFFFFFFFFFFFFFFFFFFFFFFFFFFFFFFF AND DUP2 MSTORE PUSH1 0x20 ADD SWAP1 DUP2 MSTORE PUSH1 0x20 ADD PUSH1 0x0 KECCAK256 PUSH1 0x0 SWAP1 SLOAD SWAP1 PUSH2 0x100 EXP SWAP1 DIV PUSH1 0xFF AND JUMPDEST PUSH2 0x26BF JUMPI PUSH1 0x40 MLOAD PUSH32 0x8C379A000000000000000000000000000000000000000000000000000000000 DUP2 MSTORE PUSH1 0x4 ADD PUSH2 0x26B6 SWAP1 PUSH2 0x50B5 JUMP JUMPDEST PUSH1 0x40 MLOAD DUP1 SWAP2 SUB SWAP1 REVERT JUMPDEST DUP1 PUSH1 0x15 PUSH1 0x0 DUP5 DUP2 MSTORE PUSH1 0x20 ADD SWAP1 DUP2 MSTORE PUSH1 0x20 ADD PUSH1 0x0 KECCAK256 PUSH1 0x0 DUP6 DUP2 MSTORE PUSH1 0x20 ADD SWAP1 DUP2 MSTORE PUSH1 0x20 ADD PUSH1 0x0 KECCAK256 DUP2 SWAP1 SSTORE POP POP POP POP JUMP JUMPDEST PUSH2 0x26F5 PUSH2 0x347A JUMP JUMPDEST PUSH20 0xFFFFFFFFFFFFFFFFFFFFFFFFFFFFFFFFFFFFFFFF AND PUSH1 0xA PUSH1 0x0 SWAP1 SLOAD SWAP1 PUSH2 0x100 EXP SWAP1 DIV PUSH20 0xFFFFFFFFFFFFFFFFFFFFFFFFFFFFFFFFFFFFFFFF AND PUSH20 0xFFFFFFFFFFFFFFFFFFFFFFFFFFFFFFFFFFFFFFFF AND EQ PUSH2 0x2784 JUMPI PUSH1 0x40 MLOAD PUSH32 0x8C379A000000000000000000000000000000000000000000000000000000000 DUP2 MSTORE PUSH1 0x4 ADD PUSH2 0x277B SWAP1 PUSH2 0x5155 JUMP JUMPDEST PUSH1 0x40 MLOAD DUP1 SWAP2 SUB SWAP1 REVERT JUMPDEST PUSH1 0x0 JUMPDEST DUP5 DUP5 SWAP1 POP DUP2 LT ISZERO PUSH2 0x2878 JUMPI DUP3 DUP3 DUP3 DUP2 DUP2 LT PUSH2 0x27A5 JUMPI PUSH2 0x27A4 PUSH2 0x56A7 JUMP JUMPDEST JUMPDEST SWAP1 POP PUSH1 0x20 MUL DUP2 ADD SWAP1 PUSH2 0x27B7 SWAP2 SWAP1 PUSH2 0x5290 JUMP JUMPDEST PUSH1 0x13 PUSH1 0x0 DUP9 DUP9 DUP7 DUP2 DUP2 LT PUSH2 0x27CE JUMPI PUSH2 0x27CD PUSH2 0x56A7 JUMP JUMPDEST JUMPDEST SWAP1 POP PUSH1 0x20 MUL ADD CALLDATALOAD DUP2 MSTORE PUSH1 0x20 ADD SWAP1 DUP2 MSTORE PUSH1 0x20 ADD PUSH1 0x0 KECCAK256 SWAP2 SWAP1 PUSH2 0x27F0 SWAP3 SWAP2 SWAP1 PUSH2 0x3CCE JUMP JUMPDEST POP DUP5 DUP5 DUP3 DUP2 DUP2 LT PUSH2 0x2804 JUMPI PUSH2 0x2803 PUSH2 0x56A7 JUMP JUMPDEST JUMPDEST SWAP1 POP PUSH1 0x20 MUL ADD CALLDATALOAD PUSH32 0x6BB7FF708619BA0610CBA295A58592E0451DEE2622938C8755667688DAF3529B DUP5 DUP5 DUP5 DUP2 DUP2 LT PUSH2 0x283F JUMPI PUSH2 0x283E PUSH2 0x56A7 JUMP JUMPDEST JUMPDEST SWAP1 POP PUSH1 0x20 MUL DUP2 ADD SWAP1 PUSH2 0x2851 SWAP2 SWAP1 PUSH2 0x5290 JUMP JUMPDEST PUSH1 0x40 MLOAD PUSH2 0x285F SWAP3 SWAP2 SWAP1 PUSH2 0x4EEF JUMP JUMPDEST PUSH1 0x40 MLOAD DUP1 SWAP2 SUB SWAP1 LOG2 DUP1 PUSH2 0x2871 SWAP1 PUSH2 0x55D1 JUMP JUMPDEST SWAP1 POP PUSH2 0x2787 JUMP JUMPDEST POP POP POP POP POP JUMP JUMPDEST PUSH1 0x0 PUSH1 0x5 PUSH1 0x0 DUP5 PUSH20 0xFFFFFFFFFFFFFFFFFFFFFFFFFFFFFFFFFFFFFFFF AND PUSH20 0xFFFFFFFFFFFFFFFFFFFFFFFFFFFFFFFFFFFFFFFF AND DUP2 MSTORE PUSH1 0x20 ADD SWAP1 DUP2 MSTORE PUSH1 0x20 ADD PUSH1 0x0 KECCAK256 PUSH1 0x0 DUP4 PUSH20 0xFFFFFFFFFFFFFFFFFFFFFFFFFFFFFFFFFFFFFFFF AND PUSH20 0xFFFFFFFFFFFFFFFFFFFFFFFFFFFFFFFFFFFFFFFF AND DUP2 MSTORE PUSH1 0x20 ADD SWAP1 DUP2 MSTORE PUSH1 0x20 ADD PUSH1 0x0 KECCAK256 PUSH1 0x0 SWAP1 SLOAD SWAP1 PUSH2 0x100 EXP SWAP1 DIV PUSH1 0xFF AND SWAP1 POP SWAP3 SWAP2 POP POP JUMP JUMPDEST PUSH1 0x0 PUSH1 0x15 PUSH1 0x0 DUP4 DUP2 MSTORE PUSH1 0x20 ADD SWAP1 DUP2 MSTORE PUSH1 0x20 ADD PUSH1 0x0 KECCAK256 PUSH1 0x0 DUP5 DUP2 MSTORE PUSH1 0x20 ADD SWAP1 DUP2 MSTORE PUSH1 0x20 ADD PUSH1 0x0 KECCAK256 SLOAD SWAP1 POP SWAP3 SWAP2 POP POP JUMP JUMPDEST PUSH1 0x60 PUSH1 0x0 DUP4 DUP4 SWAP1 POP PUSH8 0xFFFFFFFFFFFFFFFF DUP2 GT ISZERO PUSH2 0x2963 JUMPI PUSH2 0x2962 PUSH2 0x56D6 JUMP JUMPDEST JUMPDEST PUSH1 0x40 MLOAD SWAP1 DUP1 DUP3 MSTORE DUP1 PUSH1 0x20 MUL PUSH1 0x20 ADD DUP3 ADD PUSH1 0x40 MSTORE DUP1 ISZERO PUSH2 0x2996 JUMPI DUP2 PUSH1 0x20 ADD JUMPDEST PUSH1 0x60 DUP2 MSTORE PUSH1 0x20 ADD SWAP1 PUSH1 0x1 SWAP1 SUB SWAP1 DUP2 PUSH2 0x2981 JUMPI SWAP1 POP JUMPDEST POP SWAP1 POP PUSH1 0x0 JUMPDEST DUP5 DUP5 SWAP1 POP DUP2 LT ISZERO PUSH2 0x2A8B JUMPI PUSH1 0x13 PUSH1 0x0 DUP3 DUP2 MSTORE PUSH1 0x20 ADD SWAP1 DUP2 MSTORE PUSH1 0x20 ADD PUSH1 0x0 KECCAK256 DUP1 SLOAD PUSH2 0x29C5 SWAP1 PUSH2 0x556E JUMP JUMPDEST DUP1 PUSH1 0x1F ADD PUSH1 0x20 DUP1 SWAP2 DIV MUL PUSH1 0x20 ADD PUSH1 0x40 MLOAD SWAP1 DUP2 ADD PUSH1 0x40 MSTORE DUP1 SWAP3 SWAP2 SWAP1 DUP2 DUP2 MSTORE PUSH1 0x20 ADD DUP3 DUP1 SLOAD PUSH2 0x29F1 SWAP1 PUSH2 0x556E JUMP JUMPDEST DUP1 ISZERO PUSH2 0x2A3E JUMPI DUP1 PUSH1 0x1F LT PUSH2 0x2A13 JUMPI PUSH2 0x100 DUP1 DUP4 SLOAD DIV MUL DUP4 MSTORE SWAP2 PUSH1 0x20 ADD SWAP2 PUSH2 0x2A3E JUMP JUMPDEST DUP3 ADD SWAP2 SWAP1 PUSH1 0x0 MSTORE PUSH1 0x20 PUSH1 0x0 KECCAK256 SWAP1 JUMPDEST DUP2 SLOAD DUP2 MSTORE SWAP1 PUSH1 0x1 ADD SWAP1 PUSH1 0x20 ADD DUP1 DUP4 GT PUSH2 0x2A21 JUMPI DUP3 SWAP1 SUB PUSH1 0x1F AND DUP3 ADD SWAP2 JUMPDEST POP POP POP POP POP DUP3 DUP7 DUP7 DUP5 DUP2 DUP2 LT PUSH2 0x2A57 JUMPI PUSH2 0x2A56 PUSH2 0x56A7 JUMP JUMPDEST JUMPDEST SWAP1 POP PUSH1 0x20 MUL ADD CALLDATALOAD DUP2 MLOAD DUP2 LT PUSH2 0x2A6F JUMPI PUSH2 0x2A6E PUSH2 0x56A7 JUMP JUMPDEST JUMPDEST PUSH1 0x20 MUL PUSH1 0x20 ADD ADD DUP2 SWAP1 MSTORE POP DUP1 PUSH2 0x2A84 SWAP1 PUSH2 0x55D1 JUMP JUMPDEST SWAP1 POP PUSH2 0x299C JUMP JUMPDEST POP DUP1 SWAP2 POP POP SWAP3 SWAP2 POP POP JUMP JUMPDEST PUSH1 0x0 PUSH1 0xE SLOAD SWAP1 POP SWAP1 JUMP JUMPDEST PUSH2 0x2AA8 PUSH2 0x347A JUMP JUMPDEST PUSH20 0xFFFFFFFFFFFFFFFFFFFFFFFFFFFFFFFFFFFFFFFF AND PUSH1 0xA PUSH1 0x0 SWAP1 SLOAD SWAP1 PUSH2 0x100 EXP SWAP1 DIV PUSH20 0xFFFFFFFFFFFFFFFFFFFFFFFFFFFFFFFFFFFFFFFF AND PUSH20 0xFFFFFFFFFFFFFFFFFFFFFFFFFFFFFFFFFFFFFFFF AND EQ PUSH2 0x2B37 JUMPI PUSH1 0x40 MLOAD PUSH32 0x8C379A000000000000000000000000000000000000000000000000000000000 DUP2 MSTORE PUSH1 0x4 ADD PUSH2 0x2B2E SWAP1 PUSH2 0x5155 JUMP JUMPDEST PUSH1 0x40 MLOAD DUP1 SWAP2 SUB SWAP1 REVERT JUMPDEST PUSH1 0x0 PUSH20 0xFFFFFFFFFFFFFFFFFFFFFFFFFFFFFFFFFFFFFFFF AND DUP2 PUSH20 0xFFFFFFFFFFFFFFFFFFFFFFFFFFFFFFFFFFFFFFFF AND EQ ISZERO PUSH2 0x2BA7 JUMPI PUSH1 0x40 MLOAD PUSH32 0x8C379A000000000000000000000000000000000000000000000000000000000 DUP2 MSTORE PUSH1 0x4 ADD PUSH2 0x2B9E SWAP1 PUSH2 0x4F95 JUMP JUMPDEST PUSH1 0x40 MLOAD DUP1 SWAP2 SUB SWAP1 REVERT JUMPDEST DUP1 PUSH20 0xFFFFFFFFFFFFFFFFFFFFFFFFFFFFFFFFFFFFFFFF AND PUSH1 0xA PUSH1 0x0 SWAP1 SLOAD SWAP1 PUSH2 0x100 EXP SWAP1 DIV PUSH20 0xFFFFFFFFFFFFFFFFFFFFFFFFFFFFFFFFFFFFFFFF AND PUSH20 0xFFFFFFFFFFFFFFFFFFFFFFFFFFFFFFFFFFFFFFFF AND PUSH32 0x8BE0079C531659141344CD1FD0A4F28419497F9722A3DAAFE3B4186F6B6457E0 PUSH1 0x40 MLOAD PUSH1 0x40 MLOAD DUP1 SWAP2 SUB SWAP1 LOG3 DUP1 PUSH1 0xA PUSH1 0x0 PUSH2 0x100 EXP DUP2 SLOAD DUP2 PUSH20 0xFFFFFFFFFFFFFFFFFFFFFFFFFFFFFFFFFFFFFFFF MUL NOT AND SWAP1 DUP4 PUSH20 0xFFFFFFFFFFFFFFFFFFFFFFFFFFFFFFFFFFFFFFFF AND MUL OR SWAP1 SSTORE POP POP JUMP JUMPDEST PUSH1 0x60 PUSH1 0x0 DUP4 DUP4 SWAP1 POP PUSH8 0xFFFFFFFFFFFFFFFF DUP2 GT ISZERO PUSH2 0x2C88 JUMPI PUSH2 0x2C87 PUSH2 0x56D6 JUMP JUMPDEST JUMPDEST PUSH1 0x40 MLOAD SWAP1 DUP1 DUP3 MSTORE DUP1 PUSH1 0x20 MUL PUSH1 0x20 ADD DUP3 ADD PUSH1 0x40 MSTORE DUP1 ISZERO PUSH2 0x2CB6 JUMPI DUP2 PUSH1 0x20 ADD PUSH1 0x20 DUP3 MUL DUP1 CALLDATASIZE DUP4 CALLDATACOPY DUP1 DUP3 ADD SWAP2 POP POP SWAP1 POP JUMPDEST POP SWAP1 POP PUSH1 0x0 JUMPDEST DUP5 DUP5 SWAP1 POP DUP2 LT ISZERO PUSH2 0x2D4E JUMPI PUSH1 0x15 PUSH1 0x0 DUP7 DUP7 DUP5 DUP2 DUP2 LT PUSH2 0x2CDE JUMPI PUSH2 0x2CDD PUSH2 0x56A7 JUMP JUMPDEST JUMPDEST SWAP1 POP PUSH1 0x20 MUL ADD CALLDATALOAD DUP2 MSTORE PUSH1 0x20 ADD SWAP1 DUP2 MSTORE PUSH1 0x20 ADD PUSH1 0x0 KECCAK256 PUSH1 0x0 DUP9 DUP9 DUP5 DUP2 DUP2 LT PUSH2 0x2D08 JUMPI PUSH2 0x2D07 PUSH2 0x56A7 JUMP JUMPDEST JUMPDEST SWAP1 POP PUSH1 0x20 MUL ADD CALLDATALOAD DUP2 MSTORE PUSH1 0x20 ADD SWAP1 DUP2 MSTORE PUSH1 0x20 ADD PUSH1 0x0 KECCAK256 SLOAD DUP3 DUP3 DUP2 MLOAD DUP2 LT PUSH2 0x2D31 JUMPI PUSH2 0x2D30 PUSH2 0x56A7 JUMP JUMPDEST JUMPDEST PUSH1 0x20 MUL PUSH1 0x20 ADD ADD DUP2 DUP2 MSTORE POP POP DUP1 PUSH2 0x2D47 SWAP1 PUSH2 0x55D1 JUMP JUMPDEST SWAP1 POP PUSH2 0x2CBC JUMP JUMPDEST POP DUP1 SWAP2 POP POP SWAP5 SWAP4 POP POP POP POP JUMP JUMPDEST PUSH2 0x2D63 PUSH2 0x347A JUMP JUMPDEST PUSH20 0xFFFFFFFFFFFFFFFFFFFFFFFFFFFFFFFFFFFFFFFF AND PUSH1 0xA PUSH1 0x0 SWAP1 SLOAD SWAP1 PUSH2 0x100 EXP SWAP1 DIV PUSH20 0xFFFFFFFFFFFFFFFFFFFFFFFFFFFFFFFFFFFFFFFF AND PUSH20 0xFFFFFFFFFFFFFFFFFFFFFFFFFFFFFFFFFFFFFFFF AND EQ PUSH2 0x2DF2 JUMPI PUSH1 0x40 MLOAD PUSH32 0x8C379A000000000000000000000000000000000000000000000000000000000 DUP2 MSTORE PUSH1 0x4 ADD PUSH2 0x2DE9 SWAP1 PUSH2 0x5155 JUMP JUMPDEST PUSH1 0x40 MLOAD DUP1 SWAP2 SUB SWAP1 REVERT JUMPDEST PUSH1 0xD SLOAD DUP2 GT PUSH2 0x2E36 JUMPI PUSH1 0x40 MLOAD PUSH32 0x8C379A000000000000000000000000000000000000000000000000000000000 DUP2 MSTORE PUSH1 0x4 ADD PUSH2 0x2E2D SWAP1 PUSH2 0x5235 JUMP JUMPDEST PUSH1 0x40 MLOAD DUP1 SWAP2 SUB SWAP1 REVERT JUMPDEST DUP1 PUSH1 0xD DUP2 SWAP1 SSTORE POP POP JUMP JUMPDEST PUSH1 0xE SLOAD DUP2 JUMP JUMPDEST PUSH1 0x60 PUSH1 0x0 PUSH2 0x2E53 DUP4 PUSH2 0x197D JUMP JUMPDEST SWAP1 POP PUSH1 0x0 DUP2 PUSH8 0xFFFFFFFFFFFFFFFF DUP2 GT ISZERO PUSH2 0x2E71 JUMPI PUSH2 0x2E70 PUSH2 0x56D6 JUMP JUMPDEST JUMPDEST PUSH1 0x40 MLOAD SWAP1 DUP1 DUP3 MSTORE DUP1 PUSH1 0x20 MUL PUSH1 0x20 ADD DUP3 ADD PUSH1 0x40 MSTORE DUP1 ISZERO PUSH2 0x2E9F JUMPI DUP2 PUSH1 0x20 ADD PUSH1 0x20 DUP3 MUL DUP1 CALLDATASIZE DUP4 CALLDATACOPY DUP1 DUP3 ADD SWAP2 POP POP SWAP1 POP JUMPDEST POP SWAP1 POP PUSH1 0x0 JUMPDEST DUP3 DUP2 LT ISZERO PUSH2 0x2F2E JUMPI PUSH1 0x6 PUSH1 0x0 DUP7 PUSH20 0xFFFFFFFFFFFFFFFFFFFFFFFFFFFFFFFFFFFFFFFF AND PUSH20 0xFFFFFFFFFFFFFFFFFFFFFFFFFFFFFFFFFFFFFFFF AND DUP2 MSTORE PUSH1 0x20 ADD SWAP1 DUP2 MSTORE PUSH1 0x20 ADD PUSH1 0x0 KECCAK256 PUSH1 0x0 DUP3 DUP2 MSTORE PUSH1 0x20 ADD SWAP1 DUP2 MSTORE PUSH1 0x20 ADD PUSH1 0x0 KECCAK256 SLOAD DUP3 DUP3 DUP2 MLOAD DUP2 LT PUSH2 0x2F11 JUMPI PUSH2 0x2F10 PUSH2 0x56A7 JUMP JUMPDEST JUMPDEST PUSH1 0x20 MUL PUSH1 0x20 ADD ADD DUP2 DUP2 MSTORE POP POP DUP1 PUSH2 0x2F27 SWAP1 PUSH2 0x55D1 JUMP JUMPDEST SWAP1 POP PUSH2 0x2EA5 JUMP JUMPDEST POP DUP1 SWAP3 POP POP POP SWAP2 SWAP1 POP JUMP JUMPDEST PUSH1 0x0 PUSH32 0x80AC58CD00000000000000000000000000000000000000000000000000000000 PUSH28 0xFFFFFFFFFFFFFFFFFFFFFFFFFFFFFFFFFFFFFFFFFFFFFFFFFFFFFFFF NOT AND DUP3 PUSH28 0xFFFFFFFFFFFFFFFFFFFFFFFFFFFFFFFFFFFFFFFFFFFFFFFFFFFFFFFF NOT AND EQ DUP1 PUSH2 0x3004 JUMPI POP PUSH32 0x5B5E139F00000000000000000000000000000000000000000000000000000000 PUSH28 0xFFFFFFFFFFFFFFFFFFFFFFFFFFFFFFFFFFFFFFFFFFFFFFFFFFFFFFFF NOT AND DUP3 PUSH28 0xFFFFFFFFFFFFFFFFFFFFFFFFFFFFFFFFFFFFFFFFFFFFFFFFFFFFFFFF NOT AND EQ JUMPDEST DUP1 PUSH2 0x3014 JUMPI POP PUSH2 0x3013 DUP3 PUSH2 0x3848 JUMP JUMPDEST JUMPDEST SWAP1 POP SWAP2 SWAP1 POP JUMP JUMPDEST PUSH1 0x0 DUP1 PUSH20 0xFFFFFFFFFFFFFFFFFFFFFFFFFFFFFFFFFFFFFFFF AND PUSH1 0x2 PUSH1 0x0 DUP5 DUP2 MSTORE PUSH1 0x20 ADD SWAP1 DUP2 MSTORE PUSH1 0x20 ADD PUSH1 0x0 KECCAK256 PUSH1 0x0 SWAP1 SLOAD SWAP1 PUSH2 0x100 EXP SWAP1 DIV PUSH20 0xFFFFFFFFFFFFFFFFFFFFFFFFFFFFFFFFFFFFFFFF AND PUSH20 0xFFFFFFFFFFFFFFFFFFFFFFFFFFFFFFFFFFFFFFFF AND EQ ISZERO SWAP1 POP SWAP2 SWAP1 POP JUMP JUMPDEST DUP2 PUSH1 0x4 PUSH1 0x0 DUP4 DUP2 MSTORE PUSH1 0x20 ADD SWAP1 DUP2 MSTORE PUSH1 0x20 ADD PUSH1 0x0 KECCAK256 PUSH1 0x0 PUSH2 0x100 EXP DUP2 SLOAD DUP2 PUSH20 0xFFFFFFFFFFFFFFFFFFFFFFFFFFFFFFFFFFFFFFFF MUL NOT AND SWAP1 DUP4 PUSH20 0xFFFFFFFFFFFFFFFFFFFFFFFFFFFFFFFFFFFFFFFF AND MUL OR SWAP1 SSTORE POP DUP1 DUP3 PUSH20 0xFFFFFFFFFFFFFFFFFFFFFFFFFFFFFFFFFFFFFFFF AND PUSH2 0x30FA DUP4 PUSH2 0x18CB JUMP JUMPDEST PUSH20 0xFFFFFFFFFFFFFFFFFFFFFFFFFFFFFFFFFFFFFFFF AND PUSH32 0x8C5BE1E5EBEC7D5BD14F71427D1E84F3DD0314C0F7B2291E5B200AC8C7C3B925 PUSH1 0x40 MLOAD PUSH1 0x40 MLOAD DUP1 SWAP2 SUB SWAP1 LOG4 POP POP JUMP JUMPDEST PUSH1 0x0 PUSH2 0x314B DUP3 PUSH2 0x301B JUMP JUMPDEST PUSH2 0x318A JUMPI PUSH1 0x40 MLOAD PUSH32 0x8C379A000000000000000000000000000000000000000000000000000000000 DUP2 MSTORE PUSH1 0x4 ADD PUSH2 0x3181 SWAP1 PUSH2 0x5035 JUMP JUMPDEST PUSH1 0x40 MLOAD DUP1 SWAP2 SUB SWAP1 REVERT JUMPDEST PUSH1 0x0 PUSH2 0x3195 DUP4 PUSH2 0x18CB JUMP JUMPDEST SWAP1 POP DUP1 PUSH20 0xFFFFFFFFFFFFFFFFFFFFFFFFFFFFFFFFFFFFFFFF AND DUP5 PUSH20 0xFFFFFFFFFFFFFFFFFFFFFFFFFFFFFFFFFFFFFFFF AND EQ DUP1 PUSH2 0x3204 JUMPI POP DUP4 PUSH20 0xFFFFFFFFFFFFFFFFFFFFFFFFFFFFFFFFFFFFFFFF AND PUSH2 0x31EC DUP5 PUSH2 0xB6B JUMP JUMPDEST PUSH20 0xFFFFFFFFFFFFFFFFFFFFFFFFFFFFFFFFFFFFFFFF AND EQ JUMPDEST DUP1 PUSH2 0x3215 JUMPI POP PUSH2 0x3214 DUP2 DUP6 PUSH2 0x287F JUMP JUMPDEST JUMPDEST SWAP2 POP POP SWAP3 SWAP2 POP POP JUMP JUMPDEST DUP3 PUSH20 0xFFFFFFFFFFFFFFFFFFFFFFFFFFFFFFFFFFFFFFFF AND PUSH2 0x323E DUP3 PUSH2 0x18CB JUMP JUMPDEST PUSH20 0xFFFFFFFFFFFFFFFFFFFFFFFFFFFFFFFFFFFFFFFF AND EQ PUSH2 0x3294 JUMPI PUSH1 0x40 MLOAD PUSH32 0x8C379A000000000000000000000000000000000000000000000000000000000 DUP2 MSTORE PUSH1 0x4 ADD PUSH2 0x328B SWAP1 PUSH2 0x5175 JUMP JUMPDEST PUSH1 0x40 MLOAD DUP1 SWAP2 SUB SWAP1 REVERT JUMPDEST PUSH1 0x0 PUSH20 0xFFFFFFFFFFFFFFFFFFFFFFFFFFFFFFFFFFFFFFFF AND DUP3 PUSH20 0xFFFFFFFFFFFFFFFFFFFFFFFFFFFFFFFFFFFFFFFF AND EQ ISZERO PUSH2 0x3304 JUMPI PUSH1 0x40 MLOAD PUSH32 0x8C379A000000000000000000000000000000000000000000000000000000000 DUP2 MSTORE PUSH1 0x4 ADD PUSH2 0x32FB SWAP1 PUSH2 0x4FB5 JUMP JUMPDEST PUSH1 0x40 MLOAD DUP1 SWAP2 SUB SWAP1 REVERT JUMPDEST PUSH2 0x330F DUP4 DUP4 DUP4 PUSH2 0x3899 JUMP JUMPDEST PUSH2 0x331A PUSH1 0x0 DUP3 PUSH2 0x3087 JUMP JUMPDEST PUSH1 0x1 PUSH1 0x3 PUSH1 0x0 DUP6 PUSH20 0xFFFFFFFFFFFFFFFFFFFFFFFFFFFFFFFFFFFFFFFF AND PUSH20 0xFFFFFFFFFFFFFFFFFFFFFFFFFFFFFFFFFFFFFFFF AND DUP2 MSTORE PUSH1 0x20 ADD SWAP1 DUP2 MSTORE PUSH1 0x20 ADD PUSH1 0x0 KECCAK256 PUSH1 0x0 DUP3 DUP3 SLOAD PUSH2 0x336A SWAP2 SWAP1 PUSH2 0x547A JUMP JUMPDEST SWAP3 POP POP DUP2 SWAP1 SSTORE POP PUSH1 0x1 PUSH1 0x3 PUSH1 0x0 DUP5 PUSH20 0xFFFFFFFFFFFFFFFFFFFFFFFFFFFFFFFFFFFFFFFF AND PUSH20 0xFFFFFFFFFFFFFFFFFFFFFFFFFFFFFFFFFFFFFFFF AND DUP2 MSTORE PUSH1 0x20 ADD SWAP1 DUP2 MSTORE PUSH1 0x20 ADD PUSH1 0x0 KECCAK256 PUSH1 0x0 DUP3 DUP3 SLOAD PUSH2 0x33C1 SWAP2 SWAP1 PUSH2 0x5424 JUMP JUMPDEST SWAP3 POP POP DUP2 SWAP1 SSTORE POP DUP2 PUSH1 0x2 PUSH1 0x0 DUP4 DUP2 MSTORE PUSH1 0x20 ADD SWAP1 DUP2 MSTORE PUSH1 0x20 ADD PUSH1 0x0 KECCAK256 PUSH1 0x0 PUSH2 0x100 EXP DUP2 SLOAD DUP2 PUSH20 0xFFFFFFFFFFFFFFFFFFFFFFFFFFFFFFFFFFFFFFFF MUL NOT AND SWAP1 DUP4 PUSH20 0xFFFFFFFFFFFFFFFFFFFFFFFFFFFFFFFFFFFFFFFF AND MUL OR SWAP1 SSTORE POP DUP1 DUP3 PUSH20 0xFFFFFFFFFFFFFFFFFFFFFFFFFFFFFFFFFFFFFFFF AND DUP5 PUSH20 0xFFFFFFFFFFFFFFFFFFFFFFFFFFFFFFFFFFFFFFFF AND PUSH32 0xDDF252AD1BE2C89B69C2B068FC378DAA952BA7F163C4A11628F55A4DF523B3EF PUSH1 0x40 MLOAD PUSH1 0x40 MLOAD DUP1 SWAP2 SUB SWAP1 LOG4 POP POP POP JUMP JUMPDEST PUSH1 0x0 CALLER SWAP1 POP SWAP1 JUMP JUMPDEST PUSH1 0x0 DUP1 PUSH20 0xFFFFFFFFFFFFFFFFFFFFFFFFFFFFFFFFFFFFFFFF AND DUP4 PUSH20 0xFFFFFFFFFFFFFFFFFFFFFFFFFFFFFFFFFFFFFFFF AND EQ ISZERO PUSH2 0x34F3 JUMPI PUSH1 0x40 MLOAD PUSH32 0x8C379A000000000000000000000000000000000000000000000000000000000 DUP2 MSTORE PUSH1 0x4 ADD PUSH2 0x34EA SWAP1 PUSH2 0x50F5 JUMP JUMPDEST PUSH1 0x40 MLOAD DUP1 SWAP2 SUB SWAP1 REVERT JUMPDEST PUSH1 0x0 PUSH1 0x10 SLOAD SWAP1 POP PUSH2 0x3506 PUSH1 0x0 DUP6 DUP4 PUSH2 0x3899 JUMP JUMPDEST PUSH1 0x1 PUSH1 0x3 PUSH1 0x0 DUP7 PUSH20 0xFFFFFFFFFFFFFFFFFFFFFFFFFFFFFFFFFFFFFFFF AND PUSH20 0xFFFFFFFFFFFFFFFFFFFFFFFFFFFFFFFFFFFFFFFF AND DUP2 MSTORE PUSH1 0x20 ADD SWAP1 DUP2 MSTORE PUSH1 0x20 ADD PUSH1 0x0 KECCAK256 PUSH1 0x0 DUP3 DUP3 SLOAD PUSH2 0x3556 SWAP2 SWAP1 PUSH2 0x5424 JUMP JUMPDEST SWAP3 POP POP DUP2 SWAP1 SSTORE POP DUP4 PUSH1 0x2 PUSH1 0x0 DUP4 DUP2 MSTORE PUSH1 0x20 ADD SWAP1 DUP2 MSTORE PUSH1 0x20 ADD PUSH1 0x0 KECCAK256 PUSH1 0x0 PUSH2 0x100 EXP DUP2 SLOAD DUP2 PUSH20 0xFFFFFFFFFFFFFFFFFFFFFFFFFFFFFFFFFFFFFFFF MUL NOT AND SWAP1 DUP4 PUSH20 0xFFFFFFFFFFFFFFFFFFFFFFFFFFFFFFFFFFFFFFFF AND MUL OR SWAP1 SSTORE POP DUP3 PUSH1 0x14 PUSH1 0x0 DUP4 DUP2 MSTORE PUSH1 0x20 ADD SWAP1 DUP2 MSTORE PUSH1 0x20 ADD PUSH1 0x0 KECCAK256 DUP2 SWAP1 SSTORE POP PUSH2 0x35DD PUSH1 0x1 PUSH1 0x10 SLOAD PUSH2 0x39AD SWAP1 SWAP2 SWAP1 PUSH4 0xFFFFFFFF AND JUMP JUMPDEST PUSH1 0x10 DUP2 SWAP1 SSTORE POP DUP1 DUP5 PUSH20 0xFFFFFFFFFFFFFFFFFFFFFFFFFFFFFFFFFFFFFFFF AND PUSH1 0x0 PUSH20 0xFFFFFFFFFFFFFFFFFFFFFFFFFFFFFFFFFFFFFFFF AND PUSH32 0xDDF252AD1BE2C89B69C2B068FC378DAA952BA7F163C4A11628F55A4DF523B3EF PUSH1 0x40 MLOAD PUSH1 0x40 MLOAD DUP1 SWAP2 SUB SWAP1 LOG4 DUP1 SWAP2 POP POP SWAP3 SWAP2 POP POP JUMP JUMPDEST PUSH1 0x0 DUP1 DUP3 EXTCODESIZE SWAP1 POP PUSH1 0x0 DUP2 GT SWAP2 POP POP SWAP2 SWAP1 POP JUMP JUMPDEST PUSH1 0x0 PUSH2 0x367D DUP5 PUSH20 0xFFFFFFFFFFFFFFFFFFFFFFFFFFFFFFFFFFFFFFFF AND PUSH2 0x3649 JUMP JUMPDEST ISZERO PUSH2 0x37DF JUMPI DUP4 PUSH20 0xFFFFFFFFFFFFFFFFFFFFFFFFFFFFFFFFFFFFFFFF AND PUSH4 0x150B7A02 CALLER DUP8 DUP7 DUP7 PUSH1 0x40 MLOAD DUP6 PUSH4 0xFFFFFFFF AND PUSH1 0xE0 SHL DUP2 MSTORE PUSH1 0x4 ADD PUSH2 0x36C1 SWAP5 SWAP4 SWAP3 SWAP2 SWAP1 PUSH2 0x4E44 JUMP JUMPDEST PUSH1 0x20 PUSH1 0x40 MLOAD DUP1 DUP4 SUB DUP2 PUSH1 0x0 DUP8 DUP1 EXTCODESIZE ISZERO DUP1 ISZERO PUSH2 0x36DB JUMPI PUSH1 0x0 DUP1 REVERT JUMPDEST POP GAS CALL SWAP3 POP POP POP DUP1 ISZERO PUSH2 0x370C JUMPI POP PUSH1 0x40 MLOAD RETURNDATASIZE PUSH1 0x1F NOT PUSH1 0x1F DUP3 ADD AND DUP3 ADD DUP1 PUSH1 0x40 MSTORE POP DUP2 ADD SWAP1 PUSH2 0x3709 SWAP2 SWAP1 PUSH2 0x46FE JUMP JUMPDEST PUSH1 0x1 JUMPDEST PUSH2 0x378F JUMPI RETURNDATASIZE DUP1 PUSH1 0x0 DUP2 EQ PUSH2 0x373C JUMPI PUSH1 0x40 MLOAD SWAP2 POP PUSH1 0x1F NOT PUSH1 0x3F RETURNDATASIZE ADD AND DUP3 ADD PUSH1 0x40 MSTORE RETURNDATASIZE DUP3 MSTORE RETURNDATASIZE PUSH1 0x0 PUSH1 0x20 DUP5 ADD RETURNDATACOPY PUSH2 0x3741 JUMP JUMPDEST PUSH1 0x60 SWAP2 POP JUMPDEST POP PUSH1 0x0 DUP2 MLOAD EQ ISZERO PUSH2 0x3787 JUMPI PUSH1 0x40 MLOAD PUSH32 0x8C379A000000000000000000000000000000000000000000000000000000000 DUP2 MSTORE PUSH1 0x4 ADD PUSH2 0x377E SWAP1 PUSH2 0x4F75 JUMP JUMPDEST PUSH1 0x40 MLOAD DUP1 SWAP2 SUB SWAP1 REVERT JUMPDEST DUP1 MLOAD DUP2 PUSH1 0x20 ADD REVERT JUMPDEST PUSH4 0x150B7A02 PUSH1 0xE0 SHL PUSH28 0xFFFFFFFFFFFFFFFFFFFFFFFFFFFFFFFFFFFFFFFFFFFFFFFFFFFFFFFF NOT AND DUP2 PUSH28 0xFFFFFFFFFFFFFFFFFFFFFFFFFFFFFFFFFFFFFFFFFFFFFFFFFFFFFFFF NOT AND EQ SWAP2 POP POP PUSH2 0x37E4 JUMP JUMPDEST PUSH1 0x1 SWAP1 POP JUMPDEST SWAP5 SWAP4 POP POP POP POP JUMP JUMPDEST PUSH2 0x37F7 DUP5 DUP5 DUP5 PUSH2 0x321E JUMP JUMPDEST PUSH2 0x3803 DUP5 DUP5 DUP5 DUP5 PUSH2 0x365C JUMP JUMPDEST PUSH2 0x3842 JUMPI PUSH1 0x40 MLOAD PUSH32 0x8C379A000000000000000000000000000000000000000000000000000000000 DUP2 MSTORE PUSH1 0x4 ADD PUSH2 0x3839 SWAP1 PUSH2 0x4F75 JUMP JUMPDEST PUSH1 0x40 MLOAD DUP1 SWAP2 SUB SWAP1 REVERT JUMPDEST POP POP POP POP JUMP JUMPDEST PUSH1 0x0 PUSH4 0x1FFC9A7 PUSH1 0xE0 SHL PUSH28 0xFFFFFFFFFFFFFFFFFFFFFFFFFFFFFFFFFFFFFFFFFFFFFFFFFFFFFFFF NOT AND DUP3 PUSH28 0xFFFFFFFFFFFFFFFFFFFFFFFFFFFFFFFFFFFFFFFFFFFFFFFFFFFFFFFF NOT AND EQ SWAP1 POP SWAP2 SWAP1 POP JUMP JUMPDEST PUSH2 0x38A4 DUP4 DUP4 DUP4 PUSH2 0x39C3 JUMP JUMPDEST PUSH1 0x0 PUSH20 0xFFFFFFFFFFFFFFFFFFFFFFFFFFFFFFFFFFFFFFFF AND DUP4 PUSH20 0xFFFFFFFFFFFFFFFFFFFFFFFFFFFFFFFFFFFFFFFF AND EQ ISZERO PUSH2 0x38E7 JUMPI PUSH2 0x38E2 DUP2 PUSH2 0x39C8 JUMP JUMPDEST PUSH2 0x3926 JUMP JUMPDEST DUP2 PUSH20 0xFFFFFFFFFFFFFFFFFFFFFFFFFFFFFFFFFFFFFFFF AND DUP4 PUSH20 0xFFFFFFFFFFFFFFFFFFFFFFFFFFFFFFFFFFFFFFFF AND EQ PUSH2 0x3925 JUMPI PUSH2 0x3924 DUP4 DUP3 PUSH2 0x3A11 JUMP JUMPDEST JUMPDEST JUMPDEST PUSH1 0x0 PUSH20 0xFFFFFFFFFFFFFFFFFFFFFFFFFFFFFFFFFFFFFFFF AND DUP3 PUSH20 0xFFFFFFFFFFFFFFFFFFFFFFFFFFFFFFFFFFFFFFFF AND EQ ISZERO PUSH2 0x3969 JUMPI PUSH2 0x3964 DUP2 PUSH2 0x3B7E JUMP JUMPDEST PUSH2 0x39A8 JUMP JUMPDEST DUP3 PUSH20 0xFFFFFFFFFFFFFFFFFFFFFFFFFFFFFFFFFFFFFFFF AND DUP3 PUSH20 0xFFFFFFFFFFFFFFFFFFFFFFFFFFFFFFFFFFFFFFFF AND EQ PUSH2 0x39A7 JUMPI PUSH2 0x39A6 DUP3 DUP3 PUSH2 0x3C4F JUMP JUMPDEST JUMPDEST JUMPDEST POP POP POP JUMP JUMPDEST PUSH1 0x0 DUP2 DUP4 PUSH2 0x39BB SWAP2 SWAP1 PUSH2 0x5424 JUMP JUMPDEST SWAP1 POP SWAP3 SWAP2 POP POP JUMP JUMPDEST POP POP POP JUMP JUMPDEST PUSH1 0x8 DUP1 SLOAD SWAP1 POP PUSH1 0x9 PUSH1 0x0 DUP4 DUP2 MSTORE PUSH1 0x20 ADD SWAP1 DUP2 MSTORE PUSH1 0x20 ADD PUSH1 0x0 KECCAK256 DUP2 SWAP1 SSTORE POP PUSH1 0x8 DUP2 SWAP1 DUP1 PUSH1 0x1 DUP2 SLOAD ADD DUP1 DUP3 SSTORE DUP1 SWAP2 POP POP PUSH1 0x1 SWAP1 SUB SWAP1 PUSH1 0x0 MSTORE PUSH1 0x20 PUSH1 0x0 KECCAK256 ADD PUSH1 0x0 SWAP1 SWAP2 SWAP1 SWAP2 SWAP1 SWAP2 POP SSTORE POP JUMP JUMPDEST PUSH1 0x0 PUSH1 0x1 PUSH2 0x3A1E DUP5 PUSH2 0x197D JUMP JUMPDEST PUSH2 0x3A28 SWAP2 SWAP1 PUSH2 0x547A JUMP JUMPDEST SWAP1 POP PUSH1 0x0 PUSH1 0x7 PUSH1 0x0 DUP5 DUP2 MSTORE PUSH1 0x20 ADD SWAP1 DUP2 MSTORE PUSH1 0x20 ADD PUSH1 0x0 KECCAK256 SLOAD SWAP1 POP DUP2 DUP2 EQ PUSH2 0x3B0D JUMPI PUSH1 0x0 PUSH1 0x6 PUSH1 0x0 DUP7 PUSH20 0xFFFFFFFFFFFFFFFFFFFFFFFFFFFFFFFFFFFFFFFF AND PUSH20 0xFFFFFFFFFFFFFFFFFFFFFFFFFFFFFFFFFFFFFFFF AND DUP2 MSTORE PUSH1 0x20 ADD SWAP1 DUP2 MSTORE PUSH1 0x20 ADD PUSH1 0x0 KECCAK256 PUSH1 0x0 DUP5 DUP2 MSTORE PUSH1 0x20 ADD SWAP1 DUP2 MSTORE PUSH1 0x20 ADD PUSH1 0x0 KECCAK256 SLOAD SWAP1 POP DUP1 PUSH1 0x6 PUSH1 0x0 DUP8 PUSH20 0xFFFFFFFFFFFFFFFFFFFFFFFFFFFFFFFFFFFFFFFF AND PUSH20 0xFFFFFFFFFFFFFFFFFFFFFFFFFFFFFFFFFFFFFFFF AND DUP2 MSTORE PUSH1 0x20 ADD SWAP1 DUP2 MSTORE PUSH1 0x20 ADD PUSH1 0x0 KECCAK256 PUSH1 0x0 DUP5 DUP2 MSTORE PUSH1 0x20 ADD SWAP1 DUP2 MSTORE PUSH1 0x20 ADD PUSH1 0x0 KECCAK256 DUP2 SWAP1 SSTORE POP DUP2 PUSH1 0x7 PUSH1 0x0 DUP4 DUP2 MSTORE PUSH1 0x20 ADD SWAP1 DUP2 MSTORE PUSH1 0x20 ADD PUSH1 0x0 KECCAK256 DUP2 SWAP1 SSTORE POP POP JUMPDEST PUSH1 0x7 PUSH1 0x0 DUP5 DUP2 MSTORE PUSH1 0x20 ADD SWAP1 DUP2 MSTORE PUSH1 0x20 ADD PUSH1 0x0 KECCAK256 PUSH1 0x0 SWAP1 SSTORE PUSH1 0x6 PUSH1 0x0 DUP6 PUSH20 0xFFFFFFFFFFFFFFFFFFFFFFFFFFFFFFFFFFFFFFFF AND PUSH20 0xFFFFFFFFFFFFFFFFFFFFFFFFFFFFFFFFFFFFFFFF AND DUP2 MSTORE PUSH1 0x20 ADD SWAP1 DUP2 MSTORE PUSH1 0x20 ADD PUSH1 0x0 KECCAK256 PUSH1 0x0 DUP4 DUP2 MSTORE PUSH1 0x20 ADD SWAP1 DUP2 MSTORE PUSH1 0x20 ADD PUSH1 0x0 KECCAK256 PUSH1 0x0 SWAP1 SSTORE POP POP POP POP JUMP JUMPDEST PUSH1 0x0 PUSH1 0x1 PUSH1 0x8 DUP1 SLOAD SWAP1 POP PUSH2 0x3B92 SWAP2 SWAP1 PUSH2 0x547A JUMP JUMPDEST SWAP1 POP PUSH1 0x0 PUSH1 0x9 PUSH1 0x0 DUP5 DUP2 MSTORE PUSH1 0x20 ADD SWAP1 DUP2 MSTORE PUSH1 0x20 ADD PUSH1 0x0 KECCAK256 SLOAD SWAP1 POP PUSH1 0x0 PUSH1 0x8 DUP4 DUP2 SLOAD DUP2 LT PUSH2 0x3BC2 JUMPI PUSH2 0x3BC1 PUSH2 0x56A7 JUMP JUMPDEST JUMPDEST SWAP1 PUSH1 0x0 MSTORE PUSH1 0x20 PUSH1 0x0 KECCAK256 ADD SLOAD SWAP1 POP DUP1 PUSH1 0x8 DUP4 DUP2 SLOAD DUP2 LT PUSH2 0x3BE4 JUMPI PUSH2 0x3BE3 PUSH2 0x56A7 JUMP JUMPDEST JUMPDEST SWAP1 PUSH1 0x0 MSTORE PUSH1 0x20 PUSH1 0x0 KECCAK256 ADD DUP2 SWAP1 SSTORE POP DUP2 PUSH1 0x9 PUSH1 0x0 DUP4 DUP2 MSTORE PUSH1 0x20 ADD SWAP1 DUP2 MSTORE PUSH1 0x20 ADD PUSH1 0x0 KECCAK256 DUP2 SWAP1 SSTORE POP PUSH1 0x9 PUSH1 0x0 DUP6 DUP2 MSTORE PUSH1 0x20 ADD SWAP1 DUP2 MSTORE PUSH1 0x20 ADD PUSH1 0x0 KECCAK256 PUSH1 0x0 SWAP1 SSTORE PUSH1 0x8 DUP1 SLOAD DUP1 PUSH2 0x3C33 JUMPI PUSH2 0x3C32 PUSH2 0x5678 JUMP JUMPDEST JUMPDEST PUSH1 0x1 SWAP1 SUB DUP2 DUP2 SWAP1 PUSH1 0x0 MSTORE PUSH1 0x20 PUSH1 0x0 KECCAK256 ADD PUSH1 0x0 SWAP1 SSTORE SWAP1 SSTORE POP POP POP POP JUMP JUMPDEST PUSH1 0x0 PUSH2 0x3C5A DUP4 PUSH2 0x197D JUMP JUMPDEST SWAP1 POP DUP2 PUSH1 0x6 PUSH1 0x0 DUP6 PUSH20 0xFFFFFFFFFFFFFFFFFFFFFFFFFFFFFFFFFFFFFFFF AND PUSH20 0xFFFFFFFFFFFFFFFFFFFFFFFFFFFFFFFFFFFFFFFF AND DUP2 MSTORE PUSH1 0x20 ADD SWAP1 DUP2 MSTORE PUSH1 0x20 ADD PUSH1 0x0 KECCAK256 PUSH1 0x0 DUP4 DUP2 MSTORE PUSH1 0x20 ADD SWAP1 DUP2 MSTORE PUSH1 0x20 ADD PUSH1 0x0 KECCAK256 DUP2 SWAP1 SSTORE POP DUP1 PUSH1 0x7 PUSH1 0x0 DUP5 DUP2 MSTORE PUSH1 0x20 ADD SWAP1 DUP2 MSTORE PUSH1 0x20 ADD PUSH1 0x0 KECCAK256 DUP2 SWAP1 SSTORE POP POP POP POP JUMP JUMPDEST DUP3 DUP1 SLOAD PUSH2 0x3CDA SWAP1 PUSH2 0x556E JUMP JUMPDEST SWAP1 PUSH1 0x0 MSTORE PUSH1 0x20 PUSH1 0x0 KECCAK256 SWAP1 PUSH1 0x1F ADD PUSH1 0x20 SWAP1 DIV DUP2 ADD SWAP3 DUP3 PUSH2 0x3CFC JUMPI PUSH1 0x0 DUP6 SSTORE PUSH2 0x3D43 JUMP JUMPDEST DUP3 PUSH1 0x1F LT PUSH2 0x3D15 JUMPI DUP1 CALLDATALOAD PUSH1 0xFF NOT AND DUP4 DUP1 ADD OR DUP6 SSTORE PUSH2 0x3D43 JUMP JUMPDEST DUP3 DUP1 ADD PUSH1 0x1 ADD DUP6 SSTORE DUP3 ISZERO PUSH2 0x3D43 JUMPI SWAP2 DUP3 ADD JUMPDEST DUP3 DUP2 GT ISZERO PUSH2 0x3D42 JUMPI DUP3 CALLDATALOAD DUP3 SSTORE SWAP2 PUSH1 0x20 ADD SWAP2 SWAP1 PUSH1 0x1 ADD SWAP1 PUSH2 0x3D27 JUMP JUMPDEST JUMPDEST POP SWAP1 POP PUSH2 0x3D50 SWAP2 SWAP1 PUSH2 0x3D54 JUMP JUMPDEST POP SWAP1 JUMP JUMPDEST JUMPDEST DUP1 DUP3 GT ISZERO PUSH2 0x3D6D JUMPI PUSH1 0x0 DUP2 PUSH1 0x0 SWAP1 SSTORE POP PUSH1 0x1 ADD PUSH2 0x3D55 JUMP JUMPDEST POP SWAP1 JUMP JUMPDEST PUSH1 0x0 PUSH2 0x3D84 PUSH2 0x3D7F DUP5 PUSH2 0x5318 JUMP JUMPDEST PUSH2 0x52F3 JUMP JUMPDEST SWAP1 POP DUP3 DUP2 MSTORE PUSH1 0x20 DUP2 ADD DUP5 DUP5 DUP5 ADD GT ISZERO PUSH2 0x3DA0 JUMPI PUSH2 0x3D9F PUSH2 0x5723 JUMP JUMPDEST JUMPDEST PUSH2 0x3DAB DUP5 DUP3 DUP6 PUSH2 0x552C JUMP JUMPDEST POP SWAP4 SWAP3 POP POP POP JUMP JUMPDEST PUSH1 0x0 DUP2 CALLDATALOAD SWAP1 POP PUSH2 0x3DC2 DUP2 PUSH2 0x5E19 JUMP JUMPDEST SWAP3 SWAP2 POP POP JUMP JUMPDEST PUSH1 0x0 DUP1 DUP4 PUSH1 0x1F DUP5 ADD SLT PUSH2 0x3DDE JUMPI PUSH2 0x3DDD PUSH2 0x570A JUMP JUMPDEST JUMPDEST DUP3 CALLDATALOAD SWAP1 POP PUSH8 0xFFFFFFFFFFFFFFFF DUP2 GT ISZERO PUSH2 0x3DFB JUMPI PUSH2 0x3DFA PUSH2 0x5705 JUMP JUMPDEST JUMPDEST PUSH1 0x20 DUP4 ADD SWAP2 POP DUP4 PUSH1 0x20 DUP3 MUL DUP4 ADD GT ISZERO PUSH2 0x3E17 JUMPI PUSH2 0x3E16 PUSH2 0x5719 JUMP JUMPDEST JUMPDEST SWAP3 POP SWAP3 SWAP1 POP JUMP JUMPDEST PUSH1 0x0 DUP1 DUP4 PUSH1 0x1F DUP5 ADD SLT PUSH2 0x3E34 JUMPI PUSH2 0x3E33 PUSH2 0x570A JUMP JUMPDEST JUMPDEST DUP3 CALLDATALOAD SWAP1 POP PUSH8 0xFFFFFFFFFFFFFFFF DUP2 GT ISZERO PUSH2 0x3E51 JUMPI PUSH2 0x3E50 PUSH2 0x5705 JUMP JUMPDEST JUMPDEST PUSH1 0x20 DUP4 ADD SWAP2 POP DUP4 PUSH1 0x20 DUP3 MUL DUP4 ADD GT ISZERO PUSH2 0x3E6D JUMPI PUSH2 0x3E6C PUSH2 0x5719 JUMP JUMPDEST JUMPDEST SWAP3 POP SWAP3 SWAP1 POP JUMP JUMPDEST PUSH1 0x0 DUP1 DUP4 PUSH1 0x1F DUP5 ADD SLT PUSH2 0x3E8A JUMPI PUSH2 0x3E89 PUSH2 0x570A JUMP JUMPDEST JUMPDEST DUP3 CALLDATALOAD SWAP1 POP PUSH8 0xFFFFFFFFFFFFFFFF DUP2 GT ISZERO PUSH2 0x3EA7 JUMPI PUSH2 0x3EA6 PUSH2 0x5705 JUMP JUMPDEST JUMPDEST PUSH1 0x20 DUP4 ADD SWAP2 POP DUP4 PUSH1 0x20 DUP3 MUL DUP4 ADD GT ISZERO PUSH2 0x3EC3 JUMPI PUSH2 0x3EC2 PUSH2 0x5719 JUMP JUMPDEST JUMPDEST SWAP3 POP SWAP3 SWAP1 POP JUMP JUMPDEST PUSH1 0x0 DUP1 DUP4 PUSH1 0x1F DUP5 ADD SLT PUSH2 0x3EE0 JUMPI PUSH2 0x3EDF PUSH2 0x570A JUMP JUMPDEST JUMPDEST DUP3 CALLDATALOAD SWAP1 POP PUSH8 0xFFFFFFFFFFFFFFFF DUP2 GT ISZERO PUSH2 0x3EFD JUMPI PUSH2 0x3EFC PUSH2 0x5705 JUMP JUMPDEST JUMPDEST PUSH1 0x20 DUP4 ADD SWAP2 POP DUP4 PUSH1 0x20 DUP3 MUL DUP4 ADD GT ISZERO PUSH2 0x3F19 JUMPI PUSH2 0x3F18 PUSH2 0x5719 JUMP JUMPDEST JUMPDEST SWAP3 POP SWAP3 SWAP1 POP JUMP JUMPDEST PUSH1 0x0 DUP2 CALLDATALOAD SWAP1 POP PUSH2 0x3F2F DUP2 PUSH2 0x5E30 JUMP JUMPDEST SWAP3 SWAP2 POP POP JUMP JUMPDEST PUSH1 0x0 DUP2 CALLDATALOAD SWAP1 POP PUSH2 0x3F44 DUP2 PUSH2 0x5E47 JUMP JUMPDEST SWAP3 SWAP2 POP POP JUMP JUMPDEST PUSH1 0x0 DUP2 CALLDATALOAD SWAP1 POP PUSH2 0x3F59 DUP2 PUSH2 0x5E5E JUMP JUMPDEST SWAP3 SWAP2 POP POP JUMP JUMPDEST PUSH1 0x0 DUP2 MLOAD SWAP1 POP PUSH2 0x3F6E DUP2 PUSH2 0x5E5E JUMP JUMPDEST SWAP3 SWAP2 POP POP JUMP JUMPDEST PUSH1 0x0 DUP3 PUSH1 0x1F DUP4 ADD SLT PUSH2 0x3F89 JUMPI PUSH2 0x3F88 PUSH2 0x570A JUMP JUMPDEST JUMPDEST DUP2 CALLDATALOAD PUSH2 0x3F99 DUP5 DUP3 PUSH1 0x20 DUP7 ADD PUSH2 0x3D71 JUMP JUMPDEST SWAP2 POP POP SWAP3 SWAP2 POP POP JUMP JUMPDEST PUSH1 0x0 DUP1 DUP4 PUSH1 0x1F DUP5 ADD SLT PUSH2 0x3FB8 JUMPI PUSH2 0x3FB7 PUSH2 0x570A JUMP JUMPDEST JUMPDEST DUP3 CALLDATALOAD SWAP1 POP PUSH8 0xFFFFFFFFFFFFFFFF DUP2 GT ISZERO PUSH2 0x3FD5 JUMPI PUSH2 0x3FD4 PUSH2 0x5705 JUMP JUMPDEST JUMPDEST PUSH1 0x20 DUP4 ADD SWAP2 POP DUP4 PUSH1 0x1 DUP3 MUL DUP4 ADD GT ISZERO PUSH2 0x3FF1 JUMPI PUSH2 0x3FF0 PUSH2 0x5719 JUMP JUMPDEST JUMPDEST SWAP3 POP SWAP3 SWAP1 POP JUMP JUMPDEST PUSH1 0x0 DUP2 CALLDATALOAD SWAP1 POP PUSH2 0x4007 DUP2 PUSH2 0x5E75 JUMP JUMPDEST SWAP3 SWAP2 POP POP JUMP JUMPDEST PUSH1 0x0 PUSH1 0x20 DUP3 DUP5 SUB SLT ISZERO PUSH2 0x4023 JUMPI PUSH2 0x4022 PUSH2 0x572D JUMP JUMPDEST JUMPDEST PUSH1 0x0 PUSH2 0x4031 DUP5 DUP3 DUP6 ADD PUSH2 0x3DB3 JUMP JUMPDEST SWAP2 POP POP SWAP3 SWAP2 POP POP JUMP JUMPDEST PUSH1 0x0 DUP1 PUSH1 0x40 DUP4 DUP6 SUB SLT ISZERO PUSH2 0x4051 JUMPI PUSH2 0x4050 PUSH2 0x572D JUMP JUMPDEST JUMPDEST PUSH1 0x0 PUSH2 0x405F DUP6 DUP3 DUP7 ADD PUSH2 0x3DB3 JUMP JUMPDEST SWAP3 POP POP PUSH1 0x20 PUSH2 0x4070 DUP6 DUP3 DUP7 ADD PUSH2 0x3DB3 JUMP JUMPDEST SWAP2 POP POP SWAP3 POP SWAP3 SWAP1 POP JUMP JUMPDEST PUSH1 0x0 DUP1 PUSH1 0x0 PUSH1 0x60 DUP5 DUP7 SUB SLT ISZERO PUSH2 0x4093 JUMPI PUSH2 0x4092 PUSH2 0x572D JUMP JUMPDEST JUMPDEST PUSH1 0x0 PUSH2 0x40A1 DUP7 DUP3 DUP8 ADD PUSH2 0x3DB3 JUMP JUMPDEST SWAP4 POP POP PUSH1 0x20 PUSH2 0x40B2 DUP7 DUP3 DUP8 ADD PUSH2 0x3DB3 JUMP JUMPDEST SWAP3 POP POP PUSH1 0x40 PUSH2 0x40C3 DUP7 DUP3 DUP8 ADD PUSH2 0x3FF8 JUMP JUMPDEST SWAP2 POP POP SWAP3 POP SWAP3 POP SWAP3 JUMP JUMPDEST PUSH1 0x0 DUP1 PUSH1 0x0 DUP1 PUSH1 0x80 DUP6 DUP8 SUB SLT ISZERO PUSH2 0x40E7 JUMPI PUSH2 0x40E6 PUSH2 0x572D JUMP JUMPDEST JUMPDEST PUSH1 0x0 PUSH2 0x40F5 DUP8 DUP3 DUP9 ADD PUSH2 0x3DB3 JUMP JUMPDEST SWAP5 POP POP PUSH1 0x20 PUSH2 0x4106 DUP8 DUP3 DUP9 ADD PUSH2 0x3DB3 JUMP JUMPDEST SWAP4 POP POP PUSH1 0x40 PUSH2 0x4117 DUP8 DUP3 DUP9 ADD PUSH2 0x3FF8 JUMP JUMPDEST SWAP3 POP POP PUSH1 0x60 DUP6 ADD CALLDATALOAD PUSH8 0xFFFFFFFFFFFFFFFF DUP2 GT ISZERO PUSH2 0x4138 JUMPI PUSH2 0x4137 PUSH2 0x5728 JUMP JUMPDEST JUMPDEST PUSH2 0x4144 DUP8 DUP3 DUP9 ADD PUSH2 0x3F74 JUMP JUMPDEST SWAP2 POP POP SWAP3 SWAP6 SWAP2 SWAP5 POP SWAP3 POP JUMP JUMPDEST PUSH1 0x0 DUP1 PUSH1 0x0 DUP1 PUSH1 0x0 PUSH1 0x60 DUP7 DUP9 SUB SLT ISZERO PUSH2 0x416C JUMPI PUSH2 0x416B PUSH2 0x572D JUMP JUMPDEST JUMPDEST PUSH1 0x0 PUSH2 0x417A DUP9 DUP3 DUP10 ADD PUSH2 0x3DB3 JUMP JUMPDEST SWAP6 POP POP PUSH1 0x20 DUP7 ADD CALLDATALOAD PUSH8 0xFFFFFFFFFFFFFFFF DUP2 GT ISZERO PUSH2 0x419B JUMPI PUSH2 0x419A PUSH2 0x5728 JUMP JUMPDEST JUMPDEST PUSH2 0x41A7 DUP9 DUP3 DUP10 ADD PUSH2 0x3DC8 JUMP JUMPDEST SWAP5 POP SWAP5 POP POP PUSH1 0x40 DUP7 ADD CALLDATALOAD PUSH8 0xFFFFFFFFFFFFFFFF DUP2 GT ISZERO PUSH2 0x41CA JUMPI PUSH2 0x41C9 PUSH2 0x5728 JUMP JUMPDEST JUMPDEST PUSH2 0x41D6 DUP9 DUP3 DUP10 ADD PUSH2 0x3ECA JUMP JUMPDEST SWAP3 POP SWAP3 POP POP SWAP3 SWAP6 POP SWAP3 SWAP6 SWAP1 SWAP4 POP JUMP JUMPDEST PUSH1 0x0 DUP1 PUSH1 0x40 DUP4 DUP6 SUB SLT ISZERO PUSH2 0x41FC JUMPI PUSH2 0x41FB PUSH2 0x572D JUMP JUMPDEST JUMPDEST PUSH1 0x0 PUSH2 0x420A DUP6 DUP3 DUP7 ADD PUSH2 0x3DB3 JUMP JUMPDEST SWAP3 POP POP PUSH1 0x20 PUSH2 0x421B DUP6 DUP3 DUP7 ADD PUSH2 0x3F20 JUMP JUMPDEST SWAP2 POP POP SWAP3 POP SWAP3 SWAP1 POP JUMP JUMPDEST PUSH1 0x0 DUP1 PUSH1 0x40 DUP4 DUP6 SUB SLT ISZERO PUSH2 0x423C JUMPI PUSH2 0x423B PUSH2 0x572D JUMP JUMPDEST JUMPDEST PUSH1 0x0 PUSH2 0x424A DUP6 DUP3 DUP7 ADD PUSH2 0x3DB3 JUMP JUMPDEST SWAP3 POP POP PUSH1 0x20 PUSH2 0x425B DUP6 DUP3 DUP7 ADD PUSH2 0x3FF8 JUMP JUMPDEST SWAP2 POP POP SWAP3 POP SWAP3 SWAP1 POP JUMP JUMPDEST PUSH1 0x0 DUP1 PUSH1 0x0 PUSH1 0x40 DUP5 DUP7 SUB SLT ISZERO PUSH2 0x427E JUMPI PUSH2 0x427D PUSH2 0x572D JUMP JUMPDEST JUMPDEST PUSH1 0x0 DUP5 ADD CALLDATALOAD PUSH8 0xFFFFFFFFFFFFFFFF DUP2 GT ISZERO PUSH2 0x429C JUMPI PUSH2 0x429B PUSH2 0x5728 JUMP JUMPDEST JUMPDEST PUSH2 0x42A8 DUP7 DUP3 DUP8 ADD PUSH2 0x3DC8 JUMP JUMPDEST SWAP4 POP SWAP4 POP POP PUSH1 0x20 PUSH2 0x42BB DUP7 DUP3 DUP8 ADD PUSH2 0x3FF8 JUMP JUMPDEST SWAP2 POP POP SWAP3 POP SWAP3 POP SWAP3 JUMP JUMPDEST PUSH1 0x0 DUP1 PUSH1 0x0 DUP1 PUSH1 0x40 DUP6 DUP8 SUB SLT ISZERO PUSH2 0x42DF JUMPI PUSH2 0x42DE PUSH2 0x572D JUMP JUMPDEST JUMPDEST PUSH1 0x0 DUP6 ADD CALLDATALOAD PUSH8 0xFFFFFFFFFFFFFFFF DUP2 GT ISZERO PUSH2 0x42FD JUMPI PUSH2 0x42FC PUSH2 0x5728 JUMP JUMPDEST JUMPDEST PUSH2 0x4309 DUP8 DUP3 DUP9 ADD PUSH2 0x3E1E JUMP JUMPDEST SWAP5 POP SWAP5 POP POP PUSH1 0x20 DUP6 ADD CALLDATALOAD PUSH8 0xFFFFFFFFFFFFFFFF DUP2 GT ISZERO PUSH2 0x432C JUMPI PUSH2 0x432B PUSH2 0x5728 JUMP JUMPDEST JUMPDEST PUSH2 0x4338 DUP8 DUP3 DUP9 ADD PUSH2 0x3ECA JUMP JUMPDEST SWAP3 POP SWAP3 POP POP SWAP3 SWAP6 SWAP2 SWAP5 POP SWAP3 POP JUMP JUMPDEST PUSH1 0x0 DUP1 PUSH1 0x0 DUP1 PUSH1 0x0 DUP1 PUSH1 0x60 DUP8 DUP10 SUB SLT ISZERO PUSH2 0x4363 JUMPI PUSH2 0x4362 PUSH2 0x572D JUMP JUMPDEST JUMPDEST PUSH1 0x0 DUP8 ADD CALLDATALOAD PUSH8 0xFFFFFFFFFFFFFFFF DUP2 GT ISZERO PUSH2 0x4381 JUMPI PUSH2 0x4380 PUSH2 0x5728 JUMP JUMPDEST JUMPDEST PUSH2 0x438D DUP10 DUP3 DUP11 ADD PUSH2 0x3E1E JUMP JUMPDEST SWAP7 POP SWAP7 POP POP PUSH1 0x20 DUP8 ADD CALLDATALOAD PUSH8 0xFFFFFFFFFFFFFFFF DUP2 GT ISZERO PUSH2 0x43B0 JUMPI PUSH2 0x43AF PUSH2 0x5728 JUMP JUMPDEST JUMPDEST PUSH2 0x43BC DUP10 DUP3 DUP11 ADD PUSH2 0x3ECA JUMP JUMPDEST SWAP5 POP SWAP5 POP POP PUSH1 0x40 DUP8 ADD CALLDATALOAD PUSH8 0xFFFFFFFFFFFFFFFF DUP2 GT ISZERO PUSH2 0x43DF JUMPI PUSH2 0x43DE PUSH2 0x5728 JUMP JUMPDEST JUMPDEST PUSH2 0x43EB DUP10 DUP3 DUP11 ADD PUSH2 0x3ECA JUMP JUMPDEST SWAP3 POP SWAP3 POP POP SWAP3 SWAP6 POP SWAP3 SWAP6 POP SWAP3 SWAP6 JUMP JUMPDEST PUSH1 0x0 DUP1 PUSH1 0x20 DUP4 DUP6 SUB SLT ISZERO PUSH2 0x4411 JUMPI PUSH2 0x4410 PUSH2 0x572D JUMP JUMPDEST JUMPDEST PUSH1 0x0 DUP4 ADD CALLDATALOAD PUSH8 0xFFFFFFFFFFFFFFFF DUP2 GT ISZERO PUSH2 0x442F JUMPI PUSH2 0x442E PUSH2 0x5728 JUMP JUMPDEST JUMPDEST PUSH2 0x443B DUP6 DUP3 DUP7 ADD PUSH2 0x3ECA JUMP JUMPDEST SWAP3 POP SWAP3 POP POP SWAP3 POP SWAP3 SWAP1 POP JUMP JUMPDEST PUSH1 0x0 DUP1 PUSH1 0x0 DUP1 PUSH1 0x40 DUP6 DUP8 SUB SLT ISZERO PUSH2 0x4461 JUMPI PUSH2 0x4460 PUSH2 0x572D JUMP JUMPDEST JUMPDEST PUSH1 0x0 DUP6 ADD CALLDATALOAD PUSH8 0xFFFFFFFFFFFFFFFF DUP2 GT ISZERO PUSH2 0x447F JUMPI PUSH2 0x447E PUSH2 0x5728 JUMP JUMPDEST JUMPDEST PUSH2 0x448B DUP8 DUP3 DUP9 ADD PUSH2 0x3ECA JUMP JUMPDEST SWAP5 POP SWAP5 POP POP PUSH1 0x20 DUP6 ADD CALLDATALOAD PUSH8 0xFFFFFFFFFFFFFFFF DUP2 GT ISZERO PUSH2 0x44AE JUMPI PUSH2 0x44AD PUSH2 0x5728 JUMP JUMPDEST JUMPDEST PUSH2 0x44BA DUP8 DUP3 DUP9 ADD PUSH2 0x3E74 JUMP JUMPDEST SWAP3 POP SWAP3 POP POP SWAP3 SWAP6 SWAP2 SWAP5 POP SWAP3 POP JUMP JUMPDEST PUSH1 0x0 DUP1 PUSH1 0x0 DUP1 PUSH1 0x40 DUP6 DUP8 SUB SLT ISZERO PUSH2 0x44E2 JUMPI PUSH2 0x44E1 PUSH2 0x572D JUMP JUMPDEST JUMPDEST PUSH1 0x0 DUP6 ADD CALLDATALOAD PUSH8 0xFFFFFFFFFFFFFFFF DUP2 GT ISZERO PUSH2 0x4500 JUMPI PUSH2 0x44FF PUSH2 0x5728 JUMP JUMPDEST JUMPDEST PUSH2 0x450C DUP8 DUP3 DUP9 ADD PUSH2 0x3ECA JUMP JUMPDEST SWAP5 POP SWAP5 POP POP PUSH1 0x20 DUP6 ADD CALLDATALOAD PUSH8 0xFFFFFFFFFFFFFFFF DUP2 GT ISZERO PUSH2 0x452F JUMPI PUSH2 0x452E PUSH2 0x5728 JUMP JUMPDEST JUMPDEST PUSH2 0x453B DUP8 DUP3 DUP9 ADD PUSH2 0x3ECA JUMP JUMPDEST SWAP3 POP SWAP3 POP POP SWAP3 SWAP6 SWAP2 SWAP5 POP SWAP3 POP JUMP JUMPDEST PUSH1 0x0 DUP1 PUSH1 0x0 PUSH1 0x40 DUP5 DUP7 SUB SLT ISZERO PUSH2 0x4562 JUMPI PUSH2 0x4561 PUSH2 0x572D JUMP JUMPDEST JUMPDEST PUSH1 0x0 PUSH2 0x4570 DUP7 DUP3 DUP8 ADD PUSH2 0x3F35 JUMP JUMPDEST SWAP4 POP POP PUSH1 0x20 DUP5 ADD CALLDATALOAD PUSH8 0xFFFFFFFFFFFFFFFF DUP2 GT ISZERO PUSH2 0x4591 JUMPI PUSH2 0x4590 PUSH2 0x5728 JUMP JUMPDEST JUMPDEST PUSH2 0x459D DUP7 DUP3 DUP8 ADD PUSH2 0x3ECA JUMP JUMPDEST SWAP3 POP SWAP3 POP POP SWAP3 POP SWAP3 POP SWAP3 JUMP JUMPDEST PUSH1 0x0 DUP1 PUSH1 0x0 DUP1 PUSH1 0x0 PUSH1 0x60 DUP7 DUP9 SUB SLT ISZERO PUSH2 0x45C5 JUMPI PUSH2 0x45C4 PUSH2 0x572D JUMP JUMPDEST JUMPDEST PUSH1 0x0 PUSH2 0x45D3 DUP9 DUP3 DUP10 ADD PUSH2 0x3F35 JUMP JUMPDEST SWAP6 POP POP PUSH1 0x20 DUP7 ADD CALLDATALOAD PUSH8 0xFFFFFFFFFFFFFFFF DUP2 GT ISZERO PUSH2 0x45F4 JUMPI PUSH2 0x45F3 PUSH2 0x5728 JUMP JUMPDEST JUMPDEST PUSH2 0x4600 DUP9 DUP3 DUP10 ADD PUSH2 0x3ECA JUMP JUMPDEST SWAP5 POP SWAP5 POP POP PUSH1 0x40 DUP7 ADD CALLDATALOAD PUSH8 0xFFFFFFFFFFFFFFFF DUP2 GT ISZERO PUSH2 0x4623 JUMPI PUSH2 0x4622 PUSH2 0x5728 JUMP JUMPDEST JUMPDEST PUSH2 0x462F DUP9 DUP3 DUP10 ADD PUSH2 0x3ECA JUMP JUMPDEST SWAP3 POP SWAP3 POP POP SWAP3 SWAP6 POP SWAP3 SWAP6 SWAP1 SWAP4 POP JUMP JUMPDEST PUSH1 0x0 DUP1 PUSH1 0x40 DUP4 DUP6 SUB SLT ISZERO PUSH2 0x4655 JUMPI PUSH2 0x4654 PUSH2 0x572D JUMP JUMPDEST JUMPDEST PUSH1 0x0 PUSH2 0x4663 DUP6 DUP3 DUP7 ADD PUSH2 0x3F35 JUMP JUMPDEST SWAP3 POP POP PUSH1 0x20 PUSH2 0x4674 DUP6 DUP3 DUP7 ADD PUSH2 0x3FF8 JUMP JUMPDEST SWAP2 POP POP SWAP3 POP SWAP3 SWAP1 POP JUMP JUMPDEST PUSH1 0x0 DUP1 PUSH1 0x0 PUSH1 0x60 DUP5 DUP7 SUB SLT ISZERO PUSH2 0x4697 JUMPI PUSH2 0x4696 PUSH2 0x572D JUMP JUMPDEST JUMPDEST PUSH1 0x0 PUSH2 0x46A5 DUP7 DUP3 DUP8 ADD PUSH2 0x3F35 JUMP JUMPDEST SWAP4 POP POP PUSH1 0x20 PUSH2 0x46B6 DUP7 DUP3 DUP8 ADD PUSH2 0x3FF8 JUMP JUMPDEST SWAP3 POP POP PUSH1 0x40 PUSH2 0x46C7 DUP7 DUP3 DUP8 ADD PUSH2 0x3FF8 JUMP JUMPDEST SWAP2 POP POP SWAP3 POP SWAP3 POP SWAP3 JUMP JUMPDEST PUSH1 0x0 PUSH1 0x20 DUP3 DUP5 SUB SLT ISZERO PUSH2 0x46E7 JUMPI PUSH2 0x46E6 PUSH2 0x572D JUMP JUMPDEST JUMPDEST PUSH1 0x0 PUSH2 0x46F5 DUP5 DUP3 DUP6 ADD PUSH2 0x3F4A JUMP JUMPDEST SWAP2 POP POP SWAP3 SWAP2 POP POP JUMP JUMPDEST PUSH1 0x0 PUSH1 0x20 DUP3 DUP5 SUB SLT ISZERO PUSH2 0x4714 JUMPI PUSH2 0x4713 PUSH2 0x572D JUMP JUMPDEST JUMPDEST PUSH1 0x0 PUSH2 0x4722 DUP5 DUP3 DUP6 ADD PUSH2 0x3F5F JUMP JUMPDEST SWAP2 POP POP SWAP3 SWAP2 POP POP JUMP JUMPDEST PUSH1 0x0 DUP1 PUSH1 0x20 DUP4 DUP6 SUB SLT ISZERO PUSH2 0x4742 JUMPI PUSH2 0x4741 PUSH2 0x572D JUMP JUMPDEST JUMPDEST PUSH1 0x0 DUP4 ADD CALLDATALOAD PUSH8 0xFFFFFFFFFFFFFFFF DUP2 GT ISZERO PUSH2 0x4760 JUMPI PUSH2 0x475F PUSH2 0x5728 JUMP JUMPDEST JUMPDEST PUSH2 0x476C DUP6 DUP3 DUP7 ADD PUSH2 0x3FA2 JUMP JUMPDEST SWAP3 POP SWAP3 POP POP SWAP3 POP SWAP3 SWAP1 POP JUMP JUMPDEST PUSH1 0x0 PUSH1 0x20 DUP3 DUP5 SUB SLT ISZERO PUSH2 0x478E JUMPI PUSH2 0x478D PUSH2 0x572D JUMP JUMPDEST JUMPDEST PUSH1 0x0 PUSH2 0x479C DUP5 DUP3 DUP6 ADD PUSH2 0x3FF8 JUMP JUMPDEST SWAP2 POP POP SWAP3 SWAP2 POP POP JUMP JUMPDEST PUSH1 0x0 DUP1 PUSH1 0x40 DUP4 DUP6 SUB SLT ISZERO PUSH2 0x47BC JUMPI PUSH2 0x47BB PUSH2 0x572D JUMP JUMPDEST JUMPDEST PUSH1 0x0 PUSH2 0x47CA DUP6 DUP3 DUP7 ADD PUSH2 0x3FF8 JUMP JUMPDEST SWAP3 POP POP PUSH1 0x20 PUSH2 0x47DB DUP6 DUP3 DUP7 ADD PUSH2 0x3FF8 JUMP JUMPDEST SWAP2 POP POP SWAP3 POP SWAP3 SWAP1 POP JUMP JUMPDEST PUSH1 0x0 PUSH2 0x47F1 DUP4 DUP4 PUSH2 0x4968 JUMP JUMPDEST SWAP1 POP SWAP3 SWAP2 POP POP JUMP JUMPDEST PUSH1 0x0 PUSH2 0x4805 DUP4 DUP4 PUSH2 0x4DE7 JUMP JUMPDEST PUSH1 0x20 DUP4 ADD SWAP1 POP SWAP3 SWAP2 POP POP JUMP JUMPDEST PUSH2 0x481A DUP2 PUSH2 0x54AE JUMP JUMPDEST DUP3 MSTORE POP POP JUMP JUMPDEST PUSH1 0x0 PUSH2 0x482B DUP3 PUSH2 0x537E JUMP JUMPDEST PUSH2 0x4835 DUP2 DUP6 PUSH2 0x53C4 JUMP JUMPDEST SWAP4 POP DUP4 PUSH1 0x20 DUP3 MUL DUP6 ADD PUSH2 0x4847 DUP6 PUSH2 0x5349 JUMP JUMPDEST DUP1 PUSH1 0x0 JUMPDEST DUP6 DUP2 LT ISZERO PUSH2 0x4883 JUMPI DUP5 DUP5 SUB DUP10 MSTORE DUP2 MLOAD PUSH2 0x4864 DUP6 DUP3 PUSH2 0x47E5 JUMP JUMPDEST SWAP5 POP PUSH2 0x486F DUP4 PUSH2 0x53AA JUMP JUMPDEST SWAP3 POP PUSH1 0x20 DUP11 ADD SWAP10 POP POP PUSH1 0x1 DUP2 ADD SWAP1 POP PUSH2 0x484B JUMP JUMPDEST POP DUP3 SWAP8 POP DUP8 SWAP6 POP POP POP POP POP POP SWAP3 SWAP2 POP POP JUMP JUMPDEST PUSH1 0x0 PUSH2 0x48A0 DUP3 PUSH2 0x5389 JUMP JUMPDEST PUSH2 0x48AA DUP2 DUP6 PUSH2 0x53D5 JUMP JUMPDEST SWAP4 POP PUSH2 0x48B5 DUP4 PUSH2 0x5359 JUMP JUMPDEST DUP1 PUSH1 0x0 JUMPDEST DUP4 DUP2 LT ISZERO PUSH2 0x48E6 JUMPI DUP2 MLOAD PUSH2 0x48CD DUP9 DUP3 PUSH2 0x47F9 JUMP JUMPDEST SWAP8 POP PUSH2 0x48D8 DUP4 PUSH2 0x53B7 JUMP JUMPDEST SWAP3 POP POP PUSH1 0x1 DUP2 ADD SWAP1 POP PUSH2 0x48B9 JUMP JUMPDEST POP DUP6 SWAP4 POP POP POP POP SWAP3 SWAP2 POP POP JUMP JUMPDEST PUSH2 0x48FC DUP2 PUSH2 0x54C0 JUMP JUMPDEST DUP3 MSTORE POP POP JUMP JUMPDEST PUSH1 0x0 PUSH2 0x490D DUP3 PUSH2 0x5394 JUMP JUMPDEST PUSH2 0x4917 DUP2 DUP6 PUSH2 0x53E6 JUMP JUMPDEST SWAP4 POP PUSH2 0x4927 DUP2 DUP6 PUSH1 0x20 DUP7 ADD PUSH2 0x553B JUMP JUMPDEST PUSH2 0x4930 DUP2 PUSH2 0x5732 JUMP JUMPDEST DUP5 ADD SWAP2 POP POP SWAP3 SWAP2 POP POP JUMP JUMPDEST PUSH1 0x0 PUSH2 0x4947 DUP4 DUP6 PUSH2 0x5408 JUMP JUMPDEST SWAP4 POP PUSH2 0x4954 DUP4 DUP6 DUP5 PUSH2 0x552C JUMP JUMPDEST PUSH2 0x495D DUP4 PUSH2 0x5732 JUMP JUMPDEST DUP5 ADD SWAP1 POP SWAP4 SWAP3 POP POP POP JUMP JUMPDEST PUSH1 0x0 PUSH2 0x4973 DUP3 PUSH2 0x539F JUMP JUMPDEST PUSH2 0x497D DUP2 DUP6 PUSH2 0x53F7 JUMP JUMPDEST SWAP4 POP PUSH2 0x498D DUP2 DUP6 PUSH1 0x20 DUP7 ADD PUSH2 0x553B JUMP JUMPDEST PUSH2 0x4996 DUP2 PUSH2 0x5732 JUMP JUMPDEST DUP5 ADD SWAP2 POP POP SWAP3 SWAP2 POP POP JUMP JUMPDEST PUSH1 0x0 PUSH2 0x49AC DUP3 PUSH2 0x539F JUMP JUMPDEST PUSH2 0x49B6 DUP2 DUP6 PUSH2 0x5408 JUMP JUMPDEST SWAP4 POP PUSH2 0x49C6 DUP2 DUP6 PUSH1 0x20 DUP7 ADD PUSH2 0x553B JUMP JUMPDEST PUSH2 0x49CF DUP2 PUSH2 0x5732 JUMP JUMPDEST DUP5 ADD SWAP2 POP POP SWAP3 SWAP2 POP POP JUMP JUMPDEST PUSH1 0x0 DUP2 SLOAD PUSH2 0x49E7 DUP2 PUSH2 0x556E JUMP JUMPDEST PUSH2 0x49F1 DUP2 DUP7 PUSH2 0x5419 JUMP JUMPDEST SWAP5 POP PUSH1 0x1 DUP3 AND PUSH1 0x0 DUP2 EQ PUSH2 0x4A0C JUMPI PUSH1 0x1 DUP2 EQ PUSH2 0x4A1D JUMPI PUSH2 0x4A50 JUMP JUMPDEST PUSH1 0xFF NOT DUP4 AND DUP7 MSTORE DUP2 DUP7 ADD SWAP4 POP PUSH2 0x4A50 JUMP JUMPDEST PUSH2 0x4A26 DUP6 PUSH2 0x5369 JUMP JUMPDEST PUSH1 0x0 JUMPDEST DUP4 DUP2 LT ISZERO PUSH2 0x4A48 JUMPI DUP2 SLOAD DUP2 DUP10 ADD MSTORE PUSH1 0x1 DUP3 ADD SWAP2 POP PUSH1 0x20 DUP2 ADD SWAP1 POP PUSH2 0x4A29 JUMP JUMPDEST DUP4 DUP9 ADD SWAP6 POP POP POP JUMPDEST POP POP POP SWAP3 SWAP2 POP POP JUMP JUMPDEST PUSH1 0x0 PUSH2 0x4A66 PUSH1 0x1A DUP4 PUSH2 0x5408 JUMP JUMPDEST SWAP2 POP PUSH2 0x4A71 DUP3 PUSH2 0x5743 JUMP JUMPDEST PUSH1 0x20 DUP3 ADD SWAP1 POP SWAP2 SWAP1 POP JUMP JUMPDEST PUSH1 0x0 PUSH2 0x4A89 PUSH1 0x2B DUP4 PUSH2 0x5408 JUMP JUMPDEST SWAP2 POP PUSH2 0x4A94 DUP3 PUSH2 0x576C JUMP JUMPDEST PUSH1 0x40 DUP3 ADD SWAP1 POP SWAP2 SWAP1 POP JUMP JUMPDEST PUSH1 0x0 PUSH2 0x4AAC PUSH1 0x32 DUP4 PUSH2 0x5408 JUMP JUMPDEST SWAP2 POP PUSH2 0x4AB7 DUP3 PUSH2 0x57BB JUMP JUMPDEST PUSH1 0x40 DUP3 ADD SWAP1 POP SWAP2 SWAP1 POP JUMP JUMPDEST PUSH1 0x0 PUSH2 0x4ACF PUSH1 0x26 DUP4 PUSH2 0x5408 JUMP JUMPDEST SWAP2 POP PUSH2 0x4ADA DUP3 PUSH2 0x580A JUMP JUMPDEST PUSH1 0x40 DUP3 ADD SWAP1 POP SWAP2 SWAP1 POP JUMP JUMPDEST PUSH1 0x0 PUSH2 0x4AF2 PUSH1 0x24 DUP4 PUSH2 0x5408 JUMP JUMPDEST SWAP2 POP PUSH2 0x4AFD DUP3 PUSH2 0x5859 JUMP JUMPDEST PUSH1 0x40 DUP3 ADD SWAP1 POP SWAP2 SWAP1 POP JUMP JUMPDEST PUSH1 0x0 PUSH2 0x4B15 PUSH1 0x29 DUP4 PUSH2 0x5408 JUMP JUMPDEST SWAP2 POP PUSH2 0x4B20 DUP3 PUSH2 0x58A8 JUMP JUMPDEST PUSH1 0x40 DUP3 ADD SWAP1 POP SWAP2 SWAP1 POP JUMP JUMPDEST PUSH1 0x0 PUSH2 0x4B38 PUSH1 0x19 DUP4 PUSH2 0x5408 JUMP JUMPDEST SWAP2 POP PUSH2 0x4B43 DUP3 PUSH2 0x58F7 JUMP JUMPDEST PUSH1 0x20 DUP3 ADD SWAP1 POP SWAP2 SWAP1 POP JUMP JUMPDEST PUSH1 0x0 PUSH2 0x4B5B PUSH1 0x1B DUP4 PUSH2 0x5408 JUMP JUMPDEST SWAP2 POP PUSH2 0x4B66 DUP3 PUSH2 0x5920 JUMP JUMPDEST PUSH1 0x20 DUP3 ADD SWAP1 POP SWAP2 SWAP1 POP JUMP JUMPDEST PUSH1 0x0 PUSH2 0x4B7E PUSH1 0x2C DUP4 PUSH2 0x5408 JUMP JUMPDEST SWAP2 POP PUSH2 0x4B89 DUP3 PUSH2 0x5949 JUMP JUMPDEST PUSH1 0x40 DUP3 ADD SWAP1 POP SWAP2 SWAP1 POP JUMP JUMPDEST PUSH1 0x0 PUSH2 0x4BA1 PUSH1 0x38 DUP4 PUSH2 0x5408 JUMP JUMPDEST SWAP2 POP PUSH2 0x4BAC DUP3 PUSH2 0x5998 JUMP JUMPDEST PUSH1 0x40 DUP3 ADD SWAP1 POP SWAP2 SWAP1 POP JUMP JUMPDEST PUSH1 0x0 PUSH2 0x4BC4 PUSH1 0x2A DUP4 PUSH2 0x5408 JUMP JUMPDEST SWAP2 POP PUSH2 0x4BCF DUP3 PUSH2 0x59E7 JUMP JUMPDEST PUSH1 0x40 DUP3 ADD SWAP1 POP SWAP2 SWAP1 POP JUMP JUMPDEST PUSH1 0x0 PUSH2 0x4BE7 PUSH1 0x29 DUP4 PUSH2 0x5408 JUMP JUMPDEST SWAP2 POP PUSH2 0x4BF2 DUP3 PUSH2 0x5A36 JUMP JUMPDEST PUSH1 0x40 DUP3 ADD SWAP1 POP SWAP2 SWAP1 POP JUMP JUMPDEST PUSH1 0x0 PUSH2 0x4C0A PUSH1 0x24 DUP4 PUSH2 0x5408 JUMP JUMPDEST SWAP2 POP PUSH2 0x4C15 DUP3 PUSH2 0x5A85 JUMP JUMPDEST PUSH1 0x40 DUP3 ADD SWAP1 POP SWAP2 SWAP1 POP JUMP JUMPDEST PUSH1 0x0 PUSH2 0x4C2D PUSH1 0x12 DUP4 PUSH2 0x5408 JUMP JUMPDEST SWAP2 POP PUSH2 0x4C38 DUP3 PUSH2 0x5AD4 JUMP JUMPDEST PUSH1 0x20 DUP3 ADD SWAP1 POP SWAP2 SWAP1 POP JUMP JUMPDEST PUSH1 0x0 PUSH2 0x4C50 PUSH1 0x20 DUP4 PUSH2 0x5408 JUMP JUMPDEST SWAP2 POP PUSH2 0x4C5B DUP3 PUSH2 0x5AFD JUMP JUMPDEST PUSH1 0x20 DUP3 ADD SWAP1 POP SWAP2 SWAP1 POP JUMP JUMPDEST PUSH1 0x0 PUSH2 0x4C73 PUSH1 0x2C DUP4 PUSH2 0x5408 JUMP JUMPDEST SWAP2 POP PUSH2 0x4C7E DUP3 PUSH2 0x5B26 JUMP JUMPDEST PUSH1 0x40 DUP3 ADD SWAP1 POP SWAP2 SWAP1 POP JUMP JUMPDEST PUSH1 0x0 PUSH2 0x4C96 PUSH1 0x1B DUP4 PUSH2 0x5408 JUMP JUMPDEST SWAP2 POP PUSH2 0x4CA1 DUP3 PUSH2 0x5B75 JUMP JUMPDEST PUSH1 0x20 DUP3 ADD SWAP1 POP SWAP2 SWAP1 POP JUMP JUMPDEST PUSH1 0x0 PUSH2 0x4CB9 PUSH1 0x20 DUP4 PUSH2 0x5408 JUMP JUMPDEST SWAP2 POP PUSH2 0x4CC4 DUP3 PUSH2 0x5B9E JUMP JUMPDEST PUSH1 0x20 DUP3 ADD SWAP1 POP SWAP2 SWAP1 POP JUMP JUMPDEST PUSH1 0x0 PUSH2 0x4CDC PUSH1 0x29 DUP4 PUSH2 0x5408 JUMP JUMPDEST SWAP2 POP PUSH2 0x4CE7 DUP3 PUSH2 0x5BC7 JUMP JUMPDEST PUSH1 0x40 DUP3 ADD SWAP1 POP SWAP2 SWAP1 POP JUMP JUMPDEST PUSH1 0x0 PUSH2 0x4CFF PUSH1 0x2F DUP4 PUSH2 0x5408 JUMP JUMPDEST SWAP2 POP PUSH2 0x4D0A DUP3 PUSH2 0x5C16 JUMP JUMPDEST PUSH1 0x40 DUP3 ADD SWAP1 POP SWAP2 SWAP1 POP JUMP JUMPDEST PUSH1 0x0 PUSH2 0x4D22 PUSH1 0x16 DUP4 PUSH2 0x5408 JUMP JUMPDEST SWAP2 POP PUSH2 0x4D2D DUP3 PUSH2 0x5C65 JUMP JUMPDEST PUSH1 0x20 DUP3 ADD SWAP1 POP SWAP2 SWAP1 POP JUMP JUMPDEST PUSH1 0x0 PUSH2 0x4D45 PUSH1 0x21 DUP4 PUSH2 0x5408 JUMP JUMPDEST SWAP2 POP PUSH2 0x4D50 DUP3 PUSH2 0x5C8E JUMP JUMPDEST PUSH1 0x40 DUP3 ADD SWAP1 POP SWAP2 SWAP1 POP JUMP JUMPDEST PUSH1 0x0 PUSH2 0x4D68 PUSH1 0x31 DUP4 PUSH2 0x5408 JUMP JUMPDEST SWAP2 POP PUSH2 0x4D73 DUP3 PUSH2 0x5CDD JUMP JUMPDEST PUSH1 0x40 DUP3 ADD SWAP1 POP SWAP2 SWAP1 POP JUMP JUMPDEST PUSH1 0x0 PUSH2 0x4D8B PUSH1 0x2C DUP4 PUSH2 0x5408 JUMP JUMPDEST SWAP2 POP PUSH2 0x4D96 DUP3 PUSH2 0x5D2C JUMP JUMPDEST PUSH1 0x40 DUP3 ADD SWAP1 POP SWAP2 SWAP1 POP JUMP JUMPDEST PUSH1 0x0 PUSH2 0x4DAE PUSH1 0x23 DUP4 PUSH2 0x5408 JUMP JUMPDEST SWAP2 POP PUSH2 0x4DB9 DUP3 PUSH2 0x5D7B JUMP JUMPDEST PUSH1 0x40 DUP3 ADD SWAP1 POP SWAP2 SWAP1 POP JUMP JUMPDEST PUSH1 0x0 PUSH2 0x4DD1 PUSH1 0x23 DUP4 PUSH2 0x5408 JUMP JUMPDEST SWAP2 POP PUSH2 0x4DDC DUP3 PUSH2 0x5DCA JUMP JUMPDEST PUSH1 0x40 DUP3 ADD SWAP1 POP SWAP2 SWAP1 POP JUMP JUMPDEST PUSH2 0x4DF0 DUP2 PUSH2 0x5522 JUMP JUMPDEST DUP3 MSTORE POP POP JUMP JUMPDEST PUSH2 0x4DFF DUP2 PUSH2 0x5522 JUMP JUMPDEST DUP3 MSTORE POP POP JUMP JUMPDEST PUSH1 0x0 PUSH2 0x4E11 DUP3 DUP6 PUSH2 0x49DA JUMP JUMPDEST SWAP2 POP PUSH2 0x4E1D DUP3 DUP5 PUSH2 0x49DA JUMP JUMPDEST SWAP2 POP DUP2 SWAP1 POP SWAP4 SWAP3 POP POP POP JUMP JUMPDEST PUSH1 0x0 PUSH1 0x20 DUP3 ADD SWAP1 POP PUSH2 0x4E3E PUSH1 0x0 DUP4 ADD DUP5 PUSH2 0x4811 JUMP JUMPDEST SWAP3 SWAP2 POP POP JUMP JUMPDEST PUSH1 0x0 PUSH1 0x80 DUP3 ADD SWAP1 POP PUSH2 0x4E59 PUSH1 0x0 DUP4 ADD DUP8 PUSH2 0x4811 JUMP JUMPDEST PUSH2 0x4E66 PUSH1 0x20 DUP4 ADD DUP7 PUSH2 0x4811 JUMP JUMPDEST PUSH2 0x4E73 PUSH1 0x40 DUP4 ADD DUP6 PUSH2 0x4DF6 JUMP JUMPDEST DUP2 DUP2 SUB PUSH1 0x60 DUP4 ADD MSTORE PUSH2 0x4E85 DUP2 DUP5 PUSH2 0x4902 JUMP JUMPDEST SWAP1 POP SWAP6 SWAP5 POP POP POP POP POP JUMP JUMPDEST PUSH1 0x0 PUSH1 0x20 DUP3 ADD SWAP1 POP DUP2 DUP2 SUB PUSH1 0x0 DUP4 ADD MSTORE PUSH2 0x4EAA DUP2 DUP5 PUSH2 0x4820 JUMP JUMPDEST SWAP1 POP SWAP3 SWAP2 POP POP JUMP JUMPDEST PUSH1 0x0 PUSH1 0x20 DUP3 ADD SWAP1 POP DUP2 DUP2 SUB PUSH1 0x0 DUP4 ADD MSTORE PUSH2 0x4ECC DUP2 DUP5 PUSH2 0x4895 JUMP JUMPDEST SWAP1 POP SWAP3 SWAP2 POP POP JUMP JUMPDEST PUSH1 0x0 PUSH1 0x20 DUP3 ADD SWAP1 POP PUSH2 0x4EE9 PUSH1 0x0 DUP4 ADD DUP5 PUSH2 0x48F3 JUMP JUMPDEST SWAP3 SWAP2 POP POP JUMP JUMPDEST PUSH1 0x0 PUSH1 0x20 DUP3 ADD SWAP1 POP DUP2 DUP2 SUB PUSH1 0x0 DUP4 ADD MSTORE PUSH2 0x4F0A DUP2 DUP5 DUP7 PUSH2 0x493B JUMP JUMPDEST SWAP1 POP SWAP4 SWAP3 POP POP POP JUMP JUMPDEST PUSH1 0x0 PUSH1 0x20 DUP3 ADD SWAP1 POP DUP2 DUP2 SUB PUSH1 0x0 DUP4 ADD MSTORE PUSH2 0x4F2D DUP2 DUP5 PUSH2 0x49A1 JUMP JUMPDEST SWAP1 POP SWAP3 SWAP2 POP POP JUMP JUMPDEST PUSH1 0x0 PUSH1 0x20 DUP3 ADD SWAP1 POP DUP2 DUP2 SUB PUSH1 0x0 DUP4 ADD MSTORE PUSH2 0x4F4E DUP2 PUSH2 0x4A59 JUMP JUMPDEST SWAP1 POP SWAP2 SWAP1 POP JUMP JUMPDEST PUSH1 0x0 PUSH1 0x20 DUP3 ADD SWAP1 POP DUP2 DUP2 SUB PUSH1 0x0 DUP4 ADD MSTORE PUSH2 0x4F6E DUP2 PUSH2 0x4A7C JUMP JUMPDEST SWAP1 POP SWAP2 SWAP1 POP JUMP JUMPDEST PUSH1 0x0 PUSH1 0x20 DUP3 ADD SWAP1 POP DUP2 DUP2 SUB PUSH1 0x0 DUP4 ADD MSTORE PUSH2 0x4F8E DUP2 PUSH2 0x4A9F JUMP JUMPDEST SWAP1 POP SWAP2 SWAP1 POP JUMP JUMPDEST PUSH1 0x0 PUSH1 0x20 DUP3 ADD SWAP1 POP DUP2 DUP2 SUB PUSH1 0x0 DUP4 ADD MSTORE PUSH2 0x4FAE DUP2 PUSH2 0x4AC2 JUMP JUMPDEST SWAP1 POP SWAP2 SWAP1 POP JUMP JUMPDEST PUSH1 0x0 PUSH1 0x20 DUP3 ADD SWAP1 POP DUP2 DUP2 SUB PUSH1 0x0 DUP4 ADD MSTORE PUSH2 0x4FCE DUP2 PUSH2 0x4AE5 JUMP JUMPDEST SWAP1 POP SWAP2 SWAP1 POP JUMP JUMPDEST PUSH1 0x0 PUSH1 0x20 DUP3 ADD SWAP1 POP DUP2 DUP2 SUB PUSH1 0x0 DUP4 ADD MSTORE PUSH2 0x4FEE DUP2 PUSH2 0x4B08 JUMP JUMPDEST SWAP1 POP SWAP2 SWAP1 POP JUMP JUMPDEST PUSH1 0x0 PUSH1 0x20 DUP3 ADD SWAP1 POP DUP2 DUP2 SUB PUSH1 0x0 DUP4 ADD MSTORE PUSH2 0x500E DUP2 PUSH2 0x4B2B JUMP JUMPDEST SWAP1 POP SWAP2 SWAP1 POP JUMP JUMPDEST PUSH1 0x0 PUSH1 0x20 DUP3 ADD SWAP1 POP DUP2 DUP2 SUB PUSH1 0x0 DUP4 ADD MSTORE PUSH2 0x502E DUP2 PUSH2 0x4B4E JUMP JUMPDEST SWAP1 POP SWAP2 SWAP1 POP JUMP JUMPDEST PUSH1 0x0 PUSH1 0x20 DUP3 ADD SWAP1 POP DUP2 DUP2 SUB PUSH1 0x0 DUP4 ADD MSTORE PUSH2 0x504E DUP2 PUSH2 0x4B71 JUMP JUMPDEST SWAP1 POP SWAP2 SWAP1 POP JUMP JUMPDEST PUSH1 0x0 PUSH1 0x20 DUP3 ADD SWAP1 POP DUP2 DUP2 SUB PUSH1 0x0 DUP4 ADD MSTORE PUSH2 0x506E DUP2 PUSH2 0x4B94 JUMP JUMPDEST SWAP1 POP SWAP2 SWAP1 POP JUMP JUMPDEST PUSH1 0x0 PUSH1 0x20 DUP3 ADD SWAP1 POP DUP2 DUP2 SUB PUSH1 0x0 DUP4 ADD MSTORE PUSH2 0x508E DUP2 PUSH2 0x4BB7 JUMP JUMPDEST SWAP1 POP SWAP2 SWAP1 POP JUMP JUMPDEST PUSH1 0x0 PUSH1 0x20 DUP3 ADD SWAP1 POP DUP2 DUP2 SUB PUSH1 0x0 DUP4 ADD MSTORE PUSH2 0x50AE DUP2 PUSH2 0x4BDA JUMP JUMPDEST SWAP1 POP SWAP2 SWAP1 POP JUMP JUMPDEST PUSH1 0x0 PUSH1 0x20 DUP3 ADD SWAP1 POP DUP2 DUP2 SUB PUSH1 0x0 DUP4 ADD MSTORE PUSH2 0x50CE DUP2 PUSH2 0x4BFD JUMP JUMPDEST SWAP1 POP SWAP2 SWAP1 POP JUMP JUMPDEST PUSH1 0x0 PUSH1 0x20 DUP3 ADD SWAP1 POP DUP2 DUP2 SUB PUSH1 0x0 DUP4 ADD MSTORE PUSH2 0x50EE DUP2 PUSH2 0x4C20 JUMP JUMPDEST SWAP1 POP SWAP2 SWAP1 POP JUMP JUMPDEST PUSH1 0x0 PUSH1 0x20 DUP3 ADD SWAP1 POP DUP2 DUP2 SUB PUSH1 0x0 DUP4 ADD MSTORE PUSH2 0x510E DUP2 PUSH2 0x4C43 JUMP JUMPDEST SWAP1 POP SWAP2 SWAP1 POP JUMP JUMPDEST PUSH1 0x0 PUSH1 0x20 DUP3 ADD SWAP1 POP DUP2 DUP2 SUB PUSH1 0x0 DUP4 ADD MSTORE PUSH2 0x512E DUP2 PUSH2 0x4C66 JUMP JUMPDEST SWAP1 POP SWAP2 SWAP1 POP JUMP JUMPDEST PUSH1 0x0 PUSH1 0x20 DUP3 ADD SWAP1 POP DUP2 DUP2 SUB PUSH1 0x0 DUP4 ADD MSTORE PUSH2 0x514E DUP2 PUSH2 0x4C89 JUMP JUMPDEST SWAP1 POP SWAP2 SWAP1 POP JUMP JUMPDEST PUSH1 0x0 PUSH1 0x20 DUP3 ADD SWAP1 POP DUP2 DUP2 SUB PUSH1 0x0 DUP4 ADD MSTORE PUSH2 0x516E DUP2 PUSH2 0x4CAC JUMP JUMPDEST SWAP1 POP SWAP2 SWAP1 POP JUMP JUMPDEST PUSH1 0x0 PUSH1 0x20 DUP3 ADD SWAP1 POP DUP2 DUP2 SUB PUSH1 0x0 DUP4 ADD MSTORE PUSH2 0x518E DUP2 PUSH2 0x4CCF JUMP JUMPDEST SWAP1 POP SWAP2 SWAP1 POP JUMP JUMPDEST PUSH1 0x0 PUSH1 0x20 DUP3 ADD SWAP1 POP DUP2 DUP2 SUB PUSH1 0x0 DUP4 ADD MSTORE PUSH2 0x51AE DUP2 PUSH2 0x4CF2 JUMP JUMPDEST SWAP1 POP SWAP2 SWAP1 POP JUMP JUMPDEST PUSH1 0x0 PUSH1 0x20 DUP3 ADD SWAP1 POP DUP2 DUP2 SUB PUSH1 0x0 DUP4 ADD MSTORE PUSH2 0x51CE DUP2 PUSH2 0x4D15 JUMP JUMPDEST SWAP1 POP SWAP2 SWAP1 POP JUMP JUMPDEST PUSH1 0x0 PUSH1 0x20 DUP3 ADD SWAP1 POP DUP2 DUP2 SUB PUSH1 0x0 DUP4 ADD MSTORE PUSH2 0x51EE DUP2 PUSH2 0x4D38 JUMP JUMPDEST SWAP1 POP SWAP2 SWAP1 POP JUMP JUMPDEST PUSH1 0x0 PUSH1 0x20 DUP3 ADD SWAP1 POP DUP2 DUP2 SUB PUSH1 0x0 DUP4 ADD MSTORE PUSH2 0x520E DUP2 PUSH2 0x4D5B JUMP JUMPDEST SWAP1 POP SWAP2 SWAP1 POP JUMP JUMPDEST PUSH1 0x0 PUSH1 0x20 DUP3 ADD SWAP1 POP DUP2 DUP2 SUB PUSH1 0x0 DUP4 ADD MSTORE PUSH2 0x522E DUP2 PUSH2 0x4D7E JUMP JUMPDEST SWAP1 POP SWAP2 SWAP1 POP JUMP JUMPDEST PUSH1 0x0 PUSH1 0x20 DUP3 ADD SWAP1 POP DUP2 DUP2 SUB PUSH1 0x0 DUP4 ADD MSTORE PUSH2 0x524E DUP2 PUSH2 0x4DA1 JUMP JUMPDEST SWAP1 POP SWAP2 SWAP1 POP JUMP JUMPDEST PUSH1 0x0 PUSH1 0x20 DUP3 ADD SWAP1 POP DUP2 DUP2 SUB PUSH1 0x0 DUP4 ADD MSTORE PUSH2 0x526E DUP2 PUSH2 0x4DC4 JUMP JUMPDEST SWAP1 POP SWAP2 SWAP1 POP JUMP JUMPDEST PUSH1 0x0 PUSH1 0x20 DUP3 ADD SWAP1 POP PUSH2 0x528A PUSH1 0x0 DUP4 ADD DUP5 PUSH2 0x4DF6 JUMP JUMPDEST SWAP3 SWAP2 POP POP JUMP JUMPDEST PUSH1 0x0 DUP1 DUP4 CALLDATALOAD PUSH1 0x1 PUSH1 0x20 SUB DUP5 CALLDATASIZE SUB SUB DUP2 SLT PUSH2 0x52AD JUMPI PUSH2 0x52AC PUSH2 0x5714 JUMP JUMPDEST JUMPDEST DUP1 DUP5 ADD SWAP3 POP DUP3 CALLDATALOAD SWAP2 POP PUSH8 0xFFFFFFFFFFFFFFFF DUP3 GT ISZERO PUSH2 0x52CF JUMPI PUSH2 0x52CE PUSH2 0x570F JUMP JUMPDEST JUMPDEST PUSH1 0x20 DUP4 ADD SWAP3 POP PUSH1 0x1 DUP3 MUL CALLDATASIZE SUB DUP4 SGT ISZERO PUSH2 0x52EB JUMPI PUSH2 0x52EA PUSH2 0x571E JUMP JUMPDEST JUMPDEST POP SWAP3 POP SWAP3 SWAP1 POP JUMP JUMPDEST PUSH1 0x0 PUSH2 0x52FD PUSH2 0x530E JUMP JUMPDEST SWAP1 POP PUSH2 0x5309 DUP3 DUP3 PUSH2 0x55A0 JUMP JUMPDEST SWAP2 SWAP1 POP JUMP JUMPDEST PUSH1 0x0 PUSH1 0x40 MLOAD SWAP1 POP SWAP1 JUMP JUMPDEST PUSH1 0x0 PUSH8 0xFFFFFFFFFFFFFFFF DUP3 GT ISZERO PUSH2 0x5333 JUMPI PUSH2 0x5332 PUSH2 0x56D6 JUMP JUMPDEST JUMPDEST PUSH2 0x533C DUP3 PUSH2 0x5732 JUMP JUMPDEST SWAP1 POP PUSH1 0x20 DUP2 ADD SWAP1 POP SWAP2 SWAP1 POP JUMP JUMPDEST PUSH1 0x0 DUP2 SWAP1 POP PUSH1 0x20 DUP3 ADD SWAP1 POP SWAP2 SWAP1 POP JUMP JUMPDEST PUSH1 0x0 DUP2 SWAP1 POP PUSH1 0x20 DUP3 ADD SWAP1 POP SWAP2 SWAP1 POP JUMP JUMPDEST PUSH1 0x0 DUP2 SWAP1 POP DUP2 PUSH1 0x0 MSTORE PUSH1 0x20 PUSH1 0x0 KECCAK256 SWAP1 POP SWAP2 SWAP1 POP JUMP JUMPDEST PUSH1 0x0 DUP2 MLOAD SWAP1 POP SWAP2 SWAP1 POP JUMP JUMPDEST PUSH1 0x0 DUP2 MLOAD SWAP1 POP SWAP2 SWAP1 POP JUMP JUMPDEST PUSH1 0x0 DUP2 MLOAD SWAP1 POP SWAP2 SWAP1 POP JUMP JUMPDEST PUSH1 0x0 DUP2 MLOAD SWAP1 POP SWAP2 SWAP1 POP JUMP JUMPDEST PUSH1 0x0 PUSH1 0x20 DUP3 ADD SWAP1 POP SWAP2 SWAP1 POP JUMP JUMPDEST PUSH1 0x0 PUSH1 0x20 DUP3 ADD SWAP1 POP SWAP2 SWAP1 POP JUMP JUMPDEST PUSH1 0x0 DUP3 DUP3 MSTORE PUSH1 0x20 DUP3 ADD SWAP1 POP SWAP3 SWAP2 POP POP JUMP JUMPDEST PUSH1 0x0 DUP3 DUP3 MSTORE PUSH1 0x20 DUP3 ADD SWAP1 POP SWAP3 SWAP2 POP POP JUMP JUMPDEST PUSH1 0x0 DUP3 DUP3 MSTORE PUSH1 0x20 DUP3 ADD SWAP1 POP SWAP3 SWAP2 POP POP JUMP JUMPDEST PUSH1 0x0 DUP3 DUP3 MSTORE PUSH1 0x20 DUP3 ADD SWAP1 POP SWAP3 SWAP2 POP POP JUMP JUMPDEST PUSH1 0x0 DUP3 DUP3 MSTORE PUSH1 0x20 DUP3 ADD SWAP1 POP SWAP3 SWAP2 POP POP JUMP JUMPDEST PUSH1 0x0 DUP2 SWAP1 POP SWAP3 SWAP2 POP POP JUMP JUMPDEST PUSH1 0x0 PUSH2 0x542F DUP3 PUSH2 0x5522 JUMP JUMPDEST SWAP2 POP PUSH2 0x543A DUP4 PUSH2 0x5522 JUMP JUMPDEST SWAP3 POP DUP3 PUSH32 0xFFFFFFFFFFFFFFFFFFFFFFFFFFFFFFFFFFFFFFFFFFFFFFFFFFFFFFFFFFFFFFFF SUB DUP3 GT ISZERO PUSH2 0x546F JUMPI PUSH2 0x546E PUSH2 0x561A JUMP JUMPDEST JUMPDEST DUP3 DUP3 ADD SWAP1 POP SWAP3 SWAP2 POP POP JUMP JUMPDEST PUSH1 0x0 PUSH2 0x5485 DUP3 PUSH2 0x5522 JUMP JUMPDEST SWAP2 POP PUSH2 0x5490 DUP4 PUSH2 0x5522 JUMP JUMPDEST SWAP3 POP DUP3 DUP3 LT ISZERO PUSH2 0x54A3 JUMPI PUSH2 0x54A2 PUSH2 0x561A JUMP JUMPDEST JUMPDEST DUP3 DUP3 SUB SWAP1 POP SWAP3 SWAP2 POP POP JUMP JUMPDEST PUSH1 0x0 PUSH2 0x54B9 DUP3 PUSH2 0x5502 JUMP JUMPDEST SWAP1 POP SWAP2 SWAP1 POP JUMP JUMPDEST PUSH1 0x0 DUP2 ISZERO ISZERO SWAP1 POP SWAP2 SWAP1 POP JUMP JUMPDEST PUSH1 0x0 DUP2 SWAP1 POP SWAP2 SWAP1 POP JUMP JUMPDEST PUSH1 0x0 PUSH32 0xFFFFFFFF00000000000000000000000000000000000000000000000000000000 DUP3 AND SWAP1 POP SWAP2 SWAP1 POP JUMP JUMPDEST PUSH1 0x0 PUSH20 0xFFFFFFFFFFFFFFFFFFFFFFFFFFFFFFFFFFFFFFFF DUP3 AND SWAP1 POP SWAP2 SWAP1 POP JUMP JUMPDEST PUSH1 0x0 DUP2 SWAP1 POP SWAP2 SWAP1 POP JUMP JUMPDEST DUP3 DUP2 DUP4 CALLDATACOPY PUSH1 0x0 DUP4 DUP4 ADD MSTORE POP POP POP JUMP JUMPDEST PUSH1 0x0 JUMPDEST DUP4 DUP2 LT ISZERO PUSH2 0x5559 JUMPI DUP1 DUP3 ADD MLOAD DUP2 DUP5 ADD MSTORE PUSH1 0x20 DUP2 ADD SWAP1 POP PUSH2 0x553E JUMP JUMPDEST DUP4 DUP2 GT ISZERO PUSH2 0x5568 JUMPI PUSH1 0x0 DUP5 DUP5 ADD MSTORE JUMPDEST POP POP POP POP JUMP JUMPDEST PUSH1 0x0 PUSH1 0x2 DUP3 DIV SWAP1 POP PUSH1 0x1 DUP3 AND DUP1 PUSH2 0x5586 JUMPI PUSH1 0x7F DUP3 AND SWAP2 POP JUMPDEST PUSH1 0x20 DUP3 LT DUP2 EQ ISZERO PUSH2 0x559A JUMPI PUSH2 0x5599 PUSH2 0x5649 JUMP JUMPDEST JUMPDEST POP SWAP2 SWAP1 POP JUMP JUMPDEST PUSH2 0x55A9 DUP3 PUSH2 0x5732 JUMP JUMPDEST DUP2 ADD DUP2 DUP2 LT PUSH8 0xFFFFFFFFFFFFFFFF DUP3 GT OR ISZERO PUSH2 0x55C8 JUMPI PUSH2 0x55C7 PUSH2 0x56D6 JUMP JUMPDEST JUMPDEST DUP1 PUSH1 0x40 MSTORE POP POP POP JUMP JUMPDEST PUSH1 0x0 PUSH2 0x55DC DUP3 PUSH2 0x5522 JUMP JUMPDEST SWAP2 POP PUSH32 0xFFFFFFFFFFFFFFFFFFFFFFFFFFFFFFFFFFFFFFFFFFFFFFFFFFFFFFFFFFFFFFFF DUP3 EQ ISZERO PUSH2 0x560F JUMPI PUSH2 0x560E PUSH2 0x561A JUMP JUMPDEST JUMPDEST PUSH1 0x1 DUP3 ADD SWAP1 POP SWAP2 SWAP1 POP JUMP JUMPDEST PUSH32 0x4E487B7100000000000000000000000000000000000000000000000000000000 PUSH1 0x0 MSTORE PUSH1 0x11 PUSH1 0x4 MSTORE PUSH1 0x24 PUSH1 0x0 REVERT JUMPDEST PUSH32 0x4E487B7100000000000000000000000000000000000000000000000000000000 PUSH1 0x0 MSTORE PUSH1 0x22 PUSH1 0x4 MSTORE PUSH1 0x24 PUSH1 0x0 REVERT JUMPDEST PUSH32 0x4E487B7100000000000000000000000000000000000000000000000000000000 PUSH1 0x0 MSTORE PUSH1 0x31 PUSH1 0x4 MSTORE PUSH1 0x24 PUSH1 0x0 REVERT JUMPDEST PUSH32 0x4E487B7100000000000000000000000000000000000000000000000000000000 PUSH1 0x0 MSTORE PUSH1 0x32 PUSH1 0x4 MSTORE PUSH1 0x24 PUSH1 0x0 REVERT JUMPDEST PUSH32 0x4E487B7100000000000000000000000000000000000000000000000000000000 PUSH1 0x0 MSTORE PUSH1 0x41 PUSH1 0x4 MSTORE PUSH1 0x24 PUSH1 0x0 REVERT JUMPDEST PUSH1 0x0 DUP1 REVERT JUMPDEST PUSH1 0x0 DUP1 REVERT JUMPDEST PUSH1 0x0 DUP1 REVERT JUMPDEST PUSH1 0x0 DUP1 REVERT JUMPDEST PUSH1 0x0 DUP1 REVERT JUMPDEST PUSH1 0x0 DUP1 REVERT JUMPDEST PUSH1 0x0 DUP1 REVERT JUMPDEST PUSH1 0x0 DUP1 REVERT JUMPDEST PUSH1 0x0 DUP1 REVERT JUMPDEST PUSH1 0x0 PUSH1 0x1F NOT PUSH1 0x1F DUP4 ADD AND SWAP1 POP SWAP2 SWAP1 POP JUMP JUMPDEST PUSH32 0x6C61756E63687061642061646472657373206D75737420736574000000000000 PUSH1 0x0 DUP3 ADD MSTORE POP JUMP JUMPDEST PUSH32 0x455243373231456E756D657261626C653A206F776E657220696E646578206F75 PUSH1 0x0 DUP3 ADD MSTORE PUSH32 0x74206F6620626F756E6473000000000000000000000000000000000000000000 PUSH1 0x20 DUP3 ADD MSTORE POP JUMP JUMPDEST PUSH32 0x4552433732313A207472616E7366657220746F206E6F6E204552433732315265 PUSH1 0x0 DUP3 ADD MSTORE PUSH32 0x63656976657220696D706C656D656E7465720000000000000000000000000000 PUSH1 0x20 DUP3 ADD MSTORE POP JUMP JUMPDEST PUSH32 0x4F776E61626C653A206E6577206F776E657220697320746865207A65726F2061 PUSH1 0x0 DUP3 ADD MSTORE PUSH32 0x6464726573730000000000000000000000000000000000000000000000000000 PUSH1 0x20 DUP3 ADD MSTORE POP JUMP JUMPDEST PUSH32 0x4552433732313A207472616E7366657220746F20746865207A65726F20616464 PUSH1 0x0 DUP3 ADD MSTORE PUSH32 0x7265737300000000000000000000000000000000000000000000000000000000 PUSH1 0x20 DUP3 ADD MSTORE POP JUMP JUMPDEST PUSH32 0x5F746F20616E64205F746F6B656E4964206172726179206C656E677468206D75 PUSH1 0x0 DUP3 ADD MSTORE PUSH32 0x7374206D617463682E0000000000000000000000000000000000000000000000 PUSH1 0x20 DUP3 ADD MSTORE POP JUMP JUMPDEST PUSH32 0x4552433732313A20617070726F766520746F2063616C6C657200000000000000 PUSH1 0x0 DUP3 ADD MSTORE POP JUMP JUMPDEST PUSH32 0x73697A65206D7573742067726561746572207468616E207A65726F0000000000 PUSH1 0x0 DUP3 ADD MSTORE POP JUMP JUMPDEST PUSH32 0x4552433732313A206F70657261746F7220717565727920666F72206E6F6E6578 PUSH1 0x0 DUP3 ADD MSTORE PUSH32 0x697374656E7420746F6B656E0000000000000000000000000000000000000000 PUSH1 0x20 DUP3 ADD MSTORE POP JUMP JUMPDEST PUSH32 0x4552433732313A20617070726F76652063616C6C6572206973206E6F74206F77 PUSH1 0x0 DUP3 ADD MSTORE PUSH32 0x6E6572206E6F7220617070726F76656420666F7220616C6C0000000000000000 PUSH1 0x20 DUP3 ADD MSTORE POP JUMP JUMPDEST PUSH32 0x4552433732313A2062616C616E636520717565727920666F7220746865207A65 PUSH1 0x0 DUP3 ADD MSTORE PUSH32 0x726F206164647265737300000000000000000000000000000000000000000000 PUSH1 0x20 DUP3 ADD MSTORE POP JUMP JUMPDEST PUSH32 0x4552433732313A206F776E657220717565727920666F72206E6F6E6578697374 PUSH1 0x0 DUP3 ADD MSTORE PUSH32 0x656E7420746F6B656E0000000000000000000000000000000000000000000000 PUSH1 0x20 DUP3 ADD MSTORE POP JUMP JUMPDEST PUSH32 0x4F776E61626C653A2063616C6C6572206973206E6F74206F776E65722F6D616E PUSH1 0x0 DUP3 ADD MSTORE PUSH32 0x6167657200000000000000000000000000000000000000000000000000000000 PUSH1 0x20 DUP3 ADD MSTORE POP JUMP JUMPDEST PUSH32 0x6D617820737570706C7920726561636865640000000000000000000000000000 PUSH1 0x0 DUP3 ADD MSTORE POP JUMP JUMPDEST PUSH32 0x4552433732313A206D696E7420746F20746865207A65726F2061646472657373 PUSH1 0x0 DUP3 ADD MSTORE POP JUMP JUMPDEST PUSH32 0x4552433732313A20617070726F76656420717565727920666F72206E6F6E6578 PUSH1 0x0 DUP3 ADD MSTORE PUSH32 0x697374656E7420746F6B656E0000000000000000000000000000000000000000 PUSH1 0x20 DUP3 ADD MSTORE POP JUMP JUMPDEST PUSH32 0x63616E2774206D696E7420746F20656D70747920616464726573730000000000 PUSH1 0x0 DUP3 ADD MSTORE POP JUMP JUMPDEST PUSH32 0x4F776E61626C653A2063616C6C6572206973206E6F7420746865206F776E6572 PUSH1 0x0 DUP3 ADD MSTORE POP JUMP JUMPDEST PUSH32 0x4552433732313A207472616E73666572206F6620746F6B656E20746861742069 PUSH1 0x0 DUP3 ADD MSTORE PUSH32 0x73206E6F74206F776E0000000000000000000000000000000000000000000000 PUSH1 0x20 DUP3 ADD MSTORE POP JUMP JUMPDEST PUSH32 0x4552433732314D657461646174613A2055524920717565727920666F72206E6F PUSH1 0x0 DUP3 ADD MSTORE PUSH32 0x6E6578697374656E7420746F6B656E0000000000000000000000000000000000 PUSH1 0x20 DUP3 ADD MSTORE POP JUMP JUMPDEST PUSH32 0x6D7573742063616C6C206279206C61756E636870616400000000000000000000 PUSH1 0x0 DUP3 ADD MSTORE POP JUMP JUMPDEST PUSH32 0x4552433732313A20617070726F76616C20746F2063757272656E74206F776E65 PUSH1 0x0 DUP3 ADD MSTORE PUSH32 0x7200000000000000000000000000000000000000000000000000000000000000 PUSH1 0x20 DUP3 ADD MSTORE POP JUMP JUMPDEST PUSH32 0x4552433732313A207472616E736665722063616C6C6572206973206E6F74206F PUSH1 0x0 DUP3 ADD MSTORE PUSH32 0x776E6572206E6F7220617070726F766564000000000000000000000000000000 PUSH1 0x20 DUP3 ADD MSTORE POP JUMP JUMPDEST PUSH32 0x455243373231456E756D657261626C653A20676C6F62616C20696E646578206F PUSH1 0x0 DUP3 ADD MSTORE PUSH32 0x7574206F6620626F756E64730000000000000000000000000000000000000000 PUSH1 0x20 DUP3 ADD MSTORE POP JUMP JUMPDEST PUSH32 0x4C41554E43485F4D41585F535550504C592063616E206F6E6C7920696E637265 PUSH1 0x0 DUP3 ADD MSTORE PUSH32 0x6173650000000000000000000000000000000000000000000000000000000000 PUSH1 0x20 DUP3 ADD MSTORE POP JUMP JUMPDEST PUSH32 0x4F776E61626C653A2063616C6C6572206973206E6F74206F776E65722F6D696E PUSH1 0x0 DUP3 ADD MSTORE PUSH32 0x7465720000000000000000000000000000000000000000000000000000000000 PUSH1 0x20 DUP3 ADD MSTORE POP JUMP JUMPDEST PUSH2 0x5E22 DUP2 PUSH2 0x54AE JUMP JUMPDEST DUP2 EQ PUSH2 0x5E2D JUMPI PUSH1 0x0 DUP1 REVERT JUMPDEST POP JUMP JUMPDEST PUSH2 0x5E39 DUP2 PUSH2 0x54C0 JUMP JUMPDEST DUP2 EQ PUSH2 0x5E44 JUMPI PUSH1 0x0 DUP1 REVERT JUMPDEST POP JUMP JUMPDEST PUSH2 0x5E50 DUP2 PUSH2 0x54CC JUMP JUMPDEST DUP2 EQ PUSH2 0x5E5B JUMPI PUSH1 0x0 DUP1 REVERT JUMPDEST POP JUMP JUMPDEST PUSH2 0x5E67 DUP2 PUSH2 0x54D6 JUMP JUMPDEST DUP2 EQ PUSH2 0x5E72 JUMPI PUSH1 0x0 DUP1 REVERT JUMPDEST POP JUMP JUMPDEST PUSH2 0x5E7E DUP2 PUSH2 0x5522 JUMP JUMPDEST DUP2 EQ PUSH2 0x5E89 JUMPI PUSH1 0x0 DUP1 REVERT JUMPDEST POP JUMP INVALID LOG2 PUSH5 0x6970667358 0x22 SLT KECCAK256 PUSH28 0xEB5C7274DD18532C958464732C8DA58F913B04B34FE0BD398EAA701B SAR SIGNEXTEND 0xDE PUSH5 0x736F6C6343 STOP ADDMOD SMOD STOP CALLER "
		},
		"gasEstimates": {
			"creation": {
				"codeDepositCost": "4851600",
				"executionCost": "infinite",
				"totalCost": "infinite"
			},
			"external": {
				"LAUNCHPAD()": "2604",
				"LAUNCH_MAX_SUPPLY()": "2496",
				"LAUNCH_SUPPLY()": "2539",
				"_baseUri()": "infinite",
				"_currentNextId()": "2475",
				"_defaultTemplateId()": "2496",
				"_tokenUris(uint256)": "infinite",
				"_uriTemplate(uint256)": "infinite",
				"addManager(address)": "27151",
				"addMinter(address)": "27151",
				"approve(address,uint256)": "infinite",
				"assignMultipleTokenTemplate(uint256[],uint256[])": "infinite",
				"assignTokenTemplate(uint256,uint256)": "infinite",
				"balanceOf(address)": "3012",
				"changeLaunchMaxSupply(uint256)": "26936",
				"getApproved(uint256)": "5273",
				"getBatchProperty(bytes32[],uint256[])": "infinite",
				"getLaunchpadSupply()": "2526",
				"getMaxLaunchpadSupply()": "2549",
				"getMultipleProperty(bytes32,uint256[])": "infinite",
				"getSingleProperty(bytes32,uint256)": "infinite",
				"isApprovedForAll(address,address)": "infinite",
				"mintTo(address,uint256)": "infinite",
				"name()": "infinite",
				"owner()": "2590",
				"ownerOf(uint256)": "3088",
				"queryMultipleTokenTemplate(uint256[])": "infinite",
				"removeManager(address)": "27150",
				"removeMinter(address)": "27063",
				"renounceOwnership()": "30343",
				"safeBatchMint(address[],uint256)": "infinite",
				"safeBatchTransferFrom(address,address[],uint256[])": "infinite",
				"safeMint(address,uint256)": "infinite",
				"safeTransferFrom(address,address,uint256)": "infinite",
				"safeTransferFrom(address,address,uint256,bytes)": "infinite",
				"setApprovalForAll(address,bool)": "infinite",
				"setBaseUri(string)": "infinite",
				"setBatchProperty(bytes32[],uint256[],uint256[])": "infinite",
				"setMultipleProperty(bytes32,uint256[],uint256[])": "infinite",
				"setMultipleTemplateUri(uint256[],string[])": "infinite",
				"setSingleProperty(bytes32,uint256,uint256)": "infinite",
				"supportsInterface(bytes4)": "915",
				"symbol()": "infinite",
				"tokenByIndex(uint256)": "infinite",
				"tokenOfOwnerByIndex(address,uint256)": "infinite",
				"tokenOfOwnerTotal(address)": "infinite",
				"tokenURI(uint256)": "infinite",
				"totalSupply()": "2602",
				"transferFrom(address,address,uint256)": "infinite",
				"transferOwnership(address)": "30757"
			},
			"internal": {
				"_mint(address,uint256)": "infinite"
			}
		},
		"methodIdentifiers": {
			"LAUNCHPAD()": "51431d4f",
			"LAUNCH_MAX_SUPPLY()": "a0d1685c",
			"LAUNCH_SUPPLY()": "fb1ace18",
			"_baseUri()": "3e63eb2a",
			"_currentNextId()": "1c178087",
			"_defaultTemplateId()": "ca6567c9",
			"_tokenUris(uint256)": "1ee58f97",
			"_uriTemplate(uint256)": "324e4410",
			"addManager(address)": "2d06177a",
			"addMinter(address)": "983b2d56",
			"approve(address,uint256)": "095ea7b3",
			"assignMultipleTokenTemplate(uint256[],uint256[])": "5dd2ccb3",
			"assignTokenTemplate(uint256,uint256)": "5ca45dd7",
			"balanceOf(address)": "70a08231",
			"changeLaunchMaxSupply(uint256)": "f78ae6ef",
			"getApproved(uint256)": "081812fc",
			"getBatchProperty(bytes32[],uint256[])": "f56d504f",
			"getLaunchpadSupply()": "eebb28b2",
			"getMaxLaunchpadSupply()": "5b43bba1",
			"getMultipleProperty(bytes32,uint256[])": "052641da",
			"getSingleProperty(bytes32,uint256)": "ec4db283",
			"isApprovedForAll(address,address)": "e985e9c5",
			"mintTo(address,uint256)": "449a52f8",
			"name()": "06fdde03",
			"owner()": "8da5cb5b",
			"ownerOf(uint256)": "6352211e",
			"queryMultipleTokenTemplate(uint256[])": "edd864e5",
			"removeManager(address)": "ac18de43",
			"removeMinter(address)": "3092afd5",
			"renounceOwnership()": "715018a6",
			"safeBatchMint(address[],uint256)": "43253955",
			"safeBatchTransferFrom(address,address[],uint256[])": "234d4386",
			"safeMint(address,uint256)": "a1448194",
			"safeTransferFrom(address,address,uint256)": "42842e0e",
			"safeTransferFrom(address,address,uint256,bytes)": "b88d4fde",
			"setApprovalForAll(address,bool)": "a22cb465",
			"setBaseUri(string)": "a0bcfc7f",
			"setBatchProperty(bytes32[],uint256[],uint256[])": "9034edb5",
			"setMultipleProperty(bytes32,uint256[],uint256[])": "9c26eb3f",
			"setMultipleTemplateUri(uint256[],string[])": "dc851230",
			"setSingleProperty(bytes32,uint256,uint256)": "d9965572",
			"supportsInterface(bytes4)": "01ffc9a7",
			"symbol()": "95d89b41",
			"tokenByIndex(uint256)": "4f6ccce7",
			"tokenOfOwnerByIndex(address,uint256)": "2f745c59",
			"tokenOfOwnerTotal(address)": "fb570bbf",
			"tokenURI(uint256)": "c87b56dd",
			"totalSupply()": "18160ddd",
			"transferFrom(address,address,uint256)": "23b872dd",
			"transferOwnership(address)": "f2fde38b"
		}
	},
	"abi": [
		{
			"inputs": [
				{
					"internalType": "string",
					"name": "name_",
					"type": "string"
				},
				{
					"internalType": "string",
					"name": "symbol_",
					"type": "string"
				},
				{
					"internalType": "string",
					"name": "baseUri_",
					"type": "string"
				},
				{
					"internalType": "address",
					"name": "launchpad",
					"type": "address"
				},
				{
					"internalType": "uint256",
					"name": "maxSupply",
					"type": "uint256"
				}
			],
			"stateMutability": "nonpayable",
			"type": "constructor"
		},
		{
			"anonymous": false,
			"inputs": [
				{
					"indexed": true,
					"internalType": "address",
					"name": "owner",
					"type": "address"
				},
				{
					"indexed": true,
					"internalType": "address",
					"name": "approved",
					"type": "address"
				},
				{
					"indexed": true,
					"internalType": "uint256",
					"name": "tokenId",
					"type": "uint256"
				}
			],
			"name": "Approval",
			"type": "event"
		},
		{
			"anonymous": false,
			"inputs": [
				{
					"indexed": true,
					"internalType": "address",
					"name": "owner",
					"type": "address"
				},
				{
					"indexed": true,
					"internalType": "address",
					"name": "operator",
					"type": "address"
				},
				{
					"indexed": false,
					"internalType": "bool",
					"name": "approved",
					"type": "bool"
				}
			],
			"name": "ApprovalForAll",
			"type": "event"
		},
		{
			"anonymous": false,
			"inputs": [
				{
					"indexed": true,
					"internalType": "address",
					"name": "previousOwner",
					"type": "address"
				},
				{
					"indexed": true,
					"internalType": "address",
					"name": "newOwner",
					"type": "address"
				}
			],
			"name": "OwnershipTransferred",
			"type": "event"
		},
		{
			"anonymous": false,
			"inputs": [
				{
					"indexed": true,
					"internalType": "address",
					"name": "from",
					"type": "address"
				},
				{
					"indexed": true,
					"internalType": "address",
					"name": "to",
					"type": "address"
				},
				{
					"indexed": true,
					"internalType": "uint256",
					"name": "tokenId",
					"type": "uint256"
				}
			],
			"name": "Transfer",
			"type": "event"
		},
		{
			"anonymous": false,
			"inputs": [
				{
					"indexed": false,
					"internalType": "string",
					"name": "_value",
					"type": "string"
				},
				{
					"indexed": true,
					"internalType": "uint256",
					"name": "_id",
					"type": "uint256"
				}
			],
			"name": "URI",
			"type": "event"
		},
		{
			"inputs": [],
			"name": "LAUNCHPAD",
			"outputs": [
				{
					"internalType": "address",
					"name": "",
					"type": "address"
				}
			],
			"stateMutability": "view",
			"type": "function"
		},
		{
			"inputs": [],
			"name": "LAUNCH_MAX_SUPPLY",
			"outputs": [
				{
					"internalType": "uint256",
					"name": "",
					"type": "uint256"
				}
			],
			"stateMutability": "view",
			"type": "function"
		},
		{
			"inputs": [],
			"name": "LAUNCH_SUPPLY",
			"outputs": [
				{
					"internalType": "uint256",
					"name": "",
					"type": "uint256"
				}
			],
			"stateMutability": "view",
			"type": "function"
		},
		{
			"inputs": [],
			"name": "_baseUri",
			"outputs": [
				{
					"internalType": "string",
					"name": "",
					"type": "string"
				}
			],
			"stateMutability": "view",
			"type": "function"
		},
		{
			"inputs": [],
			"name": "_currentNextId",
			"outputs": [
				{
					"internalType": "uint256",
					"name": "",
					"type": "uint256"
				}
			],
			"stateMutability": "view",
			"type": "function"
		},
		{
			"inputs": [],
			"name": "_defaultTemplateId",
			"outputs": [
				{
					"internalType": "uint256",
					"name": "",
					"type": "uint256"
				}
			],
			"stateMutability": "view",
			"type": "function"
		},
		{
			"inputs": [
				{
					"internalType": "uint256",
					"name": "",
					"type": "uint256"
				}
			],
			"name": "_tokenUris",
			"outputs": [
				{
					"internalType": "uint256",
					"name": "",
					"type": "uint256"
				}
			],
			"stateMutability": "view",
			"type": "function"
		},
		{
			"inputs": [
				{
					"internalType": "uint256",
					"name": "",
					"type": "uint256"
				}
			],
			"name": "_uriTemplate",
			"outputs": [
				{
					"internalType": "string",
					"name": "",
					"type": "string"
				}
			],
			"stateMutability": "view",
			"type": "function"
		},
		{
			"inputs": [
				{
					"internalType": "address",
					"name": "manager",
					"type": "address"
				}
			],
			"name": "addManager",
			"outputs": [],
			"stateMutability": "nonpayable",
			"type": "function"
		},
		{
			"inputs": [
				{
					"internalType": "address",
					"name": "minter",
					"type": "address"
				}
			],
			"name": "addMinter",
			"outputs": [],
			"stateMutability": "nonpayable",
			"type": "function"
		},
		{
			"inputs": [
				{
					"internalType": "address",
					"name": "to",
					"type": "address"
				},
				{
					"internalType": "uint256",
					"name": "tokenId",
					"type": "uint256"
				}
			],
			"name": "approve",
			"outputs": [],
			"stateMutability": "nonpayable",
			"type": "function"
		},
		{
			"inputs": [
				{
					"internalType": "uint256[]",
					"name": "_id",
					"type": "uint256[]"
				},
				{
					"internalType": "uint256[]",
					"name": "_templateId",
					"type": "uint256[]"
				}
			],
			"name": "assignMultipleTokenTemplate",
			"outputs": [],
			"stateMutability": "nonpayable",
			"type": "function"
		},
		{
			"inputs": [
				{
					"internalType": "uint256",
					"name": "_id",
					"type": "uint256"
				},
				{
					"internalType": "uint256",
					"name": "_templateId",
					"type": "uint256"
				}
			],
			"name": "assignTokenTemplate",
			"outputs": [],
			"stateMutability": "nonpayable",
			"type": "function"
		},
		{
			"inputs": [
				{
					"internalType": "address",
					"name": "owner",
					"type": "address"
				}
			],
			"name": "balanceOf",
			"outputs": [
				{
					"internalType": "uint256",
					"name": "",
					"type": "uint256"
				}
			],
			"stateMutability": "view",
			"type": "function"
		},
		{
			"inputs": [
				{
					"internalType": "uint256",
					"name": "newnubmer",
					"type": "uint256"
				}
			],
			"name": "changeLaunchMaxSupply",
			"outputs": [],
			"stateMutability": "nonpayable",
			"type": "function"
		},
		{
			"inputs": [
				{
					"internalType": "uint256",
					"name": "tokenId",
					"type": "uint256"
				}
			],
			"name": "getApproved",
			"outputs": [
				{
					"internalType": "address",
					"name": "",
					"type": "address"
				}
			],
			"stateMutability": "view",
			"type": "function"
		},
		{
			"inputs": [
				{
					"internalType": "bytes32[]",
					"name": "_property",
					"type": "bytes32[]"
				},
				{
					"internalType": "uint256[]",
					"name": "_id",
					"type": "uint256[]"
				}
			],
			"name": "getBatchProperty",
			"outputs": [
				{
					"internalType": "uint256[]",
					"name": "_value",
					"type": "uint256[]"
				}
			],
			"stateMutability": "view",
			"type": "function"
		},
		{
			"inputs": [],
			"name": "getLaunchpadSupply",
			"outputs": [
				{
					"internalType": "uint256",
					"name": "",
					"type": "uint256"
				}
			],
			"stateMutability": "view",
			"type": "function"
		},
		{
			"inputs": [],
			"name": "getMaxLaunchpadSupply",
			"outputs": [
				{
					"internalType": "uint256",
					"name": "",
					"type": "uint256"
				}
			],
			"stateMutability": "view",
			"type": "function"
		},
		{
			"inputs": [
				{
					"internalType": "bytes32",
					"name": "_property",
					"type": "bytes32"
				},
				{
					"internalType": "uint256[]",
					"name": "_id",
					"type": "uint256[]"
				}
			],
			"name": "getMultipleProperty",
			"outputs": [
				{
					"internalType": "uint256[]",
					"name": "_value",
					"type": "uint256[]"
				}
			],
			"stateMutability": "view",
			"type": "function"
		},
		{
			"inputs": [
				{
					"internalType": "bytes32",
					"name": "_property",
					"type": "bytes32"
				},
				{
					"internalType": "uint256",
					"name": "_id",
					"type": "uint256"
				}
			],
			"name": "getSingleProperty",
			"outputs": [
				{
					"internalType": "uint256",
					"name": "_value",
					"type": "uint256"
				}
			],
			"stateMutability": "view",
			"type": "function"
		},
		{
			"inputs": [
				{
					"internalType": "address",
					"name": "owner",
					"type": "address"
				},
				{
					"internalType": "address",
					"name": "operator",
					"type": "address"
				}
			],
			"name": "isApprovedForAll",
			"outputs": [
				{
					"internalType": "bool",
					"name": "",
					"type": "bool"
				}
			],
			"stateMutability": "view",
			"type": "function"
		},
		{
			"inputs": [
				{
					"internalType": "address",
					"name": "to",
					"type": "address"
				},
				{
					"internalType": "uint256",
					"name": "size",
					"type": "uint256"
				}
			],
			"name": "mintTo",
			"outputs": [],
			"stateMutability": "nonpayable",
			"type": "function"
		},
		{
			"inputs": [],
			"name": "name",
			"outputs": [
				{
					"internalType": "string",
					"name": "",
					"type": "string"
				}
			],
			"stateMutability": "view",
			"type": "function"
		},
		{
			"inputs": [],
			"name": "owner",
			"outputs": [
				{
					"internalType": "address",
					"name": "",
					"type": "address"
				}
			],
			"stateMutability": "view",
			"type": "function"
		},
		{
			"inputs": [
				{
					"internalType": "uint256",
					"name": "tokenId",
					"type": "uint256"
				}
			],
			"name": "ownerOf",
			"outputs": [
				{
					"internalType": "address",
					"name": "",
					"type": "address"
				}
			],
			"stateMutability": "view",
			"type": "function"
		},
		{
			"inputs": [
				{
					"internalType": "uint256[]",
					"name": "_templateId",
					"type": "uint256[]"
				}
			],
			"name": "queryMultipleTokenTemplate",
			"outputs": [
				{
					"internalType": "string[]",
					"name": "",
					"type": "string[]"
				}
			],
			"stateMutability": "view",
			"type": "function"
		},
		{
			"inputs": [
				{
					"internalType": "address",
					"name": "manager",
					"type": "address"
				}
			],
			"name": "removeManager",
			"outputs": [],
			"stateMutability": "nonpayable",
			"type": "function"
		},
		{
			"inputs": [
				{
					"internalType": "address",
					"name": "minter",
					"type": "address"
				}
			],
			"name": "removeMinter",
			"outputs": [],
			"stateMutability": "nonpayable",
			"type": "function"
		},
		{
			"inputs": [],
			"name": "renounceOwnership",
			"outputs": [],
			"stateMutability": "nonpayable",
			"type": "function"
		},
		{
			"inputs": [
				{
					"internalType": "address[]",
					"name": "_to",
					"type": "address[]"
				},
				{
					"internalType": "uint256",
					"name": "_uriTemplateId",
					"type": "uint256"
				}
			],
			"name": "safeBatchMint",
			"outputs": [],
			"stateMutability": "nonpayable",
			"type": "function"
		},
		{
			"inputs": [
				{
					"internalType": "address",
					"name": "_from",
					"type": "address"
				},
				{
					"internalType": "address[]",
					"name": "_to",
					"type": "address[]"
				},
				{
					"internalType": "uint256[]",
					"name": "_tokenId",
					"type": "uint256[]"
				}
			],
			"name": "safeBatchTransferFrom",
			"outputs": [],
			"stateMutability": "nonpayable",
			"type": "function"
		},
		{
			"inputs": [
				{
					"internalType": "address",
					"name": "_to",
					"type": "address"
				},
				{
					"internalType": "uint256",
					"name": "_uriTemplateId",
					"type": "uint256"
				}
			],
			"name": "safeMint",
			"outputs": [],
			"stateMutability": "nonpayable",
			"type": "function"
		},
		{
			"inputs": [
				{
					"internalType": "address",
					"name": "from",
					"type": "address"
				},
				{
					"internalType": "address",
					"name": "to",
					"type": "address"
				},
				{
					"internalType": "uint256",
					"name": "tokenId",
					"type": "uint256"
				}
			],
			"name": "safeTransferFrom",
			"outputs": [],
			"stateMutability": "nonpayable",
			"type": "function"
		},
		{
			"inputs": [
				{
					"internalType": "address",
					"name": "from",
					"type": "address"
				},
				{
					"internalType": "address",
					"name": "to",
					"type": "address"
				},
				{
					"internalType": "uint256",
					"name": "tokenId",
					"type": "uint256"
				},
				{
					"internalType": "bytes",
					"name": "_data",
					"type": "bytes"
				}
			],
			"name": "safeTransferFrom",
			"outputs": [],
			"stateMutability": "nonpayable",
			"type": "function"
		},
		{
			"inputs": [
				{
					"internalType": "address",
					"name": "operator",
					"type": "address"
				},
				{
					"internalType": "bool",
					"name": "approved",
					"type": "bool"
				}
			],
			"name": "setApprovalForAll",
			"outputs": [],
			"stateMutability": "nonpayable",
			"type": "function"
		},
		{
			"inputs": [
				{
					"internalType": "string",
					"name": "newuri",
					"type": "string"
				}
			],
			"name": "setBaseUri",
			"outputs": [],
			"stateMutability": "nonpayable",
			"type": "function"
		},
		{
			"inputs": [
				{
					"internalType": "bytes32[]",
					"name": "_property",
					"type": "bytes32[]"
				},
				{
					"internalType": "uint256[]",
					"name": "_id",
					"type": "uint256[]"
				},
				{
					"internalType": "uint256[]",
					"name": "_value",
					"type": "uint256[]"
				}
			],
			"name": "setBatchProperty",
			"outputs": [],
			"stateMutability": "nonpayable",
			"type": "function"
		},
		{
			"inputs": [
				{
					"internalType": "bytes32",
					"name": "_property",
					"type": "bytes32"
				},
				{
					"internalType": "uint256[]",
					"name": "_id",
					"type": "uint256[]"
				},
				{
					"internalType": "uint256[]",
					"name": "_value",
					"type": "uint256[]"
				}
			],
			"name": "setMultipleProperty",
			"outputs": [],
			"stateMutability": "nonpayable",
			"type": "function"
		},
		{
			"inputs": [
				{
					"internalType": "uint256[]",
					"name": "templateId",
					"type": "uint256[]"
				},
				{
					"internalType": "string[]",
					"name": "uri",
					"type": "string[]"
				}
			],
			"name": "setMultipleTemplateUri",
			"outputs": [],
			"stateMutability": "nonpayable",
			"type": "function"
		},
		{
			"inputs": [
				{
					"internalType": "bytes32",
					"name": "_property",
					"type": "bytes32"
				},
				{
					"internalType": "uint256",
					"name": "_id",
					"type": "uint256"
				},
				{
					"internalType": "uint256",
					"name": "_value",
					"type": "uint256"
				}
			],
			"name": "setSingleProperty",
			"outputs": [],
			"stateMutability": "nonpayable",
			"type": "function"
		},
		{
			"inputs": [
				{
					"internalType": "bytes4",
					"name": "interfaceId",
					"type": "bytes4"
				}
			],
			"name": "supportsInterface",
			"outputs": [
				{
					"internalType": "bool",
					"name": "",
					"type": "bool"
				}
			],
			"stateMutability": "view",
			"type": "function"
		},
		{
			"inputs": [],
			"name": "symbol",
			"outputs": [
				{
					"internalType": "string",
					"name": "",
					"type": "string"
				}
			],
			"stateMutability": "view",
			"type": "function"
		},
		{
			"inputs": [
				{
					"internalType": "uint256",
					"name": "index",
					"type": "uint256"
				}
			],
			"name": "tokenByIndex",
			"outputs": [
				{
					"internalType": "uint256",
					"name": "",
					"type": "uint256"
				}
			],
			"stateMutability": "view",
			"type": "function"
		},
		{
			"inputs": [
				{
					"internalType": "address",
					"name": "owner",
					"type": "address"
				},
				{
					"internalType": "uint256",
					"name": "index",
					"type": "uint256"
				}
			],
			"name": "tokenOfOwnerByIndex",
			"outputs": [
				{
					"internalType": "uint256",
					"name": "",
					"type": "uint256"
				}
			],
			"stateMutability": "view",
			"type": "function"
		},
		{
			"inputs": [
				{
					"internalType": "address",
					"name": "owner",
					"type": "address"
				}
			],
			"name": "tokenOfOwnerTotal",
			"outputs": [
				{
					"internalType": "uint256[]",
					"name": "_ids",
					"type": "uint256[]"
				}
			],
			"stateMutability": "view",
			"type": "function"
		},
		{
			"inputs": [
				{
					"internalType": "uint256",
					"name": "_id",
					"type": "uint256"
				}
			],
			"name": "tokenURI",
			"outputs": [
				{
					"internalType": "string",
					"name": "",
					"type": "string"
				}
			],
			"stateMutability": "view",
			"type": "function"
		},
		{
			"inputs": [],
			"name": "totalSupply",
			"outputs": [
				{
					"internalType": "uint256",
					"name": "",
					"type": "uint256"
				}
			],
			"stateMutability": "view",
			"type": "function"
		},
		{
			"inputs": [
				{
					"internalType": "address",
					"name": "from",
					"type": "address"
				},
				{
					"internalType": "address",
					"name": "to",
					"type": "address"
				},
				{
					"internalType": "uint256",
					"name": "tokenId",
					"type": "uint256"
				}
			],
			"name": "transferFrom",
			"outputs": [],
			"stateMutability": "nonpayable",
			"type": "function"
		},
		{
			"inputs": [
				{
					"internalType": "address",
					"name": "newOwner",
					"type": "address"
				}
			],
			"name": "transferOwnership",
			"outputs": [],
			"stateMutability": "nonpayable",
			"type": "function"
		}
	]
}