{
	"atta-movies/PopcornERC20.sol": {
		"ERC20Minter": {
			"abi": [
				{
					"inputs": [
						{
							"internalType": "string",
							"name": "name_",
							"type": "string"
						},
						{
							"internalType": "string",
							"name": "symbol_",
							"type": "string"
						}
					],
					"stateMutability": "nonpayable",
					"type": "constructor"
				},
				{
					"anonymous": false,
					"inputs": [
						{
							"indexed": true,
							"internalType": "address",
							"name": "manager",
							"type": "address"
						}
					],
					"name": "AddManager",
					"type": "event"
				},
				{
					"anonymous": false,
					"inputs": [
						{
							"indexed": true,
							"internalType": "address",
							"name": "owner",
							"type": "address"
						},
						{
							"indexed": true,
							"internalType": "address",
							"name": "spender",
							"type": "address"
						},
						{
							"indexed": false,
							"internalType": "uint256",
							"name": "value",
							"type": "uint256"
						}
					],
					"name": "Approval",
					"type": "event"
				},
				{
					"anonymous": false,
					"inputs": [
						{
							"indexed": true,
							"internalType": "address",
							"name": "previousOwner",
							"type": "address"
						},
						{
							"indexed": true,
							"internalType": "address",
							"name": "newOwner",
							"type": "address"
						}
					],
					"name": "OwnershipTransferred",
					"type": "event"
				},
				{
					"anonymous": false,
					"inputs": [
						{
							"indexed": true,
							"internalType": "address",
							"name": "manager",
							"type": "address"
						}
					],
					"name": "RemoveManager",
					"type": "event"
				},
				{
					"anonymous": false,
					"inputs": [
						{
							"indexed": true,
							"internalType": "address",
							"name": "from",
							"type": "address"
						},
						{
							"indexed": true,
							"internalType": "address",
							"name": "to",
							"type": "address"
						},
						{
							"indexed": false,
							"internalType": "uint256",
							"name": "value",
							"type": "uint256"
						}
					],
					"name": "Transfer",
					"type": "event"
				},
				{
					"inputs": [
						{
							"internalType": "address",
							"name": "manager",
							"type": "address"
						}
					],
					"name": "addManager",
					"outputs": [],
					"stateMutability": "nonpayable",
					"type": "function"
				},
				{
					"inputs": [
						{
							"internalType": "address",
							"name": "owner",
							"type": "address"
						},
						{
							"internalType": "address",
							"name": "spender",
							"type": "address"
						}
					],
					"name": "allowance",
					"outputs": [
						{
							"internalType": "uint256",
							"name": "",
							"type": "uint256"
						}
					],
					"stateMutability": "view",
					"type": "function"
				},
				{
					"inputs": [
						{
							"internalType": "address",
							"name": "spender",
							"type": "address"
						},
						{
							"internalType": "uint256",
							"name": "amount",
							"type": "uint256"
						}
					],
					"name": "approve",
					"outputs": [
						{
							"internalType": "bool",
							"name": "",
							"type": "bool"
						}
					],
					"stateMutability": "nonpayable",
					"type": "function"
				},
				{
					"inputs": [
						{
							"internalType": "address",
							"name": "account",
							"type": "address"
						}
					],
					"name": "balanceOf",
					"outputs": [
						{
							"internalType": "uint256",
							"name": "",
							"type": "uint256"
						}
					],
					"stateMutability": "view",
					"type": "function"
				},
				{
					"inputs": [
						{
							"internalType": "uint256",
							"name": "amount",
							"type": "uint256"
						}
					],
					"name": "burn",
					"outputs": [],
					"stateMutability": "nonpayable",
					"type": "function"
				},
				{
					"inputs": [],
					"name": "decimals",
					"outputs": [
						{
							"internalType": "uint8",
							"name": "",
							"type": "uint8"
						}
					],
					"stateMutability": "view",
					"type": "function"
				},
				{
					"inputs": [
						{
							"internalType": "address",
							"name": "spender",
							"type": "address"
						},
						{
							"internalType": "uint256",
							"name": "subtractedValue",
							"type": "uint256"
						}
					],
					"name": "decreaseAllowance",
					"outputs": [
						{
							"internalType": "bool",
							"name": "",
							"type": "bool"
						}
					],
					"stateMutability": "nonpayable",
					"type": "function"
				},
				{
					"inputs": [
						{
							"internalType": "address",
							"name": "spender",
							"type": "address"
						},
						{
							"internalType": "uint256",
							"name": "addedValue",
							"type": "uint256"
						}
					],
					"name": "increaseAllowance",
					"outputs": [
						{
							"internalType": "bool",
							"name": "",
							"type": "bool"
						}
					],
					"stateMutability": "nonpayable",
					"type": "function"
				},
				{
					"inputs": [
						{
							"internalType": "address",
							"name": "account",
							"type": "address"
						},
						{
							"internalType": "uint256",
							"name": "amount",
							"type": "uint256"
						}
					],
					"name": "mint",
					"outputs": [],
					"stateMutability": "nonpayable",
					"type": "function"
				},
				{
					"inputs": [],
					"name": "name",
					"outputs": [
						{
							"internalType": "string",
							"name": "",
							"type": "string"
						}
					],
					"stateMutability": "view",
					"type": "function"
				},
				{
					"inputs": [],
					"name": "owner",
					"outputs": [
						{
							"internalType": "address",
							"name": "",
							"type": "address"
						}
					],
					"stateMutability": "view",
					"type": "function"
				},
				{
					"inputs": [
						{
							"internalType": "address",
							"name": "manager",
							"type": "address"
						}
					],
					"name": "removeManager",
					"outputs": [],
					"stateMutability": "nonpayable",
					"type": "function"
				},
				{
					"inputs": [],
					"name": "renounceOwnership",
					"outputs": [],
					"stateMutability": "nonpayable",
					"type": "function"
				},
				{
					"inputs": [],
					"name": "symbol",
					"outputs": [
						{
							"internalType": "string",
							"name": "",
							"type": "string"
						}
					],
					"stateMutability": "view",
					"type": "function"
				},
				{
					"inputs": [],
					"name": "totalSupply",
					"outputs": [
						{
							"internalType": "uint256",
							"name": "",
							"type": "uint256"
						}
					],
					"stateMutability": "view",
					"type": "function"
				},
				{
					"inputs": [
						{
							"internalType": "address",
							"name": "recipient",
							"type": "address"
						},
						{
							"internalType": "uint256",
							"name": "amount",
							"type": "uint256"
						}
					],
					"name": "transfer",
					"outputs": [
						{
							"internalType": "bool",
							"name": "",
							"type": "bool"
						}
					],
					"stateMutability": "nonpayable",
					"type": "function"
				},
				{
					"inputs": [
						{
							"internalType": "address",
							"name": "sender",
							"type": "address"
						},
						{
							"internalType": "address",
							"name": "recipient",
							"type": "address"
						},
						{
							"internalType": "uint256",
							"name": "amount",
							"type": "uint256"
						}
					],
					"name": "transferFrom",
					"outputs": [
						{
							"internalType": "bool",
							"name": "",
							"type": "bool"
						}
					],
					"stateMutability": "nonpayable",
					"type": "function"
				},
				{
					"inputs": [
						{
							"internalType": "address",
							"name": "newOwner",
							"type": "address"
						}
					],
					"name": "transferOwnership",
					"outputs": [],
					"stateMutability": "nonpayable",
					"type": "function"
				}
			],
			"devdoc": {
				"kind": "dev",
				"methods": {
					"allowance(address,address)": {
						"details": "See {IERC20-allowance}."
					},
					"approve(address,uint256)": {
						"details": "See {IERC20-approve}. Requirements: - `spender` cannot be the zero address."
					},
					"balanceOf(address)": {
						"details": "See {IERC20-balanceOf}."
					},
					"decimals()": {
						"details": "Returns the number of decimals used to get its user representation. For example, if `decimals` equals `2`, a balance of `505` tokens should be displayed to a user as `5.05` (`505 / 10 ** 2`). Tokens usually opt for a value of 18, imitating the relationship between Ether and Wei. This is the value {ERC20} uses, unless this function is overridden; NOTE: This information is only used for _display_ purposes: it in no way affects any of the arithmetic of the contract, including {IERC20-balanceOf} and {IERC20-transfer}."
					},
					"decreaseAllowance(address,uint256)": {
						"details": "Atomically decreases the allowance granted to `spender` by the caller. This is an alternative to {approve} that can be used as a mitigation for problems described in {IERC20-approve}. Emits an {Approval} event indicating the updated allowance. Requirements: - `spender` cannot be the zero address. - `spender` must have allowance for the caller of at least `subtractedValue`."
					},
					"increaseAllowance(address,uint256)": {
						"details": "Atomically increases the allowance granted to `spender` by the caller. This is an alternative to {approve} that can be used as a mitigation for problems described in {IERC20-approve}. Emits an {Approval} event indicating the updated allowance. Requirements: - `spender` cannot be the zero address."
					},
					"name()": {
						"details": "Returns the name of the token."
					},
					"owner()": {
						"details": "Returns the address of the current owner."
					},
					"renounceOwnership()": {
						"details": "Leaves the contract without owner. It will not be possible to call `onlyOwner` functions anymore. Can only be called by the current owner. NOTE: Renouncing ownership will leave the contract without an owner, thereby removing any functionality that is only available to the owner."
					},
					"symbol()": {
						"details": "Returns the symbol of the token, usually a shorter version of the name."
					},
					"totalSupply()": {
						"details": "See {IERC20-totalSupply}."
					},
					"transfer(address,uint256)": {
						"details": "See {IERC20-transfer}. Requirements: - `recipient` cannot be the zero address. - the caller must have a balance of at least `amount`."
					},
					"transferFrom(address,address,uint256)": {
						"details": "See {IERC20-transferFrom}. Emits an {Approval} event indicating the updated allowance. This is not required by the EIP. See the note at the beginning of {ERC20}. Requirements: - `sender` and `recipient` cannot be the zero address. - `sender` must have a balance of at least `amount`. - the caller must have allowance for ``sender``'s tokens of at least `amount`."
					},
					"transferOwnership(address)": {
						"details": "Transfers ownership of the contract to a new account (`newOwner`). Can only be called by the current owner."
					}
				},
				"version": 1
			},
			"evm": {
				"assembly": "    /* \"atta-movies/PopcornERC20.sol\":18931:19282  contract ERC20Minter is ERC20, Ownable {\r... */\n  mstore(0x40, 0x80)\n    /* \"atta-movies/PopcornERC20.sol\":18977:19057  constructor(string memory name_, string memory symbol_) ERC20(name_, symbol_) {} */\n  callvalue\n  dup1\n  iszero\n  tag_1\n  jumpi\n  0x00\n  dup1\n  revert\ntag_1:\n  pop\n  mload(0x40)\n  sub(codesize, bytecodeSize)\n  dup1\n  bytecodeSize\n  dup4\n  codecopy\n  dup2\n  dup2\n  add\n  0x40\n  mstore\n  dup2\n  add\n  swap1\n  tag_2\n  swap2\n  swap1\n  tag_3\n  jump\t// in\ntag_2:\n    /* \"atta-movies/PopcornERC20.sol\":19039:19044  name_ */\n  dup2\n    /* \"atta-movies/PopcornERC20.sol\":19046:19053  symbol_ */\n  dup2\n    /* \"atta-movies/PopcornERC20.sol\":6047:6052  name_ */\n  dup2\n    /* \"atta-movies/PopcornERC20.sol\":6039:6044  _name */\n  0x03\n    /* \"atta-movies/PopcornERC20.sol\":6039:6052  _name = name_ */\n  swap1\n  dup1\n  mload\n  swap1\n  0x20\n  add\n  swap1\n  tag_8\n  swap3\n  swap2\n  swap1\n  tag_9\n  jump\t// in\ntag_8:\n  pop\n    /* \"atta-movies/PopcornERC20.sol\":6073:6080  symbol_ */\n  dup1\n    /* \"atta-movies/PopcornERC20.sol\":6063:6070  _symbol */\n  0x04\n    /* \"atta-movies/PopcornERC20.sol\":6063:6080  _symbol = symbol_ */\n  swap1\n  dup1\n  mload\n  swap1\n  0x20\n  add\n  swap1\n  tag_10\n  swap3\n  swap2\n  swap1\n  tag_9\n  jump\t// in\ntag_10:\n  pop\n    /* \"atta-movies/PopcornERC20.sol\":5972:6088  constructor(string memory name_, string memory symbol_) {\r... */\n  pop\n  pop\n    /* \"atta-movies/PopcornERC20.sol\":17067:17084  address msgSender */\n  0x00\n    /* \"atta-movies/PopcornERC20.sol\":17087:17099  _msgSender() */\n  tag_12\n    /* \"atta-movies/PopcornERC20.sol\":17087:17097  _msgSender */\n  shl(0x20, tag_13)\n    /* \"atta-movies/PopcornERC20.sol\":17087:17099  _msgSender() */\n  0x20\n  shr\n  jump\t// in\ntag_12:\n    /* \"atta-movies/PopcornERC20.sol\":17067:17099  address msgSender = _msgSender() */\n  swap1\n  pop\n    /* \"atta-movies/PopcornERC20.sol\":17119:17128  msgSender */\n  dup1\n    /* \"atta-movies/PopcornERC20.sol\":17110:17116  _owner */\n  0x05\n  0x00\n    /* \"atta-movies/PopcornERC20.sol\":17110:17128  _owner = msgSender */\n  0x0100\n  exp\n  dup2\n  sload\n  dup2\n  0xffffffffffffffffffffffffffffffffffffffff\n  mul\n  not\n  and\n  swap1\n  dup4\n  0xffffffffffffffffffffffffffffffffffffffff\n  and\n  mul\n  or\n  swap1\n  sstore\n  pop\n    /* \"atta-movies/PopcornERC20.sol\":17177:17186  msgSender */\n  dup1\n    /* \"atta-movies/PopcornERC20.sol\":17144:17187  OwnershipTransferred(address(0), msgSender) */\n  0xffffffffffffffffffffffffffffffffffffffff\n  and\n    /* \"atta-movies/PopcornERC20.sol\":17173:17174  0 */\n  0x00\n    /* \"atta-movies/PopcornERC20.sol\":17144:17187  OwnershipTransferred(address(0), msgSender) */\n  0xffffffffffffffffffffffffffffffffffffffff\n  and\n  0x8be0079c531659141344cd1fd0a4f28419497f9722a3daafe3b4186f6b6457e0\n  mload(0x40)\n  mload(0x40)\n  dup1\n  swap2\n  sub\n  swap1\n  log3\n    /* \"atta-movies/PopcornERC20.sol\":17041:17195  constructor () {\r... */\n  pop\n    /* \"atta-movies/PopcornERC20.sol\":18977:19057  constructor(string memory name_, string memory symbol_) ERC20(name_, symbol_) {} */\n  pop\n  pop\n    /* \"atta-movies/PopcornERC20.sol\":18931:19282  contract ERC20Minter is ERC20, Ownable {\r... */\n  jump(tag_15)\n    /* \"atta-movies/PopcornERC20.sol\":3953:4051  function _msgSender() internal view virtual returns (address) {\r... */\ntag_13:\n    /* \"atta-movies/PopcornERC20.sol\":4006:4013  address */\n  0x00\n    /* \"atta-movies/PopcornERC20.sol\":4033:4043  msg.sender */\n  caller\n    /* \"atta-movies/PopcornERC20.sol\":4026:4043  return msg.sender */\n  swap1\n  pop\n    /* \"atta-movies/PopcornERC20.sol\":3953:4051  function _msgSender() internal view virtual returns (address) {\r... */\n  swap1\n  jump\t// out\n    /* \"atta-movies/PopcornERC20.sol\":18931:19282  contract ERC20Minter is ERC20, Ownable {\r... */\ntag_9:\n  dup3\n  dup1\n  sload\n  tag_17\n  swap1\n  tag_18\n  jump\t// in\ntag_17:\n  swap1\n  0x00\n  mstore\n  keccak256(0x00, 0x20)\n  swap1\n  0x1f\n  add\n  0x20\n  swap1\n  div\n  dup2\n  add\n  swap3\n  dup3\n  tag_20\n  jumpi\n  0x00\n  dup6\n  sstore\n  jump(tag_19)\ntag_20:\n  dup3\n  0x1f\n  lt\n  tag_21\n  jumpi\n  dup1\n  mload\n  not(0xff)\n  and\n  dup4\n  dup1\n  add\n  or\n  dup6\n  sstore\n  jump(tag_19)\ntag_21:\n  dup3\n  dup1\n  add\n  0x01\n  add\n  dup6\n  sstore\n  dup3\n  iszero\n  tag_19\n  jumpi\n  swap2\n  dup3\n  add\ntag_22:\n  dup3\n  dup2\n  gt\n  iszero\n  tag_23\n  jumpi\n  dup3\n  mload\n  dup3\n  sstore\n  swap2\n  0x20\n  add\n  swap2\n  swap1\n  0x01\n  add\n  swap1\n  jump(tag_22)\ntag_23:\ntag_19:\n  pop\n  swap1\n  pop\n  tag_24\n  swap2\n  swap1\n  tag_25\n  jump\t// in\ntag_24:\n  pop\n  swap1\n  jump\t// out\ntag_25:\ntag_26:\n  dup1\n  dup3\n  gt\n  iszero\n  tag_27\n  jumpi\n  0x00\n  dup2\n  0x00\n  swap1\n  sstore\n  pop\n  0x01\n  add\n  jump(tag_26)\ntag_27:\n  pop\n  swap1\n  jump\t// out\n    /* \"#utility.yul\":7:360   */\ntag_29:\n  0x00\n    /* \"#utility.yul\":121:186   */\n  tag_31\n    /* \"#utility.yul\":136:185   */\n  tag_32\n    /* \"#utility.yul\":178:184   */\n  dup5\n    /* \"#utility.yul\":136:185   */\n  tag_33\n  jump\t// in\ntag_32:\n    /* \"#utility.yul\":121:186   */\n  tag_34\n  jump\t// in\ntag_31:\n    /* \"#utility.yul\":112:186   */\n  swap1\n  pop\n    /* \"#utility.yul\":209:215   */\n  dup3\n    /* \"#utility.yul\":202:207   */\n  dup2\n    /* \"#utility.yul\":195:216   */\n  mstore\n    /* \"#utility.yul\":247:251   */\n  0x20\n    /* \"#utility.yul\":240:245   */\n  dup2\n    /* \"#utility.yul\":236:252   */\n  add\n    /* \"#utility.yul\":285:288   */\n  dup5\n    /* \"#utility.yul\":276:282   */\n  dup5\n    /* \"#utility.yul\":271:274   */\n  dup5\n    /* \"#utility.yul\":267:283   */\n  add\n    /* \"#utility.yul\":264:289   */\n  gt\n    /* \"#utility.yul\":261:263   */\n  iszero\n  tag_35\n  jumpi\n    /* \"#utility.yul\":302:303   */\n  0x00\n    /* \"#utility.yul\":299:300   */\n  dup1\n    /* \"#utility.yul\":292:304   */\n  revert\n    /* \"#utility.yul\":261:263   */\ntag_35:\n    /* \"#utility.yul\":315:354   */\n  tag_36\n    /* \"#utility.yul\":347:353   */\n  dup5\n    /* \"#utility.yul\":342:345   */\n  dup3\n    /* \"#utility.yul\":337:340   */\n  dup6\n    /* \"#utility.yul\":315:354   */\n  tag_37\n  jump\t// in\ntag_36:\n    /* \"#utility.yul\":102:360   */\n  pop\n  swap4\n  swap3\n  pop\n  pop\n  pop\n  jump\t// out\n    /* \"#utility.yul\":380:668   */\ntag_38:\n  0x00\n    /* \"#utility.yul\":496:499   */\n  dup3\n    /* \"#utility.yul\":489:493   */\n  0x1f\n    /* \"#utility.yul\":481:487   */\n  dup4\n    /* \"#utility.yul\":477:494   */\n  add\n    /* \"#utility.yul\":473:500   */\n  slt\n    /* \"#utility.yul\":463:465   */\n  tag_40\n  jumpi\n    /* \"#utility.yul\":514:515   */\n  0x00\n    /* \"#utility.yul\":511:512   */\n  dup1\n    /* \"#utility.yul\":504:516   */\n  revert\n    /* \"#utility.yul\":463:465   */\ntag_40:\n    /* \"#utility.yul\":547:553   */\n  dup2\n    /* \"#utility.yul\":541:554   */\n  mload\n    /* \"#utility.yul\":572:662   */\n  tag_41\n    /* \"#utility.yul\":658:661   */\n  dup5\n    /* \"#utility.yul\":650:656   */\n  dup3\n    /* \"#utility.yul\":643:647   */\n  0x20\n    /* \"#utility.yul\":635:641   */\n  dup7\n    /* \"#utility.yul\":631:648   */\n  add\n    /* \"#utility.yul\":572:662   */\n  tag_29\n  jump\t// in\ntag_41:\n    /* \"#utility.yul\":563:662   */\n  swap2\n  pop\n    /* \"#utility.yul\":453:668   */\n  pop\n  swap3\n  swap2\n  pop\n  pop\n  jump\t// out\n    /* \"#utility.yul\":674:1326   */\ntag_3:\n  0x00\n  dup1\n    /* \"#utility.yul\":830:832   */\n  0x40\n    /* \"#utility.yul\":818:827   */\n  dup4\n    /* \"#utility.yul\":809:816   */\n  dup6\n    /* \"#utility.yul\":805:828   */\n  sub\n    /* \"#utility.yul\":801:833   */\n  slt\n    /* \"#utility.yul\":798:800   */\n  iszero\n  tag_43\n  jumpi\n    /* \"#utility.yul\":846:847   */\n  0x00\n    /* \"#utility.yul\":843:844   */\n  dup1\n    /* \"#utility.yul\":836:848   */\n  revert\n    /* \"#utility.yul\":798:800   */\ntag_43:\n    /* \"#utility.yul\":910:911   */\n  0x00\n    /* \"#utility.yul\":899:908   */\n  dup4\n    /* \"#utility.yul\":895:912   */\n  add\n    /* \"#utility.yul\":889:913   */\n  mload\n    /* \"#utility.yul\":940:958   */\n  0xffffffffffffffff\n    /* \"#utility.yul\":932:938   */\n  dup2\n    /* \"#utility.yul\":929:959   */\n  gt\n    /* \"#utility.yul\":926:928   */\n  iszero\n  tag_44\n  jumpi\n    /* \"#utility.yul\":972:973   */\n  0x00\n    /* \"#utility.yul\":969:970   */\n  dup1\n    /* \"#utility.yul\":962:974   */\n  revert\n    /* \"#utility.yul\":926:928   */\ntag_44:\n    /* \"#utility.yul\":1000:1074   */\n  tag_45\n    /* \"#utility.yul\":1066:1073   */\n  dup6\n    /* \"#utility.yul\":1057:1063   */\n  dup3\n    /* \"#utility.yul\":1046:1055   */\n  dup7\n    /* \"#utility.yul\":1042:1064   */\n  add\n    /* \"#utility.yul\":1000:1074   */\n  tag_38\n  jump\t// in\ntag_45:\n    /* \"#utility.yul\":990:1074   */\n  swap3\n  pop\n    /* \"#utility.yul\":860:1084   */\n  pop\n    /* \"#utility.yul\":1144:1146   */\n  0x20\n    /* \"#utility.yul\":1133:1142   */\n  dup4\n    /* \"#utility.yul\":1129:1147   */\n  add\n    /* \"#utility.yul\":1123:1148   */\n  mload\n    /* \"#utility.yul\":1175:1193   */\n  0xffffffffffffffff\n    /* \"#utility.yul\":1167:1173   */\n  dup2\n    /* \"#utility.yul\":1164:1194   */\n  gt\n    /* \"#utility.yul\":1161:1163   */\n  iszero\n  tag_46\n  jumpi\n    /* \"#utility.yul\":1207:1208   */\n  0x00\n    /* \"#utility.yul\":1204:1205   */\n  dup1\n    /* \"#utility.yul\":1197:1209   */\n  revert\n    /* \"#utility.yul\":1161:1163   */\ntag_46:\n    /* \"#utility.yul\":1235:1309   */\n  tag_47\n    /* \"#utility.yul\":1301:1308   */\n  dup6\n    /* \"#utility.yul\":1292:1298   */\n  dup3\n    /* \"#utility.yul\":1281:1290   */\n  dup7\n    /* \"#utility.yul\":1277:1299   */\n  add\n    /* \"#utility.yul\":1235:1309   */\n  tag_38\n  jump\t// in\ntag_47:\n    /* \"#utility.yul\":1225:1309   */\n  swap2\n  pop\n    /* \"#utility.yul\":1094:1319   */\n  pop\n    /* \"#utility.yul\":788:1326   */\n  swap3\n  pop\n  swap3\n  swap1\n  pop\n  jump\t// out\n    /* \"#utility.yul\":1332:1615   */\ntag_34:\n  0x00\n    /* \"#utility.yul\":1398:1400   */\n  0x40\n    /* \"#utility.yul\":1392:1401   */\n  mload\n    /* \"#utility.yul\":1382:1401   */\n  swap1\n  pop\n    /* \"#utility.yul\":1440:1444   */\n  dup2\n    /* \"#utility.yul\":1432:1438   */\n  dup2\n    /* \"#utility.yul\":1428:1445   */\n  add\n    /* \"#utility.yul\":1547:1553   */\n  dup2\n    /* \"#utility.yul\":1535:1545   */\n  dup2\n    /* \"#utility.yul\":1532:1554   */\n  lt\n    /* \"#utility.yul\":1511:1529   */\n  0xffffffffffffffff\n    /* \"#utility.yul\":1499:1509   */\n  dup3\n    /* \"#utility.yul\":1496:1530   */\n  gt\n    /* \"#utility.yul\":1493:1555   */\n  or\n    /* \"#utility.yul\":1490:1492   */\n  iszero\n  tag_49\n  jumpi\n    /* \"#utility.yul\":1558:1576   */\n  tag_50\n  tag_51\n  jump\t// in\ntag_50:\n    /* \"#utility.yul\":1490:1492   */\ntag_49:\n    /* \"#utility.yul\":1598:1608   */\n  dup1\n    /* \"#utility.yul\":1594:1596   */\n  0x40\n    /* \"#utility.yul\":1587:1609   */\n  mstore\n    /* \"#utility.yul\":1372:1615   */\n  pop\n  swap2\n  swap1\n  pop\n  jump\t// out\n    /* \"#utility.yul\":1621:1953   */\ntag_33:\n  0x00\n    /* \"#utility.yul\":1773:1791   */\n  0xffffffffffffffff\n    /* \"#utility.yul\":1765:1771   */\n  dup3\n    /* \"#utility.yul\":1762:1792   */\n  gt\n    /* \"#utility.yul\":1759:1761   */\n  iszero\n  tag_53\n  jumpi\n    /* \"#utility.yul\":1795:1813   */\n  tag_54\n  tag_51\n  jump\t// in\ntag_54:\n    /* \"#utility.yul\":1759:1761   */\ntag_53:\n    /* \"#utility.yul\":1880:1884   */\n  0x1f\n    /* \"#utility.yul\":1876:1885   */\n  not\n    /* \"#utility.yul\":1869:1873   */\n  0x1f\n    /* \"#utility.yul\":1861:1867   */\n  dup4\n    /* \"#utility.yul\":1857:1874   */\n  add\n    /* \"#utility.yul\":1853:1886   */\n  and\n    /* \"#utility.yul\":1845:1886   */\n  swap1\n  pop\n    /* \"#utility.yul\":1941:1945   */\n  0x20\n    /* \"#utility.yul\":1935:1939   */\n  dup2\n    /* \"#utility.yul\":1931:1946   */\n  add\n    /* \"#utility.yul\":1923:1946   */\n  swap1\n  pop\n    /* \"#utility.yul\":1688:1953   */\n  swap2\n  swap1\n  pop\n  jump\t// out\n    /* \"#utility.yul\":1959:2266   */\ntag_37:\n    /* \"#utility.yul\":2027:2028   */\n  0x00\n    /* \"#utility.yul\":2037:2150   */\ntag_56:\n    /* \"#utility.yul\":2051:2057   */\n  dup4\n    /* \"#utility.yul\":2048:2049   */\n  dup2\n    /* \"#utility.yul\":2045:2058   */\n  lt\n    /* \"#utility.yul\":2037:2150   */\n  iszero\n  tag_58\n  jumpi\n    /* \"#utility.yul\":2136:2137   */\n  dup1\n    /* \"#utility.yul\":2131:2134   */\n  dup3\n    /* \"#utility.yul\":2127:2138   */\n  add\n    /* \"#utility.yul\":2121:2139   */\n  mload\n    /* \"#utility.yul\":2117:2118   */\n  dup2\n    /* \"#utility.yul\":2112:2115   */\n  dup5\n    /* \"#utility.yul\":2108:2119   */\n  add\n    /* \"#utility.yul\":2101:2140   */\n  mstore\n    /* \"#utility.yul\":2073:2075   */\n  0x20\n    /* \"#utility.yul\":2070:2071   */\n  dup2\n    /* \"#utility.yul\":2066:2076   */\n  add\n    /* \"#utility.yul\":2061:2076   */\n  swap1\n  pop\n    /* \"#utility.yul\":2037:2150   */\n  jump(tag_56)\ntag_58:\n    /* \"#utility.yul\":2168:2174   */\n  dup4\n    /* \"#utility.yul\":2165:2166   */\n  dup2\n    /* \"#utility.yul\":2162:2175   */\n  gt\n    /* \"#utility.yul\":2159:2161   */\n  iszero\n  tag_59\n  jumpi\n    /* \"#utility.yul\":2248:2249   */\n  0x00\n    /* \"#utility.yul\":2239:2245   */\n  dup5\n    /* \"#utility.yul\":2234:2237   */\n  dup5\n    /* \"#utility.yul\":2230:2246   */\n  add\n    /* \"#utility.yul\":2223:2250   */\n  mstore\n    /* \"#utility.yul\":2159:2161   */\ntag_59:\n    /* \"#utility.yul\":2008:2266   */\n  pop\n  pop\n  pop\n  pop\n  jump\t// out\n    /* \"#utility.yul\":2272:2592   */\ntag_18:\n  0x00\n    /* \"#utility.yul\":2353:2354   */\n  0x02\n    /* \"#utility.yul\":2347:2351   */\n  dup3\n    /* \"#utility.yul\":2343:2355   */\n  div\n    /* \"#utility.yul\":2333:2355   */\n  swap1\n  pop\n    /* \"#utility.yul\":2400:2401   */\n  0x01\n    /* \"#utility.yul\":2394:2398   */\n  dup3\n    /* \"#utility.yul\":2390:2402   */\n  and\n    /* \"#utility.yul\":2421:2439   */\n  dup1\n    /* \"#utility.yul\":2411:2413   */\n  tag_61\n  jumpi\n    /* \"#utility.yul\":2477:2481   */\n  0x7f\n    /* \"#utility.yul\":2469:2475   */\n  dup3\n    /* \"#utility.yul\":2465:2482   */\n  and\n    /* \"#utility.yul\":2455:2482   */\n  swap2\n  pop\n    /* \"#utility.yul\":2411:2413   */\ntag_61:\n    /* \"#utility.yul\":2539:2541   */\n  0x20\n    /* \"#utility.yul\":2531:2537   */\n  dup3\n    /* \"#utility.yul\":2528:2542   */\n  lt\n    /* \"#utility.yul\":2508:2526   */\n  dup2\n    /* \"#utility.yul\":2505:2543   */\n  eq\n    /* \"#utility.yul\":2502:2504   */\n  iszero\n  tag_62\n  jumpi\n    /* \"#utility.yul\":2558:2576   */\n  tag_63\n  tag_64\n  jump\t// in\ntag_63:\n    /* \"#utility.yul\":2502:2504   */\ntag_62:\n    /* \"#utility.yul\":2323:2592   */\n  pop\n  swap2\n  swap1\n  pop\n  jump\t// out\n    /* \"#utility.yul\":2598:2778   */\ntag_64:\n    /* \"#utility.yul\":2646:2723   */\n  0x4e487b7100000000000000000000000000000000000000000000000000000000\n    /* \"#utility.yul\":2643:2644   */\n  0x00\n    /* \"#utility.yul\":2636:2724   */\n  mstore\n    /* \"#utility.yul\":2743:2747   */\n  0x22\n    /* \"#utility.yul\":2740:2741   */\n  0x04\n    /* \"#utility.yul\":2733:2748   */\n  mstore\n    /* \"#utility.yul\":2767:2771   */\n  0x24\n    /* \"#utility.yul\":2764:2765   */\n  0x00\n    /* \"#utility.yul\":2757:2772   */\n  revert\n    /* \"#utility.yul\":2784:2964   */\ntag_51:\n    /* \"#utility.yul\":2832:2909   */\n  0x4e487b7100000000000000000000000000000000000000000000000000000000\n    /* \"#utility.yul\":2829:2830   */\n  0x00\n    /* \"#utility.yul\":2822:2910   */\n  mstore\n    /* \"#utility.yul\":2929:2933   */\n  0x41\n    /* \"#utility.yul\":2926:2927   */\n  0x04\n    /* \"#utility.yul\":2919:2934   */\n  mstore\n    /* \"#utility.yul\":2953:2957   */\n  0x24\n    /* \"#utility.yul\":2950:2951   */\n  0x00\n    /* \"#utility.yul\":2943:2958   */\n  revert\n    /* \"atta-movies/PopcornERC20.sol\":18931:19282  contract ERC20Minter is ERC20, Ownable {\r... */\ntag_15:\n  dataSize(sub_0)\n  dup1\n  dataOffset(sub_0)\n  0x00\n  codecopy\n  0x00\n  return\nstop\n\nsub_0: assembly {\n        /* \"atta-movies/PopcornERC20.sol\":18931:19282  contract ERC20Minter is ERC20, Ownable {\r... */\n      mstore(0x40, 0x80)\n      callvalue\n      dup1\n      iszero\n      tag_1\n      jumpi\n      0x00\n      dup1\n      revert\n    tag_1:\n      pop\n      jumpi(tag_2, lt(calldatasize, 0x04))\n      shr(0xe0, calldataload(0x00))\n      dup1\n      0x70a08231\n      gt\n      tag_21\n      jumpi\n      dup1\n      0xa457c2d7\n      gt\n      tag_22\n      jumpi\n      dup1\n      0xa457c2d7\n      eq\n      tag_16\n      jumpi\n      dup1\n      0xa9059cbb\n      eq\n      tag_17\n      jumpi\n      dup1\n      0xac18de43\n      eq\n      tag_18\n      jumpi\n      dup1\n      0xdd62ed3e\n      eq\n      tag_19\n      jumpi\n      dup1\n      0xf2fde38b\n      eq\n      tag_20\n      jumpi\n      jump(tag_2)\n    tag_22:\n      dup1\n      0x70a08231\n      eq\n      tag_12\n      jumpi\n      dup1\n      0x715018a6\n      eq\n      tag_13\n      jumpi\n      dup1\n      0x8da5cb5b\n      eq\n      tag_14\n      jumpi\n      dup1\n      0x95d89b41\n      eq\n      tag_15\n      jumpi\n      jump(tag_2)\n    tag_21:\n      dup1\n      0x2d06177a\n      gt\n      tag_23\n      jumpi\n      dup1\n      0x2d06177a\n      eq\n      tag_7\n      jumpi\n      dup1\n      0x313ce567\n      eq\n      tag_8\n      jumpi\n      dup1\n      0x39509351\n      eq\n      tag_9\n      jumpi\n      dup1\n      0x40c10f19\n      eq\n      tag_10\n      jumpi\n      dup1\n      0x42966c68\n      eq\n      tag_11\n      jumpi\n      jump(tag_2)\n    tag_23:\n      dup1\n      0x06fdde03\n      eq\n      tag_3\n      jumpi\n      dup1\n      0x095ea7b3\n      eq\n      tag_4\n      jumpi\n      dup1\n      0x18160ddd\n      eq\n      tag_5\n      jumpi\n      dup1\n      0x23b872dd\n      eq\n      tag_6\n      jumpi\n    tag_2:\n      0x00\n      dup1\n      revert\n        /* \"atta-movies/PopcornERC20.sol\":6158:6258  function name() public view virtual override returns (string memory) {\r... */\n    tag_3:\n      tag_24\n      tag_25\n      jump\t// in\n    tag_24:\n      mload(0x40)\n      tag_26\n      swap2\n      swap1\n      tag_27\n      jump\t// in\n    tag_26:\n      mload(0x40)\n      dup1\n      swap2\n      sub\n      swap1\n      return\n        /* \"atta-movies/PopcornERC20.sol\":8325:8494  function approve(address spender, uint256 amount) public virtual override returns (bool) {\r... */\n    tag_4:\n      tag_28\n      0x04\n      dup1\n      calldatasize\n      sub\n      dup2\n      add\n      swap1\n      tag_29\n      swap2\n      swap1\n      tag_30\n      jump\t// in\n    tag_29:\n      tag_31\n      jump\t// in\n    tag_28:\n      mload(0x40)\n      tag_32\n      swap2\n      swap1\n      tag_33\n      jump\t// in\n    tag_32:\n      mload(0x40)\n      dup1\n      swap2\n      sub\n      swap1\n      return\n        /* \"atta-movies/PopcornERC20.sol\":7278:7386  function totalSupply() public view virtual override returns (uint256) {\r... */\n    tag_5:\n      tag_34\n      tag_35\n      jump\t// in\n    tag_34:\n      mload(0x40)\n      tag_36\n      swap2\n      swap1\n      tag_37\n      jump\t// in\n    tag_36:\n      mload(0x40)\n      dup1\n      swap2\n      sub\n      swap1\n      return\n        /* \"atta-movies/PopcornERC20.sol\":8976:9468  function transferFrom(\r... */\n    tag_6:\n      tag_38\n      0x04\n      dup1\n      calldatasize\n      sub\n      dup2\n      add\n      swap1\n      tag_39\n      swap2\n      swap1\n      tag_40\n      jump\t// in\n    tag_39:\n      tag_41\n      jump\t// in\n    tag_38:\n      mload(0x40)\n      tag_42\n      swap2\n      swap1\n      tag_33\n      jump\t// in\n    tag_42:\n      mload(0x40)\n      dup1\n      swap2\n      sub\n      swap1\n      return\n        /* \"atta-movies/PopcornERC20.sol\":17745:17876  function addManager(address manager) public onlyOwner {\r... */\n    tag_7:\n      tag_43\n      0x04\n      dup1\n      calldatasize\n      sub\n      dup2\n      add\n      swap1\n      tag_44\n      swap2\n      swap1\n      tag_45\n      jump\t// in\n    tag_44:\n      tag_46\n      jump\t// in\n    tag_43:\n      stop\n        /* \"atta-movies/PopcornERC20.sol\":7120:7213  function decimals() public view virtual override returns (uint8) {\r... */\n    tag_8:\n      tag_47\n      tag_48\n      jump\t// in\n    tag_47:\n      mload(0x40)\n      tag_49\n      swap2\n      swap1\n      tag_50\n      jump\t// in\n    tag_49:\n      mload(0x40)\n      dup1\n      swap2\n      sub\n      swap1\n      return\n        /* \"atta-movies/PopcornERC20.sol\":9877:10092  function increaseAllowance(address spender, uint256 addedValue) public virtual returns (bool) {\r... */\n    tag_9:\n      tag_51\n      0x04\n      dup1\n      calldatasize\n      sub\n      dup2\n      add\n      swap1\n      tag_52\n      swap2\n      swap1\n      tag_30\n      jump\t// in\n    tag_52:\n      tag_53\n      jump\t// in\n    tag_51:\n      mload(0x40)\n      tag_54\n      swap2\n      swap1\n      tag_33\n      jump\t// in\n    tag_54:\n      mload(0x40)\n      dup1\n      swap2\n      sub\n      swap1\n      return\n        /* \"atta-movies/PopcornERC20.sol\":19065:19180  function mint(address account, uint256 amount) public virtual onlyManager {\r... */\n    tag_10:\n      tag_55\n      0x04\n      dup1\n      calldatasize\n      sub\n      dup2\n      add\n      swap1\n      tag_56\n      swap2\n      swap1\n      tag_30\n      jump\t// in\n    tag_56:\n      tag_57\n      jump\t// in\n    tag_55:\n      stop\n        /* \"atta-movies/PopcornERC20.sol\":19188:19279  function burn(uint256 amount) public virtual {\r... */\n    tag_11:\n      tag_58\n      0x04\n      dup1\n      calldatasize\n      sub\n      dup2\n      add\n      swap1\n      tag_59\n      swap2\n      swap1\n      tag_60\n      jump\t// in\n    tag_59:\n      tag_61\n      jump\t// in\n    tag_58:\n      stop\n        /* \"atta-movies/PopcornERC20.sol\":7449:7576  function balanceOf(address account) public view virtual override returns (uint256) {\r... */\n    tag_12:\n      tag_62\n      0x04\n      dup1\n      calldatasize\n      sub\n      dup2\n      add\n      swap1\n      tag_63\n      swap2\n      swap1\n      tag_45\n      jump\t// in\n    tag_63:\n      tag_64\n      jump\t// in\n    tag_62:\n      mload(0x40)\n      tag_65\n      swap2\n      swap1\n      tag_37\n      jump\t// in\n    tag_65:\n      mload(0x40)\n      dup1\n      swap2\n      sub\n      swap1\n      return\n        /* \"atta-movies/PopcornERC20.sol\":18377:18525  function renounceOwnership() public virtual onlyOwner {\r... */\n    tag_13:\n      tag_66\n      tag_67\n      jump\t// in\n    tag_66:\n      stop\n        /* \"atta-movies/PopcornERC20.sol\":17276:17355  function owner() public view returns (address) {\r... */\n    tag_14:\n      tag_68\n      tag_69\n      jump\t// in\n    tag_68:\n      mload(0x40)\n      tag_70\n      swap2\n      swap1\n      tag_71\n      jump\t// in\n    tag_70:\n      mload(0x40)\n      dup1\n      swap2\n      sub\n      swap1\n      return\n        /* \"atta-movies/PopcornERC20.sol\":6377:6481  function symbol() public view virtual override returns (string memory) {\r... */\n    tag_15:\n      tag_72\n      tag_73\n      jump\t// in\n    tag_72:\n      mload(0x40)\n      tag_74\n      swap2\n      swap1\n      tag_27\n      jump\t// in\n    tag_74:\n      mload(0x40)\n      dup1\n      swap2\n      sub\n      swap1\n      return\n        /* \"atta-movies/PopcornERC20.sol\":10595:11008  function decreaseAllowance(address spender, uint256 subtractedValue) public virtual returns (bool) {\r... */\n    tag_16:\n      tag_75\n      0x04\n      dup1\n      calldatasize\n      sub\n      dup2\n      add\n      swap1\n      tag_76\n      swap2\n      swap1\n      tag_30\n      jump\t// in\n    tag_76:\n      tag_77\n      jump\t// in\n    tag_75:\n      mload(0x40)\n      tag_78\n      swap2\n      swap1\n      tag_33\n      jump\t// in\n    tag_78:\n      mload(0x40)\n      dup1\n      swap2\n      sub\n      swap1\n      return\n        /* \"atta-movies/PopcornERC20.sol\":7789:7964  function transfer(address recipient, uint256 amount) public virtual override returns (bool) {\r... */\n    tag_17:\n      tag_79\n      0x04\n      dup1\n      calldatasize\n      sub\n      dup2\n      add\n      swap1\n      tag_80\n      swap2\n      swap1\n      tag_30\n      jump\t// in\n    tag_80:\n      tag_81\n      jump\t// in\n    tag_79:\n      mload(0x40)\n      tag_82\n      swap2\n      swap1\n      tag_33\n      jump\t// in\n    tag_82:\n      mload(0x40)\n      dup1\n      swap2\n      sub\n      swap1\n      return\n        /* \"atta-movies/PopcornERC20.sol\":17888:18026  function removeManager(address manager) public onlyOwner {\r... */\n    tag_18:\n      tag_83\n      0x04\n      dup1\n      calldatasize\n      sub\n      dup2\n      add\n      swap1\n      tag_84\n      swap2\n      swap1\n      tag_45\n      jump\t// in\n    tag_84:\n      tag_85\n      jump\t// in\n    tag_83:\n      stop\n        /* \"atta-movies/PopcornERC20.sol\":8027:8178  function allowance(address owner, address spender) public view virtual override returns (uint256) {\r... */\n    tag_19:\n      tag_86\n      0x04\n      dup1\n      calldatasize\n      sub\n      dup2\n      add\n      swap1\n      tag_87\n      swap2\n      swap1\n      tag_88\n      jump\t// in\n    tag_87:\n      tag_89\n      jump\t// in\n    tag_86:\n      mload(0x40)\n      tag_90\n      swap2\n      swap1\n      tag_37\n      jump\t// in\n    tag_90:\n      mload(0x40)\n      dup1\n      swap2\n      sub\n      swap1\n      return\n        /* \"atta-movies/PopcornERC20.sol\":18680:18924  function transferOwnership(address newOwner) public virtual onlyOwner {\r... */\n    tag_20:\n      tag_91\n      0x04\n      dup1\n      calldatasize\n      sub\n      dup2\n      add\n      swap1\n      tag_92\n      swap2\n      swap1\n      tag_45\n      jump\t// in\n    tag_92:\n      tag_93\n      jump\t// in\n    tag_91:\n      stop\n        /* \"atta-movies/PopcornERC20.sol\":6158:6258  function name() public view virtual override returns (string memory) {\r... */\n    tag_25:\n        /* \"atta-movies/PopcornERC20.sol\":6212:6225  string memory */\n      0x60\n        /* \"atta-movies/PopcornERC20.sol\":6245:6250  _name */\n      0x03\n        /* \"atta-movies/PopcornERC20.sol\":6238:6250  return _name */\n      dup1\n      sload\n      tag_95\n      swap1\n      tag_96\n      jump\t// in\n    tag_95:\n      dup1\n      0x1f\n      add\n      0x20\n      dup1\n      swap2\n      div\n      mul\n      0x20\n      add\n      mload(0x40)\n      swap1\n      dup2\n      add\n      0x40\n      mstore\n      dup1\n      swap3\n      swap2\n      swap1\n      dup2\n      dup2\n      mstore\n      0x20\n      add\n      dup3\n      dup1\n      sload\n      tag_97\n      swap1\n      tag_96\n      jump\t// in\n    tag_97:\n      dup1\n      iszero\n      tag_98\n      jumpi\n      dup1\n      0x1f\n      lt\n      tag_99\n      jumpi\n      0x0100\n      dup1\n      dup4\n      sload\n      div\n      mul\n      dup4\n      mstore\n      swap2\n      0x20\n      add\n      swap2\n      jump(tag_98)\n    tag_99:\n      dup3\n      add\n      swap2\n      swap1\n      0x00\n      mstore\n      keccak256(0x00, 0x20)\n      swap1\n    tag_100:\n      dup2\n      sload\n      dup2\n      mstore\n      swap1\n      0x01\n      add\n      swap1\n      0x20\n      add\n      dup1\n      dup4\n      gt\n      tag_100\n      jumpi\n      dup3\n      swap1\n      sub\n      0x1f\n      and\n      dup3\n      add\n      swap2\n    tag_98:\n      pop\n      pop\n      pop\n      pop\n      pop\n      swap1\n      pop\n        /* \"atta-movies/PopcornERC20.sol\":6158:6258  function name() public view virtual override returns (string memory) {\r... */\n      swap1\n      jump\t// out\n        /* \"atta-movies/PopcornERC20.sol\":8325:8494  function approve(address spender, uint256 amount) public virtual override returns (bool) {\r... */\n    tag_31:\n        /* \"atta-movies/PopcornERC20.sol\":8408:8412  bool */\n      0x00\n        /* \"atta-movies/PopcornERC20.sol\":8425:8464  _approve(_msgSender(), spender, amount) */\n      tag_102\n        /* \"atta-movies/PopcornERC20.sol\":8434:8446  _msgSender() */\n      tag_103\n        /* \"atta-movies/PopcornERC20.sol\":8434:8444  _msgSender */\n      tag_104\n        /* \"atta-movies/PopcornERC20.sol\":8434:8446  _msgSender() */\n      jump\t// in\n    tag_103:\n        /* \"atta-movies/PopcornERC20.sol\":8448:8455  spender */\n      dup5\n        /* \"atta-movies/PopcornERC20.sol\":8457:8463  amount */\n      dup5\n        /* \"atta-movies/PopcornERC20.sol\":8425:8433  _approve */\n      tag_105\n        /* \"atta-movies/PopcornERC20.sol\":8425:8464  _approve(_msgSender(), spender, amount) */\n      jump\t// in\n    tag_102:\n        /* \"atta-movies/PopcornERC20.sol\":8482:8486  true */\n      0x01\n        /* \"atta-movies/PopcornERC20.sol\":8475:8486  return true */\n      swap1\n      pop\n        /* \"atta-movies/PopcornERC20.sol\":8325:8494  function approve(address spender, uint256 amount) public virtual override returns (bool) {\r... */\n      swap3\n      swap2\n      pop\n      pop\n      jump\t// out\n        /* \"atta-movies/PopcornERC20.sol\":7278:7386  function totalSupply() public view virtual override returns (uint256) {\r... */\n    tag_35:\n        /* \"atta-movies/PopcornERC20.sol\":7339:7346  uint256 */\n      0x00\n        /* \"atta-movies/PopcornERC20.sol\":7366:7378  _totalSupply */\n      sload(0x02)\n        /* \"atta-movies/PopcornERC20.sol\":7359:7378  return _totalSupply */\n      swap1\n      pop\n        /* \"atta-movies/PopcornERC20.sol\":7278:7386  function totalSupply() public view virtual override returns (uint256) {\r... */\n      swap1\n      jump\t// out\n        /* \"atta-movies/PopcornERC20.sol\":8976:9468  function transferFrom(\r... */\n    tag_41:\n        /* \"atta-movies/PopcornERC20.sol\":9116:9120  bool */\n      0x00\n        /* \"atta-movies/PopcornERC20.sol\":9133:9169  _transfer(sender, recipient, amount) */\n      tag_108\n        /* \"atta-movies/PopcornERC20.sol\":9143:9149  sender */\n      dup5\n        /* \"atta-movies/PopcornERC20.sol\":9151:9160  recipient */\n      dup5\n        /* \"atta-movies/PopcornERC20.sol\":9162:9168  amount */\n      dup5\n        /* \"atta-movies/PopcornERC20.sol\":9133:9142  _transfer */\n      tag_109\n        /* \"atta-movies/PopcornERC20.sol\":9133:9169  _transfer(sender, recipient, amount) */\n      jump\t// in\n    tag_108:\n        /* \"atta-movies/PopcornERC20.sol\":9182:9206  uint256 currentAllowance */\n      0x00\n        /* \"atta-movies/PopcornERC20.sol\":9209:9220  _allowances */\n      0x01\n        /* \"atta-movies/PopcornERC20.sol\":9209:9228  _allowances[sender] */\n      0x00\n        /* \"atta-movies/PopcornERC20.sol\":9221:9227  sender */\n      dup7\n        /* \"atta-movies/PopcornERC20.sol\":9209:9228  _allowances[sender] */\n      0xffffffffffffffffffffffffffffffffffffffff\n      and\n      0xffffffffffffffffffffffffffffffffffffffff\n      and\n      dup2\n      mstore\n      0x20\n      add\n      swap1\n      dup2\n      mstore\n      0x20\n      add\n      0x00\n      keccak256\n        /* \"atta-movies/PopcornERC20.sol\":9209:9242  _allowances[sender][_msgSender()] */\n      0x00\n        /* \"atta-movies/PopcornERC20.sol\":9229:9241  _msgSender() */\n      tag_110\n        /* \"atta-movies/PopcornERC20.sol\":9229:9239  _msgSender */\n      tag_104\n        /* \"atta-movies/PopcornERC20.sol\":9229:9241  _msgSender() */\n      jump\t// in\n    tag_110:\n        /* \"atta-movies/PopcornERC20.sol\":9209:9242  _allowances[sender][_msgSender()] */\n      0xffffffffffffffffffffffffffffffffffffffff\n      and\n      0xffffffffffffffffffffffffffffffffffffffff\n      and\n      dup2\n      mstore\n      0x20\n      add\n      swap1\n      dup2\n      mstore\n      0x20\n      add\n      0x00\n      keccak256\n      sload\n        /* \"atta-movies/PopcornERC20.sol\":9182:9242  uint256 currentAllowance = _allowances[sender][_msgSender()] */\n      swap1\n      pop\n        /* \"atta-movies/PopcornERC20.sol\":9281:9287  amount */\n      dup3\n        /* \"atta-movies/PopcornERC20.sol\":9261:9277  currentAllowance */\n      dup2\n        /* \"atta-movies/PopcornERC20.sol\":9261:9287  currentAllowance >= amount */\n      lt\n      iszero\n        /* \"atta-movies/PopcornERC20.sol\":9253:9332  require(currentAllowance >= amount, \"ERC20: transfer amount exceeds allowance\") */\n      tag_111\n      jumpi\n      mload(0x40)\n      0x08c379a000000000000000000000000000000000000000000000000000000000\n      dup2\n      mstore\n      0x04\n      add\n      tag_112\n      swap1\n      tag_113\n      jump\t// in\n    tag_112:\n      mload(0x40)\n      dup1\n      swap2\n      sub\n      swap1\n      revert\n    tag_111:\n        /* \"atta-movies/PopcornERC20.sol\":9368:9425  _approve(sender, _msgSender(), currentAllowance - amount) */\n      tag_114\n        /* \"atta-movies/PopcornERC20.sol\":9377:9383  sender */\n      dup6\n        /* \"atta-movies/PopcornERC20.sol\":9385:9397  _msgSender() */\n      tag_115\n        /* \"atta-movies/PopcornERC20.sol\":9385:9395  _msgSender */\n      tag_104\n        /* \"atta-movies/PopcornERC20.sol\":9385:9397  _msgSender() */\n      jump\t// in\n    tag_115:\n        /* \"atta-movies/PopcornERC20.sol\":9418:9424  amount */\n      dup6\n        /* \"atta-movies/PopcornERC20.sol\":9399:9415  currentAllowance */\n      dup5\n        /* \"atta-movies/PopcornERC20.sol\":9399:9424  currentAllowance - amount */\n      sub\n        /* \"atta-movies/PopcornERC20.sol\":9368:9376  _approve */\n      tag_105\n        /* \"atta-movies/PopcornERC20.sol\":9368:9425  _approve(sender, _msgSender(), currentAllowance - amount) */\n      jump\t// in\n    tag_114:\n        /* \"atta-movies/PopcornERC20.sol\":9456:9460  true */\n      0x01\n        /* \"atta-movies/PopcornERC20.sol\":9449:9460  return true */\n      swap2\n      pop\n      pop\n        /* \"atta-movies/PopcornERC20.sol\":8976:9468  function transferFrom(\r... */\n      swap4\n      swap3\n      pop\n      pop\n      pop\n      jump\t// out\n        /* \"atta-movies/PopcornERC20.sol\":17745:17876  function addManager(address manager) public onlyOwner {\r... */\n    tag_46:\n        /* \"atta-movies/PopcornERC20.sol\":17498:17510  _msgSender() */\n      tag_117\n        /* \"atta-movies/PopcornERC20.sol\":17498:17508  _msgSender */\n      tag_104\n        /* \"atta-movies/PopcornERC20.sol\":17498:17510  _msgSender() */\n      jump\t// in\n    tag_117:\n        /* \"atta-movies/PopcornERC20.sol\":17488:17510  _owner == _msgSender() */\n      0xffffffffffffffffffffffffffffffffffffffff\n      and\n        /* \"atta-movies/PopcornERC20.sol\":17488:17494  _owner */\n      0x05\n      0x00\n      swap1\n      sload\n      swap1\n      0x0100\n      exp\n      swap1\n      div\n      0xffffffffffffffffffffffffffffffffffffffff\n      and\n        /* \"atta-movies/PopcornERC20.sol\":17488:17510  _owner == _msgSender() */\n      0xffffffffffffffffffffffffffffffffffffffff\n      and\n      eq\n        /* \"atta-movies/PopcornERC20.sol\":17480:17547  require(_owner == _msgSender(), \"Ownable: caller is not the owner\") */\n      tag_118\n      jumpi\n      mload(0x40)\n      0x08c379a000000000000000000000000000000000000000000000000000000000\n      dup2\n      mstore\n      0x04\n      add\n      tag_119\n      swap1\n      tag_120\n      jump\t// in\n    tag_119:\n      mload(0x40)\n      dup1\n      swap2\n      sub\n      swap1\n      revert\n    tag_118:\n        /* \"atta-movies/PopcornERC20.sol\":17829:17833  true */\n      0x01\n        /* \"atta-movies/PopcornERC20.sol\":17810:17819  _managers */\n      0x06\n        /* \"atta-movies/PopcornERC20.sol\":17810:17828  _managers[manager] */\n      0x00\n        /* \"atta-movies/PopcornERC20.sol\":17820:17827  manager */\n      dup4\n        /* \"atta-movies/PopcornERC20.sol\":17810:17828  _managers[manager] */\n      0xffffffffffffffffffffffffffffffffffffffff\n      and\n      0xffffffffffffffffffffffffffffffffffffffff\n      and\n      dup2\n      mstore\n      0x20\n      add\n      swap1\n      dup2\n      mstore\n      0x20\n      add\n      0x00\n      keccak256\n      0x00\n        /* \"atta-movies/PopcornERC20.sol\":17810:17833  _managers[manager]=true */\n      0x0100\n      exp\n      dup2\n      sload\n      dup2\n      0xff\n      mul\n      not\n      and\n      swap1\n      dup4\n      iszero\n      iszero\n      mul\n      or\n      swap1\n      sstore\n      pop\n        /* \"atta-movies/PopcornERC20.sol\":17860:17867  manager */\n      dup1\n        /* \"atta-movies/PopcornERC20.sol\":17849:17868  AddManager(manager) */\n      0xffffffffffffffffffffffffffffffffffffffff\n      and\n      0x3630096a7f9a158ab9fae41e86bfe31fd2202585a26a9668242672566dae028d\n      mload(0x40)\n      mload(0x40)\n      dup1\n      swap2\n      sub\n      swap1\n      log2\n        /* \"atta-movies/PopcornERC20.sol\":17745:17876  function addManager(address manager) public onlyOwner {\r... */\n      pop\n      jump\t// out\n        /* \"atta-movies/PopcornERC20.sol\":7120:7213  function decimals() public view virtual override returns (uint8) {\r... */\n    tag_48:\n        /* \"atta-movies/PopcornERC20.sol\":7178:7183  uint8 */\n      0x00\n        /* \"atta-movies/PopcornERC20.sol\":7203:7205  18 */\n      0x12\n        /* \"atta-movies/PopcornERC20.sol\":7196:7205  return 18 */\n      swap1\n      pop\n        /* \"atta-movies/PopcornERC20.sol\":7120:7213  function decimals() public view virtual override returns (uint8) {\r... */\n      swap1\n      jump\t// out\n        /* \"atta-movies/PopcornERC20.sol\":9877:10092  function increaseAllowance(address spender, uint256 addedValue) public virtual returns (bool) {\r... */\n    tag_53:\n        /* \"atta-movies/PopcornERC20.sol\":9965:9969  bool */\n      0x00\n        /* \"atta-movies/PopcornERC20.sol\":9982:10062  _approve(_msgSender(), spender, _allowances[_msgSender()][spender] + addedValue) */\n      tag_124\n        /* \"atta-movies/PopcornERC20.sol\":9991:10003  _msgSender() */\n      tag_125\n        /* \"atta-movies/PopcornERC20.sol\":9991:10001  _msgSender */\n      tag_104\n        /* \"atta-movies/PopcornERC20.sol\":9991:10003  _msgSender() */\n      jump\t// in\n    tag_125:\n        /* \"atta-movies/PopcornERC20.sol\":10005:10012  spender */\n      dup5\n        /* \"atta-movies/PopcornERC20.sol\":10051:10061  addedValue */\n      dup5\n        /* \"atta-movies/PopcornERC20.sol\":10014:10025  _allowances */\n      0x01\n        /* \"atta-movies/PopcornERC20.sol\":10014:10039  _allowances[_msgSender()] */\n      0x00\n        /* \"atta-movies/PopcornERC20.sol\":10026:10038  _msgSender() */\n      tag_126\n        /* \"atta-movies/PopcornERC20.sol\":10026:10036  _msgSender */\n      tag_104\n        /* \"atta-movies/PopcornERC20.sol\":10026:10038  _msgSender() */\n      jump\t// in\n    tag_126:\n        /* \"atta-movies/PopcornERC20.sol\":10014:10039  _allowances[_msgSender()] */\n      0xffffffffffffffffffffffffffffffffffffffff\n      and\n      0xffffffffffffffffffffffffffffffffffffffff\n      and\n      dup2\n      mstore\n      0x20\n      add\n      swap1\n      dup2\n      mstore\n      0x20\n      add\n      0x00\n      keccak256\n        /* \"atta-movies/PopcornERC20.sol\":10014:10048  _allowances[_msgSender()][spender] */\n      0x00\n        /* \"atta-movies/PopcornERC20.sol\":10040:10047  spender */\n      dup9\n        /* \"atta-movies/PopcornERC20.sol\":10014:10048  _allowances[_msgSender()][spender] */\n      0xffffffffffffffffffffffffffffffffffffffff\n      and\n      0xffffffffffffffffffffffffffffffffffffffff\n      and\n      dup2\n      mstore\n      0x20\n      add\n      swap1\n      dup2\n      mstore\n      0x20\n      add\n      0x00\n      keccak256\n      sload\n        /* \"atta-movies/PopcornERC20.sol\":10014:10061  _allowances[_msgSender()][spender] + addedValue */\n      tag_127\n      swap2\n      swap1\n      tag_128\n      jump\t// in\n    tag_127:\n        /* \"atta-movies/PopcornERC20.sol\":9982:9990  _approve */\n      tag_105\n        /* \"atta-movies/PopcornERC20.sol\":9982:10062  _approve(_msgSender(), spender, _allowances[_msgSender()][spender] + addedValue) */\n      jump\t// in\n    tag_124:\n        /* \"atta-movies/PopcornERC20.sol\":10080:10084  true */\n      0x01\n        /* \"atta-movies/PopcornERC20.sol\":10073:10084  return true */\n      swap1\n      pop\n        /* \"atta-movies/PopcornERC20.sol\":9877:10092  function increaseAllowance(address spender, uint256 addedValue) public virtual returns (bool) {\r... */\n      swap3\n      swap2\n      pop\n      pop\n      jump\t// out\n        /* \"atta-movies/PopcornERC20.sol\":19065:19180  function mint(address account, uint256 amount) public virtual onlyManager {\r... */\n    tag_57:\n        /* \"atta-movies/PopcornERC20.sol\":17632:17644  _msgSender() */\n      tag_130\n        /* \"atta-movies/PopcornERC20.sol\":17632:17642  _msgSender */\n      tag_104\n        /* \"atta-movies/PopcornERC20.sol\":17632:17644  _msgSender() */\n      jump\t// in\n    tag_130:\n        /* \"atta-movies/PopcornERC20.sol\":17622:17644  _owner == _msgSender() */\n      0xffffffffffffffffffffffffffffffffffffffff\n      and\n        /* \"atta-movies/PopcornERC20.sol\":17622:17628  _owner */\n      0x05\n      0x00\n      swap1\n      sload\n      swap1\n      0x0100\n      exp\n      swap1\n      div\n      0xffffffffffffffffffffffffffffffffffffffff\n      and\n        /* \"atta-movies/PopcornERC20.sol\":17622:17644  _owner == _msgSender() */\n      0xffffffffffffffffffffffffffffffffffffffff\n      and\n      eq\n        /* \"atta-movies/PopcornERC20.sol\":17621:17672  (_owner == _msgSender()) || _managers[_msgSender()] */\n      dup1\n      tag_131\n      jumpi\n      pop\n        /* \"atta-movies/PopcornERC20.sol\":17649:17658  _managers */\n      0x06\n        /* \"atta-movies/PopcornERC20.sol\":17649:17672  _managers[_msgSender()] */\n      0x00\n        /* \"atta-movies/PopcornERC20.sol\":17659:17671  _msgSender() */\n      tag_132\n        /* \"atta-movies/PopcornERC20.sol\":17659:17669  _msgSender */\n      tag_104\n        /* \"atta-movies/PopcornERC20.sol\":17659:17671  _msgSender() */\n      jump\t// in\n    tag_132:\n        /* \"atta-movies/PopcornERC20.sol\":17649:17672  _managers[_msgSender()] */\n      0xffffffffffffffffffffffffffffffffffffffff\n      and\n      0xffffffffffffffffffffffffffffffffffffffff\n      and\n      dup2\n      mstore\n      0x20\n      add\n      swap1\n      dup2\n      mstore\n      0x20\n      add\n      0x00\n      keccak256\n      0x00\n      swap1\n      sload\n      swap1\n      0x0100\n      exp\n      swap1\n      div\n      0xff\n      and\n        /* \"atta-movies/PopcornERC20.sol\":17621:17672  (_owner == _msgSender()) || _managers[_msgSender()] */\n    tag_131:\n        /* \"atta-movies/PopcornERC20.sol\":17613:17713  require((_owner == _msgSender()) || _managers[_msgSender()], \"Ownable: caller is not owner/manager\") */\n      tag_133\n      jumpi\n      mload(0x40)\n      0x08c379a000000000000000000000000000000000000000000000000000000000\n      dup2\n      mstore\n      0x04\n      add\n      tag_134\n      swap1\n      tag_135\n      jump\t// in\n    tag_134:\n      mload(0x40)\n      dup1\n      swap2\n      sub\n      swap1\n      revert\n    tag_133:\n        /* \"atta-movies/PopcornERC20.sol\":19150:19172  _mint(account, amount) */\n      tag_137\n        /* \"atta-movies/PopcornERC20.sol\":19156:19163  account */\n      dup3\n        /* \"atta-movies/PopcornERC20.sol\":19165:19171  amount */\n      dup3\n        /* \"atta-movies/PopcornERC20.sol\":19150:19155  _mint */\n      tag_138\n        /* \"atta-movies/PopcornERC20.sol\":19150:19172  _mint(account, amount) */\n      jump\t// in\n    tag_137:\n        /* \"atta-movies/PopcornERC20.sol\":19065:19180  function mint(address account, uint256 amount) public virtual onlyManager {\r... */\n      pop\n      pop\n      jump\t// out\n        /* \"atta-movies/PopcornERC20.sol\":19188:19279  function burn(uint256 amount) public virtual {\r... */\n    tag_61:\n        /* \"atta-movies/PopcornERC20.sol\":19244:19271  _burn(_msgSender(), amount) */\n      tag_140\n        /* \"atta-movies/PopcornERC20.sol\":19250:19262  _msgSender() */\n      tag_141\n        /* \"atta-movies/PopcornERC20.sol\":19250:19260  _msgSender */\n      tag_104\n        /* \"atta-movies/PopcornERC20.sol\":19250:19262  _msgSender() */\n      jump\t// in\n    tag_141:\n        /* \"atta-movies/PopcornERC20.sol\":19264:19270  amount */\n      dup3\n        /* \"atta-movies/PopcornERC20.sol\":19244:19249  _burn */\n      tag_142\n        /* \"atta-movies/PopcornERC20.sol\":19244:19271  _burn(_msgSender(), amount) */\n      jump\t// in\n    tag_140:\n        /* \"atta-movies/PopcornERC20.sol\":19188:19279  function burn(uint256 amount) public virtual {\r... */\n      pop\n      jump\t// out\n        /* \"atta-movies/PopcornERC20.sol\":7449:7576  function balanceOf(address account) public view virtual override returns (uint256) {\r... */\n    tag_64:\n        /* \"atta-movies/PopcornERC20.sol\":7523:7530  uint256 */\n      0x00\n        /* \"atta-movies/PopcornERC20.sol\":7550:7559  _balances */\n      dup1\n        /* \"atta-movies/PopcornERC20.sol\":7550:7568  _balances[account] */\n      0x00\n        /* \"atta-movies/PopcornERC20.sol\":7560:7567  account */\n      dup4\n        /* \"atta-movies/PopcornERC20.sol\":7550:7568  _balances[account] */\n      0xffffffffffffffffffffffffffffffffffffffff\n      and\n      0xffffffffffffffffffffffffffffffffffffffff\n      and\n      dup2\n      mstore\n      0x20\n      add\n      swap1\n      dup2\n      mstore\n      0x20\n      add\n      0x00\n      keccak256\n      sload\n        /* \"atta-movies/PopcornERC20.sol\":7543:7568  return _balances[account] */\n      swap1\n      pop\n        /* \"atta-movies/PopcornERC20.sol\":7449:7576  function balanceOf(address account) public view virtual override returns (uint256) {\r... */\n      swap2\n      swap1\n      pop\n      jump\t// out\n        /* \"atta-movies/PopcornERC20.sol\":18377:18525  function renounceOwnership() public virtual onlyOwner {\r... */\n    tag_67:\n        /* \"atta-movies/PopcornERC20.sol\":17498:17510  _msgSender() */\n      tag_145\n        /* \"atta-movies/PopcornERC20.sol\":17498:17508  _msgSender */\n      tag_104\n        /* \"atta-movies/PopcornERC20.sol\":17498:17510  _msgSender() */\n      jump\t// in\n    tag_145:\n        /* \"atta-movies/PopcornERC20.sol\":17488:17510  _owner == _msgSender() */\n      0xffffffffffffffffffffffffffffffffffffffff\n      and\n        /* \"atta-movies/PopcornERC20.sol\":17488:17494  _owner */\n      0x05\n      0x00\n      swap1\n      sload\n      swap1\n      0x0100\n      exp\n      swap1\n      div\n      0xffffffffffffffffffffffffffffffffffffffff\n      and\n        /* \"atta-movies/PopcornERC20.sol\":17488:17510  _owner == _msgSender() */\n      0xffffffffffffffffffffffffffffffffffffffff\n      and\n      eq\n        /* \"atta-movies/PopcornERC20.sol\":17480:17547  require(_owner == _msgSender(), \"Ownable: caller is not the owner\") */\n      tag_146\n      jumpi\n      mload(0x40)\n      0x08c379a000000000000000000000000000000000000000000000000000000000\n      dup2\n      mstore\n      0x04\n      add\n      tag_147\n      swap1\n      tag_120\n      jump\t// in\n    tag_147:\n      mload(0x40)\n      dup1\n      swap2\n      sub\n      swap1\n      revert\n    tag_146:\n        /* \"atta-movies/PopcornERC20.sol\":18484:18485  0 */\n      0x00\n        /* \"atta-movies/PopcornERC20.sol\":18447:18487  OwnershipTransferred(_owner, address(0)) */\n      0xffffffffffffffffffffffffffffffffffffffff\n      and\n        /* \"atta-movies/PopcornERC20.sol\":18468:18474  _owner */\n      0x05\n      0x00\n      swap1\n      sload\n      swap1\n      0x0100\n      exp\n      swap1\n      div\n      0xffffffffffffffffffffffffffffffffffffffff\n      and\n        /* \"atta-movies/PopcornERC20.sol\":18447:18487  OwnershipTransferred(_owner, address(0)) */\n      0xffffffffffffffffffffffffffffffffffffffff\n      and\n      0x8be0079c531659141344cd1fd0a4f28419497f9722a3daafe3b4186f6b6457e0\n      mload(0x40)\n      mload(0x40)\n      dup1\n      swap2\n      sub\n      swap1\n      log3\n        /* \"atta-movies/PopcornERC20.sol\":18515:18516  0 */\n      0x00\n        /* \"atta-movies/PopcornERC20.sol\":18498:18504  _owner */\n      0x05\n      0x00\n        /* \"atta-movies/PopcornERC20.sol\":18498:18517  _owner = address(0) */\n      0x0100\n      exp\n      dup2\n      sload\n      dup2\n      0xffffffffffffffffffffffffffffffffffffffff\n      mul\n      not\n      and\n      swap1\n      dup4\n      0xffffffffffffffffffffffffffffffffffffffff\n      and\n      mul\n      or\n      swap1\n      sstore\n      pop\n        /* \"atta-movies/PopcornERC20.sol\":18377:18525  function renounceOwnership() public virtual onlyOwner {\r... */\n      jump\t// out\n        /* \"atta-movies/PopcornERC20.sol\":17276:17355  function owner() public view returns (address) {\r... */\n    tag_69:\n        /* \"atta-movies/PopcornERC20.sol\":17314:17321  address */\n      0x00\n        /* \"atta-movies/PopcornERC20.sol\":17341:17347  _owner */\n      0x05\n      0x00\n      swap1\n      sload\n      swap1\n      0x0100\n      exp\n      swap1\n      div\n      0xffffffffffffffffffffffffffffffffffffffff\n      and\n        /* \"atta-movies/PopcornERC20.sol\":17334:17347  return _owner */\n      swap1\n      pop\n        /* \"atta-movies/PopcornERC20.sol\":17276:17355  function owner() public view returns (address) {\r... */\n      swap1\n      jump\t// out\n        /* \"atta-movies/PopcornERC20.sol\":6377:6481  function symbol() public view virtual override returns (string memory) {\r... */\n    tag_73:\n        /* \"atta-movies/PopcornERC20.sol\":6433:6446  string memory */\n      0x60\n        /* \"atta-movies/PopcornERC20.sol\":6466:6473  _symbol */\n      0x04\n        /* \"atta-movies/PopcornERC20.sol\":6459:6473  return _symbol */\n      dup1\n      sload\n      tag_151\n      swap1\n      tag_96\n      jump\t// in\n    tag_151:\n      dup1\n      0x1f\n      add\n      0x20\n      dup1\n      swap2\n      div\n      mul\n      0x20\n      add\n      mload(0x40)\n      swap1\n      dup2\n      add\n      0x40\n      mstore\n      dup1\n      swap3\n      swap2\n      swap1\n      dup2\n      dup2\n      mstore\n      0x20\n      add\n      dup3\n      dup1\n      sload\n      tag_152\n      swap1\n      tag_96\n      jump\t// in\n    tag_152:\n      dup1\n      iszero\n      tag_153\n      jumpi\n      dup1\n      0x1f\n      lt\n      tag_154\n      jumpi\n      0x0100\n      dup1\n      dup4\n      sload\n      div\n      mul\n      dup4\n      mstore\n      swap2\n      0x20\n      add\n      swap2\n      jump(tag_153)\n    tag_154:\n      dup3\n      add\n      swap2\n      swap1\n      0x00\n      mstore\n      keccak256(0x00, 0x20)\n      swap1\n    tag_155:\n      dup2\n      sload\n      dup2\n      mstore\n      swap1\n      0x01\n      add\n      swap1\n      0x20\n      add\n      dup1\n      dup4\n      gt\n      tag_155\n      jumpi\n      dup3\n      swap1\n      sub\n      0x1f\n      and\n      dup3\n      add\n      swap2\n    tag_153:\n      pop\n      pop\n      pop\n      pop\n      pop\n      swap1\n      pop\n        /* \"atta-movies/PopcornERC20.sol\":6377:6481  function symbol() public view virtual override returns (string memory) {\r... */\n      swap1\n      jump\t// out\n        /* \"atta-movies/PopcornERC20.sol\":10595:11008  function decreaseAllowance(address spender, uint256 subtractedValue) public virtual returns (bool) {\r... */\n    tag_77:\n        /* \"atta-movies/PopcornERC20.sol\":10688:10692  bool */\n      0x00\n        /* \"atta-movies/PopcornERC20.sol\":10705:10729  uint256 currentAllowance */\n      dup1\n        /* \"atta-movies/PopcornERC20.sol\":10732:10743  _allowances */\n      0x01\n        /* \"atta-movies/PopcornERC20.sol\":10732:10757  _allowances[_msgSender()] */\n      0x00\n        /* \"atta-movies/PopcornERC20.sol\":10744:10756  _msgSender() */\n      tag_157\n        /* \"atta-movies/PopcornERC20.sol\":10744:10754  _msgSender */\n      tag_104\n        /* \"atta-movies/PopcornERC20.sol\":10744:10756  _msgSender() */\n      jump\t// in\n    tag_157:\n        /* \"atta-movies/PopcornERC20.sol\":10732:10757  _allowances[_msgSender()] */\n      0xffffffffffffffffffffffffffffffffffffffff\n      and\n      0xffffffffffffffffffffffffffffffffffffffff\n      and\n      dup2\n      mstore\n      0x20\n      add\n      swap1\n      dup2\n      mstore\n      0x20\n      add\n      0x00\n      keccak256\n        /* \"atta-movies/PopcornERC20.sol\":10732:10766  _allowances[_msgSender()][spender] */\n      0x00\n        /* \"atta-movies/PopcornERC20.sol\":10758:10765  spender */\n      dup6\n        /* \"atta-movies/PopcornERC20.sol\":10732:10766  _allowances[_msgSender()][spender] */\n      0xffffffffffffffffffffffffffffffffffffffff\n      and\n      0xffffffffffffffffffffffffffffffffffffffff\n      and\n      dup2\n      mstore\n      0x20\n      add\n      swap1\n      dup2\n      mstore\n      0x20\n      add\n      0x00\n      keccak256\n      sload\n        /* \"atta-movies/PopcornERC20.sol\":10705:10766  uint256 currentAllowance = _allowances[_msgSender()][spender] */\n      swap1\n      pop\n        /* \"atta-movies/PopcornERC20.sol\":10805:10820  subtractedValue */\n      dup3\n        /* \"atta-movies/PopcornERC20.sol\":10785:10801  currentAllowance */\n      dup2\n        /* \"atta-movies/PopcornERC20.sol\":10785:10820  currentAllowance >= subtractedValue */\n      lt\n      iszero\n        /* \"atta-movies/PopcornERC20.sol\":10777:10862  require(currentAllowance >= subtractedValue, \"ERC20: decreased allowance below zero\") */\n      tag_158\n      jumpi\n      mload(0x40)\n      0x08c379a000000000000000000000000000000000000000000000000000000000\n      dup2\n      mstore\n      0x04\n      add\n      tag_159\n      swap1\n      tag_160\n      jump\t// in\n    tag_159:\n      mload(0x40)\n      dup1\n      swap2\n      sub\n      swap1\n      revert\n    tag_158:\n        /* \"atta-movies/PopcornERC20.sol\":10898:10965  _approve(_msgSender(), spender, currentAllowance - subtractedValue) */\n      tag_161\n        /* \"atta-movies/PopcornERC20.sol\":10907:10919  _msgSender() */\n      tag_162\n        /* \"atta-movies/PopcornERC20.sol\":10907:10917  _msgSender */\n      tag_104\n        /* \"atta-movies/PopcornERC20.sol\":10907:10919  _msgSender() */\n      jump\t// in\n    tag_162:\n        /* \"atta-movies/PopcornERC20.sol\":10921:10928  spender */\n      dup6\n        /* \"atta-movies/PopcornERC20.sol\":10949:10964  subtractedValue */\n      dup6\n        /* \"atta-movies/PopcornERC20.sol\":10930:10946  currentAllowance */\n      dup5\n        /* \"atta-movies/PopcornERC20.sol\":10930:10964  currentAllowance - subtractedValue */\n      sub\n        /* \"atta-movies/PopcornERC20.sol\":10898:10906  _approve */\n      tag_105\n        /* \"atta-movies/PopcornERC20.sol\":10898:10965  _approve(_msgSender(), spender, currentAllowance - subtractedValue) */\n      jump\t// in\n    tag_161:\n        /* \"atta-movies/PopcornERC20.sol\":10996:11000  true */\n      0x01\n        /* \"atta-movies/PopcornERC20.sol\":10989:11000  return true */\n      swap2\n      pop\n      pop\n        /* \"atta-movies/PopcornERC20.sol\":10595:11008  function decreaseAllowance(address spender, uint256 subtractedValue) public virtual returns (bool) {\r... */\n      swap3\n      swap2\n      pop\n      pop\n      jump\t// out\n        /* \"atta-movies/PopcornERC20.sol\":7789:7964  function transfer(address recipient, uint256 amount) public virtual override returns (bool) {\r... */\n    tag_81:\n        /* \"atta-movies/PopcornERC20.sol\":7875:7879  bool */\n      0x00\n        /* \"atta-movies/PopcornERC20.sol\":7892:7934  _transfer(_msgSender(), recipient, amount) */\n      tag_164\n        /* \"atta-movies/PopcornERC20.sol\":7902:7914  _msgSender() */\n      tag_165\n        /* \"atta-movies/PopcornERC20.sol\":7902:7912  _msgSender */\n      tag_104\n        /* \"atta-movies/PopcornERC20.sol\":7902:7914  _msgSender() */\n      jump\t// in\n    tag_165:\n        /* \"atta-movies/PopcornERC20.sol\":7916:7925  recipient */\n      dup5\n        /* \"atta-movies/PopcornERC20.sol\":7927:7933  amount */\n      dup5\n        /* \"atta-movies/PopcornERC20.sol\":7892:7901  _transfer */\n      tag_109\n        /* \"atta-movies/PopcornERC20.sol\":7892:7934  _transfer(_msgSender(), recipient, amount) */\n      jump\t// in\n    tag_164:\n        /* \"atta-movies/PopcornERC20.sol\":7952:7956  true */\n      0x01\n        /* \"atta-movies/PopcornERC20.sol\":7945:7956  return true */\n      swap1\n      pop\n        /* \"atta-movies/PopcornERC20.sol\":7789:7964  function transfer(address recipient, uint256 amount) public virtual override returns (bool) {\r... */\n      swap3\n      swap2\n      pop\n      pop\n      jump\t// out\n        /* \"atta-movies/PopcornERC20.sol\":17888:18026  function removeManager(address manager) public onlyOwner {\r... */\n    tag_85:\n        /* \"atta-movies/PopcornERC20.sol\":17498:17510  _msgSender() */\n      tag_167\n        /* \"atta-movies/PopcornERC20.sol\":17498:17508  _msgSender */\n      tag_104\n        /* \"atta-movies/PopcornERC20.sol\":17498:17510  _msgSender() */\n      jump\t// in\n    tag_167:\n        /* \"atta-movies/PopcornERC20.sol\":17488:17510  _owner == _msgSender() */\n      0xffffffffffffffffffffffffffffffffffffffff\n      and\n        /* \"atta-movies/PopcornERC20.sol\":17488:17494  _owner */\n      0x05\n      0x00\n      swap1\n      sload\n      swap1\n      0x0100\n      exp\n      swap1\n      div\n      0xffffffffffffffffffffffffffffffffffffffff\n      and\n        /* \"atta-movies/PopcornERC20.sol\":17488:17510  _owner == _msgSender() */\n      0xffffffffffffffffffffffffffffffffffffffff\n      and\n      eq\n        /* \"atta-movies/PopcornERC20.sol\":17480:17547  require(_owner == _msgSender(), \"Ownable: caller is not the owner\") */\n      tag_168\n      jumpi\n      mload(0x40)\n      0x08c379a000000000000000000000000000000000000000000000000000000000\n      dup2\n      mstore\n      0x04\n      add\n      tag_169\n      swap1\n      tag_120\n      jump\t// in\n    tag_169:\n      mload(0x40)\n      dup1\n      swap2\n      sub\n      swap1\n      revert\n    tag_168:\n        /* \"atta-movies/PopcornERC20.sol\":17975:17980  false */\n      0x00\n        /* \"atta-movies/PopcornERC20.sol\":17956:17965  _managers */\n      0x06\n        /* \"atta-movies/PopcornERC20.sol\":17956:17974  _managers[manager] */\n      0x00\n        /* \"atta-movies/PopcornERC20.sol\":17966:17973  manager */\n      dup4\n        /* \"atta-movies/PopcornERC20.sol\":17956:17974  _managers[manager] */\n      0xffffffffffffffffffffffffffffffffffffffff\n      and\n      0xffffffffffffffffffffffffffffffffffffffff\n      and\n      dup2\n      mstore\n      0x20\n      add\n      swap1\n      dup2\n      mstore\n      0x20\n      add\n      0x00\n      keccak256\n      0x00\n        /* \"atta-movies/PopcornERC20.sol\":17956:17980  _managers[manager]=false */\n      0x0100\n      exp\n      dup2\n      sload\n      dup2\n      0xff\n      mul\n      not\n      and\n      swap1\n      dup4\n      iszero\n      iszero\n      mul\n      or\n      swap1\n      sstore\n      pop\n        /* \"atta-movies/PopcornERC20.sol\":18010:18017  manager */\n      dup1\n        /* \"atta-movies/PopcornERC20.sol\":17996:18018  RemoveManager(manager) */\n      0xffffffffffffffffffffffffffffffffffffffff\n      and\n      0x1e25ed4cabec84d314dc176241019653f237da01f2bdd3a10cb0f38b33da6763\n      mload(0x40)\n      mload(0x40)\n      dup1\n      swap2\n      sub\n      swap1\n      log2\n        /* \"atta-movies/PopcornERC20.sol\":17888:18026  function removeManager(address manager) public onlyOwner {\r... */\n      pop\n      jump\t// out\n        /* \"atta-movies/PopcornERC20.sol\":8027:8178  function allowance(address owner, address spender) public view virtual override returns (uint256) {\r... */\n    tag_89:\n        /* \"atta-movies/PopcornERC20.sol\":8116:8123  uint256 */\n      0x00\n        /* \"atta-movies/PopcornERC20.sol\":8143:8154  _allowances */\n      0x01\n        /* \"atta-movies/PopcornERC20.sol\":8143:8161  _allowances[owner] */\n      0x00\n        /* \"atta-movies/PopcornERC20.sol\":8155:8160  owner */\n      dup5\n        /* \"atta-movies/PopcornERC20.sol\":8143:8161  _allowances[owner] */\n      0xffffffffffffffffffffffffffffffffffffffff\n      and\n      0xffffffffffffffffffffffffffffffffffffffff\n      and\n      dup2\n      mstore\n      0x20\n      add\n      swap1\n      dup2\n      mstore\n      0x20\n      add\n      0x00\n      keccak256\n        /* \"atta-movies/PopcornERC20.sol\":8143:8170  _allowances[owner][spender] */\n      0x00\n        /* \"atta-movies/PopcornERC20.sol\":8162:8169  spender */\n      dup4\n        /* \"atta-movies/PopcornERC20.sol\":8143:8170  _allowances[owner][spender] */\n      0xffffffffffffffffffffffffffffffffffffffff\n      and\n      0xffffffffffffffffffffffffffffffffffffffff\n      and\n      dup2\n      mstore\n      0x20\n      add\n      swap1\n      dup2\n      mstore\n      0x20\n      add\n      0x00\n      keccak256\n      sload\n        /* \"atta-movies/PopcornERC20.sol\":8136:8170  return _allowances[owner][spender] */\n      swap1\n      pop\n        /* \"atta-movies/PopcornERC20.sol\":8027:8178  function allowance(address owner, address spender) public view virtual override returns (uint256) {\r... */\n      swap3\n      swap2\n      pop\n      pop\n      jump\t// out\n        /* \"atta-movies/PopcornERC20.sol\":18680:18924  function transferOwnership(address newOwner) public virtual onlyOwner {\r... */\n    tag_93:\n        /* \"atta-movies/PopcornERC20.sol\":17498:17510  _msgSender() */\n      tag_173\n        /* \"atta-movies/PopcornERC20.sol\":17498:17508  _msgSender */\n      tag_104\n        /* \"atta-movies/PopcornERC20.sol\":17498:17510  _msgSender() */\n      jump\t// in\n    tag_173:\n        /* \"atta-movies/PopcornERC20.sol\":17488:17510  _owner == _msgSender() */\n      0xffffffffffffffffffffffffffffffffffffffff\n      and\n        /* \"atta-movies/PopcornERC20.sol\":17488:17494  _owner */\n      0x05\n      0x00\n      swap1\n      sload\n      swap1\n      0x0100\n      exp\n      swap1\n      div\n      0xffffffffffffffffffffffffffffffffffffffff\n      and\n        /* \"atta-movies/PopcornERC20.sol\":17488:17510  _owner == _msgSender() */\n      0xffffffffffffffffffffffffffffffffffffffff\n      and\n      eq\n        /* \"atta-movies/PopcornERC20.sol\":17480:17547  require(_owner == _msgSender(), \"Ownable: caller is not the owner\") */\n      tag_174\n      jumpi\n      mload(0x40)\n      0x08c379a000000000000000000000000000000000000000000000000000000000\n      dup2\n      mstore\n      0x04\n      add\n      tag_175\n      swap1\n      tag_120\n      jump\t// in\n    tag_175:\n      mload(0x40)\n      dup1\n      swap2\n      sub\n      swap1\n      revert\n    tag_174:\n        /* \"atta-movies/PopcornERC20.sol\":18789:18790  0 */\n      0x00\n        /* \"atta-movies/PopcornERC20.sol\":18769:18791  newOwner != address(0) */\n      0xffffffffffffffffffffffffffffffffffffffff\n      and\n        /* \"atta-movies/PopcornERC20.sol\":18769:18777  newOwner */\n      dup2\n        /* \"atta-movies/PopcornERC20.sol\":18769:18791  newOwner != address(0) */\n      0xffffffffffffffffffffffffffffffffffffffff\n      and\n      eq\n      iszero\n        /* \"atta-movies/PopcornERC20.sol\":18761:18834  require(newOwner != address(0), \"Ownable: new owner is the zero address\") */\n      tag_177\n      jumpi\n      mload(0x40)\n      0x08c379a000000000000000000000000000000000000000000000000000000000\n      dup2\n      mstore\n      0x04\n      add\n      tag_178\n      swap1\n      tag_179\n      jump\t// in\n    tag_178:\n      mload(0x40)\n      dup1\n      swap2\n      sub\n      swap1\n      revert\n    tag_177:\n        /* \"atta-movies/PopcornERC20.sol\":18879:18887  newOwner */\n      dup1\n        /* \"atta-movies/PopcornERC20.sol\":18850:18888  OwnershipTransferred(_owner, newOwner) */\n      0xffffffffffffffffffffffffffffffffffffffff\n      and\n        /* \"atta-movies/PopcornERC20.sol\":18871:18877  _owner */\n      0x05\n      0x00\n      swap1\n      sload\n      swap1\n      0x0100\n      exp\n      swap1\n      div\n      0xffffffffffffffffffffffffffffffffffffffff\n      and\n        /* \"atta-movies/PopcornERC20.sol\":18850:18888  OwnershipTransferred(_owner, newOwner) */\n      0xffffffffffffffffffffffffffffffffffffffff\n      and\n      0x8be0079c531659141344cd1fd0a4f28419497f9722a3daafe3b4186f6b6457e0\n      mload(0x40)\n      mload(0x40)\n      dup1\n      swap2\n      sub\n      swap1\n      log3\n        /* \"atta-movies/PopcornERC20.sol\":18908:18916  newOwner */\n      dup1\n        /* \"atta-movies/PopcornERC20.sol\":18899:18905  _owner */\n      0x05\n      0x00\n        /* \"atta-movies/PopcornERC20.sol\":18899:18916  _owner = newOwner */\n      0x0100\n      exp\n      dup2\n      sload\n      dup2\n      0xffffffffffffffffffffffffffffffffffffffff\n      mul\n      not\n      and\n      swap1\n      dup4\n      0xffffffffffffffffffffffffffffffffffffffff\n      and\n      mul\n      or\n      swap1\n      sstore\n      pop\n        /* \"atta-movies/PopcornERC20.sol\":18680:18924  function transferOwnership(address newOwner) public virtual onlyOwner {\r... */\n      pop\n      jump\t// out\n        /* \"atta-movies/PopcornERC20.sol\":3953:4051  function _msgSender() internal view virtual returns (address) {\r... */\n    tag_104:\n        /* \"atta-movies/PopcornERC20.sol\":4006:4013  address */\n      0x00\n        /* \"atta-movies/PopcornERC20.sol\":4033:4043  msg.sender */\n      caller\n        /* \"atta-movies/PopcornERC20.sol\":4026:4043  return msg.sender */\n      swap1\n      pop\n        /* \"atta-movies/PopcornERC20.sol\":3953:4051  function _msgSender() internal view virtual returns (address) {\r... */\n      swap1\n      jump\t// out\n        /* \"atta-movies/PopcornERC20.sol\":14279:14659  function _approve(\r... */\n    tag_105:\n        /* \"atta-movies/PopcornERC20.sol\":14432:14433  0 */\n      0x00\n        /* \"atta-movies/PopcornERC20.sol\":14415:14434  owner != address(0) */\n      0xffffffffffffffffffffffffffffffffffffffff\n      and\n        /* \"atta-movies/PopcornERC20.sol\":14415:14420  owner */\n      dup4\n        /* \"atta-movies/PopcornERC20.sol\":14415:14434  owner != address(0) */\n      0xffffffffffffffffffffffffffffffffffffffff\n      and\n      eq\n      iszero\n        /* \"atta-movies/PopcornERC20.sol\":14407:14475  require(owner != address(0), \"ERC20: approve from the zero address\") */\n      tag_182\n      jumpi\n      mload(0x40)\n      0x08c379a000000000000000000000000000000000000000000000000000000000\n      dup2\n      mstore\n      0x04\n      add\n      tag_183\n      swap1\n      tag_184\n      jump\t// in\n    tag_183:\n      mload(0x40)\n      dup1\n      swap2\n      sub\n      swap1\n      revert\n    tag_182:\n        /* \"atta-movies/PopcornERC20.sol\":14513:14514  0 */\n      0x00\n        /* \"atta-movies/PopcornERC20.sol\":14494:14515  spender != address(0) */\n      0xffffffffffffffffffffffffffffffffffffffff\n      and\n        /* \"atta-movies/PopcornERC20.sol\":14494:14501  spender */\n      dup3\n        /* \"atta-movies/PopcornERC20.sol\":14494:14515  spender != address(0) */\n      0xffffffffffffffffffffffffffffffffffffffff\n      and\n      eq\n      iszero\n        /* \"atta-movies/PopcornERC20.sol\":14486:14554  require(spender != address(0), \"ERC20: approve to the zero address\") */\n      tag_185\n      jumpi\n      mload(0x40)\n      0x08c379a000000000000000000000000000000000000000000000000000000000\n      dup2\n      mstore\n      0x04\n      add\n      tag_186\n      swap1\n      tag_187\n      jump\t// in\n    tag_186:\n      mload(0x40)\n      dup1\n      swap2\n      sub\n      swap1\n      revert\n    tag_185:\n        /* \"atta-movies/PopcornERC20.sol\":14597:14603  amount */\n      dup1\n        /* \"atta-movies/PopcornERC20.sol\":14567:14578  _allowances */\n      0x01\n        /* \"atta-movies/PopcornERC20.sol\":14567:14585  _allowances[owner] */\n      0x00\n        /* \"atta-movies/PopcornERC20.sol\":14579:14584  owner */\n      dup6\n        /* \"atta-movies/PopcornERC20.sol\":14567:14585  _allowances[owner] */\n      0xffffffffffffffffffffffffffffffffffffffff\n      and\n      0xffffffffffffffffffffffffffffffffffffffff\n      and\n      dup2\n      mstore\n      0x20\n      add\n      swap1\n      dup2\n      mstore\n      0x20\n      add\n      0x00\n      keccak256\n        /* \"atta-movies/PopcornERC20.sol\":14567:14594  _allowances[owner][spender] */\n      0x00\n        /* \"atta-movies/PopcornERC20.sol\":14586:14593  spender */\n      dup5\n        /* \"atta-movies/PopcornERC20.sol\":14567:14594  _allowances[owner][spender] */\n      0xffffffffffffffffffffffffffffffffffffffff\n      and\n      0xffffffffffffffffffffffffffffffffffffffff\n      and\n      dup2\n      mstore\n      0x20\n      add\n      swap1\n      dup2\n      mstore\n      0x20\n      add\n      0x00\n      keccak256\n        /* \"atta-movies/PopcornERC20.sol\":14567:14603  _allowances[owner][spender] = amount */\n      dup2\n      swap1\n      sstore\n      pop\n        /* \"atta-movies/PopcornERC20.sol\":14635:14642  spender */\n      dup2\n        /* \"atta-movies/PopcornERC20.sol\":14619:14651  Approval(owner, spender, amount) */\n      0xffffffffffffffffffffffffffffffffffffffff\n      and\n        /* \"atta-movies/PopcornERC20.sol\":14628:14633  owner */\n      dup4\n        /* \"atta-movies/PopcornERC20.sol\":14619:14651  Approval(owner, spender, amount) */\n      0xffffffffffffffffffffffffffffffffffffffff\n      and\n      0x8c5be1e5ebec7d5bd14f71427d1e84f3dd0314c0f7b2291e5b200ac8c7c3b925\n        /* \"atta-movies/PopcornERC20.sol\":14644:14650  amount */\n      dup4\n        /* \"atta-movies/PopcornERC20.sol\":14619:14651  Approval(owner, spender, amount) */\n      mload(0x40)\n      tag_188\n      swap2\n      swap1\n      tag_37\n      jump\t// in\n    tag_188:\n      mload(0x40)\n      dup1\n      swap2\n      sub\n      swap1\n      log3\n        /* \"atta-movies/PopcornERC20.sol\":14279:14659  function _approve(\r... */\n      pop\n      pop\n      pop\n      jump\t// out\n        /* \"atta-movies/PopcornERC20.sol\":11498:12231  function _transfer(\r... */\n    tag_109:\n        /* \"atta-movies/PopcornERC20.sol\":11656:11657  0 */\n      0x00\n        /* \"atta-movies/PopcornERC20.sol\":11638:11658  sender != address(0) */\n      0xffffffffffffffffffffffffffffffffffffffff\n      and\n        /* \"atta-movies/PopcornERC20.sol\":11638:11644  sender */\n      dup4\n        /* \"atta-movies/PopcornERC20.sol\":11638:11658  sender != address(0) */\n      0xffffffffffffffffffffffffffffffffffffffff\n      and\n      eq\n      iszero\n        /* \"atta-movies/PopcornERC20.sol\":11630:11700  require(sender != address(0), \"ERC20: transfer from the zero address\") */\n      tag_190\n      jumpi\n      mload(0x40)\n      0x08c379a000000000000000000000000000000000000000000000000000000000\n      dup2\n      mstore\n      0x04\n      add\n      tag_191\n      swap1\n      tag_192\n      jump\t// in\n    tag_191:\n      mload(0x40)\n      dup1\n      swap2\n      sub\n      swap1\n      revert\n    tag_190:\n        /* \"atta-movies/PopcornERC20.sol\":11740:11741  0 */\n      0x00\n        /* \"atta-movies/PopcornERC20.sol\":11719:11742  recipient != address(0) */\n      0xffffffffffffffffffffffffffffffffffffffff\n      and\n        /* \"atta-movies/PopcornERC20.sol\":11719:11728  recipient */\n      dup3\n        /* \"atta-movies/PopcornERC20.sol\":11719:11742  recipient != address(0) */\n      0xffffffffffffffffffffffffffffffffffffffff\n      and\n      eq\n      iszero\n        /* \"atta-movies/PopcornERC20.sol\":11711:11782  require(recipient != address(0), \"ERC20: transfer to the zero address\") */\n      tag_193\n      jumpi\n      mload(0x40)\n      0x08c379a000000000000000000000000000000000000000000000000000000000\n      dup2\n      mstore\n      0x04\n      add\n      tag_194\n      swap1\n      tag_195\n      jump\t// in\n    tag_194:\n      mload(0x40)\n      dup1\n      swap2\n      sub\n      swap1\n      revert\n    tag_193:\n        /* \"atta-movies/PopcornERC20.sol\":11795:11842  _beforeTokenTransfer(sender, recipient, amount) */\n      tag_196\n        /* \"atta-movies/PopcornERC20.sol\":11816:11822  sender */\n      dup4\n        /* \"atta-movies/PopcornERC20.sol\":11824:11833  recipient */\n      dup4\n        /* \"atta-movies/PopcornERC20.sol\":11835:11841  amount */\n      dup4\n        /* \"atta-movies/PopcornERC20.sol\":11795:11815  _beforeTokenTransfer */\n      tag_197\n        /* \"atta-movies/PopcornERC20.sol\":11795:11842  _beforeTokenTransfer(sender, recipient, amount) */\n      jump\t// in\n    tag_196:\n        /* \"atta-movies/PopcornERC20.sol\":11855:11876  uint256 senderBalance */\n      0x00\n        /* \"atta-movies/PopcornERC20.sol\":11879:11888  _balances */\n      dup1\n        /* \"atta-movies/PopcornERC20.sol\":11879:11896  _balances[sender] */\n      0x00\n        /* \"atta-movies/PopcornERC20.sol\":11889:11895  sender */\n      dup6\n        /* \"atta-movies/PopcornERC20.sol\":11879:11896  _balances[sender] */\n      0xffffffffffffffffffffffffffffffffffffffff\n      and\n      0xffffffffffffffffffffffffffffffffffffffff\n      and\n      dup2\n      mstore\n      0x20\n      add\n      swap1\n      dup2\n      mstore\n      0x20\n      add\n      0x00\n      keccak256\n      sload\n        /* \"atta-movies/PopcornERC20.sol\":11855:11896  uint256 senderBalance = _balances[sender] */\n      swap1\n      pop\n        /* \"atta-movies/PopcornERC20.sol\":11932:11938  amount */\n      dup2\n        /* \"atta-movies/PopcornERC20.sol\":11915:11928  senderBalance */\n      dup2\n        /* \"atta-movies/PopcornERC20.sol\":11915:11938  senderBalance >= amount */\n      lt\n      iszero\n        /* \"atta-movies/PopcornERC20.sol\":11907:11981  require(senderBalance >= amount, \"ERC20: transfer amount exceeds balance\") */\n      tag_198\n      jumpi\n      mload(0x40)\n      0x08c379a000000000000000000000000000000000000000000000000000000000\n      dup2\n      mstore\n      0x04\n      add\n      tag_199\n      swap1\n      tag_200\n      jump\t// in\n    tag_199:\n      mload(0x40)\n      dup1\n      swap2\n      sub\n      swap1\n      revert\n    tag_198:\n        /* \"atta-movies/PopcornERC20.sol\":12053:12059  amount */\n      dup2\n        /* \"atta-movies/PopcornERC20.sol\":12037:12050  senderBalance */\n      dup2\n        /* \"atta-movies/PopcornERC20.sol\":12037:12059  senderBalance - amount */\n      sub\n        /* \"atta-movies/PopcornERC20.sol\":12017:12026  _balances */\n      0x00\n        /* \"atta-movies/PopcornERC20.sol\":12017:12034  _balances[sender] */\n      dup1\n        /* \"atta-movies/PopcornERC20.sol\":12027:12033  sender */\n      dup7\n        /* \"atta-movies/PopcornERC20.sol\":12017:12034  _balances[sender] */\n      0xffffffffffffffffffffffffffffffffffffffff\n      and\n      0xffffffffffffffffffffffffffffffffffffffff\n      and\n      dup2\n      mstore\n      0x20\n      add\n      swap1\n      dup2\n      mstore\n      0x20\n      add\n      0x00\n      keccak256\n        /* \"atta-movies/PopcornERC20.sol\":12017:12059  _balances[sender] = senderBalance - amount */\n      dup2\n      swap1\n      sstore\n      pop\n        /* \"atta-movies/PopcornERC20.sol\":12105:12111  amount */\n      dup2\n        /* \"atta-movies/PopcornERC20.sol\":12081:12090  _balances */\n      0x00\n        /* \"atta-movies/PopcornERC20.sol\":12081:12101  _balances[recipient] */\n      dup1\n        /* \"atta-movies/PopcornERC20.sol\":12091:12100  recipient */\n      dup6\n        /* \"atta-movies/PopcornERC20.sol\":12081:12101  _balances[recipient] */\n      0xffffffffffffffffffffffffffffffffffffffff\n      and\n      0xffffffffffffffffffffffffffffffffffffffff\n      and\n      dup2\n      mstore\n      0x20\n      add\n      swap1\n      dup2\n      mstore\n      0x20\n      add\n      0x00\n      keccak256\n      0x00\n        /* \"atta-movies/PopcornERC20.sol\":12081:12111  _balances[recipient] += amount */\n      dup3\n      dup3\n      sload\n      tag_201\n      swap2\n      swap1\n      tag_128\n      jump\t// in\n    tag_201:\n      swap3\n      pop\n      pop\n      dup2\n      swap1\n      sstore\n      pop\n        /* \"atta-movies/PopcornERC20.sol\":12146:12155  recipient */\n      dup3\n        /* \"atta-movies/PopcornERC20.sol\":12129:12164  Transfer(sender, recipient, amount) */\n      0xffffffffffffffffffffffffffffffffffffffff\n      and\n        /* \"atta-movies/PopcornERC20.sol\":12138:12144  sender */\n      dup5\n        /* \"atta-movies/PopcornERC20.sol\":12129:12164  Transfer(sender, recipient, amount) */\n      0xffffffffffffffffffffffffffffffffffffffff\n      and\n      0xddf252ad1be2c89b69c2b068fc378daa952ba7f163c4a11628f55a4df523b3ef\n        /* \"atta-movies/PopcornERC20.sol\":12157:12163  amount */\n      dup5\n        /* \"atta-movies/PopcornERC20.sol\":12129:12164  Transfer(sender, recipient, amount) */\n      mload(0x40)\n      tag_202\n      swap2\n      swap1\n      tag_37\n      jump\t// in\n    tag_202:\n      mload(0x40)\n      dup1\n      swap2\n      sub\n      swap1\n      log3\n        /* \"atta-movies/PopcornERC20.sol\":12177:12223  _afterTokenTransfer(sender, recipient, amount) */\n      tag_203\n        /* \"atta-movies/PopcornERC20.sol\":12197:12203  sender */\n      dup5\n        /* \"atta-movies/PopcornERC20.sol\":12205:12214  recipient */\n      dup5\n        /* \"atta-movies/PopcornERC20.sol\":12216:12222  amount */\n      dup5\n        /* \"atta-movies/PopcornERC20.sol\":12177:12196  _afterTokenTransfer */\n      tag_204\n        /* \"atta-movies/PopcornERC20.sol\":12177:12223  _afterTokenTransfer(sender, recipient, amount) */\n      jump\t// in\n    tag_203:\n        /* \"atta-movies/PopcornERC20.sol\":11498:12231  function _transfer(\r... */\n      pop\n      pop\n      pop\n      pop\n      jump\t// out\n        /* \"atta-movies/PopcornERC20.sol\":12518:12917  function _mint(address account, uint256 amount) internal virtual {\r... */\n    tag_138:\n        /* \"atta-movies/PopcornERC20.sol\":12621:12622  0 */\n      0x00\n        /* \"atta-movies/PopcornERC20.sol\":12602:12623  account != address(0) */\n      0xffffffffffffffffffffffffffffffffffffffff\n      and\n        /* \"atta-movies/PopcornERC20.sol\":12602:12609  account */\n      dup3\n        /* \"atta-movies/PopcornERC20.sol\":12602:12623  account != address(0) */\n      0xffffffffffffffffffffffffffffffffffffffff\n      and\n      eq\n      iszero\n        /* \"atta-movies/PopcornERC20.sol\":12594:12659  require(account != address(0), \"ERC20: mint to the zero address\") */\n      tag_206\n      jumpi\n      mload(0x40)\n      0x08c379a000000000000000000000000000000000000000000000000000000000\n      dup2\n      mstore\n      0x04\n      add\n      tag_207\n      swap1\n      tag_208\n      jump\t// in\n    tag_207:\n      mload(0x40)\n      dup1\n      swap2\n      sub\n      swap1\n      revert\n    tag_206:\n        /* \"atta-movies/PopcornERC20.sol\":12672:12721  _beforeTokenTransfer(address(0), account, amount) */\n      tag_209\n        /* \"atta-movies/PopcornERC20.sol\":12701:12702  0 */\n      0x00\n        /* \"atta-movies/PopcornERC20.sol\":12705:12712  account */\n      dup4\n        /* \"atta-movies/PopcornERC20.sol\":12714:12720  amount */\n      dup4\n        /* \"atta-movies/PopcornERC20.sol\":12672:12692  _beforeTokenTransfer */\n      tag_197\n        /* \"atta-movies/PopcornERC20.sol\":12672:12721  _beforeTokenTransfer(address(0), account, amount) */\n      jump\t// in\n    tag_209:\n        /* \"atta-movies/PopcornERC20.sol\":12750:12756  amount */\n      dup1\n        /* \"atta-movies/PopcornERC20.sol\":12734:12746  _totalSupply */\n      0x02\n      0x00\n        /* \"atta-movies/PopcornERC20.sol\":12734:12756  _totalSupply += amount */\n      dup3\n      dup3\n      sload\n      tag_210\n      swap2\n      swap1\n      tag_128\n      jump\t// in\n    tag_210:\n      swap3\n      pop\n      pop\n      dup2\n      swap1\n      sstore\n      pop\n        /* \"atta-movies/PopcornERC20.sol\":12789:12795  amount */\n      dup1\n        /* \"atta-movies/PopcornERC20.sol\":12767:12776  _balances */\n      0x00\n        /* \"atta-movies/PopcornERC20.sol\":12767:12785  _balances[account] */\n      dup1\n        /* \"atta-movies/PopcornERC20.sol\":12777:12784  account */\n      dup5\n        /* \"atta-movies/PopcornERC20.sol\":12767:12785  _balances[account] */\n      0xffffffffffffffffffffffffffffffffffffffff\n      and\n      0xffffffffffffffffffffffffffffffffffffffff\n      and\n      dup2\n      mstore\n      0x20\n      add\n      swap1\n      dup2\n      mstore\n      0x20\n      add\n      0x00\n      keccak256\n      0x00\n        /* \"atta-movies/PopcornERC20.sol\":12767:12795  _balances[account] += amount */\n      dup3\n      dup3\n      sload\n      tag_211\n      swap2\n      swap1\n      tag_128\n      jump\t// in\n    tag_211:\n      swap3\n      pop\n      pop\n      dup2\n      swap1\n      sstore\n      pop\n        /* \"atta-movies/PopcornERC20.sol\":12832:12839  account */\n      dup2\n        /* \"atta-movies/PopcornERC20.sol\":12811:12848  Transfer(address(0), account, amount) */\n      0xffffffffffffffffffffffffffffffffffffffff\n      and\n        /* \"atta-movies/PopcornERC20.sol\":12828:12829  0 */\n      0x00\n        /* \"atta-movies/PopcornERC20.sol\":12811:12848  Transfer(address(0), account, amount) */\n      0xffffffffffffffffffffffffffffffffffffffff\n      and\n      0xddf252ad1be2c89b69c2b068fc378daa952ba7f163c4a11628f55a4df523b3ef\n        /* \"atta-movies/PopcornERC20.sol\":12841:12847  amount */\n      dup4\n        /* \"atta-movies/PopcornERC20.sol\":12811:12848  Transfer(address(0), account, amount) */\n      mload(0x40)\n      tag_212\n      swap2\n      swap1\n      tag_37\n      jump\t// in\n    tag_212:\n      mload(0x40)\n      dup1\n      swap2\n      sub\n      swap1\n      log3\n        /* \"atta-movies/PopcornERC20.sol\":12861:12909  _afterTokenTransfer(address(0), account, amount) */\n      tag_213\n        /* \"atta-movies/PopcornERC20.sol\":12889:12890  0 */\n      0x00\n        /* \"atta-movies/PopcornERC20.sol\":12893:12900  account */\n      dup4\n        /* \"atta-movies/PopcornERC20.sol\":12902:12908  amount */\n      dup4\n        /* \"atta-movies/PopcornERC20.sol\":12861:12880  _afterTokenTransfer */\n      tag_204\n        /* \"atta-movies/PopcornERC20.sol\":12861:12909  _afterTokenTransfer(address(0), account, amount) */\n      jump\t// in\n    tag_213:\n        /* \"atta-movies/PopcornERC20.sol\":12518:12917  function _mint(address account, uint256 amount) internal virtual {\r... */\n      pop\n      pop\n      jump\t// out\n        /* \"atta-movies/PopcornERC20.sol\":13250:13841  function _burn(address account, uint256 amount) internal virtual {\r... */\n    tag_142:\n        /* \"atta-movies/PopcornERC20.sol\":13353:13354  0 */\n      0x00\n        /* \"atta-movies/PopcornERC20.sol\":13334:13355  account != address(0) */\n      0xffffffffffffffffffffffffffffffffffffffff\n      and\n        /* \"atta-movies/PopcornERC20.sol\":13334:13341  account */\n      dup3\n        /* \"atta-movies/PopcornERC20.sol\":13334:13355  account != address(0) */\n      0xffffffffffffffffffffffffffffffffffffffff\n      and\n      eq\n      iszero\n        /* \"atta-movies/PopcornERC20.sol\":13326:13393  require(account != address(0), \"ERC20: burn from the zero address\") */\n      tag_215\n      jumpi\n      mload(0x40)\n      0x08c379a000000000000000000000000000000000000000000000000000000000\n      dup2\n      mstore\n      0x04\n      add\n      tag_216\n      swap1\n      tag_217\n      jump\t// in\n    tag_216:\n      mload(0x40)\n      dup1\n      swap2\n      sub\n      swap1\n      revert\n    tag_215:\n        /* \"atta-movies/PopcornERC20.sol\":13406:13455  _beforeTokenTransfer(account, address(0), amount) */\n      tag_218\n        /* \"atta-movies/PopcornERC20.sol\":13427:13434  account */\n      dup3\n        /* \"atta-movies/PopcornERC20.sol\":13444:13445  0 */\n      0x00\n        /* \"atta-movies/PopcornERC20.sol\":13448:13454  amount */\n      dup4\n        /* \"atta-movies/PopcornERC20.sol\":13406:13426  _beforeTokenTransfer */\n      tag_197\n        /* \"atta-movies/PopcornERC20.sol\":13406:13455  _beforeTokenTransfer(account, address(0), amount) */\n      jump\t// in\n    tag_218:\n        /* \"atta-movies/PopcornERC20.sol\":13468:13490  uint256 accountBalance */\n      0x00\n        /* \"atta-movies/PopcornERC20.sol\":13493:13502  _balances */\n      dup1\n        /* \"atta-movies/PopcornERC20.sol\":13493:13511  _balances[account] */\n      0x00\n        /* \"atta-movies/PopcornERC20.sol\":13503:13510  account */\n      dup5\n        /* \"atta-movies/PopcornERC20.sol\":13493:13511  _balances[account] */\n      0xffffffffffffffffffffffffffffffffffffffff\n      and\n      0xffffffffffffffffffffffffffffffffffffffff\n      and\n      dup2\n      mstore\n      0x20\n      add\n      swap1\n      dup2\n      mstore\n      0x20\n      add\n      0x00\n      keccak256\n      sload\n        /* \"atta-movies/PopcornERC20.sol\":13468:13511  uint256 accountBalance = _balances[account] */\n      swap1\n      pop\n        /* \"atta-movies/PopcornERC20.sol\":13548:13554  amount */\n      dup2\n        /* \"atta-movies/PopcornERC20.sol\":13530:13544  accountBalance */\n      dup2\n        /* \"atta-movies/PopcornERC20.sol\":13530:13554  accountBalance >= amount */\n      lt\n      iszero\n        /* \"atta-movies/PopcornERC20.sol\":13522:13593  require(accountBalance >= amount, \"ERC20: burn amount exceeds balance\") */\n      tag_219\n      jumpi\n      mload(0x40)\n      0x08c379a000000000000000000000000000000000000000000000000000000000\n      dup2\n      mstore\n      0x04\n      add\n      tag_220\n      swap1\n      tag_221\n      jump\t// in\n    tag_220:\n      mload(0x40)\n      dup1\n      swap2\n      sub\n      swap1\n      revert\n    tag_219:\n        /* \"atta-movies/PopcornERC20.sol\":13667:13673  amount */\n      dup2\n        /* \"atta-movies/PopcornERC20.sol\":13650:13664  accountBalance */\n      dup2\n        /* \"atta-movies/PopcornERC20.sol\":13650:13673  accountBalance - amount */\n      sub\n        /* \"atta-movies/PopcornERC20.sol\":13629:13638  _balances */\n      0x00\n        /* \"atta-movies/PopcornERC20.sol\":13629:13647  _balances[account] */\n      dup1\n        /* \"atta-movies/PopcornERC20.sol\":13639:13646  account */\n      dup6\n        /* \"atta-movies/PopcornERC20.sol\":13629:13647  _balances[account] */\n      0xffffffffffffffffffffffffffffffffffffffff\n      and\n      0xffffffffffffffffffffffffffffffffffffffff\n      and\n      dup2\n      mstore\n      0x20\n      add\n      swap1\n      dup2\n      mstore\n      0x20\n      add\n      0x00\n      keccak256\n        /* \"atta-movies/PopcornERC20.sol\":13629:13673  _balances[account] = accountBalance - amount */\n      dup2\n      swap1\n      sstore\n      pop\n        /* \"atta-movies/PopcornERC20.sol\":13711:13717  amount */\n      dup2\n        /* \"atta-movies/PopcornERC20.sol\":13695:13707  _totalSupply */\n      0x02\n      0x00\n        /* \"atta-movies/PopcornERC20.sol\":13695:13717  _totalSupply -= amount */\n      dup3\n      dup3\n      sload\n      tag_222\n      swap2\n      swap1\n      tag_223\n      jump\t// in\n    tag_222:\n      swap3\n      pop\n      pop\n      dup2\n      swap1\n      sstore\n      pop\n        /* \"atta-movies/PopcornERC20.sol\":13761:13762  0 */\n      0x00\n        /* \"atta-movies/PopcornERC20.sol\":13735:13772  Transfer(account, address(0), amount) */\n      0xffffffffffffffffffffffffffffffffffffffff\n      and\n        /* \"atta-movies/PopcornERC20.sol\":13744:13751  account */\n      dup4\n        /* \"atta-movies/PopcornERC20.sol\":13735:13772  Transfer(account, address(0), amount) */\n      0xffffffffffffffffffffffffffffffffffffffff\n      and\n      0xddf252ad1be2c89b69c2b068fc378daa952ba7f163c4a11628f55a4df523b3ef\n        /* \"atta-movies/PopcornERC20.sol\":13765:13771  amount */\n      dup5\n        /* \"atta-movies/PopcornERC20.sol\":13735:13772  Transfer(account, address(0), amount) */\n      mload(0x40)\n      tag_224\n      swap2\n      swap1\n      tag_37\n      jump\t// in\n    tag_224:\n      mload(0x40)\n      dup1\n      swap2\n      sub\n      swap1\n      log3\n        /* \"atta-movies/PopcornERC20.sol\":13785:13833  _afterTokenTransfer(account, address(0), amount) */\n      tag_225\n        /* \"atta-movies/PopcornERC20.sol\":13805:13812  account */\n      dup4\n        /* \"atta-movies/PopcornERC20.sol\":13822:13823  0 */\n      0x00\n        /* \"atta-movies/PopcornERC20.sol\":13826:13832  amount */\n      dup5\n        /* \"atta-movies/PopcornERC20.sol\":13785:13804  _afterTokenTransfer */\n      tag_204\n        /* \"atta-movies/PopcornERC20.sol\":13785:13833  _afterTokenTransfer(account, address(0), amount) */\n      jump\t// in\n    tag_225:\n        /* \"atta-movies/PopcornERC20.sol\":13250:13841  function _burn(address account, uint256 amount) internal virtual {\r... */\n      pop\n      pop\n      pop\n      jump\t// out\n        /* \"atta-movies/PopcornERC20.sol\":15259:15384  function _beforeTokenTransfer(\r... */\n    tag_197:\n      pop\n      pop\n      pop\n      jump\t// out\n        /* \"atta-movies/PopcornERC20.sol\":15988:16112  function _afterTokenTransfer(\r... */\n    tag_204:\n      pop\n      pop\n      pop\n      jump\t// out\n        /* \"#utility.yul\":7:146   */\n    tag_229:\n      0x00\n        /* \"#utility.yul\":91:97   */\n      dup2\n        /* \"#utility.yul\":78:98   */\n      calldataload\n        /* \"#utility.yul\":69:98   */\n      swap1\n      pop\n        /* \"#utility.yul\":107:140   */\n      tag_231\n        /* \"#utility.yul\":134:139   */\n      dup2\n        /* \"#utility.yul\":107:140   */\n      tag_232\n      jump\t// in\n    tag_231:\n        /* \"#utility.yul\":59:146   */\n      swap3\n      swap2\n      pop\n      pop\n      jump\t// out\n        /* \"#utility.yul\":152:291   */\n    tag_233:\n      0x00\n        /* \"#utility.yul\":236:242   */\n      dup2\n        /* \"#utility.yul\":223:243   */\n      calldataload\n        /* \"#utility.yul\":214:243   */\n      swap1\n      pop\n        /* \"#utility.yul\":252:285   */\n      tag_235\n        /* \"#utility.yul\":279:284   */\n      dup2\n        /* \"#utility.yul\":252:285   */\n      tag_236\n      jump\t// in\n    tag_235:\n        /* \"#utility.yul\":204:291   */\n      swap3\n      swap2\n      pop\n      pop\n      jump\t// out\n        /* \"#utility.yul\":297:559   */\n    tag_45:\n      0x00\n        /* \"#utility.yul\":405:407   */\n      0x20\n        /* \"#utility.yul\":393:402   */\n      dup3\n        /* \"#utility.yul\":384:391   */\n      dup5\n        /* \"#utility.yul\":380:403   */\n      sub\n        /* \"#utility.yul\":376:408   */\n      slt\n        /* \"#utility.yul\":373:375   */\n      iszero\n      tag_238\n      jumpi\n        /* \"#utility.yul\":421:422   */\n      0x00\n        /* \"#utility.yul\":418:419   */\n      dup1\n        /* \"#utility.yul\":411:423   */\n      revert\n        /* \"#utility.yul\":373:375   */\n    tag_238:\n        /* \"#utility.yul\":464:465   */\n      0x00\n        /* \"#utility.yul\":489:542   */\n      tag_239\n        /* \"#utility.yul\":534:541   */\n      dup5\n        /* \"#utility.yul\":525:531   */\n      dup3\n        /* \"#utility.yul\":514:523   */\n      dup6\n        /* \"#utility.yul\":510:532   */\n      add\n        /* \"#utility.yul\":489:542   */\n      tag_229\n      jump\t// in\n    tag_239:\n        /* \"#utility.yul\":479:542   */\n      swap2\n      pop\n        /* \"#utility.yul\":435:552   */\n      pop\n        /* \"#utility.yul\":363:559   */\n      swap3\n      swap2\n      pop\n      pop\n      jump\t// out\n        /* \"#utility.yul\":565:972   */\n    tag_88:\n      0x00\n      dup1\n        /* \"#utility.yul\":690:692   */\n      0x40\n        /* \"#utility.yul\":678:687   */\n      dup4\n        /* \"#utility.yul\":669:676   */\n      dup6\n        /* \"#utility.yul\":665:688   */\n      sub\n        /* \"#utility.yul\":661:693   */\n      slt\n        /* \"#utility.yul\":658:660   */\n      iszero\n      tag_241\n      jumpi\n        /* \"#utility.yul\":706:707   */\n      0x00\n        /* \"#utility.yul\":703:704   */\n      dup1\n        /* \"#utility.yul\":696:708   */\n      revert\n        /* \"#utility.yul\":658:660   */\n    tag_241:\n        /* \"#utility.yul\":749:750   */\n      0x00\n        /* \"#utility.yul\":774:827   */\n      tag_242\n        /* \"#utility.yul\":819:826   */\n      dup6\n        /* \"#utility.yul\":810:816   */\n      dup3\n        /* \"#utility.yul\":799:808   */\n      dup7\n        /* \"#utility.yul\":795:817   */\n      add\n        /* \"#utility.yul\":774:827   */\n      tag_229\n      jump\t// in\n    tag_242:\n        /* \"#utility.yul\":764:827   */\n      swap3\n      pop\n        /* \"#utility.yul\":720:837   */\n      pop\n        /* \"#utility.yul\":876:878   */\n      0x20\n        /* \"#utility.yul\":902:955   */\n      tag_243\n        /* \"#utility.yul\":947:954   */\n      dup6\n        /* \"#utility.yul\":938:944   */\n      dup3\n        /* \"#utility.yul\":927:936   */\n      dup7\n        /* \"#utility.yul\":923:945   */\n      add\n        /* \"#utility.yul\":902:955   */\n      tag_229\n      jump\t// in\n    tag_243:\n        /* \"#utility.yul\":892:955   */\n      swap2\n      pop\n        /* \"#utility.yul\":847:965   */\n      pop\n        /* \"#utility.yul\":648:972   */\n      swap3\n      pop\n      swap3\n      swap1\n      pop\n      jump\t// out\n        /* \"#utility.yul\":978:1530   */\n    tag_40:\n      0x00\n      dup1\n      0x00\n        /* \"#utility.yul\":1120:1122   */\n      0x60\n        /* \"#utility.yul\":1108:1117   */\n      dup5\n        /* \"#utility.yul\":1099:1106   */\n      dup7\n        /* \"#utility.yul\":1095:1118   */\n      sub\n        /* \"#utility.yul\":1091:1123   */\n      slt\n        /* \"#utility.yul\":1088:1090   */\n      iszero\n      tag_245\n      jumpi\n        /* \"#utility.yul\":1136:1137   */\n      0x00\n        /* \"#utility.yul\":1133:1134   */\n      dup1\n        /* \"#utility.yul\":1126:1138   */\n      revert\n        /* \"#utility.yul\":1088:1090   */\n    tag_245:\n        /* \"#utility.yul\":1179:1180   */\n      0x00\n        /* \"#utility.yul\":1204:1257   */\n      tag_246\n        /* \"#utility.yul\":1249:1256   */\n      dup7\n        /* \"#utility.yul\":1240:1246   */\n      dup3\n        /* \"#utility.yul\":1229:1238   */\n      dup8\n        /* \"#utility.yul\":1225:1247   */\n      add\n        /* \"#utility.yul\":1204:1257   */\n      tag_229\n      jump\t// in\n    tag_246:\n        /* \"#utility.yul\":1194:1257   */\n      swap4\n      pop\n        /* \"#utility.yul\":1150:1267   */\n      pop\n        /* \"#utility.yul\":1306:1308   */\n      0x20\n        /* \"#utility.yul\":1332:1385   */\n      tag_247\n        /* \"#utility.yul\":1377:1384   */\n      dup7\n        /* \"#utility.yul\":1368:1374   */\n      dup3\n        /* \"#utility.yul\":1357:1366   */\n      dup8\n        /* \"#utility.yul\":1353:1375   */\n      add\n        /* \"#utility.yul\":1332:1385   */\n      tag_229\n      jump\t// in\n    tag_247:\n        /* \"#utility.yul\":1322:1385   */\n      swap3\n      pop\n        /* \"#utility.yul\":1277:1395   */\n      pop\n        /* \"#utility.yul\":1434:1436   */\n      0x40\n        /* \"#utility.yul\":1460:1513   */\n      tag_248\n        /* \"#utility.yul\":1505:1512   */\n      dup7\n        /* \"#utility.yul\":1496:1502   */\n      dup3\n        /* \"#utility.yul\":1485:1494   */\n      dup8\n        /* \"#utility.yul\":1481:1503   */\n      add\n        /* \"#utility.yul\":1460:1513   */\n      tag_233\n      jump\t// in\n    tag_248:\n        /* \"#utility.yul\":1450:1513   */\n      swap2\n      pop\n        /* \"#utility.yul\":1405:1523   */\n      pop\n        /* \"#utility.yul\":1078:1530   */\n      swap3\n      pop\n      swap3\n      pop\n      swap3\n      jump\t// out\n        /* \"#utility.yul\":1536:1943   */\n    tag_30:\n      0x00\n      dup1\n        /* \"#utility.yul\":1661:1663   */\n      0x40\n        /* \"#utility.yul\":1649:1658   */\n      dup4\n        /* \"#utility.yul\":1640:1647   */\n      dup6\n        /* \"#utility.yul\":1636:1659   */\n      sub\n        /* \"#utility.yul\":1632:1664   */\n      slt\n        /* \"#utility.yul\":1629:1631   */\n      iszero\n      tag_250\n      jumpi\n        /* \"#utility.yul\":1677:1678   */\n      0x00\n        /* \"#utility.yul\":1674:1675   */\n      dup1\n        /* \"#utility.yul\":1667:1679   */\n      revert\n        /* \"#utility.yul\":1629:1631   */\n    tag_250:\n        /* \"#utility.yul\":1720:1721   */\n      0x00\n        /* \"#utility.yul\":1745:1798   */\n      tag_251\n        /* \"#utility.yul\":1790:1797   */\n      dup6\n        /* \"#utility.yul\":1781:1787   */\n      dup3\n        /* \"#utility.yul\":1770:1779   */\n      dup7\n        /* \"#utility.yul\":1766:1788   */\n      add\n        /* \"#utility.yul\":1745:1798   */\n      tag_229\n      jump\t// in\n    tag_251:\n        /* \"#utility.yul\":1735:1798   */\n      swap3\n      pop\n        /* \"#utility.yul\":1691:1808   */\n      pop\n        /* \"#utility.yul\":1847:1849   */\n      0x20\n        /* \"#utility.yul\":1873:1926   */\n      tag_252\n        /* \"#utility.yul\":1918:1925   */\n      dup6\n        /* \"#utility.yul\":1909:1915   */\n      dup3\n        /* \"#utility.yul\":1898:1907   */\n      dup7\n        /* \"#utility.yul\":1894:1916   */\n      add\n        /* \"#utility.yul\":1873:1926   */\n      tag_233\n      jump\t// in\n    tag_252:\n        /* \"#utility.yul\":1863:1926   */\n      swap2\n      pop\n        /* \"#utility.yul\":1818:1936   */\n      pop\n        /* \"#utility.yul\":1619:1943   */\n      swap3\n      pop\n      swap3\n      swap1\n      pop\n      jump\t// out\n        /* \"#utility.yul\":1949:2211   */\n    tag_60:\n      0x00\n        /* \"#utility.yul\":2057:2059   */\n      0x20\n        /* \"#utility.yul\":2045:2054   */\n      dup3\n        /* \"#utility.yul\":2036:2043   */\n      dup5\n        /* \"#utility.yul\":2032:2055   */\n      sub\n        /* \"#utility.yul\":2028:2060   */\n      slt\n        /* \"#utility.yul\":2025:2027   */\n      iszero\n      tag_254\n      jumpi\n        /* \"#utility.yul\":2073:2074   */\n      0x00\n        /* \"#utility.yul\":2070:2071   */\n      dup1\n        /* \"#utility.yul\":2063:2075   */\n      revert\n        /* \"#utility.yul\":2025:2027   */\n    tag_254:\n        /* \"#utility.yul\":2116:2117   */\n      0x00\n        /* \"#utility.yul\":2141:2194   */\n      tag_255\n        /* \"#utility.yul\":2186:2193   */\n      dup5\n        /* \"#utility.yul\":2177:2183   */\n      dup3\n        /* \"#utility.yul\":2166:2175   */\n      dup6\n        /* \"#utility.yul\":2162:2184   */\n      add\n        /* \"#utility.yul\":2141:2194   */\n      tag_233\n      jump\t// in\n    tag_255:\n        /* \"#utility.yul\":2131:2194   */\n      swap2\n      pop\n        /* \"#utility.yul\":2087:2204   */\n      pop\n        /* \"#utility.yul\":2015:2211   */\n      swap3\n      swap2\n      pop\n      pop\n      jump\t// out\n        /* \"#utility.yul\":2217:2335   */\n    tag_256:\n        /* \"#utility.yul\":2304:2328   */\n      tag_258\n        /* \"#utility.yul\":2322:2327   */\n      dup2\n        /* \"#utility.yul\":2304:2328   */\n      tag_259\n      jump\t// in\n    tag_258:\n        /* \"#utility.yul\":2299:2302   */\n      dup3\n        /* \"#utility.yul\":2292:2329   */\n      mstore\n        /* \"#utility.yul\":2282:2335   */\n      pop\n      pop\n      jump\t// out\n        /* \"#utility.yul\":2341:2450   */\n    tag_260:\n        /* \"#utility.yul\":2422:2443   */\n      tag_262\n        /* \"#utility.yul\":2437:2442   */\n      dup2\n        /* \"#utility.yul\":2422:2443   */\n      tag_263\n      jump\t// in\n    tag_262:\n        /* \"#utility.yul\":2417:2420   */\n      dup3\n        /* \"#utility.yul\":2410:2444   */\n      mstore\n        /* \"#utility.yul\":2400:2450   */\n      pop\n      pop\n      jump\t// out\n        /* \"#utility.yul\":2456:2820   */\n    tag_264:\n      0x00\n        /* \"#utility.yul\":2572:2611   */\n      tag_266\n        /* \"#utility.yul\":2605:2610   */\n      dup3\n        /* \"#utility.yul\":2572:2611   */\n      tag_267\n      jump\t// in\n    tag_266:\n        /* \"#utility.yul\":2627:2698   */\n      tag_268\n        /* \"#utility.yul\":2691:2697   */\n      dup2\n        /* \"#utility.yul\":2686:2689   */\n      dup6\n        /* \"#utility.yul\":2627:2698   */\n      tag_269\n      jump\t// in\n    tag_268:\n        /* \"#utility.yul\":2620:2698   */\n      swap4\n      pop\n        /* \"#utility.yul\":2707:2759   */\n      tag_270\n        /* \"#utility.yul\":2752:2758   */\n      dup2\n        /* \"#utility.yul\":2747:2750   */\n      dup6\n        /* \"#utility.yul\":2740:2744   */\n      0x20\n        /* \"#utility.yul\":2733:2738   */\n      dup7\n        /* \"#utility.yul\":2729:2745   */\n      add\n        /* \"#utility.yul\":2707:2759   */\n      tag_271\n      jump\t// in\n    tag_270:\n        /* \"#utility.yul\":2784:2813   */\n      tag_272\n        /* \"#utility.yul\":2806:2812   */\n      dup2\n        /* \"#utility.yul\":2784:2813   */\n      tag_273\n      jump\t// in\n    tag_272:\n        /* \"#utility.yul\":2779:2782   */\n      dup5\n        /* \"#utility.yul\":2775:2814   */\n      add\n        /* \"#utility.yul\":2768:2814   */\n      swap2\n      pop\n        /* \"#utility.yul\":2548:2820   */\n      pop\n      swap3\n      swap2\n      pop\n      pop\n      jump\t// out\n        /* \"#utility.yul\":2826:3193   */\n    tag_274:\n      0x00\n        /* \"#utility.yul\":2989:3056   */\n      tag_276\n        /* \"#utility.yul\":3053:3055   */\n      0x23\n        /* \"#utility.yul\":3048:3051   */\n      dup4\n        /* \"#utility.yul\":2989:3056   */\n      tag_269\n      jump\t// in\n    tag_276:\n        /* \"#utility.yul\":2982:3056   */\n      swap2\n      pop\n        /* \"#utility.yul\":3086:3120   */\n      0x45524332303a207472616e7366657220746f20746865207a65726f2061646472\n        /* \"#utility.yul\":3082:3083   */\n      0x00\n        /* \"#utility.yul\":3077:3080   */\n      dup4\n        /* \"#utility.yul\":3073:3084   */\n      add\n        /* \"#utility.yul\":3066:3121   */\n      mstore\n        /* \"#utility.yul\":3152:3157   */\n      0x6573730000000000000000000000000000000000000000000000000000000000\n        /* \"#utility.yul\":3147:3149   */\n      0x20\n        /* \"#utility.yul\":3142:3145   */\n      dup4\n        /* \"#utility.yul\":3138:3150   */\n      add\n        /* \"#utility.yul\":3131:3158   */\n      mstore\n        /* \"#utility.yul\":3184:3186   */\n      0x40\n        /* \"#utility.yul\":3179:3182   */\n      dup3\n        /* \"#utility.yul\":3175:3187   */\n      add\n        /* \"#utility.yul\":3168:3187   */\n      swap1\n      pop\n        /* \"#utility.yul\":2972:3193   */\n      swap2\n      swap1\n      pop\n      jump\t// out\n        /* \"#utility.yul\":3199:3565   */\n    tag_277:\n      0x00\n        /* \"#utility.yul\":3362:3429   */\n      tag_279\n        /* \"#utility.yul\":3426:3428   */\n      0x22\n        /* \"#utility.yul\":3421:3424   */\n      dup4\n        /* \"#utility.yul\":3362:3429   */\n      tag_269\n      jump\t// in\n    tag_279:\n        /* \"#utility.yul\":3355:3429   */\n      swap2\n      pop\n        /* \"#utility.yul\":3459:3493   */\n      0x45524332303a206275726e20616d6f756e7420657863656564732062616c616e\n        /* \"#utility.yul\":3455:3456   */\n      0x00\n        /* \"#utility.yul\":3450:3453   */\n      dup4\n        /* \"#utility.yul\":3446:3457   */\n      add\n        /* \"#utility.yul\":3439:3494   */\n      mstore\n        /* \"#utility.yul\":3525:3529   */\n      0x6365000000000000000000000000000000000000000000000000000000000000\n        /* \"#utility.yul\":3520:3522   */\n      0x20\n        /* \"#utility.yul\":3515:3518   */\n      dup4\n        /* \"#utility.yul\":3511:3523   */\n      add\n        /* \"#utility.yul\":3504:3530   */\n      mstore\n        /* \"#utility.yul\":3556:3558   */\n      0x40\n        /* \"#utility.yul\":3551:3554   */\n      dup3\n        /* \"#utility.yul\":3547:3559   */\n      add\n        /* \"#utility.yul\":3540:3559   */\n      swap1\n      pop\n        /* \"#utility.yul\":3345:3565   */\n      swap2\n      swap1\n      pop\n      jump\t// out\n        /* \"#utility.yul\":3571:3941   */\n    tag_280:\n      0x00\n        /* \"#utility.yul\":3734:3801   */\n      tag_282\n        /* \"#utility.yul\":3798:3800   */\n      0x26\n        /* \"#utility.yul\":3793:3796   */\n      dup4\n        /* \"#utility.yul\":3734:3801   */\n      tag_269\n      jump\t// in\n    tag_282:\n        /* \"#utility.yul\":3727:3801   */\n      swap2\n      pop\n        /* \"#utility.yul\":3831:3865   */\n      0x4f776e61626c653a206e6577206f776e657220697320746865207a65726f2061\n        /* \"#utility.yul\":3827:3828   */\n      0x00\n        /* \"#utility.yul\":3822:3825   */\n      dup4\n        /* \"#utility.yul\":3818:3829   */\n      add\n        /* \"#utility.yul\":3811:3866   */\n      mstore\n        /* \"#utility.yul\":3897:3905   */\n      0x6464726573730000000000000000000000000000000000000000000000000000\n        /* \"#utility.yul\":3892:3894   */\n      0x20\n        /* \"#utility.yul\":3887:3890   */\n      dup4\n        /* \"#utility.yul\":3883:3895   */\n      add\n        /* \"#utility.yul\":3876:3906   */\n      mstore\n        /* \"#utility.yul\":3932:3934   */\n      0x40\n        /* \"#utility.yul\":3927:3930   */\n      dup3\n        /* \"#utility.yul\":3923:3935   */\n      add\n        /* \"#utility.yul\":3916:3935   */\n      swap1\n      pop\n        /* \"#utility.yul\":3717:3941   */\n      swap2\n      swap1\n      pop\n      jump\t// out\n        /* \"#utility.yul\":3947:4313   */\n    tag_283:\n      0x00\n        /* \"#utility.yul\":4110:4177   */\n      tag_285\n        /* \"#utility.yul\":4174:4176   */\n      0x22\n        /* \"#utility.yul\":4169:4172   */\n      dup4\n        /* \"#utility.yul\":4110:4177   */\n      tag_269\n      jump\t// in\n    tag_285:\n        /* \"#utility.yul\":4103:4177   */\n      swap2\n      pop\n        /* \"#utility.yul\":4207:4241   */\n      0x45524332303a20617070726f766520746f20746865207a65726f206164647265\n        /* \"#utility.yul\":4203:4204   */\n      0x00\n        /* \"#utility.yul\":4198:4201   */\n      dup4\n        /* \"#utility.yul\":4194:4205   */\n      add\n        /* \"#utility.yul\":4187:4242   */\n      mstore\n        /* \"#utility.yul\":4273:4277   */\n      0x7373000000000000000000000000000000000000000000000000000000000000\n        /* \"#utility.yul\":4268:4270   */\n      0x20\n        /* \"#utility.yul\":4263:4266   */\n      dup4\n        /* \"#utility.yul\":4259:4271   */\n      add\n        /* \"#utility.yul\":4252:4278   */\n      mstore\n        /* \"#utility.yul\":4304:4306   */\n      0x40\n        /* \"#utility.yul\":4299:4302   */\n      dup3\n        /* \"#utility.yul\":4295:4307   */\n      add\n        /* \"#utility.yul\":4288:4307   */\n      swap1\n      pop\n        /* \"#utility.yul\":4093:4313   */\n      swap2\n      swap1\n      pop\n      jump\t// out\n        /* \"#utility.yul\":4319:4689   */\n    tag_286:\n      0x00\n        /* \"#utility.yul\":4482:4549   */\n      tag_288\n        /* \"#utility.yul\":4546:4548   */\n      0x26\n        /* \"#utility.yul\":4541:4544   */\n      dup4\n        /* \"#utility.yul\":4482:4549   */\n      tag_269\n      jump\t// in\n    tag_288:\n        /* \"#utility.yul\":4475:4549   */\n      swap2\n      pop\n        /* \"#utility.yul\":4579:4613   */\n      0x45524332303a207472616e7366657220616d6f756e7420657863656564732062\n        /* \"#utility.yul\":4575:4576   */\n      0x00\n        /* \"#utility.yul\":4570:4573   */\n      dup4\n        /* \"#utility.yul\":4566:4577   */\n      add\n        /* \"#utility.yul\":4559:4614   */\n      mstore\n        /* \"#utility.yul\":4645:4653   */\n      0x616c616e63650000000000000000000000000000000000000000000000000000\n        /* \"#utility.yul\":4640:4642   */\n      0x20\n        /* \"#utility.yul\":4635:4638   */\n      dup4\n        /* \"#utility.yul\":4631:4643   */\n      add\n        /* \"#utility.yul\":4624:4654   */\n      mstore\n        /* \"#utility.yul\":4680:4682   */\n      0x40\n        /* \"#utility.yul\":4675:4678   */\n      dup3\n        /* \"#utility.yul\":4671:4683   */\n      add\n        /* \"#utility.yul\":4664:4683   */\n      swap1\n      pop\n        /* \"#utility.yul\":4465:4689   */\n      swap2\n      swap1\n      pop\n      jump\t// out\n        /* \"#utility.yul\":4695:5063   */\n    tag_289:\n      0x00\n        /* \"#utility.yul\":4858:4925   */\n      tag_291\n        /* \"#utility.yul\":4922:4924   */\n      0x24\n        /* \"#utility.yul\":4917:4920   */\n      dup4\n        /* \"#utility.yul\":4858:4925   */\n      tag_269\n      jump\t// in\n    tag_291:\n        /* \"#utility.yul\":4851:4925   */\n      swap2\n      pop\n        /* \"#utility.yul\":4955:4989   */\n      0x4f776e61626c653a2063616c6c6572206973206e6f74206f776e65722f6d616e\n        /* \"#utility.yul\":4951:4952   */\n      0x00\n        /* \"#utility.yul\":4946:4949   */\n      dup4\n        /* \"#utility.yul\":4942:4953   */\n      add\n        /* \"#utility.yul\":4935:4990   */\n      mstore\n        /* \"#utility.yul\":5021:5027   */\n      0x6167657200000000000000000000000000000000000000000000000000000000\n        /* \"#utility.yul\":5016:5018   */\n      0x20\n        /* \"#utility.yul\":5011:5014   */\n      dup4\n        /* \"#utility.yul\":5007:5019   */\n      add\n        /* \"#utility.yul\":5000:5028   */\n      mstore\n        /* \"#utility.yul\":5054:5056   */\n      0x40\n        /* \"#utility.yul\":5049:5052   */\n      dup3\n        /* \"#utility.yul\":5045:5057   */\n      add\n        /* \"#utility.yul\":5038:5057   */\n      swap1\n      pop\n        /* \"#utility.yul\":4841:5063   */\n      swap2\n      swap1\n      pop\n      jump\t// out\n        /* \"#utility.yul\":5069:5441   */\n    tag_292:\n      0x00\n        /* \"#utility.yul\":5232:5299   */\n      tag_294\n        /* \"#utility.yul\":5296:5298   */\n      0x28\n        /* \"#utility.yul\":5291:5294   */\n      dup4\n        /* \"#utility.yul\":5232:5299   */\n      tag_269\n      jump\t// in\n    tag_294:\n        /* \"#utility.yul\":5225:5299   */\n      swap2\n      pop\n        /* \"#utility.yul\":5329:5363   */\n      0x45524332303a207472616e7366657220616d6f756e7420657863656564732061\n        /* \"#utility.yul\":5325:5326   */\n      0x00\n        /* \"#utility.yul\":5320:5323   */\n      dup4\n        /* \"#utility.yul\":5316:5327   */\n      add\n        /* \"#utility.yul\":5309:5364   */\n      mstore\n        /* \"#utility.yul\":5395:5405   */\n      0x6c6c6f77616e6365000000000000000000000000000000000000000000000000\n        /* \"#utility.yul\":5390:5392   */\n      0x20\n        /* \"#utility.yul\":5385:5388   */\n      dup4\n        /* \"#utility.yul\":5381:5393   */\n      add\n        /* \"#utility.yul\":5374:5406   */\n      mstore\n        /* \"#utility.yul\":5432:5434   */\n      0x40\n        /* \"#utility.yul\":5427:5430   */\n      dup3\n        /* \"#utility.yul\":5423:5435   */\n      add\n        /* \"#utility.yul\":5416:5435   */\n      swap1\n      pop\n        /* \"#utility.yul\":5215:5441   */\n      swap2\n      swap1\n      pop\n      jump\t// out\n        /* \"#utility.yul\":5447:5777   */\n    tag_295:\n      0x00\n        /* \"#utility.yul\":5610:5677   */\n      tag_297\n        /* \"#utility.yul\":5674:5676   */\n      0x20\n        /* \"#utility.yul\":5669:5672   */\n      dup4\n        /* \"#utility.yul\":5610:5677   */\n      tag_269\n      jump\t// in\n    tag_297:\n        /* \"#utility.yul\":5603:5677   */\n      swap2\n      pop\n        /* \"#utility.yul\":5707:5741   */\n      0x4f776e61626c653a2063616c6c6572206973206e6f7420746865206f776e6572\n        /* \"#utility.yul\":5703:5704   */\n      0x00\n        /* \"#utility.yul\":5698:5701   */\n      dup4\n        /* \"#utility.yul\":5694:5705   */\n      add\n        /* \"#utility.yul\":5687:5742   */\n      mstore\n        /* \"#utility.yul\":5768:5770   */\n      0x20\n        /* \"#utility.yul\":5763:5766   */\n      dup3\n        /* \"#utility.yul\":5759:5771   */\n      add\n        /* \"#utility.yul\":5752:5771   */\n      swap1\n      pop\n        /* \"#utility.yul\":5593:5777   */\n      swap2\n      swap1\n      pop\n      jump\t// out\n        /* \"#utility.yul\":5783:6148   */\n    tag_298:\n      0x00\n        /* \"#utility.yul\":5946:6013   */\n      tag_300\n        /* \"#utility.yul\":6010:6012   */\n      0x21\n        /* \"#utility.yul\":6005:6008   */\n      dup4\n        /* \"#utility.yul\":5946:6013   */\n      tag_269\n      jump\t// in\n    tag_300:\n        /* \"#utility.yul\":5939:6013   */\n      swap2\n      pop\n        /* \"#utility.yul\":6043:6077   */\n      0x45524332303a206275726e2066726f6d20746865207a65726f20616464726573\n        /* \"#utility.yul\":6039:6040   */\n      0x00\n        /* \"#utility.yul\":6034:6037   */\n      dup4\n        /* \"#utility.yul\":6030:6041   */\n      add\n        /* \"#utility.yul\":6023:6078   */\n      mstore\n        /* \"#utility.yul\":6109:6112   */\n      0x7300000000000000000000000000000000000000000000000000000000000000\n        /* \"#utility.yul\":6104:6106   */\n      0x20\n        /* \"#utility.yul\":6099:6102   */\n      dup4\n        /* \"#utility.yul\":6095:6107   */\n      add\n        /* \"#utility.yul\":6088:6113   */\n      mstore\n        /* \"#utility.yul\":6139:6141   */\n      0x40\n        /* \"#utility.yul\":6134:6137   */\n      dup3\n        /* \"#utility.yul\":6130:6142   */\n      add\n        /* \"#utility.yul\":6123:6142   */\n      swap1\n      pop\n        /* \"#utility.yul\":5929:6148   */\n      swap2\n      swap1\n      pop\n      jump\t// out\n        /* \"#utility.yul\":6154:6523   */\n    tag_301:\n      0x00\n        /* \"#utility.yul\":6317:6384   */\n      tag_303\n        /* \"#utility.yul\":6381:6383   */\n      0x25\n        /* \"#utility.yul\":6376:6379   */\n      dup4\n        /* \"#utility.yul\":6317:6384   */\n      tag_269\n      jump\t// in\n    tag_303:\n        /* \"#utility.yul\":6310:6384   */\n      swap2\n      pop\n        /* \"#utility.yul\":6414:6448   */\n      0x45524332303a207472616e736665722066726f6d20746865207a65726f206164\n        /* \"#utility.yul\":6410:6411   */\n      0x00\n        /* \"#utility.yul\":6405:6408   */\n      dup4\n        /* \"#utility.yul\":6401:6412   */\n      add\n        /* \"#utility.yul\":6394:6449   */\n      mstore\n        /* \"#utility.yul\":6480:6487   */\n      0x6472657373000000000000000000000000000000000000000000000000000000\n        /* \"#utility.yul\":6475:6477   */\n      0x20\n        /* \"#utility.yul\":6470:6473   */\n      dup4\n        /* \"#utility.yul\":6466:6478   */\n      add\n        /* \"#utility.yul\":6459:6488   */\n      mstore\n        /* \"#utility.yul\":6514:6516   */\n      0x40\n        /* \"#utility.yul\":6509:6512   */\n      dup3\n        /* \"#utility.yul\":6505:6517   */\n      add\n        /* \"#utility.yul\":6498:6517   */\n      swap1\n      pop\n        /* \"#utility.yul\":6300:6523   */\n      swap2\n      swap1\n      pop\n      jump\t// out\n        /* \"#utility.yul\":6529:6897   */\n    tag_304:\n      0x00\n        /* \"#utility.yul\":6692:6759   */\n      tag_306\n        /* \"#utility.yul\":6756:6758   */\n      0x24\n        /* \"#utility.yul\":6751:6754   */\n      dup4\n        /* \"#utility.yul\":6692:6759   */\n      tag_269\n      jump\t// in\n    tag_306:\n        /* \"#utility.yul\":6685:6759   */\n      swap2\n      pop\n        /* \"#utility.yul\":6789:6823   */\n      0x45524332303a20617070726f76652066726f6d20746865207a65726f20616464\n        /* \"#utility.yul\":6785:6786   */\n      0x00\n        /* \"#utility.yul\":6780:6783   */\n      dup4\n        /* \"#utility.yul\":6776:6787   */\n      add\n        /* \"#utility.yul\":6769:6824   */\n      mstore\n        /* \"#utility.yul\":6855:6861   */\n      0x7265737300000000000000000000000000000000000000000000000000000000\n        /* \"#utility.yul\":6850:6852   */\n      0x20\n        /* \"#utility.yul\":6845:6848   */\n      dup4\n        /* \"#utility.yul\":6841:6853   */\n      add\n        /* \"#utility.yul\":6834:6862   */\n      mstore\n        /* \"#utility.yul\":6888:6890   */\n      0x40\n        /* \"#utility.yul\":6883:6886   */\n      dup3\n        /* \"#utility.yul\":6879:6891   */\n      add\n        /* \"#utility.yul\":6872:6891   */\n      swap1\n      pop\n        /* \"#utility.yul\":6675:6897   */\n      swap2\n      swap1\n      pop\n      jump\t// out\n        /* \"#utility.yul\":6903:7272   */\n    tag_307:\n      0x00\n        /* \"#utility.yul\":7066:7133   */\n      tag_309\n        /* \"#utility.yul\":7130:7132   */\n      0x25\n        /* \"#utility.yul\":7125:7128   */\n      dup4\n        /* \"#utility.yul\":7066:7133   */\n      tag_269\n      jump\t// in\n    tag_309:\n        /* \"#utility.yul\":7059:7133   */\n      swap2\n      pop\n        /* \"#utility.yul\":7163:7197   */\n      0x45524332303a2064656372656173656420616c6c6f77616e63652062656c6f77\n        /* \"#utility.yul\":7159:7160   */\n      0x00\n        /* \"#utility.yul\":7154:7157   */\n      dup4\n        /* \"#utility.yul\":7150:7161   */\n      add\n        /* \"#utility.yul\":7143:7198   */\n      mstore\n        /* \"#utility.yul\":7229:7236   */\n      0x207a65726f000000000000000000000000000000000000000000000000000000\n        /* \"#utility.yul\":7224:7226   */\n      0x20\n        /* \"#utility.yul\":7219:7222   */\n      dup4\n        /* \"#utility.yul\":7215:7227   */\n      add\n        /* \"#utility.yul\":7208:7237   */\n      mstore\n        /* \"#utility.yul\":7263:7265   */\n      0x40\n        /* \"#utility.yul\":7258:7261   */\n      dup3\n        /* \"#utility.yul\":7254:7266   */\n      add\n        /* \"#utility.yul\":7247:7266   */\n      swap1\n      pop\n        /* \"#utility.yul\":7049:7272   */\n      swap2\n      swap1\n      pop\n      jump\t// out\n        /* \"#utility.yul\":7278:7607   */\n    tag_310:\n      0x00\n        /* \"#utility.yul\":7441:7508   */\n      tag_312\n        /* \"#utility.yul\":7505:7507   */\n      0x1f\n        /* \"#utility.yul\":7500:7503   */\n      dup4\n        /* \"#utility.yul\":7441:7508   */\n      tag_269\n      jump\t// in\n    tag_312:\n        /* \"#utility.yul\":7434:7508   */\n      swap2\n      pop\n        /* \"#utility.yul\":7538:7571   */\n      0x45524332303a206d696e7420746f20746865207a65726f206164647265737300\n        /* \"#utility.yul\":7534:7535   */\n      0x00\n        /* \"#utility.yul\":7529:7532   */\n      dup4\n        /* \"#utility.yul\":7525:7536   */\n      add\n        /* \"#utility.yul\":7518:7572   */\n      mstore\n        /* \"#utility.yul\":7598:7600   */\n      0x20\n        /* \"#utility.yul\":7593:7596   */\n      dup3\n        /* \"#utility.yul\":7589:7601   */\n      add\n        /* \"#utility.yul\":7582:7601   */\n      swap1\n      pop\n        /* \"#utility.yul\":7424:7607   */\n      swap2\n      swap1\n      pop\n      jump\t// out\n        /* \"#utility.yul\":7613:7731   */\n    tag_313:\n        /* \"#utility.yul\":7700:7724   */\n      tag_315\n        /* \"#utility.yul\":7718:7723   */\n      dup2\n        /* \"#utility.yul\":7700:7724   */\n      tag_316\n      jump\t// in\n    tag_315:\n        /* \"#utility.yul\":7695:7698   */\n      dup3\n        /* \"#utility.yul\":7688:7725   */\n      mstore\n        /* \"#utility.yul\":7678:7731   */\n      pop\n      pop\n      jump\t// out\n        /* \"#utility.yul\":7737:7849   */\n    tag_317:\n        /* \"#utility.yul\":7820:7842   */\n      tag_319\n        /* \"#utility.yul\":7836:7841   */\n      dup2\n        /* \"#utility.yul\":7820:7842   */\n      tag_320\n      jump\t// in\n    tag_319:\n        /* \"#utility.yul\":7815:7818   */\n      dup3\n        /* \"#utility.yul\":7808:7843   */\n      mstore\n        /* \"#utility.yul\":7798:7849   */\n      pop\n      pop\n      jump\t// out\n        /* \"#utility.yul\":7855:8077   */\n    tag_71:\n      0x00\n        /* \"#utility.yul\":7986:7988   */\n      0x20\n        /* \"#utility.yul\":7975:7984   */\n      dup3\n        /* \"#utility.yul\":7971:7989   */\n      add\n        /* \"#utility.yul\":7963:7989   */\n      swap1\n      pop\n        /* \"#utility.yul\":7999:8070   */\n      tag_322\n        /* \"#utility.yul\":8067:8068   */\n      0x00\n        /* \"#utility.yul\":8056:8065   */\n      dup4\n        /* \"#utility.yul\":8052:8069   */\n      add\n        /* \"#utility.yul\":8043:8049   */\n      dup5\n        /* \"#utility.yul\":7999:8070   */\n      tag_256\n      jump\t// in\n    tag_322:\n        /* \"#utility.yul\":7953:8077   */\n      swap3\n      swap2\n      pop\n      pop\n      jump\t// out\n        /* \"#utility.yul\":8083:8293   */\n    tag_33:\n      0x00\n        /* \"#utility.yul\":8208:8210   */\n      0x20\n        /* \"#utility.yul\":8197:8206   */\n      dup3\n        /* \"#utility.yul\":8193:8211   */\n      add\n        /* \"#utility.yul\":8185:8211   */\n      swap1\n      pop\n        /* \"#utility.yul\":8221:8286   */\n      tag_324\n        /* \"#utility.yul\":8283:8284   */\n      0x00\n        /* \"#utility.yul\":8272:8281   */\n      dup4\n        /* \"#utility.yul\":8268:8285   */\n      add\n        /* \"#utility.yul\":8259:8265   */\n      dup5\n        /* \"#utility.yul\":8221:8286   */\n      tag_260\n      jump\t// in\n    tag_324:\n        /* \"#utility.yul\":8175:8293   */\n      swap3\n      swap2\n      pop\n      pop\n      jump\t// out\n        /* \"#utility.yul\":8299:8612   */\n    tag_27:\n      0x00\n        /* \"#utility.yul\":8450:8452   */\n      0x20\n        /* \"#utility.yul\":8439:8448   */\n      dup3\n        /* \"#utility.yul\":8435:8453   */\n      add\n        /* \"#utility.yul\":8427:8453   */\n      swap1\n      pop\n        /* \"#utility.yul\":8499:8508   */\n      dup2\n        /* \"#utility.yul\":8493:8497   */\n      dup2\n        /* \"#utility.yul\":8489:8509   */\n      sub\n        /* \"#utility.yul\":8485:8486   */\n      0x00\n        /* \"#utility.yul\":8474:8483   */\n      dup4\n        /* \"#utility.yul\":8470:8487   */\n      add\n        /* \"#utility.yul\":8463:8510   */\n      mstore\n        /* \"#utility.yul\":8527:8605   */\n      tag_326\n        /* \"#utility.yul\":8600:8604   */\n      dup2\n        /* \"#utility.yul\":8591:8597   */\n      dup5\n        /* \"#utility.yul\":8527:8605   */\n      tag_264\n      jump\t// in\n    tag_326:\n        /* \"#utility.yul\":8519:8605   */\n      swap1\n      pop\n        /* \"#utility.yul\":8417:8612   */\n      swap3\n      swap2\n      pop\n      pop\n      jump\t// out\n        /* \"#utility.yul\":8618:9037   */\n    tag_195:\n      0x00\n        /* \"#utility.yul\":8822:8824   */\n      0x20\n        /* \"#utility.yul\":8811:8820   */\n      dup3\n        /* \"#utility.yul\":8807:8825   */\n      add\n        /* \"#utility.yul\":8799:8825   */\n      swap1\n      pop\n        /* \"#utility.yul\":8871:8880   */\n      dup2\n        /* \"#utility.yul\":8865:8869   */\n      dup2\n        /* \"#utility.yul\":8861:8881   */\n      sub\n        /* \"#utility.yul\":8857:8858   */\n      0x00\n        /* \"#utility.yul\":8846:8855   */\n      dup4\n        /* \"#utility.yul\":8842:8859   */\n      add\n        /* \"#utility.yul\":8835:8882   */\n      mstore\n        /* \"#utility.yul\":8899:9030   */\n      tag_328\n        /* \"#utility.yul\":9025:9029   */\n      dup2\n        /* \"#utility.yul\":8899:9030   */\n      tag_274\n      jump\t// in\n    tag_328:\n        /* \"#utility.yul\":8891:9030   */\n      swap1\n      pop\n        /* \"#utility.yul\":8789:9037   */\n      swap2\n      swap1\n      pop\n      jump\t// out\n        /* \"#utility.yul\":9043:9462   */\n    tag_221:\n      0x00\n        /* \"#utility.yul\":9247:9249   */\n      0x20\n        /* \"#utility.yul\":9236:9245   */\n      dup3\n        /* \"#utility.yul\":9232:9250   */\n      add\n        /* \"#utility.yul\":9224:9250   */\n      swap1\n      pop\n        /* \"#utility.yul\":9296:9305   */\n      dup2\n        /* \"#utility.yul\":9290:9294   */\n      dup2\n        /* \"#utility.yul\":9286:9306   */\n      sub\n        /* \"#utility.yul\":9282:9283   */\n      0x00\n        /* \"#utility.yul\":9271:9280   */\n      dup4\n        /* \"#utility.yul\":9267:9284   */\n      add\n        /* \"#utility.yul\":9260:9307   */\n      mstore\n        /* \"#utility.yul\":9324:9455   */\n      tag_330\n        /* \"#utility.yul\":9450:9454   */\n      dup2\n        /* \"#utility.yul\":9324:9455   */\n      tag_277\n      jump\t// in\n    tag_330:\n        /* \"#utility.yul\":9316:9455   */\n      swap1\n      pop\n        /* \"#utility.yul\":9214:9462   */\n      swap2\n      swap1\n      pop\n      jump\t// out\n        /* \"#utility.yul\":9468:9887   */\n    tag_179:\n      0x00\n        /* \"#utility.yul\":9672:9674   */\n      0x20\n        /* \"#utility.yul\":9661:9670   */\n      dup3\n        /* \"#utility.yul\":9657:9675   */\n      add\n        /* \"#utility.yul\":9649:9675   */\n      swap1\n      pop\n        /* \"#utility.yul\":9721:9730   */\n      dup2\n        /* \"#utility.yul\":9715:9719   */\n      dup2\n        /* \"#utility.yul\":9711:9731   */\n      sub\n        /* \"#utility.yul\":9707:9708   */\n      0x00\n        /* \"#utility.yul\":9696:9705   */\n      dup4\n        /* \"#utility.yul\":9692:9709   */\n      add\n        /* \"#utility.yul\":9685:9732   */\n      mstore\n        /* \"#utility.yul\":9749:9880   */\n      tag_332\n        /* \"#utility.yul\":9875:9879   */\n      dup2\n        /* \"#utility.yul\":9749:9880   */\n      tag_280\n      jump\t// in\n    tag_332:\n        /* \"#utility.yul\":9741:9880   */\n      swap1\n      pop\n        /* \"#utility.yul\":9639:9887   */\n      swap2\n      swap1\n      pop\n      jump\t// out\n        /* \"#utility.yul\":9893:10312   */\n    tag_187:\n      0x00\n        /* \"#utility.yul\":10097:10099   */\n      0x20\n        /* \"#utility.yul\":10086:10095   */\n      dup3\n        /* \"#utility.yul\":10082:10100   */\n      add\n        /* \"#utility.yul\":10074:10100   */\n      swap1\n      pop\n        /* \"#utility.yul\":10146:10155   */\n      dup2\n        /* \"#utility.yul\":10140:10144   */\n      dup2\n        /* \"#utility.yul\":10136:10156   */\n      sub\n        /* \"#utility.yul\":10132:10133   */\n      0x00\n        /* \"#utility.yul\":10121:10130   */\n      dup4\n        /* \"#utility.yul\":10117:10134   */\n      add\n        /* \"#utility.yul\":10110:10157   */\n      mstore\n        /* \"#utility.yul\":10174:10305   */\n      tag_334\n        /* \"#utility.yul\":10300:10304   */\n      dup2\n        /* \"#utility.yul\":10174:10305   */\n      tag_283\n      jump\t// in\n    tag_334:\n        /* \"#utility.yul\":10166:10305   */\n      swap1\n      pop\n        /* \"#utility.yul\":10064:10312   */\n      swap2\n      swap1\n      pop\n      jump\t// out\n        /* \"#utility.yul\":10318:10737   */\n    tag_200:\n      0x00\n        /* \"#utility.yul\":10522:10524   */\n      0x20\n        /* \"#utility.yul\":10511:10520   */\n      dup3\n        /* \"#utility.yul\":10507:10525   */\n      add\n        /* \"#utility.yul\":10499:10525   */\n      swap1\n      pop\n        /* \"#utility.yul\":10571:10580   */\n      dup2\n        /* \"#utility.yul\":10565:10569   */\n      dup2\n        /* \"#utility.yul\":10561:10581   */\n      sub\n        /* \"#utility.yul\":10557:10558   */\n      0x00\n        /* \"#utility.yul\":10546:10555   */\n      dup4\n        /* \"#utility.yul\":10542:10559   */\n      add\n        /* \"#utility.yul\":10535:10582   */\n      mstore\n        /* \"#utility.yul\":10599:10730   */\n      tag_336\n        /* \"#utility.yul\":10725:10729   */\n      dup2\n        /* \"#utility.yul\":10599:10730   */\n      tag_286\n      jump\t// in\n    tag_336:\n        /* \"#utility.yul\":10591:10730   */\n      swap1\n      pop\n        /* \"#utility.yul\":10489:10737   */\n      swap2\n      swap1\n      pop\n      jump\t// out\n        /* \"#utility.yul\":10743:11162   */\n    tag_135:\n      0x00\n        /* \"#utility.yul\":10947:10949   */\n      0x20\n        /* \"#utility.yul\":10936:10945   */\n      dup3\n        /* \"#utility.yul\":10932:10950   */\n      add\n        /* \"#utility.yul\":10924:10950   */\n      swap1\n      pop\n        /* \"#utility.yul\":10996:11005   */\n      dup2\n        /* \"#utility.yul\":10990:10994   */\n      dup2\n        /* \"#utility.yul\":10986:11006   */\n      sub\n        /* \"#utility.yul\":10982:10983   */\n      0x00\n        /* \"#utility.yul\":10971:10980   */\n      dup4\n        /* \"#utility.yul\":10967:10984   */\n      add\n        /* \"#utility.yul\":10960:11007   */\n      mstore\n        /* \"#utility.yul\":11024:11155   */\n      tag_338\n        /* \"#utility.yul\":11150:11154   */\n      dup2\n        /* \"#utility.yul\":11024:11155   */\n      tag_289\n      jump\t// in\n    tag_338:\n        /* \"#utility.yul\":11016:11155   */\n      swap1\n      pop\n        /* \"#utility.yul\":10914:11162   */\n      swap2\n      swap1\n      pop\n      jump\t// out\n        /* \"#utility.yul\":11168:11587   */\n    tag_113:\n      0x00\n        /* \"#utility.yul\":11372:11374   */\n      0x20\n        /* \"#utility.yul\":11361:11370   */\n      dup3\n        /* \"#utility.yul\":11357:11375   */\n      add\n        /* \"#utility.yul\":11349:11375   */\n      swap1\n      pop\n        /* \"#utility.yul\":11421:11430   */\n      dup2\n        /* \"#utility.yul\":11415:11419   */\n      dup2\n        /* \"#utility.yul\":11411:11431   */\n      sub\n        /* \"#utility.yul\":11407:11408   */\n      0x00\n        /* \"#utility.yul\":11396:11405   */\n      dup4\n        /* \"#utility.yul\":11392:11409   */\n      add\n        /* \"#utility.yul\":11385:11432   */\n      mstore\n        /* \"#utility.yul\":11449:11580   */\n      tag_340\n        /* \"#utility.yul\":11575:11579   */\n      dup2\n        /* \"#utility.yul\":11449:11580   */\n      tag_292\n      jump\t// in\n    tag_340:\n        /* \"#utility.yul\":11441:11580   */\n      swap1\n      pop\n        /* \"#utility.yul\":11339:11587   */\n      swap2\n      swap1\n      pop\n      jump\t// out\n        /* \"#utility.yul\":11593:12012   */\n    tag_120:\n      0x00\n        /* \"#utility.yul\":11797:11799   */\n      0x20\n        /* \"#utility.yul\":11786:11795   */\n      dup3\n        /* \"#utility.yul\":11782:11800   */\n      add\n        /* \"#utility.yul\":11774:11800   */\n      swap1\n      pop\n        /* \"#utility.yul\":11846:11855   */\n      dup2\n        /* \"#utility.yul\":11840:11844   */\n      dup2\n        /* \"#utility.yul\":11836:11856   */\n      sub\n        /* \"#utility.yul\":11832:11833   */\n      0x00\n        /* \"#utility.yul\":11821:11830   */\n      dup4\n        /* \"#utility.yul\":11817:11834   */\n      add\n        /* \"#utility.yul\":11810:11857   */\n      mstore\n        /* \"#utility.yul\":11874:12005   */\n      tag_342\n        /* \"#utility.yul\":12000:12004   */\n      dup2\n        /* \"#utility.yul\":11874:12005   */\n      tag_295\n      jump\t// in\n    tag_342:\n        /* \"#utility.yul\":11866:12005   */\n      swap1\n      pop\n        /* \"#utility.yul\":11764:12012   */\n      swap2\n      swap1\n      pop\n      jump\t// out\n        /* \"#utility.yul\":12018:12437   */\n    tag_217:\n      0x00\n        /* \"#utility.yul\":12222:12224   */\n      0x20\n        /* \"#utility.yul\":12211:12220   */\n      dup3\n        /* \"#utility.yul\":12207:12225   */\n      add\n        /* \"#utility.yul\":12199:12225   */\n      swap1\n      pop\n        /* \"#utility.yul\":12271:12280   */\n      dup2\n        /* \"#utility.yul\":12265:12269   */\n      dup2\n        /* \"#utility.yul\":12261:12281   */\n      sub\n        /* \"#utility.yul\":12257:12258   */\n      0x00\n        /* \"#utility.yul\":12246:12255   */\n      dup4\n        /* \"#utility.yul\":12242:12259   */\n      add\n        /* \"#utility.yul\":12235:12282   */\n      mstore\n        /* \"#utility.yul\":12299:12430   */\n      tag_344\n        /* \"#utility.yul\":12425:12429   */\n      dup2\n        /* \"#utility.yul\":12299:12430   */\n      tag_298\n      jump\t// in\n    tag_344:\n        /* \"#utility.yul\":12291:12430   */\n      swap1\n      pop\n        /* \"#utility.yul\":12189:12437   */\n      swap2\n      swap1\n      pop\n      jump\t// out\n        /* \"#utility.yul\":12443:12862   */\n    tag_192:\n      0x00\n        /* \"#utility.yul\":12647:12649   */\n      0x20\n        /* \"#utility.yul\":12636:12645   */\n      dup3\n        /* \"#utility.yul\":12632:12650   */\n      add\n        /* \"#utility.yul\":12624:12650   */\n      swap1\n      pop\n        /* \"#utility.yul\":12696:12705   */\n      dup2\n        /* \"#utility.yul\":12690:12694   */\n      dup2\n        /* \"#utility.yul\":12686:12706   */\n      sub\n        /* \"#utility.yul\":12682:12683   */\n      0x00\n        /* \"#utility.yul\":12671:12680   */\n      dup4\n        /* \"#utility.yul\":12667:12684   */\n      add\n        /* \"#utility.yul\":12660:12707   */\n      mstore\n        /* \"#utility.yul\":12724:12855   */\n      tag_346\n        /* \"#utility.yul\":12850:12854   */\n      dup2\n        /* \"#utility.yul\":12724:12855   */\n      tag_301\n      jump\t// in\n    tag_346:\n        /* \"#utility.yul\":12716:12855   */\n      swap1\n      pop\n        /* \"#utility.yul\":12614:12862   */\n      swap2\n      swap1\n      pop\n      jump\t// out\n        /* \"#utility.yul\":12868:13287   */\n    tag_184:\n      0x00\n        /* \"#utility.yul\":13072:13074   */\n      0x20\n        /* \"#utility.yul\":13061:13070   */\n      dup3\n        /* \"#utility.yul\":13057:13075   */\n      add\n        /* \"#utility.yul\":13049:13075   */\n      swap1\n      pop\n        /* \"#utility.yul\":13121:13130   */\n      dup2\n        /* \"#utility.yul\":13115:13119   */\n      dup2\n        /* \"#utility.yul\":13111:13131   */\n      sub\n        /* \"#utility.yul\":13107:13108   */\n      0x00\n        /* \"#utility.yul\":13096:13105   */\n      dup4\n        /* \"#utility.yul\":13092:13109   */\n      add\n        /* \"#utility.yul\":13085:13132   */\n      mstore\n        /* \"#utility.yul\":13149:13280   */\n      tag_348\n        /* \"#utility.yul\":13275:13279   */\n      dup2\n        /* \"#utility.yul\":13149:13280   */\n      tag_304\n      jump\t// in\n    tag_348:\n        /* \"#utility.yul\":13141:13280   */\n      swap1\n      pop\n        /* \"#utility.yul\":13039:13287   */\n      swap2\n      swap1\n      pop\n      jump\t// out\n        /* \"#utility.yul\":13293:13712   */\n    tag_160:\n      0x00\n        /* \"#utility.yul\":13497:13499   */\n      0x20\n        /* \"#utility.yul\":13486:13495   */\n      dup3\n        /* \"#utility.yul\":13482:13500   */\n      add\n        /* \"#utility.yul\":13474:13500   */\n      swap1\n      pop\n        /* \"#utility.yul\":13546:13555   */\n      dup2\n        /* \"#utility.yul\":13540:13544   */\n      dup2\n        /* \"#utility.yul\":13536:13556   */\n      sub\n        /* \"#utility.yul\":13532:13533   */\n      0x00\n        /* \"#utility.yul\":13521:13530   */\n      dup4\n        /* \"#utility.yul\":13517:13534   */\n      add\n        /* \"#utility.yul\":13510:13557   */\n      mstore\n        /* \"#utility.yul\":13574:13705   */\n      tag_350\n        /* \"#utility.yul\":13700:13704   */\n      dup2\n        /* \"#utility.yul\":13574:13705   */\n      tag_307\n      jump\t// in\n    tag_350:\n        /* \"#utility.yul\":13566:13705   */\n      swap1\n      pop\n        /* \"#utility.yul\":13464:13712   */\n      swap2\n      swap1\n      pop\n      jump\t// out\n        /* \"#utility.yul\":13718:14137   */\n    tag_208:\n      0x00\n        /* \"#utility.yul\":13922:13924   */\n      0x20\n        /* \"#utility.yul\":13911:13920   */\n      dup3\n        /* \"#utility.yul\":13907:13925   */\n      add\n        /* \"#utility.yul\":13899:13925   */\n      swap1\n      pop\n        /* \"#utility.yul\":13971:13980   */\n      dup2\n        /* \"#utility.yul\":13965:13969   */\n      dup2\n        /* \"#utility.yul\":13961:13981   */\n      sub\n        /* \"#utility.yul\":13957:13958   */\n      0x00\n        /* \"#utility.yul\":13946:13955   */\n      dup4\n        /* \"#utility.yul\":13942:13959   */\n      add\n        /* \"#utility.yul\":13935:13982   */\n      mstore\n        /* \"#utility.yul\":13999:14130   */\n      tag_352\n        /* \"#utility.yul\":14125:14129   */\n      dup2\n        /* \"#utility.yul\":13999:14130   */\n      tag_310\n      jump\t// in\n    tag_352:\n        /* \"#utility.yul\":13991:14130   */\n      swap1\n      pop\n        /* \"#utility.yul\":13889:14137   */\n      swap2\n      swap1\n      pop\n      jump\t// out\n        /* \"#utility.yul\":14143:14365   */\n    tag_37:\n      0x00\n        /* \"#utility.yul\":14274:14276   */\n      0x20\n        /* \"#utility.yul\":14263:14272   */\n      dup3\n        /* \"#utility.yul\":14259:14277   */\n      add\n        /* \"#utility.yul\":14251:14277   */\n      swap1\n      pop\n        /* \"#utility.yul\":14287:14358   */\n      tag_354\n        /* \"#utility.yul\":14355:14356   */\n      0x00\n        /* \"#utility.yul\":14344:14353   */\n      dup4\n        /* \"#utility.yul\":14340:14357   */\n      add\n        /* \"#utility.yul\":14331:14337   */\n      dup5\n        /* \"#utility.yul\":14287:14358   */\n      tag_313\n      jump\t// in\n    tag_354:\n        /* \"#utility.yul\":14241:14365   */\n      swap3\n      swap2\n      pop\n      pop\n      jump\t// out\n        /* \"#utility.yul\":14371:14585   */\n    tag_50:\n      0x00\n        /* \"#utility.yul\":14498:14500   */\n      0x20\n        /* \"#utility.yul\":14487:14496   */\n      dup3\n        /* \"#utility.yul\":14483:14501   */\n      add\n        /* \"#utility.yul\":14475:14501   */\n      swap1\n      pop\n        /* \"#utility.yul\":14511:14578   */\n      tag_356\n        /* \"#utility.yul\":14575:14576   */\n      0x00\n        /* \"#utility.yul\":14564:14573   */\n      dup4\n        /* \"#utility.yul\":14560:14577   */\n      add\n        /* \"#utility.yul\":14551:14557   */\n      dup5\n        /* \"#utility.yul\":14511:14578   */\n      tag_317\n      jump\t// in\n    tag_356:\n        /* \"#utility.yul\":14465:14585   */\n      swap3\n      swap2\n      pop\n      pop\n      jump\t// out\n        /* \"#utility.yul\":14591:14690   */\n    tag_267:\n      0x00\n        /* \"#utility.yul\":14677:14682   */\n      dup2\n        /* \"#utility.yul\":14671:14683   */\n      mload\n        /* \"#utility.yul\":14661:14683   */\n      swap1\n      pop\n        /* \"#utility.yul\":14650:14690   */\n      swap2\n      swap1\n      pop\n      jump\t// out\n        /* \"#utility.yul\":14696:14865   */\n    tag_269:\n      0x00\n        /* \"#utility.yul\":14814:14820   */\n      dup3\n        /* \"#utility.yul\":14809:14812   */\n      dup3\n        /* \"#utility.yul\":14802:14821   */\n      mstore\n        /* \"#utility.yul\":14854:14858   */\n      0x20\n        /* \"#utility.yul\":14849:14852   */\n      dup3\n        /* \"#utility.yul\":14845:14859   */\n      add\n        /* \"#utility.yul\":14830:14859   */\n      swap1\n      pop\n        /* \"#utility.yul\":14792:14865   */\n      swap3\n      swap2\n      pop\n      pop\n      jump\t// out\n        /* \"#utility.yul\":14871:15176   */\n    tag_128:\n      0x00\n        /* \"#utility.yul\":14930:14950   */\n      tag_360\n        /* \"#utility.yul\":14948:14949   */\n      dup3\n        /* \"#utility.yul\":14930:14950   */\n      tag_316\n      jump\t// in\n    tag_360:\n        /* \"#utility.yul\":14925:14950   */\n      swap2\n      pop\n        /* \"#utility.yul\":14964:14984   */\n      tag_361\n        /* \"#utility.yul\":14982:14983   */\n      dup4\n        /* \"#utility.yul\":14964:14984   */\n      tag_316\n      jump\t// in\n    tag_361:\n        /* \"#utility.yul\":14959:14984   */\n      swap3\n      pop\n        /* \"#utility.yul\":15118:15119   */\n      dup3\n        /* \"#utility.yul\":15050:15116   */\n      0xffffffffffffffffffffffffffffffffffffffffffffffffffffffffffffffff\n        /* \"#utility.yul\":15046:15120   */\n      sub\n        /* \"#utility.yul\":15043:15044   */\n      dup3\n        /* \"#utility.yul\":15040:15121   */\n      gt\n        /* \"#utility.yul\":15037:15039   */\n      iszero\n      tag_362\n      jumpi\n        /* \"#utility.yul\":15124:15142   */\n      tag_363\n      tag_364\n      jump\t// in\n    tag_363:\n        /* \"#utility.yul\":15037:15039   */\n    tag_362:\n        /* \"#utility.yul\":15168:15169   */\n      dup3\n        /* \"#utility.yul\":15165:15166   */\n      dup3\n        /* \"#utility.yul\":15161:15170   */\n      add\n        /* \"#utility.yul\":15154:15170   */\n      swap1\n      pop\n        /* \"#utility.yul\":14915:15176   */\n      swap3\n      swap2\n      pop\n      pop\n      jump\t// out\n        /* \"#utility.yul\":15182:15373   */\n    tag_223:\n      0x00\n        /* \"#utility.yul\":15242:15262   */\n      tag_366\n        /* \"#utility.yul\":15260:15261   */\n      dup3\n        /* \"#utility.yul\":15242:15262   */\n      tag_316\n      jump\t// in\n    tag_366:\n        /* \"#utility.yul\":15237:15262   */\n      swap2\n      pop\n        /* \"#utility.yul\":15276:15296   */\n      tag_367\n        /* \"#utility.yul\":15294:15295   */\n      dup4\n        /* \"#utility.yul\":15276:15296   */\n      tag_316\n      jump\t// in\n    tag_367:\n        /* \"#utility.yul\":15271:15296   */\n      swap3\n      pop\n        /* \"#utility.yul\":15315:15316   */\n      dup3\n        /* \"#utility.yul\":15312:15313   */\n      dup3\n        /* \"#utility.yul\":15309:15317   */\n      lt\n        /* \"#utility.yul\":15306:15308   */\n      iszero\n      tag_368\n      jumpi\n        /* \"#utility.yul\":15320:15338   */\n      tag_369\n      tag_364\n      jump\t// in\n    tag_369:\n        /* \"#utility.yul\":15306:15308   */\n    tag_368:\n        /* \"#utility.yul\":15365:15366   */\n      dup3\n        /* \"#utility.yul\":15362:15363   */\n      dup3\n        /* \"#utility.yul\":15358:15367   */\n      sub\n        /* \"#utility.yul\":15350:15367   */\n      swap1\n      pop\n        /* \"#utility.yul\":15227:15373   */\n      swap3\n      swap2\n      pop\n      pop\n      jump\t// out\n        /* \"#utility.yul\":15379:15475   */\n    tag_259:\n      0x00\n        /* \"#utility.yul\":15445:15469   */\n      tag_371\n        /* \"#utility.yul\":15463:15468   */\n      dup3\n        /* \"#utility.yul\":15445:15469   */\n      tag_372\n      jump\t// in\n    tag_371:\n        /* \"#utility.yul\":15434:15469   */\n      swap1\n      pop\n        /* \"#utility.yul\":15424:15475   */\n      swap2\n      swap1\n      pop\n      jump\t// out\n        /* \"#utility.yul\":15481:15571   */\n    tag_263:\n      0x00\n        /* \"#utility.yul\":15558:15563   */\n      dup2\n        /* \"#utility.yul\":15551:15564   */\n      iszero\n        /* \"#utility.yul\":15544:15565   */\n      iszero\n        /* \"#utility.yul\":15533:15565   */\n      swap1\n      pop\n        /* \"#utility.yul\":15523:15571   */\n      swap2\n      swap1\n      pop\n      jump\t// out\n        /* \"#utility.yul\":15577:15703   */\n    tag_372:\n      0x00\n        /* \"#utility.yul\":15654:15696   */\n      0xffffffffffffffffffffffffffffffffffffffff\n        /* \"#utility.yul\":15647:15652   */\n      dup3\n        /* \"#utility.yul\":15643:15697   */\n      and\n        /* \"#utility.yul\":15632:15697   */\n      swap1\n      pop\n        /* \"#utility.yul\":15622:15703   */\n      swap2\n      swap1\n      pop\n      jump\t// out\n        /* \"#utility.yul\":15709:15786   */\n    tag_316:\n      0x00\n        /* \"#utility.yul\":15775:15780   */\n      dup2\n        /* \"#utility.yul\":15764:15780   */\n      swap1\n      pop\n        /* \"#utility.yul\":15754:15786   */\n      swap2\n      swap1\n      pop\n      jump\t// out\n        /* \"#utility.yul\":15792:15878   */\n    tag_320:\n      0x00\n        /* \"#utility.yul\":15867:15871   */\n      0xff\n        /* \"#utility.yul\":15860:15865   */\n      dup3\n        /* \"#utility.yul\":15856:15872   */\n      and\n        /* \"#utility.yul\":15845:15872   */\n      swap1\n      pop\n        /* \"#utility.yul\":15835:15878   */\n      swap2\n      swap1\n      pop\n      jump\t// out\n        /* \"#utility.yul\":15884:16191   */\n    tag_271:\n        /* \"#utility.yul\":15952:15953   */\n      0x00\n        /* \"#utility.yul\":15962:16075   */\n    tag_378:\n        /* \"#utility.yul\":15976:15982   */\n      dup4\n        /* \"#utility.yul\":15973:15974   */\n      dup2\n        /* \"#utility.yul\":15970:15983   */\n      lt\n        /* \"#utility.yul\":15962:16075   */\n      iszero\n      tag_380\n      jumpi\n        /* \"#utility.yul\":16061:16062   */\n      dup1\n        /* \"#utility.yul\":16056:16059   */\n      dup3\n        /* \"#utility.yul\":16052:16063   */\n      add\n        /* \"#utility.yul\":16046:16064   */\n      mload\n        /* \"#utility.yul\":16042:16043   */\n      dup2\n        /* \"#utility.yul\":16037:16040   */\n      dup5\n        /* \"#utility.yul\":16033:16044   */\n      add\n        /* \"#utility.yul\":16026:16065   */\n      mstore\n        /* \"#utility.yul\":15998:16000   */\n      0x20\n        /* \"#utility.yul\":15995:15996   */\n      dup2\n        /* \"#utility.yul\":15991:16001   */\n      add\n        /* \"#utility.yul\":15986:16001   */\n      swap1\n      pop\n        /* \"#utility.yul\":15962:16075   */\n      jump(tag_378)\n    tag_380:\n        /* \"#utility.yul\":16093:16099   */\n      dup4\n        /* \"#utility.yul\":16090:16091   */\n      dup2\n        /* \"#utility.yul\":16087:16100   */\n      gt\n        /* \"#utility.yul\":16084:16086   */\n      iszero\n      tag_381\n      jumpi\n        /* \"#utility.yul\":16173:16174   */\n      0x00\n        /* \"#utility.yul\":16164:16170   */\n      dup5\n        /* \"#utility.yul\":16159:16162   */\n      dup5\n        /* \"#utility.yul\":16155:16171   */\n      add\n        /* \"#utility.yul\":16148:16175   */\n      mstore\n        /* \"#utility.yul\":16084:16086   */\n    tag_381:\n        /* \"#utility.yul\":15933:16191   */\n      pop\n      pop\n      pop\n      pop\n      jump\t// out\n        /* \"#utility.yul\":16197:16517   */\n    tag_96:\n      0x00\n        /* \"#utility.yul\":16278:16279   */\n      0x02\n        /* \"#utility.yul\":16272:16276   */\n      dup3\n        /* \"#utility.yul\":16268:16280   */\n      div\n        /* \"#utility.yul\":16258:16280   */\n      swap1\n      pop\n        /* \"#utility.yul\":16325:16326   */\n      0x01\n        /* \"#utility.yul\":16319:16323   */\n      dup3\n        /* \"#utility.yul\":16315:16327   */\n      and\n        /* \"#utility.yul\":16346:16364   */\n      dup1\n        /* \"#utility.yul\":16336:16338   */\n      tag_383\n      jumpi\n        /* \"#utility.yul\":16402:16406   */\n      0x7f\n        /* \"#utility.yul\":16394:16400   */\n      dup3\n        /* \"#utility.yul\":16390:16407   */\n      and\n        /* \"#utility.yul\":16380:16407   */\n      swap2\n      pop\n        /* \"#utility.yul\":16336:16338   */\n    tag_383:\n        /* \"#utility.yul\":16464:16466   */\n      0x20\n        /* \"#utility.yul\":16456:16462   */\n      dup3\n        /* \"#utility.yul\":16453:16467   */\n      lt\n        /* \"#utility.yul\":16433:16451   */\n      dup2\n        /* \"#utility.yul\":16430:16468   */\n      eq\n        /* \"#utility.yul\":16427:16429   */\n      iszero\n      tag_384\n      jumpi\n        /* \"#utility.yul\":16483:16501   */\n      tag_385\n      tag_386\n      jump\t// in\n    tag_385:\n        /* \"#utility.yul\":16427:16429   */\n    tag_384:\n        /* \"#utility.yul\":16248:16517   */\n      pop\n      swap2\n      swap1\n      pop\n      jump\t// out\n        /* \"#utility.yul\":16523:16703   */\n    tag_364:\n        /* \"#utility.yul\":16571:16648   */\n      0x4e487b7100000000000000000000000000000000000000000000000000000000\n        /* \"#utility.yul\":16568:16569   */\n      0x00\n        /* \"#utility.yul\":16561:16649   */\n      mstore\n        /* \"#utility.yul\":16668:16672   */\n      0x11\n        /* \"#utility.yul\":16665:16666   */\n      0x04\n        /* \"#utility.yul\":16658:16673   */\n      mstore\n        /* \"#utility.yul\":16692:16696   */\n      0x24\n        /* \"#utility.yul\":16689:16690   */\n      0x00\n        /* \"#utility.yul\":16682:16697   */\n      revert\n        /* \"#utility.yul\":16709:16889   */\n    tag_386:\n        /* \"#utility.yul\":16757:16834   */\n      0x4e487b7100000000000000000000000000000000000000000000000000000000\n        /* \"#utility.yul\":16754:16755   */\n      0x00\n        /* \"#utility.yul\":16747:16835   */\n      mstore\n        /* \"#utility.yul\":16854:16858   */\n      0x22\n        /* \"#utility.yul\":16851:16852   */\n      0x04\n        /* \"#utility.yul\":16844:16859   */\n      mstore\n        /* \"#utility.yul\":16878:16882   */\n      0x24\n        /* \"#utility.yul\":16875:16876   */\n      0x00\n        /* \"#utility.yul\":16868:16883   */\n      revert\n        /* \"#utility.yul\":16895:16997   */\n    tag_273:\n      0x00\n        /* \"#utility.yul\":16987:16989   */\n      0x1f\n        /* \"#utility.yul\":16983:16990   */\n      not\n        /* \"#utility.yul\":16978:16980   */\n      0x1f\n        /* \"#utility.yul\":16971:16976   */\n      dup4\n        /* \"#utility.yul\":16967:16981   */\n      add\n        /* \"#utility.yul\":16963:16991   */\n      and\n        /* \"#utility.yul\":16953:16991   */\n      swap1\n      pop\n        /* \"#utility.yul\":16943:16997   */\n      swap2\n      swap1\n      pop\n      jump\t// out\n        /* \"#utility.yul\":17003:17125   */\n    tag_232:\n        /* \"#utility.yul\":17076:17100   */\n      tag_391\n        /* \"#utility.yul\":17094:17099   */\n      dup2\n        /* \"#utility.yul\":17076:17100   */\n      tag_259\n      jump\t// in\n    tag_391:\n        /* \"#utility.yul\":17069:17074   */\n      dup2\n        /* \"#utility.yul\":17066:17101   */\n      eq\n        /* \"#utility.yul\":17056:17058   */\n      tag_392\n      jumpi\n        /* \"#utility.yul\":17115:17116   */\n      0x00\n        /* \"#utility.yul\":17112:17113   */\n      dup1\n        /* \"#utility.yul\":17105:17117   */\n      revert\n        /* \"#utility.yul\":17056:17058   */\n    tag_392:\n        /* \"#utility.yul\":17046:17125   */\n      pop\n      jump\t// out\n        /* \"#utility.yul\":17131:17253   */\n    tag_236:\n        /* \"#utility.yul\":17204:17228   */\n      tag_394\n        /* \"#utility.yul\":17222:17227   */\n      dup2\n        /* \"#utility.yul\":17204:17228   */\n      tag_316\n      jump\t// in\n    tag_394:\n        /* \"#utility.yul\":17197:17202   */\n      dup2\n        /* \"#utility.yul\":17194:17229   */\n      eq\n        /* \"#utility.yul\":17184:17186   */\n      tag_395\n      jumpi\n        /* \"#utility.yul\":17243:17244   */\n      0x00\n        /* \"#utility.yul\":17240:17241   */\n      dup1\n        /* \"#utility.yul\":17233:17245   */\n      revert\n        /* \"#utility.yul\":17184:17186   */\n    tag_395:\n        /* \"#utility.yul\":17174:17253   */\n      pop\n      jump\t// out\n\n    auxdata: 0xa2646970667358221220dd94dcb6acfe5b8cc3d368b97026dc056f6c12cf80866c4f9240e7667559b90864736f6c63430008000033\n}\n",
				"bytecode": {
					"linkReferences": {},
					"object": "60806040523480156200001157600080fd5b50604051620025c3380380620025c3833981810160405281019062000037919062000250565b81818160039080519060200190620000519291906200012e565b5080600490805190602001906200006a9291906200012e565b50505060006200007f6200012660201b60201c565b905080600560006101000a81548173ffffffffffffffffffffffffffffffffffffffff021916908373ffffffffffffffffffffffffffffffffffffffff1602179055508073ffffffffffffffffffffffffffffffffffffffff16600073ffffffffffffffffffffffffffffffffffffffff167f8be0079c531659141344cd1fd0a4f28419497f9722a3daafe3b4186f6b6457e060405160405180910390a3505050620003f4565b600033905090565b8280546200013c9062000360565b90600052602060002090601f016020900481019282620001605760008555620001ac565b82601f106200017b57805160ff1916838001178555620001ac565b82800160010185558215620001ac579182015b82811115620001ab5782518255916020019190600101906200018e565b5b509050620001bb9190620001bf565b5090565b5b80821115620001da576000816000905550600101620001c0565b5090565b6000620001f5620001ef84620002f7565b620002c3565b9050828152602081018484840111156200020e57600080fd5b6200021b8482856200032a565b509392505050565b600082601f8301126200023557600080fd5b815162000247848260208601620001de565b91505092915050565b600080604083850312156200026457600080fd5b600083015167ffffffffffffffff8111156200027f57600080fd5b6200028d8582860162000223565b925050602083015167ffffffffffffffff811115620002ab57600080fd5b620002b98582860162000223565b9150509250929050565b6000604051905081810181811067ffffffffffffffff82111715620002ed57620002ec620003c5565b5b8060405250919050565b600067ffffffffffffffff821115620003155762000314620003c5565b5b601f19601f8301169050602081019050919050565b60005b838110156200034a5780820151818401526020810190506200032d565b838111156200035a576000848401525b50505050565b600060028204905060018216806200037957607f821691505b6020821081141562000390576200038f62000396565b5b50919050565b7f4e487b7100000000000000000000000000000000000000000000000000000000600052602260045260246000fd5b7f4e487b7100000000000000000000000000000000000000000000000000000000600052604160045260246000fd5b6121bf80620004046000396000f3fe608060405234801561001057600080fd5b50600436106101165760003560e01c806370a08231116100a2578063a457c2d711610071578063a457c2d7146102cf578063a9059cbb146102ff578063ac18de431461032f578063dd62ed3e1461034b578063f2fde38b1461037b57610116565b806370a0823114610259578063715018a6146102895780638da5cb5b1461029357806395d89b41146102b157610116565b80632d06177a116100e95780632d06177a146101b7578063313ce567146101d357806339509351146101f157806340c10f191461022157806342966c681461023d57610116565b806306fdde031461011b578063095ea7b31461013957806318160ddd1461016957806323b872dd14610187575b600080fd5b610123610397565b6040516101309190611d94565b60405180910390f35b610153600480360381019061014e91906117a2565b610429565b6040516101609190611d79565b60405180910390f35b610171610447565b60405161017e9190611f56565b60405180910390f35b6101a1600480360381019061019c9190611753565b610451565b6040516101ae9190611d79565b60405180910390f35b6101d160048036038101906101cc91906116ee565b610549565b005b6101db61067e565b6040516101e89190611f71565b60405180910390f35b61020b600480360381019061020691906117a2565b610687565b6040516102189190611d79565b60405180910390f35b61023b600480360381019061023691906117a2565b610733565b005b610257600480360381019061025291906117de565b610833565b005b610273600480360381019061026e91906116ee565b610847565b6040516102809190611f56565b60405180910390f35b61029161088f565b005b61029b6109e7565b6040516102a89190611d5e565b60405180910390f35b6102b9610a11565b6040516102c69190611d94565b60405180910390f35b6102e960048036038101906102e491906117a2565b610aa3565b6040516102f69190611d79565b60405180910390f35b610319600480360381019061031491906117a2565b610b8e565b6040516103269190611d79565b60405180910390f35b610349600480360381019061034491906116ee565b610bac565b005b61036560048036038101906103609190611717565b610ce1565b6040516103729190611f56565b60405180910390f35b610395600480360381019061039091906116ee565b610d68565b005b6060600380546103a6906120ba565b80601f01602080910402602001604051908101604052809291908181526020018280546103d2906120ba565b801561041f5780601f106103f45761010080835404028352916020019161041f565b820191906000526020600020905b81548152906001019060200180831161040257829003601f168201915b5050505050905090565b600061043d610436610f2f565b8484610f37565b6001905092915050565b6000600254905090565b600061045e848484611102565b6000600160008673ffffffffffffffffffffffffffffffffffffffff1673ffffffffffffffffffffffffffffffffffffffff16815260200190815260200160002060006104a9610f2f565b73ffffffffffffffffffffffffffffffffffffffff1673ffffffffffffffffffffffffffffffffffffffff16815260200190815260200160002054905082811015610529576040517f08c379a000000000000000000000000000000000000000000000000000000000815260040161052090611e76565b60405180910390fd5b61053d85610535610f2f565b858403610f37565b60019150509392505050565b610551610f2f565b73ffffffffffffffffffffffffffffffffffffffff16600560009054906101000a900473ffffffffffffffffffffffffffffffffffffffff1673ffffffffffffffffffffffffffffffffffffffff16146105e0576040517f08c379a00000000000000000000000000000000000000000000000000000000081526004016105d790611e96565b60405180910390fd5b6001600660008373ffffffffffffffffffffffffffffffffffffffff1673ffffffffffffffffffffffffffffffffffffffff16815260200190815260200160002060006101000a81548160ff0219169083151502179055508073ffffffffffffffffffffffffffffffffffffffff167f3630096a7f9a158ab9fae41e86bfe31fd2202585a26a9668242672566dae028d60405160405180910390a250565b60006012905090565b6000610729610694610f2f565b8484600160006106a2610f2f565b73ffffffffffffffffffffffffffffffffffffffff1673ffffffffffffffffffffffffffffffffffffffff16815260200190815260200160002060008873ffffffffffffffffffffffffffffffffffffffff1673ffffffffffffffffffffffffffffffffffffffff168152602001908152602001600020546107249190611fa8565b610f37565b6001905092915050565b61073b610f2f565b73ffffffffffffffffffffffffffffffffffffffff16600560009054906101000a900473ffffffffffffffffffffffffffffffffffffffff1673ffffffffffffffffffffffffffffffffffffffff1614806107e657506006600061079d610f2f565b73ffffffffffffffffffffffffffffffffffffffff1673ffffffffffffffffffffffffffffffffffffffff16815260200190815260200160002060009054906101000a900460ff165b610825576040517f08c379a000000000000000000000000000000000000000000000000000000000815260040161081c90611e56565b60405180910390fd5b61082f8282611383565b5050565b61084461083e610f2f565b826114e3565b50565b60008060008373ffffffffffffffffffffffffffffffffffffffff1673ffffffffffffffffffffffffffffffffffffffff168152602001908152602001600020549050919050565b610897610f2f565b73ffffffffffffffffffffffffffffffffffffffff16600560009054906101000a900473ffffffffffffffffffffffffffffffffffffffff1673ffffffffffffffffffffffffffffffffffffffff1614610926576040517f08c379a000000000000000000000000000000000000000000000000000000000815260040161091d90611e96565b60405180910390fd5b600073ffffffffffffffffffffffffffffffffffffffff16600560009054906101000a900473ffffffffffffffffffffffffffffffffffffffff1673ffffffffffffffffffffffffffffffffffffffff167f8be0079c531659141344cd1fd0a4f28419497f9722a3daafe3b4186f6b6457e060405160405180910390a36000600560006101000a81548173ffffffffffffffffffffffffffffffffffffffff021916908373ffffffffffffffffffffffffffffffffffffffff160217905550565b6000600560009054906101000a900473ffffffffffffffffffffffffffffffffffffffff16905090565b606060048054610a20906120ba565b80601f0160208091040260200160405190810160405280929190818152602001828054610a4c906120ba565b8015610a995780601f10610a6e57610100808354040283529160200191610a99565b820191906000526020600020905b815481529060010190602001808311610a7c57829003601f168201915b5050505050905090565b60008060016000610ab2610f2f565b73ffffffffffffffffffffffffffffffffffffffff1673ffffffffffffffffffffffffffffffffffffffff16815260200190815260200160002060008573ffffffffffffffffffffffffffffffffffffffff1673ffffffffffffffffffffffffffffffffffffffff16815260200190815260200160002054905082811015610b6f576040517f08c379a0000000000000000000000000000000000000000000000000000000008152600401610b6690611f16565b60405180910390fd5b610b83610b7a610f2f565b85858403610f37565b600191505092915050565b6000610ba2610b9b610f2f565b8484611102565b6001905092915050565b610bb4610f2f565b73ffffffffffffffffffffffffffffffffffffffff16600560009054906101000a900473ffffffffffffffffffffffffffffffffffffffff1673ffffffffffffffffffffffffffffffffffffffff1614610c43576040517f08c379a0000000000000000000000000000000000000000000000000000000008152600401610c3a90611e96565b60405180910390fd5b6000600660008373ffffffffffffffffffffffffffffffffffffffff1673ffffffffffffffffffffffffffffffffffffffff16815260200190815260200160002060006101000a81548160ff0219169083151502179055508073ffffffffffffffffffffffffffffffffffffffff167f1e25ed4cabec84d314dc176241019653f237da01f2bdd3a10cb0f38b33da676360405160405180910390a250565b6000600160008473ffffffffffffffffffffffffffffffffffffffff1673ffffffffffffffffffffffffffffffffffffffff16815260200190815260200160002060008373ffffffffffffffffffffffffffffffffffffffff1673ffffffffffffffffffffffffffffffffffffffff16815260200190815260200160002054905092915050565b610d70610f2f565b73ffffffffffffffffffffffffffffffffffffffff16600560009054906101000a900473ffffffffffffffffffffffffffffffffffffffff1673ffffffffffffffffffffffffffffffffffffffff1614610dff576040517f08c379a0000000000000000000000000000000000000000000000000000000008152600401610df690611e96565b60405180910390fd5b600073ffffffffffffffffffffffffffffffffffffffff168173ffffffffffffffffffffffffffffffffffffffff161415610e6f576040517f08c379a0000000000000000000000000000000000000000000000000000000008152600401610e6690611df6565b60405180910390fd5b8073ffffffffffffffffffffffffffffffffffffffff16600560009054906101000a900473ffffffffffffffffffffffffffffffffffffffff1673ffffffffffffffffffffffffffffffffffffffff167f8be0079c531659141344cd1fd0a4f28419497f9722a3daafe3b4186f6b6457e060405160405180910390a380600560006101000a81548173ffffffffffffffffffffffffffffffffffffffff021916908373ffffffffffffffffffffffffffffffffffffffff16021790555050565b600033905090565b600073ffffffffffffffffffffffffffffffffffffffff168373ffffffffffffffffffffffffffffffffffffffff161415610fa7576040517f08c379a0000000000000000000000000000000000000000000000000000000008152600401610f9e90611ef6565b60405180910390fd5b600073ffffffffffffffffffffffffffffffffffffffff168273ffffffffffffffffffffffffffffffffffffffff161415611017576040517f08c379a000000000000000000000000000000000000000000000000000000000815260040161100e90611e16565b60405180910390fd5b80600160008573ffffffffffffffffffffffffffffffffffffffff1673ffffffffffffffffffffffffffffffffffffffff16815260200190815260200160002060008473ffffffffffffffffffffffffffffffffffffffff1673ffffffffffffffffffffffffffffffffffffffff168152602001908152602001600020819055508173ffffffffffffffffffffffffffffffffffffffff168373ffffffffffffffffffffffffffffffffffffffff167f8c5be1e5ebec7d5bd14f71427d1e84f3dd0314c0f7b2291e5b200ac8c7c3b925836040516110f59190611f56565b60405180910390a3505050565b600073ffffffffffffffffffffffffffffffffffffffff168373ffffffffffffffffffffffffffffffffffffffff161415611172576040517f08c379a000000000000000000000000000000000000000000000000000000000815260040161116990611ed6565b60405180910390fd5b600073ffffffffffffffffffffffffffffffffffffffff168273ffffffffffffffffffffffffffffffffffffffff1614156111e2576040517f08c379a00000000000000000000000000000000000000000000000000000000081526004016111d990611db6565b60405180910390fd5b6111ed8383836116ba565b60008060008573ffffffffffffffffffffffffffffffffffffffff1673ffffffffffffffffffffffffffffffffffffffff16815260200190815260200160002054905081811015611273576040517f08c379a000000000000000000000000000000000000000000000000000000000815260040161126a90611e36565b60405180910390fd5b8181036000808673ffffffffffffffffffffffffffffffffffffffff1673ffffffffffffffffffffffffffffffffffffffff16815260200190815260200160002081905550816000808573ffffffffffffffffffffffffffffffffffffffff1673ffffffffffffffffffffffffffffffffffffffff16815260200190815260200160002060008282546113069190611fa8565b925050819055508273ffffffffffffffffffffffffffffffffffffffff168473ffffffffffffffffffffffffffffffffffffffff167fddf252ad1be2c89b69c2b068fc378daa952ba7f163c4a11628f55a4df523b3ef8460405161136a9190611f56565b60405180910390a361137d8484846116bf565b50505050565b600073ffffffffffffffffffffffffffffffffffffffff168273ffffffffffffffffffffffffffffffffffffffff1614156113f3576040517f08c379a00000000000000000000000000000000000000000000000000000000081526004016113ea90611f36565b60405180910390fd5b6113ff600083836116ba565b80600260008282546114119190611fa8565b92505081905550806000808473ffffffffffffffffffffffffffffffffffffffff1673ffffffffffffffffffffffffffffffffffffffff16815260200190815260200160002060008282546114669190611fa8565b925050819055508173ffffffffffffffffffffffffffffffffffffffff16600073ffffffffffffffffffffffffffffffffffffffff167fddf252ad1be2c89b69c2b068fc378daa952ba7f163c4a11628f55a4df523b3ef836040516114cb9190611f56565b60405180910390a36114df600083836116bf565b5050565b600073ffffffffffffffffffffffffffffffffffffffff168273ffffffffffffffffffffffffffffffffffffffff161415611553576040517f08c379a000000000000000000000000000000000000000000000000000000000815260040161154a90611eb6565b60405180910390fd5b61155f826000836116ba565b60008060008473ffffffffffffffffffffffffffffffffffffffff1673ffffffffffffffffffffffffffffffffffffffff168152602001908152602001600020549050818110156115e5576040517f08c379a00000000000000000000000000000000000000000000000000000000081526004016115dc90611dd6565b60405180910390fd5b8181036000808573ffffffffffffffffffffffffffffffffffffffff1673ffffffffffffffffffffffffffffffffffffffff16815260200190815260200160002081905550816002600082825461163c9190611ffe565b92505081905550600073ffffffffffffffffffffffffffffffffffffffff168373ffffffffffffffffffffffffffffffffffffffff167fddf252ad1be2c89b69c2b068fc378daa952ba7f163c4a11628f55a4df523b3ef846040516116a19190611f56565b60405180910390a36116b5836000846116bf565b505050565b505050565b505050565b6000813590506116d38161215b565b92915050565b6000813590506116e881612172565b92915050565b60006020828403121561170057600080fd5b600061170e848285016116c4565b91505092915050565b6000806040838503121561172a57600080fd5b6000611738858286016116c4565b9250506020611749858286016116c4565b9150509250929050565b60008060006060848603121561176857600080fd5b6000611776868287016116c4565b9350506020611787868287016116c4565b9250506040611798868287016116d9565b9150509250925092565b600080604083850312156117b557600080fd5b60006117c3858286016116c4565b92505060206117d4858286016116d9565b9150509250929050565b6000602082840312156117f057600080fd5b60006117fe848285016116d9565b91505092915050565b61181081612032565b82525050565b61181f81612044565b82525050565b600061183082611f8c565b61183a8185611f97565b935061184a818560208601612087565b6118538161214a565b840191505092915050565b600061186b602383611f97565b91507f45524332303a207472616e7366657220746f20746865207a65726f206164647260008301527f65737300000000000000000000000000000000000000000000000000000000006020830152604082019050919050565b60006118d1602283611f97565b91507f45524332303a206275726e20616d6f756e7420657863656564732062616c616e60008301527f63650000000000000000000000000000000000000000000000000000000000006020830152604082019050919050565b6000611937602683611f97565b91507f4f776e61626c653a206e6577206f776e657220697320746865207a65726f206160008301527f64647265737300000000000000000000000000000000000000000000000000006020830152604082019050919050565b600061199d602283611f97565b91507f45524332303a20617070726f766520746f20746865207a65726f20616464726560008301527f73730000000000000000000000000000000000000000000000000000000000006020830152604082019050919050565b6000611a03602683611f97565b91507f45524332303a207472616e7366657220616d6f756e742065786365656473206260008301527f616c616e636500000000000000000000000000000000000000000000000000006020830152604082019050919050565b6000611a69602483611f97565b91507f4f776e61626c653a2063616c6c6572206973206e6f74206f776e65722f6d616e60008301527f61676572000000000000000000000000000000000000000000000000000000006020830152604082019050919050565b6000611acf602883611f97565b91507f45524332303a207472616e7366657220616d6f756e742065786365656473206160008301527f6c6c6f77616e63650000000000000000000000000000000000000000000000006020830152604082019050919050565b6000611b35602083611f97565b91507f4f776e61626c653a2063616c6c6572206973206e6f7420746865206f776e65726000830152602082019050919050565b6000611b75602183611f97565b91507f45524332303a206275726e2066726f6d20746865207a65726f2061646472657360008301527f73000000000000000000000000000000000000000000000000000000000000006020830152604082019050919050565b6000611bdb602583611f97565b91507f45524332303a207472616e736665722066726f6d20746865207a65726f20616460008301527f64726573730000000000000000000000000000000000000000000000000000006020830152604082019050919050565b6000611c41602483611f97565b91507f45524332303a20617070726f76652066726f6d20746865207a65726f2061646460008301527f72657373000000000000000000000000000000000000000000000000000000006020830152604082019050919050565b6000611ca7602583611f97565b91507f45524332303a2064656372656173656420616c6c6f77616e63652062656c6f7760008301527f207a65726f0000000000000000000000000000000000000000000000000000006020830152604082019050919050565b6000611d0d601f83611f97565b91507f45524332303a206d696e7420746f20746865207a65726f2061646472657373006000830152602082019050919050565b611d4981612070565b82525050565b611d588161207a565b82525050565b6000602082019050611d736000830184611807565b92915050565b6000602082019050611d8e6000830184611816565b92915050565b60006020820190508181036000830152611dae8184611825565b905092915050565b60006020820190508181036000830152611dcf8161185e565b9050919050565b60006020820190508181036000830152611def816118c4565b9050919050565b60006020820190508181036000830152611e0f8161192a565b9050919050565b60006020820190508181036000830152611e2f81611990565b9050919050565b60006020820190508181036000830152611e4f816119f6565b9050919050565b60006020820190508181036000830152611e6f81611a5c565b9050919050565b60006020820190508181036000830152611e8f81611ac2565b9050919050565b60006020820190508181036000830152611eaf81611b28565b9050919050565b60006020820190508181036000830152611ecf81611b68565b9050919050565b60006020820190508181036000830152611eef81611bce565b9050919050565b60006020820190508181036000830152611f0f81611c34565b9050919050565b60006020820190508181036000830152611f2f81611c9a565b9050919050565b60006020820190508181036000830152611f4f81611d00565b9050919050565b6000602082019050611f6b6000830184611d40565b92915050565b6000602082019050611f866000830184611d4f565b92915050565b600081519050919050565b600082825260208201905092915050565b6000611fb382612070565b9150611fbe83612070565b9250827fffffffffffffffffffffffffffffffffffffffffffffffffffffffffffffffff03821115611ff357611ff26120ec565b5b828201905092915050565b600061200982612070565b915061201483612070565b925082821015612027576120266120ec565b5b828203905092915050565b600061203d82612050565b9050919050565b60008115159050919050565b600073ffffffffffffffffffffffffffffffffffffffff82169050919050565b6000819050919050565b600060ff82169050919050565b60005b838110156120a557808201518184015260208101905061208a565b838111156120b4576000848401525b50505050565b600060028204905060018216806120d257607f821691505b602082108114156120e6576120e561211b565b5b50919050565b7f4e487b7100000000000000000000000000000000000000000000000000000000600052601160045260246000fd5b7f4e487b7100000000000000000000000000000000000000000000000000000000600052602260045260246000fd5b6000601f19601f8301169050919050565b61216481612032565b811461216f57600080fd5b50565b61217b81612070565b811461218657600080fd5b5056fea2646970667358221220dd94dcb6acfe5b8cc3d368b97026dc056f6c12cf80866c4f9240e7667559b90864736f6c63430008000033",
					"opcodes": "PUSH1 0x80 PUSH1 0x40 MSTORE CALLVALUE DUP1 ISZERO PUSH3 0x11 JUMPI PUSH1 0x0 DUP1 REVERT JUMPDEST POP PUSH1 0x40 MLOAD PUSH3 0x25C3 CODESIZE SUB DUP1 PUSH3 0x25C3 DUP4 CODECOPY DUP2 DUP2 ADD PUSH1 0x40 MSTORE DUP2 ADD SWAP1 PUSH3 0x37 SWAP2 SWAP1 PUSH3 0x250 JUMP JUMPDEST DUP2 DUP2 DUP2 PUSH1 0x3 SWAP1 DUP1 MLOAD SWAP1 PUSH1 0x20 ADD SWAP1 PUSH3 0x51 SWAP3 SWAP2 SWAP1 PUSH3 0x12E JUMP JUMPDEST POP DUP1 PUSH1 0x4 SWAP1 DUP1 MLOAD SWAP1 PUSH1 0x20 ADD SWAP1 PUSH3 0x6A SWAP3 SWAP2 SWAP1 PUSH3 0x12E JUMP JUMPDEST POP POP POP PUSH1 0x0 PUSH3 0x7F PUSH3 0x126 PUSH1 0x20 SHL PUSH1 0x20 SHR JUMP JUMPDEST SWAP1 POP DUP1 PUSH1 0x5 PUSH1 0x0 PUSH2 0x100 EXP DUP2 SLOAD DUP2 PUSH20 0xFFFFFFFFFFFFFFFFFFFFFFFFFFFFFFFFFFFFFFFF MUL NOT AND SWAP1 DUP4 PUSH20 0xFFFFFFFFFFFFFFFFFFFFFFFFFFFFFFFFFFFFFFFF AND MUL OR SWAP1 SSTORE POP DUP1 PUSH20 0xFFFFFFFFFFFFFFFFFFFFFFFFFFFFFFFFFFFFFFFF AND PUSH1 0x0 PUSH20 0xFFFFFFFFFFFFFFFFFFFFFFFFFFFFFFFFFFFFFFFF AND PUSH32 0x8BE0079C531659141344CD1FD0A4F28419497F9722A3DAAFE3B4186F6B6457E0 PUSH1 0x40 MLOAD PUSH1 0x40 MLOAD DUP1 SWAP2 SUB SWAP1 LOG3 POP POP POP PUSH3 0x3F4 JUMP JUMPDEST PUSH1 0x0 CALLER SWAP1 POP SWAP1 JUMP JUMPDEST DUP3 DUP1 SLOAD PUSH3 0x13C SWAP1 PUSH3 0x360 JUMP JUMPDEST SWAP1 PUSH1 0x0 MSTORE PUSH1 0x20 PUSH1 0x0 KECCAK256 SWAP1 PUSH1 0x1F ADD PUSH1 0x20 SWAP1 DIV DUP2 ADD SWAP3 DUP3 PUSH3 0x160 JUMPI PUSH1 0x0 DUP6 SSTORE PUSH3 0x1AC JUMP JUMPDEST DUP3 PUSH1 0x1F LT PUSH3 0x17B JUMPI DUP1 MLOAD PUSH1 0xFF NOT AND DUP4 DUP1 ADD OR DUP6 SSTORE PUSH3 0x1AC JUMP JUMPDEST DUP3 DUP1 ADD PUSH1 0x1 ADD DUP6 SSTORE DUP3 ISZERO PUSH3 0x1AC JUMPI SWAP2 DUP3 ADD JUMPDEST DUP3 DUP2 GT ISZERO PUSH3 0x1AB JUMPI DUP3 MLOAD DUP3 SSTORE SWAP2 PUSH1 0x20 ADD SWAP2 SWAP1 PUSH1 0x1 ADD SWAP1 PUSH3 0x18E JUMP JUMPDEST JUMPDEST POP SWAP1 POP PUSH3 0x1BB SWAP2 SWAP1 PUSH3 0x1BF JUMP JUMPDEST POP SWAP1 JUMP JUMPDEST JUMPDEST DUP1 DUP3 GT ISZERO PUSH3 0x1DA JUMPI PUSH1 0x0 DUP2 PUSH1 0x0 SWAP1 SSTORE POP PUSH1 0x1 ADD PUSH3 0x1C0 JUMP JUMPDEST POP SWAP1 JUMP JUMPDEST PUSH1 0x0 PUSH3 0x1F5 PUSH3 0x1EF DUP5 PUSH3 0x2F7 JUMP JUMPDEST PUSH3 0x2C3 JUMP JUMPDEST SWAP1 POP DUP3 DUP2 MSTORE PUSH1 0x20 DUP2 ADD DUP5 DUP5 DUP5 ADD GT ISZERO PUSH3 0x20E JUMPI PUSH1 0x0 DUP1 REVERT JUMPDEST PUSH3 0x21B DUP5 DUP3 DUP6 PUSH3 0x32A JUMP JUMPDEST POP SWAP4 SWAP3 POP POP POP JUMP JUMPDEST PUSH1 0x0 DUP3 PUSH1 0x1F DUP4 ADD SLT PUSH3 0x235 JUMPI PUSH1 0x0 DUP1 REVERT JUMPDEST DUP2 MLOAD PUSH3 0x247 DUP5 DUP3 PUSH1 0x20 DUP7 ADD PUSH3 0x1DE JUMP JUMPDEST SWAP2 POP POP SWAP3 SWAP2 POP POP JUMP JUMPDEST PUSH1 0x0 DUP1 PUSH1 0x40 DUP4 DUP6 SUB SLT ISZERO PUSH3 0x264 JUMPI PUSH1 0x0 DUP1 REVERT JUMPDEST PUSH1 0x0 DUP4 ADD MLOAD PUSH8 0xFFFFFFFFFFFFFFFF DUP2 GT ISZERO PUSH3 0x27F JUMPI PUSH1 0x0 DUP1 REVERT JUMPDEST PUSH3 0x28D DUP6 DUP3 DUP7 ADD PUSH3 0x223 JUMP JUMPDEST SWAP3 POP POP PUSH1 0x20 DUP4 ADD MLOAD PUSH8 0xFFFFFFFFFFFFFFFF DUP2 GT ISZERO PUSH3 0x2AB JUMPI PUSH1 0x0 DUP1 REVERT JUMPDEST PUSH3 0x2B9 DUP6 DUP3 DUP7 ADD PUSH3 0x223 JUMP JUMPDEST SWAP2 POP POP SWAP3 POP SWAP3 SWAP1 POP JUMP JUMPDEST PUSH1 0x0 PUSH1 0x40 MLOAD SWAP1 POP DUP2 DUP2 ADD DUP2 DUP2 LT PUSH8 0xFFFFFFFFFFFFFFFF DUP3 GT OR ISZERO PUSH3 0x2ED JUMPI PUSH3 0x2EC PUSH3 0x3C5 JUMP JUMPDEST JUMPDEST DUP1 PUSH1 0x40 MSTORE POP SWAP2 SWAP1 POP JUMP JUMPDEST PUSH1 0x0 PUSH8 0xFFFFFFFFFFFFFFFF DUP3 GT ISZERO PUSH3 0x315 JUMPI PUSH3 0x314 PUSH3 0x3C5 JUMP JUMPDEST JUMPDEST PUSH1 0x1F NOT PUSH1 0x1F DUP4 ADD AND SWAP1 POP PUSH1 0x20 DUP2 ADD SWAP1 POP SWAP2 SWAP1 POP JUMP JUMPDEST PUSH1 0x0 JUMPDEST DUP4 DUP2 LT ISZERO PUSH3 0x34A JUMPI DUP1 DUP3 ADD MLOAD DUP2 DUP5 ADD MSTORE PUSH1 0x20 DUP2 ADD SWAP1 POP PUSH3 0x32D JUMP JUMPDEST DUP4 DUP2 GT ISZERO PUSH3 0x35A JUMPI PUSH1 0x0 DUP5 DUP5 ADD MSTORE JUMPDEST POP POP POP POP JUMP JUMPDEST PUSH1 0x0 PUSH1 0x2 DUP3 DIV SWAP1 POP PUSH1 0x1 DUP3 AND DUP1 PUSH3 0x379 JUMPI PUSH1 0x7F DUP3 AND SWAP2 POP JUMPDEST PUSH1 0x20 DUP3 LT DUP2 EQ ISZERO PUSH3 0x390 JUMPI PUSH3 0x38F PUSH3 0x396 JUMP JUMPDEST JUMPDEST POP SWAP2 SWAP1 POP JUMP JUMPDEST PUSH32 0x4E487B7100000000000000000000000000000000000000000000000000000000 PUSH1 0x0 MSTORE PUSH1 0x22 PUSH1 0x4 MSTORE PUSH1 0x24 PUSH1 0x0 REVERT JUMPDEST PUSH32 0x4E487B7100000000000000000000000000000000000000000000000000000000 PUSH1 0x0 MSTORE PUSH1 0x41 PUSH1 0x4 MSTORE PUSH1 0x24 PUSH1 0x0 REVERT JUMPDEST PUSH2 0x21BF DUP1 PUSH3 0x404 PUSH1 0x0 CODECOPY PUSH1 0x0 RETURN INVALID PUSH1 0x80 PUSH1 0x40 MSTORE CALLVALUE DUP1 ISZERO PUSH2 0x10 JUMPI PUSH1 0x0 DUP1 REVERT JUMPDEST POP PUSH1 0x4 CALLDATASIZE LT PUSH2 0x116 JUMPI PUSH1 0x0 CALLDATALOAD PUSH1 0xE0 SHR DUP1 PUSH4 0x70A08231 GT PUSH2 0xA2 JUMPI DUP1 PUSH4 0xA457C2D7 GT PUSH2 0x71 JUMPI DUP1 PUSH4 0xA457C2D7 EQ PUSH2 0x2CF JUMPI DUP1 PUSH4 0xA9059CBB EQ PUSH2 0x2FF JUMPI DUP1 PUSH4 0xAC18DE43 EQ PUSH2 0x32F JUMPI DUP1 PUSH4 0xDD62ED3E EQ PUSH2 0x34B JUMPI DUP1 PUSH4 0xF2FDE38B EQ PUSH2 0x37B JUMPI PUSH2 0x116 JUMP JUMPDEST DUP1 PUSH4 0x70A08231 EQ PUSH2 0x259 JUMPI DUP1 PUSH4 0x715018A6 EQ PUSH2 0x289 JUMPI DUP1 PUSH4 0x8DA5CB5B EQ PUSH2 0x293 JUMPI DUP1 PUSH4 0x95D89B41 EQ PUSH2 0x2B1 JUMPI PUSH2 0x116 JUMP JUMPDEST DUP1 PUSH4 0x2D06177A GT PUSH2 0xE9 JUMPI DUP1 PUSH4 0x2D06177A EQ PUSH2 0x1B7 JUMPI DUP1 PUSH4 0x313CE567 EQ PUSH2 0x1D3 JUMPI DUP1 PUSH4 0x39509351 EQ PUSH2 0x1F1 JUMPI DUP1 PUSH4 0x40C10F19 EQ PUSH2 0x221 JUMPI DUP1 PUSH4 0x42966C68 EQ PUSH2 0x23D JUMPI PUSH2 0x116 JUMP JUMPDEST DUP1 PUSH4 0x6FDDE03 EQ PUSH2 0x11B JUMPI DUP1 PUSH4 0x95EA7B3 EQ PUSH2 0x139 JUMPI DUP1 PUSH4 0x18160DDD EQ PUSH2 0x169 JUMPI DUP1 PUSH4 0x23B872DD EQ PUSH2 0x187 JUMPI JUMPDEST PUSH1 0x0 DUP1 REVERT JUMPDEST PUSH2 0x123 PUSH2 0x397 JUMP JUMPDEST PUSH1 0x40 MLOAD PUSH2 0x130 SWAP2 SWAP1 PUSH2 0x1D94 JUMP JUMPDEST PUSH1 0x40 MLOAD DUP1 SWAP2 SUB SWAP1 RETURN JUMPDEST PUSH2 0x153 PUSH1 0x4 DUP1 CALLDATASIZE SUB DUP2 ADD SWAP1 PUSH2 0x14E SWAP2 SWAP1 PUSH2 0x17A2 JUMP JUMPDEST PUSH2 0x429 JUMP JUMPDEST PUSH1 0x40 MLOAD PUSH2 0x160 SWAP2 SWAP1 PUSH2 0x1D79 JUMP JUMPDEST PUSH1 0x40 MLOAD DUP1 SWAP2 SUB SWAP1 RETURN JUMPDEST PUSH2 0x171 PUSH2 0x447 JUMP JUMPDEST PUSH1 0x40 MLOAD PUSH2 0x17E SWAP2 SWAP1 PUSH2 0x1F56 JUMP JUMPDEST PUSH1 0x40 MLOAD DUP1 SWAP2 SUB SWAP1 RETURN JUMPDEST PUSH2 0x1A1 PUSH1 0x4 DUP1 CALLDATASIZE SUB DUP2 ADD SWAP1 PUSH2 0x19C SWAP2 SWAP1 PUSH2 0x1753 JUMP JUMPDEST PUSH2 0x451 JUMP JUMPDEST PUSH1 0x40 MLOAD PUSH2 0x1AE SWAP2 SWAP1 PUSH2 0x1D79 JUMP JUMPDEST PUSH1 0x40 MLOAD DUP1 SWAP2 SUB SWAP1 RETURN JUMPDEST PUSH2 0x1D1 PUSH1 0x4 DUP1 CALLDATASIZE SUB DUP2 ADD SWAP1 PUSH2 0x1CC SWAP2 SWAP1 PUSH2 0x16EE JUMP JUMPDEST PUSH2 0x549 JUMP JUMPDEST STOP JUMPDEST PUSH2 0x1DB PUSH2 0x67E JUMP JUMPDEST PUSH1 0x40 MLOAD PUSH2 0x1E8 SWAP2 SWAP1 PUSH2 0x1F71 JUMP JUMPDEST PUSH1 0x40 MLOAD DUP1 SWAP2 SUB SWAP1 RETURN JUMPDEST PUSH2 0x20B PUSH1 0x4 DUP1 CALLDATASIZE SUB DUP2 ADD SWAP1 PUSH2 0x206 SWAP2 SWAP1 PUSH2 0x17A2 JUMP JUMPDEST PUSH2 0x687 JUMP JUMPDEST PUSH1 0x40 MLOAD PUSH2 0x218 SWAP2 SWAP1 PUSH2 0x1D79 JUMP JUMPDEST PUSH1 0x40 MLOAD DUP1 SWAP2 SUB SWAP1 RETURN JUMPDEST PUSH2 0x23B PUSH1 0x4 DUP1 CALLDATASIZE SUB DUP2 ADD SWAP1 PUSH2 0x236 SWAP2 SWAP1 PUSH2 0x17A2 JUMP JUMPDEST PUSH2 0x733 JUMP JUMPDEST STOP JUMPDEST PUSH2 0x257 PUSH1 0x4 DUP1 CALLDATASIZE SUB DUP2 ADD SWAP1 PUSH2 0x252 SWAP2 SWAP1 PUSH2 0x17DE JUMP JUMPDEST PUSH2 0x833 JUMP JUMPDEST STOP JUMPDEST PUSH2 0x273 PUSH1 0x4 DUP1 CALLDATASIZE SUB DUP2 ADD SWAP1 PUSH2 0x26E SWAP2 SWAP1 PUSH2 0x16EE JUMP JUMPDEST PUSH2 0x847 JUMP JUMPDEST PUSH1 0x40 MLOAD PUSH2 0x280 SWAP2 SWAP1 PUSH2 0x1F56 JUMP JUMPDEST PUSH1 0x40 MLOAD DUP1 SWAP2 SUB SWAP1 RETURN JUMPDEST PUSH2 0x291 PUSH2 0x88F JUMP JUMPDEST STOP JUMPDEST PUSH2 0x29B PUSH2 0x9E7 JUMP JUMPDEST PUSH1 0x40 MLOAD PUSH2 0x2A8 SWAP2 SWAP1 PUSH2 0x1D5E JUMP JUMPDEST PUSH1 0x40 MLOAD DUP1 SWAP2 SUB SWAP1 RETURN JUMPDEST PUSH2 0x2B9 PUSH2 0xA11 JUMP JUMPDEST PUSH1 0x40 MLOAD PUSH2 0x2C6 SWAP2 SWAP1 PUSH2 0x1D94 JUMP JUMPDEST PUSH1 0x40 MLOAD DUP1 SWAP2 SUB SWAP1 RETURN JUMPDEST PUSH2 0x2E9 PUSH1 0x4 DUP1 CALLDATASIZE SUB DUP2 ADD SWAP1 PUSH2 0x2E4 SWAP2 SWAP1 PUSH2 0x17A2 JUMP JUMPDEST PUSH2 0xAA3 JUMP JUMPDEST PUSH1 0x40 MLOAD PUSH2 0x2F6 SWAP2 SWAP1 PUSH2 0x1D79 JUMP JUMPDEST PUSH1 0x40 MLOAD DUP1 SWAP2 SUB SWAP1 RETURN JUMPDEST PUSH2 0x319 PUSH1 0x4 DUP1 CALLDATASIZE SUB DUP2 ADD SWAP1 PUSH2 0x314 SWAP2 SWAP1 PUSH2 0x17A2 JUMP JUMPDEST PUSH2 0xB8E JUMP JUMPDEST PUSH1 0x40 MLOAD PUSH2 0x326 SWAP2 SWAP1 PUSH2 0x1D79 JUMP JUMPDEST PUSH1 0x40 MLOAD DUP1 SWAP2 SUB SWAP1 RETURN JUMPDEST PUSH2 0x349 PUSH1 0x4 DUP1 CALLDATASIZE SUB DUP2 ADD SWAP1 PUSH2 0x344 SWAP2 SWAP1 PUSH2 0x16EE JUMP JUMPDEST PUSH2 0xBAC JUMP JUMPDEST STOP JUMPDEST PUSH2 0x365 PUSH1 0x4 DUP1 CALLDATASIZE SUB DUP2 ADD SWAP1 PUSH2 0x360 SWAP2 SWAP1 PUSH2 0x1717 JUMP JUMPDEST PUSH2 0xCE1 JUMP JUMPDEST PUSH1 0x40 MLOAD PUSH2 0x372 SWAP2 SWAP1 PUSH2 0x1F56 JUMP JUMPDEST PUSH1 0x40 MLOAD DUP1 SWAP2 SUB SWAP1 RETURN JUMPDEST PUSH2 0x395 PUSH1 0x4 DUP1 CALLDATASIZE SUB DUP2 ADD SWAP1 PUSH2 0x390 SWAP2 SWAP1 PUSH2 0x16EE JUMP JUMPDEST PUSH2 0xD68 JUMP JUMPDEST STOP JUMPDEST PUSH1 0x60 PUSH1 0x3 DUP1 SLOAD PUSH2 0x3A6 SWAP1 PUSH2 0x20BA JUMP JUMPDEST DUP1 PUSH1 0x1F ADD PUSH1 0x20 DUP1 SWAP2 DIV MUL PUSH1 0x20 ADD PUSH1 0x40 MLOAD SWAP1 DUP2 ADD PUSH1 0x40 MSTORE DUP1 SWAP3 SWAP2 SWAP1 DUP2 DUP2 MSTORE PUSH1 0x20 ADD DUP3 DUP1 SLOAD PUSH2 0x3D2 SWAP1 PUSH2 0x20BA JUMP JUMPDEST DUP1 ISZERO PUSH2 0x41F JUMPI DUP1 PUSH1 0x1F LT PUSH2 0x3F4 JUMPI PUSH2 0x100 DUP1 DUP4 SLOAD DIV MUL DUP4 MSTORE SWAP2 PUSH1 0x20 ADD SWAP2 PUSH2 0x41F JUMP JUMPDEST DUP3 ADD SWAP2 SWAP1 PUSH1 0x0 MSTORE PUSH1 0x20 PUSH1 0x0 KECCAK256 SWAP1 JUMPDEST DUP2 SLOAD DUP2 MSTORE SWAP1 PUSH1 0x1 ADD SWAP1 PUSH1 0x20 ADD DUP1 DUP4 GT PUSH2 0x402 JUMPI DUP3 SWAP1 SUB PUSH1 0x1F AND DUP3 ADD SWAP2 JUMPDEST POP POP POP POP POP SWAP1 POP SWAP1 JUMP JUMPDEST PUSH1 0x0 PUSH2 0x43D PUSH2 0x436 PUSH2 0xF2F JUMP JUMPDEST DUP5 DUP5 PUSH2 0xF37 JUMP JUMPDEST PUSH1 0x1 SWAP1 POP SWAP3 SWAP2 POP POP JUMP JUMPDEST PUSH1 0x0 PUSH1 0x2 SLOAD SWAP1 POP SWAP1 JUMP JUMPDEST PUSH1 0x0 PUSH2 0x45E DUP5 DUP5 DUP5 PUSH2 0x1102 JUMP JUMPDEST PUSH1 0x0 PUSH1 0x1 PUSH1 0x0 DUP7 PUSH20 0xFFFFFFFFFFFFFFFFFFFFFFFFFFFFFFFFFFFFFFFF AND PUSH20 0xFFFFFFFFFFFFFFFFFFFFFFFFFFFFFFFFFFFFFFFF AND DUP2 MSTORE PUSH1 0x20 ADD SWAP1 DUP2 MSTORE PUSH1 0x20 ADD PUSH1 0x0 KECCAK256 PUSH1 0x0 PUSH2 0x4A9 PUSH2 0xF2F JUMP JUMPDEST PUSH20 0xFFFFFFFFFFFFFFFFFFFFFFFFFFFFFFFFFFFFFFFF AND PUSH20 0xFFFFFFFFFFFFFFFFFFFFFFFFFFFFFFFFFFFFFFFF AND DUP2 MSTORE PUSH1 0x20 ADD SWAP1 DUP2 MSTORE PUSH1 0x20 ADD PUSH1 0x0 KECCAK256 SLOAD SWAP1 POP DUP3 DUP2 LT ISZERO PUSH2 0x529 JUMPI PUSH1 0x40 MLOAD PUSH32 0x8C379A000000000000000000000000000000000000000000000000000000000 DUP2 MSTORE PUSH1 0x4 ADD PUSH2 0x520 SWAP1 PUSH2 0x1E76 JUMP JUMPDEST PUSH1 0x40 MLOAD DUP1 SWAP2 SUB SWAP1 REVERT JUMPDEST PUSH2 0x53D DUP6 PUSH2 0x535 PUSH2 0xF2F JUMP JUMPDEST DUP6 DUP5 SUB PUSH2 0xF37 JUMP JUMPDEST PUSH1 0x1 SWAP2 POP POP SWAP4 SWAP3 POP POP POP JUMP JUMPDEST PUSH2 0x551 PUSH2 0xF2F JUMP JUMPDEST PUSH20 0xFFFFFFFFFFFFFFFFFFFFFFFFFFFFFFFFFFFFFFFF AND PUSH1 0x5 PUSH1 0x0 SWAP1 SLOAD SWAP1 PUSH2 0x100 EXP SWAP1 DIV PUSH20 0xFFFFFFFFFFFFFFFFFFFFFFFFFFFFFFFFFFFFFFFF AND PUSH20 0xFFFFFFFFFFFFFFFFFFFFFFFFFFFFFFFFFFFFFFFF AND EQ PUSH2 0x5E0 JUMPI PUSH1 0x40 MLOAD PUSH32 0x8C379A000000000000000000000000000000000000000000000000000000000 DUP2 MSTORE PUSH1 0x4 ADD PUSH2 0x5D7 SWAP1 PUSH2 0x1E96 JUMP JUMPDEST PUSH1 0x40 MLOAD DUP1 SWAP2 SUB SWAP1 REVERT JUMPDEST PUSH1 0x1 PUSH1 0x6 PUSH1 0x0 DUP4 PUSH20 0xFFFFFFFFFFFFFFFFFFFFFFFFFFFFFFFFFFFFFFFF AND PUSH20 0xFFFFFFFFFFFFFFFFFFFFFFFFFFFFFFFFFFFFFFFF AND DUP2 MSTORE PUSH1 0x20 ADD SWAP1 DUP2 MSTORE PUSH1 0x20 ADD PUSH1 0x0 KECCAK256 PUSH1 0x0 PUSH2 0x100 EXP DUP2 SLOAD DUP2 PUSH1 0xFF MUL NOT AND SWAP1 DUP4 ISZERO ISZERO MUL OR SWAP1 SSTORE POP DUP1 PUSH20 0xFFFFFFFFFFFFFFFFFFFFFFFFFFFFFFFFFFFFFFFF AND PUSH32 0x3630096A7F9A158AB9FAE41E86BFE31FD2202585A26A9668242672566DAE028D PUSH1 0x40 MLOAD PUSH1 0x40 MLOAD DUP1 SWAP2 SUB SWAP1 LOG2 POP JUMP JUMPDEST PUSH1 0x0 PUSH1 0x12 SWAP1 POP SWAP1 JUMP JUMPDEST PUSH1 0x0 PUSH2 0x729 PUSH2 0x694 PUSH2 0xF2F JUMP JUMPDEST DUP5 DUP5 PUSH1 0x1 PUSH1 0x0 PUSH2 0x6A2 PUSH2 0xF2F JUMP JUMPDEST PUSH20 0xFFFFFFFFFFFFFFFFFFFFFFFFFFFFFFFFFFFFFFFF AND PUSH20 0xFFFFFFFFFFFFFFFFFFFFFFFFFFFFFFFFFFFFFFFF AND DUP2 MSTORE PUSH1 0x20 ADD SWAP1 DUP2 MSTORE PUSH1 0x20 ADD PUSH1 0x0 KECCAK256 PUSH1 0x0 DUP9 PUSH20 0xFFFFFFFFFFFFFFFFFFFFFFFFFFFFFFFFFFFFFFFF AND PUSH20 0xFFFFFFFFFFFFFFFFFFFFFFFFFFFFFFFFFFFFFFFF AND DUP2 MSTORE PUSH1 0x20 ADD SWAP1 DUP2 MSTORE PUSH1 0x20 ADD PUSH1 0x0 KECCAK256 SLOAD PUSH2 0x724 SWAP2 SWAP1 PUSH2 0x1FA8 JUMP JUMPDEST PUSH2 0xF37 JUMP JUMPDEST PUSH1 0x1 SWAP1 POP SWAP3 SWAP2 POP POP JUMP JUMPDEST PUSH2 0x73B PUSH2 0xF2F JUMP JUMPDEST PUSH20 0xFFFFFFFFFFFFFFFFFFFFFFFFFFFFFFFFFFFFFFFF AND PUSH1 0x5 PUSH1 0x0 SWAP1 SLOAD SWAP1 PUSH2 0x100 EXP SWAP1 DIV PUSH20 0xFFFFFFFFFFFFFFFFFFFFFFFFFFFFFFFFFFFFFFFF AND PUSH20 0xFFFFFFFFFFFFFFFFFFFFFFFFFFFFFFFFFFFFFFFF AND EQ DUP1 PUSH2 0x7E6 JUMPI POP PUSH1 0x6 PUSH1 0x0 PUSH2 0x79D PUSH2 0xF2F JUMP JUMPDEST PUSH20 0xFFFFFFFFFFFFFFFFFFFFFFFFFFFFFFFFFFFFFFFF AND PUSH20 0xFFFFFFFFFFFFFFFFFFFFFFFFFFFFFFFFFFFFFFFF AND DUP2 MSTORE PUSH1 0x20 ADD SWAP1 DUP2 MSTORE PUSH1 0x20 ADD PUSH1 0x0 KECCAK256 PUSH1 0x0 SWAP1 SLOAD SWAP1 PUSH2 0x100 EXP SWAP1 DIV PUSH1 0xFF AND JUMPDEST PUSH2 0x825 JUMPI PUSH1 0x40 MLOAD PUSH32 0x8C379A000000000000000000000000000000000000000000000000000000000 DUP2 MSTORE PUSH1 0x4 ADD PUSH2 0x81C SWAP1 PUSH2 0x1E56 JUMP JUMPDEST PUSH1 0x40 MLOAD DUP1 SWAP2 SUB SWAP1 REVERT JUMPDEST PUSH2 0x82F DUP3 DUP3 PUSH2 0x1383 JUMP JUMPDEST POP POP JUMP JUMPDEST PUSH2 0x844 PUSH2 0x83E PUSH2 0xF2F JUMP JUMPDEST DUP3 PUSH2 0x14E3 JUMP JUMPDEST POP JUMP JUMPDEST PUSH1 0x0 DUP1 PUSH1 0x0 DUP4 PUSH20 0xFFFFFFFFFFFFFFFFFFFFFFFFFFFFFFFFFFFFFFFF AND PUSH20 0xFFFFFFFFFFFFFFFFFFFFFFFFFFFFFFFFFFFFFFFF AND DUP2 MSTORE PUSH1 0x20 ADD SWAP1 DUP2 MSTORE PUSH1 0x20 ADD PUSH1 0x0 KECCAK256 SLOAD SWAP1 POP SWAP2 SWAP1 POP JUMP JUMPDEST PUSH2 0x897 PUSH2 0xF2F JUMP JUMPDEST PUSH20 0xFFFFFFFFFFFFFFFFFFFFFFFFFFFFFFFFFFFFFFFF AND PUSH1 0x5 PUSH1 0x0 SWAP1 SLOAD SWAP1 PUSH2 0x100 EXP SWAP1 DIV PUSH20 0xFFFFFFFFFFFFFFFFFFFFFFFFFFFFFFFFFFFFFFFF AND PUSH20 0xFFFFFFFFFFFFFFFFFFFFFFFFFFFFFFFFFFFFFFFF AND EQ PUSH2 0x926 JUMPI PUSH1 0x40 MLOAD PUSH32 0x8C379A000000000000000000000000000000000000000000000000000000000 DUP2 MSTORE PUSH1 0x4 ADD PUSH2 0x91D SWAP1 PUSH2 0x1E96 JUMP JUMPDEST PUSH1 0x40 MLOAD DUP1 SWAP2 SUB SWAP1 REVERT JUMPDEST PUSH1 0x0 PUSH20 0xFFFFFFFFFFFFFFFFFFFFFFFFFFFFFFFFFFFFFFFF AND PUSH1 0x5 PUSH1 0x0 SWAP1 SLOAD SWAP1 PUSH2 0x100 EXP SWAP1 DIV PUSH20 0xFFFFFFFFFFFFFFFFFFFFFFFFFFFFFFFFFFFFFFFF AND PUSH20 0xFFFFFFFFFFFFFFFFFFFFFFFFFFFFFFFFFFFFFFFF AND PUSH32 0x8BE0079C531659141344CD1FD0A4F28419497F9722A3DAAFE3B4186F6B6457E0 PUSH1 0x40 MLOAD PUSH1 0x40 MLOAD DUP1 SWAP2 SUB SWAP1 LOG3 PUSH1 0x0 PUSH1 0x5 PUSH1 0x0 PUSH2 0x100 EXP DUP2 SLOAD DUP2 PUSH20 0xFFFFFFFFFFFFFFFFFFFFFFFFFFFFFFFFFFFFFFFF MUL NOT AND SWAP1 DUP4 PUSH20 0xFFFFFFFFFFFFFFFFFFFFFFFFFFFFFFFFFFFFFFFF AND MUL OR SWAP1 SSTORE POP JUMP JUMPDEST PUSH1 0x0 PUSH1 0x5 PUSH1 0x0 SWAP1 SLOAD SWAP1 PUSH2 0x100 EXP SWAP1 DIV PUSH20 0xFFFFFFFFFFFFFFFFFFFFFFFFFFFFFFFFFFFFFFFF AND SWAP1 POP SWAP1 JUMP JUMPDEST PUSH1 0x60 PUSH1 0x4 DUP1 SLOAD PUSH2 0xA20 SWAP1 PUSH2 0x20BA JUMP JUMPDEST DUP1 PUSH1 0x1F ADD PUSH1 0x20 DUP1 SWAP2 DIV MUL PUSH1 0x20 ADD PUSH1 0x40 MLOAD SWAP1 DUP2 ADD PUSH1 0x40 MSTORE DUP1 SWAP3 SWAP2 SWAP1 DUP2 DUP2 MSTORE PUSH1 0x20 ADD DUP3 DUP1 SLOAD PUSH2 0xA4C SWAP1 PUSH2 0x20BA JUMP JUMPDEST DUP1 ISZERO PUSH2 0xA99 JUMPI DUP1 PUSH1 0x1F LT PUSH2 0xA6E JUMPI PUSH2 0x100 DUP1 DUP4 SLOAD DIV MUL DUP4 MSTORE SWAP2 PUSH1 0x20 ADD SWAP2 PUSH2 0xA99 JUMP JUMPDEST DUP3 ADD SWAP2 SWAP1 PUSH1 0x0 MSTORE PUSH1 0x20 PUSH1 0x0 KECCAK256 SWAP1 JUMPDEST DUP2 SLOAD DUP2 MSTORE SWAP1 PUSH1 0x1 ADD SWAP1 PUSH1 0x20 ADD DUP1 DUP4 GT PUSH2 0xA7C JUMPI DUP3 SWAP1 SUB PUSH1 0x1F AND DUP3 ADD SWAP2 JUMPDEST POP POP POP POP POP SWAP1 POP SWAP1 JUMP JUMPDEST PUSH1 0x0 DUP1 PUSH1 0x1 PUSH1 0x0 PUSH2 0xAB2 PUSH2 0xF2F JUMP JUMPDEST PUSH20 0xFFFFFFFFFFFFFFFFFFFFFFFFFFFFFFFFFFFFFFFF AND PUSH20 0xFFFFFFFFFFFFFFFFFFFFFFFFFFFFFFFFFFFFFFFF AND DUP2 MSTORE PUSH1 0x20 ADD SWAP1 DUP2 MSTORE PUSH1 0x20 ADD PUSH1 0x0 KECCAK256 PUSH1 0x0 DUP6 PUSH20 0xFFFFFFFFFFFFFFFFFFFFFFFFFFFFFFFFFFFFFFFF AND PUSH20 0xFFFFFFFFFFFFFFFFFFFFFFFFFFFFFFFFFFFFFFFF AND DUP2 MSTORE PUSH1 0x20 ADD SWAP1 DUP2 MSTORE PUSH1 0x20 ADD PUSH1 0x0 KECCAK256 SLOAD SWAP1 POP DUP3 DUP2 LT ISZERO PUSH2 0xB6F JUMPI PUSH1 0x40 MLOAD PUSH32 0x8C379A000000000000000000000000000000000000000000000000000000000 DUP2 MSTORE PUSH1 0x4 ADD PUSH2 0xB66 SWAP1 PUSH2 0x1F16 JUMP JUMPDEST PUSH1 0x40 MLOAD DUP1 SWAP2 SUB SWAP1 REVERT JUMPDEST PUSH2 0xB83 PUSH2 0xB7A PUSH2 0xF2F JUMP JUMPDEST DUP6 DUP6 DUP5 SUB PUSH2 0xF37 JUMP JUMPDEST PUSH1 0x1 SWAP2 POP POP SWAP3 SWAP2 POP POP JUMP JUMPDEST PUSH1 0x0 PUSH2 0xBA2 PUSH2 0xB9B PUSH2 0xF2F JUMP JUMPDEST DUP5 DUP5 PUSH2 0x1102 JUMP JUMPDEST PUSH1 0x1 SWAP1 POP SWAP3 SWAP2 POP POP JUMP JUMPDEST PUSH2 0xBB4 PUSH2 0xF2F JUMP JUMPDEST PUSH20 0xFFFFFFFFFFFFFFFFFFFFFFFFFFFFFFFFFFFFFFFF AND PUSH1 0x5 PUSH1 0x0 SWAP1 SLOAD SWAP1 PUSH2 0x100 EXP SWAP1 DIV PUSH20 0xFFFFFFFFFFFFFFFFFFFFFFFFFFFFFFFFFFFFFFFF AND PUSH20 0xFFFFFFFFFFFFFFFFFFFFFFFFFFFFFFFFFFFFFFFF AND EQ PUSH2 0xC43 JUMPI PUSH1 0x40 MLOAD PUSH32 0x8C379A000000000000000000000000000000000000000000000000000000000 DUP2 MSTORE PUSH1 0x4 ADD PUSH2 0xC3A SWAP1 PUSH2 0x1E96 JUMP JUMPDEST PUSH1 0x40 MLOAD DUP1 SWAP2 SUB SWAP1 REVERT JUMPDEST PUSH1 0x0 PUSH1 0x6 PUSH1 0x0 DUP4 PUSH20 0xFFFFFFFFFFFFFFFFFFFFFFFFFFFFFFFFFFFFFFFF AND PUSH20 0xFFFFFFFFFFFFFFFFFFFFFFFFFFFFFFFFFFFFFFFF AND DUP2 MSTORE PUSH1 0x20 ADD SWAP1 DUP2 MSTORE PUSH1 0x20 ADD PUSH1 0x0 KECCAK256 PUSH1 0x0 PUSH2 0x100 EXP DUP2 SLOAD DUP2 PUSH1 0xFF MUL NOT AND SWAP1 DUP4 ISZERO ISZERO MUL OR SWAP1 SSTORE POP DUP1 PUSH20 0xFFFFFFFFFFFFFFFFFFFFFFFFFFFFFFFFFFFFFFFF AND PUSH32 0x1E25ED4CABEC84D314DC176241019653F237DA01F2BDD3A10CB0F38B33DA6763 PUSH1 0x40 MLOAD PUSH1 0x40 MLOAD DUP1 SWAP2 SUB SWAP1 LOG2 POP JUMP JUMPDEST PUSH1 0x0 PUSH1 0x1 PUSH1 0x0 DUP5 PUSH20 0xFFFFFFFFFFFFFFFFFFFFFFFFFFFFFFFFFFFFFFFF AND PUSH20 0xFFFFFFFFFFFFFFFFFFFFFFFFFFFFFFFFFFFFFFFF AND DUP2 MSTORE PUSH1 0x20 ADD SWAP1 DUP2 MSTORE PUSH1 0x20 ADD PUSH1 0x0 KECCAK256 PUSH1 0x0 DUP4 PUSH20 0xFFFFFFFFFFFFFFFFFFFFFFFFFFFFFFFFFFFFFFFF AND PUSH20 0xFFFFFFFFFFFFFFFFFFFFFFFFFFFFFFFFFFFFFFFF AND DUP2 MSTORE PUSH1 0x20 ADD SWAP1 DUP2 MSTORE PUSH1 0x20 ADD PUSH1 0x0 KECCAK256 SLOAD SWAP1 POP SWAP3 SWAP2 POP POP JUMP JUMPDEST PUSH2 0xD70 PUSH2 0xF2F JUMP JUMPDEST PUSH20 0xFFFFFFFFFFFFFFFFFFFFFFFFFFFFFFFFFFFFFFFF AND PUSH1 0x5 PUSH1 0x0 SWAP1 SLOAD SWAP1 PUSH2 0x100 EXP SWAP1 DIV PUSH20 0xFFFFFFFFFFFFFFFFFFFFFFFFFFFFFFFFFFFFFFFF AND PUSH20 0xFFFFFFFFFFFFFFFFFFFFFFFFFFFFFFFFFFFFFFFF AND EQ PUSH2 0xDFF JUMPI PUSH1 0x40 MLOAD PUSH32 0x8C379A000000000000000000000000000000000000000000000000000000000 DUP2 MSTORE PUSH1 0x4 ADD PUSH2 0xDF6 SWAP1 PUSH2 0x1E96 JUMP JUMPDEST PUSH1 0x40 MLOAD DUP1 SWAP2 SUB SWAP1 REVERT JUMPDEST PUSH1 0x0 PUSH20 0xFFFFFFFFFFFFFFFFFFFFFFFFFFFFFFFFFFFFFFFF AND DUP2 PUSH20 0xFFFFFFFFFFFFFFFFFFFFFFFFFFFFFFFFFFFFFFFF AND EQ ISZERO PUSH2 0xE6F JUMPI PUSH1 0x40 MLOAD PUSH32 0x8C379A000000000000000000000000000000000000000000000000000000000 DUP2 MSTORE PUSH1 0x4 ADD PUSH2 0xE66 SWAP1 PUSH2 0x1DF6 JUMP JUMPDEST PUSH1 0x40 MLOAD DUP1 SWAP2 SUB SWAP1 REVERT JUMPDEST DUP1 PUSH20 0xFFFFFFFFFFFFFFFFFFFFFFFFFFFFFFFFFFFFFFFF AND PUSH1 0x5 PUSH1 0x0 SWAP1 SLOAD SWAP1 PUSH2 0x100 EXP SWAP1 DIV PUSH20 0xFFFFFFFFFFFFFFFFFFFFFFFFFFFFFFFFFFFFFFFF AND PUSH20 0xFFFFFFFFFFFFFFFFFFFFFFFFFFFFFFFFFFFFFFFF AND PUSH32 0x8BE0079C531659141344CD1FD0A4F28419497F9722A3DAAFE3B4186F6B6457E0 PUSH1 0x40 MLOAD PUSH1 0x40 MLOAD DUP1 SWAP2 SUB SWAP1 LOG3 DUP1 PUSH1 0x5 PUSH1 0x0 PUSH2 0x100 EXP DUP2 SLOAD DUP2 PUSH20 0xFFFFFFFFFFFFFFFFFFFFFFFFFFFFFFFFFFFFFFFF MUL NOT AND SWAP1 DUP4 PUSH20 0xFFFFFFFFFFFFFFFFFFFFFFFFFFFFFFFFFFFFFFFF AND MUL OR SWAP1 SSTORE POP POP JUMP JUMPDEST PUSH1 0x0 CALLER SWAP1 POP SWAP1 JUMP JUMPDEST PUSH1 0x0 PUSH20 0xFFFFFFFFFFFFFFFFFFFFFFFFFFFFFFFFFFFFFFFF AND DUP4 PUSH20 0xFFFFFFFFFFFFFFFFFFFFFFFFFFFFFFFFFFFFFFFF AND EQ ISZERO PUSH2 0xFA7 JUMPI PUSH1 0x40 MLOAD PUSH32 0x8C379A000000000000000000000000000000000000000000000000000000000 DUP2 MSTORE PUSH1 0x4 ADD PUSH2 0xF9E SWAP1 PUSH2 0x1EF6 JUMP JUMPDEST PUSH1 0x40 MLOAD DUP1 SWAP2 SUB SWAP1 REVERT JUMPDEST PUSH1 0x0 PUSH20 0xFFFFFFFFFFFFFFFFFFFFFFFFFFFFFFFFFFFFFFFF AND DUP3 PUSH20 0xFFFFFFFFFFFFFFFFFFFFFFFFFFFFFFFFFFFFFFFF AND EQ ISZERO PUSH2 0x1017 JUMPI PUSH1 0x40 MLOAD PUSH32 0x8C379A000000000000000000000000000000000000000000000000000000000 DUP2 MSTORE PUSH1 0x4 ADD PUSH2 0x100E SWAP1 PUSH2 0x1E16 JUMP JUMPDEST PUSH1 0x40 MLOAD DUP1 SWAP2 SUB SWAP1 REVERT JUMPDEST DUP1 PUSH1 0x1 PUSH1 0x0 DUP6 PUSH20 0xFFFFFFFFFFFFFFFFFFFFFFFFFFFFFFFFFFFFFFFF AND PUSH20 0xFFFFFFFFFFFFFFFFFFFFFFFFFFFFFFFFFFFFFFFF AND DUP2 MSTORE PUSH1 0x20 ADD SWAP1 DUP2 MSTORE PUSH1 0x20 ADD PUSH1 0x0 KECCAK256 PUSH1 0x0 DUP5 PUSH20 0xFFFFFFFFFFFFFFFFFFFFFFFFFFFFFFFFFFFFFFFF AND PUSH20 0xFFFFFFFFFFFFFFFFFFFFFFFFFFFFFFFFFFFFFFFF AND DUP2 MSTORE PUSH1 0x20 ADD SWAP1 DUP2 MSTORE PUSH1 0x20 ADD PUSH1 0x0 KECCAK256 DUP2 SWAP1 SSTORE POP DUP2 PUSH20 0xFFFFFFFFFFFFFFFFFFFFFFFFFFFFFFFFFFFFFFFF AND DUP4 PUSH20 0xFFFFFFFFFFFFFFFFFFFFFFFFFFFFFFFFFFFFFFFF AND PUSH32 0x8C5BE1E5EBEC7D5BD14F71427D1E84F3DD0314C0F7B2291E5B200AC8C7C3B925 DUP4 PUSH1 0x40 MLOAD PUSH2 0x10F5 SWAP2 SWAP1 PUSH2 0x1F56 JUMP JUMPDEST PUSH1 0x40 MLOAD DUP1 SWAP2 SUB SWAP1 LOG3 POP POP POP JUMP JUMPDEST PUSH1 0x0 PUSH20 0xFFFFFFFFFFFFFFFFFFFFFFFFFFFFFFFFFFFFFFFF AND DUP4 PUSH20 0xFFFFFFFFFFFFFFFFFFFFFFFFFFFFFFFFFFFFFFFF AND EQ ISZERO PUSH2 0x1172 JUMPI PUSH1 0x40 MLOAD PUSH32 0x8C379A000000000000000000000000000000000000000000000000000000000 DUP2 MSTORE PUSH1 0x4 ADD PUSH2 0x1169 SWAP1 PUSH2 0x1ED6 JUMP JUMPDEST PUSH1 0x40 MLOAD DUP1 SWAP2 SUB SWAP1 REVERT JUMPDEST PUSH1 0x0 PUSH20 0xFFFFFFFFFFFFFFFFFFFFFFFFFFFFFFFFFFFFFFFF AND DUP3 PUSH20 0xFFFFFFFFFFFFFFFFFFFFFFFFFFFFFFFFFFFFFFFF AND EQ ISZERO PUSH2 0x11E2 JUMPI PUSH1 0x40 MLOAD PUSH32 0x8C379A000000000000000000000000000000000000000000000000000000000 DUP2 MSTORE PUSH1 0x4 ADD PUSH2 0x11D9 SWAP1 PUSH2 0x1DB6 JUMP JUMPDEST PUSH1 0x40 MLOAD DUP1 SWAP2 SUB SWAP1 REVERT JUMPDEST PUSH2 0x11ED DUP4 DUP4 DUP4 PUSH2 0x16BA JUMP JUMPDEST PUSH1 0x0 DUP1 PUSH1 0x0 DUP6 PUSH20 0xFFFFFFFFFFFFFFFFFFFFFFFFFFFFFFFFFFFFFFFF AND PUSH20 0xFFFFFFFFFFFFFFFFFFFFFFFFFFFFFFFFFFFFFFFF AND DUP2 MSTORE PUSH1 0x20 ADD SWAP1 DUP2 MSTORE PUSH1 0x20 ADD PUSH1 0x0 KECCAK256 SLOAD SWAP1 POP DUP2 DUP2 LT ISZERO PUSH2 0x1273 JUMPI PUSH1 0x40 MLOAD PUSH32 0x8C379A000000000000000000000000000000000000000000000000000000000 DUP2 MSTORE PUSH1 0x4 ADD PUSH2 0x126A SWAP1 PUSH2 0x1E36 JUMP JUMPDEST PUSH1 0x40 MLOAD DUP1 SWAP2 SUB SWAP1 REVERT JUMPDEST DUP2 DUP2 SUB PUSH1 0x0 DUP1 DUP7 PUSH20 0xFFFFFFFFFFFFFFFFFFFFFFFFFFFFFFFFFFFFFFFF AND PUSH20 0xFFFFFFFFFFFFFFFFFFFFFFFFFFFFFFFFFFFFFFFF AND DUP2 MSTORE PUSH1 0x20 ADD SWAP1 DUP2 MSTORE PUSH1 0x20 ADD PUSH1 0x0 KECCAK256 DUP2 SWAP1 SSTORE POP DUP2 PUSH1 0x0 DUP1 DUP6 PUSH20 0xFFFFFFFFFFFFFFFFFFFFFFFFFFFFFFFFFFFFFFFF AND PUSH20 0xFFFFFFFFFFFFFFFFFFFFFFFFFFFFFFFFFFFFFFFF AND DUP2 MSTORE PUSH1 0x20 ADD SWAP1 DUP2 MSTORE PUSH1 0x20 ADD PUSH1 0x0 KECCAK256 PUSH1 0x0 DUP3 DUP3 SLOAD PUSH2 0x1306 SWAP2 SWAP1 PUSH2 0x1FA8 JUMP JUMPDEST SWAP3 POP POP DUP2 SWAP1 SSTORE POP DUP3 PUSH20 0xFFFFFFFFFFFFFFFFFFFFFFFFFFFFFFFFFFFFFFFF AND DUP5 PUSH20 0xFFFFFFFFFFFFFFFFFFFFFFFFFFFFFFFFFFFFFFFF AND PUSH32 0xDDF252AD1BE2C89B69C2B068FC378DAA952BA7F163C4A11628F55A4DF523B3EF DUP5 PUSH1 0x40 MLOAD PUSH2 0x136A SWAP2 SWAP1 PUSH2 0x1F56 JUMP JUMPDEST PUSH1 0x40 MLOAD DUP1 SWAP2 SUB SWAP1 LOG3 PUSH2 0x137D DUP5 DUP5 DUP5 PUSH2 0x16BF JUMP JUMPDEST POP POP POP POP JUMP JUMPDEST PUSH1 0x0 PUSH20 0xFFFFFFFFFFFFFFFFFFFFFFFFFFFFFFFFFFFFFFFF AND DUP3 PUSH20 0xFFFFFFFFFFFFFFFFFFFFFFFFFFFFFFFFFFFFFFFF AND EQ ISZERO PUSH2 0x13F3 JUMPI PUSH1 0x40 MLOAD PUSH32 0x8C379A000000000000000000000000000000000000000000000000000000000 DUP2 MSTORE PUSH1 0x4 ADD PUSH2 0x13EA SWAP1 PUSH2 0x1F36 JUMP JUMPDEST PUSH1 0x40 MLOAD DUP1 SWAP2 SUB SWAP1 REVERT JUMPDEST PUSH2 0x13FF PUSH1 0x0 DUP4 DUP4 PUSH2 0x16BA JUMP JUMPDEST DUP1 PUSH1 0x2 PUSH1 0x0 DUP3 DUP3 SLOAD PUSH2 0x1411 SWAP2 SWAP1 PUSH2 0x1FA8 JUMP JUMPDEST SWAP3 POP POP DUP2 SWAP1 SSTORE POP DUP1 PUSH1 0x0 DUP1 DUP5 PUSH20 0xFFFFFFFFFFFFFFFFFFFFFFFFFFFFFFFFFFFFFFFF AND PUSH20 0xFFFFFFFFFFFFFFFFFFFFFFFFFFFFFFFFFFFFFFFF AND DUP2 MSTORE PUSH1 0x20 ADD SWAP1 DUP2 MSTORE PUSH1 0x20 ADD PUSH1 0x0 KECCAK256 PUSH1 0x0 DUP3 DUP3 SLOAD PUSH2 0x1466 SWAP2 SWAP1 PUSH2 0x1FA8 JUMP JUMPDEST SWAP3 POP POP DUP2 SWAP1 SSTORE POP DUP2 PUSH20 0xFFFFFFFFFFFFFFFFFFFFFFFFFFFFFFFFFFFFFFFF AND PUSH1 0x0 PUSH20 0xFFFFFFFFFFFFFFFFFFFFFFFFFFFFFFFFFFFFFFFF AND PUSH32 0xDDF252AD1BE2C89B69C2B068FC378DAA952BA7F163C4A11628F55A4DF523B3EF DUP4 PUSH1 0x40 MLOAD PUSH2 0x14CB SWAP2 SWAP1 PUSH2 0x1F56 JUMP JUMPDEST PUSH1 0x40 MLOAD DUP1 SWAP2 SUB SWAP1 LOG3 PUSH2 0x14DF PUSH1 0x0 DUP4 DUP4 PUSH2 0x16BF JUMP JUMPDEST POP POP JUMP JUMPDEST PUSH1 0x0 PUSH20 0xFFFFFFFFFFFFFFFFFFFFFFFFFFFFFFFFFFFFFFFF AND DUP3 PUSH20 0xFFFFFFFFFFFFFFFFFFFFFFFFFFFFFFFFFFFFFFFF AND EQ ISZERO PUSH2 0x1553 JUMPI PUSH1 0x40 MLOAD PUSH32 0x8C379A000000000000000000000000000000000000000000000000000000000 DUP2 MSTORE PUSH1 0x4 ADD PUSH2 0x154A SWAP1 PUSH2 0x1EB6 JUMP JUMPDEST PUSH1 0x40 MLOAD DUP1 SWAP2 SUB SWAP1 REVERT JUMPDEST PUSH2 0x155F DUP3 PUSH1 0x0 DUP4 PUSH2 0x16BA JUMP JUMPDEST PUSH1 0x0 DUP1 PUSH1 0x0 DUP5 PUSH20 0xFFFFFFFFFFFFFFFFFFFFFFFFFFFFFFFFFFFFFFFF AND PUSH20 0xFFFFFFFFFFFFFFFFFFFFFFFFFFFFFFFFFFFFFFFF AND DUP2 MSTORE PUSH1 0x20 ADD SWAP1 DUP2 MSTORE PUSH1 0x20 ADD PUSH1 0x0 KECCAK256 SLOAD SWAP1 POP DUP2 DUP2 LT ISZERO PUSH2 0x15E5 JUMPI PUSH1 0x40 MLOAD PUSH32 0x8C379A000000000000000000000000000000000000000000000000000000000 DUP2 MSTORE PUSH1 0x4 ADD PUSH2 0x15DC SWAP1 PUSH2 0x1DD6 JUMP JUMPDEST PUSH1 0x40 MLOAD DUP1 SWAP2 SUB SWAP1 REVERT JUMPDEST DUP2 DUP2 SUB PUSH1 0x0 DUP1 DUP6 PUSH20 0xFFFFFFFFFFFFFFFFFFFFFFFFFFFFFFFFFFFFFFFF AND PUSH20 0xFFFFFFFFFFFFFFFFFFFFFFFFFFFFFFFFFFFFFFFF AND DUP2 MSTORE PUSH1 0x20 ADD SWAP1 DUP2 MSTORE PUSH1 0x20 ADD PUSH1 0x0 KECCAK256 DUP2 SWAP1 SSTORE POP DUP2 PUSH1 0x2 PUSH1 0x0 DUP3 DUP3 SLOAD PUSH2 0x163C SWAP2 SWAP1 PUSH2 0x1FFE JUMP JUMPDEST SWAP3 POP POP DUP2 SWAP1 SSTORE POP PUSH1 0x0 PUSH20 0xFFFFFFFFFFFFFFFFFFFFFFFFFFFFFFFFFFFFFFFF AND DUP4 PUSH20 0xFFFFFFFFFFFFFFFFFFFFFFFFFFFFFFFFFFFFFFFF AND PUSH32 0xDDF252AD1BE2C89B69C2B068FC378DAA952BA7F163C4A11628F55A4DF523B3EF DUP5 PUSH1 0x40 MLOAD PUSH2 0x16A1 SWAP2 SWAP1 PUSH2 0x1F56 JUMP JUMPDEST PUSH1 0x40 MLOAD DUP1 SWAP2 SUB SWAP1 LOG3 PUSH2 0x16B5 DUP4 PUSH1 0x0 DUP5 PUSH2 0x16BF JUMP JUMPDEST POP POP POP JUMP JUMPDEST POP POP POP JUMP JUMPDEST POP POP POP JUMP JUMPDEST PUSH1 0x0 DUP2 CALLDATALOAD SWAP1 POP PUSH2 0x16D3 DUP2 PUSH2 0x215B JUMP JUMPDEST SWAP3 SWAP2 POP POP JUMP JUMPDEST PUSH1 0x0 DUP2 CALLDATALOAD SWAP1 POP PUSH2 0x16E8 DUP2 PUSH2 0x2172 JUMP JUMPDEST SWAP3 SWAP2 POP POP JUMP JUMPDEST PUSH1 0x0 PUSH1 0x20 DUP3 DUP5 SUB SLT ISZERO PUSH2 0x1700 JUMPI PUSH1 0x0 DUP1 REVERT JUMPDEST PUSH1 0x0 PUSH2 0x170E DUP5 DUP3 DUP6 ADD PUSH2 0x16C4 JUMP JUMPDEST SWAP2 POP POP SWAP3 SWAP2 POP POP JUMP JUMPDEST PUSH1 0x0 DUP1 PUSH1 0x40 DUP4 DUP6 SUB SLT ISZERO PUSH2 0x172A JUMPI PUSH1 0x0 DUP1 REVERT JUMPDEST PUSH1 0x0 PUSH2 0x1738 DUP6 DUP3 DUP7 ADD PUSH2 0x16C4 JUMP JUMPDEST SWAP3 POP POP PUSH1 0x20 PUSH2 0x1749 DUP6 DUP3 DUP7 ADD PUSH2 0x16C4 JUMP JUMPDEST SWAP2 POP POP SWAP3 POP SWAP3 SWAP1 POP JUMP JUMPDEST PUSH1 0x0 DUP1 PUSH1 0x0 PUSH1 0x60 DUP5 DUP7 SUB SLT ISZERO PUSH2 0x1768 JUMPI PUSH1 0x0 DUP1 REVERT JUMPDEST PUSH1 0x0 PUSH2 0x1776 DUP7 DUP3 DUP8 ADD PUSH2 0x16C4 JUMP JUMPDEST SWAP4 POP POP PUSH1 0x20 PUSH2 0x1787 DUP7 DUP3 DUP8 ADD PUSH2 0x16C4 JUMP JUMPDEST SWAP3 POP POP PUSH1 0x40 PUSH2 0x1798 DUP7 DUP3 DUP8 ADD PUSH2 0x16D9 JUMP JUMPDEST SWAP2 POP POP SWAP3 POP SWAP3 POP SWAP3 JUMP JUMPDEST PUSH1 0x0 DUP1 PUSH1 0x40 DUP4 DUP6 SUB SLT ISZERO PUSH2 0x17B5 JUMPI PUSH1 0x0 DUP1 REVERT JUMPDEST PUSH1 0x0 PUSH2 0x17C3 DUP6 DUP3 DUP7 ADD PUSH2 0x16C4 JUMP JUMPDEST SWAP3 POP POP PUSH1 0x20 PUSH2 0x17D4 DUP6 DUP3 DUP7 ADD PUSH2 0x16D9 JUMP JUMPDEST SWAP2 POP POP SWAP3 POP SWAP3 SWAP1 POP JUMP JUMPDEST PUSH1 0x0 PUSH1 0x20 DUP3 DUP5 SUB SLT ISZERO PUSH2 0x17F0 JUMPI PUSH1 0x0 DUP1 REVERT JUMPDEST PUSH1 0x0 PUSH2 0x17FE DUP5 DUP3 DUP6 ADD PUSH2 0x16D9 JUMP JUMPDEST SWAP2 POP POP SWAP3 SWAP2 POP POP JUMP JUMPDEST PUSH2 0x1810 DUP2 PUSH2 0x2032 JUMP JUMPDEST DUP3 MSTORE POP POP JUMP JUMPDEST PUSH2 0x181F DUP2 PUSH2 0x2044 JUMP JUMPDEST DUP3 MSTORE POP POP JUMP JUMPDEST PUSH1 0x0 PUSH2 0x1830 DUP3 PUSH2 0x1F8C JUMP JUMPDEST PUSH2 0x183A DUP2 DUP6 PUSH2 0x1F97 JUMP JUMPDEST SWAP4 POP PUSH2 0x184A DUP2 DUP6 PUSH1 0x20 DUP7 ADD PUSH2 0x2087 JUMP JUMPDEST PUSH2 0x1853 DUP2 PUSH2 0x214A JUMP JUMPDEST DUP5 ADD SWAP2 POP POP SWAP3 SWAP2 POP POP JUMP JUMPDEST PUSH1 0x0 PUSH2 0x186B PUSH1 0x23 DUP4 PUSH2 0x1F97 JUMP JUMPDEST SWAP2 POP PUSH32 0x45524332303A207472616E7366657220746F20746865207A65726F2061646472 PUSH1 0x0 DUP4 ADD MSTORE PUSH32 0x6573730000000000000000000000000000000000000000000000000000000000 PUSH1 0x20 DUP4 ADD MSTORE PUSH1 0x40 DUP3 ADD SWAP1 POP SWAP2 SWAP1 POP JUMP JUMPDEST PUSH1 0x0 PUSH2 0x18D1 PUSH1 0x22 DUP4 PUSH2 0x1F97 JUMP JUMPDEST SWAP2 POP PUSH32 0x45524332303A206275726E20616D6F756E7420657863656564732062616C616E PUSH1 0x0 DUP4 ADD MSTORE PUSH32 0x6365000000000000000000000000000000000000000000000000000000000000 PUSH1 0x20 DUP4 ADD MSTORE PUSH1 0x40 DUP3 ADD SWAP1 POP SWAP2 SWAP1 POP JUMP JUMPDEST PUSH1 0x0 PUSH2 0x1937 PUSH1 0x26 DUP4 PUSH2 0x1F97 JUMP JUMPDEST SWAP2 POP PUSH32 0x4F776E61626C653A206E6577206F776E657220697320746865207A65726F2061 PUSH1 0x0 DUP4 ADD MSTORE PUSH32 0x6464726573730000000000000000000000000000000000000000000000000000 PUSH1 0x20 DUP4 ADD MSTORE PUSH1 0x40 DUP3 ADD SWAP1 POP SWAP2 SWAP1 POP JUMP JUMPDEST PUSH1 0x0 PUSH2 0x199D PUSH1 0x22 DUP4 PUSH2 0x1F97 JUMP JUMPDEST SWAP2 POP PUSH32 0x45524332303A20617070726F766520746F20746865207A65726F206164647265 PUSH1 0x0 DUP4 ADD MSTORE PUSH32 0x7373000000000000000000000000000000000000000000000000000000000000 PUSH1 0x20 DUP4 ADD MSTORE PUSH1 0x40 DUP3 ADD SWAP1 POP SWAP2 SWAP1 POP JUMP JUMPDEST PUSH1 0x0 PUSH2 0x1A03 PUSH1 0x26 DUP4 PUSH2 0x1F97 JUMP JUMPDEST SWAP2 POP PUSH32 0x45524332303A207472616E7366657220616D6F756E7420657863656564732062 PUSH1 0x0 DUP4 ADD MSTORE PUSH32 0x616C616E63650000000000000000000000000000000000000000000000000000 PUSH1 0x20 DUP4 ADD MSTORE PUSH1 0x40 DUP3 ADD SWAP1 POP SWAP2 SWAP1 POP JUMP JUMPDEST PUSH1 0x0 PUSH2 0x1A69 PUSH1 0x24 DUP4 PUSH2 0x1F97 JUMP JUMPDEST SWAP2 POP PUSH32 0x4F776E61626C653A2063616C6C6572206973206E6F74206F776E65722F6D616E PUSH1 0x0 DUP4 ADD MSTORE PUSH32 0x6167657200000000000000000000000000000000000000000000000000000000 PUSH1 0x20 DUP4 ADD MSTORE PUSH1 0x40 DUP3 ADD SWAP1 POP SWAP2 SWAP1 POP JUMP JUMPDEST PUSH1 0x0 PUSH2 0x1ACF PUSH1 0x28 DUP4 PUSH2 0x1F97 JUMP JUMPDEST SWAP2 POP PUSH32 0x45524332303A207472616E7366657220616D6F756E7420657863656564732061 PUSH1 0x0 DUP4 ADD MSTORE PUSH32 0x6C6C6F77616E6365000000000000000000000000000000000000000000000000 PUSH1 0x20 DUP4 ADD MSTORE PUSH1 0x40 DUP3 ADD SWAP1 POP SWAP2 SWAP1 POP JUMP JUMPDEST PUSH1 0x0 PUSH2 0x1B35 PUSH1 0x20 DUP4 PUSH2 0x1F97 JUMP JUMPDEST SWAP2 POP PUSH32 0x4F776E61626C653A2063616C6C6572206973206E6F7420746865206F776E6572 PUSH1 0x0 DUP4 ADD MSTORE PUSH1 0x20 DUP3 ADD SWAP1 POP SWAP2 SWAP1 POP JUMP JUMPDEST PUSH1 0x0 PUSH2 0x1B75 PUSH1 0x21 DUP4 PUSH2 0x1F97 JUMP JUMPDEST SWAP2 POP PUSH32 0x45524332303A206275726E2066726F6D20746865207A65726F20616464726573 PUSH1 0x0 DUP4 ADD MSTORE PUSH32 0x7300000000000000000000000000000000000000000000000000000000000000 PUSH1 0x20 DUP4 ADD MSTORE PUSH1 0x40 DUP3 ADD SWAP1 POP SWAP2 SWAP1 POP JUMP JUMPDEST PUSH1 0x0 PUSH2 0x1BDB PUSH1 0x25 DUP4 PUSH2 0x1F97 JUMP JUMPDEST SWAP2 POP PUSH32 0x45524332303A207472616E736665722066726F6D20746865207A65726F206164 PUSH1 0x0 DUP4 ADD MSTORE PUSH32 0x6472657373000000000000000000000000000000000000000000000000000000 PUSH1 0x20 DUP4 ADD MSTORE PUSH1 0x40 DUP3 ADD SWAP1 POP SWAP2 SWAP1 POP JUMP JUMPDEST PUSH1 0x0 PUSH2 0x1C41 PUSH1 0x24 DUP4 PUSH2 0x1F97 JUMP JUMPDEST SWAP2 POP PUSH32 0x45524332303A20617070726F76652066726F6D20746865207A65726F20616464 PUSH1 0x0 DUP4 ADD MSTORE PUSH32 0x7265737300000000000000000000000000000000000000000000000000000000 PUSH1 0x20 DUP4 ADD MSTORE PUSH1 0x40 DUP3 ADD SWAP1 POP SWAP2 SWAP1 POP JUMP JUMPDEST PUSH1 0x0 PUSH2 0x1CA7 PUSH1 0x25 DUP4 PUSH2 0x1F97 JUMP JUMPDEST SWAP2 POP PUSH32 0x45524332303A2064656372656173656420616C6C6F77616E63652062656C6F77 PUSH1 0x0 DUP4 ADD MSTORE PUSH32 0x207A65726F000000000000000000000000000000000000000000000000000000 PUSH1 0x20 DUP4 ADD MSTORE PUSH1 0x40 DUP3 ADD SWAP1 POP SWAP2 SWAP1 POP JUMP JUMPDEST PUSH1 0x0 PUSH2 0x1D0D PUSH1 0x1F DUP4 PUSH2 0x1F97 JUMP JUMPDEST SWAP2 POP PUSH32 0x45524332303A206D696E7420746F20746865207A65726F206164647265737300 PUSH1 0x0 DUP4 ADD MSTORE PUSH1 0x20 DUP3 ADD SWAP1 POP SWAP2 SWAP1 POP JUMP JUMPDEST PUSH2 0x1D49 DUP2 PUSH2 0x2070 JUMP JUMPDEST DUP3 MSTORE POP POP JUMP JUMPDEST PUSH2 0x1D58 DUP2 PUSH2 0x207A JUMP JUMPDEST DUP3 MSTORE POP POP JUMP JUMPDEST PUSH1 0x0 PUSH1 0x20 DUP3 ADD SWAP1 POP PUSH2 0x1D73 PUSH1 0x0 DUP4 ADD DUP5 PUSH2 0x1807 JUMP JUMPDEST SWAP3 SWAP2 POP POP JUMP JUMPDEST PUSH1 0x0 PUSH1 0x20 DUP3 ADD SWAP1 POP PUSH2 0x1D8E PUSH1 0x0 DUP4 ADD DUP5 PUSH2 0x1816 JUMP JUMPDEST SWAP3 SWAP2 POP POP JUMP JUMPDEST PUSH1 0x0 PUSH1 0x20 DUP3 ADD SWAP1 POP DUP2 DUP2 SUB PUSH1 0x0 DUP4 ADD MSTORE PUSH2 0x1DAE DUP2 DUP5 PUSH2 0x1825 JUMP JUMPDEST SWAP1 POP SWAP3 SWAP2 POP POP JUMP JUMPDEST PUSH1 0x0 PUSH1 0x20 DUP3 ADD SWAP1 POP DUP2 DUP2 SUB PUSH1 0x0 DUP4 ADD MSTORE PUSH2 0x1DCF DUP2 PUSH2 0x185E JUMP JUMPDEST SWAP1 POP SWAP2 SWAP1 POP JUMP JUMPDEST PUSH1 0x0 PUSH1 0x20 DUP3 ADD SWAP1 POP DUP2 DUP2 SUB PUSH1 0x0 DUP4 ADD MSTORE PUSH2 0x1DEF DUP2 PUSH2 0x18C4 JUMP JUMPDEST SWAP1 POP SWAP2 SWAP1 POP JUMP JUMPDEST PUSH1 0x0 PUSH1 0x20 DUP3 ADD SWAP1 POP DUP2 DUP2 SUB PUSH1 0x0 DUP4 ADD MSTORE PUSH2 0x1E0F DUP2 PUSH2 0x192A JUMP JUMPDEST SWAP1 POP SWAP2 SWAP1 POP JUMP JUMPDEST PUSH1 0x0 PUSH1 0x20 DUP3 ADD SWAP1 POP DUP2 DUP2 SUB PUSH1 0x0 DUP4 ADD MSTORE PUSH2 0x1E2F DUP2 PUSH2 0x1990 JUMP JUMPDEST SWAP1 POP SWAP2 SWAP1 POP JUMP JUMPDEST PUSH1 0x0 PUSH1 0x20 DUP3 ADD SWAP1 POP DUP2 DUP2 SUB PUSH1 0x0 DUP4 ADD MSTORE PUSH2 0x1E4F DUP2 PUSH2 0x19F6 JUMP JUMPDEST SWAP1 POP SWAP2 SWAP1 POP JUMP JUMPDEST PUSH1 0x0 PUSH1 0x20 DUP3 ADD SWAP1 POP DUP2 DUP2 SUB PUSH1 0x0 DUP4 ADD MSTORE PUSH2 0x1E6F DUP2 PUSH2 0x1A5C JUMP JUMPDEST SWAP1 POP SWAP2 SWAP1 POP JUMP JUMPDEST PUSH1 0x0 PUSH1 0x20 DUP3 ADD SWAP1 POP DUP2 DUP2 SUB PUSH1 0x0 DUP4 ADD MSTORE PUSH2 0x1E8F DUP2 PUSH2 0x1AC2 JUMP JUMPDEST SWAP1 POP SWAP2 SWAP1 POP JUMP JUMPDEST PUSH1 0x0 PUSH1 0x20 DUP3 ADD SWAP1 POP DUP2 DUP2 SUB PUSH1 0x0 DUP4 ADD MSTORE PUSH2 0x1EAF DUP2 PUSH2 0x1B28 JUMP JUMPDEST SWAP1 POP SWAP2 SWAP1 POP JUMP JUMPDEST PUSH1 0x0 PUSH1 0x20 DUP3 ADD SWAP1 POP DUP2 DUP2 SUB PUSH1 0x0 DUP4 ADD MSTORE PUSH2 0x1ECF DUP2 PUSH2 0x1B68 JUMP JUMPDEST SWAP1 POP SWAP2 SWAP1 POP JUMP JUMPDEST PUSH1 0x0 PUSH1 0x20 DUP3 ADD SWAP1 POP DUP2 DUP2 SUB PUSH1 0x0 DUP4 ADD MSTORE PUSH2 0x1EEF DUP2 PUSH2 0x1BCE JUMP JUMPDEST SWAP1 POP SWAP2 SWAP1 POP JUMP JUMPDEST PUSH1 0x0 PUSH1 0x20 DUP3 ADD SWAP1 POP DUP2 DUP2 SUB PUSH1 0x0 DUP4 ADD MSTORE PUSH2 0x1F0F DUP2 PUSH2 0x1C34 JUMP JUMPDEST SWAP1 POP SWAP2 SWAP1 POP JUMP JUMPDEST PUSH1 0x0 PUSH1 0x20 DUP3 ADD SWAP1 POP DUP2 DUP2 SUB PUSH1 0x0 DUP4 ADD MSTORE PUSH2 0x1F2F DUP2 PUSH2 0x1C9A JUMP JUMPDEST SWAP1 POP SWAP2 SWAP1 POP JUMP JUMPDEST PUSH1 0x0 PUSH1 0x20 DUP3 ADD SWAP1 POP DUP2 DUP2 SUB PUSH1 0x0 DUP4 ADD MSTORE PUSH2 0x1F4F DUP2 PUSH2 0x1D00 JUMP JUMPDEST SWAP1 POP SWAP2 SWAP1 POP JUMP JUMPDEST PUSH1 0x0 PUSH1 0x20 DUP3 ADD SWAP1 POP PUSH2 0x1F6B PUSH1 0x0 DUP4 ADD DUP5 PUSH2 0x1D40 JUMP JUMPDEST SWAP3 SWAP2 POP POP JUMP JUMPDEST PUSH1 0x0 PUSH1 0x20 DUP3 ADD SWAP1 POP PUSH2 0x1F86 PUSH1 0x0 DUP4 ADD DUP5 PUSH2 0x1D4F JUMP JUMPDEST SWAP3 SWAP2 POP POP JUMP JUMPDEST PUSH1 0x0 DUP2 MLOAD SWAP1 POP SWAP2 SWAP1 POP JUMP JUMPDEST PUSH1 0x0 DUP3 DUP3 MSTORE PUSH1 0x20 DUP3 ADD SWAP1 POP SWAP3 SWAP2 POP POP JUMP JUMPDEST PUSH1 0x0 PUSH2 0x1FB3 DUP3 PUSH2 0x2070 JUMP JUMPDEST SWAP2 POP PUSH2 0x1FBE DUP4 PUSH2 0x2070 JUMP JUMPDEST SWAP3 POP DUP3 PUSH32 0xFFFFFFFFFFFFFFFFFFFFFFFFFFFFFFFFFFFFFFFFFFFFFFFFFFFFFFFFFFFFFFFF SUB DUP3 GT ISZERO PUSH2 0x1FF3 JUMPI PUSH2 0x1FF2 PUSH2 0x20EC JUMP JUMPDEST JUMPDEST DUP3 DUP3 ADD SWAP1 POP SWAP3 SWAP2 POP POP JUMP JUMPDEST PUSH1 0x0 PUSH2 0x2009 DUP3 PUSH2 0x2070 JUMP JUMPDEST SWAP2 POP PUSH2 0x2014 DUP4 PUSH2 0x2070 JUMP JUMPDEST SWAP3 POP DUP3 DUP3 LT ISZERO PUSH2 0x2027 JUMPI PUSH2 0x2026 PUSH2 0x20EC JUMP JUMPDEST JUMPDEST DUP3 DUP3 SUB SWAP1 POP SWAP3 SWAP2 POP POP JUMP JUMPDEST PUSH1 0x0 PUSH2 0x203D DUP3 PUSH2 0x2050 JUMP JUMPDEST SWAP1 POP SWAP2 SWAP1 POP JUMP JUMPDEST PUSH1 0x0 DUP2 ISZERO ISZERO SWAP1 POP SWAP2 SWAP1 POP JUMP JUMPDEST PUSH1 0x0 PUSH20 0xFFFFFFFFFFFFFFFFFFFFFFFFFFFFFFFFFFFFFFFF DUP3 AND SWAP1 POP SWAP2 SWAP1 POP JUMP JUMPDEST PUSH1 0x0 DUP2 SWAP1 POP SWAP2 SWAP1 POP JUMP JUMPDEST PUSH1 0x0 PUSH1 0xFF DUP3 AND SWAP1 POP SWAP2 SWAP1 POP JUMP JUMPDEST PUSH1 0x0 JUMPDEST DUP4 DUP2 LT ISZERO PUSH2 0x20A5 JUMPI DUP1 DUP3 ADD MLOAD DUP2 DUP5 ADD MSTORE PUSH1 0x20 DUP2 ADD SWAP1 POP PUSH2 0x208A JUMP JUMPDEST DUP4 DUP2 GT ISZERO PUSH2 0x20B4 JUMPI PUSH1 0x0 DUP5 DUP5 ADD MSTORE JUMPDEST POP POP POP POP JUMP JUMPDEST PUSH1 0x0 PUSH1 0x2 DUP3 DIV SWAP1 POP PUSH1 0x1 DUP3 AND DUP1 PUSH2 0x20D2 JUMPI PUSH1 0x7F DUP3 AND SWAP2 POP JUMPDEST PUSH1 0x20 DUP3 LT DUP2 EQ ISZERO PUSH2 0x20E6 JUMPI PUSH2 0x20E5 PUSH2 0x211B JUMP JUMPDEST JUMPDEST POP SWAP2 SWAP1 POP JUMP JUMPDEST PUSH32 0x4E487B7100000000000000000000000000000000000000000000000000000000 PUSH1 0x0 MSTORE PUSH1 0x11 PUSH1 0x4 MSTORE PUSH1 0x24 PUSH1 0x0 REVERT JUMPDEST PUSH32 0x4E487B7100000000000000000000000000000000000000000000000000000000 PUSH1 0x0 MSTORE PUSH1 0x22 PUSH1 0x4 MSTORE PUSH1 0x24 PUSH1 0x0 REVERT JUMPDEST PUSH1 0x0 PUSH1 0x1F NOT PUSH1 0x1F DUP4 ADD AND SWAP1 POP SWAP2 SWAP1 POP JUMP JUMPDEST PUSH2 0x2164 DUP2 PUSH2 0x2032 JUMP JUMPDEST DUP2 EQ PUSH2 0x216F JUMPI PUSH1 0x0 DUP1 REVERT JUMPDEST POP JUMP JUMPDEST PUSH2 0x217B DUP2 PUSH2 0x2070 JUMP JUMPDEST DUP2 EQ PUSH2 0x2186 JUMPI PUSH1 0x0 DUP1 REVERT JUMPDEST POP JUMP INVALID LOG2 PUSH5 0x6970667358 0x22 SLT KECCAK256 0xDD SWAP5 0xDC 0xB6 0xAC INVALID JUMPDEST DUP13 0xC3 0xD3 PUSH9 0xB97026DC056F6C12CF DUP1 DUP7 PUSH13 0x4F9240E7667559B90864736F6C PUSH4 0x43000800 STOP CALLER "
				},
				"gasEstimates": {
					"creation": {
						"codeDepositCost": "1727800",
						"executionCost": "infinite",
						"totalCost": "infinite"
					},
					"external": {
						"addManager(address)": "23501",
						"allowance(address,address)": "infinite",
						"approve(address,uint256)": "infinite",
						"balanceOf(address)": "1564",
						"burn(uint256)": "infinite",
						"decimals()": "388",
						"decreaseAllowance(address,uint256)": "infinite",
						"increaseAllowance(address,uint256)": "infinite",
						"mint(address,uint256)": "infinite",
						"name()": "infinite",
						"owner()": "1289",
						"removeManager(address)": "23544",
						"renounceOwnership()": "24342",
						"symbol()": "infinite",
						"totalSupply()": "1205",
						"transfer(address,uint256)": "infinite",
						"transferFrom(address,address,uint256)": "infinite",
						"transferOwnership(address)": "24756"
					}
				},
				"methodIdentifiers": {
					"addManager(address)": "2d06177a",
					"allowance(address,address)": "dd62ed3e",
					"approve(address,uint256)": "095ea7b3",
					"balanceOf(address)": "70a08231",
					"burn(uint256)": "42966c68",
					"decimals()": "313ce567",
					"decreaseAllowance(address,uint256)": "a457c2d7",
					"increaseAllowance(address,uint256)": "39509351",
					"mint(address,uint256)": "40c10f19",
					"name()": "06fdde03",
					"owner()": "8da5cb5b",
					"removeManager(address)": "ac18de43",
					"renounceOwnership()": "715018a6",
					"symbol()": "95d89b41",
					"totalSupply()": "18160ddd",
					"transfer(address,uint256)": "a9059cbb",
					"transferFrom(address,address,uint256)": "23b872dd",
					"transferOwnership(address)": "f2fde38b"
				}
			},
			"storageLayout": {
				"storage": [
					{
						"astId": 130,
						"contract": "atta-movies/PopcornERC20.sol:ERC20Minter",
						"label": "_balances",
						"offset": 0,
						"slot": "0",
						"type": "t_mapping(t_address,t_uint256)"
					},
					{
						"astId": 136,
						"contract": "atta-movies/PopcornERC20.sol:ERC20Minter",
						"label": "_allowances",
						"offset": 0,
						"slot": "1",
						"type": "t_mapping(t_address,t_mapping(t_address,t_uint256))"
					},
					{
						"astId": 138,
						"contract": "atta-movies/PopcornERC20.sol:ERC20Minter",
						"label": "_totalSupply",
						"offset": 0,
						"slot": "2",
						"type": "t_uint256"
					},
					{
						"astId": 140,
						"contract": "atta-movies/PopcornERC20.sol:ERC20Minter",
						"label": "_name",
						"offset": 0,
						"slot": "3",
						"type": "t_string_storage"
					},
					{
						"astId": 142,
						"contract": "atta-movies/PopcornERC20.sol:ERC20Minter",
						"label": "_symbol",
						"offset": 0,
						"slot": "4",
						"type": "t_string_storage"
					},
					{
						"astId": 665,
						"contract": "atta-movies/PopcornERC20.sol:ERC20Minter",
						"label": "_owner",
						"offset": 0,
						"slot": "5",
						"type": "t_address"
					},
					{
						"astId": 669,
						"contract": "atta-movies/PopcornERC20.sol:ERC20Minter",
						"label": "_managers",
						"offset": 0,
						"slot": "6",
						"type": "t_mapping(t_address,t_bool)"
					}
				],
				"types": {
					"t_address": {
						"encoding": "inplace",
						"label": "address",
						"numberOfBytes": "20"
					},
					"t_bool": {
						"encoding": "inplace",
						"label": "bool",
						"numberOfBytes": "1"
					},
					"t_mapping(t_address,t_bool)": {
						"encoding": "mapping",
						"key": "t_address",
						"label": "mapping(address => bool)",
						"numberOfBytes": "32",
						"value": "t_bool"
					},
					"t_mapping(t_address,t_mapping(t_address,t_uint256))": {
						"encoding": "mapping",
						"key": "t_address",
						"label": "mapping(address => mapping(address => uint256))",
						"numberOfBytes": "32",
						"value": "t_mapping(t_address,t_uint256)"
					},
					"t_mapping(t_address,t_uint256)": {
						"encoding": "mapping",
						"key": "t_address",
						"label": "mapping(address => uint256)",
						"numberOfBytes": "32",
						"value": "t_uint256"
					},
					"t_string_storage": {
						"encoding": "bytes",
						"label": "string",
						"numberOfBytes": "32"
					},
					"t_uint256": {
						"encoding": "inplace",
						"label": "uint256",
						"numberOfBytes": "32"
					}
				}
			},
			"userdoc": {
				"kind": "user",
				"methods": {},
				"version": 1
			}
		}
	}
}