{
	"atta-movies/PopcornClaimer.sol": {
		"PopcornClaimer": {
			"abi": [
				{
					"inputs": [
						{
							"internalType": "address",
							"name": "_popcornToken",
							"type": "address"
						},
						{
							"internalType": "address",
							"name": "_treasury",
							"type": "address"
						}
					],
					"stateMutability": "nonpayable",
					"type": "constructor"
				},
				{
					"anonymous": false,
					"inputs": [
						{
							"indexed": true,
							"internalType": "address",
							"name": "user",
							"type": "address"
						},
						{
							"indexed": false,
							"internalType": "uint256",
							"name": "value",
							"type": "uint256"
						}
					],
					"name": "Claimed",
					"type": "event"
				},
				{
					"anonymous": false,
					"inputs": [
						{
							"indexed": true,
							"internalType": "address",
							"name": "previousOwner",
							"type": "address"
						},
						{
							"indexed": true,
							"internalType": "address",
							"name": "newOwner",
							"type": "address"
						}
					],
					"name": "OwnershipTransferred",
					"type": "event"
				},
				{
					"anonymous": false,
					"inputs": [
						{
							"indexed": true,
							"internalType": "address",
							"name": "user",
							"type": "address"
						},
						{
							"indexed": false,
							"internalType": "uint256",
							"name": "value",
							"type": "uint256"
						}
					],
					"name": "Release",
					"type": "event"
				},
				{
					"inputs": [
						{
							"internalType": "address",
							"name": "",
							"type": "address"
						}
					],
					"name": "availableUnclaimedToken",
					"outputs": [
						{
							"internalType": "uint256",
							"name": "",
							"type": "uint256"
						}
					],
					"stateMutability": "view",
					"type": "function"
				},
				{
					"inputs": [
						{
							"internalType": "address[]",
							"name": "users",
							"type": "address[]"
						},
						{
							"internalType": "uint256[]",
							"name": "amounts",
							"type": "uint256[]"
						}
					],
					"name": "batchRelease",
					"outputs": [],
					"stateMutability": "nonpayable",
					"type": "function"
				},
				{
					"inputs": [
						{
							"internalType": "address",
							"name": "user",
							"type": "address"
						}
					],
					"name": "claim",
					"outputs": [],
					"stateMutability": "nonpayable",
					"type": "function"
				},
				{
					"inputs": [],
					"name": "owner",
					"outputs": [
						{
							"internalType": "address",
							"name": "",
							"type": "address"
						}
					],
					"stateMutability": "view",
					"type": "function"
				},
				{
					"inputs": [],
					"name": "renounceOwnership",
					"outputs": [],
					"stateMutability": "nonpayable",
					"type": "function"
				},
				{
					"inputs": [
						{
							"internalType": "address",
							"name": "_treasury",
							"type": "address"
						}
					],
					"name": "setTreasury",
					"outputs": [],
					"stateMutability": "nonpayable",
					"type": "function"
				},
				{
					"inputs": [
						{
							"internalType": "address",
							"name": "newOwner",
							"type": "address"
						}
					],
					"name": "transferOwnership",
					"outputs": [],
					"stateMutability": "nonpayable",
					"type": "function"
				},
				{
					"inputs": [],
					"name": "treasury",
					"outputs": [
						{
							"internalType": "address",
							"name": "",
							"type": "address"
						}
					],
					"stateMutability": "view",
					"type": "function"
				}
			],
			"devdoc": {
				"kind": "dev",
				"methods": {
					"owner()": {
						"details": "Returns the address of the current owner."
					},
					"renounceOwnership()": {
						"details": "Leaves the contract without owner. It will not be possible to call `onlyOwner` functions anymore. Can only be called by the current owner. NOTE: Renouncing ownership will leave the contract without an owner, thereby removing any functionality that is only available to the owner."
					},
					"transferOwnership(address)": {
						"details": "Transfers ownership of the contract to a new account (`newOwner`). Can only be called by the current owner."
					}
				},
				"version": 1
			},
			"evm": {
				"assembly": "    /* \"atta-movies/PopcornClaimer.sol\":3235:4638  contract PopcornClaimer is Ownable {\r... */\n  mstore(0x40, 0x80)\n    /* \"atta-movies/PopcornClaimer.sol\":3520:3667  constructor (address _popcornToken, address _treasury) {\r... */\n  callvalue\n  dup1\n  iszero\n  tag_1\n  jumpi\n  0x00\n  dup1\n  revert\ntag_1:\n  pop\n  mload(0x40)\n  sub(codesize, bytecodeSize)\n  dup1\n  bytecodeSize\n  dup4\n  codecopy\n  dup2\n  dup2\n  add\n  0x40\n  mstore\n  dup2\n  add\n  swap1\n  tag_2\n  swap2\n  swap1\n  tag_3\n  jump\t// in\ntag_2:\n    /* \"atta-movies/PopcornClaimer.sol\":1784:1801  address msgSender */\n  0x00\n    /* \"atta-movies/PopcornClaimer.sol\":1804:1816  _msgSender() */\n  tag_7\n    /* \"atta-movies/PopcornClaimer.sol\":1804:1814  _msgSender */\n  shl(0x20, tag_8)\n    /* \"atta-movies/PopcornClaimer.sol\":1804:1816  _msgSender() */\n  0x20\n  shr\n  jump\t// in\ntag_7:\n    /* \"atta-movies/PopcornClaimer.sol\":1784:1816  address msgSender = _msgSender() */\n  swap1\n  pop\n    /* \"atta-movies/PopcornClaimer.sol\":1836:1845  msgSender */\n  dup1\n    /* \"atta-movies/PopcornClaimer.sol\":1827:1833  _owner */\n  0x00\n  dup1\n    /* \"atta-movies/PopcornClaimer.sol\":1827:1845  _owner = msgSender */\n  0x0100\n  exp\n  dup2\n  sload\n  dup2\n  0xffffffffffffffffffffffffffffffffffffffff\n  mul\n  not\n  and\n  swap1\n  dup4\n  0xffffffffffffffffffffffffffffffffffffffff\n  and\n  mul\n  or\n  swap1\n  sstore\n  pop\n    /* \"atta-movies/PopcornClaimer.sol\":1894:1903  msgSender */\n  dup1\n    /* \"atta-movies/PopcornClaimer.sol\":1861:1904  OwnershipTransferred(address(0), msgSender) */\n  0xffffffffffffffffffffffffffffffffffffffff\n  and\n    /* \"atta-movies/PopcornClaimer.sol\":1890:1891  0 */\n  0x00\n    /* \"atta-movies/PopcornClaimer.sol\":1861:1904  OwnershipTransferred(address(0), msgSender) */\n  0xffffffffffffffffffffffffffffffffffffffff\n  and\n  0x8be0079c531659141344cd1fd0a4f28419497f9722a3daafe3b4186f6b6457e0\n  mload(0x40)\n  mload(0x40)\n  dup1\n  swap2\n  sub\n  swap1\n  log3\n    /* \"atta-movies/PopcornClaimer.sol\":1773:1912  {\r... */\n  pop\n    /* \"atta-movies/PopcornClaimer.sol\":3614:3627  _popcornToken */\n  dup2\n    /* \"atta-movies/PopcornClaimer.sol\":3586:3598  popcornToken */\n  0x01\n  0x00\n    /* \"atta-movies/PopcornClaimer.sol\":3586:3628  popcornToken = IERC20Minter(_popcornToken) */\n  0x0100\n  exp\n  dup2\n  sload\n  dup2\n  0xffffffffffffffffffffffffffffffffffffffff\n  mul\n  not\n  and\n  swap1\n  dup4\n  0xffffffffffffffffffffffffffffffffffffffff\n  and\n  mul\n  or\n  swap1\n  sstore\n  pop\n    /* \"atta-movies/PopcornClaimer.sol\":3650:3659  _treasury */\n  dup1\n    /* \"atta-movies/PopcornClaimer.sol\":3639:3647  treasury */\n  0x02\n  0x00\n    /* \"atta-movies/PopcornClaimer.sol\":3639:3659  treasury = _treasury */\n  0x0100\n  exp\n  dup2\n  sload\n  dup2\n  0xffffffffffffffffffffffffffffffffffffffff\n  mul\n  not\n  and\n  swap1\n  dup4\n  0xffffffffffffffffffffffffffffffffffffffff\n  and\n  mul\n  or\n  swap1\n  sstore\n  pop\n    /* \"atta-movies/PopcornClaimer.sol\":3520:3667  constructor (address _popcornToken, address _treasury) {\r... */\n  pop\n  pop\n    /* \"atta-movies/PopcornClaimer.sol\":3235:4638  contract PopcornClaimer is Ownable {\r... */\n  jump(tag_10)\n    /* \"atta-movies/PopcornClaimer.sol\":771:869  function _msgSender() internal view virtual returns (address) {\r... */\ntag_8:\n    /* \"atta-movies/PopcornClaimer.sol\":824:831  address */\n  0x00\n    /* \"atta-movies/PopcornClaimer.sol\":851:861  msg.sender */\n  caller\n    /* \"atta-movies/PopcornClaimer.sol\":844:861  return msg.sender */\n  swap1\n  pop\n    /* \"atta-movies/PopcornClaimer.sol\":771:869  function _msgSender() internal view virtual returns (address) {\r... */\n  swap1\n  jump\t// out\n    /* \"#utility.yul\":7:150   */\ntag_13:\n    /* \"#utility.yul\":64:69   */\n  0x00\n    /* \"#utility.yul\":95:101   */\n  dup2\n    /* \"#utility.yul\":89:102   */\n  mload\n    /* \"#utility.yul\":80:102   */\n  swap1\n  pop\n    /* \"#utility.yul\":111:144   */\n  tag_15\n    /* \"#utility.yul\":138:143   */\n  dup2\n    /* \"#utility.yul\":111:144   */\n  tag_16\n  jump\t// in\ntag_15:\n    /* \"#utility.yul\":7:150   */\n  swap3\n  swap2\n  pop\n  pop\n  jump\t// out\n    /* \"#utility.yul\":156:663   */\ntag_3:\n    /* \"#utility.yul\":235:241   */\n  0x00\n    /* \"#utility.yul\":243:249   */\n  dup1\n    /* \"#utility.yul\":292:294   */\n  0x40\n    /* \"#utility.yul\":280:289   */\n  dup4\n    /* \"#utility.yul\":271:278   */\n  dup6\n    /* \"#utility.yul\":267:290   */\n  sub\n    /* \"#utility.yul\":263:295   */\n  slt\n    /* \"#utility.yul\":260:379   */\n  iszero\n  tag_18\n  jumpi\n    /* \"#utility.yul\":298:377   */\n  tag_19\n  tag_20\n  jump\t// in\ntag_19:\n    /* \"#utility.yul\":260:379   */\ntag_18:\n    /* \"#utility.yul\":418:419   */\n  0x00\n    /* \"#utility.yul\":443:507   */\n  tag_21\n    /* \"#utility.yul\":499:506   */\n  dup6\n    /* \"#utility.yul\":490:496   */\n  dup3\n    /* \"#utility.yul\":479:488   */\n  dup7\n    /* \"#utility.yul\":475:497   */\n  add\n    /* \"#utility.yul\":443:507   */\n  tag_13\n  jump\t// in\ntag_21:\n    /* \"#utility.yul\":433:507   */\n  swap3\n  pop\n    /* \"#utility.yul\":389:517   */\n  pop\n    /* \"#utility.yul\":556:558   */\n  0x20\n    /* \"#utility.yul\":582:646   */\n  tag_22\n    /* \"#utility.yul\":638:645   */\n  dup6\n    /* \"#utility.yul\":629:635   */\n  dup3\n    /* \"#utility.yul\":618:627   */\n  dup7\n    /* \"#utility.yul\":614:636   */\n  add\n    /* \"#utility.yul\":582:646   */\n  tag_13\n  jump\t// in\ntag_22:\n    /* \"#utility.yul\":572:646   */\n  swap2\n  pop\n    /* \"#utility.yul\":527:656   */\n  pop\n    /* \"#utility.yul\":156:663   */\n  swap3\n  pop\n  swap3\n  swap1\n  pop\n  jump\t// out\n    /* \"#utility.yul\":750:846   */\ntag_25:\n    /* \"#utility.yul\":787:794   */\n  0x00\n    /* \"#utility.yul\":816:840   */\n  tag_27\n    /* \"#utility.yul\":834:839   */\n  dup3\n    /* \"#utility.yul\":816:840   */\n  tag_28\n  jump\t// in\ntag_27:\n    /* \"#utility.yul\":805:840   */\n  swap1\n  pop\n    /* \"#utility.yul\":750:846   */\n  swap2\n  swap1\n  pop\n  jump\t// out\n    /* \"#utility.yul\":852:978   */\ntag_28:\n    /* \"#utility.yul\":889:896   */\n  0x00\n    /* \"#utility.yul\":929:971   */\n  0xffffffffffffffffffffffffffffffffffffffff\n    /* \"#utility.yul\":922:927   */\n  dup3\n    /* \"#utility.yul\":918:972   */\n  and\n    /* \"#utility.yul\":907:972   */\n  swap1\n  pop\n    /* \"#utility.yul\":852:978   */\n  swap2\n  swap1\n  pop\n  jump\t// out\n    /* \"#utility.yul\":1107:1224   */\ntag_20:\n    /* \"#utility.yul\":1216:1217   */\n  0x00\n    /* \"#utility.yul\":1213:1214   */\n  dup1\n    /* \"#utility.yul\":1206:1218   */\n  revert\n    /* \"#utility.yul\":1230:1352   */\ntag_16:\n    /* \"#utility.yul\":1303:1327   */\n  tag_34\n    /* \"#utility.yul\":1321:1326   */\n  dup2\n    /* \"#utility.yul\":1303:1327   */\n  tag_25\n  jump\t// in\ntag_34:\n    /* \"#utility.yul\":1296:1301   */\n  dup2\n    /* \"#utility.yul\":1293:1328   */\n  eq\n    /* \"#utility.yul\":1283:1346   */\n  tag_35\n  jumpi\n    /* \"#utility.yul\":1342:1343   */\n  0x00\n    /* \"#utility.yul\":1339:1340   */\n  dup1\n    /* \"#utility.yul\":1332:1344   */\n  revert\n    /* \"#utility.yul\":1283:1346   */\ntag_35:\n    /* \"#utility.yul\":1230:1352   */\n  pop\n  jump\t// out\n    /* \"atta-movies/PopcornClaimer.sol\":3235:4638  contract PopcornClaimer is Ownable {\r... */\ntag_10:\n  dataSize(sub_0)\n  dup1\n  dataOffset(sub_0)\n  0x00\n  codecopy\n  0x00\n  return\nstop\n\nsub_0: assembly {\n        /* \"atta-movies/PopcornClaimer.sol\":3235:4638  contract PopcornClaimer is Ownable {\r... */\n      mstore(0x40, 0x80)\n      callvalue\n      dup1\n      iszero\n      tag_1\n      jumpi\n      0x00\n      dup1\n      revert\n    tag_1:\n      pop\n      jumpi(tag_2, lt(calldatasize, 0x04))\n      shr(0xe0, calldataload(0x00))\n      dup1\n      0x8da5cb5b\n      gt\n      tag_11\n      jumpi\n      dup1\n      0x8da5cb5b\n      eq\n      tag_7\n      jumpi\n      dup1\n      0xb92b03cd\n      eq\n      tag_8\n      jumpi\n      dup1\n      0xf0f44260\n      eq\n      tag_9\n      jumpi\n      dup1\n      0xf2fde38b\n      eq\n      tag_10\n      jumpi\n      jump(tag_2)\n    tag_11:\n      dup1\n      0x1e83409a\n      eq\n      tag_3\n      jumpi\n      dup1\n      0x3f7e8975\n      eq\n      tag_4\n      jumpi\n      dup1\n      0x61d027b3\n      eq\n      tag_5\n      jumpi\n      dup1\n      0x715018a6\n      eq\n      tag_6\n      jumpi\n    tag_2:\n      0x00\n      dup1\n      revert\n        /* \"atta-movies/PopcornClaimer.sol\":4152:4529  function claim(address user) external {\r... */\n    tag_3:\n      tag_12\n      0x04\n      dup1\n      calldatasize\n      sub\n      dup2\n      add\n      swap1\n      tag_13\n      swap2\n      swap1\n      tag_14\n      jump\t// in\n    tag_13:\n      tag_15\n      jump\t// in\n    tag_12:\n      stop\n        /* \"atta-movies/PopcornClaimer.sol\":3339:3397  mapping(address => uint256) public availableUnclaimedToken */\n    tag_4:\n      tag_16\n      0x04\n      dup1\n      calldatasize\n      sub\n      dup2\n      add\n      swap1\n      tag_17\n      swap2\n      swap1\n      tag_14\n      jump\t// in\n    tag_17:\n      tag_18\n      jump\t// in\n    tag_16:\n      mload(0x40)\n      tag_19\n      swap2\n      swap1\n      tag_20\n      jump\t// in\n    tag_19:\n      mload(0x40)\n      dup1\n      swap2\n      sub\n      swap1\n      return\n        /* \"atta-movies/PopcornClaimer.sol\":3309:3332  address public treasury */\n    tag_5:\n      tag_21\n      tag_22\n      jump\t// in\n    tag_21:\n      mload(0x40)\n      tag_23\n      swap2\n      swap1\n      tag_24\n      jump\t// in\n    tag_23:\n      mload(0x40)\n      dup1\n      swap2\n      sub\n      swap1\n      return\n        /* \"atta-movies/PopcornClaimer.sol\":2635:2783  function renounceOwnership() public virtual onlyOwner {\r... */\n    tag_6:\n      tag_25\n      tag_26\n      jump\t// in\n    tag_25:\n      stop\n        /* \"atta-movies/PopcornClaimer.sol\":1993:2072  function owner() public view returns (address) {\r... */\n    tag_7:\n      tag_27\n      tag_28\n      jump\t// in\n    tag_27:\n      mload(0x40)\n      tag_29\n      swap2\n      swap1\n      tag_24\n      jump\t// in\n    tag_29:\n      mload(0x40)\n      dup1\n      swap2\n      sub\n      swap1\n      return\n        /* \"atta-movies/PopcornClaimer.sol\":3675:4144  function batchRelease(address[] calldata users, uint256[] calldata amounts) external onlyOwner {\r... */\n    tag_8:\n      tag_30\n      0x04\n      dup1\n      calldatasize\n      sub\n      dup2\n      add\n      swap1\n      tag_31\n      swap2\n      swap1\n      tag_32\n      jump\t// in\n    tag_31:\n      tag_33\n      jump\t// in\n    tag_30:\n      stop\n        /* \"atta-movies/PopcornClaimer.sol\":4537:4635  function setTreasury(address _treasury) external onlyOwner {\r... */\n    tag_9:\n      tag_34\n      0x04\n      dup1\n      calldatasize\n      sub\n      dup2\n      add\n      swap1\n      tag_35\n      swap2\n      swap1\n      tag_14\n      jump\t// in\n    tag_35:\n      tag_36\n      jump\t// in\n    tag_34:\n      stop\n        /* \"atta-movies/PopcornClaimer.sol\":2938:3182  function transferOwnership(address newOwner) public virtual onlyOwner {\r... */\n    tag_10:\n      tag_37\n      0x04\n      dup1\n      calldatasize\n      sub\n      dup2\n      add\n      swap1\n      tag_38\n      swap2\n      swap1\n      tag_14\n      jump\t// in\n    tag_38:\n      tag_39\n      jump\t// in\n    tag_37:\n      stop\n        /* \"atta-movies/PopcornClaimer.sol\":4152:4529  function claim(address user) external {\r... */\n    tag_15:\n        /* \"atta-movies/PopcornClaimer.sol\":4237:4238  0 */\n      0x00\n        /* \"atta-movies/PopcornClaimer.sol\":4205:4228  availableUnclaimedToken */\n      0x03\n        /* \"atta-movies/PopcornClaimer.sol\":4205:4234  availableUnclaimedToken[user] */\n      0x00\n        /* \"atta-movies/PopcornClaimer.sol\":4229:4233  user */\n      dup4\n        /* \"atta-movies/PopcornClaimer.sol\":4205:4234  availableUnclaimedToken[user] */\n      0xffffffffffffffffffffffffffffffffffffffff\n      and\n      0xffffffffffffffffffffffffffffffffffffffff\n      and\n      dup2\n      mstore\n      0x20\n      add\n      swap1\n      dup2\n      mstore\n      0x20\n      add\n      0x00\n      keccak256\n      sload\n        /* \"atta-movies/PopcornClaimer.sol\":4205:4238  availableUnclaimedToken[user] > 0 */\n      gt\n        /* \"atta-movies/PopcornClaimer.sol\":4201:4522  if (availableUnclaimedToken[user] > 0) {\r... */\n      iszero\n      tag_41\n      jumpi\n        /* \"atta-movies/PopcornClaimer.sol\":4326:4338  popcornToken */\n      0x01\n      0x00\n      swap1\n      sload\n      swap1\n      0x0100\n      exp\n      swap1\n      div\n      0xffffffffffffffffffffffffffffffffffffffff\n      and\n        /* \"atta-movies/PopcornClaimer.sol\":4326:4351  popcornToken.transferFrom */\n      0xffffffffffffffffffffffffffffffffffffffff\n      and\n      0x23b872dd\n        /* \"atta-movies/PopcornClaimer.sol\":4352:4360  treasury */\n      0x02\n      0x00\n      swap1\n      sload\n      swap1\n      0x0100\n      exp\n      swap1\n      div\n      0xffffffffffffffffffffffffffffffffffffffff\n      and\n        /* \"atta-movies/PopcornClaimer.sol\":4362:4366  user */\n      dup4\n        /* \"atta-movies/PopcornClaimer.sol\":4368:4391  availableUnclaimedToken */\n      0x03\n        /* \"atta-movies/PopcornClaimer.sol\":4368:4397  availableUnclaimedToken[user] */\n      0x00\n        /* \"atta-movies/PopcornClaimer.sol\":4392:4396  user */\n      dup7\n        /* \"atta-movies/PopcornClaimer.sol\":4368:4397  availableUnclaimedToken[user] */\n      0xffffffffffffffffffffffffffffffffffffffff\n      and\n      0xffffffffffffffffffffffffffffffffffffffff\n      and\n      dup2\n      mstore\n      0x20\n      add\n      swap1\n      dup2\n      mstore\n      0x20\n      add\n      0x00\n      keccak256\n      sload\n        /* \"atta-movies/PopcornClaimer.sol\":4326:4398  popcornToken.transferFrom(treasury, user, availableUnclaimedToken[user]) */\n      mload(0x40)\n      dup5\n      0xffffffff\n      and\n      0xe0\n      shl\n      dup2\n      mstore\n      0x04\n      add\n      tag_42\n      swap4\n      swap3\n      swap2\n      swap1\n      tag_43\n      jump\t// in\n    tag_42:\n      0x20\n      mload(0x40)\n      dup1\n      dup4\n      sub\n      dup2\n      0x00\n      dup8\n      dup1\n      extcodesize\n      iszero\n      dup1\n      iszero\n      tag_44\n      jumpi\n      0x00\n      dup1\n      revert\n    tag_44:\n      pop\n      gas\n      call\n      iszero\n      dup1\n      iszero\n      tag_46\n      jumpi\n      returndatasize\n      0x00\n      dup1\n      returndatacopy\n      revert(0x00, returndatasize)\n    tag_46:\n      pop\n      pop\n      pop\n      pop\n      mload(0x40)\n      returndatasize\n      not(0x1f)\n      0x1f\n      dup3\n      add\n      and\n      dup3\n      add\n      dup1\n      0x40\n      mstore\n      pop\n      dup2\n      add\n      swap1\n      tag_47\n      swap2\n      swap1\n      tag_48\n      jump\t// in\n    tag_47:\n      pop\n        /* \"atta-movies/PopcornClaimer.sol\":4426:4430  user */\n      dup1\n        /* \"atta-movies/PopcornClaimer.sol\":4418:4462  Claimed(user, availableUnclaimedToken[user]) */\n      0xffffffffffffffffffffffffffffffffffffffff\n      and\n      0xd8138f8a3f377c5259ca548e70e4c2de94f129f5a11036a15b69513cba2b426a\n        /* \"atta-movies/PopcornClaimer.sol\":4432:4455  availableUnclaimedToken */\n      0x03\n        /* \"atta-movies/PopcornClaimer.sol\":4432:4461  availableUnclaimedToken[user] */\n      0x00\n        /* \"atta-movies/PopcornClaimer.sol\":4456:4460  user */\n      dup5\n        /* \"atta-movies/PopcornClaimer.sol\":4432:4461  availableUnclaimedToken[user] */\n      0xffffffffffffffffffffffffffffffffffffffff\n      and\n      0xffffffffffffffffffffffffffffffffffffffff\n      and\n      dup2\n      mstore\n      0x20\n      add\n      swap1\n      dup2\n      mstore\n      0x20\n      add\n      0x00\n      keccak256\n      sload\n        /* \"atta-movies/PopcornClaimer.sol\":4418:4462  Claimed(user, availableUnclaimedToken[user]) */\n      mload(0x40)\n      tag_49\n      swap2\n      swap1\n      tag_20\n      jump\t// in\n    tag_49:\n      mload(0x40)\n      dup1\n      swap2\n      sub\n      swap1\n      log2\n        /* \"atta-movies/PopcornClaimer.sol\":4509:4510  0 */\n      0x00\n        /* \"atta-movies/PopcornClaimer.sol\":4477:4500  availableUnclaimedToken */\n      0x03\n        /* \"atta-movies/PopcornClaimer.sol\":4477:4506  availableUnclaimedToken[user] */\n      0x00\n        /* \"atta-movies/PopcornClaimer.sol\":4501:4505  user */\n      dup4\n        /* \"atta-movies/PopcornClaimer.sol\":4477:4506  availableUnclaimedToken[user] */\n      0xffffffffffffffffffffffffffffffffffffffff\n      and\n      0xffffffffffffffffffffffffffffffffffffffff\n      and\n      dup2\n      mstore\n      0x20\n      add\n      swap1\n      dup2\n      mstore\n      0x20\n      add\n      0x00\n      keccak256\n        /* \"atta-movies/PopcornClaimer.sol\":4477:4510  availableUnclaimedToken[user] = 0 */\n      dup2\n      swap1\n      sstore\n      pop\n        /* \"atta-movies/PopcornClaimer.sol\":4201:4522  if (availableUnclaimedToken[user] > 0) {\r... */\n    tag_41:\n        /* \"atta-movies/PopcornClaimer.sol\":4152:4529  function claim(address user) external {\r... */\n      pop\n      jump\t// out\n        /* \"atta-movies/PopcornClaimer.sol\":3339:3397  mapping(address => uint256) public availableUnclaimedToken */\n    tag_18:\n      mstore(0x20, 0x03)\n      dup1\n      0x00\n      mstore\n      keccak256(0x00, 0x40)\n      0x00\n      swap2\n      pop\n      swap1\n      pop\n      sload\n      dup2\n      jump\t// out\n        /* \"atta-movies/PopcornClaimer.sol\":3309:3332  address public treasury */\n    tag_22:\n      0x02\n      0x00\n      swap1\n      sload\n      swap1\n      0x0100\n      exp\n      swap1\n      div\n      0xffffffffffffffffffffffffffffffffffffffff\n      and\n      dup2\n      jump\t// out\n        /* \"atta-movies/PopcornClaimer.sol\":2635:2783  function renounceOwnership() public virtual onlyOwner {\r... */\n    tag_26:\n        /* \"atta-movies/PopcornClaimer.sol\":2215:2227  _msgSender() */\n      tag_51\n        /* \"atta-movies/PopcornClaimer.sol\":2215:2225  _msgSender */\n      tag_52\n        /* \"atta-movies/PopcornClaimer.sol\":2215:2227  _msgSender() */\n      jump\t// in\n    tag_51:\n        /* \"atta-movies/PopcornClaimer.sol\":2205:2227  _owner == _msgSender() */\n      0xffffffffffffffffffffffffffffffffffffffff\n      and\n        /* \"atta-movies/PopcornClaimer.sol\":2205:2211  _owner */\n      0x00\n      dup1\n      sload\n      swap1\n      0x0100\n      exp\n      swap1\n      div\n      0xffffffffffffffffffffffffffffffffffffffff\n      and\n        /* \"atta-movies/PopcornClaimer.sol\":2205:2227  _owner == _msgSender() */\n      0xffffffffffffffffffffffffffffffffffffffff\n      and\n      eq\n        /* \"atta-movies/PopcornClaimer.sol\":2197:2264  require(_owner == _msgSender(), \"Ownable: caller is not the owner\") */\n      tag_53\n      jumpi\n      mload(0x40)\n      0x08c379a000000000000000000000000000000000000000000000000000000000\n      dup2\n      mstore\n      0x04\n      add\n      tag_54\n      swap1\n      tag_55\n      jump\t// in\n    tag_54:\n      mload(0x40)\n      dup1\n      swap2\n      sub\n      swap1\n      revert\n    tag_53:\n        /* \"atta-movies/PopcornClaimer.sol\":2742:2743  0 */\n      0x00\n        /* \"atta-movies/PopcornClaimer.sol\":2705:2745  OwnershipTransferred(_owner, address(0)) */\n      0xffffffffffffffffffffffffffffffffffffffff\n      and\n        /* \"atta-movies/PopcornClaimer.sol\":2726:2732  _owner */\n      0x00\n      dup1\n      sload\n      swap1\n      0x0100\n      exp\n      swap1\n      div\n      0xffffffffffffffffffffffffffffffffffffffff\n      and\n        /* \"atta-movies/PopcornClaimer.sol\":2705:2745  OwnershipTransferred(_owner, address(0)) */\n      0xffffffffffffffffffffffffffffffffffffffff\n      and\n      0x8be0079c531659141344cd1fd0a4f28419497f9722a3daafe3b4186f6b6457e0\n      mload(0x40)\n      mload(0x40)\n      dup1\n      swap2\n      sub\n      swap1\n      log3\n        /* \"atta-movies/PopcornClaimer.sol\":2773:2774  0 */\n      0x00\n        /* \"atta-movies/PopcornClaimer.sol\":2756:2762  _owner */\n      dup1\n      0x00\n        /* \"atta-movies/PopcornClaimer.sol\":2756:2775  _owner = address(0) */\n      0x0100\n      exp\n      dup2\n      sload\n      dup2\n      0xffffffffffffffffffffffffffffffffffffffff\n      mul\n      not\n      and\n      swap1\n      dup4\n      0xffffffffffffffffffffffffffffffffffffffff\n      and\n      mul\n      or\n      swap1\n      sstore\n      pop\n        /* \"atta-movies/PopcornClaimer.sol\":2635:2783  function renounceOwnership() public virtual onlyOwner {\r... */\n      jump\t// out\n        /* \"atta-movies/PopcornClaimer.sol\":1993:2072  function owner() public view returns (address) {\r... */\n    tag_28:\n        /* \"atta-movies/PopcornClaimer.sol\":2031:2038  address */\n      0x00\n        /* \"atta-movies/PopcornClaimer.sol\":2058:2064  _owner */\n      dup1\n      0x00\n      swap1\n      sload\n      swap1\n      0x0100\n      exp\n      swap1\n      div\n      0xffffffffffffffffffffffffffffffffffffffff\n      and\n        /* \"atta-movies/PopcornClaimer.sol\":2051:2064  return _owner */\n      swap1\n      pop\n        /* \"atta-movies/PopcornClaimer.sol\":1993:2072  function owner() public view returns (address) {\r... */\n      swap1\n      jump\t// out\n        /* \"atta-movies/PopcornClaimer.sol\":3675:4144  function batchRelease(address[] calldata users, uint256[] calldata amounts) external onlyOwner {\r... */\n    tag_33:\n        /* \"atta-movies/PopcornClaimer.sol\":2215:2227  _msgSender() */\n      tag_59\n        /* \"atta-movies/PopcornClaimer.sol\":2215:2225  _msgSender */\n      tag_52\n        /* \"atta-movies/PopcornClaimer.sol\":2215:2227  _msgSender() */\n      jump\t// in\n    tag_59:\n        /* \"atta-movies/PopcornClaimer.sol\":2205:2227  _owner == _msgSender() */\n      0xffffffffffffffffffffffffffffffffffffffff\n      and\n        /* \"atta-movies/PopcornClaimer.sol\":2205:2211  _owner */\n      0x00\n      dup1\n      sload\n      swap1\n      0x0100\n      exp\n      swap1\n      div\n      0xffffffffffffffffffffffffffffffffffffffff\n      and\n        /* \"atta-movies/PopcornClaimer.sol\":2205:2227  _owner == _msgSender() */\n      0xffffffffffffffffffffffffffffffffffffffff\n      and\n      eq\n        /* \"atta-movies/PopcornClaimer.sol\":2197:2264  require(_owner == _msgSender(), \"Ownable: caller is not the owner\") */\n      tag_60\n      jumpi\n      mload(0x40)\n      0x08c379a000000000000000000000000000000000000000000000000000000000\n      dup2\n      mstore\n      0x04\n      add\n      tag_61\n      swap1\n      tag_55\n      jump\t// in\n    tag_61:\n      mload(0x40)\n      dup1\n      swap2\n      sub\n      swap1\n      revert\n    tag_60:\n        /* \"atta-movies/PopcornClaimer.sol\":3805:3812  amounts */\n      dup2\n      dup2\n        /* \"atta-movies/PopcornClaimer.sol\":3805:3819  amounts.length */\n      swap1\n      pop\n        /* \"atta-movies/PopcornClaimer.sol\":3789:3794  users */\n      dup5\n      dup5\n        /* \"atta-movies/PopcornClaimer.sol\":3789:3801  users.length */\n      swap1\n      pop\n        /* \"atta-movies/PopcornClaimer.sol\":3789:3819  users.length == amounts.length */\n      eq\n        /* \"atta-movies/PopcornClaimer.sol\":3781:3866  require(users.length == amounts.length, \"users and amounts array length must match.\") */\n      tag_63\n      jumpi\n      mload(0x40)\n      0x08c379a000000000000000000000000000000000000000000000000000000000\n      dup2\n      mstore\n      0x04\n      add\n      tag_64\n      swap1\n      tag_65\n      jump\t// in\n    tag_64:\n      mload(0x40)\n      dup1\n      swap2\n      sub\n      swap1\n      revert\n    tag_63:\n        /* \"atta-movies/PopcornClaimer.sol\":3882:3891  uint256 i */\n      0x00\n        /* \"atta-movies/PopcornClaimer.sol\":3877:4137  for (uint256 i = 0; i < users.length; ++i) {\r... */\n    tag_66:\n        /* \"atta-movies/PopcornClaimer.sol\":3901:3906  users */\n      dup5\n      dup5\n        /* \"atta-movies/PopcornClaimer.sol\":3901:3913  users.length */\n      swap1\n      pop\n        /* \"atta-movies/PopcornClaimer.sol\":3897:3898  i */\n      dup2\n        /* \"atta-movies/PopcornClaimer.sol\":3897:3913  i < users.length */\n      lt\n        /* \"atta-movies/PopcornClaimer.sol\":3877:4137  for (uint256 i = 0; i < users.length; ++i) {\r... */\n      iszero\n      tag_67\n      jumpi\n        /* \"atta-movies/PopcornClaimer.sol\":4066:4073  amounts */\n      dup3\n      dup3\n        /* \"atta-movies/PopcornClaimer.sol\":4074:4075  i */\n      dup3\n        /* \"atta-movies/PopcornClaimer.sol\":4066:4076  amounts[i] */\n      dup2\n      dup2\n      lt\n      tag_69\n      jumpi\n      tag_70\n      tag_71\n      jump\t// in\n    tag_70:\n    tag_69:\n      swap1\n      pop\n      0x20\n      mul\n      add\n      calldataload\n        /* \"atta-movies/PopcornClaimer.sol\":4029:4052  availableUnclaimedToken */\n      0x03\n        /* \"atta-movies/PopcornClaimer.sol\":4029:4062  availableUnclaimedToken[users[i]] */\n      0x00\n        /* \"atta-movies/PopcornClaimer.sol\":4053:4058  users */\n      dup8\n      dup8\n        /* \"atta-movies/PopcornClaimer.sol\":4059:4060  i */\n      dup6\n        /* \"atta-movies/PopcornClaimer.sol\":4053:4061  users[i] */\n      dup2\n      dup2\n      lt\n      tag_72\n      jumpi\n      tag_73\n      tag_71\n      jump\t// in\n    tag_73:\n    tag_72:\n      swap1\n      pop\n      0x20\n      mul\n      add\n      0x20\n      dup2\n      add\n      swap1\n      tag_74\n      swap2\n      swap1\n      tag_14\n      jump\t// in\n    tag_74:\n        /* \"atta-movies/PopcornClaimer.sol\":4029:4062  availableUnclaimedToken[users[i]] */\n      0xffffffffffffffffffffffffffffffffffffffff\n      and\n      0xffffffffffffffffffffffffffffffffffffffff\n      and\n      dup2\n      mstore\n      0x20\n      add\n      swap1\n      dup2\n      mstore\n      0x20\n      add\n      0x00\n      keccak256\n      0x00\n        /* \"atta-movies/PopcornClaimer.sol\":4029:4076  availableUnclaimedToken[users[i]] += amounts[i] */\n      dup3\n      dup3\n      sload\n      tag_75\n      swap2\n      swap1\n      tag_76\n      jump\t// in\n    tag_75:\n      swap3\n      pop\n      pop\n      dup2\n      swap1\n      sstore\n      pop\n        /* \"atta-movies/PopcornClaimer.sol\":4104:4109  users */\n      dup5\n      dup5\n        /* \"atta-movies/PopcornClaimer.sol\":4110:4111  i */\n      dup3\n        /* \"atta-movies/PopcornClaimer.sol\":4104:4112  users[i] */\n      dup2\n      dup2\n      lt\n      tag_77\n      jumpi\n      tag_78\n      tag_71\n      jump\t// in\n    tag_78:\n    tag_77:\n      swap1\n      pop\n      0x20\n      mul\n      add\n      0x20\n      dup2\n      add\n      swap1\n      tag_79\n      swap2\n      swap1\n      tag_14\n      jump\t// in\n    tag_79:\n        /* \"atta-movies/PopcornClaimer.sol\":4096:4125  Release(users[i], amounts[i]) */\n      0xffffffffffffffffffffffffffffffffffffffff\n      and\n      0xf6334794522b9db534a812aaae1af828a2e96aac68473b58e36d7d0bfd67477b\n        /* \"atta-movies/PopcornClaimer.sol\":4114:4121  amounts */\n      dup5\n      dup5\n        /* \"atta-movies/PopcornClaimer.sol\":4122:4123  i */\n      dup5\n        /* \"atta-movies/PopcornClaimer.sol\":4114:4124  amounts[i] */\n      dup2\n      dup2\n      lt\n      tag_80\n      jumpi\n      tag_81\n      tag_71\n      jump\t// in\n    tag_81:\n    tag_80:\n      swap1\n      pop\n      0x20\n      mul\n      add\n      calldataload\n        /* \"atta-movies/PopcornClaimer.sol\":4096:4125  Release(users[i], amounts[i]) */\n      mload(0x40)\n      tag_82\n      swap2\n      swap1\n      tag_20\n      jump\t// in\n    tag_82:\n      mload(0x40)\n      dup1\n      swap2\n      sub\n      swap1\n      log2\n        /* \"atta-movies/PopcornClaimer.sol\":3915:3918  ++i */\n      dup1\n      tag_83\n      swap1\n      tag_84\n      jump\t// in\n    tag_83:\n      swap1\n      pop\n        /* \"atta-movies/PopcornClaimer.sol\":3877:4137  for (uint256 i = 0; i < users.length; ++i) {\r... */\n      jump(tag_66)\n    tag_67:\n      pop\n        /* \"atta-movies/PopcornClaimer.sol\":3675:4144  function batchRelease(address[] calldata users, uint256[] calldata amounts) external onlyOwner {\r... */\n      pop\n      pop\n      pop\n      pop\n      jump\t// out\n        /* \"atta-movies/PopcornClaimer.sol\":4537:4635  function setTreasury(address _treasury) external onlyOwner {\r... */\n    tag_36:\n        /* \"atta-movies/PopcornClaimer.sol\":2215:2227  _msgSender() */\n      tag_86\n        /* \"atta-movies/PopcornClaimer.sol\":2215:2225  _msgSender */\n      tag_52\n        /* \"atta-movies/PopcornClaimer.sol\":2215:2227  _msgSender() */\n      jump\t// in\n    tag_86:\n        /* \"atta-movies/PopcornClaimer.sol\":2205:2227  _owner == _msgSender() */\n      0xffffffffffffffffffffffffffffffffffffffff\n      and\n        /* \"atta-movies/PopcornClaimer.sol\":2205:2211  _owner */\n      0x00\n      dup1\n      sload\n      swap1\n      0x0100\n      exp\n      swap1\n      div\n      0xffffffffffffffffffffffffffffffffffffffff\n      and\n        /* \"atta-movies/PopcornClaimer.sol\":2205:2227  _owner == _msgSender() */\n      0xffffffffffffffffffffffffffffffffffffffff\n      and\n      eq\n        /* \"atta-movies/PopcornClaimer.sol\":2197:2264  require(_owner == _msgSender(), \"Ownable: caller is not the owner\") */\n      tag_87\n      jumpi\n      mload(0x40)\n      0x08c379a000000000000000000000000000000000000000000000000000000000\n      dup2\n      mstore\n      0x04\n      add\n      tag_88\n      swap1\n      tag_55\n      jump\t// in\n    tag_88:\n      mload(0x40)\n      dup1\n      swap2\n      sub\n      swap1\n      revert\n    tag_87:\n        /* \"atta-movies/PopcornClaimer.sol\":4618:4627  _treasury */\n      dup1\n        /* \"atta-movies/PopcornClaimer.sol\":4607:4615  treasury */\n      0x02\n      0x00\n        /* \"atta-movies/PopcornClaimer.sol\":4607:4627  treasury = _treasury */\n      0x0100\n      exp\n      dup2\n      sload\n      dup2\n      0xffffffffffffffffffffffffffffffffffffffff\n      mul\n      not\n      and\n      swap1\n      dup4\n      0xffffffffffffffffffffffffffffffffffffffff\n      and\n      mul\n      or\n      swap1\n      sstore\n      pop\n        /* \"atta-movies/PopcornClaimer.sol\":4537:4635  function setTreasury(address _treasury) external onlyOwner {\r... */\n      pop\n      jump\t// out\n        /* \"atta-movies/PopcornClaimer.sol\":2938:3182  function transferOwnership(address newOwner) public virtual onlyOwner {\r... */\n    tag_39:\n        /* \"atta-movies/PopcornClaimer.sol\":2215:2227  _msgSender() */\n      tag_91\n        /* \"atta-movies/PopcornClaimer.sol\":2215:2225  _msgSender */\n      tag_52\n        /* \"atta-movies/PopcornClaimer.sol\":2215:2227  _msgSender() */\n      jump\t// in\n    tag_91:\n        /* \"atta-movies/PopcornClaimer.sol\":2205:2227  _owner == _msgSender() */\n      0xffffffffffffffffffffffffffffffffffffffff\n      and\n        /* \"atta-movies/PopcornClaimer.sol\":2205:2211  _owner */\n      0x00\n      dup1\n      sload\n      swap1\n      0x0100\n      exp\n      swap1\n      div\n      0xffffffffffffffffffffffffffffffffffffffff\n      and\n        /* \"atta-movies/PopcornClaimer.sol\":2205:2227  _owner == _msgSender() */\n      0xffffffffffffffffffffffffffffffffffffffff\n      and\n      eq\n        /* \"atta-movies/PopcornClaimer.sol\":2197:2264  require(_owner == _msgSender(), \"Ownable: caller is not the owner\") */\n      tag_92\n      jumpi\n      mload(0x40)\n      0x08c379a000000000000000000000000000000000000000000000000000000000\n      dup2\n      mstore\n      0x04\n      add\n      tag_93\n      swap1\n      tag_55\n      jump\t// in\n    tag_93:\n      mload(0x40)\n      dup1\n      swap2\n      sub\n      swap1\n      revert\n    tag_92:\n        /* \"atta-movies/PopcornClaimer.sol\":3047:3048  0 */\n      0x00\n        /* \"atta-movies/PopcornClaimer.sol\":3027:3049  newOwner != address(0) */\n      0xffffffffffffffffffffffffffffffffffffffff\n      and\n        /* \"atta-movies/PopcornClaimer.sol\":3027:3035  newOwner */\n      dup2\n        /* \"atta-movies/PopcornClaimer.sol\":3027:3049  newOwner != address(0) */\n      0xffffffffffffffffffffffffffffffffffffffff\n      and\n      eq\n      iszero\n        /* \"atta-movies/PopcornClaimer.sol\":3019:3092  require(newOwner != address(0), \"Ownable: new owner is the zero address\") */\n      tag_95\n      jumpi\n      mload(0x40)\n      0x08c379a000000000000000000000000000000000000000000000000000000000\n      dup2\n      mstore\n      0x04\n      add\n      tag_96\n      swap1\n      tag_97\n      jump\t// in\n    tag_96:\n      mload(0x40)\n      dup1\n      swap2\n      sub\n      swap1\n      revert\n    tag_95:\n        /* \"atta-movies/PopcornClaimer.sol\":3137:3145  newOwner */\n      dup1\n        /* \"atta-movies/PopcornClaimer.sol\":3108:3146  OwnershipTransferred(_owner, newOwner) */\n      0xffffffffffffffffffffffffffffffffffffffff\n      and\n        /* \"atta-movies/PopcornClaimer.sol\":3129:3135  _owner */\n      0x00\n      dup1\n      sload\n      swap1\n      0x0100\n      exp\n      swap1\n      div\n      0xffffffffffffffffffffffffffffffffffffffff\n      and\n        /* \"atta-movies/PopcornClaimer.sol\":3108:3146  OwnershipTransferred(_owner, newOwner) */\n      0xffffffffffffffffffffffffffffffffffffffff\n      and\n      0x8be0079c531659141344cd1fd0a4f28419497f9722a3daafe3b4186f6b6457e0\n      mload(0x40)\n      mload(0x40)\n      dup1\n      swap2\n      sub\n      swap1\n      log3\n        /* \"atta-movies/PopcornClaimer.sol\":3166:3174  newOwner */\n      dup1\n        /* \"atta-movies/PopcornClaimer.sol\":3157:3163  _owner */\n      0x00\n      dup1\n        /* \"atta-movies/PopcornClaimer.sol\":3157:3174  _owner = newOwner */\n      0x0100\n      exp\n      dup2\n      sload\n      dup2\n      0xffffffffffffffffffffffffffffffffffffffff\n      mul\n      not\n      and\n      swap1\n      dup4\n      0xffffffffffffffffffffffffffffffffffffffff\n      and\n      mul\n      or\n      swap1\n      sstore\n      pop\n        /* \"atta-movies/PopcornClaimer.sol\":2938:3182  function transferOwnership(address newOwner) public virtual onlyOwner {\r... */\n      pop\n      jump\t// out\n        /* \"atta-movies/PopcornClaimer.sol\":771:869  function _msgSender() internal view virtual returns (address) {\r... */\n    tag_52:\n        /* \"atta-movies/PopcornClaimer.sol\":824:831  address */\n      0x00\n        /* \"atta-movies/PopcornClaimer.sol\":851:861  msg.sender */\n      caller\n        /* \"atta-movies/PopcornClaimer.sol\":844:861  return msg.sender */\n      swap1\n      pop\n        /* \"atta-movies/PopcornClaimer.sol\":771:869  function _msgSender() internal view virtual returns (address) {\r... */\n      swap1\n      jump\t// out\n        /* \"#utility.yul\":7:146   */\n    tag_100:\n        /* \"#utility.yul\":53:58   */\n      0x00\n        /* \"#utility.yul\":91:97   */\n      dup2\n        /* \"#utility.yul\":78:98   */\n      calldataload\n        /* \"#utility.yul\":69:98   */\n      swap1\n      pop\n        /* \"#utility.yul\":107:140   */\n      tag_102\n        /* \"#utility.yul\":134:139   */\n      dup2\n        /* \"#utility.yul\":107:140   */\n      tag_103\n      jump\t// in\n    tag_102:\n        /* \"#utility.yul\":7:146   */\n      swap3\n      swap2\n      pop\n      pop\n      jump\t// out\n        /* \"#utility.yul\":169:737   */\n    tag_104:\n        /* \"#utility.yul\":242:250   */\n      0x00\n        /* \"#utility.yul\":252:258   */\n      dup1\n        /* \"#utility.yul\":302:305   */\n      dup4\n        /* \"#utility.yul\":295:299   */\n      0x1f\n        /* \"#utility.yul\":287:293   */\n      dup5\n        /* \"#utility.yul\":283:300   */\n      add\n        /* \"#utility.yul\":279:306   */\n      slt\n        /* \"#utility.yul\":269:391   */\n      tag_106\n      jumpi\n        /* \"#utility.yul\":310:389   */\n      tag_107\n      tag_108\n      jump\t// in\n    tag_107:\n        /* \"#utility.yul\":269:391   */\n    tag_106:\n        /* \"#utility.yul\":423:429   */\n      dup3\n        /* \"#utility.yul\":410:430   */\n      calldataload\n        /* \"#utility.yul\":400:430   */\n      swap1\n      pop\n        /* \"#utility.yul\":453:471   */\n      0xffffffffffffffff\n        /* \"#utility.yul\":445:451   */\n      dup2\n        /* \"#utility.yul\":442:472   */\n      gt\n        /* \"#utility.yul\":439:556   */\n      iszero\n      tag_109\n      jumpi\n        /* \"#utility.yul\":475:554   */\n      tag_110\n      tag_111\n      jump\t// in\n    tag_110:\n        /* \"#utility.yul\":439:556   */\n    tag_109:\n        /* \"#utility.yul\":589:593   */\n      0x20\n        /* \"#utility.yul\":581:587   */\n      dup4\n        /* \"#utility.yul\":577:594   */\n      add\n        /* \"#utility.yul\":565:594   */\n      swap2\n      pop\n        /* \"#utility.yul\":643:646   */\n      dup4\n        /* \"#utility.yul\":635:639   */\n      0x20\n        /* \"#utility.yul\":627:633   */\n      dup3\n        /* \"#utility.yul\":623:640   */\n      mul\n        /* \"#utility.yul\":613:621   */\n      dup4\n        /* \"#utility.yul\":609:641   */\n      add\n        /* \"#utility.yul\":606:647   */\n      gt\n        /* \"#utility.yul\":603:731   */\n      iszero\n      tag_112\n      jumpi\n        /* \"#utility.yul\":650:729   */\n      tag_113\n      tag_114\n      jump\t// in\n    tag_113:\n        /* \"#utility.yul\":603:731   */\n    tag_112:\n        /* \"#utility.yul\":169:737   */\n      swap3\n      pop\n      swap3\n      swap1\n      pop\n      jump\t// out\n        /* \"#utility.yul\":760:1328   */\n    tag_115:\n        /* \"#utility.yul\":833:841   */\n      0x00\n        /* \"#utility.yul\":843:849   */\n      dup1\n        /* \"#utility.yul\":893:896   */\n      dup4\n        /* \"#utility.yul\":886:890   */\n      0x1f\n        /* \"#utility.yul\":878:884   */\n      dup5\n        /* \"#utility.yul\":874:891   */\n      add\n        /* \"#utility.yul\":870:897   */\n      slt\n        /* \"#utility.yul\":860:982   */\n      tag_117\n      jumpi\n        /* \"#utility.yul\":901:980   */\n      tag_118\n      tag_108\n      jump\t// in\n    tag_118:\n        /* \"#utility.yul\":860:982   */\n    tag_117:\n        /* \"#utility.yul\":1014:1020   */\n      dup3\n        /* \"#utility.yul\":1001:1021   */\n      calldataload\n        /* \"#utility.yul\":991:1021   */\n      swap1\n      pop\n        /* \"#utility.yul\":1044:1062   */\n      0xffffffffffffffff\n        /* \"#utility.yul\":1036:1042   */\n      dup2\n        /* \"#utility.yul\":1033:1063   */\n      gt\n        /* \"#utility.yul\":1030:1147   */\n      iszero\n      tag_119\n      jumpi\n        /* \"#utility.yul\":1066:1145   */\n      tag_120\n      tag_111\n      jump\t// in\n    tag_120:\n        /* \"#utility.yul\":1030:1147   */\n    tag_119:\n        /* \"#utility.yul\":1180:1184   */\n      0x20\n        /* \"#utility.yul\":1172:1178   */\n      dup4\n        /* \"#utility.yul\":1168:1185   */\n      add\n        /* \"#utility.yul\":1156:1185   */\n      swap2\n      pop\n        /* \"#utility.yul\":1234:1237   */\n      dup4\n        /* \"#utility.yul\":1226:1230   */\n      0x20\n        /* \"#utility.yul\":1218:1224   */\n      dup3\n        /* \"#utility.yul\":1214:1231   */\n      mul\n        /* \"#utility.yul\":1204:1212   */\n      dup4\n        /* \"#utility.yul\":1200:1232   */\n      add\n        /* \"#utility.yul\":1197:1238   */\n      gt\n        /* \"#utility.yul\":1194:1322   */\n      iszero\n      tag_121\n      jumpi\n        /* \"#utility.yul\":1241:1320   */\n      tag_122\n      tag_114\n      jump\t// in\n    tag_122:\n        /* \"#utility.yul\":1194:1322   */\n    tag_121:\n        /* \"#utility.yul\":760:1328   */\n      swap3\n      pop\n      swap3\n      swap1\n      pop\n      jump\t// out\n        /* \"#utility.yul\":1334:1471   */\n    tag_123:\n        /* \"#utility.yul\":1388:1393   */\n      0x00\n        /* \"#utility.yul\":1419:1425   */\n      dup2\n        /* \"#utility.yul\":1413:1426   */\n      mload\n        /* \"#utility.yul\":1404:1426   */\n      swap1\n      pop\n        /* \"#utility.yul\":1435:1465   */\n      tag_125\n        /* \"#utility.yul\":1459:1464   */\n      dup2\n        /* \"#utility.yul\":1435:1465   */\n      tag_126\n      jump\t// in\n    tag_125:\n        /* \"#utility.yul\":1334:1471   */\n      swap3\n      swap2\n      pop\n      pop\n      jump\t// out\n        /* \"#utility.yul\":1477:1806   */\n    tag_14:\n        /* \"#utility.yul\":1536:1542   */\n      0x00\n        /* \"#utility.yul\":1585:1587   */\n      0x20\n        /* \"#utility.yul\":1573:1582   */\n      dup3\n        /* \"#utility.yul\":1564:1571   */\n      dup5\n        /* \"#utility.yul\":1560:1583   */\n      sub\n        /* \"#utility.yul\":1556:1588   */\n      slt\n        /* \"#utility.yul\":1553:1672   */\n      iszero\n      tag_128\n      jumpi\n        /* \"#utility.yul\":1591:1670   */\n      tag_129\n      tag_130\n      jump\t// in\n    tag_129:\n        /* \"#utility.yul\":1553:1672   */\n    tag_128:\n        /* \"#utility.yul\":1711:1712   */\n      0x00\n        /* \"#utility.yul\":1736:1789   */\n      tag_131\n        /* \"#utility.yul\":1781:1788   */\n      dup5\n        /* \"#utility.yul\":1772:1778   */\n      dup3\n        /* \"#utility.yul\":1761:1770   */\n      dup6\n        /* \"#utility.yul\":1757:1779   */\n      add\n        /* \"#utility.yul\":1736:1789   */\n      tag_100\n      jump\t// in\n    tag_131:\n        /* \"#utility.yul\":1726:1789   */\n      swap2\n      pop\n        /* \"#utility.yul\":1682:1799   */\n      pop\n        /* \"#utility.yul\":1477:1806   */\n      swap3\n      swap2\n      pop\n      pop\n      jump\t// out\n        /* \"#utility.yul\":1812:2746   */\n    tag_32:\n        /* \"#utility.yul\":1934:1940   */\n      0x00\n        /* \"#utility.yul\":1942:1948   */\n      dup1\n        /* \"#utility.yul\":1950:1956   */\n      0x00\n        /* \"#utility.yul\":1958:1964   */\n      dup1\n        /* \"#utility.yul\":2007:2009   */\n      0x40\n        /* \"#utility.yul\":1995:2004   */\n      dup6\n        /* \"#utility.yul\":1986:1993   */\n      dup8\n        /* \"#utility.yul\":1982:2005   */\n      sub\n        /* \"#utility.yul\":1978:2010   */\n      slt\n        /* \"#utility.yul\":1975:2094   */\n      iszero\n      tag_133\n      jumpi\n        /* \"#utility.yul\":2013:2092   */\n      tag_134\n      tag_130\n      jump\t// in\n    tag_134:\n        /* \"#utility.yul\":1975:2094   */\n    tag_133:\n        /* \"#utility.yul\":2161:2162   */\n      0x00\n        /* \"#utility.yul\":2150:2159   */\n      dup6\n        /* \"#utility.yul\":2146:2163   */\n      add\n        /* \"#utility.yul\":2133:2164   */\n      calldataload\n        /* \"#utility.yul\":2191:2209   */\n      0xffffffffffffffff\n        /* \"#utility.yul\":2183:2189   */\n      dup2\n        /* \"#utility.yul\":2180:2210   */\n      gt\n        /* \"#utility.yul\":2177:2294   */\n      iszero\n      tag_135\n      jumpi\n        /* \"#utility.yul\":2213:2292   */\n      tag_136\n      tag_137\n      jump\t// in\n    tag_136:\n        /* \"#utility.yul\":2177:2294   */\n    tag_135:\n        /* \"#utility.yul\":2326:2406   */\n      tag_138\n        /* \"#utility.yul\":2398:2405   */\n      dup8\n        /* \"#utility.yul\":2389:2395   */\n      dup3\n        /* \"#utility.yul\":2378:2387   */\n      dup9\n        /* \"#utility.yul\":2374:2396   */\n      add\n        /* \"#utility.yul\":2326:2406   */\n      tag_104\n      jump\t// in\n    tag_138:\n        /* \"#utility.yul\":2308:2406   */\n      swap5\n      pop\n      swap5\n      pop\n        /* \"#utility.yul\":2104:2416   */\n      pop\n        /* \"#utility.yul\":2483:2485   */\n      0x20\n        /* \"#utility.yul\":2472:2481   */\n      dup6\n        /* \"#utility.yul\":2468:2486   */\n      add\n        /* \"#utility.yul\":2455:2487   */\n      calldataload\n        /* \"#utility.yul\":2514:2532   */\n      0xffffffffffffffff\n        /* \"#utility.yul\":2506:2512   */\n      dup2\n        /* \"#utility.yul\":2503:2533   */\n      gt\n        /* \"#utility.yul\":2500:2617   */\n      iszero\n      tag_139\n      jumpi\n        /* \"#utility.yul\":2536:2615   */\n      tag_140\n      tag_137\n      jump\t// in\n    tag_140:\n        /* \"#utility.yul\":2500:2617   */\n    tag_139:\n        /* \"#utility.yul\":2649:2729   */\n      tag_141\n        /* \"#utility.yul\":2721:2728   */\n      dup8\n        /* \"#utility.yul\":2712:2718   */\n      dup3\n        /* \"#utility.yul\":2701:2710   */\n      dup9\n        /* \"#utility.yul\":2697:2719   */\n      add\n        /* \"#utility.yul\":2649:2729   */\n      tag_115\n      jump\t// in\n    tag_141:\n        /* \"#utility.yul\":2631:2729   */\n      swap3\n      pop\n      swap3\n      pop\n        /* \"#utility.yul\":2426:2739   */\n      pop\n        /* \"#utility.yul\":1812:2746   */\n      swap3\n      swap6\n      swap2\n      swap5\n      pop\n      swap3\n      pop\n      jump\t// out\n        /* \"#utility.yul\":2752:3097   */\n    tag_48:\n        /* \"#utility.yul\":2819:2825   */\n      0x00\n        /* \"#utility.yul\":2868:2870   */\n      0x20\n        /* \"#utility.yul\":2856:2865   */\n      dup3\n        /* \"#utility.yul\":2847:2854   */\n      dup5\n        /* \"#utility.yul\":2843:2866   */\n      sub\n        /* \"#utility.yul\":2839:2871   */\n      slt\n        /* \"#utility.yul\":2836:2955   */\n      iszero\n      tag_143\n      jumpi\n        /* \"#utility.yul\":2874:2953   */\n      tag_144\n      tag_130\n      jump\t// in\n    tag_144:\n        /* \"#utility.yul\":2836:2955   */\n    tag_143:\n        /* \"#utility.yul\":2994:2995   */\n      0x00\n        /* \"#utility.yul\":3019:3080   */\n      tag_145\n        /* \"#utility.yul\":3072:3079   */\n      dup5\n        /* \"#utility.yul\":3063:3069   */\n      dup3\n        /* \"#utility.yul\":3052:3061   */\n      dup6\n        /* \"#utility.yul\":3048:3070   */\n      add\n        /* \"#utility.yul\":3019:3080   */\n      tag_123\n      jump\t// in\n    tag_145:\n        /* \"#utility.yul\":3009:3080   */\n      swap2\n      pop\n        /* \"#utility.yul\":2965:3090   */\n      pop\n        /* \"#utility.yul\":2752:3097   */\n      swap3\n      swap2\n      pop\n      pop\n      jump\t// out\n        /* \"#utility.yul\":3103:3221   */\n    tag_146:\n        /* \"#utility.yul\":3190:3214   */\n      tag_148\n        /* \"#utility.yul\":3208:3213   */\n      dup2\n        /* \"#utility.yul\":3190:3214   */\n      tag_149\n      jump\t// in\n    tag_148:\n        /* \"#utility.yul\":3185:3188   */\n      dup3\n        /* \"#utility.yul\":3178:3215   */\n      mstore\n        /* \"#utility.yul\":3103:3221   */\n      pop\n      pop\n      jump\t// out\n        /* \"#utility.yul\":3227:3593   */\n    tag_150:\n        /* \"#utility.yul\":3369:3372   */\n      0x00\n        /* \"#utility.yul\":3390:3457   */\n      tag_152\n        /* \"#utility.yul\":3454:3456   */\n      0x26\n        /* \"#utility.yul\":3449:3452   */\n      dup4\n        /* \"#utility.yul\":3390:3457   */\n      tag_153\n      jump\t// in\n    tag_152:\n        /* \"#utility.yul\":3383:3457   */\n      swap2\n      pop\n        /* \"#utility.yul\":3466:3559   */\n      tag_154\n        /* \"#utility.yul\":3555:3558   */\n      dup3\n        /* \"#utility.yul\":3466:3559   */\n      tag_155\n      jump\t// in\n    tag_154:\n        /* \"#utility.yul\":3584:3586   */\n      0x40\n        /* \"#utility.yul\":3579:3582   */\n      dup3\n        /* \"#utility.yul\":3575:3587   */\n      add\n        /* \"#utility.yul\":3568:3587   */\n      swap1\n      pop\n        /* \"#utility.yul\":3227:3593   */\n      swap2\n      swap1\n      pop\n      jump\t// out\n        /* \"#utility.yul\":3599:3965   */\n    tag_156:\n        /* \"#utility.yul\":3741:3744   */\n      0x00\n        /* \"#utility.yul\":3762:3829   */\n      tag_158\n        /* \"#utility.yul\":3826:3828   */\n      0x20\n        /* \"#utility.yul\":3821:3824   */\n      dup4\n        /* \"#utility.yul\":3762:3829   */\n      tag_153\n      jump\t// in\n    tag_158:\n        /* \"#utility.yul\":3755:3829   */\n      swap2\n      pop\n        /* \"#utility.yul\":3838:3931   */\n      tag_159\n        /* \"#utility.yul\":3927:3930   */\n      dup3\n        /* \"#utility.yul\":3838:3931   */\n      tag_160\n      jump\t// in\n    tag_159:\n        /* \"#utility.yul\":3956:3958   */\n      0x20\n        /* \"#utility.yul\":3951:3954   */\n      dup3\n        /* \"#utility.yul\":3947:3959   */\n      add\n        /* \"#utility.yul\":3940:3959   */\n      swap1\n      pop\n        /* \"#utility.yul\":3599:3965   */\n      swap2\n      swap1\n      pop\n      jump\t// out\n        /* \"#utility.yul\":3971:4337   */\n    tag_161:\n        /* \"#utility.yul\":4113:4116   */\n      0x00\n        /* \"#utility.yul\":4134:4201   */\n      tag_163\n        /* \"#utility.yul\":4198:4200   */\n      0x2a\n        /* \"#utility.yul\":4193:4196   */\n      dup4\n        /* \"#utility.yul\":4134:4201   */\n      tag_153\n      jump\t// in\n    tag_163:\n        /* \"#utility.yul\":4127:4201   */\n      swap2\n      pop\n        /* \"#utility.yul\":4210:4303   */\n      tag_164\n        /* \"#utility.yul\":4299:4302   */\n      dup3\n        /* \"#utility.yul\":4210:4303   */\n      tag_165\n      jump\t// in\n    tag_164:\n        /* \"#utility.yul\":4328:4330   */\n      0x40\n        /* \"#utility.yul\":4323:4326   */\n      dup3\n        /* \"#utility.yul\":4319:4331   */\n      add\n        /* \"#utility.yul\":4312:4331   */\n      swap1\n      pop\n        /* \"#utility.yul\":3971:4337   */\n      swap2\n      swap1\n      pop\n      jump\t// out\n        /* \"#utility.yul\":4343:4461   */\n    tag_166:\n        /* \"#utility.yul\":4430:4454   */\n      tag_168\n        /* \"#utility.yul\":4448:4453   */\n      dup2\n        /* \"#utility.yul\":4430:4454   */\n      tag_169\n      jump\t// in\n    tag_168:\n        /* \"#utility.yul\":4425:4428   */\n      dup3\n        /* \"#utility.yul\":4418:4455   */\n      mstore\n        /* \"#utility.yul\":4343:4461   */\n      pop\n      pop\n      jump\t// out\n        /* \"#utility.yul\":4467:4689   */\n    tag_24:\n        /* \"#utility.yul\":4560:4564   */\n      0x00\n        /* \"#utility.yul\":4598:4600   */\n      0x20\n        /* \"#utility.yul\":4587:4596   */\n      dup3\n        /* \"#utility.yul\":4583:4601   */\n      add\n        /* \"#utility.yul\":4575:4601   */\n      swap1\n      pop\n        /* \"#utility.yul\":4611:4682   */\n      tag_171\n        /* \"#utility.yul\":4679:4680   */\n      0x00\n        /* \"#utility.yul\":4668:4677   */\n      dup4\n        /* \"#utility.yul\":4664:4681   */\n      add\n        /* \"#utility.yul\":4655:4661   */\n      dup5\n        /* \"#utility.yul\":4611:4682   */\n      tag_146\n      jump\t// in\n    tag_171:\n        /* \"#utility.yul\":4467:4689   */\n      swap3\n      swap2\n      pop\n      pop\n      jump\t// out\n        /* \"#utility.yul\":4695:5137   */\n    tag_43:\n        /* \"#utility.yul\":4844:4848   */\n      0x00\n        /* \"#utility.yul\":4882:4884   */\n      0x60\n        /* \"#utility.yul\":4871:4880   */\n      dup3\n        /* \"#utility.yul\":4867:4885   */\n      add\n        /* \"#utility.yul\":4859:4885   */\n      swap1\n      pop\n        /* \"#utility.yul\":4895:4966   */\n      tag_173\n        /* \"#utility.yul\":4963:4964   */\n      0x00\n        /* \"#utility.yul\":4952:4961   */\n      dup4\n        /* \"#utility.yul\":4948:4965   */\n      add\n        /* \"#utility.yul\":4939:4945   */\n      dup7\n        /* \"#utility.yul\":4895:4966   */\n      tag_146\n      jump\t// in\n    tag_173:\n        /* \"#utility.yul\":4976:5048   */\n      tag_174\n        /* \"#utility.yul\":5044:5046   */\n      0x20\n        /* \"#utility.yul\":5033:5042   */\n      dup4\n        /* \"#utility.yul\":5029:5047   */\n      add\n        /* \"#utility.yul\":5020:5026   */\n      dup6\n        /* \"#utility.yul\":4976:5048   */\n      tag_146\n      jump\t// in\n    tag_174:\n        /* \"#utility.yul\":5058:5130   */\n      tag_175\n        /* \"#utility.yul\":5126:5128   */\n      0x40\n        /* \"#utility.yul\":5115:5124   */\n      dup4\n        /* \"#utility.yul\":5111:5129   */\n      add\n        /* \"#utility.yul\":5102:5108   */\n      dup5\n        /* \"#utility.yul\":5058:5130   */\n      tag_166\n      jump\t// in\n    tag_175:\n        /* \"#utility.yul\":4695:5137   */\n      swap5\n      swap4\n      pop\n      pop\n      pop\n      pop\n      jump\t// out\n        /* \"#utility.yul\":5143:5562   */\n    tag_97:\n        /* \"#utility.yul\":5309:5313   */\n      0x00\n        /* \"#utility.yul\":5347:5349   */\n      0x20\n        /* \"#utility.yul\":5336:5345   */\n      dup3\n        /* \"#utility.yul\":5332:5350   */\n      add\n        /* \"#utility.yul\":5324:5350   */\n      swap1\n      pop\n        /* \"#utility.yul\":5396:5405   */\n      dup2\n        /* \"#utility.yul\":5390:5394   */\n      dup2\n        /* \"#utility.yul\":5386:5406   */\n      sub\n        /* \"#utility.yul\":5382:5383   */\n      0x00\n        /* \"#utility.yul\":5371:5380   */\n      dup4\n        /* \"#utility.yul\":5367:5384   */\n      add\n        /* \"#utility.yul\":5360:5407   */\n      mstore\n        /* \"#utility.yul\":5424:5555   */\n      tag_177\n        /* \"#utility.yul\":5550:5554   */\n      dup2\n        /* \"#utility.yul\":5424:5555   */\n      tag_150\n      jump\t// in\n    tag_177:\n        /* \"#utility.yul\":5416:5555   */\n      swap1\n      pop\n        /* \"#utility.yul\":5143:5562   */\n      swap2\n      swap1\n      pop\n      jump\t// out\n        /* \"#utility.yul\":5568:5987   */\n    tag_55:\n        /* \"#utility.yul\":5734:5738   */\n      0x00\n        /* \"#utility.yul\":5772:5774   */\n      0x20\n        /* \"#utility.yul\":5761:5770   */\n      dup3\n        /* \"#utility.yul\":5757:5775   */\n      add\n        /* \"#utility.yul\":5749:5775   */\n      swap1\n      pop\n        /* \"#utility.yul\":5821:5830   */\n      dup2\n        /* \"#utility.yul\":5815:5819   */\n      dup2\n        /* \"#utility.yul\":5811:5831   */\n      sub\n        /* \"#utility.yul\":5807:5808   */\n      0x00\n        /* \"#utility.yul\":5796:5805   */\n      dup4\n        /* \"#utility.yul\":5792:5809   */\n      add\n        /* \"#utility.yul\":5785:5832   */\n      mstore\n        /* \"#utility.yul\":5849:5980   */\n      tag_179\n        /* \"#utility.yul\":5975:5979   */\n      dup2\n        /* \"#utility.yul\":5849:5980   */\n      tag_156\n      jump\t// in\n    tag_179:\n        /* \"#utility.yul\":5841:5980   */\n      swap1\n      pop\n        /* \"#utility.yul\":5568:5987   */\n      swap2\n      swap1\n      pop\n      jump\t// out\n        /* \"#utility.yul\":5993:6412   */\n    tag_65:\n        /* \"#utility.yul\":6159:6163   */\n      0x00\n        /* \"#utility.yul\":6197:6199   */\n      0x20\n        /* \"#utility.yul\":6186:6195   */\n      dup3\n        /* \"#utility.yul\":6182:6200   */\n      add\n        /* \"#utility.yul\":6174:6200   */\n      swap1\n      pop\n        /* \"#utility.yul\":6246:6255   */\n      dup2\n        /* \"#utility.yul\":6240:6244   */\n      dup2\n        /* \"#utility.yul\":6236:6256   */\n      sub\n        /* \"#utility.yul\":6232:6233   */\n      0x00\n        /* \"#utility.yul\":6221:6230   */\n      dup4\n        /* \"#utility.yul\":6217:6234   */\n      add\n        /* \"#utility.yul\":6210:6257   */\n      mstore\n        /* \"#utility.yul\":6274:6405   */\n      tag_181\n        /* \"#utility.yul\":6400:6404   */\n      dup2\n        /* \"#utility.yul\":6274:6405   */\n      tag_161\n      jump\t// in\n    tag_181:\n        /* \"#utility.yul\":6266:6405   */\n      swap1\n      pop\n        /* \"#utility.yul\":5993:6412   */\n      swap2\n      swap1\n      pop\n      jump\t// out\n        /* \"#utility.yul\":6418:6640   */\n    tag_20:\n        /* \"#utility.yul\":6511:6515   */\n      0x00\n        /* \"#utility.yul\":6549:6551   */\n      0x20\n        /* \"#utility.yul\":6538:6547   */\n      dup3\n        /* \"#utility.yul\":6534:6552   */\n      add\n        /* \"#utility.yul\":6526:6552   */\n      swap1\n      pop\n        /* \"#utility.yul\":6562:6633   */\n      tag_183\n        /* \"#utility.yul\":6630:6631   */\n      0x00\n        /* \"#utility.yul\":6619:6628   */\n      dup4\n        /* \"#utility.yul\":6615:6632   */\n      add\n        /* \"#utility.yul\":6606:6612   */\n      dup5\n        /* \"#utility.yul\":6562:6633   */\n      tag_166\n      jump\t// in\n    tag_183:\n        /* \"#utility.yul\":6418:6640   */\n      swap3\n      swap2\n      pop\n      pop\n      jump\t// out\n        /* \"#utility.yul\":6727:6896   */\n    tag_153:\n        /* \"#utility.yul\":6811:6822   */\n      0x00\n        /* \"#utility.yul\":6845:6851   */\n      dup3\n        /* \"#utility.yul\":6840:6843   */\n      dup3\n        /* \"#utility.yul\":6833:6852   */\n      mstore\n        /* \"#utility.yul\":6885:6889   */\n      0x20\n        /* \"#utility.yul\":6880:6883   */\n      dup3\n        /* \"#utility.yul\":6876:6890   */\n      add\n        /* \"#utility.yul\":6861:6890   */\n      swap1\n      pop\n        /* \"#utility.yul\":6727:6896   */\n      swap3\n      swap2\n      pop\n      pop\n      jump\t// out\n        /* \"#utility.yul\":6902:7207   */\n    tag_76:\n        /* \"#utility.yul\":6942:6945   */\n      0x00\n        /* \"#utility.yul\":6961:6981   */\n      tag_188\n        /* \"#utility.yul\":6979:6980   */\n      dup3\n        /* \"#utility.yul\":6961:6981   */\n      tag_169\n      jump\t// in\n    tag_188:\n        /* \"#utility.yul\":6956:6981   */\n      swap2\n      pop\n        /* \"#utility.yul\":6995:7015   */\n      tag_189\n        /* \"#utility.yul\":7013:7014   */\n      dup4\n        /* \"#utility.yul\":6995:7015   */\n      tag_169\n      jump\t// in\n    tag_189:\n        /* \"#utility.yul\":6990:7015   */\n      swap3\n      pop\n        /* \"#utility.yul\":7149:7150   */\n      dup3\n        /* \"#utility.yul\":7081:7147   */\n      0xffffffffffffffffffffffffffffffffffffffffffffffffffffffffffffffff\n        /* \"#utility.yul\":7077:7151   */\n      sub\n        /* \"#utility.yul\":7074:7075   */\n      dup3\n        /* \"#utility.yul\":7071:7152   */\n      gt\n        /* \"#utility.yul\":7068:7175   */\n      iszero\n      tag_190\n      jumpi\n        /* \"#utility.yul\":7155:7173   */\n      tag_191\n      tag_192\n      jump\t// in\n    tag_191:\n        /* \"#utility.yul\":7068:7175   */\n    tag_190:\n        /* \"#utility.yul\":7199:7200   */\n      dup3\n        /* \"#utility.yul\":7196:7197   */\n      dup3\n        /* \"#utility.yul\":7192:7201   */\n      add\n        /* \"#utility.yul\":7185:7201   */\n      swap1\n      pop\n        /* \"#utility.yul\":6902:7207   */\n      swap3\n      swap2\n      pop\n      pop\n      jump\t// out\n        /* \"#utility.yul\":7213:7309   */\n    tag_149:\n        /* \"#utility.yul\":7250:7257   */\n      0x00\n        /* \"#utility.yul\":7279:7303   */\n      tag_194\n        /* \"#utility.yul\":7297:7302   */\n      dup3\n        /* \"#utility.yul\":7279:7303   */\n      tag_195\n      jump\t// in\n    tag_194:\n        /* \"#utility.yul\":7268:7303   */\n      swap1\n      pop\n        /* \"#utility.yul\":7213:7309   */\n      swap2\n      swap1\n      pop\n      jump\t// out\n        /* \"#utility.yul\":7315:7405   */\n    tag_196:\n        /* \"#utility.yul\":7349:7356   */\n      0x00\n        /* \"#utility.yul\":7392:7397   */\n      dup2\n        /* \"#utility.yul\":7385:7398   */\n      iszero\n        /* \"#utility.yul\":7378:7399   */\n      iszero\n        /* \"#utility.yul\":7367:7399   */\n      swap1\n      pop\n        /* \"#utility.yul\":7315:7405   */\n      swap2\n      swap1\n      pop\n      jump\t// out\n        /* \"#utility.yul\":7411:7537   */\n    tag_195:\n        /* \"#utility.yul\":7448:7455   */\n      0x00\n        /* \"#utility.yul\":7488:7530   */\n      0xffffffffffffffffffffffffffffffffffffffff\n        /* \"#utility.yul\":7481:7486   */\n      dup3\n        /* \"#utility.yul\":7477:7531   */\n      and\n        /* \"#utility.yul\":7466:7531   */\n      swap1\n      pop\n        /* \"#utility.yul\":7411:7537   */\n      swap2\n      swap1\n      pop\n      jump\t// out\n        /* \"#utility.yul\":7543:7620   */\n    tag_169:\n        /* \"#utility.yul\":7580:7587   */\n      0x00\n        /* \"#utility.yul\":7609:7614   */\n      dup2\n        /* \"#utility.yul\":7598:7614   */\n      swap1\n      pop\n        /* \"#utility.yul\":7543:7620   */\n      swap2\n      swap1\n      pop\n      jump\t// out\n        /* \"#utility.yul\":7626:7859   */\n    tag_84:\n        /* \"#utility.yul\":7665:7668   */\n      0x00\n        /* \"#utility.yul\":7688:7712   */\n      tag_201\n        /* \"#utility.yul\":7706:7711   */\n      dup3\n        /* \"#utility.yul\":7688:7712   */\n      tag_169\n      jump\t// in\n    tag_201:\n        /* \"#utility.yul\":7679:7712   */\n      swap2\n      pop\n        /* \"#utility.yul\":7734:7800   */\n      0xffffffffffffffffffffffffffffffffffffffffffffffffffffffffffffffff\n        /* \"#utility.yul\":7727:7732   */\n      dup3\n        /* \"#utility.yul\":7724:7801   */\n      eq\n        /* \"#utility.yul\":7721:7824   */\n      iszero\n      tag_202\n      jumpi\n        /* \"#utility.yul\":7804:7822   */\n      tag_203\n      tag_192\n      jump\t// in\n    tag_203:\n        /* \"#utility.yul\":7721:7824   */\n    tag_202:\n        /* \"#utility.yul\":7851:7852   */\n      0x01\n        /* \"#utility.yul\":7844:7849   */\n      dup3\n        /* \"#utility.yul\":7840:7853   */\n      add\n        /* \"#utility.yul\":7833:7853   */\n      swap1\n      pop\n        /* \"#utility.yul\":7626:7859   */\n      swap2\n      swap1\n      pop\n      jump\t// out\n        /* \"#utility.yul\":7865:8045   */\n    tag_192:\n        /* \"#utility.yul\":7913:7990   */\n      0x4e487b7100000000000000000000000000000000000000000000000000000000\n        /* \"#utility.yul\":7910:7911   */\n      0x00\n        /* \"#utility.yul\":7903:7991   */\n      mstore\n        /* \"#utility.yul\":8010:8014   */\n      0x11\n        /* \"#utility.yul\":8007:8008   */\n      0x04\n        /* \"#utility.yul\":8000:8015   */\n      mstore\n        /* \"#utility.yul\":8034:8038   */\n      0x24\n        /* \"#utility.yul\":8031:8032   */\n      0x00\n        /* \"#utility.yul\":8024:8039   */\n      revert\n        /* \"#utility.yul\":8051:8231   */\n    tag_71:\n        /* \"#utility.yul\":8099:8176   */\n      0x4e487b7100000000000000000000000000000000000000000000000000000000\n        /* \"#utility.yul\":8096:8097   */\n      0x00\n        /* \"#utility.yul\":8089:8177   */\n      mstore\n        /* \"#utility.yul\":8196:8200   */\n      0x32\n        /* \"#utility.yul\":8193:8194   */\n      0x04\n        /* \"#utility.yul\":8186:8201   */\n      mstore\n        /* \"#utility.yul\":8220:8224   */\n      0x24\n        /* \"#utility.yul\":8217:8218   */\n      0x00\n        /* \"#utility.yul\":8210:8225   */\n      revert\n        /* \"#utility.yul\":8237:8354   */\n    tag_111:\n        /* \"#utility.yul\":8346:8347   */\n      0x00\n        /* \"#utility.yul\":8343:8344   */\n      dup1\n        /* \"#utility.yul\":8336:8348   */\n      revert\n        /* \"#utility.yul\":8360:8477   */\n    tag_108:\n        /* \"#utility.yul\":8469:8470   */\n      0x00\n        /* \"#utility.yul\":8466:8467   */\n      dup1\n        /* \"#utility.yul\":8459:8471   */\n      revert\n        /* \"#utility.yul\":8483:8600   */\n    tag_114:\n        /* \"#utility.yul\":8592:8593   */\n      0x00\n        /* \"#utility.yul\":8589:8590   */\n      dup1\n        /* \"#utility.yul\":8582:8594   */\n      revert\n        /* \"#utility.yul\":8606:8723   */\n    tag_137:\n        /* \"#utility.yul\":8715:8716   */\n      0x00\n        /* \"#utility.yul\":8712:8713   */\n      dup1\n        /* \"#utility.yul\":8705:8717   */\n      revert\n        /* \"#utility.yul\":8729:8846   */\n    tag_130:\n        /* \"#utility.yul\":8838:8839   */\n      0x00\n        /* \"#utility.yul\":8835:8836   */\n      dup1\n        /* \"#utility.yul\":8828:8840   */\n      revert\n        /* \"#utility.yul\":8852:9077   */\n    tag_155:\n        /* \"#utility.yul\":8992:9026   */\n      0x4f776e61626c653a206e6577206f776e657220697320746865207a65726f2061\n        /* \"#utility.yul\":8988:8989   */\n      0x00\n        /* \"#utility.yul\":8980:8986   */\n      dup3\n        /* \"#utility.yul\":8976:8990   */\n      add\n        /* \"#utility.yul\":8969:9027   */\n      mstore\n        /* \"#utility.yul\":9061:9069   */\n      0x6464726573730000000000000000000000000000000000000000000000000000\n        /* \"#utility.yul\":9056:9058   */\n      0x20\n        /* \"#utility.yul\":9048:9054   */\n      dup3\n        /* \"#utility.yul\":9044:9059   */\n      add\n        /* \"#utility.yul\":9037:9070   */\n      mstore\n        /* \"#utility.yul\":8852:9077   */\n      pop\n      jump\t// out\n        /* \"#utility.yul\":9083:9265   */\n    tag_160:\n        /* \"#utility.yul\":9223:9257   */\n      0x4f776e61626c653a2063616c6c6572206973206e6f7420746865206f776e6572\n        /* \"#utility.yul\":9219:9220   */\n      0x00\n        /* \"#utility.yul\":9211:9217   */\n      dup3\n        /* \"#utility.yul\":9207:9221   */\n      add\n        /* \"#utility.yul\":9200:9258   */\n      mstore\n        /* \"#utility.yul\":9083:9265   */\n      pop\n      jump\t// out\n        /* \"#utility.yul\":9271:9500   */\n    tag_165:\n        /* \"#utility.yul\":9411:9445   */\n      0x757365727320616e6420616d6f756e7473206172726179206c656e677468206d\n        /* \"#utility.yul\":9407:9408   */\n      0x00\n        /* \"#utility.yul\":9399:9405   */\n      dup3\n        /* \"#utility.yul\":9395:9409   */\n      add\n        /* \"#utility.yul\":9388:9446   */\n      mstore\n        /* \"#utility.yul\":9480:9492   */\n      0x757374206d617463682e00000000000000000000000000000000000000000000\n        /* \"#utility.yul\":9475:9477   */\n      0x20\n        /* \"#utility.yul\":9467:9473   */\n      dup3\n        /* \"#utility.yul\":9463:9478   */\n      add\n        /* \"#utility.yul\":9456:9493   */\n      mstore\n        /* \"#utility.yul\":9271:9500   */\n      pop\n      jump\t// out\n        /* \"#utility.yul\":9506:9628   */\n    tag_103:\n        /* \"#utility.yul\":9579:9603   */\n      tag_215\n        /* \"#utility.yul\":9597:9602   */\n      dup2\n        /* \"#utility.yul\":9579:9603   */\n      tag_149\n      jump\t// in\n    tag_215:\n        /* \"#utility.yul\":9572:9577   */\n      dup2\n        /* \"#utility.yul\":9569:9604   */\n      eq\n        /* \"#utility.yul\":9559:9622   */\n      tag_216\n      jumpi\n        /* \"#utility.yul\":9618:9619   */\n      0x00\n        /* \"#utility.yul\":9615:9616   */\n      dup1\n        /* \"#utility.yul\":9608:9620   */\n      revert\n        /* \"#utility.yul\":9559:9622   */\n    tag_216:\n        /* \"#utility.yul\":9506:9628   */\n      pop\n      jump\t// out\n        /* \"#utility.yul\":9634:9750   */\n    tag_126:\n        /* \"#utility.yul\":9704:9725   */\n      tag_218\n        /* \"#utility.yul\":9719:9724   */\n      dup2\n        /* \"#utility.yul\":9704:9725   */\n      tag_196\n      jump\t// in\n    tag_218:\n        /* \"#utility.yul\":9697:9702   */\n      dup2\n        /* \"#utility.yul\":9694:9726   */\n      eq\n        /* \"#utility.yul\":9684:9744   */\n      tag_219\n      jumpi\n        /* \"#utility.yul\":9740:9741   */\n      0x00\n        /* \"#utility.yul\":9737:9738   */\n      dup1\n        /* \"#utility.yul\":9730:9742   */\n      revert\n        /* \"#utility.yul\":9684:9744   */\n    tag_219:\n        /* \"#utility.yul\":9634:9750   */\n      pop\n      jump\t// out\n\n    auxdata: 0xa2646970667358221220b5c845c00241b58f1b415ac4eaf9af7e798d063a7ccc749b5f83e5d535e75eb064736f6c63430008070033\n}\n",
				"bytecode": {
					"linkReferences": {},
					"object": "60806040523480156200001157600080fd5b506040516200120138038062001201833981810160405281019062000037919062000190565b6000620000496200017160201b60201c565b9050806000806101000a81548173ffffffffffffffffffffffffffffffffffffffff021916908373ffffffffffffffffffffffffffffffffffffffff1602179055508073ffffffffffffffffffffffffffffffffffffffff16600073ffffffffffffffffffffffffffffffffffffffff167f8be0079c531659141344cd1fd0a4f28419497f9722a3daafe3b4186f6b6457e060405160405180910390a35081600160006101000a81548173ffffffffffffffffffffffffffffffffffffffff021916908373ffffffffffffffffffffffffffffffffffffffff16021790555080600260006101000a81548173ffffffffffffffffffffffffffffffffffffffff021916908373ffffffffffffffffffffffffffffffffffffffff16021790555050506200022a565b600033905090565b6000815190506200018a8162000210565b92915050565b60008060408385031215620001aa57620001a96200020b565b5b6000620001ba8582860162000179565b9250506020620001cd8582860162000179565b9150509250929050565b6000620001e482620001eb565b9050919050565b600073ffffffffffffffffffffffffffffffffffffffff82169050919050565b600080fd5b6200021b81620001d7565b81146200022757600080fd5b50565b610fc7806200023a6000396000f3fe608060405234801561001057600080fd5b50600436106100885760003560e01c80638da5cb5b1161005b5780638da5cb5b14610101578063b92b03cd1461011f578063f0f442601461013b578063f2fde38b1461015757610088565b80631e83409a1461008d5780633f7e8975146100a957806361d027b3146100d9578063715018a6146100f7575b600080fd5b6100a760048036038101906100a29190610afe565b610173565b005b6100c360048036038101906100be9190610afe565b6103a4565b6040516100d09190610d12565b60405180910390f35b6100e16103bc565b6040516100ee9190610c60565b60405180910390f35b6100ff6103e2565b005b610109610535565b6040516101169190610c60565b60405180910390f35b61013960048036038101906101349190610b2b565b61055e565b005b61015560048036038101906101509190610afe565b610785565b005b610171600480360381019061016c9190610afe565b61085e565b005b6000600360008373ffffffffffffffffffffffffffffffffffffffff1673ffffffffffffffffffffffffffffffffffffffff1681526020019081526020016000205411156103a157600160009054906101000a900473ffffffffffffffffffffffffffffffffffffffff1673ffffffffffffffffffffffffffffffffffffffff166323b872dd600260009054906101000a900473ffffffffffffffffffffffffffffffffffffffff1683600360008673ffffffffffffffffffffffffffffffffffffffff1673ffffffffffffffffffffffffffffffffffffffff168152602001908152602001600020546040518463ffffffff1660e01b815260040161027b93929190610c7b565b602060405180830381600087803b15801561029557600080fd5b505af11580156102a9573d6000803e3d6000fd5b505050506040513d601f19601f820116820180604052508101906102cd9190610bac565b508073ffffffffffffffffffffffffffffffffffffffff167fd8138f8a3f377c5259ca548e70e4c2de94f129f5a11036a15b69513cba2b426a600360008473ffffffffffffffffffffffffffffffffffffffff1673ffffffffffffffffffffffffffffffffffffffff168152602001908152602001600020546040516103539190610d12565b60405180910390a26000600360008373ffffffffffffffffffffffffffffffffffffffff1673ffffffffffffffffffffffffffffffffffffffff168152602001908152602001600020819055505b50565b60036020528060005260406000206000915090505481565b600260009054906101000a900473ffffffffffffffffffffffffffffffffffffffff1681565b6103ea610a20565b73ffffffffffffffffffffffffffffffffffffffff1660008054906101000a900473ffffffffffffffffffffffffffffffffffffffff1673ffffffffffffffffffffffffffffffffffffffff1614610477576040517f08c379a000000000000000000000000000000000000000000000000000000000815260040161046e90610cd2565b60405180910390fd5b600073ffffffffffffffffffffffffffffffffffffffff1660008054906101000a900473ffffffffffffffffffffffffffffffffffffffff1673ffffffffffffffffffffffffffffffffffffffff167f8be0079c531659141344cd1fd0a4f28419497f9722a3daafe3b4186f6b6457e060405160405180910390a360008060006101000a81548173ffffffffffffffffffffffffffffffffffffffff021916908373ffffffffffffffffffffffffffffffffffffffff160217905550565b60008060009054906101000a900473ffffffffffffffffffffffffffffffffffffffff16905090565b610566610a20565b73ffffffffffffffffffffffffffffffffffffffff1660008054906101000a900473ffffffffffffffffffffffffffffffffffffffff1673ffffffffffffffffffffffffffffffffffffffff16146105f3576040517f08c379a00000000000000000000000000000000000000000000000000000000081526004016105ea90610cd2565b60405180910390fd5b81819050848490501461063b576040517f08c379a000000000000000000000000000000000000000000000000000000000815260040161063290610cf2565b60405180910390fd5b60005b8484905081101561077e5782828281811061065c5761065b610e54565b5b905060200201356003600087878581811061067a57610679610e54565b5b905060200201602081019061068f9190610afe565b73ffffffffffffffffffffffffffffffffffffffff1673ffffffffffffffffffffffffffffffffffffffff16815260200190815260200160002060008282546106d89190610d3e565b925050819055508484828181106106f2576106f1610e54565b5b90506020020160208101906107079190610afe565b73ffffffffffffffffffffffffffffffffffffffff167ff6334794522b9db534a812aaae1af828a2e96aac68473b58e36d7d0bfd67477b84848481811061075157610750610e54565b5b905060200201356040516107659190610d12565b60405180910390a28061077790610ddc565b905061063e565b5050505050565b61078d610a20565b73ffffffffffffffffffffffffffffffffffffffff1660008054906101000a900473ffffffffffffffffffffffffffffffffffffffff1673ffffffffffffffffffffffffffffffffffffffff161461081a576040517f08c379a000000000000000000000000000000000000000000000000000000000815260040161081190610cd2565b60405180910390fd5b80600260006101000a81548173ffffffffffffffffffffffffffffffffffffffff021916908373ffffffffffffffffffffffffffffffffffffffff16021790555050565b610866610a20565b73ffffffffffffffffffffffffffffffffffffffff1660008054906101000a900473ffffffffffffffffffffffffffffffffffffffff1673ffffffffffffffffffffffffffffffffffffffff16146108f3576040517f08c379a00000000000000000000000000000000000000000000000000000000081526004016108ea90610cd2565b60405180910390fd5b600073ffffffffffffffffffffffffffffffffffffffff168173ffffffffffffffffffffffffffffffffffffffff161415610963576040517f08c379a000000000000000000000000000000000000000000000000000000000815260040161095a90610cb2565b60405180910390fd5b8073ffffffffffffffffffffffffffffffffffffffff1660008054906101000a900473ffffffffffffffffffffffffffffffffffffffff1673ffffffffffffffffffffffffffffffffffffffff167f8be0079c531659141344cd1fd0a4f28419497f9722a3daafe3b4186f6b6457e060405160405180910390a3806000806101000a81548173ffffffffffffffffffffffffffffffffffffffff021916908373ffffffffffffffffffffffffffffffffffffffff16021790555050565b600033905090565b600081359050610a3781610f63565b92915050565b60008083601f840112610a5357610a52610e88565b5b8235905067ffffffffffffffff811115610a7057610a6f610e83565b5b602083019150836020820283011115610a8c57610a8b610e8d565b5b9250929050565b60008083601f840112610aa957610aa8610e88565b5b8235905067ffffffffffffffff811115610ac657610ac5610e83565b5b602083019150836020820283011115610ae257610ae1610e8d565b5b9250929050565b600081519050610af881610f7a565b92915050565b600060208284031215610b1457610b13610e97565b5b6000610b2284828501610a28565b91505092915050565b60008060008060408587031215610b4557610b44610e97565b5b600085013567ffffffffffffffff811115610b6357610b62610e92565b5b610b6f87828801610a3d565b9450945050602085013567ffffffffffffffff811115610b9257610b91610e92565b5b610b9e87828801610a93565b925092505092959194509250565b600060208284031215610bc257610bc1610e97565b5b6000610bd084828501610ae9565b91505092915050565b610be281610d94565b82525050565b6000610bf5602683610d2d565b9150610c0082610e9c565b604082019050919050565b6000610c18602083610d2d565b9150610c2382610eeb565b602082019050919050565b6000610c3b602a83610d2d565b9150610c4682610f14565b604082019050919050565b610c5a81610dd2565b82525050565b6000602082019050610c756000830184610bd9565b92915050565b6000606082019050610c906000830186610bd9565b610c9d6020830185610bd9565b610caa6040830184610c51565b949350505050565b60006020820190508181036000830152610ccb81610be8565b9050919050565b60006020820190508181036000830152610ceb81610c0b565b9050919050565b60006020820190508181036000830152610d0b81610c2e565b9050919050565b6000602082019050610d276000830184610c51565b92915050565b600082825260208201905092915050565b6000610d4982610dd2565b9150610d5483610dd2565b9250827fffffffffffffffffffffffffffffffffffffffffffffffffffffffffffffffff03821115610d8957610d88610e25565b5b828201905092915050565b6000610d9f82610db2565b9050919050565b60008115159050919050565b600073ffffffffffffffffffffffffffffffffffffffff82169050919050565b6000819050919050565b6000610de782610dd2565b91507fffffffffffffffffffffffffffffffffffffffffffffffffffffffffffffffff821415610e1a57610e19610e25565b5b600182019050919050565b7f4e487b7100000000000000000000000000000000000000000000000000000000600052601160045260246000fd5b7f4e487b7100000000000000000000000000000000000000000000000000000000600052603260045260246000fd5b600080fd5b600080fd5b600080fd5b600080fd5b600080fd5b7f4f776e61626c653a206e6577206f776e657220697320746865207a65726f206160008201527f6464726573730000000000000000000000000000000000000000000000000000602082015250565b7f4f776e61626c653a2063616c6c6572206973206e6f7420746865206f776e6572600082015250565b7f757365727320616e6420616d6f756e7473206172726179206c656e677468206d60008201527f757374206d617463682e00000000000000000000000000000000000000000000602082015250565b610f6c81610d94565b8114610f7757600080fd5b50565b610f8381610da6565b8114610f8e57600080fd5b5056fea2646970667358221220b5c845c00241b58f1b415ac4eaf9af7e798d063a7ccc749b5f83e5d535e75eb064736f6c63430008070033",
					"opcodes": "PUSH1 0x80 PUSH1 0x40 MSTORE CALLVALUE DUP1 ISZERO PUSH3 0x11 JUMPI PUSH1 0x0 DUP1 REVERT JUMPDEST POP PUSH1 0x40 MLOAD PUSH3 0x1201 CODESIZE SUB DUP1 PUSH3 0x1201 DUP4 CODECOPY DUP2 DUP2 ADD PUSH1 0x40 MSTORE DUP2 ADD SWAP1 PUSH3 0x37 SWAP2 SWAP1 PUSH3 0x190 JUMP JUMPDEST PUSH1 0x0 PUSH3 0x49 PUSH3 0x171 PUSH1 0x20 SHL PUSH1 0x20 SHR JUMP JUMPDEST SWAP1 POP DUP1 PUSH1 0x0 DUP1 PUSH2 0x100 EXP DUP2 SLOAD DUP2 PUSH20 0xFFFFFFFFFFFFFFFFFFFFFFFFFFFFFFFFFFFFFFFF MUL NOT AND SWAP1 DUP4 PUSH20 0xFFFFFFFFFFFFFFFFFFFFFFFFFFFFFFFFFFFFFFFF AND MUL OR SWAP1 SSTORE POP DUP1 PUSH20 0xFFFFFFFFFFFFFFFFFFFFFFFFFFFFFFFFFFFFFFFF AND PUSH1 0x0 PUSH20 0xFFFFFFFFFFFFFFFFFFFFFFFFFFFFFFFFFFFFFFFF AND PUSH32 0x8BE0079C531659141344CD1FD0A4F28419497F9722A3DAAFE3B4186F6B6457E0 PUSH1 0x40 MLOAD PUSH1 0x40 MLOAD DUP1 SWAP2 SUB SWAP1 LOG3 POP DUP2 PUSH1 0x1 PUSH1 0x0 PUSH2 0x100 EXP DUP2 SLOAD DUP2 PUSH20 0xFFFFFFFFFFFFFFFFFFFFFFFFFFFFFFFFFFFFFFFF MUL NOT AND SWAP1 DUP4 PUSH20 0xFFFFFFFFFFFFFFFFFFFFFFFFFFFFFFFFFFFFFFFF AND MUL OR SWAP1 SSTORE POP DUP1 PUSH1 0x2 PUSH1 0x0 PUSH2 0x100 EXP DUP2 SLOAD DUP2 PUSH20 0xFFFFFFFFFFFFFFFFFFFFFFFFFFFFFFFFFFFFFFFF MUL NOT AND SWAP1 DUP4 PUSH20 0xFFFFFFFFFFFFFFFFFFFFFFFFFFFFFFFFFFFFFFFF AND MUL OR SWAP1 SSTORE POP POP POP PUSH3 0x22A JUMP JUMPDEST PUSH1 0x0 CALLER SWAP1 POP SWAP1 JUMP JUMPDEST PUSH1 0x0 DUP2 MLOAD SWAP1 POP PUSH3 0x18A DUP2 PUSH3 0x210 JUMP JUMPDEST SWAP3 SWAP2 POP POP JUMP JUMPDEST PUSH1 0x0 DUP1 PUSH1 0x40 DUP4 DUP6 SUB SLT ISZERO PUSH3 0x1AA JUMPI PUSH3 0x1A9 PUSH3 0x20B JUMP JUMPDEST JUMPDEST PUSH1 0x0 PUSH3 0x1BA DUP6 DUP3 DUP7 ADD PUSH3 0x179 JUMP JUMPDEST SWAP3 POP POP PUSH1 0x20 PUSH3 0x1CD DUP6 DUP3 DUP7 ADD PUSH3 0x179 JUMP JUMPDEST SWAP2 POP POP SWAP3 POP SWAP3 SWAP1 POP JUMP JUMPDEST PUSH1 0x0 PUSH3 0x1E4 DUP3 PUSH3 0x1EB JUMP JUMPDEST SWAP1 POP SWAP2 SWAP1 POP JUMP JUMPDEST PUSH1 0x0 PUSH20 0xFFFFFFFFFFFFFFFFFFFFFFFFFFFFFFFFFFFFFFFF DUP3 AND SWAP1 POP SWAP2 SWAP1 POP JUMP JUMPDEST PUSH1 0x0 DUP1 REVERT JUMPDEST PUSH3 0x21B DUP2 PUSH3 0x1D7 JUMP JUMPDEST DUP2 EQ PUSH3 0x227 JUMPI PUSH1 0x0 DUP1 REVERT JUMPDEST POP JUMP JUMPDEST PUSH2 0xFC7 DUP1 PUSH3 0x23A PUSH1 0x0 CODECOPY PUSH1 0x0 RETURN INVALID PUSH1 0x80 PUSH1 0x40 MSTORE CALLVALUE DUP1 ISZERO PUSH2 0x10 JUMPI PUSH1 0x0 DUP1 REVERT JUMPDEST POP PUSH1 0x4 CALLDATASIZE LT PUSH2 0x88 JUMPI PUSH1 0x0 CALLDATALOAD PUSH1 0xE0 SHR DUP1 PUSH4 0x8DA5CB5B GT PUSH2 0x5B JUMPI DUP1 PUSH4 0x8DA5CB5B EQ PUSH2 0x101 JUMPI DUP1 PUSH4 0xB92B03CD EQ PUSH2 0x11F JUMPI DUP1 PUSH4 0xF0F44260 EQ PUSH2 0x13B JUMPI DUP1 PUSH4 0xF2FDE38B EQ PUSH2 0x157 JUMPI PUSH2 0x88 JUMP JUMPDEST DUP1 PUSH4 0x1E83409A EQ PUSH2 0x8D JUMPI DUP1 PUSH4 0x3F7E8975 EQ PUSH2 0xA9 JUMPI DUP1 PUSH4 0x61D027B3 EQ PUSH2 0xD9 JUMPI DUP1 PUSH4 0x715018A6 EQ PUSH2 0xF7 JUMPI JUMPDEST PUSH1 0x0 DUP1 REVERT JUMPDEST PUSH2 0xA7 PUSH1 0x4 DUP1 CALLDATASIZE SUB DUP2 ADD SWAP1 PUSH2 0xA2 SWAP2 SWAP1 PUSH2 0xAFE JUMP JUMPDEST PUSH2 0x173 JUMP JUMPDEST STOP JUMPDEST PUSH2 0xC3 PUSH1 0x4 DUP1 CALLDATASIZE SUB DUP2 ADD SWAP1 PUSH2 0xBE SWAP2 SWAP1 PUSH2 0xAFE JUMP JUMPDEST PUSH2 0x3A4 JUMP JUMPDEST PUSH1 0x40 MLOAD PUSH2 0xD0 SWAP2 SWAP1 PUSH2 0xD12 JUMP JUMPDEST PUSH1 0x40 MLOAD DUP1 SWAP2 SUB SWAP1 RETURN JUMPDEST PUSH2 0xE1 PUSH2 0x3BC JUMP JUMPDEST PUSH1 0x40 MLOAD PUSH2 0xEE SWAP2 SWAP1 PUSH2 0xC60 JUMP JUMPDEST PUSH1 0x40 MLOAD DUP1 SWAP2 SUB SWAP1 RETURN JUMPDEST PUSH2 0xFF PUSH2 0x3E2 JUMP JUMPDEST STOP JUMPDEST PUSH2 0x109 PUSH2 0x535 JUMP JUMPDEST PUSH1 0x40 MLOAD PUSH2 0x116 SWAP2 SWAP1 PUSH2 0xC60 JUMP JUMPDEST PUSH1 0x40 MLOAD DUP1 SWAP2 SUB SWAP1 RETURN JUMPDEST PUSH2 0x139 PUSH1 0x4 DUP1 CALLDATASIZE SUB DUP2 ADD SWAP1 PUSH2 0x134 SWAP2 SWAP1 PUSH2 0xB2B JUMP JUMPDEST PUSH2 0x55E JUMP JUMPDEST STOP JUMPDEST PUSH2 0x155 PUSH1 0x4 DUP1 CALLDATASIZE SUB DUP2 ADD SWAP1 PUSH2 0x150 SWAP2 SWAP1 PUSH2 0xAFE JUMP JUMPDEST PUSH2 0x785 JUMP JUMPDEST STOP JUMPDEST PUSH2 0x171 PUSH1 0x4 DUP1 CALLDATASIZE SUB DUP2 ADD SWAP1 PUSH2 0x16C SWAP2 SWAP1 PUSH2 0xAFE JUMP JUMPDEST PUSH2 0x85E JUMP JUMPDEST STOP JUMPDEST PUSH1 0x0 PUSH1 0x3 PUSH1 0x0 DUP4 PUSH20 0xFFFFFFFFFFFFFFFFFFFFFFFFFFFFFFFFFFFFFFFF AND PUSH20 0xFFFFFFFFFFFFFFFFFFFFFFFFFFFFFFFFFFFFFFFF AND DUP2 MSTORE PUSH1 0x20 ADD SWAP1 DUP2 MSTORE PUSH1 0x20 ADD PUSH1 0x0 KECCAK256 SLOAD GT ISZERO PUSH2 0x3A1 JUMPI PUSH1 0x1 PUSH1 0x0 SWAP1 SLOAD SWAP1 PUSH2 0x100 EXP SWAP1 DIV PUSH20 0xFFFFFFFFFFFFFFFFFFFFFFFFFFFFFFFFFFFFFFFF AND PUSH20 0xFFFFFFFFFFFFFFFFFFFFFFFFFFFFFFFFFFFFFFFF AND PUSH4 0x23B872DD PUSH1 0x2 PUSH1 0x0 SWAP1 SLOAD SWAP1 PUSH2 0x100 EXP SWAP1 DIV PUSH20 0xFFFFFFFFFFFFFFFFFFFFFFFFFFFFFFFFFFFFFFFF AND DUP4 PUSH1 0x3 PUSH1 0x0 DUP7 PUSH20 0xFFFFFFFFFFFFFFFFFFFFFFFFFFFFFFFFFFFFFFFF AND PUSH20 0xFFFFFFFFFFFFFFFFFFFFFFFFFFFFFFFFFFFFFFFF AND DUP2 MSTORE PUSH1 0x20 ADD SWAP1 DUP2 MSTORE PUSH1 0x20 ADD PUSH1 0x0 KECCAK256 SLOAD PUSH1 0x40 MLOAD DUP5 PUSH4 0xFFFFFFFF AND PUSH1 0xE0 SHL DUP2 MSTORE PUSH1 0x4 ADD PUSH2 0x27B SWAP4 SWAP3 SWAP2 SWAP1 PUSH2 0xC7B JUMP JUMPDEST PUSH1 0x20 PUSH1 0x40 MLOAD DUP1 DUP4 SUB DUP2 PUSH1 0x0 DUP8 DUP1 EXTCODESIZE ISZERO DUP1 ISZERO PUSH2 0x295 JUMPI PUSH1 0x0 DUP1 REVERT JUMPDEST POP GAS CALL ISZERO DUP1 ISZERO PUSH2 0x2A9 JUMPI RETURNDATASIZE PUSH1 0x0 DUP1 RETURNDATACOPY RETURNDATASIZE PUSH1 0x0 REVERT JUMPDEST POP POP POP POP PUSH1 0x40 MLOAD RETURNDATASIZE PUSH1 0x1F NOT PUSH1 0x1F DUP3 ADD AND DUP3 ADD DUP1 PUSH1 0x40 MSTORE POP DUP2 ADD SWAP1 PUSH2 0x2CD SWAP2 SWAP1 PUSH2 0xBAC JUMP JUMPDEST POP DUP1 PUSH20 0xFFFFFFFFFFFFFFFFFFFFFFFFFFFFFFFFFFFFFFFF AND PUSH32 0xD8138F8A3F377C5259CA548E70E4C2DE94F129F5A11036A15B69513CBA2B426A PUSH1 0x3 PUSH1 0x0 DUP5 PUSH20 0xFFFFFFFFFFFFFFFFFFFFFFFFFFFFFFFFFFFFFFFF AND PUSH20 0xFFFFFFFFFFFFFFFFFFFFFFFFFFFFFFFFFFFFFFFF AND DUP2 MSTORE PUSH1 0x20 ADD SWAP1 DUP2 MSTORE PUSH1 0x20 ADD PUSH1 0x0 KECCAK256 SLOAD PUSH1 0x40 MLOAD PUSH2 0x353 SWAP2 SWAP1 PUSH2 0xD12 JUMP JUMPDEST PUSH1 0x40 MLOAD DUP1 SWAP2 SUB SWAP1 LOG2 PUSH1 0x0 PUSH1 0x3 PUSH1 0x0 DUP4 PUSH20 0xFFFFFFFFFFFFFFFFFFFFFFFFFFFFFFFFFFFFFFFF AND PUSH20 0xFFFFFFFFFFFFFFFFFFFFFFFFFFFFFFFFFFFFFFFF AND DUP2 MSTORE PUSH1 0x20 ADD SWAP1 DUP2 MSTORE PUSH1 0x20 ADD PUSH1 0x0 KECCAK256 DUP2 SWAP1 SSTORE POP JUMPDEST POP JUMP JUMPDEST PUSH1 0x3 PUSH1 0x20 MSTORE DUP1 PUSH1 0x0 MSTORE PUSH1 0x40 PUSH1 0x0 KECCAK256 PUSH1 0x0 SWAP2 POP SWAP1 POP SLOAD DUP2 JUMP JUMPDEST PUSH1 0x2 PUSH1 0x0 SWAP1 SLOAD SWAP1 PUSH2 0x100 EXP SWAP1 DIV PUSH20 0xFFFFFFFFFFFFFFFFFFFFFFFFFFFFFFFFFFFFFFFF AND DUP2 JUMP JUMPDEST PUSH2 0x3EA PUSH2 0xA20 JUMP JUMPDEST PUSH20 0xFFFFFFFFFFFFFFFFFFFFFFFFFFFFFFFFFFFFFFFF AND PUSH1 0x0 DUP1 SLOAD SWAP1 PUSH2 0x100 EXP SWAP1 DIV PUSH20 0xFFFFFFFFFFFFFFFFFFFFFFFFFFFFFFFFFFFFFFFF AND PUSH20 0xFFFFFFFFFFFFFFFFFFFFFFFFFFFFFFFFFFFFFFFF AND EQ PUSH2 0x477 JUMPI PUSH1 0x40 MLOAD PUSH32 0x8C379A000000000000000000000000000000000000000000000000000000000 DUP2 MSTORE PUSH1 0x4 ADD PUSH2 0x46E SWAP1 PUSH2 0xCD2 JUMP JUMPDEST PUSH1 0x40 MLOAD DUP1 SWAP2 SUB SWAP1 REVERT JUMPDEST PUSH1 0x0 PUSH20 0xFFFFFFFFFFFFFFFFFFFFFFFFFFFFFFFFFFFFFFFF AND PUSH1 0x0 DUP1 SLOAD SWAP1 PUSH2 0x100 EXP SWAP1 DIV PUSH20 0xFFFFFFFFFFFFFFFFFFFFFFFFFFFFFFFFFFFFFFFF AND PUSH20 0xFFFFFFFFFFFFFFFFFFFFFFFFFFFFFFFFFFFFFFFF AND PUSH32 0x8BE0079C531659141344CD1FD0A4F28419497F9722A3DAAFE3B4186F6B6457E0 PUSH1 0x40 MLOAD PUSH1 0x40 MLOAD DUP1 SWAP2 SUB SWAP1 LOG3 PUSH1 0x0 DUP1 PUSH1 0x0 PUSH2 0x100 EXP DUP2 SLOAD DUP2 PUSH20 0xFFFFFFFFFFFFFFFFFFFFFFFFFFFFFFFFFFFFFFFF MUL NOT AND SWAP1 DUP4 PUSH20 0xFFFFFFFFFFFFFFFFFFFFFFFFFFFFFFFFFFFFFFFF AND MUL OR SWAP1 SSTORE POP JUMP JUMPDEST PUSH1 0x0 DUP1 PUSH1 0x0 SWAP1 SLOAD SWAP1 PUSH2 0x100 EXP SWAP1 DIV PUSH20 0xFFFFFFFFFFFFFFFFFFFFFFFFFFFFFFFFFFFFFFFF AND SWAP1 POP SWAP1 JUMP JUMPDEST PUSH2 0x566 PUSH2 0xA20 JUMP JUMPDEST PUSH20 0xFFFFFFFFFFFFFFFFFFFFFFFFFFFFFFFFFFFFFFFF AND PUSH1 0x0 DUP1 SLOAD SWAP1 PUSH2 0x100 EXP SWAP1 DIV PUSH20 0xFFFFFFFFFFFFFFFFFFFFFFFFFFFFFFFFFFFFFFFF AND PUSH20 0xFFFFFFFFFFFFFFFFFFFFFFFFFFFFFFFFFFFFFFFF AND EQ PUSH2 0x5F3 JUMPI PUSH1 0x40 MLOAD PUSH32 0x8C379A000000000000000000000000000000000000000000000000000000000 DUP2 MSTORE PUSH1 0x4 ADD PUSH2 0x5EA SWAP1 PUSH2 0xCD2 JUMP JUMPDEST PUSH1 0x40 MLOAD DUP1 SWAP2 SUB SWAP1 REVERT JUMPDEST DUP2 DUP2 SWAP1 POP DUP5 DUP5 SWAP1 POP EQ PUSH2 0x63B JUMPI PUSH1 0x40 MLOAD PUSH32 0x8C379A000000000000000000000000000000000000000000000000000000000 DUP2 MSTORE PUSH1 0x4 ADD PUSH2 0x632 SWAP1 PUSH2 0xCF2 JUMP JUMPDEST PUSH1 0x40 MLOAD DUP1 SWAP2 SUB SWAP1 REVERT JUMPDEST PUSH1 0x0 JUMPDEST DUP5 DUP5 SWAP1 POP DUP2 LT ISZERO PUSH2 0x77E JUMPI DUP3 DUP3 DUP3 DUP2 DUP2 LT PUSH2 0x65C JUMPI PUSH2 0x65B PUSH2 0xE54 JUMP JUMPDEST JUMPDEST SWAP1 POP PUSH1 0x20 MUL ADD CALLDATALOAD PUSH1 0x3 PUSH1 0x0 DUP8 DUP8 DUP6 DUP2 DUP2 LT PUSH2 0x67A JUMPI PUSH2 0x679 PUSH2 0xE54 JUMP JUMPDEST JUMPDEST SWAP1 POP PUSH1 0x20 MUL ADD PUSH1 0x20 DUP2 ADD SWAP1 PUSH2 0x68F SWAP2 SWAP1 PUSH2 0xAFE JUMP JUMPDEST PUSH20 0xFFFFFFFFFFFFFFFFFFFFFFFFFFFFFFFFFFFFFFFF AND PUSH20 0xFFFFFFFFFFFFFFFFFFFFFFFFFFFFFFFFFFFFFFFF AND DUP2 MSTORE PUSH1 0x20 ADD SWAP1 DUP2 MSTORE PUSH1 0x20 ADD PUSH1 0x0 KECCAK256 PUSH1 0x0 DUP3 DUP3 SLOAD PUSH2 0x6D8 SWAP2 SWAP1 PUSH2 0xD3E JUMP JUMPDEST SWAP3 POP POP DUP2 SWAP1 SSTORE POP DUP5 DUP5 DUP3 DUP2 DUP2 LT PUSH2 0x6F2 JUMPI PUSH2 0x6F1 PUSH2 0xE54 JUMP JUMPDEST JUMPDEST SWAP1 POP PUSH1 0x20 MUL ADD PUSH1 0x20 DUP2 ADD SWAP1 PUSH2 0x707 SWAP2 SWAP1 PUSH2 0xAFE JUMP JUMPDEST PUSH20 0xFFFFFFFFFFFFFFFFFFFFFFFFFFFFFFFFFFFFFFFF AND PUSH32 0xF6334794522B9DB534A812AAAE1AF828A2E96AAC68473B58E36D7D0BFD67477B DUP5 DUP5 DUP5 DUP2 DUP2 LT PUSH2 0x751 JUMPI PUSH2 0x750 PUSH2 0xE54 JUMP JUMPDEST JUMPDEST SWAP1 POP PUSH1 0x20 MUL ADD CALLDATALOAD PUSH1 0x40 MLOAD PUSH2 0x765 SWAP2 SWAP1 PUSH2 0xD12 JUMP JUMPDEST PUSH1 0x40 MLOAD DUP1 SWAP2 SUB SWAP1 LOG2 DUP1 PUSH2 0x777 SWAP1 PUSH2 0xDDC JUMP JUMPDEST SWAP1 POP PUSH2 0x63E JUMP JUMPDEST POP POP POP POP POP JUMP JUMPDEST PUSH2 0x78D PUSH2 0xA20 JUMP JUMPDEST PUSH20 0xFFFFFFFFFFFFFFFFFFFFFFFFFFFFFFFFFFFFFFFF AND PUSH1 0x0 DUP1 SLOAD SWAP1 PUSH2 0x100 EXP SWAP1 DIV PUSH20 0xFFFFFFFFFFFFFFFFFFFFFFFFFFFFFFFFFFFFFFFF AND PUSH20 0xFFFFFFFFFFFFFFFFFFFFFFFFFFFFFFFFFFFFFFFF AND EQ PUSH2 0x81A JUMPI PUSH1 0x40 MLOAD PUSH32 0x8C379A000000000000000000000000000000000000000000000000000000000 DUP2 MSTORE PUSH1 0x4 ADD PUSH2 0x811 SWAP1 PUSH2 0xCD2 JUMP JUMPDEST PUSH1 0x40 MLOAD DUP1 SWAP2 SUB SWAP1 REVERT JUMPDEST DUP1 PUSH1 0x2 PUSH1 0x0 PUSH2 0x100 EXP DUP2 SLOAD DUP2 PUSH20 0xFFFFFFFFFFFFFFFFFFFFFFFFFFFFFFFFFFFFFFFF MUL NOT AND SWAP1 DUP4 PUSH20 0xFFFFFFFFFFFFFFFFFFFFFFFFFFFFFFFFFFFFFFFF AND MUL OR SWAP1 SSTORE POP POP JUMP JUMPDEST PUSH2 0x866 PUSH2 0xA20 JUMP JUMPDEST PUSH20 0xFFFFFFFFFFFFFFFFFFFFFFFFFFFFFFFFFFFFFFFF AND PUSH1 0x0 DUP1 SLOAD SWAP1 PUSH2 0x100 EXP SWAP1 DIV PUSH20 0xFFFFFFFFFFFFFFFFFFFFFFFFFFFFFFFFFFFFFFFF AND PUSH20 0xFFFFFFFFFFFFFFFFFFFFFFFFFFFFFFFFFFFFFFFF AND EQ PUSH2 0x8F3 JUMPI PUSH1 0x40 MLOAD PUSH32 0x8C379A000000000000000000000000000000000000000000000000000000000 DUP2 MSTORE PUSH1 0x4 ADD PUSH2 0x8EA SWAP1 PUSH2 0xCD2 JUMP JUMPDEST PUSH1 0x40 MLOAD DUP1 SWAP2 SUB SWAP1 REVERT JUMPDEST PUSH1 0x0 PUSH20 0xFFFFFFFFFFFFFFFFFFFFFFFFFFFFFFFFFFFFFFFF AND DUP2 PUSH20 0xFFFFFFFFFFFFFFFFFFFFFFFFFFFFFFFFFFFFFFFF AND EQ ISZERO PUSH2 0x963 JUMPI PUSH1 0x40 MLOAD PUSH32 0x8C379A000000000000000000000000000000000000000000000000000000000 DUP2 MSTORE PUSH1 0x4 ADD PUSH2 0x95A SWAP1 PUSH2 0xCB2 JUMP JUMPDEST PUSH1 0x40 MLOAD DUP1 SWAP2 SUB SWAP1 REVERT JUMPDEST DUP1 PUSH20 0xFFFFFFFFFFFFFFFFFFFFFFFFFFFFFFFFFFFFFFFF AND PUSH1 0x0 DUP1 SLOAD SWAP1 PUSH2 0x100 EXP SWAP1 DIV PUSH20 0xFFFFFFFFFFFFFFFFFFFFFFFFFFFFFFFFFFFFFFFF AND PUSH20 0xFFFFFFFFFFFFFFFFFFFFFFFFFFFFFFFFFFFFFFFF AND PUSH32 0x8BE0079C531659141344CD1FD0A4F28419497F9722A3DAAFE3B4186F6B6457E0 PUSH1 0x40 MLOAD PUSH1 0x40 MLOAD DUP1 SWAP2 SUB SWAP1 LOG3 DUP1 PUSH1 0x0 DUP1 PUSH2 0x100 EXP DUP2 SLOAD DUP2 PUSH20 0xFFFFFFFFFFFFFFFFFFFFFFFFFFFFFFFFFFFFFFFF MUL NOT AND SWAP1 DUP4 PUSH20 0xFFFFFFFFFFFFFFFFFFFFFFFFFFFFFFFFFFFFFFFF AND MUL OR SWAP1 SSTORE POP POP JUMP JUMPDEST PUSH1 0x0 CALLER SWAP1 POP SWAP1 JUMP JUMPDEST PUSH1 0x0 DUP2 CALLDATALOAD SWAP1 POP PUSH2 0xA37 DUP2 PUSH2 0xF63 JUMP JUMPDEST SWAP3 SWAP2 POP POP JUMP JUMPDEST PUSH1 0x0 DUP1 DUP4 PUSH1 0x1F DUP5 ADD SLT PUSH2 0xA53 JUMPI PUSH2 0xA52 PUSH2 0xE88 JUMP JUMPDEST JUMPDEST DUP3 CALLDATALOAD SWAP1 POP PUSH8 0xFFFFFFFFFFFFFFFF DUP2 GT ISZERO PUSH2 0xA70 JUMPI PUSH2 0xA6F PUSH2 0xE83 JUMP JUMPDEST JUMPDEST PUSH1 0x20 DUP4 ADD SWAP2 POP DUP4 PUSH1 0x20 DUP3 MUL DUP4 ADD GT ISZERO PUSH2 0xA8C JUMPI PUSH2 0xA8B PUSH2 0xE8D JUMP JUMPDEST JUMPDEST SWAP3 POP SWAP3 SWAP1 POP JUMP JUMPDEST PUSH1 0x0 DUP1 DUP4 PUSH1 0x1F DUP5 ADD SLT PUSH2 0xAA9 JUMPI PUSH2 0xAA8 PUSH2 0xE88 JUMP JUMPDEST JUMPDEST DUP3 CALLDATALOAD SWAP1 POP PUSH8 0xFFFFFFFFFFFFFFFF DUP2 GT ISZERO PUSH2 0xAC6 JUMPI PUSH2 0xAC5 PUSH2 0xE83 JUMP JUMPDEST JUMPDEST PUSH1 0x20 DUP4 ADD SWAP2 POP DUP4 PUSH1 0x20 DUP3 MUL DUP4 ADD GT ISZERO PUSH2 0xAE2 JUMPI PUSH2 0xAE1 PUSH2 0xE8D JUMP JUMPDEST JUMPDEST SWAP3 POP SWAP3 SWAP1 POP JUMP JUMPDEST PUSH1 0x0 DUP2 MLOAD SWAP1 POP PUSH2 0xAF8 DUP2 PUSH2 0xF7A JUMP JUMPDEST SWAP3 SWAP2 POP POP JUMP JUMPDEST PUSH1 0x0 PUSH1 0x20 DUP3 DUP5 SUB SLT ISZERO PUSH2 0xB14 JUMPI PUSH2 0xB13 PUSH2 0xE97 JUMP JUMPDEST JUMPDEST PUSH1 0x0 PUSH2 0xB22 DUP5 DUP3 DUP6 ADD PUSH2 0xA28 JUMP JUMPDEST SWAP2 POP POP SWAP3 SWAP2 POP POP JUMP JUMPDEST PUSH1 0x0 DUP1 PUSH1 0x0 DUP1 PUSH1 0x40 DUP6 DUP8 SUB SLT ISZERO PUSH2 0xB45 JUMPI PUSH2 0xB44 PUSH2 0xE97 JUMP JUMPDEST JUMPDEST PUSH1 0x0 DUP6 ADD CALLDATALOAD PUSH8 0xFFFFFFFFFFFFFFFF DUP2 GT ISZERO PUSH2 0xB63 JUMPI PUSH2 0xB62 PUSH2 0xE92 JUMP JUMPDEST JUMPDEST PUSH2 0xB6F DUP8 DUP3 DUP9 ADD PUSH2 0xA3D JUMP JUMPDEST SWAP5 POP SWAP5 POP POP PUSH1 0x20 DUP6 ADD CALLDATALOAD PUSH8 0xFFFFFFFFFFFFFFFF DUP2 GT ISZERO PUSH2 0xB92 JUMPI PUSH2 0xB91 PUSH2 0xE92 JUMP JUMPDEST JUMPDEST PUSH2 0xB9E DUP8 DUP3 DUP9 ADD PUSH2 0xA93 JUMP JUMPDEST SWAP3 POP SWAP3 POP POP SWAP3 SWAP6 SWAP2 SWAP5 POP SWAP3 POP JUMP JUMPDEST PUSH1 0x0 PUSH1 0x20 DUP3 DUP5 SUB SLT ISZERO PUSH2 0xBC2 JUMPI PUSH2 0xBC1 PUSH2 0xE97 JUMP JUMPDEST JUMPDEST PUSH1 0x0 PUSH2 0xBD0 DUP5 DUP3 DUP6 ADD PUSH2 0xAE9 JUMP JUMPDEST SWAP2 POP POP SWAP3 SWAP2 POP POP JUMP JUMPDEST PUSH2 0xBE2 DUP2 PUSH2 0xD94 JUMP JUMPDEST DUP3 MSTORE POP POP JUMP JUMPDEST PUSH1 0x0 PUSH2 0xBF5 PUSH1 0x26 DUP4 PUSH2 0xD2D JUMP JUMPDEST SWAP2 POP PUSH2 0xC00 DUP3 PUSH2 0xE9C JUMP JUMPDEST PUSH1 0x40 DUP3 ADD SWAP1 POP SWAP2 SWAP1 POP JUMP JUMPDEST PUSH1 0x0 PUSH2 0xC18 PUSH1 0x20 DUP4 PUSH2 0xD2D JUMP JUMPDEST SWAP2 POP PUSH2 0xC23 DUP3 PUSH2 0xEEB JUMP JUMPDEST PUSH1 0x20 DUP3 ADD SWAP1 POP SWAP2 SWAP1 POP JUMP JUMPDEST PUSH1 0x0 PUSH2 0xC3B PUSH1 0x2A DUP4 PUSH2 0xD2D JUMP JUMPDEST SWAP2 POP PUSH2 0xC46 DUP3 PUSH2 0xF14 JUMP JUMPDEST PUSH1 0x40 DUP3 ADD SWAP1 POP SWAP2 SWAP1 POP JUMP JUMPDEST PUSH2 0xC5A DUP2 PUSH2 0xDD2 JUMP JUMPDEST DUP3 MSTORE POP POP JUMP JUMPDEST PUSH1 0x0 PUSH1 0x20 DUP3 ADD SWAP1 POP PUSH2 0xC75 PUSH1 0x0 DUP4 ADD DUP5 PUSH2 0xBD9 JUMP JUMPDEST SWAP3 SWAP2 POP POP JUMP JUMPDEST PUSH1 0x0 PUSH1 0x60 DUP3 ADD SWAP1 POP PUSH2 0xC90 PUSH1 0x0 DUP4 ADD DUP7 PUSH2 0xBD9 JUMP JUMPDEST PUSH2 0xC9D PUSH1 0x20 DUP4 ADD DUP6 PUSH2 0xBD9 JUMP JUMPDEST PUSH2 0xCAA PUSH1 0x40 DUP4 ADD DUP5 PUSH2 0xC51 JUMP JUMPDEST SWAP5 SWAP4 POP POP POP POP JUMP JUMPDEST PUSH1 0x0 PUSH1 0x20 DUP3 ADD SWAP1 POP DUP2 DUP2 SUB PUSH1 0x0 DUP4 ADD MSTORE PUSH2 0xCCB DUP2 PUSH2 0xBE8 JUMP JUMPDEST SWAP1 POP SWAP2 SWAP1 POP JUMP JUMPDEST PUSH1 0x0 PUSH1 0x20 DUP3 ADD SWAP1 POP DUP2 DUP2 SUB PUSH1 0x0 DUP4 ADD MSTORE PUSH2 0xCEB DUP2 PUSH2 0xC0B JUMP JUMPDEST SWAP1 POP SWAP2 SWAP1 POP JUMP JUMPDEST PUSH1 0x0 PUSH1 0x20 DUP3 ADD SWAP1 POP DUP2 DUP2 SUB PUSH1 0x0 DUP4 ADD MSTORE PUSH2 0xD0B DUP2 PUSH2 0xC2E JUMP JUMPDEST SWAP1 POP SWAP2 SWAP1 POP JUMP JUMPDEST PUSH1 0x0 PUSH1 0x20 DUP3 ADD SWAP1 POP PUSH2 0xD27 PUSH1 0x0 DUP4 ADD DUP5 PUSH2 0xC51 JUMP JUMPDEST SWAP3 SWAP2 POP POP JUMP JUMPDEST PUSH1 0x0 DUP3 DUP3 MSTORE PUSH1 0x20 DUP3 ADD SWAP1 POP SWAP3 SWAP2 POP POP JUMP JUMPDEST PUSH1 0x0 PUSH2 0xD49 DUP3 PUSH2 0xDD2 JUMP JUMPDEST SWAP2 POP PUSH2 0xD54 DUP4 PUSH2 0xDD2 JUMP JUMPDEST SWAP3 POP DUP3 PUSH32 0xFFFFFFFFFFFFFFFFFFFFFFFFFFFFFFFFFFFFFFFFFFFFFFFFFFFFFFFFFFFFFFFF SUB DUP3 GT ISZERO PUSH2 0xD89 JUMPI PUSH2 0xD88 PUSH2 0xE25 JUMP JUMPDEST JUMPDEST DUP3 DUP3 ADD SWAP1 POP SWAP3 SWAP2 POP POP JUMP JUMPDEST PUSH1 0x0 PUSH2 0xD9F DUP3 PUSH2 0xDB2 JUMP JUMPDEST SWAP1 POP SWAP2 SWAP1 POP JUMP JUMPDEST PUSH1 0x0 DUP2 ISZERO ISZERO SWAP1 POP SWAP2 SWAP1 POP JUMP JUMPDEST PUSH1 0x0 PUSH20 0xFFFFFFFFFFFFFFFFFFFFFFFFFFFFFFFFFFFFFFFF DUP3 AND SWAP1 POP SWAP2 SWAP1 POP JUMP JUMPDEST PUSH1 0x0 DUP2 SWAP1 POP SWAP2 SWAP1 POP JUMP JUMPDEST PUSH1 0x0 PUSH2 0xDE7 DUP3 PUSH2 0xDD2 JUMP JUMPDEST SWAP2 POP PUSH32 0xFFFFFFFFFFFFFFFFFFFFFFFFFFFFFFFFFFFFFFFFFFFFFFFFFFFFFFFFFFFFFFFF DUP3 EQ ISZERO PUSH2 0xE1A JUMPI PUSH2 0xE19 PUSH2 0xE25 JUMP JUMPDEST JUMPDEST PUSH1 0x1 DUP3 ADD SWAP1 POP SWAP2 SWAP1 POP JUMP JUMPDEST PUSH32 0x4E487B7100000000000000000000000000000000000000000000000000000000 PUSH1 0x0 MSTORE PUSH1 0x11 PUSH1 0x4 MSTORE PUSH1 0x24 PUSH1 0x0 REVERT JUMPDEST PUSH32 0x4E487B7100000000000000000000000000000000000000000000000000000000 PUSH1 0x0 MSTORE PUSH1 0x32 PUSH1 0x4 MSTORE PUSH1 0x24 PUSH1 0x0 REVERT JUMPDEST PUSH1 0x0 DUP1 REVERT JUMPDEST PUSH1 0x0 DUP1 REVERT JUMPDEST PUSH1 0x0 DUP1 REVERT JUMPDEST PUSH1 0x0 DUP1 REVERT JUMPDEST PUSH1 0x0 DUP1 REVERT JUMPDEST PUSH32 0x4F776E61626C653A206E6577206F776E657220697320746865207A65726F2061 PUSH1 0x0 DUP3 ADD MSTORE PUSH32 0x6464726573730000000000000000000000000000000000000000000000000000 PUSH1 0x20 DUP3 ADD MSTORE POP JUMP JUMPDEST PUSH32 0x4F776E61626C653A2063616C6C6572206973206E6F7420746865206F776E6572 PUSH1 0x0 DUP3 ADD MSTORE POP JUMP JUMPDEST PUSH32 0x757365727320616E6420616D6F756E7473206172726179206C656E677468206D PUSH1 0x0 DUP3 ADD MSTORE PUSH32 0x757374206D617463682E00000000000000000000000000000000000000000000 PUSH1 0x20 DUP3 ADD MSTORE POP JUMP JUMPDEST PUSH2 0xF6C DUP2 PUSH2 0xD94 JUMP JUMPDEST DUP2 EQ PUSH2 0xF77 JUMPI PUSH1 0x0 DUP1 REVERT JUMPDEST POP JUMP JUMPDEST PUSH2 0xF83 DUP2 PUSH2 0xDA6 JUMP JUMPDEST DUP2 EQ PUSH2 0xF8E JUMPI PUSH1 0x0 DUP1 REVERT JUMPDEST POP JUMP INVALID LOG2 PUSH5 0x6970667358 0x22 SLT KECCAK256 0xB5 0xC8 GASLIMIT 0xC0 MUL COINBASE 0xB5 DUP16 SHL COINBASE GAS 0xC4 0xEA 0xF9 0xAF PUSH31 0x798D063A7CCC749B5F83E5D535E75EB064736F6C6343000807003300000000 "
				},
				"gasEstimates": {
					"creation": {
						"codeDepositCost": "807800",
						"executionCost": "infinite",
						"totalCost": "infinite"
					},
					"external": {
						"availableUnclaimedToken(address)": "2837",
						"batchRelease(address[],uint256[])": "infinite",
						"claim(address)": "infinite",
						"owner()": "2522",
						"renounceOwnership()": "30358",
						"setTreasury(address)": "26968",
						"transferOwnership(address)": "30706",
						"treasury()": "2559"
					}
				},
				"methodIdentifiers": {
					"availableUnclaimedToken(address)": "3f7e8975",
					"batchRelease(address[],uint256[])": "b92b03cd",
					"claim(address)": "1e83409a",
					"owner()": "8da5cb5b",
					"renounceOwnership()": "715018a6",
					"setTreasury(address)": "f0f44260",
					"transferOwnership(address)": "f2fde38b",
					"treasury()": "61d027b3"
				}
			},
			"storageLayout": {
				"storage": [
					{
						"astId": 38,
						"contract": "atta-movies/PopcornClaimer.sol:PopcornClaimer",
						"label": "_owner",
						"offset": 0,
						"slot": "0",
						"type": "t_address"
					},
					{
						"astId": 144,
						"contract": "atta-movies/PopcornClaimer.sol:PopcornClaimer",
						"label": "popcornToken",
						"offset": 0,
						"slot": "1",
						"type": "t_contract(IERC20Minter)13"
					},
					{
						"astId": 146,
						"contract": "atta-movies/PopcornClaimer.sol:PopcornClaimer",
						"label": "treasury",
						"offset": 0,
						"slot": "2",
						"type": "t_address"
					},
					{
						"astId": 150,
						"contract": "atta-movies/PopcornClaimer.sol:PopcornClaimer",
						"label": "availableUnclaimedToken",
						"offset": 0,
						"slot": "3",
						"type": "t_mapping(t_address,t_uint256)"
					}
				],
				"types": {
					"t_address": {
						"encoding": "inplace",
						"label": "address",
						"numberOfBytes": "20"
					},
					"t_contract(IERC20Minter)13": {
						"encoding": "inplace",
						"label": "contract IERC20Minter",
						"numberOfBytes": "20"
					},
					"t_mapping(t_address,t_uint256)": {
						"encoding": "mapping",
						"key": "t_address",
						"label": "mapping(address => uint256)",
						"numberOfBytes": "32",
						"value": "t_uint256"
					},
					"t_uint256": {
						"encoding": "inplace",
						"label": "uint256",
						"numberOfBytes": "32"
					}
				}
			},
			"userdoc": {
				"kind": "user",
				"methods": {},
				"version": 1
			}
		}
	}
}