{
	"atta-movies/TBC_busd.sol": {
		"PopcornSigmoid": {
			"abi": [
				{
					"inputs": [
						{
							"internalType": "address",
							"name": "_paymentToken",
							"type": "address"
						},
						{
							"internalType": "address",
							"name": "_popcornToken",
							"type": "address"
						},
						{
							"internalType": "address",
							"name": "_recyclePool",
							"type": "address"
						}
					],
					"stateMutability": "nonpayable",
					"type": "constructor"
				},
				{
					"inputs": [
						{
							"internalType": "uint256",
							"name": "x",
							"type": "uint256"
						}
					],
					"name": "PRBMathUD60x18__Exp2InputTooBig",
					"type": "error"
				},
				{
					"inputs": [
						{
							"internalType": "uint256",
							"name": "x",
							"type": "uint256"
						}
					],
					"name": "PRBMathUD60x18__ExpInputTooBig",
					"type": "error"
				},
				{
					"inputs": [
						{
							"internalType": "uint256",
							"name": "x",
							"type": "uint256"
						}
					],
					"name": "PRBMathUD60x18__LogInputTooSmall",
					"type": "error"
				},
				{
					"inputs": [
						{
							"internalType": "uint256",
							"name": "prod1",
							"type": "uint256"
						}
					],
					"name": "PRBMath__MulDivFixedPointOverflow",
					"type": "error"
				},
				{
					"inputs": [
						{
							"internalType": "uint256",
							"name": "prod1",
							"type": "uint256"
						},
						{
							"internalType": "uint256",
							"name": "denominator",
							"type": "uint256"
						}
					],
					"name": "PRBMath__MulDivOverflow",
					"type": "error"
				},
				{
					"inputs": [
						{
							"internalType": "uint256",
							"name": "_totalSupply",
							"type": "uint256"
						}
					],
					"name": "_areaGivenSupply",
					"outputs": [
						{
							"internalType": "uint256",
							"name": "",
							"type": "uint256"
						}
					],
					"stateMutability": "view",
					"type": "function"
				},
				{
					"inputs": [
						{
							"internalType": "uint256",
							"name": "_totalSupply",
							"type": "uint256"
						}
					],
					"name": "_priceGivenSupply",
					"outputs": [
						{
							"internalType": "uint256",
							"name": "",
							"type": "uint256"
						}
					],
					"stateMutability": "view",
					"type": "function"
				},
				{
					"inputs": [],
					"name": "areaGivenSupply",
					"outputs": [
						{
							"internalType": "uint256",
							"name": "",
							"type": "uint256"
						}
					],
					"stateMutability": "view",
					"type": "function"
				},
				{
					"inputs": [],
					"name": "clearOutExtraReward",
					"outputs": [],
					"stateMutability": "nonpayable",
					"type": "function"
				},
				{
					"inputs": [],
					"name": "priceGivenSupply",
					"outputs": [
						{
							"internalType": "uint256",
							"name": "",
							"type": "uint256"
						}
					],
					"stateMutability": "view",
					"type": "function"
				},
				{
					"inputs": [
						{
							"internalType": "uint256",
							"name": "popcornAmount",
							"type": "uint256"
						}
					],
					"name": "swapPaymentForPopcorn",
					"outputs": [],
					"stateMutability": "nonpayable",
					"type": "function"
				},
				{
					"inputs": [
						{
							"internalType": "uint256",
							"name": "paymentAmount",
							"type": "uint256"
						}
					],
					"name": "swapPaymentForPopcornGivenPayment",
					"outputs": [
						{
							"internalType": "uint256",
							"name": "",
							"type": "uint256"
						}
					],
					"stateMutability": "view",
					"type": "function"
				},
				{
					"inputs": [
						{
							"internalType": "uint256",
							"name": "popcornAmount",
							"type": "uint256"
						}
					],
					"name": "swapPaymentForPopcornGivenPopcorn",
					"outputs": [
						{
							"internalType": "uint256",
							"name": "",
							"type": "uint256"
						}
					],
					"stateMutability": "view",
					"type": "function"
				},
				{
					"inputs": [
						{
							"internalType": "uint256",
							"name": "popcornAmount",
							"type": "uint256"
						}
					],
					"name": "swapPopcornForPayment",
					"outputs": [],
					"stateMutability": "nonpayable",
					"type": "function"
				},
				{
					"inputs": [
						{
							"internalType": "uint256",
							"name": "paymentAmount",
							"type": "uint256"
						}
					],
					"name": "swapPopcornForPaymentGivenPayment",
					"outputs": [
						{
							"internalType": "uint256",
							"name": "",
							"type": "uint256"
						}
					],
					"stateMutability": "view",
					"type": "function"
				},
				{
					"inputs": [
						{
							"internalType": "uint256",
							"name": "popcornAmount",
							"type": "uint256"
						}
					],
					"name": "swapPopcornForPaymentGivenPopcorn",
					"outputs": [
						{
							"internalType": "uint256",
							"name": "",
							"type": "uint256"
						}
					],
					"stateMutability": "view",
					"type": "function"
				}
			],
			"devdoc": {
				"kind": "dev",
				"methods": {},
				"version": 1
			},
			"evm": {
				"assembly": "    /* \"atta-movies/TBC_busd.sol\":60579:66736  contract PopcornSigmoid is Context {\r... */\n  mstore(0x40, 0x80)\n    /* \"atta-movies/TBC_busd.sol\":60768:60769  1 */\n  0x01\n    /* \"atta-movies/TBC_busd.sol\":60734:60769  uint256 paymentTokenDecimalFactor=1 */\n  dup1\n  sstore\n    /* \"atta-movies/TBC_busd.sol\":60979:60984  20e22 */\n  0x2a5a058fc295ed000000\n    /* \"atta-movies/TBC_busd.sol\":60954:60984  uint256 maxTotalSupply = 20e22 */\n  0x02\n  sstore\n    /* \"atta-movies/TBC_busd.sol\":61010:61015  48e17 */\n  0x429d069189e00000\n    /* \"atta-movies/TBC_busd.sol\":60991:61015  uint256 priceCap = 48e17 */\n  0x03\n  sstore\n    /* \"atta-movies/TBC_busd.sol\":61044:61074  SafeMath.mul(60, 1e18).div(10) */\n  tag_1\n    /* \"atta-movies/TBC_busd.sol\":61071:61073  10 */\n  0x0a\n    /* \"atta-movies/TBC_busd.sol\":61044:61066  SafeMath.mul(60, 1e18) */\n  tag_2\n    /* \"atta-movies/TBC_busd.sol\":61057:61059  60 */\n  0x3c\n    /* \"atta-movies/TBC_busd.sol\":61061:61065  1e18 */\n  0x0de0b6b3a7640000\n    /* \"atta-movies/TBC_busd.sol\":61044:61056  SafeMath.mul */\n  or(tag_0_55, shl(0x20, tag_3))\n    /* \"atta-movies/TBC_busd.sol\":61044:61066  SafeMath.mul(60, 1e18) */\n  0x20\n  shr\n  jump\t// in\ntag_2:\n    /* \"atta-movies/TBC_busd.sol\":61044:61070  SafeMath.mul(60, 1e18).div */\n  or(tag_0_56, shl(0x20, tag_4))\n  swap1\n    /* \"atta-movies/TBC_busd.sol\":61044:61074  SafeMath.mul(60, 1e18).div(10) */\n  swap2\n  swap1\n  0x20\n  shr\n  jump\t// in\ntag_1:\n    /* \"atta-movies/TBC_busd.sol\":61022:61074  uint256 supplyShift = SafeMath.mul(60, 1e18).div(10) */\n  0x04\n  sstore\n    /* \"atta-movies/TBC_busd.sol\":61103:61108  12e18 */\n  0xa688906bd8b00000\n    /* \"atta-movies/TBC_busd.sol\":61081:61108  uint256 slopeFactor = 12e18 */\n  0x05\n  sstore\n    /* \"atta-movies/TBC_busd.sol\":61236:61461  constructor(address _paymentToken, address _popcornToken, address _recyclePool) {\r... */\n  callvalue\n  dup1\n  iszero\n  tag_5\n  jumpi\n  0x00\n  dup1\n  revert\ntag_5:\n  pop\n  mload(0x40)\n  sub(codesize, bytecodeSize)\n  dup1\n  bytecodeSize\n  dup4\n  codecopy\n  dup2\n  dup2\n  add\n  0x40\n  mstore\n  dup2\n  add\n  swap1\n  tag_6\n  swap2\n  swap1\n  tag_7\n  jump\t// in\ntag_6:\n    /* \"atta-movies/TBC_busd.sol\":61349:61362  _paymentToken */\n  dup3\n    /* \"atta-movies/TBC_busd.sol\":61327:61339  paymentToken */\n  0x00\n  dup1\n    /* \"atta-movies/TBC_busd.sol\":61327:61363  paymentToken = IERC20(_paymentToken) */\n  0x0100\n  exp\n  dup2\n  sload\n  dup2\n  0xffffffffffffffffffffffffffffffffffffffff\n  mul\n  not\n  and\n  swap1\n  dup4\n  0xffffffffffffffffffffffffffffffffffffffff\n  and\n  mul\n  or\n  swap1\n  sstore\n  pop\n    /* \"atta-movies/TBC_busd.sol\":61402:61415  _popcornToken */\n  dup2\n    /* \"atta-movies/TBC_busd.sol\":61374:61386  popcornToken */\n  0x06\n  0x00\n    /* \"atta-movies/TBC_busd.sol\":61374:61416  popcornToken = IERC20Minter(_popcornToken) */\n  0x0100\n  exp\n  dup2\n  sload\n  dup2\n  0xffffffffffffffffffffffffffffffffffffffff\n  mul\n  not\n  and\n  swap1\n  dup4\n  0xffffffffffffffffffffffffffffffffffffffff\n  and\n  mul\n  or\n  swap1\n  sstore\n  pop\n    /* \"atta-movies/TBC_busd.sol\":61441:61453  _recyclePool */\n  dup1\n    /* \"atta-movies/TBC_busd.sol\":61427:61438  recyclePool */\n  0x07\n  0x00\n    /* \"atta-movies/TBC_busd.sol\":61427:61453  recyclePool = _recyclePool */\n  0x0100\n  exp\n  dup2\n  sload\n  dup2\n  0xffffffffffffffffffffffffffffffffffffffff\n  mul\n  not\n  and\n  swap1\n  dup4\n  0xffffffffffffffffffffffffffffffffffffffff\n  and\n  mul\n  or\n  swap1\n  sstore\n  pop\n    /* \"atta-movies/TBC_busd.sol\":61236:61461  constructor(address _paymentToken, address _popcornToken, address _recyclePool) {\r... */\n  pop\n  pop\n  pop\n    /* \"atta-movies/TBC_busd.sol\":60579:66736  contract PopcornSigmoid is Context {\r... */\n  jump(tag_10)\n    /* \"atta-movies/TBC_busd.sol\":53598:54069  function mul(uint256 a, uint256 b) internal pure returns (uint256) {\r... */\ntag_3:\n    /* \"atta-movies/TBC_busd.sol\":53656:53663  uint256 */\n  0x00\n    /* \"atta-movies/TBC_busd.sol\":53906:53907  0 */\n  dup1\n    /* \"atta-movies/TBC_busd.sol\":53901:53902  a */\n  dup4\n    /* \"atta-movies/TBC_busd.sol\":53901:53907  a == 0 */\n  eq\n    /* \"atta-movies/TBC_busd.sol\":53897:53944  if (a == 0) {\r... */\n  iszero\n  tag_12\n  jumpi\n    /* \"atta-movies/TBC_busd.sol\":53931:53932  0 */\n  0x00\n    /* \"atta-movies/TBC_busd.sol\":53924:53932  return 0 */\n  swap1\n  pop\n  jump(tag_11)\n    /* \"atta-movies/TBC_busd.sol\":53897:53944  if (a == 0) {\r... */\ntag_12:\n    /* \"atta-movies/TBC_busd.sol\":53956:53965  uint256 c */\n  0x00\n    /* \"atta-movies/TBC_busd.sol\":53972:53973  b */\n  dup3\n    /* \"atta-movies/TBC_busd.sol\":53968:53969  a */\n  dup5\n    /* \"atta-movies/TBC_busd.sol\":53968:53973  a * b */\n  tag_13\n  swap2\n  swap1\n  tag_14\n  jump\t// in\ntag_13:\n    /* \"atta-movies/TBC_busd.sol\":53956:53973  uint256 c = a * b */\n  swap1\n  pop\n    /* \"atta-movies/TBC_busd.sol\":54001:54002  b */\n  dup3\n    /* \"atta-movies/TBC_busd.sol\":53996:53997  a */\n  dup5\n    /* \"atta-movies/TBC_busd.sol\":53992:53993  c */\n  dup3\n    /* \"atta-movies/TBC_busd.sol\":53992:53997  c / a */\n  tag_15\n  swap2\n  swap1\n  tag_16\n  jump\t// in\ntag_15:\n    /* \"atta-movies/TBC_busd.sol\":53992:54002  c / a == b */\n  eq\n    /* \"atta-movies/TBC_busd.sol\":53984:54040  require(c / a == b, \"SafeMath: multiplication overflow\") */\n  tag_17\n  jumpi\n  mload(0x40)\n  0x08c379a000000000000000000000000000000000000000000000000000000000\n  dup2\n  mstore\n  0x04\n  add\n  tag_18\n  swap1\n  tag_19\n  jump\t// in\ntag_18:\n  mload(0x40)\n  dup1\n  swap2\n  sub\n  swap1\n  revert\ntag_17:\n    /* \"atta-movies/TBC_busd.sol\":54060:54061  c */\n  dup1\n    /* \"atta-movies/TBC_busd.sol\":54053:54061  return c */\n  swap2\n  pop\n  pop\n    /* \"atta-movies/TBC_busd.sol\":53598:54069  function mul(uint256 a, uint256 b) internal pure returns (uint256) {\r... */\ntag_11:\n  swap3\n  swap2\n  pop\n  pop\n  jump\t// out\n    /* \"atta-movies/TBC_busd.sol\":54545:54677  function div(uint256 a, uint256 b) internal pure returns (uint256) {\r... */\ntag_4:\n    /* \"atta-movies/TBC_busd.sol\":54603:54610  uint256 */\n  0x00\n    /* \"atta-movies/TBC_busd.sol\":54630:54669  div(a, b, \"SafeMath: division by zero\") */\n  tag_21\n    /* \"atta-movies/TBC_busd.sol\":54634:54635  a */\n  dup4\n    /* \"atta-movies/TBC_busd.sol\":54637:54638  b */\n  dup4\n    /* \"atta-movies/TBC_busd.sol\":54630:54669  div(a, b, \"SafeMath: division by zero\") */\n  mload(0x40)\n  dup1\n  0x40\n  add\n  0x40\n  mstore\n  dup1\n  0x1a\n  dup2\n  mstore\n  0x20\n  add\n  0x536166654d6174683a206469766973696f6e206279207a65726f000000000000\n  dup2\n  mstore\n  pop\n    /* \"atta-movies/TBC_busd.sol\":54630:54633  div */\n  shl(0x20, tag_22)\n    /* \"atta-movies/TBC_busd.sol\":54630:54669  div(a, b, \"SafeMath: division by zero\") */\n  0x20\n  shr\n  jump\t// in\ntag_21:\n    /* \"atta-movies/TBC_busd.sol\":54623:54669  return div(a, b, \"SafeMath: division by zero\") */\n  swap1\n  pop\n    /* \"atta-movies/TBC_busd.sol\":54545:54677  function div(uint256 a, uint256 b) internal pure returns (uint256) {\r... */\n  swap3\n  swap2\n  pop\n  pop\n  jump\t// out\n    /* \"atta-movies/TBC_busd.sol\":55173:55451  function div(uint256 a, uint256 b, string memory errorMessage) internal pure returns (uint256) {\r... */\ntag_22:\n    /* \"atta-movies/TBC_busd.sol\":55259:55266  uint256 */\n  0x00\n    /* \"atta-movies/TBC_busd.sol\":55291:55292  0 */\n  dup1\n    /* \"atta-movies/TBC_busd.sol\":55287:55288  b */\n  dup4\n    /* \"atta-movies/TBC_busd.sol\":55287:55292  b > 0 */\n  gt\n    /* \"atta-movies/TBC_busd.sol\":55294:55306  errorMessage */\n  dup3\n    /* \"atta-movies/TBC_busd.sol\":55279:55307  require(b > 0, errorMessage) */\n  swap1\n  tag_24\n  jumpi\n  mload(0x40)\n  0x08c379a000000000000000000000000000000000000000000000000000000000\n  dup2\n  mstore\n  0x04\n  add\n  tag_25\n  swap2\n  swap1\n  tag_26\n  jump\t// in\ntag_25:\n  mload(0x40)\n  dup1\n  swap2\n  sub\n  swap1\n  revert\ntag_24:\n  pop\n    /* \"atta-movies/TBC_busd.sol\":55318:55327  uint256 c */\n  0x00\n    /* \"atta-movies/TBC_busd.sol\":55334:55335  b */\n  dup4\n    /* \"atta-movies/TBC_busd.sol\":55330:55331  a */\n  dup6\n    /* \"atta-movies/TBC_busd.sol\":55330:55335  a / b */\n  tag_27\n  swap2\n  swap1\n  tag_16\n  jump\t// in\ntag_27:\n    /* \"atta-movies/TBC_busd.sol\":55318:55335  uint256 c = a / b */\n  swap1\n  pop\n    /* \"atta-movies/TBC_busd.sol\":55442:55443  c */\n  dup1\n    /* \"atta-movies/TBC_busd.sol\":55435:55443  return c */\n  swap2\n  pop\n  pop\n    /* \"atta-movies/TBC_busd.sol\":55173:55451  function div(uint256 a, uint256 b, string memory errorMessage) internal pure returns (uint256) {\r... */\n  swap4\n  swap3\n  pop\n  pop\n  pop\n  jump\t// out\n    /* \"#utility.yul\":7:150   */\ntag_29:\n    /* \"#utility.yul\":64:69   */\n  0x00\n    /* \"#utility.yul\":95:101   */\n  dup2\n    /* \"#utility.yul\":89:102   */\n  mload\n    /* \"#utility.yul\":80:102   */\n  swap1\n  pop\n    /* \"#utility.yul\":111:144   */\n  tag_31\n    /* \"#utility.yul\":138:143   */\n  dup2\n    /* \"#utility.yul\":111:144   */\n  tag_32\n  jump\t// in\ntag_31:\n    /* \"#utility.yul\":7:150   */\n  swap3\n  swap2\n  pop\n  pop\n  jump\t// out\n    /* \"#utility.yul\":156:819   */\ntag_7:\n    /* \"#utility.yul\":244:250   */\n  0x00\n    /* \"#utility.yul\":252:258   */\n  dup1\n    /* \"#utility.yul\":260:266   */\n  0x00\n    /* \"#utility.yul\":309:311   */\n  0x60\n    /* \"#utility.yul\":297:306   */\n  dup5\n    /* \"#utility.yul\":288:295   */\n  dup7\n    /* \"#utility.yul\":284:307   */\n  sub\n    /* \"#utility.yul\":280:312   */\n  slt\n    /* \"#utility.yul\":277:396   */\n  iszero\n  tag_34\n  jumpi\n    /* \"#utility.yul\":315:394   */\n  tag_35\n  tag_36\n  jump\t// in\ntag_35:\n    /* \"#utility.yul\":277:396   */\ntag_34:\n    /* \"#utility.yul\":435:436   */\n  0x00\n    /* \"#utility.yul\":460:524   */\n  tag_37\n    /* \"#utility.yul\":516:523   */\n  dup7\n    /* \"#utility.yul\":507:513   */\n  dup3\n    /* \"#utility.yul\":496:505   */\n  dup8\n    /* \"#utility.yul\":492:514   */\n  add\n    /* \"#utility.yul\":460:524   */\n  tag_29\n  jump\t// in\ntag_37:\n    /* \"#utility.yul\":450:524   */\n  swap4\n  pop\n    /* \"#utility.yul\":406:534   */\n  pop\n    /* \"#utility.yul\":573:575   */\n  0x20\n    /* \"#utility.yul\":599:663   */\n  tag_38\n    /* \"#utility.yul\":655:662   */\n  dup7\n    /* \"#utility.yul\":646:652   */\n  dup3\n    /* \"#utility.yul\":635:644   */\n  dup8\n    /* \"#utility.yul\":631:653   */\n  add\n    /* \"#utility.yul\":599:663   */\n  tag_29\n  jump\t// in\ntag_38:\n    /* \"#utility.yul\":589:663   */\n  swap3\n  pop\n    /* \"#utility.yul\":544:673   */\n  pop\n    /* \"#utility.yul\":712:714   */\n  0x40\n    /* \"#utility.yul\":738:802   */\n  tag_39\n    /* \"#utility.yul\":794:801   */\n  dup7\n    /* \"#utility.yul\":785:791   */\n  dup3\n    /* \"#utility.yul\":774:783   */\n  dup8\n    /* \"#utility.yul\":770:792   */\n  add\n    /* \"#utility.yul\":738:802   */\n  tag_29\n  jump\t// in\ntag_39:\n    /* \"#utility.yul\":728:802   */\n  swap2\n  pop\n    /* \"#utility.yul\":683:812   */\n  pop\n    /* \"#utility.yul\":156:819   */\n  swap3\n  pop\n  swap3\n  pop\n  swap3\n  jump\t// out\n    /* \"#utility.yul\":825:1189   */\ntag_40:\n    /* \"#utility.yul\":913:916   */\n  0x00\n    /* \"#utility.yul\":941:980   */\n  tag_42\n    /* \"#utility.yul\":974:979   */\n  dup3\n    /* \"#utility.yul\":941:980   */\n  tag_43\n  jump\t// in\ntag_42:\n    /* \"#utility.yul\":996:1067   */\n  tag_44\n    /* \"#utility.yul\":1060:1066   */\n  dup2\n    /* \"#utility.yul\":1055:1058   */\n  dup6\n    /* \"#utility.yul\":996:1067   */\n  tag_45\n  jump\t// in\ntag_44:\n    /* \"#utility.yul\":989:1067   */\n  swap4\n  pop\n    /* \"#utility.yul\":1076:1128   */\n  tag_46\n    /* \"#utility.yul\":1121:1127   */\n  dup2\n    /* \"#utility.yul\":1116:1119   */\n  dup6\n    /* \"#utility.yul\":1109:1113   */\n  0x20\n    /* \"#utility.yul\":1102:1107   */\n  dup7\n    /* \"#utility.yul\":1098:1114   */\n  add\n    /* \"#utility.yul\":1076:1128   */\n  tag_47\n  jump\t// in\ntag_46:\n    /* \"#utility.yul\":1153:1182   */\n  tag_48\n    /* \"#utility.yul\":1175:1181   */\n  dup2\n    /* \"#utility.yul\":1153:1182   */\n  tag_49\n  jump\t// in\ntag_48:\n    /* \"#utility.yul\":1148:1151   */\n  dup5\n    /* \"#utility.yul\":1144:1183   */\n  add\n    /* \"#utility.yul\":1137:1183   */\n  swap2\n  pop\n    /* \"#utility.yul\":917:1189   */\n  pop\n    /* \"#utility.yul\":825:1189   */\n  swap3\n  swap2\n  pop\n  pop\n  jump\t// out\n    /* \"#utility.yul\":1195:1561   */\ntag_50:\n    /* \"#utility.yul\":1337:1340   */\n  0x00\n    /* \"#utility.yul\":1358:1425   */\n  tag_52\n    /* \"#utility.yul\":1422:1424   */\n  0x21\n    /* \"#utility.yul\":1417:1420   */\n  dup4\n    /* \"#utility.yul\":1358:1425   */\n  tag_45\n  jump\t// in\ntag_52:\n    /* \"#utility.yul\":1351:1425   */\n  swap2\n  pop\n    /* \"#utility.yul\":1434:1527   */\n  tag_53\n    /* \"#utility.yul\":1523:1526   */\n  dup3\n    /* \"#utility.yul\":1434:1527   */\n  tag_54\n  jump\t// in\ntag_53:\n    /* \"#utility.yul\":1552:1554   */\n  0x40\n    /* \"#utility.yul\":1547:1550   */\n  dup3\n    /* \"#utility.yul\":1543:1555   */\n  add\n    /* \"#utility.yul\":1536:1555   */\n  swap1\n  pop\n    /* \"#utility.yul\":1195:1561   */\n  swap2\n  swap1\n  pop\n  jump\t// out\n    /* \"#utility.yul\":1567:1880   */\ntag_26:\n    /* \"#utility.yul\":1680:1684   */\n  0x00\n    /* \"#utility.yul\":1718:1720   */\n  0x20\n    /* \"#utility.yul\":1707:1716   */\n  dup3\n    /* \"#utility.yul\":1703:1721   */\n  add\n    /* \"#utility.yul\":1695:1721   */\n  swap1\n  pop\n    /* \"#utility.yul\":1767:1776   */\n  dup2\n    /* \"#utility.yul\":1761:1765   */\n  dup2\n    /* \"#utility.yul\":1757:1777   */\n  sub\n    /* \"#utility.yul\":1753:1754   */\n  0x00\n    /* \"#utility.yul\":1742:1751   */\n  dup4\n    /* \"#utility.yul\":1738:1755   */\n  add\n    /* \"#utility.yul\":1731:1778   */\n  mstore\n    /* \"#utility.yul\":1795:1873   */\n  tag_56\n    /* \"#utility.yul\":1868:1872   */\n  dup2\n    /* \"#utility.yul\":1859:1865   */\n  dup5\n    /* \"#utility.yul\":1795:1873   */\n  tag_40\n  jump\t// in\ntag_56:\n    /* \"#utility.yul\":1787:1873   */\n  swap1\n  pop\n    /* \"#utility.yul\":1567:1880   */\n  swap3\n  swap2\n  pop\n  pop\n  jump\t// out\n    /* \"#utility.yul\":1886:2305   */\ntag_19:\n    /* \"#utility.yul\":2052:2056   */\n  0x00\n    /* \"#utility.yul\":2090:2092   */\n  0x20\n    /* \"#utility.yul\":2079:2088   */\n  dup3\n    /* \"#utility.yul\":2075:2093   */\n  add\n    /* \"#utility.yul\":2067:2093   */\n  swap1\n  pop\n    /* \"#utility.yul\":2139:2148   */\n  dup2\n    /* \"#utility.yul\":2133:2137   */\n  dup2\n    /* \"#utility.yul\":2129:2149   */\n  sub\n    /* \"#utility.yul\":2125:2126   */\n  0x00\n    /* \"#utility.yul\":2114:2123   */\n  dup4\n    /* \"#utility.yul\":2110:2127   */\n  add\n    /* \"#utility.yul\":2103:2150   */\n  mstore\n    /* \"#utility.yul\":2167:2298   */\n  tag_58\n    /* \"#utility.yul\":2293:2297   */\n  dup2\n    /* \"#utility.yul\":2167:2298   */\n  tag_50\n  jump\t// in\ntag_58:\n    /* \"#utility.yul\":2159:2298   */\n  swap1\n  pop\n    /* \"#utility.yul\":1886:2305   */\n  swap2\n  swap1\n  pop\n  jump\t// out\n    /* \"#utility.yul\":2392:2491   */\ntag_43:\n    /* \"#utility.yul\":2444:2450   */\n  0x00\n    /* \"#utility.yul\":2478:2483   */\n  dup2\n    /* \"#utility.yul\":2472:2484   */\n  mload\n    /* \"#utility.yul\":2462:2484   */\n  swap1\n  pop\n    /* \"#utility.yul\":2392:2491   */\n  swap2\n  swap1\n  pop\n  jump\t// out\n    /* \"#utility.yul\":2497:2666   */\ntag_45:\n    /* \"#utility.yul\":2581:2592   */\n  0x00\n    /* \"#utility.yul\":2615:2621   */\n  dup3\n    /* \"#utility.yul\":2610:2613   */\n  dup3\n    /* \"#utility.yul\":2603:2622   */\n  mstore\n    /* \"#utility.yul\":2655:2659   */\n  0x20\n    /* \"#utility.yul\":2650:2653   */\n  dup3\n    /* \"#utility.yul\":2646:2660   */\n  add\n    /* \"#utility.yul\":2631:2660   */\n  swap1\n  pop\n    /* \"#utility.yul\":2497:2666   */\n  swap3\n  swap2\n  pop\n  pop\n  jump\t// out\n    /* \"#utility.yul\":2672:2857   */\ntag_16:\n    /* \"#utility.yul\":2712:2713   */\n  0x00\n    /* \"#utility.yul\":2729:2749   */\n  tag_64\n    /* \"#utility.yul\":2747:2748   */\n  dup3\n    /* \"#utility.yul\":2729:2749   */\n  tag_65\n  jump\t// in\ntag_64:\n    /* \"#utility.yul\":2724:2749   */\n  swap2\n  pop\n    /* \"#utility.yul\":2763:2783   */\n  tag_66\n    /* \"#utility.yul\":2781:2782   */\n  dup4\n    /* \"#utility.yul\":2763:2783   */\n  tag_65\n  jump\t// in\ntag_66:\n    /* \"#utility.yul\":2758:2783   */\n  swap3\n  pop\n    /* \"#utility.yul\":2802:2803   */\n  dup3\n    /* \"#utility.yul\":2792:2827   */\n  tag_67\n  jumpi\n    /* \"#utility.yul\":2807:2825   */\n  tag_68\n  tag_69\n  jump\t// in\ntag_68:\n    /* \"#utility.yul\":2792:2827   */\ntag_67:\n    /* \"#utility.yul\":2849:2850   */\n  dup3\n    /* \"#utility.yul\":2846:2847   */\n  dup3\n    /* \"#utility.yul\":2842:2851   */\n  div\n    /* \"#utility.yul\":2837:2851   */\n  swap1\n  pop\n    /* \"#utility.yul\":2672:2857   */\n  swap3\n  swap2\n  pop\n  pop\n  jump\t// out\n    /* \"#utility.yul\":2863:3211   */\ntag_14:\n    /* \"#utility.yul\":2903:2910   */\n  0x00\n    /* \"#utility.yul\":2926:2946   */\n  tag_71\n    /* \"#utility.yul\":2944:2945   */\n  dup3\n    /* \"#utility.yul\":2926:2946   */\n  tag_65\n  jump\t// in\ntag_71:\n    /* \"#utility.yul\":2921:2946   */\n  swap2\n  pop\n    /* \"#utility.yul\":2960:2980   */\n  tag_72\n    /* \"#utility.yul\":2978:2979   */\n  dup4\n    /* \"#utility.yul\":2960:2980   */\n  tag_65\n  jump\t// in\ntag_72:\n    /* \"#utility.yul\":2955:2980   */\n  swap3\n  pop\n    /* \"#utility.yul\":3148:3149   */\n  dup2\n    /* \"#utility.yul\":3080:3146   */\n  0xffffffffffffffffffffffffffffffffffffffffffffffffffffffffffffffff\n    /* \"#utility.yul\":3076:3150   */\n  div\n    /* \"#utility.yul\":3073:3074   */\n  dup4\n    /* \"#utility.yul\":3070:3151   */\n  gt\n    /* \"#utility.yul\":3065:3066   */\n  dup3\n    /* \"#utility.yul\":3058:3067   */\n  iszero\n    /* \"#utility.yul\":3051:3068   */\n  iszero\n    /* \"#utility.yul\":3047:3152   */\n  and\n    /* \"#utility.yul\":3044:3175   */\n  iszero\n  tag_73\n  jumpi\n    /* \"#utility.yul\":3155:3173   */\n  tag_74\n  tag_75\n  jump\t// in\ntag_74:\n    /* \"#utility.yul\":3044:3175   */\ntag_73:\n    /* \"#utility.yul\":3203:3204   */\n  dup3\n    /* \"#utility.yul\":3200:3201   */\n  dup3\n    /* \"#utility.yul\":3196:3205   */\n  mul\n    /* \"#utility.yul\":3185:3205   */\n  swap1\n  pop\n    /* \"#utility.yul\":2863:3211   */\n  swap3\n  swap2\n  pop\n  pop\n  jump\t// out\n    /* \"#utility.yul\":3217:3313   */\ntag_76:\n    /* \"#utility.yul\":3254:3261   */\n  0x00\n    /* \"#utility.yul\":3283:3307   */\n  tag_78\n    /* \"#utility.yul\":3301:3306   */\n  dup3\n    /* \"#utility.yul\":3283:3307   */\n  tag_79\n  jump\t// in\ntag_78:\n    /* \"#utility.yul\":3272:3307   */\n  swap1\n  pop\n    /* \"#utility.yul\":3217:3313   */\n  swap2\n  swap1\n  pop\n  jump\t// out\n    /* \"#utility.yul\":3319:3445   */\ntag_79:\n    /* \"#utility.yul\":3356:3363   */\n  0x00\n    /* \"#utility.yul\":3396:3438   */\n  0xffffffffffffffffffffffffffffffffffffffff\n    /* \"#utility.yul\":3389:3394   */\n  dup3\n    /* \"#utility.yul\":3385:3439   */\n  and\n    /* \"#utility.yul\":3374:3439   */\n  swap1\n  pop\n    /* \"#utility.yul\":3319:3445   */\n  swap2\n  swap1\n  pop\n  jump\t// out\n    /* \"#utility.yul\":3451:3528   */\ntag_65:\n    /* \"#utility.yul\":3488:3495   */\n  0x00\n    /* \"#utility.yul\":3517:3522   */\n  dup2\n    /* \"#utility.yul\":3506:3522   */\n  swap1\n  pop\n    /* \"#utility.yul\":3451:3528   */\n  swap2\n  swap1\n  pop\n  jump\t// out\n    /* \"#utility.yul\":3534:3841   */\ntag_47:\n    /* \"#utility.yul\":3602:3603   */\n  0x00\n    /* \"#utility.yul\":3612:3725   */\ntag_83:\n    /* \"#utility.yul\":3626:3632   */\n  dup4\n    /* \"#utility.yul\":3623:3624   */\n  dup2\n    /* \"#utility.yul\":3620:3633   */\n  lt\n    /* \"#utility.yul\":3612:3725   */\n  iszero\n  tag_85\n  jumpi\n    /* \"#utility.yul\":3711:3712   */\n  dup1\n    /* \"#utility.yul\":3706:3709   */\n  dup3\n    /* \"#utility.yul\":3702:3713   */\n  add\n    /* \"#utility.yul\":3696:3714   */\n  mload\n    /* \"#utility.yul\":3692:3693   */\n  dup2\n    /* \"#utility.yul\":3687:3690   */\n  dup5\n    /* \"#utility.yul\":3683:3694   */\n  add\n    /* \"#utility.yul\":3676:3715   */\n  mstore\n    /* \"#utility.yul\":3648:3650   */\n  0x20\n    /* \"#utility.yul\":3645:3646   */\n  dup2\n    /* \"#utility.yul\":3641:3651   */\n  add\n    /* \"#utility.yul\":3636:3651   */\n  swap1\n  pop\n    /* \"#utility.yul\":3612:3725   */\n  jump(tag_83)\ntag_85:\n    /* \"#utility.yul\":3743:3749   */\n  dup4\n    /* \"#utility.yul\":3740:3741   */\n  dup2\n    /* \"#utility.yul\":3737:3750   */\n  gt\n    /* \"#utility.yul\":3734:3835   */\n  iszero\n  tag_86\n  jumpi\n    /* \"#utility.yul\":3823:3824   */\n  0x00\n    /* \"#utility.yul\":3814:3820   */\n  dup5\n    /* \"#utility.yul\":3809:3812   */\n  dup5\n    /* \"#utility.yul\":3805:3821   */\n  add\n    /* \"#utility.yul\":3798:3825   */\n  mstore\n    /* \"#utility.yul\":3734:3835   */\ntag_86:\n    /* \"#utility.yul\":3583:3841   */\n  pop\n    /* \"#utility.yul\":3534:3841   */\n  pop\n  pop\n  pop\n  jump\t// out\n    /* \"#utility.yul\":3847:4027   */\ntag_75:\n    /* \"#utility.yul\":3895:3972   */\n  0x4e487b7100000000000000000000000000000000000000000000000000000000\n    /* \"#utility.yul\":3892:3893   */\n  0x00\n    /* \"#utility.yul\":3885:3973   */\n  mstore\n    /* \"#utility.yul\":3992:3996   */\n  0x11\n    /* \"#utility.yul\":3989:3990   */\n  0x04\n    /* \"#utility.yul\":3982:3997   */\n  mstore\n    /* \"#utility.yul\":4016:4020   */\n  0x24\n    /* \"#utility.yul\":4013:4014   */\n  0x00\n    /* \"#utility.yul\":4006:4021   */\n  revert\n    /* \"#utility.yul\":4033:4213   */\ntag_69:\n    /* \"#utility.yul\":4081:4158   */\n  0x4e487b7100000000000000000000000000000000000000000000000000000000\n    /* \"#utility.yul\":4078:4079   */\n  0x00\n    /* \"#utility.yul\":4071:4159   */\n  mstore\n    /* \"#utility.yul\":4178:4182   */\n  0x12\n    /* \"#utility.yul\":4175:4176   */\n  0x04\n    /* \"#utility.yul\":4168:4183   */\n  mstore\n    /* \"#utility.yul\":4202:4206   */\n  0x24\n    /* \"#utility.yul\":4199:4200   */\n  0x00\n    /* \"#utility.yul\":4192:4207   */\n  revert\n    /* \"#utility.yul\":4342:4459   */\ntag_36:\n    /* \"#utility.yul\":4451:4452   */\n  0x00\n    /* \"#utility.yul\":4448:4449   */\n  dup1\n    /* \"#utility.yul\":4441:4453   */\n  revert\n    /* \"#utility.yul\":4465:4567   */\ntag_49:\n    /* \"#utility.yul\":4506:4512   */\n  0x00\n    /* \"#utility.yul\":4557:4559   */\n  0x1f\n    /* \"#utility.yul\":4553:4560   */\n  not\n    /* \"#utility.yul\":4548:4550   */\n  0x1f\n    /* \"#utility.yul\":4541:4546   */\n  dup4\n    /* \"#utility.yul\":4537:4551   */\n  add\n    /* \"#utility.yul\":4533:4561   */\n  and\n    /* \"#utility.yul\":4523:4561   */\n  swap1\n  pop\n    /* \"#utility.yul\":4465:4567   */\n  swap2\n  swap1\n  pop\n  jump\t// out\n    /* \"#utility.yul\":4573:4793   */\ntag_54:\n    /* \"#utility.yul\":4713:4747   */\n  0x536166654d6174683a206d756c7469706c69636174696f6e206f766572666c6f\n    /* \"#utility.yul\":4709:4710   */\n  0x00\n    /* \"#utility.yul\":4701:4707   */\n  dup3\n    /* \"#utility.yul\":4697:4711   */\n  add\n    /* \"#utility.yul\":4690:4748   */\n  mstore\n    /* \"#utility.yul\":4782:4785   */\n  0x7700000000000000000000000000000000000000000000000000000000000000\n    /* \"#utility.yul\":4777:4779   */\n  0x20\n    /* \"#utility.yul\":4769:4775   */\n  dup3\n    /* \"#utility.yul\":4765:4780   */\n  add\n    /* \"#utility.yul\":4758:4786   */\n  mstore\n    /* \"#utility.yul\":4573:4793   */\n  pop\n  jump\t// out\n    /* \"#utility.yul\":4799:4921   */\ntag_32:\n    /* \"#utility.yul\":4872:4896   */\n  tag_95\n    /* \"#utility.yul\":4890:4895   */\n  dup2\n    /* \"#utility.yul\":4872:4896   */\n  tag_76\n  jump\t// in\ntag_95:\n    /* \"#utility.yul\":4865:4870   */\n  dup2\n    /* \"#utility.yul\":4862:4897   */\n  eq\n    /* \"#utility.yul\":4852:4915   */\n  tag_96\n  jumpi\n    /* \"#utility.yul\":4911:4912   */\n  0x00\n    /* \"#utility.yul\":4908:4909   */\n  dup1\n    /* \"#utility.yul\":4901:4913   */\n  revert\n    /* \"#utility.yul\":4852:4915   */\ntag_96:\n    /* \"#utility.yul\":4799:4921   */\n  pop\n  jump\t// out\n    /* \"atta-movies/TBC_busd.sol\":60579:66736  contract PopcornSigmoid is Context {\r... */\ntag_10:\n  dataSize(sub_0)\n  dup1\n  dataOffset(sub_0)\n  0x00\n  codecopy\n  0x00\n  return\nstop\n\nsub_0: assembly {\n        /* \"atta-movies/TBC_busd.sol\":60579:66736  contract PopcornSigmoid is Context {\r... */\n      mstore(0x40, 0x80)\n      callvalue\n      dup1\n      iszero\n      tag_1\n      jumpi\n      0x00\n      dup1\n      revert\n    tag_1:\n      pop\n      jumpi(tag_2, lt(calldatasize, 0x04))\n      shr(0xe0, calldataload(0x00))\n      dup1\n      0x641c9cf1\n      gt\n      tag_14\n      jumpi\n      dup1\n      0x641c9cf1\n      eq\n      tag_8\n      jumpi\n      dup1\n      0x85c210a8\n      eq\n      tag_9\n      jumpi\n      dup1\n      0xa20e8b3c\n      eq\n      tag_10\n      jumpi\n      dup1\n      0xa78a3725\n      eq\n      tag_11\n      jumpi\n      dup1\n      0xb0bc074c\n      eq\n      tag_12\n      jumpi\n      dup1\n      0xccc4afee\n      eq\n      tag_13\n      jumpi\n      jump(tag_2)\n    tag_14:\n      dup1\n      0x0b902e95\n      eq\n      tag_3\n      jumpi\n      dup1\n      0x0e5449a6\n      eq\n      tag_4\n      jumpi\n      dup1\n      0x10619766\n      eq\n      tag_5\n      jumpi\n      dup1\n      0x3597ff3d\n      eq\n      tag_6\n      jumpi\n      dup1\n      0x5f6183ff\n      eq\n      tag_7\n      jumpi\n    tag_2:\n      0x00\n      dup1\n      revert\n        /* \"atta-movies/TBC_busd.sol\":62169:62580  function _areaGivenSupply(uint256 _totalSupply) public view returns (uint256) {\r... */\n    tag_3:\n      tag_15\n      0x04\n      dup1\n      calldatasize\n      sub\n      dup2\n      add\n      swap1\n      tag_16\n      swap2\n      swap1\n      tag_17\n      jump\t// in\n    tag_16:\n      tag_18\n      jump\t// in\n    tag_15:\n      mload(0x40)\n      tag_19\n      swap2\n      swap1\n      tag_20\n      jump\t// in\n    tag_19:\n      mload(0x40)\n      dup1\n      swap2\n      sub\n      swap1\n      return\n        /* \"atta-movies/TBC_busd.sol\":66087:66365  function swapPaymentForPopcornGivenPopcorn(uint256 popcornAmount) public view returns (uint256) {\r... */\n    tag_4:\n      tag_21\n      0x04\n      dup1\n      calldatasize\n      sub\n      dup2\n      add\n      swap1\n      tag_22\n      swap2\n      swap1\n      tag_17\n      jump\t// in\n    tag_22:\n      tag_23\n      jump\t// in\n    tag_21:\n      mload(0x40)\n      tag_24\n      swap2\n      swap1\n      tag_20\n      jump\t// in\n    tag_24:\n      mload(0x40)\n      dup1\n      swap2\n      sub\n      swap1\n      return\n        /* \"atta-movies/TBC_busd.sol\":66455:66733  function swapPopcornForPaymentGivenPopcorn(uint256 popcornAmount) public view returns (uint256) {\r... */\n    tag_5:\n      tag_25\n      0x04\n      dup1\n      calldatasize\n      sub\n      dup2\n      add\n      swap1\n      tag_26\n      swap2\n      swap1\n      tag_17\n      jump\t// in\n    tag_26:\n      tag_27\n      jump\t// in\n    tag_25:\n      mload(0x40)\n      tag_28\n      swap2\n      swap1\n      tag_20\n      jump\t// in\n    tag_28:\n      mload(0x40)\n      dup1\n      swap2\n      sub\n      swap1\n      return\n        /* \"atta-movies/TBC_busd.sol\":62748:63097  function swapPaymentForPopcorn(uint256 popcornAmount) public {\r... */\n    tag_6:\n      tag_29\n      0x04\n      dup1\n      calldatasize\n      sub\n      dup2\n      add\n      swap1\n      tag_30\n      swap2\n      swap1\n      tag_17\n      jump\t// in\n    tag_30:\n      tag_31\n      jump\t// in\n    tag_29:\n      stop\n        /* \"atta-movies/TBC_busd.sol\":61527:61947  function _priceGivenSupply(uint256 _totalSupply) public view returns (uint256) {\r... */\n    tag_7:\n      tag_32\n      0x04\n      dup1\n      calldatasize\n      sub\n      dup2\n      add\n      swap1\n      tag_33\n      swap2\n      swap1\n      tag_17\n      jump\t// in\n    tag_33:\n      tag_34\n      jump\t// in\n    tag_32:\n      mload(0x40)\n      tag_35\n      swap2\n      swap1\n      tag_20\n      jump\t// in\n    tag_35:\n      mload(0x40)\n      dup1\n      swap2\n      sub\n      swap1\n      return\n        /* \"atta-movies/TBC_busd.sol\":61955:62084  function priceGivenSupply() public view returns (uint256) {\r... */\n    tag_8:\n      tag_36\n      tag_37\n      jump\t// in\n    tag_36:\n      mload(0x40)\n      tag_38\n      swap2\n      swap1\n      tag_20\n      jump\t// in\n    tag_38:\n      mload(0x40)\n      dup1\n      swap2\n      sub\n      swap1\n      return\n        /* \"atta-movies/TBC_busd.sol\":63105:63502  function swapPopcornForPayment(uint256 popcornAmount) public {\r... */\n    tag_9:\n      tag_39\n      0x04\n      dup1\n      calldatasize\n      sub\n      dup2\n      add\n      swap1\n      tag_40\n      swap2\n      swap1\n      tag_17\n      jump\t// in\n    tag_40:\n      tag_41\n      jump\t// in\n    tag_39:\n      stop\n        /* \"atta-movies/TBC_busd.sol\":62588:62740  function areaGivenSupply() public view returns (uint256) {\r... */\n    tag_10:\n      tag_42\n      tag_43\n      jump\t// in\n    tag_42:\n      mload(0x40)\n      tag_44\n      swap2\n      swap1\n      tag_20\n      jump\t// in\n    tag_44:\n      mload(0x40)\n      dup1\n      swap2\n      sub\n      swap1\n      return\n        /* \"atta-movies/TBC_busd.sol\":65027:65997  function swapPopcornForPaymentGivenPayment(uint256 paymentAmount) public view returns (uint256) {\r... */\n    tag_11:\n      tag_45\n      0x04\n      dup1\n      calldatasize\n      sub\n      dup2\n      add\n      swap1\n      tag_46\n      swap2\n      swap1\n      tag_17\n      jump\t// in\n    tag_46:\n      tag_47\n      jump\t// in\n    tag_45:\n      mload(0x40)\n      tag_48\n      swap2\n      swap1\n      tag_20\n      jump\t// in\n    tag_48:\n      mload(0x40)\n      dup1\n      swap2\n      sub\n      swap1\n      return\n        /* \"atta-movies/TBC_busd.sol\":63949:64918  function swapPaymentForPopcornGivenPayment(uint256 paymentAmount) public view returns (uint256) {\r... */\n    tag_12:\n      tag_49\n      0x04\n      dup1\n      calldatasize\n      sub\n      dup2\n      add\n      swap1\n      tag_50\n      swap2\n      swap1\n      tag_17\n      jump\t// in\n    tag_50:\n      tag_51\n      jump\t// in\n    tag_49:\n      mload(0x40)\n      tag_52\n      swap2\n      swap1\n      tag_20\n      jump\t// in\n    tag_52:\n      mload(0x40)\n      dup1\n      swap2\n      sub\n      swap1\n      return\n        /* \"atta-movies/TBC_busd.sol\":63510:63840  function clearOutExtraReward() public {\r... */\n    tag_13:\n      tag_53\n      tag_54\n      jump\t// in\n    tag_53:\n      stop\n        /* \"atta-movies/TBC_busd.sol\":62169:62580  function _areaGivenSupply(uint256 _totalSupply) public view returns (uint256) {\r... */\n    tag_18:\n        /* \"atta-movies/TBC_busd.sol\":62238:62245  uint256 */\n      0x00\n        /* \"atta-movies/TBC_busd.sol\":62258:62285  uint256 _startOffsetPartial */\n      dup1\n        /* \"atta-movies/TBC_busd.sol\":62288:62436  PRBMathUD60x18.ln(1e18 + PRBMathUD60x18.div(PRBMathUD60x18.exp(_totalSupply.mul(slopeFactor).div(maxTotalSupply)), PRBMathUD60x18.exp(supplyShift))) */\n      tag_58\n        /* \"atta-movies/TBC_busd.sol\":62313:62435  PRBMathUD60x18.div(PRBMathUD60x18.exp(_totalSupply.mul(slopeFactor).div(maxTotalSupply)), PRBMathUD60x18.exp(supplyShift)) */\n      tag_59\n        /* \"atta-movies/TBC_busd.sol\":62332:62401  PRBMathUD60x18.exp(_totalSupply.mul(slopeFactor).div(maxTotalSupply)) */\n      tag_60\n        /* \"atta-movies/TBC_busd.sol\":62351:62400  _totalSupply.mul(slopeFactor).div(maxTotalSupply) */\n      tag_61\n        /* \"atta-movies/TBC_busd.sol\":62385:62399  maxTotalSupply */\n      sload(0x02)\n        /* \"atta-movies/TBC_busd.sol\":62351:62380  _totalSupply.mul(slopeFactor) */\n      tag_62\n        /* \"atta-movies/TBC_busd.sol\":62368:62379  slopeFactor */\n      sload(0x05)\n        /* \"atta-movies/TBC_busd.sol\":62351:62363  _totalSupply */\n      dup10\n        /* \"atta-movies/TBC_busd.sol\":62351:62367  _totalSupply.mul */\n      tag_55\n      swap1\n        /* \"atta-movies/TBC_busd.sol\":62351:62380  _totalSupply.mul(slopeFactor) */\n      swap2\n      swap1\n      0xffffffff\n      and\n      jump\t// in\n    tag_62:\n        /* \"atta-movies/TBC_busd.sol\":62351:62384  _totalSupply.mul(slopeFactor).div */\n      tag_56\n      swap1\n        /* \"atta-movies/TBC_busd.sol\":62351:62400  _totalSupply.mul(slopeFactor).div(maxTotalSupply) */\n      swap2\n      swap1\n      0xffffffff\n      and\n      jump\t// in\n    tag_61:\n        /* \"atta-movies/TBC_busd.sol\":62332:62350  PRBMathUD60x18.exp */\n      tag_63\n        /* \"atta-movies/TBC_busd.sol\":62332:62401  PRBMathUD60x18.exp(_totalSupply.mul(slopeFactor).div(maxTotalSupply)) */\n      jump\t// in\n    tag_60:\n        /* \"atta-movies/TBC_busd.sol\":62403:62434  PRBMathUD60x18.exp(supplyShift) */\n      tag_64\n        /* \"atta-movies/TBC_busd.sol\":62422:62433  supplyShift */\n      sload(0x04)\n        /* \"atta-movies/TBC_busd.sol\":62403:62421  PRBMathUD60x18.exp */\n      tag_63\n        /* \"atta-movies/TBC_busd.sol\":62403:62434  PRBMathUD60x18.exp(supplyShift) */\n      jump\t// in\n    tag_64:\n        /* \"atta-movies/TBC_busd.sol\":62313:62331  PRBMathUD60x18.div */\n      tag_65\n        /* \"atta-movies/TBC_busd.sol\":62313:62435  PRBMathUD60x18.div(PRBMathUD60x18.exp(_totalSupply.mul(slopeFactor).div(maxTotalSupply)), PRBMathUD60x18.exp(supplyShift)) */\n      jump\t// in\n    tag_59:\n        /* \"atta-movies/TBC_busd.sol\":62306:62310  1e18 */\n      0x0de0b6b3a7640000\n        /* \"atta-movies/TBC_busd.sol\":62306:62435  1e18 + PRBMathUD60x18.div(PRBMathUD60x18.exp(_totalSupply.mul(slopeFactor).div(maxTotalSupply)), PRBMathUD60x18.exp(supplyShift)) */\n      tag_66\n      swap2\n      swap1\n      tag_67\n      jump\t// in\n    tag_66:\n        /* \"atta-movies/TBC_busd.sol\":62288:62305  PRBMathUD60x18.ln */\n      tag_68\n        /* \"atta-movies/TBC_busd.sol\":62288:62436  PRBMathUD60x18.ln(1e18 + PRBMathUD60x18.div(PRBMathUD60x18.exp(_totalSupply.mul(slopeFactor).div(maxTotalSupply)), PRBMathUD60x18.exp(supplyShift))) */\n      jump\t// in\n    tag_58:\n        /* \"atta-movies/TBC_busd.sol\":62258:62436  uint256 _startOffsetPartial = PRBMathUD60x18.ln(1e18 + PRBMathUD60x18.div(PRBMathUD60x18.exp(_totalSupply.mul(slopeFactor).div(maxTotalSupply)), PRBMathUD60x18.exp(supplyShift))) */\n      swap1\n      pop\n        /* \"atta-movies/TBC_busd.sol\":62454:62572  PRBMathUD60x18.div(PRBMathUD60x18.mul(PRBMathUD60x18.mul(_startOffsetPartial, maxTotalSupply), priceCap), slopeFactor) */\n      tag_69\n        /* \"atta-movies/TBC_busd.sol\":62473:62558  PRBMathUD60x18.mul(PRBMathUD60x18.mul(_startOffsetPartial, maxTotalSupply), priceCap) */\n      tag_70\n        /* \"atta-movies/TBC_busd.sol\":62492:62547  PRBMathUD60x18.mul(_startOffsetPartial, maxTotalSupply) */\n      tag_71\n        /* \"atta-movies/TBC_busd.sol\":62511:62530  _startOffsetPartial */\n      dup4\n        /* \"atta-movies/TBC_busd.sol\":62532:62546  maxTotalSupply */\n      sload(0x02)\n        /* \"atta-movies/TBC_busd.sol\":62492:62510  PRBMathUD60x18.mul */\n      tag_72\n        /* \"atta-movies/TBC_busd.sol\":62492:62547  PRBMathUD60x18.mul(_startOffsetPartial, maxTotalSupply) */\n      jump\t// in\n    tag_71:\n        /* \"atta-movies/TBC_busd.sol\":62549:62557  priceCap */\n      sload(0x03)\n        /* \"atta-movies/TBC_busd.sol\":62473:62491  PRBMathUD60x18.mul */\n      tag_72\n        /* \"atta-movies/TBC_busd.sol\":62473:62558  PRBMathUD60x18.mul(PRBMathUD60x18.mul(_startOffsetPartial, maxTotalSupply), priceCap) */\n      jump\t// in\n    tag_70:\n        /* \"atta-movies/TBC_busd.sol\":62560:62571  slopeFactor */\n      sload(0x05)\n        /* \"atta-movies/TBC_busd.sol\":62454:62472  PRBMathUD60x18.div */\n      tag_65\n        /* \"atta-movies/TBC_busd.sol\":62454:62572  PRBMathUD60x18.div(PRBMathUD60x18.mul(PRBMathUD60x18.mul(_startOffsetPartial, maxTotalSupply), priceCap), slopeFactor) */\n      jump\t// in\n    tag_69:\n        /* \"atta-movies/TBC_busd.sol\":62447:62572  return PRBMathUD60x18.div(PRBMathUD60x18.mul(PRBMathUD60x18.mul(_startOffsetPartial, maxTotalSupply), priceCap), slopeFactor) */\n      swap2\n      pop\n      pop\n        /* \"atta-movies/TBC_busd.sol\":62169:62580  function _areaGivenSupply(uint256 _totalSupply) public view returns (uint256) {\r... */\n      swap2\n      swap1\n      pop\n      jump\t// out\n        /* \"atta-movies/TBC_busd.sol\":66087:66365  function swapPaymentForPopcornGivenPopcorn(uint256 popcornAmount) public view returns (uint256) {\r... */\n    tag_23:\n        /* \"atta-movies/TBC_busd.sol\":66174:66181  uint256 */\n      0x00\n        /* \"atta-movies/TBC_busd.sol\":66194:66207  uint256 price */\n      dup1\n        /* \"atta-movies/TBC_busd.sol\":66210:66274  _priceGivenSupply(popcornToken.totalSupply().add(popcornAmount)) */\n      tag_74\n        /* \"atta-movies/TBC_busd.sol\":66228:66273  popcornToken.totalSupply().add(popcornAmount) */\n      tag_75\n        /* \"atta-movies/TBC_busd.sol\":66259:66272  popcornAmount */\n      dup5\n        /* \"atta-movies/TBC_busd.sol\":66228:66240  popcornToken */\n      0x06\n      0x00\n      swap1\n      sload\n      swap1\n      0x0100\n      exp\n      swap1\n      div\n      0xffffffffffffffffffffffffffffffffffffffff\n      and\n        /* \"atta-movies/TBC_busd.sol\":66228:66252  popcornToken.totalSupply */\n      0xffffffffffffffffffffffffffffffffffffffff\n      and\n      0x18160ddd\n        /* \"atta-movies/TBC_busd.sol\":66228:66254  popcornToken.totalSupply() */\n      mload(0x40)\n      dup2\n      0xffffffff\n      and\n      0xe0\n      shl\n      dup2\n      mstore\n      0x04\n      add\n      0x20\n      mload(0x40)\n      dup1\n      dup4\n      sub\n      dup2\n      dup7\n      dup1\n      extcodesize\n      iszero\n      dup1\n      iszero\n      tag_76\n      jumpi\n      0x00\n      dup1\n      revert\n    tag_76:\n      pop\n      gas\n      staticcall\n      iszero\n      dup1\n      iszero\n      tag_78\n      jumpi\n      returndatasize\n      0x00\n      dup1\n      returndatacopy\n      revert(0x00, returndatasize)\n    tag_78:\n      pop\n      pop\n      pop\n      pop\n      mload(0x40)\n      returndatasize\n      not(0x1f)\n      0x1f\n      dup3\n      add\n      and\n      dup3\n      add\n      dup1\n      0x40\n      mstore\n      pop\n      dup2\n      add\n      swap1\n      tag_79\n      swap2\n      swap1\n      tag_80\n      jump\t// in\n    tag_79:\n        /* \"atta-movies/TBC_busd.sol\":66228:66258  popcornToken.totalSupply().add */\n      tag_81\n      swap1\n        /* \"atta-movies/TBC_busd.sol\":66228:66273  popcornToken.totalSupply().add(popcornAmount) */\n      swap2\n      swap1\n      0xffffffff\n      and\n      jump\t// in\n    tag_75:\n        /* \"atta-movies/TBC_busd.sol\":66210:66227  _priceGivenSupply */\n      tag_34\n        /* \"atta-movies/TBC_busd.sol\":66210:66274  _priceGivenSupply(popcornToken.totalSupply().add(popcornAmount)) */\n      jump\t// in\n    tag_74:\n        /* \"atta-movies/TBC_busd.sol\":66194:66274  uint256 price = _priceGivenSupply(popcornToken.totalSupply().add(popcornAmount)) */\n      swap1\n      pop\n        /* \"atta-movies/TBC_busd.sol\":66292:66357  price.mul(popcornAmount).div(1e18).div(paymentTokenDecimalFactor) */\n      tag_82\n        /* \"atta-movies/TBC_busd.sol\":66331:66356  paymentTokenDecimalFactor */\n      sload(0x01)\n        /* \"atta-movies/TBC_busd.sol\":66292:66326  price.mul(popcornAmount).div(1e18) */\n      tag_83\n        /* \"atta-movies/TBC_busd.sol\":66321:66325  1e18 */\n      0x0de0b6b3a7640000\n        /* \"atta-movies/TBC_busd.sol\":66292:66316  price.mul(popcornAmount) */\n      tag_84\n        /* \"atta-movies/TBC_busd.sol\":66302:66315  popcornAmount */\n      dup8\n        /* \"atta-movies/TBC_busd.sol\":66292:66297  price */\n      dup7\n        /* \"atta-movies/TBC_busd.sol\":66292:66301  price.mul */\n      tag_55\n      swap1\n        /* \"atta-movies/TBC_busd.sol\":66292:66316  price.mul(popcornAmount) */\n      swap2\n      swap1\n      0xffffffff\n      and\n      jump\t// in\n    tag_84:\n        /* \"atta-movies/TBC_busd.sol\":66292:66320  price.mul(popcornAmount).div */\n      tag_56\n      swap1\n        /* \"atta-movies/TBC_busd.sol\":66292:66326  price.mul(popcornAmount).div(1e18) */\n      swap2\n      swap1\n      0xffffffff\n      and\n      jump\t// in\n    tag_83:\n        /* \"atta-movies/TBC_busd.sol\":66292:66330  price.mul(popcornAmount).div(1e18).div */\n      tag_56\n      swap1\n        /* \"atta-movies/TBC_busd.sol\":66292:66357  price.mul(popcornAmount).div(1e18).div(paymentTokenDecimalFactor) */\n      swap2\n      swap1\n      0xffffffff\n      and\n      jump\t// in\n    tag_82:\n        /* \"atta-movies/TBC_busd.sol\":66285:66357  return price.mul(popcornAmount).div(1e18).div(paymentTokenDecimalFactor) */\n      swap2\n      pop\n      pop\n        /* \"atta-movies/TBC_busd.sol\":66087:66365  function swapPaymentForPopcornGivenPopcorn(uint256 popcornAmount) public view returns (uint256) {\r... */\n      swap2\n      swap1\n      pop\n      jump\t// out\n        /* \"atta-movies/TBC_busd.sol\":66455:66733  function swapPopcornForPaymentGivenPopcorn(uint256 popcornAmount) public view returns (uint256) {\r... */\n    tag_27:\n        /* \"atta-movies/TBC_busd.sol\":66542:66549  uint256 */\n      0x00\n        /* \"atta-movies/TBC_busd.sol\":66562:66575  uint256 price */\n      dup1\n        /* \"atta-movies/TBC_busd.sol\":66578:66642  _priceGivenSupply(popcornToken.totalSupply().sub(popcornAmount)) */\n      tag_86\n        /* \"atta-movies/TBC_busd.sol\":66596:66641  popcornToken.totalSupply().sub(popcornAmount) */\n      tag_87\n        /* \"atta-movies/TBC_busd.sol\":66627:66640  popcornAmount */\n      dup5\n        /* \"atta-movies/TBC_busd.sol\":66596:66608  popcornToken */\n      0x06\n      0x00\n      swap1\n      sload\n      swap1\n      0x0100\n      exp\n      swap1\n      div\n      0xffffffffffffffffffffffffffffffffffffffff\n      and\n        /* \"atta-movies/TBC_busd.sol\":66596:66620  popcornToken.totalSupply */\n      0xffffffffffffffffffffffffffffffffffffffff\n      and\n      0x18160ddd\n        /* \"atta-movies/TBC_busd.sol\":66596:66622  popcornToken.totalSupply() */\n      mload(0x40)\n      dup2\n      0xffffffff\n      and\n      0xe0\n      shl\n      dup2\n      mstore\n      0x04\n      add\n      0x20\n      mload(0x40)\n      dup1\n      dup4\n      sub\n      dup2\n      dup7\n      dup1\n      extcodesize\n      iszero\n      dup1\n      iszero\n      tag_88\n      jumpi\n      0x00\n      dup1\n      revert\n    tag_88:\n      pop\n      gas\n      staticcall\n      iszero\n      dup1\n      iszero\n      tag_90\n      jumpi\n      returndatasize\n      0x00\n      dup1\n      returndatacopy\n      revert(0x00, returndatasize)\n    tag_90:\n      pop\n      pop\n      pop\n      pop\n      mload(0x40)\n      returndatasize\n      not(0x1f)\n      0x1f\n      dup3\n      add\n      and\n      dup3\n      add\n      dup1\n      0x40\n      mstore\n      pop\n      dup2\n      add\n      swap1\n      tag_91\n      swap2\n      swap1\n      tag_80\n      jump\t// in\n    tag_91:\n        /* \"atta-movies/TBC_busd.sol\":66596:66626  popcornToken.totalSupply().sub */\n      tag_92\n      swap1\n        /* \"atta-movies/TBC_busd.sol\":66596:66641  popcornToken.totalSupply().sub(popcornAmount) */\n      swap2\n      swap1\n      0xffffffff\n      and\n      jump\t// in\n    tag_87:\n        /* \"atta-movies/TBC_busd.sol\":66578:66595  _priceGivenSupply */\n      tag_34\n        /* \"atta-movies/TBC_busd.sol\":66578:66642  _priceGivenSupply(popcornToken.totalSupply().sub(popcornAmount)) */\n      jump\t// in\n    tag_86:\n        /* \"atta-movies/TBC_busd.sol\":66562:66642  uint256 price = _priceGivenSupply(popcornToken.totalSupply().sub(popcornAmount)) */\n      swap1\n      pop\n        /* \"atta-movies/TBC_busd.sol\":66660:66725  price.mul(popcornAmount).div(1e18).div(paymentTokenDecimalFactor) */\n      tag_93\n        /* \"atta-movies/TBC_busd.sol\":66699:66724  paymentTokenDecimalFactor */\n      sload(0x01)\n        /* \"atta-movies/TBC_busd.sol\":66660:66694  price.mul(popcornAmount).div(1e18) */\n      tag_94\n        /* \"atta-movies/TBC_busd.sol\":66689:66693  1e18 */\n      0x0de0b6b3a7640000\n        /* \"atta-movies/TBC_busd.sol\":66660:66684  price.mul(popcornAmount) */\n      tag_95\n        /* \"atta-movies/TBC_busd.sol\":66670:66683  popcornAmount */\n      dup8\n        /* \"atta-movies/TBC_busd.sol\":66660:66665  price */\n      dup7\n        /* \"atta-movies/TBC_busd.sol\":66660:66669  price.mul */\n      tag_55\n      swap1\n        /* \"atta-movies/TBC_busd.sol\":66660:66684  price.mul(popcornAmount) */\n      swap2\n      swap1\n      0xffffffff\n      and\n      jump\t// in\n    tag_95:\n        /* \"atta-movies/TBC_busd.sol\":66660:66688  price.mul(popcornAmount).div */\n      tag_56\n      swap1\n        /* \"atta-movies/TBC_busd.sol\":66660:66694  price.mul(popcornAmount).div(1e18) */\n      swap2\n      swap1\n      0xffffffff\n      and\n      jump\t// in\n    tag_94:\n        /* \"atta-movies/TBC_busd.sol\":66660:66698  price.mul(popcornAmount).div(1e18).div */\n      tag_56\n      swap1\n        /* \"atta-movies/TBC_busd.sol\":66660:66725  price.mul(popcornAmount).div(1e18).div(paymentTokenDecimalFactor) */\n      swap2\n      swap1\n      0xffffffff\n      and\n      jump\t// in\n    tag_93:\n        /* \"atta-movies/TBC_busd.sol\":66653:66725  return price.mul(popcornAmount).div(1e18).div(paymentTokenDecimalFactor) */\n      swap2\n      pop\n      pop\n        /* \"atta-movies/TBC_busd.sol\":66455:66733  function swapPopcornForPaymentGivenPopcorn(uint256 popcornAmount) public view returns (uint256) {\r... */\n      swap2\n      swap1\n      pop\n      jump\t// out\n        /* \"atta-movies/TBC_busd.sol\":62748:63097  function swapPaymentForPopcorn(uint256 popcornAmount) public {\r... */\n    tag_31:\n        /* \"atta-movies/TBC_busd.sol\":62820:62833  uint256 price */\n      0x00\n        /* \"atta-movies/TBC_busd.sol\":62836:62900  _priceGivenSupply(popcornToken.totalSupply().add(popcornAmount)) */\n      tag_97\n        /* \"atta-movies/TBC_busd.sol\":62854:62899  popcornToken.totalSupply().add(popcornAmount) */\n      tag_98\n        /* \"atta-movies/TBC_busd.sol\":62885:62898  popcornAmount */\n      dup4\n        /* \"atta-movies/TBC_busd.sol\":62854:62866  popcornToken */\n      0x06\n      0x00\n      swap1\n      sload\n      swap1\n      0x0100\n      exp\n      swap1\n      div\n      0xffffffffffffffffffffffffffffffffffffffff\n      and\n        /* \"atta-movies/TBC_busd.sol\":62854:62878  popcornToken.totalSupply */\n      0xffffffffffffffffffffffffffffffffffffffff\n      and\n      0x18160ddd\n        /* \"atta-movies/TBC_busd.sol\":62854:62880  popcornToken.totalSupply() */\n      mload(0x40)\n      dup2\n      0xffffffff\n      and\n      0xe0\n      shl\n      dup2\n      mstore\n      0x04\n      add\n      0x20\n      mload(0x40)\n      dup1\n      dup4\n      sub\n      dup2\n      dup7\n      dup1\n      extcodesize\n      iszero\n      dup1\n      iszero\n      tag_99\n      jumpi\n      0x00\n      dup1\n      revert\n    tag_99:\n      pop\n      gas\n      staticcall\n      iszero\n      dup1\n      iszero\n      tag_101\n      jumpi\n      returndatasize\n      0x00\n      dup1\n      returndatacopy\n      revert(0x00, returndatasize)\n    tag_101:\n      pop\n      pop\n      pop\n      pop\n      mload(0x40)\n      returndatasize\n      not(0x1f)\n      0x1f\n      dup3\n      add\n      and\n      dup3\n      add\n      dup1\n      0x40\n      mstore\n      pop\n      dup2\n      add\n      swap1\n      tag_102\n      swap2\n      swap1\n      tag_80\n      jump\t// in\n    tag_102:\n        /* \"atta-movies/TBC_busd.sol\":62854:62884  popcornToken.totalSupply().add */\n      tag_81\n      swap1\n        /* \"atta-movies/TBC_busd.sol\":62854:62899  popcornToken.totalSupply().add(popcornAmount) */\n      swap2\n      swap1\n      0xffffffff\n      and\n      jump\t// in\n    tag_98:\n        /* \"atta-movies/TBC_busd.sol\":62836:62853  _priceGivenSupply */\n      tag_34\n        /* \"atta-movies/TBC_busd.sol\":62836:62900  _priceGivenSupply(popcornToken.totalSupply().add(popcornAmount)) */\n      jump\t// in\n    tag_97:\n        /* \"atta-movies/TBC_busd.sol\":62820:62900  uint256 price = _priceGivenSupply(popcornToken.totalSupply().add(popcornAmount)) */\n      swap1\n      pop\n        /* \"atta-movies/TBC_busd.sol\":62911:62923  paymentToken */\n      0x00\n      dup1\n      sload\n      swap1\n      0x0100\n      exp\n      swap1\n      div\n      0xffffffffffffffffffffffffffffffffffffffff\n      and\n        /* \"atta-movies/TBC_busd.sol\":62911:62936  paymentToken.transferFrom */\n      0xffffffffffffffffffffffffffffffffffffffff\n      and\n      0x23b872dd\n        /* \"atta-movies/TBC_busd.sol\":62937:62949  _msgSender() */\n      tag_103\n        /* \"atta-movies/TBC_busd.sol\":62937:62947  _msgSender */\n      tag_104\n        /* \"atta-movies/TBC_busd.sol\":62937:62949  _msgSender() */\n      jump\t// in\n    tag_103:\n        /* \"atta-movies/TBC_busd.sol\":62959:62963  this */\n      address\n        /* \"atta-movies/TBC_busd.sol\":62966:63031  price.mul(popcornAmount).div(1e18).div(paymentTokenDecimalFactor) */\n      tag_105\n        /* \"atta-movies/TBC_busd.sol\":63005:63030  paymentTokenDecimalFactor */\n      sload(0x01)\n        /* \"atta-movies/TBC_busd.sol\":62966:63000  price.mul(popcornAmount).div(1e18) */\n      tag_106\n        /* \"atta-movies/TBC_busd.sol\":62995:62999  1e18 */\n      0x0de0b6b3a7640000\n        /* \"atta-movies/TBC_busd.sol\":62966:62990  price.mul(popcornAmount) */\n      tag_107\n        /* \"atta-movies/TBC_busd.sol\":62976:62989  popcornAmount */\n      dup11\n        /* \"atta-movies/TBC_busd.sol\":62966:62971  price */\n      dup11\n        /* \"atta-movies/TBC_busd.sol\":62966:62975  price.mul */\n      tag_55\n      swap1\n        /* \"atta-movies/TBC_busd.sol\":62966:62990  price.mul(popcornAmount) */\n      swap2\n      swap1\n      0xffffffff\n      and\n      jump\t// in\n    tag_107:\n        /* \"atta-movies/TBC_busd.sol\":62966:62994  price.mul(popcornAmount).div */\n      tag_56\n      swap1\n        /* \"atta-movies/TBC_busd.sol\":62966:63000  price.mul(popcornAmount).div(1e18) */\n      swap2\n      swap1\n      0xffffffff\n      and\n      jump\t// in\n    tag_106:\n        /* \"atta-movies/TBC_busd.sol\":62966:63004  price.mul(popcornAmount).div(1e18).div */\n      tag_56\n      swap1\n        /* \"atta-movies/TBC_busd.sol\":62966:63031  price.mul(popcornAmount).div(1e18).div(paymentTokenDecimalFactor) */\n      swap2\n      swap1\n      0xffffffff\n      and\n      jump\t// in\n    tag_105:\n        /* \"atta-movies/TBC_busd.sol\":62911:63032  paymentToken.transferFrom(_msgSender(), address(this), price.mul(popcornAmount).div(1e18).div(paymentTokenDecimalFactor)) */\n      mload(0x40)\n      dup5\n      0xffffffff\n      and\n      0xe0\n      shl\n      dup2\n      mstore\n      0x04\n      add\n      tag_108\n      swap4\n      swap3\n      swap2\n      swap1\n      tag_109\n      jump\t// in\n    tag_108:\n      0x20\n      mload(0x40)\n      dup1\n      dup4\n      sub\n      dup2\n      0x00\n      dup8\n      dup1\n      extcodesize\n      iszero\n      dup1\n      iszero\n      tag_110\n      jumpi\n      0x00\n      dup1\n      revert\n    tag_110:\n      pop\n      gas\n      call\n      iszero\n      dup1\n      iszero\n      tag_112\n      jumpi\n      returndatasize\n      0x00\n      dup1\n      returndatacopy\n      revert(0x00, returndatasize)\n    tag_112:\n      pop\n      pop\n      pop\n      pop\n      mload(0x40)\n      returndatasize\n      not(0x1f)\n      0x1f\n      dup3\n      add\n      and\n      dup3\n      add\n      dup1\n      0x40\n      mstore\n      pop\n      dup2\n      add\n      swap1\n      tag_113\n      swap2\n      swap1\n      tag_114\n      jump\t// in\n    tag_113:\n      pop\n        /* \"atta-movies/TBC_busd.sol\":63043:63055  popcornToken */\n      0x06\n      0x00\n      swap1\n      sload\n      swap1\n      0x0100\n      exp\n      swap1\n      div\n      0xffffffffffffffffffffffffffffffffffffffff\n      and\n        /* \"atta-movies/TBC_busd.sol\":63043:63060  popcornToken.mint */\n      0xffffffffffffffffffffffffffffffffffffffff\n      and\n      0x40c10f19\n        /* \"atta-movies/TBC_busd.sol\":63061:63073  _msgSender() */\n      tag_115\n        /* \"atta-movies/TBC_busd.sol\":63061:63071  _msgSender */\n      tag_104\n        /* \"atta-movies/TBC_busd.sol\":63061:63073  _msgSender() */\n      jump\t// in\n    tag_115:\n        /* \"atta-movies/TBC_busd.sol\":63075:63088  popcornAmount */\n      dup5\n        /* \"atta-movies/TBC_busd.sol\":63043:63089  popcornToken.mint(_msgSender(), popcornAmount) */\n      mload(0x40)\n      dup4\n      0xffffffff\n      and\n      0xe0\n      shl\n      dup2\n      mstore\n      0x04\n      add\n      tag_116\n      swap3\n      swap2\n      swap1\n      tag_117\n      jump\t// in\n    tag_116:\n      0x00\n      mload(0x40)\n      dup1\n      dup4\n      sub\n      dup2\n      0x00\n      dup8\n      dup1\n      extcodesize\n      iszero\n      dup1\n      iszero\n      tag_118\n      jumpi\n      0x00\n      dup1\n      revert\n    tag_118:\n      pop\n      gas\n      call\n      iszero\n      dup1\n      iszero\n      tag_120\n      jumpi\n      returndatasize\n      0x00\n      dup1\n      returndatacopy\n      revert(0x00, returndatasize)\n    tag_120:\n      pop\n      pop\n      pop\n      pop\n        /* \"atta-movies/TBC_busd.sol\":62809:63097  {\r... */\n      pop\n        /* \"atta-movies/TBC_busd.sol\":62748:63097  function swapPaymentForPopcorn(uint256 popcornAmount) public {\r... */\n      pop\n      jump\t// out\n        /* \"atta-movies/TBC_busd.sol\":61527:61947  function _priceGivenSupply(uint256 _totalSupply) public view returns (uint256) {\r... */\n    tag_34:\n        /* \"atta-movies/TBC_busd.sol\":61597:61604  uint256 */\n      0x00\n        /* \"atta-movies/TBC_busd.sol\":61617:61629  uint256 log2 */\n      dup1\n        /* \"atta-movies/TBC_busd.sol\":61632:61681  _totalSupply.mul(slopeFactor).div(maxTotalSupply) */\n      tag_122\n        /* \"atta-movies/TBC_busd.sol\":61666:61680  maxTotalSupply */\n      sload(0x02)\n        /* \"atta-movies/TBC_busd.sol\":61632:61661  _totalSupply.mul(slopeFactor) */\n      tag_123\n        /* \"atta-movies/TBC_busd.sol\":61649:61660  slopeFactor */\n      sload(0x05)\n        /* \"atta-movies/TBC_busd.sol\":61632:61644  _totalSupply */\n      dup7\n        /* \"atta-movies/TBC_busd.sol\":61632:61648  _totalSupply.mul */\n      tag_55\n      swap1\n        /* \"atta-movies/TBC_busd.sol\":61632:61661  _totalSupply.mul(slopeFactor) */\n      swap2\n      swap1\n      0xffffffff\n      and\n      jump\t// in\n    tag_123:\n        /* \"atta-movies/TBC_busd.sol\":61632:61665  _totalSupply.mul(slopeFactor).div */\n      tag_56\n      swap1\n        /* \"atta-movies/TBC_busd.sol\":61632:61681  _totalSupply.mul(slopeFactor).div(maxTotalSupply) */\n      swap2\n      swap1\n      0xffffffff\n      and\n      jump\t// in\n    tag_122:\n        /* \"atta-movies/TBC_busd.sol\":61617:61681  uint256 log2 = _totalSupply.mul(slopeFactor).div(maxTotalSupply) */\n      swap1\n      pop\n        /* \"atta-movies/TBC_busd.sol\":61694:61713  uint256 denominator */\n      0x00\n        /* \"atta-movies/TBC_busd.sol\":61743:61794  PRBMathUD60x18.exp(supplyShift.add(1e19).sub(log2)) */\n      tag_124\n        /* \"atta-movies/TBC_busd.sol\":61762:61793  supplyShift.add(1e19).sub(log2) */\n      tag_125\n        /* \"atta-movies/TBC_busd.sol\":61788:61792  log2 */\n      dup4\n        /* \"atta-movies/TBC_busd.sol\":61762:61783  supplyShift.add(1e19) */\n      tag_126\n        /* \"atta-movies/TBC_busd.sol\":61778:61782  1e19 */\n      0x8ac7230489e80000\n        /* \"atta-movies/TBC_busd.sol\":61762:61773  supplyShift */\n      sload(0x04)\n        /* \"atta-movies/TBC_busd.sol\":61762:61777  supplyShift.add */\n      tag_81\n      swap1\n        /* \"atta-movies/TBC_busd.sol\":61762:61783  supplyShift.add(1e19) */\n      swap2\n      swap1\n      0xffffffff\n      and\n      jump\t// in\n    tag_126:\n        /* \"atta-movies/TBC_busd.sol\":61762:61787  supplyShift.add(1e19).sub */\n      tag_92\n      swap1\n        /* \"atta-movies/TBC_busd.sol\":61762:61793  supplyShift.add(1e19).sub(log2) */\n      swap2\n      swap1\n      0xffffffff\n      and\n      jump\t// in\n    tag_125:\n        /* \"atta-movies/TBC_busd.sol\":61743:61761  PRBMathUD60x18.exp */\n      tag_63\n        /* \"atta-movies/TBC_busd.sol\":61743:61794  PRBMathUD60x18.exp(supplyShift.add(1e19).sub(log2)) */\n      jump\t// in\n    tag_124:\n        /* \"atta-movies/TBC_busd.sol\":61716:61740  PRBMathUD60x18.exp(1e19) */\n      tag_127\n        /* \"atta-movies/TBC_busd.sol\":61735:61739  1e19 */\n      0x8ac7230489e80000\n        /* \"atta-movies/TBC_busd.sol\":61716:61734  PRBMathUD60x18.exp */\n      tag_63\n        /* \"atta-movies/TBC_busd.sol\":61716:61740  PRBMathUD60x18.exp(1e19) */\n      jump\t// in\n    tag_127:\n        /* \"atta-movies/TBC_busd.sol\":61716:61794  PRBMathUD60x18.exp(1e19) + PRBMathUD60x18.exp(supplyShift.add(1e19).sub(log2)) */\n      tag_128\n      swap2\n      swap1\n      tag_67\n      jump\t// in\n    tag_128:\n        /* \"atta-movies/TBC_busd.sol\":61694:61794  uint256 denominator = PRBMathUD60x18.exp(1e19) + PRBMathUD60x18.exp(supplyShift.add(1e19).sub(log2)) */\n      swap1\n      pop\n        /* \"atta-movies/TBC_busd.sol\":61805:61822  uint256 numerator */\n      0x00\n        /* \"atta-movies/TBC_busd.sol\":61825:61879  PRBMathUD60x18.mul(priceCap, PRBMathUD60x18.exp(1e19)) */\n      tag_129\n        /* \"atta-movies/TBC_busd.sol\":61844:61852  priceCap */\n      sload(0x03)\n        /* \"atta-movies/TBC_busd.sol\":61854:61878  PRBMathUD60x18.exp(1e19) */\n      tag_130\n        /* \"atta-movies/TBC_busd.sol\":61873:61877  1e19 */\n      0x8ac7230489e80000\n        /* \"atta-movies/TBC_busd.sol\":61854:61872  PRBMathUD60x18.exp */\n      tag_63\n        /* \"atta-movies/TBC_busd.sol\":61854:61878  PRBMathUD60x18.exp(1e19) */\n      jump\t// in\n    tag_130:\n        /* \"atta-movies/TBC_busd.sol\":61825:61843  PRBMathUD60x18.mul */\n      tag_72\n        /* \"atta-movies/TBC_busd.sol\":61825:61879  PRBMathUD60x18.mul(priceCap, PRBMathUD60x18.exp(1e19)) */\n      jump\t// in\n    tag_129:\n        /* \"atta-movies/TBC_busd.sol\":61805:61879  uint256 numerator = PRBMathUD60x18.mul(priceCap, PRBMathUD60x18.exp(1e19)) */\n      swap1\n      pop\n        /* \"atta-movies/TBC_busd.sol\":61897:61939  PRBMathUD60x18.div(numerator, denominator) */\n      tag_131\n        /* \"atta-movies/TBC_busd.sol\":61916:61925  numerator */\n      dup2\n        /* \"atta-movies/TBC_busd.sol\":61927:61938  denominator */\n      dup4\n        /* \"atta-movies/TBC_busd.sol\":61897:61915  PRBMathUD60x18.div */\n      tag_65\n        /* \"atta-movies/TBC_busd.sol\":61897:61939  PRBMathUD60x18.div(numerator, denominator) */\n      jump\t// in\n    tag_131:\n        /* \"atta-movies/TBC_busd.sol\":61890:61939  return PRBMathUD60x18.div(numerator, denominator) */\n      swap4\n      pop\n      pop\n      pop\n      pop\n        /* \"atta-movies/TBC_busd.sol\":61527:61947  function _priceGivenSupply(uint256 _totalSupply) public view returns (uint256) {\r... */\n      swap2\n      swap1\n      pop\n      jump\t// out\n        /* \"atta-movies/TBC_busd.sol\":61955:62084  function priceGivenSupply() public view returns (uint256) {\r... */\n    tag_37:\n        /* \"atta-movies/TBC_busd.sol\":62004:62011  uint256 */\n      0x00\n        /* \"atta-movies/TBC_busd.sol\":62031:62076  _priceGivenSupply(popcornToken.totalSupply()) */\n      tag_133\n        /* \"atta-movies/TBC_busd.sol\":62049:62061  popcornToken */\n      0x06\n      0x00\n      swap1\n      sload\n      swap1\n      0x0100\n      exp\n      swap1\n      div\n      0xffffffffffffffffffffffffffffffffffffffff\n      and\n        /* \"atta-movies/TBC_busd.sol\":62049:62073  popcornToken.totalSupply */\n      0xffffffffffffffffffffffffffffffffffffffff\n      and\n      0x18160ddd\n        /* \"atta-movies/TBC_busd.sol\":62049:62075  popcornToken.totalSupply() */\n      mload(0x40)\n      dup2\n      0xffffffff\n      and\n      0xe0\n      shl\n      dup2\n      mstore\n      0x04\n      add\n      0x20\n      mload(0x40)\n      dup1\n      dup4\n      sub\n      dup2\n      dup7\n      dup1\n      extcodesize\n      iszero\n      dup1\n      iszero\n      tag_134\n      jumpi\n      0x00\n      dup1\n      revert\n    tag_134:\n      pop\n      gas\n      staticcall\n      iszero\n      dup1\n      iszero\n      tag_136\n      jumpi\n      returndatasize\n      0x00\n      dup1\n      returndatacopy\n      revert(0x00, returndatasize)\n    tag_136:\n      pop\n      pop\n      pop\n      pop\n      mload(0x40)\n      returndatasize\n      not(0x1f)\n      0x1f\n      dup3\n      add\n      and\n      dup3\n      add\n      dup1\n      0x40\n      mstore\n      pop\n      dup2\n      add\n      swap1\n      tag_137\n      swap2\n      swap1\n      tag_80\n      jump\t// in\n    tag_137:\n        /* \"atta-movies/TBC_busd.sol\":62031:62048  _priceGivenSupply */\n      tag_34\n        /* \"atta-movies/TBC_busd.sol\":62031:62076  _priceGivenSupply(popcornToken.totalSupply()) */\n      jump\t// in\n    tag_133:\n        /* \"atta-movies/TBC_busd.sol\":62024:62076  return _priceGivenSupply(popcornToken.totalSupply()) */\n      swap1\n      pop\n        /* \"atta-movies/TBC_busd.sol\":61955:62084  function priceGivenSupply() public view returns (uint256) {\r... */\n      swap1\n      jump\t// out\n        /* \"atta-movies/TBC_busd.sol\":63105:63502  function swapPopcornForPayment(uint256 popcornAmount) public {\r... */\n    tag_41:\n        /* \"atta-movies/TBC_busd.sol\":63177:63190  uint256 price */\n      0x00\n        /* \"atta-movies/TBC_busd.sol\":63193:63257  _priceGivenSupply(popcornToken.totalSupply().sub(popcornAmount)) */\n      tag_139\n        /* \"atta-movies/TBC_busd.sol\":63211:63256  popcornToken.totalSupply().sub(popcornAmount) */\n      tag_140\n        /* \"atta-movies/TBC_busd.sol\":63242:63255  popcornAmount */\n      dup4\n        /* \"atta-movies/TBC_busd.sol\":63211:63223  popcornToken */\n      0x06\n      0x00\n      swap1\n      sload\n      swap1\n      0x0100\n      exp\n      swap1\n      div\n      0xffffffffffffffffffffffffffffffffffffffff\n      and\n        /* \"atta-movies/TBC_busd.sol\":63211:63235  popcornToken.totalSupply */\n      0xffffffffffffffffffffffffffffffffffffffff\n      and\n      0x18160ddd\n        /* \"atta-movies/TBC_busd.sol\":63211:63237  popcornToken.totalSupply() */\n      mload(0x40)\n      dup2\n      0xffffffff\n      and\n      0xe0\n      shl\n      dup2\n      mstore\n      0x04\n      add\n      0x20\n      mload(0x40)\n      dup1\n      dup4\n      sub\n      dup2\n      dup7\n      dup1\n      extcodesize\n      iszero\n      dup1\n      iszero\n      tag_141\n      jumpi\n      0x00\n      dup1\n      revert\n    tag_141:\n      pop\n      gas\n      staticcall\n      iszero\n      dup1\n      iszero\n      tag_143\n      jumpi\n      returndatasize\n      0x00\n      dup1\n      returndatacopy\n      revert(0x00, returndatasize)\n    tag_143:\n      pop\n      pop\n      pop\n      pop\n      mload(0x40)\n      returndatasize\n      not(0x1f)\n      0x1f\n      dup3\n      add\n      and\n      dup3\n      add\n      dup1\n      0x40\n      mstore\n      pop\n      dup2\n      add\n      swap1\n      tag_144\n      swap2\n      swap1\n      tag_80\n      jump\t// in\n    tag_144:\n        /* \"atta-movies/TBC_busd.sol\":63211:63241  popcornToken.totalSupply().sub */\n      tag_92\n      swap1\n        /* \"atta-movies/TBC_busd.sol\":63211:63256  popcornToken.totalSupply().sub(popcornAmount) */\n      swap2\n      swap1\n      0xffffffff\n      and\n      jump\t// in\n    tag_140:\n        /* \"atta-movies/TBC_busd.sol\":63193:63210  _priceGivenSupply */\n      tag_34\n        /* \"atta-movies/TBC_busd.sol\":63193:63257  _priceGivenSupply(popcornToken.totalSupply().sub(popcornAmount)) */\n      jump\t// in\n    tag_139:\n        /* \"atta-movies/TBC_busd.sol\":63177:63257  uint256 price = _priceGivenSupply(popcornToken.totalSupply().sub(popcornAmount)) */\n      swap1\n      pop\n        /* \"atta-movies/TBC_busd.sol\":63268:63280  paymentToken */\n      0x00\n      dup1\n      sload\n      swap1\n      0x0100\n      exp\n      swap1\n      div\n      0xffffffffffffffffffffffffffffffffffffffff\n      and\n        /* \"atta-movies/TBC_busd.sol\":63268:63289  paymentToken.transfer */\n      0xffffffffffffffffffffffffffffffffffffffff\n      and\n      0xa9059cbb\n        /* \"atta-movies/TBC_busd.sol\":63291:63303  _msgSender() */\n      tag_145\n        /* \"atta-movies/TBC_busd.sol\":63291:63301  _msgSender */\n      tag_104\n        /* \"atta-movies/TBC_busd.sol\":63291:63303  _msgSender() */\n      jump\t// in\n    tag_145:\n        /* \"atta-movies/TBC_busd.sol\":63305:63370  price.mul(popcornAmount).div(1e18).div(paymentTokenDecimalFactor) */\n      tag_146\n        /* \"atta-movies/TBC_busd.sol\":63344:63369  paymentTokenDecimalFactor */\n      sload(0x01)\n        /* \"atta-movies/TBC_busd.sol\":63305:63339  price.mul(popcornAmount).div(1e18) */\n      tag_147\n        /* \"atta-movies/TBC_busd.sol\":63334:63338  1e18 */\n      0x0de0b6b3a7640000\n        /* \"atta-movies/TBC_busd.sol\":63305:63329  price.mul(popcornAmount) */\n      tag_148\n        /* \"atta-movies/TBC_busd.sol\":63315:63328  popcornAmount */\n      dup10\n        /* \"atta-movies/TBC_busd.sol\":63305:63310  price */\n      dup10\n        /* \"atta-movies/TBC_busd.sol\":63305:63314  price.mul */\n      tag_55\n      swap1\n        /* \"atta-movies/TBC_busd.sol\":63305:63329  price.mul(popcornAmount) */\n      swap2\n      swap1\n      0xffffffff\n      and\n      jump\t// in\n    tag_148:\n        /* \"atta-movies/TBC_busd.sol\":63305:63333  price.mul(popcornAmount).div */\n      tag_56\n      swap1\n        /* \"atta-movies/TBC_busd.sol\":63305:63339  price.mul(popcornAmount).div(1e18) */\n      swap2\n      swap1\n      0xffffffff\n      and\n      jump\t// in\n    tag_147:\n        /* \"atta-movies/TBC_busd.sol\":63305:63343  price.mul(popcornAmount).div(1e18).div */\n      tag_56\n      swap1\n        /* \"atta-movies/TBC_busd.sol\":63305:63370  price.mul(popcornAmount).div(1e18).div(paymentTokenDecimalFactor) */\n      swap2\n      swap1\n      0xffffffff\n      and\n      jump\t// in\n    tag_146:\n        /* \"atta-movies/TBC_busd.sol\":63268:63371  paymentToken.transfer( _msgSender(), price.mul(popcornAmount).div(1e18).div(paymentTokenDecimalFactor)) */\n      mload(0x40)\n      dup4\n      0xffffffff\n      and\n      0xe0\n      shl\n      dup2\n      mstore\n      0x04\n      add\n      tag_149\n      swap3\n      swap2\n      swap1\n      tag_117\n      jump\t// in\n    tag_149:\n      0x20\n      mload(0x40)\n      dup1\n      dup4\n      sub\n      dup2\n      0x00\n      dup8\n      dup1\n      extcodesize\n      iszero\n      dup1\n      iszero\n      tag_150\n      jumpi\n      0x00\n      dup1\n      revert\n    tag_150:\n      pop\n      gas\n      call\n      iszero\n      dup1\n      iszero\n      tag_152\n      jumpi\n      returndatasize\n      0x00\n      dup1\n      returndatacopy\n      revert(0x00, returndatasize)\n    tag_152:\n      pop\n      pop\n      pop\n      pop\n      mload(0x40)\n      returndatasize\n      not(0x1f)\n      0x1f\n      dup3\n      add\n      and\n      dup3\n      add\n      dup1\n      0x40\n      mstore\n      pop\n      dup2\n      add\n      swap1\n      tag_153\n      swap2\n      swap1\n      tag_114\n      jump\t// in\n    tag_153:\n      pop\n        /* \"atta-movies/TBC_busd.sol\":63382:63394  popcornToken */\n      0x06\n      0x00\n      swap1\n      sload\n      swap1\n      0x0100\n      exp\n      swap1\n      div\n      0xffffffffffffffffffffffffffffffffffffffff\n      and\n        /* \"atta-movies/TBC_busd.sol\":63382:63407  popcornToken.transferFrom */\n      0xffffffffffffffffffffffffffffffffffffffff\n      and\n      0x23b872dd\n        /* \"atta-movies/TBC_busd.sol\":63408:63420  _msgSender() */\n      tag_154\n        /* \"atta-movies/TBC_busd.sol\":63408:63418  _msgSender */\n      tag_104\n        /* \"atta-movies/TBC_busd.sol\":63408:63420  _msgSender() */\n      jump\t// in\n    tag_154:\n        /* \"atta-movies/TBC_busd.sol\":63430:63434  this */\n      address\n        /* \"atta-movies/TBC_busd.sol\":63437:63450  popcornAmount */\n      dup6\n        /* \"atta-movies/TBC_busd.sol\":63382:63451  popcornToken.transferFrom(_msgSender(), address(this), popcornAmount) */\n      mload(0x40)\n      dup5\n      0xffffffff\n      and\n      0xe0\n      shl\n      dup2\n      mstore\n      0x04\n      add\n      tag_155\n      swap4\n      swap3\n      swap2\n      swap1\n      tag_109\n      jump\t// in\n    tag_155:\n      0x20\n      mload(0x40)\n      dup1\n      dup4\n      sub\n      dup2\n      0x00\n      dup8\n      dup1\n      extcodesize\n      iszero\n      dup1\n      iszero\n      tag_156\n      jumpi\n      0x00\n      dup1\n      revert\n    tag_156:\n      pop\n      gas\n      call\n      iszero\n      dup1\n      iszero\n      tag_158\n      jumpi\n      returndatasize\n      0x00\n      dup1\n      returndatacopy\n      revert(0x00, returndatasize)\n    tag_158:\n      pop\n      pop\n      pop\n      pop\n      mload(0x40)\n      returndatasize\n      not(0x1f)\n      0x1f\n      dup3\n      add\n      and\n      dup3\n      add\n      dup1\n      0x40\n      mstore\n      pop\n      dup2\n      add\n      swap1\n      tag_159\n      swap2\n      swap1\n      tag_114\n      jump\t// in\n    tag_159:\n      pop\n        /* \"atta-movies/TBC_busd.sol\":63462:63474  popcornToken */\n      0x06\n      0x00\n      swap1\n      sload\n      swap1\n      0x0100\n      exp\n      swap1\n      div\n      0xffffffffffffffffffffffffffffffffffffffff\n      and\n        /* \"atta-movies/TBC_busd.sol\":63462:63479  popcornToken.burn */\n      0xffffffffffffffffffffffffffffffffffffffff\n      and\n      0x42966c68\n        /* \"atta-movies/TBC_busd.sol\":63480:63493  popcornAmount */\n      dup4\n        /* \"atta-movies/TBC_busd.sol\":63462:63494  popcornToken.burn(popcornAmount) */\n      mload(0x40)\n      dup3\n      0xffffffff\n      and\n      0xe0\n      shl\n      dup2\n      mstore\n      0x04\n      add\n      tag_160\n      swap2\n      swap1\n      tag_20\n      jump\t// in\n    tag_160:\n      0x00\n      mload(0x40)\n      dup1\n      dup4\n      sub\n      dup2\n      0x00\n      dup8\n      dup1\n      extcodesize\n      iszero\n      dup1\n      iszero\n      tag_161\n      jumpi\n      0x00\n      dup1\n      revert\n    tag_161:\n      pop\n      gas\n      call\n      iszero\n      dup1\n      iszero\n      tag_163\n      jumpi\n      returndatasize\n      0x00\n      dup1\n      returndatacopy\n      revert(0x00, returndatasize)\n    tag_163:\n      pop\n      pop\n      pop\n      pop\n        /* \"atta-movies/TBC_busd.sol\":63166:63502  {\r... */\n      pop\n        /* \"atta-movies/TBC_busd.sol\":63105:63502  function swapPopcornForPayment(uint256 popcornAmount) public {\r... */\n      pop\n      jump\t// out\n        /* \"atta-movies/TBC_busd.sol\":62588:62740  function areaGivenSupply() public view returns (uint256) {\r... */\n    tag_43:\n        /* \"atta-movies/TBC_busd.sol\":62636:62643  uint256 */\n      0x00\n        /* \"atta-movies/TBC_busd.sol\":62663:62732  _areaGivenSupply(popcornToken.totalSupply()).sub(_areaGivenSupply(0)) */\n      tag_165\n        /* \"atta-movies/TBC_busd.sol\":62712:62731  _areaGivenSupply(0) */\n      tag_166\n        /* \"atta-movies/TBC_busd.sol\":62729:62730  0 */\n      0x00\n        /* \"atta-movies/TBC_busd.sol\":62712:62728  _areaGivenSupply */\n      tag_18\n        /* \"atta-movies/TBC_busd.sol\":62712:62731  _areaGivenSupply(0) */\n      jump\t// in\n    tag_166:\n        /* \"atta-movies/TBC_busd.sol\":62663:62707  _areaGivenSupply(popcornToken.totalSupply()) */\n      tag_167\n        /* \"atta-movies/TBC_busd.sol\":62680:62692  popcornToken */\n      0x06\n      0x00\n      swap1\n      sload\n      swap1\n      0x0100\n      exp\n      swap1\n      div\n      0xffffffffffffffffffffffffffffffffffffffff\n      and\n        /* \"atta-movies/TBC_busd.sol\":62680:62704  popcornToken.totalSupply */\n      0xffffffffffffffffffffffffffffffffffffffff\n      and\n      0x18160ddd\n        /* \"atta-movies/TBC_busd.sol\":62680:62706  popcornToken.totalSupply() */\n      mload(0x40)\n      dup2\n      0xffffffff\n      and\n      0xe0\n      shl\n      dup2\n      mstore\n      0x04\n      add\n      0x20\n      mload(0x40)\n      dup1\n      dup4\n      sub\n      dup2\n      dup7\n      dup1\n      extcodesize\n      iszero\n      dup1\n      iszero\n      tag_168\n      jumpi\n      0x00\n      dup1\n      revert\n    tag_168:\n      pop\n      gas\n      staticcall\n      iszero\n      dup1\n      iszero\n      tag_170\n      jumpi\n      returndatasize\n      0x00\n      dup1\n      returndatacopy\n      revert(0x00, returndatasize)\n    tag_170:\n      pop\n      pop\n      pop\n      pop\n      mload(0x40)\n      returndatasize\n      not(0x1f)\n      0x1f\n      dup3\n      add\n      and\n      dup3\n      add\n      dup1\n      0x40\n      mstore\n      pop\n      dup2\n      add\n      swap1\n      tag_171\n      swap2\n      swap1\n      tag_80\n      jump\t// in\n    tag_171:\n        /* \"atta-movies/TBC_busd.sol\":62663:62679  _areaGivenSupply */\n      tag_18\n        /* \"atta-movies/TBC_busd.sol\":62663:62707  _areaGivenSupply(popcornToken.totalSupply()) */\n      jump\t// in\n    tag_167:\n        /* \"atta-movies/TBC_busd.sol\":62663:62711  _areaGivenSupply(popcornToken.totalSupply()).sub */\n      tag_92\n      swap1\n        /* \"atta-movies/TBC_busd.sol\":62663:62732  _areaGivenSupply(popcornToken.totalSupply()).sub(_areaGivenSupply(0)) */\n      swap2\n      swap1\n      0xffffffff\n      and\n      jump\t// in\n    tag_165:\n        /* \"atta-movies/TBC_busd.sol\":62656:62732  return _areaGivenSupply(popcornToken.totalSupply()).sub(_areaGivenSupply(0)) */\n      swap1\n      pop\n        /* \"atta-movies/TBC_busd.sol\":62588:62740  function areaGivenSupply() public view returns (uint256) {\r... */\n      swap1\n      jump\t// out\n        /* \"atta-movies/TBC_busd.sol\":65027:65997  function swapPopcornForPaymentGivenPayment(uint256 paymentAmount) public view returns (uint256) {\r... */\n    tag_47:\n        /* \"atta-movies/TBC_busd.sol\":65114:65121  uint256 */\n      0x00\n        /* \"atta-movies/TBC_busd.sol\":65202:65246  paymentAmount.mul(paymentTokenDecimalFactor) */\n      tag_173\n        /* \"atta-movies/TBC_busd.sol\":65220:65245  paymentTokenDecimalFactor */\n      sload(0x01)\n        /* \"atta-movies/TBC_busd.sol\":65202:65215  paymentAmount */\n      dup4\n        /* \"atta-movies/TBC_busd.sol\":65202:65219  paymentAmount.mul */\n      tag_55\n      swap1\n        /* \"atta-movies/TBC_busd.sol\":65202:65246  paymentAmount.mul(paymentTokenDecimalFactor) */\n      swap2\n      swap1\n      0xffffffff\n      and\n      jump\t// in\n    tag_173:\n        /* \"atta-movies/TBC_busd.sol\":65186:65246  paymentAmount = paymentAmount.mul(paymentTokenDecimalFactor) */\n      swap2\n      pop\n        /* \"atta-movies/TBC_busd.sol\":65314:65332  uint256 _upperBond */\n      0x00\n        /* \"atta-movies/TBC_busd.sol\":65335:65409  paymentAmount.mul(1e18).div(_priceGivenSupply(popcornToken.totalSupply())) */\n      tag_174\n        /* \"atta-movies/TBC_busd.sol\":65363:65408  _priceGivenSupply(popcornToken.totalSupply()) */\n      tag_175\n        /* \"atta-movies/TBC_busd.sol\":65381:65393  popcornToken */\n      0x06\n      0x00\n      swap1\n      sload\n      swap1\n      0x0100\n      exp\n      swap1\n      div\n      0xffffffffffffffffffffffffffffffffffffffff\n      and\n        /* \"atta-movies/TBC_busd.sol\":65381:65405  popcornToken.totalSupply */\n      0xffffffffffffffffffffffffffffffffffffffff\n      and\n      0x18160ddd\n        /* \"atta-movies/TBC_busd.sol\":65381:65407  popcornToken.totalSupply() */\n      mload(0x40)\n      dup2\n      0xffffffff\n      and\n      0xe0\n      shl\n      dup2\n      mstore\n      0x04\n      add\n      0x20\n      mload(0x40)\n      dup1\n      dup4\n      sub\n      dup2\n      dup7\n      dup1\n      extcodesize\n      iszero\n      dup1\n      iszero\n      tag_176\n      jumpi\n      0x00\n      dup1\n      revert\n    tag_176:\n      pop\n      gas\n      staticcall\n      iszero\n      dup1\n      iszero\n      tag_178\n      jumpi\n      returndatasize\n      0x00\n      dup1\n      returndatacopy\n      revert(0x00, returndatasize)\n    tag_178:\n      pop\n      pop\n      pop\n      pop\n      mload(0x40)\n      returndatasize\n      not(0x1f)\n      0x1f\n      dup3\n      add\n      and\n      dup3\n      add\n      dup1\n      0x40\n      mstore\n      pop\n      dup2\n      add\n      swap1\n      tag_179\n      swap2\n      swap1\n      tag_80\n      jump\t// in\n    tag_179:\n        /* \"atta-movies/TBC_busd.sol\":65363:65380  _priceGivenSupply */\n      tag_34\n        /* \"atta-movies/TBC_busd.sol\":65363:65408  _priceGivenSupply(popcornToken.totalSupply()) */\n      jump\t// in\n    tag_175:\n        /* \"atta-movies/TBC_busd.sol\":65335:65358  paymentAmount.mul(1e18) */\n      tag_180\n        /* \"atta-movies/TBC_busd.sol\":65353:65357  1e18 */\n      0x0de0b6b3a7640000\n        /* \"atta-movies/TBC_busd.sol\":65335:65348  paymentAmount */\n      dup7\n        /* \"atta-movies/TBC_busd.sol\":65335:65352  paymentAmount.mul */\n      tag_55\n      swap1\n        /* \"atta-movies/TBC_busd.sol\":65335:65358  paymentAmount.mul(1e18) */\n      swap2\n      swap1\n      0xffffffff\n      and\n      jump\t// in\n    tag_180:\n        /* \"atta-movies/TBC_busd.sol\":65335:65362  paymentAmount.mul(1e18).div */\n      tag_56\n      swap1\n        /* \"atta-movies/TBC_busd.sol\":65335:65409  paymentAmount.mul(1e18).div(_priceGivenSupply(popcornToken.totalSupply())) */\n      swap2\n      swap1\n      0xffffffff\n      and\n      jump\t// in\n    tag_174:\n        /* \"atta-movies/TBC_busd.sol\":65314:65409  uint256 _upperBond = paymentAmount.mul(1e18).div(_priceGivenSupply(popcornToken.totalSupply())) */\n      swap1\n      pop\n        /* \"atta-movies/TBC_busd.sol\":65485:65503  uint256 _lowerBond */\n      0x00\n        /* \"atta-movies/TBC_busd.sol\":65506:65596  paymentAmount.mul(1e18).div(_priceGivenSupply(popcornToken.totalSupply().sub(_upperBond))) */\n      tag_181\n        /* \"atta-movies/TBC_busd.sol\":65534:65595  _priceGivenSupply(popcornToken.totalSupply().sub(_upperBond)) */\n      tag_182\n        /* \"atta-movies/TBC_busd.sol\":65552:65594  popcornToken.totalSupply().sub(_upperBond) */\n      tag_183\n        /* \"atta-movies/TBC_busd.sol\":65583:65593  _upperBond */\n      dup5\n        /* \"atta-movies/TBC_busd.sol\":65552:65564  popcornToken */\n      0x06\n      0x00\n      swap1\n      sload\n      swap1\n      0x0100\n      exp\n      swap1\n      div\n      0xffffffffffffffffffffffffffffffffffffffff\n      and\n        /* \"atta-movies/TBC_busd.sol\":65552:65576  popcornToken.totalSupply */\n      0xffffffffffffffffffffffffffffffffffffffff\n      and\n      0x18160ddd\n        /* \"atta-movies/TBC_busd.sol\":65552:65578  popcornToken.totalSupply() */\n      mload(0x40)\n      dup2\n      0xffffffff\n      and\n      0xe0\n      shl\n      dup2\n      mstore\n      0x04\n      add\n      0x20\n      mload(0x40)\n      dup1\n      dup4\n      sub\n      dup2\n      dup7\n      dup1\n      extcodesize\n      iszero\n      dup1\n      iszero\n      tag_184\n      jumpi\n      0x00\n      dup1\n      revert\n    tag_184:\n      pop\n      gas\n      staticcall\n      iszero\n      dup1\n      iszero\n      tag_186\n      jumpi\n      returndatasize\n      0x00\n      dup1\n      returndatacopy\n      revert(0x00, returndatasize)\n    tag_186:\n      pop\n      pop\n      pop\n      pop\n      mload(0x40)\n      returndatasize\n      not(0x1f)\n      0x1f\n      dup3\n      add\n      and\n      dup3\n      add\n      dup1\n      0x40\n      mstore\n      pop\n      dup2\n      add\n      swap1\n      tag_187\n      swap2\n      swap1\n      tag_80\n      jump\t// in\n    tag_187:\n        /* \"atta-movies/TBC_busd.sol\":65552:65582  popcornToken.totalSupply().sub */\n      tag_92\n      swap1\n        /* \"atta-movies/TBC_busd.sol\":65552:65594  popcornToken.totalSupply().sub(_upperBond) */\n      swap2\n      swap1\n      0xffffffff\n      and\n      jump\t// in\n    tag_183:\n        /* \"atta-movies/TBC_busd.sol\":65534:65551  _priceGivenSupply */\n      tag_34\n        /* \"atta-movies/TBC_busd.sol\":65534:65595  _priceGivenSupply(popcornToken.totalSupply().sub(_upperBond)) */\n      jump\t// in\n    tag_182:\n        /* \"atta-movies/TBC_busd.sol\":65506:65529  paymentAmount.mul(1e18) */\n      tag_188\n        /* \"atta-movies/TBC_busd.sol\":65524:65528  1e18 */\n      0x0de0b6b3a7640000\n        /* \"atta-movies/TBC_busd.sol\":65506:65519  paymentAmount */\n      dup8\n        /* \"atta-movies/TBC_busd.sol\":65506:65523  paymentAmount.mul */\n      tag_55\n      swap1\n        /* \"atta-movies/TBC_busd.sol\":65506:65529  paymentAmount.mul(1e18) */\n      swap2\n      swap1\n      0xffffffff\n      and\n      jump\t// in\n    tag_188:\n        /* \"atta-movies/TBC_busd.sol\":65506:65533  paymentAmount.mul(1e18).div */\n      tag_56\n      swap1\n        /* \"atta-movies/TBC_busd.sol\":65506:65596  paymentAmount.mul(1e18).div(_priceGivenSupply(popcornToken.totalSupply().sub(_upperBond))) */\n      swap2\n      swap1\n      0xffffffff\n      and\n      jump\t// in\n    tag_181:\n        /* \"atta-movies/TBC_busd.sol\":65485:65596  uint256 _lowerBond = paymentAmount.mul(1e18).div(_priceGivenSupply(popcornToken.totalSupply().sub(_upperBond))) */\n      swap1\n      pop\n        /* \"atta-movies/TBC_busd.sol\":65664:65754  paymentAmount.mul(1e18).div(_priceGivenSupply(popcornToken.totalSupply().sub(_lowerBond))) */\n      tag_189\n        /* \"atta-movies/TBC_busd.sol\":65692:65753  _priceGivenSupply(popcornToken.totalSupply().sub(_lowerBond)) */\n      tag_190\n        /* \"atta-movies/TBC_busd.sol\":65710:65752  popcornToken.totalSupply().sub(_lowerBond) */\n      tag_191\n        /* \"atta-movies/TBC_busd.sol\":65741:65751  _lowerBond */\n      dup4\n        /* \"atta-movies/TBC_busd.sol\":65710:65722  popcornToken */\n      0x06\n      0x00\n      swap1\n      sload\n      swap1\n      0x0100\n      exp\n      swap1\n      div\n      0xffffffffffffffffffffffffffffffffffffffff\n      and\n        /* \"atta-movies/TBC_busd.sol\":65710:65734  popcornToken.totalSupply */\n      0xffffffffffffffffffffffffffffffffffffffff\n      and\n      0x18160ddd\n        /* \"atta-movies/TBC_busd.sol\":65710:65736  popcornToken.totalSupply() */\n      mload(0x40)\n      dup2\n      0xffffffff\n      and\n      0xe0\n      shl\n      dup2\n      mstore\n      0x04\n      add\n      0x20\n      mload(0x40)\n      dup1\n      dup4\n      sub\n      dup2\n      dup7\n      dup1\n      extcodesize\n      iszero\n      dup1\n      iszero\n      tag_192\n      jumpi\n      0x00\n      dup1\n      revert\n    tag_192:\n      pop\n      gas\n      staticcall\n      iszero\n      dup1\n      iszero\n      tag_194\n      jumpi\n      returndatasize\n      0x00\n      dup1\n      returndatacopy\n      revert(0x00, returndatasize)\n    tag_194:\n      pop\n      pop\n      pop\n      pop\n      mload(0x40)\n      returndatasize\n      not(0x1f)\n      0x1f\n      dup3\n      add\n      and\n      dup3\n      add\n      dup1\n      0x40\n      mstore\n      pop\n      dup2\n      add\n      swap1\n      tag_195\n      swap2\n      swap1\n      tag_80\n      jump\t// in\n    tag_195:\n        /* \"atta-movies/TBC_busd.sol\":65710:65740  popcornToken.totalSupply().sub */\n      tag_92\n      swap1\n        /* \"atta-movies/TBC_busd.sol\":65710:65752  popcornToken.totalSupply().sub(_lowerBond) */\n      swap2\n      swap1\n      0xffffffff\n      and\n      jump\t// in\n    tag_191:\n        /* \"atta-movies/TBC_busd.sol\":65692:65709  _priceGivenSupply */\n      tag_34\n        /* \"atta-movies/TBC_busd.sol\":65692:65753  _priceGivenSupply(popcornToken.totalSupply().sub(_lowerBond)) */\n      jump\t// in\n    tag_190:\n        /* \"atta-movies/TBC_busd.sol\":65664:65687  paymentAmount.mul(1e18) */\n      tag_196\n        /* \"atta-movies/TBC_busd.sol\":65682:65686  1e18 */\n      0x0de0b6b3a7640000\n        /* \"atta-movies/TBC_busd.sol\":65664:65677  paymentAmount */\n      dup8\n        /* \"atta-movies/TBC_busd.sol\":65664:65681  paymentAmount.mul */\n      tag_55\n      swap1\n        /* \"atta-movies/TBC_busd.sol\":65664:65687  paymentAmount.mul(1e18) */\n      swap2\n      swap1\n      0xffffffff\n      and\n      jump\t// in\n    tag_196:\n        /* \"atta-movies/TBC_busd.sol\":65664:65691  paymentAmount.mul(1e18).div */\n      tag_56\n      swap1\n        /* \"atta-movies/TBC_busd.sol\":65664:65754  paymentAmount.mul(1e18).div(_priceGivenSupply(popcornToken.totalSupply().sub(_lowerBond))) */\n      swap2\n      swap1\n      0xffffffff\n      and\n      jump\t// in\n    tag_189:\n        /* \"atta-movies/TBC_busd.sol\":65651:65754  _upperBond = paymentAmount.mul(1e18).div(_priceGivenSupply(popcornToken.totalSupply().sub(_lowerBond))) */\n      swap2\n      pop\n        /* \"atta-movies/TBC_busd.sol\":65871:65961  paymentAmount.mul(1e18).div(_priceGivenSupply(popcornToken.totalSupply().sub(_upperBond))) */\n      tag_197\n        /* \"atta-movies/TBC_busd.sol\":65899:65960  _priceGivenSupply(popcornToken.totalSupply().sub(_upperBond)) */\n      tag_198\n        /* \"atta-movies/TBC_busd.sol\":65917:65959  popcornToken.totalSupply().sub(_upperBond) */\n      tag_199\n        /* \"atta-movies/TBC_busd.sol\":65948:65958  _upperBond */\n      dup5\n        /* \"atta-movies/TBC_busd.sol\":65917:65929  popcornToken */\n      0x06\n      0x00\n      swap1\n      sload\n      swap1\n      0x0100\n      exp\n      swap1\n      div\n      0xffffffffffffffffffffffffffffffffffffffff\n      and\n        /* \"atta-movies/TBC_busd.sol\":65917:65941  popcornToken.totalSupply */\n      0xffffffffffffffffffffffffffffffffffffffff\n      and\n      0x18160ddd\n        /* \"atta-movies/TBC_busd.sol\":65917:65943  popcornToken.totalSupply() */\n      mload(0x40)\n      dup2\n      0xffffffff\n      and\n      0xe0\n      shl\n      dup2\n      mstore\n      0x04\n      add\n      0x20\n      mload(0x40)\n      dup1\n      dup4\n      sub\n      dup2\n      dup7\n      dup1\n      extcodesize\n      iszero\n      dup1\n      iszero\n      tag_200\n      jumpi\n      0x00\n      dup1\n      revert\n    tag_200:\n      pop\n      gas\n      staticcall\n      iszero\n      dup1\n      iszero\n      tag_202\n      jumpi\n      returndatasize\n      0x00\n      dup1\n      returndatacopy\n      revert(0x00, returndatasize)\n    tag_202:\n      pop\n      pop\n      pop\n      pop\n      mload(0x40)\n      returndatasize\n      not(0x1f)\n      0x1f\n      dup3\n      add\n      and\n      dup3\n      add\n      dup1\n      0x40\n      mstore\n      pop\n      dup2\n      add\n      swap1\n      tag_203\n      swap2\n      swap1\n      tag_80\n      jump\t// in\n    tag_203:\n        /* \"atta-movies/TBC_busd.sol\":65917:65947  popcornToken.totalSupply().sub */\n      tag_92\n      swap1\n        /* \"atta-movies/TBC_busd.sol\":65917:65959  popcornToken.totalSupply().sub(_upperBond) */\n      swap2\n      swap1\n      0xffffffff\n      and\n      jump\t// in\n    tag_199:\n        /* \"atta-movies/TBC_busd.sol\":65899:65916  _priceGivenSupply */\n      tag_34\n        /* \"atta-movies/TBC_busd.sol\":65899:65960  _priceGivenSupply(popcornToken.totalSupply().sub(_upperBond)) */\n      jump\t// in\n    tag_198:\n        /* \"atta-movies/TBC_busd.sol\":65871:65894  paymentAmount.mul(1e18) */\n      tag_204\n        /* \"atta-movies/TBC_busd.sol\":65889:65893  1e18 */\n      0x0de0b6b3a7640000\n        /* \"atta-movies/TBC_busd.sol\":65871:65884  paymentAmount */\n      dup8\n        /* \"atta-movies/TBC_busd.sol\":65871:65888  paymentAmount.mul */\n      tag_55\n      swap1\n        /* \"atta-movies/TBC_busd.sol\":65871:65894  paymentAmount.mul(1e18) */\n      swap2\n      swap1\n      0xffffffff\n      and\n      jump\t// in\n    tag_204:\n        /* \"atta-movies/TBC_busd.sol\":65871:65898  paymentAmount.mul(1e18).div */\n      tag_56\n      swap1\n        /* \"atta-movies/TBC_busd.sol\":65871:65961  paymentAmount.mul(1e18).div(_priceGivenSupply(popcornToken.totalSupply().sub(_upperBond))) */\n      swap2\n      swap1\n      0xffffffff\n      and\n      jump\t// in\n    tag_197:\n        /* \"atta-movies/TBC_busd.sol\":65858:65961  _lowerBond = paymentAmount.mul(1e18).div(_priceGivenSupply(popcornToken.totalSupply().sub(_upperBond))) */\n      swap1\n      pop\n        /* \"atta-movies/TBC_busd.sol\":65979:65989  _lowerBond */\n      dup1\n        /* \"atta-movies/TBC_busd.sol\":65972:65989  return _lowerBond */\n      swap3\n      pop\n      pop\n      pop\n        /* \"atta-movies/TBC_busd.sol\":65027:65997  function swapPopcornForPaymentGivenPayment(uint256 paymentAmount) public view returns (uint256) {\r... */\n      swap2\n      swap1\n      pop\n      jump\t// out\n        /* \"atta-movies/TBC_busd.sol\":63949:64918  function swapPaymentForPopcornGivenPayment(uint256 paymentAmount) public view returns (uint256) {\r... */\n    tag_51:\n        /* \"atta-movies/TBC_busd.sol\":64036:64043  uint256 */\n      0x00\n        /* \"atta-movies/TBC_busd.sol\":64123:64167  paymentAmount.mul(paymentTokenDecimalFactor) */\n      tag_206\n        /* \"atta-movies/TBC_busd.sol\":64141:64166  paymentTokenDecimalFactor */\n      sload(0x01)\n        /* \"atta-movies/TBC_busd.sol\":64123:64136  paymentAmount */\n      dup4\n        /* \"atta-movies/TBC_busd.sol\":64123:64140  paymentAmount.mul */\n      tag_55\n      swap1\n        /* \"atta-movies/TBC_busd.sol\":64123:64167  paymentAmount.mul(paymentTokenDecimalFactor) */\n      swap2\n      swap1\n      0xffffffff\n      and\n      jump\t// in\n    tag_206:\n        /* \"atta-movies/TBC_busd.sol\":64107:64167  paymentAmount = paymentAmount.mul(paymentTokenDecimalFactor) */\n      swap2\n      pop\n        /* \"atta-movies/TBC_busd.sol\":64235:64253  uint256 _upperBond */\n      0x00\n        /* \"atta-movies/TBC_busd.sol\":64256:64330  paymentAmount.mul(1e18).div(_priceGivenSupply(popcornToken.totalSupply())) */\n      tag_207\n        /* \"atta-movies/TBC_busd.sol\":64284:64329  _priceGivenSupply(popcornToken.totalSupply()) */\n      tag_208\n        /* \"atta-movies/TBC_busd.sol\":64302:64314  popcornToken */\n      0x06\n      0x00\n      swap1\n      sload\n      swap1\n      0x0100\n      exp\n      swap1\n      div\n      0xffffffffffffffffffffffffffffffffffffffff\n      and\n        /* \"atta-movies/TBC_busd.sol\":64302:64326  popcornToken.totalSupply */\n      0xffffffffffffffffffffffffffffffffffffffff\n      and\n      0x18160ddd\n        /* \"atta-movies/TBC_busd.sol\":64302:64328  popcornToken.totalSupply() */\n      mload(0x40)\n      dup2\n      0xffffffff\n      and\n      0xe0\n      shl\n      dup2\n      mstore\n      0x04\n      add\n      0x20\n      mload(0x40)\n      dup1\n      dup4\n      sub\n      dup2\n      dup7\n      dup1\n      extcodesize\n      iszero\n      dup1\n      iszero\n      tag_209\n      jumpi\n      0x00\n      dup1\n      revert\n    tag_209:\n      pop\n      gas\n      staticcall\n      iszero\n      dup1\n      iszero\n      tag_211\n      jumpi\n      returndatasize\n      0x00\n      dup1\n      returndatacopy\n      revert(0x00, returndatasize)\n    tag_211:\n      pop\n      pop\n      pop\n      pop\n      mload(0x40)\n      returndatasize\n      not(0x1f)\n      0x1f\n      dup3\n      add\n      and\n      dup3\n      add\n      dup1\n      0x40\n      mstore\n      pop\n      dup2\n      add\n      swap1\n      tag_212\n      swap2\n      swap1\n      tag_80\n      jump\t// in\n    tag_212:\n        /* \"atta-movies/TBC_busd.sol\":64284:64301  _priceGivenSupply */\n      tag_34\n        /* \"atta-movies/TBC_busd.sol\":64284:64329  _priceGivenSupply(popcornToken.totalSupply()) */\n      jump\t// in\n    tag_208:\n        /* \"atta-movies/TBC_busd.sol\":64256:64279  paymentAmount.mul(1e18) */\n      tag_213\n        /* \"atta-movies/TBC_busd.sol\":64274:64278  1e18 */\n      0x0de0b6b3a7640000\n        /* \"atta-movies/TBC_busd.sol\":64256:64269  paymentAmount */\n      dup7\n        /* \"atta-movies/TBC_busd.sol\":64256:64273  paymentAmount.mul */\n      tag_55\n      swap1\n        /* \"atta-movies/TBC_busd.sol\":64256:64279  paymentAmount.mul(1e18) */\n      swap2\n      swap1\n      0xffffffff\n      and\n      jump\t// in\n    tag_213:\n        /* \"atta-movies/TBC_busd.sol\":64256:64283  paymentAmount.mul(1e18).div */\n      tag_56\n      swap1\n        /* \"atta-movies/TBC_busd.sol\":64256:64330  paymentAmount.mul(1e18).div(_priceGivenSupply(popcornToken.totalSupply())) */\n      swap2\n      swap1\n      0xffffffff\n      and\n      jump\t// in\n    tag_207:\n        /* \"atta-movies/TBC_busd.sol\":64235:64330  uint256 _upperBond = paymentAmount.mul(1e18).div(_priceGivenSupply(popcornToken.totalSupply())) */\n      swap1\n      pop\n        /* \"atta-movies/TBC_busd.sol\":64406:64424  uint256 _lowerBond */\n      0x00\n        /* \"atta-movies/TBC_busd.sol\":64427:64517  paymentAmount.mul(1e18).div(_priceGivenSupply(popcornToken.totalSupply().add(_upperBond))) */\n      tag_214\n        /* \"atta-movies/TBC_busd.sol\":64455:64516  _priceGivenSupply(popcornToken.totalSupply().add(_upperBond)) */\n      tag_215\n        /* \"atta-movies/TBC_busd.sol\":64473:64515  popcornToken.totalSupply().add(_upperBond) */\n      tag_216\n        /* \"atta-movies/TBC_busd.sol\":64504:64514  _upperBond */\n      dup5\n        /* \"atta-movies/TBC_busd.sol\":64473:64485  popcornToken */\n      0x06\n      0x00\n      swap1\n      sload\n      swap1\n      0x0100\n      exp\n      swap1\n      div\n      0xffffffffffffffffffffffffffffffffffffffff\n      and\n        /* \"atta-movies/TBC_busd.sol\":64473:64497  popcornToken.totalSupply */\n      0xffffffffffffffffffffffffffffffffffffffff\n      and\n      0x18160ddd\n        /* \"atta-movies/TBC_busd.sol\":64473:64499  popcornToken.totalSupply() */\n      mload(0x40)\n      dup2\n      0xffffffff\n      and\n      0xe0\n      shl\n      dup2\n      mstore\n      0x04\n      add\n      0x20\n      mload(0x40)\n      dup1\n      dup4\n      sub\n      dup2\n      dup7\n      dup1\n      extcodesize\n      iszero\n      dup1\n      iszero\n      tag_217\n      jumpi\n      0x00\n      dup1\n      revert\n    tag_217:\n      pop\n      gas\n      staticcall\n      iszero\n      dup1\n      iszero\n      tag_219\n      jumpi\n      returndatasize\n      0x00\n      dup1\n      returndatacopy\n      revert(0x00, returndatasize)\n    tag_219:\n      pop\n      pop\n      pop\n      pop\n      mload(0x40)\n      returndatasize\n      not(0x1f)\n      0x1f\n      dup3\n      add\n      and\n      dup3\n      add\n      dup1\n      0x40\n      mstore\n      pop\n      dup2\n      add\n      swap1\n      tag_220\n      swap2\n      swap1\n      tag_80\n      jump\t// in\n    tag_220:\n        /* \"atta-movies/TBC_busd.sol\":64473:64503  popcornToken.totalSupply().add */\n      tag_81\n      swap1\n        /* \"atta-movies/TBC_busd.sol\":64473:64515  popcornToken.totalSupply().add(_upperBond) */\n      swap2\n      swap1\n      0xffffffff\n      and\n      jump\t// in\n    tag_216:\n        /* \"atta-movies/TBC_busd.sol\":64455:64472  _priceGivenSupply */\n      tag_34\n        /* \"atta-movies/TBC_busd.sol\":64455:64516  _priceGivenSupply(popcornToken.totalSupply().add(_upperBond)) */\n      jump\t// in\n    tag_215:\n        /* \"atta-movies/TBC_busd.sol\":64427:64450  paymentAmount.mul(1e18) */\n      tag_221\n        /* \"atta-movies/TBC_busd.sol\":64445:64449  1e18 */\n      0x0de0b6b3a7640000\n        /* \"atta-movies/TBC_busd.sol\":64427:64440  paymentAmount */\n      dup8\n        /* \"atta-movies/TBC_busd.sol\":64427:64444  paymentAmount.mul */\n      tag_55\n      swap1\n        /* \"atta-movies/TBC_busd.sol\":64427:64450  paymentAmount.mul(1e18) */\n      swap2\n      swap1\n      0xffffffff\n      and\n      jump\t// in\n    tag_221:\n        /* \"atta-movies/TBC_busd.sol\":64427:64454  paymentAmount.mul(1e18).div */\n      tag_56\n      swap1\n        /* \"atta-movies/TBC_busd.sol\":64427:64517  paymentAmount.mul(1e18).div(_priceGivenSupply(popcornToken.totalSupply().add(_upperBond))) */\n      swap2\n      swap1\n      0xffffffff\n      and\n      jump\t// in\n    tag_214:\n        /* \"atta-movies/TBC_busd.sol\":64406:64517  uint256 _lowerBond = paymentAmount.mul(1e18).div(_priceGivenSupply(popcornToken.totalSupply().add(_upperBond))) */\n      swap1\n      pop\n        /* \"atta-movies/TBC_busd.sol\":64585:64675  paymentAmount.mul(1e18).div(_priceGivenSupply(popcornToken.totalSupply().add(_lowerBond))) */\n      tag_222\n        /* \"atta-movies/TBC_busd.sol\":64613:64674  _priceGivenSupply(popcornToken.totalSupply().add(_lowerBond)) */\n      tag_223\n        /* \"atta-movies/TBC_busd.sol\":64631:64673  popcornToken.totalSupply().add(_lowerBond) */\n      tag_224\n        /* \"atta-movies/TBC_busd.sol\":64662:64672  _lowerBond */\n      dup4\n        /* \"atta-movies/TBC_busd.sol\":64631:64643  popcornToken */\n      0x06\n      0x00\n      swap1\n      sload\n      swap1\n      0x0100\n      exp\n      swap1\n      div\n      0xffffffffffffffffffffffffffffffffffffffff\n      and\n        /* \"atta-movies/TBC_busd.sol\":64631:64655  popcornToken.totalSupply */\n      0xffffffffffffffffffffffffffffffffffffffff\n      and\n      0x18160ddd\n        /* \"atta-movies/TBC_busd.sol\":64631:64657  popcornToken.totalSupply() */\n      mload(0x40)\n      dup2\n      0xffffffff\n      and\n      0xe0\n      shl\n      dup2\n      mstore\n      0x04\n      add\n      0x20\n      mload(0x40)\n      dup1\n      dup4\n      sub\n      dup2\n      dup7\n      dup1\n      extcodesize\n      iszero\n      dup1\n      iszero\n      tag_225\n      jumpi\n      0x00\n      dup1\n      revert\n    tag_225:\n      pop\n      gas\n      staticcall\n      iszero\n      dup1\n      iszero\n      tag_227\n      jumpi\n      returndatasize\n      0x00\n      dup1\n      returndatacopy\n      revert(0x00, returndatasize)\n    tag_227:\n      pop\n      pop\n      pop\n      pop\n      mload(0x40)\n      returndatasize\n      not(0x1f)\n      0x1f\n      dup3\n      add\n      and\n      dup3\n      add\n      dup1\n      0x40\n      mstore\n      pop\n      dup2\n      add\n      swap1\n      tag_228\n      swap2\n      swap1\n      tag_80\n      jump\t// in\n    tag_228:\n        /* \"atta-movies/TBC_busd.sol\":64631:64661  popcornToken.totalSupply().add */\n      tag_81\n      swap1\n        /* \"atta-movies/TBC_busd.sol\":64631:64673  popcornToken.totalSupply().add(_lowerBond) */\n      swap2\n      swap1\n      0xffffffff\n      and\n      jump\t// in\n    tag_224:\n        /* \"atta-movies/TBC_busd.sol\":64613:64630  _priceGivenSupply */\n      tag_34\n        /* \"atta-movies/TBC_busd.sol\":64613:64674  _priceGivenSupply(popcornToken.totalSupply().add(_lowerBond)) */\n      jump\t// in\n    tag_223:\n        /* \"atta-movies/TBC_busd.sol\":64585:64608  paymentAmount.mul(1e18) */\n      tag_229\n        /* \"atta-movies/TBC_busd.sol\":64603:64607  1e18 */\n      0x0de0b6b3a7640000\n        /* \"atta-movies/TBC_busd.sol\":64585:64598  paymentAmount */\n      dup8\n        /* \"atta-movies/TBC_busd.sol\":64585:64602  paymentAmount.mul */\n      tag_55\n      swap1\n        /* \"atta-movies/TBC_busd.sol\":64585:64608  paymentAmount.mul(1e18) */\n      swap2\n      swap1\n      0xffffffff\n      and\n      jump\t// in\n    tag_229:\n        /* \"atta-movies/TBC_busd.sol\":64585:64612  paymentAmount.mul(1e18).div */\n      tag_56\n      swap1\n        /* \"atta-movies/TBC_busd.sol\":64585:64675  paymentAmount.mul(1e18).div(_priceGivenSupply(popcornToken.totalSupply().add(_lowerBond))) */\n      swap2\n      swap1\n      0xffffffff\n      and\n      jump\t// in\n    tag_222:\n        /* \"atta-movies/TBC_busd.sol\":64572:64675  _upperBond = paymentAmount.mul(1e18).div(_priceGivenSupply(popcornToken.totalSupply().add(_lowerBond))) */\n      swap2\n      pop\n        /* \"atta-movies/TBC_busd.sol\":64792:64882  paymentAmount.mul(1e18).div(_priceGivenSupply(popcornToken.totalSupply().add(_upperBond))) */\n      tag_230\n        /* \"atta-movies/TBC_busd.sol\":64820:64881  _priceGivenSupply(popcornToken.totalSupply().add(_upperBond)) */\n      tag_231\n        /* \"atta-movies/TBC_busd.sol\":64838:64880  popcornToken.totalSupply().add(_upperBond) */\n      tag_232\n        /* \"atta-movies/TBC_busd.sol\":64869:64879  _upperBond */\n      dup5\n        /* \"atta-movies/TBC_busd.sol\":64838:64850  popcornToken */\n      0x06\n      0x00\n      swap1\n      sload\n      swap1\n      0x0100\n      exp\n      swap1\n      div\n      0xffffffffffffffffffffffffffffffffffffffff\n      and\n        /* \"atta-movies/TBC_busd.sol\":64838:64862  popcornToken.totalSupply */\n      0xffffffffffffffffffffffffffffffffffffffff\n      and\n      0x18160ddd\n        /* \"atta-movies/TBC_busd.sol\":64838:64864  popcornToken.totalSupply() */\n      mload(0x40)\n      dup2\n      0xffffffff\n      and\n      0xe0\n      shl\n      dup2\n      mstore\n      0x04\n      add\n      0x20\n      mload(0x40)\n      dup1\n      dup4\n      sub\n      dup2\n      dup7\n      dup1\n      extcodesize\n      iszero\n      dup1\n      iszero\n      tag_233\n      jumpi\n      0x00\n      dup1\n      revert\n    tag_233:\n      pop\n      gas\n      staticcall\n      iszero\n      dup1\n      iszero\n      tag_235\n      jumpi\n      returndatasize\n      0x00\n      dup1\n      returndatacopy\n      revert(0x00, returndatasize)\n    tag_235:\n      pop\n      pop\n      pop\n      pop\n      mload(0x40)\n      returndatasize\n      not(0x1f)\n      0x1f\n      dup3\n      add\n      and\n      dup3\n      add\n      dup1\n      0x40\n      mstore\n      pop\n      dup2\n      add\n      swap1\n      tag_236\n      swap2\n      swap1\n      tag_80\n      jump\t// in\n    tag_236:\n        /* \"atta-movies/TBC_busd.sol\":64838:64868  popcornToken.totalSupply().add */\n      tag_81\n      swap1\n        /* \"atta-movies/TBC_busd.sol\":64838:64880  popcornToken.totalSupply().add(_upperBond) */\n      swap2\n      swap1\n      0xffffffff\n      and\n      jump\t// in\n    tag_232:\n        /* \"atta-movies/TBC_busd.sol\":64820:64837  _priceGivenSupply */\n      tag_34\n        /* \"atta-movies/TBC_busd.sol\":64820:64881  _priceGivenSupply(popcornToken.totalSupply().add(_upperBond)) */\n      jump\t// in\n    tag_231:\n        /* \"atta-movies/TBC_busd.sol\":64792:64815  paymentAmount.mul(1e18) */\n      tag_237\n        /* \"atta-movies/TBC_busd.sol\":64810:64814  1e18 */\n      0x0de0b6b3a7640000\n        /* \"atta-movies/TBC_busd.sol\":64792:64805  paymentAmount */\n      dup8\n        /* \"atta-movies/TBC_busd.sol\":64792:64809  paymentAmount.mul */\n      tag_55\n      swap1\n        /* \"atta-movies/TBC_busd.sol\":64792:64815  paymentAmount.mul(1e18) */\n      swap2\n      swap1\n      0xffffffff\n      and\n      jump\t// in\n    tag_237:\n        /* \"atta-movies/TBC_busd.sol\":64792:64819  paymentAmount.mul(1e18).div */\n      tag_56\n      swap1\n        /* \"atta-movies/TBC_busd.sol\":64792:64882  paymentAmount.mul(1e18).div(_priceGivenSupply(popcornToken.totalSupply().add(_upperBond))) */\n      swap2\n      swap1\n      0xffffffff\n      and\n      jump\t// in\n    tag_230:\n        /* \"atta-movies/TBC_busd.sol\":64779:64882  _lowerBond = paymentAmount.mul(1e18).div(_priceGivenSupply(popcornToken.totalSupply().add(_upperBond))) */\n      swap1\n      pop\n        /* \"atta-movies/TBC_busd.sol\":64900:64910  _lowerBond */\n      dup1\n        /* \"atta-movies/TBC_busd.sol\":64893:64910  return _lowerBond */\n      swap3\n      pop\n      pop\n      pop\n        /* \"atta-movies/TBC_busd.sol\":63949:64918  function swapPaymentForPopcornGivenPayment(uint256 paymentAmount) public view returns (uint256) {\r... */\n      swap2\n      swap1\n      pop\n      jump\t// out\n        /* \"atta-movies/TBC_busd.sol\":63510:63840  function clearOutExtraReward() public {\r... */\n    tag_54:\n        /* \"atta-movies/TBC_busd.sol\":63581:63592  recyclePool */\n      0x07\n      0x00\n      swap1\n      sload\n      swap1\n      0x0100\n      exp\n      swap1\n      div\n      0xffffffffffffffffffffffffffffffffffffffff\n      and\n        /* \"atta-movies/TBC_busd.sol\":63567:63592  _msgSender()==recyclePool */\n      0xffffffffffffffffffffffffffffffffffffffff\n      and\n        /* \"atta-movies/TBC_busd.sol\":63567:63579  _msgSender() */\n      tag_239\n        /* \"atta-movies/TBC_busd.sol\":63567:63577  _msgSender */\n      tag_104\n        /* \"atta-movies/TBC_busd.sol\":63567:63579  _msgSender() */\n      jump\t// in\n    tag_239:\n        /* \"atta-movies/TBC_busd.sol\":63567:63592  _msgSender()==recyclePool */\n      0xffffffffffffffffffffffffffffffffffffffff\n      and\n      eq\n        /* \"atta-movies/TBC_busd.sol\":63559:63614  require(_msgSender()==recyclePool, \"Only Recycle Pool\") */\n      tag_240\n      jumpi\n      mload(0x40)\n      0x08c379a000000000000000000000000000000000000000000000000000000000\n      dup2\n      mstore\n      0x04\n      add\n      tag_241\n      swap1\n      tag_242\n      jump\t// in\n    tag_241:\n      mload(0x40)\n      dup1\n      swap2\n      sub\n      swap1\n      revert\n    tag_240:\n        /* \"atta-movies/TBC_busd.sol\":63625:63646  uint256 recycleAmount */\n      0x00\n        /* \"atta-movies/TBC_busd.sol\":63649:63740  paymentToken.balanceOf(address(this)).mul(paymentTokenDecimalFactor).sub(areaGivenSupply()) */\n      tag_243\n        /* \"atta-movies/TBC_busd.sol\":63722:63739  areaGivenSupply() */\n      tag_244\n        /* \"atta-movies/TBC_busd.sol\":63722:63737  areaGivenSupply */\n      tag_43\n        /* \"atta-movies/TBC_busd.sol\":63722:63739  areaGivenSupply() */\n      jump\t// in\n    tag_244:\n        /* \"atta-movies/TBC_busd.sol\":63649:63717  paymentToken.balanceOf(address(this)).mul(paymentTokenDecimalFactor) */\n      tag_245\n        /* \"atta-movies/TBC_busd.sol\":63691:63716  paymentTokenDecimalFactor */\n      sload(0x01)\n        /* \"atta-movies/TBC_busd.sol\":63649:63661  paymentToken */\n      0x00\n      dup1\n      sload\n      swap1\n      0x0100\n      exp\n      swap1\n      div\n      0xffffffffffffffffffffffffffffffffffffffff\n      and\n        /* \"atta-movies/TBC_busd.sol\":63649:63671  paymentToken.balanceOf */\n      0xffffffffffffffffffffffffffffffffffffffff\n      and\n      0x70a08231\n        /* \"atta-movies/TBC_busd.sol\":63680:63684  this */\n      address\n        /* \"atta-movies/TBC_busd.sol\":63649:63686  paymentToken.balanceOf(address(this)) */\n      mload(0x40)\n      dup3\n      0xffffffff\n      and\n      0xe0\n      shl\n      dup2\n      mstore\n      0x04\n      add\n      tag_246\n      swap2\n      swap1\n      tag_247\n      jump\t// in\n    tag_246:\n      0x20\n      mload(0x40)\n      dup1\n      dup4\n      sub\n      dup2\n      dup7\n      dup1\n      extcodesize\n      iszero\n      dup1\n      iszero\n      tag_248\n      jumpi\n      0x00\n      dup1\n      revert\n    tag_248:\n      pop\n      gas\n      staticcall\n      iszero\n      dup1\n      iszero\n      tag_250\n      jumpi\n      returndatasize\n      0x00\n      dup1\n      returndatacopy\n      revert(0x00, returndatasize)\n    tag_250:\n      pop\n      pop\n      pop\n      pop\n      mload(0x40)\n      returndatasize\n      not(0x1f)\n      0x1f\n      dup3\n      add\n      and\n      dup3\n      add\n      dup1\n      0x40\n      mstore\n      pop\n      dup2\n      add\n      swap1\n      tag_251\n      swap2\n      swap1\n      tag_80\n      jump\t// in\n    tag_251:\n        /* \"atta-movies/TBC_busd.sol\":63649:63690  paymentToken.balanceOf(address(this)).mul */\n      tag_55\n      swap1\n        /* \"atta-movies/TBC_busd.sol\":63649:63717  paymentToken.balanceOf(address(this)).mul(paymentTokenDecimalFactor) */\n      swap2\n      swap1\n      0xffffffff\n      and\n      jump\t// in\n    tag_245:\n        /* \"atta-movies/TBC_busd.sol\":63649:63721  paymentToken.balanceOf(address(this)).mul(paymentTokenDecimalFactor).sub */\n      tag_92\n      swap1\n        /* \"atta-movies/TBC_busd.sol\":63649:63740  paymentToken.balanceOf(address(this)).mul(paymentTokenDecimalFactor).sub(areaGivenSupply()) */\n      swap2\n      swap1\n      0xffffffff\n      and\n      jump\t// in\n    tag_243:\n        /* \"atta-movies/TBC_busd.sol\":63625:63740  uint256 recycleAmount = paymentToken.balanceOf(address(this)).mul(paymentTokenDecimalFactor).sub(areaGivenSupply()) */\n      swap1\n      pop\n        /* \"atta-movies/TBC_busd.sol\":63751:63763  paymentToken */\n      0x00\n      dup1\n      sload\n      swap1\n      0x0100\n      exp\n      swap1\n      div\n      0xffffffffffffffffffffffffffffffffffffffff\n      and\n        /* \"atta-movies/TBC_busd.sol\":63751:63772  paymentToken.transfer */\n      0xffffffffffffffffffffffffffffffffffffffff\n      and\n      0xa9059cbb\n        /* \"atta-movies/TBC_busd.sol\":63773:63785  _msgSender() */\n      tag_252\n        /* \"atta-movies/TBC_busd.sol\":63773:63783  _msgSender */\n      tag_104\n        /* \"atta-movies/TBC_busd.sol\":63773:63785  _msgSender() */\n      jump\t// in\n    tag_252:\n        /* \"atta-movies/TBC_busd.sol\":63787:63831  recycleAmount.div(paymentTokenDecimalFactor) */\n      tag_253\n        /* \"atta-movies/TBC_busd.sol\":63805:63830  paymentTokenDecimalFactor */\n      sload(0x01)\n        /* \"atta-movies/TBC_busd.sol\":63787:63800  recycleAmount */\n      dup6\n        /* \"atta-movies/TBC_busd.sol\":63787:63804  recycleAmount.div */\n      tag_56\n      swap1\n        /* \"atta-movies/TBC_busd.sol\":63787:63831  recycleAmount.div(paymentTokenDecimalFactor) */\n      swap2\n      swap1\n      0xffffffff\n      and\n      jump\t// in\n    tag_253:\n        /* \"atta-movies/TBC_busd.sol\":63751:63832  paymentToken.transfer(_msgSender(), recycleAmount.div(paymentTokenDecimalFactor)) */\n      mload(0x40)\n      dup4\n      0xffffffff\n      and\n      0xe0\n      shl\n      dup2\n      mstore\n      0x04\n      add\n      tag_254\n      swap3\n      swap2\n      swap1\n      tag_117\n      jump\t// in\n    tag_254:\n      0x20\n      mload(0x40)\n      dup1\n      dup4\n      sub\n      dup2\n      0x00\n      dup8\n      dup1\n      extcodesize\n      iszero\n      dup1\n      iszero\n      tag_255\n      jumpi\n      0x00\n      dup1\n      revert\n    tag_255:\n      pop\n      gas\n      call\n      iszero\n      dup1\n      iszero\n      tag_257\n      jumpi\n      returndatasize\n      0x00\n      dup1\n      returndatacopy\n      revert(0x00, returndatasize)\n    tag_257:\n      pop\n      pop\n      pop\n      pop\n      mload(0x40)\n      returndatasize\n      not(0x1f)\n      0x1f\n      dup3\n      add\n      and\n      dup3\n      add\n      dup1\n      0x40\n      mstore\n      pop\n      dup2\n      add\n      swap1\n      tag_258\n      swap2\n      swap1\n      tag_114\n      jump\t// in\n    tag_258:\n      pop\n        /* \"atta-movies/TBC_busd.sol\":63548:63840  {\r... */\n      pop\n        /* \"atta-movies/TBC_busd.sol\":63510:63840  function clearOutExtraReward() public {\r... */\n      jump\t// out\n        /* \"atta-movies/TBC_busd.sol\":53598:54069  function mul(uint256 a, uint256 b) internal pure returns (uint256) {\r... */\n    tag_55:\n        /* \"atta-movies/TBC_busd.sol\":53656:53663  uint256 */\n      0x00\n        /* \"atta-movies/TBC_busd.sol\":53906:53907  0 */\n      dup1\n        /* \"atta-movies/TBC_busd.sol\":53901:53902  a */\n      dup4\n        /* \"atta-movies/TBC_busd.sol\":53901:53907  a == 0 */\n      eq\n        /* \"atta-movies/TBC_busd.sol\":53897:53944  if (a == 0) {\r... */\n      iszero\n      tag_260\n      jumpi\n        /* \"atta-movies/TBC_busd.sol\":53931:53932  0 */\n      0x00\n        /* \"atta-movies/TBC_busd.sol\":53924:53932  return 0 */\n      swap1\n      pop\n      jump(tag_259)\n        /* \"atta-movies/TBC_busd.sol\":53897:53944  if (a == 0) {\r... */\n    tag_260:\n        /* \"atta-movies/TBC_busd.sol\":53956:53965  uint256 c */\n      0x00\n        /* \"atta-movies/TBC_busd.sol\":53972:53973  b */\n      dup3\n        /* \"atta-movies/TBC_busd.sol\":53968:53969  a */\n      dup5\n        /* \"atta-movies/TBC_busd.sol\":53968:53973  a * b */\n      tag_261\n      swap2\n      swap1\n      tag_262\n      jump\t// in\n    tag_261:\n        /* \"atta-movies/TBC_busd.sol\":53956:53973  uint256 c = a * b */\n      swap1\n      pop\n        /* \"atta-movies/TBC_busd.sol\":54001:54002  b */\n      dup3\n        /* \"atta-movies/TBC_busd.sol\":53996:53997  a */\n      dup5\n        /* \"atta-movies/TBC_busd.sol\":53992:53993  c */\n      dup3\n        /* \"atta-movies/TBC_busd.sol\":53992:53997  c / a */\n      tag_263\n      swap2\n      swap1\n      tag_264\n      jump\t// in\n    tag_263:\n        /* \"atta-movies/TBC_busd.sol\":53992:54002  c / a == b */\n      eq\n        /* \"atta-movies/TBC_busd.sol\":53984:54040  require(c / a == b, \"SafeMath: multiplication overflow\") */\n      tag_265\n      jumpi\n      mload(0x40)\n      0x08c379a000000000000000000000000000000000000000000000000000000000\n      dup2\n      mstore\n      0x04\n      add\n      tag_266\n      swap1\n      tag_267\n      jump\t// in\n    tag_266:\n      mload(0x40)\n      dup1\n      swap2\n      sub\n      swap1\n      revert\n    tag_265:\n        /* \"atta-movies/TBC_busd.sol\":54060:54061  c */\n      dup1\n        /* \"atta-movies/TBC_busd.sol\":54053:54061  return c */\n      swap2\n      pop\n      pop\n        /* \"atta-movies/TBC_busd.sol\":53598:54069  function mul(uint256 a, uint256 b) internal pure returns (uint256) {\r... */\n    tag_259:\n      swap3\n      swap2\n      pop\n      pop\n      jump\t// out\n        /* \"atta-movies/TBC_busd.sol\":54545:54677  function div(uint256 a, uint256 b) internal pure returns (uint256) {\r... */\n    tag_56:\n        /* \"atta-movies/TBC_busd.sol\":54603:54610  uint256 */\n      0x00\n        /* \"atta-movies/TBC_busd.sol\":54630:54669  div(a, b, \"SafeMath: division by zero\") */\n      tag_269\n        /* \"atta-movies/TBC_busd.sol\":54634:54635  a */\n      dup4\n        /* \"atta-movies/TBC_busd.sol\":54637:54638  b */\n      dup4\n        /* \"atta-movies/TBC_busd.sol\":54630:54669  div(a, b, \"SafeMath: division by zero\") */\n      mload(0x40)\n      dup1\n      0x40\n      add\n      0x40\n      mstore\n      dup1\n      0x1a\n      dup2\n      mstore\n      0x20\n      add\n      0x536166654d6174683a206469766973696f6e206279207a65726f000000000000\n      dup2\n      mstore\n      pop\n        /* \"atta-movies/TBC_busd.sol\":54630:54633  div */\n      tag_270\n        /* \"atta-movies/TBC_busd.sol\":54630:54669  div(a, b, \"SafeMath: division by zero\") */\n      jump\t// in\n    tag_269:\n        /* \"atta-movies/TBC_busd.sol\":54623:54669  return div(a, b, \"SafeMath: division by zero\") */\n      swap1\n      pop\n        /* \"atta-movies/TBC_busd.sol\":54545:54677  function div(uint256 a, uint256 b) internal pure returns (uint256) {\r... */\n      swap3\n      swap2\n      pop\n      pop\n      jump\t// out\n        /* \"atta-movies/TBC_busd.sol\":30572:31064  function exp(uint256 x) internal pure returns (uint256 result) {\r... */\n    tag_63:\n        /* \"atta-movies/TBC_busd.sol\":30619:30633  uint256 result */\n      0x00\n        /* \"atta-movies/TBC_busd.sol\":30741:30763  133_084258667509499441 */\n      0x0736ea4425c11ac631\n        /* \"atta-movies/TBC_busd.sol\":30736:30737  x */\n      dup3\n        /* \"atta-movies/TBC_busd.sol\":30736:30763  x >= 133_084258667509499441 */\n      lt\n        /* \"atta-movies/TBC_busd.sol\":30732:30832  if (x >= 133_084258667509499441) {\r... */\n      tag_272\n      jumpi\n        /* \"atta-movies/TBC_busd.sol\":30818:30819  x */\n      dup2\n        /* \"atta-movies/TBC_busd.sol\":30787:30820  PRBMathUD60x18__ExpInputTooBig(x) */\n      mload(0x40)\n      0x315da06800000000000000000000000000000000000000000000000000000000\n      dup2\n      mstore\n      0x04\n      add\n      tag_273\n      swap2\n      swap1\n      tag_20\n      jump\t// in\n    tag_273:\n      mload(0x40)\n      dup1\n      swap2\n      sub\n      swap1\n      revert\n        /* \"atta-movies/TBC_busd.sol\":30732:30832  if (x >= 133_084258667509499441) {\r... */\n    tag_272:\n        /* \"atta-movies/TBC_busd.sol\":30935:30961  uint256 doubleScaleProduct */\n      0x00\n        /* \"atta-movies/TBC_busd.sol\":26633:26653  1_442695040888963407 */\n      0x14057b7ef767814f\n        /* \"atta-movies/TBC_busd.sol\":30964:30965  x */\n      dup4\n        /* \"atta-movies/TBC_busd.sol\":30964:30974  x * LOG2_E */\n      mul\n        /* \"atta-movies/TBC_busd.sol\":30935:30974  uint256 doubleScaleProduct = x * LOG2_E */\n      swap1\n      pop\n        /* \"atta-movies/TBC_busd.sol\":30998:31045  exp2((doubleScaleProduct + HALF_SCALE) / SCALE) */\n      tag_274\n        /* \"atta-movies/TBC_busd.sol\":27217:27221  1e18 */\n      0x0de0b6b3a7640000\n        /* \"atta-movies/TBC_busd.sol\":26514:26518  5e17 */\n      0x06f05b59d3b20000\n        /* \"atta-movies/TBC_busd.sol\":31004:31022  doubleScaleProduct */\n      dup4\n        /* \"atta-movies/TBC_busd.sol\":31004:31035  doubleScaleProduct + HALF_SCALE */\n      add\n        /* \"atta-movies/TBC_busd.sol\":31003:31044  (doubleScaleProduct + HALF_SCALE) / SCALE */\n      dup2\n      tag_275\n      jumpi\n      tag_276\n      tag_277\n      jump\t// in\n    tag_276:\n    tag_275:\n      div\n        /* \"atta-movies/TBC_busd.sol\":30998:31002  exp2 */\n      tag_278\n        /* \"atta-movies/TBC_busd.sol\":30998:31045  exp2((doubleScaleProduct + HALF_SCALE) / SCALE) */\n      jump\t// in\n    tag_274:\n        /* \"atta-movies/TBC_busd.sol\":30989:31045  result = exp2((doubleScaleProduct + HALF_SCALE) / SCALE) */\n      swap2\n      pop\n        /* \"atta-movies/TBC_busd.sol\":30910:31057  unchecked {\r... */\n      pop\n        /* \"atta-movies/TBC_busd.sol\":30572:31064  function exp(uint256 x) internal pure returns (uint256 result) {\r... */\n      swap2\n      swap1\n      pop\n      jump\t// out\n        /* \"atta-movies/TBC_busd.sol\":29748:29877  function div(uint256 x, uint256 y) internal pure returns (uint256 result) {\r... */\n    tag_65:\n        /* \"atta-movies/TBC_busd.sol\":29806:29820  uint256 result */\n      0x00\n        /* \"atta-movies/TBC_busd.sol\":29842:29869  PRBMath.mulDiv(x, SCALE, y) */\n      tag_280\n        /* \"atta-movies/TBC_busd.sol\":29857:29858  x */\n      dup4\n        /* \"atta-movies/TBC_busd.sol\":27217:27221  1e18 */\n      0x0de0b6b3a7640000\n        /* \"atta-movies/TBC_busd.sol\":29867:29868  y */\n      dup5\n        /* \"atta-movies/TBC_busd.sol\":29842:29856  PRBMath.mulDiv */\n      tag_281\n        /* \"atta-movies/TBC_busd.sol\":29842:29869  PRBMath.mulDiv(x, SCALE, y) */\n      jump\t// in\n    tag_280:\n        /* \"atta-movies/TBC_busd.sol\":29833:29869  result = PRBMath.mulDiv(x, SCALE, y) */\n      swap1\n      pop\n        /* \"atta-movies/TBC_busd.sol\":29748:29877  function div(uint256 x, uint256 y) internal pure returns (uint256 result) {\r... */\n      swap3\n      swap2\n      pop\n      pop\n      jump\t// out\n        /* \"atta-movies/TBC_busd.sol\":36285:36613  function ln(uint256 x) internal pure returns (uint256 result) {\r... */\n    tag_68:\n        /* \"atta-movies/TBC_busd.sol\":36331:36345  uint256 result */\n      0x00\n        /* \"atta-movies/TBC_busd.sol\":26633:26653  1_442695040888963407 */\n      0x14057b7ef767814f\n        /* \"atta-movies/TBC_busd.sol\":27217:27221  1e18 */\n      0x0de0b6b3a7640000\n        /* \"atta-movies/TBC_busd.sol\":36569:36576  log2(x) */\n      tag_283\n        /* \"atta-movies/TBC_busd.sol\":36574:36575  x */\n      dup5\n        /* \"atta-movies/TBC_busd.sol\":36569:36573  log2 */\n      tag_284\n        /* \"atta-movies/TBC_busd.sol\":36569:36576  log2(x) */\n      jump\t// in\n    tag_283:\n        /* \"atta-movies/TBC_busd.sol\":36569:36584  log2(x) * SCALE */\n      mul\n        /* \"atta-movies/TBC_busd.sol\":36568:36594  (log2(x) * SCALE) / LOG2_E */\n      dup2\n      tag_285\n      jumpi\n      tag_286\n      tag_277\n      jump\t// in\n    tag_286:\n    tag_285:\n      div\n        /* \"atta-movies/TBC_busd.sol\":36559:36594  result = (log2(x) * SCALE) / LOG2_E */\n      swap1\n      pop\n        /* \"atta-movies/TBC_busd.sol\":36285:36613  function ln(uint256 x) internal pure returns (uint256 result) {\r... */\n      swap2\n      swap1\n      pop\n      jump\t// out\n        /* \"atta-movies/TBC_busd.sol\":47509:47641  function mul(uint256 x, uint256 y) internal pure returns (uint256 result) {\r... */\n    tag_72:\n        /* \"atta-movies/TBC_busd.sol\":47567:47581  uint256 result */\n      0x00\n        /* \"atta-movies/TBC_busd.sol\":47603:47633  PRBMath.mulDivFixedPoint(x, y) */\n      tag_288\n        /* \"atta-movies/TBC_busd.sol\":47628:47629  x */\n      dup4\n        /* \"atta-movies/TBC_busd.sol\":47631:47632  y */\n      dup4\n        /* \"atta-movies/TBC_busd.sol\":47603:47627  PRBMath.mulDivFixedPoint */\n      tag_289\n        /* \"atta-movies/TBC_busd.sol\":47603:47633  PRBMath.mulDivFixedPoint(x, y) */\n      jump\t// in\n    tag_288:\n        /* \"atta-movies/TBC_busd.sol\":47594:47633  result = PRBMath.mulDivFixedPoint(x, y) */\n      swap1\n      pop\n        /* \"atta-movies/TBC_busd.sol\":47509:47641  function mul(uint256 x, uint256 y) internal pure returns (uint256 result) {\r... */\n      swap3\n      swap2\n      pop\n      pop\n      jump\t// out\n        /* \"atta-movies/TBC_busd.sol\":52244:52425  function add(uint256 a, uint256 b) internal pure returns (uint256) {\r... */\n    tag_81:\n        /* \"atta-movies/TBC_busd.sol\":52302:52309  uint256 */\n      0x00\n        /* \"atta-movies/TBC_busd.sol\":52322:52331  uint256 c */\n      dup1\n        /* \"atta-movies/TBC_busd.sol\":52338:52339  b */\n      dup3\n        /* \"atta-movies/TBC_busd.sol\":52334:52335  a */\n      dup5\n        /* \"atta-movies/TBC_busd.sol\":52334:52339  a + b */\n      tag_291\n      swap2\n      swap1\n      tag_67\n      jump\t// in\n    tag_291:\n        /* \"atta-movies/TBC_busd.sol\":52322:52339  uint256 c = a + b */\n      swap1\n      pop\n        /* \"atta-movies/TBC_busd.sol\":52363:52364  a */\n      dup4\n        /* \"atta-movies/TBC_busd.sol\":52358:52359  c */\n      dup2\n        /* \"atta-movies/TBC_busd.sol\":52358:52364  c >= a */\n      lt\n      iszero\n        /* \"atta-movies/TBC_busd.sol\":52350:52396  require(c >= a, \"SafeMath: addition overflow\") */\n      tag_292\n      jumpi\n      mload(0x40)\n      0x08c379a000000000000000000000000000000000000000000000000000000000\n      dup2\n      mstore\n      0x04\n      add\n      tag_293\n      swap1\n      tag_294\n      jump\t// in\n    tag_293:\n      mload(0x40)\n      dup1\n      swap2\n      sub\n      swap1\n      revert\n    tag_292:\n        /* \"atta-movies/TBC_busd.sol\":52416:52417  c */\n      dup1\n        /* \"atta-movies/TBC_busd.sol\":52409:52417  return c */\n      swap2\n      pop\n      pop\n        /* \"atta-movies/TBC_busd.sol\":52244:52425  function add(uint256 a, uint256 b) internal pure returns (uint256) {\r... */\n      swap3\n      swap2\n      pop\n      pop\n      jump\t// out\n        /* \"atta-movies/TBC_busd.sol\":52708:52844  function sub(uint256 a, uint256 b) internal pure returns (uint256) {\r... */\n    tag_92:\n        /* \"atta-movies/TBC_busd.sol\":52766:52773  uint256 */\n      0x00\n        /* \"atta-movies/TBC_busd.sol\":52793:52836  sub(a, b, \"SafeMath: subtraction overflow\") */\n      tag_296\n        /* \"atta-movies/TBC_busd.sol\":52797:52798  a */\n      dup4\n        /* \"atta-movies/TBC_busd.sol\":52800:52801  b */\n      dup4\n        /* \"atta-movies/TBC_busd.sol\":52793:52836  sub(a, b, \"SafeMath: subtraction overflow\") */\n      mload(0x40)\n      dup1\n      0x40\n      add\n      0x40\n      mstore\n      dup1\n      0x1e\n      dup2\n      mstore\n      0x20\n      add\n      0x536166654d6174683a207375627472616374696f6e206f766572666c6f770000\n      dup2\n      mstore\n      pop\n        /* \"atta-movies/TBC_busd.sol\":52793:52796  sub */\n      tag_297\n        /* \"atta-movies/TBC_busd.sol\":52793:52836  sub(a, b, \"SafeMath: subtraction overflow\") */\n      jump\t// in\n    tag_296:\n        /* \"atta-movies/TBC_busd.sol\":52786:52836  return sub(a, b, \"SafeMath: subtraction overflow\") */\n      swap1\n      pop\n        /* \"atta-movies/TBC_busd.sol\":52708:52844  function sub(uint256 a, uint256 b) internal pure returns (uint256) {\r... */\n      swap3\n      swap2\n      pop\n      pop\n      jump\t// out\n        /* \"atta-movies/TBC_busd.sol\":60365:60463  function _msgSender() internal view virtual returns (address) {\r... */\n    tag_104:\n        /* \"atta-movies/TBC_busd.sol\":60418:60425  address */\n      0x00\n        /* \"atta-movies/TBC_busd.sol\":60445:60455  msg.sender */\n      caller\n        /* \"atta-movies/TBC_busd.sol\":60438:60455  return msg.sender */\n      swap1\n      pop\n        /* \"atta-movies/TBC_busd.sol\":60365:60463  function _msgSender() internal view virtual returns (address) {\r... */\n      swap1\n      jump\t// out\n        /* \"atta-movies/TBC_busd.sol\":55173:55451  function div(uint256 a, uint256 b, string memory errorMessage) internal pure returns (uint256) {\r... */\n    tag_270:\n        /* \"atta-movies/TBC_busd.sol\":55259:55266  uint256 */\n      0x00\n        /* \"atta-movies/TBC_busd.sol\":55291:55292  0 */\n      dup1\n        /* \"atta-movies/TBC_busd.sol\":55287:55288  b */\n      dup4\n        /* \"atta-movies/TBC_busd.sol\":55287:55292  b > 0 */\n      gt\n        /* \"atta-movies/TBC_busd.sol\":55294:55306  errorMessage */\n      dup3\n        /* \"atta-movies/TBC_busd.sol\":55279:55307  require(b > 0, errorMessage) */\n      swap1\n      tag_300\n      jumpi\n      mload(0x40)\n      0x08c379a000000000000000000000000000000000000000000000000000000000\n      dup2\n      mstore\n      0x04\n      add\n      tag_301\n      swap2\n      swap1\n      tag_302\n      jump\t// in\n    tag_301:\n      mload(0x40)\n      dup1\n      swap2\n      sub\n      swap1\n      revert\n    tag_300:\n      pop\n        /* \"atta-movies/TBC_busd.sol\":55318:55327  uint256 c */\n      0x00\n        /* \"atta-movies/TBC_busd.sol\":55334:55335  b */\n      dup4\n        /* \"atta-movies/TBC_busd.sol\":55330:55331  a */\n      dup6\n        /* \"atta-movies/TBC_busd.sol\":55330:55335  a / b */\n      tag_303\n      swap2\n      swap1\n      tag_264\n      jump\t// in\n    tag_303:\n        /* \"atta-movies/TBC_busd.sol\":55318:55335  uint256 c = a / b */\n      swap1\n      pop\n        /* \"atta-movies/TBC_busd.sol\":55442:55443  c */\n      dup1\n        /* \"atta-movies/TBC_busd.sol\":55435:55443  return c */\n      swap2\n      pop\n      pop\n        /* \"atta-movies/TBC_busd.sol\":55173:55451  function div(uint256 a, uint256 b, string memory errorMessage) internal pure returns (uint256) {\r... */\n      swap4\n      swap3\n      pop\n      pop\n      pop\n      jump\t// out\n        /* \"atta-movies/TBC_busd.sol\":31526:32095  function exp2(uint256 x) internal pure returns (uint256 result) {\r... */\n    tag_278:\n        /* \"atta-movies/TBC_busd.sol\":31574:31588  uint256 result */\n      0x00\n        /* \"atta-movies/TBC_busd.sol\":31703:31709  192e18 */\n      0x0a688906bd8b000000\n        /* \"atta-movies/TBC_busd.sol\":31698:31699  x */\n      dup3\n        /* \"atta-movies/TBC_busd.sol\":31698:31709  x >= 192e18 */\n      lt\n        /* \"atta-movies/TBC_busd.sol\":31694:31779  if (x >= 192e18) {\r... */\n      tag_305\n      jumpi\n        /* \"atta-movies/TBC_busd.sol\":31765:31766  x */\n      dup2\n        /* \"atta-movies/TBC_busd.sol\":31733:31767  PRBMathUD60x18__Exp2InputTooBig(x) */\n      mload(0x40)\n      0x4a4f26f100000000000000000000000000000000000000000000000000000000\n      dup2\n      mstore\n      0x04\n      add\n      tag_306\n      swap2\n      swap1\n      tag_20\n      jump\t// in\n    tag_306:\n      mload(0x40)\n      dup1\n      swap2\n      sub\n      swap1\n      revert\n        /* \"atta-movies/TBC_busd.sol\":31694:31779  if (x >= 192e18) {\r... */\n    tag_305:\n        /* \"atta-movies/TBC_busd.sol\":31880:31895  uint256 x192x64 */\n      0x00\n        /* \"atta-movies/TBC_busd.sol\":27217:27221  1e18 */\n      0x0de0b6b3a7640000\n        /* \"atta-movies/TBC_busd.sol\":31904:31906  64 */\n      0x40\n        /* \"atta-movies/TBC_busd.sol\":31899:31900  x */\n      dup5\n        /* \"atta-movies/TBC_busd.sol\":31899:31906  x << 64 */\n      swap1\n      shl\n        /* \"atta-movies/TBC_busd.sol\":31898:31915  (x << 64) / SCALE */\n      dup2\n      tag_307\n      jumpi\n      tag_308\n      tag_277\n      jump\t// in\n    tag_308:\n    tag_307:\n      div\n        /* \"atta-movies/TBC_busd.sol\":31880:31915  uint256 x192x64 = (x << 64) / SCALE */\n      swap1\n      pop\n        /* \"atta-movies/TBC_busd.sol\":32055:32076  PRBMath.exp2(x192x64) */\n      tag_309\n        /* \"atta-movies/TBC_busd.sol\":32068:32075  x192x64 */\n      dup2\n        /* \"atta-movies/TBC_busd.sol\":32055:32067  PRBMath.exp2 */\n      tag_310\n        /* \"atta-movies/TBC_busd.sol\":32055:32076  PRBMath.exp2(x192x64) */\n      jump\t// in\n    tag_309:\n        /* \"atta-movies/TBC_busd.sol\":32046:32076  result = PRBMath.exp2(x192x64) */\n      swap2\n      pop\n        /* \"atta-movies/TBC_busd.sol\":31791:32088  unchecked {\r... */\n      pop\n        /* \"atta-movies/TBC_busd.sol\":31526:32095  function exp2(uint256 x) internal pure returns (uint256 result) {\r... */\n      swap2\n      swap1\n      pop\n      jump\t// out\n        /* \"atta-movies/TBC_busd.sol\":15472:19539  function mulDiv(\r... */\n    tag_281:\n        /* \"atta-movies/TBC_busd.sol\":15588:15602  uint256 result */\n      0x00\n        /* \"atta-movies/TBC_busd.sol\":15903:15916  uint256 prod0 */\n      dup1\n        /* \"atta-movies/TBC_busd.sol\":15972:15985  uint256 prod1 */\n      0x00\n        /* \"atta-movies/TBC_busd.sol\":16091:16092  0 */\n      dup1\n        /* \"atta-movies/TBC_busd.sol\":16087:16093  not(0) */\n      not\n        /* \"atta-movies/TBC_busd.sol\":16084:16085  y */\n      dup6\n        /* \"atta-movies/TBC_busd.sol\":16081:16082  x */\n      dup8\n        /* \"atta-movies/TBC_busd.sol\":16074:16094  mulmod(x, y, not(0)) */\n      mulmod\n        /* \"atta-movies/TBC_busd.sol\":16124:16125  y */\n      dup6\n        /* \"atta-movies/TBC_busd.sol\":16121:16122  x */\n      dup8\n        /* \"atta-movies/TBC_busd.sol\":16117:16126  mul(x, y) */\n      mul\n        /* \"atta-movies/TBC_busd.sol\":16108:16126  prod0 := mul(x, y) */\n      swap3\n      pop\n        /* \"atta-movies/TBC_busd.sol\":16176:16181  prod0 */\n      dup3\n        /* \"atta-movies/TBC_busd.sol\":16172:16174  mm */\n      dup2\n        /* \"atta-movies/TBC_busd.sol\":16169:16182  lt(mm, prod0) */\n      lt\n        /* \"atta-movies/TBC_busd.sol\":16161:16166  prod0 */\n      dup4\n        /* \"atta-movies/TBC_busd.sol\":16157:16159  mm */\n      dup3\n        /* \"atta-movies/TBC_busd.sol\":16153:16167  sub(mm, prod0) */\n      sub\n        /* \"atta-movies/TBC_busd.sol\":16149:16183  sub(sub(mm, prod0), lt(mm, prod0)) */\n      sub\n        /* \"atta-movies/TBC_busd.sol\":16140:16183  prod1 := sub(sub(mm, prod0), lt(mm, prod0)) */\n      swap2\n      pop\n        /* \"atta-movies/TBC_busd.sol\":16049:16194  {\r... */\n      pop\n        /* \"atta-movies/TBC_busd.sol\":16279:16280  0 */\n      0x00\n        /* \"atta-movies/TBC_busd.sol\":16270:16275  prod1 */\n      dup2\n        /* \"atta-movies/TBC_busd.sol\":16270:16280  prod1 == 0 */\n      eq\n        /* \"atta-movies/TBC_busd.sol\":16266:16409  if (prod1 == 0) {\r... */\n      iszero\n      tag_312\n      jumpi\n        /* \"atta-movies/TBC_busd.sol\":16343:16354  denominator */\n      dup4\n        /* \"atta-movies/TBC_busd.sol\":16335:16340  prod0 */\n      dup3\n        /* \"atta-movies/TBC_busd.sol\":16335:16354  prod0 / denominator */\n      dup2\n      tag_313\n      jumpi\n      tag_314\n      tag_277\n      jump\t// in\n    tag_314:\n    tag_313:\n      div\n        /* \"atta-movies/TBC_busd.sol\":16326:16354  result = prod0 / denominator */\n      swap3\n      pop\n        /* \"atta-movies/TBC_busd.sol\":16384:16397  return result */\n      pop\n      pop\n      jump(tag_311)\n        /* \"atta-movies/TBC_busd.sol\":16266:16409  if (prod1 == 0) {\r... */\n    tag_312:\n        /* \"atta-movies/TBC_busd.sol\":16519:16530  denominator */\n      dup4\n        /* \"atta-movies/TBC_busd.sol\":16510:16515  prod1 */\n      dup2\n        /* \"atta-movies/TBC_busd.sol\":16510:16530  prod1 >= denominator */\n      lt\n        /* \"atta-movies/TBC_busd.sol\":16506:16609  if (prod1 >= denominator) {\r... */\n      tag_315\n      jumpi\n        /* \"atta-movies/TBC_busd.sol\":16578:16583  prod1 */\n      dup1\n        /* \"atta-movies/TBC_busd.sol\":16585:16596  denominator */\n      dup5\n        /* \"atta-movies/TBC_busd.sol\":16554:16597  PRBMath__MulDivOverflow(prod1, denominator) */\n      mload(0x40)\n      0x773cc18c00000000000000000000000000000000000000000000000000000000\n      dup2\n      mstore\n      0x04\n      add\n      tag_316\n      swap3\n      swap2\n      swap1\n      tag_317\n      jump\t// in\n    tag_316:\n      mload(0x40)\n      dup1\n      swap2\n      sub\n      swap1\n      revert\n        /* \"atta-movies/TBC_busd.sol\":16506:16609  if (prod1 >= denominator) {\r... */\n    tag_315:\n        /* \"atta-movies/TBC_busd.sol\":16851:16868  uint256 remainder */\n      0x00\n        /* \"atta-movies/TBC_busd.sol\":16977:16988  denominator */\n      dup5\n        /* \"atta-movies/TBC_busd.sol\":16974:16975  y */\n      dup7\n        /* \"atta-movies/TBC_busd.sol\":16971:16972  x */\n      dup9\n        /* \"atta-movies/TBC_busd.sol\":16964:16989  mulmod(x, y, denominator) */\n      mulmod\n        /* \"atta-movies/TBC_busd.sol\":16951:16989  remainder := mulmod(x, y, denominator) */\n      swap1\n      pop\n        /* \"atta-movies/TBC_busd.sol\":17100:17105  prod0 */\n      dup3\n        /* \"atta-movies/TBC_busd.sol\":17089:17098  remainder */\n      dup2\n        /* \"atta-movies/TBC_busd.sol\":17086:17106  gt(remainder, prod0) */\n      gt\n        /* \"atta-movies/TBC_busd.sol\":17079:17084  prod1 */\n      dup3\n        /* \"atta-movies/TBC_busd.sol\":17075:17107  sub(prod1, gt(remainder, prod0)) */\n      sub\n        /* \"atta-movies/TBC_busd.sol\":17066:17107  prod1 := sub(prod1, gt(remainder, prod0)) */\n      swap2\n      pop\n        /* \"atta-movies/TBC_busd.sol\":17141:17150  remainder */\n      dup1\n        /* \"atta-movies/TBC_busd.sol\":17134:17139  prod0 */\n      dup4\n        /* \"atta-movies/TBC_busd.sol\":17130:17151  sub(prod0, remainder) */\n      sub\n        /* \"atta-movies/TBC_busd.sol\":17121:17151  prod0 := sub(prod0, remainder) */\n      swap3\n      pop\n        /* \"atta-movies/TBC_busd.sol\":17486:17501  uint256 lpotdod */\n      0x00\n        /* \"atta-movies/TBC_busd.sol\":17534:17535  1 */\n      0x01\n        /* \"atta-movies/TBC_busd.sol\":17520:17531  denominator */\n      dup7\n        /* \"atta-movies/TBC_busd.sol\":17519:17531  ~denominator */\n      not\n        /* \"atta-movies/TBC_busd.sol\":17519:17535  ~denominator + 1 */\n      add\n        /* \"atta-movies/TBC_busd.sol\":17504:17515  denominator */\n      dup7\n        /* \"atta-movies/TBC_busd.sol\":17504:17536  denominator & (~denominator + 1) */\n      and\n        /* \"atta-movies/TBC_busd.sol\":17486:17536  uint256 lpotdod = denominator & (~denominator + 1) */\n      swap1\n      pop\n        /* \"atta-movies/TBC_busd.sol\":17662:17669  lpotdod */\n      dup1\n        /* \"atta-movies/TBC_busd.sol\":17649:17660  denominator */\n      dup7\n        /* \"atta-movies/TBC_busd.sol\":17645:17670  div(denominator, lpotdod) */\n      div\n        /* \"atta-movies/TBC_busd.sol\":17630:17670  denominator := div(denominator, lpotdod) */\n      swap6\n      pop\n        /* \"atta-movies/TBC_busd.sol\":17763:17770  lpotdod */\n      dup1\n        /* \"atta-movies/TBC_busd.sol\":17756:17761  prod0 */\n      dup5\n        /* \"atta-movies/TBC_busd.sol\":17752:17771  div(prod0, lpotdod) */\n      div\n        /* \"atta-movies/TBC_busd.sol\":17743:17771  prod0 := div(prod0, lpotdod) */\n      swap4\n      pop\n        /* \"atta-movies/TBC_busd.sol\":17944:17945  1 */\n      0x01\n        /* \"atta-movies/TBC_busd.sol\":17934:17941  lpotdod */\n      dup2\n        /* \"atta-movies/TBC_busd.sol\":17924:17931  lpotdod */\n      dup3\n        /* \"atta-movies/TBC_busd.sol\":17921:17922  0 */\n      0x00\n        /* \"atta-movies/TBC_busd.sol\":17917:17932  sub(0, lpotdod) */\n      sub\n        /* \"atta-movies/TBC_busd.sol\":17913:17942  div(sub(0, lpotdod), lpotdod) */\n      div\n        /* \"atta-movies/TBC_busd.sol\":17909:17946  add(div(sub(0, lpotdod), lpotdod), 1) */\n      add\n        /* \"atta-movies/TBC_busd.sol\":17898:17946  lpotdod := add(div(sub(0, lpotdod), lpotdod), 1) */\n      swap1\n      pop\n        /* \"atta-movies/TBC_busd.sol\":18047:18054  lpotdod */\n      dup1\n        /* \"atta-movies/TBC_busd.sol\":18039:18044  prod1 */\n      dup4\n        /* \"atta-movies/TBC_busd.sol\":18039:18054  prod1 * lpotdod */\n      mul\n        /* \"atta-movies/TBC_busd.sol\":18030:18054  prod0 |= prod1 * lpotdod */\n      dup5\n      or\n      swap4\n      pop\n        /* \"atta-movies/TBC_busd.sol\":18377:18392  uint256 inverse */\n      0x00\n        /* \"atta-movies/TBC_busd.sol\":18415:18416  2 */\n      0x02\n        /* \"atta-movies/TBC_busd.sol\":18400:18411  denominator */\n      dup8\n        /* \"atta-movies/TBC_busd.sol\":18396:18397  3 */\n      0x03\n        /* \"atta-movies/TBC_busd.sol\":18396:18411  3 * denominator */\n      mul\n        /* \"atta-movies/TBC_busd.sol\":18395:18416  (3 * denominator) ^ 2 */\n      xor\n        /* \"atta-movies/TBC_busd.sol\":18377:18416  uint256 inverse = (3 * denominator) ^ 2 */\n      swap1\n      pop\n        /* \"atta-movies/TBC_busd.sol\":18666:18673  inverse */\n      dup1\n        /* \"atta-movies/TBC_busd.sol\":18652:18663  denominator */\n      dup8\n        /* \"atta-movies/TBC_busd.sol\":18652:18673  denominator * inverse */\n      mul\n        /* \"atta-movies/TBC_busd.sol\":18648:18649  2 */\n      0x02\n        /* \"atta-movies/TBC_busd.sol\":18648:18673  2 - denominator * inverse */\n      sub\n        /* \"atta-movies/TBC_busd.sol\":18637:18673  inverse *= 2 - denominator * inverse */\n      dup2\n      mul\n      swap1\n      pop\n        /* \"atta-movies/TBC_busd.sol\":18736:18743  inverse */\n      dup1\n        /* \"atta-movies/TBC_busd.sol\":18722:18733  denominator */\n      dup8\n        /* \"atta-movies/TBC_busd.sol\":18722:18743  denominator * inverse */\n      mul\n        /* \"atta-movies/TBC_busd.sol\":18718:18719  2 */\n      0x02\n        /* \"atta-movies/TBC_busd.sol\":18718:18743  2 - denominator * inverse */\n      sub\n        /* \"atta-movies/TBC_busd.sol\":18707:18743  inverse *= 2 - denominator * inverse */\n      dup2\n      mul\n      swap1\n      pop\n        /* \"atta-movies/TBC_busd.sol\":18807:18814  inverse */\n      dup1\n        /* \"atta-movies/TBC_busd.sol\":18793:18804  denominator */\n      dup8\n        /* \"atta-movies/TBC_busd.sol\":18793:18814  denominator * inverse */\n      mul\n        /* \"atta-movies/TBC_busd.sol\":18789:18790  2 */\n      0x02\n        /* \"atta-movies/TBC_busd.sol\":18789:18814  2 - denominator * inverse */\n      sub\n        /* \"atta-movies/TBC_busd.sol\":18778:18814  inverse *= 2 - denominator * inverse */\n      dup2\n      mul\n      swap1\n      pop\n        /* \"atta-movies/TBC_busd.sol\":18878:18885  inverse */\n      dup1\n        /* \"atta-movies/TBC_busd.sol\":18864:18875  denominator */\n      dup8\n        /* \"atta-movies/TBC_busd.sol\":18864:18885  denominator * inverse */\n      mul\n        /* \"atta-movies/TBC_busd.sol\":18860:18861  2 */\n      0x02\n        /* \"atta-movies/TBC_busd.sol\":18860:18885  2 - denominator * inverse */\n      sub\n        /* \"atta-movies/TBC_busd.sol\":18849:18885  inverse *= 2 - denominator * inverse */\n      dup2\n      mul\n      swap1\n      pop\n        /* \"atta-movies/TBC_busd.sol\":18949:18956  inverse */\n      dup1\n        /* \"atta-movies/TBC_busd.sol\":18935:18946  denominator */\n      dup8\n        /* \"atta-movies/TBC_busd.sol\":18935:18956  denominator * inverse */\n      mul\n        /* \"atta-movies/TBC_busd.sol\":18931:18932  2 */\n      0x02\n        /* \"atta-movies/TBC_busd.sol\":18931:18956  2 - denominator * inverse */\n      sub\n        /* \"atta-movies/TBC_busd.sol\":18920:18956  inverse *= 2 - denominator * inverse */\n      dup2\n      mul\n      swap1\n      pop\n        /* \"atta-movies/TBC_busd.sol\":19021:19028  inverse */\n      dup1\n        /* \"atta-movies/TBC_busd.sol\":19007:19018  denominator */\n      dup8\n        /* \"atta-movies/TBC_busd.sol\":19007:19028  denominator * inverse */\n      mul\n        /* \"atta-movies/TBC_busd.sol\":19003:19004  2 */\n      0x02\n        /* \"atta-movies/TBC_busd.sol\":19003:19028  2 - denominator * inverse */\n      sub\n        /* \"atta-movies/TBC_busd.sol\":18992:19028  inverse *= 2 - denominator * inverse */\n      dup2\n      mul\n      swap1\n      pop\n        /* \"atta-movies/TBC_busd.sol\":19485:19492  inverse */\n      dup1\n        /* \"atta-movies/TBC_busd.sol\":19477:19482  prod0 */\n      dup6\n        /* \"atta-movies/TBC_busd.sol\":19477:19492  prod0 * inverse */\n      mul\n        /* \"atta-movies/TBC_busd.sol\":19468:19492  result = prod0 * inverse */\n      swap6\n      pop\n        /* \"atta-movies/TBC_busd.sol\":19507:19520  return result */\n      pop\n      pop\n      pop\n      pop\n      pop\n        /* \"atta-movies/TBC_busd.sol\":15472:19539  function mulDiv(\r... */\n    tag_311:\n      swap4\n      swap3\n      pop\n      pop\n      pop\n      jump\t// out\n        /* \"atta-movies/TBC_busd.sol\":45584:47016  function log2(uint256 x) internal pure returns (uint256 result) {\r... */\n    tag_284:\n        /* \"atta-movies/TBC_busd.sol\":45632:45646  uint256 result */\n      0x00\n        /* \"atta-movies/TBC_busd.sol\":27217:27221  1e18 */\n      0x0de0b6b3a7640000\n        /* \"atta-movies/TBC_busd.sol\":45663:45664  x */\n      dup3\n        /* \"atta-movies/TBC_busd.sol\":45663:45672  x < SCALE */\n      lt\n        /* \"atta-movies/TBC_busd.sol\":45659:45743  if (x < SCALE) {\r... */\n      iszero\n      tag_319\n      jumpi\n        /* \"atta-movies/TBC_busd.sol\":45729:45730  x */\n      dup2\n        /* \"atta-movies/TBC_busd.sol\":45696:45731  PRBMathUD60x18__LogInputTooSmall(x) */\n      mload(0x40)\n      0xd88504dc00000000000000000000000000000000000000000000000000000000\n      dup2\n      mstore\n      0x04\n      add\n      tag_320\n      swap2\n      swap1\n      tag_20\n      jump\t// in\n    tag_320:\n      mload(0x40)\n      dup1\n      swap2\n      sub\n      swap1\n      revert\n        /* \"atta-movies/TBC_busd.sol\":45659:45743  if (x < SCALE) {\r... */\n    tag_319:\n        /* \"atta-movies/TBC_busd.sol\":45901:45910  uint256 n */\n      0x00\n        /* \"atta-movies/TBC_busd.sol\":45913:45950  PRBMath.mostSignificantBit(x / SCALE) */\n      tag_321\n        /* \"atta-movies/TBC_busd.sol\":27217:27221  1e18 */\n      0x0de0b6b3a7640000\n        /* \"atta-movies/TBC_busd.sol\":45940:45941  x */\n      dup5\n        /* \"atta-movies/TBC_busd.sol\":45940:45949  x / SCALE */\n      dup2\n      tag_322\n      jumpi\n      tag_323\n      tag_277\n      jump\t// in\n    tag_323:\n    tag_322:\n      div\n        /* \"atta-movies/TBC_busd.sol\":45913:45939  PRBMath.mostSignificantBit */\n      tag_324\n        /* \"atta-movies/TBC_busd.sol\":45913:45950  PRBMath.mostSignificantBit(x / SCALE) */\n      jump\t// in\n    tag_321:\n        /* \"atta-movies/TBC_busd.sol\":45901:45950  uint256 n = PRBMath.mostSignificantBit(x / SCALE) */\n      swap1\n      pop\n        /* \"atta-movies/TBC_busd.sol\":27217:27221  1e18 */\n      0x0de0b6b3a7640000\n        /* \"atta-movies/TBC_busd.sol\":46164:46165  n */\n      dup2\n        /* \"atta-movies/TBC_busd.sol\":46164:46173  n * SCALE */\n      mul\n        /* \"atta-movies/TBC_busd.sol\":46155:46173  result = n * SCALE */\n      swap2\n      pop\n        /* \"atta-movies/TBC_busd.sol\":46230:46239  uint256 y */\n      0x00\n        /* \"atta-movies/TBC_busd.sol\":46247:46248  n */\n      dup2\n        /* \"atta-movies/TBC_busd.sol\":46242:46243  x */\n      dup5\n        /* \"atta-movies/TBC_busd.sol\":46242:46248  x >> n */\n      swap1\n      shr\n        /* \"atta-movies/TBC_busd.sol\":46230:46248  uint256 y = x >> n */\n      swap1\n      pop\n        /* \"atta-movies/TBC_busd.sol\":27217:27221  1e18 */\n      0x0de0b6b3a7640000\n        /* \"atta-movies/TBC_busd.sol\":46324:46325  y */\n      dup2\n        /* \"atta-movies/TBC_busd.sol\":46324:46334  y == SCALE */\n      eq\n        /* \"atta-movies/TBC_busd.sol\":46320:46384  if (y == SCALE) {\r... */\n      iszero\n      tag_325\n      jumpi\n        /* \"atta-movies/TBC_busd.sol\":46355:46368  return result */\n      pop\n      pop\n      jump(tag_318)\n        /* \"atta-movies/TBC_busd.sol\":46320:46384  if (y == SCALE) {\r... */\n    tag_325:\n        /* \"atta-movies/TBC_busd.sol\":46583:46596  uint256 delta */\n      0x00\n        /* \"atta-movies/TBC_busd.sol\":26514:26518  5e17 */\n      0x06f05b59d3b20000\n        /* \"atta-movies/TBC_busd.sol\":46583:46609  uint256 delta = HALF_SCALE */\n      swap1\n      pop\n        /* \"atta-movies/TBC_busd.sol\":46578:46998  for (uint256 delta = HALF_SCALE; delta > 0; delta >>= 1) {\r... */\n    tag_326:\n        /* \"atta-movies/TBC_busd.sol\":46619:46620  0 */\n      0x00\n        /* \"atta-movies/TBC_busd.sol\":46611:46616  delta */\n      dup2\n        /* \"atta-movies/TBC_busd.sol\":46611:46620  delta > 0 */\n      gt\n        /* \"atta-movies/TBC_busd.sol\":46578:46998  for (uint256 delta = HALF_SCALE; delta > 0; delta >>= 1) {\r... */\n      iszero\n      tag_327\n      jumpi\n        /* \"atta-movies/TBC_busd.sol\":27217:27221  1e18 */\n      0x0de0b6b3a7640000\n        /* \"atta-movies/TBC_busd.sol\":46663:46664  y */\n      dup3\n        /* \"atta-movies/TBC_busd.sol\":46659:46660  y */\n      dup4\n        /* \"atta-movies/TBC_busd.sol\":46659:46664  y * y */\n      mul\n        /* \"atta-movies/TBC_busd.sol\":46658:46673  (y * y) / SCALE */\n      dup2\n      tag_329\n      jumpi\n      tag_330\n      tag_277\n      jump\t// in\n    tag_330:\n    tag_329:\n      div\n        /* \"atta-movies/TBC_busd.sol\":46654:46673  y = (y * y) / SCALE */\n      swap2\n      pop\n        /* \"atta-movies/TBC_busd.sol\":27217:27221  1e18 */\n      0x0de0b6b3a7640000\n        /* \"atta-movies/TBC_busd.sol\":46761:46762  2 */\n      0x02\n        /* \"atta-movies/TBC_busd.sol\":46761:46770  2 * SCALE */\n      mul\n        /* \"atta-movies/TBC_busd.sol\":46756:46757  y */\n      dup3\n        /* \"atta-movies/TBC_busd.sol\":46756:46770  y >= 2 * SCALE */\n      lt\n        /* \"atta-movies/TBC_busd.sol\":46752:46983  if (y >= 2 * SCALE) {\r... */\n      tag_331\n      jumpi\n        /* \"atta-movies/TBC_busd.sol\":46869:46874  delta */\n      dup1\n        /* \"atta-movies/TBC_busd.sol\":46859:46874  result += delta */\n      dup5\n      add\n      swap4\n      pop\n        /* \"atta-movies/TBC_busd.sol\":46962:46963  1 */\n      0x01\n        /* \"atta-movies/TBC_busd.sol\":46956:46963  y >>= 1 */\n      dup3\n      swap1\n      shr\n      swap2\n      pop\n        /* \"atta-movies/TBC_busd.sol\":46752:46983  if (y >= 2 * SCALE) {\r... */\n    tag_331:\n        /* \"atta-movies/TBC_busd.sol\":46632:46633  1 */\n      0x01\n        /* \"atta-movies/TBC_busd.sol\":46622:46633  delta >>= 1 */\n      dup2\n      swap1\n      shr\n      swap1\n      pop\n        /* \"atta-movies/TBC_busd.sol\":46578:46998  for (uint256 delta = HALF_SCALE; delta > 0; delta >>= 1) {\r... */\n      jump(tag_326)\n    tag_327:\n      pop\n        /* \"atta-movies/TBC_busd.sol\":45753:47009  unchecked {\r... */\n      pop\n      pop\n        /* \"atta-movies/TBC_busd.sol\":45584:47016  function log2(uint256 x) internal pure returns (uint256 result) {\r... */\n    tag_318:\n      swap2\n      swap1\n      pop\n      jump\t// out\n        /* \"atta-movies/TBC_busd.sol\":20688:21876  function mulDivFixedPoint(uint256 x, uint256 y) internal pure returns (uint256 result) {\r... */\n    tag_289:\n        /* \"atta-movies/TBC_busd.sol\":20759:20773  uint256 result */\n      0x00\n        /* \"atta-movies/TBC_busd.sol\":20786:20799  uint256 prod0 */\n      dup1\n        /* \"atta-movies/TBC_busd.sol\":20810:20823  uint256 prod1 */\n      0x00\n        /* \"atta-movies/TBC_busd.sol\":20885:20886  0 */\n      dup1\n        /* \"atta-movies/TBC_busd.sol\":20881:20887  not(0) */\n      not\n        /* \"atta-movies/TBC_busd.sol\":20878:20879  y */\n      dup5\n        /* \"atta-movies/TBC_busd.sol\":20875:20876  x */\n      dup7\n        /* \"atta-movies/TBC_busd.sol\":20868:20888  mulmod(x, y, not(0)) */\n      mulmod\n        /* \"atta-movies/TBC_busd.sol\":20918:20919  y */\n      dup5\n        /* \"atta-movies/TBC_busd.sol\":20915:20916  x */\n      dup7\n        /* \"atta-movies/TBC_busd.sol\":20911:20920  mul(x, y) */\n      mul\n        /* \"atta-movies/TBC_busd.sol\":20902:20920  prod0 := mul(x, y) */\n      swap3\n      pop\n        /* \"atta-movies/TBC_busd.sol\":20970:20975  prod0 */\n      dup3\n        /* \"atta-movies/TBC_busd.sol\":20966:20968  mm */\n      dup2\n        /* \"atta-movies/TBC_busd.sol\":20963:20976  lt(mm, prod0) */\n      lt\n        /* \"atta-movies/TBC_busd.sol\":20955:20960  prod0 */\n      dup4\n        /* \"atta-movies/TBC_busd.sol\":20951:20953  mm */\n      dup3\n        /* \"atta-movies/TBC_busd.sol\":20947:20961  sub(mm, prod0) */\n      sub\n        /* \"atta-movies/TBC_busd.sol\":20943:20977  sub(sub(mm, prod0), lt(mm, prod0)) */\n      sub\n        /* \"atta-movies/TBC_busd.sol\":20934:20977  prod1 := sub(sub(mm, prod0), lt(mm, prod0)) */\n      swap2\n      pop\n        /* \"atta-movies/TBC_busd.sol\":20843:20988  {\r... */\n      pop\n        /* \"atta-movies/TBC_busd.sol\":4320:4324  1e18 */\n      0x0de0b6b3a7640000\n        /* \"atta-movies/TBC_busd.sol\":21004:21009  prod1 */\n      dup2\n        /* \"atta-movies/TBC_busd.sol\":21004:21018  prod1 >= SCALE */\n      lt\n        /* \"atta-movies/TBC_busd.sol\":21000:21094  if (prod1 >= SCALE) {\r... */\n      tag_333\n      jumpi\n        /* \"atta-movies/TBC_busd.sol\":21076:21081  prod1 */\n      dup1\n        /* \"atta-movies/TBC_busd.sol\":21042:21082  PRBMath__MulDivFixedPointOverflow(prod1) */\n      mload(0x40)\n      0xd31b340200000000000000000000000000000000000000000000000000000000\n      dup2\n      mstore\n      0x04\n      add\n      tag_334\n      swap2\n      swap1\n      tag_20\n      jump\t// in\n    tag_334:\n      mload(0x40)\n      dup1\n      swap2\n      sub\n      swap1\n      revert\n        /* \"atta-movies/TBC_busd.sol\":21000:21094  if (prod1 >= SCALE) {\r... */\n    tag_333:\n        /* \"atta-movies/TBC_busd.sol\":21106:21123  uint256 remainder */\n      0x00\n        /* \"atta-movies/TBC_busd.sol\":21134:21153  uint256 roundUpUnit */\n      dup1\n        /* \"atta-movies/TBC_busd.sol\":21214:21219  SCALE */\n      0x0de0b6b3a7640000\n        /* \"atta-movies/TBC_busd.sol\":21211:21212  y */\n      dup7\n        /* \"atta-movies/TBC_busd.sol\":21208:21209  x */\n      dup9\n        /* \"atta-movies/TBC_busd.sol\":21201:21220  mulmod(x, y, SCALE) */\n      mulmod\n        /* \"atta-movies/TBC_busd.sol\":21188:21220  remainder := mulmod(x, y, SCALE) */\n      swap2\n      pop\n        /* \"atta-movies/TBC_busd.sol\":21263:21281  499999999999999999 */\n      0x06f05b59d3b1ffff\n        /* \"atta-movies/TBC_busd.sol\":21252:21261  remainder */\n      dup3\n        /* \"atta-movies/TBC_busd.sol\":21249:21282  gt(remainder, 499999999999999999) */\n      gt\n        /* \"atta-movies/TBC_busd.sol\":21234:21282  roundUpUnit := gt(remainder, 499999999999999999) */\n      swap1\n      pop\n        /* \"atta-movies/TBC_busd.sol\":21318:21319  0 */\n      0x00\n        /* \"atta-movies/TBC_busd.sol\":21309:21314  prod1 */\n      dup4\n        /* \"atta-movies/TBC_busd.sol\":21309:21319  prod1 == 0 */\n      eq\n        /* \"atta-movies/TBC_busd.sol\":21305:21462  if (prod1 == 0) {\r... */\n      iszero\n      tag_335\n      jumpi\n        /* \"atta-movies/TBC_busd.sol\":21392:21403  roundUpUnit */\n      dup1\n        /* \"atta-movies/TBC_busd.sol\":4320:4324  1e18 */\n      0x0de0b6b3a7640000\n        /* \"atta-movies/TBC_busd.sol\":21375:21380  prod0 */\n      dup6\n        /* \"atta-movies/TBC_busd.sol\":21375:21388  prod0 / SCALE */\n      dup2\n      tag_336\n      jumpi\n      tag_337\n      tag_277\n      jump\t// in\n    tag_337:\n    tag_336:\n      div\n        /* \"atta-movies/TBC_busd.sol\":21374:21403  (prod0 / SCALE) + roundUpUnit */\n      add\n        /* \"atta-movies/TBC_busd.sol\":21365:21403  result = (prod0 / SCALE) + roundUpUnit */\n      swap5\n      pop\n        /* \"atta-movies/TBC_busd.sol\":21422:21435  return result */\n      pop\n      pop\n      pop\n      pop\n      jump(tag_332)\n        /* \"atta-movies/TBC_busd.sol\":21305:21462  if (prod1 == 0) {\r... */\n    tag_335:\n        /* \"atta-movies/TBC_busd.sol\":21832:21843  roundUpUnit */\n      dup1\n        /* \"atta-movies/TBC_busd.sol\":21781:21794  SCALE_INVERSE */\n      0xaccb18165bd6fe31ae1cf318dc5b51eee0e1ba569b88cd74c1773b91fac10669\n        /* \"atta-movies/TBC_busd.sol\":21732:21733  1 */\n      0x01\n        /* \"atta-movies/TBC_busd.sol\":21718:21729  SCALE_LPOTD */\n      0x040000\n        /* \"atta-movies/TBC_busd.sol\":21704:21715  SCALE_LPOTD */\n      dup1\n        /* \"atta-movies/TBC_busd.sol\":21701:21702  0 */\n      0x00\n        /* \"atta-movies/TBC_busd.sol\":21697:21716  sub(0, SCALE_LPOTD) */\n      sub\n        /* \"atta-movies/TBC_busd.sol\":21693:21730  div(sub(0, SCALE_LPOTD), SCALE_LPOTD) */\n      div\n        /* \"atta-movies/TBC_busd.sol\":21689:21734  add(div(sub(0, SCALE_LPOTD), SCALE_LPOTD), 1) */\n      add\n        /* \"atta-movies/TBC_busd.sol\":21680:21685  prod0 */\n      dup7\n        /* \"atta-movies/TBC_busd.sol\":21669:21678  remainder */\n      dup6\n        /* \"atta-movies/TBC_busd.sol\":21666:21686  gt(remainder, prod0) */\n      gt\n        /* \"atta-movies/TBC_busd.sol\":21659:21664  prod1 */\n      dup7\n        /* \"atta-movies/TBC_busd.sol\":21655:21687  sub(prod1, gt(remainder, prod0)) */\n      sub\n        /* \"atta-movies/TBC_busd.sol\":21651:21735  mul(sub(prod1, gt(remainder, prod0)), add(div(sub(0, SCALE_LPOTD), SCALE_LPOTD), 1)) */\n      mul\n        /* \"atta-movies/TBC_busd.sol\":21612:21623  SCALE_LPOTD */\n      0x040000\n        /* \"atta-movies/TBC_busd.sol\":21600:21609  remainder */\n      dup6\n        /* \"atta-movies/TBC_busd.sol\":21593:21598  prod0 */\n      dup9\n        /* \"atta-movies/TBC_busd.sol\":21589:21610  sub(prod0, remainder) */\n      sub\n        /* \"atta-movies/TBC_busd.sol\":21585:21624  div(sub(prod0, remainder), SCALE_LPOTD) */\n      div\n        /* \"atta-movies/TBC_busd.sol\":21556:21758  or(\r... */\n      or\n        /* \"atta-movies/TBC_busd.sol\":21530:21813  mul(\r... */\n      mul\n        /* \"atta-movies/TBC_busd.sol\":21508:21858  add(\r... */\n      add\n        /* \"atta-movies/TBC_busd.sol\":21498:21858  result := add(\r... */\n      swap5\n      pop\n        /* \"atta-movies/TBC_busd.sol\":21483:21869  {\r... */\n      pop\n      pop\n      pop\n      pop\n        /* \"atta-movies/TBC_busd.sol\":20688:21876  function mulDivFixedPoint(uint256 x, uint256 y) internal pure returns (uint256 result) {\r... */\n    tag_332:\n      swap3\n      swap2\n      pop\n      pop\n      jump\t// out\n        /* \"atta-movies/TBC_busd.sol\":53147:53339  function sub(uint256 a, uint256 b, string memory errorMessage) internal pure returns (uint256) {\r... */\n    tag_297:\n        /* \"atta-movies/TBC_busd.sol\":53233:53240  uint256 */\n      0x00\n        /* \"atta-movies/TBC_busd.sol\":53266:53267  a */\n      dup4\n        /* \"atta-movies/TBC_busd.sol\":53261:53262  b */\n      dup4\n        /* \"atta-movies/TBC_busd.sol\":53261:53267  b <= a */\n      gt\n      iszero\n        /* \"atta-movies/TBC_busd.sol\":53269:53281  errorMessage */\n      dup3\n        /* \"atta-movies/TBC_busd.sol\":53253:53282  require(b <= a, errorMessage) */\n      swap1\n      tag_339\n      jumpi\n      mload(0x40)\n      0x08c379a000000000000000000000000000000000000000000000000000000000\n      dup2\n      mstore\n      0x04\n      add\n      tag_340\n      swap2\n      swap1\n      tag_302\n      jump\t// in\n    tag_340:\n      mload(0x40)\n      dup1\n      swap2\n      sub\n      swap1\n      revert\n    tag_339:\n      pop\n        /* \"atta-movies/TBC_busd.sol\":53293:53302  uint256 c */\n      0x00\n        /* \"atta-movies/TBC_busd.sol\":53309:53310  b */\n      dup4\n        /* \"atta-movies/TBC_busd.sol\":53305:53306  a */\n      dup6\n        /* \"atta-movies/TBC_busd.sol\":53305:53310  a - b */\n      tag_341\n      swap2\n      swap1\n      tag_342\n      jump\t// in\n    tag_341:\n        /* \"atta-movies/TBC_busd.sol\":53293:53310  uint256 c = a - b */\n      swap1\n      pop\n        /* \"atta-movies/TBC_busd.sol\":53330:53331  c */\n      dup1\n        /* \"atta-movies/TBC_busd.sol\":53323:53331  return c */\n      swap2\n      pop\n      pop\n        /* \"atta-movies/TBC_busd.sol\":53147:53339  function sub(uint256 a, uint256 b, string memory errorMessage) internal pure returns (uint256) {\r... */\n      swap4\n      swap3\n      pop\n      pop\n      pop\n      jump\t// out\n        /* \"atta-movies/TBC_busd.sol\":5012:13697  function exp2(uint256 x) internal pure returns (uint256 result) {\r... */\n    tag_310:\n        /* \"atta-movies/TBC_busd.sol\":5060:5074  uint256 result */\n      0x00\n        /* \"atta-movies/TBC_busd.sol\":5190:5240  0x800000000000000000000000000000000000000000000000 */\n      0x800000000000000000000000000000000000000000000000\n        /* \"atta-movies/TBC_busd.sol\":5181:5240  result = 0x800000000000000000000000000000000000000000000000 */\n      swap1\n      pop\n        /* \"atta-movies/TBC_busd.sol\":5509:5510  0 */\n      0x00\n        /* \"atta-movies/TBC_busd.sol\":5488:5506  0x8000000000000000 */\n      0x8000000000000000\n        /* \"atta-movies/TBC_busd.sol\":5484:5485  x */\n      dup4\n        /* \"atta-movies/TBC_busd.sol\":5484:5506  x & 0x8000000000000000 */\n      and\n        /* \"atta-movies/TBC_busd.sol\":5484:5510  x & 0x8000000000000000 > 0 */\n      gt\n        /* \"atta-movies/TBC_busd.sol\":5480:5592  if (x & 0x8000000000000000 > 0) {\r... */\n      iszero\n      tag_344\n      jumpi\n        /* \"atta-movies/TBC_busd.sol\":5574:5576  64 */\n      0x40\n        /* \"atta-movies/TBC_busd.sol\":5550:5569  0x16A09E667F3BCC909 */\n      0x016a09e667f3bcc909\n        /* \"atta-movies/TBC_busd.sol\":5541:5547  result */\n      dup3\n        /* \"atta-movies/TBC_busd.sol\":5541:5569  result * 0x16A09E667F3BCC909 */\n      mul\n        /* \"atta-movies/TBC_busd.sol\":5540:5576  (result * 0x16A09E667F3BCC909) >> 64 */\n      swap1\n      shr\n        /* \"atta-movies/TBC_busd.sol\":5531:5576  result = (result * 0x16A09E667F3BCC909) >> 64 */\n      swap1\n      pop\n        /* \"atta-movies/TBC_busd.sol\":5480:5592  if (x & 0x8000000000000000 > 0) {\r... */\n    tag_344:\n        /* \"atta-movies/TBC_busd.sol\":5635:5636  0 */\n      0x00\n        /* \"atta-movies/TBC_busd.sol\":5614:5632  0x4000000000000000 */\n      0x4000000000000000\n        /* \"atta-movies/TBC_busd.sol\":5610:5611  x */\n      dup4\n        /* \"atta-movies/TBC_busd.sol\":5610:5632  x & 0x4000000000000000 */\n      and\n        /* \"atta-movies/TBC_busd.sol\":5610:5636  x & 0x4000000000000000 > 0 */\n      gt\n        /* \"atta-movies/TBC_busd.sol\":5606:5718  if (x & 0x4000000000000000 > 0) {\r... */\n      iszero\n      tag_345\n      jumpi\n        /* \"atta-movies/TBC_busd.sol\":5700:5702  64 */\n      0x40\n        /* \"atta-movies/TBC_busd.sol\":5676:5695  0x1306FE0A31B7152DF */\n      0x01306fe0a31b7152df\n        /* \"atta-movies/TBC_busd.sol\":5667:5673  result */\n      dup3\n        /* \"atta-movies/TBC_busd.sol\":5667:5695  result * 0x1306FE0A31B7152DF */\n      mul\n        /* \"atta-movies/TBC_busd.sol\":5666:5702  (result * 0x1306FE0A31B7152DF) >> 64 */\n      swap1\n      shr\n        /* \"atta-movies/TBC_busd.sol\":5657:5702  result = (result * 0x1306FE0A31B7152DF) >> 64 */\n      swap1\n      pop\n        /* \"atta-movies/TBC_busd.sol\":5606:5718  if (x & 0x4000000000000000 > 0) {\r... */\n    tag_345:\n        /* \"atta-movies/TBC_busd.sol\":5761:5762  0 */\n      0x00\n        /* \"atta-movies/TBC_busd.sol\":5740:5758  0x2000000000000000 */\n      0x2000000000000000\n        /* \"atta-movies/TBC_busd.sol\":5736:5737  x */\n      dup4\n        /* \"atta-movies/TBC_busd.sol\":5736:5758  x & 0x2000000000000000 */\n      and\n        /* \"atta-movies/TBC_busd.sol\":5736:5762  x & 0x2000000000000000 > 0 */\n      gt\n        /* \"atta-movies/TBC_busd.sol\":5732:5844  if (x & 0x2000000000000000 > 0) {\r... */\n      iszero\n      tag_346\n      jumpi\n        /* \"atta-movies/TBC_busd.sol\":5826:5828  64 */\n      0x40\n        /* \"atta-movies/TBC_busd.sol\":5802:5821  0x1172B83C7D517ADCE */\n      0x01172b83c7d517adce\n        /* \"atta-movies/TBC_busd.sol\":5793:5799  result */\n      dup3\n        /* \"atta-movies/TBC_busd.sol\":5793:5821  result * 0x1172B83C7D517ADCE */\n      mul\n        /* \"atta-movies/TBC_busd.sol\":5792:5828  (result * 0x1172B83C7D517ADCE) >> 64 */\n      swap1\n      shr\n        /* \"atta-movies/TBC_busd.sol\":5783:5828  result = (result * 0x1172B83C7D517ADCE) >> 64 */\n      swap1\n      pop\n        /* \"atta-movies/TBC_busd.sol\":5732:5844  if (x & 0x2000000000000000 > 0) {\r... */\n    tag_346:\n        /* \"atta-movies/TBC_busd.sol\":5887:5888  0 */\n      0x00\n        /* \"atta-movies/TBC_busd.sol\":5866:5884  0x1000000000000000 */\n      0x1000000000000000\n        /* \"atta-movies/TBC_busd.sol\":5862:5863  x */\n      dup4\n        /* \"atta-movies/TBC_busd.sol\":5862:5884  x & 0x1000000000000000 */\n      and\n        /* \"atta-movies/TBC_busd.sol\":5862:5888  x & 0x1000000000000000 > 0 */\n      gt\n        /* \"atta-movies/TBC_busd.sol\":5858:5970  if (x & 0x1000000000000000 > 0) {\r... */\n      iszero\n      tag_347\n      jumpi\n        /* \"atta-movies/TBC_busd.sol\":5952:5954  64 */\n      0x40\n        /* \"atta-movies/TBC_busd.sol\":5928:5947  0x10B5586CF9890F62A */\n      0x010b5586cf9890f62a\n        /* \"atta-movies/TBC_busd.sol\":5919:5925  result */\n      dup3\n        /* \"atta-movies/TBC_busd.sol\":5919:5947  result * 0x10B5586CF9890F62A */\n      mul\n        /* \"atta-movies/TBC_busd.sol\":5918:5954  (result * 0x10B5586CF9890F62A) >> 64 */\n      swap1\n      shr\n        /* \"atta-movies/TBC_busd.sol\":5909:5954  result = (result * 0x10B5586CF9890F62A) >> 64 */\n      swap1\n      pop\n        /* \"atta-movies/TBC_busd.sol\":5858:5970  if (x & 0x1000000000000000 > 0) {\r... */\n    tag_347:\n        /* \"atta-movies/TBC_busd.sol\":6012:6013  0 */\n      0x00\n        /* \"atta-movies/TBC_busd.sol\":5992:6009  0x800000000000000 */\n      0x0800000000000000\n        /* \"atta-movies/TBC_busd.sol\":5988:5989  x */\n      dup4\n        /* \"atta-movies/TBC_busd.sol\":5988:6009  x & 0x800000000000000 */\n      and\n        /* \"atta-movies/TBC_busd.sol\":5988:6013  x & 0x800000000000000 > 0 */\n      gt\n        /* \"atta-movies/TBC_busd.sol\":5984:6095  if (x & 0x800000000000000 > 0) {\r... */\n      iszero\n      tag_348\n      jumpi\n        /* \"atta-movies/TBC_busd.sol\":6077:6079  64 */\n      0x40\n        /* \"atta-movies/TBC_busd.sol\":6053:6072  0x1059B0D31585743AE */\n      0x01059b0d31585743ae\n        /* \"atta-movies/TBC_busd.sol\":6044:6050  result */\n      dup3\n        /* \"atta-movies/TBC_busd.sol\":6044:6072  result * 0x1059B0D31585743AE */\n      mul\n        /* \"atta-movies/TBC_busd.sol\":6043:6079  (result * 0x1059B0D31585743AE) >> 64 */\n      swap1\n      shr\n        /* \"atta-movies/TBC_busd.sol\":6034:6079  result = (result * 0x1059B0D31585743AE) >> 64 */\n      swap1\n      pop\n        /* \"atta-movies/TBC_busd.sol\":5984:6095  if (x & 0x800000000000000 > 0) {\r... */\n    tag_348:\n        /* \"atta-movies/TBC_busd.sol\":6137:6138  0 */\n      0x00\n        /* \"atta-movies/TBC_busd.sol\":6117:6134  0x400000000000000 */\n      0x0400000000000000\n        /* \"atta-movies/TBC_busd.sol\":6113:6114  x */\n      dup4\n        /* \"atta-movies/TBC_busd.sol\":6113:6134  x & 0x400000000000000 */\n      and\n        /* \"atta-movies/TBC_busd.sol\":6113:6138  x & 0x400000000000000 > 0 */\n      gt\n        /* \"atta-movies/TBC_busd.sol\":6109:6220  if (x & 0x400000000000000 > 0) {\r... */\n      iszero\n      tag_349\n      jumpi\n        /* \"atta-movies/TBC_busd.sol\":6202:6204  64 */\n      0x40\n        /* \"atta-movies/TBC_busd.sol\":6178:6197  0x102C9A3E778060EE7 */\n      0x0102c9a3e778060ee7\n        /* \"atta-movies/TBC_busd.sol\":6169:6175  result */\n      dup3\n        /* \"atta-movies/TBC_busd.sol\":6169:6197  result * 0x102C9A3E778060EE7 */\n      mul\n        /* \"atta-movies/TBC_busd.sol\":6168:6204  (result * 0x102C9A3E778060EE7) >> 64 */\n      swap1\n      shr\n        /* \"atta-movies/TBC_busd.sol\":6159:6204  result = (result * 0x102C9A3E778060EE7) >> 64 */\n      swap1\n      pop\n        /* \"atta-movies/TBC_busd.sol\":6109:6220  if (x & 0x400000000000000 > 0) {\r... */\n    tag_349:\n        /* \"atta-movies/TBC_busd.sol\":6262:6263  0 */\n      0x00\n        /* \"atta-movies/TBC_busd.sol\":6242:6259  0x200000000000000 */\n      0x0200000000000000\n        /* \"atta-movies/TBC_busd.sol\":6238:6239  x */\n      dup4\n        /* \"atta-movies/TBC_busd.sol\":6238:6259  x & 0x200000000000000 */\n      and\n        /* \"atta-movies/TBC_busd.sol\":6238:6263  x & 0x200000000000000 > 0 */\n      gt\n        /* \"atta-movies/TBC_busd.sol\":6234:6345  if (x & 0x200000000000000 > 0) {\r... */\n      iszero\n      tag_350\n      jumpi\n        /* \"atta-movies/TBC_busd.sol\":6327:6329  64 */\n      0x40\n        /* \"atta-movies/TBC_busd.sol\":6303:6322  0x10163DA9FB33356D8 */\n      0x010163da9fb33356d8\n        /* \"atta-movies/TBC_busd.sol\":6294:6300  result */\n      dup3\n        /* \"atta-movies/TBC_busd.sol\":6294:6322  result * 0x10163DA9FB33356D8 */\n      mul\n        /* \"atta-movies/TBC_busd.sol\":6293:6329  (result * 0x10163DA9FB33356D8) >> 64 */\n      swap1\n      shr\n        /* \"atta-movies/TBC_busd.sol\":6284:6329  result = (result * 0x10163DA9FB33356D8) >> 64 */\n      swap1\n      pop\n        /* \"atta-movies/TBC_busd.sol\":6234:6345  if (x & 0x200000000000000 > 0) {\r... */\n    tag_350:\n        /* \"atta-movies/TBC_busd.sol\":6387:6388  0 */\n      0x00\n        /* \"atta-movies/TBC_busd.sol\":6367:6384  0x100000000000000 */\n      0x0100000000000000\n        /* \"atta-movies/TBC_busd.sol\":6363:6364  x */\n      dup4\n        /* \"atta-movies/TBC_busd.sol\":6363:6384  x & 0x100000000000000 */\n      and\n        /* \"atta-movies/TBC_busd.sol\":6363:6388  x & 0x100000000000000 > 0 */\n      gt\n        /* \"atta-movies/TBC_busd.sol\":6359:6470  if (x & 0x100000000000000 > 0) {\r... */\n      iszero\n      tag_351\n      jumpi\n        /* \"atta-movies/TBC_busd.sol\":6452:6454  64 */\n      0x40\n        /* \"atta-movies/TBC_busd.sol\":6428:6447  0x100B1AFA5ABCBED61 */\n      0x0100b1afa5abcbed61\n        /* \"atta-movies/TBC_busd.sol\":6419:6425  result */\n      dup3\n        /* \"atta-movies/TBC_busd.sol\":6419:6447  result * 0x100B1AFA5ABCBED61 */\n      mul\n        /* \"atta-movies/TBC_busd.sol\":6418:6454  (result * 0x100B1AFA5ABCBED61) >> 64 */\n      swap1\n      shr\n        /* \"atta-movies/TBC_busd.sol\":6409:6454  result = (result * 0x100B1AFA5ABCBED61) >> 64 */\n      swap1\n      pop\n        /* \"atta-movies/TBC_busd.sol\":6359:6470  if (x & 0x100000000000000 > 0) {\r... */\n    tag_351:\n        /* \"atta-movies/TBC_busd.sol\":6511:6512  0 */\n      0x00\n        /* \"atta-movies/TBC_busd.sol\":6492:6508  0x80000000000000 */\n      0x80000000000000\n        /* \"atta-movies/TBC_busd.sol\":6488:6489  x */\n      dup4\n        /* \"atta-movies/TBC_busd.sol\":6488:6508  x & 0x80000000000000 */\n      and\n        /* \"atta-movies/TBC_busd.sol\":6488:6512  x & 0x80000000000000 > 0 */\n      gt\n        /* \"atta-movies/TBC_busd.sol\":6484:6594  if (x & 0x80000000000000 > 0) {\r... */\n      iszero\n      tag_352\n      jumpi\n        /* \"atta-movies/TBC_busd.sol\":6576:6578  64 */\n      0x40\n        /* \"atta-movies/TBC_busd.sol\":6552:6571  0x10058C86DA1C09EA2 */\n      0x010058c86da1c09ea2\n        /* \"atta-movies/TBC_busd.sol\":6543:6549  result */\n      dup3\n        /* \"atta-movies/TBC_busd.sol\":6543:6571  result * 0x10058C86DA1C09EA2 */\n      mul\n        /* \"atta-movies/TBC_busd.sol\":6542:6578  (result * 0x10058C86DA1C09EA2) >> 64 */\n      swap1\n      shr\n        /* \"atta-movies/TBC_busd.sol\":6533:6578  result = (result * 0x10058C86DA1C09EA2) >> 64 */\n      swap1\n      pop\n        /* \"atta-movies/TBC_busd.sol\":6484:6594  if (x & 0x80000000000000 > 0) {\r... */\n    tag_352:\n        /* \"atta-movies/TBC_busd.sol\":6635:6636  0 */\n      0x00\n        /* \"atta-movies/TBC_busd.sol\":6616:6632  0x40000000000000 */\n      0x40000000000000\n        /* \"atta-movies/TBC_busd.sol\":6612:6613  x */\n      dup4\n        /* \"atta-movies/TBC_busd.sol\":6612:6632  x & 0x40000000000000 */\n      and\n        /* \"atta-movies/TBC_busd.sol\":6612:6636  x & 0x40000000000000 > 0 */\n      gt\n        /* \"atta-movies/TBC_busd.sol\":6608:6718  if (x & 0x40000000000000 > 0) {\r... */\n      iszero\n      tag_353\n      jumpi\n        /* \"atta-movies/TBC_busd.sol\":6700:6702  64 */\n      0x40\n        /* \"atta-movies/TBC_busd.sol\":6676:6695  0x1002C605E2E8CEC50 */\n      0x01002c605e2e8cec50\n        /* \"atta-movies/TBC_busd.sol\":6667:6673  result */\n      dup3\n        /* \"atta-movies/TBC_busd.sol\":6667:6695  result * 0x1002C605E2E8CEC50 */\n      mul\n        /* \"atta-movies/TBC_busd.sol\":6666:6702  (result * 0x1002C605E2E8CEC50) >> 64 */\n      swap1\n      shr\n        /* \"atta-movies/TBC_busd.sol\":6657:6702  result = (result * 0x1002C605E2E8CEC50) >> 64 */\n      swap1\n      pop\n        /* \"atta-movies/TBC_busd.sol\":6608:6718  if (x & 0x40000000000000 > 0) {\r... */\n    tag_353:\n        /* \"atta-movies/TBC_busd.sol\":6759:6760  0 */\n      0x00\n        /* \"atta-movies/TBC_busd.sol\":6740:6756  0x20000000000000 */\n      0x20000000000000\n        /* \"atta-movies/TBC_busd.sol\":6736:6737  x */\n      dup4\n        /* \"atta-movies/TBC_busd.sol\":6736:6756  x & 0x20000000000000 */\n      and\n        /* \"atta-movies/TBC_busd.sol\":6736:6760  x & 0x20000000000000 > 0 */\n      gt\n        /* \"atta-movies/TBC_busd.sol\":6732:6842  if (x & 0x20000000000000 > 0) {\r... */\n      iszero\n      tag_354\n      jumpi\n        /* \"atta-movies/TBC_busd.sol\":6824:6826  64 */\n      0x40\n        /* \"atta-movies/TBC_busd.sol\":6800:6819  0x100162F3904051FA1 */\n      0x0100162f3904051fa1\n        /* \"atta-movies/TBC_busd.sol\":6791:6797  result */\n      dup3\n        /* \"atta-movies/TBC_busd.sol\":6791:6819  result * 0x100162F3904051FA1 */\n      mul\n        /* \"atta-movies/TBC_busd.sol\":6790:6826  (result * 0x100162F3904051FA1) >> 64 */\n      swap1\n      shr\n        /* \"atta-movies/TBC_busd.sol\":6781:6826  result = (result * 0x100162F3904051FA1) >> 64 */\n      swap1\n      pop\n        /* \"atta-movies/TBC_busd.sol\":6732:6842  if (x & 0x20000000000000 > 0) {\r... */\n    tag_354:\n        /* \"atta-movies/TBC_busd.sol\":6883:6884  0 */\n      0x00\n        /* \"atta-movies/TBC_busd.sol\":6864:6880  0x10000000000000 */\n      0x10000000000000\n        /* \"atta-movies/TBC_busd.sol\":6860:6861  x */\n      dup4\n        /* \"atta-movies/TBC_busd.sol\":6860:6880  x & 0x10000000000000 */\n      and\n        /* \"atta-movies/TBC_busd.sol\":6860:6884  x & 0x10000000000000 > 0 */\n      gt\n        /* \"atta-movies/TBC_busd.sol\":6856:6966  if (x & 0x10000000000000 > 0) {\r... */\n      iszero\n      tag_355\n      jumpi\n        /* \"atta-movies/TBC_busd.sol\":6948:6950  64 */\n      0x40\n        /* \"atta-movies/TBC_busd.sol\":6924:6943  0x1000B175EFFDC76BA */\n      0x01000b175effdc76ba\n        /* \"atta-movies/TBC_busd.sol\":6915:6921  result */\n      dup3\n        /* \"atta-movies/TBC_busd.sol\":6915:6943  result * 0x1000B175EFFDC76BA */\n      mul\n        /* \"atta-movies/TBC_busd.sol\":6914:6950  (result * 0x1000B175EFFDC76BA) >> 64 */\n      swap1\n      shr\n        /* \"atta-movies/TBC_busd.sol\":6905:6950  result = (result * 0x1000B175EFFDC76BA) >> 64 */\n      swap1\n      pop\n        /* \"atta-movies/TBC_busd.sol\":6856:6966  if (x & 0x10000000000000 > 0) {\r... */\n    tag_355:\n        /* \"atta-movies/TBC_busd.sol\":7006:7007  0 */\n      0x00\n        /* \"atta-movies/TBC_busd.sol\":6988:7003  0x8000000000000 */\n      0x08000000000000\n        /* \"atta-movies/TBC_busd.sol\":6984:6985  x */\n      dup4\n        /* \"atta-movies/TBC_busd.sol\":6984:7003  x & 0x8000000000000 */\n      and\n        /* \"atta-movies/TBC_busd.sol\":6984:7007  x & 0x8000000000000 > 0 */\n      gt\n        /* \"atta-movies/TBC_busd.sol\":6980:7089  if (x & 0x8000000000000 > 0) {\r... */\n      iszero\n      tag_356\n      jumpi\n        /* \"atta-movies/TBC_busd.sol\":7071:7073  64 */\n      0x40\n        /* \"atta-movies/TBC_busd.sol\":7047:7066  0x100058BA01FB9F96D */\n      0x0100058ba01fb9f96d\n        /* \"atta-movies/TBC_busd.sol\":7038:7044  result */\n      dup3\n        /* \"atta-movies/TBC_busd.sol\":7038:7066  result * 0x100058BA01FB9F96D */\n      mul\n        /* \"atta-movies/TBC_busd.sol\":7037:7073  (result * 0x100058BA01FB9F96D) >> 64 */\n      swap1\n      shr\n        /* \"atta-movies/TBC_busd.sol\":7028:7073  result = (result * 0x100058BA01FB9F96D) >> 64 */\n      swap1\n      pop\n        /* \"atta-movies/TBC_busd.sol\":6980:7089  if (x & 0x8000000000000 > 0) {\r... */\n    tag_356:\n        /* \"atta-movies/TBC_busd.sol\":7129:7130  0 */\n      0x00\n        /* \"atta-movies/TBC_busd.sol\":7111:7126  0x4000000000000 */\n      0x04000000000000\n        /* \"atta-movies/TBC_busd.sol\":7107:7108  x */\n      dup4\n        /* \"atta-movies/TBC_busd.sol\":7107:7126  x & 0x4000000000000 */\n      and\n        /* \"atta-movies/TBC_busd.sol\":7107:7130  x & 0x4000000000000 > 0 */\n      gt\n        /* \"atta-movies/TBC_busd.sol\":7103:7212  if (x & 0x4000000000000 > 0) {\r... */\n      iszero\n      tag_357\n      jumpi\n        /* \"atta-movies/TBC_busd.sol\":7194:7196  64 */\n      0x40\n        /* \"atta-movies/TBC_busd.sol\":7170:7189  0x10002C5CC37DA9492 */\n      0x010002c5cc37da9492\n        /* \"atta-movies/TBC_busd.sol\":7161:7167  result */\n      dup3\n        /* \"atta-movies/TBC_busd.sol\":7161:7189  result * 0x10002C5CC37DA9492 */\n      mul\n        /* \"atta-movies/TBC_busd.sol\":7160:7196  (result * 0x10002C5CC37DA9492) >> 64 */\n      swap1\n      shr\n        /* \"atta-movies/TBC_busd.sol\":7151:7196  result = (result * 0x10002C5CC37DA9492) >> 64 */\n      swap1\n      pop\n        /* \"atta-movies/TBC_busd.sol\":7103:7212  if (x & 0x4000000000000 > 0) {\r... */\n    tag_357:\n        /* \"atta-movies/TBC_busd.sol\":7252:7253  0 */\n      0x00\n        /* \"atta-movies/TBC_busd.sol\":7234:7249  0x2000000000000 */\n      0x02000000000000\n        /* \"atta-movies/TBC_busd.sol\":7230:7231  x */\n      dup4\n        /* \"atta-movies/TBC_busd.sol\":7230:7249  x & 0x2000000000000 */\n      and\n        /* \"atta-movies/TBC_busd.sol\":7230:7253  x & 0x2000000000000 > 0 */\n      gt\n        /* \"atta-movies/TBC_busd.sol\":7226:7335  if (x & 0x2000000000000 > 0) {\r... */\n      iszero\n      tag_358\n      jumpi\n        /* \"atta-movies/TBC_busd.sol\":7317:7319  64 */\n      0x40\n        /* \"atta-movies/TBC_busd.sol\":7293:7312  0x1000162E525EE0547 */\n      0x01000162e525ee0547\n        /* \"atta-movies/TBC_busd.sol\":7284:7290  result */\n      dup3\n        /* \"atta-movies/TBC_busd.sol\":7284:7312  result * 0x1000162E525EE0547 */\n      mul\n        /* \"atta-movies/TBC_busd.sol\":7283:7319  (result * 0x1000162E525EE0547) >> 64 */\n      swap1\n      shr\n        /* \"atta-movies/TBC_busd.sol\":7274:7319  result = (result * 0x1000162E525EE0547) >> 64 */\n      swap1\n      pop\n        /* \"atta-movies/TBC_busd.sol\":7226:7335  if (x & 0x2000000000000 > 0) {\r... */\n    tag_358:\n        /* \"atta-movies/TBC_busd.sol\":7375:7376  0 */\n      0x00\n        /* \"atta-movies/TBC_busd.sol\":7357:7372  0x1000000000000 */\n      0x01000000000000\n        /* \"atta-movies/TBC_busd.sol\":7353:7354  x */\n      dup4\n        /* \"atta-movies/TBC_busd.sol\":7353:7372  x & 0x1000000000000 */\n      and\n        /* \"atta-movies/TBC_busd.sol\":7353:7376  x & 0x1000000000000 > 0 */\n      gt\n        /* \"atta-movies/TBC_busd.sol\":7349:7458  if (x & 0x1000000000000 > 0) {\r... */\n      iszero\n      tag_359\n      jumpi\n        /* \"atta-movies/TBC_busd.sol\":7440:7442  64 */\n      0x40\n        /* \"atta-movies/TBC_busd.sol\":7416:7435  0x10000B17255775C04 */\n      0x010000b17255775c04\n        /* \"atta-movies/TBC_busd.sol\":7407:7413  result */\n      dup3\n        /* \"atta-movies/TBC_busd.sol\":7407:7435  result * 0x10000B17255775C04 */\n      mul\n        /* \"atta-movies/TBC_busd.sol\":7406:7442  (result * 0x10000B17255775C04) >> 64 */\n      swap1\n      shr\n        /* \"atta-movies/TBC_busd.sol\":7397:7442  result = (result * 0x10000B17255775C04) >> 64 */\n      swap1\n      pop\n        /* \"atta-movies/TBC_busd.sol\":7349:7458  if (x & 0x1000000000000 > 0) {\r... */\n    tag_359:\n        /* \"atta-movies/TBC_busd.sol\":7497:7498  0 */\n      0x00\n        /* \"atta-movies/TBC_busd.sol\":7480:7494  0x800000000000 */\n      0x800000000000\n        /* \"atta-movies/TBC_busd.sol\":7476:7477  x */\n      dup4\n        /* \"atta-movies/TBC_busd.sol\":7476:7494  x & 0x800000000000 */\n      and\n        /* \"atta-movies/TBC_busd.sol\":7476:7498  x & 0x800000000000 > 0 */\n      gt\n        /* \"atta-movies/TBC_busd.sol\":7472:7580  if (x & 0x800000000000 > 0) {\r... */\n      iszero\n      tag_360\n      jumpi\n        /* \"atta-movies/TBC_busd.sol\":7562:7564  64 */\n      0x40\n        /* \"atta-movies/TBC_busd.sol\":7538:7557  0x1000058B91B5BC9AE */\n      0x01000058b91b5bc9ae\n        /* \"atta-movies/TBC_busd.sol\":7529:7535  result */\n      dup3\n        /* \"atta-movies/TBC_busd.sol\":7529:7557  result * 0x1000058B91B5BC9AE */\n      mul\n        /* \"atta-movies/TBC_busd.sol\":7528:7564  (result * 0x1000058B91B5BC9AE) >> 64 */\n      swap1\n      shr\n        /* \"atta-movies/TBC_busd.sol\":7519:7564  result = (result * 0x1000058B91B5BC9AE) >> 64 */\n      swap1\n      pop\n        /* \"atta-movies/TBC_busd.sol\":7472:7580  if (x & 0x800000000000 > 0) {\r... */\n    tag_360:\n        /* \"atta-movies/TBC_busd.sol\":7619:7620  0 */\n      0x00\n        /* \"atta-movies/TBC_busd.sol\":7602:7616  0x400000000000 */\n      0x400000000000\n        /* \"atta-movies/TBC_busd.sol\":7598:7599  x */\n      dup4\n        /* \"atta-movies/TBC_busd.sol\":7598:7616  x & 0x400000000000 */\n      and\n        /* \"atta-movies/TBC_busd.sol\":7598:7620  x & 0x400000000000 > 0 */\n      gt\n        /* \"atta-movies/TBC_busd.sol\":7594:7702  if (x & 0x400000000000 > 0) {\r... */\n      iszero\n      tag_361\n      jumpi\n        /* \"atta-movies/TBC_busd.sol\":7684:7686  64 */\n      0x40\n        /* \"atta-movies/TBC_busd.sol\":7660:7679  0x100002C5C89D5EC6D */\n      0x0100002c5c89d5ec6d\n        /* \"atta-movies/TBC_busd.sol\":7651:7657  result */\n      dup3\n        /* \"atta-movies/TBC_busd.sol\":7651:7679  result * 0x100002C5C89D5EC6D */\n      mul\n        /* \"atta-movies/TBC_busd.sol\":7650:7686  (result * 0x100002C5C89D5EC6D) >> 64 */\n      swap1\n      shr\n        /* \"atta-movies/TBC_busd.sol\":7641:7686  result = (result * 0x100002C5C89D5EC6D) >> 64 */\n      swap1\n      pop\n        /* \"atta-movies/TBC_busd.sol\":7594:7702  if (x & 0x400000000000 > 0) {\r... */\n    tag_361:\n        /* \"atta-movies/TBC_busd.sol\":7741:7742  0 */\n      0x00\n        /* \"atta-movies/TBC_busd.sol\":7724:7738  0x200000000000 */\n      0x200000000000\n        /* \"atta-movies/TBC_busd.sol\":7720:7721  x */\n      dup4\n        /* \"atta-movies/TBC_busd.sol\":7720:7738  x & 0x200000000000 */\n      and\n        /* \"atta-movies/TBC_busd.sol\":7720:7742  x & 0x200000000000 > 0 */\n      gt\n        /* \"atta-movies/TBC_busd.sol\":7716:7824  if (x & 0x200000000000 > 0) {\r... */\n      iszero\n      tag_362\n      jumpi\n        /* \"atta-movies/TBC_busd.sol\":7806:7808  64 */\n      0x40\n        /* \"atta-movies/TBC_busd.sol\":7782:7801  0x10000162E43F4F831 */\n      0x010000162e43f4f831\n        /* \"atta-movies/TBC_busd.sol\":7773:7779  result */\n      dup3\n        /* \"atta-movies/TBC_busd.sol\":7773:7801  result * 0x10000162E43F4F831 */\n      mul\n        /* \"atta-movies/TBC_busd.sol\":7772:7808  (result * 0x10000162E43F4F831) >> 64 */\n      swap1\n      shr\n        /* \"atta-movies/TBC_busd.sol\":7763:7808  result = (result * 0x10000162E43F4F831) >> 64 */\n      swap1\n      pop\n        /* \"atta-movies/TBC_busd.sol\":7716:7824  if (x & 0x200000000000 > 0) {\r... */\n    tag_362:\n        /* \"atta-movies/TBC_busd.sol\":7863:7864  0 */\n      0x00\n        /* \"atta-movies/TBC_busd.sol\":7846:7860  0x100000000000 */\n      0x100000000000\n        /* \"atta-movies/TBC_busd.sol\":7842:7843  x */\n      dup4\n        /* \"atta-movies/TBC_busd.sol\":7842:7860  x & 0x100000000000 */\n      and\n        /* \"atta-movies/TBC_busd.sol\":7842:7864  x & 0x100000000000 > 0 */\n      gt\n        /* \"atta-movies/TBC_busd.sol\":7838:7946  if (x & 0x100000000000 > 0) {\r... */\n      iszero\n      tag_363\n      jumpi\n        /* \"atta-movies/TBC_busd.sol\":7928:7930  64 */\n      0x40\n        /* \"atta-movies/TBC_busd.sol\":7904:7923  0x100000B1721BCFC9A */\n      0x0100000b1721bcfc9a\n        /* \"atta-movies/TBC_busd.sol\":7895:7901  result */\n      dup3\n        /* \"atta-movies/TBC_busd.sol\":7895:7923  result * 0x100000B1721BCFC9A */\n      mul\n        /* \"atta-movies/TBC_busd.sol\":7894:7930  (result * 0x100000B1721BCFC9A) >> 64 */\n      swap1\n      shr\n        /* \"atta-movies/TBC_busd.sol\":7885:7930  result = (result * 0x100000B1721BCFC9A) >> 64 */\n      swap1\n      pop\n        /* \"atta-movies/TBC_busd.sol\":7838:7946  if (x & 0x100000000000 > 0) {\r... */\n    tag_363:\n        /* \"atta-movies/TBC_busd.sol\":7984:7985  0 */\n      0x00\n        /* \"atta-movies/TBC_busd.sol\":7968:7981  0x80000000000 */\n      0x080000000000\n        /* \"atta-movies/TBC_busd.sol\":7964:7965  x */\n      dup4\n        /* \"atta-movies/TBC_busd.sol\":7964:7981  x & 0x80000000000 */\n      and\n        /* \"atta-movies/TBC_busd.sol\":7964:7985  x & 0x80000000000 > 0 */\n      gt\n        /* \"atta-movies/TBC_busd.sol\":7960:8067  if (x & 0x80000000000 > 0) {\r... */\n      iszero\n      tag_364\n      jumpi\n        /* \"atta-movies/TBC_busd.sol\":8049:8051  64 */\n      0x40\n        /* \"atta-movies/TBC_busd.sol\":8025:8044  0x10000058B90CF1E6E */\n      0x010000058b90cf1e6e\n        /* \"atta-movies/TBC_busd.sol\":8016:8022  result */\n      dup3\n        /* \"atta-movies/TBC_busd.sol\":8016:8044  result * 0x10000058B90CF1E6E */\n      mul\n        /* \"atta-movies/TBC_busd.sol\":8015:8051  (result * 0x10000058B90CF1E6E) >> 64 */\n      swap1\n      shr\n        /* \"atta-movies/TBC_busd.sol\":8006:8051  result = (result * 0x10000058B90CF1E6E) >> 64 */\n      swap1\n      pop\n        /* \"atta-movies/TBC_busd.sol\":7960:8067  if (x & 0x80000000000 > 0) {\r... */\n    tag_364:\n        /* \"atta-movies/TBC_busd.sol\":8105:8106  0 */\n      0x00\n        /* \"atta-movies/TBC_busd.sol\":8089:8102  0x40000000000 */\n      0x040000000000\n        /* \"atta-movies/TBC_busd.sol\":8085:8086  x */\n      dup4\n        /* \"atta-movies/TBC_busd.sol\":8085:8102  x & 0x40000000000 */\n      and\n        /* \"atta-movies/TBC_busd.sol\":8085:8106  x & 0x40000000000 > 0 */\n      gt\n        /* \"atta-movies/TBC_busd.sol\":8081:8188  if (x & 0x40000000000 > 0) {\r... */\n      iszero\n      tag_365\n      jumpi\n        /* \"atta-movies/TBC_busd.sol\":8170:8172  64 */\n      0x40\n        /* \"atta-movies/TBC_busd.sol\":8146:8165  0x1000002C5C863B73F */\n      0x01000002c5c863b73f\n        /* \"atta-movies/TBC_busd.sol\":8137:8143  result */\n      dup3\n        /* \"atta-movies/TBC_busd.sol\":8137:8165  result * 0x1000002C5C863B73F */\n      mul\n        /* \"atta-movies/TBC_busd.sol\":8136:8172  (result * 0x1000002C5C863B73F) >> 64 */\n      swap1\n      shr\n        /* \"atta-movies/TBC_busd.sol\":8127:8172  result = (result * 0x1000002C5C863B73F) >> 64 */\n      swap1\n      pop\n        /* \"atta-movies/TBC_busd.sol\":8081:8188  if (x & 0x40000000000 > 0) {\r... */\n    tag_365:\n        /* \"atta-movies/TBC_busd.sol\":8226:8227  0 */\n      0x00\n        /* \"atta-movies/TBC_busd.sol\":8210:8223  0x20000000000 */\n      0x020000000000\n        /* \"atta-movies/TBC_busd.sol\":8206:8207  x */\n      dup4\n        /* \"atta-movies/TBC_busd.sol\":8206:8223  x & 0x20000000000 */\n      and\n        /* \"atta-movies/TBC_busd.sol\":8206:8227  x & 0x20000000000 > 0 */\n      gt\n        /* \"atta-movies/TBC_busd.sol\":8202:8309  if (x & 0x20000000000 > 0) {\r... */\n      iszero\n      tag_366\n      jumpi\n        /* \"atta-movies/TBC_busd.sol\":8291:8293  64 */\n      0x40\n        /* \"atta-movies/TBC_busd.sol\":8267:8286  0x100000162E430E5A2 */\n      0x0100000162e430e5a2\n        /* \"atta-movies/TBC_busd.sol\":8258:8264  result */\n      dup3\n        /* \"atta-movies/TBC_busd.sol\":8258:8286  result * 0x100000162E430E5A2 */\n      mul\n        /* \"atta-movies/TBC_busd.sol\":8257:8293  (result * 0x100000162E430E5A2) >> 64 */\n      swap1\n      shr\n        /* \"atta-movies/TBC_busd.sol\":8248:8293  result = (result * 0x100000162E430E5A2) >> 64 */\n      swap1\n      pop\n        /* \"atta-movies/TBC_busd.sol\":8202:8309  if (x & 0x20000000000 > 0) {\r... */\n    tag_366:\n        /* \"atta-movies/TBC_busd.sol\":8347:8348  0 */\n      0x00\n        /* \"atta-movies/TBC_busd.sol\":8331:8344  0x10000000000 */\n      0x010000000000\n        /* \"atta-movies/TBC_busd.sol\":8327:8328  x */\n      dup4\n        /* \"atta-movies/TBC_busd.sol\":8327:8344  x & 0x10000000000 */\n      and\n        /* \"atta-movies/TBC_busd.sol\":8327:8348  x & 0x10000000000 > 0 */\n      gt\n        /* \"atta-movies/TBC_busd.sol\":8323:8430  if (x & 0x10000000000 > 0) {\r... */\n      iszero\n      tag_367\n      jumpi\n        /* \"atta-movies/TBC_busd.sol\":8412:8414  64 */\n      0x40\n        /* \"atta-movies/TBC_busd.sol\":8388:8407  0x1000000B172183551 */\n      0x01000000b172183551\n        /* \"atta-movies/TBC_busd.sol\":8379:8385  result */\n      dup3\n        /* \"atta-movies/TBC_busd.sol\":8379:8407  result * 0x1000000B172183551 */\n      mul\n        /* \"atta-movies/TBC_busd.sol\":8378:8414  (result * 0x1000000B172183551) >> 64 */\n      swap1\n      shr\n        /* \"atta-movies/TBC_busd.sol\":8369:8414  result = (result * 0x1000000B172183551) >> 64 */\n      swap1\n      pop\n        /* \"atta-movies/TBC_busd.sol\":8323:8430  if (x & 0x10000000000 > 0) {\r... */\n    tag_367:\n        /* \"atta-movies/TBC_busd.sol\":8467:8468  0 */\n      0x00\n        /* \"atta-movies/TBC_busd.sol\":8452:8464  0x8000000000 */\n      0x8000000000\n        /* \"atta-movies/TBC_busd.sol\":8448:8449  x */\n      dup4\n        /* \"atta-movies/TBC_busd.sol\":8448:8464  x & 0x8000000000 */\n      and\n        /* \"atta-movies/TBC_busd.sol\":8448:8468  x & 0x8000000000 > 0 */\n      gt\n        /* \"atta-movies/TBC_busd.sol\":8444:8550  if (x & 0x8000000000 > 0) {\r... */\n      iszero\n      tag_368\n      jumpi\n        /* \"atta-movies/TBC_busd.sol\":8532:8534  64 */\n      0x40\n        /* \"atta-movies/TBC_busd.sol\":8508:8527  0x100000058B90C0B49 */\n      0x0100000058b90c0b49\n        /* \"atta-movies/TBC_busd.sol\":8499:8505  result */\n      dup3\n        /* \"atta-movies/TBC_busd.sol\":8499:8527  result * 0x100000058B90C0B49 */\n      mul\n        /* \"atta-movies/TBC_busd.sol\":8498:8534  (result * 0x100000058B90C0B49) >> 64 */\n      swap1\n      shr\n        /* \"atta-movies/TBC_busd.sol\":8489:8534  result = (result * 0x100000058B90C0B49) >> 64 */\n      swap1\n      pop\n        /* \"atta-movies/TBC_busd.sol\":8444:8550  if (x & 0x8000000000 > 0) {\r... */\n    tag_368:\n        /* \"atta-movies/TBC_busd.sol\":8587:8588  0 */\n      0x00\n        /* \"atta-movies/TBC_busd.sol\":8572:8584  0x4000000000 */\n      0x4000000000\n        /* \"atta-movies/TBC_busd.sol\":8568:8569  x */\n      dup4\n        /* \"atta-movies/TBC_busd.sol\":8568:8584  x & 0x4000000000 */\n      and\n        /* \"atta-movies/TBC_busd.sol\":8568:8588  x & 0x4000000000 > 0 */\n      gt\n        /* \"atta-movies/TBC_busd.sol\":8564:8670  if (x & 0x4000000000 > 0) {\r... */\n      iszero\n      tag_369\n      jumpi\n        /* \"atta-movies/TBC_busd.sol\":8652:8654  64 */\n      0x40\n        /* \"atta-movies/TBC_busd.sol\":8628:8647  0x10000002C5C8601CC */\n      0x010000002c5c8601cc\n        /* \"atta-movies/TBC_busd.sol\":8619:8625  result */\n      dup3\n        /* \"atta-movies/TBC_busd.sol\":8619:8647  result * 0x10000002C5C8601CC */\n      mul\n        /* \"atta-movies/TBC_busd.sol\":8618:8654  (result * 0x10000002C5C8601CC) >> 64 */\n      swap1\n      shr\n        /* \"atta-movies/TBC_busd.sol\":8609:8654  result = (result * 0x10000002C5C8601CC) >> 64 */\n      swap1\n      pop\n        /* \"atta-movies/TBC_busd.sol\":8564:8670  if (x & 0x4000000000 > 0) {\r... */\n    tag_369:\n        /* \"atta-movies/TBC_busd.sol\":8707:8708  0 */\n      0x00\n        /* \"atta-movies/TBC_busd.sol\":8692:8704  0x2000000000 */\n      0x2000000000\n        /* \"atta-movies/TBC_busd.sol\":8688:8689  x */\n      dup4\n        /* \"atta-movies/TBC_busd.sol\":8688:8704  x & 0x2000000000 */\n      and\n        /* \"atta-movies/TBC_busd.sol\":8688:8708  x & 0x2000000000 > 0 */\n      gt\n        /* \"atta-movies/TBC_busd.sol\":8684:8790  if (x & 0x2000000000 > 0) {\r... */\n      iszero\n      tag_370\n      jumpi\n        /* \"atta-movies/TBC_busd.sol\":8772:8774  64 */\n      0x40\n        /* \"atta-movies/TBC_busd.sol\":8748:8767  0x1000000162E42FFF0 */\n      0x01000000162e42fff0\n        /* \"atta-movies/TBC_busd.sol\":8739:8745  result */\n      dup3\n        /* \"atta-movies/TBC_busd.sol\":8739:8767  result * 0x1000000162E42FFF0 */\n      mul\n        /* \"atta-movies/TBC_busd.sol\":8738:8774  (result * 0x1000000162E42FFF0) >> 64 */\n      swap1\n      shr\n        /* \"atta-movies/TBC_busd.sol\":8729:8774  result = (result * 0x1000000162E42FFF0) >> 64 */\n      swap1\n      pop\n        /* \"atta-movies/TBC_busd.sol\":8684:8790  if (x & 0x2000000000 > 0) {\r... */\n    tag_370:\n        /* \"atta-movies/TBC_busd.sol\":8827:8828  0 */\n      0x00\n        /* \"atta-movies/TBC_busd.sol\":8812:8824  0x1000000000 */\n      0x1000000000\n        /* \"atta-movies/TBC_busd.sol\":8808:8809  x */\n      dup4\n        /* \"atta-movies/TBC_busd.sol\":8808:8824  x & 0x1000000000 */\n      and\n        /* \"atta-movies/TBC_busd.sol\":8808:8828  x & 0x1000000000 > 0 */\n      gt\n        /* \"atta-movies/TBC_busd.sol\":8804:8910  if (x & 0x1000000000 > 0) {\r... */\n      iszero\n      tag_371\n      jumpi\n        /* \"atta-movies/TBC_busd.sol\":8892:8894  64 */\n      0x40\n        /* \"atta-movies/TBC_busd.sol\":8868:8887  0x10000000B17217FBB */\n      0x010000000b17217fbb\n        /* \"atta-movies/TBC_busd.sol\":8859:8865  result */\n      dup3\n        /* \"atta-movies/TBC_busd.sol\":8859:8887  result * 0x10000000B17217FBB */\n      mul\n        /* \"atta-movies/TBC_busd.sol\":8858:8894  (result * 0x10000000B17217FBB) >> 64 */\n      swap1\n      shr\n        /* \"atta-movies/TBC_busd.sol\":8849:8894  result = (result * 0x10000000B17217FBB) >> 64 */\n      swap1\n      pop\n        /* \"atta-movies/TBC_busd.sol\":8804:8910  if (x & 0x1000000000 > 0) {\r... */\n    tag_371:\n        /* \"atta-movies/TBC_busd.sol\":8946:8947  0 */\n      0x00\n        /* \"atta-movies/TBC_busd.sol\":8932:8943  0x800000000 */\n      0x0800000000\n        /* \"atta-movies/TBC_busd.sol\":8928:8929  x */\n      dup4\n        /* \"atta-movies/TBC_busd.sol\":8928:8943  x & 0x800000000 */\n      and\n        /* \"atta-movies/TBC_busd.sol\":8928:8947  x & 0x800000000 > 0 */\n      gt\n        /* \"atta-movies/TBC_busd.sol\":8924:9029  if (x & 0x800000000 > 0) {\r... */\n      iszero\n      tag_372\n      jumpi\n        /* \"atta-movies/TBC_busd.sol\":9011:9013  64 */\n      0x40\n        /* \"atta-movies/TBC_busd.sol\":8987:9006  0x1000000058B90BFCE */\n      0x01000000058b90bfce\n        /* \"atta-movies/TBC_busd.sol\":8978:8984  result */\n      dup3\n        /* \"atta-movies/TBC_busd.sol\":8978:9006  result * 0x1000000058B90BFCE */\n      mul\n        /* \"atta-movies/TBC_busd.sol\":8977:9013  (result * 0x1000000058B90BFCE) >> 64 */\n      swap1\n      shr\n        /* \"atta-movies/TBC_busd.sol\":8968:9013  result = (result * 0x1000000058B90BFCE) >> 64 */\n      swap1\n      pop\n        /* \"atta-movies/TBC_busd.sol\":8924:9029  if (x & 0x800000000 > 0) {\r... */\n    tag_372:\n        /* \"atta-movies/TBC_busd.sol\":9065:9066  0 */\n      0x00\n        /* \"atta-movies/TBC_busd.sol\":9051:9062  0x400000000 */\n      0x0400000000\n        /* \"atta-movies/TBC_busd.sol\":9047:9048  x */\n      dup4\n        /* \"atta-movies/TBC_busd.sol\":9047:9062  x & 0x400000000 */\n      and\n        /* \"atta-movies/TBC_busd.sol\":9047:9066  x & 0x400000000 > 0 */\n      gt\n        /* \"atta-movies/TBC_busd.sol\":9043:9148  if (x & 0x400000000 > 0) {\r... */\n      iszero\n      tag_373\n      jumpi\n        /* \"atta-movies/TBC_busd.sol\":9130:9132  64 */\n      0x40\n        /* \"atta-movies/TBC_busd.sol\":9106:9125  0x100000002C5C85FE3 */\n      0x0100000002c5c85fe3\n        /* \"atta-movies/TBC_busd.sol\":9097:9103  result */\n      dup3\n        /* \"atta-movies/TBC_busd.sol\":9097:9125  result * 0x100000002C5C85FE3 */\n      mul\n        /* \"atta-movies/TBC_busd.sol\":9096:9132  (result * 0x100000002C5C85FE3) >> 64 */\n      swap1\n      shr\n        /* \"atta-movies/TBC_busd.sol\":9087:9132  result = (result * 0x100000002C5C85FE3) >> 64 */\n      swap1\n      pop\n        /* \"atta-movies/TBC_busd.sol\":9043:9148  if (x & 0x400000000 > 0) {\r... */\n    tag_373:\n        /* \"atta-movies/TBC_busd.sol\":9184:9185  0 */\n      0x00\n        /* \"atta-movies/TBC_busd.sol\":9170:9181  0x200000000 */\n      0x0200000000\n        /* \"atta-movies/TBC_busd.sol\":9166:9167  x */\n      dup4\n        /* \"atta-movies/TBC_busd.sol\":9166:9181  x & 0x200000000 */\n      and\n        /* \"atta-movies/TBC_busd.sol\":9166:9185  x & 0x200000000 > 0 */\n      gt\n        /* \"atta-movies/TBC_busd.sol\":9162:9267  if (x & 0x200000000 > 0) {\r... */\n      iszero\n      tag_374\n      jumpi\n        /* \"atta-movies/TBC_busd.sol\":9249:9251  64 */\n      0x40\n        /* \"atta-movies/TBC_busd.sol\":9225:9244  0x10000000162E42FF1 */\n      0x010000000162e42ff1\n        /* \"atta-movies/TBC_busd.sol\":9216:9222  result */\n      dup3\n        /* \"atta-movies/TBC_busd.sol\":9216:9244  result * 0x10000000162E42FF1 */\n      mul\n        /* \"atta-movies/TBC_busd.sol\":9215:9251  (result * 0x10000000162E42FF1) >> 64 */\n      swap1\n      shr\n        /* \"atta-movies/TBC_busd.sol\":9206:9251  result = (result * 0x10000000162E42FF1) >> 64 */\n      swap1\n      pop\n        /* \"atta-movies/TBC_busd.sol\":9162:9267  if (x & 0x200000000 > 0) {\r... */\n    tag_374:\n        /* \"atta-movies/TBC_busd.sol\":9303:9304  0 */\n      0x00\n        /* \"atta-movies/TBC_busd.sol\":9289:9300  0x100000000 */\n      0x0100000000\n        /* \"atta-movies/TBC_busd.sol\":9285:9286  x */\n      dup4\n        /* \"atta-movies/TBC_busd.sol\":9285:9300  x & 0x100000000 */\n      and\n        /* \"atta-movies/TBC_busd.sol\":9285:9304  x & 0x100000000 > 0 */\n      gt\n        /* \"atta-movies/TBC_busd.sol\":9281:9386  if (x & 0x100000000 > 0) {\r... */\n      iszero\n      tag_375\n      jumpi\n        /* \"atta-movies/TBC_busd.sol\":9368:9370  64 */\n      0x40\n        /* \"atta-movies/TBC_busd.sol\":9344:9363  0x100000000B17217F8 */\n      0x0100000000b17217f8\n        /* \"atta-movies/TBC_busd.sol\":9335:9341  result */\n      dup3\n        /* \"atta-movies/TBC_busd.sol\":9335:9363  result * 0x100000000B17217F8 */\n      mul\n        /* \"atta-movies/TBC_busd.sol\":9334:9370  (result * 0x100000000B17217F8) >> 64 */\n      swap1\n      shr\n        /* \"atta-movies/TBC_busd.sol\":9325:9370  result = (result * 0x100000000B17217F8) >> 64 */\n      swap1\n      pop\n        /* \"atta-movies/TBC_busd.sol\":9281:9386  if (x & 0x100000000 > 0) {\r... */\n    tag_375:\n        /* \"atta-movies/TBC_busd.sol\":9421:9422  0 */\n      0x00\n        /* \"atta-movies/TBC_busd.sol\":9408:9418  0x80000000 */\n      0x80000000\n        /* \"atta-movies/TBC_busd.sol\":9404:9405  x */\n      dup4\n        /* \"atta-movies/TBC_busd.sol\":9404:9418  x & 0x80000000 */\n      and\n        /* \"atta-movies/TBC_busd.sol\":9404:9422  x & 0x80000000 > 0 */\n      gt\n        /* \"atta-movies/TBC_busd.sol\":9400:9504  if (x & 0x80000000 > 0) {\r... */\n      iszero\n      tag_376\n      jumpi\n        /* \"atta-movies/TBC_busd.sol\":9486:9488  64 */\n      0x40\n        /* \"atta-movies/TBC_busd.sol\":9462:9481  0x10000000058B90BFC */\n      0x010000000058b90bfc\n        /* \"atta-movies/TBC_busd.sol\":9453:9459  result */\n      dup3\n        /* \"atta-movies/TBC_busd.sol\":9453:9481  result * 0x10000000058B90BFC */\n      mul\n        /* \"atta-movies/TBC_busd.sol\":9452:9488  (result * 0x10000000058B90BFC) >> 64 */\n      swap1\n      shr\n        /* \"atta-movies/TBC_busd.sol\":9443:9488  result = (result * 0x10000000058B90BFC) >> 64 */\n      swap1\n      pop\n        /* \"atta-movies/TBC_busd.sol\":9400:9504  if (x & 0x80000000 > 0) {\r... */\n    tag_376:\n        /* \"atta-movies/TBC_busd.sol\":9539:9540  0 */\n      0x00\n        /* \"atta-movies/TBC_busd.sol\":9526:9536  0x40000000 */\n      0x40000000\n        /* \"atta-movies/TBC_busd.sol\":9522:9523  x */\n      dup4\n        /* \"atta-movies/TBC_busd.sol\":9522:9536  x & 0x40000000 */\n      and\n        /* \"atta-movies/TBC_busd.sol\":9522:9540  x & 0x40000000 > 0 */\n      gt\n        /* \"atta-movies/TBC_busd.sol\":9518:9622  if (x & 0x40000000 > 0) {\r... */\n      iszero\n      tag_377\n      jumpi\n        /* \"atta-movies/TBC_busd.sol\":9604:9606  64 */\n      0x40\n        /* \"atta-movies/TBC_busd.sol\":9580:9599  0x1000000002C5C85FE */\n      0x01000000002c5c85fe\n        /* \"atta-movies/TBC_busd.sol\":9571:9577  result */\n      dup3\n        /* \"atta-movies/TBC_busd.sol\":9571:9599  result * 0x1000000002C5C85FE */\n      mul\n        /* \"atta-movies/TBC_busd.sol\":9570:9606  (result * 0x1000000002C5C85FE) >> 64 */\n      swap1\n      shr\n        /* \"atta-movies/TBC_busd.sol\":9561:9606  result = (result * 0x1000000002C5C85FE) >> 64 */\n      swap1\n      pop\n        /* \"atta-movies/TBC_busd.sol\":9518:9622  if (x & 0x40000000 > 0) {\r... */\n    tag_377:\n        /* \"atta-movies/TBC_busd.sol\":9657:9658  0 */\n      0x00\n        /* \"atta-movies/TBC_busd.sol\":9644:9654  0x20000000 */\n      0x20000000\n        /* \"atta-movies/TBC_busd.sol\":9640:9641  x */\n      dup4\n        /* \"atta-movies/TBC_busd.sol\":9640:9654  x & 0x20000000 */\n      and\n        /* \"atta-movies/TBC_busd.sol\":9640:9658  x & 0x20000000 > 0 */\n      gt\n        /* \"atta-movies/TBC_busd.sol\":9636:9740  if (x & 0x20000000 > 0) {\r... */\n      iszero\n      tag_378\n      jumpi\n        /* \"atta-movies/TBC_busd.sol\":9722:9724  64 */\n      0x40\n        /* \"atta-movies/TBC_busd.sol\":9698:9717  0x100000000162E42FF */\n      0x0100000000162e42ff\n        /* \"atta-movies/TBC_busd.sol\":9689:9695  result */\n      dup3\n        /* \"atta-movies/TBC_busd.sol\":9689:9717  result * 0x100000000162E42FF */\n      mul\n        /* \"atta-movies/TBC_busd.sol\":9688:9724  (result * 0x100000000162E42FF) >> 64 */\n      swap1\n      shr\n        /* \"atta-movies/TBC_busd.sol\":9679:9724  result = (result * 0x100000000162E42FF) >> 64 */\n      swap1\n      pop\n        /* \"atta-movies/TBC_busd.sol\":9636:9740  if (x & 0x20000000 > 0) {\r... */\n    tag_378:\n        /* \"atta-movies/TBC_busd.sol\":9775:9776  0 */\n      0x00\n        /* \"atta-movies/TBC_busd.sol\":9762:9772  0x10000000 */\n      0x10000000\n        /* \"atta-movies/TBC_busd.sol\":9758:9759  x */\n      dup4\n        /* \"atta-movies/TBC_busd.sol\":9758:9772  x & 0x10000000 */\n      and\n        /* \"atta-movies/TBC_busd.sol\":9758:9776  x & 0x10000000 > 0 */\n      gt\n        /* \"atta-movies/TBC_busd.sol\":9754:9858  if (x & 0x10000000 > 0) {\r... */\n      iszero\n      tag_379\n      jumpi\n        /* \"atta-movies/TBC_busd.sol\":9840:9842  64 */\n      0x40\n        /* \"atta-movies/TBC_busd.sol\":9816:9835  0x1000000000B17217F */\n      0x01000000000b17217f\n        /* \"atta-movies/TBC_busd.sol\":9807:9813  result */\n      dup3\n        /* \"atta-movies/TBC_busd.sol\":9807:9835  result * 0x1000000000B17217F */\n      mul\n        /* \"atta-movies/TBC_busd.sol\":9806:9842  (result * 0x1000000000B17217F) >> 64 */\n      swap1\n      shr\n        /* \"atta-movies/TBC_busd.sol\":9797:9842  result = (result * 0x1000000000B17217F) >> 64 */\n      swap1\n      pop\n        /* \"atta-movies/TBC_busd.sol\":9754:9858  if (x & 0x10000000 > 0) {\r... */\n    tag_379:\n        /* \"atta-movies/TBC_busd.sol\":9892:9893  0 */\n      0x00\n        /* \"atta-movies/TBC_busd.sol\":9880:9889  0x8000000 */\n      0x08000000\n        /* \"atta-movies/TBC_busd.sol\":9876:9877  x */\n      dup4\n        /* \"atta-movies/TBC_busd.sol\":9876:9889  x & 0x8000000 */\n      and\n        /* \"atta-movies/TBC_busd.sol\":9876:9893  x & 0x8000000 > 0 */\n      gt\n        /* \"atta-movies/TBC_busd.sol\":9872:9975  if (x & 0x8000000 > 0) {\r... */\n      iszero\n      tag_380\n      jumpi\n        /* \"atta-movies/TBC_busd.sol\":9957:9959  64 */\n      0x40\n        /* \"atta-movies/TBC_busd.sol\":9933:9952  0x100000000058B90C0 */\n      0x0100000000058b90c0\n        /* \"atta-movies/TBC_busd.sol\":9924:9930  result */\n      dup3\n        /* \"atta-movies/TBC_busd.sol\":9924:9952  result * 0x100000000058B90C0 */\n      mul\n        /* \"atta-movies/TBC_busd.sol\":9923:9959  (result * 0x100000000058B90C0) >> 64 */\n      swap1\n      shr\n        /* \"atta-movies/TBC_busd.sol\":9914:9959  result = (result * 0x100000000058B90C0) >> 64 */\n      swap1\n      pop\n        /* \"atta-movies/TBC_busd.sol\":9872:9975  if (x & 0x8000000 > 0) {\r... */\n    tag_380:\n        /* \"atta-movies/TBC_busd.sol\":10009:10010  0 */\n      0x00\n        /* \"atta-movies/TBC_busd.sol\":9997:10006  0x4000000 */\n      0x04000000\n        /* \"atta-movies/TBC_busd.sol\":9993:9994  x */\n      dup4\n        /* \"atta-movies/TBC_busd.sol\":9993:10006  x & 0x4000000 */\n      and\n        /* \"atta-movies/TBC_busd.sol\":9993:10010  x & 0x4000000 > 0 */\n      gt\n        /* \"atta-movies/TBC_busd.sol\":9989:10092  if (x & 0x4000000 > 0) {\r... */\n      iszero\n      tag_381\n      jumpi\n        /* \"atta-movies/TBC_busd.sol\":10074:10076  64 */\n      0x40\n        /* \"atta-movies/TBC_busd.sol\":10050:10069  0x10000000002C5C860 */\n      0x010000000002c5c860\n        /* \"atta-movies/TBC_busd.sol\":10041:10047  result */\n      dup3\n        /* \"atta-movies/TBC_busd.sol\":10041:10069  result * 0x10000000002C5C860 */\n      mul\n        /* \"atta-movies/TBC_busd.sol\":10040:10076  (result * 0x10000000002C5C860) >> 64 */\n      swap1\n      shr\n        /* \"atta-movies/TBC_busd.sol\":10031:10076  result = (result * 0x10000000002C5C860) >> 64 */\n      swap1\n      pop\n        /* \"atta-movies/TBC_busd.sol\":9989:10092  if (x & 0x4000000 > 0) {\r... */\n    tag_381:\n        /* \"atta-movies/TBC_busd.sol\":10126:10127  0 */\n      0x00\n        /* \"atta-movies/TBC_busd.sol\":10114:10123  0x2000000 */\n      0x02000000\n        /* \"atta-movies/TBC_busd.sol\":10110:10111  x */\n      dup4\n        /* \"atta-movies/TBC_busd.sol\":10110:10123  x & 0x2000000 */\n      and\n        /* \"atta-movies/TBC_busd.sol\":10110:10127  x & 0x2000000 > 0 */\n      gt\n        /* \"atta-movies/TBC_busd.sol\":10106:10209  if (x & 0x2000000 > 0) {\r... */\n      iszero\n      tag_382\n      jumpi\n        /* \"atta-movies/TBC_busd.sol\":10191:10193  64 */\n      0x40\n        /* \"atta-movies/TBC_busd.sol\":10167:10186  0x1000000000162E430 */\n      0x01000000000162e430\n        /* \"atta-movies/TBC_busd.sol\":10158:10164  result */\n      dup3\n        /* \"atta-movies/TBC_busd.sol\":10158:10186  result * 0x1000000000162E430 */\n      mul\n        /* \"atta-movies/TBC_busd.sol\":10157:10193  (result * 0x1000000000162E430) >> 64 */\n      swap1\n      shr\n        /* \"atta-movies/TBC_busd.sol\":10148:10193  result = (result * 0x1000000000162E430) >> 64 */\n      swap1\n      pop\n        /* \"atta-movies/TBC_busd.sol\":10106:10209  if (x & 0x2000000 > 0) {\r... */\n    tag_382:\n        /* \"atta-movies/TBC_busd.sol\":10243:10244  0 */\n      0x00\n        /* \"atta-movies/TBC_busd.sol\":10231:10240  0x1000000 */\n      0x01000000\n        /* \"atta-movies/TBC_busd.sol\":10227:10228  x */\n      dup4\n        /* \"atta-movies/TBC_busd.sol\":10227:10240  x & 0x1000000 */\n      and\n        /* \"atta-movies/TBC_busd.sol\":10227:10244  x & 0x1000000 > 0 */\n      gt\n        /* \"atta-movies/TBC_busd.sol\":10223:10326  if (x & 0x1000000 > 0) {\r... */\n      iszero\n      tag_383\n      jumpi\n        /* \"atta-movies/TBC_busd.sol\":10308:10310  64 */\n      0x40\n        /* \"atta-movies/TBC_busd.sol\":10284:10303  0x10000000000B17218 */\n      0x010000000000b17218\n        /* \"atta-movies/TBC_busd.sol\":10275:10281  result */\n      dup3\n        /* \"atta-movies/TBC_busd.sol\":10275:10303  result * 0x10000000000B17218 */\n      mul\n        /* \"atta-movies/TBC_busd.sol\":10274:10310  (result * 0x10000000000B17218) >> 64 */\n      swap1\n      shr\n        /* \"atta-movies/TBC_busd.sol\":10265:10310  result = (result * 0x10000000000B17218) >> 64 */\n      swap1\n      pop\n        /* \"atta-movies/TBC_busd.sol\":10223:10326  if (x & 0x1000000 > 0) {\r... */\n    tag_383:\n        /* \"atta-movies/TBC_busd.sol\":10359:10360  0 */\n      0x00\n        /* \"atta-movies/TBC_busd.sol\":10348:10356  0x800000 */\n      0x800000\n        /* \"atta-movies/TBC_busd.sol\":10344:10345  x */\n      dup4\n        /* \"atta-movies/TBC_busd.sol\":10344:10356  x & 0x800000 */\n      and\n        /* \"atta-movies/TBC_busd.sol\":10344:10360  x & 0x800000 > 0 */\n      gt\n        /* \"atta-movies/TBC_busd.sol\":10340:10442  if (x & 0x800000 > 0) {\r... */\n      iszero\n      tag_384\n      jumpi\n        /* \"atta-movies/TBC_busd.sol\":10424:10426  64 */\n      0x40\n        /* \"atta-movies/TBC_busd.sol\":10400:10419  0x1000000000058B90C */\n      0x01000000000058b90c\n        /* \"atta-movies/TBC_busd.sol\":10391:10397  result */\n      dup3\n        /* \"atta-movies/TBC_busd.sol\":10391:10419  result * 0x1000000000058B90C */\n      mul\n        /* \"atta-movies/TBC_busd.sol\":10390:10426  (result * 0x1000000000058B90C) >> 64 */\n      swap1\n      shr\n        /* \"atta-movies/TBC_busd.sol\":10381:10426  result = (result * 0x1000000000058B90C) >> 64 */\n      swap1\n      pop\n        /* \"atta-movies/TBC_busd.sol\":10340:10442  if (x & 0x800000 > 0) {\r... */\n    tag_384:\n        /* \"atta-movies/TBC_busd.sol\":10475:10476  0 */\n      0x00\n        /* \"atta-movies/TBC_busd.sol\":10464:10472  0x400000 */\n      0x400000\n        /* \"atta-movies/TBC_busd.sol\":10460:10461  x */\n      dup4\n        /* \"atta-movies/TBC_busd.sol\":10460:10472  x & 0x400000 */\n      and\n        /* \"atta-movies/TBC_busd.sol\":10460:10476  x & 0x400000 > 0 */\n      gt\n        /* \"atta-movies/TBC_busd.sol\":10456:10558  if (x & 0x400000 > 0) {\r... */\n      iszero\n      tag_385\n      jumpi\n        /* \"atta-movies/TBC_busd.sol\":10540:10542  64 */\n      0x40\n        /* \"atta-movies/TBC_busd.sol\":10516:10535  0x100000000002C5C86 */\n      0x0100000000002c5c86\n        /* \"atta-movies/TBC_busd.sol\":10507:10513  result */\n      dup3\n        /* \"atta-movies/TBC_busd.sol\":10507:10535  result * 0x100000000002C5C86 */\n      mul\n        /* \"atta-movies/TBC_busd.sol\":10506:10542  (result * 0x100000000002C5C86) >> 64 */\n      swap1\n      shr\n        /* \"atta-movies/TBC_busd.sol\":10497:10542  result = (result * 0x100000000002C5C86) >> 64 */\n      swap1\n      pop\n        /* \"atta-movies/TBC_busd.sol\":10456:10558  if (x & 0x400000 > 0) {\r... */\n    tag_385:\n        /* \"atta-movies/TBC_busd.sol\":10591:10592  0 */\n      0x00\n        /* \"atta-movies/TBC_busd.sol\":10580:10588  0x200000 */\n      0x200000\n        /* \"atta-movies/TBC_busd.sol\":10576:10577  x */\n      dup4\n        /* \"atta-movies/TBC_busd.sol\":10576:10588  x & 0x200000 */\n      and\n        /* \"atta-movies/TBC_busd.sol\":10576:10592  x & 0x200000 > 0 */\n      gt\n        /* \"atta-movies/TBC_busd.sol\":10572:10674  if (x & 0x200000 > 0) {\r... */\n      iszero\n      tag_386\n      jumpi\n        /* \"atta-movies/TBC_busd.sol\":10656:10658  64 */\n      0x40\n        /* \"atta-movies/TBC_busd.sol\":10632:10651  0x10000000000162E43 */\n      0x010000000000162e43\n        /* \"atta-movies/TBC_busd.sol\":10623:10629  result */\n      dup3\n        /* \"atta-movies/TBC_busd.sol\":10623:10651  result * 0x10000000000162E43 */\n      mul\n        /* \"atta-movies/TBC_busd.sol\":10622:10658  (result * 0x10000000000162E43) >> 64 */\n      swap1\n      shr\n        /* \"atta-movies/TBC_busd.sol\":10613:10658  result = (result * 0x10000000000162E43) >> 64 */\n      swap1\n      pop\n        /* \"atta-movies/TBC_busd.sol\":10572:10674  if (x & 0x200000 > 0) {\r... */\n    tag_386:\n        /* \"atta-movies/TBC_busd.sol\":10707:10708  0 */\n      0x00\n        /* \"atta-movies/TBC_busd.sol\":10696:10704  0x100000 */\n      0x100000\n        /* \"atta-movies/TBC_busd.sol\":10692:10693  x */\n      dup4\n        /* \"atta-movies/TBC_busd.sol\":10692:10704  x & 0x100000 */\n      and\n        /* \"atta-movies/TBC_busd.sol\":10692:10708  x & 0x100000 > 0 */\n      gt\n        /* \"atta-movies/TBC_busd.sol\":10688:10790  if (x & 0x100000 > 0) {\r... */\n      iszero\n      tag_387\n      jumpi\n        /* \"atta-movies/TBC_busd.sol\":10772:10774  64 */\n      0x40\n        /* \"atta-movies/TBC_busd.sol\":10748:10767  0x100000000000B1721 */\n      0x0100000000000b1721\n        /* \"atta-movies/TBC_busd.sol\":10739:10745  result */\n      dup3\n        /* \"atta-movies/TBC_busd.sol\":10739:10767  result * 0x100000000000B1721 */\n      mul\n        /* \"atta-movies/TBC_busd.sol\":10738:10774  (result * 0x100000000000B1721) >> 64 */\n      swap1\n      shr\n        /* \"atta-movies/TBC_busd.sol\":10729:10774  result = (result * 0x100000000000B1721) >> 64 */\n      swap1\n      pop\n        /* \"atta-movies/TBC_busd.sol\":10688:10790  if (x & 0x100000 > 0) {\r... */\n    tag_387:\n        /* \"atta-movies/TBC_busd.sol\":10822:10823  0 */\n      0x00\n        /* \"atta-movies/TBC_busd.sol\":10812:10819  0x80000 */\n      0x080000\n        /* \"atta-movies/TBC_busd.sol\":10808:10809  x */\n      dup4\n        /* \"atta-movies/TBC_busd.sol\":10808:10819  x & 0x80000 */\n      and\n        /* \"atta-movies/TBC_busd.sol\":10808:10823  x & 0x80000 > 0 */\n      gt\n        /* \"atta-movies/TBC_busd.sol\":10804:10905  if (x & 0x80000 > 0) {\r... */\n      iszero\n      tag_388\n      jumpi\n        /* \"atta-movies/TBC_busd.sol\":10887:10889  64 */\n      0x40\n        /* \"atta-movies/TBC_busd.sol\":10863:10882  0x10000000000058B91 */\n      0x010000000000058b91\n        /* \"atta-movies/TBC_busd.sol\":10854:10860  result */\n      dup3\n        /* \"atta-movies/TBC_busd.sol\":10854:10882  result * 0x10000000000058B91 */\n      mul\n        /* \"atta-movies/TBC_busd.sol\":10853:10889  (result * 0x10000000000058B91) >> 64 */\n      swap1\n      shr\n        /* \"atta-movies/TBC_busd.sol\":10844:10889  result = (result * 0x10000000000058B91) >> 64 */\n      swap1\n      pop\n        /* \"atta-movies/TBC_busd.sol\":10804:10905  if (x & 0x80000 > 0) {\r... */\n    tag_388:\n        /* \"atta-movies/TBC_busd.sol\":10937:10938  0 */\n      0x00\n        /* \"atta-movies/TBC_busd.sol\":10927:10934  0x40000 */\n      0x040000\n        /* \"atta-movies/TBC_busd.sol\":10923:10924  x */\n      dup4\n        /* \"atta-movies/TBC_busd.sol\":10923:10934  x & 0x40000 */\n      and\n        /* \"atta-movies/TBC_busd.sol\":10923:10938  x & 0x40000 > 0 */\n      gt\n        /* \"atta-movies/TBC_busd.sol\":10919:11020  if (x & 0x40000 > 0) {\r... */\n      iszero\n      tag_389\n      jumpi\n        /* \"atta-movies/TBC_busd.sol\":11002:11004  64 */\n      0x40\n        /* \"atta-movies/TBC_busd.sol\":10978:10997  0x1000000000002C5C8 */\n      0x01000000000002c5c8\n        /* \"atta-movies/TBC_busd.sol\":10969:10975  result */\n      dup3\n        /* \"atta-movies/TBC_busd.sol\":10969:10997  result * 0x1000000000002C5C8 */\n      mul\n        /* \"atta-movies/TBC_busd.sol\":10968:11004  (result * 0x1000000000002C5C8) >> 64 */\n      swap1\n      shr\n        /* \"atta-movies/TBC_busd.sol\":10959:11004  result = (result * 0x1000000000002C5C8) >> 64 */\n      swap1\n      pop\n        /* \"atta-movies/TBC_busd.sol\":10919:11020  if (x & 0x40000 > 0) {\r... */\n    tag_389:\n        /* \"atta-movies/TBC_busd.sol\":11052:11053  0 */\n      0x00\n        /* \"atta-movies/TBC_busd.sol\":11042:11049  0x20000 */\n      0x020000\n        /* \"atta-movies/TBC_busd.sol\":11038:11039  x */\n      dup4\n        /* \"atta-movies/TBC_busd.sol\":11038:11049  x & 0x20000 */\n      and\n        /* \"atta-movies/TBC_busd.sol\":11038:11053  x & 0x20000 > 0 */\n      gt\n        /* \"atta-movies/TBC_busd.sol\":11034:11135  if (x & 0x20000 > 0) {\r... */\n      iszero\n      tag_390\n      jumpi\n        /* \"atta-movies/TBC_busd.sol\":11117:11119  64 */\n      0x40\n        /* \"atta-movies/TBC_busd.sol\":11093:11112  0x100000000000162E4 */\n      0x0100000000000162e4\n        /* \"atta-movies/TBC_busd.sol\":11084:11090  result */\n      dup3\n        /* \"atta-movies/TBC_busd.sol\":11084:11112  result * 0x100000000000162E4 */\n      mul\n        /* \"atta-movies/TBC_busd.sol\":11083:11119  (result * 0x100000000000162E4) >> 64 */\n      swap1\n      shr\n        /* \"atta-movies/TBC_busd.sol\":11074:11119  result = (result * 0x100000000000162E4) >> 64 */\n      swap1\n      pop\n        /* \"atta-movies/TBC_busd.sol\":11034:11135  if (x & 0x20000 > 0) {\r... */\n    tag_390:\n        /* \"atta-movies/TBC_busd.sol\":11167:11168  0 */\n      0x00\n        /* \"atta-movies/TBC_busd.sol\":11157:11164  0x10000 */\n      0x010000\n        /* \"atta-movies/TBC_busd.sol\":11153:11154  x */\n      dup4\n        /* \"atta-movies/TBC_busd.sol\":11153:11164  x & 0x10000 */\n      and\n        /* \"atta-movies/TBC_busd.sol\":11153:11168  x & 0x10000 > 0 */\n      gt\n        /* \"atta-movies/TBC_busd.sol\":11149:11250  if (x & 0x10000 > 0) {\r... */\n      iszero\n      tag_391\n      jumpi\n        /* \"atta-movies/TBC_busd.sol\":11232:11234  64 */\n      0x40\n        /* \"atta-movies/TBC_busd.sol\":11208:11227  0x1000000000000B172 */\n      0x01000000000000b172\n        /* \"atta-movies/TBC_busd.sol\":11199:11205  result */\n      dup3\n        /* \"atta-movies/TBC_busd.sol\":11199:11227  result * 0x1000000000000B172 */\n      mul\n        /* \"atta-movies/TBC_busd.sol\":11198:11234  (result * 0x1000000000000B172) >> 64 */\n      swap1\n      shr\n        /* \"atta-movies/TBC_busd.sol\":11189:11234  result = (result * 0x1000000000000B172) >> 64 */\n      swap1\n      pop\n        /* \"atta-movies/TBC_busd.sol\":11149:11250  if (x & 0x10000 > 0) {\r... */\n    tag_391:\n        /* \"atta-movies/TBC_busd.sol\":11281:11282  0 */\n      0x00\n        /* \"atta-movies/TBC_busd.sol\":11272:11278  0x8000 */\n      0x8000\n        /* \"atta-movies/TBC_busd.sol\":11268:11269  x */\n      dup4\n        /* \"atta-movies/TBC_busd.sol\":11268:11278  x & 0x8000 */\n      and\n        /* \"atta-movies/TBC_busd.sol\":11268:11282  x & 0x8000 > 0 */\n      gt\n        /* \"atta-movies/TBC_busd.sol\":11264:11364  if (x & 0x8000 > 0) {\r... */\n      iszero\n      tag_392\n      jumpi\n        /* \"atta-movies/TBC_busd.sol\":11346:11348  64 */\n      0x40\n        /* \"atta-movies/TBC_busd.sol\":11322:11341  0x100000000000058B9 */\n      0x0100000000000058b9\n        /* \"atta-movies/TBC_busd.sol\":11313:11319  result */\n      dup3\n        /* \"atta-movies/TBC_busd.sol\":11313:11341  result * 0x100000000000058B9 */\n      mul\n        /* \"atta-movies/TBC_busd.sol\":11312:11348  (result * 0x100000000000058B9) >> 64 */\n      swap1\n      shr\n        /* \"atta-movies/TBC_busd.sol\":11303:11348  result = (result * 0x100000000000058B9) >> 64 */\n      swap1\n      pop\n        /* \"atta-movies/TBC_busd.sol\":11264:11364  if (x & 0x8000 > 0) {\r... */\n    tag_392:\n        /* \"atta-movies/TBC_busd.sol\":11395:11396  0 */\n      0x00\n        /* \"atta-movies/TBC_busd.sol\":11386:11392  0x4000 */\n      0x4000\n        /* \"atta-movies/TBC_busd.sol\":11382:11383  x */\n      dup4\n        /* \"atta-movies/TBC_busd.sol\":11382:11392  x & 0x4000 */\n      and\n        /* \"atta-movies/TBC_busd.sol\":11382:11396  x & 0x4000 > 0 */\n      gt\n        /* \"atta-movies/TBC_busd.sol\":11378:11478  if (x & 0x4000 > 0) {\r... */\n      iszero\n      tag_393\n      jumpi\n        /* \"atta-movies/TBC_busd.sol\":11460:11462  64 */\n      0x40\n        /* \"atta-movies/TBC_busd.sol\":11436:11455  0x10000000000002C5D */\n      0x010000000000002c5d\n        /* \"atta-movies/TBC_busd.sol\":11427:11433  result */\n      dup3\n        /* \"atta-movies/TBC_busd.sol\":11427:11455  result * 0x10000000000002C5D */\n      mul\n        /* \"atta-movies/TBC_busd.sol\":11426:11462  (result * 0x10000000000002C5D) >> 64 */\n      swap1\n      shr\n        /* \"atta-movies/TBC_busd.sol\":11417:11462  result = (result * 0x10000000000002C5D) >> 64 */\n      swap1\n      pop\n        /* \"atta-movies/TBC_busd.sol\":11378:11478  if (x & 0x4000 > 0) {\r... */\n    tag_393:\n        /* \"atta-movies/TBC_busd.sol\":11509:11510  0 */\n      0x00\n        /* \"atta-movies/TBC_busd.sol\":11500:11506  0x2000 */\n      0x2000\n        /* \"atta-movies/TBC_busd.sol\":11496:11497  x */\n      dup4\n        /* \"atta-movies/TBC_busd.sol\":11496:11506  x & 0x2000 */\n      and\n        /* \"atta-movies/TBC_busd.sol\":11496:11510  x & 0x2000 > 0 */\n      gt\n        /* \"atta-movies/TBC_busd.sol\":11492:11592  if (x & 0x2000 > 0) {\r... */\n      iszero\n      tag_394\n      jumpi\n        /* \"atta-movies/TBC_busd.sol\":11574:11576  64 */\n      0x40\n        /* \"atta-movies/TBC_busd.sol\":11550:11569  0x1000000000000162E */\n      0x01000000000000162e\n        /* \"atta-movies/TBC_busd.sol\":11541:11547  result */\n      dup3\n        /* \"atta-movies/TBC_busd.sol\":11541:11569  result * 0x1000000000000162E */\n      mul\n        /* \"atta-movies/TBC_busd.sol\":11540:11576  (result * 0x1000000000000162E) >> 64 */\n      swap1\n      shr\n        /* \"atta-movies/TBC_busd.sol\":11531:11576  result = (result * 0x1000000000000162E) >> 64 */\n      swap1\n      pop\n        /* \"atta-movies/TBC_busd.sol\":11492:11592  if (x & 0x2000 > 0) {\r... */\n    tag_394:\n        /* \"atta-movies/TBC_busd.sol\":11623:11624  0 */\n      0x00\n        /* \"atta-movies/TBC_busd.sol\":11614:11620  0x1000 */\n      0x1000\n        /* \"atta-movies/TBC_busd.sol\":11610:11611  x */\n      dup4\n        /* \"atta-movies/TBC_busd.sol\":11610:11620  x & 0x1000 */\n      and\n        /* \"atta-movies/TBC_busd.sol\":11610:11624  x & 0x1000 > 0 */\n      gt\n        /* \"atta-movies/TBC_busd.sol\":11606:11706  if (x & 0x1000 > 0) {\r... */\n      iszero\n      tag_395\n      jumpi\n        /* \"atta-movies/TBC_busd.sol\":11688:11690  64 */\n      0x40\n        /* \"atta-movies/TBC_busd.sol\":11664:11683  0x10000000000000B17 */\n      0x010000000000000b17\n        /* \"atta-movies/TBC_busd.sol\":11655:11661  result */\n      dup3\n        /* \"atta-movies/TBC_busd.sol\":11655:11683  result * 0x10000000000000B17 */\n      mul\n        /* \"atta-movies/TBC_busd.sol\":11654:11690  (result * 0x10000000000000B17) >> 64 */\n      swap1\n      shr\n        /* \"atta-movies/TBC_busd.sol\":11645:11690  result = (result * 0x10000000000000B17) >> 64 */\n      swap1\n      pop\n        /* \"atta-movies/TBC_busd.sol\":11606:11706  if (x & 0x1000 > 0) {\r... */\n    tag_395:\n        /* \"atta-movies/TBC_busd.sol\":11736:11737  0 */\n      0x00\n        /* \"atta-movies/TBC_busd.sol\":11728:11733  0x800 */\n      0x0800\n        /* \"atta-movies/TBC_busd.sol\":11724:11725  x */\n      dup4\n        /* \"atta-movies/TBC_busd.sol\":11724:11733  x & 0x800 */\n      and\n        /* \"atta-movies/TBC_busd.sol\":11724:11737  x & 0x800 > 0 */\n      gt\n        /* \"atta-movies/TBC_busd.sol\":11720:11819  if (x & 0x800 > 0) {\r... */\n      iszero\n      tag_396\n      jumpi\n        /* \"atta-movies/TBC_busd.sol\":11801:11803  64 */\n      0x40\n        /* \"atta-movies/TBC_busd.sol\":11777:11796  0x1000000000000058C */\n      0x01000000000000058c\n        /* \"atta-movies/TBC_busd.sol\":11768:11774  result */\n      dup3\n        /* \"atta-movies/TBC_busd.sol\":11768:11796  result * 0x1000000000000058C */\n      mul\n        /* \"atta-movies/TBC_busd.sol\":11767:11803  (result * 0x1000000000000058C) >> 64 */\n      swap1\n      shr\n        /* \"atta-movies/TBC_busd.sol\":11758:11803  result = (result * 0x1000000000000058C) >> 64 */\n      swap1\n      pop\n        /* \"atta-movies/TBC_busd.sol\":11720:11819  if (x & 0x800 > 0) {\r... */\n    tag_396:\n        /* \"atta-movies/TBC_busd.sol\":11849:11850  0 */\n      0x00\n        /* \"atta-movies/TBC_busd.sol\":11841:11846  0x400 */\n      0x0400\n        /* \"atta-movies/TBC_busd.sol\":11837:11838  x */\n      dup4\n        /* \"atta-movies/TBC_busd.sol\":11837:11846  x & 0x400 */\n      and\n        /* \"atta-movies/TBC_busd.sol\":11837:11850  x & 0x400 > 0 */\n      gt\n        /* \"atta-movies/TBC_busd.sol\":11833:11932  if (x & 0x400 > 0) {\r... */\n      iszero\n      tag_397\n      jumpi\n        /* \"atta-movies/TBC_busd.sol\":11914:11916  64 */\n      0x40\n        /* \"atta-movies/TBC_busd.sol\":11890:11909  0x100000000000002C6 */\n      0x0100000000000002c6\n        /* \"atta-movies/TBC_busd.sol\":11881:11887  result */\n      dup3\n        /* \"atta-movies/TBC_busd.sol\":11881:11909  result * 0x100000000000002C6 */\n      mul\n        /* \"atta-movies/TBC_busd.sol\":11880:11916  (result * 0x100000000000002C6) >> 64 */\n      swap1\n      shr\n        /* \"atta-movies/TBC_busd.sol\":11871:11916  result = (result * 0x100000000000002C6) >> 64 */\n      swap1\n      pop\n        /* \"atta-movies/TBC_busd.sol\":11833:11932  if (x & 0x400 > 0) {\r... */\n    tag_397:\n        /* \"atta-movies/TBC_busd.sol\":11962:11963  0 */\n      0x00\n        /* \"atta-movies/TBC_busd.sol\":11954:11959  0x200 */\n      0x0200\n        /* \"atta-movies/TBC_busd.sol\":11950:11951  x */\n      dup4\n        /* \"atta-movies/TBC_busd.sol\":11950:11959  x & 0x200 */\n      and\n        /* \"atta-movies/TBC_busd.sol\":11950:11963  x & 0x200 > 0 */\n      gt\n        /* \"atta-movies/TBC_busd.sol\":11946:12045  if (x & 0x200 > 0) {\r... */\n      iszero\n      tag_398\n      jumpi\n        /* \"atta-movies/TBC_busd.sol\":12027:12029  64 */\n      0x40\n        /* \"atta-movies/TBC_busd.sol\":12003:12022  0x10000000000000163 */\n      0x010000000000000163\n        /* \"atta-movies/TBC_busd.sol\":11994:12000  result */\n      dup3\n        /* \"atta-movies/TBC_busd.sol\":11994:12022  result * 0x10000000000000163 */\n      mul\n        /* \"atta-movies/TBC_busd.sol\":11993:12029  (result * 0x10000000000000163) >> 64 */\n      swap1\n      shr\n        /* \"atta-movies/TBC_busd.sol\":11984:12029  result = (result * 0x10000000000000163) >> 64 */\n      swap1\n      pop\n        /* \"atta-movies/TBC_busd.sol\":11946:12045  if (x & 0x200 > 0) {\r... */\n    tag_398:\n        /* \"atta-movies/TBC_busd.sol\":12075:12076  0 */\n      0x00\n        /* \"atta-movies/TBC_busd.sol\":12067:12072  0x100 */\n      0x0100\n        /* \"atta-movies/TBC_busd.sol\":12063:12064  x */\n      dup4\n        /* \"atta-movies/TBC_busd.sol\":12063:12072  x & 0x100 */\n      and\n        /* \"atta-movies/TBC_busd.sol\":12063:12076  x & 0x100 > 0 */\n      gt\n        /* \"atta-movies/TBC_busd.sol\":12059:12158  if (x & 0x100 > 0) {\r... */\n      iszero\n      tag_399\n      jumpi\n        /* \"atta-movies/TBC_busd.sol\":12140:12142  64 */\n      0x40\n        /* \"atta-movies/TBC_busd.sol\":12116:12135  0x100000000000000B1 */\n      0x0100000000000000b1\n        /* \"atta-movies/TBC_busd.sol\":12107:12113  result */\n      dup3\n        /* \"atta-movies/TBC_busd.sol\":12107:12135  result * 0x100000000000000B1 */\n      mul\n        /* \"atta-movies/TBC_busd.sol\":12106:12142  (result * 0x100000000000000B1) >> 64 */\n      swap1\n      shr\n        /* \"atta-movies/TBC_busd.sol\":12097:12142  result = (result * 0x100000000000000B1) >> 64 */\n      swap1\n      pop\n        /* \"atta-movies/TBC_busd.sol\":12059:12158  if (x & 0x100 > 0) {\r... */\n    tag_399:\n        /* \"atta-movies/TBC_busd.sol\":12187:12188  0 */\n      0x00\n        /* \"atta-movies/TBC_busd.sol\":12180:12184  0x80 */\n      0x80\n        /* \"atta-movies/TBC_busd.sol\":12176:12177  x */\n      dup4\n        /* \"atta-movies/TBC_busd.sol\":12176:12184  x & 0x80 */\n      and\n        /* \"atta-movies/TBC_busd.sol\":12176:12188  x & 0x80 > 0 */\n      gt\n        /* \"atta-movies/TBC_busd.sol\":12172:12270  if (x & 0x80 > 0) {\r... */\n      iszero\n      tag_400\n      jumpi\n        /* \"atta-movies/TBC_busd.sol\":12252:12254  64 */\n      0x40\n        /* \"atta-movies/TBC_busd.sol\":12228:12247  0x10000000000000059 */\n      0x010000000000000059\n        /* \"atta-movies/TBC_busd.sol\":12219:12225  result */\n      dup3\n        /* \"atta-movies/TBC_busd.sol\":12219:12247  result * 0x10000000000000059 */\n      mul\n        /* \"atta-movies/TBC_busd.sol\":12218:12254  (result * 0x10000000000000059) >> 64 */\n      swap1\n      shr\n        /* \"atta-movies/TBC_busd.sol\":12209:12254  result = (result * 0x10000000000000059) >> 64 */\n      swap1\n      pop\n        /* \"atta-movies/TBC_busd.sol\":12172:12270  if (x & 0x80 > 0) {\r... */\n    tag_400:\n        /* \"atta-movies/TBC_busd.sol\":12299:12300  0 */\n      0x00\n        /* \"atta-movies/TBC_busd.sol\":12292:12296  0x40 */\n      0x40\n        /* \"atta-movies/TBC_busd.sol\":12288:12289  x */\n      dup4\n        /* \"atta-movies/TBC_busd.sol\":12288:12296  x & 0x40 */\n      and\n        /* \"atta-movies/TBC_busd.sol\":12288:12300  x & 0x40 > 0 */\n      gt\n        /* \"atta-movies/TBC_busd.sol\":12284:12382  if (x & 0x40 > 0) {\r... */\n      iszero\n      tag_401\n      jumpi\n        /* \"atta-movies/TBC_busd.sol\":12364:12366  64 */\n      0x40\n        /* \"atta-movies/TBC_busd.sol\":12340:12359  0x1000000000000002C */\n      0x01000000000000002c\n        /* \"atta-movies/TBC_busd.sol\":12331:12337  result */\n      dup3\n        /* \"atta-movies/TBC_busd.sol\":12331:12359  result * 0x1000000000000002C */\n      mul\n        /* \"atta-movies/TBC_busd.sol\":12330:12366  (result * 0x1000000000000002C) >> 64 */\n      swap1\n      shr\n        /* \"atta-movies/TBC_busd.sol\":12321:12366  result = (result * 0x1000000000000002C) >> 64 */\n      swap1\n      pop\n        /* \"atta-movies/TBC_busd.sol\":12284:12382  if (x & 0x40 > 0) {\r... */\n    tag_401:\n        /* \"atta-movies/TBC_busd.sol\":12411:12412  0 */\n      0x00\n        /* \"atta-movies/TBC_busd.sol\":12404:12408  0x20 */\n      0x20\n        /* \"atta-movies/TBC_busd.sol\":12400:12401  x */\n      dup4\n        /* \"atta-movies/TBC_busd.sol\":12400:12408  x & 0x20 */\n      and\n        /* \"atta-movies/TBC_busd.sol\":12400:12412  x & 0x20 > 0 */\n      gt\n        /* \"atta-movies/TBC_busd.sol\":12396:12494  if (x & 0x20 > 0) {\r... */\n      iszero\n      tag_402\n      jumpi\n        /* \"atta-movies/TBC_busd.sol\":12476:12478  64 */\n      0x40\n        /* \"atta-movies/TBC_busd.sol\":12452:12471  0x10000000000000016 */\n      0x010000000000000016\n        /* \"atta-movies/TBC_busd.sol\":12443:12449  result */\n      dup3\n        /* \"atta-movies/TBC_busd.sol\":12443:12471  result * 0x10000000000000016 */\n      mul\n        /* \"atta-movies/TBC_busd.sol\":12442:12478  (result * 0x10000000000000016) >> 64 */\n      swap1\n      shr\n        /* \"atta-movies/TBC_busd.sol\":12433:12478  result = (result * 0x10000000000000016) >> 64 */\n      swap1\n      pop\n        /* \"atta-movies/TBC_busd.sol\":12396:12494  if (x & 0x20 > 0) {\r... */\n    tag_402:\n        /* \"atta-movies/TBC_busd.sol\":12523:12524  0 */\n      0x00\n        /* \"atta-movies/TBC_busd.sol\":12516:12520  0x10 */\n      0x10\n        /* \"atta-movies/TBC_busd.sol\":12512:12513  x */\n      dup4\n        /* \"atta-movies/TBC_busd.sol\":12512:12520  x & 0x10 */\n      and\n        /* \"atta-movies/TBC_busd.sol\":12512:12524  x & 0x10 > 0 */\n      gt\n        /* \"atta-movies/TBC_busd.sol\":12508:12606  if (x & 0x10 > 0) {\r... */\n      iszero\n      tag_403\n      jumpi\n        /* \"atta-movies/TBC_busd.sol\":12588:12590  64 */\n      0x40\n        /* \"atta-movies/TBC_busd.sol\":12564:12583  0x1000000000000000B */\n      0x01000000000000000b\n        /* \"atta-movies/TBC_busd.sol\":12555:12561  result */\n      dup3\n        /* \"atta-movies/TBC_busd.sol\":12555:12583  result * 0x1000000000000000B */\n      mul\n        /* \"atta-movies/TBC_busd.sol\":12554:12590  (result * 0x1000000000000000B) >> 64 */\n      swap1\n      shr\n        /* \"atta-movies/TBC_busd.sol\":12545:12590  result = (result * 0x1000000000000000B) >> 64 */\n      swap1\n      pop\n        /* \"atta-movies/TBC_busd.sol\":12508:12606  if (x & 0x10 > 0) {\r... */\n    tag_403:\n        /* \"atta-movies/TBC_busd.sol\":12634:12635  0 */\n      0x00\n        /* \"atta-movies/TBC_busd.sol\":12628:12631  0x8 */\n      0x08\n        /* \"atta-movies/TBC_busd.sol\":12624:12625  x */\n      dup4\n        /* \"atta-movies/TBC_busd.sol\":12624:12631  x & 0x8 */\n      and\n        /* \"atta-movies/TBC_busd.sol\":12624:12635  x & 0x8 > 0 */\n      gt\n        /* \"atta-movies/TBC_busd.sol\":12620:12717  if (x & 0x8 > 0) {\r... */\n      iszero\n      tag_404\n      jumpi\n        /* \"atta-movies/TBC_busd.sol\":12699:12701  64 */\n      0x40\n        /* \"atta-movies/TBC_busd.sol\":12675:12694  0x10000000000000006 */\n      0x010000000000000006\n        /* \"atta-movies/TBC_busd.sol\":12666:12672  result */\n      dup3\n        /* \"atta-movies/TBC_busd.sol\":12666:12694  result * 0x10000000000000006 */\n      mul\n        /* \"atta-movies/TBC_busd.sol\":12665:12701  (result * 0x10000000000000006) >> 64 */\n      swap1\n      shr\n        /* \"atta-movies/TBC_busd.sol\":12656:12701  result = (result * 0x10000000000000006) >> 64 */\n      swap1\n      pop\n        /* \"atta-movies/TBC_busd.sol\":12620:12717  if (x & 0x8 > 0) {\r... */\n    tag_404:\n        /* \"atta-movies/TBC_busd.sol\":12745:12746  0 */\n      0x00\n        /* \"atta-movies/TBC_busd.sol\":12739:12742  0x4 */\n      0x04\n        /* \"atta-movies/TBC_busd.sol\":12735:12736  x */\n      dup4\n        /* \"atta-movies/TBC_busd.sol\":12735:12742  x & 0x4 */\n      and\n        /* \"atta-movies/TBC_busd.sol\":12735:12746  x & 0x4 > 0 */\n      gt\n        /* \"atta-movies/TBC_busd.sol\":12731:12828  if (x & 0x4 > 0) {\r... */\n      iszero\n      tag_405\n      jumpi\n        /* \"atta-movies/TBC_busd.sol\":12810:12812  64 */\n      0x40\n        /* \"atta-movies/TBC_busd.sol\":12786:12805  0x10000000000000003 */\n      0x010000000000000003\n        /* \"atta-movies/TBC_busd.sol\":12777:12783  result */\n      dup3\n        /* \"atta-movies/TBC_busd.sol\":12777:12805  result * 0x10000000000000003 */\n      mul\n        /* \"atta-movies/TBC_busd.sol\":12776:12812  (result * 0x10000000000000003) >> 64 */\n      swap1\n      shr\n        /* \"atta-movies/TBC_busd.sol\":12767:12812  result = (result * 0x10000000000000003) >> 64 */\n      swap1\n      pop\n        /* \"atta-movies/TBC_busd.sol\":12731:12828  if (x & 0x4 > 0) {\r... */\n    tag_405:\n        /* \"atta-movies/TBC_busd.sol\":12856:12857  0 */\n      0x00\n        /* \"atta-movies/TBC_busd.sol\":12850:12853  0x2 */\n      0x02\n        /* \"atta-movies/TBC_busd.sol\":12846:12847  x */\n      dup4\n        /* \"atta-movies/TBC_busd.sol\":12846:12853  x & 0x2 */\n      and\n        /* \"atta-movies/TBC_busd.sol\":12846:12857  x & 0x2 > 0 */\n      gt\n        /* \"atta-movies/TBC_busd.sol\":12842:12939  if (x & 0x2 > 0) {\r... */\n      iszero\n      tag_406\n      jumpi\n        /* \"atta-movies/TBC_busd.sol\":12921:12923  64 */\n      0x40\n        /* \"atta-movies/TBC_busd.sol\":12897:12916  0x10000000000000001 */\n      0x010000000000000001\n        /* \"atta-movies/TBC_busd.sol\":12888:12894  result */\n      dup3\n        /* \"atta-movies/TBC_busd.sol\":12888:12916  result * 0x10000000000000001 */\n      mul\n        /* \"atta-movies/TBC_busd.sol\":12887:12923  (result * 0x10000000000000001) >> 64 */\n      swap1\n      shr\n        /* \"atta-movies/TBC_busd.sol\":12878:12923  result = (result * 0x10000000000000001) >> 64 */\n      swap1\n      pop\n        /* \"atta-movies/TBC_busd.sol\":12842:12939  if (x & 0x2 > 0) {\r... */\n    tag_406:\n        /* \"atta-movies/TBC_busd.sol\":12967:12968  0 */\n      0x00\n        /* \"atta-movies/TBC_busd.sol\":12961:12964  0x1 */\n      0x01\n        /* \"atta-movies/TBC_busd.sol\":12957:12958  x */\n      dup4\n        /* \"atta-movies/TBC_busd.sol\":12957:12964  x & 0x1 */\n      and\n        /* \"atta-movies/TBC_busd.sol\":12957:12968  x & 0x1 > 0 */\n      gt\n        /* \"atta-movies/TBC_busd.sol\":12953:13050  if (x & 0x1 > 0) {\r... */\n      iszero\n      tag_407\n      jumpi\n        /* \"atta-movies/TBC_busd.sol\":13032:13034  64 */\n      0x40\n        /* \"atta-movies/TBC_busd.sol\":13008:13027  0x10000000000000001 */\n      0x010000000000000001\n        /* \"atta-movies/TBC_busd.sol\":12999:13005  result */\n      dup3\n        /* \"atta-movies/TBC_busd.sol\":12999:13027  result * 0x10000000000000001 */\n      mul\n        /* \"atta-movies/TBC_busd.sol\":12998:13034  (result * 0x10000000000000001) >> 64 */\n      swap1\n      shr\n        /* \"atta-movies/TBC_busd.sol\":12989:13034  result = (result * 0x10000000000000001) >> 64 */\n      swap1\n      pop\n        /* \"atta-movies/TBC_busd.sol\":12953:13050  if (x & 0x1 > 0) {\r... */\n    tag_407:\n        /* \"atta-movies/TBC_busd.sol\":4320:4324  1e18 */\n      0x0de0b6b3a7640000\n        /* \"atta-movies/TBC_busd.sol\":13620:13635  result *= SCALE */\n      dup2\n      mul\n      swap1\n      pop\n        /* \"atta-movies/TBC_busd.sol\":13674:13676  64 */\n      0x40\n        /* \"atta-movies/TBC_busd.sol\":13669:13670  x */\n      dup3\n        /* \"atta-movies/TBC_busd.sol\":13669:13676  x >> 64 */\n      swap1\n      shr\n        /* \"atta-movies/TBC_busd.sol\":13662:13665  191 */\n      0xbf\n        /* \"atta-movies/TBC_busd.sol\":13662:13677  191 - (x >> 64) */\n      sub\n        /* \"atta-movies/TBC_busd.sol\":13650:13678  result >>= (191 - (x >> 64)) */\n      dup2\n      swap1\n      shr\n      swap1\n      pop\n        /* \"atta-movies/TBC_busd.sol\":5012:13697  function exp2(uint256 x) internal pure returns (uint256 result) {\r... */\n      swap2\n      swap1\n      pop\n      jump\t// out\n        /* \"atta-movies/TBC_busd.sol\":14090:14867  function mostSignificantBit(uint256 x) internal pure returns (uint256 msb) {\r... */\n    tag_324:\n        /* \"atta-movies/TBC_busd.sol\":14152:14163  uint256 msb */\n      0x00\n        /* \"atta-movies/TBC_busd.sol\":14185:14191  2**128 */\n      0x0100000000000000000000000000000000\n        /* \"atta-movies/TBC_busd.sol\":14180:14181  x */\n      dup3\n        /* \"atta-movies/TBC_busd.sol\":14180:14191  x >= 2**128 */\n      lt\n        /* \"atta-movies/TBC_busd.sol\":14176:14254  if (x >= 2**128) {\r... */\n      tag_409\n      jumpi\n        /* \"atta-movies/TBC_busd.sol\":14214:14217  128 */\n      0x80\n        /* \"atta-movies/TBC_busd.sol\":14208:14217  x >>= 128 */\n      dup3\n      swap1\n      shr\n      swap2\n      pop\n        /* \"atta-movies/TBC_busd.sol\":14239:14242  128 */\n      0x80\n        /* \"atta-movies/TBC_busd.sol\":14232:14242  msb += 128 */\n      dup2\n      tag_410\n      swap2\n      swap1\n      tag_67\n      jump\t// in\n    tag_410:\n      swap1\n      pop\n        /* \"atta-movies/TBC_busd.sol\":14176:14254  if (x >= 2**128) {\r... */\n    tag_409:\n        /* \"atta-movies/TBC_busd.sol\":14273:14278  2**64 */\n      0x010000000000000000\n        /* \"atta-movies/TBC_busd.sol\":14268:14269  x */\n      dup3\n        /* \"atta-movies/TBC_busd.sol\":14268:14278  x >= 2**64 */\n      lt\n        /* \"atta-movies/TBC_busd.sol\":14264:14339  if (x >= 2**64) {\r... */\n      tag_411\n      jumpi\n        /* \"atta-movies/TBC_busd.sol\":14301:14303  64 */\n      0x40\n        /* \"atta-movies/TBC_busd.sol\":14295:14303  x >>= 64 */\n      dup3\n      swap1\n      shr\n      swap2\n      pop\n        /* \"atta-movies/TBC_busd.sol\":14325:14327  64 */\n      0x40\n        /* \"atta-movies/TBC_busd.sol\":14318:14327  msb += 64 */\n      dup2\n      tag_412\n      swap2\n      swap1\n      tag_67\n      jump\t// in\n    tag_412:\n      swap1\n      pop\n        /* \"atta-movies/TBC_busd.sol\":14264:14339  if (x >= 2**64) {\r... */\n    tag_411:\n        /* \"atta-movies/TBC_busd.sol\":14358:14363  2**32 */\n      0x0100000000\n        /* \"atta-movies/TBC_busd.sol\":14353:14354  x */\n      dup3\n        /* \"atta-movies/TBC_busd.sol\":14353:14363  x >= 2**32 */\n      lt\n        /* \"atta-movies/TBC_busd.sol\":14349:14424  if (x >= 2**32) {\r... */\n      tag_413\n      jumpi\n        /* \"atta-movies/TBC_busd.sol\":14386:14388  32 */\n      0x20\n        /* \"atta-movies/TBC_busd.sol\":14380:14388  x >>= 32 */\n      dup3\n      swap1\n      shr\n      swap2\n      pop\n        /* \"atta-movies/TBC_busd.sol\":14410:14412  32 */\n      0x20\n        /* \"atta-movies/TBC_busd.sol\":14403:14412  msb += 32 */\n      dup2\n      tag_414\n      swap2\n      swap1\n      tag_67\n      jump\t// in\n    tag_414:\n      swap1\n      pop\n        /* \"atta-movies/TBC_busd.sol\":14349:14424  if (x >= 2**32) {\r... */\n    tag_413:\n        /* \"atta-movies/TBC_busd.sol\":14443:14448  2**16 */\n      0x010000\n        /* \"atta-movies/TBC_busd.sol\":14438:14439  x */\n      dup3\n        /* \"atta-movies/TBC_busd.sol\":14438:14448  x >= 2**16 */\n      lt\n        /* \"atta-movies/TBC_busd.sol\":14434:14509  if (x >= 2**16) {\r... */\n      tag_415\n      jumpi\n        /* \"atta-movies/TBC_busd.sol\":14471:14473  16 */\n      0x10\n        /* \"atta-movies/TBC_busd.sol\":14465:14473  x >>= 16 */\n      dup3\n      swap1\n      shr\n      swap2\n      pop\n        /* \"atta-movies/TBC_busd.sol\":14495:14497  16 */\n      0x10\n        /* \"atta-movies/TBC_busd.sol\":14488:14497  msb += 16 */\n      dup2\n      tag_416\n      swap2\n      swap1\n      tag_67\n      jump\t// in\n    tag_416:\n      swap1\n      pop\n        /* \"atta-movies/TBC_busd.sol\":14434:14509  if (x >= 2**16) {\r... */\n    tag_415:\n        /* \"atta-movies/TBC_busd.sol\":14528:14532  2**8 */\n      0x0100\n        /* \"atta-movies/TBC_busd.sol\":14523:14524  x */\n      dup3\n        /* \"atta-movies/TBC_busd.sol\":14523:14532  x >= 2**8 */\n      lt\n        /* \"atta-movies/TBC_busd.sol\":14519:14591  if (x >= 2**8) {\r... */\n      tag_417\n      jumpi\n        /* \"atta-movies/TBC_busd.sol\":14555:14556  8 */\n      0x08\n        /* \"atta-movies/TBC_busd.sol\":14549:14556  x >>= 8 */\n      dup3\n      swap1\n      shr\n      swap2\n      pop\n        /* \"atta-movies/TBC_busd.sol\":14578:14579  8 */\n      0x08\n        /* \"atta-movies/TBC_busd.sol\":14571:14579  msb += 8 */\n      dup2\n      tag_418\n      swap2\n      swap1\n      tag_67\n      jump\t// in\n    tag_418:\n      swap1\n      pop\n        /* \"atta-movies/TBC_busd.sol\":14519:14591  if (x >= 2**8) {\r... */\n    tag_417:\n        /* \"atta-movies/TBC_busd.sol\":14610:14614  2**4 */\n      0x10\n        /* \"atta-movies/TBC_busd.sol\":14605:14606  x */\n      dup3\n        /* \"atta-movies/TBC_busd.sol\":14605:14614  x >= 2**4 */\n      lt\n        /* \"atta-movies/TBC_busd.sol\":14601:14673  if (x >= 2**4) {\r... */\n      tag_419\n      jumpi\n        /* \"atta-movies/TBC_busd.sol\":14637:14638  4 */\n      0x04\n        /* \"atta-movies/TBC_busd.sol\":14631:14638  x >>= 4 */\n      dup3\n      swap1\n      shr\n      swap2\n      pop\n        /* \"atta-movies/TBC_busd.sol\":14660:14661  4 */\n      0x04\n        /* \"atta-movies/TBC_busd.sol\":14653:14661  msb += 4 */\n      dup2\n      tag_420\n      swap2\n      swap1\n      tag_67\n      jump\t// in\n    tag_420:\n      swap1\n      pop\n        /* \"atta-movies/TBC_busd.sol\":14601:14673  if (x >= 2**4) {\r... */\n    tag_419:\n        /* \"atta-movies/TBC_busd.sol\":14692:14696  2**2 */\n      0x04\n        /* \"atta-movies/TBC_busd.sol\":14687:14688  x */\n      dup3\n        /* \"atta-movies/TBC_busd.sol\":14687:14696  x >= 2**2 */\n      lt\n        /* \"atta-movies/TBC_busd.sol\":14683:14755  if (x >= 2**2) {\r... */\n      tag_421\n      jumpi\n        /* \"atta-movies/TBC_busd.sol\":14719:14720  2 */\n      0x02\n        /* \"atta-movies/TBC_busd.sol\":14713:14720  x >>= 2 */\n      dup3\n      swap1\n      shr\n      swap2\n      pop\n        /* \"atta-movies/TBC_busd.sol\":14742:14743  2 */\n      0x02\n        /* \"atta-movies/TBC_busd.sol\":14735:14743  msb += 2 */\n      dup2\n      tag_422\n      swap2\n      swap1\n      tag_67\n      jump\t// in\n    tag_422:\n      swap1\n      pop\n        /* \"atta-movies/TBC_busd.sol\":14683:14755  if (x >= 2**2) {\r... */\n    tag_421:\n        /* \"atta-movies/TBC_busd.sol\":14774:14778  2**1 */\n      0x02\n        /* \"atta-movies/TBC_busd.sol\":14769:14770  x */\n      dup3\n        /* \"atta-movies/TBC_busd.sol\":14769:14778  x >= 2**1 */\n      lt\n        /* \"atta-movies/TBC_busd.sol\":14765:14860  if (x >= 2**1) {\r... */\n      tag_423\n      jumpi\n        /* \"atta-movies/TBC_busd.sol\":14847:14848  1 */\n      0x01\n        /* \"atta-movies/TBC_busd.sol\":14840:14848  msb += 1 */\n      dup2\n      tag_424\n      swap2\n      swap1\n      tag_67\n      jump\t// in\n    tag_424:\n      swap1\n      pop\n        /* \"atta-movies/TBC_busd.sol\":14765:14860  if (x >= 2**1) {\r... */\n    tag_423:\n        /* \"atta-movies/TBC_busd.sol\":14090:14867  function mostSignificantBit(uint256 x) internal pure returns (uint256 msb) {\r... */\n      swap2\n      swap1\n      pop\n      jump\t// out\n        /* \"#utility.yul\":7:144   */\n    tag_426:\n        /* \"#utility.yul\":61:66   */\n      0x00\n        /* \"#utility.yul\":92:98   */\n      dup2\n        /* \"#utility.yul\":86:99   */\n      mload\n        /* \"#utility.yul\":77:99   */\n      swap1\n      pop\n        /* \"#utility.yul\":108:138   */\n      tag_428\n        /* \"#utility.yul\":132:137   */\n      dup2\n        /* \"#utility.yul\":108:138   */\n      tag_429\n      jump\t// in\n    tag_428:\n        /* \"#utility.yul\":7:144   */\n      swap3\n      swap2\n      pop\n      pop\n      jump\t// out\n        /* \"#utility.yul\":150:289   */\n    tag_430:\n        /* \"#utility.yul\":196:201   */\n      0x00\n        /* \"#utility.yul\":234:240   */\n      dup2\n        /* \"#utility.yul\":221:241   */\n      calldataload\n        /* \"#utility.yul\":212:241   */\n      swap1\n      pop\n        /* \"#utility.yul\":250:283   */\n      tag_432\n        /* \"#utility.yul\":277:282   */\n      dup2\n        /* \"#utility.yul\":250:283   */\n      tag_433\n      jump\t// in\n    tag_432:\n        /* \"#utility.yul\":150:289   */\n      swap3\n      swap2\n      pop\n      pop\n      jump\t// out\n        /* \"#utility.yul\":295:438   */\n    tag_434:\n        /* \"#utility.yul\":352:357   */\n      0x00\n        /* \"#utility.yul\":383:389   */\n      dup2\n        /* \"#utility.yul\":377:390   */\n      mload\n        /* \"#utility.yul\":368:390   */\n      swap1\n      pop\n        /* \"#utility.yul\":399:432   */\n      tag_436\n        /* \"#utility.yul\":426:431   */\n      dup2\n        /* \"#utility.yul\":399:432   */\n      tag_433\n      jump\t// in\n    tag_436:\n        /* \"#utility.yul\":295:438   */\n      swap3\n      swap2\n      pop\n      pop\n      jump\t// out\n        /* \"#utility.yul\":444:789   */\n    tag_114:\n        /* \"#utility.yul\":511:517   */\n      0x00\n        /* \"#utility.yul\":560:562   */\n      0x20\n        /* \"#utility.yul\":548:557   */\n      dup3\n        /* \"#utility.yul\":539:546   */\n      dup5\n        /* \"#utility.yul\":535:558   */\n      sub\n        /* \"#utility.yul\":531:563   */\n      slt\n        /* \"#utility.yul\":528:647   */\n      iszero\n      tag_438\n      jumpi\n        /* \"#utility.yul\":566:645   */\n      tag_439\n      tag_440\n      jump\t// in\n    tag_439:\n        /* \"#utility.yul\":528:647   */\n    tag_438:\n        /* \"#utility.yul\":686:687   */\n      0x00\n        /* \"#utility.yul\":711:772   */\n      tag_441\n        /* \"#utility.yul\":764:771   */\n      dup5\n        /* \"#utility.yul\":755:761   */\n      dup3\n        /* \"#utility.yul\":744:753   */\n      dup6\n        /* \"#utility.yul\":740:762   */\n      add\n        /* \"#utility.yul\":711:772   */\n      tag_426\n      jump\t// in\n    tag_441:\n        /* \"#utility.yul\":701:772   */\n      swap2\n      pop\n        /* \"#utility.yul\":657:782   */\n      pop\n        /* \"#utility.yul\":444:789   */\n      swap3\n      swap2\n      pop\n      pop\n      jump\t// out\n        /* \"#utility.yul\":795:1124   */\n    tag_17:\n        /* \"#utility.yul\":854:860   */\n      0x00\n        /* \"#utility.yul\":903:905   */\n      0x20\n        /* \"#utility.yul\":891:900   */\n      dup3\n        /* \"#utility.yul\":882:889   */\n      dup5\n        /* \"#utility.yul\":878:901   */\n      sub\n        /* \"#utility.yul\":874:906   */\n      slt\n        /* \"#utility.yul\":871:990   */\n      iszero\n      tag_443\n      jumpi\n        /* \"#utility.yul\":909:988   */\n      tag_444\n      tag_440\n      jump\t// in\n    tag_444:\n        /* \"#utility.yul\":871:990   */\n    tag_443:\n        /* \"#utility.yul\":1029:1030   */\n      0x00\n        /* \"#utility.yul\":1054:1107   */\n      tag_445\n        /* \"#utility.yul\":1099:1106   */\n      dup5\n        /* \"#utility.yul\":1090:1096   */\n      dup3\n        /* \"#utility.yul\":1079:1088   */\n      dup6\n        /* \"#utility.yul\":1075:1097   */\n      add\n        /* \"#utility.yul\":1054:1107   */\n      tag_430\n      jump\t// in\n    tag_445:\n        /* \"#utility.yul\":1044:1107   */\n      swap2\n      pop\n        /* \"#utility.yul\":1000:1117   */\n      pop\n        /* \"#utility.yul\":795:1124   */\n      swap3\n      swap2\n      pop\n      pop\n      jump\t// out\n        /* \"#utility.yul\":1130:1481   */\n    tag_80:\n        /* \"#utility.yul\":1200:1206   */\n      0x00\n        /* \"#utility.yul\":1249:1251   */\n      0x20\n        /* \"#utility.yul\":1237:1246   */\n      dup3\n        /* \"#utility.yul\":1228:1235   */\n      dup5\n        /* \"#utility.yul\":1224:1247   */\n      sub\n        /* \"#utility.yul\":1220:1252   */\n      slt\n        /* \"#utility.yul\":1217:1336   */\n      iszero\n      tag_447\n      jumpi\n        /* \"#utility.yul\":1255:1334   */\n      tag_448\n      tag_440\n      jump\t// in\n    tag_448:\n        /* \"#utility.yul\":1217:1336   */\n    tag_447:\n        /* \"#utility.yul\":1375:1376   */\n      0x00\n        /* \"#utility.yul\":1400:1464   */\n      tag_449\n        /* \"#utility.yul\":1456:1463   */\n      dup5\n        /* \"#utility.yul\":1447:1453   */\n      dup3\n        /* \"#utility.yul\":1436:1445   */\n      dup6\n        /* \"#utility.yul\":1432:1454   */\n      add\n        /* \"#utility.yul\":1400:1464   */\n      tag_434\n      jump\t// in\n    tag_449:\n        /* \"#utility.yul\":1390:1464   */\n      swap2\n      pop\n        /* \"#utility.yul\":1346:1474   */\n      pop\n        /* \"#utility.yul\":1130:1481   */\n      swap3\n      swap2\n      pop\n      pop\n      jump\t// out\n        /* \"#utility.yul\":1487:1605   */\n    tag_450:\n        /* \"#utility.yul\":1574:1598   */\n      tag_452\n        /* \"#utility.yul\":1592:1597   */\n      dup2\n        /* \"#utility.yul\":1574:1598   */\n      tag_453\n      jump\t// in\n    tag_452:\n        /* \"#utility.yul\":1569:1572   */\n      dup3\n        /* \"#utility.yul\":1562:1599   */\n      mstore\n        /* \"#utility.yul\":1487:1605   */\n      pop\n      pop\n      jump\t// out\n        /* \"#utility.yul\":1611:1975   */\n    tag_454:\n        /* \"#utility.yul\":1699:1702   */\n      0x00\n        /* \"#utility.yul\":1727:1766   */\n      tag_456\n        /* \"#utility.yul\":1760:1765   */\n      dup3\n        /* \"#utility.yul\":1727:1766   */\n      tag_457\n      jump\t// in\n    tag_456:\n        /* \"#utility.yul\":1782:1853   */\n      tag_458\n        /* \"#utility.yul\":1846:1852   */\n      dup2\n        /* \"#utility.yul\":1841:1844   */\n      dup6\n        /* \"#utility.yul\":1782:1853   */\n      tag_459\n      jump\t// in\n    tag_458:\n        /* \"#utility.yul\":1775:1853   */\n      swap4\n      pop\n        /* \"#utility.yul\":1862:1914   */\n      tag_460\n        /* \"#utility.yul\":1907:1913   */\n      dup2\n        /* \"#utility.yul\":1902:1905   */\n      dup6\n        /* \"#utility.yul\":1895:1899   */\n      0x20\n        /* \"#utility.yul\":1888:1893   */\n      dup7\n        /* \"#utility.yul\":1884:1900   */\n      add\n        /* \"#utility.yul\":1862:1914   */\n      tag_461\n      jump\t// in\n    tag_460:\n        /* \"#utility.yul\":1939:1968   */\n      tag_462\n        /* \"#utility.yul\":1961:1967   */\n      dup2\n        /* \"#utility.yul\":1939:1968   */\n      tag_463\n      jump\t// in\n    tag_462:\n        /* \"#utility.yul\":1934:1937   */\n      dup5\n        /* \"#utility.yul\":1930:1969   */\n      add\n        /* \"#utility.yul\":1923:1969   */\n      swap2\n      pop\n        /* \"#utility.yul\":1703:1975   */\n      pop\n        /* \"#utility.yul\":1611:1975   */\n      swap3\n      swap2\n      pop\n      pop\n      jump\t// out\n        /* \"#utility.yul\":1981:2347   */\n    tag_464:\n        /* \"#utility.yul\":2123:2126   */\n      0x00\n        /* \"#utility.yul\":2144:2211   */\n      tag_466\n        /* \"#utility.yul\":2208:2210   */\n      0x1b\n        /* \"#utility.yul\":2203:2206   */\n      dup4\n        /* \"#utility.yul\":2144:2211   */\n      tag_459\n      jump\t// in\n    tag_466:\n        /* \"#utility.yul\":2137:2211   */\n      swap2\n      pop\n        /* \"#utility.yul\":2220:2313   */\n      tag_467\n        /* \"#utility.yul\":2309:2312   */\n      dup3\n        /* \"#utility.yul\":2220:2313   */\n      tag_468\n      jump\t// in\n    tag_467:\n        /* \"#utility.yul\":2338:2340   */\n      0x20\n        /* \"#utility.yul\":2333:2336   */\n      dup3\n        /* \"#utility.yul\":2329:2341   */\n      add\n        /* \"#utility.yul\":2322:2341   */\n      swap1\n      pop\n        /* \"#utility.yul\":1981:2347   */\n      swap2\n      swap1\n      pop\n      jump\t// out\n        /* \"#utility.yul\":2353:2719   */\n    tag_469:\n        /* \"#utility.yul\":2495:2498   */\n      0x00\n        /* \"#utility.yul\":2516:2583   */\n      tag_471\n        /* \"#utility.yul\":2580:2582   */\n      0x21\n        /* \"#utility.yul\":2575:2578   */\n      dup4\n        /* \"#utility.yul\":2516:2583   */\n      tag_459\n      jump\t// in\n    tag_471:\n        /* \"#utility.yul\":2509:2583   */\n      swap2\n      pop\n        /* \"#utility.yul\":2592:2685   */\n      tag_472\n        /* \"#utility.yul\":2681:2684   */\n      dup3\n        /* \"#utility.yul\":2592:2685   */\n      tag_473\n      jump\t// in\n    tag_472:\n        /* \"#utility.yul\":2710:2712   */\n      0x40\n        /* \"#utility.yul\":2705:2708   */\n      dup3\n        /* \"#utility.yul\":2701:2713   */\n      add\n        /* \"#utility.yul\":2694:2713   */\n      swap1\n      pop\n        /* \"#utility.yul\":2353:2719   */\n      swap2\n      swap1\n      pop\n      jump\t// out\n        /* \"#utility.yul\":2725:3091   */\n    tag_474:\n        /* \"#utility.yul\":2867:2870   */\n      0x00\n        /* \"#utility.yul\":2888:2955   */\n      tag_476\n        /* \"#utility.yul\":2952:2954   */\n      0x11\n        /* \"#utility.yul\":2947:2950   */\n      dup4\n        /* \"#utility.yul\":2888:2955   */\n      tag_459\n      jump\t// in\n    tag_476:\n        /* \"#utility.yul\":2881:2955   */\n      swap2\n      pop\n        /* \"#utility.yul\":2964:3057   */\n      tag_477\n        /* \"#utility.yul\":3053:3056   */\n      dup3\n        /* \"#utility.yul\":2964:3057   */\n      tag_478\n      jump\t// in\n    tag_477:\n        /* \"#utility.yul\":3082:3084   */\n      0x20\n        /* \"#utility.yul\":3077:3080   */\n      dup3\n        /* \"#utility.yul\":3073:3085   */\n      add\n        /* \"#utility.yul\":3066:3085   */\n      swap1\n      pop\n        /* \"#utility.yul\":2725:3091   */\n      swap2\n      swap1\n      pop\n      jump\t// out\n        /* \"#utility.yul\":3097:3215   */\n    tag_479:\n        /* \"#utility.yul\":3184:3208   */\n      tag_481\n        /* \"#utility.yul\":3202:3207   */\n      dup2\n        /* \"#utility.yul\":3184:3208   */\n      tag_482\n      jump\t// in\n    tag_481:\n        /* \"#utility.yul\":3179:3182   */\n      dup3\n        /* \"#utility.yul\":3172:3209   */\n      mstore\n        /* \"#utility.yul\":3097:3215   */\n      pop\n      pop\n      jump\t// out\n        /* \"#utility.yul\":3221:3443   */\n    tag_247:\n        /* \"#utility.yul\":3314:3318   */\n      0x00\n        /* \"#utility.yul\":3352:3354   */\n      0x20\n        /* \"#utility.yul\":3341:3350   */\n      dup3\n        /* \"#utility.yul\":3337:3355   */\n      add\n        /* \"#utility.yul\":3329:3355   */\n      swap1\n      pop\n        /* \"#utility.yul\":3365:3436   */\n      tag_484\n        /* \"#utility.yul\":3433:3434   */\n      0x00\n        /* \"#utility.yul\":3422:3431   */\n      dup4\n        /* \"#utility.yul\":3418:3435   */\n      add\n        /* \"#utility.yul\":3409:3415   */\n      dup5\n        /* \"#utility.yul\":3365:3436   */\n      tag_450\n      jump\t// in\n    tag_484:\n        /* \"#utility.yul\":3221:3443   */\n      swap3\n      swap2\n      pop\n      pop\n      jump\t// out\n        /* \"#utility.yul\":3449:3891   */\n    tag_109:\n        /* \"#utility.yul\":3598:3602   */\n      0x00\n        /* \"#utility.yul\":3636:3638   */\n      0x60\n        /* \"#utility.yul\":3625:3634   */\n      dup3\n        /* \"#utility.yul\":3621:3639   */\n      add\n        /* \"#utility.yul\":3613:3639   */\n      swap1\n      pop\n        /* \"#utility.yul\":3649:3720   */\n      tag_486\n        /* \"#utility.yul\":3717:3718   */\n      0x00\n        /* \"#utility.yul\":3706:3715   */\n      dup4\n        /* \"#utility.yul\":3702:3719   */\n      add\n        /* \"#utility.yul\":3693:3699   */\n      dup7\n        /* \"#utility.yul\":3649:3720   */\n      tag_450\n      jump\t// in\n    tag_486:\n        /* \"#utility.yul\":3730:3802   */\n      tag_487\n        /* \"#utility.yul\":3798:3800   */\n      0x20\n        /* \"#utility.yul\":3787:3796   */\n      dup4\n        /* \"#utility.yul\":3783:3801   */\n      add\n        /* \"#utility.yul\":3774:3780   */\n      dup6\n        /* \"#utility.yul\":3730:3802   */\n      tag_450\n      jump\t// in\n    tag_487:\n        /* \"#utility.yul\":3812:3884   */\n      tag_488\n        /* \"#utility.yul\":3880:3882   */\n      0x40\n        /* \"#utility.yul\":3869:3878   */\n      dup4\n        /* \"#utility.yul\":3865:3883   */\n      add\n        /* \"#utility.yul\":3856:3862   */\n      dup5\n        /* \"#utility.yul\":3812:3884   */\n      tag_479\n      jump\t// in\n    tag_488:\n        /* \"#utility.yul\":3449:3891   */\n      swap5\n      swap4\n      pop\n      pop\n      pop\n      pop\n      jump\t// out\n        /* \"#utility.yul\":3897:4229   */\n    tag_117:\n        /* \"#utility.yul\":4018:4022   */\n      0x00\n        /* \"#utility.yul\":4056:4058   */\n      0x40\n        /* \"#utility.yul\":4045:4054   */\n      dup3\n        /* \"#utility.yul\":4041:4059   */\n      add\n        /* \"#utility.yul\":4033:4059   */\n      swap1\n      pop\n        /* \"#utility.yul\":4069:4140   */\n      tag_490\n        /* \"#utility.yul\":4137:4138   */\n      0x00\n        /* \"#utility.yul\":4126:4135   */\n      dup4\n        /* \"#utility.yul\":4122:4139   */\n      add\n        /* \"#utility.yul\":4113:4119   */\n      dup6\n        /* \"#utility.yul\":4069:4140   */\n      tag_450\n      jump\t// in\n    tag_490:\n        /* \"#utility.yul\":4150:4222   */\n      tag_491\n        /* \"#utility.yul\":4218:4220   */\n      0x20\n        /* \"#utility.yul\":4207:4216   */\n      dup4\n        /* \"#utility.yul\":4203:4221   */\n      add\n        /* \"#utility.yul\":4194:4200   */\n      dup5\n        /* \"#utility.yul\":4150:4222   */\n      tag_479\n      jump\t// in\n    tag_491:\n        /* \"#utility.yul\":3897:4229   */\n      swap4\n      swap3\n      pop\n      pop\n      pop\n      jump\t// out\n        /* \"#utility.yul\":4235:4548   */\n    tag_302:\n        /* \"#utility.yul\":4348:4352   */\n      0x00\n        /* \"#utility.yul\":4386:4388   */\n      0x20\n        /* \"#utility.yul\":4375:4384   */\n      dup3\n        /* \"#utility.yul\":4371:4389   */\n      add\n        /* \"#utility.yul\":4363:4389   */\n      swap1\n      pop\n        /* \"#utility.yul\":4435:4444   */\n      dup2\n        /* \"#utility.yul\":4429:4433   */\n      dup2\n        /* \"#utility.yul\":4425:4445   */\n      sub\n        /* \"#utility.yul\":4421:4422   */\n      0x00\n        /* \"#utility.yul\":4410:4419   */\n      dup4\n        /* \"#utility.yul\":4406:4423   */\n      add\n        /* \"#utility.yul\":4399:4446   */\n      mstore\n        /* \"#utility.yul\":4463:4541   */\n      tag_493\n        /* \"#utility.yul\":4536:4540   */\n      dup2\n        /* \"#utility.yul\":4527:4533   */\n      dup5\n        /* \"#utility.yul\":4463:4541   */\n      tag_454\n      jump\t// in\n    tag_493:\n        /* \"#utility.yul\":4455:4541   */\n      swap1\n      pop\n        /* \"#utility.yul\":4235:4548   */\n      swap3\n      swap2\n      pop\n      pop\n      jump\t// out\n        /* \"#utility.yul\":4554:4973   */\n    tag_294:\n        /* \"#utility.yul\":4720:4724   */\n      0x00\n        /* \"#utility.yul\":4758:4760   */\n      0x20\n        /* \"#utility.yul\":4747:4756   */\n      dup3\n        /* \"#utility.yul\":4743:4761   */\n      add\n        /* \"#utility.yul\":4735:4761   */\n      swap1\n      pop\n        /* \"#utility.yul\":4807:4816   */\n      dup2\n        /* \"#utility.yul\":4801:4805   */\n      dup2\n        /* \"#utility.yul\":4797:4817   */\n      sub\n        /* \"#utility.yul\":4793:4794   */\n      0x00\n        /* \"#utility.yul\":4782:4791   */\n      dup4\n        /* \"#utility.yul\":4778:4795   */\n      add\n        /* \"#utility.yul\":4771:4818   */\n      mstore\n        /* \"#utility.yul\":4835:4966   */\n      tag_495\n        /* \"#utility.yul\":4961:4965   */\n      dup2\n        /* \"#utility.yul\":4835:4966   */\n      tag_464\n      jump\t// in\n    tag_495:\n        /* \"#utility.yul\":4827:4966   */\n      swap1\n      pop\n        /* \"#utility.yul\":4554:4973   */\n      swap2\n      swap1\n      pop\n      jump\t// out\n        /* \"#utility.yul\":4979:5398   */\n    tag_267:\n        /* \"#utility.yul\":5145:5149   */\n      0x00\n        /* \"#utility.yul\":5183:5185   */\n      0x20\n        /* \"#utility.yul\":5172:5181   */\n      dup3\n        /* \"#utility.yul\":5168:5186   */\n      add\n        /* \"#utility.yul\":5160:5186   */\n      swap1\n      pop\n        /* \"#utility.yul\":5232:5241   */\n      dup2\n        /* \"#utility.yul\":5226:5230   */\n      dup2\n        /* \"#utility.yul\":5222:5242   */\n      sub\n        /* \"#utility.yul\":5218:5219   */\n      0x00\n        /* \"#utility.yul\":5207:5216   */\n      dup4\n        /* \"#utility.yul\":5203:5220   */\n      add\n        /* \"#utility.yul\":5196:5243   */\n      mstore\n        /* \"#utility.yul\":5260:5391   */\n      tag_497\n        /* \"#utility.yul\":5386:5390   */\n      dup2\n        /* \"#utility.yul\":5260:5391   */\n      tag_469\n      jump\t// in\n    tag_497:\n        /* \"#utility.yul\":5252:5391   */\n      swap1\n      pop\n        /* \"#utility.yul\":4979:5398   */\n      swap2\n      swap1\n      pop\n      jump\t// out\n        /* \"#utility.yul\":5404:5823   */\n    tag_242:\n        /* \"#utility.yul\":5570:5574   */\n      0x00\n        /* \"#utility.yul\":5608:5610   */\n      0x20\n        /* \"#utility.yul\":5597:5606   */\n      dup3\n        /* \"#utility.yul\":5593:5611   */\n      add\n        /* \"#utility.yul\":5585:5611   */\n      swap1\n      pop\n        /* \"#utility.yul\":5657:5666   */\n      dup2\n        /* \"#utility.yul\":5651:5655   */\n      dup2\n        /* \"#utility.yul\":5647:5667   */\n      sub\n        /* \"#utility.yul\":5643:5644   */\n      0x00\n        /* \"#utility.yul\":5632:5641   */\n      dup4\n        /* \"#utility.yul\":5628:5645   */\n      add\n        /* \"#utility.yul\":5621:5668   */\n      mstore\n        /* \"#utility.yul\":5685:5816   */\n      tag_499\n        /* \"#utility.yul\":5811:5815   */\n      dup2\n        /* \"#utility.yul\":5685:5816   */\n      tag_474\n      jump\t// in\n    tag_499:\n        /* \"#utility.yul\":5677:5816   */\n      swap1\n      pop\n        /* \"#utility.yul\":5404:5823   */\n      swap2\n      swap1\n      pop\n      jump\t// out\n        /* \"#utility.yul\":5829:6051   */\n    tag_20:\n        /* \"#utility.yul\":5922:5926   */\n      0x00\n        /* \"#utility.yul\":5960:5962   */\n      0x20\n        /* \"#utility.yul\":5949:5958   */\n      dup3\n        /* \"#utility.yul\":5945:5963   */\n      add\n        /* \"#utility.yul\":5937:5963   */\n      swap1\n      pop\n        /* \"#utility.yul\":5973:6044   */\n      tag_501\n        /* \"#utility.yul\":6041:6042   */\n      0x00\n        /* \"#utility.yul\":6030:6039   */\n      dup4\n        /* \"#utility.yul\":6026:6043   */\n      add\n        /* \"#utility.yul\":6017:6023   */\n      dup5\n        /* \"#utility.yul\":5973:6044   */\n      tag_479\n      jump\t// in\n    tag_501:\n        /* \"#utility.yul\":5829:6051   */\n      swap3\n      swap2\n      pop\n      pop\n      jump\t// out\n        /* \"#utility.yul\":6057:6389   */\n    tag_317:\n        /* \"#utility.yul\":6178:6182   */\n      0x00\n        /* \"#utility.yul\":6216:6218   */\n      0x40\n        /* \"#utility.yul\":6205:6214   */\n      dup3\n        /* \"#utility.yul\":6201:6219   */\n      add\n        /* \"#utility.yul\":6193:6219   */\n      swap1\n      pop\n        /* \"#utility.yul\":6229:6300   */\n      tag_503\n        /* \"#utility.yul\":6297:6298   */\n      0x00\n        /* \"#utility.yul\":6286:6295   */\n      dup4\n        /* \"#utility.yul\":6282:6299   */\n      add\n        /* \"#utility.yul\":6273:6279   */\n      dup6\n        /* \"#utility.yul\":6229:6300   */\n      tag_479\n      jump\t// in\n    tag_503:\n        /* \"#utility.yul\":6310:6382   */\n      tag_504\n        /* \"#utility.yul\":6378:6380   */\n      0x20\n        /* \"#utility.yul\":6367:6376   */\n      dup4\n        /* \"#utility.yul\":6363:6381   */\n      add\n        /* \"#utility.yul\":6354:6360   */\n      dup5\n        /* \"#utility.yul\":6310:6382   */\n      tag_479\n      jump\t// in\n    tag_504:\n        /* \"#utility.yul\":6057:6389   */\n      swap4\n      swap3\n      pop\n      pop\n      pop\n      jump\t// out\n        /* \"#utility.yul\":6476:6575   */\n    tag_457:\n        /* \"#utility.yul\":6528:6534   */\n      0x00\n        /* \"#utility.yul\":6562:6567   */\n      dup2\n        /* \"#utility.yul\":6556:6568   */\n      mload\n        /* \"#utility.yul\":6546:6568   */\n      swap1\n      pop\n        /* \"#utility.yul\":6476:6575   */\n      swap2\n      swap1\n      pop\n      jump\t// out\n        /* \"#utility.yul\":6581:6750   */\n    tag_459:\n        /* \"#utility.yul\":6665:6676   */\n      0x00\n        /* \"#utility.yul\":6699:6705   */\n      dup3\n        /* \"#utility.yul\":6694:6697   */\n      dup3\n        /* \"#utility.yul\":6687:6706   */\n      mstore\n        /* \"#utility.yul\":6739:6743   */\n      0x20\n        /* \"#utility.yul\":6734:6737   */\n      dup3\n        /* \"#utility.yul\":6730:6744   */\n      add\n        /* \"#utility.yul\":6715:6744   */\n      swap1\n      pop\n        /* \"#utility.yul\":6581:6750   */\n      swap3\n      swap2\n      pop\n      pop\n      jump\t// out\n        /* \"#utility.yul\":6756:7061   */\n    tag_67:\n        /* \"#utility.yul\":6796:6799   */\n      0x00\n        /* \"#utility.yul\":6815:6835   */\n      tag_510\n        /* \"#utility.yul\":6833:6834   */\n      dup3\n        /* \"#utility.yul\":6815:6835   */\n      tag_482\n      jump\t// in\n    tag_510:\n        /* \"#utility.yul\":6810:6835   */\n      swap2\n      pop\n        /* \"#utility.yul\":6849:6869   */\n      tag_511\n        /* \"#utility.yul\":6867:6868   */\n      dup4\n        /* \"#utility.yul\":6849:6869   */\n      tag_482\n      jump\t// in\n    tag_511:\n        /* \"#utility.yul\":6844:6869   */\n      swap3\n      pop\n        /* \"#utility.yul\":7003:7004   */\n      dup3\n        /* \"#utility.yul\":6935:7001   */\n      0xffffffffffffffffffffffffffffffffffffffffffffffffffffffffffffffff\n        /* \"#utility.yul\":6931:7005   */\n      sub\n        /* \"#utility.yul\":6928:6929   */\n      dup3\n        /* \"#utility.yul\":6925:7006   */\n      gt\n        /* \"#utility.yul\":6922:7029   */\n      iszero\n      tag_512\n      jumpi\n        /* \"#utility.yul\":7009:7027   */\n      tag_513\n      tag_514\n      jump\t// in\n    tag_513:\n        /* \"#utility.yul\":6922:7029   */\n    tag_512:\n        /* \"#utility.yul\":7053:7054   */\n      dup3\n        /* \"#utility.yul\":7050:7051   */\n      dup3\n        /* \"#utility.yul\":7046:7055   */\n      add\n        /* \"#utility.yul\":7039:7055   */\n      swap1\n      pop\n        /* \"#utility.yul\":6756:7061   */\n      swap3\n      swap2\n      pop\n      pop\n      jump\t// out\n        /* \"#utility.yul\":7067:7252   */\n    tag_264:\n        /* \"#utility.yul\":7107:7108   */\n      0x00\n        /* \"#utility.yul\":7124:7144   */\n      tag_516\n        /* \"#utility.yul\":7142:7143   */\n      dup3\n        /* \"#utility.yul\":7124:7144   */\n      tag_482\n      jump\t// in\n    tag_516:\n        /* \"#utility.yul\":7119:7144   */\n      swap2\n      pop\n        /* \"#utility.yul\":7158:7178   */\n      tag_517\n        /* \"#utility.yul\":7176:7177   */\n      dup4\n        /* \"#utility.yul\":7158:7178   */\n      tag_482\n      jump\t// in\n    tag_517:\n        /* \"#utility.yul\":7153:7178   */\n      swap3\n      pop\n        /* \"#utility.yul\":7197:7198   */\n      dup3\n        /* \"#utility.yul\":7187:7222   */\n      tag_518\n      jumpi\n        /* \"#utility.yul\":7202:7220   */\n      tag_519\n      tag_277\n      jump\t// in\n    tag_519:\n        /* \"#utility.yul\":7187:7222   */\n    tag_518:\n        /* \"#utility.yul\":7244:7245   */\n      dup3\n        /* \"#utility.yul\":7241:7242   */\n      dup3\n        /* \"#utility.yul\":7237:7246   */\n      div\n        /* \"#utility.yul\":7232:7246   */\n      swap1\n      pop\n        /* \"#utility.yul\":7067:7252   */\n      swap3\n      swap2\n      pop\n      pop\n      jump\t// out\n        /* \"#utility.yul\":7258:7606   */\n    tag_262:\n        /* \"#utility.yul\":7298:7305   */\n      0x00\n        /* \"#utility.yul\":7321:7341   */\n      tag_521\n        /* \"#utility.yul\":7339:7340   */\n      dup3\n        /* \"#utility.yul\":7321:7341   */\n      tag_482\n      jump\t// in\n    tag_521:\n        /* \"#utility.yul\":7316:7341   */\n      swap2\n      pop\n        /* \"#utility.yul\":7355:7375   */\n      tag_522\n        /* \"#utility.yul\":7373:7374   */\n      dup4\n        /* \"#utility.yul\":7355:7375   */\n      tag_482\n      jump\t// in\n    tag_522:\n        /* \"#utility.yul\":7350:7375   */\n      swap3\n      pop\n        /* \"#utility.yul\":7543:7544   */\n      dup2\n        /* \"#utility.yul\":7475:7541   */\n      0xffffffffffffffffffffffffffffffffffffffffffffffffffffffffffffffff\n        /* \"#utility.yul\":7471:7545   */\n      div\n        /* \"#utility.yul\":7468:7469   */\n      dup4\n        /* \"#utility.yul\":7465:7546   */\n      gt\n        /* \"#utility.yul\":7460:7461   */\n      dup3\n        /* \"#utility.yul\":7453:7462   */\n      iszero\n        /* \"#utility.yul\":7446:7463   */\n      iszero\n        /* \"#utility.yul\":7442:7547   */\n      and\n        /* \"#utility.yul\":7439:7570   */\n      iszero\n      tag_523\n      jumpi\n        /* \"#utility.yul\":7550:7568   */\n      tag_524\n      tag_514\n      jump\t// in\n    tag_524:\n        /* \"#utility.yul\":7439:7570   */\n    tag_523:\n        /* \"#utility.yul\":7598:7599   */\n      dup3\n        /* \"#utility.yul\":7595:7596   */\n      dup3\n        /* \"#utility.yul\":7591:7600   */\n      mul\n        /* \"#utility.yul\":7580:7600   */\n      swap1\n      pop\n        /* \"#utility.yul\":7258:7606   */\n      swap3\n      swap2\n      pop\n      pop\n      jump\t// out\n        /* \"#utility.yul\":7612:7803   */\n    tag_342:\n        /* \"#utility.yul\":7652:7656   */\n      0x00\n        /* \"#utility.yul\":7672:7692   */\n      tag_526\n        /* \"#utility.yul\":7690:7691   */\n      dup3\n        /* \"#utility.yul\":7672:7692   */\n      tag_482\n      jump\t// in\n    tag_526:\n        /* \"#utility.yul\":7667:7692   */\n      swap2\n      pop\n        /* \"#utility.yul\":7706:7726   */\n      tag_527\n        /* \"#utility.yul\":7724:7725   */\n      dup4\n        /* \"#utility.yul\":7706:7726   */\n      tag_482\n      jump\t// in\n    tag_527:\n        /* \"#utility.yul\":7701:7726   */\n      swap3\n      pop\n        /* \"#utility.yul\":7745:7746   */\n      dup3\n        /* \"#utility.yul\":7742:7743   */\n      dup3\n        /* \"#utility.yul\":7739:7747   */\n      lt\n        /* \"#utility.yul\":7736:7770   */\n      iszero\n      tag_528\n      jumpi\n        /* \"#utility.yul\":7750:7768   */\n      tag_529\n      tag_514\n      jump\t// in\n    tag_529:\n        /* \"#utility.yul\":7736:7770   */\n    tag_528:\n        /* \"#utility.yul\":7795:7796   */\n      dup3\n        /* \"#utility.yul\":7792:7793   */\n      dup3\n        /* \"#utility.yul\":7788:7797   */\n      sub\n        /* \"#utility.yul\":7780:7797   */\n      swap1\n      pop\n        /* \"#utility.yul\":7612:7803   */\n      swap3\n      swap2\n      pop\n      pop\n      jump\t// out\n        /* \"#utility.yul\":7809:7905   */\n    tag_453:\n        /* \"#utility.yul\":7846:7853   */\n      0x00\n        /* \"#utility.yul\":7875:7899   */\n      tag_531\n        /* \"#utility.yul\":7893:7898   */\n      dup3\n        /* \"#utility.yul\":7875:7899   */\n      tag_532\n      jump\t// in\n    tag_531:\n        /* \"#utility.yul\":7864:7899   */\n      swap1\n      pop\n        /* \"#utility.yul\":7809:7905   */\n      swap2\n      swap1\n      pop\n      jump\t// out\n        /* \"#utility.yul\":7911:8001   */\n    tag_533:\n        /* \"#utility.yul\":7945:7952   */\n      0x00\n        /* \"#utility.yul\":7988:7993   */\n      dup2\n        /* \"#utility.yul\":7981:7994   */\n      iszero\n        /* \"#utility.yul\":7974:7995   */\n      iszero\n        /* \"#utility.yul\":7963:7995   */\n      swap1\n      pop\n        /* \"#utility.yul\":7911:8001   */\n      swap2\n      swap1\n      pop\n      jump\t// out\n        /* \"#utility.yul\":8007:8133   */\n    tag_532:\n        /* \"#utility.yul\":8044:8051   */\n      0x00\n        /* \"#utility.yul\":8084:8126   */\n      0xffffffffffffffffffffffffffffffffffffffff\n        /* \"#utility.yul\":8077:8082   */\n      dup3\n        /* \"#utility.yul\":8073:8127   */\n      and\n        /* \"#utility.yul\":8062:8127   */\n      swap1\n      pop\n        /* \"#utility.yul\":8007:8133   */\n      swap2\n      swap1\n      pop\n      jump\t// out\n        /* \"#utility.yul\":8139:8216   */\n    tag_482:\n        /* \"#utility.yul\":8176:8183   */\n      0x00\n        /* \"#utility.yul\":8205:8210   */\n      dup2\n        /* \"#utility.yul\":8194:8210   */\n      swap1\n      pop\n        /* \"#utility.yul\":8139:8216   */\n      swap2\n      swap1\n      pop\n      jump\t// out\n        /* \"#utility.yul\":8222:8529   */\n    tag_461:\n        /* \"#utility.yul\":8290:8291   */\n      0x00\n        /* \"#utility.yul\":8300:8413   */\n    tag_538:\n        /* \"#utility.yul\":8314:8320   */\n      dup4\n        /* \"#utility.yul\":8311:8312   */\n      dup2\n        /* \"#utility.yul\":8308:8321   */\n      lt\n        /* \"#utility.yul\":8300:8413   */\n      iszero\n      tag_540\n      jumpi\n        /* \"#utility.yul\":8399:8400   */\n      dup1\n        /* \"#utility.yul\":8394:8397   */\n      dup3\n        /* \"#utility.yul\":8390:8401   */\n      add\n        /* \"#utility.yul\":8384:8402   */\n      mload\n        /* \"#utility.yul\":8380:8381   */\n      dup2\n        /* \"#utility.yul\":8375:8378   */\n      dup5\n        /* \"#utility.yul\":8371:8382   */\n      add\n        /* \"#utility.yul\":8364:8403   */\n      mstore\n        /* \"#utility.yul\":8336:8338   */\n      0x20\n        /* \"#utility.yul\":8333:8334   */\n      dup2\n        /* \"#utility.yul\":8329:8339   */\n      add\n        /* \"#utility.yul\":8324:8339   */\n      swap1\n      pop\n        /* \"#utility.yul\":8300:8413   */\n      jump(tag_538)\n    tag_540:\n        /* \"#utility.yul\":8431:8437   */\n      dup4\n        /* \"#utility.yul\":8428:8429   */\n      dup2\n        /* \"#utility.yul\":8425:8438   */\n      gt\n        /* \"#utility.yul\":8422:8523   */\n      iszero\n      tag_541\n      jumpi\n        /* \"#utility.yul\":8511:8512   */\n      0x00\n        /* \"#utility.yul\":8502:8508   */\n      dup5\n        /* \"#utility.yul\":8497:8500   */\n      dup5\n        /* \"#utility.yul\":8493:8509   */\n      add\n        /* \"#utility.yul\":8486:8513   */\n      mstore\n        /* \"#utility.yul\":8422:8523   */\n    tag_541:\n        /* \"#utility.yul\":8271:8529   */\n      pop\n        /* \"#utility.yul\":8222:8529   */\n      pop\n      pop\n      pop\n      jump\t// out\n        /* \"#utility.yul\":8535:8715   */\n    tag_514:\n        /* \"#utility.yul\":8583:8660   */\n      0x4e487b7100000000000000000000000000000000000000000000000000000000\n        /* \"#utility.yul\":8580:8581   */\n      0x00\n        /* \"#utility.yul\":8573:8661   */\n      mstore\n        /* \"#utility.yul\":8680:8684   */\n      0x11\n        /* \"#utility.yul\":8677:8678   */\n      0x04\n        /* \"#utility.yul\":8670:8685   */\n      mstore\n        /* \"#utility.yul\":8704:8708   */\n      0x24\n        /* \"#utility.yul\":8701:8702   */\n      0x00\n        /* \"#utility.yul\":8694:8709   */\n      revert\n        /* \"#utility.yul\":8721:8901   */\n    tag_277:\n        /* \"#utility.yul\":8769:8846   */\n      0x4e487b7100000000000000000000000000000000000000000000000000000000\n        /* \"#utility.yul\":8766:8767   */\n      0x00\n        /* \"#utility.yul\":8759:8847   */\n      mstore\n        /* \"#utility.yul\":8866:8870   */\n      0x12\n        /* \"#utility.yul\":8863:8864   */\n      0x04\n        /* \"#utility.yul\":8856:8871   */\n      mstore\n        /* \"#utility.yul\":8890:8894   */\n      0x24\n        /* \"#utility.yul\":8887:8888   */\n      0x00\n        /* \"#utility.yul\":8880:8895   */\n      revert\n        /* \"#utility.yul\":9030:9147   */\n    tag_440:\n        /* \"#utility.yul\":9139:9140   */\n      0x00\n        /* \"#utility.yul\":9136:9137   */\n      dup1\n        /* \"#utility.yul\":9129:9141   */\n      revert\n        /* \"#utility.yul\":9153:9255   */\n    tag_463:\n        /* \"#utility.yul\":9194:9200   */\n      0x00\n        /* \"#utility.yul\":9245:9247   */\n      0x1f\n        /* \"#utility.yul\":9241:9248   */\n      not\n        /* \"#utility.yul\":9236:9238   */\n      0x1f\n        /* \"#utility.yul\":9229:9234   */\n      dup4\n        /* \"#utility.yul\":9225:9239   */\n      add\n        /* \"#utility.yul\":9221:9249   */\n      and\n        /* \"#utility.yul\":9211:9249   */\n      swap1\n      pop\n        /* \"#utility.yul\":9153:9255   */\n      swap2\n      swap1\n      pop\n      jump\t// out\n        /* \"#utility.yul\":9261:9438   */\n    tag_468:\n        /* \"#utility.yul\":9401:9430   */\n      0x536166654d6174683a206164646974696f6e206f766572666c6f770000000000\n        /* \"#utility.yul\":9397:9398   */\n      0x00\n        /* \"#utility.yul\":9389:9395   */\n      dup3\n        /* \"#utility.yul\":9385:9399   */\n      add\n        /* \"#utility.yul\":9378:9431   */\n      mstore\n        /* \"#utility.yul\":9261:9438   */\n      pop\n      jump\t// out\n        /* \"#utility.yul\":9444:9664   */\n    tag_473:\n        /* \"#utility.yul\":9584:9618   */\n      0x536166654d6174683a206d756c7469706c69636174696f6e206f766572666c6f\n        /* \"#utility.yul\":9580:9581   */\n      0x00\n        /* \"#utility.yul\":9572:9578   */\n      dup3\n        /* \"#utility.yul\":9568:9582   */\n      add\n        /* \"#utility.yul\":9561:9619   */\n      mstore\n        /* \"#utility.yul\":9653:9656   */\n      0x7700000000000000000000000000000000000000000000000000000000000000\n        /* \"#utility.yul\":9648:9650   */\n      0x20\n        /* \"#utility.yul\":9640:9646   */\n      dup3\n        /* \"#utility.yul\":9636:9651   */\n      add\n        /* \"#utility.yul\":9629:9657   */\n      mstore\n        /* \"#utility.yul\":9444:9664   */\n      pop\n      jump\t// out\n        /* \"#utility.yul\":9670:9837   */\n    tag_478:\n        /* \"#utility.yul\":9810:9829   */\n      0x4f6e6c792052656379636c6520506f6f6c000000000000000000000000000000\n        /* \"#utility.yul\":9806:9807   */\n      0x00\n        /* \"#utility.yul\":9798:9804   */\n      dup3\n        /* \"#utility.yul\":9794:9808   */\n      add\n        /* \"#utility.yul\":9787:9830   */\n      mstore\n        /* \"#utility.yul\":9670:9837   */\n      pop\n      jump\t// out\n        /* \"#utility.yul\":9843:9959   */\n    tag_429:\n        /* \"#utility.yul\":9913:9934   */\n      tag_552\n        /* \"#utility.yul\":9928:9933   */\n      dup2\n        /* \"#utility.yul\":9913:9934   */\n      tag_533\n      jump\t// in\n    tag_552:\n        /* \"#utility.yul\":9906:9911   */\n      dup2\n        /* \"#utility.yul\":9903:9935   */\n      eq\n        /* \"#utility.yul\":9893:9953   */\n      tag_553\n      jumpi\n        /* \"#utility.yul\":9949:9950   */\n      0x00\n        /* \"#utility.yul\":9946:9947   */\n      dup1\n        /* \"#utility.yul\":9939:9951   */\n      revert\n        /* \"#utility.yul\":9893:9953   */\n    tag_553:\n        /* \"#utility.yul\":9843:9959   */\n      pop\n      jump\t// out\n        /* \"#utility.yul\":9965:10087   */\n    tag_433:\n        /* \"#utility.yul\":10038:10062   */\n      tag_555\n        /* \"#utility.yul\":10056:10061   */\n      dup2\n        /* \"#utility.yul\":10038:10062   */\n      tag_482\n      jump\t// in\n    tag_555:\n        /* \"#utility.yul\":10031:10036   */\n      dup2\n        /* \"#utility.yul\":10028:10063   */\n      eq\n        /* \"#utility.yul\":10018:10081   */\n      tag_556\n      jumpi\n        /* \"#utility.yul\":10077:10078   */\n      0x00\n        /* \"#utility.yul\":10074:10075   */\n      dup1\n        /* \"#utility.yul\":10067:10079   */\n      revert\n        /* \"#utility.yul\":10018:10081   */\n    tag_556:\n        /* \"#utility.yul\":9965:10087   */\n      pop\n      jump\t// out\n\n    auxdata: 0xa264697066735822122009196213cd798e555647bc613b69808bc45fd101682ad1503a62cea4660a141664736f6c63430008070033\n}\n",
				"bytecode": {
					"linkReferences": {},
					"object": "608060405260018055692a5a058fc295ed00000060025567429d069189e000006003556200005c600a62000048603c670de0b6b3a76400006200016960201b6200160e1760201c565b620001ed60201b620016891790919060201c565b60045567a688906bd8b000006005553480156200007857600080fd5b506040516200329a3803806200329a83398181016040528101906200009e9190620002be565b826000806101000a81548173ffffffffffffffffffffffffffffffffffffffff021916908373ffffffffffffffffffffffffffffffffffffffff16021790555081600660006101000a81548173ffffffffffffffffffffffffffffffffffffffff021916908373ffffffffffffffffffffffffffffffffffffffff16021790555080600760006101000a81548173ffffffffffffffffffffffffffffffffffffffff021916908373ffffffffffffffffffffffffffffffffffffffff160217905550505050620005ce565b6000808314156200017e5760009050620001e7565b600082846200018e91906200041c565b90508284826200019f9190620003e4565b14620001e2576040517f08c379a0000000000000000000000000000000000000000000000000000000008152600401620001d990620003a6565b60405180910390fd5b809150505b92915050565b60006200023783836040518060400160405280601a81526020017f536166654d6174683a206469766973696f6e206279207a65726f0000000000008152506200023f60201b60201c565b905092915050565b6000808311829062000289576040517f08c379a000000000000000000000000000000000000000000000000000000000815260040162000280919062000382565b60405180910390fd5b50600083856200029a9190620003e4565b9050809150509392505050565b600081519050620002b881620005b4565b92915050565b600080600060608486031215620002da57620002d96200054f565b5b6000620002ea86828701620002a7565b9350506020620002fd86828701620002a7565b92505060406200031086828701620002a7565b9150509250925092565b60006200032782620003c8565b620003338185620003d3565b935062000345818560208601620004bb565b620003508162000554565b840191505092915050565b60006200036a602183620003d3565b9150620003778262000565565b604082019050919050565b600060208201905081810360008301526200039e81846200031a565b905092915050565b60006020820190508181036000830152620003c1816200035b565b9050919050565b600081519050919050565b600082825260208201905092915050565b6000620003f182620004b1565b9150620003fe83620004b1565b92508262000411576200041062000520565b5b828204905092915050565b60006200042982620004b1565b91506200043683620004b1565b9250817fffffffffffffffffffffffffffffffffffffffffffffffffffffffffffffffff0483118215151615620004725762000471620004f1565b5b828202905092915050565b60006200048a8262000491565b9050919050565b600073ffffffffffffffffffffffffffffffffffffffff82169050919050565b6000819050919050565b60005b83811015620004db578082015181840152602081019050620004be565b83811115620004eb576000848401525b50505050565b7f4e487b7100000000000000000000000000000000000000000000000000000000600052601160045260246000fd5b7f4e487b7100000000000000000000000000000000000000000000000000000000600052601260045260246000fd5b600080fd5b6000601f19601f8301169050919050565b7f536166654d6174683a206d756c7469706c69636174696f6e206f766572666c6f60008201527f7700000000000000000000000000000000000000000000000000000000000000602082015250565b620005bf816200047d565b8114620005cb57600080fd5b50565b612cbc80620005de6000396000f3fe608060405234801561001057600080fd5b50600436106100a95760003560e01c8063641c9cf111610071578063641c9cf11461018a57806385c210a8146101a8578063a20e8b3c146101c4578063a78a3725146101e2578063b0bc074c14610212578063ccc4afee14610242576100a9565b80630b902e95146100ae5780630e5449a6146100de578063106197661461010e5780633597ff3d1461013e5780635f6183ff1461015a575b600080fd5b6100c860048036038101906100c3919061273c565b61024c565b6040516100d59190612953565b60405180910390f35b6100f860048036038101906100f3919061273c565b6102da565b6040516101059190612953565b60405180910390f35b6101286004803603810190610123919061273c565b6103e2565b6040516101359190612953565b60405180910390f35b6101586004803603810190610153919061273c565b6104ea565b005b610174600480360381019061016f919061273c565b610739565b6040516101819190612953565b60405180910390f35b6101926107f1565b60405161019f9190612953565b60405180910390f35b6101c260048036038101906101bd919061273c565b6108a0565b005b6101cc610b9d565b6040516101d99190612953565b60405180910390f35b6101fc60048036038101906101f7919061273c565b610c67565b6040516102099190612953565b60405180910390f35b61022c6004803603810190610227919061273c565b61101c565b6040516102399190612953565b60405180910390f35b61024a6113d1565b005b6000806102ae6102966102866102816002546102736005548961160e90919063ffffffff16565b61168990919063ffffffff16565b6116d3565b6102916004546116d3565b611764565b670de0b6b3a76400006102a991906129b3565b611781565b90506102d26102ca6102c2836002546117b5565b6003546117b5565b600554611764565b915050919050565b60008061039761039284600660009054906101000a900473ffffffffffffffffffffffffffffffffffffffff1673ffffffffffffffffffffffffffffffffffffffff166318160ddd6040518163ffffffff1660e01b815260040160206040518083038186803b15801561034c57600080fd5b505afa158015610360573d6000803e3d6000fd5b505050506040513d601f19601f820116820180604052508101906103849190612769565b6117c990919063ffffffff16565b610739565b90506103da6001546103cc670de0b6b3a76400006103be878661160e90919063ffffffff16565b61168990919063ffffffff16565b61168990919063ffffffff16565b915050919050565b60008061049f61049a84600660009054906101000a900473ffffffffffffffffffffffffffffffffffffffff1673ffffffffffffffffffffffffffffffffffffffff166318160ddd6040518163ffffffff1660e01b815260040160206040518083038186803b15801561045457600080fd5b505afa158015610468573d6000803e3d6000fd5b505050506040513d601f19601f8201168201806040525081019061048c9190612769565b61182790919063ffffffff16565b610739565b90506104e26001546104d4670de0b6b3a76400006104c6878661160e90919063ffffffff16565b61168990919063ffffffff16565b61168990919063ffffffff16565b915050919050565b60006105a66105a183600660009054906101000a900473ffffffffffffffffffffffffffffffffffffffff1673ffffffffffffffffffffffffffffffffffffffff166318160ddd6040518163ffffffff1660e01b815260040160206040518083038186803b15801561055b57600080fd5b505afa15801561056f573d6000803e3d6000fd5b505050506040513d601f19601f820116820180604052508101906105939190612769565b6117c990919063ffffffff16565b610739565b905060008054906101000a900473ffffffffffffffffffffffffffffffffffffffff1673ffffffffffffffffffffffffffffffffffffffff166323b872dd6105ec611871565b3061062e600154610620670de0b6b3a76400006106128a8a61160e90919063ffffffff16565b61168990919063ffffffff16565b61168990919063ffffffff16565b6040518463ffffffff1660e01b815260040161064c93929190612871565b602060405180830381600087803b15801561066657600080fd5b505af115801561067a573d6000803e3d6000fd5b505050506040513d601f19601f8201168201806040525081019061069e919061270f565b50600660009054906101000a900473ffffffffffffffffffffffffffffffffffffffff1673ffffffffffffffffffffffffffffffffffffffff166340c10f196106e5611871565b846040518363ffffffff1660e01b81526004016107039291906128a8565b600060405180830381600087803b15801561071d57600080fd5b505af1158015610731573d6000803e3d6000fd5b505050505050565b6000806107656002546107576005548661160e90919063ffffffff16565b61168990919063ffffffff16565b905060006107a061079b8361078d678ac7230489e800006004546117c990919063ffffffff16565b61182790919063ffffffff16565b6116d3565b6107b1678ac7230489e800006116d3565b6107bb91906129b3565b905060006107db6003546107d6678ac7230489e800006116d3565b6117b5565b90506107e78183611764565b9350505050919050565b600061089b600660009054906101000a900473ffffffffffffffffffffffffffffffffffffffff1673ffffffffffffffffffffffffffffffffffffffff166318160ddd6040518163ffffffff1660e01b815260040160206040518083038186803b15801561085e57600080fd5b505afa158015610872573d6000803e3d6000fd5b505050506040513d601f19601f820116820180604052508101906108969190612769565b610739565b905090565b600061095c61095783600660009054906101000a900473ffffffffffffffffffffffffffffffffffffffff1673ffffffffffffffffffffffffffffffffffffffff166318160ddd6040518163ffffffff1660e01b815260040160206040518083038186803b15801561091157600080fd5b505afa158015610925573d6000803e3d6000fd5b505050506040513d601f19601f820116820180604052508101906109499190612769565b61182790919063ffffffff16565b610739565b905060008054906101000a900473ffffffffffffffffffffffffffffffffffffffff1673ffffffffffffffffffffffffffffffffffffffff1663a9059cbb6109a2611871565b6109e36001546109d5670de0b6b3a76400006109c7898961160e90919063ffffffff16565b61168990919063ffffffff16565b61168990919063ffffffff16565b6040518363ffffffff1660e01b8152600401610a009291906128a8565b602060405180830381600087803b158015610a1a57600080fd5b505af1158015610a2e573d6000803e3d6000fd5b505050506040513d601f19601f82011682018060405250810190610a52919061270f565b50600660009054906101000a900473ffffffffffffffffffffffffffffffffffffffff1673ffffffffffffffffffffffffffffffffffffffff166323b872dd610a99611871565b30856040518463ffffffff1660e01b8152600401610ab993929190612871565b602060405180830381600087803b158015610ad357600080fd5b505af1158015610ae7573d6000803e3d6000fd5b505050506040513d601f19601f82011682018060405250810190610b0b919061270f565b50600660009054906101000a900473ffffffffffffffffffffffffffffffffffffffff1673ffffffffffffffffffffffffffffffffffffffff166342966c68836040518263ffffffff1660e01b8152600401610b679190612953565b600060405180830381600087803b158015610b8157600080fd5b505af1158015610b95573d6000803e3d6000fd5b505050505050565b6000610c62610bac600061024c565b610c54600660009054906101000a900473ffffffffffffffffffffffffffffffffffffffff1673ffffffffffffffffffffffffffffffffffffffff166318160ddd6040518163ffffffff1660e01b815260040160206040518083038186803b158015610c1757600080fd5b505afa158015610c2b573d6000803e3d6000fd5b505050506040513d601f19601f82011682018060405250810190610c4f9190612769565b61024c565b61182790919063ffffffff16565b905090565b6000610c7e6001548361160e90919063ffffffff16565b91506000610d56610d2d600660009054906101000a900473ffffffffffffffffffffffffffffffffffffffff1673ffffffffffffffffffffffffffffffffffffffff166318160ddd6040518163ffffffff1660e01b815260040160206040518083038186803b158015610cf057600080fd5b505afa158015610d04573d6000803e3d6000fd5b505050506040513d601f19601f82011682018060405250810190610d289190612769565b610739565b610d48670de0b6b3a76400008661160e90919063ffffffff16565b61168990919063ffffffff16565b90506000610e40610e17610e1284600660009054906101000a900473ffffffffffffffffffffffffffffffffffffffff1673ffffffffffffffffffffffffffffffffffffffff166318160ddd6040518163ffffffff1660e01b815260040160206040518083038186803b158015610dcc57600080fd5b505afa158015610de0573d6000803e3d6000fd5b505050506040513d601f19601f82011682018060405250810190610e049190612769565b61182790919063ffffffff16565b610739565b610e32670de0b6b3a76400008761160e90919063ffffffff16565b61168990919063ffffffff16565b9050610f28610eff610efa83600660009054906101000a900473ffffffffffffffffffffffffffffffffffffffff1673ffffffffffffffffffffffffffffffffffffffff166318160ddd6040518163ffffffff1660e01b815260040160206040518083038186803b158015610eb457600080fd5b505afa158015610ec8573d6000803e3d6000fd5b505050506040513d601f19601f82011682018060405250810190610eec9190612769565b61182790919063ffffffff16565b610739565b610f1a670de0b6b3a76400008761160e90919063ffffffff16565b61168990919063ffffffff16565b9150611010610fe7610fe284600660009054906101000a900473ffffffffffffffffffffffffffffffffffffffff1673ffffffffffffffffffffffffffffffffffffffff166318160ddd6040518163ffffffff1660e01b815260040160206040518083038186803b158015610f9c57600080fd5b505afa158015610fb0573d6000803e3d6000fd5b505050506040513d601f19601f82011682018060405250810190610fd49190612769565b61182790919063ffffffff16565b610739565b611002670de0b6b3a76400008761160e90919063ffffffff16565b61168990919063ffffffff16565b90508092505050919050565b60006110336001548361160e90919063ffffffff16565b9150600061110b6110e2600660009054906101000a900473ffffffffffffffffffffffffffffffffffffffff1673ffffffffffffffffffffffffffffffffffffffff166318160ddd6040518163ffffffff1660e01b815260040160206040518083038186803b1580156110a557600080fd5b505afa1580156110b9573d6000803e3d6000fd5b505050506040513d601f19601f820116820180604052508101906110dd9190612769565b610739565b6110fd670de0b6b3a76400008661160e90919063ffffffff16565b61168990919063ffffffff16565b905060006111f56111cc6111c784600660009054906101000a900473ffffffffffffffffffffffffffffffffffffffff1673ffffffffffffffffffffffffffffffffffffffff166318160ddd6040518163ffffffff1660e01b815260040160206040518083038186803b15801561118157600080fd5b505afa158015611195573d6000803e3d6000fd5b505050506040513d601f19601f820116820180604052508101906111b99190612769565b6117c990919063ffffffff16565b610739565b6111e7670de0b6b3a76400008761160e90919063ffffffff16565b61168990919063ffffffff16565b90506112dd6112b46112af83600660009054906101000a900473ffffffffffffffffffffffffffffffffffffffff1673ffffffffffffffffffffffffffffffffffffffff166318160ddd6040518163ffffffff1660e01b815260040160206040518083038186803b15801561126957600080fd5b505afa15801561127d573d6000803e3d6000fd5b505050506040513d601f19601f820116820180604052508101906112a19190612769565b6117c990919063ffffffff16565b610739565b6112cf670de0b6b3a76400008761160e90919063ffffffff16565b61168990919063ffffffff16565b91506113c561139c61139784600660009054906101000a900473ffffffffffffffffffffffffffffffffffffffff1673ffffffffffffffffffffffffffffffffffffffff166318160ddd6040518163ffffffff1660e01b815260040160206040518083038186803b15801561135157600080fd5b505afa158015611365573d6000803e3d6000fd5b505050506040513d601f19601f820116820180604052508101906113899190612769565b6117c990919063ffffffff16565b610739565b6113b7670de0b6b3a76400008761160e90919063ffffffff16565b61168990919063ffffffff16565b90508092505050919050565b600760009054906101000a900473ffffffffffffffffffffffffffffffffffffffff1673ffffffffffffffffffffffffffffffffffffffff16611412611871565b73ffffffffffffffffffffffffffffffffffffffff1614611468576040517f08c379a000000000000000000000000000000000000000000000000000000000815260040161145f90612933565b60405180910390fd5b6000611540611475610b9d565b61153260015460008054906101000a900473ffffffffffffffffffffffffffffffffffffffff1673ffffffffffffffffffffffffffffffffffffffff166370a08231306040518263ffffffff1660e01b81526004016114d49190612856565b60206040518083038186803b1580156114ec57600080fd5b505afa158015611500573d6000803e3d6000fd5b505050506040513d601f19601f820116820180604052508101906115249190612769565b61160e90919063ffffffff16565b61182790919063ffffffff16565b905060008054906101000a900473ffffffffffffffffffffffffffffffffffffffff1673ffffffffffffffffffffffffffffffffffffffff1663a9059cbb611586611871565b61159b6001548561168990919063ffffffff16565b6040518363ffffffff1660e01b81526004016115b89291906128a8565b602060405180830381600087803b1580156115d257600080fd5b505af11580156115e6573d6000803e3d6000fd5b505050506040513d601f19601f8201168201806040525081019061160a919061270f565b5050565b6000808314156116215760009050611683565b6000828461162f9190612a3a565b905082848261163e9190612a09565b1461167e576040517f08c379a000000000000000000000000000000000000000000000000000000000815260040161167590612913565b60405180910390fd5b809150505b92915050565b60006116cb83836040518060400160405280601a81526020017f536166654d6174683a206469766973696f6e206279207a65726f000000000000815250611879565b905092915050565b6000680736ea4425c11ac631821061172257816040517f315da0680000000000000000000000000000000000000000000000000000000081526004016117199190612953565b60405180910390fd5b60006714057b7ef767814f8302905061175c670de0b6b3a76400006706f05b59d3b2000083018161175657611755612b72565b5b046118dc565b915050919050565b600061177983670de0b6b3a76400008461195d565b905092915050565b60006714057b7ef767814f670de0b6b3a764000061179e84611a73565b02816117ad576117ac612b72565b5b049050919050565b60006117c18383611b7b565b905092915050565b60008082846117d891906129b3565b90508381101561181d576040517f08c379a0000000000000000000000000000000000000000000000000000000008152600401611814906128f3565b60405180910390fd5b8091505092915050565b600061186983836040518060400160405280601e81526020017f536166654d6174683a207375627472616374696f6e206f766572666c6f770000815250611c79565b905092915050565b600033905090565b600080831182906118c0576040517f08c379a00000000000000000000000000000000000000000000000000000000081526004016118b791906128d1565b60405180910390fd5b50600083856118cf9190612a09565b9050809150509392505050565b6000680a688906bd8b000000821061192b57816040517f4a4f26f10000000000000000000000000000000000000000000000000000000081526004016119229190612953565b60405180910390fd5b6000670de0b6b3a7640000604084901b8161194957611948612b72565b5b04905061195581611cdd565b915050919050565b6000806000801985870985870292508281108382030391505060008114156119995783828161198f5761198e612b72565b5b0492505050611a6c565b8381106119df5780846040517f773cc18c0000000000000000000000000000000000000000000000000000000081526004016119d692919061296e565b60405180910390fd5b60008486880990508281118203915080830392506000600186190186169050808604955080840493506001818260000304019050808302841793506000600287600302189050808702600203810290508087026002038102905080870260020381029050808702600203810290508087026002038102905080870260020381029050808502955050505050505b9392505050565b6000670de0b6b3a7640000821015611ac257816040517fd88504dc000000000000000000000000000000000000000000000000000000008152600401611ab99190612953565b60405180910390fd5b6000611ae5670de0b6b3a76400008481611adf57611ade612b72565b5b046125b9565b9050670de0b6b3a76400008102915060008184901c9050670de0b6b3a7640000811415611b13575050611b76565b60006706f05b59d3b2000090505b6000811115611b7257670de0b6b3a764000082830281611b4457611b43612b72565b5b049150670de0b6b3a76400006002028210611b66578084019350600182901c91505b600181901c9050611b21565b5050505b919050565b60008060008019848609848602925082811083820303915050670de0b6b3a76400008110611be057806040517fd31b3402000000000000000000000000000000000000000000000000000000008152600401611bd79190612953565b60405180910390fd5b600080670de0b6b3a764000086880991506706f05b59d3b1ffff821190506000831415611c2d5780670de0b6b3a76400008581611c2057611c1f612b72565b5b0401945050505050611c73565b807faccb18165bd6fe31ae1cf318dc5b51eee0e1ba569b88cd74c1773b91fac1066960016204000080600003040186851186030262040000858803041702019450505050505b92915050565b6000838311158290611cc1576040517f08c379a0000000000000000000000000000000000000000000000000000000008152600401611cb891906128d1565b60405180910390fd5b5060008385611cd09190612a94565b9050809150509392505050565b6000778000000000000000000000000000000000000000000000009050600067800000000000000083161115611d2057604068016a09e667f3bcc9098202901c90505b600067400000000000000083161115611d465760406801306fe0a31b7152df8202901c90505b600067200000000000000083161115611d6c5760406801172b83c7d517adce8202901c90505b600067100000000000000083161115611d9257604068010b5586cf9890f62a8202901c90505b600067080000000000000083161115611db85760406801059b0d31585743ae8202901c90505b600067040000000000000083161115611dde576040680102c9a3e778060ee78202901c90505b600067020000000000000083161115611e0457604068010163da9fb33356d88202901c90505b600067010000000000000083161115611e2a576040680100b1afa5abcbed618202901c90505b6000668000000000000083161115611e4f57604068010058c86da1c09ea28202901c90505b6000664000000000000083161115611e745760406801002c605e2e8cec508202901c90505b6000662000000000000083161115611e99576040680100162f3904051fa18202901c90505b6000661000000000000083161115611ebe5760406801000b175effdc76ba8202901c90505b6000660800000000000083161115611ee3576040680100058ba01fb9f96d8202901c90505b6000660400000000000083161115611f0857604068010002c5cc37da94928202901c90505b6000660200000000000083161115611f2d5760406801000162e525ee05478202901c90505b6000660100000000000083161115611f5257604068010000b17255775c048202901c90505b60006580000000000083161115611f765760406801000058b91b5bc9ae8202901c90505b60006540000000000083161115611f9a576040680100002c5c89d5ec6d8202901c90505b60006520000000000083161115611fbe57604068010000162e43f4f8318202901c90505b60006510000000000083161115611fe2576040680100000b1721bcfc9a8202901c90505b6000650800000000008316111561200657604068010000058b90cf1e6e8202901c90505b6000650400000000008316111561202a5760406801000002c5c863b73f8202901c90505b6000650200000000008316111561204e576040680100000162e430e5a28202901c90505b600065010000000000831611156120725760406801000000b1721835518202901c90505b600064800000000083161115612095576040680100000058b90c0b498202901c90505b6000644000000000831611156120b857604068010000002c5c8601cc8202901c90505b6000642000000000831611156120db5760406801000000162e42fff08202901c90505b6000641000000000831611156120fe57604068010000000b17217fbb8202901c90505b6000640800000000831611156121215760406801000000058b90bfce8202901c90505b600064040000000083161115612144576040680100000002c5c85fe38202901c90505b60006402000000008316111561216757604068010000000162e42ff18202901c90505b60006401000000008316111561218a576040680100000000b17217f88202901c90505b60006380000000831611156121ac57604068010000000058b90bfc8202901c90505b60006340000000831611156121ce5760406801000000002c5c85fe8202901c90505b60006320000000831611156121f0576040680100000000162e42ff8202901c90505b60006310000000831611156122125760406801000000000b17217f8202901c90505b6000630800000083161115612234576040680100000000058b90c08202901c90505b600063040000008316111561225657604068010000000002c5c8608202901c90505b60006302000000831611156122785760406801000000000162e4308202901c90505b600063010000008316111561229a57604068010000000000b172188202901c90505b600062800000831611156122bb5760406801000000000058b90c8202901c90505b600062400000831611156122dc576040680100000000002c5c868202901c90505b600062200000831611156122fd57604068010000000000162e438202901c90505b6000621000008316111561231e576040680100000000000b17218202901c90505b6000620800008316111561233f57604068010000000000058b918202901c90505b600062040000831611156123605760406801000000000002c5c88202901c90505b60006202000083161115612381576040680100000000000162e48202901c90505b600062010000831611156123a25760406801000000000000b1728202901c90505b6000618000831611156123c2576040680100000000000058b98202901c90505b6000614000831611156123e257604068010000000000002c5d8202901c90505b6000612000831611156124025760406801000000000000162e8202901c90505b60006110008316111561242257604068010000000000000b178202901c90505b6000610800831611156124425760406801000000000000058c8202901c90505b600061040083161115612462576040680100000000000002c68202901c90505b600061020083161115612482576040680100000000000001638202901c90505b6000610100831611156124a2576040680100000000000000b18202901c90505b60006080831611156124c1576040680100000000000000598202901c90505b60006040831611156124e05760406801000000000000002c8202901c90505b60006020831611156124ff576040680100000000000000168202901c90505b600060108316111561251e5760406801000000000000000b8202901c90505b600060088316111561253d576040680100000000000000068202901c90505b600060048316111561255c576040680100000000000000038202901c90505b600060028316111561257b576040680100000000000000018202901c90505b600060018316111561259a576040680100000000000000018202901c90505b670de0b6b3a764000081029050604082901c60bf0381901c9050919050565b600070010000000000000000000000000000000082106125ea57608082901c91506080816125e791906129b3565b90505b68010000000000000000821061261157604082901c915060408161260e91906129b3565b90505b640100000000821061263457602082901c915060208161263191906129b3565b90505b62010000821061265557601082901c915060108161265291906129b3565b90505b610100821061267557600882901c915060088161267291906129b3565b90505b6010821061269457600482901c915060048161269191906129b3565b90505b600482106126b357600282901c91506002816126b091906129b3565b90505b600282106126cb576001816126c891906129b3565b90505b919050565b6000815190506126df81612c58565b92915050565b6000813590506126f481612c6f565b92915050565b60008151905061270981612c6f565b92915050565b60006020828403121561272557612724612ba1565b5b6000612733848285016126d0565b91505092915050565b60006020828403121561275257612751612ba1565b5b6000612760848285016126e5565b91505092915050565b60006020828403121561277f5761277e612ba1565b5b600061278d848285016126fa565b91505092915050565b61279f81612ac8565b82525050565b60006127b082612997565b6127ba81856129a2565b93506127ca818560208601612b10565b6127d381612ba6565b840191505092915050565b60006127eb601b836129a2565b91506127f682612bb7565b602082019050919050565b600061280e6021836129a2565b915061281982612be0565b604082019050919050565b60006128316011836129a2565b915061283c82612c2f565b602082019050919050565b61285081612b06565b82525050565b600060208201905061286b6000830184612796565b92915050565b60006060820190506128866000830186612796565b6128936020830185612796565b6128a06040830184612847565b949350505050565b60006040820190506128bd6000830185612796565b6128ca6020830184612847565b9392505050565b600060208201905081810360008301526128eb81846127a5565b905092915050565b6000602082019050818103600083015261290c816127de565b9050919050565b6000602082019050818103600083015261292c81612801565b9050919050565b6000602082019050818103600083015261294c81612824565b9050919050565b60006020820190506129686000830184612847565b92915050565b60006040820190506129836000830185612847565b6129906020830184612847565b9392505050565b600081519050919050565b600082825260208201905092915050565b60006129be82612b06565b91506129c983612b06565b9250827fffffffffffffffffffffffffffffffffffffffffffffffffffffffffffffffff038211156129fe576129fd612b43565b5b828201905092915050565b6000612a1482612b06565b9150612a1f83612b06565b925082612a2f57612a2e612b72565b5b828204905092915050565b6000612a4582612b06565b9150612a5083612b06565b9250817fffffffffffffffffffffffffffffffffffffffffffffffffffffffffffffffff0483118215151615612a8957612a88612b43565b5b828202905092915050565b6000612a9f82612b06565b9150612aaa83612b06565b925082821015612abd57612abc612b43565b5b828203905092915050565b6000612ad382612ae6565b9050919050565b60008115159050919050565b600073ffffffffffffffffffffffffffffffffffffffff82169050919050565b6000819050919050565b60005b83811015612b2e578082015181840152602081019050612b13565b83811115612b3d576000848401525b50505050565b7f4e487b7100000000000000000000000000000000000000000000000000000000600052601160045260246000fd5b7f4e487b7100000000000000000000000000000000000000000000000000000000600052601260045260246000fd5b600080fd5b6000601f19601f8301169050919050565b7f536166654d6174683a206164646974696f6e206f766572666c6f770000000000600082015250565b7f536166654d6174683a206d756c7469706c69636174696f6e206f766572666c6f60008201527f7700000000000000000000000000000000000000000000000000000000000000602082015250565b7f4f6e6c792052656379636c6520506f6f6c000000000000000000000000000000600082015250565b612c6181612ada565b8114612c6c57600080fd5b50565b612c7881612b06565b8114612c8357600080fd5b5056fea264697066735822122009196213cd798e555647bc613b69808bc45fd101682ad1503a62cea4660a141664736f6c63430008070033",
					"opcodes": "PUSH1 0x80 PUSH1 0x40 MSTORE PUSH1 0x1 DUP1 SSTORE PUSH10 0x2A5A058FC295ED000000 PUSH1 0x2 SSTORE PUSH8 0x429D069189E00000 PUSH1 0x3 SSTORE PUSH3 0x5C PUSH1 0xA PUSH3 0x48 PUSH1 0x3C PUSH8 0xDE0B6B3A7640000 PUSH3 0x169 PUSH1 0x20 SHL PUSH3 0x160E OR PUSH1 0x20 SHR JUMP JUMPDEST PUSH3 0x1ED PUSH1 0x20 SHL PUSH3 0x1689 OR SWAP1 SWAP2 SWAP1 PUSH1 0x20 SHR JUMP JUMPDEST PUSH1 0x4 SSTORE PUSH8 0xA688906BD8B00000 PUSH1 0x5 SSTORE CALLVALUE DUP1 ISZERO PUSH3 0x78 JUMPI PUSH1 0x0 DUP1 REVERT JUMPDEST POP PUSH1 0x40 MLOAD PUSH3 0x329A CODESIZE SUB DUP1 PUSH3 0x329A DUP4 CODECOPY DUP2 DUP2 ADD PUSH1 0x40 MSTORE DUP2 ADD SWAP1 PUSH3 0x9E SWAP2 SWAP1 PUSH3 0x2BE JUMP JUMPDEST DUP3 PUSH1 0x0 DUP1 PUSH2 0x100 EXP DUP2 SLOAD DUP2 PUSH20 0xFFFFFFFFFFFFFFFFFFFFFFFFFFFFFFFFFFFFFFFF MUL NOT AND SWAP1 DUP4 PUSH20 0xFFFFFFFFFFFFFFFFFFFFFFFFFFFFFFFFFFFFFFFF AND MUL OR SWAP1 SSTORE POP DUP2 PUSH1 0x6 PUSH1 0x0 PUSH2 0x100 EXP DUP2 SLOAD DUP2 PUSH20 0xFFFFFFFFFFFFFFFFFFFFFFFFFFFFFFFFFFFFFFFF MUL NOT AND SWAP1 DUP4 PUSH20 0xFFFFFFFFFFFFFFFFFFFFFFFFFFFFFFFFFFFFFFFF AND MUL OR SWAP1 SSTORE POP DUP1 PUSH1 0x7 PUSH1 0x0 PUSH2 0x100 EXP DUP2 SLOAD DUP2 PUSH20 0xFFFFFFFFFFFFFFFFFFFFFFFFFFFFFFFFFFFFFFFF MUL NOT AND SWAP1 DUP4 PUSH20 0xFFFFFFFFFFFFFFFFFFFFFFFFFFFFFFFFFFFFFFFF AND MUL OR SWAP1 SSTORE POP POP POP POP PUSH3 0x5CE JUMP JUMPDEST PUSH1 0x0 DUP1 DUP4 EQ ISZERO PUSH3 0x17E JUMPI PUSH1 0x0 SWAP1 POP PUSH3 0x1E7 JUMP JUMPDEST PUSH1 0x0 DUP3 DUP5 PUSH3 0x18E SWAP2 SWAP1 PUSH3 0x41C JUMP JUMPDEST SWAP1 POP DUP3 DUP5 DUP3 PUSH3 0x19F SWAP2 SWAP1 PUSH3 0x3E4 JUMP JUMPDEST EQ PUSH3 0x1E2 JUMPI PUSH1 0x40 MLOAD PUSH32 0x8C379A000000000000000000000000000000000000000000000000000000000 DUP2 MSTORE PUSH1 0x4 ADD PUSH3 0x1D9 SWAP1 PUSH3 0x3A6 JUMP JUMPDEST PUSH1 0x40 MLOAD DUP1 SWAP2 SUB SWAP1 REVERT JUMPDEST DUP1 SWAP2 POP POP JUMPDEST SWAP3 SWAP2 POP POP JUMP JUMPDEST PUSH1 0x0 PUSH3 0x237 DUP4 DUP4 PUSH1 0x40 MLOAD DUP1 PUSH1 0x40 ADD PUSH1 0x40 MSTORE DUP1 PUSH1 0x1A DUP2 MSTORE PUSH1 0x20 ADD PUSH32 0x536166654D6174683A206469766973696F6E206279207A65726F000000000000 DUP2 MSTORE POP PUSH3 0x23F PUSH1 0x20 SHL PUSH1 0x20 SHR JUMP JUMPDEST SWAP1 POP SWAP3 SWAP2 POP POP JUMP JUMPDEST PUSH1 0x0 DUP1 DUP4 GT DUP3 SWAP1 PUSH3 0x289 JUMPI PUSH1 0x40 MLOAD PUSH32 0x8C379A000000000000000000000000000000000000000000000000000000000 DUP2 MSTORE PUSH1 0x4 ADD PUSH3 0x280 SWAP2 SWAP1 PUSH3 0x382 JUMP JUMPDEST PUSH1 0x40 MLOAD DUP1 SWAP2 SUB SWAP1 REVERT JUMPDEST POP PUSH1 0x0 DUP4 DUP6 PUSH3 0x29A SWAP2 SWAP1 PUSH3 0x3E4 JUMP JUMPDEST SWAP1 POP DUP1 SWAP2 POP POP SWAP4 SWAP3 POP POP POP JUMP JUMPDEST PUSH1 0x0 DUP2 MLOAD SWAP1 POP PUSH3 0x2B8 DUP2 PUSH3 0x5B4 JUMP JUMPDEST SWAP3 SWAP2 POP POP JUMP JUMPDEST PUSH1 0x0 DUP1 PUSH1 0x0 PUSH1 0x60 DUP5 DUP7 SUB SLT ISZERO PUSH3 0x2DA JUMPI PUSH3 0x2D9 PUSH3 0x54F JUMP JUMPDEST JUMPDEST PUSH1 0x0 PUSH3 0x2EA DUP7 DUP3 DUP8 ADD PUSH3 0x2A7 JUMP JUMPDEST SWAP4 POP POP PUSH1 0x20 PUSH3 0x2FD DUP7 DUP3 DUP8 ADD PUSH3 0x2A7 JUMP JUMPDEST SWAP3 POP POP PUSH1 0x40 PUSH3 0x310 DUP7 DUP3 DUP8 ADD PUSH3 0x2A7 JUMP JUMPDEST SWAP2 POP POP SWAP3 POP SWAP3 POP SWAP3 JUMP JUMPDEST PUSH1 0x0 PUSH3 0x327 DUP3 PUSH3 0x3C8 JUMP JUMPDEST PUSH3 0x333 DUP2 DUP6 PUSH3 0x3D3 JUMP JUMPDEST SWAP4 POP PUSH3 0x345 DUP2 DUP6 PUSH1 0x20 DUP7 ADD PUSH3 0x4BB JUMP JUMPDEST PUSH3 0x350 DUP2 PUSH3 0x554 JUMP JUMPDEST DUP5 ADD SWAP2 POP POP SWAP3 SWAP2 POP POP JUMP JUMPDEST PUSH1 0x0 PUSH3 0x36A PUSH1 0x21 DUP4 PUSH3 0x3D3 JUMP JUMPDEST SWAP2 POP PUSH3 0x377 DUP3 PUSH3 0x565 JUMP JUMPDEST PUSH1 0x40 DUP3 ADD SWAP1 POP SWAP2 SWAP1 POP JUMP JUMPDEST PUSH1 0x0 PUSH1 0x20 DUP3 ADD SWAP1 POP DUP2 DUP2 SUB PUSH1 0x0 DUP4 ADD MSTORE PUSH3 0x39E DUP2 DUP5 PUSH3 0x31A JUMP JUMPDEST SWAP1 POP SWAP3 SWAP2 POP POP JUMP JUMPDEST PUSH1 0x0 PUSH1 0x20 DUP3 ADD SWAP1 POP DUP2 DUP2 SUB PUSH1 0x0 DUP4 ADD MSTORE PUSH3 0x3C1 DUP2 PUSH3 0x35B JUMP JUMPDEST SWAP1 POP SWAP2 SWAP1 POP JUMP JUMPDEST PUSH1 0x0 DUP2 MLOAD SWAP1 POP SWAP2 SWAP1 POP JUMP JUMPDEST PUSH1 0x0 DUP3 DUP3 MSTORE PUSH1 0x20 DUP3 ADD SWAP1 POP SWAP3 SWAP2 POP POP JUMP JUMPDEST PUSH1 0x0 PUSH3 0x3F1 DUP3 PUSH3 0x4B1 JUMP JUMPDEST SWAP2 POP PUSH3 0x3FE DUP4 PUSH3 0x4B1 JUMP JUMPDEST SWAP3 POP DUP3 PUSH3 0x411 JUMPI PUSH3 0x410 PUSH3 0x520 JUMP JUMPDEST JUMPDEST DUP3 DUP3 DIV SWAP1 POP SWAP3 SWAP2 POP POP JUMP JUMPDEST PUSH1 0x0 PUSH3 0x429 DUP3 PUSH3 0x4B1 JUMP JUMPDEST SWAP2 POP PUSH3 0x436 DUP4 PUSH3 0x4B1 JUMP JUMPDEST SWAP3 POP DUP2 PUSH32 0xFFFFFFFFFFFFFFFFFFFFFFFFFFFFFFFFFFFFFFFFFFFFFFFFFFFFFFFFFFFFFFFF DIV DUP4 GT DUP3 ISZERO ISZERO AND ISZERO PUSH3 0x472 JUMPI PUSH3 0x471 PUSH3 0x4F1 JUMP JUMPDEST JUMPDEST DUP3 DUP3 MUL SWAP1 POP SWAP3 SWAP2 POP POP JUMP JUMPDEST PUSH1 0x0 PUSH3 0x48A DUP3 PUSH3 0x491 JUMP JUMPDEST SWAP1 POP SWAP2 SWAP1 POP JUMP JUMPDEST PUSH1 0x0 PUSH20 0xFFFFFFFFFFFFFFFFFFFFFFFFFFFFFFFFFFFFFFFF DUP3 AND SWAP1 POP SWAP2 SWAP1 POP JUMP JUMPDEST PUSH1 0x0 DUP2 SWAP1 POP SWAP2 SWAP1 POP JUMP JUMPDEST PUSH1 0x0 JUMPDEST DUP4 DUP2 LT ISZERO PUSH3 0x4DB JUMPI DUP1 DUP3 ADD MLOAD DUP2 DUP5 ADD MSTORE PUSH1 0x20 DUP2 ADD SWAP1 POP PUSH3 0x4BE JUMP JUMPDEST DUP4 DUP2 GT ISZERO PUSH3 0x4EB JUMPI PUSH1 0x0 DUP5 DUP5 ADD MSTORE JUMPDEST POP POP POP POP JUMP JUMPDEST PUSH32 0x4E487B7100000000000000000000000000000000000000000000000000000000 PUSH1 0x0 MSTORE PUSH1 0x11 PUSH1 0x4 MSTORE PUSH1 0x24 PUSH1 0x0 REVERT JUMPDEST PUSH32 0x4E487B7100000000000000000000000000000000000000000000000000000000 PUSH1 0x0 MSTORE PUSH1 0x12 PUSH1 0x4 MSTORE PUSH1 0x24 PUSH1 0x0 REVERT JUMPDEST PUSH1 0x0 DUP1 REVERT JUMPDEST PUSH1 0x0 PUSH1 0x1F NOT PUSH1 0x1F DUP4 ADD AND SWAP1 POP SWAP2 SWAP1 POP JUMP JUMPDEST PUSH32 0x536166654D6174683A206D756C7469706C69636174696F6E206F766572666C6F PUSH1 0x0 DUP3 ADD MSTORE PUSH32 0x7700000000000000000000000000000000000000000000000000000000000000 PUSH1 0x20 DUP3 ADD MSTORE POP JUMP JUMPDEST PUSH3 0x5BF DUP2 PUSH3 0x47D JUMP JUMPDEST DUP2 EQ PUSH3 0x5CB JUMPI PUSH1 0x0 DUP1 REVERT JUMPDEST POP JUMP JUMPDEST PUSH2 0x2CBC DUP1 PUSH3 0x5DE PUSH1 0x0 CODECOPY PUSH1 0x0 RETURN INVALID PUSH1 0x80 PUSH1 0x40 MSTORE CALLVALUE DUP1 ISZERO PUSH2 0x10 JUMPI PUSH1 0x0 DUP1 REVERT JUMPDEST POP PUSH1 0x4 CALLDATASIZE LT PUSH2 0xA9 JUMPI PUSH1 0x0 CALLDATALOAD PUSH1 0xE0 SHR DUP1 PUSH4 0x641C9CF1 GT PUSH2 0x71 JUMPI DUP1 PUSH4 0x641C9CF1 EQ PUSH2 0x18A JUMPI DUP1 PUSH4 0x85C210A8 EQ PUSH2 0x1A8 JUMPI DUP1 PUSH4 0xA20E8B3C EQ PUSH2 0x1C4 JUMPI DUP1 PUSH4 0xA78A3725 EQ PUSH2 0x1E2 JUMPI DUP1 PUSH4 0xB0BC074C EQ PUSH2 0x212 JUMPI DUP1 PUSH4 0xCCC4AFEE EQ PUSH2 0x242 JUMPI PUSH2 0xA9 JUMP JUMPDEST DUP1 PUSH4 0xB902E95 EQ PUSH2 0xAE JUMPI DUP1 PUSH4 0xE5449A6 EQ PUSH2 0xDE JUMPI DUP1 PUSH4 0x10619766 EQ PUSH2 0x10E JUMPI DUP1 PUSH4 0x3597FF3D EQ PUSH2 0x13E JUMPI DUP1 PUSH4 0x5F6183FF EQ PUSH2 0x15A JUMPI JUMPDEST PUSH1 0x0 DUP1 REVERT JUMPDEST PUSH2 0xC8 PUSH1 0x4 DUP1 CALLDATASIZE SUB DUP2 ADD SWAP1 PUSH2 0xC3 SWAP2 SWAP1 PUSH2 0x273C JUMP JUMPDEST PUSH2 0x24C JUMP JUMPDEST PUSH1 0x40 MLOAD PUSH2 0xD5 SWAP2 SWAP1 PUSH2 0x2953 JUMP JUMPDEST PUSH1 0x40 MLOAD DUP1 SWAP2 SUB SWAP1 RETURN JUMPDEST PUSH2 0xF8 PUSH1 0x4 DUP1 CALLDATASIZE SUB DUP2 ADD SWAP1 PUSH2 0xF3 SWAP2 SWAP1 PUSH2 0x273C JUMP JUMPDEST PUSH2 0x2DA JUMP JUMPDEST PUSH1 0x40 MLOAD PUSH2 0x105 SWAP2 SWAP1 PUSH2 0x2953 JUMP JUMPDEST PUSH1 0x40 MLOAD DUP1 SWAP2 SUB SWAP1 RETURN JUMPDEST PUSH2 0x128 PUSH1 0x4 DUP1 CALLDATASIZE SUB DUP2 ADD SWAP1 PUSH2 0x123 SWAP2 SWAP1 PUSH2 0x273C JUMP JUMPDEST PUSH2 0x3E2 JUMP JUMPDEST PUSH1 0x40 MLOAD PUSH2 0x135 SWAP2 SWAP1 PUSH2 0x2953 JUMP JUMPDEST PUSH1 0x40 MLOAD DUP1 SWAP2 SUB SWAP1 RETURN JUMPDEST PUSH2 0x158 PUSH1 0x4 DUP1 CALLDATASIZE SUB DUP2 ADD SWAP1 PUSH2 0x153 SWAP2 SWAP1 PUSH2 0x273C JUMP JUMPDEST PUSH2 0x4EA JUMP JUMPDEST STOP JUMPDEST PUSH2 0x174 PUSH1 0x4 DUP1 CALLDATASIZE SUB DUP2 ADD SWAP1 PUSH2 0x16F SWAP2 SWAP1 PUSH2 0x273C JUMP JUMPDEST PUSH2 0x739 JUMP JUMPDEST PUSH1 0x40 MLOAD PUSH2 0x181 SWAP2 SWAP1 PUSH2 0x2953 JUMP JUMPDEST PUSH1 0x40 MLOAD DUP1 SWAP2 SUB SWAP1 RETURN JUMPDEST PUSH2 0x192 PUSH2 0x7F1 JUMP JUMPDEST PUSH1 0x40 MLOAD PUSH2 0x19F SWAP2 SWAP1 PUSH2 0x2953 JUMP JUMPDEST PUSH1 0x40 MLOAD DUP1 SWAP2 SUB SWAP1 RETURN JUMPDEST PUSH2 0x1C2 PUSH1 0x4 DUP1 CALLDATASIZE SUB DUP2 ADD SWAP1 PUSH2 0x1BD SWAP2 SWAP1 PUSH2 0x273C JUMP JUMPDEST PUSH2 0x8A0 JUMP JUMPDEST STOP JUMPDEST PUSH2 0x1CC PUSH2 0xB9D JUMP JUMPDEST PUSH1 0x40 MLOAD PUSH2 0x1D9 SWAP2 SWAP1 PUSH2 0x2953 JUMP JUMPDEST PUSH1 0x40 MLOAD DUP1 SWAP2 SUB SWAP1 RETURN JUMPDEST PUSH2 0x1FC PUSH1 0x4 DUP1 CALLDATASIZE SUB DUP2 ADD SWAP1 PUSH2 0x1F7 SWAP2 SWAP1 PUSH2 0x273C JUMP JUMPDEST PUSH2 0xC67 JUMP JUMPDEST PUSH1 0x40 MLOAD PUSH2 0x209 SWAP2 SWAP1 PUSH2 0x2953 JUMP JUMPDEST PUSH1 0x40 MLOAD DUP1 SWAP2 SUB SWAP1 RETURN JUMPDEST PUSH2 0x22C PUSH1 0x4 DUP1 CALLDATASIZE SUB DUP2 ADD SWAP1 PUSH2 0x227 SWAP2 SWAP1 PUSH2 0x273C JUMP JUMPDEST PUSH2 0x101C JUMP JUMPDEST PUSH1 0x40 MLOAD PUSH2 0x239 SWAP2 SWAP1 PUSH2 0x2953 JUMP JUMPDEST PUSH1 0x40 MLOAD DUP1 SWAP2 SUB SWAP1 RETURN JUMPDEST PUSH2 0x24A PUSH2 0x13D1 JUMP JUMPDEST STOP JUMPDEST PUSH1 0x0 DUP1 PUSH2 0x2AE PUSH2 0x296 PUSH2 0x286 PUSH2 0x281 PUSH1 0x2 SLOAD PUSH2 0x273 PUSH1 0x5 SLOAD DUP10 PUSH2 0x160E SWAP1 SWAP2 SWAP1 PUSH4 0xFFFFFFFF AND JUMP JUMPDEST PUSH2 0x1689 SWAP1 SWAP2 SWAP1 PUSH4 0xFFFFFFFF AND JUMP JUMPDEST PUSH2 0x16D3 JUMP JUMPDEST PUSH2 0x291 PUSH1 0x4 SLOAD PUSH2 0x16D3 JUMP JUMPDEST PUSH2 0x1764 JUMP JUMPDEST PUSH8 0xDE0B6B3A7640000 PUSH2 0x2A9 SWAP2 SWAP1 PUSH2 0x29B3 JUMP JUMPDEST PUSH2 0x1781 JUMP JUMPDEST SWAP1 POP PUSH2 0x2D2 PUSH2 0x2CA PUSH2 0x2C2 DUP4 PUSH1 0x2 SLOAD PUSH2 0x17B5 JUMP JUMPDEST PUSH1 0x3 SLOAD PUSH2 0x17B5 JUMP JUMPDEST PUSH1 0x5 SLOAD PUSH2 0x1764 JUMP JUMPDEST SWAP2 POP POP SWAP2 SWAP1 POP JUMP JUMPDEST PUSH1 0x0 DUP1 PUSH2 0x397 PUSH2 0x392 DUP5 PUSH1 0x6 PUSH1 0x0 SWAP1 SLOAD SWAP1 PUSH2 0x100 EXP SWAP1 DIV PUSH20 0xFFFFFFFFFFFFFFFFFFFFFFFFFFFFFFFFFFFFFFFF AND PUSH20 0xFFFFFFFFFFFFFFFFFFFFFFFFFFFFFFFFFFFFFFFF AND PUSH4 0x18160DDD PUSH1 0x40 MLOAD DUP2 PUSH4 0xFFFFFFFF AND PUSH1 0xE0 SHL DUP2 MSTORE PUSH1 0x4 ADD PUSH1 0x20 PUSH1 0x40 MLOAD DUP1 DUP4 SUB DUP2 DUP7 DUP1 EXTCODESIZE ISZERO DUP1 ISZERO PUSH2 0x34C JUMPI PUSH1 0x0 DUP1 REVERT JUMPDEST POP GAS STATICCALL ISZERO DUP1 ISZERO PUSH2 0x360 JUMPI RETURNDATASIZE PUSH1 0x0 DUP1 RETURNDATACOPY RETURNDATASIZE PUSH1 0x0 REVERT JUMPDEST POP POP POP POP PUSH1 0x40 MLOAD RETURNDATASIZE PUSH1 0x1F NOT PUSH1 0x1F DUP3 ADD AND DUP3 ADD DUP1 PUSH1 0x40 MSTORE POP DUP2 ADD SWAP1 PUSH2 0x384 SWAP2 SWAP1 PUSH2 0x2769 JUMP JUMPDEST PUSH2 0x17C9 SWAP1 SWAP2 SWAP1 PUSH4 0xFFFFFFFF AND JUMP JUMPDEST PUSH2 0x739 JUMP JUMPDEST SWAP1 POP PUSH2 0x3DA PUSH1 0x1 SLOAD PUSH2 0x3CC PUSH8 0xDE0B6B3A7640000 PUSH2 0x3BE DUP8 DUP7 PUSH2 0x160E SWAP1 SWAP2 SWAP1 PUSH4 0xFFFFFFFF AND JUMP JUMPDEST PUSH2 0x1689 SWAP1 SWAP2 SWAP1 PUSH4 0xFFFFFFFF AND JUMP JUMPDEST PUSH2 0x1689 SWAP1 SWAP2 SWAP1 PUSH4 0xFFFFFFFF AND JUMP JUMPDEST SWAP2 POP POP SWAP2 SWAP1 POP JUMP JUMPDEST PUSH1 0x0 DUP1 PUSH2 0x49F PUSH2 0x49A DUP5 PUSH1 0x6 PUSH1 0x0 SWAP1 SLOAD SWAP1 PUSH2 0x100 EXP SWAP1 DIV PUSH20 0xFFFFFFFFFFFFFFFFFFFFFFFFFFFFFFFFFFFFFFFF AND PUSH20 0xFFFFFFFFFFFFFFFFFFFFFFFFFFFFFFFFFFFFFFFF AND PUSH4 0x18160DDD PUSH1 0x40 MLOAD DUP2 PUSH4 0xFFFFFFFF AND PUSH1 0xE0 SHL DUP2 MSTORE PUSH1 0x4 ADD PUSH1 0x20 PUSH1 0x40 MLOAD DUP1 DUP4 SUB DUP2 DUP7 DUP1 EXTCODESIZE ISZERO DUP1 ISZERO PUSH2 0x454 JUMPI PUSH1 0x0 DUP1 REVERT JUMPDEST POP GAS STATICCALL ISZERO DUP1 ISZERO PUSH2 0x468 JUMPI RETURNDATASIZE PUSH1 0x0 DUP1 RETURNDATACOPY RETURNDATASIZE PUSH1 0x0 REVERT JUMPDEST POP POP POP POP PUSH1 0x40 MLOAD RETURNDATASIZE PUSH1 0x1F NOT PUSH1 0x1F DUP3 ADD AND DUP3 ADD DUP1 PUSH1 0x40 MSTORE POP DUP2 ADD SWAP1 PUSH2 0x48C SWAP2 SWAP1 PUSH2 0x2769 JUMP JUMPDEST PUSH2 0x1827 SWAP1 SWAP2 SWAP1 PUSH4 0xFFFFFFFF AND JUMP JUMPDEST PUSH2 0x739 JUMP JUMPDEST SWAP1 POP PUSH2 0x4E2 PUSH1 0x1 SLOAD PUSH2 0x4D4 PUSH8 0xDE0B6B3A7640000 PUSH2 0x4C6 DUP8 DUP7 PUSH2 0x160E SWAP1 SWAP2 SWAP1 PUSH4 0xFFFFFFFF AND JUMP JUMPDEST PUSH2 0x1689 SWAP1 SWAP2 SWAP1 PUSH4 0xFFFFFFFF AND JUMP JUMPDEST PUSH2 0x1689 SWAP1 SWAP2 SWAP1 PUSH4 0xFFFFFFFF AND JUMP JUMPDEST SWAP2 POP POP SWAP2 SWAP1 POP JUMP JUMPDEST PUSH1 0x0 PUSH2 0x5A6 PUSH2 0x5A1 DUP4 PUSH1 0x6 PUSH1 0x0 SWAP1 SLOAD SWAP1 PUSH2 0x100 EXP SWAP1 DIV PUSH20 0xFFFFFFFFFFFFFFFFFFFFFFFFFFFFFFFFFFFFFFFF AND PUSH20 0xFFFFFFFFFFFFFFFFFFFFFFFFFFFFFFFFFFFFFFFF AND PUSH4 0x18160DDD PUSH1 0x40 MLOAD DUP2 PUSH4 0xFFFFFFFF AND PUSH1 0xE0 SHL DUP2 MSTORE PUSH1 0x4 ADD PUSH1 0x20 PUSH1 0x40 MLOAD DUP1 DUP4 SUB DUP2 DUP7 DUP1 EXTCODESIZE ISZERO DUP1 ISZERO PUSH2 0x55B JUMPI PUSH1 0x0 DUP1 REVERT JUMPDEST POP GAS STATICCALL ISZERO DUP1 ISZERO PUSH2 0x56F JUMPI RETURNDATASIZE PUSH1 0x0 DUP1 RETURNDATACOPY RETURNDATASIZE PUSH1 0x0 REVERT JUMPDEST POP POP POP POP PUSH1 0x40 MLOAD RETURNDATASIZE PUSH1 0x1F NOT PUSH1 0x1F DUP3 ADD AND DUP3 ADD DUP1 PUSH1 0x40 MSTORE POP DUP2 ADD SWAP1 PUSH2 0x593 SWAP2 SWAP1 PUSH2 0x2769 JUMP JUMPDEST PUSH2 0x17C9 SWAP1 SWAP2 SWAP1 PUSH4 0xFFFFFFFF AND JUMP JUMPDEST PUSH2 0x739 JUMP JUMPDEST SWAP1 POP PUSH1 0x0 DUP1 SLOAD SWAP1 PUSH2 0x100 EXP SWAP1 DIV PUSH20 0xFFFFFFFFFFFFFFFFFFFFFFFFFFFFFFFFFFFFFFFF AND PUSH20 0xFFFFFFFFFFFFFFFFFFFFFFFFFFFFFFFFFFFFFFFF AND PUSH4 0x23B872DD PUSH2 0x5EC PUSH2 0x1871 JUMP JUMPDEST ADDRESS PUSH2 0x62E PUSH1 0x1 SLOAD PUSH2 0x620 PUSH8 0xDE0B6B3A7640000 PUSH2 0x612 DUP11 DUP11 PUSH2 0x160E SWAP1 SWAP2 SWAP1 PUSH4 0xFFFFFFFF AND JUMP JUMPDEST PUSH2 0x1689 SWAP1 SWAP2 SWAP1 PUSH4 0xFFFFFFFF AND JUMP JUMPDEST PUSH2 0x1689 SWAP1 SWAP2 SWAP1 PUSH4 0xFFFFFFFF AND JUMP JUMPDEST PUSH1 0x40 MLOAD DUP5 PUSH4 0xFFFFFFFF AND PUSH1 0xE0 SHL DUP2 MSTORE PUSH1 0x4 ADD PUSH2 0x64C SWAP4 SWAP3 SWAP2 SWAP1 PUSH2 0x2871 JUMP JUMPDEST PUSH1 0x20 PUSH1 0x40 MLOAD DUP1 DUP4 SUB DUP2 PUSH1 0x0 DUP8 DUP1 EXTCODESIZE ISZERO DUP1 ISZERO PUSH2 0x666 JUMPI PUSH1 0x0 DUP1 REVERT JUMPDEST POP GAS CALL ISZERO DUP1 ISZERO PUSH2 0x67A JUMPI RETURNDATASIZE PUSH1 0x0 DUP1 RETURNDATACOPY RETURNDATASIZE PUSH1 0x0 REVERT JUMPDEST POP POP POP POP PUSH1 0x40 MLOAD RETURNDATASIZE PUSH1 0x1F NOT PUSH1 0x1F DUP3 ADD AND DUP3 ADD DUP1 PUSH1 0x40 MSTORE POP DUP2 ADD SWAP1 PUSH2 0x69E SWAP2 SWAP1 PUSH2 0x270F JUMP JUMPDEST POP PUSH1 0x6 PUSH1 0x0 SWAP1 SLOAD SWAP1 PUSH2 0x100 EXP SWAP1 DIV PUSH20 0xFFFFFFFFFFFFFFFFFFFFFFFFFFFFFFFFFFFFFFFF AND PUSH20 0xFFFFFFFFFFFFFFFFFFFFFFFFFFFFFFFFFFFFFFFF AND PUSH4 0x40C10F19 PUSH2 0x6E5 PUSH2 0x1871 JUMP JUMPDEST DUP5 PUSH1 0x40 MLOAD DUP4 PUSH4 0xFFFFFFFF AND PUSH1 0xE0 SHL DUP2 MSTORE PUSH1 0x4 ADD PUSH2 0x703 SWAP3 SWAP2 SWAP1 PUSH2 0x28A8 JUMP JUMPDEST PUSH1 0x0 PUSH1 0x40 MLOAD DUP1 DUP4 SUB DUP2 PUSH1 0x0 DUP8 DUP1 EXTCODESIZE ISZERO DUP1 ISZERO PUSH2 0x71D JUMPI PUSH1 0x0 DUP1 REVERT JUMPDEST POP GAS CALL ISZERO DUP1 ISZERO PUSH2 0x731 JUMPI RETURNDATASIZE PUSH1 0x0 DUP1 RETURNDATACOPY RETURNDATASIZE PUSH1 0x0 REVERT JUMPDEST POP POP POP POP POP POP JUMP JUMPDEST PUSH1 0x0 DUP1 PUSH2 0x765 PUSH1 0x2 SLOAD PUSH2 0x757 PUSH1 0x5 SLOAD DUP7 PUSH2 0x160E SWAP1 SWAP2 SWAP1 PUSH4 0xFFFFFFFF AND JUMP JUMPDEST PUSH2 0x1689 SWAP1 SWAP2 SWAP1 PUSH4 0xFFFFFFFF AND JUMP JUMPDEST SWAP1 POP PUSH1 0x0 PUSH2 0x7A0 PUSH2 0x79B DUP4 PUSH2 0x78D PUSH8 0x8AC7230489E80000 PUSH1 0x4 SLOAD PUSH2 0x17C9 SWAP1 SWAP2 SWAP1 PUSH4 0xFFFFFFFF AND JUMP JUMPDEST PUSH2 0x1827 SWAP1 SWAP2 SWAP1 PUSH4 0xFFFFFFFF AND JUMP JUMPDEST PUSH2 0x16D3 JUMP JUMPDEST PUSH2 0x7B1 PUSH8 0x8AC7230489E80000 PUSH2 0x16D3 JUMP JUMPDEST PUSH2 0x7BB SWAP2 SWAP1 PUSH2 0x29B3 JUMP JUMPDEST SWAP1 POP PUSH1 0x0 PUSH2 0x7DB PUSH1 0x3 SLOAD PUSH2 0x7D6 PUSH8 0x8AC7230489E80000 PUSH2 0x16D3 JUMP JUMPDEST PUSH2 0x17B5 JUMP JUMPDEST SWAP1 POP PUSH2 0x7E7 DUP2 DUP4 PUSH2 0x1764 JUMP JUMPDEST SWAP4 POP POP POP POP SWAP2 SWAP1 POP JUMP JUMPDEST PUSH1 0x0 PUSH2 0x89B PUSH1 0x6 PUSH1 0x0 SWAP1 SLOAD SWAP1 PUSH2 0x100 EXP SWAP1 DIV PUSH20 0xFFFFFFFFFFFFFFFFFFFFFFFFFFFFFFFFFFFFFFFF AND PUSH20 0xFFFFFFFFFFFFFFFFFFFFFFFFFFFFFFFFFFFFFFFF AND PUSH4 0x18160DDD PUSH1 0x40 MLOAD DUP2 PUSH4 0xFFFFFFFF AND PUSH1 0xE0 SHL DUP2 MSTORE PUSH1 0x4 ADD PUSH1 0x20 PUSH1 0x40 MLOAD DUP1 DUP4 SUB DUP2 DUP7 DUP1 EXTCODESIZE ISZERO DUP1 ISZERO PUSH2 0x85E JUMPI PUSH1 0x0 DUP1 REVERT JUMPDEST POP GAS STATICCALL ISZERO DUP1 ISZERO PUSH2 0x872 JUMPI RETURNDATASIZE PUSH1 0x0 DUP1 RETURNDATACOPY RETURNDATASIZE PUSH1 0x0 REVERT JUMPDEST POP POP POP POP PUSH1 0x40 MLOAD RETURNDATASIZE PUSH1 0x1F NOT PUSH1 0x1F DUP3 ADD AND DUP3 ADD DUP1 PUSH1 0x40 MSTORE POP DUP2 ADD SWAP1 PUSH2 0x896 SWAP2 SWAP1 PUSH2 0x2769 JUMP JUMPDEST PUSH2 0x739 JUMP JUMPDEST SWAP1 POP SWAP1 JUMP JUMPDEST PUSH1 0x0 PUSH2 0x95C PUSH2 0x957 DUP4 PUSH1 0x6 PUSH1 0x0 SWAP1 SLOAD SWAP1 PUSH2 0x100 EXP SWAP1 DIV PUSH20 0xFFFFFFFFFFFFFFFFFFFFFFFFFFFFFFFFFFFFFFFF AND PUSH20 0xFFFFFFFFFFFFFFFFFFFFFFFFFFFFFFFFFFFFFFFF AND PUSH4 0x18160DDD PUSH1 0x40 MLOAD DUP2 PUSH4 0xFFFFFFFF AND PUSH1 0xE0 SHL DUP2 MSTORE PUSH1 0x4 ADD PUSH1 0x20 PUSH1 0x40 MLOAD DUP1 DUP4 SUB DUP2 DUP7 DUP1 EXTCODESIZE ISZERO DUP1 ISZERO PUSH2 0x911 JUMPI PUSH1 0x0 DUP1 REVERT JUMPDEST POP GAS STATICCALL ISZERO DUP1 ISZERO PUSH2 0x925 JUMPI RETURNDATASIZE PUSH1 0x0 DUP1 RETURNDATACOPY RETURNDATASIZE PUSH1 0x0 REVERT JUMPDEST POP POP POP POP PUSH1 0x40 MLOAD RETURNDATASIZE PUSH1 0x1F NOT PUSH1 0x1F DUP3 ADD AND DUP3 ADD DUP1 PUSH1 0x40 MSTORE POP DUP2 ADD SWAP1 PUSH2 0x949 SWAP2 SWAP1 PUSH2 0x2769 JUMP JUMPDEST PUSH2 0x1827 SWAP1 SWAP2 SWAP1 PUSH4 0xFFFFFFFF AND JUMP JUMPDEST PUSH2 0x739 JUMP JUMPDEST SWAP1 POP PUSH1 0x0 DUP1 SLOAD SWAP1 PUSH2 0x100 EXP SWAP1 DIV PUSH20 0xFFFFFFFFFFFFFFFFFFFFFFFFFFFFFFFFFFFFFFFF AND PUSH20 0xFFFFFFFFFFFFFFFFFFFFFFFFFFFFFFFFFFFFFFFF AND PUSH4 0xA9059CBB PUSH2 0x9A2 PUSH2 0x1871 JUMP JUMPDEST PUSH2 0x9E3 PUSH1 0x1 SLOAD PUSH2 0x9D5 PUSH8 0xDE0B6B3A7640000 PUSH2 0x9C7 DUP10 DUP10 PUSH2 0x160E SWAP1 SWAP2 SWAP1 PUSH4 0xFFFFFFFF AND JUMP JUMPDEST PUSH2 0x1689 SWAP1 SWAP2 SWAP1 PUSH4 0xFFFFFFFF AND JUMP JUMPDEST PUSH2 0x1689 SWAP1 SWAP2 SWAP1 PUSH4 0xFFFFFFFF AND JUMP JUMPDEST PUSH1 0x40 MLOAD DUP4 PUSH4 0xFFFFFFFF AND PUSH1 0xE0 SHL DUP2 MSTORE PUSH1 0x4 ADD PUSH2 0xA00 SWAP3 SWAP2 SWAP1 PUSH2 0x28A8 JUMP JUMPDEST PUSH1 0x20 PUSH1 0x40 MLOAD DUP1 DUP4 SUB DUP2 PUSH1 0x0 DUP8 DUP1 EXTCODESIZE ISZERO DUP1 ISZERO PUSH2 0xA1A JUMPI PUSH1 0x0 DUP1 REVERT JUMPDEST POP GAS CALL ISZERO DUP1 ISZERO PUSH2 0xA2E JUMPI RETURNDATASIZE PUSH1 0x0 DUP1 RETURNDATACOPY RETURNDATASIZE PUSH1 0x0 REVERT JUMPDEST POP POP POP POP PUSH1 0x40 MLOAD RETURNDATASIZE PUSH1 0x1F NOT PUSH1 0x1F DUP3 ADD AND DUP3 ADD DUP1 PUSH1 0x40 MSTORE POP DUP2 ADD SWAP1 PUSH2 0xA52 SWAP2 SWAP1 PUSH2 0x270F JUMP JUMPDEST POP PUSH1 0x6 PUSH1 0x0 SWAP1 SLOAD SWAP1 PUSH2 0x100 EXP SWAP1 DIV PUSH20 0xFFFFFFFFFFFFFFFFFFFFFFFFFFFFFFFFFFFFFFFF AND PUSH20 0xFFFFFFFFFFFFFFFFFFFFFFFFFFFFFFFFFFFFFFFF AND PUSH4 0x23B872DD PUSH2 0xA99 PUSH2 0x1871 JUMP JUMPDEST ADDRESS DUP6 PUSH1 0x40 MLOAD DUP5 PUSH4 0xFFFFFFFF AND PUSH1 0xE0 SHL DUP2 MSTORE PUSH1 0x4 ADD PUSH2 0xAB9 SWAP4 SWAP3 SWAP2 SWAP1 PUSH2 0x2871 JUMP JUMPDEST PUSH1 0x20 PUSH1 0x40 MLOAD DUP1 DUP4 SUB DUP2 PUSH1 0x0 DUP8 DUP1 EXTCODESIZE ISZERO DUP1 ISZERO PUSH2 0xAD3 JUMPI PUSH1 0x0 DUP1 REVERT JUMPDEST POP GAS CALL ISZERO DUP1 ISZERO PUSH2 0xAE7 JUMPI RETURNDATASIZE PUSH1 0x0 DUP1 RETURNDATACOPY RETURNDATASIZE PUSH1 0x0 REVERT JUMPDEST POP POP POP POP PUSH1 0x40 MLOAD RETURNDATASIZE PUSH1 0x1F NOT PUSH1 0x1F DUP3 ADD AND DUP3 ADD DUP1 PUSH1 0x40 MSTORE POP DUP2 ADD SWAP1 PUSH2 0xB0B SWAP2 SWAP1 PUSH2 0x270F JUMP JUMPDEST POP PUSH1 0x6 PUSH1 0x0 SWAP1 SLOAD SWAP1 PUSH2 0x100 EXP SWAP1 DIV PUSH20 0xFFFFFFFFFFFFFFFFFFFFFFFFFFFFFFFFFFFFFFFF AND PUSH20 0xFFFFFFFFFFFFFFFFFFFFFFFFFFFFFFFFFFFFFFFF AND PUSH4 0x42966C68 DUP4 PUSH1 0x40 MLOAD DUP3 PUSH4 0xFFFFFFFF AND PUSH1 0xE0 SHL DUP2 MSTORE PUSH1 0x4 ADD PUSH2 0xB67 SWAP2 SWAP1 PUSH2 0x2953 JUMP JUMPDEST PUSH1 0x0 PUSH1 0x40 MLOAD DUP1 DUP4 SUB DUP2 PUSH1 0x0 DUP8 DUP1 EXTCODESIZE ISZERO DUP1 ISZERO PUSH2 0xB81 JUMPI PUSH1 0x0 DUP1 REVERT JUMPDEST POP GAS CALL ISZERO DUP1 ISZERO PUSH2 0xB95 JUMPI RETURNDATASIZE PUSH1 0x0 DUP1 RETURNDATACOPY RETURNDATASIZE PUSH1 0x0 REVERT JUMPDEST POP POP POP POP POP POP JUMP JUMPDEST PUSH1 0x0 PUSH2 0xC62 PUSH2 0xBAC PUSH1 0x0 PUSH2 0x24C JUMP JUMPDEST PUSH2 0xC54 PUSH1 0x6 PUSH1 0x0 SWAP1 SLOAD SWAP1 PUSH2 0x100 EXP SWAP1 DIV PUSH20 0xFFFFFFFFFFFFFFFFFFFFFFFFFFFFFFFFFFFFFFFF AND PUSH20 0xFFFFFFFFFFFFFFFFFFFFFFFFFFFFFFFFFFFFFFFF AND PUSH4 0x18160DDD PUSH1 0x40 MLOAD DUP2 PUSH4 0xFFFFFFFF AND PUSH1 0xE0 SHL DUP2 MSTORE PUSH1 0x4 ADD PUSH1 0x20 PUSH1 0x40 MLOAD DUP1 DUP4 SUB DUP2 DUP7 DUP1 EXTCODESIZE ISZERO DUP1 ISZERO PUSH2 0xC17 JUMPI PUSH1 0x0 DUP1 REVERT JUMPDEST POP GAS STATICCALL ISZERO DUP1 ISZERO PUSH2 0xC2B JUMPI RETURNDATASIZE PUSH1 0x0 DUP1 RETURNDATACOPY RETURNDATASIZE PUSH1 0x0 REVERT JUMPDEST POP POP POP POP PUSH1 0x40 MLOAD RETURNDATASIZE PUSH1 0x1F NOT PUSH1 0x1F DUP3 ADD AND DUP3 ADD DUP1 PUSH1 0x40 MSTORE POP DUP2 ADD SWAP1 PUSH2 0xC4F SWAP2 SWAP1 PUSH2 0x2769 JUMP JUMPDEST PUSH2 0x24C JUMP JUMPDEST PUSH2 0x1827 SWAP1 SWAP2 SWAP1 PUSH4 0xFFFFFFFF AND JUMP JUMPDEST SWAP1 POP SWAP1 JUMP JUMPDEST PUSH1 0x0 PUSH2 0xC7E PUSH1 0x1 SLOAD DUP4 PUSH2 0x160E SWAP1 SWAP2 SWAP1 PUSH4 0xFFFFFFFF AND JUMP JUMPDEST SWAP2 POP PUSH1 0x0 PUSH2 0xD56 PUSH2 0xD2D PUSH1 0x6 PUSH1 0x0 SWAP1 SLOAD SWAP1 PUSH2 0x100 EXP SWAP1 DIV PUSH20 0xFFFFFFFFFFFFFFFFFFFFFFFFFFFFFFFFFFFFFFFF AND PUSH20 0xFFFFFFFFFFFFFFFFFFFFFFFFFFFFFFFFFFFFFFFF AND PUSH4 0x18160DDD PUSH1 0x40 MLOAD DUP2 PUSH4 0xFFFFFFFF AND PUSH1 0xE0 SHL DUP2 MSTORE PUSH1 0x4 ADD PUSH1 0x20 PUSH1 0x40 MLOAD DUP1 DUP4 SUB DUP2 DUP7 DUP1 EXTCODESIZE ISZERO DUP1 ISZERO PUSH2 0xCF0 JUMPI PUSH1 0x0 DUP1 REVERT JUMPDEST POP GAS STATICCALL ISZERO DUP1 ISZERO PUSH2 0xD04 JUMPI RETURNDATASIZE PUSH1 0x0 DUP1 RETURNDATACOPY RETURNDATASIZE PUSH1 0x0 REVERT JUMPDEST POP POP POP POP PUSH1 0x40 MLOAD RETURNDATASIZE PUSH1 0x1F NOT PUSH1 0x1F DUP3 ADD AND DUP3 ADD DUP1 PUSH1 0x40 MSTORE POP DUP2 ADD SWAP1 PUSH2 0xD28 SWAP2 SWAP1 PUSH2 0x2769 JUMP JUMPDEST PUSH2 0x739 JUMP JUMPDEST PUSH2 0xD48 PUSH8 0xDE0B6B3A7640000 DUP7 PUSH2 0x160E SWAP1 SWAP2 SWAP1 PUSH4 0xFFFFFFFF AND JUMP JUMPDEST PUSH2 0x1689 SWAP1 SWAP2 SWAP1 PUSH4 0xFFFFFFFF AND JUMP JUMPDEST SWAP1 POP PUSH1 0x0 PUSH2 0xE40 PUSH2 0xE17 PUSH2 0xE12 DUP5 PUSH1 0x6 PUSH1 0x0 SWAP1 SLOAD SWAP1 PUSH2 0x100 EXP SWAP1 DIV PUSH20 0xFFFFFFFFFFFFFFFFFFFFFFFFFFFFFFFFFFFFFFFF AND PUSH20 0xFFFFFFFFFFFFFFFFFFFFFFFFFFFFFFFFFFFFFFFF AND PUSH4 0x18160DDD PUSH1 0x40 MLOAD DUP2 PUSH4 0xFFFFFFFF AND PUSH1 0xE0 SHL DUP2 MSTORE PUSH1 0x4 ADD PUSH1 0x20 PUSH1 0x40 MLOAD DUP1 DUP4 SUB DUP2 DUP7 DUP1 EXTCODESIZE ISZERO DUP1 ISZERO PUSH2 0xDCC JUMPI PUSH1 0x0 DUP1 REVERT JUMPDEST POP GAS STATICCALL ISZERO DUP1 ISZERO PUSH2 0xDE0 JUMPI RETURNDATASIZE PUSH1 0x0 DUP1 RETURNDATACOPY RETURNDATASIZE PUSH1 0x0 REVERT JUMPDEST POP POP POP POP PUSH1 0x40 MLOAD RETURNDATASIZE PUSH1 0x1F NOT PUSH1 0x1F DUP3 ADD AND DUP3 ADD DUP1 PUSH1 0x40 MSTORE POP DUP2 ADD SWAP1 PUSH2 0xE04 SWAP2 SWAP1 PUSH2 0x2769 JUMP JUMPDEST PUSH2 0x1827 SWAP1 SWAP2 SWAP1 PUSH4 0xFFFFFFFF AND JUMP JUMPDEST PUSH2 0x739 JUMP JUMPDEST PUSH2 0xE32 PUSH8 0xDE0B6B3A7640000 DUP8 PUSH2 0x160E SWAP1 SWAP2 SWAP1 PUSH4 0xFFFFFFFF AND JUMP JUMPDEST PUSH2 0x1689 SWAP1 SWAP2 SWAP1 PUSH4 0xFFFFFFFF AND JUMP JUMPDEST SWAP1 POP PUSH2 0xF28 PUSH2 0xEFF PUSH2 0xEFA DUP4 PUSH1 0x6 PUSH1 0x0 SWAP1 SLOAD SWAP1 PUSH2 0x100 EXP SWAP1 DIV PUSH20 0xFFFFFFFFFFFFFFFFFFFFFFFFFFFFFFFFFFFFFFFF AND PUSH20 0xFFFFFFFFFFFFFFFFFFFFFFFFFFFFFFFFFFFFFFFF AND PUSH4 0x18160DDD PUSH1 0x40 MLOAD DUP2 PUSH4 0xFFFFFFFF AND PUSH1 0xE0 SHL DUP2 MSTORE PUSH1 0x4 ADD PUSH1 0x20 PUSH1 0x40 MLOAD DUP1 DUP4 SUB DUP2 DUP7 DUP1 EXTCODESIZE ISZERO DUP1 ISZERO PUSH2 0xEB4 JUMPI PUSH1 0x0 DUP1 REVERT JUMPDEST POP GAS STATICCALL ISZERO DUP1 ISZERO PUSH2 0xEC8 JUMPI RETURNDATASIZE PUSH1 0x0 DUP1 RETURNDATACOPY RETURNDATASIZE PUSH1 0x0 REVERT JUMPDEST POP POP POP POP PUSH1 0x40 MLOAD RETURNDATASIZE PUSH1 0x1F NOT PUSH1 0x1F DUP3 ADD AND DUP3 ADD DUP1 PUSH1 0x40 MSTORE POP DUP2 ADD SWAP1 PUSH2 0xEEC SWAP2 SWAP1 PUSH2 0x2769 JUMP JUMPDEST PUSH2 0x1827 SWAP1 SWAP2 SWAP1 PUSH4 0xFFFFFFFF AND JUMP JUMPDEST PUSH2 0x739 JUMP JUMPDEST PUSH2 0xF1A PUSH8 0xDE0B6B3A7640000 DUP8 PUSH2 0x160E SWAP1 SWAP2 SWAP1 PUSH4 0xFFFFFFFF AND JUMP JUMPDEST PUSH2 0x1689 SWAP1 SWAP2 SWAP1 PUSH4 0xFFFFFFFF AND JUMP JUMPDEST SWAP2 POP PUSH2 0x1010 PUSH2 0xFE7 PUSH2 0xFE2 DUP5 PUSH1 0x6 PUSH1 0x0 SWAP1 SLOAD SWAP1 PUSH2 0x100 EXP SWAP1 DIV PUSH20 0xFFFFFFFFFFFFFFFFFFFFFFFFFFFFFFFFFFFFFFFF AND PUSH20 0xFFFFFFFFFFFFFFFFFFFFFFFFFFFFFFFFFFFFFFFF AND PUSH4 0x18160DDD PUSH1 0x40 MLOAD DUP2 PUSH4 0xFFFFFFFF AND PUSH1 0xE0 SHL DUP2 MSTORE PUSH1 0x4 ADD PUSH1 0x20 PUSH1 0x40 MLOAD DUP1 DUP4 SUB DUP2 DUP7 DUP1 EXTCODESIZE ISZERO DUP1 ISZERO PUSH2 0xF9C JUMPI PUSH1 0x0 DUP1 REVERT JUMPDEST POP GAS STATICCALL ISZERO DUP1 ISZERO PUSH2 0xFB0 JUMPI RETURNDATASIZE PUSH1 0x0 DUP1 RETURNDATACOPY RETURNDATASIZE PUSH1 0x0 REVERT JUMPDEST POP POP POP POP PUSH1 0x40 MLOAD RETURNDATASIZE PUSH1 0x1F NOT PUSH1 0x1F DUP3 ADD AND DUP3 ADD DUP1 PUSH1 0x40 MSTORE POP DUP2 ADD SWAP1 PUSH2 0xFD4 SWAP2 SWAP1 PUSH2 0x2769 JUMP JUMPDEST PUSH2 0x1827 SWAP1 SWAP2 SWAP1 PUSH4 0xFFFFFFFF AND JUMP JUMPDEST PUSH2 0x739 JUMP JUMPDEST PUSH2 0x1002 PUSH8 0xDE0B6B3A7640000 DUP8 PUSH2 0x160E SWAP1 SWAP2 SWAP1 PUSH4 0xFFFFFFFF AND JUMP JUMPDEST PUSH2 0x1689 SWAP1 SWAP2 SWAP1 PUSH4 0xFFFFFFFF AND JUMP JUMPDEST SWAP1 POP DUP1 SWAP3 POP POP POP SWAP2 SWAP1 POP JUMP JUMPDEST PUSH1 0x0 PUSH2 0x1033 PUSH1 0x1 SLOAD DUP4 PUSH2 0x160E SWAP1 SWAP2 SWAP1 PUSH4 0xFFFFFFFF AND JUMP JUMPDEST SWAP2 POP PUSH1 0x0 PUSH2 0x110B PUSH2 0x10E2 PUSH1 0x6 PUSH1 0x0 SWAP1 SLOAD SWAP1 PUSH2 0x100 EXP SWAP1 DIV PUSH20 0xFFFFFFFFFFFFFFFFFFFFFFFFFFFFFFFFFFFFFFFF AND PUSH20 0xFFFFFFFFFFFFFFFFFFFFFFFFFFFFFFFFFFFFFFFF AND PUSH4 0x18160DDD PUSH1 0x40 MLOAD DUP2 PUSH4 0xFFFFFFFF AND PUSH1 0xE0 SHL DUP2 MSTORE PUSH1 0x4 ADD PUSH1 0x20 PUSH1 0x40 MLOAD DUP1 DUP4 SUB DUP2 DUP7 DUP1 EXTCODESIZE ISZERO DUP1 ISZERO PUSH2 0x10A5 JUMPI PUSH1 0x0 DUP1 REVERT JUMPDEST POP GAS STATICCALL ISZERO DUP1 ISZERO PUSH2 0x10B9 JUMPI RETURNDATASIZE PUSH1 0x0 DUP1 RETURNDATACOPY RETURNDATASIZE PUSH1 0x0 REVERT JUMPDEST POP POP POP POP PUSH1 0x40 MLOAD RETURNDATASIZE PUSH1 0x1F NOT PUSH1 0x1F DUP3 ADD AND DUP3 ADD DUP1 PUSH1 0x40 MSTORE POP DUP2 ADD SWAP1 PUSH2 0x10DD SWAP2 SWAP1 PUSH2 0x2769 JUMP JUMPDEST PUSH2 0x739 JUMP JUMPDEST PUSH2 0x10FD PUSH8 0xDE0B6B3A7640000 DUP7 PUSH2 0x160E SWAP1 SWAP2 SWAP1 PUSH4 0xFFFFFFFF AND JUMP JUMPDEST PUSH2 0x1689 SWAP1 SWAP2 SWAP1 PUSH4 0xFFFFFFFF AND JUMP JUMPDEST SWAP1 POP PUSH1 0x0 PUSH2 0x11F5 PUSH2 0x11CC PUSH2 0x11C7 DUP5 PUSH1 0x6 PUSH1 0x0 SWAP1 SLOAD SWAP1 PUSH2 0x100 EXP SWAP1 DIV PUSH20 0xFFFFFFFFFFFFFFFFFFFFFFFFFFFFFFFFFFFFFFFF AND PUSH20 0xFFFFFFFFFFFFFFFFFFFFFFFFFFFFFFFFFFFFFFFF AND PUSH4 0x18160DDD PUSH1 0x40 MLOAD DUP2 PUSH4 0xFFFFFFFF AND PUSH1 0xE0 SHL DUP2 MSTORE PUSH1 0x4 ADD PUSH1 0x20 PUSH1 0x40 MLOAD DUP1 DUP4 SUB DUP2 DUP7 DUP1 EXTCODESIZE ISZERO DUP1 ISZERO PUSH2 0x1181 JUMPI PUSH1 0x0 DUP1 REVERT JUMPDEST POP GAS STATICCALL ISZERO DUP1 ISZERO PUSH2 0x1195 JUMPI RETURNDATASIZE PUSH1 0x0 DUP1 RETURNDATACOPY RETURNDATASIZE PUSH1 0x0 REVERT JUMPDEST POP POP POP POP PUSH1 0x40 MLOAD RETURNDATASIZE PUSH1 0x1F NOT PUSH1 0x1F DUP3 ADD AND DUP3 ADD DUP1 PUSH1 0x40 MSTORE POP DUP2 ADD SWAP1 PUSH2 0x11B9 SWAP2 SWAP1 PUSH2 0x2769 JUMP JUMPDEST PUSH2 0x17C9 SWAP1 SWAP2 SWAP1 PUSH4 0xFFFFFFFF AND JUMP JUMPDEST PUSH2 0x739 JUMP JUMPDEST PUSH2 0x11E7 PUSH8 0xDE0B6B3A7640000 DUP8 PUSH2 0x160E SWAP1 SWAP2 SWAP1 PUSH4 0xFFFFFFFF AND JUMP JUMPDEST PUSH2 0x1689 SWAP1 SWAP2 SWAP1 PUSH4 0xFFFFFFFF AND JUMP JUMPDEST SWAP1 POP PUSH2 0x12DD PUSH2 0x12B4 PUSH2 0x12AF DUP4 PUSH1 0x6 PUSH1 0x0 SWAP1 SLOAD SWAP1 PUSH2 0x100 EXP SWAP1 DIV PUSH20 0xFFFFFFFFFFFFFFFFFFFFFFFFFFFFFFFFFFFFFFFF AND PUSH20 0xFFFFFFFFFFFFFFFFFFFFFFFFFFFFFFFFFFFFFFFF AND PUSH4 0x18160DDD PUSH1 0x40 MLOAD DUP2 PUSH4 0xFFFFFFFF AND PUSH1 0xE0 SHL DUP2 MSTORE PUSH1 0x4 ADD PUSH1 0x20 PUSH1 0x40 MLOAD DUP1 DUP4 SUB DUP2 DUP7 DUP1 EXTCODESIZE ISZERO DUP1 ISZERO PUSH2 0x1269 JUMPI PUSH1 0x0 DUP1 REVERT JUMPDEST POP GAS STATICCALL ISZERO DUP1 ISZERO PUSH2 0x127D JUMPI RETURNDATASIZE PUSH1 0x0 DUP1 RETURNDATACOPY RETURNDATASIZE PUSH1 0x0 REVERT JUMPDEST POP POP POP POP PUSH1 0x40 MLOAD RETURNDATASIZE PUSH1 0x1F NOT PUSH1 0x1F DUP3 ADD AND DUP3 ADD DUP1 PUSH1 0x40 MSTORE POP DUP2 ADD SWAP1 PUSH2 0x12A1 SWAP2 SWAP1 PUSH2 0x2769 JUMP JUMPDEST PUSH2 0x17C9 SWAP1 SWAP2 SWAP1 PUSH4 0xFFFFFFFF AND JUMP JUMPDEST PUSH2 0x739 JUMP JUMPDEST PUSH2 0x12CF PUSH8 0xDE0B6B3A7640000 DUP8 PUSH2 0x160E SWAP1 SWAP2 SWAP1 PUSH4 0xFFFFFFFF AND JUMP JUMPDEST PUSH2 0x1689 SWAP1 SWAP2 SWAP1 PUSH4 0xFFFFFFFF AND JUMP JUMPDEST SWAP2 POP PUSH2 0x13C5 PUSH2 0x139C PUSH2 0x1397 DUP5 PUSH1 0x6 PUSH1 0x0 SWAP1 SLOAD SWAP1 PUSH2 0x100 EXP SWAP1 DIV PUSH20 0xFFFFFFFFFFFFFFFFFFFFFFFFFFFFFFFFFFFFFFFF AND PUSH20 0xFFFFFFFFFFFFFFFFFFFFFFFFFFFFFFFFFFFFFFFF AND PUSH4 0x18160DDD PUSH1 0x40 MLOAD DUP2 PUSH4 0xFFFFFFFF AND PUSH1 0xE0 SHL DUP2 MSTORE PUSH1 0x4 ADD PUSH1 0x20 PUSH1 0x40 MLOAD DUP1 DUP4 SUB DUP2 DUP7 DUP1 EXTCODESIZE ISZERO DUP1 ISZERO PUSH2 0x1351 JUMPI PUSH1 0x0 DUP1 REVERT JUMPDEST POP GAS STATICCALL ISZERO DUP1 ISZERO PUSH2 0x1365 JUMPI RETURNDATASIZE PUSH1 0x0 DUP1 RETURNDATACOPY RETURNDATASIZE PUSH1 0x0 REVERT JUMPDEST POP POP POP POP PUSH1 0x40 MLOAD RETURNDATASIZE PUSH1 0x1F NOT PUSH1 0x1F DUP3 ADD AND DUP3 ADD DUP1 PUSH1 0x40 MSTORE POP DUP2 ADD SWAP1 PUSH2 0x1389 SWAP2 SWAP1 PUSH2 0x2769 JUMP JUMPDEST PUSH2 0x17C9 SWAP1 SWAP2 SWAP1 PUSH4 0xFFFFFFFF AND JUMP JUMPDEST PUSH2 0x739 JUMP JUMPDEST PUSH2 0x13B7 PUSH8 0xDE0B6B3A7640000 DUP8 PUSH2 0x160E SWAP1 SWAP2 SWAP1 PUSH4 0xFFFFFFFF AND JUMP JUMPDEST PUSH2 0x1689 SWAP1 SWAP2 SWAP1 PUSH4 0xFFFFFFFF AND JUMP JUMPDEST SWAP1 POP DUP1 SWAP3 POP POP POP SWAP2 SWAP1 POP JUMP JUMPDEST PUSH1 0x7 PUSH1 0x0 SWAP1 SLOAD SWAP1 PUSH2 0x100 EXP SWAP1 DIV PUSH20 0xFFFFFFFFFFFFFFFFFFFFFFFFFFFFFFFFFFFFFFFF AND PUSH20 0xFFFFFFFFFFFFFFFFFFFFFFFFFFFFFFFFFFFFFFFF AND PUSH2 0x1412 PUSH2 0x1871 JUMP JUMPDEST PUSH20 0xFFFFFFFFFFFFFFFFFFFFFFFFFFFFFFFFFFFFFFFF AND EQ PUSH2 0x1468 JUMPI PUSH1 0x40 MLOAD PUSH32 0x8C379A000000000000000000000000000000000000000000000000000000000 DUP2 MSTORE PUSH1 0x4 ADD PUSH2 0x145F SWAP1 PUSH2 0x2933 JUMP JUMPDEST PUSH1 0x40 MLOAD DUP1 SWAP2 SUB SWAP1 REVERT JUMPDEST PUSH1 0x0 PUSH2 0x1540 PUSH2 0x1475 PUSH2 0xB9D JUMP JUMPDEST PUSH2 0x1532 PUSH1 0x1 SLOAD PUSH1 0x0 DUP1 SLOAD SWAP1 PUSH2 0x100 EXP SWAP1 DIV PUSH20 0xFFFFFFFFFFFFFFFFFFFFFFFFFFFFFFFFFFFFFFFF AND PUSH20 0xFFFFFFFFFFFFFFFFFFFFFFFFFFFFFFFFFFFFFFFF AND PUSH4 0x70A08231 ADDRESS PUSH1 0x40 MLOAD DUP3 PUSH4 0xFFFFFFFF AND PUSH1 0xE0 SHL DUP2 MSTORE PUSH1 0x4 ADD PUSH2 0x14D4 SWAP2 SWAP1 PUSH2 0x2856 JUMP JUMPDEST PUSH1 0x20 PUSH1 0x40 MLOAD DUP1 DUP4 SUB DUP2 DUP7 DUP1 EXTCODESIZE ISZERO DUP1 ISZERO PUSH2 0x14EC JUMPI PUSH1 0x0 DUP1 REVERT JUMPDEST POP GAS STATICCALL ISZERO DUP1 ISZERO PUSH2 0x1500 JUMPI RETURNDATASIZE PUSH1 0x0 DUP1 RETURNDATACOPY RETURNDATASIZE PUSH1 0x0 REVERT JUMPDEST POP POP POP POP PUSH1 0x40 MLOAD RETURNDATASIZE PUSH1 0x1F NOT PUSH1 0x1F DUP3 ADD AND DUP3 ADD DUP1 PUSH1 0x40 MSTORE POP DUP2 ADD SWAP1 PUSH2 0x1524 SWAP2 SWAP1 PUSH2 0x2769 JUMP JUMPDEST PUSH2 0x160E SWAP1 SWAP2 SWAP1 PUSH4 0xFFFFFFFF AND JUMP JUMPDEST PUSH2 0x1827 SWAP1 SWAP2 SWAP1 PUSH4 0xFFFFFFFF AND JUMP JUMPDEST SWAP1 POP PUSH1 0x0 DUP1 SLOAD SWAP1 PUSH2 0x100 EXP SWAP1 DIV PUSH20 0xFFFFFFFFFFFFFFFFFFFFFFFFFFFFFFFFFFFFFFFF AND PUSH20 0xFFFFFFFFFFFFFFFFFFFFFFFFFFFFFFFFFFFFFFFF AND PUSH4 0xA9059CBB PUSH2 0x1586 PUSH2 0x1871 JUMP JUMPDEST PUSH2 0x159B PUSH1 0x1 SLOAD DUP6 PUSH2 0x1689 SWAP1 SWAP2 SWAP1 PUSH4 0xFFFFFFFF AND JUMP JUMPDEST PUSH1 0x40 MLOAD DUP4 PUSH4 0xFFFFFFFF AND PUSH1 0xE0 SHL DUP2 MSTORE PUSH1 0x4 ADD PUSH2 0x15B8 SWAP3 SWAP2 SWAP1 PUSH2 0x28A8 JUMP JUMPDEST PUSH1 0x20 PUSH1 0x40 MLOAD DUP1 DUP4 SUB DUP2 PUSH1 0x0 DUP8 DUP1 EXTCODESIZE ISZERO DUP1 ISZERO PUSH2 0x15D2 JUMPI PUSH1 0x0 DUP1 REVERT JUMPDEST POP GAS CALL ISZERO DUP1 ISZERO PUSH2 0x15E6 JUMPI RETURNDATASIZE PUSH1 0x0 DUP1 RETURNDATACOPY RETURNDATASIZE PUSH1 0x0 REVERT JUMPDEST POP POP POP POP PUSH1 0x40 MLOAD RETURNDATASIZE PUSH1 0x1F NOT PUSH1 0x1F DUP3 ADD AND DUP3 ADD DUP1 PUSH1 0x40 MSTORE POP DUP2 ADD SWAP1 PUSH2 0x160A SWAP2 SWAP1 PUSH2 0x270F JUMP JUMPDEST POP POP JUMP JUMPDEST PUSH1 0x0 DUP1 DUP4 EQ ISZERO PUSH2 0x1621 JUMPI PUSH1 0x0 SWAP1 POP PUSH2 0x1683 JUMP JUMPDEST PUSH1 0x0 DUP3 DUP5 PUSH2 0x162F SWAP2 SWAP1 PUSH2 0x2A3A JUMP JUMPDEST SWAP1 POP DUP3 DUP5 DUP3 PUSH2 0x163E SWAP2 SWAP1 PUSH2 0x2A09 JUMP JUMPDEST EQ PUSH2 0x167E JUMPI PUSH1 0x40 MLOAD PUSH32 0x8C379A000000000000000000000000000000000000000000000000000000000 DUP2 MSTORE PUSH1 0x4 ADD PUSH2 0x1675 SWAP1 PUSH2 0x2913 JUMP JUMPDEST PUSH1 0x40 MLOAD DUP1 SWAP2 SUB SWAP1 REVERT JUMPDEST DUP1 SWAP2 POP POP JUMPDEST SWAP3 SWAP2 POP POP JUMP JUMPDEST PUSH1 0x0 PUSH2 0x16CB DUP4 DUP4 PUSH1 0x40 MLOAD DUP1 PUSH1 0x40 ADD PUSH1 0x40 MSTORE DUP1 PUSH1 0x1A DUP2 MSTORE PUSH1 0x20 ADD PUSH32 0x536166654D6174683A206469766973696F6E206279207A65726F000000000000 DUP2 MSTORE POP PUSH2 0x1879 JUMP JUMPDEST SWAP1 POP SWAP3 SWAP2 POP POP JUMP JUMPDEST PUSH1 0x0 PUSH9 0x736EA4425C11AC631 DUP3 LT PUSH2 0x1722 JUMPI DUP2 PUSH1 0x40 MLOAD PUSH32 0x315DA06800000000000000000000000000000000000000000000000000000000 DUP2 MSTORE PUSH1 0x4 ADD PUSH2 0x1719 SWAP2 SWAP1 PUSH2 0x2953 JUMP JUMPDEST PUSH1 0x40 MLOAD DUP1 SWAP2 SUB SWAP1 REVERT JUMPDEST PUSH1 0x0 PUSH8 0x14057B7EF767814F DUP4 MUL SWAP1 POP PUSH2 0x175C PUSH8 0xDE0B6B3A7640000 PUSH8 0x6F05B59D3B20000 DUP4 ADD DUP2 PUSH2 0x1756 JUMPI PUSH2 0x1755 PUSH2 0x2B72 JUMP JUMPDEST JUMPDEST DIV PUSH2 0x18DC JUMP JUMPDEST SWAP2 POP POP SWAP2 SWAP1 POP JUMP JUMPDEST PUSH1 0x0 PUSH2 0x1779 DUP4 PUSH8 0xDE0B6B3A7640000 DUP5 PUSH2 0x195D JUMP JUMPDEST SWAP1 POP SWAP3 SWAP2 POP POP JUMP JUMPDEST PUSH1 0x0 PUSH8 0x14057B7EF767814F PUSH8 0xDE0B6B3A7640000 PUSH2 0x179E DUP5 PUSH2 0x1A73 JUMP JUMPDEST MUL DUP2 PUSH2 0x17AD JUMPI PUSH2 0x17AC PUSH2 0x2B72 JUMP JUMPDEST JUMPDEST DIV SWAP1 POP SWAP2 SWAP1 POP JUMP JUMPDEST PUSH1 0x0 PUSH2 0x17C1 DUP4 DUP4 PUSH2 0x1B7B JUMP JUMPDEST SWAP1 POP SWAP3 SWAP2 POP POP JUMP JUMPDEST PUSH1 0x0 DUP1 DUP3 DUP5 PUSH2 0x17D8 SWAP2 SWAP1 PUSH2 0x29B3 JUMP JUMPDEST SWAP1 POP DUP4 DUP2 LT ISZERO PUSH2 0x181D JUMPI PUSH1 0x40 MLOAD PUSH32 0x8C379A000000000000000000000000000000000000000000000000000000000 DUP2 MSTORE PUSH1 0x4 ADD PUSH2 0x1814 SWAP1 PUSH2 0x28F3 JUMP JUMPDEST PUSH1 0x40 MLOAD DUP1 SWAP2 SUB SWAP1 REVERT JUMPDEST DUP1 SWAP2 POP POP SWAP3 SWAP2 POP POP JUMP JUMPDEST PUSH1 0x0 PUSH2 0x1869 DUP4 DUP4 PUSH1 0x40 MLOAD DUP1 PUSH1 0x40 ADD PUSH1 0x40 MSTORE DUP1 PUSH1 0x1E DUP2 MSTORE PUSH1 0x20 ADD PUSH32 0x536166654D6174683A207375627472616374696F6E206F766572666C6F770000 DUP2 MSTORE POP PUSH2 0x1C79 JUMP JUMPDEST SWAP1 POP SWAP3 SWAP2 POP POP JUMP JUMPDEST PUSH1 0x0 CALLER SWAP1 POP SWAP1 JUMP JUMPDEST PUSH1 0x0 DUP1 DUP4 GT DUP3 SWAP1 PUSH2 0x18C0 JUMPI PUSH1 0x40 MLOAD PUSH32 0x8C379A000000000000000000000000000000000000000000000000000000000 DUP2 MSTORE PUSH1 0x4 ADD PUSH2 0x18B7 SWAP2 SWAP1 PUSH2 0x28D1 JUMP JUMPDEST PUSH1 0x40 MLOAD DUP1 SWAP2 SUB SWAP1 REVERT JUMPDEST POP PUSH1 0x0 DUP4 DUP6 PUSH2 0x18CF SWAP2 SWAP1 PUSH2 0x2A09 JUMP JUMPDEST SWAP1 POP DUP1 SWAP2 POP POP SWAP4 SWAP3 POP POP POP JUMP JUMPDEST PUSH1 0x0 PUSH9 0xA688906BD8B000000 DUP3 LT PUSH2 0x192B JUMPI DUP2 PUSH1 0x40 MLOAD PUSH32 0x4A4F26F100000000000000000000000000000000000000000000000000000000 DUP2 MSTORE PUSH1 0x4 ADD PUSH2 0x1922 SWAP2 SWAP1 PUSH2 0x2953 JUMP JUMPDEST PUSH1 0x40 MLOAD DUP1 SWAP2 SUB SWAP1 REVERT JUMPDEST PUSH1 0x0 PUSH8 0xDE0B6B3A7640000 PUSH1 0x40 DUP5 SWAP1 SHL DUP2 PUSH2 0x1949 JUMPI PUSH2 0x1948 PUSH2 0x2B72 JUMP JUMPDEST JUMPDEST DIV SWAP1 POP PUSH2 0x1955 DUP2 PUSH2 0x1CDD JUMP JUMPDEST SWAP2 POP POP SWAP2 SWAP1 POP JUMP JUMPDEST PUSH1 0x0 DUP1 PUSH1 0x0 DUP1 NOT DUP6 DUP8 MULMOD DUP6 DUP8 MUL SWAP3 POP DUP3 DUP2 LT DUP4 DUP3 SUB SUB SWAP2 POP POP PUSH1 0x0 DUP2 EQ ISZERO PUSH2 0x1999 JUMPI DUP4 DUP3 DUP2 PUSH2 0x198F JUMPI PUSH2 0x198E PUSH2 0x2B72 JUMP JUMPDEST JUMPDEST DIV SWAP3 POP POP POP PUSH2 0x1A6C JUMP JUMPDEST DUP4 DUP2 LT PUSH2 0x19DF JUMPI DUP1 DUP5 PUSH1 0x40 MLOAD PUSH32 0x773CC18C00000000000000000000000000000000000000000000000000000000 DUP2 MSTORE PUSH1 0x4 ADD PUSH2 0x19D6 SWAP3 SWAP2 SWAP1 PUSH2 0x296E JUMP JUMPDEST PUSH1 0x40 MLOAD DUP1 SWAP2 SUB SWAP1 REVERT JUMPDEST PUSH1 0x0 DUP5 DUP7 DUP9 MULMOD SWAP1 POP DUP3 DUP2 GT DUP3 SUB SWAP2 POP DUP1 DUP4 SUB SWAP3 POP PUSH1 0x0 PUSH1 0x1 DUP7 NOT ADD DUP7 AND SWAP1 POP DUP1 DUP7 DIV SWAP6 POP DUP1 DUP5 DIV SWAP4 POP PUSH1 0x1 DUP2 DUP3 PUSH1 0x0 SUB DIV ADD SWAP1 POP DUP1 DUP4 MUL DUP5 OR SWAP4 POP PUSH1 0x0 PUSH1 0x2 DUP8 PUSH1 0x3 MUL XOR SWAP1 POP DUP1 DUP8 MUL PUSH1 0x2 SUB DUP2 MUL SWAP1 POP DUP1 DUP8 MUL PUSH1 0x2 SUB DUP2 MUL SWAP1 POP DUP1 DUP8 MUL PUSH1 0x2 SUB DUP2 MUL SWAP1 POP DUP1 DUP8 MUL PUSH1 0x2 SUB DUP2 MUL SWAP1 POP DUP1 DUP8 MUL PUSH1 0x2 SUB DUP2 MUL SWAP1 POP DUP1 DUP8 MUL PUSH1 0x2 SUB DUP2 MUL SWAP1 POP DUP1 DUP6 MUL SWAP6 POP POP POP POP POP POP JUMPDEST SWAP4 SWAP3 POP POP POP JUMP JUMPDEST PUSH1 0x0 PUSH8 0xDE0B6B3A7640000 DUP3 LT ISZERO PUSH2 0x1AC2 JUMPI DUP2 PUSH1 0x40 MLOAD PUSH32 0xD88504DC00000000000000000000000000000000000000000000000000000000 DUP2 MSTORE PUSH1 0x4 ADD PUSH2 0x1AB9 SWAP2 SWAP1 PUSH2 0x2953 JUMP JUMPDEST PUSH1 0x40 MLOAD DUP1 SWAP2 SUB SWAP1 REVERT JUMPDEST PUSH1 0x0 PUSH2 0x1AE5 PUSH8 0xDE0B6B3A7640000 DUP5 DUP2 PUSH2 0x1ADF JUMPI PUSH2 0x1ADE PUSH2 0x2B72 JUMP JUMPDEST JUMPDEST DIV PUSH2 0x25B9 JUMP JUMPDEST SWAP1 POP PUSH8 0xDE0B6B3A7640000 DUP2 MUL SWAP2 POP PUSH1 0x0 DUP2 DUP5 SWAP1 SHR SWAP1 POP PUSH8 0xDE0B6B3A7640000 DUP2 EQ ISZERO PUSH2 0x1B13 JUMPI POP POP PUSH2 0x1B76 JUMP JUMPDEST PUSH1 0x0 PUSH8 0x6F05B59D3B20000 SWAP1 POP JUMPDEST PUSH1 0x0 DUP2 GT ISZERO PUSH2 0x1B72 JUMPI PUSH8 0xDE0B6B3A7640000 DUP3 DUP4 MUL DUP2 PUSH2 0x1B44 JUMPI PUSH2 0x1B43 PUSH2 0x2B72 JUMP JUMPDEST JUMPDEST DIV SWAP2 POP PUSH8 0xDE0B6B3A7640000 PUSH1 0x2 MUL DUP3 LT PUSH2 0x1B66 JUMPI DUP1 DUP5 ADD SWAP4 POP PUSH1 0x1 DUP3 SWAP1 SHR SWAP2 POP JUMPDEST PUSH1 0x1 DUP2 SWAP1 SHR SWAP1 POP PUSH2 0x1B21 JUMP JUMPDEST POP POP POP JUMPDEST SWAP2 SWAP1 POP JUMP JUMPDEST PUSH1 0x0 DUP1 PUSH1 0x0 DUP1 NOT DUP5 DUP7 MULMOD DUP5 DUP7 MUL SWAP3 POP DUP3 DUP2 LT DUP4 DUP3 SUB SUB SWAP2 POP POP PUSH8 0xDE0B6B3A7640000 DUP2 LT PUSH2 0x1BE0 JUMPI DUP1 PUSH1 0x40 MLOAD PUSH32 0xD31B340200000000000000000000000000000000000000000000000000000000 DUP2 MSTORE PUSH1 0x4 ADD PUSH2 0x1BD7 SWAP2 SWAP1 PUSH2 0x2953 JUMP JUMPDEST PUSH1 0x40 MLOAD DUP1 SWAP2 SUB SWAP1 REVERT JUMPDEST PUSH1 0x0 DUP1 PUSH8 0xDE0B6B3A7640000 DUP7 DUP9 MULMOD SWAP2 POP PUSH8 0x6F05B59D3B1FFFF DUP3 GT SWAP1 POP PUSH1 0x0 DUP4 EQ ISZERO PUSH2 0x1C2D JUMPI DUP1 PUSH8 0xDE0B6B3A7640000 DUP6 DUP2 PUSH2 0x1C20 JUMPI PUSH2 0x1C1F PUSH2 0x2B72 JUMP JUMPDEST JUMPDEST DIV ADD SWAP5 POP POP POP POP POP PUSH2 0x1C73 JUMP JUMPDEST DUP1 PUSH32 0xACCB18165BD6FE31AE1CF318DC5B51EEE0E1BA569B88CD74C1773B91FAC10669 PUSH1 0x1 PUSH3 0x40000 DUP1 PUSH1 0x0 SUB DIV ADD DUP7 DUP6 GT DUP7 SUB MUL PUSH3 0x40000 DUP6 DUP9 SUB DIV OR MUL ADD SWAP5 POP POP POP POP POP JUMPDEST SWAP3 SWAP2 POP POP JUMP JUMPDEST PUSH1 0x0 DUP4 DUP4 GT ISZERO DUP3 SWAP1 PUSH2 0x1CC1 JUMPI PUSH1 0x40 MLOAD PUSH32 0x8C379A000000000000000000000000000000000000000000000000000000000 DUP2 MSTORE PUSH1 0x4 ADD PUSH2 0x1CB8 SWAP2 SWAP1 PUSH2 0x28D1 JUMP JUMPDEST PUSH1 0x40 MLOAD DUP1 SWAP2 SUB SWAP1 REVERT JUMPDEST POP PUSH1 0x0 DUP4 DUP6 PUSH2 0x1CD0 SWAP2 SWAP1 PUSH2 0x2A94 JUMP JUMPDEST SWAP1 POP DUP1 SWAP2 POP POP SWAP4 SWAP3 POP POP POP JUMP JUMPDEST PUSH1 0x0 PUSH24 0x800000000000000000000000000000000000000000000000 SWAP1 POP PUSH1 0x0 PUSH8 0x8000000000000000 DUP4 AND GT ISZERO PUSH2 0x1D20 JUMPI PUSH1 0x40 PUSH9 0x16A09E667F3BCC909 DUP3 MUL SWAP1 SHR SWAP1 POP JUMPDEST PUSH1 0x0 PUSH8 0x4000000000000000 DUP4 AND GT ISZERO PUSH2 0x1D46 JUMPI PUSH1 0x40 PUSH9 0x1306FE0A31B7152DF DUP3 MUL SWAP1 SHR SWAP1 POP JUMPDEST PUSH1 0x0 PUSH8 0x2000000000000000 DUP4 AND GT ISZERO PUSH2 0x1D6C JUMPI PUSH1 0x40 PUSH9 0x1172B83C7D517ADCE DUP3 MUL SWAP1 SHR SWAP1 POP JUMPDEST PUSH1 0x0 PUSH8 0x1000000000000000 DUP4 AND GT ISZERO PUSH2 0x1D92 JUMPI PUSH1 0x40 PUSH9 0x10B5586CF9890F62A DUP3 MUL SWAP1 SHR SWAP1 POP JUMPDEST PUSH1 0x0 PUSH8 0x800000000000000 DUP4 AND GT ISZERO PUSH2 0x1DB8 JUMPI PUSH1 0x40 PUSH9 0x1059B0D31585743AE DUP3 MUL SWAP1 SHR SWAP1 POP JUMPDEST PUSH1 0x0 PUSH8 0x400000000000000 DUP4 AND GT ISZERO PUSH2 0x1DDE JUMPI PUSH1 0x40 PUSH9 0x102C9A3E778060EE7 DUP3 MUL SWAP1 SHR SWAP1 POP JUMPDEST PUSH1 0x0 PUSH8 0x200000000000000 DUP4 AND GT ISZERO PUSH2 0x1E04 JUMPI PUSH1 0x40 PUSH9 0x10163DA9FB33356D8 DUP3 MUL SWAP1 SHR SWAP1 POP JUMPDEST PUSH1 0x0 PUSH8 0x100000000000000 DUP4 AND GT ISZERO PUSH2 0x1E2A JUMPI PUSH1 0x40 PUSH9 0x100B1AFA5ABCBED61 DUP3 MUL SWAP1 SHR SWAP1 POP JUMPDEST PUSH1 0x0 PUSH7 0x80000000000000 DUP4 AND GT ISZERO PUSH2 0x1E4F JUMPI PUSH1 0x40 PUSH9 0x10058C86DA1C09EA2 DUP3 MUL SWAP1 SHR SWAP1 POP JUMPDEST PUSH1 0x0 PUSH7 0x40000000000000 DUP4 AND GT ISZERO PUSH2 0x1E74 JUMPI PUSH1 0x40 PUSH9 0x1002C605E2E8CEC50 DUP3 MUL SWAP1 SHR SWAP1 POP JUMPDEST PUSH1 0x0 PUSH7 0x20000000000000 DUP4 AND GT ISZERO PUSH2 0x1E99 JUMPI PUSH1 0x40 PUSH9 0x100162F3904051FA1 DUP3 MUL SWAP1 SHR SWAP1 POP JUMPDEST PUSH1 0x0 PUSH7 0x10000000000000 DUP4 AND GT ISZERO PUSH2 0x1EBE JUMPI PUSH1 0x40 PUSH9 0x1000B175EFFDC76BA DUP3 MUL SWAP1 SHR SWAP1 POP JUMPDEST PUSH1 0x0 PUSH7 0x8000000000000 DUP4 AND GT ISZERO PUSH2 0x1EE3 JUMPI PUSH1 0x40 PUSH9 0x100058BA01FB9F96D DUP3 MUL SWAP1 SHR SWAP1 POP JUMPDEST PUSH1 0x0 PUSH7 0x4000000000000 DUP4 AND GT ISZERO PUSH2 0x1F08 JUMPI PUSH1 0x40 PUSH9 0x10002C5CC37DA9492 DUP3 MUL SWAP1 SHR SWAP1 POP JUMPDEST PUSH1 0x0 PUSH7 0x2000000000000 DUP4 AND GT ISZERO PUSH2 0x1F2D JUMPI PUSH1 0x40 PUSH9 0x1000162E525EE0547 DUP3 MUL SWAP1 SHR SWAP1 POP JUMPDEST PUSH1 0x0 PUSH7 0x1000000000000 DUP4 AND GT ISZERO PUSH2 0x1F52 JUMPI PUSH1 0x40 PUSH9 0x10000B17255775C04 DUP3 MUL SWAP1 SHR SWAP1 POP JUMPDEST PUSH1 0x0 PUSH6 0x800000000000 DUP4 AND GT ISZERO PUSH2 0x1F76 JUMPI PUSH1 0x40 PUSH9 0x1000058B91B5BC9AE DUP3 MUL SWAP1 SHR SWAP1 POP JUMPDEST PUSH1 0x0 PUSH6 0x400000000000 DUP4 AND GT ISZERO PUSH2 0x1F9A JUMPI PUSH1 0x40 PUSH9 0x100002C5C89D5EC6D DUP3 MUL SWAP1 SHR SWAP1 POP JUMPDEST PUSH1 0x0 PUSH6 0x200000000000 DUP4 AND GT ISZERO PUSH2 0x1FBE JUMPI PUSH1 0x40 PUSH9 0x10000162E43F4F831 DUP3 MUL SWAP1 SHR SWAP1 POP JUMPDEST PUSH1 0x0 PUSH6 0x100000000000 DUP4 AND GT ISZERO PUSH2 0x1FE2 JUMPI PUSH1 0x40 PUSH9 0x100000B1721BCFC9A DUP3 MUL SWAP1 SHR SWAP1 POP JUMPDEST PUSH1 0x0 PUSH6 0x80000000000 DUP4 AND GT ISZERO PUSH2 0x2006 JUMPI PUSH1 0x40 PUSH9 0x10000058B90CF1E6E DUP3 MUL SWAP1 SHR SWAP1 POP JUMPDEST PUSH1 0x0 PUSH6 0x40000000000 DUP4 AND GT ISZERO PUSH2 0x202A JUMPI PUSH1 0x40 PUSH9 0x1000002C5C863B73F DUP3 MUL SWAP1 SHR SWAP1 POP JUMPDEST PUSH1 0x0 PUSH6 0x20000000000 DUP4 AND GT ISZERO PUSH2 0x204E JUMPI PUSH1 0x40 PUSH9 0x100000162E430E5A2 DUP3 MUL SWAP1 SHR SWAP1 POP JUMPDEST PUSH1 0x0 PUSH6 0x10000000000 DUP4 AND GT ISZERO PUSH2 0x2072 JUMPI PUSH1 0x40 PUSH9 0x1000000B172183551 DUP3 MUL SWAP1 SHR SWAP1 POP JUMPDEST PUSH1 0x0 PUSH5 0x8000000000 DUP4 AND GT ISZERO PUSH2 0x2095 JUMPI PUSH1 0x40 PUSH9 0x100000058B90C0B49 DUP3 MUL SWAP1 SHR SWAP1 POP JUMPDEST PUSH1 0x0 PUSH5 0x4000000000 DUP4 AND GT ISZERO PUSH2 0x20B8 JUMPI PUSH1 0x40 PUSH9 0x10000002C5C8601CC DUP3 MUL SWAP1 SHR SWAP1 POP JUMPDEST PUSH1 0x0 PUSH5 0x2000000000 DUP4 AND GT ISZERO PUSH2 0x20DB JUMPI PUSH1 0x40 PUSH9 0x1000000162E42FFF0 DUP3 MUL SWAP1 SHR SWAP1 POP JUMPDEST PUSH1 0x0 PUSH5 0x1000000000 DUP4 AND GT ISZERO PUSH2 0x20FE JUMPI PUSH1 0x40 PUSH9 0x10000000B17217FBB DUP3 MUL SWAP1 SHR SWAP1 POP JUMPDEST PUSH1 0x0 PUSH5 0x800000000 DUP4 AND GT ISZERO PUSH2 0x2121 JUMPI PUSH1 0x40 PUSH9 0x1000000058B90BFCE DUP3 MUL SWAP1 SHR SWAP1 POP JUMPDEST PUSH1 0x0 PUSH5 0x400000000 DUP4 AND GT ISZERO PUSH2 0x2144 JUMPI PUSH1 0x40 PUSH9 0x100000002C5C85FE3 DUP3 MUL SWAP1 SHR SWAP1 POP JUMPDEST PUSH1 0x0 PUSH5 0x200000000 DUP4 AND GT ISZERO PUSH2 0x2167 JUMPI PUSH1 0x40 PUSH9 0x10000000162E42FF1 DUP3 MUL SWAP1 SHR SWAP1 POP JUMPDEST PUSH1 0x0 PUSH5 0x100000000 DUP4 AND GT ISZERO PUSH2 0x218A JUMPI PUSH1 0x40 PUSH9 0x100000000B17217F8 DUP3 MUL SWAP1 SHR SWAP1 POP JUMPDEST PUSH1 0x0 PUSH4 0x80000000 DUP4 AND GT ISZERO PUSH2 0x21AC JUMPI PUSH1 0x40 PUSH9 0x10000000058B90BFC DUP3 MUL SWAP1 SHR SWAP1 POP JUMPDEST PUSH1 0x0 PUSH4 0x40000000 DUP4 AND GT ISZERO PUSH2 0x21CE JUMPI PUSH1 0x40 PUSH9 0x1000000002C5C85FE DUP3 MUL SWAP1 SHR SWAP1 POP JUMPDEST PUSH1 0x0 PUSH4 0x20000000 DUP4 AND GT ISZERO PUSH2 0x21F0 JUMPI PUSH1 0x40 PUSH9 0x100000000162E42FF DUP3 MUL SWAP1 SHR SWAP1 POP JUMPDEST PUSH1 0x0 PUSH4 0x10000000 DUP4 AND GT ISZERO PUSH2 0x2212 JUMPI PUSH1 0x40 PUSH9 0x1000000000B17217F DUP3 MUL SWAP1 SHR SWAP1 POP JUMPDEST PUSH1 0x0 PUSH4 0x8000000 DUP4 AND GT ISZERO PUSH2 0x2234 JUMPI PUSH1 0x40 PUSH9 0x100000000058B90C0 DUP3 MUL SWAP1 SHR SWAP1 POP JUMPDEST PUSH1 0x0 PUSH4 0x4000000 DUP4 AND GT ISZERO PUSH2 0x2256 JUMPI PUSH1 0x40 PUSH9 0x10000000002C5C860 DUP3 MUL SWAP1 SHR SWAP1 POP JUMPDEST PUSH1 0x0 PUSH4 0x2000000 DUP4 AND GT ISZERO PUSH2 0x2278 JUMPI PUSH1 0x40 PUSH9 0x1000000000162E430 DUP3 MUL SWAP1 SHR SWAP1 POP JUMPDEST PUSH1 0x0 PUSH4 0x1000000 DUP4 AND GT ISZERO PUSH2 0x229A JUMPI PUSH1 0x40 PUSH9 0x10000000000B17218 DUP3 MUL SWAP1 SHR SWAP1 POP JUMPDEST PUSH1 0x0 PUSH3 0x800000 DUP4 AND GT ISZERO PUSH2 0x22BB JUMPI PUSH1 0x40 PUSH9 0x1000000000058B90C DUP3 MUL SWAP1 SHR SWAP1 POP JUMPDEST PUSH1 0x0 PUSH3 0x400000 DUP4 AND GT ISZERO PUSH2 0x22DC JUMPI PUSH1 0x40 PUSH9 0x100000000002C5C86 DUP3 MUL SWAP1 SHR SWAP1 POP JUMPDEST PUSH1 0x0 PUSH3 0x200000 DUP4 AND GT ISZERO PUSH2 0x22FD JUMPI PUSH1 0x40 PUSH9 0x10000000000162E43 DUP3 MUL SWAP1 SHR SWAP1 POP JUMPDEST PUSH1 0x0 PUSH3 0x100000 DUP4 AND GT ISZERO PUSH2 0x231E JUMPI PUSH1 0x40 PUSH9 0x100000000000B1721 DUP3 MUL SWAP1 SHR SWAP1 POP JUMPDEST PUSH1 0x0 PUSH3 0x80000 DUP4 AND GT ISZERO PUSH2 0x233F JUMPI PUSH1 0x40 PUSH9 0x10000000000058B91 DUP3 MUL SWAP1 SHR SWAP1 POP JUMPDEST PUSH1 0x0 PUSH3 0x40000 DUP4 AND GT ISZERO PUSH2 0x2360 JUMPI PUSH1 0x40 PUSH9 0x1000000000002C5C8 DUP3 MUL SWAP1 SHR SWAP1 POP JUMPDEST PUSH1 0x0 PUSH3 0x20000 DUP4 AND GT ISZERO PUSH2 0x2381 JUMPI PUSH1 0x40 PUSH9 0x100000000000162E4 DUP3 MUL SWAP1 SHR SWAP1 POP JUMPDEST PUSH1 0x0 PUSH3 0x10000 DUP4 AND GT ISZERO PUSH2 0x23A2 JUMPI PUSH1 0x40 PUSH9 0x1000000000000B172 DUP3 MUL SWAP1 SHR SWAP1 POP JUMPDEST PUSH1 0x0 PUSH2 0x8000 DUP4 AND GT ISZERO PUSH2 0x23C2 JUMPI PUSH1 0x40 PUSH9 0x100000000000058B9 DUP3 MUL SWAP1 SHR SWAP1 POP JUMPDEST PUSH1 0x0 PUSH2 0x4000 DUP4 AND GT ISZERO PUSH2 0x23E2 JUMPI PUSH1 0x40 PUSH9 0x10000000000002C5D DUP3 MUL SWAP1 SHR SWAP1 POP JUMPDEST PUSH1 0x0 PUSH2 0x2000 DUP4 AND GT ISZERO PUSH2 0x2402 JUMPI PUSH1 0x40 PUSH9 0x1000000000000162E DUP3 MUL SWAP1 SHR SWAP1 POP JUMPDEST PUSH1 0x0 PUSH2 0x1000 DUP4 AND GT ISZERO PUSH2 0x2422 JUMPI PUSH1 0x40 PUSH9 0x10000000000000B17 DUP3 MUL SWAP1 SHR SWAP1 POP JUMPDEST PUSH1 0x0 PUSH2 0x800 DUP4 AND GT ISZERO PUSH2 0x2442 JUMPI PUSH1 0x40 PUSH9 0x1000000000000058C DUP3 MUL SWAP1 SHR SWAP1 POP JUMPDEST PUSH1 0x0 PUSH2 0x400 DUP4 AND GT ISZERO PUSH2 0x2462 JUMPI PUSH1 0x40 PUSH9 0x100000000000002C6 DUP3 MUL SWAP1 SHR SWAP1 POP JUMPDEST PUSH1 0x0 PUSH2 0x200 DUP4 AND GT ISZERO PUSH2 0x2482 JUMPI PUSH1 0x40 PUSH9 0x10000000000000163 DUP3 MUL SWAP1 SHR SWAP1 POP JUMPDEST PUSH1 0x0 PUSH2 0x100 DUP4 AND GT ISZERO PUSH2 0x24A2 JUMPI PUSH1 0x40 PUSH9 0x100000000000000B1 DUP3 MUL SWAP1 SHR SWAP1 POP JUMPDEST PUSH1 0x0 PUSH1 0x80 DUP4 AND GT ISZERO PUSH2 0x24C1 JUMPI PUSH1 0x40 PUSH9 0x10000000000000059 DUP3 MUL SWAP1 SHR SWAP1 POP JUMPDEST PUSH1 0x0 PUSH1 0x40 DUP4 AND GT ISZERO PUSH2 0x24E0 JUMPI PUSH1 0x40 PUSH9 0x1000000000000002C DUP3 MUL SWAP1 SHR SWAP1 POP JUMPDEST PUSH1 0x0 PUSH1 0x20 DUP4 AND GT ISZERO PUSH2 0x24FF JUMPI PUSH1 0x40 PUSH9 0x10000000000000016 DUP3 MUL SWAP1 SHR SWAP1 POP JUMPDEST PUSH1 0x0 PUSH1 0x10 DUP4 AND GT ISZERO PUSH2 0x251E JUMPI PUSH1 0x40 PUSH9 0x1000000000000000B DUP3 MUL SWAP1 SHR SWAP1 POP JUMPDEST PUSH1 0x0 PUSH1 0x8 DUP4 AND GT ISZERO PUSH2 0x253D JUMPI PUSH1 0x40 PUSH9 0x10000000000000006 DUP3 MUL SWAP1 SHR SWAP1 POP JUMPDEST PUSH1 0x0 PUSH1 0x4 DUP4 AND GT ISZERO PUSH2 0x255C JUMPI PUSH1 0x40 PUSH9 0x10000000000000003 DUP3 MUL SWAP1 SHR SWAP1 POP JUMPDEST PUSH1 0x0 PUSH1 0x2 DUP4 AND GT ISZERO PUSH2 0x257B JUMPI PUSH1 0x40 PUSH9 0x10000000000000001 DUP3 MUL SWAP1 SHR SWAP1 POP JUMPDEST PUSH1 0x0 PUSH1 0x1 DUP4 AND GT ISZERO PUSH2 0x259A JUMPI PUSH1 0x40 PUSH9 0x10000000000000001 DUP3 MUL SWAP1 SHR SWAP1 POP JUMPDEST PUSH8 0xDE0B6B3A7640000 DUP2 MUL SWAP1 POP PUSH1 0x40 DUP3 SWAP1 SHR PUSH1 0xBF SUB DUP2 SWAP1 SHR SWAP1 POP SWAP2 SWAP1 POP JUMP JUMPDEST PUSH1 0x0 PUSH17 0x100000000000000000000000000000000 DUP3 LT PUSH2 0x25EA JUMPI PUSH1 0x80 DUP3 SWAP1 SHR SWAP2 POP PUSH1 0x80 DUP2 PUSH2 0x25E7 SWAP2 SWAP1 PUSH2 0x29B3 JUMP JUMPDEST SWAP1 POP JUMPDEST PUSH9 0x10000000000000000 DUP3 LT PUSH2 0x2611 JUMPI PUSH1 0x40 DUP3 SWAP1 SHR SWAP2 POP PUSH1 0x40 DUP2 PUSH2 0x260E SWAP2 SWAP1 PUSH2 0x29B3 JUMP JUMPDEST SWAP1 POP JUMPDEST PUSH5 0x100000000 DUP3 LT PUSH2 0x2634 JUMPI PUSH1 0x20 DUP3 SWAP1 SHR SWAP2 POP PUSH1 0x20 DUP2 PUSH2 0x2631 SWAP2 SWAP1 PUSH2 0x29B3 JUMP JUMPDEST SWAP1 POP JUMPDEST PUSH3 0x10000 DUP3 LT PUSH2 0x2655 JUMPI PUSH1 0x10 DUP3 SWAP1 SHR SWAP2 POP PUSH1 0x10 DUP2 PUSH2 0x2652 SWAP2 SWAP1 PUSH2 0x29B3 JUMP JUMPDEST SWAP1 POP JUMPDEST PUSH2 0x100 DUP3 LT PUSH2 0x2675 JUMPI PUSH1 0x8 DUP3 SWAP1 SHR SWAP2 POP PUSH1 0x8 DUP2 PUSH2 0x2672 SWAP2 SWAP1 PUSH2 0x29B3 JUMP JUMPDEST SWAP1 POP JUMPDEST PUSH1 0x10 DUP3 LT PUSH2 0x2694 JUMPI PUSH1 0x4 DUP3 SWAP1 SHR SWAP2 POP PUSH1 0x4 DUP2 PUSH2 0x2691 SWAP2 SWAP1 PUSH2 0x29B3 JUMP JUMPDEST SWAP1 POP JUMPDEST PUSH1 0x4 DUP3 LT PUSH2 0x26B3 JUMPI PUSH1 0x2 DUP3 SWAP1 SHR SWAP2 POP PUSH1 0x2 DUP2 PUSH2 0x26B0 SWAP2 SWAP1 PUSH2 0x29B3 JUMP JUMPDEST SWAP1 POP JUMPDEST PUSH1 0x2 DUP3 LT PUSH2 0x26CB JUMPI PUSH1 0x1 DUP2 PUSH2 0x26C8 SWAP2 SWAP1 PUSH2 0x29B3 JUMP JUMPDEST SWAP1 POP JUMPDEST SWAP2 SWAP1 POP JUMP JUMPDEST PUSH1 0x0 DUP2 MLOAD SWAP1 POP PUSH2 0x26DF DUP2 PUSH2 0x2C58 JUMP JUMPDEST SWAP3 SWAP2 POP POP JUMP JUMPDEST PUSH1 0x0 DUP2 CALLDATALOAD SWAP1 POP PUSH2 0x26F4 DUP2 PUSH2 0x2C6F JUMP JUMPDEST SWAP3 SWAP2 POP POP JUMP JUMPDEST PUSH1 0x0 DUP2 MLOAD SWAP1 POP PUSH2 0x2709 DUP2 PUSH2 0x2C6F JUMP JUMPDEST SWAP3 SWAP2 POP POP JUMP JUMPDEST PUSH1 0x0 PUSH1 0x20 DUP3 DUP5 SUB SLT ISZERO PUSH2 0x2725 JUMPI PUSH2 0x2724 PUSH2 0x2BA1 JUMP JUMPDEST JUMPDEST PUSH1 0x0 PUSH2 0x2733 DUP5 DUP3 DUP6 ADD PUSH2 0x26D0 JUMP JUMPDEST SWAP2 POP POP SWAP3 SWAP2 POP POP JUMP JUMPDEST PUSH1 0x0 PUSH1 0x20 DUP3 DUP5 SUB SLT ISZERO PUSH2 0x2752 JUMPI PUSH2 0x2751 PUSH2 0x2BA1 JUMP JUMPDEST JUMPDEST PUSH1 0x0 PUSH2 0x2760 DUP5 DUP3 DUP6 ADD PUSH2 0x26E5 JUMP JUMPDEST SWAP2 POP POP SWAP3 SWAP2 POP POP JUMP JUMPDEST PUSH1 0x0 PUSH1 0x20 DUP3 DUP5 SUB SLT ISZERO PUSH2 0x277F JUMPI PUSH2 0x277E PUSH2 0x2BA1 JUMP JUMPDEST JUMPDEST PUSH1 0x0 PUSH2 0x278D DUP5 DUP3 DUP6 ADD PUSH2 0x26FA JUMP JUMPDEST SWAP2 POP POP SWAP3 SWAP2 POP POP JUMP JUMPDEST PUSH2 0x279F DUP2 PUSH2 0x2AC8 JUMP JUMPDEST DUP3 MSTORE POP POP JUMP JUMPDEST PUSH1 0x0 PUSH2 0x27B0 DUP3 PUSH2 0x2997 JUMP JUMPDEST PUSH2 0x27BA DUP2 DUP6 PUSH2 0x29A2 JUMP JUMPDEST SWAP4 POP PUSH2 0x27CA DUP2 DUP6 PUSH1 0x20 DUP7 ADD PUSH2 0x2B10 JUMP JUMPDEST PUSH2 0x27D3 DUP2 PUSH2 0x2BA6 JUMP JUMPDEST DUP5 ADD SWAP2 POP POP SWAP3 SWAP2 POP POP JUMP JUMPDEST PUSH1 0x0 PUSH2 0x27EB PUSH1 0x1B DUP4 PUSH2 0x29A2 JUMP JUMPDEST SWAP2 POP PUSH2 0x27F6 DUP3 PUSH2 0x2BB7 JUMP JUMPDEST PUSH1 0x20 DUP3 ADD SWAP1 POP SWAP2 SWAP1 POP JUMP JUMPDEST PUSH1 0x0 PUSH2 0x280E PUSH1 0x21 DUP4 PUSH2 0x29A2 JUMP JUMPDEST SWAP2 POP PUSH2 0x2819 DUP3 PUSH2 0x2BE0 JUMP JUMPDEST PUSH1 0x40 DUP3 ADD SWAP1 POP SWAP2 SWAP1 POP JUMP JUMPDEST PUSH1 0x0 PUSH2 0x2831 PUSH1 0x11 DUP4 PUSH2 0x29A2 JUMP JUMPDEST SWAP2 POP PUSH2 0x283C DUP3 PUSH2 0x2C2F JUMP JUMPDEST PUSH1 0x20 DUP3 ADD SWAP1 POP SWAP2 SWAP1 POP JUMP JUMPDEST PUSH2 0x2850 DUP2 PUSH2 0x2B06 JUMP JUMPDEST DUP3 MSTORE POP POP JUMP JUMPDEST PUSH1 0x0 PUSH1 0x20 DUP3 ADD SWAP1 POP PUSH2 0x286B PUSH1 0x0 DUP4 ADD DUP5 PUSH2 0x2796 JUMP JUMPDEST SWAP3 SWAP2 POP POP JUMP JUMPDEST PUSH1 0x0 PUSH1 0x60 DUP3 ADD SWAP1 POP PUSH2 0x2886 PUSH1 0x0 DUP4 ADD DUP7 PUSH2 0x2796 JUMP JUMPDEST PUSH2 0x2893 PUSH1 0x20 DUP4 ADD DUP6 PUSH2 0x2796 JUMP JUMPDEST PUSH2 0x28A0 PUSH1 0x40 DUP4 ADD DUP5 PUSH2 0x2847 JUMP JUMPDEST SWAP5 SWAP4 POP POP POP POP JUMP JUMPDEST PUSH1 0x0 PUSH1 0x40 DUP3 ADD SWAP1 POP PUSH2 0x28BD PUSH1 0x0 DUP4 ADD DUP6 PUSH2 0x2796 JUMP JUMPDEST PUSH2 0x28CA PUSH1 0x20 DUP4 ADD DUP5 PUSH2 0x2847 JUMP JUMPDEST SWAP4 SWAP3 POP POP POP JUMP JUMPDEST PUSH1 0x0 PUSH1 0x20 DUP3 ADD SWAP1 POP DUP2 DUP2 SUB PUSH1 0x0 DUP4 ADD MSTORE PUSH2 0x28EB DUP2 DUP5 PUSH2 0x27A5 JUMP JUMPDEST SWAP1 POP SWAP3 SWAP2 POP POP JUMP JUMPDEST PUSH1 0x0 PUSH1 0x20 DUP3 ADD SWAP1 POP DUP2 DUP2 SUB PUSH1 0x0 DUP4 ADD MSTORE PUSH2 0x290C DUP2 PUSH2 0x27DE JUMP JUMPDEST SWAP1 POP SWAP2 SWAP1 POP JUMP JUMPDEST PUSH1 0x0 PUSH1 0x20 DUP3 ADD SWAP1 POP DUP2 DUP2 SUB PUSH1 0x0 DUP4 ADD MSTORE PUSH2 0x292C DUP2 PUSH2 0x2801 JUMP JUMPDEST SWAP1 POP SWAP2 SWAP1 POP JUMP JUMPDEST PUSH1 0x0 PUSH1 0x20 DUP3 ADD SWAP1 POP DUP2 DUP2 SUB PUSH1 0x0 DUP4 ADD MSTORE PUSH2 0x294C DUP2 PUSH2 0x2824 JUMP JUMPDEST SWAP1 POP SWAP2 SWAP1 POP JUMP JUMPDEST PUSH1 0x0 PUSH1 0x20 DUP3 ADD SWAP1 POP PUSH2 0x2968 PUSH1 0x0 DUP4 ADD DUP5 PUSH2 0x2847 JUMP JUMPDEST SWAP3 SWAP2 POP POP JUMP JUMPDEST PUSH1 0x0 PUSH1 0x40 DUP3 ADD SWAP1 POP PUSH2 0x2983 PUSH1 0x0 DUP4 ADD DUP6 PUSH2 0x2847 JUMP JUMPDEST PUSH2 0x2990 PUSH1 0x20 DUP4 ADD DUP5 PUSH2 0x2847 JUMP JUMPDEST SWAP4 SWAP3 POP POP POP JUMP JUMPDEST PUSH1 0x0 DUP2 MLOAD SWAP1 POP SWAP2 SWAP1 POP JUMP JUMPDEST PUSH1 0x0 DUP3 DUP3 MSTORE PUSH1 0x20 DUP3 ADD SWAP1 POP SWAP3 SWAP2 POP POP JUMP JUMPDEST PUSH1 0x0 PUSH2 0x29BE DUP3 PUSH2 0x2B06 JUMP JUMPDEST SWAP2 POP PUSH2 0x29C9 DUP4 PUSH2 0x2B06 JUMP JUMPDEST SWAP3 POP DUP3 PUSH32 0xFFFFFFFFFFFFFFFFFFFFFFFFFFFFFFFFFFFFFFFFFFFFFFFFFFFFFFFFFFFFFFFF SUB DUP3 GT ISZERO PUSH2 0x29FE JUMPI PUSH2 0x29FD PUSH2 0x2B43 JUMP JUMPDEST JUMPDEST DUP3 DUP3 ADD SWAP1 POP SWAP3 SWAP2 POP POP JUMP JUMPDEST PUSH1 0x0 PUSH2 0x2A14 DUP3 PUSH2 0x2B06 JUMP JUMPDEST SWAP2 POP PUSH2 0x2A1F DUP4 PUSH2 0x2B06 JUMP JUMPDEST SWAP3 POP DUP3 PUSH2 0x2A2F JUMPI PUSH2 0x2A2E PUSH2 0x2B72 JUMP JUMPDEST JUMPDEST DUP3 DUP3 DIV SWAP1 POP SWAP3 SWAP2 POP POP JUMP JUMPDEST PUSH1 0x0 PUSH2 0x2A45 DUP3 PUSH2 0x2B06 JUMP JUMPDEST SWAP2 POP PUSH2 0x2A50 DUP4 PUSH2 0x2B06 JUMP JUMPDEST SWAP3 POP DUP2 PUSH32 0xFFFFFFFFFFFFFFFFFFFFFFFFFFFFFFFFFFFFFFFFFFFFFFFFFFFFFFFFFFFFFFFF DIV DUP4 GT DUP3 ISZERO ISZERO AND ISZERO PUSH2 0x2A89 JUMPI PUSH2 0x2A88 PUSH2 0x2B43 JUMP JUMPDEST JUMPDEST DUP3 DUP3 MUL SWAP1 POP SWAP3 SWAP2 POP POP JUMP JUMPDEST PUSH1 0x0 PUSH2 0x2A9F DUP3 PUSH2 0x2B06 JUMP JUMPDEST SWAP2 POP PUSH2 0x2AAA DUP4 PUSH2 0x2B06 JUMP JUMPDEST SWAP3 POP DUP3 DUP3 LT ISZERO PUSH2 0x2ABD JUMPI PUSH2 0x2ABC PUSH2 0x2B43 JUMP JUMPDEST JUMPDEST DUP3 DUP3 SUB SWAP1 POP SWAP3 SWAP2 POP POP JUMP JUMPDEST PUSH1 0x0 PUSH2 0x2AD3 DUP3 PUSH2 0x2AE6 JUMP JUMPDEST SWAP1 POP SWAP2 SWAP1 POP JUMP JUMPDEST PUSH1 0x0 DUP2 ISZERO ISZERO SWAP1 POP SWAP2 SWAP1 POP JUMP JUMPDEST PUSH1 0x0 PUSH20 0xFFFFFFFFFFFFFFFFFFFFFFFFFFFFFFFFFFFFFFFF DUP3 AND SWAP1 POP SWAP2 SWAP1 POP JUMP JUMPDEST PUSH1 0x0 DUP2 SWAP1 POP SWAP2 SWAP1 POP JUMP JUMPDEST PUSH1 0x0 JUMPDEST DUP4 DUP2 LT ISZERO PUSH2 0x2B2E JUMPI DUP1 DUP3 ADD MLOAD DUP2 DUP5 ADD MSTORE PUSH1 0x20 DUP2 ADD SWAP1 POP PUSH2 0x2B13 JUMP JUMPDEST DUP4 DUP2 GT ISZERO PUSH2 0x2B3D JUMPI PUSH1 0x0 DUP5 DUP5 ADD MSTORE JUMPDEST POP POP POP POP JUMP JUMPDEST PUSH32 0x4E487B7100000000000000000000000000000000000000000000000000000000 PUSH1 0x0 MSTORE PUSH1 0x11 PUSH1 0x4 MSTORE PUSH1 0x24 PUSH1 0x0 REVERT JUMPDEST PUSH32 0x4E487B7100000000000000000000000000000000000000000000000000000000 PUSH1 0x0 MSTORE PUSH1 0x12 PUSH1 0x4 MSTORE PUSH1 0x24 PUSH1 0x0 REVERT JUMPDEST PUSH1 0x0 DUP1 REVERT JUMPDEST PUSH1 0x0 PUSH1 0x1F NOT PUSH1 0x1F DUP4 ADD AND SWAP1 POP SWAP2 SWAP1 POP JUMP JUMPDEST PUSH32 0x536166654D6174683A206164646974696F6E206F766572666C6F770000000000 PUSH1 0x0 DUP3 ADD MSTORE POP JUMP JUMPDEST PUSH32 0x536166654D6174683A206D756C7469706C69636174696F6E206F766572666C6F PUSH1 0x0 DUP3 ADD MSTORE PUSH32 0x7700000000000000000000000000000000000000000000000000000000000000 PUSH1 0x20 DUP3 ADD MSTORE POP JUMP JUMPDEST PUSH32 0x4F6E6C792052656379636C6520506F6F6C000000000000000000000000000000 PUSH1 0x0 DUP3 ADD MSTORE POP JUMP JUMPDEST PUSH2 0x2C61 DUP2 PUSH2 0x2ADA JUMP JUMPDEST DUP2 EQ PUSH2 0x2C6C JUMPI PUSH1 0x0 DUP1 REVERT JUMPDEST POP JUMP JUMPDEST PUSH2 0x2C78 DUP2 PUSH2 0x2B06 JUMP JUMPDEST DUP2 EQ PUSH2 0x2C83 JUMPI PUSH1 0x0 DUP1 REVERT JUMPDEST POP JUMP INVALID LOG2 PUSH5 0x6970667358 0x22 SLT KECCAK256 MULMOD NOT PUSH3 0x13CD79 DUP15 SSTORE JUMP SELFBALANCE 0xBC PUSH2 0x3B69 DUP1 DUP12 0xC4 0x5F 0xD1 ADD PUSH9 0x2AD1503A62CEA4660A EQ AND PUSH5 0x736F6C6343 STOP ADDMOD SMOD STOP CALLER "
				},
				"gasEstimates": {
					"creation": {
						"codeDepositCost": "2290400",
						"executionCost": "infinite",
						"totalCost": "infinite"
					},
					"external": {
						"_areaGivenSupply(uint256)": "infinite",
						"_priceGivenSupply(uint256)": "infinite",
						"areaGivenSupply()": "infinite",
						"clearOutExtraReward()": "infinite",
						"priceGivenSupply()": "infinite",
						"swapPaymentForPopcorn(uint256)": "infinite",
						"swapPaymentForPopcornGivenPayment(uint256)": "infinite",
						"swapPaymentForPopcornGivenPopcorn(uint256)": "infinite",
						"swapPopcornForPayment(uint256)": "infinite",
						"swapPopcornForPaymentGivenPayment(uint256)": "infinite",
						"swapPopcornForPaymentGivenPopcorn(uint256)": "infinite"
					}
				},
				"methodIdentifiers": {
					"_areaGivenSupply(uint256)": "0b902e95",
					"_priceGivenSupply(uint256)": "5f6183ff",
					"areaGivenSupply()": "a20e8b3c",
					"clearOutExtraReward()": "ccc4afee",
					"priceGivenSupply()": "641c9cf1",
					"swapPaymentForPopcorn(uint256)": "3597ff3d",
					"swapPaymentForPopcornGivenPayment(uint256)": "b0bc074c",
					"swapPaymentForPopcornGivenPopcorn(uint256)": "0e5449a6",
					"swapPopcornForPayment(uint256)": "85c210a8",
					"swapPopcornForPaymentGivenPayment(uint256)": "a78a3725",
					"swapPopcornForPaymentGivenPopcorn(uint256)": "10619766"
				}
			},
			"storageLayout": {
				"storage": [
					{
						"astId": 2834,
						"contract": "atta-movies/TBC_busd.sol:PopcornSigmoid",
						"label": "paymentToken",
						"offset": 0,
						"slot": "0",
						"type": "t_contract(IERC20)2770"
					},
					{
						"astId": 2837,
						"contract": "atta-movies/TBC_busd.sol:PopcornSigmoid",
						"label": "paymentTokenDecimalFactor",
						"offset": 0,
						"slot": "1",
						"type": "t_uint256"
					},
					{
						"astId": 2840,
						"contract": "atta-movies/TBC_busd.sol:PopcornSigmoid",
						"label": "maxTotalSupply",
						"offset": 0,
						"slot": "2",
						"type": "t_uint256"
					},
					{
						"astId": 2843,
						"contract": "atta-movies/TBC_busd.sol:PopcornSigmoid",
						"label": "priceCap",
						"offset": 0,
						"slot": "3",
						"type": "t_uint256"
					},
					{
						"astId": 2853,
						"contract": "atta-movies/TBC_busd.sol:PopcornSigmoid",
						"label": "supplyShift",
						"offset": 0,
						"slot": "4",
						"type": "t_uint256"
					},
					{
						"astId": 2856,
						"contract": "atta-movies/TBC_busd.sol:PopcornSigmoid",
						"label": "slopeFactor",
						"offset": 0,
						"slot": "5",
						"type": "t_uint256"
					},
					{
						"astId": 2859,
						"contract": "atta-movies/TBC_busd.sol:PopcornSigmoid",
						"label": "popcornToken",
						"offset": 0,
						"slot": "6",
						"type": "t_contract(IERC20Minter)2806"
					},
					{
						"astId": 2861,
						"contract": "atta-movies/TBC_busd.sol:PopcornSigmoid",
						"label": "recyclePool",
						"offset": 0,
						"slot": "7",
						"type": "t_address"
					}
				],
				"types": {
					"t_address": {
						"encoding": "inplace",
						"label": "address",
						"numberOfBytes": "20"
					},
					"t_contract(IERC20)2770": {
						"encoding": "inplace",
						"label": "contract IERC20",
						"numberOfBytes": "20"
					},
					"t_contract(IERC20Minter)2806": {
						"encoding": "inplace",
						"label": "contract IERC20Minter",
						"numberOfBytes": "20"
					},
					"t_uint256": {
						"encoding": "inplace",
						"label": "uint256",
						"numberOfBytes": "32"
					}
				}
			},
			"userdoc": {
				"errors": {
					"PRBMathUD60x18__Exp2InputTooBig(uint256)": [
						{
							"notice": "Emitted when the input is greater than 192."
						}
					],
					"PRBMathUD60x18__ExpInputTooBig(uint256)": [
						{
							"notice": "Emitted when the input is greater than 133.084258667509499441."
						}
					],
					"PRBMathUD60x18__LogInputTooSmall(uint256)": [
						{
							"notice": "Emitted when the input is less than 1."
						}
					],
					"PRBMath__MulDivFixedPointOverflow(uint256)": [
						{
							"notice": "Emitted when the result overflows uint256."
						}
					],
					"PRBMath__MulDivOverflow(uint256,uint256)": [
						{
							"notice": "Emitted when the result overflows uint256."
						}
					]
				},
				"kind": "user",
				"methods": {},
				"version": 1
			}
		}
	}
}