{
	"atta-movies/RandomQuery.sol": {
		"QueryRandom": {
			"abi": [
				{
					"inputs": [
						{
							"internalType": "uint256",
							"name": "_blockStart",
							"type": "uint256"
						}
					],
					"stateMutability": "nonpayable",
					"type": "constructor"
				},
				{
					"inputs": [],
					"name": "blockStart",
					"outputs": [
						{
							"internalType": "uint256",
							"name": "",
							"type": "uint256"
						}
					],
					"stateMutability": "view",
					"type": "function"
				},
				{
					"inputs": [
						{
							"internalType": "uint256",
							"name": "blockNumber",
							"type": "uint256"
						}
					],
					"name": "randomNumber",
					"outputs": [
						{
							"internalType": "uint256",
							"name": "",
							"type": "uint256"
						}
					],
					"stateMutability": "view",
					"type": "function"
				}
			],
			"devdoc": {
				"kind": "dev",
				"methods": {},
				"version": 1
			},
			"evm": {
				"assembly": "    /* \"atta-movies/RandomQuery.sol\":58:457  contract QueryRandom {\r... */\n  mstore(0x40, 0x80)\n    /* \"atta-movies/RandomQuery.sol\":123:198  constructor(uint256 _blockStart){\r... */\n  callvalue\n  dup1\n  iszero\n  tag_1\n  jumpi\n  0x00\n  dup1\n  revert\ntag_1:\n  pop\n  mload(0x40)\n  sub(codesize, bytecodeSize)\n  dup1\n  bytecodeSize\n  dup4\n  codecopy\n  dup2\n  dup2\n  add\n  0x40\n  mstore\n  dup2\n  add\n  swap1\n  tag_2\n  swap2\n  swap1\n  tag_3\n  jump\t// in\ntag_2:\n    /* \"atta-movies/RandomQuery.sol\":179:190  _blockStart */\n  dup1\n    /* \"atta-movies/RandomQuery.sol\":166:176  blockStart */\n  0x00\n    /* \"atta-movies/RandomQuery.sol\":166:190  blockStart = _blockStart */\n  dup2\n  swap1\n  sstore\n  pop\n    /* \"atta-movies/RandomQuery.sol\":123:198  constructor(uint256 _blockStart){\r... */\n  pop\n    /* \"atta-movies/RandomQuery.sol\":58:457  contract QueryRandom {\r... */\n  jump(tag_6)\n    /* \"#utility.yul\":7:150   */\ntag_8:\n    /* \"#utility.yul\":64:69   */\n  0x00\n    /* \"#utility.yul\":95:101   */\n  dup2\n    /* \"#utility.yul\":89:102   */\n  mload\n    /* \"#utility.yul\":80:102   */\n  swap1\n  pop\n    /* \"#utility.yul\":111:144   */\n  tag_10\n    /* \"#utility.yul\":138:143   */\n  dup2\n    /* \"#utility.yul\":111:144   */\n  tag_11\n  jump\t// in\ntag_10:\n    /* \"#utility.yul\":7:150   */\n  swap3\n  swap2\n  pop\n  pop\n  jump\t// out\n    /* \"#utility.yul\":156:507   */\ntag_3:\n    /* \"#utility.yul\":226:232   */\n  0x00\n    /* \"#utility.yul\":275:277   */\n  0x20\n    /* \"#utility.yul\":263:272   */\n  dup3\n    /* \"#utility.yul\":254:261   */\n  dup5\n    /* \"#utility.yul\":250:273   */\n  sub\n    /* \"#utility.yul\":246:278   */\n  slt\n    /* \"#utility.yul\":243:362   */\n  iszero\n  tag_13\n  jumpi\n    /* \"#utility.yul\":281:360   */\n  tag_14\n  tag_15\n  jump\t// in\ntag_14:\n    /* \"#utility.yul\":243:362   */\ntag_13:\n    /* \"#utility.yul\":401:402   */\n  0x00\n    /* \"#utility.yul\":426:490   */\n  tag_16\n    /* \"#utility.yul\":482:489   */\n  dup5\n    /* \"#utility.yul\":473:479   */\n  dup3\n    /* \"#utility.yul\":462:471   */\n  dup6\n    /* \"#utility.yul\":458:480   */\n  add\n    /* \"#utility.yul\":426:490   */\n  tag_8\n  jump\t// in\ntag_16:\n    /* \"#utility.yul\":416:490   */\n  swap2\n  pop\n    /* \"#utility.yul\":372:500   */\n  pop\n    /* \"#utility.yul\":156:507   */\n  swap3\n  swap2\n  pop\n  pop\n  jump\t// out\n    /* \"#utility.yul\":594:671   */\ntag_19:\n    /* \"#utility.yul\":631:638   */\n  0x00\n    /* \"#utility.yul\":660:665   */\n  dup2\n    /* \"#utility.yul\":649:665   */\n  swap1\n  pop\n    /* \"#utility.yul\":594:671   */\n  swap2\n  swap1\n  pop\n  jump\t// out\n    /* \"#utility.yul\":800:917   */\ntag_15:\n    /* \"#utility.yul\":909:910   */\n  0x00\n    /* \"#utility.yul\":906:907   */\n  dup1\n    /* \"#utility.yul\":899:911   */\n  revert\n    /* \"#utility.yul\":923:1045   */\ntag_11:\n    /* \"#utility.yul\":996:1020   */\n  tag_25\n    /* \"#utility.yul\":1014:1019   */\n  dup2\n    /* \"#utility.yul\":996:1020   */\n  tag_19\n  jump\t// in\ntag_25:\n    /* \"#utility.yul\":989:994   */\n  dup2\n    /* \"#utility.yul\":986:1021   */\n  eq\n    /* \"#utility.yul\":976:1039   */\n  tag_26\n  jumpi\n    /* \"#utility.yul\":1035:1036   */\n  0x00\n    /* \"#utility.yul\":1032:1033   */\n  dup1\n    /* \"#utility.yul\":1025:1037   */\n  revert\n    /* \"#utility.yul\":976:1039   */\ntag_26:\n    /* \"#utility.yul\":923:1045   */\n  pop\n  jump\t// out\n    /* \"atta-movies/RandomQuery.sol\":58:457  contract QueryRandom {\r... */\ntag_6:\n  dataSize(sub_0)\n  dup1\n  dataOffset(sub_0)\n  0x00\n  codecopy\n  0x00\n  return\nstop\n\nsub_0: assembly {\n        /* \"atta-movies/RandomQuery.sol\":58:457  contract QueryRandom {\r... */\n      mstore(0x40, 0x80)\n      callvalue\n      dup1\n      iszero\n      tag_1\n      jumpi\n      0x00\n      dup1\n      revert\n    tag_1:\n      pop\n      jumpi(tag_2, lt(calldatasize, 0x04))\n      shr(0xe0, calldataload(0x00))\n      dup1\n      0x7b2feaaa\n      eq\n      tag_3\n      jumpi\n      dup1\n      0xf970dd02\n      eq\n      tag_4\n      jumpi\n    tag_2:\n      0x00\n      dup1\n      revert\n        /* \"atta-movies/RandomQuery.sol\":89:114  uint256 public blockStart */\n    tag_3:\n      tag_5\n      tag_6\n      jump\t// in\n    tag_5:\n      mload(0x40)\n      tag_7\n      swap2\n      swap1\n      tag_8\n      jump\t// in\n    tag_7:\n      mload(0x40)\n      dup1\n      swap2\n      sub\n      swap1\n      return\n        /* \"atta-movies/RandomQuery.sol\":206:447  function randomNumber(uint256 blockNumber) public view virtual returns (uint256) {\r... */\n    tag_4:\n      tag_9\n      0x04\n      dup1\n      calldatasize\n      sub\n      dup2\n      add\n      swap1\n      tag_10\n      swap2\n      swap1\n      tag_11\n      jump\t// in\n    tag_10:\n      tag_12\n      jump\t// in\n    tag_9:\n      mload(0x40)\n      tag_13\n      swap2\n      swap1\n      tag_8\n      jump\t// in\n    tag_13:\n      mload(0x40)\n      dup1\n      swap2\n      sub\n      swap1\n      return\n        /* \"atta-movies/RandomQuery.sol\":89:114  uint256 public blockStart */\n    tag_6:\n      sload(0x00)\n      dup2\n      jump\t// out\n        /* \"atta-movies/RandomQuery.sol\":206:447  function randomNumber(uint256 blockNumber) public view virtual returns (uint256) {\r... */\n    tag_12:\n        /* \"atta-movies/RandomQuery.sol\":278:285  uint256 */\n      0x00\n        /* \"atta-movies/RandomQuery.sol\":298:318  uint256 randomResult */\n      dup1\n        /* \"atta-movies/RandomQuery.sol\":364:368  1000 */\n      0x03e8\n        /* \"atta-movies/RandomQuery.sol\":394:405  blockNumber */\n      dup4\n        /* \"atta-movies/RandomQuery.sol\":381:391  blockStart */\n      sload(0x00)\n        /* \"atta-movies/RandomQuery.sol\":381:405  blockStart + blockNumber */\n      tag_15\n      swap2\n      swap1\n      tag_16\n      jump\t// in\n    tag_15:\n        /* \"atta-movies/RandomQuery.sol\":371:406  blockhash(blockStart + blockNumber) */\n      blockhash\n        /* \"atta-movies/RandomQuery.sol\":339:407  abi.encodePacked(uint256(1000), blockhash(blockStart + blockNumber)) */\n      add(0x20, mload(0x40))\n      tag_17\n      swap3\n      swap2\n      swap1\n      tag_18\n      jump\t// in\n    tag_17:\n      mload(0x40)\n      0x20\n      dup2\n      dup4\n      sub\n      sub\n      dup2\n      mstore\n      swap1\n      0x40\n      mstore\n        /* \"atta-movies/RandomQuery.sol\":329:408  keccak256(abi.encodePacked(uint256(1000), blockhash(blockStart + blockNumber))) */\n      dup1\n      mload\n      swap1\n      0x20\n      add\n      keccak256\n        /* \"atta-movies/RandomQuery.sol\":321:409  uint256(keccak256(abi.encodePacked(uint256(1000), blockhash(blockStart + blockNumber)))) */\n      0x00\n      shr\n        /* \"atta-movies/RandomQuery.sol\":298:409  uint256 randomResult = uint256(keccak256(abi.encodePacked(uint256(1000), blockhash(blockStart + blockNumber)))) */\n      swap1\n      pop\n        /* \"atta-movies/RandomQuery.sol\":427:439  randomResult */\n      dup1\n        /* \"atta-movies/RandomQuery.sol\":420:439  return randomResult */\n      swap2\n      pop\n      pop\n        /* \"atta-movies/RandomQuery.sol\":206:447  function randomNumber(uint256 blockNumber) public view virtual returns (uint256) {\r... */\n      swap2\n      swap1\n      pop\n      jump\t// out\n        /* \"#utility.yul\":7:146   */\n    tag_20:\n        /* \"#utility.yul\":53:58   */\n      0x00\n        /* \"#utility.yul\":91:97   */\n      dup2\n        /* \"#utility.yul\":78:98   */\n      calldataload\n        /* \"#utility.yul\":69:98   */\n      swap1\n      pop\n        /* \"#utility.yul\":107:140   */\n      tag_22\n        /* \"#utility.yul\":134:139   */\n      dup2\n        /* \"#utility.yul\":107:140   */\n      tag_23\n      jump\t// in\n    tag_22:\n        /* \"#utility.yul\":7:146   */\n      swap3\n      swap2\n      pop\n      pop\n      jump\t// out\n        /* \"#utility.yul\":152:481   */\n    tag_11:\n        /* \"#utility.yul\":211:217   */\n      0x00\n        /* \"#utility.yul\":260:262   */\n      0x20\n        /* \"#utility.yul\":248:257   */\n      dup3\n        /* \"#utility.yul\":239:246   */\n      dup5\n        /* \"#utility.yul\":235:258   */\n      sub\n        /* \"#utility.yul\":231:263   */\n      slt\n        /* \"#utility.yul\":228:347   */\n      iszero\n      tag_25\n      jumpi\n        /* \"#utility.yul\":266:345   */\n      tag_26\n      tag_27\n      jump\t// in\n    tag_26:\n        /* \"#utility.yul\":228:347   */\n    tag_25:\n        /* \"#utility.yul\":386:387   */\n      0x00\n        /* \"#utility.yul\":411:464   */\n      tag_28\n        /* \"#utility.yul\":456:463   */\n      dup5\n        /* \"#utility.yul\":447:453   */\n      dup3\n        /* \"#utility.yul\":436:445   */\n      dup6\n        /* \"#utility.yul\":432:454   */\n      add\n        /* \"#utility.yul\":411:464   */\n      tag_20\n      jump\t// in\n    tag_28:\n        /* \"#utility.yul\":401:464   */\n      swap2\n      pop\n        /* \"#utility.yul\":357:474   */\n      pop\n        /* \"#utility.yul\":152:481   */\n      swap3\n      swap2\n      pop\n      pop\n      jump\t// out\n        /* \"#utility.yul\":487:644   */\n    tag_29:\n        /* \"#utility.yul\":592:637   */\n      tag_31\n        /* \"#utility.yul\":612:636   */\n      tag_32\n        /* \"#utility.yul\":630:635   */\n      dup3\n        /* \"#utility.yul\":612:636   */\n      tag_33\n      jump\t// in\n    tag_32:\n        /* \"#utility.yul\":592:637   */\n      tag_34\n      jump\t// in\n    tag_31:\n        /* \"#utility.yul\":587:590   */\n      dup3\n        /* \"#utility.yul\":580:638   */\n      mstore\n        /* \"#utility.yul\":487:644   */\n      pop\n      pop\n      jump\t// out\n        /* \"#utility.yul\":650:768   */\n    tag_35:\n        /* \"#utility.yul\":737:761   */\n      tag_37\n        /* \"#utility.yul\":755:760   */\n      dup2\n        /* \"#utility.yul\":737:761   */\n      tag_38\n      jump\t// in\n    tag_37:\n        /* \"#utility.yul\":732:735   */\n      dup3\n        /* \"#utility.yul\":725:762   */\n      mstore\n        /* \"#utility.yul\":650:768   */\n      pop\n      pop\n      jump\t// out\n        /* \"#utility.yul\":774:931   */\n    tag_39:\n        /* \"#utility.yul\":879:924   */\n      tag_41\n        /* \"#utility.yul\":899:923   */\n      tag_42\n        /* \"#utility.yul\":917:922   */\n      dup3\n        /* \"#utility.yul\":899:923   */\n      tag_38\n      jump\t// in\n    tag_42:\n        /* \"#utility.yul\":879:924   */\n      tag_43\n      jump\t// in\n    tag_41:\n        /* \"#utility.yul\":874:877   */\n      dup3\n        /* \"#utility.yul\":867:925   */\n      mstore\n        /* \"#utility.yul\":774:931   */\n      pop\n      pop\n      jump\t// out\n        /* \"#utility.yul\":937:1334   */\n    tag_18:\n        /* \"#utility.yul\":1077:1080   */\n      0x00\n        /* \"#utility.yul\":1092:1167   */\n      tag_45\n        /* \"#utility.yul\":1163:1166   */\n      dup3\n        /* \"#utility.yul\":1154:1160   */\n      dup6\n        /* \"#utility.yul\":1092:1167   */\n      tag_39\n      jump\t// in\n    tag_45:\n        /* \"#utility.yul\":1192:1194   */\n      0x20\n        /* \"#utility.yul\":1187:1190   */\n      dup3\n        /* \"#utility.yul\":1183:1195   */\n      add\n        /* \"#utility.yul\":1176:1195   */\n      swap2\n      pop\n        /* \"#utility.yul\":1205:1280   */\n      tag_46\n        /* \"#utility.yul\":1276:1279   */\n      dup3\n        /* \"#utility.yul\":1267:1273   */\n      dup5\n        /* \"#utility.yul\":1205:1280   */\n      tag_29\n      jump\t// in\n    tag_46:\n        /* \"#utility.yul\":1305:1307   */\n      0x20\n        /* \"#utility.yul\":1300:1303   */\n      dup3\n        /* \"#utility.yul\":1296:1308   */\n      add\n        /* \"#utility.yul\":1289:1308   */\n      swap2\n      pop\n        /* \"#utility.yul\":1325:1328   */\n      dup2\n        /* \"#utility.yul\":1318:1328   */\n      swap1\n      pop\n        /* \"#utility.yul\":937:1334   */\n      swap4\n      swap3\n      pop\n      pop\n      pop\n      jump\t// out\n        /* \"#utility.yul\":1340:1562   */\n    tag_8:\n        /* \"#utility.yul\":1433:1437   */\n      0x00\n        /* \"#utility.yul\":1471:1473   */\n      0x20\n        /* \"#utility.yul\":1460:1469   */\n      dup3\n        /* \"#utility.yul\":1456:1474   */\n      add\n        /* \"#utility.yul\":1448:1474   */\n      swap1\n      pop\n        /* \"#utility.yul\":1484:1555   */\n      tag_48\n        /* \"#utility.yul\":1552:1553   */\n      0x00\n        /* \"#utility.yul\":1541:1550   */\n      dup4\n        /* \"#utility.yul\":1537:1554   */\n      add\n        /* \"#utility.yul\":1528:1534   */\n      dup5\n        /* \"#utility.yul\":1484:1555   */\n      tag_35\n      jump\t// in\n    tag_48:\n        /* \"#utility.yul\":1340:1562   */\n      swap3\n      swap2\n      pop\n      pop\n      jump\t// out\n        /* \"#utility.yul\":1649:1954   */\n    tag_16:\n        /* \"#utility.yul\":1689:1692   */\n      0x00\n        /* \"#utility.yul\":1708:1728   */\n      tag_52\n        /* \"#utility.yul\":1726:1727   */\n      dup3\n        /* \"#utility.yul\":1708:1728   */\n      tag_38\n      jump\t// in\n    tag_52:\n        /* \"#utility.yul\":1703:1728   */\n      swap2\n      pop\n        /* \"#utility.yul\":1742:1762   */\n      tag_53\n        /* \"#utility.yul\":1760:1761   */\n      dup4\n        /* \"#utility.yul\":1742:1762   */\n      tag_38\n      jump\t// in\n    tag_53:\n        /* \"#utility.yul\":1737:1762   */\n      swap3\n      pop\n        /* \"#utility.yul\":1896:1897   */\n      dup3\n        /* \"#utility.yul\":1828:1894   */\n      0xffffffffffffffffffffffffffffffffffffffffffffffffffffffffffffffff\n        /* \"#utility.yul\":1824:1898   */\n      sub\n        /* \"#utility.yul\":1821:1822   */\n      dup3\n        /* \"#utility.yul\":1818:1899   */\n      gt\n        /* \"#utility.yul\":1815:1922   */\n      iszero\n      tag_54\n      jumpi\n        /* \"#utility.yul\":1902:1920   */\n      tag_55\n      tag_56\n      jump\t// in\n    tag_55:\n        /* \"#utility.yul\":1815:1922   */\n    tag_54:\n        /* \"#utility.yul\":1946:1947   */\n      dup3\n        /* \"#utility.yul\":1943:1944   */\n      dup3\n        /* \"#utility.yul\":1939:1948   */\n      add\n        /* \"#utility.yul\":1932:1948   */\n      swap1\n      pop\n        /* \"#utility.yul\":1649:1954   */\n      swap3\n      swap2\n      pop\n      pop\n      jump\t// out\n        /* \"#utility.yul\":1960:2037   */\n    tag_33:\n        /* \"#utility.yul\":1997:2004   */\n      0x00\n        /* \"#utility.yul\":2026:2031   */\n      dup2\n        /* \"#utility.yul\":2015:2031   */\n      swap1\n      pop\n        /* \"#utility.yul\":1960:2037   */\n      swap2\n      swap1\n      pop\n      jump\t// out\n        /* \"#utility.yul\":2043:2120   */\n    tag_38:\n        /* \"#utility.yul\":2080:2087   */\n      0x00\n        /* \"#utility.yul\":2109:2114   */\n      dup2\n        /* \"#utility.yul\":2098:2114   */\n      swap1\n      pop\n        /* \"#utility.yul\":2043:2120   */\n      swap2\n      swap1\n      pop\n      jump\t// out\n        /* \"#utility.yul\":2126:2205   */\n    tag_34:\n        /* \"#utility.yul\":2165:2172   */\n      0x00\n        /* \"#utility.yul\":2194:2199   */\n      dup2\n        /* \"#utility.yul\":2183:2199   */\n      swap1\n      pop\n        /* \"#utility.yul\":2126:2205   */\n      swap2\n      swap1\n      pop\n      jump\t// out\n        /* \"#utility.yul\":2211:2290   */\n    tag_43:\n        /* \"#utility.yul\":2250:2257   */\n      0x00\n        /* \"#utility.yul\":2279:2284   */\n      dup2\n        /* \"#utility.yul\":2268:2284   */\n      swap1\n      pop\n        /* \"#utility.yul\":2211:2290   */\n      swap2\n      swap1\n      pop\n      jump\t// out\n        /* \"#utility.yul\":2296:2476   */\n    tag_56:\n        /* \"#utility.yul\":2344:2421   */\n      0x4e487b7100000000000000000000000000000000000000000000000000000000\n        /* \"#utility.yul\":2341:2342   */\n      0x00\n        /* \"#utility.yul\":2334:2422   */\n      mstore\n        /* \"#utility.yul\":2441:2445   */\n      0x11\n        /* \"#utility.yul\":2438:2439   */\n      0x04\n        /* \"#utility.yul\":2431:2446   */\n      mstore\n        /* \"#utility.yul\":2465:2469   */\n      0x24\n        /* \"#utility.yul\":2462:2463   */\n      0x00\n        /* \"#utility.yul\":2455:2470   */\n      revert\n        /* \"#utility.yul\":2605:2722   */\n    tag_27:\n        /* \"#utility.yul\":2714:2715   */\n      0x00\n        /* \"#utility.yul\":2711:2712   */\n      dup1\n        /* \"#utility.yul\":2704:2716   */\n      revert\n        /* \"#utility.yul\":2728:2850   */\n    tag_23:\n        /* \"#utility.yul\":2801:2825   */\n      tag_66\n        /* \"#utility.yul\":2819:2824   */\n      dup2\n        /* \"#utility.yul\":2801:2825   */\n      tag_38\n      jump\t// in\n    tag_66:\n        /* \"#utility.yul\":2794:2799   */\n      dup2\n        /* \"#utility.yul\":2791:2826   */\n      eq\n        /* \"#utility.yul\":2781:2844   */\n      tag_67\n      jumpi\n        /* \"#utility.yul\":2840:2841   */\n      0x00\n        /* \"#utility.yul\":2837:2838   */\n      dup1\n        /* \"#utility.yul\":2830:2842   */\n      revert\n        /* \"#utility.yul\":2781:2844   */\n    tag_67:\n        /* \"#utility.yul\":2728:2850   */\n      pop\n      jump\t// out\n\n    auxdata: 0xa26469706673582212204d3ed8ca4e892faae9546fa55cb168a420c98ca54838004ddb8b46be9e9f203f64736f6c63430008070033\n}\n",
				"bytecode": {
					"linkReferences": {},
					"object": "608060405234801561001057600080fd5b5060405161035438038061035483398181016040528101906100329190610054565b80600081905550506100a7565b60008151905061004e81610090565b92915050565b60006020828403121561006a5761006961008b565b5b60006100788482850161003f565b91505092915050565b6000819050919050565b600080fd5b61009981610081565b81146100a457600080fd5b50565b61029e806100b66000396000f3fe608060405234801561001057600080fd5b50600436106100365760003560e01c80637b2feaaa1461003b578063f970dd0214610059575b600080fd5b610043610089565b6040516100509190610184565b60405180910390f35b610073600480360381019061006e91906100ee565b61008f565b6040516100809190610184565b60405180910390f35b60005481565b6000806103e8836000546100a3919061019f565b406040516020016100b5929190610158565b6040516020818303038152906040528051906020012060001c905080915050919050565b6000813590506100e881610251565b92915050565b6000602082840312156101045761010361024c565b5b6000610112848285016100d9565b91505092915050565b61012c610127826101f5565b610209565b82525050565b61013b816101ff565b82525050565b61015261014d826101ff565b610213565b82525050565b60006101648285610141565b602082019150610174828461011b565b6020820191508190509392505050565b60006020820190506101996000830184610132565b92915050565b60006101aa826101ff565b91506101b5836101ff565b9250827fffffffffffffffffffffffffffffffffffffffffffffffffffffffffffffffff038211156101ea576101e961021d565b5b828201905092915050565b6000819050919050565b6000819050919050565b6000819050919050565b6000819050919050565b7f4e487b7100000000000000000000000000000000000000000000000000000000600052601160045260246000fd5b600080fd5b61025a816101ff565b811461026557600080fd5b5056fea26469706673582212204d3ed8ca4e892faae9546fa55cb168a420c98ca54838004ddb8b46be9e9f203f64736f6c63430008070033",
					"opcodes": "PUSH1 0x80 PUSH1 0x40 MSTORE CALLVALUE DUP1 ISZERO PUSH2 0x10 JUMPI PUSH1 0x0 DUP1 REVERT JUMPDEST POP PUSH1 0x40 MLOAD PUSH2 0x354 CODESIZE SUB DUP1 PUSH2 0x354 DUP4 CODECOPY DUP2 DUP2 ADD PUSH1 0x40 MSTORE DUP2 ADD SWAP1 PUSH2 0x32 SWAP2 SWAP1 PUSH2 0x54 JUMP JUMPDEST DUP1 PUSH1 0x0 DUP2 SWAP1 SSTORE POP POP PUSH2 0xA7 JUMP JUMPDEST PUSH1 0x0 DUP2 MLOAD SWAP1 POP PUSH2 0x4E DUP2 PUSH2 0x90 JUMP JUMPDEST SWAP3 SWAP2 POP POP JUMP JUMPDEST PUSH1 0x0 PUSH1 0x20 DUP3 DUP5 SUB SLT ISZERO PUSH2 0x6A JUMPI PUSH2 0x69 PUSH2 0x8B JUMP JUMPDEST JUMPDEST PUSH1 0x0 PUSH2 0x78 DUP5 DUP3 DUP6 ADD PUSH2 0x3F JUMP JUMPDEST SWAP2 POP POP SWAP3 SWAP2 POP POP JUMP JUMPDEST PUSH1 0x0 DUP2 SWAP1 POP SWAP2 SWAP1 POP JUMP JUMPDEST PUSH1 0x0 DUP1 REVERT JUMPDEST PUSH2 0x99 DUP2 PUSH2 0x81 JUMP JUMPDEST DUP2 EQ PUSH2 0xA4 JUMPI PUSH1 0x0 DUP1 REVERT JUMPDEST POP JUMP JUMPDEST PUSH2 0x29E DUP1 PUSH2 0xB6 PUSH1 0x0 CODECOPY PUSH1 0x0 RETURN INVALID PUSH1 0x80 PUSH1 0x40 MSTORE CALLVALUE DUP1 ISZERO PUSH2 0x10 JUMPI PUSH1 0x0 DUP1 REVERT JUMPDEST POP PUSH1 0x4 CALLDATASIZE LT PUSH2 0x36 JUMPI PUSH1 0x0 CALLDATALOAD PUSH1 0xE0 SHR DUP1 PUSH4 0x7B2FEAAA EQ PUSH2 0x3B JUMPI DUP1 PUSH4 0xF970DD02 EQ PUSH2 0x59 JUMPI JUMPDEST PUSH1 0x0 DUP1 REVERT JUMPDEST PUSH2 0x43 PUSH2 0x89 JUMP JUMPDEST PUSH1 0x40 MLOAD PUSH2 0x50 SWAP2 SWAP1 PUSH2 0x184 JUMP JUMPDEST PUSH1 0x40 MLOAD DUP1 SWAP2 SUB SWAP1 RETURN JUMPDEST PUSH2 0x73 PUSH1 0x4 DUP1 CALLDATASIZE SUB DUP2 ADD SWAP1 PUSH2 0x6E SWAP2 SWAP1 PUSH2 0xEE JUMP JUMPDEST PUSH2 0x8F JUMP JUMPDEST PUSH1 0x40 MLOAD PUSH2 0x80 SWAP2 SWAP1 PUSH2 0x184 JUMP JUMPDEST PUSH1 0x40 MLOAD DUP1 SWAP2 SUB SWAP1 RETURN JUMPDEST PUSH1 0x0 SLOAD DUP2 JUMP JUMPDEST PUSH1 0x0 DUP1 PUSH2 0x3E8 DUP4 PUSH1 0x0 SLOAD PUSH2 0xA3 SWAP2 SWAP1 PUSH2 0x19F JUMP JUMPDEST BLOCKHASH PUSH1 0x40 MLOAD PUSH1 0x20 ADD PUSH2 0xB5 SWAP3 SWAP2 SWAP1 PUSH2 0x158 JUMP JUMPDEST PUSH1 0x40 MLOAD PUSH1 0x20 DUP2 DUP4 SUB SUB DUP2 MSTORE SWAP1 PUSH1 0x40 MSTORE DUP1 MLOAD SWAP1 PUSH1 0x20 ADD KECCAK256 PUSH1 0x0 SHR SWAP1 POP DUP1 SWAP2 POP POP SWAP2 SWAP1 POP JUMP JUMPDEST PUSH1 0x0 DUP2 CALLDATALOAD SWAP1 POP PUSH2 0xE8 DUP2 PUSH2 0x251 JUMP JUMPDEST SWAP3 SWAP2 POP POP JUMP JUMPDEST PUSH1 0x0 PUSH1 0x20 DUP3 DUP5 SUB SLT ISZERO PUSH2 0x104 JUMPI PUSH2 0x103 PUSH2 0x24C JUMP JUMPDEST JUMPDEST PUSH1 0x0 PUSH2 0x112 DUP5 DUP3 DUP6 ADD PUSH2 0xD9 JUMP JUMPDEST SWAP2 POP POP SWAP3 SWAP2 POP POP JUMP JUMPDEST PUSH2 0x12C PUSH2 0x127 DUP3 PUSH2 0x1F5 JUMP JUMPDEST PUSH2 0x209 JUMP JUMPDEST DUP3 MSTORE POP POP JUMP JUMPDEST PUSH2 0x13B DUP2 PUSH2 0x1FF JUMP JUMPDEST DUP3 MSTORE POP POP JUMP JUMPDEST PUSH2 0x152 PUSH2 0x14D DUP3 PUSH2 0x1FF JUMP JUMPDEST PUSH2 0x213 JUMP JUMPDEST DUP3 MSTORE POP POP JUMP JUMPDEST PUSH1 0x0 PUSH2 0x164 DUP3 DUP6 PUSH2 0x141 JUMP JUMPDEST PUSH1 0x20 DUP3 ADD SWAP2 POP PUSH2 0x174 DUP3 DUP5 PUSH2 0x11B JUMP JUMPDEST PUSH1 0x20 DUP3 ADD SWAP2 POP DUP2 SWAP1 POP SWAP4 SWAP3 POP POP POP JUMP JUMPDEST PUSH1 0x0 PUSH1 0x20 DUP3 ADD SWAP1 POP PUSH2 0x199 PUSH1 0x0 DUP4 ADD DUP5 PUSH2 0x132 JUMP JUMPDEST SWAP3 SWAP2 POP POP JUMP JUMPDEST PUSH1 0x0 PUSH2 0x1AA DUP3 PUSH2 0x1FF JUMP JUMPDEST SWAP2 POP PUSH2 0x1B5 DUP4 PUSH2 0x1FF JUMP JUMPDEST SWAP3 POP DUP3 PUSH32 0xFFFFFFFFFFFFFFFFFFFFFFFFFFFFFFFFFFFFFFFFFFFFFFFFFFFFFFFFFFFFFFFF SUB DUP3 GT ISZERO PUSH2 0x1EA JUMPI PUSH2 0x1E9 PUSH2 0x21D JUMP JUMPDEST JUMPDEST DUP3 DUP3 ADD SWAP1 POP SWAP3 SWAP2 POP POP JUMP JUMPDEST PUSH1 0x0 DUP2 SWAP1 POP SWAP2 SWAP1 POP JUMP JUMPDEST PUSH1 0x0 DUP2 SWAP1 POP SWAP2 SWAP1 POP JUMP JUMPDEST PUSH1 0x0 DUP2 SWAP1 POP SWAP2 SWAP1 POP JUMP JUMPDEST PUSH1 0x0 DUP2 SWAP1 POP SWAP2 SWAP1 POP JUMP JUMPDEST PUSH32 0x4E487B7100000000000000000000000000000000000000000000000000000000 PUSH1 0x0 MSTORE PUSH1 0x11 PUSH1 0x4 MSTORE PUSH1 0x24 PUSH1 0x0 REVERT JUMPDEST PUSH1 0x0 DUP1 REVERT JUMPDEST PUSH2 0x25A DUP2 PUSH2 0x1FF JUMP JUMPDEST DUP2 EQ PUSH2 0x265 JUMPI PUSH1 0x0 DUP1 REVERT JUMPDEST POP JUMP INVALID LOG2 PUSH5 0x6970667358 0x22 SLT KECCAK256 0x4D RETURNDATACOPY 0xD8 0xCA 0x4E DUP10 0x2F 0xAA 0xE9 SLOAD PUSH16 0xA55CB168A420C98CA54838004DDB8B46 0xBE SWAP15 SWAP16 KECCAK256 EXTCODEHASH PUSH5 0x736F6C6343 STOP ADDMOD SMOD STOP CALLER "
				},
				"gasEstimates": {
					"creation": {
						"codeDepositCost": "134000",
						"executionCost": "infinite",
						"totalCost": "infinite"
					},
					"external": {
						"blockStart()": "2407",
						"randomNumber(uint256)": "infinite"
					}
				},
				"methodIdentifiers": {
					"blockStart()": "7b2feaaa",
					"randomNumber(uint256)": "f970dd02"
				}
			},
			"storageLayout": {
				"storage": [
					{
						"astId": 3,
						"contract": "atta-movies/RandomQuery.sol:QueryRandom",
						"label": "blockStart",
						"offset": 0,
						"slot": "0",
						"type": "t_uint256"
					}
				],
				"types": {
					"t_uint256": {
						"encoding": "inplace",
						"label": "uint256",
						"numberOfBytes": "32"
					}
				}
			},
			"userdoc": {
				"kind": "user",
				"methods": {},
				"version": 1
			}
		}
	}
}