{
	"atta-movies/PopcornClaimer.sol": {
		"PopcornClaimer": {
			"abi": [
				{
					"inputs": [
						{
							"internalType": "address",
							"name": "_popcornToken",
							"type": "address"
						},
						{
							"internalType": "address",
							"name": "_treasury",
							"type": "address"
						}
					],
					"stateMutability": "nonpayable",
					"type": "constructor"
				},
				{
					"anonymous": false,
					"inputs": [
						{
							"indexed": true,
							"internalType": "address",
							"name": "user",
							"type": "address"
						},
						{
							"indexed": false,
							"internalType": "uint256",
							"name": "value",
							"type": "uint256"
						}
					],
					"name": "Claimed",
					"type": "event"
				},
				{
					"anonymous": false,
					"inputs": [
						{
							"indexed": true,
							"internalType": "address",
							"name": "previousOwner",
							"type": "address"
						},
						{
							"indexed": true,
							"internalType": "address",
							"name": "newOwner",
							"type": "address"
						}
					],
					"name": "OwnershipTransferred",
					"type": "event"
				},
				{
					"anonymous": false,
					"inputs": [
						{
							"indexed": true,
							"internalType": "address",
							"name": "user",
							"type": "address"
						},
						{
							"indexed": false,
							"internalType": "uint256",
							"name": "value",
							"type": "uint256"
						}
					],
					"name": "Release",
					"type": "event"
				},
				{
					"inputs": [
						{
							"internalType": "address",
							"name": "",
							"type": "address"
						}
					],
					"name": "availableUnclaimedToken",
					"outputs": [
						{
							"internalType": "uint256",
							"name": "",
							"type": "uint256"
						}
					],
					"stateMutability": "view",
					"type": "function"
				},
				{
					"inputs": [
						{
							"internalType": "address[]",
							"name": "users",
							"type": "address[]"
						},
						{
							"internalType": "uint256[]",
							"name": "amounts",
							"type": "uint256[]"
						}
					],
					"name": "batchRelease",
					"outputs": [],
					"stateMutability": "nonpayable",
					"type": "function"
				},
				{
					"inputs": [
						{
							"internalType": "address",
							"name": "user",
							"type": "address"
						}
					],
					"name": "claim",
					"outputs": [],
					"stateMutability": "nonpayable",
					"type": "function"
				},
				{
					"inputs": [],
					"name": "owner",
					"outputs": [
						{
							"internalType": "address",
							"name": "",
							"type": "address"
						}
					],
					"stateMutability": "view",
					"type": "function"
				},
				{
					"inputs": [],
					"name": "renounceOwnership",
					"outputs": [],
					"stateMutability": "nonpayable",
					"type": "function"
				},
				{
					"inputs": [
						{
							"internalType": "address",
							"name": "_treasury",
							"type": "address"
						}
					],
					"name": "setTreasury",
					"outputs": [],
					"stateMutability": "nonpayable",
					"type": "function"
				},
				{
					"inputs": [
						{
							"internalType": "address",
							"name": "newOwner",
							"type": "address"
						}
					],
					"name": "transferOwnership",
					"outputs": [],
					"stateMutability": "nonpayable",
					"type": "function"
				},
				{
					"inputs": [],
					"name": "treasury",
					"outputs": [
						{
							"internalType": "address",
							"name": "",
							"type": "address"
						}
					],
					"stateMutability": "view",
					"type": "function"
				}
			],
			"devdoc": {
				"kind": "dev",
				"methods": {
					"owner()": {
						"details": "Returns the address of the current owner."
					},
					"renounceOwnership()": {
						"details": "Leaves the contract without owner. It will not be possible to call `onlyOwner` functions anymore. Can only be called by the current owner. NOTE: Renouncing ownership will leave the contract without an owner, thereby removing any functionality that is only available to the owner."
					},
					"transferOwnership(address)": {
						"details": "Transfers ownership of the contract to a new account (`newOwner`). Can only be called by the current owner."
					}
				},
				"version": 1
			},
			"evm": {
				"assembly": "    /* \"atta-movies/PopcornClaimer.sol\":3235:4638  contract PopcornClaimer is Ownable {\r... */\n  mstore(0x40, 0x80)\n    /* \"atta-movies/PopcornClaimer.sol\":3520:3667  constructor (address _popcornToken, address _treasury) {\r... */\n  callvalue\n  dup1\n  iszero\n  tag_1\n  jumpi\n  0x00\n  dup1\n  revert\ntag_1:\n  pop\n  mload(0x40)\n  sub(codesize, bytecodeSize)\n  dup1\n  bytecodeSize\n  dup4\n  codecopy\n  dup2\n  dup2\n  add\n  0x40\n  mstore\n  dup2\n  add\n  swap1\n  tag_2\n  swap2\n  swap1\n  tag_3\n  jump\t// in\ntag_2:\n    /* \"atta-movies/PopcornClaimer.sol\":1784:1801  address msgSender */\n  0x00\n    /* \"atta-movies/PopcornClaimer.sol\":1804:1816  _msgSender() */\n  tag_7\n    /* \"atta-movies/PopcornClaimer.sol\":1804:1814  _msgSender */\n  shl(0x20, tag_8)\n    /* \"atta-movies/PopcornClaimer.sol\":1804:1816  _msgSender() */\n  0x20\n  shr\n  jump\t// in\ntag_7:\n    /* \"atta-movies/PopcornClaimer.sol\":1784:1816  address msgSender = _msgSender() */\n  swap1\n  pop\n    /* \"atta-movies/PopcornClaimer.sol\":1836:1845  msgSender */\n  dup1\n    /* \"atta-movies/PopcornClaimer.sol\":1827:1833  _owner */\n  0x00\n  dup1\n    /* \"atta-movies/PopcornClaimer.sol\":1827:1845  _owner = msgSender */\n  0x0100\n  exp\n  dup2\n  sload\n  dup2\n  0xffffffffffffffffffffffffffffffffffffffff\n  mul\n  not\n  and\n  swap1\n  dup4\n  0xffffffffffffffffffffffffffffffffffffffff\n  and\n  mul\n  or\n  swap1\n  sstore\n  pop\n    /* \"atta-movies/PopcornClaimer.sol\":1894:1903  msgSender */\n  dup1\n    /* \"atta-movies/PopcornClaimer.sol\":1861:1904  OwnershipTransferred(address(0), msgSender) */\n  0xffffffffffffffffffffffffffffffffffffffff\n  and\n    /* \"atta-movies/PopcornClaimer.sol\":1890:1891  0 */\n  0x00\n    /* \"atta-movies/PopcornClaimer.sol\":1861:1904  OwnershipTransferred(address(0), msgSender) */\n  0xffffffffffffffffffffffffffffffffffffffff\n  and\n  0x8be0079c531659141344cd1fd0a4f28419497f9722a3daafe3b4186f6b6457e0\n  mload(0x40)\n  mload(0x40)\n  dup1\n  swap2\n  sub\n  swap1\n  log3\n    /* \"atta-movies/PopcornClaimer.sol\":1758:1912  constructor () {\r... */\n  pop\n    /* \"atta-movies/PopcornClaimer.sol\":3614:3627  _popcornToken */\n  dup2\n    /* \"atta-movies/PopcornClaimer.sol\":3586:3598  popcornToken */\n  0x01\n  0x00\n    /* \"atta-movies/PopcornClaimer.sol\":3586:3628  popcornToken = IERC20Minter(_popcornToken) */\n  0x0100\n  exp\n  dup2\n  sload\n  dup2\n  0xffffffffffffffffffffffffffffffffffffffff\n  mul\n  not\n  and\n  swap1\n  dup4\n  0xffffffffffffffffffffffffffffffffffffffff\n  and\n  mul\n  or\n  swap1\n  sstore\n  pop\n    /* \"atta-movies/PopcornClaimer.sol\":3650:3659  _treasury */\n  dup1\n    /* \"atta-movies/PopcornClaimer.sol\":3639:3647  treasury */\n  0x02\n  0x00\n    /* \"atta-movies/PopcornClaimer.sol\":3639:3659  treasury = _treasury */\n  0x0100\n  exp\n  dup2\n  sload\n  dup2\n  0xffffffffffffffffffffffffffffffffffffffff\n  mul\n  not\n  and\n  swap1\n  dup4\n  0xffffffffffffffffffffffffffffffffffffffff\n  and\n  mul\n  or\n  swap1\n  sstore\n  pop\n    /* \"atta-movies/PopcornClaimer.sol\":3520:3667  constructor (address _popcornToken, address _treasury) {\r... */\n  pop\n  pop\n    /* \"atta-movies/PopcornClaimer.sol\":3235:4638  contract PopcornClaimer is Ownable {\r... */\n  jump(tag_10)\n    /* \"atta-movies/PopcornClaimer.sol\":771:869  function _msgSender() internal view virtual returns (address) {\r... */\ntag_8:\n    /* \"atta-movies/PopcornClaimer.sol\":824:831  address */\n  0x00\n    /* \"atta-movies/PopcornClaimer.sol\":851:861  msg.sender */\n  caller\n    /* \"atta-movies/PopcornClaimer.sol\":844:861  return msg.sender */\n  swap1\n  pop\n    /* \"atta-movies/PopcornClaimer.sol\":771:869  function _msgSender() internal view virtual returns (address) {\r... */\n  swap1\n  jump\t// out\n    /* \"#utility.yul\":7:150   */\ntag_13:\n  0x00\n    /* \"#utility.yul\":95:101   */\n  dup2\n    /* \"#utility.yul\":89:102   */\n  mload\n    /* \"#utility.yul\":80:102   */\n  swap1\n  pop\n    /* \"#utility.yul\":111:144   */\n  tag_15\n    /* \"#utility.yul\":138:143   */\n  dup2\n    /* \"#utility.yul\":111:144   */\n  tag_16\n  jump\t// in\ntag_15:\n    /* \"#utility.yul\":70:150   */\n  swap3\n  swap2\n  pop\n  pop\n  jump\t// out\n    /* \"#utility.yul\":156:596   */\ntag_3:\n  0x00\n  dup1\n    /* \"#utility.yul\":292:294   */\n  0x40\n    /* \"#utility.yul\":280:289   */\n  dup4\n    /* \"#utility.yul\":271:278   */\n  dup6\n    /* \"#utility.yul\":267:290   */\n  sub\n    /* \"#utility.yul\":263:295   */\n  slt\n    /* \"#utility.yul\":260:262   */\n  iszero\n  tag_18\n  jumpi\n    /* \"#utility.yul\":308:309   */\n  0x00\n    /* \"#utility.yul\":305:306   */\n  dup1\n    /* \"#utility.yul\":298:310   */\n  revert\n    /* \"#utility.yul\":260:262   */\ntag_18:\n    /* \"#utility.yul\":351:352   */\n  0x00\n    /* \"#utility.yul\":376:440   */\n  tag_19\n    /* \"#utility.yul\":432:439   */\n  dup6\n    /* \"#utility.yul\":423:429   */\n  dup3\n    /* \"#utility.yul\":412:421   */\n  dup7\n    /* \"#utility.yul\":408:430   */\n  add\n    /* \"#utility.yul\":376:440   */\n  tag_13\n  jump\t// in\ntag_19:\n    /* \"#utility.yul\":366:440   */\n  swap3\n  pop\n    /* \"#utility.yul\":322:450   */\n  pop\n    /* \"#utility.yul\":489:491   */\n  0x20\n    /* \"#utility.yul\":515:579   */\n  tag_20\n    /* \"#utility.yul\":571:578   */\n  dup6\n    /* \"#utility.yul\":562:568   */\n  dup3\n    /* \"#utility.yul\":551:560   */\n  dup7\n    /* \"#utility.yul\":547:569   */\n  add\n    /* \"#utility.yul\":515:579   */\n  tag_13\n  jump\t// in\ntag_20:\n    /* \"#utility.yul\":505:579   */\n  swap2\n  pop\n    /* \"#utility.yul\":460:589   */\n  pop\n    /* \"#utility.yul\":250:596   */\n  swap3\n  pop\n  swap3\n  swap1\n  pop\n  jump\t// out\n    /* \"#utility.yul\":602:698   */\ntag_21:\n  0x00\n    /* \"#utility.yul\":668:692   */\n  tag_23\n    /* \"#utility.yul\":686:691   */\n  dup3\n    /* \"#utility.yul\":668:692   */\n  tag_24\n  jump\t// in\ntag_23:\n    /* \"#utility.yul\":657:692   */\n  swap1\n  pop\n    /* \"#utility.yul\":647:698   */\n  swap2\n  swap1\n  pop\n  jump\t// out\n    /* \"#utility.yul\":704:830   */\ntag_24:\n  0x00\n    /* \"#utility.yul\":781:823   */\n  0xffffffffffffffffffffffffffffffffffffffff\n    /* \"#utility.yul\":774:779   */\n  dup3\n    /* \"#utility.yul\":770:824   */\n  and\n    /* \"#utility.yul\":759:824   */\n  swap1\n  pop\n    /* \"#utility.yul\":749:830   */\n  swap2\n  swap1\n  pop\n  jump\t// out\n    /* \"#utility.yul\":836:958   */\ntag_16:\n    /* \"#utility.yul\":909:933   */\n  tag_27\n    /* \"#utility.yul\":927:932   */\n  dup2\n    /* \"#utility.yul\":909:933   */\n  tag_21\n  jump\t// in\ntag_27:\n    /* \"#utility.yul\":902:907   */\n  dup2\n    /* \"#utility.yul\":899:934   */\n  eq\n    /* \"#utility.yul\":889:891   */\n  tag_28\n  jumpi\n    /* \"#utility.yul\":948:949   */\n  0x00\n    /* \"#utility.yul\":945:946   */\n  dup1\n    /* \"#utility.yul\":938:950   */\n  revert\n    /* \"#utility.yul\":889:891   */\ntag_28:\n    /* \"#utility.yul\":879:958   */\n  pop\n  jump\t// out\n    /* \"atta-movies/PopcornClaimer.sol\":3235:4638  contract PopcornClaimer is Ownable {\r... */\ntag_10:\n  dataSize(sub_0)\n  dup1\n  dataOffset(sub_0)\n  0x00\n  codecopy\n  0x00\n  return\nstop\n\nsub_0: assembly {\n        /* \"atta-movies/PopcornClaimer.sol\":3235:4638  contract PopcornClaimer is Ownable {\r... */\n      mstore(0x40, 0x80)\n      callvalue\n      dup1\n      iszero\n      tag_1\n      jumpi\n      0x00\n      dup1\n      revert\n    tag_1:\n      pop\n      jumpi(tag_2, lt(calldatasize, 0x04))\n      shr(0xe0, calldataload(0x00))\n      dup1\n      0x8da5cb5b\n      gt\n      tag_11\n      jumpi\n      dup1\n      0x8da5cb5b\n      eq\n      tag_7\n      jumpi\n      dup1\n      0xb92b03cd\n      eq\n      tag_8\n      jumpi\n      dup1\n      0xf0f44260\n      eq\n      tag_9\n      jumpi\n      dup1\n      0xf2fde38b\n      eq\n      tag_10\n      jumpi\n      jump(tag_2)\n    tag_11:\n      dup1\n      0x1e83409a\n      eq\n      tag_3\n      jumpi\n      dup1\n      0x3f7e8975\n      eq\n      tag_4\n      jumpi\n      dup1\n      0x61d027b3\n      eq\n      tag_5\n      jumpi\n      dup1\n      0x715018a6\n      eq\n      tag_6\n      jumpi\n    tag_2:\n      0x00\n      dup1\n      revert\n        /* \"atta-movies/PopcornClaimer.sol\":4152:4529  function claim(address user) external {\r... */\n    tag_3:\n      tag_12\n      0x04\n      dup1\n      calldatasize\n      sub\n      dup2\n      add\n      swap1\n      tag_13\n      swap2\n      swap1\n      tag_14\n      jump\t// in\n    tag_13:\n      tag_15\n      jump\t// in\n    tag_12:\n      stop\n        /* \"atta-movies/PopcornClaimer.sol\":3339:3397  mapping(address => uint256) public availableUnclaimedToken */\n    tag_4:\n      tag_16\n      0x04\n      dup1\n      calldatasize\n      sub\n      dup2\n      add\n      swap1\n      tag_17\n      swap2\n      swap1\n      tag_14\n      jump\t// in\n    tag_17:\n      tag_18\n      jump\t// in\n    tag_16:\n      mload(0x40)\n      tag_19\n      swap2\n      swap1\n      tag_20\n      jump\t// in\n    tag_19:\n      mload(0x40)\n      dup1\n      swap2\n      sub\n      swap1\n      return\n        /* \"atta-movies/PopcornClaimer.sol\":3309:3332  address public treasury */\n    tag_5:\n      tag_21\n      tag_22\n      jump\t// in\n    tag_21:\n      mload(0x40)\n      tag_23\n      swap2\n      swap1\n      tag_24\n      jump\t// in\n    tag_23:\n      mload(0x40)\n      dup1\n      swap2\n      sub\n      swap1\n      return\n        /* \"atta-movies/PopcornClaimer.sol\":2635:2783  function renounceOwnership() public virtual onlyOwner {\r... */\n    tag_6:\n      tag_25\n      tag_26\n      jump\t// in\n    tag_25:\n      stop\n        /* \"atta-movies/PopcornClaimer.sol\":1993:2072  function owner() public view returns (address) {\r... */\n    tag_7:\n      tag_27\n      tag_28\n      jump\t// in\n    tag_27:\n      mload(0x40)\n      tag_29\n      swap2\n      swap1\n      tag_24\n      jump\t// in\n    tag_29:\n      mload(0x40)\n      dup1\n      swap2\n      sub\n      swap1\n      return\n        /* \"atta-movies/PopcornClaimer.sol\":3675:4144  function batchRelease(address[] calldata users, uint256[] calldata amounts) external onlyOwner {\r... */\n    tag_8:\n      tag_30\n      0x04\n      dup1\n      calldatasize\n      sub\n      dup2\n      add\n      swap1\n      tag_31\n      swap2\n      swap1\n      tag_32\n      jump\t// in\n    tag_31:\n      tag_33\n      jump\t// in\n    tag_30:\n      stop\n        /* \"atta-movies/PopcornClaimer.sol\":4537:4635  function setTreasury(address _treasury) external onlyOwner {\r... */\n    tag_9:\n      tag_34\n      0x04\n      dup1\n      calldatasize\n      sub\n      dup2\n      add\n      swap1\n      tag_35\n      swap2\n      swap1\n      tag_14\n      jump\t// in\n    tag_35:\n      tag_36\n      jump\t// in\n    tag_34:\n      stop\n        /* \"atta-movies/PopcornClaimer.sol\":2938:3182  function transferOwnership(address newOwner) public virtual onlyOwner {\r... */\n    tag_10:\n      tag_37\n      0x04\n      dup1\n      calldatasize\n      sub\n      dup2\n      add\n      swap1\n      tag_38\n      swap2\n      swap1\n      tag_14\n      jump\t// in\n    tag_38:\n      tag_39\n      jump\t// in\n    tag_37:\n      stop\n        /* \"atta-movies/PopcornClaimer.sol\":4152:4529  function claim(address user) external {\r... */\n    tag_15:\n        /* \"atta-movies/PopcornClaimer.sol\":4237:4238  0 */\n      0x00\n        /* \"atta-movies/PopcornClaimer.sol\":4205:4228  availableUnclaimedToken */\n      0x03\n        /* \"atta-movies/PopcornClaimer.sol\":4205:4234  availableUnclaimedToken[user] */\n      0x00\n        /* \"atta-movies/PopcornClaimer.sol\":4229:4233  user */\n      dup4\n        /* \"atta-movies/PopcornClaimer.sol\":4205:4234  availableUnclaimedToken[user] */\n      0xffffffffffffffffffffffffffffffffffffffff\n      and\n      0xffffffffffffffffffffffffffffffffffffffff\n      and\n      dup2\n      mstore\n      0x20\n      add\n      swap1\n      dup2\n      mstore\n      0x20\n      add\n      0x00\n      keccak256\n      sload\n        /* \"atta-movies/PopcornClaimer.sol\":4205:4238  availableUnclaimedToken[user] > 0 */\n      gt\n        /* \"atta-movies/PopcornClaimer.sol\":4201:4522  if (availableUnclaimedToken[user] > 0) {\r... */\n      iszero\n      tag_41\n      jumpi\n        /* \"atta-movies/PopcornClaimer.sol\":4326:4338  popcornToken */\n      0x01\n      0x00\n      swap1\n      sload\n      swap1\n      0x0100\n      exp\n      swap1\n      div\n      0xffffffffffffffffffffffffffffffffffffffff\n      and\n        /* \"atta-movies/PopcornClaimer.sol\":4326:4351  popcornToken.transferFrom */\n      0xffffffffffffffffffffffffffffffffffffffff\n      and\n      0x23b872dd\n        /* \"atta-movies/PopcornClaimer.sol\":4352:4360  treasury */\n      0x02\n      0x00\n      swap1\n      sload\n      swap1\n      0x0100\n      exp\n      swap1\n      div\n      0xffffffffffffffffffffffffffffffffffffffff\n      and\n        /* \"atta-movies/PopcornClaimer.sol\":4362:4366  user */\n      dup4\n        /* \"atta-movies/PopcornClaimer.sol\":4368:4391  availableUnclaimedToken */\n      0x03\n        /* \"atta-movies/PopcornClaimer.sol\":4368:4397  availableUnclaimedToken[user] */\n      0x00\n        /* \"atta-movies/PopcornClaimer.sol\":4392:4396  user */\n      dup7\n        /* \"atta-movies/PopcornClaimer.sol\":4368:4397  availableUnclaimedToken[user] */\n      0xffffffffffffffffffffffffffffffffffffffff\n      and\n      0xffffffffffffffffffffffffffffffffffffffff\n      and\n      dup2\n      mstore\n      0x20\n      add\n      swap1\n      dup2\n      mstore\n      0x20\n      add\n      0x00\n      keccak256\n      sload\n        /* \"atta-movies/PopcornClaimer.sol\":4326:4398  popcornToken.transferFrom(treasury, user, availableUnclaimedToken[user]) */\n      mload(0x40)\n      dup5\n      0xffffffff\n      and\n      0xe0\n      shl\n      dup2\n      mstore\n      0x04\n      add\n      tag_42\n      swap4\n      swap3\n      swap2\n      swap1\n      tag_43\n      jump\t// in\n    tag_42:\n      0x20\n      mload(0x40)\n      dup1\n      dup4\n      sub\n      dup2\n      0x00\n      dup8\n      dup1\n      extcodesize\n      iszero\n      dup1\n      iszero\n      tag_44\n      jumpi\n      0x00\n      dup1\n      revert\n    tag_44:\n      pop\n      gas\n      call\n      iszero\n      dup1\n      iszero\n      tag_46\n      jumpi\n      returndatasize\n      0x00\n      dup1\n      returndatacopy\n      revert(0x00, returndatasize)\n    tag_46:\n      pop\n      pop\n      pop\n      pop\n      mload(0x40)\n      returndatasize\n      not(0x1f)\n      0x1f\n      dup3\n      add\n      and\n      dup3\n      add\n      dup1\n      0x40\n      mstore\n      pop\n      dup2\n      add\n      swap1\n      tag_47\n      swap2\n      swap1\n      tag_48\n      jump\t// in\n    tag_47:\n      pop\n        /* \"atta-movies/PopcornClaimer.sol\":4426:4430  user */\n      dup1\n        /* \"atta-movies/PopcornClaimer.sol\":4418:4462  Claimed(user, availableUnclaimedToken[user]) */\n      0xffffffffffffffffffffffffffffffffffffffff\n      and\n      0xd8138f8a3f377c5259ca548e70e4c2de94f129f5a11036a15b69513cba2b426a\n        /* \"atta-movies/PopcornClaimer.sol\":4432:4455  availableUnclaimedToken */\n      0x03\n        /* \"atta-movies/PopcornClaimer.sol\":4432:4461  availableUnclaimedToken[user] */\n      0x00\n        /* \"atta-movies/PopcornClaimer.sol\":4456:4460  user */\n      dup5\n        /* \"atta-movies/PopcornClaimer.sol\":4432:4461  availableUnclaimedToken[user] */\n      0xffffffffffffffffffffffffffffffffffffffff\n      and\n      0xffffffffffffffffffffffffffffffffffffffff\n      and\n      dup2\n      mstore\n      0x20\n      add\n      swap1\n      dup2\n      mstore\n      0x20\n      add\n      0x00\n      keccak256\n      sload\n        /* \"atta-movies/PopcornClaimer.sol\":4418:4462  Claimed(user, availableUnclaimedToken[user]) */\n      mload(0x40)\n      tag_49\n      swap2\n      swap1\n      tag_20\n      jump\t// in\n    tag_49:\n      mload(0x40)\n      dup1\n      swap2\n      sub\n      swap1\n      log2\n        /* \"atta-movies/PopcornClaimer.sol\":4509:4510  0 */\n      0x00\n        /* \"atta-movies/PopcornClaimer.sol\":4477:4500  availableUnclaimedToken */\n      0x03\n        /* \"atta-movies/PopcornClaimer.sol\":4477:4506  availableUnclaimedToken[user] */\n      0x00\n        /* \"atta-movies/PopcornClaimer.sol\":4501:4505  user */\n      dup4\n        /* \"atta-movies/PopcornClaimer.sol\":4477:4506  availableUnclaimedToken[user] */\n      0xffffffffffffffffffffffffffffffffffffffff\n      and\n      0xffffffffffffffffffffffffffffffffffffffff\n      and\n      dup2\n      mstore\n      0x20\n      add\n      swap1\n      dup2\n      mstore\n      0x20\n      add\n      0x00\n      keccak256\n        /* \"atta-movies/PopcornClaimer.sol\":4477:4510  availableUnclaimedToken[user] = 0 */\n      dup2\n      swap1\n      sstore\n      pop\n        /* \"atta-movies/PopcornClaimer.sol\":4201:4522  if (availableUnclaimedToken[user] > 0) {\r... */\n    tag_41:\n        /* \"atta-movies/PopcornClaimer.sol\":4152:4529  function claim(address user) external {\r... */\n      pop\n      jump\t// out\n        /* \"atta-movies/PopcornClaimer.sol\":3339:3397  mapping(address => uint256) public availableUnclaimedToken */\n    tag_18:\n      mstore(0x20, 0x03)\n      dup1\n      0x00\n      mstore\n      keccak256(0x00, 0x40)\n      0x00\n      swap2\n      pop\n      swap1\n      pop\n      sload\n      dup2\n      jump\t// out\n        /* \"atta-movies/PopcornClaimer.sol\":3309:3332  address public treasury */\n    tag_22:\n      0x02\n      0x00\n      swap1\n      sload\n      swap1\n      0x0100\n      exp\n      swap1\n      div\n      0xffffffffffffffffffffffffffffffffffffffff\n      and\n      dup2\n      jump\t// out\n        /* \"atta-movies/PopcornClaimer.sol\":2635:2783  function renounceOwnership() public virtual onlyOwner {\r... */\n    tag_26:\n        /* \"atta-movies/PopcornClaimer.sol\":2215:2227  _msgSender() */\n      tag_51\n        /* \"atta-movies/PopcornClaimer.sol\":2215:2225  _msgSender */\n      tag_52\n        /* \"atta-movies/PopcornClaimer.sol\":2215:2227  _msgSender() */\n      jump\t// in\n    tag_51:\n        /* \"atta-movies/PopcornClaimer.sol\":2205:2227  _owner == _msgSender() */\n      0xffffffffffffffffffffffffffffffffffffffff\n      and\n        /* \"atta-movies/PopcornClaimer.sol\":2205:2211  _owner */\n      0x00\n      dup1\n      sload\n      swap1\n      0x0100\n      exp\n      swap1\n      div\n      0xffffffffffffffffffffffffffffffffffffffff\n      and\n        /* \"atta-movies/PopcornClaimer.sol\":2205:2227  _owner == _msgSender() */\n      0xffffffffffffffffffffffffffffffffffffffff\n      and\n      eq\n        /* \"atta-movies/PopcornClaimer.sol\":2197:2264  require(_owner == _msgSender(), \"Ownable: caller is not the owner\") */\n      tag_53\n      jumpi\n      mload(0x40)\n      0x08c379a000000000000000000000000000000000000000000000000000000000\n      dup2\n      mstore\n      0x04\n      add\n      tag_54\n      swap1\n      tag_55\n      jump\t// in\n    tag_54:\n      mload(0x40)\n      dup1\n      swap2\n      sub\n      swap1\n      revert\n    tag_53:\n        /* \"atta-movies/PopcornClaimer.sol\":2742:2743  0 */\n      0x00\n        /* \"atta-movies/PopcornClaimer.sol\":2705:2745  OwnershipTransferred(_owner, address(0)) */\n      0xffffffffffffffffffffffffffffffffffffffff\n      and\n        /* \"atta-movies/PopcornClaimer.sol\":2726:2732  _owner */\n      0x00\n      dup1\n      sload\n      swap1\n      0x0100\n      exp\n      swap1\n      div\n      0xffffffffffffffffffffffffffffffffffffffff\n      and\n        /* \"atta-movies/PopcornClaimer.sol\":2705:2745  OwnershipTransferred(_owner, address(0)) */\n      0xffffffffffffffffffffffffffffffffffffffff\n      and\n      0x8be0079c531659141344cd1fd0a4f28419497f9722a3daafe3b4186f6b6457e0\n      mload(0x40)\n      mload(0x40)\n      dup1\n      swap2\n      sub\n      swap1\n      log3\n        /* \"atta-movies/PopcornClaimer.sol\":2773:2774  0 */\n      0x00\n        /* \"atta-movies/PopcornClaimer.sol\":2756:2762  _owner */\n      dup1\n      0x00\n        /* \"atta-movies/PopcornClaimer.sol\":2756:2775  _owner = address(0) */\n      0x0100\n      exp\n      dup2\n      sload\n      dup2\n      0xffffffffffffffffffffffffffffffffffffffff\n      mul\n      not\n      and\n      swap1\n      dup4\n      0xffffffffffffffffffffffffffffffffffffffff\n      and\n      mul\n      or\n      swap1\n      sstore\n      pop\n        /* \"atta-movies/PopcornClaimer.sol\":2635:2783  function renounceOwnership() public virtual onlyOwner {\r... */\n      jump\t// out\n        /* \"atta-movies/PopcornClaimer.sol\":1993:2072  function owner() public view returns (address) {\r... */\n    tag_28:\n        /* \"atta-movies/PopcornClaimer.sol\":2031:2038  address */\n      0x00\n        /* \"atta-movies/PopcornClaimer.sol\":2058:2064  _owner */\n      dup1\n      0x00\n      swap1\n      sload\n      swap1\n      0x0100\n      exp\n      swap1\n      div\n      0xffffffffffffffffffffffffffffffffffffffff\n      and\n        /* \"atta-movies/PopcornClaimer.sol\":2051:2064  return _owner */\n      swap1\n      pop\n        /* \"atta-movies/PopcornClaimer.sol\":1993:2072  function owner() public view returns (address) {\r... */\n      swap1\n      jump\t// out\n        /* \"atta-movies/PopcornClaimer.sol\":3675:4144  function batchRelease(address[] calldata users, uint256[] calldata amounts) external onlyOwner {\r... */\n    tag_33:\n        /* \"atta-movies/PopcornClaimer.sol\":2215:2227  _msgSender() */\n      tag_59\n        /* \"atta-movies/PopcornClaimer.sol\":2215:2225  _msgSender */\n      tag_52\n        /* \"atta-movies/PopcornClaimer.sol\":2215:2227  _msgSender() */\n      jump\t// in\n    tag_59:\n        /* \"atta-movies/PopcornClaimer.sol\":2205:2227  _owner == _msgSender() */\n      0xffffffffffffffffffffffffffffffffffffffff\n      and\n        /* \"atta-movies/PopcornClaimer.sol\":2205:2211  _owner */\n      0x00\n      dup1\n      sload\n      swap1\n      0x0100\n      exp\n      swap1\n      div\n      0xffffffffffffffffffffffffffffffffffffffff\n      and\n        /* \"atta-movies/PopcornClaimer.sol\":2205:2227  _owner == _msgSender() */\n      0xffffffffffffffffffffffffffffffffffffffff\n      and\n      eq\n        /* \"atta-movies/PopcornClaimer.sol\":2197:2264  require(_owner == _msgSender(), \"Ownable: caller is not the owner\") */\n      tag_60\n      jumpi\n      mload(0x40)\n      0x08c379a000000000000000000000000000000000000000000000000000000000\n      dup2\n      mstore\n      0x04\n      add\n      tag_61\n      swap1\n      tag_55\n      jump\t// in\n    tag_61:\n      mload(0x40)\n      dup1\n      swap2\n      sub\n      swap1\n      revert\n    tag_60:\n        /* \"atta-movies/PopcornClaimer.sol\":3805:3812  amounts */\n      dup2\n      dup2\n        /* \"atta-movies/PopcornClaimer.sol\":3805:3819  amounts.length */\n      swap1\n      pop\n        /* \"atta-movies/PopcornClaimer.sol\":3789:3794  users */\n      dup5\n      dup5\n        /* \"atta-movies/PopcornClaimer.sol\":3789:3801  users.length */\n      swap1\n      pop\n        /* \"atta-movies/PopcornClaimer.sol\":3789:3819  users.length == amounts.length */\n      eq\n        /* \"atta-movies/PopcornClaimer.sol\":3781:3866  require(users.length == amounts.length, \"users and amounts array length must match.\") */\n      tag_63\n      jumpi\n      mload(0x40)\n      0x08c379a000000000000000000000000000000000000000000000000000000000\n      dup2\n      mstore\n      0x04\n      add\n      tag_64\n      swap1\n      tag_65\n      jump\t// in\n    tag_64:\n      mload(0x40)\n      dup1\n      swap2\n      sub\n      swap1\n      revert\n    tag_63:\n        /* \"atta-movies/PopcornClaimer.sol\":3882:3891  uint256 i */\n      0x00\n        /* \"atta-movies/PopcornClaimer.sol\":3877:4137  for (uint256 i = 0; i < users.length; ++i) {\r... */\n    tag_66:\n        /* \"atta-movies/PopcornClaimer.sol\":3901:3906  users */\n      dup5\n      dup5\n        /* \"atta-movies/PopcornClaimer.sol\":3901:3913  users.length */\n      swap1\n      pop\n        /* \"atta-movies/PopcornClaimer.sol\":3897:3898  i */\n      dup2\n        /* \"atta-movies/PopcornClaimer.sol\":3897:3913  i < users.length */\n      lt\n        /* \"atta-movies/PopcornClaimer.sol\":3877:4137  for (uint256 i = 0; i < users.length; ++i) {\r... */\n      iszero\n      tag_67\n      jumpi\n        /* \"atta-movies/PopcornClaimer.sol\":4066:4073  amounts */\n      dup3\n      dup3\n        /* \"atta-movies/PopcornClaimer.sol\":4074:4075  i */\n      dup3\n        /* \"atta-movies/PopcornClaimer.sol\":4066:4076  amounts[i] */\n      dup2\n      dup2\n      lt\n      tag_69\n      jumpi\n      mstore(0x00, 0x4e487b7100000000000000000000000000000000000000000000000000000000)\n      mstore(0x04, 0x32)\n      revert(0x00, 0x24)\n    tag_69:\n      swap1\n      pop\n      0x20\n      mul\n      add\n      calldataload\n        /* \"atta-movies/PopcornClaimer.sol\":4029:4052  availableUnclaimedToken */\n      0x03\n        /* \"atta-movies/PopcornClaimer.sol\":4029:4062  availableUnclaimedToken[users[i]] */\n      0x00\n        /* \"atta-movies/PopcornClaimer.sol\":4053:4058  users */\n      dup8\n      dup8\n        /* \"atta-movies/PopcornClaimer.sol\":4059:4060  i */\n      dup6\n        /* \"atta-movies/PopcornClaimer.sol\":4053:4061  users[i] */\n      dup2\n      dup2\n      lt\n      tag_70\n      jumpi\n      mstore(0x00, 0x4e487b7100000000000000000000000000000000000000000000000000000000)\n      mstore(0x04, 0x32)\n      revert(0x00, 0x24)\n    tag_70:\n      swap1\n      pop\n      0x20\n      mul\n      add\n      0x20\n      dup2\n      add\n      swap1\n      tag_71\n      swap2\n      swap1\n      tag_14\n      jump\t// in\n    tag_71:\n        /* \"atta-movies/PopcornClaimer.sol\":4029:4062  availableUnclaimedToken[users[i]] */\n      0xffffffffffffffffffffffffffffffffffffffff\n      and\n      0xffffffffffffffffffffffffffffffffffffffff\n      and\n      dup2\n      mstore\n      0x20\n      add\n      swap1\n      dup2\n      mstore\n      0x20\n      add\n      0x00\n      keccak256\n      0x00\n        /* \"atta-movies/PopcornClaimer.sol\":4029:4076  availableUnclaimedToken[users[i]] += amounts[i] */\n      dup3\n      dup3\n      sload\n      tag_72\n      swap2\n      swap1\n      tag_73\n      jump\t// in\n    tag_72:\n      swap3\n      pop\n      pop\n      dup2\n      swap1\n      sstore\n      pop\n        /* \"atta-movies/PopcornClaimer.sol\":4104:4109  users */\n      dup5\n      dup5\n        /* \"atta-movies/PopcornClaimer.sol\":4110:4111  i */\n      dup3\n        /* \"atta-movies/PopcornClaimer.sol\":4104:4112  users[i] */\n      dup2\n      dup2\n      lt\n      tag_74\n      jumpi\n      mstore(0x00, 0x4e487b7100000000000000000000000000000000000000000000000000000000)\n      mstore(0x04, 0x32)\n      revert(0x00, 0x24)\n    tag_74:\n      swap1\n      pop\n      0x20\n      mul\n      add\n      0x20\n      dup2\n      add\n      swap1\n      tag_75\n      swap2\n      swap1\n      tag_14\n      jump\t// in\n    tag_75:\n        /* \"atta-movies/PopcornClaimer.sol\":4096:4125  Release(users[i], amounts[i]) */\n      0xffffffffffffffffffffffffffffffffffffffff\n      and\n      0xf6334794522b9db534a812aaae1af828a2e96aac68473b58e36d7d0bfd67477b\n        /* \"atta-movies/PopcornClaimer.sol\":4114:4121  amounts */\n      dup5\n      dup5\n        /* \"atta-movies/PopcornClaimer.sol\":4122:4123  i */\n      dup5\n        /* \"atta-movies/PopcornClaimer.sol\":4114:4124  amounts[i] */\n      dup2\n      dup2\n      lt\n      tag_76\n      jumpi\n      mstore(0x00, 0x4e487b7100000000000000000000000000000000000000000000000000000000)\n      mstore(0x04, 0x32)\n      revert(0x00, 0x24)\n    tag_76:\n      swap1\n      pop\n      0x20\n      mul\n      add\n      calldataload\n        /* \"atta-movies/PopcornClaimer.sol\":4096:4125  Release(users[i], amounts[i]) */\n      mload(0x40)\n      tag_77\n      swap2\n      swap1\n      tag_20\n      jump\t// in\n    tag_77:\n      mload(0x40)\n      dup1\n      swap2\n      sub\n      swap1\n      log2\n        /* \"atta-movies/PopcornClaimer.sol\":3915:3918  ++i */\n      dup1\n      tag_78\n      swap1\n      tag_79\n      jump\t// in\n    tag_78:\n      swap1\n      pop\n        /* \"atta-movies/PopcornClaimer.sol\":3877:4137  for (uint256 i = 0; i < users.length; ++i) {\r... */\n      jump(tag_66)\n    tag_67:\n      pop\n        /* \"atta-movies/PopcornClaimer.sol\":3675:4144  function batchRelease(address[] calldata users, uint256[] calldata amounts) external onlyOwner {\r... */\n      pop\n      pop\n      pop\n      pop\n      jump\t// out\n        /* \"atta-movies/PopcornClaimer.sol\":4537:4635  function setTreasury(address _treasury) external onlyOwner {\r... */\n    tag_36:\n        /* \"atta-movies/PopcornClaimer.sol\":2215:2227  _msgSender() */\n      tag_81\n        /* \"atta-movies/PopcornClaimer.sol\":2215:2225  _msgSender */\n      tag_52\n        /* \"atta-movies/PopcornClaimer.sol\":2215:2227  _msgSender() */\n      jump\t// in\n    tag_81:\n        /* \"atta-movies/PopcornClaimer.sol\":2205:2227  _owner == _msgSender() */\n      0xffffffffffffffffffffffffffffffffffffffff\n      and\n        /* \"atta-movies/PopcornClaimer.sol\":2205:2211  _owner */\n      0x00\n      dup1\n      sload\n      swap1\n      0x0100\n      exp\n      swap1\n      div\n      0xffffffffffffffffffffffffffffffffffffffff\n      and\n        /* \"atta-movies/PopcornClaimer.sol\":2205:2227  _owner == _msgSender() */\n      0xffffffffffffffffffffffffffffffffffffffff\n      and\n      eq\n        /* \"atta-movies/PopcornClaimer.sol\":2197:2264  require(_owner == _msgSender(), \"Ownable: caller is not the owner\") */\n      tag_82\n      jumpi\n      mload(0x40)\n      0x08c379a000000000000000000000000000000000000000000000000000000000\n      dup2\n      mstore\n      0x04\n      add\n      tag_83\n      swap1\n      tag_55\n      jump\t// in\n    tag_83:\n      mload(0x40)\n      dup1\n      swap2\n      sub\n      swap1\n      revert\n    tag_82:\n        /* \"atta-movies/PopcornClaimer.sol\":4618:4627  _treasury */\n      dup1\n        /* \"atta-movies/PopcornClaimer.sol\":4607:4615  treasury */\n      0x02\n      0x00\n        /* \"atta-movies/PopcornClaimer.sol\":4607:4627  treasury = _treasury */\n      0x0100\n      exp\n      dup2\n      sload\n      dup2\n      0xffffffffffffffffffffffffffffffffffffffff\n      mul\n      not\n      and\n      swap1\n      dup4\n      0xffffffffffffffffffffffffffffffffffffffff\n      and\n      mul\n      or\n      swap1\n      sstore\n      pop\n        /* \"atta-movies/PopcornClaimer.sol\":4537:4635  function setTreasury(address _treasury) external onlyOwner {\r... */\n      pop\n      jump\t// out\n        /* \"atta-movies/PopcornClaimer.sol\":2938:3182  function transferOwnership(address newOwner) public virtual onlyOwner {\r... */\n    tag_39:\n        /* \"atta-movies/PopcornClaimer.sol\":2215:2227  _msgSender() */\n      tag_86\n        /* \"atta-movies/PopcornClaimer.sol\":2215:2225  _msgSender */\n      tag_52\n        /* \"atta-movies/PopcornClaimer.sol\":2215:2227  _msgSender() */\n      jump\t// in\n    tag_86:\n        /* \"atta-movies/PopcornClaimer.sol\":2205:2227  _owner == _msgSender() */\n      0xffffffffffffffffffffffffffffffffffffffff\n      and\n        /* \"atta-movies/PopcornClaimer.sol\":2205:2211  _owner */\n      0x00\n      dup1\n      sload\n      swap1\n      0x0100\n      exp\n      swap1\n      div\n      0xffffffffffffffffffffffffffffffffffffffff\n      and\n        /* \"atta-movies/PopcornClaimer.sol\":2205:2227  _owner == _msgSender() */\n      0xffffffffffffffffffffffffffffffffffffffff\n      and\n      eq\n        /* \"atta-movies/PopcornClaimer.sol\":2197:2264  require(_owner == _msgSender(), \"Ownable: caller is not the owner\") */\n      tag_87\n      jumpi\n      mload(0x40)\n      0x08c379a000000000000000000000000000000000000000000000000000000000\n      dup2\n      mstore\n      0x04\n      add\n      tag_88\n      swap1\n      tag_55\n      jump\t// in\n    tag_88:\n      mload(0x40)\n      dup1\n      swap2\n      sub\n      swap1\n      revert\n    tag_87:\n        /* \"atta-movies/PopcornClaimer.sol\":3047:3048  0 */\n      0x00\n        /* \"atta-movies/PopcornClaimer.sol\":3027:3049  newOwner != address(0) */\n      0xffffffffffffffffffffffffffffffffffffffff\n      and\n        /* \"atta-movies/PopcornClaimer.sol\":3027:3035  newOwner */\n      dup2\n        /* \"atta-movies/PopcornClaimer.sol\":3027:3049  newOwner != address(0) */\n      0xffffffffffffffffffffffffffffffffffffffff\n      and\n      eq\n      iszero\n        /* \"atta-movies/PopcornClaimer.sol\":3019:3092  require(newOwner != address(0), \"Ownable: new owner is the zero address\") */\n      tag_90\n      jumpi\n      mload(0x40)\n      0x08c379a000000000000000000000000000000000000000000000000000000000\n      dup2\n      mstore\n      0x04\n      add\n      tag_91\n      swap1\n      tag_92\n      jump\t// in\n    tag_91:\n      mload(0x40)\n      dup1\n      swap2\n      sub\n      swap1\n      revert\n    tag_90:\n        /* \"atta-movies/PopcornClaimer.sol\":3137:3145  newOwner */\n      dup1\n        /* \"atta-movies/PopcornClaimer.sol\":3108:3146  OwnershipTransferred(_owner, newOwner) */\n      0xffffffffffffffffffffffffffffffffffffffff\n      and\n        /* \"atta-movies/PopcornClaimer.sol\":3129:3135  _owner */\n      0x00\n      dup1\n      sload\n      swap1\n      0x0100\n      exp\n      swap1\n      div\n      0xffffffffffffffffffffffffffffffffffffffff\n      and\n        /* \"atta-movies/PopcornClaimer.sol\":3108:3146  OwnershipTransferred(_owner, newOwner) */\n      0xffffffffffffffffffffffffffffffffffffffff\n      and\n      0x8be0079c531659141344cd1fd0a4f28419497f9722a3daafe3b4186f6b6457e0\n      mload(0x40)\n      mload(0x40)\n      dup1\n      swap2\n      sub\n      swap1\n      log3\n        /* \"atta-movies/PopcornClaimer.sol\":3166:3174  newOwner */\n      dup1\n        /* \"atta-movies/PopcornClaimer.sol\":3157:3163  _owner */\n      0x00\n      dup1\n        /* \"atta-movies/PopcornClaimer.sol\":3157:3174  _owner = newOwner */\n      0x0100\n      exp\n      dup2\n      sload\n      dup2\n      0xffffffffffffffffffffffffffffffffffffffff\n      mul\n      not\n      and\n      swap1\n      dup4\n      0xffffffffffffffffffffffffffffffffffffffff\n      and\n      mul\n      or\n      swap1\n      sstore\n      pop\n        /* \"atta-movies/PopcornClaimer.sol\":2938:3182  function transferOwnership(address newOwner) public virtual onlyOwner {\r... */\n      pop\n      jump\t// out\n        /* \"atta-movies/PopcornClaimer.sol\":771:869  function _msgSender() internal view virtual returns (address) {\r... */\n    tag_52:\n        /* \"atta-movies/PopcornClaimer.sol\":824:831  address */\n      0x00\n        /* \"atta-movies/PopcornClaimer.sol\":851:861  msg.sender */\n      caller\n        /* \"atta-movies/PopcornClaimer.sol\":844:861  return msg.sender */\n      swap1\n      pop\n        /* \"atta-movies/PopcornClaimer.sol\":771:869  function _msgSender() internal view virtual returns (address) {\r... */\n      swap1\n      jump\t// out\n        /* \"#utility.yul\":7:146   */\n    tag_95:\n      0x00\n        /* \"#utility.yul\":91:97   */\n      dup2\n        /* \"#utility.yul\":78:98   */\n      calldataload\n        /* \"#utility.yul\":69:98   */\n      swap1\n      pop\n        /* \"#utility.yul\":107:140   */\n      tag_97\n        /* \"#utility.yul\":134:139   */\n      dup2\n        /* \"#utility.yul\":107:140   */\n      tag_98\n      jump\t// in\n    tag_97:\n        /* \"#utility.yul\":59:146   */\n      swap3\n      swap2\n      pop\n      pop\n      jump\t// out\n        /* \"#utility.yul\":169:536   */\n    tag_99:\n      0x00\n      dup1\n        /* \"#utility.yul\":302:305   */\n      dup4\n        /* \"#utility.yul\":295:299   */\n      0x1f\n        /* \"#utility.yul\":287:293   */\n      dup5\n        /* \"#utility.yul\":283:300   */\n      add\n        /* \"#utility.yul\":279:306   */\n      slt\n        /* \"#utility.yul\":269:271   */\n      tag_101\n      jumpi\n        /* \"#utility.yul\":320:321   */\n      0x00\n        /* \"#utility.yul\":317:318   */\n      dup1\n        /* \"#utility.yul\":310:322   */\n      revert\n        /* \"#utility.yul\":269:271   */\n    tag_101:\n        /* \"#utility.yul\":356:362   */\n      dup3\n        /* \"#utility.yul\":343:363   */\n      calldataload\n        /* \"#utility.yul\":333:363   */\n      swap1\n      pop\n        /* \"#utility.yul\":386:404   */\n      0xffffffffffffffff\n        /* \"#utility.yul\":378:384   */\n      dup2\n        /* \"#utility.yul\":375:405   */\n      gt\n        /* \"#utility.yul\":372:374   */\n      iszero\n      tag_102\n      jumpi\n        /* \"#utility.yul\":418:419   */\n      0x00\n        /* \"#utility.yul\":415:416   */\n      dup1\n        /* \"#utility.yul\":408:420   */\n      revert\n        /* \"#utility.yul\":372:374   */\n    tag_102:\n        /* \"#utility.yul\":455:459   */\n      0x20\n        /* \"#utility.yul\":447:453   */\n      dup4\n        /* \"#utility.yul\":443:460   */\n      add\n        /* \"#utility.yul\":431:460   */\n      swap2\n      pop\n        /* \"#utility.yul\":509:512   */\n      dup4\n        /* \"#utility.yul\":501:505   */\n      0x20\n        /* \"#utility.yul\":493:499   */\n      dup3\n        /* \"#utility.yul\":489:506   */\n      mul\n        /* \"#utility.yul\":479:487   */\n      dup4\n        /* \"#utility.yul\":475:507   */\n      add\n        /* \"#utility.yul\":472:513   */\n      gt\n        /* \"#utility.yul\":469:471   */\n      iszero\n      tag_103\n      jumpi\n        /* \"#utility.yul\":526:527   */\n      0x00\n        /* \"#utility.yul\":523:524   */\n      dup1\n        /* \"#utility.yul\":516:528   */\n      revert\n        /* \"#utility.yul\":469:471   */\n    tag_103:\n        /* \"#utility.yul\":259:536   */\n      swap3\n      pop\n      swap3\n      swap1\n      pop\n      jump\t// out\n        /* \"#utility.yul\":559:926   */\n    tag_104:\n      0x00\n      dup1\n        /* \"#utility.yul\":692:695   */\n      dup4\n        /* \"#utility.yul\":685:689   */\n      0x1f\n        /* \"#utility.yul\":677:683   */\n      dup5\n        /* \"#utility.yul\":673:690   */\n      add\n        /* \"#utility.yul\":669:696   */\n      slt\n        /* \"#utility.yul\":659:661   */\n      tag_106\n      jumpi\n        /* \"#utility.yul\":710:711   */\n      0x00\n        /* \"#utility.yul\":707:708   */\n      dup1\n        /* \"#utility.yul\":700:712   */\n      revert\n        /* \"#utility.yul\":659:661   */\n    tag_106:\n        /* \"#utility.yul\":746:752   */\n      dup3\n        /* \"#utility.yul\":733:753   */\n      calldataload\n        /* \"#utility.yul\":723:753   */\n      swap1\n      pop\n        /* \"#utility.yul\":776:794   */\n      0xffffffffffffffff\n        /* \"#utility.yul\":768:774   */\n      dup2\n        /* \"#utility.yul\":765:795   */\n      gt\n        /* \"#utility.yul\":762:764   */\n      iszero\n      tag_107\n      jumpi\n        /* \"#utility.yul\":808:809   */\n      0x00\n        /* \"#utility.yul\":805:806   */\n      dup1\n        /* \"#utility.yul\":798:810   */\n      revert\n        /* \"#utility.yul\":762:764   */\n    tag_107:\n        /* \"#utility.yul\":845:849   */\n      0x20\n        /* \"#utility.yul\":837:843   */\n      dup4\n        /* \"#utility.yul\":833:850   */\n      add\n        /* \"#utility.yul\":821:850   */\n      swap2\n      pop\n        /* \"#utility.yul\":899:902   */\n      dup4\n        /* \"#utility.yul\":891:895   */\n      0x20\n        /* \"#utility.yul\":883:889   */\n      dup3\n        /* \"#utility.yul\":879:896   */\n      mul\n        /* \"#utility.yul\":869:877   */\n      dup4\n        /* \"#utility.yul\":865:897   */\n      add\n        /* \"#utility.yul\":862:903   */\n      gt\n        /* \"#utility.yul\":859:861   */\n      iszero\n      tag_108\n      jumpi\n        /* \"#utility.yul\":916:917   */\n      0x00\n        /* \"#utility.yul\":913:914   */\n      dup1\n        /* \"#utility.yul\":906:918   */\n      revert\n        /* \"#utility.yul\":859:861   */\n    tag_108:\n        /* \"#utility.yul\":649:926   */\n      swap3\n      pop\n      swap3\n      swap1\n      pop\n      jump\t// out\n        /* \"#utility.yul\":932:1069   */\n    tag_109:\n      0x00\n        /* \"#utility.yul\":1017:1023   */\n      dup2\n        /* \"#utility.yul\":1011:1024   */\n      mload\n        /* \"#utility.yul\":1002:1024   */\n      swap1\n      pop\n        /* \"#utility.yul\":1033:1063   */\n      tag_111\n        /* \"#utility.yul\":1057:1062   */\n      dup2\n        /* \"#utility.yul\":1033:1063   */\n      tag_112\n      jump\t// in\n    tag_111:\n        /* \"#utility.yul\":992:1069   */\n      swap3\n      swap2\n      pop\n      pop\n      jump\t// out\n        /* \"#utility.yul\":1075:1337   */\n    tag_14:\n      0x00\n        /* \"#utility.yul\":1183:1185   */\n      0x20\n        /* \"#utility.yul\":1171:1180   */\n      dup3\n        /* \"#utility.yul\":1162:1169   */\n      dup5\n        /* \"#utility.yul\":1158:1181   */\n      sub\n        /* \"#utility.yul\":1154:1186   */\n      slt\n        /* \"#utility.yul\":1151:1153   */\n      iszero\n      tag_114\n      jumpi\n        /* \"#utility.yul\":1199:1200   */\n      0x00\n        /* \"#utility.yul\":1196:1197   */\n      dup1\n        /* \"#utility.yul\":1189:1201   */\n      revert\n        /* \"#utility.yul\":1151:1153   */\n    tag_114:\n        /* \"#utility.yul\":1242:1243   */\n      0x00\n        /* \"#utility.yul\":1267:1320   */\n      tag_115\n        /* \"#utility.yul\":1312:1319   */\n      dup5\n        /* \"#utility.yul\":1303:1309   */\n      dup3\n        /* \"#utility.yul\":1292:1301   */\n      dup6\n        /* \"#utility.yul\":1288:1310   */\n      add\n        /* \"#utility.yul\":1267:1320   */\n      tag_95\n      jump\t// in\n    tag_115:\n        /* \"#utility.yul\":1257:1320   */\n      swap2\n      pop\n        /* \"#utility.yul\":1213:1330   */\n      pop\n        /* \"#utility.yul\":1141:1337   */\n      swap3\n      swap2\n      pop\n      pop\n      jump\t// out\n        /* \"#utility.yul\":1343:2076   */\n    tag_32:\n      0x00\n      dup1\n      0x00\n      dup1\n        /* \"#utility.yul\":1538:1540   */\n      0x40\n        /* \"#utility.yul\":1526:1535   */\n      dup6\n        /* \"#utility.yul\":1517:1524   */\n      dup8\n        /* \"#utility.yul\":1513:1536   */\n      sub\n        /* \"#utility.yul\":1509:1541   */\n      slt\n        /* \"#utility.yul\":1506:1508   */\n      iszero\n      tag_117\n      jumpi\n        /* \"#utility.yul\":1554:1555   */\n      0x00\n        /* \"#utility.yul\":1551:1552   */\n      dup1\n        /* \"#utility.yul\":1544:1556   */\n      revert\n        /* \"#utility.yul\":1506:1508   */\n    tag_117:\n        /* \"#utility.yul\":1625:1626   */\n      0x00\n        /* \"#utility.yul\":1614:1623   */\n      dup6\n        /* \"#utility.yul\":1610:1627   */\n      add\n        /* \"#utility.yul\":1597:1628   */\n      calldataload\n        /* \"#utility.yul\":1655:1673   */\n      0xffffffffffffffff\n        /* \"#utility.yul\":1647:1653   */\n      dup2\n        /* \"#utility.yul\":1644:1674   */\n      gt\n        /* \"#utility.yul\":1641:1643   */\n      iszero\n      tag_118\n      jumpi\n        /* \"#utility.yul\":1687:1688   */\n      0x00\n        /* \"#utility.yul\":1684:1685   */\n      dup1\n        /* \"#utility.yul\":1677:1689   */\n      revert\n        /* \"#utility.yul\":1641:1643   */\n    tag_118:\n        /* \"#utility.yul\":1723:1803   */\n      tag_119\n        /* \"#utility.yul\":1795:1802   */\n      dup8\n        /* \"#utility.yul\":1786:1792   */\n      dup3\n        /* \"#utility.yul\":1775:1784   */\n      dup9\n        /* \"#utility.yul\":1771:1793   */\n      add\n        /* \"#utility.yul\":1723:1803   */\n      tag_99\n      jump\t// in\n    tag_119:\n        /* \"#utility.yul\":1705:1803   */\n      swap5\n      pop\n      swap5\n      pop\n        /* \"#utility.yul\":1568:1813   */\n      pop\n        /* \"#utility.yul\":1880:1882   */\n      0x20\n        /* \"#utility.yul\":1869:1878   */\n      dup6\n        /* \"#utility.yul\":1865:1883   */\n      add\n        /* \"#utility.yul\":1852:1884   */\n      calldataload\n        /* \"#utility.yul\":1911:1929   */\n      0xffffffffffffffff\n        /* \"#utility.yul\":1903:1909   */\n      dup2\n        /* \"#utility.yul\":1900:1930   */\n      gt\n        /* \"#utility.yul\":1897:1899   */\n      iszero\n      tag_120\n      jumpi\n        /* \"#utility.yul\":1943:1944   */\n      0x00\n        /* \"#utility.yul\":1940:1941   */\n      dup1\n        /* \"#utility.yul\":1933:1945   */\n      revert\n        /* \"#utility.yul\":1897:1899   */\n    tag_120:\n        /* \"#utility.yul\":1979:2059   */\n      tag_121\n        /* \"#utility.yul\":2051:2058   */\n      dup8\n        /* \"#utility.yul\":2042:2048   */\n      dup3\n        /* \"#utility.yul\":2031:2040   */\n      dup9\n        /* \"#utility.yul\":2027:2049   */\n      add\n        /* \"#utility.yul\":1979:2059   */\n      tag_104\n      jump\t// in\n    tag_121:\n        /* \"#utility.yul\":1961:2059   */\n      swap3\n      pop\n      swap3\n      pop\n        /* \"#utility.yul\":1823:2069   */\n      pop\n        /* \"#utility.yul\":1496:2076   */\n      swap3\n      swap6\n      swap2\n      swap5\n      pop\n      swap3\n      pop\n      jump\t// out\n        /* \"#utility.yul\":2082:2360   */\n    tag_48:\n      0x00\n        /* \"#utility.yul\":2198:2200   */\n      0x20\n        /* \"#utility.yul\":2186:2195   */\n      dup3\n        /* \"#utility.yul\":2177:2184   */\n      dup5\n        /* \"#utility.yul\":2173:2196   */\n      sub\n        /* \"#utility.yul\":2169:2201   */\n      slt\n        /* \"#utility.yul\":2166:2168   */\n      iszero\n      tag_123\n      jumpi\n        /* \"#utility.yul\":2214:2215   */\n      0x00\n        /* \"#utility.yul\":2211:2212   */\n      dup1\n        /* \"#utility.yul\":2204:2216   */\n      revert\n        /* \"#utility.yul\":2166:2168   */\n    tag_123:\n        /* \"#utility.yul\":2257:2258   */\n      0x00\n        /* \"#utility.yul\":2282:2343   */\n      tag_124\n        /* \"#utility.yul\":2335:2342   */\n      dup5\n        /* \"#utility.yul\":2326:2332   */\n      dup3\n        /* \"#utility.yul\":2315:2324   */\n      dup6\n        /* \"#utility.yul\":2311:2333   */\n      add\n        /* \"#utility.yul\":2282:2343   */\n      tag_109\n      jump\t// in\n    tag_124:\n        /* \"#utility.yul\":2272:2343   */\n      swap2\n      pop\n        /* \"#utility.yul\":2228:2353   */\n      pop\n        /* \"#utility.yul\":2156:2360   */\n      swap3\n      swap2\n      pop\n      pop\n      jump\t// out\n        /* \"#utility.yul\":2366:2484   */\n    tag_125:\n        /* \"#utility.yul\":2453:2477   */\n      tag_127\n        /* \"#utility.yul\":2471:2476   */\n      dup2\n        /* \"#utility.yul\":2453:2477   */\n      tag_128\n      jump\t// in\n    tag_127:\n        /* \"#utility.yul\":2448:2451   */\n      dup3\n        /* \"#utility.yul\":2441:2478   */\n      mstore\n        /* \"#utility.yul\":2431:2484   */\n      pop\n      pop\n      jump\t// out\n        /* \"#utility.yul\":2490:2860   */\n    tag_129:\n      0x00\n        /* \"#utility.yul\":2653:2720   */\n      tag_131\n        /* \"#utility.yul\":2717:2719   */\n      0x26\n        /* \"#utility.yul\":2712:2715   */\n      dup4\n        /* \"#utility.yul\":2653:2720   */\n      tag_132\n      jump\t// in\n    tag_131:\n        /* \"#utility.yul\":2646:2720   */\n      swap2\n      pop\n        /* \"#utility.yul\":2750:2784   */\n      0x4f776e61626c653a206e6577206f776e657220697320746865207a65726f2061\n        /* \"#utility.yul\":2746:2747   */\n      0x00\n        /* \"#utility.yul\":2741:2744   */\n      dup4\n        /* \"#utility.yul\":2737:2748   */\n      add\n        /* \"#utility.yul\":2730:2785   */\n      mstore\n        /* \"#utility.yul\":2816:2824   */\n      0x6464726573730000000000000000000000000000000000000000000000000000\n        /* \"#utility.yul\":2811:2813   */\n      0x20\n        /* \"#utility.yul\":2806:2809   */\n      dup4\n        /* \"#utility.yul\":2802:2814   */\n      add\n        /* \"#utility.yul\":2795:2825   */\n      mstore\n        /* \"#utility.yul\":2851:2853   */\n      0x40\n        /* \"#utility.yul\":2846:2849   */\n      dup3\n        /* \"#utility.yul\":2842:2854   */\n      add\n        /* \"#utility.yul\":2835:2854   */\n      swap1\n      pop\n        /* \"#utility.yul\":2636:2860   */\n      swap2\n      swap1\n      pop\n      jump\t// out\n        /* \"#utility.yul\":2866:3196   */\n    tag_133:\n      0x00\n        /* \"#utility.yul\":3029:3096   */\n      tag_135\n        /* \"#utility.yul\":3093:3095   */\n      0x20\n        /* \"#utility.yul\":3088:3091   */\n      dup4\n        /* \"#utility.yul\":3029:3096   */\n      tag_132\n      jump\t// in\n    tag_135:\n        /* \"#utility.yul\":3022:3096   */\n      swap2\n      pop\n        /* \"#utility.yul\":3126:3160   */\n      0x4f776e61626c653a2063616c6c6572206973206e6f7420746865206f776e6572\n        /* \"#utility.yul\":3122:3123   */\n      0x00\n        /* \"#utility.yul\":3117:3120   */\n      dup4\n        /* \"#utility.yul\":3113:3124   */\n      add\n        /* \"#utility.yul\":3106:3161   */\n      mstore\n        /* \"#utility.yul\":3187:3189   */\n      0x20\n        /* \"#utility.yul\":3182:3185   */\n      dup3\n        /* \"#utility.yul\":3178:3190   */\n      add\n        /* \"#utility.yul\":3171:3190   */\n      swap1\n      pop\n        /* \"#utility.yul\":3012:3196   */\n      swap2\n      swap1\n      pop\n      jump\t// out\n        /* \"#utility.yul\":3202:3576   */\n    tag_136:\n      0x00\n        /* \"#utility.yul\":3365:3432   */\n      tag_138\n        /* \"#utility.yul\":3429:3431   */\n      0x2a\n        /* \"#utility.yul\":3424:3427   */\n      dup4\n        /* \"#utility.yul\":3365:3432   */\n      tag_132\n      jump\t// in\n    tag_138:\n        /* \"#utility.yul\":3358:3432   */\n      swap2\n      pop\n        /* \"#utility.yul\":3462:3496   */\n      0x757365727320616e6420616d6f756e7473206172726179206c656e677468206d\n        /* \"#utility.yul\":3458:3459   */\n      0x00\n        /* \"#utility.yul\":3453:3456   */\n      dup4\n        /* \"#utility.yul\":3449:3460   */\n      add\n        /* \"#utility.yul\":3442:3497   */\n      mstore\n        /* \"#utility.yul\":3528:3540   */\n      0x757374206d617463682e00000000000000000000000000000000000000000000\n        /* \"#utility.yul\":3523:3525   */\n      0x20\n        /* \"#utility.yul\":3518:3521   */\n      dup4\n        /* \"#utility.yul\":3514:3526   */\n      add\n        /* \"#utility.yul\":3507:3541   */\n      mstore\n        /* \"#utility.yul\":3567:3569   */\n      0x40\n        /* \"#utility.yul\":3562:3565   */\n      dup3\n        /* \"#utility.yul\":3558:3570   */\n      add\n        /* \"#utility.yul\":3551:3570   */\n      swap1\n      pop\n        /* \"#utility.yul\":3348:3576   */\n      swap2\n      swap1\n      pop\n      jump\t// out\n        /* \"#utility.yul\":3582:3700   */\n    tag_139:\n        /* \"#utility.yul\":3669:3693   */\n      tag_141\n        /* \"#utility.yul\":3687:3692   */\n      dup2\n        /* \"#utility.yul\":3669:3693   */\n      tag_142\n      jump\t// in\n    tag_141:\n        /* \"#utility.yul\":3664:3667   */\n      dup3\n        /* \"#utility.yul\":3657:3694   */\n      mstore\n        /* \"#utility.yul\":3647:3700   */\n      pop\n      pop\n      jump\t// out\n        /* \"#utility.yul\":3706:3928   */\n    tag_24:\n      0x00\n        /* \"#utility.yul\":3837:3839   */\n      0x20\n        /* \"#utility.yul\":3826:3835   */\n      dup3\n        /* \"#utility.yul\":3822:3840   */\n      add\n        /* \"#utility.yul\":3814:3840   */\n      swap1\n      pop\n        /* \"#utility.yul\":3850:3921   */\n      tag_144\n        /* \"#utility.yul\":3918:3919   */\n      0x00\n        /* \"#utility.yul\":3907:3916   */\n      dup4\n        /* \"#utility.yul\":3903:3920   */\n      add\n        /* \"#utility.yul\":3894:3900   */\n      dup5\n        /* \"#utility.yul\":3850:3921   */\n      tag_125\n      jump\t// in\n    tag_144:\n        /* \"#utility.yul\":3804:3928   */\n      swap3\n      swap2\n      pop\n      pop\n      jump\t// out\n        /* \"#utility.yul\":3934:4376   */\n    tag_43:\n      0x00\n        /* \"#utility.yul\":4121:4123   */\n      0x60\n        /* \"#utility.yul\":4110:4119   */\n      dup3\n        /* \"#utility.yul\":4106:4124   */\n      add\n        /* \"#utility.yul\":4098:4124   */\n      swap1\n      pop\n        /* \"#utility.yul\":4134:4205   */\n      tag_146\n        /* \"#utility.yul\":4202:4203   */\n      0x00\n        /* \"#utility.yul\":4191:4200   */\n      dup4\n        /* \"#utility.yul\":4187:4204   */\n      add\n        /* \"#utility.yul\":4178:4184   */\n      dup7\n        /* \"#utility.yul\":4134:4205   */\n      tag_125\n      jump\t// in\n    tag_146:\n        /* \"#utility.yul\":4215:4287   */\n      tag_147\n        /* \"#utility.yul\":4283:4285   */\n      0x20\n        /* \"#utility.yul\":4272:4281   */\n      dup4\n        /* \"#utility.yul\":4268:4286   */\n      add\n        /* \"#utility.yul\":4259:4265   */\n      dup6\n        /* \"#utility.yul\":4215:4287   */\n      tag_125\n      jump\t// in\n    tag_147:\n        /* \"#utility.yul\":4297:4369   */\n      tag_148\n        /* \"#utility.yul\":4365:4367   */\n      0x40\n        /* \"#utility.yul\":4354:4363   */\n      dup4\n        /* \"#utility.yul\":4350:4368   */\n      add\n        /* \"#utility.yul\":4341:4347   */\n      dup5\n        /* \"#utility.yul\":4297:4369   */\n      tag_139\n      jump\t// in\n    tag_148:\n        /* \"#utility.yul\":4088:4376   */\n      swap5\n      swap4\n      pop\n      pop\n      pop\n      pop\n      jump\t// out\n        /* \"#utility.yul\":4382:4801   */\n    tag_92:\n      0x00\n        /* \"#utility.yul\":4586:4588   */\n      0x20\n        /* \"#utility.yul\":4575:4584   */\n      dup3\n        /* \"#utility.yul\":4571:4589   */\n      add\n        /* \"#utility.yul\":4563:4589   */\n      swap1\n      pop\n        /* \"#utility.yul\":4635:4644   */\n      dup2\n        /* \"#utility.yul\":4629:4633   */\n      dup2\n        /* \"#utility.yul\":4625:4645   */\n      sub\n        /* \"#utility.yul\":4621:4622   */\n      0x00\n        /* \"#utility.yul\":4610:4619   */\n      dup4\n        /* \"#utility.yul\":4606:4623   */\n      add\n        /* \"#utility.yul\":4599:4646   */\n      mstore\n        /* \"#utility.yul\":4663:4794   */\n      tag_150\n        /* \"#utility.yul\":4789:4793   */\n      dup2\n        /* \"#utility.yul\":4663:4794   */\n      tag_129\n      jump\t// in\n    tag_150:\n        /* \"#utility.yul\":4655:4794   */\n      swap1\n      pop\n        /* \"#utility.yul\":4553:4801   */\n      swap2\n      swap1\n      pop\n      jump\t// out\n        /* \"#utility.yul\":4807:5226   */\n    tag_55:\n      0x00\n        /* \"#utility.yul\":5011:5013   */\n      0x20\n        /* \"#utility.yul\":5000:5009   */\n      dup3\n        /* \"#utility.yul\":4996:5014   */\n      add\n        /* \"#utility.yul\":4988:5014   */\n      swap1\n      pop\n        /* \"#utility.yul\":5060:5069   */\n      dup2\n        /* \"#utility.yul\":5054:5058   */\n      dup2\n        /* \"#utility.yul\":5050:5070   */\n      sub\n        /* \"#utility.yul\":5046:5047   */\n      0x00\n        /* \"#utility.yul\":5035:5044   */\n      dup4\n        /* \"#utility.yul\":5031:5048   */\n      add\n        /* \"#utility.yul\":5024:5071   */\n      mstore\n        /* \"#utility.yul\":5088:5219   */\n      tag_152\n        /* \"#utility.yul\":5214:5218   */\n      dup2\n        /* \"#utility.yul\":5088:5219   */\n      tag_133\n      jump\t// in\n    tag_152:\n        /* \"#utility.yul\":5080:5219   */\n      swap1\n      pop\n        /* \"#utility.yul\":4978:5226   */\n      swap2\n      swap1\n      pop\n      jump\t// out\n        /* \"#utility.yul\":5232:5651   */\n    tag_65:\n      0x00\n        /* \"#utility.yul\":5436:5438   */\n      0x20\n        /* \"#utility.yul\":5425:5434   */\n      dup3\n        /* \"#utility.yul\":5421:5439   */\n      add\n        /* \"#utility.yul\":5413:5439   */\n      swap1\n      pop\n        /* \"#utility.yul\":5485:5494   */\n      dup2\n        /* \"#utility.yul\":5479:5483   */\n      dup2\n        /* \"#utility.yul\":5475:5495   */\n      sub\n        /* \"#utility.yul\":5471:5472   */\n      0x00\n        /* \"#utility.yul\":5460:5469   */\n      dup4\n        /* \"#utility.yul\":5456:5473   */\n      add\n        /* \"#utility.yul\":5449:5496   */\n      mstore\n        /* \"#utility.yul\":5513:5644   */\n      tag_154\n        /* \"#utility.yul\":5639:5643   */\n      dup2\n        /* \"#utility.yul\":5513:5644   */\n      tag_136\n      jump\t// in\n    tag_154:\n        /* \"#utility.yul\":5505:5644   */\n      swap1\n      pop\n        /* \"#utility.yul\":5403:5651   */\n      swap2\n      swap1\n      pop\n      jump\t// out\n        /* \"#utility.yul\":5657:5879   */\n    tag_20:\n      0x00\n        /* \"#utility.yul\":5788:5790   */\n      0x20\n        /* \"#utility.yul\":5777:5786   */\n      dup3\n        /* \"#utility.yul\":5773:5791   */\n      add\n        /* \"#utility.yul\":5765:5791   */\n      swap1\n      pop\n        /* \"#utility.yul\":5801:5872   */\n      tag_156\n        /* \"#utility.yul\":5869:5870   */\n      0x00\n        /* \"#utility.yul\":5858:5867   */\n      dup4\n        /* \"#utility.yul\":5854:5871   */\n      add\n        /* \"#utility.yul\":5845:5851   */\n      dup5\n        /* \"#utility.yul\":5801:5872   */\n      tag_139\n      jump\t// in\n    tag_156:\n        /* \"#utility.yul\":5755:5879   */\n      swap3\n      swap2\n      pop\n      pop\n      jump\t// out\n        /* \"#utility.yul\":5885:6054   */\n    tag_132:\n      0x00\n        /* \"#utility.yul\":6003:6009   */\n      dup3\n        /* \"#utility.yul\":5998:6001   */\n      dup3\n        /* \"#utility.yul\":5991:6010   */\n      mstore\n        /* \"#utility.yul\":6043:6047   */\n      0x20\n        /* \"#utility.yul\":6038:6041   */\n      dup3\n        /* \"#utility.yul\":6034:6048   */\n      add\n        /* \"#utility.yul\":6019:6048   */\n      swap1\n      pop\n        /* \"#utility.yul\":5981:6054   */\n      swap3\n      swap2\n      pop\n      pop\n      jump\t// out\n        /* \"#utility.yul\":6060:6365   */\n    tag_73:\n      0x00\n        /* \"#utility.yul\":6119:6139   */\n      tag_159\n        /* \"#utility.yul\":6137:6138   */\n      dup3\n        /* \"#utility.yul\":6119:6139   */\n      tag_142\n      jump\t// in\n    tag_159:\n        /* \"#utility.yul\":6114:6139   */\n      swap2\n      pop\n        /* \"#utility.yul\":6153:6173   */\n      tag_160\n        /* \"#utility.yul\":6171:6172   */\n      dup4\n        /* \"#utility.yul\":6153:6173   */\n      tag_142\n      jump\t// in\n    tag_160:\n        /* \"#utility.yul\":6148:6173   */\n      swap3\n      pop\n        /* \"#utility.yul\":6307:6308   */\n      dup3\n        /* \"#utility.yul\":6239:6305   */\n      0xffffffffffffffffffffffffffffffffffffffffffffffffffffffffffffffff\n        /* \"#utility.yul\":6235:6309   */\n      sub\n        /* \"#utility.yul\":6232:6233   */\n      dup3\n        /* \"#utility.yul\":6229:6310   */\n      gt\n        /* \"#utility.yul\":6226:6228   */\n      iszero\n      tag_161\n      jumpi\n        /* \"#utility.yul\":6313:6331   */\n      tag_162\n      tag_163\n      jump\t// in\n    tag_162:\n        /* \"#utility.yul\":6226:6228   */\n    tag_161:\n        /* \"#utility.yul\":6357:6358   */\n      dup3\n        /* \"#utility.yul\":6354:6355   */\n      dup3\n        /* \"#utility.yul\":6350:6359   */\n      add\n        /* \"#utility.yul\":6343:6359   */\n      swap1\n      pop\n        /* \"#utility.yul\":6104:6365   */\n      swap3\n      swap2\n      pop\n      pop\n      jump\t// out\n        /* \"#utility.yul\":6371:6467   */\n    tag_128:\n      0x00\n        /* \"#utility.yul\":6437:6461   */\n      tag_165\n        /* \"#utility.yul\":6455:6460   */\n      dup3\n        /* \"#utility.yul\":6437:6461   */\n      tag_166\n      jump\t// in\n    tag_165:\n        /* \"#utility.yul\":6426:6461   */\n      swap1\n      pop\n        /* \"#utility.yul\":6416:6467   */\n      swap2\n      swap1\n      pop\n      jump\t// out\n        /* \"#utility.yul\":6473:6563   */\n    tag_167:\n      0x00\n        /* \"#utility.yul\":6550:6555   */\n      dup2\n        /* \"#utility.yul\":6543:6556   */\n      iszero\n        /* \"#utility.yul\":6536:6557   */\n      iszero\n        /* \"#utility.yul\":6525:6557   */\n      swap1\n      pop\n        /* \"#utility.yul\":6515:6563   */\n      swap2\n      swap1\n      pop\n      jump\t// out\n        /* \"#utility.yul\":6569:6695   */\n    tag_166:\n      0x00\n        /* \"#utility.yul\":6646:6688   */\n      0xffffffffffffffffffffffffffffffffffffffff\n        /* \"#utility.yul\":6639:6644   */\n      dup3\n        /* \"#utility.yul\":6635:6689   */\n      and\n        /* \"#utility.yul\":6624:6689   */\n      swap1\n      pop\n        /* \"#utility.yul\":6614:6695   */\n      swap2\n      swap1\n      pop\n      jump\t// out\n        /* \"#utility.yul\":6701:6778   */\n    tag_142:\n      0x00\n        /* \"#utility.yul\":6767:6772   */\n      dup2\n        /* \"#utility.yul\":6756:6772   */\n      swap1\n      pop\n        /* \"#utility.yul\":6746:6778   */\n      swap2\n      swap1\n      pop\n      jump\t// out\n        /* \"#utility.yul\":6784:7017   */\n    tag_79:\n      0x00\n        /* \"#utility.yul\":6846:6870   */\n      tag_172\n        /* \"#utility.yul\":6864:6869   */\n      dup3\n        /* \"#utility.yul\":6846:6870   */\n      tag_142\n      jump\t// in\n    tag_172:\n        /* \"#utility.yul\":6837:6870   */\n      swap2\n      pop\n        /* \"#utility.yul\":6892:6958   */\n      0xffffffffffffffffffffffffffffffffffffffffffffffffffffffffffffffff\n        /* \"#utility.yul\":6885:6890   */\n      dup3\n        /* \"#utility.yul\":6882:6959   */\n      eq\n        /* \"#utility.yul\":6879:6881   */\n      iszero\n      tag_173\n      jumpi\n        /* \"#utility.yul\":6962:6980   */\n      tag_174\n      tag_163\n      jump\t// in\n    tag_174:\n        /* \"#utility.yul\":6879:6881   */\n    tag_173:\n        /* \"#utility.yul\":7009:7010   */\n      0x01\n        /* \"#utility.yul\":7002:7007   */\n      dup3\n        /* \"#utility.yul\":6998:7011   */\n      add\n        /* \"#utility.yul\":6991:7011   */\n      swap1\n      pop\n        /* \"#utility.yul\":6827:7017   */\n      swap2\n      swap1\n      pop\n      jump\t// out\n        /* \"#utility.yul\":7023:7203   */\n    tag_163:\n        /* \"#utility.yul\":7071:7148   */\n      0x4e487b7100000000000000000000000000000000000000000000000000000000\n        /* \"#utility.yul\":7068:7069   */\n      0x00\n        /* \"#utility.yul\":7061:7149   */\n      mstore\n        /* \"#utility.yul\":7168:7172   */\n      0x11\n        /* \"#utility.yul\":7165:7166   */\n      0x04\n        /* \"#utility.yul\":7158:7173   */\n      mstore\n        /* \"#utility.yul\":7192:7196   */\n      0x24\n        /* \"#utility.yul\":7189:7190   */\n      0x00\n        /* \"#utility.yul\":7182:7197   */\n      revert\n        /* \"#utility.yul\":7209:7331   */\n    tag_98:\n        /* \"#utility.yul\":7282:7306   */\n      tag_177\n        /* \"#utility.yul\":7300:7305   */\n      dup2\n        /* \"#utility.yul\":7282:7306   */\n      tag_128\n      jump\t// in\n    tag_177:\n        /* \"#utility.yul\":7275:7280   */\n      dup2\n        /* \"#utility.yul\":7272:7307   */\n      eq\n        /* \"#utility.yul\":7262:7264   */\n      tag_178\n      jumpi\n        /* \"#utility.yul\":7321:7322   */\n      0x00\n        /* \"#utility.yul\":7318:7319   */\n      dup1\n        /* \"#utility.yul\":7311:7323   */\n      revert\n        /* \"#utility.yul\":7262:7264   */\n    tag_178:\n        /* \"#utility.yul\":7252:7331   */\n      pop\n      jump\t// out\n        /* \"#utility.yul\":7337:7453   */\n    tag_112:\n        /* \"#utility.yul\":7407:7428   */\n      tag_180\n        /* \"#utility.yul\":7422:7427   */\n      dup2\n        /* \"#utility.yul\":7407:7428   */\n      tag_167\n      jump\t// in\n    tag_180:\n        /* \"#utility.yul\":7400:7405   */\n      dup2\n        /* \"#utility.yul\":7397:7429   */\n      eq\n        /* \"#utility.yul\":7387:7389   */\n      tag_181\n      jumpi\n        /* \"#utility.yul\":7443:7444   */\n      0x00\n        /* \"#utility.yul\":7440:7441   */\n      dup1\n        /* \"#utility.yul\":7433:7445   */\n      revert\n        /* \"#utility.yul\":7387:7389   */\n    tag_181:\n        /* \"#utility.yul\":7377:7453   */\n      pop\n      jump\t// out\n\n    auxdata: 0xa2646970667358221220e445f56b1cf5d5a0a48060a0269a6201aff93da7f0a2e6fadec5013ae7496f9b64736f6c63430008000033\n}\n",
				"bytecode": {
					"linkReferences": {},
					"object": "60806040523480156200001157600080fd5b50604051620011f6380380620011f6833981810160405281019062000037919062000190565b6000620000496200017160201b60201c565b9050806000806101000a81548173ffffffffffffffffffffffffffffffffffffffff021916908373ffffffffffffffffffffffffffffffffffffffff1602179055508073ffffffffffffffffffffffffffffffffffffffff16600073ffffffffffffffffffffffffffffffffffffffff167f8be0079c531659141344cd1fd0a4f28419497f9722a3daafe3b4186f6b6457e060405160405180910390a35081600160006101000a81548173ffffffffffffffffffffffffffffffffffffffff021916908373ffffffffffffffffffffffffffffffffffffffff16021790555080600260006101000a81548173ffffffffffffffffffffffffffffffffffffffff021916908373ffffffffffffffffffffffffffffffffffffffff16021790555050506200021f565b600033905090565b6000815190506200018a8162000205565b92915050565b60008060408385031215620001a457600080fd5b6000620001b48582860162000179565b9250506020620001c78582860162000179565b9150509250929050565b6000620001de82620001e5565b9050919050565b600073ffffffffffffffffffffffffffffffffffffffff82169050919050565b6200021081620001d1565b81146200021c57600080fd5b50565b610fc7806200022f6000396000f3fe608060405234801561001057600080fd5b50600436106100885760003560e01c80638da5cb5b1161005b5780638da5cb5b14610101578063b92b03cd1461011f578063f0f442601461013b578063f2fde38b1461015757610088565b80631e83409a1461008d5780633f7e8975146100a957806361d027b3146100d9578063715018a6146100f7575b600080fd5b6100a760048036038101906100a29190610b7e565b610173565b005b6100c360048036038101906100be9190610b7e565b6103a4565b6040516100d09190610e21565b60405180910390f35b6100e16103bc565b6040516100ee9190610d6f565b60405180910390f35b6100ff6103e2565b005b610109610535565b6040516101169190610d6f565b60405180910390f35b61013960048036038101906101349190610ba7565b61055e565b005b61015560048036038101906101509190610b7e565b61081d565b005b610171600480360381019061016c9190610b7e565b6108f6565b005b6000600360008373ffffffffffffffffffffffffffffffffffffffff1673ffffffffffffffffffffffffffffffffffffffff1681526020019081526020016000205411156103a157600160009054906101000a900473ffffffffffffffffffffffffffffffffffffffff1673ffffffffffffffffffffffffffffffffffffffff166323b872dd600260009054906101000a900473ffffffffffffffffffffffffffffffffffffffff1683600360008673ffffffffffffffffffffffffffffffffffffffff1673ffffffffffffffffffffffffffffffffffffffff168152602001908152602001600020546040518463ffffffff1660e01b815260040161027b93929190610d8a565b602060405180830381600087803b15801561029557600080fd5b505af11580156102a9573d6000803e3d6000fd5b505050506040513d601f19601f820116820180604052508101906102cd9190610c1c565b508073ffffffffffffffffffffffffffffffffffffffff167fd8138f8a3f377c5259ca548e70e4c2de94f129f5a11036a15b69513cba2b426a600360008473ffffffffffffffffffffffffffffffffffffffff1673ffffffffffffffffffffffffffffffffffffffff168152602001908152602001600020546040516103539190610e21565b60405180910390a26000600360008373ffffffffffffffffffffffffffffffffffffffff1673ffffffffffffffffffffffffffffffffffffffff168152602001908152602001600020819055505b50565b60036020528060005260406000206000915090505481565b600260009054906101000a900473ffffffffffffffffffffffffffffffffffffffff1681565b6103ea610ab8565b73ffffffffffffffffffffffffffffffffffffffff1660008054906101000a900473ffffffffffffffffffffffffffffffffffffffff1673ffffffffffffffffffffffffffffffffffffffff1614610477576040517f08c379a000000000000000000000000000000000000000000000000000000000815260040161046e90610de1565b60405180910390fd5b600073ffffffffffffffffffffffffffffffffffffffff1660008054906101000a900473ffffffffffffffffffffffffffffffffffffffff1673ffffffffffffffffffffffffffffffffffffffff167f8be0079c531659141344cd1fd0a4f28419497f9722a3daafe3b4186f6b6457e060405160405180910390a360008060006101000a81548173ffffffffffffffffffffffffffffffffffffffff021916908373ffffffffffffffffffffffffffffffffffffffff160217905550565b60008060009054906101000a900473ffffffffffffffffffffffffffffffffffffffff16905090565b610566610ab8565b73ffffffffffffffffffffffffffffffffffffffff1660008054906101000a900473ffffffffffffffffffffffffffffffffffffffff1673ffffffffffffffffffffffffffffffffffffffff16146105f3576040517f08c379a00000000000000000000000000000000000000000000000000000000081526004016105ea90610de1565b60405180910390fd5b81819050848490501461063b576040517f08c379a000000000000000000000000000000000000000000000000000000000815260040161063290610e01565b60405180910390fd5b60005b8484905081101561081657828282818110610682577f4e487b7100000000000000000000000000000000000000000000000000000000600052603260045260246000fd5b90506020020135600360008787858181106106c6577f4e487b7100000000000000000000000000000000000000000000000000000000600052603260045260246000fd5b90506020020160208101906106db9190610b7e565b73ffffffffffffffffffffffffffffffffffffffff1673ffffffffffffffffffffffffffffffffffffffff16815260200190815260200160002060008282546107249190610e4d565b92505081905550848482818110610764577f4e487b7100000000000000000000000000000000000000000000000000000000600052603260045260246000fd5b90506020020160208101906107799190610b7e565b73ffffffffffffffffffffffffffffffffffffffff167ff6334794522b9db534a812aaae1af828a2e96aac68473b58e36d7d0bfd67477b8484848181106107e9577f4e487b7100000000000000000000000000000000000000000000000000000000600052603260045260246000fd5b905060200201356040516107fd9190610e21565b60405180910390a28061080f90610eeb565b905061063e565b5050505050565b610825610ab8565b73ffffffffffffffffffffffffffffffffffffffff1660008054906101000a900473ffffffffffffffffffffffffffffffffffffffff1673ffffffffffffffffffffffffffffffffffffffff16146108b2576040517f08c379a00000000000000000000000000000000000000000000000000000000081526004016108a990610de1565b60405180910390fd5b80600260006101000a81548173ffffffffffffffffffffffffffffffffffffffff021916908373ffffffffffffffffffffffffffffffffffffffff16021790555050565b6108fe610ab8565b73ffffffffffffffffffffffffffffffffffffffff1660008054906101000a900473ffffffffffffffffffffffffffffffffffffffff1673ffffffffffffffffffffffffffffffffffffffff161461098b576040517f08c379a000000000000000000000000000000000000000000000000000000000815260040161098290610de1565b60405180910390fd5b600073ffffffffffffffffffffffffffffffffffffffff168173ffffffffffffffffffffffffffffffffffffffff1614156109fb576040517f08c379a00000000000000000000000000000000000000000000000000000000081526004016109f290610dc1565b60405180910390fd5b8073ffffffffffffffffffffffffffffffffffffffff1660008054906101000a900473ffffffffffffffffffffffffffffffffffffffff1673ffffffffffffffffffffffffffffffffffffffff167f8be0079c531659141344cd1fd0a4f28419497f9722a3daafe3b4186f6b6457e060405160405180910390a3806000806101000a81548173ffffffffffffffffffffffffffffffffffffffff021916908373ffffffffffffffffffffffffffffffffffffffff16021790555050565b600033905090565b600081359050610acf81610f63565b92915050565b60008083601f840112610ae757600080fd5b8235905067ffffffffffffffff811115610b0057600080fd5b602083019150836020820283011115610b1857600080fd5b9250929050565b60008083601f840112610b3157600080fd5b8235905067ffffffffffffffff811115610b4a57600080fd5b602083019150836020820283011115610b6257600080fd5b9250929050565b600081519050610b7881610f7a565b92915050565b600060208284031215610b9057600080fd5b6000610b9e84828501610ac0565b91505092915050565b60008060008060408587031215610bbd57600080fd5b600085013567ffffffffffffffff811115610bd757600080fd5b610be387828801610ad5565b9450945050602085013567ffffffffffffffff811115610c0257600080fd5b610c0e87828801610b1f565b925092505092959194509250565b600060208284031215610c2e57600080fd5b6000610c3c84828501610b69565b91505092915050565b610c4e81610ea3565b82525050565b6000610c61602683610e3c565b91507f4f776e61626c653a206e6577206f776e657220697320746865207a65726f206160008301527f64647265737300000000000000000000000000000000000000000000000000006020830152604082019050919050565b6000610cc7602083610e3c565b91507f4f776e61626c653a2063616c6c6572206973206e6f7420746865206f776e65726000830152602082019050919050565b6000610d07602a83610e3c565b91507f757365727320616e6420616d6f756e7473206172726179206c656e677468206d60008301527f757374206d617463682e000000000000000000000000000000000000000000006020830152604082019050919050565b610d6981610ee1565b82525050565b6000602082019050610d846000830184610c45565b92915050565b6000606082019050610d9f6000830186610c45565b610dac6020830185610c45565b610db96040830184610d60565b949350505050565b60006020820190508181036000830152610dda81610c54565b9050919050565b60006020820190508181036000830152610dfa81610cba565b9050919050565b60006020820190508181036000830152610e1a81610cfa565b9050919050565b6000602082019050610e366000830184610d60565b92915050565b600082825260208201905092915050565b6000610e5882610ee1565b9150610e6383610ee1565b9250827fffffffffffffffffffffffffffffffffffffffffffffffffffffffffffffffff03821115610e9857610e97610f34565b5b828201905092915050565b6000610eae82610ec1565b9050919050565b60008115159050919050565b600073ffffffffffffffffffffffffffffffffffffffff82169050919050565b6000819050919050565b6000610ef682610ee1565b91507fffffffffffffffffffffffffffffffffffffffffffffffffffffffffffffffff821415610f2957610f28610f34565b5b600182019050919050565b7f4e487b7100000000000000000000000000000000000000000000000000000000600052601160045260246000fd5b610f6c81610ea3565b8114610f7757600080fd5b50565b610f8381610eb5565b8114610f8e57600080fd5b5056fea2646970667358221220e445f56b1cf5d5a0a48060a0269a6201aff93da7f0a2e6fadec5013ae7496f9b64736f6c63430008000033",
					"opcodes": "PUSH1 0x80 PUSH1 0x40 MSTORE CALLVALUE DUP1 ISZERO PUSH3 0x11 JUMPI PUSH1 0x0 DUP1 REVERT JUMPDEST POP PUSH1 0x40 MLOAD PUSH3 0x11F6 CODESIZE SUB DUP1 PUSH3 0x11F6 DUP4 CODECOPY DUP2 DUP2 ADD PUSH1 0x40 MSTORE DUP2 ADD SWAP1 PUSH3 0x37 SWAP2 SWAP1 PUSH3 0x190 JUMP JUMPDEST PUSH1 0x0 PUSH3 0x49 PUSH3 0x171 PUSH1 0x20 SHL PUSH1 0x20 SHR JUMP JUMPDEST SWAP1 POP DUP1 PUSH1 0x0 DUP1 PUSH2 0x100 EXP DUP2 SLOAD DUP2 PUSH20 0xFFFFFFFFFFFFFFFFFFFFFFFFFFFFFFFFFFFFFFFF MUL NOT AND SWAP1 DUP4 PUSH20 0xFFFFFFFFFFFFFFFFFFFFFFFFFFFFFFFFFFFFFFFF AND MUL OR SWAP1 SSTORE POP DUP1 PUSH20 0xFFFFFFFFFFFFFFFFFFFFFFFFFFFFFFFFFFFFFFFF AND PUSH1 0x0 PUSH20 0xFFFFFFFFFFFFFFFFFFFFFFFFFFFFFFFFFFFFFFFF AND PUSH32 0x8BE0079C531659141344CD1FD0A4F28419497F9722A3DAAFE3B4186F6B6457E0 PUSH1 0x40 MLOAD PUSH1 0x40 MLOAD DUP1 SWAP2 SUB SWAP1 LOG3 POP DUP2 PUSH1 0x1 PUSH1 0x0 PUSH2 0x100 EXP DUP2 SLOAD DUP2 PUSH20 0xFFFFFFFFFFFFFFFFFFFFFFFFFFFFFFFFFFFFFFFF MUL NOT AND SWAP1 DUP4 PUSH20 0xFFFFFFFFFFFFFFFFFFFFFFFFFFFFFFFFFFFFFFFF AND MUL OR SWAP1 SSTORE POP DUP1 PUSH1 0x2 PUSH1 0x0 PUSH2 0x100 EXP DUP2 SLOAD DUP2 PUSH20 0xFFFFFFFFFFFFFFFFFFFFFFFFFFFFFFFFFFFFFFFF MUL NOT AND SWAP1 DUP4 PUSH20 0xFFFFFFFFFFFFFFFFFFFFFFFFFFFFFFFFFFFFFFFF AND MUL OR SWAP1 SSTORE POP POP POP PUSH3 0x21F JUMP JUMPDEST PUSH1 0x0 CALLER SWAP1 POP SWAP1 JUMP JUMPDEST PUSH1 0x0 DUP2 MLOAD SWAP1 POP PUSH3 0x18A DUP2 PUSH3 0x205 JUMP JUMPDEST SWAP3 SWAP2 POP POP JUMP JUMPDEST PUSH1 0x0 DUP1 PUSH1 0x40 DUP4 DUP6 SUB SLT ISZERO PUSH3 0x1A4 JUMPI PUSH1 0x0 DUP1 REVERT JUMPDEST PUSH1 0x0 PUSH3 0x1B4 DUP6 DUP3 DUP7 ADD PUSH3 0x179 JUMP JUMPDEST SWAP3 POP POP PUSH1 0x20 PUSH3 0x1C7 DUP6 DUP3 DUP7 ADD PUSH3 0x179 JUMP JUMPDEST SWAP2 POP POP SWAP3 POP SWAP3 SWAP1 POP JUMP JUMPDEST PUSH1 0x0 PUSH3 0x1DE DUP3 PUSH3 0x1E5 JUMP JUMPDEST SWAP1 POP SWAP2 SWAP1 POP JUMP JUMPDEST PUSH1 0x0 PUSH20 0xFFFFFFFFFFFFFFFFFFFFFFFFFFFFFFFFFFFFFFFF DUP3 AND SWAP1 POP SWAP2 SWAP1 POP JUMP JUMPDEST PUSH3 0x210 DUP2 PUSH3 0x1D1 JUMP JUMPDEST DUP2 EQ PUSH3 0x21C JUMPI PUSH1 0x0 DUP1 REVERT JUMPDEST POP JUMP JUMPDEST PUSH2 0xFC7 DUP1 PUSH3 0x22F PUSH1 0x0 CODECOPY PUSH1 0x0 RETURN INVALID PUSH1 0x80 PUSH1 0x40 MSTORE CALLVALUE DUP1 ISZERO PUSH2 0x10 JUMPI PUSH1 0x0 DUP1 REVERT JUMPDEST POP PUSH1 0x4 CALLDATASIZE LT PUSH2 0x88 JUMPI PUSH1 0x0 CALLDATALOAD PUSH1 0xE0 SHR DUP1 PUSH4 0x8DA5CB5B GT PUSH2 0x5B JUMPI DUP1 PUSH4 0x8DA5CB5B EQ PUSH2 0x101 JUMPI DUP1 PUSH4 0xB92B03CD EQ PUSH2 0x11F JUMPI DUP1 PUSH4 0xF0F44260 EQ PUSH2 0x13B JUMPI DUP1 PUSH4 0xF2FDE38B EQ PUSH2 0x157 JUMPI PUSH2 0x88 JUMP JUMPDEST DUP1 PUSH4 0x1E83409A EQ PUSH2 0x8D JUMPI DUP1 PUSH4 0x3F7E8975 EQ PUSH2 0xA9 JUMPI DUP1 PUSH4 0x61D027B3 EQ PUSH2 0xD9 JUMPI DUP1 PUSH4 0x715018A6 EQ PUSH2 0xF7 JUMPI JUMPDEST PUSH1 0x0 DUP1 REVERT JUMPDEST PUSH2 0xA7 PUSH1 0x4 DUP1 CALLDATASIZE SUB DUP2 ADD SWAP1 PUSH2 0xA2 SWAP2 SWAP1 PUSH2 0xB7E JUMP JUMPDEST PUSH2 0x173 JUMP JUMPDEST STOP JUMPDEST PUSH2 0xC3 PUSH1 0x4 DUP1 CALLDATASIZE SUB DUP2 ADD SWAP1 PUSH2 0xBE SWAP2 SWAP1 PUSH2 0xB7E JUMP JUMPDEST PUSH2 0x3A4 JUMP JUMPDEST PUSH1 0x40 MLOAD PUSH2 0xD0 SWAP2 SWAP1 PUSH2 0xE21 JUMP JUMPDEST PUSH1 0x40 MLOAD DUP1 SWAP2 SUB SWAP1 RETURN JUMPDEST PUSH2 0xE1 PUSH2 0x3BC JUMP JUMPDEST PUSH1 0x40 MLOAD PUSH2 0xEE SWAP2 SWAP1 PUSH2 0xD6F JUMP JUMPDEST PUSH1 0x40 MLOAD DUP1 SWAP2 SUB SWAP1 RETURN JUMPDEST PUSH2 0xFF PUSH2 0x3E2 JUMP JUMPDEST STOP JUMPDEST PUSH2 0x109 PUSH2 0x535 JUMP JUMPDEST PUSH1 0x40 MLOAD PUSH2 0x116 SWAP2 SWAP1 PUSH2 0xD6F JUMP JUMPDEST PUSH1 0x40 MLOAD DUP1 SWAP2 SUB SWAP1 RETURN JUMPDEST PUSH2 0x139 PUSH1 0x4 DUP1 CALLDATASIZE SUB DUP2 ADD SWAP1 PUSH2 0x134 SWAP2 SWAP1 PUSH2 0xBA7 JUMP JUMPDEST PUSH2 0x55E JUMP JUMPDEST STOP JUMPDEST PUSH2 0x155 PUSH1 0x4 DUP1 CALLDATASIZE SUB DUP2 ADD SWAP1 PUSH2 0x150 SWAP2 SWAP1 PUSH2 0xB7E JUMP JUMPDEST PUSH2 0x81D JUMP JUMPDEST STOP JUMPDEST PUSH2 0x171 PUSH1 0x4 DUP1 CALLDATASIZE SUB DUP2 ADD SWAP1 PUSH2 0x16C SWAP2 SWAP1 PUSH2 0xB7E JUMP JUMPDEST PUSH2 0x8F6 JUMP JUMPDEST STOP JUMPDEST PUSH1 0x0 PUSH1 0x3 PUSH1 0x0 DUP4 PUSH20 0xFFFFFFFFFFFFFFFFFFFFFFFFFFFFFFFFFFFFFFFF AND PUSH20 0xFFFFFFFFFFFFFFFFFFFFFFFFFFFFFFFFFFFFFFFF AND DUP2 MSTORE PUSH1 0x20 ADD SWAP1 DUP2 MSTORE PUSH1 0x20 ADD PUSH1 0x0 KECCAK256 SLOAD GT ISZERO PUSH2 0x3A1 JUMPI PUSH1 0x1 PUSH1 0x0 SWAP1 SLOAD SWAP1 PUSH2 0x100 EXP SWAP1 DIV PUSH20 0xFFFFFFFFFFFFFFFFFFFFFFFFFFFFFFFFFFFFFFFF AND PUSH20 0xFFFFFFFFFFFFFFFFFFFFFFFFFFFFFFFFFFFFFFFF AND PUSH4 0x23B872DD PUSH1 0x2 PUSH1 0x0 SWAP1 SLOAD SWAP1 PUSH2 0x100 EXP SWAP1 DIV PUSH20 0xFFFFFFFFFFFFFFFFFFFFFFFFFFFFFFFFFFFFFFFF AND DUP4 PUSH1 0x3 PUSH1 0x0 DUP7 PUSH20 0xFFFFFFFFFFFFFFFFFFFFFFFFFFFFFFFFFFFFFFFF AND PUSH20 0xFFFFFFFFFFFFFFFFFFFFFFFFFFFFFFFFFFFFFFFF AND DUP2 MSTORE PUSH1 0x20 ADD SWAP1 DUP2 MSTORE PUSH1 0x20 ADD PUSH1 0x0 KECCAK256 SLOAD PUSH1 0x40 MLOAD DUP5 PUSH4 0xFFFFFFFF AND PUSH1 0xE0 SHL DUP2 MSTORE PUSH1 0x4 ADD PUSH2 0x27B SWAP4 SWAP3 SWAP2 SWAP1 PUSH2 0xD8A JUMP JUMPDEST PUSH1 0x20 PUSH1 0x40 MLOAD DUP1 DUP4 SUB DUP2 PUSH1 0x0 DUP8 DUP1 EXTCODESIZE ISZERO DUP1 ISZERO PUSH2 0x295 JUMPI PUSH1 0x0 DUP1 REVERT JUMPDEST POP GAS CALL ISZERO DUP1 ISZERO PUSH2 0x2A9 JUMPI RETURNDATASIZE PUSH1 0x0 DUP1 RETURNDATACOPY RETURNDATASIZE PUSH1 0x0 REVERT JUMPDEST POP POP POP POP PUSH1 0x40 MLOAD RETURNDATASIZE PUSH1 0x1F NOT PUSH1 0x1F DUP3 ADD AND DUP3 ADD DUP1 PUSH1 0x40 MSTORE POP DUP2 ADD SWAP1 PUSH2 0x2CD SWAP2 SWAP1 PUSH2 0xC1C JUMP JUMPDEST POP DUP1 PUSH20 0xFFFFFFFFFFFFFFFFFFFFFFFFFFFFFFFFFFFFFFFF AND PUSH32 0xD8138F8A3F377C5259CA548E70E4C2DE94F129F5A11036A15B69513CBA2B426A PUSH1 0x3 PUSH1 0x0 DUP5 PUSH20 0xFFFFFFFFFFFFFFFFFFFFFFFFFFFFFFFFFFFFFFFF AND PUSH20 0xFFFFFFFFFFFFFFFFFFFFFFFFFFFFFFFFFFFFFFFF AND DUP2 MSTORE PUSH1 0x20 ADD SWAP1 DUP2 MSTORE PUSH1 0x20 ADD PUSH1 0x0 KECCAK256 SLOAD PUSH1 0x40 MLOAD PUSH2 0x353 SWAP2 SWAP1 PUSH2 0xE21 JUMP JUMPDEST PUSH1 0x40 MLOAD DUP1 SWAP2 SUB SWAP1 LOG2 PUSH1 0x0 PUSH1 0x3 PUSH1 0x0 DUP4 PUSH20 0xFFFFFFFFFFFFFFFFFFFFFFFFFFFFFFFFFFFFFFFF AND PUSH20 0xFFFFFFFFFFFFFFFFFFFFFFFFFFFFFFFFFFFFFFFF AND DUP2 MSTORE PUSH1 0x20 ADD SWAP1 DUP2 MSTORE PUSH1 0x20 ADD PUSH1 0x0 KECCAK256 DUP2 SWAP1 SSTORE POP JUMPDEST POP JUMP JUMPDEST PUSH1 0x3 PUSH1 0x20 MSTORE DUP1 PUSH1 0x0 MSTORE PUSH1 0x40 PUSH1 0x0 KECCAK256 PUSH1 0x0 SWAP2 POP SWAP1 POP SLOAD DUP2 JUMP JUMPDEST PUSH1 0x2 PUSH1 0x0 SWAP1 SLOAD SWAP1 PUSH2 0x100 EXP SWAP1 DIV PUSH20 0xFFFFFFFFFFFFFFFFFFFFFFFFFFFFFFFFFFFFFFFF AND DUP2 JUMP JUMPDEST PUSH2 0x3EA PUSH2 0xAB8 JUMP JUMPDEST PUSH20 0xFFFFFFFFFFFFFFFFFFFFFFFFFFFFFFFFFFFFFFFF AND PUSH1 0x0 DUP1 SLOAD SWAP1 PUSH2 0x100 EXP SWAP1 DIV PUSH20 0xFFFFFFFFFFFFFFFFFFFFFFFFFFFFFFFFFFFFFFFF AND PUSH20 0xFFFFFFFFFFFFFFFFFFFFFFFFFFFFFFFFFFFFFFFF AND EQ PUSH2 0x477 JUMPI PUSH1 0x40 MLOAD PUSH32 0x8C379A000000000000000000000000000000000000000000000000000000000 DUP2 MSTORE PUSH1 0x4 ADD PUSH2 0x46E SWAP1 PUSH2 0xDE1 JUMP JUMPDEST PUSH1 0x40 MLOAD DUP1 SWAP2 SUB SWAP1 REVERT JUMPDEST PUSH1 0x0 PUSH20 0xFFFFFFFFFFFFFFFFFFFFFFFFFFFFFFFFFFFFFFFF AND PUSH1 0x0 DUP1 SLOAD SWAP1 PUSH2 0x100 EXP SWAP1 DIV PUSH20 0xFFFFFFFFFFFFFFFFFFFFFFFFFFFFFFFFFFFFFFFF AND PUSH20 0xFFFFFFFFFFFFFFFFFFFFFFFFFFFFFFFFFFFFFFFF AND PUSH32 0x8BE0079C531659141344CD1FD0A4F28419497F9722A3DAAFE3B4186F6B6457E0 PUSH1 0x40 MLOAD PUSH1 0x40 MLOAD DUP1 SWAP2 SUB SWAP1 LOG3 PUSH1 0x0 DUP1 PUSH1 0x0 PUSH2 0x100 EXP DUP2 SLOAD DUP2 PUSH20 0xFFFFFFFFFFFFFFFFFFFFFFFFFFFFFFFFFFFFFFFF MUL NOT AND SWAP1 DUP4 PUSH20 0xFFFFFFFFFFFFFFFFFFFFFFFFFFFFFFFFFFFFFFFF AND MUL OR SWAP1 SSTORE POP JUMP JUMPDEST PUSH1 0x0 DUP1 PUSH1 0x0 SWAP1 SLOAD SWAP1 PUSH2 0x100 EXP SWAP1 DIV PUSH20 0xFFFFFFFFFFFFFFFFFFFFFFFFFFFFFFFFFFFFFFFF AND SWAP1 POP SWAP1 JUMP JUMPDEST PUSH2 0x566 PUSH2 0xAB8 JUMP JUMPDEST PUSH20 0xFFFFFFFFFFFFFFFFFFFFFFFFFFFFFFFFFFFFFFFF AND PUSH1 0x0 DUP1 SLOAD SWAP1 PUSH2 0x100 EXP SWAP1 DIV PUSH20 0xFFFFFFFFFFFFFFFFFFFFFFFFFFFFFFFFFFFFFFFF AND PUSH20 0xFFFFFFFFFFFFFFFFFFFFFFFFFFFFFFFFFFFFFFFF AND EQ PUSH2 0x5F3 JUMPI PUSH1 0x40 MLOAD PUSH32 0x8C379A000000000000000000000000000000000000000000000000000000000 DUP2 MSTORE PUSH1 0x4 ADD PUSH2 0x5EA SWAP1 PUSH2 0xDE1 JUMP JUMPDEST PUSH1 0x40 MLOAD DUP1 SWAP2 SUB SWAP1 REVERT JUMPDEST DUP2 DUP2 SWAP1 POP DUP5 DUP5 SWAP1 POP EQ PUSH2 0x63B JUMPI PUSH1 0x40 MLOAD PUSH32 0x8C379A000000000000000000000000000000000000000000000000000000000 DUP2 MSTORE PUSH1 0x4 ADD PUSH2 0x632 SWAP1 PUSH2 0xE01 JUMP JUMPDEST PUSH1 0x40 MLOAD DUP1 SWAP2 SUB SWAP1 REVERT JUMPDEST PUSH1 0x0 JUMPDEST DUP5 DUP5 SWAP1 POP DUP2 LT ISZERO PUSH2 0x816 JUMPI DUP3 DUP3 DUP3 DUP2 DUP2 LT PUSH2 0x682 JUMPI PUSH32 0x4E487B7100000000000000000000000000000000000000000000000000000000 PUSH1 0x0 MSTORE PUSH1 0x32 PUSH1 0x4 MSTORE PUSH1 0x24 PUSH1 0x0 REVERT JUMPDEST SWAP1 POP PUSH1 0x20 MUL ADD CALLDATALOAD PUSH1 0x3 PUSH1 0x0 DUP8 DUP8 DUP6 DUP2 DUP2 LT PUSH2 0x6C6 JUMPI PUSH32 0x4E487B7100000000000000000000000000000000000000000000000000000000 PUSH1 0x0 MSTORE PUSH1 0x32 PUSH1 0x4 MSTORE PUSH1 0x24 PUSH1 0x0 REVERT JUMPDEST SWAP1 POP PUSH1 0x20 MUL ADD PUSH1 0x20 DUP2 ADD SWAP1 PUSH2 0x6DB SWAP2 SWAP1 PUSH2 0xB7E JUMP JUMPDEST PUSH20 0xFFFFFFFFFFFFFFFFFFFFFFFFFFFFFFFFFFFFFFFF AND PUSH20 0xFFFFFFFFFFFFFFFFFFFFFFFFFFFFFFFFFFFFFFFF AND DUP2 MSTORE PUSH1 0x20 ADD SWAP1 DUP2 MSTORE PUSH1 0x20 ADD PUSH1 0x0 KECCAK256 PUSH1 0x0 DUP3 DUP3 SLOAD PUSH2 0x724 SWAP2 SWAP1 PUSH2 0xE4D JUMP JUMPDEST SWAP3 POP POP DUP2 SWAP1 SSTORE POP DUP5 DUP5 DUP3 DUP2 DUP2 LT PUSH2 0x764 JUMPI PUSH32 0x4E487B7100000000000000000000000000000000000000000000000000000000 PUSH1 0x0 MSTORE PUSH1 0x32 PUSH1 0x4 MSTORE PUSH1 0x24 PUSH1 0x0 REVERT JUMPDEST SWAP1 POP PUSH1 0x20 MUL ADD PUSH1 0x20 DUP2 ADD SWAP1 PUSH2 0x779 SWAP2 SWAP1 PUSH2 0xB7E JUMP JUMPDEST PUSH20 0xFFFFFFFFFFFFFFFFFFFFFFFFFFFFFFFFFFFFFFFF AND PUSH32 0xF6334794522B9DB534A812AAAE1AF828A2E96AAC68473B58E36D7D0BFD67477B DUP5 DUP5 DUP5 DUP2 DUP2 LT PUSH2 0x7E9 JUMPI PUSH32 0x4E487B7100000000000000000000000000000000000000000000000000000000 PUSH1 0x0 MSTORE PUSH1 0x32 PUSH1 0x4 MSTORE PUSH1 0x24 PUSH1 0x0 REVERT JUMPDEST SWAP1 POP PUSH1 0x20 MUL ADD CALLDATALOAD PUSH1 0x40 MLOAD PUSH2 0x7FD SWAP2 SWAP1 PUSH2 0xE21 JUMP JUMPDEST PUSH1 0x40 MLOAD DUP1 SWAP2 SUB SWAP1 LOG2 DUP1 PUSH2 0x80F SWAP1 PUSH2 0xEEB JUMP JUMPDEST SWAP1 POP PUSH2 0x63E JUMP JUMPDEST POP POP POP POP POP JUMP JUMPDEST PUSH2 0x825 PUSH2 0xAB8 JUMP JUMPDEST PUSH20 0xFFFFFFFFFFFFFFFFFFFFFFFFFFFFFFFFFFFFFFFF AND PUSH1 0x0 DUP1 SLOAD SWAP1 PUSH2 0x100 EXP SWAP1 DIV PUSH20 0xFFFFFFFFFFFFFFFFFFFFFFFFFFFFFFFFFFFFFFFF AND PUSH20 0xFFFFFFFFFFFFFFFFFFFFFFFFFFFFFFFFFFFFFFFF AND EQ PUSH2 0x8B2 JUMPI PUSH1 0x40 MLOAD PUSH32 0x8C379A000000000000000000000000000000000000000000000000000000000 DUP2 MSTORE PUSH1 0x4 ADD PUSH2 0x8A9 SWAP1 PUSH2 0xDE1 JUMP JUMPDEST PUSH1 0x40 MLOAD DUP1 SWAP2 SUB SWAP1 REVERT JUMPDEST DUP1 PUSH1 0x2 PUSH1 0x0 PUSH2 0x100 EXP DUP2 SLOAD DUP2 PUSH20 0xFFFFFFFFFFFFFFFFFFFFFFFFFFFFFFFFFFFFFFFF MUL NOT AND SWAP1 DUP4 PUSH20 0xFFFFFFFFFFFFFFFFFFFFFFFFFFFFFFFFFFFFFFFF AND MUL OR SWAP1 SSTORE POP POP JUMP JUMPDEST PUSH2 0x8FE PUSH2 0xAB8 JUMP JUMPDEST PUSH20 0xFFFFFFFFFFFFFFFFFFFFFFFFFFFFFFFFFFFFFFFF AND PUSH1 0x0 DUP1 SLOAD SWAP1 PUSH2 0x100 EXP SWAP1 DIV PUSH20 0xFFFFFFFFFFFFFFFFFFFFFFFFFFFFFFFFFFFFFFFF AND PUSH20 0xFFFFFFFFFFFFFFFFFFFFFFFFFFFFFFFFFFFFFFFF AND EQ PUSH2 0x98B JUMPI PUSH1 0x40 MLOAD PUSH32 0x8C379A000000000000000000000000000000000000000000000000000000000 DUP2 MSTORE PUSH1 0x4 ADD PUSH2 0x982 SWAP1 PUSH2 0xDE1 JUMP JUMPDEST PUSH1 0x40 MLOAD DUP1 SWAP2 SUB SWAP1 REVERT JUMPDEST PUSH1 0x0 PUSH20 0xFFFFFFFFFFFFFFFFFFFFFFFFFFFFFFFFFFFFFFFF AND DUP2 PUSH20 0xFFFFFFFFFFFFFFFFFFFFFFFFFFFFFFFFFFFFFFFF AND EQ ISZERO PUSH2 0x9FB JUMPI PUSH1 0x40 MLOAD PUSH32 0x8C379A000000000000000000000000000000000000000000000000000000000 DUP2 MSTORE PUSH1 0x4 ADD PUSH2 0x9F2 SWAP1 PUSH2 0xDC1 JUMP JUMPDEST PUSH1 0x40 MLOAD DUP1 SWAP2 SUB SWAP1 REVERT JUMPDEST DUP1 PUSH20 0xFFFFFFFFFFFFFFFFFFFFFFFFFFFFFFFFFFFFFFFF AND PUSH1 0x0 DUP1 SLOAD SWAP1 PUSH2 0x100 EXP SWAP1 DIV PUSH20 0xFFFFFFFFFFFFFFFFFFFFFFFFFFFFFFFFFFFFFFFF AND PUSH20 0xFFFFFFFFFFFFFFFFFFFFFFFFFFFFFFFFFFFFFFFF AND PUSH32 0x8BE0079C531659141344CD1FD0A4F28419497F9722A3DAAFE3B4186F6B6457E0 PUSH1 0x40 MLOAD PUSH1 0x40 MLOAD DUP1 SWAP2 SUB SWAP1 LOG3 DUP1 PUSH1 0x0 DUP1 PUSH2 0x100 EXP DUP2 SLOAD DUP2 PUSH20 0xFFFFFFFFFFFFFFFFFFFFFFFFFFFFFFFFFFFFFFFF MUL NOT AND SWAP1 DUP4 PUSH20 0xFFFFFFFFFFFFFFFFFFFFFFFFFFFFFFFFFFFFFFFF AND MUL OR SWAP1 SSTORE POP POP JUMP JUMPDEST PUSH1 0x0 CALLER SWAP1 POP SWAP1 JUMP JUMPDEST PUSH1 0x0 DUP2 CALLDATALOAD SWAP1 POP PUSH2 0xACF DUP2 PUSH2 0xF63 JUMP JUMPDEST SWAP3 SWAP2 POP POP JUMP JUMPDEST PUSH1 0x0 DUP1 DUP4 PUSH1 0x1F DUP5 ADD SLT PUSH2 0xAE7 JUMPI PUSH1 0x0 DUP1 REVERT JUMPDEST DUP3 CALLDATALOAD SWAP1 POP PUSH8 0xFFFFFFFFFFFFFFFF DUP2 GT ISZERO PUSH2 0xB00 JUMPI PUSH1 0x0 DUP1 REVERT JUMPDEST PUSH1 0x20 DUP4 ADD SWAP2 POP DUP4 PUSH1 0x20 DUP3 MUL DUP4 ADD GT ISZERO PUSH2 0xB18 JUMPI PUSH1 0x0 DUP1 REVERT JUMPDEST SWAP3 POP SWAP3 SWAP1 POP JUMP JUMPDEST PUSH1 0x0 DUP1 DUP4 PUSH1 0x1F DUP5 ADD SLT PUSH2 0xB31 JUMPI PUSH1 0x0 DUP1 REVERT JUMPDEST DUP3 CALLDATALOAD SWAP1 POP PUSH8 0xFFFFFFFFFFFFFFFF DUP2 GT ISZERO PUSH2 0xB4A JUMPI PUSH1 0x0 DUP1 REVERT JUMPDEST PUSH1 0x20 DUP4 ADD SWAP2 POP DUP4 PUSH1 0x20 DUP3 MUL DUP4 ADD GT ISZERO PUSH2 0xB62 JUMPI PUSH1 0x0 DUP1 REVERT JUMPDEST SWAP3 POP SWAP3 SWAP1 POP JUMP JUMPDEST PUSH1 0x0 DUP2 MLOAD SWAP1 POP PUSH2 0xB78 DUP2 PUSH2 0xF7A JUMP JUMPDEST SWAP3 SWAP2 POP POP JUMP JUMPDEST PUSH1 0x0 PUSH1 0x20 DUP3 DUP5 SUB SLT ISZERO PUSH2 0xB90 JUMPI PUSH1 0x0 DUP1 REVERT JUMPDEST PUSH1 0x0 PUSH2 0xB9E DUP5 DUP3 DUP6 ADD PUSH2 0xAC0 JUMP JUMPDEST SWAP2 POP POP SWAP3 SWAP2 POP POP JUMP JUMPDEST PUSH1 0x0 DUP1 PUSH1 0x0 DUP1 PUSH1 0x40 DUP6 DUP8 SUB SLT ISZERO PUSH2 0xBBD JUMPI PUSH1 0x0 DUP1 REVERT JUMPDEST PUSH1 0x0 DUP6 ADD CALLDATALOAD PUSH8 0xFFFFFFFFFFFFFFFF DUP2 GT ISZERO PUSH2 0xBD7 JUMPI PUSH1 0x0 DUP1 REVERT JUMPDEST PUSH2 0xBE3 DUP8 DUP3 DUP9 ADD PUSH2 0xAD5 JUMP JUMPDEST SWAP5 POP SWAP5 POP POP PUSH1 0x20 DUP6 ADD CALLDATALOAD PUSH8 0xFFFFFFFFFFFFFFFF DUP2 GT ISZERO PUSH2 0xC02 JUMPI PUSH1 0x0 DUP1 REVERT JUMPDEST PUSH2 0xC0E DUP8 DUP3 DUP9 ADD PUSH2 0xB1F JUMP JUMPDEST SWAP3 POP SWAP3 POP POP SWAP3 SWAP6 SWAP2 SWAP5 POP SWAP3 POP JUMP JUMPDEST PUSH1 0x0 PUSH1 0x20 DUP3 DUP5 SUB SLT ISZERO PUSH2 0xC2E JUMPI PUSH1 0x0 DUP1 REVERT JUMPDEST PUSH1 0x0 PUSH2 0xC3C DUP5 DUP3 DUP6 ADD PUSH2 0xB69 JUMP JUMPDEST SWAP2 POP POP SWAP3 SWAP2 POP POP JUMP JUMPDEST PUSH2 0xC4E DUP2 PUSH2 0xEA3 JUMP JUMPDEST DUP3 MSTORE POP POP JUMP JUMPDEST PUSH1 0x0 PUSH2 0xC61 PUSH1 0x26 DUP4 PUSH2 0xE3C JUMP JUMPDEST SWAP2 POP PUSH32 0x4F776E61626C653A206E6577206F776E657220697320746865207A65726F2061 PUSH1 0x0 DUP4 ADD MSTORE PUSH32 0x6464726573730000000000000000000000000000000000000000000000000000 PUSH1 0x20 DUP4 ADD MSTORE PUSH1 0x40 DUP3 ADD SWAP1 POP SWAP2 SWAP1 POP JUMP JUMPDEST PUSH1 0x0 PUSH2 0xCC7 PUSH1 0x20 DUP4 PUSH2 0xE3C JUMP JUMPDEST SWAP2 POP PUSH32 0x4F776E61626C653A2063616C6C6572206973206E6F7420746865206F776E6572 PUSH1 0x0 DUP4 ADD MSTORE PUSH1 0x20 DUP3 ADD SWAP1 POP SWAP2 SWAP1 POP JUMP JUMPDEST PUSH1 0x0 PUSH2 0xD07 PUSH1 0x2A DUP4 PUSH2 0xE3C JUMP JUMPDEST SWAP2 POP PUSH32 0x757365727320616E6420616D6F756E7473206172726179206C656E677468206D PUSH1 0x0 DUP4 ADD MSTORE PUSH32 0x757374206D617463682E00000000000000000000000000000000000000000000 PUSH1 0x20 DUP4 ADD MSTORE PUSH1 0x40 DUP3 ADD SWAP1 POP SWAP2 SWAP1 POP JUMP JUMPDEST PUSH2 0xD69 DUP2 PUSH2 0xEE1 JUMP JUMPDEST DUP3 MSTORE POP POP JUMP JUMPDEST PUSH1 0x0 PUSH1 0x20 DUP3 ADD SWAP1 POP PUSH2 0xD84 PUSH1 0x0 DUP4 ADD DUP5 PUSH2 0xC45 JUMP JUMPDEST SWAP3 SWAP2 POP POP JUMP JUMPDEST PUSH1 0x0 PUSH1 0x60 DUP3 ADD SWAP1 POP PUSH2 0xD9F PUSH1 0x0 DUP4 ADD DUP7 PUSH2 0xC45 JUMP JUMPDEST PUSH2 0xDAC PUSH1 0x20 DUP4 ADD DUP6 PUSH2 0xC45 JUMP JUMPDEST PUSH2 0xDB9 PUSH1 0x40 DUP4 ADD DUP5 PUSH2 0xD60 JUMP JUMPDEST SWAP5 SWAP4 POP POP POP POP JUMP JUMPDEST PUSH1 0x0 PUSH1 0x20 DUP3 ADD SWAP1 POP DUP2 DUP2 SUB PUSH1 0x0 DUP4 ADD MSTORE PUSH2 0xDDA DUP2 PUSH2 0xC54 JUMP JUMPDEST SWAP1 POP SWAP2 SWAP1 POP JUMP JUMPDEST PUSH1 0x0 PUSH1 0x20 DUP3 ADD SWAP1 POP DUP2 DUP2 SUB PUSH1 0x0 DUP4 ADD MSTORE PUSH2 0xDFA DUP2 PUSH2 0xCBA JUMP JUMPDEST SWAP1 POP SWAP2 SWAP1 POP JUMP JUMPDEST PUSH1 0x0 PUSH1 0x20 DUP3 ADD SWAP1 POP DUP2 DUP2 SUB PUSH1 0x0 DUP4 ADD MSTORE PUSH2 0xE1A DUP2 PUSH2 0xCFA JUMP JUMPDEST SWAP1 POP SWAP2 SWAP1 POP JUMP JUMPDEST PUSH1 0x0 PUSH1 0x20 DUP3 ADD SWAP1 POP PUSH2 0xE36 PUSH1 0x0 DUP4 ADD DUP5 PUSH2 0xD60 JUMP JUMPDEST SWAP3 SWAP2 POP POP JUMP JUMPDEST PUSH1 0x0 DUP3 DUP3 MSTORE PUSH1 0x20 DUP3 ADD SWAP1 POP SWAP3 SWAP2 POP POP JUMP JUMPDEST PUSH1 0x0 PUSH2 0xE58 DUP3 PUSH2 0xEE1 JUMP JUMPDEST SWAP2 POP PUSH2 0xE63 DUP4 PUSH2 0xEE1 JUMP JUMPDEST SWAP3 POP DUP3 PUSH32 0xFFFFFFFFFFFFFFFFFFFFFFFFFFFFFFFFFFFFFFFFFFFFFFFFFFFFFFFFFFFFFFFF SUB DUP3 GT ISZERO PUSH2 0xE98 JUMPI PUSH2 0xE97 PUSH2 0xF34 JUMP JUMPDEST JUMPDEST DUP3 DUP3 ADD SWAP1 POP SWAP3 SWAP2 POP POP JUMP JUMPDEST PUSH1 0x0 PUSH2 0xEAE DUP3 PUSH2 0xEC1 JUMP JUMPDEST SWAP1 POP SWAP2 SWAP1 POP JUMP JUMPDEST PUSH1 0x0 DUP2 ISZERO ISZERO SWAP1 POP SWAP2 SWAP1 POP JUMP JUMPDEST PUSH1 0x0 PUSH20 0xFFFFFFFFFFFFFFFFFFFFFFFFFFFFFFFFFFFFFFFF DUP3 AND SWAP1 POP SWAP2 SWAP1 POP JUMP JUMPDEST PUSH1 0x0 DUP2 SWAP1 POP SWAP2 SWAP1 POP JUMP JUMPDEST PUSH1 0x0 PUSH2 0xEF6 DUP3 PUSH2 0xEE1 JUMP JUMPDEST SWAP2 POP PUSH32 0xFFFFFFFFFFFFFFFFFFFFFFFFFFFFFFFFFFFFFFFFFFFFFFFFFFFFFFFFFFFFFFFF DUP3 EQ ISZERO PUSH2 0xF29 JUMPI PUSH2 0xF28 PUSH2 0xF34 JUMP JUMPDEST JUMPDEST PUSH1 0x1 DUP3 ADD SWAP1 POP SWAP2 SWAP1 POP JUMP JUMPDEST PUSH32 0x4E487B7100000000000000000000000000000000000000000000000000000000 PUSH1 0x0 MSTORE PUSH1 0x11 PUSH1 0x4 MSTORE PUSH1 0x24 PUSH1 0x0 REVERT JUMPDEST PUSH2 0xF6C DUP2 PUSH2 0xEA3 JUMP JUMPDEST DUP2 EQ PUSH2 0xF77 JUMPI PUSH1 0x0 DUP1 REVERT JUMPDEST POP JUMP JUMPDEST PUSH2 0xF83 DUP2 PUSH2 0xEB5 JUMP JUMPDEST DUP2 EQ PUSH2 0xF8E JUMPI PUSH1 0x0 DUP1 REVERT JUMPDEST POP JUMP INVALID LOG2 PUSH5 0x6970667358 0x22 SLT KECCAK256 0xE4 GASLIMIT CREATE2 PUSH12 0x1CF5D5A0A48060A0269A6201 0xAF 0xF9 RETURNDATASIZE 0xA7 CREATE LOG2 0xE6 STATICCALL 0xDE 0xC5 ADD GASPRICE 0xE7 0x49 PUSH16 0x9B64736F6C6343000800003300000000 "
				},
				"gasEstimates": {
					"creation": {
						"codeDepositCost": "807800",
						"executionCost": "infinite",
						"totalCost": "infinite"
					},
					"external": {
						"availableUnclaimedToken(address)": "1537",
						"batchRelease(address[],uint256[])": "infinite",
						"claim(address)": "infinite",
						"owner()": "1222",
						"renounceOwnership()": "24358",
						"setTreasury(address)": "22268",
						"transferOwnership(address)": "24706",
						"treasury()": "1259"
					}
				},
				"methodIdentifiers": {
					"availableUnclaimedToken(address)": "3f7e8975",
					"batchRelease(address[],uint256[])": "b92b03cd",
					"claim(address)": "1e83409a",
					"owner()": "8da5cb5b",
					"renounceOwnership()": "715018a6",
					"setTreasury(address)": "f0f44260",
					"transferOwnership(address)": "f2fde38b",
					"treasury()": "61d027b3"
				}
			},
			"storageLayout": {
				"storage": [
					{
						"astId": 38,
						"contract": "atta-movies/PopcornClaimer.sol:PopcornClaimer",
						"label": "_owner",
						"offset": 0,
						"slot": "0",
						"type": "t_address"
					},
					{
						"astId": 144,
						"contract": "atta-movies/PopcornClaimer.sol:PopcornClaimer",
						"label": "popcornToken",
						"offset": 0,
						"slot": "1",
						"type": "t_contract(IERC20Minter)13"
					},
					{
						"astId": 146,
						"contract": "atta-movies/PopcornClaimer.sol:PopcornClaimer",
						"label": "treasury",
						"offset": 0,
						"slot": "2",
						"type": "t_address"
					},
					{
						"astId": 150,
						"contract": "atta-movies/PopcornClaimer.sol:PopcornClaimer",
						"label": "availableUnclaimedToken",
						"offset": 0,
						"slot": "3",
						"type": "t_mapping(t_address,t_uint256)"
					}
				],
				"types": {
					"t_address": {
						"encoding": "inplace",
						"label": "address",
						"numberOfBytes": "20"
					},
					"t_contract(IERC20Minter)13": {
						"encoding": "inplace",
						"label": "contract IERC20Minter",
						"numberOfBytes": "20"
					},
					"t_mapping(t_address,t_uint256)": {
						"encoding": "mapping",
						"key": "t_address",
						"label": "mapping(address => uint256)",
						"numberOfBytes": "32",
						"value": "t_uint256"
					},
					"t_uint256": {
						"encoding": "inplace",
						"label": "uint256",
						"numberOfBytes": "32"
					}
				}
			},
			"userdoc": {
				"kind": "user",
				"methods": {},
				"version": 1
			}
		}
	}
}